{
  "_format": "hh-sol-artifact-1",
  "contractName": "AgentRoleUpgradeable",
  "sourceName": "contracts/erc3643/roles/AgentRoleUpgradeable.sol",
  "abi": [
    {
      "inputs": [],
      "name": "InvalidInitialization",
      "type": "error"
    },
    {
      "inputs": [],
      "name": "NotInitializing",
      "type": "error"
    },
    {
      "inputs": [
        {
          "internalType": "address",
          "name": "owner",
          "type": "address"
        }
      ],
      "name": "OwnableInvalidOwner",
      "type": "error"
    },
    {
      "inputs": [
        {
          "internalType": "address",
          "name": "account",
          "type": "address"
        }
      ],
      "name": "OwnableUnauthorizedAccount",
      "type": "error"
    },
    {
      "anonymous": false,
      "inputs": [
        {
          "indexed": true,
          "internalType": "address",
          "name": "_agent",
          "type": "address"
        }
      ],
      "name": "AgentAdded",
      "type": "event"
    },
    {
      "anonymous": false,
      "inputs": [
        {
          "indexed": true,
          "internalType": "address",
          "name": "_agent",
          "type": "address"
        }
      ],
      "name": "AgentRemoved",
      "type": "event"
    },
    {
      "anonymous": false,
      "inputs": [
        {
          "indexed": false,
          "internalType": "uint64",
          "name": "version",
          "type": "uint64"
        }
      ],
      "name": "Initialized",
      "type": "event"
    },
    {
      "anonymous": false,
      "inputs": [
        {
          "indexed": true,
          "internalType": "address",
          "name": "previousOwner",
          "type": "address"
        },
        {
          "indexed": true,
          "internalType": "address",
          "name": "newOwner",
          "type": "address"
        }
      ],
      "name": "OwnershipTransferred",
      "type": "event"
    },
    {
      "inputs": [
        {
          "internalType": "address",
          "name": "_agent",
          "type": "address"
        }
      ],
      "name": "addAgent",
      "outputs": [],
      "stateMutability": "nonpayable",
      "type": "function"
    },
    {
      "inputs": [
        {
          "internalType": "address",
          "name": "_agent",
          "type": "address"
        }
      ],
      "name": "isAgent",
      "outputs": [
        {
          "internalType": "bool",
          "name": "",
          "type": "bool"
        }
      ],
      "stateMutability": "view",
      "type": "function"
    },
    {
      "inputs": [],
      "name": "owner",
      "outputs": [
        {
          "internalType": "address",
          "name": "",
          "type": "address"
        }
      ],
      "stateMutability": "view",
      "type": "function"
    },
    {
      "inputs": [
        {
          "internalType": "address",
          "name": "_agent",
          "type": "address"
        }
      ],
      "name": "removeAgent",
      "outputs": [],
      "stateMutability": "nonpayable",
      "type": "function"
    },
    {
      "inputs": [],
      "name": "renounceOwnership",
      "outputs": [],
      "stateMutability": "nonpayable",
      "type": "function"
    },
    {
      "inputs": [
        {
          "internalType": "address",
          "name": "newOwner",
          "type": "address"
        }
      ],
      "name": "transferOwnership",
      "outputs": [],
      "stateMutability": "nonpayable",
      "type": "function"
    }
  ],
  "bytecode": "0x608060405234801561001057600080fd5b50610537806100206000396000f3fe608060405234801561001057600080fd5b50600436106100625760003560e01c80631ffbb06414610067578063715018a61461008f57806384e79842146100995780638da5cb5b146100ac57806397a6278e146100c1578063f2fde38b146100d4575b600080fd5b61007a610075366004610486565b6100e7565b60405190151581526020015b60405180910390f35b6100976100f9565b005b6100976100a7366004610486565b61010d565b6100b4610186565b60405161008691906104b6565b6100976100cf366004610486565b6101b4565b6100976100e2366004610486565b610224565b60006100f38183610262565b92915050565b6101016102e5565b61010b6000610317565b565b6101156102e5565b6001600160a01b0381166101445760405162461bcd60e51b815260040161013b906104ca565b60405180910390fd5b61014f600082610388565b6040516001600160a01b038216907ff68e73cec97f2d70aa641fb26e87a4383686e2efacb648f2165aeb02ac562ec590600090a250565b7f9016d09d72d40fdae2fd8ceac6b6234c7706214fd39c1cd1e609a0528c199300546001600160a01b031690565b6101bc6102e5565b6001600160a01b0381166101e25760405162461bcd60e51b815260040161013b906104ca565b6101ed600082610404565b6040516001600160a01b038216907fed9c8ad8d5a0a66898ea49d2956929c93ae2e8bd50281b2ed897c5d1a6737e0b90600090a250565b61022c6102e5565b6001600160a01b038116610256576000604051631e4fbdf760e01b815260040161013b91906104b6565b61025f81610317565b50565b60006001600160a01b0382166102c55760405162461bcd60e51b815260206004820152602260248201527f526f6c65733a206163636f756e7420697320746865207a65726f206164647265604482015261737360f01b606482015260840161013b565b506001600160a01b03166000908152602091909152604090205460ff1690565b336102ee610186565b6001600160a01b03161461010b573360405163118cdaa760e01b815260040161013b91906104b6565b7f9016d09d72d40fdae2fd8ceac6b6234c7706214fd39c1cd1e609a0528c19930080546001600160a01b031981166001600160a01b03848116918217845560405192169182907f8be0079c531659141344cd1fd0a4f28419497f9722a3daafe3b4186f6b6457e090600090a3505050565b6103928282610262565b156103df5760405162461bcd60e51b815260206004820152601f60248201527f526f6c65733a206163636f756e7420616c72656164792068617320726f6c6500604482015260640161013b565b6001600160a01b0316600090815260209190915260409020805460ff19166001179055565b61040e8282610262565b6104645760405162461bcd60e51b815260206004820152602160248201527f526f6c65733a206163636f756e7420646f6573206e6f74206861766520726f6c6044820152606560f81b606482015260840161013b565b6001600160a01b0316600090815260209190915260409020805460ff19169055565b60006020828403121561049857600080fd5b81356001600160a01b03811681146104af57600080fd5b9392505050565b6001600160a01b0391909116815260200190565b6020808252601f908201527f696e76616c696420617267756d656e74202d207a65726f20616464726573730060408201526060019056fea26469706673582212203948d0dd128b1073126977339bb8e2dfae3f57f505f018c6d8aee8efff7923a464736f6c63430008180033",
  "linkReferences": {},
  "deployedLinkReferences": {}
}