{
  "_format": "hh-sol-artifact-1",
  "contractName": "AgentRoles",
  "sourceName": "contracts/erc3643/roles/permissioning/agent/AgentRoles.sol",
  "abi": [
    {
      "inputs": [],
      "stateMutability": "nonpayable",
      "type": "constructor"
    },
    {
      "inputs": [
        {
          "internalType": "address",
          "name": "owner",
          "type": "address"
        }
      ],
      "name": "OwnableInvalidOwner",
      "type": "error"
    },
    {
      "inputs": [
        {
          "internalType": "address",
          "name": "account",
          "type": "address"
        }
      ],
      "name": "OwnableUnauthorizedAccount",
      "type": "error"
    },
    {
      "anonymous": false,
      "inputs": [
        {
          "indexed": true,
          "internalType": "address",
          "name": "previousOwner",
          "type": "address"
        },
        {
          "indexed": true,
          "internalType": "address",
          "name": "newOwner",
          "type": "address"
        }
      ],
      "name": "OwnershipTransferred",
      "type": "event"
    },
    {
      "anonymous": false,
      "inputs": [
        {
          "indexed": true,
          "internalType": "address",
          "name": "_agent",
          "type": "address"
        },
        {
          "indexed": false,
          "internalType": "string",
          "name": "_role",
          "type": "string"
        }
      ],
      "name": "RoleAdded",
      "type": "event"
    },
    {
      "anonymous": false,
      "inputs": [
        {
          "indexed": true,
          "internalType": "address",
          "name": "_agent",
          "type": "address"
        },
        {
          "indexed": false,
          "internalType": "string",
          "name": "_role",
          "type": "string"
        }
      ],
      "name": "RoleRemoved",
      "type": "event"
    },
    {
      "inputs": [
        {
          "internalType": "address",
          "name": "_agent",
          "type": "address"
        }
      ],
      "name": "addAgentAdmin",
      "outputs": [],
      "stateMutability": "nonpayable",
      "type": "function"
    },
    {
      "inputs": [
        {
          "internalType": "address",
          "name": "_agent",
          "type": "address"
        }
      ],
      "name": "addComplianceAgent",
      "outputs": [],
      "stateMutability": "nonpayable",
      "type": "function"
    },
    {
      "inputs": [
        {
          "internalType": "address",
          "name": "_agent",
          "type": "address"
        }
      ],
      "name": "addFreezer",
      "outputs": [],
      "stateMutability": "nonpayable",
      "type": "function"
    },
    {
      "inputs": [
        {
          "internalType": "address",
          "name": "_agent",
          "type": "address"
        }
      ],
      "name": "addRecoveryAgent",
      "outputs": [],
      "stateMutability": "nonpayable",
      "type": "function"
    },
    {
      "inputs": [
        {
          "internalType": "address",
          "name": "_agent",
          "type": "address"
        }
      ],
      "name": "addSupplyModifier",
      "outputs": [],
      "stateMutability": "nonpayable",
      "type": "function"
    },
    {
      "inputs": [
        {
          "internalType": "address",
          "name": "_agent",
          "type": "address"
        }
      ],
      "name": "addTransferManager",
      "outputs": [],
      "stateMutability": "nonpayable",
      "type": "function"
    },
    {
      "inputs": [
        {
          "internalType": "address",
          "name": "_agent",
          "type": "address"
        }
      ],
      "name": "addWhiteListManager",
      "outputs": [],
      "stateMutability": "nonpayable",
      "type": "function"
    },
    {
      "inputs": [
        {
          "internalType": "address",
          "name": "_agent",
          "type": "address"
        }
      ],
      "name": "isAgentAdmin",
      "outputs": [
        {
          "internalType": "bool",
          "name": "",
          "type": "bool"
        }
      ],
      "stateMutability": "view",
      "type": "function"
    },
    {
      "inputs": [
        {
          "internalType": "address",
          "name": "_agent",
          "type": "address"
        }
      ],
      "name": "isComplianceAgent",
      "outputs": [
        {
          "internalType": "bool",
          "name": "",
          "type": "bool"
        }
      ],
      "stateMutability": "view",
      "type": "function"
    },
    {
      "inputs": [
        {
          "internalType": "address",
          "name": "_agent",
          "type": "address"
        }
      ],
      "name": "isFreezer",
      "outputs": [
        {
          "internalType": "bool",
          "name": "",
          "type": "bool"
        }
      ],
      "stateMutability": "view",
      "type": "function"
    },
    {
      "inputs": [
        {
          "internalType": "address",
          "name": "_agent",
          "type": "address"
        }
      ],
      "name": "isRecoveryAgent",
      "outputs": [
        {
          "internalType": "bool",
          "name": "",
          "type": "bool"
        }
      ],
      "stateMutability": "view",
      "type": "function"
    },
    {
      "inputs": [
        {
          "internalType": "address",
          "name": "_agent",
          "type": "address"
        }
      ],
      "name": "isSupplyModifier",
      "outputs": [
        {
          "internalType": "bool",
          "name": "",
          "type": "bool"
        }
      ],
      "stateMutability": "view",
      "type": "function"
    },
    {
      "inputs": [
        {
          "internalType": "address",
          "name": "_agent",
          "type": "address"
        }
      ],
      "name": "isTransferManager",
      "outputs": [
        {
          "internalType": "bool",
          "name": "",
          "type": "bool"
        }
      ],
      "stateMutability": "view",
      "type": "function"
    },
    {
      "inputs": [
        {
          "internalType": "address",
          "name": "_agent",
          "type": "address"
        }
      ],
      "name": "isWhiteListManager",
      "outputs": [
        {
          "internalType": "bool",
          "name": "",
          "type": "bool"
        }
      ],
      "stateMutability": "view",
      "type": "function"
    },
    {
      "inputs": [],
      "name": "owner",
      "outputs": [
        {
          "internalType": "address",
          "name": "",
          "type": "address"
        }
      ],
      "stateMutability": "view",
      "type": "function"
    },
    {
      "inputs": [
        {
          "internalType": "address",
          "name": "_agent",
          "type": "address"
        }
      ],
      "name": "removeAgentAdmin",
      "outputs": [],
      "stateMutability": "nonpayable",
      "type": "function"
    },
    {
      "inputs": [
        {
          "internalType": "address",
          "name": "_agent",
          "type": "address"
        }
      ],
      "name": "removeComplianceAgent",
      "outputs": [],
      "stateMutability": "nonpayable",
      "type": "function"
    },
    {
      "inputs": [
        {
          "internalType": "address",
          "name": "_agent",
          "type": "address"
        }
      ],
      "name": "removeFreezer",
      "outputs": [],
      "stateMutability": "nonpayable",
      "type": "function"
    },
    {
      "inputs": [
        {
          "internalType": "address",
          "name": "_agent",
          "type": "address"
        }
      ],
      "name": "removeRecoveryAgent",
      "outputs": [],
      "stateMutability": "nonpayable",
      "type": "function"
    },
    {
      "inputs": [
        {
          "internalType": "address",
          "name": "_agent",
          "type": "address"
        }
      ],
      "name": "removeSupplyModifier",
      "outputs": [],
      "stateMutability": "nonpayable",
      "type": "function"
    },
    {
      "inputs": [
        {
          "internalType": "address",
          "name": "_agent",
          "type": "address"
        }
      ],
      "name": "removeTransferManager",
      "outputs": [],
      "stateMutability": "nonpayable",
      "type": "function"
    },
    {
      "inputs": [
        {
          "internalType": "address",
          "name": "_agent",
          "type": "address"
        }
      ],
      "name": "removeWhiteListManager",
      "outputs": [],
      "stateMutability": "nonpayable",
      "type": "function"
    },
    {
      "inputs": [],
      "name": "renounceOwnership",
      "outputs": [],
      "stateMutability": "nonpayable",
      "type": "function"
    },
    {
      "inputs": [
        {
          "internalType": "address",
          "name": "newOwner",
          "type": "address"
        }
      ],
      "name": "transferOwnership",
      "outputs": [],
      "stateMutability": "nonpayable",
      "type": "function"
    }
  ],
  "bytecode": "0x608060405234801561001057600080fd5b50338061003757604051631e4fbdf760e01b81526000600482015260240160405180910390fd5b61004081610046565b50610096565b600080546001600160a01b038381166001600160a01b0319831681178455604051919092169283917f8be0079c531659141344cd1fd0a4f28419497f9722a3daafe3b4186f6b6457e09190a35050565b610f5f806100a56000396000f3fe608060405234801561001057600080fd5b50600436106101585760003560e01c8063715018a6116100c3578063bd92fcfe1161007c578063bd92fcfe146102c1578063c6006c9a146102d4578063c8777b50146102e7578063cdf1b693146102fa578063e86c64311461030d578063f2fde38b1461032057600080fd5b8063715018a6146102585780637489453d146102605780637ad78a4614610273578063860a2bcf146102865780638da5cb5b14610299578063965e61ea146102ae57600080fd5b80633cdf8000116101155780633cdf8000146101e65780634599fb7b146101f95780634aff432c1461020c578063526606c91461021f57806365d07b2e146102325780636c65fd6a1461024557600080fd5b8063042a36061461015d57806314f2d2761461018557806315d8ca621461019a5780632001c350146101ad5780632acd2000146101c05780633966904d146101d3575b600080fd5b61017061016b366004610e23565b610333565b60405190151581526020015b60405180910390f35b610198610193366004610e23565b610346565b005b6101986101a8366004610e23565b6103f1565b6101706101bb366004610e23565b610486565b6101986101ce366004610e23565b610493565b6101986101e1366004610e23565b610521565b6101986101f4366004610e23565b6105b8565b610170610207366004610e23565b61064e565b61019861021a366004610e23565b61065b565b61019861022d366004610e23565b6106f2565b610198610240366004610e23565b610780565b610170610253366004610e23565b610811565b61019861081e565b61019861026e366004610e23565b610832565b610170610281366004610e23565b6108c6565b610198610294366004610e23565b6108d3565b6102a1610968565b60405161017c9190610e53565b6101986102bc366004610e23565b610977565b6101706102cf366004610e23565b610a0d565b6101986102e2366004610e23565b610a1a565b6101986102f5366004610e23565b610ab0565b610198610308366004610e23565b610b44565b61017061031b366004610e23565b610bd5565b61019861032e366004610e23565b610be2565b6000610340600183610c20565b92915050565b3361034f610968565b6001600160a01b0316148061036857506103683361064e565b61038d5760405162461bcd60e51b815260040161038490610e67565b60405180910390fd5b610398600382610ca3565b604080518082018252600f81526e2a3930b739b332b926b0b730b3b2b960891b602082015290516001600160a01b03831690600080516020610f0a833981519152906103e5908490610e9a565b60405180910390a25050565b336103fa610968565b6001600160a01b0316148061041357506104133361064e565b61042f5760405162461bcd60e51b815260040161038490610e67565b61043a600182610ca3565b604080518082018252600e81526d29bab838363ca6b7b234b334b2b960911b602082015290516001600160a01b03831690600080516020610f0a833981519152906103e5908490610e9a565b6000610340600583610c20565b3361049c610968565b6001600160a01b031614806104b557506104b53361064e565b6104d15760405162461bcd60e51b815260040161038490610e67565b6104dc600282610d1f565b6040805180820182526007815266233932b2bd32b960c91b602082015290516001600160a01b03831690600080516020610eea833981519152906103e5908490610e9a565b3361052a610968565b6001600160a01b0316148061054357506105433361064e565b61055f5760405162461bcd60e51b815260040161038490610e67565b61056a600682610ca3565b604080518082018252601081526f2bb434ba32a634b9ba26b0b730b3b2b960811b602082015290516001600160a01b03831690600080516020610f0a833981519152906103e5908490610e9a565b336105c1610968565b6001600160a01b031614806105da57506105da3361064e565b6105f65760405162461bcd60e51b815260040161038490610e67565b610601600582610ca3565b604080518082018252600f81526e10dbdb5c1b1a585b98d95059d95b9d608a1b602082015290516001600160a01b03831690600080516020610f0a833981519152906103e5908490610e9a565b6000610340600783610c20565b33610664610968565b6001600160a01b0316148061067d575061067d3361064e565b6106995760405162461bcd60e51b815260040161038490610e67565b6106a4600682610d1f565b604080518082018252601081526f2bb434ba32a634b9ba26b0b730b3b2b960811b602082015290516001600160a01b03831690600080516020610eea833981519152906103e5908490610e9a565b336106fb610968565b6001600160a01b0316148061071457506107143361064e565b6107305760405162461bcd60e51b815260040161038490610e67565b61073b600282610ca3565b6040805180820182526007815266233932b2bd32b960c91b602082015290516001600160a01b03831690600080516020610f0a833981519152906103e5908490610e9a565b33610789610968565b6001600160a01b031614806107a257506107a23361064e565b6107be5760405162461bcd60e51b815260040161038490610e67565b6107c9600782610d1f565b604080518082018252600a81526920b3b2b73a20b236b4b760b11b602082015290516001600160a01b03831690600080516020610eea833981519152906103e5908490610e9a565b6000610340600283610c20565b610826610da1565b6108306000610dd3565b565b3361083b610968565b6001600160a01b0316148061085457506108543361064e565b6108705760405162461bcd60e51b815260040161038490610e67565b61087b600482610ca3565b604080518082018252600d81526c149958dbdd995c9e5059d95b9d609a1b602082015290516001600160a01b03831690600080516020610f0a833981519152906103e5908490610e9a565b6000610340600483610c20565b336108dc610968565b6001600160a01b031614806108f557506108f53361064e565b6109115760405162461bcd60e51b815260040161038490610e67565b61091c600182610d1f565b604080518082018252600e81526d29bab838363ca6b7b234b334b2b960911b602082015290516001600160a01b03831690600080516020610eea833981519152906103e5908490610e9a565b6000546001600160a01b031690565b33610980610968565b6001600160a01b0316148061099957506109993361064e565b6109b55760405162461bcd60e51b815260040161038490610e67565b6109c0600382610d1f565b604080518082018252600f81526e2a3930b739b332b926b0b730b3b2b960891b602082015290516001600160a01b03831690600080516020610eea833981519152906103e5908490610e9a565b6000610340600683610c20565b33610a23610968565b6001600160a01b03161480610a3c5750610a3c3361064e565b610a585760405162461bcd60e51b815260040161038490610e67565b610a63600582610d1f565b604080518082018252600f81526e10dbdb5c1b1a585b98d95059d95b9d608a1b602082015290516001600160a01b03831690600080516020610eea833981519152906103e5908490610e9a565b33610ab9610968565b6001600160a01b03161480610ad25750610ad23361064e565b610aee5760405162461bcd60e51b815260040161038490610e67565b610af9600482610d1f565b604080518082018252600d81526c149958dbdd995c9e5059d95b9d609a1b602082015290516001600160a01b03831690600080516020610eea833981519152906103e5908490610e9a565b33610b4d610968565b6001600160a01b03161480610b665750610b663361064e565b610b825760405162461bcd60e51b815260040161038490610e67565b610b8d600782610ca3565b604080518082018252600a81526920b3b2b73a20b236b4b760b11b602082015290516001600160a01b03831690600080516020610f0a833981519152906103e5908490610e9a565b6000610340600383610c20565b610bea610da1565b6001600160a01b038116610c14576000604051631e4fbdf760e01b81526004016103849190610e53565b610c1d81610dd3565b50565b60006001600160a01b038216610c835760405162461bcd60e51b815260206004820152602260248201527f526f6c65733a206163636f756e7420697320746865207a65726f206164647265604482015261737360f01b6064820152608401610384565b506001600160a01b03166000908152602091909152604090205460ff1690565b610cad8282610c20565b15610cfa5760405162461bcd60e51b815260206004820152601f60248201527f526f6c65733a206163636f756e7420616c72656164792068617320726f6c65006044820152606401610384565b6001600160a01b0316600090815260209190915260409020805460ff19166001179055565b610d298282610c20565b610d7f5760405162461bcd60e51b815260206004820152602160248201527f526f6c65733a206163636f756e7420646f6573206e6f74206861766520726f6c6044820152606560f81b6064820152608401610384565b6001600160a01b0316600090815260209190915260409020805460ff19169055565b33610daa610968565b6001600160a01b031614610830573360405163118cdaa760e01b81526004016103849190610e53565b600080546001600160a01b038381166001600160a01b0319831681178455604051919092169283917f8be0079c531659141344cd1fd0a4f28419497f9722a3daafe3b4186f6b6457e09190a35050565b600060208284031215610e3557600080fd5b81356001600160a01b0381168114610e4c57600080fd5b9392505050565b6001600160a01b0391909116815260200190565b6020808252601990820152782937b6329d1029b2b73232b91034b9902727aa1020b236b4b760391b604082015260600190565b60006020808352835180602085015260005b81811015610ec857858101830151858201604001528201610eac565b506000604082860101526040601f19601f830116850101925050509291505056fed211483f91fc6eff862467f8de606587a30c8fc9981056f051b897a418df803abfec83d64eaa953f2708271a023ab9ee82057f8f3578d548c1a4ba0b5b700489a26469706673582212208307d78588bb52c0f3072f47d0ede911bba01f01e97e7470ceb3f7e07a43a26764736f6c63430008180033",
  "linkReferences": {},
  "deployedLinkReferences": {}
}