{
  "_format": "hh-sol-artifact-1",
  "contractName": "AgentManager",
  "sourceName": "contracts/erc3643/roles/permissioning/agent/AgentManager.sol",
  "abi": [
    {
      "inputs": [
        {
          "internalType": "address",
          "name": "_token",
          "type": "address"
        }
      ],
      "stateMutability": "nonpayable",
      "type": "constructor"
    },
    {
      "inputs": [
        {
          "internalType": "address",
          "name": "owner",
          "type": "address"
        }
      ],
      "name": "OwnableInvalidOwner",
      "type": "error"
    },
    {
      "inputs": [
        {
          "internalType": "address",
          "name": "account",
          "type": "address"
        }
      ],
      "name": "OwnableUnauthorizedAccount",
      "type": "error"
    },
    {
      "anonymous": false,
      "inputs": [
        {
          "indexed": true,
          "internalType": "address",
          "name": "previousOwner",
          "type": "address"
        },
        {
          "indexed": true,
          "internalType": "address",
          "name": "newOwner",
          "type": "address"
        }
      ],
      "name": "OwnershipTransferred",
      "type": "event"
    },
    {
      "anonymous": false,
      "inputs": [
        {
          "indexed": true,
          "internalType": "address",
          "name": "_agent",
          "type": "address"
        },
        {
          "indexed": false,
          "internalType": "string",
          "name": "_role",
          "type": "string"
        }
      ],
      "name": "RoleAdded",
      "type": "event"
    },
    {
      "anonymous": false,
      "inputs": [
        {
          "indexed": true,
          "internalType": "address",
          "name": "_agent",
          "type": "address"
        },
        {
          "indexed": false,
          "internalType": "string",
          "name": "_role",
          "type": "string"
        }
      ],
      "name": "RoleRemoved",
      "type": "event"
    },
    {
      "inputs": [
        {
          "internalType": "address",
          "name": "_agent",
          "type": "address"
        }
      ],
      "name": "addAgentAdmin",
      "outputs": [],
      "stateMutability": "nonpayable",
      "type": "function"
    },
    {
      "inputs": [
        {
          "internalType": "address",
          "name": "_agent",
          "type": "address"
        }
      ],
      "name": "addComplianceAgent",
      "outputs": [],
      "stateMutability": "nonpayable",
      "type": "function"
    },
    {
      "inputs": [
        {
          "internalType": "address",
          "name": "_agent",
          "type": "address"
        }
      ],
      "name": "addFreezer",
      "outputs": [],
      "stateMutability": "nonpayable",
      "type": "function"
    },
    {
      "inputs": [
        {
          "internalType": "address",
          "name": "_agent",
          "type": "address"
        }
      ],
      "name": "addRecoveryAgent",
      "outputs": [],
      "stateMutability": "nonpayable",
      "type": "function"
    },
    {
      "inputs": [
        {
          "internalType": "address",
          "name": "_agent",
          "type": "address"
        }
      ],
      "name": "addSupplyModifier",
      "outputs": [],
      "stateMutability": "nonpayable",
      "type": "function"
    },
    {
      "inputs": [
        {
          "internalType": "address",
          "name": "_agent",
          "type": "address"
        }
      ],
      "name": "addTransferManager",
      "outputs": [],
      "stateMutability": "nonpayable",
      "type": "function"
    },
    {
      "inputs": [
        {
          "internalType": "address",
          "name": "_agent",
          "type": "address"
        }
      ],
      "name": "addWhiteListManager",
      "outputs": [],
      "stateMutability": "nonpayable",
      "type": "function"
    },
    {
      "inputs": [
        {
          "internalType": "address[]",
          "name": "_userAddresses",
          "type": "address[]"
        },
        {
          "internalType": "uint256[]",
          "name": "_amounts",
          "type": "uint256[]"
        },
        {
          "internalType": "contract IIdentity",
          "name": "_onchainID",
          "type": "address"
        }
      ],
      "name": "callBatchBurn",
      "outputs": [],
      "stateMutability": "nonpayable",
      "type": "function"
    },
    {
      "inputs": [
        {
          "internalType": "address[]",
          "name": "_fromList",
          "type": "address[]"
        },
        {
          "internalType": "address[]",
          "name": "_toList",
          "type": "address[]"
        },
        {
          "internalType": "uint256[]",
          "name": "_amounts",
          "type": "uint256[]"
        },
        {
          "internalType": "contract IIdentity",
          "name": "_onchainID",
          "type": "address"
        }
      ],
      "name": "callBatchForcedTransfer",
      "outputs": [],
      "stateMutability": "nonpayable",
      "type": "function"
    },
    {
      "inputs": [
        {
          "internalType": "address[]",
          "name": "_userAddresses",
          "type": "address[]"
        },
        {
          "internalType": "uint256[]",
          "name": "_amounts",
          "type": "uint256[]"
        },
        {
          "internalType": "contract IIdentity",
          "name": "_onchainID",
          "type": "address"
        }
      ],
      "name": "callBatchFreezePartialTokens",
      "outputs": [],
      "stateMutability": "nonpayable",
      "type": "function"
    },
    {
      "inputs": [
        {
          "internalType": "address[]",
          "name": "_toList",
          "type": "address[]"
        },
        {
          "internalType": "uint256[]",
          "name": "_amounts",
          "type": "uint256[]"
        },
        {
          "internalType": "contract IIdentity",
          "name": "_onchainID",
          "type": "address"
        }
      ],
      "name": "callBatchMint",
      "outputs": [],
      "stateMutability": "nonpayable",
      "type": "function"
    },
    {
      "inputs": [
        {
          "internalType": "address[]",
          "name": "_userAddresses",
          "type": "address[]"
        },
        {
          "internalType": "bool[]",
          "name": "_freeze",
          "type": "bool[]"
        },
        {
          "internalType": "contract IIdentity",
          "name": "_onchainID",
          "type": "address"
        }
      ],
      "name": "callBatchSetAddressFrozen",
      "outputs": [],
      "stateMutability": "nonpayable",
      "type": "function"
    },
    {
      "inputs": [
        {
          "internalType": "address[]",
          "name": "_userAddresses",
          "type": "address[]"
        },
        {
          "internalType": "uint256[]",
          "name": "_amounts",
          "type": "uint256[]"
        },
        {
          "internalType": "contract IIdentity",
          "name": "_onchainID",
          "type": "address"
        }
      ],
      "name": "callBatchUnfreezePartialTokens",
      "outputs": [],
      "stateMutability": "nonpayable",
      "type": "function"
    },
    {
      "inputs": [
        {
          "internalType": "address",
          "name": "_userAddress",
          "type": "address"
        },
        {
          "internalType": "uint256",
          "name": "_amount",
          "type": "uint256"
        },
        {
          "internalType": "contract IIdentity",
          "name": "_onchainID",
          "type": "address"
        }
      ],
      "name": "callBurn",
      "outputs": [],
      "stateMutability": "nonpayable",
      "type": "function"
    },
    {
      "inputs": [
        {
          "internalType": "address",
          "name": "_userAddress",
          "type": "address"
        },
        {
          "internalType": "contract IIdentity",
          "name": "_onchainID",
          "type": "address"
        }
      ],
      "name": "callDeleteIdentity",
      "outputs": [],
      "stateMutability": "nonpayable",
      "type": "function"
    },
    {
      "inputs": [
        {
          "internalType": "address",
          "name": "_from",
          "type": "address"
        },
        {
          "internalType": "address",
          "name": "_to",
          "type": "address"
        },
        {
          "internalType": "uint256",
          "name": "_amount",
          "type": "uint256"
        },
        {
          "internalType": "contract IIdentity",
          "name": "_onchainID",
          "type": "address"
        }
      ],
      "name": "callForcedTransfer",
      "outputs": [],
      "stateMutability": "nonpayable",
      "type": "function"
    },
    {
      "inputs": [
        {
          "internalType": "address",
          "name": "_userAddress",
          "type": "address"
        },
        {
          "internalType": "uint256",
          "name": "_amount",
          "type": "uint256"
        },
        {
          "internalType": "contract IIdentity",
          "name": "_onchainID",
          "type": "address"
        }
      ],
      "name": "callFreezePartialTokens",
      "outputs": [],
      "stateMutability": "nonpayable",
      "type": "function"
    },
    {
      "inputs": [
        {
          "internalType": "address",
          "name": "_to",
          "type": "address"
        },
        {
          "internalType": "uint256",
          "name": "_amount",
          "type": "uint256"
        },
        {
          "internalType": "contract IIdentity",
          "name": "_onchainID",
          "type": "address"
        }
      ],
      "name": "callMint",
      "outputs": [],
      "stateMutability": "nonpayable",
      "type": "function"
    },
    {
      "inputs": [
        {
          "internalType": "contract IIdentity",
          "name": "_onchainID",
          "type": "address"
        }
      ],
      "name": "callPause",
      "outputs": [],
      "stateMutability": "nonpayable",
      "type": "function"
    },
    {
      "inputs": [
        {
          "internalType": "address",
          "name": "_lostWallet",
          "type": "address"
        },
        {
          "internalType": "address",
          "name": "_newWallet",
          "type": "address"
        },
        {
          "internalType": "address",
          "name": "_onchainID",
          "type": "address"
        },
        {
          "internalType": "contract IIdentity",
          "name": "_managerOnchainID",
          "type": "address"
        }
      ],
      "name": "callRecoveryAddress",
      "outputs": [],
      "stateMutability": "nonpayable",
      "type": "function"
    },
    {
      "inputs": [
        {
          "internalType": "address",
          "name": "_userAddress",
          "type": "address"
        },
        {
          "internalType": "contract IIdentity",
          "name": "_onchainID",
          "type": "address"
        },
        {
          "internalType": "uint16",
          "name": "_country",
          "type": "uint16"
        },
        {
          "internalType": "contract IIdentity",
          "name": "_managerOnchainID",
          "type": "address"
        }
      ],
      "name": "callRegisterIdentity",
      "outputs": [],
      "stateMutability": "nonpayable",
      "type": "function"
    },
    {
      "inputs": [
        {
          "internalType": "address",
          "name": "_userAddress",
          "type": "address"
        },
        {
          "internalType": "bool",
          "name": "_freeze",
          "type": "bool"
        },
        {
          "internalType": "contract IIdentity",
          "name": "_onchainID",
          "type": "address"
        }
      ],
      "name": "callSetAddressFrozen",
      "outputs": [],
      "stateMutability": "nonpayable",
      "type": "function"
    },
    {
      "inputs": [
        {
          "internalType": "address",
          "name": "_userAddress",
          "type": "address"
        },
        {
          "internalType": "uint256",
          "name": "_amount",
          "type": "uint256"
        },
        {
          "internalType": "contract IIdentity",
          "name": "_onchainID",
          "type": "address"
        }
      ],
      "name": "callUnfreezePartialTokens",
      "outputs": [],
      "stateMutability": "nonpayable",
      "type": "function"
    },
    {
      "inputs": [
        {
          "internalType": "contract IIdentity",
          "name": "_onchainID",
          "type": "address"
        }
      ],
      "name": "callUnpause",
      "outputs": [],
      "stateMutability": "nonpayable",
      "type": "function"
    },
    {
      "inputs": [
        {
          "internalType": "address",
          "name": "_userAddress",
          "type": "address"
        },
        {
          "internalType": "uint16",
          "name": "_country",
          "type": "uint16"
        },
        {
          "internalType": "contract IIdentity",
          "name": "_onchainID",
          "type": "address"
        }
      ],
      "name": "callUpdateCountry",
      "outputs": [],
      "stateMutability": "nonpayable",
      "type": "function"
    },
    {
      "inputs": [
        {
          "internalType": "address",
          "name": "_userAddress",
          "type": "address"
        },
        {
          "internalType": "contract IIdentity",
          "name": "_identity",
          "type": "address"
        },
        {
          "internalType": "contract IIdentity",
          "name": "_onchainID",
          "type": "address"
        }
      ],
      "name": "callUpdateIdentity",
      "outputs": [],
      "stateMutability": "nonpayable",
      "type": "function"
    },
    {
      "inputs": [
        {
          "internalType": "address",
          "name": "_agent",
          "type": "address"
        }
      ],
      "name": "isAgentAdmin",
      "outputs": [
        {
          "internalType": "bool",
          "name": "",
          "type": "bool"
        }
      ],
      "stateMutability": "view",
      "type": "function"
    },
    {
      "inputs": [
        {
          "internalType": "address",
          "name": "_agent",
          "type": "address"
        }
      ],
      "name": "isComplianceAgent",
      "outputs": [
        {
          "internalType": "bool",
          "name": "",
          "type": "bool"
        }
      ],
      "stateMutability": "view",
      "type": "function"
    },
    {
      "inputs": [
        {
          "internalType": "address",
          "name": "_agent",
          "type": "address"
        }
      ],
      "name": "isFreezer",
      "outputs": [
        {
          "internalType": "bool",
          "name": "",
          "type": "bool"
        }
      ],
      "stateMutability": "view",
      "type": "function"
    },
    {
      "inputs": [
        {
          "internalType": "address",
          "name": "_agent",
          "type": "address"
        }
      ],
      "name": "isRecoveryAgent",
      "outputs": [
        {
          "internalType": "bool",
          "name": "",
          "type": "bool"
        }
      ],
      "stateMutability": "view",
      "type": "function"
    },
    {
      "inputs": [
        {
          "internalType": "address",
          "name": "_agent",
          "type": "address"
        }
      ],
      "name": "isSupplyModifier",
      "outputs": [
        {
          "internalType": "bool",
          "name": "",
          "type": "bool"
        }
      ],
      "stateMutability": "view",
      "type": "function"
    },
    {
      "inputs": [
        {
          "internalType": "address",
          "name": "_agent",
          "type": "address"
        }
      ],
      "name": "isTransferManager",
      "outputs": [
        {
          "internalType": "bool",
          "name": "",
          "type": "bool"
        }
      ],
      "stateMutability": "view",
      "type": "function"
    },
    {
      "inputs": [
        {
          "internalType": "address",
          "name": "_agent",
          "type": "address"
        }
      ],
      "name": "isWhiteListManager",
      "outputs": [
        {
          "internalType": "bool",
          "name": "",
          "type": "bool"
        }
      ],
      "stateMutability": "view",
      "type": "function"
    },
    {
      "inputs": [],
      "name": "owner",
      "outputs": [
        {
          "internalType": "address",
          "name": "",
          "type": "address"
        }
      ],
      "stateMutability": "view",
      "type": "function"
    },
    {
      "inputs": [
        {
          "internalType": "address",
          "name": "_agent",
          "type": "address"
        }
      ],
      "name": "removeAgentAdmin",
      "outputs": [],
      "stateMutability": "nonpayable",
      "type": "function"
    },
    {
      "inputs": [
        {
          "internalType": "address",
          "name": "_agent",
          "type": "address"
        }
      ],
      "name": "removeComplianceAgent",
      "outputs": [],
      "stateMutability": "nonpayable",
      "type": "function"
    },
    {
      "inputs": [
        {
          "internalType": "address",
          "name": "_agent",
          "type": "address"
        }
      ],
      "name": "removeFreezer",
      "outputs": [],
      "stateMutability": "nonpayable",
      "type": "function"
    },
    {
      "inputs": [
        {
          "internalType": "address",
          "name": "_agent",
          "type": "address"
        }
      ],
      "name": "removeRecoveryAgent",
      "outputs": [],
      "stateMutability": "nonpayable",
      "type": "function"
    },
    {
      "inputs": [
        {
          "internalType": "address",
          "name": "_agent",
          "type": "address"
        }
      ],
      "name": "removeSupplyModifier",
      "outputs": [],
      "stateMutability": "nonpayable",
      "type": "function"
    },
    {
      "inputs": [
        {
          "internalType": "address",
          "name": "_agent",
          "type": "address"
        }
      ],
      "name": "removeTransferManager",
      "outputs": [],
      "stateMutability": "nonpayable",
      "type": "function"
    },
    {
      "inputs": [
        {
          "internalType": "address",
          "name": "_agent",
          "type": "address"
        }
      ],
      "name": "removeWhiteListManager",
      "outputs": [],
      "stateMutability": "nonpayable",
      "type": "function"
    },
    {
      "inputs": [],
      "name": "renounceOwnership",
      "outputs": [],
      "stateMutability": "nonpayable",
      "type": "function"
    },
    {
      "inputs": [],
      "name": "token",
      "outputs": [
        {
          "internalType": "contract IToken",
          "name": "",
          "type": "address"
        }
      ],
      "stateMutability": "view",
      "type": "function"
    },
    {
      "inputs": [
        {
          "internalType": "address",
          "name": "newOwner",
          "type": "address"
        }
      ],
      "name": "transferOwnership",
      "outputs": [],
      "stateMutability": "nonpayable",
      "type": "function"
    }
  ],
  "bytecode": "0x60806040523480156200001157600080fd5b5060405162002feb38038062002feb8339810160408190526200003491620000dd565b33806200005b57604051631e4fbdf760e01b81526000600482015260240160405180910390fd5b62000066816200008d565b50600880546001600160a01b0319166001600160a01b03929092169190911790556200010f565b600080546001600160a01b038381166001600160a01b0319831681178455604051919092169283917f8be0079c531659141344cd1fd0a4f28419497f9722a3daafe3b4186f6b6457e09190a35050565b600060208284031215620000f057600080fd5b81516001600160a01b03811681146200010857600080fd5b9392505050565b612ecc806200011f6000396000f3fe608060405234801561001057600080fd5b50600436106102745760003560e01c8063715018a611610151578063b673266a116100c3578063cdf1b69311610087578063cdf1b69314610559578063d5451e521461056c578063e86c64311461057f578063f1e9217314610592578063f2fde38b146105a5578063fc0c546a146105b857600080fd5b8063b673266a146104fa578063bd92fcfe1461050d578063bea0790a14610520578063c6006c9a14610533578063c8777b501461054657600080fd5b80638da5cb5b116101155780638da5cb5b14610486578063944528211461049b578063965e61ea146104ae57806396df6f27146104c1578063a6a7d4e2146104d4578063aca277e1146104e757600080fd5b8063715018a6146104325780637489453d1461043a5780637ad78a461461044d5780637d684ff714610460578063860a2bcf1461047357600080fd5b806339cc8d90116101ea5780634599fb7b116101ae5780634599fb7b146103c05780634aff432c146103d3578063526606c9146103e657806365d07b2e146103f95780636b8c82b51461040c5780636c65fd6a1461041f57600080fd5b806339cc8d901461036157806339ed7a40146103745780633cdf8000146103875780633dc1c1761461039a57806341e6aa5d146103ad57600080fd5b80632001c3501161023c5780632001c350146102ef5780632228a6cf1461030257806324fdc360146103155780632acd200014610328578063393694a71461033b5780633966904d1461034e57600080fd5b80630102acff14610279578063042a36061461028e5780630878c410146102b657806314f2d276146102c957806315d8ca62146102dc575b600080fd5b61028c610287366004612753565b6105cb565b005b6102a161029c366004612795565b610703565b60405190151581526020015b60405180910390f35b61028c6102c4366004612805565b610716565b61028c6102d7366004612795565b61084b565b61028c6102ea366004612795565b6108ed565b6102a16102fd366004612795565b610982565b61028c6103103660046128a0565b61098f565b61028c610323366004612795565b610b06565b61028c610336366004612795565b610c37565b61028c610349366004612753565b610cc5565b61028c61035c366004612795565b610dbd565b61028c61036f366004612795565b610e54565b61028c610382366004612753565b610f6a565b61028c610395366004612795565b611062565b61028c6103a8366004612805565b6110f8565b61028c6103bb366004612753565b6111f4565b6102a16103ce366004612795565b6112ec565b61028c6103e1366004612795565b6112f9565b61028c6103f4366004612795565b611390565b61028c610407366004612795565b61141e565b61028c61041a366004612805565b6114af565b6102a161042d366004612795565b6115ab565b61028c6115b8565b61028c610448366004612795565b6115cc565b6102a161045b366004612795565b611660565b61028c61046e366004612805565b61166d565b61028c610481366004612795565b611769565b61048e6117fe565b6040516102ad91906128de565b61028c6104a9366004612805565b61180d565b61028c6104bc366004612795565b611909565b61028c6104cf366004612900565b61199f565b61028c6104e2366004612930565b611a9f565b61028c6104f536600461298c565b611c21565b61028c6105083660046129c5565b611dbf565b6102a161051b366004612795565b611efa565b61028c61052e366004612a73565b611f07565b61028c610541366004612795565b6120b9565b61028c610554366004612795565b61214f565b61028c610567366004612795565b6121e3565b61028c61057a366004612ab2565b612274565b6102a161058d366004612795565b6123e9565b61028c6105a0366004612ae2565b6123f6565b61028c6105b3366004612795565b6124fd565b60085461048e906001600160a01b031681565b6105d481610703565b80156106755750806001600160a01b031663d202158d336040516020016105fb91906128de565b60408051601f198184030181529082905280516020909101206001600160e01b031960e084901b168252600482015260026024820152604401602060405180830381865afa158015610651573d6000803e3d6000fd5b505050506040513d601f19601f820116820180604052508101906106759190612b2a565b61069a5760405162461bcd60e51b815260040161069190612b47565b60405180910390fd5b6008546040516340c10f1960e01b81526001600160a01b03909116906340c10f19906106cc9086908690600401612b8a565b600060405180830381600087803b1580156106e657600080fd5b505af11580156106fa573d6000803e3d6000fd5b50505050505050565b600061071060018361253b565b92915050565b61071f816115ab565b80156107c05750806001600160a01b031663d202158d3360405160200161074691906128de565b60408051601f198184030181529082905280516020909101206001600160e01b031960e084901b168252600482015260026024820152604401602060405180830381865afa15801561079c573d6000803e3d6000fd5b505050506040513d601f19601f820116820180604052508101906107c09190612b2a565b6107dc5760405162461bcd60e51b815260040161069190612ba3565b600854604051634710362d60e01b81526001600160a01b0390911690634710362d90610812908890889088908890600401612c55565b600060405180830381600087803b15801561082c57600080fd5b505af1158015610840573d6000803e3d6000fd5b505050505050505050565b336108546117fe565b6001600160a01b0316148061086d575061086d336112ec565b6108895760405162461bcd60e51b815260040161069190612c87565b6108946003826125be565b604080518082018252600f81526e2a3930b739b332b926b0b730b3b2b960891b602082015290516001600160a01b03831690600080516020612e77833981519152906108e1908490612cba565b60405180910390a25050565b336108f66117fe565b6001600160a01b0316148061090f575061090f336112ec565b61092b5760405162461bcd60e51b815260040161069190612c87565b6109366001826125be565b604080518082018252600e81526d29bab838363ca6b7b234b334b2b960911b602082015290516001600160a01b03831690600080516020612e77833981519152906108e1908490612cba565b600061071060058361253b565b61099881611efa565b8015610a395750806001600160a01b031663d202158d336040516020016109bf91906128de565b60408051601f198184030181529082905280516020909101206001600160e01b031960e084901b168252600482015260026024820152604401602060405180830381865afa158015610a15573d6000803e3d6000fd5b505050506040513d601f19601f82011682018060405250810190610a399190612b2a565b610a555760405162461bcd60e51b815260040161069190612d09565b600860009054906101000a90046001600160a01b03166001600160a01b031663134e18f46040518163ffffffff1660e01b8152600401602060405180830381865afa158015610aa8573d6000803e3d6000fd5b505050506040513d601f19601f82011682018060405250810190610acc9190612d4e565b604051633b239a7f60e01b81526001600160a01b03858116600483015261ffff851660248301529190911690633b239a7f906044016106cc565b610b0f816115ab565b8015610bb05750806001600160a01b031663d202158d33604051602001610b3691906128de565b60408051601f198184030181529082905280516020909101206001600160e01b031960e084901b168252600482015260026024820152604401602060405180830381865afa158015610b8c573d6000803e3d6000fd5b505050506040513d601f19601f82011682018060405250810190610bb09190612b2a565b610bcc5760405162461bcd60e51b815260040161069190612ba3565b600860009054906101000a90046001600160a01b03166001600160a01b0316638456cb596040518163ffffffff1660e01b8152600401600060405180830381600087803b158015610c1c57600080fd5b505af1158015610c30573d6000803e3d6000fd5b5050505050565b33610c406117fe565b6001600160a01b03161480610c595750610c59336112ec565b610c755760405162461bcd60e51b815260040161069190612c87565b610c8060028261263a565b6040805180820182526007815266233932b2bd32b960c91b602082015290516001600160a01b03831690600080516020612e57833981519152906108e1908490612cba565b610cce816115ab565b8015610d6f5750806001600160a01b031663d202158d33604051602001610cf591906128de565b60408051601f198184030181529082905280516020909101206001600160e01b031960e084901b168252600482015260026024820152604401602060405180830381865afa158015610d4b573d6000803e3d6000fd5b505050506040513d601f19601f82011682018060405250810190610d6f9190612b2a565b610d8b5760405162461bcd60e51b815260040161069190612ba3565b600854604051631fe56f7d60e01b81526001600160a01b0390911690631fe56f7d906106cc9086908690600401612b8a565b33610dc66117fe565b6001600160a01b03161480610ddf5750610ddf336112ec565b610dfb5760405162461bcd60e51b815260040161069190612c87565b610e066006826125be565b604080518082018252601081526f2bb434ba32a634b9ba26b0b730b3b2b960811b602082015290516001600160a01b03831690600080516020612e77833981519152906108e1908490612cba565b610e5d816115ab565b8015610efe5750806001600160a01b031663d202158d33604051602001610e8491906128de565b60408051601f198184030181529082905280516020909101206001600160e01b031960e084901b168252600482015260026024820152604401602060405180830381865afa158015610eda573d6000803e3d6000fd5b505050506040513d601f19601f82011682018060405250810190610efe9190612b2a565b610f1a5760405162461bcd60e51b815260040161069190612ba3565b600860009054906101000a90046001600160a01b03166001600160a01b0316633f4ba83a6040518163ffffffff1660e01b8152600401600060405180830381600087803b158015610c1c57600080fd5b610f73816115ab565b80156110145750806001600160a01b031663d202158d33604051602001610f9a91906128de565b60408051601f198184030181529082905280516020909101206001600160e01b031960e084901b168252600482015260026024820152604401602060405180830381865afa158015610ff0573d6000803e3d6000fd5b505050506040513d601f19601f820116820180604052508101906110149190612b2a565b6110305760405162461bcd60e51b815260040161069190612ba3565b60085460405163125c4a3360e01b81526001600160a01b039091169063125c4a33906106cc9086908690600401612b8a565b3361106b6117fe565b6001600160a01b031614806110845750611084336112ec565b6110a05760405162461bcd60e51b815260040161069190612c87565b6110ab6005826125be565b604080518082018252600f81526e10dbdb5c1b1a585b98d95059d95b9d608a1b602082015290516001600160a01b03831690600080516020612e77833981519152906108e1908490612cba565b61110181610703565b80156111a25750806001600160a01b031663d202158d3360405160200161112891906128de565b60408051601f198184030181529082905280516020909101206001600160e01b031960e084901b168252600482015260026024820152604401602060405180830381865afa15801561117e573d6000803e3d6000fd5b505050506040513d601f19601f820116820180604052508101906111a29190612b2a565b6111be5760405162461bcd60e51b815260040161069190612b47565b600854604051636857310760e01b81526001600160a01b0390911690636857310790610812908890889088908890600401612c55565b6111fd81610703565b801561129e5750806001600160a01b031663d202158d3360405160200161122491906128de565b60408051601f198184030181529082905280516020909101206001600160e01b031960e084901b168252600482015260026024820152604401602060405180830381865afa15801561127a573d6000803e3d6000fd5b505050506040513d601f19601f8201168201806040525081019061129e9190612b2a565b6112ba5760405162461bcd60e51b815260040161069190612b47565b600854604051632770a7eb60e21b81526001600160a01b0390911690639dc29fac906106cc9086908690600401612b8a565b600061071060078361253b565b336113026117fe565b6001600160a01b0316148061131b575061131b336112ec565b6113375760405162461bcd60e51b815260040161069190612c87565b61134260068261263a565b604080518082018252601081526f2bb434ba32a634b9ba26b0b730b3b2b960811b602082015290516001600160a01b03831690600080516020612e57833981519152906108e1908490612cba565b336113996117fe565b6001600160a01b031614806113b257506113b2336112ec565b6113ce5760405162461bcd60e51b815260040161069190612c87565b6113d96002826125be565b6040805180820182526007815266233932b2bd32b960c91b602082015290516001600160a01b03831690600080516020612e77833981519152906108e1908490612cba565b336114276117fe565b6001600160a01b031614806114405750611440336112ec565b61145c5760405162461bcd60e51b815260040161069190612c87565b61146760078261263a565b604080518082018252600a81526920b3b2b73a20b236b4b760b11b602082015290516001600160a01b03831690600080516020612e57833981519152906108e1908490612cba565b6114b8816115ab565b80156115595750806001600160a01b031663d202158d336040516020016114df91906128de565b60408051601f198184030181529082905280516020909101206001600160e01b031960e084901b168252600482015260026024820152604401602060405180830381865afa158015611535573d6000803e3d6000fd5b505050506040513d601f19601f820116820180604052508101906115599190612b2a565b6115755760405162461bcd60e51b815260040161069190612ba3565b600854604051631a7af37960e01b81526001600160a01b0390911690631a7af37990610812908890889088908890600401612d6b565b600061071060028361253b565b6115c06126bc565b6115ca60006126ee565b565b336115d56117fe565b6001600160a01b031614806115ee57506115ee336112ec565b61160a5760405162461bcd60e51b815260040161069190612c87565b6116156004826125be565b604080518082018252600d81526c149958dbdd995c9e5059d95b9d609a1b602082015290516001600160a01b03831690600080516020612e77833981519152906108e1908490612cba565b600061071060048361253b565b611676816115ab565b80156117175750806001600160a01b031663d202158d3360405160200161169d91906128de565b60408051601f198184030181529082905280516020909101206001600160e01b031960e084901b168252600482015260026024820152604401602060405180830381865afa1580156116f3573d6000803e3d6000fd5b505050506040513d601f19601f820116820180604052508101906117179190612b2a565b6117335760405162461bcd60e51b815260040161069190612ba3565b600854604051631f8fcbf560e31b81526001600160a01b039091169063fc7e5fa890610812908890889088908890600401612c55565b336117726117fe565b6001600160a01b0316148061178b575061178b336112ec565b6117a75760405162461bcd60e51b815260040161069190612c87565b6117b260018261263a565b604080518082018252600e81526d29bab838363ca6b7b234b334b2b960911b602082015290516001600160a01b03831690600080516020612e57833981519152906108e1908490612cba565b6000546001600160a01b031690565b61181681610703565b80156118b75750806001600160a01b031663d202158d3360405160200161183d91906128de565b60408051601f198184030181529082905280516020909101206001600160e01b031960e084901b168252600482015260026024820152604401602060405180830381865afa158015611893573d6000803e3d6000fd5b505050506040513d601f19601f820116820180604052508101906118b79190612b2a565b6118d35760405162461bcd60e51b815260040161069190612b47565b600854604051634a6cc67760e01b81526001600160a01b0390911690634a6cc67790610812908890889088908890600401612c55565b336119126117fe565b6001600160a01b0316148061192b575061192b336112ec565b6119475760405162461bcd60e51b815260040161069190612c87565b61195260038261263a565b604080518082018252600f81526e2a3930b739b332b926b0b730b3b2b960891b602082015290516001600160a01b03831690600080516020612e57833981519152906108e1908490612cba565b6119a8816115ab565b8015611a495750806001600160a01b031663d202158d336040516020016119cf91906128de565b60408051601f198184030181529082905280516020909101206001600160e01b031960e084901b168252600482015260026024820152604401602060405180830381865afa158015611a25573d6000803e3d6000fd5b505050506040513d601f19601f82011682018060405250810190611a499190612b2a565b611a655760405162461bcd60e51b815260040161069190612ba3565b60085460405163c69c09cf60e01b81526001600160a01b03858116600483015284151560248301529091169063c69c09cf906044016106cc565b611aa881611660565b8015611b495750806001600160a01b031663d202158d33604051602001611acf91906128de565b60408051601f198184030181529082905280516020909101206001600160e01b031960e084901b168252600482015260026024820152604401602060405180830381865afa158015611b25573d6000803e3d6000fd5b505050506040513d601f19601f82011682018060405250810190611b499190612b2a565b611ba05760405162461bcd60e51b815260206004820152602260248201527f526f6c653a2053656e646572206973204e4f54205265636f76657279204167656044820152611b9d60f21b6064820152608401610691565b600854604051634942ca4560e11b81526001600160a01b0386811660048301528581166024830152848116604483015290911690639285948a906064015b6020604051808303816000875af1158015611bfd573d6000803e3d6000fd5b505050506040513d601f19601f82011682018060405250810190610c309190612b2a565b611c2a81611efa565b8015611ccb5750806001600160a01b031663d202158d33604051602001611c5191906128de565b60408051601f198184030181529082905280516020909101206001600160e01b031960e084901b168252600482015260026024820152604401602060405180830381865afa158015611ca7573d6000803e3d6000fd5b505050506040513d601f19601f82011682018060405250810190611ccb9190612b2a565b611ce75760405162461bcd60e51b815260040161069190612d09565b600860009054906101000a90046001600160a01b03166001600160a01b031663134e18f46040518163ffffffff1660e01b8152600401602060405180830381865afa158015611d3a573d6000803e3d6000fd5b505050506040513d601f19601f82011682018060405250810190611d5e9190612d4e565b6001600160a01b031663a8d29d1d836040518263ffffffff1660e01b8152600401611d8991906128de565b600060405180830381600087803b158015611da357600080fd5b505af1158015611db7573d6000803e3d6000fd5b505050505050565b611dc8816123e9565b8015611e695750806001600160a01b031663d202158d33604051602001611def91906128de565b60408051601f198184030181529082905280516020909101206001600160e01b031960e084901b168252600482015260026024820152604401602060405180830381865afa158015611e45573d6000803e3d6000fd5b505050506040513d601f19601f82011682018060405250810190611e699190612b2a565b611e855760405162461bcd60e51b815260040161069190612dc9565b6008546040516310a91eaf60e21b81526001600160a01b03909116906342a47abc90611ebf908a908a908a908a908a908a90600401612e0d565b600060405180830381600087803b158015611ed957600080fd5b505af1158015611eed573d6000803e3d6000fd5b5050505050505050505050565b600061071060068361253b565b611f1081611efa565b8015611fb15750806001600160a01b031663d202158d33604051602001611f3791906128de565b60408051601f198184030181529082905280516020909101206001600160e01b031960e084901b168252600482015260026024820152604401602060405180830381865afa158015611f8d573d6000803e3d6000fd5b505050506040513d601f19601f82011682018060405250810190611fb19190612b2a565b611fcd5760405162461bcd60e51b815260040161069190612d09565b600860009054906101000a90046001600160a01b03166001600160a01b031663134e18f46040518163ffffffff1660e01b8152600401602060405180830381865afa158015612020573d6000803e3d6000fd5b505050506040513d601f19601f820116820180604052508101906120449190612d4e565b60405163022a501f60e51b81526001600160a01b038681166004830152858116602483015261ffff85166044830152919091169063454a03e090606401600060405180830381600087803b15801561209b57600080fd5b505af11580156120af573d6000803e3d6000fd5b5050505050505050565b336120c26117fe565b6001600160a01b031614806120db57506120db336112ec565b6120f75760405162461bcd60e51b815260040161069190612c87565b61210260058261263a565b604080518082018252600f81526e10dbdb5c1b1a585b98d95059d95b9d608a1b602082015290516001600160a01b03831690600080516020612e57833981519152906108e1908490612cba565b336121586117fe565b6001600160a01b031614806121715750612171336112ec565b61218d5760405162461bcd60e51b815260040161069190612c87565b61219860048261263a565b604080518082018252600d81526c149958dbdd995c9e5059d95b9d609a1b602082015290516001600160a01b03831690600080516020612e57833981519152906108e1908490612cba565b336121ec6117fe565b6001600160a01b031614806122055750612205336112ec565b6122215760405162461bcd60e51b815260040161069190612c87565b61222c6007826125be565b604080518082018252600a81526920b3b2b73a20b236b4b760b11b602082015290516001600160a01b03831690600080516020612e77833981519152906108e1908490612cba565b61227d81611efa565b801561231e5750806001600160a01b031663d202158d336040516020016122a491906128de565b60408051601f198184030181529082905280516020909101206001600160e01b031960e084901b168252600482015260026024820152604401602060405180830381865afa1580156122fa573d6000803e3d6000fd5b505050506040513d601f19601f8201168201806040525081019061231e9190612b2a565b61233a5760405162461bcd60e51b815260040161069190612d09565b600860009054906101000a90046001600160a01b03166001600160a01b031663134e18f46040518163ffffffff1660e01b8152600401602060405180830381865afa15801561238d573d6000803e3d6000fd5b505050506040513d601f19601f820116820180604052508101906123b19190612d4e565b604051638e098ca160e01b81526001600160a01b03858116600483015284811660248301529190911690638e098ca1906044016106cc565b600061071060038361253b565b6123ff816123e9565b80156124a05750806001600160a01b031663d202158d3360405160200161242691906128de565b60408051601f198184030181529082905280516020909101206001600160e01b031960e084901b168252600482015260026024820152604401602060405180830381865afa15801561247c573d6000803e3d6000fd5b505050506040513d601f19601f820116820180604052508101906124a09190612b2a565b6124bc5760405162461bcd60e51b815260040161069190612dc9565b600854604051639fc1d0e760e01b81526001600160a01b03868116600483015285811660248301526044820185905290911690639fc1d0e790606401611bde565b6125056126bc565b6001600160a01b03811661252f576000604051631e4fbdf760e01b815260040161069191906128de565b612538816126ee565b50565b60006001600160a01b03821661259e5760405162461bcd60e51b815260206004820152602260248201527f526f6c65733a206163636f756e7420697320746865207a65726f206164647265604482015261737360f01b6064820152608401610691565b506001600160a01b03166000908152602091909152604090205460ff1690565b6125c8828261253b565b156126155760405162461bcd60e51b815260206004820152601f60248201527f526f6c65733a206163636f756e7420616c72656164792068617320726f6c65006044820152606401610691565b6001600160a01b0316600090815260209190915260409020805460ff19166001179055565b612644828261253b565b61269a5760405162461bcd60e51b815260206004820152602160248201527f526f6c65733a206163636f756e7420646f6573206e6f74206861766520726f6c6044820152606560f81b6064820152608401610691565b6001600160a01b0316600090815260209190915260409020805460ff19169055565b336126c56117fe565b6001600160a01b0316146115ca573360405163118cdaa760e01b815260040161069191906128de565b600080546001600160a01b038381166001600160a01b0319831681178455604051919092169283917f8be0079c531659141344cd1fd0a4f28419497f9722a3daafe3b4186f6b6457e09190a35050565b6001600160a01b038116811461253857600080fd5b60008060006060848603121561276857600080fd5b83356127738161273e565b925060208401359150604084013561278a8161273e565b809150509250925092565b6000602082840312156127a757600080fd5b81356127b28161273e565b9392505050565b60008083601f8401126127cb57600080fd5b50813567ffffffffffffffff8111156127e357600080fd5b6020830191508360208260051b85010111156127fe57600080fd5b9250929050565b60008060008060006060868803121561281d57600080fd5b853567ffffffffffffffff8082111561283557600080fd5b61284189838a016127b9565b9097509550602088013591508082111561285a57600080fd5b50612867888289016127b9565b909450925050604086013561287b8161273e565b809150509295509295909350565b803561ffff8116811461289b57600080fd5b919050565b6000806000606084860312156128b557600080fd5b83356128c08161273e565b92506128ce60208501612889565b9150604084013561278a8161273e565b6001600160a01b0391909116815260200190565b801515811461253857600080fd5b60008060006060848603121561291557600080fd5b83356129208161273e565b925060208401356128ce816128f2565b6000806000806080858703121561294657600080fd5b84356129518161273e565b935060208501356129618161273e565b925060408501356129718161273e565b915060608501356129818161273e565b939692955090935050565b6000806040838503121561299f57600080fd5b82356129aa8161273e565b915060208301356129ba8161273e565b809150509250929050565b60008060008060008060006080888a0312156129e057600080fd5b873567ffffffffffffffff808211156129f857600080fd5b612a048b838c016127b9565b909950975060208a0135915080821115612a1d57600080fd5b612a298b838c016127b9565b909750955060408a0135915080821115612a4257600080fd5b50612a4f8a828b016127b9565b9094509250506060880135612a638161273e565b8091505092959891949750929550565b60008060008060808587031215612a8957600080fd5b8435612a948161273e565b93506020850135612aa48161273e565b925061297160408601612889565b600080600060608486031215612ac757600080fd5b8335612ad28161273e565b925060208401356128ce8161273e565b60008060008060808587031215612af857600080fd5b8435612b038161273e565b93506020850135612b138161273e565b92506040850135915060608501356129818161273e565b600060208284031215612b3c57600080fd5b81516127b2816128f2565b60208082526023908201527f526f6c653a2053656e646572206973204e4f5420537570706c79204d6f64696660408201526234b2b960e91b606082015260800190565b6001600160a01b03929092168252602082015260400190565b6020808252601b908201527f526f6c653a2053656e646572206973204e4f5420467265657a65720000000000604082015260600190565b8183526000602080850194508260005b85811015612c18578135612bfd8161273e565b6001600160a01b031687529582019590820190600101612bea565b509495945050505050565b81835260006001600160fb1b03831115612c3c57600080fd5b8260051b80836020870137939093016020019392505050565b604081526000612c69604083018688612bda565b8281036020840152612c7c818587612c23565b979650505050505050565b6020808252601990820152782937b6329d1029b2b73232b91034b9902727aa1020b236b4b760391b604082015260600190565b60006020808352835180602085015260005b81811015612ce857858101830151858201604001528201612ccc565b506000604082860101526040601f19601f8301168501019250505092915050565b60208082526025908201527f526f6c653a2053656e646572206973204e4f542057686974654c697374204d616040820152643730b3b2b960d91b606082015260800190565b600060208284031215612d6057600080fd5b81516127b28161273e565b604081526000612d7f604083018688612bda565b8281036020848101919091528482528591810160005b86811015612dbc578335612da8816128f2565b151582529282019290820190600101612d95565b5098975050505050505050565b60208082526024908201527f526f6c653a2053656e646572206973204e4f54205472616e73666572204d616e60408201526330b3b2b960e11b606082015260800190565b606081526000612e2160608301888a612bda565b8281036020840152612e34818789612bda565b90508281036040840152612e49818587612c23565b999850505050505050505056fed211483f91fc6eff862467f8de606587a30c8fc9981056f051b897a418df803abfec83d64eaa953f2708271a023ab9ee82057f8f3578d548c1a4ba0b5b700489a26469706673582212202d88b2ea8ab1e5ae728d2faa0aeb1d0fca31237749d10174742b6354168b278464736f6c63430008180033",
  "linkReferences": {},
  "deployedLinkReferences": {}
}