{
  "_format": "hh-sol-artifact-1",
  "contractName": "AgentRole",
  "sourceName": "contracts/erc3643/roles/AgentRole.sol",
  "abi": [
    {
      "inputs": [],
      "stateMutability": "nonpayable",
      "type": "constructor"
    },
    {
      "inputs": [
        {
          "internalType": "address",
          "name": "owner",
          "type": "address"
        }
      ],
      "name": "OwnableInvalidOwner",
      "type": "error"
    },
    {
      "inputs": [
        {
          "internalType": "address",
          "name": "account",
          "type": "address"
        }
      ],
      "name": "OwnableUnauthorizedAccount",
      "type": "error"
    },
    {
      "anonymous": false,
      "inputs": [
        {
          "indexed": true,
          "internalType": "address",
          "name": "_agent",
          "type": "address"
        }
      ],
      "name": "AgentAdded",
      "type": "event"
    },
    {
      "anonymous": false,
      "inputs": [
        {
          "indexed": true,
          "internalType": "address",
          "name": "_agent",
          "type": "address"
        }
      ],
      "name": "AgentRemoved",
      "type": "event"
    },
    {
      "anonymous": false,
      "inputs": [
        {
          "indexed": true,
          "internalType": "address",
          "name": "previousOwner",
          "type": "address"
        },
        {
          "indexed": true,
          "internalType": "address",
          "name": "newOwner",
          "type": "address"
        }
      ],
      "name": "OwnershipTransferred",
      "type": "event"
    },
    {
      "inputs": [
        {
          "internalType": "address",
          "name": "_agent",
          "type": "address"
        }
      ],
      "name": "addAgent",
      "outputs": [],
      "stateMutability": "nonpayable",
      "type": "function"
    },
    {
      "inputs": [
        {
          "internalType": "address",
          "name": "_agent",
          "type": "address"
        }
      ],
      "name": "isAgent",
      "outputs": [
        {
          "internalType": "bool",
          "name": "",
          "type": "bool"
        }
      ],
      "stateMutability": "view",
      "type": "function"
    },
    {
      "inputs": [],
      "name": "owner",
      "outputs": [
        {
          "internalType": "address",
          "name": "",
          "type": "address"
        }
      ],
      "stateMutability": "view",
      "type": "function"
    },
    {
      "inputs": [
        {
          "internalType": "address",
          "name": "_agent",
          "type": "address"
        }
      ],
      "name": "removeAgent",
      "outputs": [],
      "stateMutability": "nonpayable",
      "type": "function"
    },
    {
      "inputs": [],
      "name": "renounceOwnership",
      "outputs": [],
      "stateMutability": "nonpayable",
      "type": "function"
    },
    {
      "inputs": [
        {
          "internalType": "address",
          "name": "newOwner",
          "type": "address"
        }
      ],
      "name": "transferOwnership",
      "outputs": [],
      "stateMutability": "nonpayable",
      "type": "function"
    }
  ],
  "bytecode": "0x608060405234801561001057600080fd5b50338061003757604051631e4fbdf760e01b81526000600482015260240160405180910390fd5b61004081610046565b50610096565b600080546001600160a01b038381166001600160a01b0319831681178455604051919092169283917f8be0079c531659141344cd1fd0a4f28419497f9722a3daafe3b4186f6b6457e09190a35050565b6104e8806100a56000396000f3fe608060405234801561001057600080fd5b50600436106100625760003560e01c80631ffbb06414610067578063715018a61461008f57806384e79842146100995780638da5cb5b146100ac57806397a6278e146100c5578063f2fde38b146100d8575b600080fd5b61007a610075366004610437565b6100eb565b60405190151581526020015b60405180910390f35b6100976100fe565b005b6100976100a7366004610437565b610112565b6000546001600160a01b03166040516100869190610467565b6100976100d3366004610437565b61018b565b6100976100e6366004610437565b6101fb565b60006100f8600183610239565b92915050565b6101066102bc565b61011060006102e9565b565b61011a6102bc565b6001600160a01b0381166101495760405162461bcd60e51b81526004016101409061047b565b60405180910390fd5b610154600182610339565b6040516001600160a01b038216907ff68e73cec97f2d70aa641fb26e87a4383686e2efacb648f2165aeb02ac562ec590600090a250565b6101936102bc565b6001600160a01b0381166101b95760405162461bcd60e51b81526004016101409061047b565b6101c46001826103b5565b6040516001600160a01b038216907fed9c8ad8d5a0a66898ea49d2956929c93ae2e8bd50281b2ed897c5d1a6737e0b90600090a250565b6102036102bc565b6001600160a01b03811661022d576000604051631e4fbdf760e01b81526004016101409190610467565b610236816102e9565b50565b60006001600160a01b03821661029c5760405162461bcd60e51b815260206004820152602260248201527f526f6c65733a206163636f756e7420697320746865207a65726f206164647265604482015261737360f01b6064820152608401610140565b506001600160a01b03166000908152602091909152604090205460ff1690565b6000546001600160a01b03163314610110573360405163118cdaa760e01b81526004016101409190610467565b600080546001600160a01b038381166001600160a01b0319831681178455604051919092169283917f8be0079c531659141344cd1fd0a4f28419497f9722a3daafe3b4186f6b6457e09190a35050565b6103438282610239565b156103905760405162461bcd60e51b815260206004820152601f60248201527f526f6c65733a206163636f756e7420616c72656164792068617320726f6c65006044820152606401610140565b6001600160a01b0316600090815260209190915260409020805460ff19166001179055565b6103bf8282610239565b6104155760405162461bcd60e51b815260206004820152602160248201527f526f6c65733a206163636f756e7420646f6573206e6f74206861766520726f6c6044820152606560f81b6064820152608401610140565b6001600160a01b0316600090815260209190915260409020805460ff19169055565b60006020828403121561044957600080fd5b81356001600160a01b038116811461046057600080fd5b9392505050565b6001600160a01b0391909116815260200190565b6020808252601f908201527f696e76616c696420617267756d656e74202d207a65726f20616464726573730060408201526060019056fea2646970667358221220fb0649dffe5a032b83e11cec066e48324559a572ca47aaa7ee7187dbc1558c7a64736f6c63430008180033",
  "linkReferences": {},
  "deployedLinkReferences": {}
}