{
  "_format": "hh-sol-artifact-1",
  "contractName": "AgentRolesUpgradeable",
  "sourceName": "contracts/erc3643/roles/permissioning/agent/AgentRolesUpgradeable.sol",
  "abi": [
    {
      "inputs": [],
      "name": "InvalidInitialization",
      "type": "error"
    },
    {
      "inputs": [],
      "name": "NotInitializing",
      "type": "error"
    },
    {
      "inputs": [
        {
          "internalType": "address",
          "name": "owner",
          "type": "address"
        }
      ],
      "name": "OwnableInvalidOwner",
      "type": "error"
    },
    {
      "inputs": [
        {
          "internalType": "address",
          "name": "account",
          "type": "address"
        }
      ],
      "name": "OwnableUnauthorizedAccount",
      "type": "error"
    },
    {
      "anonymous": false,
      "inputs": [
        {
          "indexed": false,
          "internalType": "uint64",
          "name": "version",
          "type": "uint64"
        }
      ],
      "name": "Initialized",
      "type": "event"
    },
    {
      "anonymous": false,
      "inputs": [
        {
          "indexed": true,
          "internalType": "address",
          "name": "previousOwner",
          "type": "address"
        },
        {
          "indexed": true,
          "internalType": "address",
          "name": "newOwner",
          "type": "address"
        }
      ],
      "name": "OwnershipTransferred",
      "type": "event"
    },
    {
      "anonymous": false,
      "inputs": [
        {
          "indexed": true,
          "internalType": "address",
          "name": "_agent",
          "type": "address"
        },
        {
          "indexed": false,
          "internalType": "string",
          "name": "_role",
          "type": "string"
        }
      ],
      "name": "RoleAdded",
      "type": "event"
    },
    {
      "anonymous": false,
      "inputs": [
        {
          "indexed": true,
          "internalType": "address",
          "name": "_agent",
          "type": "address"
        },
        {
          "indexed": false,
          "internalType": "string",
          "name": "_role",
          "type": "string"
        }
      ],
      "name": "RoleRemoved",
      "type": "event"
    },
    {
      "inputs": [
        {
          "internalType": "address",
          "name": "_agent",
          "type": "address"
        }
      ],
      "name": "addAgentAdmin",
      "outputs": [],
      "stateMutability": "nonpayable",
      "type": "function"
    },
    {
      "inputs": [
        {
          "internalType": "address",
          "name": "_agent",
          "type": "address"
        }
      ],
      "name": "addComplianceAgent",
      "outputs": [],
      "stateMutability": "nonpayable",
      "type": "function"
    },
    {
      "inputs": [
        {
          "internalType": "address",
          "name": "_agent",
          "type": "address"
        }
      ],
      "name": "addFreezer",
      "outputs": [],
      "stateMutability": "nonpayable",
      "type": "function"
    },
    {
      "inputs": [
        {
          "internalType": "address",
          "name": "_agent",
          "type": "address"
        }
      ],
      "name": "addRecoveryAgent",
      "outputs": [],
      "stateMutability": "nonpayable",
      "type": "function"
    },
    {
      "inputs": [
        {
          "internalType": "address",
          "name": "_agent",
          "type": "address"
        }
      ],
      "name": "addSupplyModifier",
      "outputs": [],
      "stateMutability": "nonpayable",
      "type": "function"
    },
    {
      "inputs": [
        {
          "internalType": "address",
          "name": "_agent",
          "type": "address"
        }
      ],
      "name": "addTransferManager",
      "outputs": [],
      "stateMutability": "nonpayable",
      "type": "function"
    },
    {
      "inputs": [
        {
          "internalType": "address",
          "name": "_agent",
          "type": "address"
        }
      ],
      "name": "addWhiteListManager",
      "outputs": [],
      "stateMutability": "nonpayable",
      "type": "function"
    },
    {
      "inputs": [
        {
          "internalType": "address",
          "name": "_agent",
          "type": "address"
        }
      ],
      "name": "isAgentAdmin",
      "outputs": [
        {
          "internalType": "bool",
          "name": "",
          "type": "bool"
        }
      ],
      "stateMutability": "view",
      "type": "function"
    },
    {
      "inputs": [
        {
          "internalType": "address",
          "name": "_agent",
          "type": "address"
        }
      ],
      "name": "isComplianceAgent",
      "outputs": [
        {
          "internalType": "bool",
          "name": "",
          "type": "bool"
        }
      ],
      "stateMutability": "view",
      "type": "function"
    },
    {
      "inputs": [
        {
          "internalType": "address",
          "name": "_agent",
          "type": "address"
        }
      ],
      "name": "isFreezer",
      "outputs": [
        {
          "internalType": "bool",
          "name": "",
          "type": "bool"
        }
      ],
      "stateMutability": "view",
      "type": "function"
    },
    {
      "inputs": [
        {
          "internalType": "address",
          "name": "_agent",
          "type": "address"
        }
      ],
      "name": "isRecoveryAgent",
      "outputs": [
        {
          "internalType": "bool",
          "name": "",
          "type": "bool"
        }
      ],
      "stateMutability": "view",
      "type": "function"
    },
    {
      "inputs": [
        {
          "internalType": "address",
          "name": "_agent",
          "type": "address"
        }
      ],
      "name": "isSupplyModifier",
      "outputs": [
        {
          "internalType": "bool",
          "name": "",
          "type": "bool"
        }
      ],
      "stateMutability": "view",
      "type": "function"
    },
    {
      "inputs": [
        {
          "internalType": "address",
          "name": "_agent",
          "type": "address"
        }
      ],
      "name": "isTransferManager",
      "outputs": [
        {
          "internalType": "bool",
          "name": "",
          "type": "bool"
        }
      ],
      "stateMutability": "view",
      "type": "function"
    },
    {
      "inputs": [
        {
          "internalType": "address",
          "name": "_agent",
          "type": "address"
        }
      ],
      "name": "isWhiteListManager",
      "outputs": [
        {
          "internalType": "bool",
          "name": "",
          "type": "bool"
        }
      ],
      "stateMutability": "view",
      "type": "function"
    },
    {
      "inputs": [],
      "name": "owner",
      "outputs": [
        {
          "internalType": "address",
          "name": "",
          "type": "address"
        }
      ],
      "stateMutability": "view",
      "type": "function"
    },
    {
      "inputs": [
        {
          "internalType": "address",
          "name": "_agent",
          "type": "address"
        }
      ],
      "name": "removeAgentAdmin",
      "outputs": [],
      "stateMutability": "nonpayable",
      "type": "function"
    },
    {
      "inputs": [
        {
          "internalType": "address",
          "name": "_agent",
          "type": "address"
        }
      ],
      "name": "removeComplianceAgent",
      "outputs": [],
      "stateMutability": "nonpayable",
      "type": "function"
    },
    {
      "inputs": [
        {
          "internalType": "address",
          "name": "_agent",
          "type": "address"
        }
      ],
      "name": "removeFreezer",
      "outputs": [],
      "stateMutability": "nonpayable",
      "type": "function"
    },
    {
      "inputs": [
        {
          "internalType": "address",
          "name": "_agent",
          "type": "address"
        }
      ],
      "name": "removeRecoveryAgent",
      "outputs": [],
      "stateMutability": "nonpayable",
      "type": "function"
    },
    {
      "inputs": [
        {
          "internalType": "address",
          "name": "_agent",
          "type": "address"
        }
      ],
      "name": "removeSupplyModifier",
      "outputs": [],
      "stateMutability": "nonpayable",
      "type": "function"
    },
    {
      "inputs": [
        {
          "internalType": "address",
          "name": "_agent",
          "type": "address"
        }
      ],
      "name": "removeTransferManager",
      "outputs": [],
      "stateMutability": "nonpayable",
      "type": "function"
    },
    {
      "inputs": [
        {
          "internalType": "address",
          "name": "_agent",
          "type": "address"
        }
      ],
      "name": "removeWhiteListManager",
      "outputs": [],
      "stateMutability": "nonpayable",
      "type": "function"
    },
    {
      "inputs": [],
      "name": "renounceOwnership",
      "outputs": [],
      "stateMutability": "nonpayable",
      "type": "function"
    },
    {
      "inputs": [
        {
          "internalType": "address",
          "name": "newOwner",
          "type": "address"
        }
      ],
      "name": "transferOwnership",
      "outputs": [],
      "stateMutability": "nonpayable",
      "type": "function"
    }
  ],
  "bytecode": "0x608060405234801561001057600080fd5b50610f9e806100206000396000f3fe608060405234801561001057600080fd5b50600436106101585760003560e01c8063715018a6116100c3578063bd92fcfe1161007c578063bd92fcfe146102c1578063c6006c9a146102d4578063c8777b50146102e7578063cdf1b693146102fa578063e86c64311461030d578063f2fde38b1461032057600080fd5b8063715018a6146102585780637489453d146102605780637ad78a4614610273578063860a2bcf146102865780638da5cb5b14610299578063965e61ea146102ae57600080fd5b80633cdf8000116101155780633cdf8000146101e65780634599fb7b146101f95780634aff432c1461020c578063526606c91461021f57806365d07b2e146102325780636c65fd6a1461024557600080fd5b8063042a36061461015d57806314f2d2761461018557806315d8ca621461019a5780632001c350146101ad5780632acd2000146101c05780633966904d146101d3575b600080fd5b61017061016b366004610e62565b610333565b60405190151581526020015b60405180910390f35b610198610193366004610e62565b610345565b005b6101986101a8366004610e62565b6103f0565b6101706101bb366004610e62565b610485565b6101986101ce366004610e62565b610492565b6101986101e1366004610e62565b610520565b6101986101f4366004610e62565b6105b7565b610170610207366004610e62565b61064d565b61019861021a366004610e62565b61065a565b61019861022d366004610e62565b6106f1565b610198610240366004610e62565b61077f565b610170610253366004610e62565b610810565b61019861081d565b61019861026e366004610e62565b610831565b610170610281366004610e62565b6108c5565b610198610294366004610e62565b6108d2565b6102a1610967565b60405161017c9190610e92565b6101986102bc366004610e62565b610995565b6101706102cf366004610e62565b610a2b565b6101986102e2366004610e62565b610a38565b6101986102f5366004610e62565b610ace565b610198610308366004610e62565b610b62565b61017061031b366004610e62565b610bf3565b61019861032e366004610e62565b610c00565b600061033f8183610c3e565b92915050565b3361034e610967565b6001600160a01b0316148061036757506103673361064d565b61038c5760405162461bcd60e51b815260040161038390610ea6565b60405180910390fd5b610397600282610cc1565b604080518082018252600f81526e2a3930b739b332b926b0b730b3b2b960891b602082015290516001600160a01b03831690600080516020610f49833981519152906103e4908490610ed9565b60405180910390a25050565b336103f9610967565b6001600160a01b0316148061041257506104123361064d565b61042e5760405162461bcd60e51b815260040161038390610ea6565b610439600082610cc1565b604080518082018252600e81526d29bab838363ca6b7b234b334b2b960911b602082015290516001600160a01b03831690600080516020610f49833981519152906103e4908490610ed9565b600061033f600483610c3e565b3361049b610967565b6001600160a01b031614806104b457506104b43361064d565b6104d05760405162461bcd60e51b815260040161038390610ea6565b6104db600182610d3d565b6040805180820182526007815266233932b2bd32b960c91b602082015290516001600160a01b03831690600080516020610f29833981519152906103e4908490610ed9565b33610529610967565b6001600160a01b0316148061054257506105423361064d565b61055e5760405162461bcd60e51b815260040161038390610ea6565b610569600582610cc1565b604080518082018252601081526f2bb434ba32a634b9ba26b0b730b3b2b960811b602082015290516001600160a01b03831690600080516020610f49833981519152906103e4908490610ed9565b336105c0610967565b6001600160a01b031614806105d957506105d93361064d565b6105f55760405162461bcd60e51b815260040161038390610ea6565b610600600482610cc1565b604080518082018252600f81526e10dbdb5c1b1a585b98d95059d95b9d608a1b602082015290516001600160a01b03831690600080516020610f49833981519152906103e4908490610ed9565b600061033f600683610c3e565b33610663610967565b6001600160a01b0316148061067c575061067c3361064d565b6106985760405162461bcd60e51b815260040161038390610ea6565b6106a3600582610d3d565b604080518082018252601081526f2bb434ba32a634b9ba26b0b730b3b2b960811b602082015290516001600160a01b03831690600080516020610f29833981519152906103e4908490610ed9565b336106fa610967565b6001600160a01b0316148061071357506107133361064d565b61072f5760405162461bcd60e51b815260040161038390610ea6565b61073a600182610cc1565b6040805180820182526007815266233932b2bd32b960c91b602082015290516001600160a01b03831690600080516020610f49833981519152906103e4908490610ed9565b33610788610967565b6001600160a01b031614806107a157506107a13361064d565b6107bd5760405162461bcd60e51b815260040161038390610ea6565b6107c8600682610d3d565b604080518082018252600a81526920b3b2b73a20b236b4b760b11b602082015290516001600160a01b03831690600080516020610f29833981519152906103e4908490610ed9565b600061033f600183610c3e565b610825610dbf565b61082f6000610df1565b565b3361083a610967565b6001600160a01b0316148061085357506108533361064d565b61086f5760405162461bcd60e51b815260040161038390610ea6565b61087a600382610cc1565b604080518082018252600d81526c149958dbdd995c9e5059d95b9d609a1b602082015290516001600160a01b03831690600080516020610f49833981519152906103e4908490610ed9565b600061033f600383610c3e565b336108db610967565b6001600160a01b031614806108f457506108f43361064d565b6109105760405162461bcd60e51b815260040161038390610ea6565b61091b600082610d3d565b604080518082018252600e81526d29bab838363ca6b7b234b334b2b960911b602082015290516001600160a01b03831690600080516020610f29833981519152906103e4908490610ed9565b7f9016d09d72d40fdae2fd8ceac6b6234c7706214fd39c1cd1e609a0528c199300546001600160a01b031690565b3361099e610967565b6001600160a01b031614806109b757506109b73361064d565b6109d35760405162461bcd60e51b815260040161038390610ea6565b6109de600282610d3d565b604080518082018252600f81526e2a3930b739b332b926b0b730b3b2b960891b602082015290516001600160a01b03831690600080516020610f29833981519152906103e4908490610ed9565b600061033f600583610c3e565b33610a41610967565b6001600160a01b03161480610a5a5750610a5a3361064d565b610a765760405162461bcd60e51b815260040161038390610ea6565b610a81600482610d3d565b604080518082018252600f81526e10dbdb5c1b1a585b98d95059d95b9d608a1b602082015290516001600160a01b03831690600080516020610f29833981519152906103e4908490610ed9565b33610ad7610967565b6001600160a01b03161480610af05750610af03361064d565b610b0c5760405162461bcd60e51b815260040161038390610ea6565b610b17600382610d3d565b604080518082018252600d81526c149958dbdd995c9e5059d95b9d609a1b602082015290516001600160a01b03831690600080516020610f29833981519152906103e4908490610ed9565b33610b6b610967565b6001600160a01b03161480610b845750610b843361064d565b610ba05760405162461bcd60e51b815260040161038390610ea6565b610bab600682610cc1565b604080518082018252600a81526920b3b2b73a20b236b4b760b11b602082015290516001600160a01b03831690600080516020610f49833981519152906103e4908490610ed9565b600061033f600283610c3e565b610c08610dbf565b6001600160a01b038116610c32576000604051631e4fbdf760e01b81526004016103839190610e92565b610c3b81610df1565b50565b60006001600160a01b038216610ca15760405162461bcd60e51b815260206004820152602260248201527f526f6c65733a206163636f756e7420697320746865207a65726f206164647265604482015261737360f01b6064820152608401610383565b506001600160a01b03166000908152602091909152604090205460ff1690565b610ccb8282610c3e565b15610d185760405162461bcd60e51b815260206004820152601f60248201527f526f6c65733a206163636f756e7420616c72656164792068617320726f6c65006044820152606401610383565b6001600160a01b0316600090815260209190915260409020805460ff19166001179055565b610d478282610c3e565b610d9d5760405162461bcd60e51b815260206004820152602160248201527f526f6c65733a206163636f756e7420646f6573206e6f74206861766520726f6c6044820152606560f81b6064820152608401610383565b6001600160a01b0316600090815260209190915260409020805460ff19169055565b33610dc8610967565b6001600160a01b03161461082f573360405163118cdaa760e01b81526004016103839190610e92565b7f9016d09d72d40fdae2fd8ceac6b6234c7706214fd39c1cd1e609a0528c19930080546001600160a01b031981166001600160a01b03848116918217845560405192169182907f8be0079c531659141344cd1fd0a4f28419497f9722a3daafe3b4186f6b6457e090600090a3505050565b600060208284031215610e7457600080fd5b81356001600160a01b0381168114610e8b57600080fd5b9392505050565b6001600160a01b0391909116815260200190565b6020808252601990820152782937b6329d1029b2b73232b91034b9902727aa1020b236b4b760391b604082015260600190565b60006020808352835180602085015260005b81811015610f0757858101830151858201604001528201610eeb565b506000604082860101526040601f19601f830116850101925050509291505056fed211483f91fc6eff862467f8de606587a30c8fc9981056f051b897a418df803abfec83d64eaa953f2708271a023ab9ee82057f8f3578d548c1a4ba0b5b700489a26469706673582212203e5a21d5273cf3ef920bde957d92adace24d9ebb0fde31401f9ebfb82bbff56d64736f6c63430008180033",
  "linkReferences": {},
  "deployedLinkReferences": {}
}