{
  "_format": "hh-sol-artifact-1",
  "contractName": "ApproveTransferTest",
  "sourceName": "contracts/erc3643/compliance/legacy/test/ApproveTransferTest.sol",
  "abi": [
    {
      "inputs": [
        {
          "internalType": "address",
          "name": "owner",
          "type": "address"
        }
      ],
      "name": "OwnableInvalidOwner",
      "type": "error"
    },
    {
      "inputs": [
        {
          "internalType": "address",
          "name": "account",
          "type": "address"
        }
      ],
      "name": "OwnableUnauthorizedAccount",
      "type": "error"
    },
    {
      "anonymous": false,
      "inputs": [
        {
          "indexed": true,
          "internalType": "address",
          "name": "_agent",
          "type": "address"
        }
      ],
      "name": "AgentAdded",
      "type": "event"
    },
    {
      "anonymous": false,
      "inputs": [
        {
          "indexed": true,
          "internalType": "address",
          "name": "_agent",
          "type": "address"
        }
      ],
      "name": "AgentRemoved",
      "type": "event"
    },
    {
      "anonymous": false,
      "inputs": [
        {
          "indexed": false,
          "internalType": "address",
          "name": "_from",
          "type": "address"
        },
        {
          "indexed": false,
          "internalType": "address",
          "name": "_to",
          "type": "address"
        },
        {
          "indexed": false,
          "internalType": "uint256",
          "name": "_amount",
          "type": "uint256"
        },
        {
          "indexed": false,
          "internalType": "address",
          "name": "_token",
          "type": "address"
        }
      ],
      "name": "ApprovalRemoved",
      "type": "event"
    },
    {
      "anonymous": false,
      "inputs": [
        {
          "indexed": true,
          "internalType": "address",
          "name": "previousOwner",
          "type": "address"
        },
        {
          "indexed": true,
          "internalType": "address",
          "name": "newOwner",
          "type": "address"
        }
      ],
      "name": "OwnershipTransferred",
      "type": "event"
    },
    {
      "anonymous": false,
      "inputs": [
        {
          "indexed": false,
          "internalType": "address",
          "name": "_agentAddress",
          "type": "address"
        }
      ],
      "name": "TokenAgentAdded",
      "type": "event"
    },
    {
      "anonymous": false,
      "inputs": [
        {
          "indexed": false,
          "internalType": "address",
          "name": "_agentAddress",
          "type": "address"
        }
      ],
      "name": "TokenAgentRemoved",
      "type": "event"
    },
    {
      "anonymous": false,
      "inputs": [
        {
          "indexed": false,
          "internalType": "address",
          "name": "_token",
          "type": "address"
        }
      ],
      "name": "TokenBound",
      "type": "event"
    },
    {
      "anonymous": false,
      "inputs": [
        {
          "indexed": false,
          "internalType": "address",
          "name": "_token",
          "type": "address"
        }
      ],
      "name": "TokenUnbound",
      "type": "event"
    },
    {
      "anonymous": false,
      "inputs": [
        {
          "indexed": false,
          "internalType": "address",
          "name": "_from",
          "type": "address"
        },
        {
          "indexed": false,
          "internalType": "address",
          "name": "_to",
          "type": "address"
        },
        {
          "indexed": false,
          "internalType": "uint256",
          "name": "_amount",
          "type": "uint256"
        },
        {
          "indexed": false,
          "internalType": "address",
          "name": "_token",
          "type": "address"
        }
      ],
      "name": "TransferApproved",
      "type": "event"
    },
    {
      "inputs": [
        {
          "internalType": "address",
          "name": "_agent",
          "type": "address"
        }
      ],
      "name": "addAgent",
      "outputs": [],
      "stateMutability": "nonpayable",
      "type": "function"
    },
    {
      "inputs": [
        {
          "internalType": "address",
          "name": "_agentAddress",
          "type": "address"
        }
      ],
      "name": "addTokenAgent",
      "outputs": [],
      "stateMutability": "nonpayable",
      "type": "function"
    },
    {
      "inputs": [
        {
          "internalType": "address",
          "name": "_from",
          "type": "address"
        },
        {
          "internalType": "address",
          "name": "_to",
          "type": "address"
        },
        {
          "internalType": "uint256",
          "name": "_amount",
          "type": "uint256"
        }
      ],
      "name": "approveAndTransfer",
      "outputs": [],
      "stateMutability": "nonpayable",
      "type": "function"
    },
    {
      "inputs": [
        {
          "internalType": "address",
          "name": "_from",
          "type": "address"
        },
        {
          "internalType": "address",
          "name": "_to",
          "type": "address"
        },
        {
          "internalType": "uint256",
          "name": "_amount",
          "type": "uint256"
        }
      ],
      "name": "approveTransfer",
      "outputs": [],
      "stateMutability": "nonpayable",
      "type": "function"
    },
    {
      "inputs": [
        {
          "internalType": "address",
          "name": "_token",
          "type": "address"
        }
      ],
      "name": "bindToken",
      "outputs": [],
      "stateMutability": "nonpayable",
      "type": "function"
    },
    {
      "inputs": [
        {
          "internalType": "address",
          "name": "_from",
          "type": "address"
        },
        {
          "internalType": "address",
          "name": "_to",
          "type": "address"
        },
        {
          "internalType": "uint256",
          "name": "_value",
          "type": "uint256"
        }
      ],
      "name": "canTransfer",
      "outputs": [
        {
          "internalType": "bool",
          "name": "",
          "type": "bool"
        }
      ],
      "stateMutability": "view",
      "type": "function"
    },
    {
      "inputs": [
        {
          "internalType": "address",
          "name": "_from",
          "type": "address"
        },
        {
          "internalType": "address",
          "name": "_to",
          "type": "address"
        },
        {
          "internalType": "uint256",
          "name": "_value",
          "type": "uint256"
        }
      ],
      "name": "complianceCheckOnApproveTransfer",
      "outputs": [
        {
          "internalType": "bool",
          "name": "",
          "type": "bool"
        }
      ],
      "stateMutability": "view",
      "type": "function"
    },
    {
      "inputs": [
        {
          "internalType": "address",
          "name": "_to",
          "type": "address"
        },
        {
          "internalType": "uint256",
          "name": "_value",
          "type": "uint256"
        }
      ],
      "name": "created",
      "outputs": [],
      "stateMutability": "nonpayable",
      "type": "function"
    },
    {
      "inputs": [
        {
          "internalType": "address",
          "name": "_from",
          "type": "address"
        },
        {
          "internalType": "uint256",
          "name": "_value",
          "type": "uint256"
        }
      ],
      "name": "destroyed",
      "outputs": [],
      "stateMutability": "nonpayable",
      "type": "function"
    },
    {
      "inputs": [
        {
          "internalType": "address",
          "name": "_agent",
          "type": "address"
        }
      ],
      "name": "isAgent",
      "outputs": [
        {
          "internalType": "bool",
          "name": "",
          "type": "bool"
        }
      ],
      "stateMutability": "view",
      "type": "function"
    },
    {
      "inputs": [
        {
          "internalType": "address",
          "name": "_agentAddress",
          "type": "address"
        }
      ],
      "name": "isTokenAgent",
      "outputs": [
        {
          "internalType": "bool",
          "name": "",
          "type": "bool"
        }
      ],
      "stateMutability": "view",
      "type": "function"
    },
    {
      "inputs": [
        {
          "internalType": "address",
          "name": "_token",
          "type": "address"
        }
      ],
      "name": "isTokenBound",
      "outputs": [
        {
          "internalType": "bool",
          "name": "",
          "type": "bool"
        }
      ],
      "stateMutability": "view",
      "type": "function"
    },
    {
      "inputs": [],
      "name": "owner",
      "outputs": [
        {
          "internalType": "address",
          "name": "",
          "type": "address"
        }
      ],
      "stateMutability": "view",
      "type": "function"
    },
    {
      "inputs": [
        {
          "internalType": "address",
          "name": "_agent",
          "type": "address"
        }
      ],
      "name": "removeAgent",
      "outputs": [],
      "stateMutability": "nonpayable",
      "type": "function"
    },
    {
      "inputs": [
        {
          "internalType": "address",
          "name": "_from",
          "type": "address"
        },
        {
          "internalType": "address",
          "name": "_to",
          "type": "address"
        },
        {
          "internalType": "uint256",
          "name": "_amount",
          "type": "uint256"
        }
      ],
      "name": "removeApproval",
      "outputs": [],
      "stateMutability": "nonpayable",
      "type": "function"
    },
    {
      "inputs": [
        {
          "internalType": "address",
          "name": "_agentAddress",
          "type": "address"
        }
      ],
      "name": "removeTokenAgent",
      "outputs": [],
      "stateMutability": "nonpayable",
      "type": "function"
    },
    {
      "inputs": [],
      "name": "renounceOwnership",
      "outputs": [],
      "stateMutability": "nonpayable",
      "type": "function"
    },
    {
      "inputs": [],
      "name": "tokenBound",
      "outputs": [
        {
          "internalType": "contract IToken",
          "name": "",
          "type": "address"
        }
      ],
      "stateMutability": "view",
      "type": "function"
    },
    {
      "inputs": [
        {
          "internalType": "address",
          "name": "newOwner",
          "type": "address"
        }
      ],
      "name": "transferOwnership",
      "outputs": [],
      "stateMutability": "nonpayable",
      "type": "function"
    },
    {
      "inputs": [
        {
          "internalType": "address",
          "name": "_from",
          "type": "address"
        },
        {
          "internalType": "address",
          "name": "_to",
          "type": "address"
        },
        {
          "internalType": "uint256",
          "name": "_value",
          "type": "uint256"
        }
      ],
      "name": "transferred",
      "outputs": [],
      "stateMutability": "nonpayable",
      "type": "function"
    },
    {
      "inputs": [
        {
          "internalType": "address",
          "name": "_token",
          "type": "address"
        }
      ],
      "name": "unbindToken",
      "outputs": [],
      "stateMutability": "nonpayable",
      "type": "function"
    }
  ],
  "bytecode": "0x608060405234801561001057600080fd5b50338061003757604051631e4fbdf760e01b81526000600482015260240160405180910390fd5b61004081610046565b50610096565b600080546001600160a01b038381166001600160a01b0319831681178455604051919092169283917f8be0079c531659141344cd1fd0a4f28419497f9722a3daafe3b4186f6b6457e09190a35050565b611197806100a56000396000f3fe608060405234801561001057600080fd5b50600436106101375760003560e01c806384e79842116100b857806397a6278e1161007c57806397a6278e14610254578063993e8b9514610267578063cdde29321461027a578063e46638e61461028d578063f2fde38b146102a0578063ff3e6954146102b357600080fd5b806384e79842146102065780638baf29b4146102195780638d2ea772146101d85780638da5cb5b1461022c57806393e62f071461024157600080fd5b806340db3b50116100ff57806340db3b50146101b257806356db9096146101c55780635f8dead3146101d8578063715018a6146101eb57806382580805146101f357600080fd5b80630e20cc851461013c5780631ffbb064146101515780632ca9ea4314610179578063346531fa1461018c5780633ff5aa021461019f575b600080fd5b61014f61014a366004610f64565b6102c6565b005b61016461015f366004610fa0565b610356565b60405190151581526020015b60405180910390f35b61014f610187366004610f64565b610369565b61016461019a366004610fa0565b6104f9565b61014f6101ad366004610fa0565b6105a5565b61014f6101c0366004610fa0565b610651565b6101646101d3366004610f64565b61072a565b61014f6101e6366004610fbb565b610787565b61014f6107af565b61014f610201366004610f64565b6107c3565b61014f610214366004610fa0565b610940565b61014f610227366004610f64565b6109b0565b6102346109e4565b6040516101709190610fe5565b600354610234906001600160a01b031681565b61014f610262366004610fa0565b6109f3565b610164610275366004610fa0565b610a63565b61014f610288366004610fa0565b610a83565b61016461029b366004610f64565b610b43565b61014f6102ae366004610fa0565b610b5c565b61014f6102c1366004610fa0565b610b9a565b6102d18383836107c3565b6003546040516323b872dd60e01b81526001600160a01b038581166004830152848116602483015260448201849052909116906323b872dd906064016020604051808303816000875af115801561032c573d6000803e3d6000fd5b505050506040513d601f19601f820116820180604052508101906103509190610ff9565b50505050565b6000610363600183610c5e565b92915050565b336103726109e4565b6001600160a01b031614806103f357506003546040516307feec1960e21b81526001600160a01b0390911690631ffbb064906103b2903390600401610fe5565b602060405180830381865afa1580156103cf573d6000803e3d6000fd5b505050506040513d601f19601f820116820180604052508101906103f39190610ff9565b6104185760405162461bcd60e51b815260040161040f9061101b565b60405180910390fd5b600354600090610436908590859085906001600160a01b0316610ce1565b60008181526004602052604090205490915060ff166104935760405162461bcd60e51b81526020600482015260196024820152781d1c985b9cd9995c881b9bdd08185c1c1c9bdd9959081e595d603a1b604482015260640161040f565b60008181526004602052604090819020805460ff1916905560035490517f611476e33c1d844d9fa71ba7de6e7130e18b22971d28580fd76321e4af696356916104eb918791879187916001600160a01b03169061105e565b60405180910390a150505050565b6001600160a01b03811660009081526002602052604081205460ff1615801561059057506003546040516307feec1960e21b81526001600160a01b0390911690631ffbb0649061054d908590600401610fe5565b602060405180830381865afa15801561056a573d6000803e3d6000fd5b505050506040513d601f19601f8201168201806040525081019061058e9190610ff9565b155b1561059d57506000919050565b506001919050565b336105ae6109e4565b6001600160a01b031614806105df57506003546001600160a01b03161580156105df5750336001600160a01b038216145b6105fb5760405162461bcd60e51b815260040161040f90611089565b600380546001600160a01b0319166001600160a01b0383161790556040517f2de35142b19ed5a07796cf30791959c592018f70b1d2d7c460eef8ffe713692b90610646908390610fe5565b60405180910390a150565b3361065a6109e4565b6001600160a01b031614806106775750336001600160a01b038216145b6106935760405162461bcd60e51b815260040161040f90611089565b6003546001600160a01b038281169116146106ea5760405162461bcd60e51b8152602060048201526017602482015276151a1a5cc81d1bdad95b881a5cc81b9bdd08189bdd5b99604a1b604482015260640161040f565b600380546001600160a01b03191690556040517f28a4ca7134a3b3f9aff286e79ad3daadb4a06d1b43d037a3a98bdc074edd9b7a90610646908390610fe5565b6000610735846104f9565b61077c57600354600090610757908690869086906001600160a01b0316610ce1565b60008181526004602052604090205490915060ff1661077a576000915050610780565b505b5060015b9392505050565b61078f610d1d565b6107ab5760405162461bcd60e51b815260040161040f906110c0565b5050565b6107b7610d2d565b6107c16000610d5f565b565b336107cc6109e4565b6001600160a01b0316148061084d57506003546040516307feec1960e21b81526001600160a01b0390911690631ffbb0649061080c903390600401610fe5565b602060405180830381865afa158015610829573d6000803e3d6000fd5b505050506040513d601f19601f8201168201806040525081019061084d9190610ff9565b6108695760405162461bcd60e51b815260040161040f9061101b565b600354600090610887908590859085906001600160a01b0316610ce1565b60008181526004602052604090205490915060ff16156108e55760405162461bcd60e51b81526020600482015260196024820152781d1c985b9cd9995c88185b1c9958591e48185c1c1c9bdd9959603a1b604482015260640161040f565b60008181526004602052604090819020805460ff1916600117905560035490517f776c895685d60b5ac3aa2c3381ed2b021825c000fbb0d8ff1359636700aa1651916104eb918791879187916001600160a01b03169061105e565b610948610d2d565b6001600160a01b03811661096e5760405162461bcd60e51b815260040161040f9061112a565b610979600182610daf565b6040516001600160a01b038216907ff68e73cec97f2d70aa641fb26e87a4383686e2efacb648f2165aeb02ac562ec590600090a250565b6109b8610d1d565b6109d45760405162461bcd60e51b815260040161040f906110c0565b6109df838383610e2b565b505050565b6000546001600160a01b031690565b6109fb610d2d565b6001600160a01b038116610a215760405162461bcd60e51b815260040161040f9061112a565b610a2c600182610e36565b6040516001600160a01b038216907fed9c8ad8d5a0a66898ea49d2956929c93ae2e8bd50281b2ed897c5d1a6737e0b90600090a250565b6003546000906001600160a01b0383811691161461059d57506000919050565b610a8b610d2d565b6001600160a01b03811660009081526002602052604090205460ff16610af35760405162461bcd60e51b815260206004820181905260248201527f54686973204167656e74206973206e6f74207265676973746572656420796574604482015260640161040f565b6001600160a01b03811660009081526002602052604090819020805460ff19169055517f6a659bb87bb23efbdc295f8eed8ae8c4379bfb77660ced2ef0f3d7d26b05c6a690610646908390610fe5565b6000610b5084848461072a565b61077c57506000610780565b610b64610d2d565b6001600160a01b038116610b8e576000604051631e4fbdf760e01b815260040161040f9190610fe5565b610b9781610d5f565b50565b610ba2610d2d565b6001600160a01b03811660009081526002602052604090205460ff1615610c0b5760405162461bcd60e51b815260206004820181905260248201527f54686973204167656e7420697320616c72656164792072656769737465726564604482015260640161040f565b6001600160a01b03811660009081526002602052604090819020805460ff19166001179055517fd62c45e13ac30396aceb3ad37c89bd1ba9048032fe61679000e92eb93dbfd67d90610646908390610fe5565b60006001600160a01b038216610cc15760405162461bcd60e51b815260206004820152602260248201527f526f6c65733a206163636f756e7420697320746865207a65726f206164647265604482015261737360f01b606482015260840161040f565b506001600160a01b03166000908152602091909152604090205460ff1690565b60008085858585604051602001610cfb949392919061105e565b60408051808303601f1901815291905280516020909101209695505050505050565b6000610d2833610a63565b905090565b33610d366109e4565b6001600160a01b0316146107c1573360405163118cdaa760e01b815260040161040f9190610fe5565b600080546001600160a01b038381166001600160a01b0319831681178455604051919092169283917f8be0079c531659141344cd1fd0a4f28419497f9722a3daafe3b4186f6b6457e09190a35050565b610db98282610c5e565b15610e065760405162461bcd60e51b815260206004820152601f60248201527f526f6c65733a206163636f756e7420616c72656164792068617320726f6c6500604482015260640161040f565b6001600160a01b0316600090815260209190915260409020805460ff19166001179055565b6109df838383610eb8565b610e408282610c5e565b610e965760405162461bcd60e51b815260206004820152602160248201527f526f6c65733a206163636f756e7420646f6573206e6f74206861766520726f6c6044820152606560f81b606482015260840161040f565b6001600160a01b0316600090815260209190915260409020805460ff19169055565b600354600090610ed6908590859085906001600160a01b0316610ce1565b60008181526004602052604090205490915060ff16156103505760008181526004602052604090819020805460ff1916905560035490517f611476e33c1d844d9fa71ba7de6e7130e18b22971d28580fd76321e4af696356916104eb918791879187916001600160a01b03169061105e565b80356001600160a01b0381168114610f5f57600080fd5b919050565b600080600060608486031215610f7957600080fd5b610f8284610f48565b9250610f9060208501610f48565b9150604084013590509250925092565b600060208284031215610fb257600080fd5b61078082610f48565b60008060408385031215610fce57600080fd5b610fd783610f48565b946020939093013593505050565b6001600160a01b0391909116815260200190565b60006020828403121561100b57600080fd5b8151801515811461078057600080fd5b60208082526023908201527f63616e2062652063616c6c6564206f6e6c792062792041646d696e206164647260408201526265737360e81b606082015260800190565b6001600160a01b03948516815292841660208401526040830191909152909116606082015260800190565b6020808252601c908201527f6f6e6c79206f776e6572206f7220746f6b656e2063616e2063616c6c00000000604082015260600190565b60208082526044908201527f6572726f72203a20746869732061646472657373206973206e6f74206120746f60408201527f6b656e20626f756e6420746f2074686520636f6d706c69616e636520636f6e746060820152631c9858dd60e21b608082015260a00190565b6020808252601f908201527f696e76616c696420617267756d656e74202d207a65726f20616464726573730060408201526060019056fea26469706673582212208e278ff64e3271d029ea5e8696c98f745b2e73491441cd136952c893f5f0c0cc64736f6c63430008180033",
  "linkReferences": {},
  "deployedLinkReferences": {}
}