{
  "_format": "hh-sol-artifact-1",
  "contractName": "AsyncVault",
  "sourceName": "contracts/erc7540/AsyncVault.sol",
  "abi": [
    {
      "inputs": [
        {
          "internalType": "contract ERC20",
          "name": "_underlying",
          "type": "address"
        },
        {
          "internalType": "string",
          "name": "_name",
          "type": "string"
        },
        {
          "internalType": "string",
          "name": "_symbol",
          "type": "string"
        },
        {
          "components": [
            {
              "internalType": "address",
              "name": "receiver",
              "type": "address"
            },
            {
              "internalType": "address",
              "name": "token",
              "type": "address"
            },
            {
              "internalType": "uint256",
              "name": "feePercentage",
              "type": "uint256"
            }
          ],
          "internalType": "struct FeeConfiguration.FeeConfig",
          "name": "_feeConfig",
          "type": "tuple"
        },
        {
          "internalType": "address",
          "name": "_vaultRewardController",
          "type": "address"
        },
        {
          "internalType": "address",
          "name": "_feeConfigController",
          "type": "address"
        }
      ],
      "stateMutability": "payable",
      "type": "constructor"
    },
    {
      "inputs": [],
      "name": "AccessControlBadConfirmation",
      "type": "error"
    },
    {
      "inputs": [
        {
          "internalType": "address",
          "name": "account",
          "type": "address"
        },
        {
          "internalType": "bytes32",
          "name": "neededRole",
          "type": "bytes32"
        }
      ],
      "name": "AccessControlUnauthorizedAccount",
      "type": "error"
    },
    {
      "inputs": [],
      "name": "ERC7540CantRequestDepositOnBehalfOf",
      "type": "error"
    },
    {
      "inputs": [
        {
          "internalType": "address",
          "name": "controller",
          "type": "address"
        },
        {
          "internalType": "uint256",
          "name": "assets",
          "type": "uint256"
        },
        {
          "internalType": "uint256",
          "name": "maxDeposit",
          "type": "uint256"
        }
      ],
      "name": "MaxDepositRequestExceeded",
      "type": "error"
    },
    {
      "inputs": [
        {
          "internalType": "address",
          "name": "controller",
          "type": "address"
        },
        {
          "internalType": "uint256",
          "name": "shares",
          "type": "uint256"
        },
        {
          "internalType": "uint256",
          "name": "maxShares",
          "type": "uint256"
        }
      ],
      "name": "MaxRedeemRequestExceeded",
      "type": "error"
    },
    {
      "inputs": [],
      "name": "MaxRewardTokensAmount",
      "type": "error"
    },
    {
      "inputs": [
        {
          "internalType": "address",
          "name": "owner",
          "type": "address"
        }
      ],
      "name": "OwnableInvalidOwner",
      "type": "error"
    },
    {
      "inputs": [
        {
          "internalType": "address",
          "name": "account",
          "type": "address"
        }
      ],
      "name": "OwnableUnauthorizedAccount",
      "type": "error"
    },
    {
      "inputs": [],
      "name": "ReentrancyGuardReentrantCall",
      "type": "error"
    },
    {
      "anonymous": false,
      "inputs": [
        {
          "indexed": true,
          "internalType": "address",
          "name": "owner",
          "type": "address"
        },
        {
          "indexed": true,
          "internalType": "address",
          "name": "spender",
          "type": "address"
        },
        {
          "indexed": false,
          "internalType": "uint256",
          "name": "amount",
          "type": "uint256"
        }
      ],
      "name": "Approval",
      "type": "event"
    },
    {
      "anonymous": false,
      "inputs": [
        {
          "indexed": true,
          "internalType": "uint256",
          "name": "requestId",
          "type": "uint256"
        },
        {
          "indexed": true,
          "internalType": "address",
          "name": "owner",
          "type": "address"
        },
        {
          "indexed": true,
          "internalType": "address",
          "name": "operator",
          "type": "address"
        },
        {
          "indexed": false,
          "internalType": "uint256",
          "name": "assets",
          "type": "uint256"
        },
        {
          "indexed": false,
          "internalType": "uint256",
          "name": "shares",
          "type": "uint256"
        }
      ],
      "name": "ClaimDeposit",
      "type": "event"
    },
    {
      "anonymous": false,
      "inputs": [
        {
          "indexed": true,
          "internalType": "uint256",
          "name": "requestId",
          "type": "uint256"
        },
        {
          "indexed": true,
          "internalType": "address",
          "name": "owner",
          "type": "address"
        },
        {
          "indexed": true,
          "internalType": "address",
          "name": "operator",
          "type": "address"
        },
        {
          "indexed": false,
          "internalType": "uint256",
          "name": "assets",
          "type": "uint256"
        },
        {
          "indexed": false,
          "internalType": "uint256",
          "name": "shares",
          "type": "uint256"
        }
      ],
      "name": "ClaimRedeem",
      "type": "event"
    },
    {
      "anonymous": false,
      "inputs": [
        {
          "indexed": true,
          "internalType": "address",
          "name": "createdToken",
          "type": "address"
        }
      ],
      "name": "CreatedToken",
      "type": "event"
    },
    {
      "anonymous": false,
      "inputs": [
        {
          "indexed": true,
          "internalType": "uint256",
          "name": "requestId",
          "type": "uint256"
        },
        {
          "indexed": true,
          "internalType": "address",
          "name": "owner",
          "type": "address"
        },
        {
          "indexed": true,
          "internalType": "uint256",
          "name": "previousRequestedAssets",
          "type": "uint256"
        },
        {
          "indexed": false,
          "internalType": "uint256",
          "name": "newRequestedAssets",
          "type": "uint256"
        }
      ],
      "name": "DecreaseDepositRequest",
      "type": "event"
    },
    {
      "anonymous": false,
      "inputs": [
        {
          "indexed": true,
          "internalType": "address",
          "name": "controller",
          "type": "address"
        },
        {
          "indexed": true,
          "internalType": "address",
          "name": "owner",
          "type": "address"
        },
        {
          "indexed": true,
          "internalType": "uint256",
          "name": "requestId",
          "type": "uint256"
        },
        {
          "indexed": false,
          "internalType": "address",
          "name": "sender",
          "type": "address"
        },
        {
          "indexed": false,
          "internalType": "uint256",
          "name": "assets",
          "type": "uint256"
        }
      ],
      "name": "DepositRequested",
      "type": "event"
    },
    {
      "anonymous": false,
      "inputs": [
        {
          "components": [
            {
              "internalType": "address",
              "name": "receiver",
              "type": "address"
            },
            {
              "internalType": "address",
              "name": "token",
              "type": "address"
            },
            {
              "internalType": "uint256",
              "name": "feePercentage",
              "type": "uint256"
            }
          ],
          "indexed": false,
          "internalType": "struct FeeConfiguration.FeeConfig",
          "name": "feeConfig",
          "type": "tuple"
        }
      ],
      "name": "FeeConfigUpdated",
      "type": "event"
    },
    {
      "anonymous": false,
      "inputs": [
        {
          "indexed": true,
          "internalType": "address",
          "name": "previousOwner",
          "type": "address"
        },
        {
          "indexed": true,
          "internalType": "address",
          "name": "newOwner",
          "type": "address"
        }
      ],
      "name": "OwnershipTransferred",
      "type": "event"
    },
    {
      "anonymous": false,
      "inputs": [
        {
          "indexed": true,
          "internalType": "address",
          "name": "controller",
          "type": "address"
        },
        {
          "indexed": true,
          "internalType": "address",
          "name": "owner",
          "type": "address"
        },
        {
          "indexed": true,
          "internalType": "uint256",
          "name": "requestId",
          "type": "uint256"
        },
        {
          "indexed": false,
          "internalType": "address",
          "name": "sender",
          "type": "address"
        },
        {
          "indexed": false,
          "internalType": "uint256",
          "name": "shares",
          "type": "uint256"
        }
      ],
      "name": "RedeemRequested",
      "type": "event"
    },
    {
      "anonymous": false,
      "inputs": [
        {
          "indexed": true,
          "internalType": "address",
          "name": "rewardToken",
          "type": "address"
        },
        {
          "indexed": false,
          "internalType": "uint256",
          "name": "amount",
          "type": "uint256"
        }
      ],
      "name": "RewardAdded",
      "type": "event"
    },
    {
      "anonymous": false,
      "inputs": [
        {
          "indexed": true,
          "internalType": "bytes32",
          "name": "role",
          "type": "bytes32"
        },
        {
          "indexed": true,
          "internalType": "bytes32",
          "name": "previousAdminRole",
          "type": "bytes32"
        },
        {
          "indexed": true,
          "internalType": "bytes32",
          "name": "newAdminRole",
          "type": "bytes32"
        }
      ],
      "name": "RoleAdminChanged",
      "type": "event"
    },
    {
      "anonymous": false,
      "inputs": [
        {
          "indexed": true,
          "internalType": "bytes32",
          "name": "role",
          "type": "bytes32"
        },
        {
          "indexed": true,
          "internalType": "address",
          "name": "account",
          "type": "address"
        },
        {
          "indexed": true,
          "internalType": "address",
          "name": "sender",
          "type": "address"
        }
      ],
      "name": "RoleGranted",
      "type": "event"
    },
    {
      "anonymous": false,
      "inputs": [
        {
          "indexed": true,
          "internalType": "bytes32",
          "name": "role",
          "type": "bytes32"
        },
        {
          "indexed": true,
          "internalType": "address",
          "name": "account",
          "type": "address"
        },
        {
          "indexed": true,
          "internalType": "address",
          "name": "sender",
          "type": "address"
        }
      ],
      "name": "RoleRevoked",
      "type": "event"
    },
    {
      "anonymous": false,
      "inputs": [
        {
          "indexed": true,
          "internalType": "address",
          "name": "from",
          "type": "address"
        },
        {
          "indexed": true,
          "internalType": "address",
          "name": "to",
          "type": "address"
        },
        {
          "indexed": false,
          "internalType": "uint256",
          "name": "amount",
          "type": "uint256"
        }
      ],
      "name": "Transfer",
      "type": "event"
    },
    {
      "inputs": [],
      "name": "DEFAULT_ADMIN_ROLE",
      "outputs": [
        {
          "internalType": "bytes32",
          "name": "",
          "type": "bytes32"
        }
      ],
      "stateMutability": "view",
      "type": "function"
    },
    {
      "inputs": [],
      "name": "DOMAIN_SEPARATOR",
      "outputs": [
        {
          "internalType": "bytes32",
          "name": "",
          "type": "bytes32"
        }
      ],
      "stateMutability": "view",
      "type": "function"
    },
    {
      "inputs": [],
      "name": "FEE_CONFIG_CONTROLLER_ROLE",
      "outputs": [
        {
          "internalType": "bytes32",
          "name": "",
          "type": "bytes32"
        }
      ],
      "stateMutability": "view",
      "type": "function"
    },
    {
      "inputs": [],
      "name": "VAULT_REWARD_CONTROLLER_ROLE",
      "outputs": [
        {
          "internalType": "bytes32",
          "name": "",
          "type": "bytes32"
        }
      ],
      "stateMutability": "view",
      "type": "function"
    },
    {
      "inputs": [
        {
          "internalType": "address",
          "name": "_token",
          "type": "address"
        },
        {
          "internalType": "uint256",
          "name": "_amount",
          "type": "uint256"
        }
      ],
      "name": "addReward",
      "outputs": [],
      "stateMutability": "payable",
      "type": "function"
    },
    {
      "inputs": [
        {
          "internalType": "address",
          "name": "",
          "type": "address"
        },
        {
          "internalType": "address",
          "name": "",
          "type": "address"
        }
      ],
      "name": "allowance",
      "outputs": [
        {
          "internalType": "uint256",
          "name": "",
          "type": "uint256"
        }
      ],
      "stateMutability": "view",
      "type": "function"
    },
    {
      "inputs": [
        {
          "internalType": "address",
          "name": "spender",
          "type": "address"
        },
        {
          "internalType": "uint256",
          "name": "amount",
          "type": "uint256"
        }
      ],
      "name": "approve",
      "outputs": [
        {
          "internalType": "bool",
          "name": "",
          "type": "bool"
        }
      ],
      "stateMutability": "nonpayable",
      "type": "function"
    },
    {
      "inputs": [],
      "name": "asset",
      "outputs": [
        {
          "internalType": "contract ERC20",
          "name": "",
          "type": "address"
        }
      ],
      "stateMutability": "view",
      "type": "function"
    },
    {
      "inputs": [],
      "name": "assetTotalSupply",
      "outputs": [
        {
          "internalType": "uint256",
          "name": "",
          "type": "uint256"
        }
      ],
      "stateMutability": "view",
      "type": "function"
    },
    {
      "inputs": [
        {
          "internalType": "address",
          "name": "",
          "type": "address"
        }
      ],
      "name": "balanceOf",
      "outputs": [
        {
          "internalType": "uint256",
          "name": "",
          "type": "uint256"
        }
      ],
      "stateMutability": "view",
      "type": "function"
    },
    {
      "inputs": [
        {
          "internalType": "uint256",
          "name": "_startPosition",
          "type": "uint256"
        }
      ],
      "name": "claimAllReward",
      "outputs": [
        {
          "internalType": "uint256",
          "name": "",
          "type": "uint256"
        },
        {
          "internalType": "uint256",
          "name": "",
          "type": "uint256"
        }
      ],
      "stateMutability": "payable",
      "type": "function"
    },
    {
      "inputs": [
        {
          "internalType": "address",
          "name": "receiver",
          "type": "address"
        },
        {
          "internalType": "uint256",
          "name": "requestId",
          "type": "uint256"
        }
      ],
      "name": "claimDeposit",
      "outputs": [
        {
          "internalType": "uint256",
          "name": "shares",
          "type": "uint256"
        }
      ],
      "stateMutability": "nonpayable",
      "type": "function"
    },
    {
      "inputs": [
        {
          "internalType": "address",
          "name": "receiver",
          "type": "address"
        },
        {
          "internalType": "uint256",
          "name": "requestId",
          "type": "uint256"
        }
      ],
      "name": "claimRedeem",
      "outputs": [
        {
          "internalType": "uint256",
          "name": "assets",
          "type": "uint256"
        }
      ],
      "stateMutability": "nonpayable",
      "type": "function"
    },
    {
      "inputs": [
        {
          "internalType": "address",
          "name": "",
          "type": "address"
        }
      ],
      "name": "claimableDepositBalance",
      "outputs": [
        {
          "internalType": "uint256",
          "name": "",
          "type": "uint256"
        }
      ],
      "stateMutability": "view",
      "type": "function"
    },
    {
      "inputs": [],
      "name": "decimals",
      "outputs": [
        {
          "internalType": "uint8",
          "name": "",
          "type": "uint8"
        }
      ],
      "stateMutability": "view",
      "type": "function"
    },
    {
      "inputs": [
        {
          "internalType": "uint256",
          "name": "assets",
          "type": "uint256"
        },
        {
          "internalType": "uint256",
          "name": "requestId",
          "type": "uint256"
        }
      ],
      "name": "decreaseDepositRequest",
      "outputs": [],
      "stateMutability": "nonpayable",
      "type": "function"
    },
    {
      "inputs": [
        {
          "internalType": "address",
          "name": "",
          "type": "address"
        },
        {
          "internalType": "uint256",
          "name": "requestId",
          "type": "uint256"
        }
      ],
      "name": "deposits",
      "outputs": [
        {
          "internalType": "uint256",
          "name": "",
          "type": "uint256"
        }
      ],
      "stateMutability": "view",
      "type": "function"
    },
    {
      "inputs": [],
      "name": "feeConfig",
      "outputs": [
        {
          "internalType": "address",
          "name": "receiver",
          "type": "address"
        },
        {
          "internalType": "address",
          "name": "token",
          "type": "address"
        },
        {
          "internalType": "uint256",
          "name": "feePercentage",
          "type": "uint256"
        }
      ],
      "stateMutability": "view",
      "type": "function"
    },
    {
      "inputs": [],
      "name": "getRewardTokens",
      "outputs": [
        {
          "internalType": "address[]",
          "name": "",
          "type": "address[]"
        }
      ],
      "stateMutability": "view",
      "type": "function"
    },
    {
      "inputs": [
        {
          "internalType": "bytes32",
          "name": "role",
          "type": "bytes32"
        }
      ],
      "name": "getRoleAdmin",
      "outputs": [
        {
          "internalType": "bytes32",
          "name": "",
          "type": "bytes32"
        }
      ],
      "stateMutability": "view",
      "type": "function"
    },
    {
      "inputs": [
        {
          "internalType": "address",
          "name": "_user",
          "type": "address"
        },
        {
          "internalType": "address",
          "name": "_rewardToken",
          "type": "address"
        }
      ],
      "name": "getUserReward",
      "outputs": [
        {
          "internalType": "uint256",
          "name": "unclaimedAmount",
          "type": "uint256"
        }
      ],
      "stateMutability": "view",
      "type": "function"
    },
    {
      "inputs": [
        {
          "internalType": "bytes32",
          "name": "role",
          "type": "bytes32"
        },
        {
          "internalType": "address",
          "name": "account",
          "type": "address"
        }
      ],
      "name": "grantRole",
      "outputs": [],
      "stateMutability": "nonpayable",
      "type": "function"
    },
    {
      "inputs": [
        {
          "internalType": "bytes32",
          "name": "role",
          "type": "bytes32"
        },
        {
          "internalType": "address",
          "name": "account",
          "type": "address"
        }
      ],
      "name": "hasRole",
      "outputs": [
        {
          "internalType": "bool",
          "name": "",
          "type": "bool"
        }
      ],
      "stateMutability": "view",
      "type": "function"
    },
    {
      "inputs": [
        {
          "internalType": "address",
          "name": "",
          "type": "address"
        }
      ],
      "name": "maxDepositRequest",
      "outputs": [
        {
          "internalType": "uint256",
          "name": "",
          "type": "uint256"
        }
      ],
      "stateMutability": "pure",
      "type": "function"
    },
    {
      "inputs": [
        {
          "internalType": "address",
          "name": "owner",
          "type": "address"
        }
      ],
      "name": "maxRedeemRequest",
      "outputs": [
        {
          "internalType": "uint256",
          "name": "",
          "type": "uint256"
        }
      ],
      "stateMutability": "view",
      "type": "function"
    },
    {
      "inputs": [],
      "name": "name",
      "outputs": [
        {
          "internalType": "string",
          "name": "",
          "type": "string"
        }
      ],
      "stateMutability": "view",
      "type": "function"
    },
    {
      "inputs": [],
      "name": "nextDepositRequestId",
      "outputs": [
        {
          "internalType": "uint256",
          "name": "",
          "type": "uint256"
        }
      ],
      "stateMutability": "view",
      "type": "function"
    },
    {
      "inputs": [],
      "name": "nextRedeemRequestId",
      "outputs": [
        {
          "internalType": "uint256",
          "name": "",
          "type": "uint256"
        }
      ],
      "stateMutability": "view",
      "type": "function"
    },
    {
      "inputs": [
        {
          "internalType": "address",
          "name": "",
          "type": "address"
        }
      ],
      "name": "nonces",
      "outputs": [
        {
          "internalType": "uint256",
          "name": "",
          "type": "uint256"
        }
      ],
      "stateMutability": "view",
      "type": "function"
    },
    {
      "inputs": [],
      "name": "owner",
      "outputs": [
        {
          "internalType": "address",
          "name": "",
          "type": "address"
        }
      ],
      "stateMutability": "view",
      "type": "function"
    },
    {
      "inputs": [
        {
          "internalType": "address",
          "name": "",
          "type": "address"
        }
      ],
      "name": "pendingDepositBalance",
      "outputs": [
        {
          "internalType": "uint256",
          "name": "",
          "type": "uint256"
        }
      ],
      "stateMutability": "view",
      "type": "function"
    },
    {
      "inputs": [
        {
          "internalType": "address",
          "name": "owner",
          "type": "address"
        },
        {
          "internalType": "uint256",
          "name": "requestId",
          "type": "uint256"
        }
      ],
      "name": "pendingDepositRequest",
      "outputs": [
        {
          "internalType": "uint256",
          "name": "assets",
          "type": "uint256"
        }
      ],
      "stateMutability": "view",
      "type": "function"
    },
    {
      "inputs": [
        {
          "internalType": "address",
          "name": "owner",
          "type": "address"
        },
        {
          "internalType": "uint256",
          "name": "requestId",
          "type": "uint256"
        }
      ],
      "name": "pendingRedeemRequest",
      "outputs": [
        {
          "internalType": "uint256",
          "name": "shares",
          "type": "uint256"
        }
      ],
      "stateMutability": "view",
      "type": "function"
    },
    {
      "inputs": [
        {
          "internalType": "address",
          "name": "owner",
          "type": "address"
        },
        {
          "internalType": "address",
          "name": "spender",
          "type": "address"
        },
        {
          "internalType": "uint256",
          "name": "value",
          "type": "uint256"
        },
        {
          "internalType": "uint256",
          "name": "deadline",
          "type": "uint256"
        },
        {
          "internalType": "uint8",
          "name": "v",
          "type": "uint8"
        },
        {
          "internalType": "bytes32",
          "name": "r",
          "type": "bytes32"
        },
        {
          "internalType": "bytes32",
          "name": "s",
          "type": "bytes32"
        }
      ],
      "name": "permit",
      "outputs": [],
      "stateMutability": "nonpayable",
      "type": "function"
    },
    {
      "inputs": [
        {
          "internalType": "address",
          "name": "owner",
          "type": "address"
        },
        {
          "internalType": "uint256",
          "name": "requestId",
          "type": "uint256"
        }
      ],
      "name": "previewClaimDeposit",
      "outputs": [
        {
          "internalType": "uint256",
          "name": "",
          "type": "uint256"
        }
      ],
      "stateMutability": "view",
      "type": "function"
    },
    {
      "inputs": [
        {
          "internalType": "address",
          "name": "owner",
          "type": "address"
        },
        {
          "internalType": "uint256",
          "name": "requestId",
          "type": "uint256"
        }
      ],
      "name": "previewClaimRedeem",
      "outputs": [
        {
          "internalType": "uint256",
          "name": "",
          "type": "uint256"
        }
      ],
      "stateMutability": "view",
      "type": "function"
    },
    {
      "inputs": [
        {
          "internalType": "address",
          "name": "",
          "type": "address"
        },
        {
          "internalType": "uint256",
          "name": "requestId",
          "type": "uint256"
        }
      ],
      "name": "redeems",
      "outputs": [
        {
          "internalType": "uint256",
          "name": "",
          "type": "uint256"
        }
      ],
      "stateMutability": "view",
      "type": "function"
    },
    {
      "inputs": [],
      "name": "renounceOwnership",
      "outputs": [],
      "stateMutability": "nonpayable",
      "type": "function"
    },
    {
      "inputs": [
        {
          "internalType": "bytes32",
          "name": "role",
          "type": "bytes32"
        },
        {
          "internalType": "address",
          "name": "callerConfirmation",
          "type": "address"
        }
      ],
      "name": "renounceRole",
      "outputs": [],
      "stateMutability": "nonpayable",
      "type": "function"
    },
    {
      "inputs": [
        {
          "internalType": "uint256",
          "name": "assets",
          "type": "uint256"
        },
        {
          "internalType": "address",
          "name": "operator",
          "type": "address"
        },
        {
          "internalType": "address",
          "name": "owner",
          "type": "address"
        }
      ],
      "name": "requestDeposit",
      "outputs": [],
      "stateMutability": "nonpayable",
      "type": "function"
    },
    {
      "inputs": [
        {
          "internalType": "uint256",
          "name": "shares",
          "type": "uint256"
        },
        {
          "internalType": "address",
          "name": "operator",
          "type": "address"
        },
        {
          "internalType": "address",
          "name": "owner",
          "type": "address"
        }
      ],
      "name": "requestRedeem",
      "outputs": [],
      "stateMutability": "nonpayable",
      "type": "function"
    },
    {
      "inputs": [
        {
          "internalType": "bytes32",
          "name": "role",
          "type": "bytes32"
        },
        {
          "internalType": "address",
          "name": "account",
          "type": "address"
        }
      ],
      "name": "revokeRole",
      "outputs": [],
      "stateMutability": "nonpayable",
      "type": "function"
    },
    {
      "inputs": [
        {
          "internalType": "uint256",
          "name": "",
          "type": "uint256"
        }
      ],
      "name": "rewardTokens",
      "outputs": [
        {
          "internalType": "address",
          "name": "",
          "type": "address"
        }
      ],
      "stateMutability": "view",
      "type": "function"
    },
    {
      "inputs": [],
      "name": "share",
      "outputs": [
        {
          "internalType": "address",
          "name": "",
          "type": "address"
        }
      ],
      "stateMutability": "view",
      "type": "function"
    },
    {
      "inputs": [
        {
          "internalType": "bytes4",
          "name": "interfaceId",
          "type": "bytes4"
        }
      ],
      "name": "supportsInterface",
      "outputs": [
        {
          "internalType": "bool",
          "name": "",
          "type": "bool"
        }
      ],
      "stateMutability": "view",
      "type": "function"
    },
    {
      "inputs": [],
      "name": "symbol",
      "outputs": [
        {
          "internalType": "string",
          "name": "",
          "type": "string"
        }
      ],
      "stateMutability": "view",
      "type": "function"
    },
    {
      "inputs": [
        {
          "internalType": "address",
          "name": "",
          "type": "address"
        }
      ],
      "name": "tokensRewardInfo",
      "outputs": [
        {
          "internalType": "uint256",
          "name": "amount",
          "type": "uint256"
        },
        {
          "internalType": "bool",
          "name": "exist",
          "type": "bool"
        }
      ],
      "stateMutability": "view",
      "type": "function"
    },
    {
      "inputs": [],
      "name": "totalAssets",
      "outputs": [
        {
          "internalType": "uint256",
          "name": "",
          "type": "uint256"
        }
      ],
      "stateMutability": "view",
      "type": "function"
    },
    {
      "inputs": [],
      "name": "totalSupply",
      "outputs": [
        {
          "internalType": "uint256",
          "name": "",
          "type": "uint256"
        }
      ],
      "stateMutability": "view",
      "type": "function"
    },
    {
      "inputs": [
        {
          "internalType": "address",
          "name": "to",
          "type": "address"
        },
        {
          "internalType": "uint256",
          "name": "amount",
          "type": "uint256"
        }
      ],
      "name": "transfer",
      "outputs": [
        {
          "internalType": "bool",
          "name": "",
          "type": "bool"
        }
      ],
      "stateMutability": "nonpayable",
      "type": "function"
    },
    {
      "inputs": [
        {
          "internalType": "address",
          "name": "from",
          "type": "address"
        },
        {
          "internalType": "address",
          "name": "to",
          "type": "address"
        },
        {
          "internalType": "uint256",
          "name": "amount",
          "type": "uint256"
        }
      ],
      "name": "transferFrom",
      "outputs": [
        {
          "internalType": "bool",
          "name": "",
          "type": "bool"
        }
      ],
      "stateMutability": "nonpayable",
      "type": "function"
    },
    {
      "inputs": [
        {
          "internalType": "address",
          "name": "newOwner",
          "type": "address"
        }
      ],
      "name": "transferOwnership",
      "outputs": [],
      "stateMutability": "nonpayable",
      "type": "function"
    },
    {
      "inputs": [
        {
          "components": [
            {
              "internalType": "address",
              "name": "receiver",
              "type": "address"
            },
            {
              "internalType": "address",
              "name": "token",
              "type": "address"
            },
            {
              "internalType": "uint256",
              "name": "feePercentage",
              "type": "uint256"
            }
          ],
          "internalType": "struct FeeConfiguration.FeeConfig",
          "name": "_feeConfig",
          "type": "tuple"
        }
      ],
      "name": "updateFeeConfig",
      "outputs": [],
      "stateMutability": "nonpayable",
      "type": "function"
    },
    {
      "inputs": [
        {
          "internalType": "address",
          "name": "",
          "type": "address"
        }
      ],
      "name": "userContribution",
      "outputs": [
        {
          "internalType": "uint256",
          "name": "sharesAmount",
          "type": "uint256"
        },
        {
          "internalType": "bool",
          "name": "exist",
          "type": "bool"
        }
      ],
      "stateMutability": "view",
      "type": "function"
    }
  ],
  "bytecode": "0x6101006040526040516200433138038062004331833981016040819052620000279162000b14565b338585886001600160a01b031663313ce5676040518163ffffffff1660e01b8152600401602060405180830381865afa15801562000069573d6000803e3d6000fd5b505050506040513d601f19601f820116820180604052508101906200008f919062000c0d565b60006200009d848262000cca565b506001620000ac838262000cca565b5060ff81166080524660a052620000c262000146565b60c05250506001600a55506001600160a01b038116620000fd57604051631e4fbdf760e01b8152600060048201526024015b60405180910390fd5b6200010881620001e2565b506200011683838362000234565b6001600160a01b03861660e052600160158190556016556200013a858588620002ba565b505050505050620010e1565b60007f8b73c3c69bb8fe3d512ecc4cf759cc79239f7b179b0ffacaa9a75d522b39400f60006040516200017a919062000d96565b6040805191829003822060208301939093528101919091527fc89efdaa54c0f20c7adf612882df0950f5a951637e0307cdcb4c672f298b8bc660608201524660808201523060a082015260c00160405160208183030381529060405280519060200120905090565b600b80546001600160a01b038381166001600160a01b0319831681179093556040519116919082907f8be0079c531659141344cd1fd0a4f28419497f9722a3daafe3b4186f6b6457e090600090a35050565b8251602084015160408501516200024d9291906200055d565b6200025a6000336200061d565b50620002877f477fc23fb51bb5d5aa814872a393b0e4f35d0916c7503c0fd96584681070d410836200061d565b50620002b47f74e458455daa935f28c556b43e0cc4ad001a8a090f5feee376681e97d4618f46826200061d565b50505050565b620002c68130620006d0565b6040805160a08082018352600080835260208084018290526060848601819052808501819052306080808701829052875195860188528486528584018590528588018390528583018390528501528551600280825291810190965260109560019594939290919082015b6200033a62000993565b81526020019060019003908162000330579050509050604051806040016040528086815260200184815250816000815181106200037b576200037b62000e14565b602002602001018190525060405180604001604052808581526020018381525081600181518110620003b157620003b162000e14565b6020026020010181905250620003f66040518060600160405280600063ffffffff16815260200160006001600160a01b03168152602001600063ffffffff1681525090565b306020820152627a120060408201526200046c60408051610120810182526060808252602080830182905260008385018190528284018390526080840181905260a0840181905260c0840181905260e0840183905284519283018552808352908201819052928101929092529061010082015290565b89815260208082018a905230604080840191909152610100830184905260e08301859052805163313ce56760e01b81529051620005099284926000926001600160a01b038e169263313ce56792600480820193918290030181865afa158015620004da573d6000803e3d6000fd5b505050506040513d601f19601f8201168201806040525081019062000500919062000c0d565b60ff16620007ff565b600c80546001600160a01b0319166001600160a01b039290921691821790556040517f7bb17726df1f3adee8aa00ba8e8bc5d6f182af3bbf77604639cb7f008dd3b4ed90600090a250505050505050505050565b6127108110620005a25760405162461bcd60e51b815260206004820152600f60248201526e46433a20496e76616c69642066656560881b6044820152606401620000f4565b600780546001600160a01b038581166001600160a01b0319928316811790935560088054918616919092168117909155600983905560408051928352602083019190915281018290527febd34b2df88ea5c9f67c04b13b08e5e63c2d17e269aab73b866fe47a8736a2649060600160405180910390a1505050565b60008281526006602090815260408083206001600160a01b038516845290915281205460ff16620006c65760008381526006602090815260408083206001600160a01b03861684529091529020805460ff191660011790556200067d3390565b6001600160a01b0316826001600160a01b0316847f2f8788117e7eff1d82e926ec794901d17c78024a50270940304540a733656f0d60405160405180910390a4506001620006ca565b5060005b92915050565b604080516001600160a01b038381166024830152841660448083019190915282518083039091018152606490910182526020810180516001600160e01b031663248a35ef60e11b1790529051600091829182916101679162000733919062000e2a565b6000604051808303816000865af19150503d806000811462000772576040519150601f19603f3d011682016040523d82523d6000602084013e62000777565b606091505b5091509150816200078a576015620007a0565b80806020019051810190620007a0919062000e5b565b9250600383900b601614620007f85760405162461bcd60e51b815260206004820152601f60248201527f536166652073696e676c65206173736f63696174696f6e206661696c656421006044820152606401620000f4565b5050505050565b61010083015151600090849063ffffffff161580156200082c57506101008101516040015163ffffffff16155b1562000843576101008101516276a7006040909101525b60008060006101676001600160a01b031634637812a04b60e01b8a8a8a604051602401620008749392919062000f78565b60408051601f198184030181529181526020820180516001600160e01b03166001600160e01b0319909416939093179092529051620008b4919062000e2a565b60006040518083038185875af1925050503d8060008114620008f3576040519150601f19603f3d011682016040523d82523d6000602084013e620008f8565b606091505b5091509150816200090d576015600062000923565b80806020019051810190620009239190620010a5565b95509250600383900b601614620009885760405162461bcd60e51b815260206004820152602260248201527f53616665206372656174652066756e6769626c6520746f6b656e206661696c65604482015261642160f01b6064820152608401620000f4565b505050509392505050565b604051806040016040528060008152602001620009ec6040518060a0016040528060001515815260200160006001600160a01b03168152602001606081526020016060815260200160006001600160a01b031681525090565b905290565b6001600160a01b038116811462000a0757600080fd5b50565b634e487b7160e01b600052604160045260246000fd5b604051606081016001600160401b038111828210171562000a455762000a4562000a0a565b60405290565b60005b8381101562000a6857818101518382015260200162000a4e565b50506000910152565b600082601f83011262000a8357600080fd5b81516001600160401b038082111562000aa05762000aa062000a0a565b604051601f8301601f19908116603f0116810190828211818310171562000acb5762000acb62000a0a565b8160405283815286602085880101111562000ae557600080fd5b62000af884602083016020890162000a4b565b9695505050505050565b805162000b0f81620009f1565b919050565b60008060008060008086880361010081121562000b3057600080fd5b875162000b3d81620009f1565b60208901519097506001600160401b038082111562000b5b57600080fd5b62000b698b838c0162000a71565b975060408a015191508082111562000b8057600080fd5b5062000b8f8a828b0162000a71565b9550506060605f198201121562000ba557600080fd5b5062000bb062000a20565b606088015162000bc081620009f1565b8152608088015162000bd281620009f1565b602082015260a08801516040820152925062000bf160c0880162000b02565b915062000c0160e0880162000b02565b90509295509295509295565b60006020828403121562000c2057600080fd5b815160ff8116811462000c3257600080fd5b9392505050565b600181811c9082168062000c4e57607f821691505b60208210810362000c6f57634e487b7160e01b600052602260045260246000fd5b50919050565b601f82111562000cc5576000816000526020600020601f850160051c8101602086101562000ca05750805b601f850160051c820191505b8181101562000cc15782815560010162000cac565b5050505b505050565b81516001600160401b0381111562000ce65762000ce662000a0a565b62000cfe8162000cf7845462000c39565b8462000c75565b602080601f83116001811462000d36576000841562000d1d5750858301515b600019600386901b1c1916600185901b17855562000cc1565b600085815260208120601f198616915b8281101562000d675788860151825594840194600190910190840162000d46565b508582101562000d865787850151600019600388901b60f8161c191681555b5050505050600190811b01905550565b600080835462000da68162000c39565b6001828116801562000dc1576001811462000dd75762000e08565b60ff198416875282151583028701945062000e08565b8760005260208060002060005b8581101562000dff5781548a82015290840190820162000de4565b50505082870194505b50929695505050505050565b634e487b7160e01b600052603260045260246000fd5b6000825162000e3e81846020870162000a4b565b9190910192915050565b8051600381900b811462000b0f57600080fd5b60006020828403121562000e6e57600080fd5b62000c328262000e48565b6000815180845262000e9381602086016020860162000a4b565b601f01601f19169290920160200192915050565b600082825180855260208086019550808260051b84010181860160005b8481101562000f6b57858303601f1901895281518051845284015160408585018190528151151581860152818601516001600160a01b039081166060808801919091529183015160a0608080890182905291939092909162000f2a60e08a018662000e79565b92860151898403603f1901858b015292945062000f48858462000e79565b9501511660c0979097019690965250509884019892509083019060010162000ec4565b5090979650505050505050565b606081526000845161016080606085015262000f996101c085018362000e79565b91506020870151605f198086850301608087015262000fb9848362000e79565b93506040890151915062000fd860a08701836001600160a01b03169052565b60608901519150808685030160c087015262000ff5848362000e79565b9350608089015191506200100d60e087018315159052565b60a08901519150610100620010298188018463ffffffff169052565b60c08a0151151561012088015260e08a01518786038301610140890152925062001054858462000ea7565b9450808a0151925050506200109182860182805163ffffffff90811683526020808301516001600160a01b03169084015260409182015116910152565b505060208301949094525060400152919050565b60008060408385031215620010b957600080fd5b620010c48362000e48565b91506020830151620010d681620009f1565b809150509250929050565b60805160a05160c05160e0516131f36200113e6000396000818161059001528181610b2c01528181610edf0152818161141f0152818161158b01526123e101526000610f9001526000610f60015260006104f501526131f36000f3fe6080604052600436106102d55760003560e01c80637ecebe001161017b578063a9059cbb116100d7578063d6543a5811610085578063d6543a58146109ff578063d6d6817714610a2c578063db6b207414610a64578063dd62ed3e14610a84578063efa6f42514610abc578063f2fde38b14610adc578063fddca04114610afc57600080fd5b8063a9059cbb146108cf578063aa3a0830146108ef578063b4f6d61314610932578063c4f59f9b14610966578063cd9cdfda14610988578063d505accf146109bf578063d547741f146109df57600080fd5b806395ab19241161013457806395ab19241461080557806395d89b41146108255780639930f7c81461083a5780639feb8f5014610867578063a1bfe1ba1461087a578063a217fddf1461089a578063a8d5fd65146108af57600080fd5b80637ecebe001461072c57806385b77f4514610759578063890b1c99146107795780638da5cb5b146107b15780638f12c2f4146107cf57806391d14854146107e557600080fd5b80633528b03411610235578063552bba8c116101e3578063552bba8c1461061f5780635ab764ed1461066257806370a0823114610682578063715018a6146106af5780637a07bf3a146106c45780637bb7bed1146106ec5780637d41c86e1461070c57600080fd5b80633528b034146105295780633644e5151461054957806336568abe1461055e57806338d52e0f1461057e57806340e44a54146105bf5780634715b00f146105df57806353f22867146105ff57600080fd5b806316ad06721161029257806316ad0672146103be57806318160ddd1461040a5780631e5eb1d01461042057806323b872dd14610471578063248a9ca3146104915780632f2ff15d146104c1578063313ce567146104e357600080fd5b806301e1d114146102da57806301ffc9a71461030257806305fb2a511461033257806306fdde0314610366578063095ea7b3146103885780631587a90c146103a8575b600080fd5b3480156102e657600080fd5b506102ef610b12565b6040519081526020015b60405180910390f35b34801561030e57600080fd5b5061032261031d366004612a1a565b610ba7565b60405190151581526020016102f9565b34801561033e57600080fd5b506102ef7f74e458455daa935f28c556b43e0cc4ad001a8a090f5feee376681e97d4618f4681565b34801561037257600080fd5b5061037b610bde565b6040516102f99190612a94565b34801561039457600080fd5b506103226103a3366004612ac3565b610c6c565b3480156103b457600080fd5b506102ef60155481565b3480156103ca57600080fd5b506103f56103d9366004612aed565b6013602052600090815260409020805460029091015460ff1682565b604080519283529015156020830152016102f9565b34801561041657600080fd5b506102ef60025481565b34801561042c57600080fd5b5060075460085460095461044b926001600160a01b0390811692169083565b604080516001600160a01b039485168152939092166020840152908201526060016102f9565b34801561047d57600080fd5b5061032261048c366004612b08565b610cd8565b34801561049d57600080fd5b506102ef6104ac366004612b44565b60009081526006602052604090206001015490565b3480156104cd57600080fd5b506104e16104dc366004612b5d565b610db8565b005b3480156104ef57600080fd5b506105177f000000000000000000000000000000000000000000000000000000000000000081565b60405160ff90911681526020016102f9565b34801561053557600080fd5b506104e1610544366004612b89565b610de3565b34801561055557600080fd5b506102ef610f5c565b34801561056a57600080fd5b506104e1610579366004612b5d565b610fb2565b34801561058a57600080fd5b506105b27f000000000000000000000000000000000000000000000000000000000000000081565b6040516102f99190612bab565b3480156105cb57600080fd5b506102ef6105da366004612ac3565b610fea565b3480156105eb57600080fd5b506102ef6105fa366004612ac3565b61101e565b34801561060b57600080fd5b506102ef61061a366004612aed565b61104b565b34801561062b57600080fd5b506102ef61063a366004612ac3565b6001600160a01b03919091166000908152601160209081526040808320938352929052205490565b34801561066e57600080fd5b506102ef61067d366004612bbf565b611052565b34801561068e57600080fd5b506102ef61069d366004612aed565b60036020526000908152604090205481565b3480156106bb57600080fd5b506104e16110e3565b6106d76106d2366004612b44565b6110f7565b604080519283526020830191909152016102f9565b3480156106f857600080fd5b506105b2610707366004612b44565b611216565b34801561071857600080fd5b506104e1610727366004612be9565b611240565b34801561073857600080fd5b506102ef610747366004612aed565b60056020526000908152604090205481565b34801561076557600080fd5b506104e1610774366004612be9565b611326565b34801561078557600080fd5b506102ef610794366004612ac3565b601260209081526000928352604080842090915290825290205481565b3480156107bd57600080fd5b50600b546001600160a01b03166105b2565b3480156107db57600080fd5b506102ef600d5481565b3480156107f157600080fd5b50610322610800366004612b5d565b611452565b34801561081157600080fd5b506102ef610820366004612ac3565b61147d565b34801561083157600080fd5b5061037b6114b0565b34801561084657600080fd5b506102ef610855366004612aed565b600f6020526000908152604090205481565b6104e1610875366004612ac3565b6114bd565b34801561088657600080fd5b506102ef610895366004612ac3565b6117c5565b3480156108a657600080fd5b506102ef600081565b3480156108bb57600080fd5b50600c546105b2906001600160a01b031681565b3480156108db57600080fd5b506103226108ea366004612ac3565b6117f8565b3480156108fb57600080fd5b506102ef61090a366004612ac3565b6001600160a01b03919091166000908152601260209081526040808320938352929052205490565b34801561093e57600080fd5b506102ef7f477fc23fb51bb5d5aa814872a393b0e4f35d0916c7503c0fd96584681070d41081565b34801561097257600080fd5b5061097b61185e565b6040516102f99190612c25565b34801561099457600080fd5b506103f56109a3366004612aed565b6014602052600090815260409020805460019091015460ff1682565b3480156109cb57600080fd5b506104e16109da366004612c72565b6118c0565b3480156109eb57600080fd5b506104e16109fa366004612b5d565b611afe565b348015610a0b57600080fd5b506102ef610a1a366004612aed565b60106020526000908152604090205481565b348015610a3857600080fd5b506102ef610a47366004612ac3565b601160209081526000928352604080842090915290825290205481565b348015610a7057600080fd5b506102ef610a7f366004612aed565b611b23565b348015610a9057600080fd5b506102ef610a9f366004612bbf565b600460209081526000928352604080842090915290825290205481565b348015610ac857600080fd5b506104e1610ad7366004612d2c565b611b3e565b348015610ae857600080fd5b506104e1610af7366004612aed565b611b83565b348015610b0857600080fd5b506102ef60165481565b6040516370a0823160e01b81526000906001600160a01b037f000000000000000000000000000000000000000000000000000000000000000016906370a0823190610b61903090600401612bab565b602060405180830381865afa158015610b7e573d6000803e3d6000fd5b505050506040513d601f19601f82011682018060405250810190610ba29190612d94565b905090565b60006001600160e01b03198216637965db0b60e01b1480610bd857506301ffc9a760e01b6001600160e01b03198316145b92915050565b60008054610beb90612dad565b80601f0160208091040260200160405190810160405280929190818152602001828054610c1790612dad565b8015610c645780601f10610c3957610100808354040283529160200191610c64565b820191906000526020600020905b815481529060010190602001808311610c4757829003601f168201915b505050505081565b3360008181526004602090815260408083206001600160a01b038716808552925280832085905551919290917f8c5be1e5ebec7d5bd14f71427d1e84f3dd0314c0f7b2291e5b200ac8c7c3b92590610cc79086815260200190565b60405180910390a350600192915050565b6001600160a01b03831660009081526004602090815260408083203384529091528120546000198114610d3457610d0f8382612dfd565b6001600160a01b03861660009081526004602090815260408083203384529091529020555b6001600160a01b03851660009081526003602052604081208054859290610d5c908490612dfd565b90915550506001600160a01b038085166000818152600360205260409081902080548701905551909187169060008051602061319e83398151915290610da59087815260200190565b60405180910390a3506001949350505050565b600082815260066020526040902060010154610dd381611bc1565b610ddd8383611bcb565b50505050565b336000908152601160209081526040808320848452909152902054808311801590610e0d57508215155b610e7e5760405162461bcd60e51b815260206004820152603760248201527f4173796e635661756c743a20496e76616c696420616d6f756e7420746f20646560448201527618dc99585cd9481c995c5d595cdd195908185b5bdd5b9d604a1b60648201526084015b60405180910390fd5b33600090815260116020908152604080832085845290915281208054859290610ea8908490612dfd565b9091555050336000908152600f602052604081208054859290610ecc908490612dfd565b90915550610f0690506001600160a01b037f0000000000000000000000000000000000000000000000000000000000000000163385611c5f565b33600081815260116020908152604080832086845282529182902054915191825283929185917f69fb258dd22920a83a8863be947f39d9987b98b004ff860d24d78967538d5e29910160405180910390a4505050565b60007f00000000000000000000000000000000000000000000000000000000000000004614610f8d57610ba2611cd7565b507f000000000000000000000000000000000000000000000000000000000000000090565b6001600160a01b0381163314610fdb5760405163334bd91960e11b815260040160405180910390fd5b610fe58282611d71565b505050565b6001600160a01b038216600090815260126020908152604080832084845290915281205461101790611dde565b9392505050565b6001600160a01b038216600090815260116020908152604080832084845290915281205461101790611e0c565b5060001990565b6001600160a01b0380821660008181526014602090815260408083208054958816845260138352818420805495855260018101909352908320549294909390928561109d8286612dfd565b90506110ab81600185611e33565b600954909750156110d75760006110c788600760020154611e51565b90506110d38189612dfd565b9750505b50505050505092915050565b6110eb611ed1565b6110f56000611efe565b565b600e5460085460009182916001600160a01b0316845b8281108015611125575061112286600a612e10565b81105b1561120b57600080600e838154811061114057611140612e23565b600091825260208083209091015433835260138252604080842080546001600160a01b03909316808652600191820185528286205460149095529190942054909450611197939261119091612dfd565b9190611e33565b6001600160a01b03821660008181526014602090815260408083205433808552601384528285209585526001909501909252909120559092506111de908290309085611f50565b6001600160a01b038416156111f6576111f682612089565b5050808061120390612e39565b91505061110d565b509394909350915050565b600e818154811061122657600080fd5b6000918252602090912001546001600160a01b0316905081565b826000036112905760405162461bcd60e51b815260206004820181905260248201527f4173796e635661756c743a20496e76616c696420736861726520616d6f756e746044820152606401610e75565b6001600160a01b038216158015906112b057506001600160a01b03811615155b6112cc5760405162461bcd60e51b8152600401610e7590612e52565b6112d581611b23565b8311156113035781836112e783611b23565b60405163f046f30360e01b8152600401610e7593929190612e93565b600c5461131b906001600160a01b0316333086611f50565b610fe5838383612181565b826000036113765760405162461bcd60e51b815260206004820181905260248201527f4173796e635661756c743a20496e76616c696420617373657420616d6f756e746044820152606401610e75565b6001600160a01b0382161580159061139657506001600160a01b03811615155b6113b25760405162461bcd60e51b8152600401610e7590612e52565b336001600160a01b038216146113db576040516303c4f5db60e01b815260040160405180910390fd5b6113e48161104b565b8311156114125781836113f68361104b565b6040516356f1421360e01b8152600401610e7593929190612e93565b6114476001600160a01b037f000000000000000000000000000000000000000000000000000000000000000016333086612205565b610fe583838361228f565b60009182526006602090815260408084206001600160a01b0393909316845291905290205460ff1690565b60006001600160a01b0383166114a55760405162461bcd60e51b8152600401610e7590612eb4565b611017338484612338565b60018054610beb90612dad565b7f477fc23fb51bb5d5aa814872a393b0e4f35d0916c7503c0fd96584681070d4106114e781611bc1565b816000036115375760405162461bcd60e51b815260206004820152601b60248201527f5661756c743a20416d6f756e742063616e2774206265207a65726f00000000006044820152606401610e75565b600d546000036115895760405162461bcd60e51b815260206004820152601a60248201527f5661756c743a204e6f20746f6b656e207374616b6564207965740000000000006044820152606401610e75565b7f00000000000000000000000000000000000000000000000000000000000000006001600160a01b0316836001600160a01b0316141580156115d95750600c546001600160a01b03848116911614155b61163d5760405162461bcd60e51b815260206004820152602f60248201527f5661756c743a2052657761726420616e64205374616b696e6720746f6b656e7360448201526e2063616e6e6f742062652073616d6560881b6064820152608401610e75565b600e54600a0361166057604051637561e0ab60e01b815260040160405180910390fd5b600061168f60025460016116749190612e10565b61167c610b12565b611687906001612e10565b859190611e33565b6001600160a01b038516600090815260146020526040902060018101549192509060ff1661173857600e8054600180820183556000929092527fbb7b4a454dc3493923482f07822329ed19e8244eff582cc204f8554c3620c3fd0180546001600160a01b0319166001600160a01b038816179055818101805460ff1916909117905581815561171e8530612467565b6117336001600160a01b038616333087612205565b61177b565b6001600160a01b03851660009081526014602052604081208054849290611760908490612e10565b9091555061177b90506001600160a01b038616333087612205565b846001600160a01b03167fac24935fd910bc682b5ccb1a07b718cadf8cf2f6d1404c4f3ddc3662dae40e29856040516117b691815260200190565b60405180910390a25050505050565b60006001600160a01b0383166117ed5760405162461bcd60e51b8152600401610e7590612eb4565b611017338484612585565b33600090815260036020526040812080548391908390611819908490612dfd565b90915550506001600160a01b0383166000818152600360205260409081902080548501905551339060008051602061319e83398151915290610cc79086815260200190565b6060600e8054806020026020016040519081016040528092919081815260200182805480156118b657602002820191906000526020600020905b81546001600160a01b03168152600190910190602001808311611898575b5050505050905090565b4284101561190a5760405162461bcd60e51b815260206004820152601760248201527614115493525517d11150511312539157d1561412549151604a1b6044820152606401610e75565b60006001611916610f5c565b6001600160a01b038a811660008181526005602090815260409182902080546001810190915582517f6e71edae12b1b97f4d1f60370fef10105fa2faae0126114a169c64845d6126c98184015280840194909452938d166060840152608083018c905260a083019390935260c08083018b90528151808403909101815260e08301909152805192019190912061190160f01b6101008301526101028201929092526101228101919091526101420160408051601f198184030181528282528051602091820120600084529083018083525260ff871690820152606081018590526080810184905260a0016020604051602081039080840390855afa158015611a22573d6000803e3d6000fd5b5050604051601f1901519150506001600160a01b03811615801590611a585750876001600160a01b0316816001600160a01b0316145b611a955760405162461bcd60e51b815260206004820152600e60248201526d24a72b20a624a22fa9a4a3a722a960911b6044820152606401610e75565b6001600160a01b0390811660009081526004602090815260408083208a8516808552908352928190208990555188815291928a16917f8c5be1e5ebec7d5bd14f71427d1e84f3dd0314c0f7b2291e5b200ac8c7c3b925910160405180910390a350505050505050565b600082815260066020526040902060010154611b1981611bc1565b610ddd8383611d71565b6001600160a01b031660009081526003602052604090205490565b7f74e458455daa935f28c556b43e0cc4ad001a8a090f5feee376681e97d4618f46611b6881611bc1565b611b7f8260000151836020015184604001516126b4565b5050565b611b8b611ed1565b6001600160a01b038116611bb5576000604051631e4fbdf760e01b8152600401610e759190612bab565b611bbe81611efe565b50565b611bbe8133612772565b6000611bd78383611452565b611c575760008381526006602090815260408083206001600160a01b03861684529091529020805460ff19166001179055611c0f3390565b6001600160a01b0316826001600160a01b0316847f2f8788117e7eff1d82e926ec794901d17c78024a50270940304540a733656f0d60405160405180910390a4506001610bd8565b506000610bd8565b600060405163a9059cbb60e01b8152836004820152826024820152602060006044836000895af13d15601f3d1160016000511416171691505080610ddd5760405162461bcd60e51b815260206004820152600f60248201526e1514905394d1915497d19052531151608a1b6044820152606401610e75565b60007f8b73c3c69bb8fe3d512ecc4cf759cc79239f7b179b0ffacaa9a75d522b39400f6000604051611d099190612ef8565b6040805191829003822060208301939093528101919091527fc89efdaa54c0f20c7adf612882df0950f5a951637e0307cdcb4c672f298b8bc660608201524660808201523060a082015260c00160405160208183030381529060405280519060200120905090565b6000611d7d8383611452565b15611c575760008381526006602090815260408083206001600160a01b0386168085529252808320805460ff1916905551339286917ff6391f5c32d9c69d2a47ea670b442974b53935d1edc7fd64eb21e047a839171b9190a4506001610bd8565b6000610bd8611deb610b12565b611df6906001612e10565b600254611e04906001612e10565b849190611e33565b6000610bd86002546001611e209190612e10565b611e28610b12565b611e04906001612e10565b6000826000190484118302158202611e4a57600080fd5b5091020490565b6000612710611e608385612f99565b1015611eba5760405162461bcd60e51b8152602060048201526024808201527f46433a20546f6f20736d616c6c20616d6f756e7420746f20636f6e73696465726044820152632066656560e01b6064820152608401610e75565b612710611ec78385612f99565b6110179190612fb0565b600b546001600160a01b031633146110f5573360405163118cdaa760e01b8152600401610e759190612bab565b600b80546001600160a01b038381166001600160a01b0319831681179093556040519116919082907f8be0079c531659141344cd1fd0a4f28419497f9722a3daafe3b4186f6b6457e090600090a35050565b604080516001600160a01b038681166024830152858116604483015284166064820152600783900b6084808301919091528251808303909101815260a490910182526020810180516001600160e01b031663eca3691760e01b17905290516000918291829161016791611fc39190612fd2565b6000604051808303816000865af19150503d8060008114612000576040519150601f19603f3d011682016040523d82523d6000602084013e612005565b606091505b50915091508161201657601561202a565b8080602001905181019061202a9190613000565b9250600383900b6016146120805760405162461bcd60e51b815260206004820152601b60248201527f5361666520746f6b656e207472616e73666572206661696c65642100000000006044820152606401610e75565b50505050505050565b6008546009546001600160a01b03909116906000906120a9908490611e51565b905080826001600160a01b03166370a08231336040518263ffffffff1660e01b81526004016120d89190612bab565b602060405180830381865afa1580156120f5573d6000803e3d6000fd5b505050506040513d601f19601f820116820180604052508101906121199190612d94565b10156121675760405162461bcd60e51b815260206004820152601e60248201527f46433a20496e73756666696369656e7420746f6b656e2062616c616e636500006044820152606401610e75565b600754610fe590839033906001600160a01b031684611f50565b6001600160a01b03808216600081815260126020908152604080832060158054855292529182902087905554905190928516907f1e7ddf69e1e9242eb5635deb06ffd4691a8962ec488a863a26721288c8898551906121e3903390899061301b565b60405180910390a4601680549060006121fb83612e39565b9190505550505050565b60006040516323b872dd60e01b81528460048201528360248201528260448201526020600060648360008a5af13d15601f3d11600160005114161716915050806122885760405162461bcd60e51b81526020600482015260146024820152731514905394d1915497d19493d357d1905253115160621b6044820152606401610e75565b5050505050565b6001600160a01b038116600081815260116020908152604080832060155484528252808320879055928252600f905290812080548592906122d1908490612e10565b92505081905550601554816001600160a01b0316836001600160a01b03167f1d29486a5e3ec3aeab2168099a5bf0cfa1664052f673812babd91912115380fb338760405161232092919061301b565b60405180910390a4601580549060006121fb83612e39565b6001600160a01b03831660009081526012602090815260408083208484529091528120546123668584610fea565b6001600160a01b0386166000818152601260209081526040808320888452825280832083905592825260139052908120805492945083929091906123ab908490612dfd565b9250508190555081600d60008282546123c49190612dfd565b909155506123d49050308261279d565b6124086001600160a01b037f0000000000000000000000000000000000000000000000000000000000000000168684611c5f565b836001600160a01b0316856001600160a01b0316847f97e51cb7384809a186f5f66727774f4e061708a7133dd467f6eb423ec4ccb8d38585604051612457929190918252602082015260400190565b60405180910390a4509392505050565b604080516001600160a01b038381166024830152841660448083019190915282518083039091018152606490910182526020810180516001600160e01b031663248a35ef60e11b179052905160009182918291610167916124c89190612fd2565b6000604051808303816000865af19150503d8060008114612505576040519150601f19603f3d011682016040523d82523d6000602084013e61250a565b606091505b50915091508161251b57601561252f565b8080602001905181019061252f9190613000565b9250600383900b6016146122885760405162461bcd60e51b815260206004820152601f60248201527f536166652073696e676c65206173736f63696174696f6e206661696c656421006044820152606401610e75565b6001600160a01b03831660009081526011602090815260408083208484529091528120546125b3858461101e565b6001600160a01b0386166000818152601160209081526040808320888452825280832083905592825260109052908120805492945083929091906125f8908490612dfd565b90915550612607905082612806565b600c546040805160008082526020820190925261264b926001600160a01b031691859190612645565b60608152602001906001900390816126305790505b506128d7565b5050600c54612665906001600160a01b0316303385611f50565b836001600160a01b0316856001600160a01b0316847fa58ba2dc206ba708bedff28607ec751812d5b1a8e66b35771034981d56d761398486604051612457929190918252602082015260400190565b61271081106126f75760405162461bcd60e51b815260206004820152600f60248201526e46433a20496e76616c69642066656560881b6044820152606401610e75565b600780546001600160a01b038581166001600160a01b0319928316811790935560088054918616919092168117909155600983905560408051928352602083019190915281018290527febd34b2df88ea5c9f67c04b13b08e5e63c2d17e269aab73b866fe47a8736a2649060600160405180910390a1505050565b61277c8282611452565b611b7f57808260405163e2517d3f60e01b8152600401610e7592919061301b565b6001600160a01b038216600090815260036020526040812080548392906127c5908490612dfd565b90915550506002805482900390556040518181526000906001600160a01b0384169060008051602061319e8339815191529060200160405180910390a35050565b3360009081526013602052604090206002015460ff166128b057600e5460005b8181101561288b576000600e828154811061284357612843612e23565b60009182526020808320909101546001600160a01b03168083526014825260408084205433855260138452818520928552600192830190935290922055919091019050612826565b5050336000908152601360205260409020818155600201805460ff1916600117905550565b33600090815260136020526040812080548392906128cf908490612e10565b909155505050565b6000606060008060006101676001600160a01b031663278e0b8860e01b89898960405160240161290993929190613034565b60408051601f198184030181529181526020820180516001600160e01b03166001600160e01b03199094169390931790925290516129479190612fd2565b6000604051808303816000865af19150503d8060008114612984576040519150601f19603f3d011682016040523d82523d6000602084013e612989565b606091505b5091509150816129ac5760408051600080825260208201909252601591906129c0565b808060200190518101906129c091906130b9565b90965094509250600383900b601614612a0f5760405162461bcd60e51b815260206004820152601160248201527053616665206d696e74206661696c65642160781b6044820152606401610e75565b505050935093915050565b600060208284031215612a2c57600080fd5b81356001600160e01b03198116811461101757600080fd5b60005b83811015612a5f578181015183820152602001612a47565b50506000910152565b60008151808452612a80816020860160208601612a44565b601f01601f19169290920160200192915050565b6020815260006110176020830184612a68565b80356001600160a01b0381168114612abe57600080fd5b919050565b60008060408385031215612ad657600080fd5b612adf83612aa7565b946020939093013593505050565b600060208284031215612aff57600080fd5b61101782612aa7565b600080600060608486031215612b1d57600080fd5b612b2684612aa7565b9250612b3460208501612aa7565b9150604084013590509250925092565b600060208284031215612b5657600080fd5b5035919050565b60008060408385031215612b7057600080fd5b82359150612b8060208401612aa7565b90509250929050565b60008060408385031215612b9c57600080fd5b50508035926020909101359150565b6001600160a01b0391909116815260200190565b60008060408385031215612bd257600080fd5b612bdb83612aa7565b9150612b8060208401612aa7565b600080600060608486031215612bfe57600080fd5b83359250612c0e60208501612aa7565b9150612c1c60408501612aa7565b90509250925092565b6020808252825182820181905260009190848201906040850190845b81811015612c665783516001600160a01b031683529284019291840191600101612c41565b50909695505050505050565b600080600080600080600060e0888a031215612c8d57600080fd5b612c9688612aa7565b9650612ca460208901612aa7565b95506040880135945060608801359350608088013560ff81168114612cc857600080fd5b9699959850939692959460a0840135945060c09093013592915050565b634e487b7160e01b600052604160045260246000fd5b604051601f8201601f1916810167ffffffffffffffff81118282101715612d2457612d24612ce5565b604052919050565b600060608284031215612d3e57600080fd5b6040516060810181811067ffffffffffffffff82111715612d6157612d61612ce5565b604052612d6d83612aa7565b8152612d7b60208401612aa7565b6020820152604083013560408201528091505092915050565b600060208284031215612da657600080fd5b5051919050565b600181811c90821680612dc157607f821691505b602082108103612de157634e487b7160e01b600052602260045260246000fd5b50919050565b634e487b7160e01b600052601160045260246000fd5b81810381811115610bd857610bd8612de7565b80820180821115610bd857610bd8612de7565b634e487b7160e01b600052603260045260246000fd5b600060018201612e4b57612e4b612de7565b5060010190565b60208082526021908201527f4173796e635661756c743a20496e76616c6964206f776e6572206164647265736040820152607360f81b606082015260800190565b6001600160a01b039390931683526020830191909152604082015260600190565b60208082526024908201527f4173796e635661756c743a20496e76616c6964207265636569766572206164646040820152637265737360e01b606082015260800190565b60008083548160018260011c91506001831680612f1657607f831692505b60208084108203612f3557634e487b7160e01b86526022600452602486fd5b818015612f495760018114612f5e57612f8b565b60ff1986168952841515850289019650612f8b565b60008a81526020902060005b86811015612f835781548b820152908501908301612f6a565b505084890196505b509498975050505050505050565b8082028115828204841417610bd857610bd8612de7565b600082612fcd57634e487b7160e01b600052601260045260246000fd5b500490565b60008251612fe4818460208701612a44565b9190910192915050565b8051600381900b8114612abe57600080fd5b60006020828403121561301257600080fd5b61101782612fee565b6001600160a01b03929092168252602082015260400190565b60006060820160018060a01b0386168352602067ffffffffffffffff861660208501526060604085015281855180845260808601915060808160051b87010193506020870160005b828110156130aa57607f19888703018452613098868351612a68565b9550928401929084019060010161307c565b50939998505050505050505050565b6000806000606084860312156130ce57600080fd5b6130d784612fee565b925060208085015167ffffffffffffffff80821682146130f657600080fd5b60408701519194508082111561310b57600080fd5b818701915087601f83011261311f57600080fd5b81518181111561313157613131612ce5565b8060051b9150613142848301612cfb565b818152918301840191848101908a84111561315c57600080fd5b938501935b8385101561318d57845192508260070b831461317d5760008081fd5b8282529385019390850190613161565b809650505050505050925092509256feddf252ad1be2c89b69c2b068fc378daa952ba7f163c4a11628f55a4df523b3efa2646970667358221220ea9fcbedc8102967aa2b1033808f0739ce022a2c9b3de3faecf2b682ddcf28bb64736f6c63430008180033",
  "linkReferences": {},
  "deployedLinkReferences": {}
}