{
  "_format": "hh-sol-artifact-1",
  "contractName": "AsyncVault",
  "sourceName": "contracts/erc7540/AsyncVault.sol",
  "abi": [
    {
      "inputs": [
        {
          "internalType": "contract IERC20",
          "name": "underlying_",
          "type": "address"
        },
        {
          "internalType": "string",
          "name": "name_",
          "type": "string"
        },
        {
          "internalType": "string",
          "name": "symbol_",
          "type": "string"
        },
        {
          "components": [
            {
              "internalType": "address",
              "name": "receiver",
              "type": "address"
            },
            {
              "internalType": "address",
              "name": "token",
              "type": "address"
            },
            {
              "internalType": "uint256",
              "name": "feePercentage",
              "type": "uint256"
            }
          ],
          "internalType": "struct FeeConfiguration.FeeConfig",
          "name": "feeConfig_",
          "type": "tuple"
        },
        {
          "internalType": "address",
          "name": "vaultRewardController_",
          "type": "address"
        },
        {
          "internalType": "address",
          "name": "feeConfigController_",
          "type": "address"
        },
        {
          "internalType": "uint32",
          "name": "cliff_",
          "type": "uint32"
        },
        {
          "internalType": "uint32",
          "name": "unlockDuration_",
          "type": "uint32"
        }
      ],
      "stateMutability": "payable",
      "type": "constructor"
    },
    {
      "inputs": [],
      "name": "AccessControlBadConfirmation",
      "type": "error"
    },
    {
      "inputs": [
        {
          "internalType": "address",
          "name": "account",
          "type": "address"
        },
        {
          "internalType": "bytes32",
          "name": "neededRole",
          "type": "bytes32"
        }
      ],
      "name": "AccessControlUnauthorizedAccount",
      "type": "error"
    },
    {
      "inputs": [
        {
          "internalType": "address",
          "name": "target",
          "type": "address"
        }
      ],
      "name": "AddressEmptyCode",
      "type": "error"
    },
    {
      "inputs": [
        {
          "internalType": "address",
          "name": "account",
          "type": "address"
        }
      ],
      "name": "AddressInsufficientBalance",
      "type": "error"
    },
    {
      "inputs": [
        {
          "internalType": "address",
          "name": "spender",
          "type": "address"
        },
        {
          "internalType": "uint256",
          "name": "allowance",
          "type": "uint256"
        },
        {
          "internalType": "uint256",
          "name": "needed",
          "type": "uint256"
        }
      ],
      "name": "ERC20InsufficientAllowance",
      "type": "error"
    },
    {
      "inputs": [
        {
          "internalType": "address",
          "name": "sender",
          "type": "address"
        },
        {
          "internalType": "uint256",
          "name": "balance",
          "type": "uint256"
        },
        {
          "internalType": "uint256",
          "name": "needed",
          "type": "uint256"
        }
      ],
      "name": "ERC20InsufficientBalance",
      "type": "error"
    },
    {
      "inputs": [
        {
          "internalType": "address",
          "name": "approver",
          "type": "address"
        }
      ],
      "name": "ERC20InvalidApprover",
      "type": "error"
    },
    {
      "inputs": [
        {
          "internalType": "address",
          "name": "receiver",
          "type": "address"
        }
      ],
      "name": "ERC20InvalidReceiver",
      "type": "error"
    },
    {
      "inputs": [
        {
          "internalType": "address",
          "name": "sender",
          "type": "address"
        }
      ],
      "name": "ERC20InvalidSender",
      "type": "error"
    },
    {
      "inputs": [
        {
          "internalType": "address",
          "name": "spender",
          "type": "address"
        }
      ],
      "name": "ERC20InvalidSpender",
      "type": "error"
    },
    {
      "inputs": [
        {
          "internalType": "address",
          "name": "receiver",
          "type": "address"
        },
        {
          "internalType": "uint256",
          "name": "assets",
          "type": "uint256"
        },
        {
          "internalType": "uint256",
          "name": "max",
          "type": "uint256"
        }
      ],
      "name": "ERC4626ExceededMaxDeposit",
      "type": "error"
    },
    {
      "inputs": [
        {
          "internalType": "address",
          "name": "receiver",
          "type": "address"
        },
        {
          "internalType": "uint256",
          "name": "shares",
          "type": "uint256"
        },
        {
          "internalType": "uint256",
          "name": "max",
          "type": "uint256"
        }
      ],
      "name": "ERC4626ExceededMaxMint",
      "type": "error"
    },
    {
      "inputs": [
        {
          "internalType": "address",
          "name": "owner",
          "type": "address"
        },
        {
          "internalType": "uint256",
          "name": "shares",
          "type": "uint256"
        },
        {
          "internalType": "uint256",
          "name": "max",
          "type": "uint256"
        }
      ],
      "name": "ERC4626ExceededMaxRedeem",
      "type": "error"
    },
    {
      "inputs": [
        {
          "internalType": "address",
          "name": "owner",
          "type": "address"
        },
        {
          "internalType": "uint256",
          "name": "assets",
          "type": "uint256"
        },
        {
          "internalType": "uint256",
          "name": "max",
          "type": "uint256"
        }
      ],
      "name": "ERC4626ExceededMaxWithdraw",
      "type": "error"
    },
    {
      "inputs": [],
      "name": "FailedInnerCall",
      "type": "error"
    },
    {
      "inputs": [],
      "name": "InvalidController",
      "type": "error"
    },
    {
      "inputs": [],
      "name": "InvalidOperator",
      "type": "error"
    },
    {
      "inputs": [],
      "name": "MathOverflowedMulDiv",
      "type": "error"
    },
    {
      "inputs": [
        {
          "internalType": "address",
          "name": "controller",
          "type": "address"
        },
        {
          "internalType": "uint256",
          "name": "assets",
          "type": "uint256"
        },
        {
          "internalType": "uint256",
          "name": "maxDeposit",
          "type": "uint256"
        }
      ],
      "name": "MaxDepositRequestExceeded",
      "type": "error"
    },
    {
      "inputs": [
        {
          "internalType": "address",
          "name": "controller",
          "type": "address"
        },
        {
          "internalType": "uint256",
          "name": "shares",
          "type": "uint256"
        },
        {
          "internalType": "uint256",
          "name": "maxShares",
          "type": "uint256"
        }
      ],
      "name": "MaxRedeemRequestExceeded",
      "type": "error"
    },
    {
      "inputs": [],
      "name": "MaxRewardTokensAmount",
      "type": "error"
    },
    {
      "inputs": [
        {
          "internalType": "address",
          "name": "owner",
          "type": "address"
        }
      ],
      "name": "OwnableInvalidOwner",
      "type": "error"
    },
    {
      "inputs": [
        {
          "internalType": "address",
          "name": "account",
          "type": "address"
        }
      ],
      "name": "OwnableUnauthorizedAccount",
      "type": "error"
    },
    {
      "inputs": [
        {
          "internalType": "address",
          "name": "token",
          "type": "address"
        }
      ],
      "name": "SafeERC20FailedOperation",
      "type": "error"
    },
    {
      "anonymous": false,
      "inputs": [
        {
          "indexed": true,
          "internalType": "address",
          "name": "owner",
          "type": "address"
        },
        {
          "indexed": true,
          "internalType": "address",
          "name": "spender",
          "type": "address"
        },
        {
          "indexed": false,
          "internalType": "uint256",
          "name": "value",
          "type": "uint256"
        }
      ],
      "name": "Approval",
      "type": "event"
    },
    {
      "anonymous": false,
      "inputs": [
        {
          "indexed": true,
          "internalType": "address",
          "name": "sender",
          "type": "address"
        },
        {
          "indexed": true,
          "internalType": "address",
          "name": "owner",
          "type": "address"
        },
        {
          "indexed": false,
          "internalType": "uint256",
          "name": "assets",
          "type": "uint256"
        },
        {
          "indexed": false,
          "internalType": "uint256",
          "name": "shares",
          "type": "uint256"
        }
      ],
      "name": "Deposit",
      "type": "event"
    },
    {
      "anonymous": false,
      "inputs": [
        {
          "indexed": true,
          "internalType": "address",
          "name": "controller",
          "type": "address"
        },
        {
          "indexed": true,
          "internalType": "address",
          "name": "owner",
          "type": "address"
        },
        {
          "indexed": false,
          "internalType": "address",
          "name": "sender",
          "type": "address"
        },
        {
          "indexed": false,
          "internalType": "uint256",
          "name": "assets",
          "type": "uint256"
        }
      ],
      "name": "DepositRequested",
      "type": "event"
    },
    {
      "anonymous": false,
      "inputs": [
        {
          "components": [
            {
              "internalType": "address",
              "name": "receiver",
              "type": "address"
            },
            {
              "internalType": "address",
              "name": "token",
              "type": "address"
            },
            {
              "internalType": "uint256",
              "name": "feePercentage",
              "type": "uint256"
            }
          ],
          "indexed": false,
          "internalType": "struct FeeConfiguration.FeeConfig",
          "name": "feeConfig",
          "type": "tuple"
        }
      ],
      "name": "FeeConfigUpdated",
      "type": "event"
    },
    {
      "anonymous": false,
      "inputs": [
        {
          "indexed": true,
          "internalType": "address",
          "name": "controller",
          "type": "address"
        },
        {
          "indexed": true,
          "internalType": "address",
          "name": "operator",
          "type": "address"
        },
        {
          "indexed": false,
          "internalType": "bool",
          "name": "approved",
          "type": "bool"
        }
      ],
      "name": "OperatorSet",
      "type": "event"
    },
    {
      "anonymous": false,
      "inputs": [
        {
          "indexed": true,
          "internalType": "address",
          "name": "previousOwner",
          "type": "address"
        },
        {
          "indexed": true,
          "internalType": "address",
          "name": "newOwner",
          "type": "address"
        }
      ],
      "name": "OwnershipTransferred",
      "type": "event"
    },
    {
      "anonymous": false,
      "inputs": [
        {
          "indexed": true,
          "internalType": "address",
          "name": "controller",
          "type": "address"
        },
        {
          "indexed": true,
          "internalType": "address",
          "name": "owner",
          "type": "address"
        },
        {
          "indexed": false,
          "internalType": "address",
          "name": "sender",
          "type": "address"
        },
        {
          "indexed": false,
          "internalType": "uint256",
          "name": "shares",
          "type": "uint256"
        }
      ],
      "name": "RedeemRequested",
      "type": "event"
    },
    {
      "anonymous": false,
      "inputs": [
        {
          "indexed": true,
          "internalType": "address",
          "name": "rewardToken",
          "type": "address"
        },
        {
          "indexed": false,
          "internalType": "uint256",
          "name": "amount",
          "type": "uint256"
        }
      ],
      "name": "RewardAdded",
      "type": "event"
    },
    {
      "anonymous": false,
      "inputs": [
        {
          "indexed": true,
          "internalType": "address",
          "name": "rewardToken",
          "type": "address"
        },
        {
          "indexed": true,
          "internalType": "address",
          "name": "receiver",
          "type": "address"
        },
        {
          "indexed": false,
          "internalType": "uint256",
          "name": "amount",
          "type": "uint256"
        }
      ],
      "name": "RewardClaimed",
      "type": "event"
    },
    {
      "anonymous": false,
      "inputs": [
        {
          "indexed": true,
          "internalType": "bytes32",
          "name": "role",
          "type": "bytes32"
        },
        {
          "indexed": true,
          "internalType": "bytes32",
          "name": "previousAdminRole",
          "type": "bytes32"
        },
        {
          "indexed": true,
          "internalType": "bytes32",
          "name": "newAdminRole",
          "type": "bytes32"
        }
      ],
      "name": "RoleAdminChanged",
      "type": "event"
    },
    {
      "anonymous": false,
      "inputs": [
        {
          "indexed": true,
          "internalType": "bytes32",
          "name": "role",
          "type": "bytes32"
        },
        {
          "indexed": true,
          "internalType": "address",
          "name": "account",
          "type": "address"
        },
        {
          "indexed": true,
          "internalType": "address",
          "name": "sender",
          "type": "address"
        }
      ],
      "name": "RoleGranted",
      "type": "event"
    },
    {
      "anonymous": false,
      "inputs": [
        {
          "indexed": true,
          "internalType": "bytes32",
          "name": "role",
          "type": "bytes32"
        },
        {
          "indexed": true,
          "internalType": "address",
          "name": "account",
          "type": "address"
        },
        {
          "indexed": true,
          "internalType": "address",
          "name": "sender",
          "type": "address"
        }
      ],
      "name": "RoleRevoked",
      "type": "event"
    },
    {
      "anonymous": false,
      "inputs": [
        {
          "indexed": false,
          "internalType": "uint32",
          "name": "time",
          "type": "uint32"
        }
      ],
      "name": "SetSharesLockTime",
      "type": "event"
    },
    {
      "anonymous": false,
      "inputs": [
        {
          "indexed": true,
          "internalType": "address",
          "name": "from",
          "type": "address"
        },
        {
          "indexed": true,
          "internalType": "address",
          "name": "to",
          "type": "address"
        },
        {
          "indexed": false,
          "internalType": "uint256",
          "name": "value",
          "type": "uint256"
        }
      ],
      "name": "Transfer",
      "type": "event"
    },
    {
      "anonymous": false,
      "inputs": [
        {
          "indexed": true,
          "internalType": "address",
          "name": "sender",
          "type": "address"
        },
        {
          "indexed": true,
          "internalType": "address",
          "name": "receiver",
          "type": "address"
        },
        {
          "indexed": true,
          "internalType": "address",
          "name": "owner",
          "type": "address"
        },
        {
          "indexed": false,
          "internalType": "uint256",
          "name": "assets",
          "type": "uint256"
        },
        {
          "indexed": false,
          "internalType": "uint256",
          "name": "shares",
          "type": "uint256"
        }
      ],
      "name": "Withdraw",
      "type": "event"
    },
    {
      "inputs": [],
      "name": "DEFAULT_ADMIN_ROLE",
      "outputs": [
        {
          "internalType": "bytes32",
          "name": "",
          "type": "bytes32"
        }
      ],
      "stateMutability": "view",
      "type": "function"
    },
    {
      "inputs": [],
      "name": "FEE_CONFIG_CONTROLLER_ROLE",
      "outputs": [
        {
          "internalType": "bytes32",
          "name": "",
          "type": "bytes32"
        }
      ],
      "stateMutability": "view",
      "type": "function"
    },
    {
      "inputs": [],
      "name": "VAULT_REWARD_CONTROLLER_ROLE",
      "outputs": [
        {
          "internalType": "bytes32",
          "name": "",
          "type": "bytes32"
        }
      ],
      "stateMutability": "view",
      "type": "function"
    },
    {
      "inputs": [
        {
          "internalType": "address",
          "name": "_token",
          "type": "address"
        },
        {
          "internalType": "uint256",
          "name": "_amount",
          "type": "uint256"
        }
      ],
      "name": "addReward",
      "outputs": [],
      "stateMutability": "payable",
      "type": "function"
    },
    {
      "inputs": [
        {
          "internalType": "address",
          "name": "owner",
          "type": "address"
        },
        {
          "internalType": "address",
          "name": "spender",
          "type": "address"
        }
      ],
      "name": "allowance",
      "outputs": [
        {
          "internalType": "uint256",
          "name": "",
          "type": "uint256"
        }
      ],
      "stateMutability": "view",
      "type": "function"
    },
    {
      "inputs": [
        {
          "internalType": "address",
          "name": "spender",
          "type": "address"
        },
        {
          "internalType": "uint256",
          "name": "value",
          "type": "uint256"
        }
      ],
      "name": "approve",
      "outputs": [
        {
          "internalType": "bool",
          "name": "",
          "type": "bool"
        }
      ],
      "stateMutability": "nonpayable",
      "type": "function"
    },
    {
      "inputs": [],
      "name": "asset",
      "outputs": [
        {
          "internalType": "address",
          "name": "",
          "type": "address"
        }
      ],
      "stateMutability": "view",
      "type": "function"
    },
    {
      "inputs": [
        {
          "internalType": "address",
          "name": "account",
          "type": "address"
        }
      ],
      "name": "balanceOf",
      "outputs": [
        {
          "internalType": "uint256",
          "name": "",
          "type": "uint256"
        }
      ],
      "stateMutability": "view",
      "type": "function"
    },
    {
      "inputs": [
        {
          "internalType": "uint256",
          "name": "_startPosition",
          "type": "uint256"
        },
        {
          "internalType": "address",
          "name": "_receiver",
          "type": "address"
        }
      ],
      "name": "claimAllReward",
      "outputs": [
        {
          "internalType": "uint256",
          "name": "",
          "type": "uint256"
        },
        {
          "internalType": "uint256",
          "name": "",
          "type": "uint256"
        }
      ],
      "stateMutability": "nonpayable",
      "type": "function"
    },
    {
      "inputs": [
        {
          "internalType": "address",
          "name": "rewardToken",
          "type": "address"
        },
        {
          "internalType": "address",
          "name": "receiver",
          "type": "address"
        },
        {
          "internalType": "uint256",
          "name": "amount",
          "type": "uint256"
        }
      ],
      "name": "claimExactReward",
      "outputs": [],
      "stateMutability": "nonpayable",
      "type": "function"
    },
    {
      "inputs": [
        {
          "internalType": "uint256",
          "name": "shares",
          "type": "uint256"
        }
      ],
      "name": "convertToAssets",
      "outputs": [
        {
          "internalType": "uint256",
          "name": "",
          "type": "uint256"
        }
      ],
      "stateMutability": "view",
      "type": "function"
    },
    {
      "inputs": [
        {
          "internalType": "uint256",
          "name": "assets",
          "type": "uint256"
        }
      ],
      "name": "convertToShares",
      "outputs": [
        {
          "internalType": "uint256",
          "name": "",
          "type": "uint256"
        }
      ],
      "stateMutability": "view",
      "type": "function"
    },
    {
      "inputs": [],
      "name": "decimals",
      "outputs": [
        {
          "internalType": "uint8",
          "name": "",
          "type": "uint8"
        }
      ],
      "stateMutability": "view",
      "type": "function"
    },
    {
      "inputs": [
        {
          "internalType": "uint256",
          "name": "assets",
          "type": "uint256"
        },
        {
          "internalType": "address",
          "name": "to",
          "type": "address"
        },
        {
          "internalType": "address",
          "name": "controller",
          "type": "address"
        }
      ],
      "name": "deposit",
      "outputs": [
        {
          "internalType": "uint256",
          "name": "shares",
          "type": "uint256"
        }
      ],
      "stateMutability": "nonpayable",
      "type": "function"
    },
    {
      "inputs": [
        {
          "internalType": "uint256",
          "name": "assets",
          "type": "uint256"
        },
        {
          "internalType": "address",
          "name": "to",
          "type": "address"
        }
      ],
      "name": "deposit",
      "outputs": [
        {
          "internalType": "uint256",
          "name": "shares",
          "type": "uint256"
        }
      ],
      "stateMutability": "nonpayable",
      "type": "function"
    },
    {
      "inputs": [],
      "name": "feeConfig",
      "outputs": [
        {
          "internalType": "address",
          "name": "receiver",
          "type": "address"
        },
        {
          "internalType": "address",
          "name": "token",
          "type": "address"
        },
        {
          "internalType": "uint256",
          "name": "feePercentage",
          "type": "uint256"
        }
      ],
      "stateMutability": "view",
      "type": "function"
    },
    {
      "inputs": [
        {
          "internalType": "address",
          "name": "_user",
          "type": "address"
        }
      ],
      "name": "getAllRewards",
      "outputs": [
        {
          "internalType": "uint256[]",
          "name": "_rewards",
          "type": "uint256[]"
        }
      ],
      "stateMutability": "view",
      "type": "function"
    },
    {
      "inputs": [],
      "name": "getRewardTokens",
      "outputs": [
        {
          "internalType": "address[]",
          "name": "",
          "type": "address[]"
        }
      ],
      "stateMutability": "view",
      "type": "function"
    },
    {
      "inputs": [
        {
          "internalType": "bytes32",
          "name": "role",
          "type": "bytes32"
        }
      ],
      "name": "getRoleAdmin",
      "outputs": [
        {
          "internalType": "bytes32",
          "name": "",
          "type": "bytes32"
        }
      ],
      "stateMutability": "view",
      "type": "function"
    },
    {
      "inputs": [
        {
          "internalType": "address",
          "name": "_user",
          "type": "address"
        },
        {
          "internalType": "address",
          "name": "_rewardToken",
          "type": "address"
        }
      ],
      "name": "getUserReward",
      "outputs": [
        {
          "internalType": "uint256",
          "name": "unclaimedAmount",
          "type": "uint256"
        }
      ],
      "stateMutability": "view",
      "type": "function"
    },
    {
      "inputs": [
        {
          "internalType": "bytes32",
          "name": "role",
          "type": "bytes32"
        },
        {
          "internalType": "address",
          "name": "account",
          "type": "address"
        }
      ],
      "name": "grantRole",
      "outputs": [],
      "stateMutability": "nonpayable",
      "type": "function"
    },
    {
      "inputs": [
        {
          "internalType": "bytes32",
          "name": "role",
          "type": "bytes32"
        },
        {
          "internalType": "address",
          "name": "account",
          "type": "address"
        }
      ],
      "name": "hasRole",
      "outputs": [
        {
          "internalType": "bool",
          "name": "",
          "type": "bool"
        }
      ],
      "stateMutability": "view",
      "type": "function"
    },
    {
      "inputs": [
        {
          "internalType": "address",
          "name": "account",
          "type": "address"
        }
      ],
      "name": "lockedOf",
      "outputs": [
        {
          "internalType": "uint256",
          "name": "",
          "type": "uint256"
        }
      ],
      "stateMutability": "view",
      "type": "function"
    },
    {
      "inputs": [
        {
          "internalType": "address",
          "name": "owner",
          "type": "address"
        }
      ],
      "name": "maxDeposit",
      "outputs": [
        {
          "internalType": "uint256",
          "name": "",
          "type": "uint256"
        }
      ],
      "stateMutability": "view",
      "type": "function"
    },
    {
      "inputs": [
        {
          "internalType": "address",
          "name": "owner",
          "type": "address"
        }
      ],
      "name": "maxMint",
      "outputs": [
        {
          "internalType": "uint256",
          "name": "shares",
          "type": "uint256"
        }
      ],
      "stateMutability": "view",
      "type": "function"
    },
    {
      "inputs": [
        {
          "internalType": "address",
          "name": "owner",
          "type": "address"
        }
      ],
      "name": "maxRedeem",
      "outputs": [
        {
          "internalType": "uint256",
          "name": "",
          "type": "uint256"
        }
      ],
      "stateMutability": "view",
      "type": "function"
    },
    {
      "inputs": [
        {
          "internalType": "address",
          "name": "owner",
          "type": "address"
        }
      ],
      "name": "maxWithdraw",
      "outputs": [
        {
          "internalType": "uint256",
          "name": "assets",
          "type": "uint256"
        }
      ],
      "stateMutability": "view",
      "type": "function"
    },
    {
      "inputs": [
        {
          "internalType": "uint256",
          "name": "shares",
          "type": "uint256"
        },
        {
          "internalType": "address",
          "name": "to",
          "type": "address"
        }
      ],
      "name": "mint",
      "outputs": [
        {
          "internalType": "uint256",
          "name": "assets",
          "type": "uint256"
        }
      ],
      "stateMutability": "nonpayable",
      "type": "function"
    },
    {
      "inputs": [
        {
          "internalType": "uint256",
          "name": "shares",
          "type": "uint256"
        },
        {
          "internalType": "address",
          "name": "to",
          "type": "address"
        },
        {
          "internalType": "address",
          "name": "controller",
          "type": "address"
        }
      ],
      "name": "mint",
      "outputs": [
        {
          "internalType": "uint256",
          "name": "assets",
          "type": "uint256"
        }
      ],
      "stateMutability": "nonpayable",
      "type": "function"
    },
    {
      "inputs": [],
      "name": "name",
      "outputs": [
        {
          "internalType": "string",
          "name": "",
          "type": "string"
        }
      ],
      "stateMutability": "view",
      "type": "function"
    },
    {
      "inputs": [],
      "name": "owner",
      "outputs": [
        {
          "internalType": "address",
          "name": "",
          "type": "address"
        }
      ],
      "stateMutability": "view",
      "type": "function"
    },
    {
      "inputs": [
        {
          "internalType": "address",
          "name": "owner",
          "type": "address"
        }
      ],
      "name": "pendingDepositRequest",
      "outputs": [
        {
          "internalType": "uint256",
          "name": "assets",
          "type": "uint256"
        }
      ],
      "stateMutability": "view",
      "type": "function"
    },
    {
      "inputs": [
        {
          "internalType": "address",
          "name": "owner",
          "type": "address"
        }
      ],
      "name": "pendingRedeemRequest",
      "outputs": [
        {
          "internalType": "uint256",
          "name": "shares",
          "type": "uint256"
        }
      ],
      "stateMutability": "view",
      "type": "function"
    },
    {
      "inputs": [
        {
          "internalType": "uint256",
          "name": "assets",
          "type": "uint256"
        }
      ],
      "name": "previewDeposit",
      "outputs": [
        {
          "internalType": "uint256",
          "name": "",
          "type": "uint256"
        }
      ],
      "stateMutability": "view",
      "type": "function"
    },
    {
      "inputs": [
        {
          "internalType": "uint256",
          "name": "shares",
          "type": "uint256"
        }
      ],
      "name": "previewMint",
      "outputs": [
        {
          "internalType": "uint256",
          "name": "",
          "type": "uint256"
        }
      ],
      "stateMutability": "view",
      "type": "function"
    },
    {
      "inputs": [
        {
          "internalType": "uint256",
          "name": "shares",
          "type": "uint256"
        }
      ],
      "name": "previewRedeem",
      "outputs": [
        {
          "internalType": "uint256",
          "name": "",
          "type": "uint256"
        }
      ],
      "stateMutability": "view",
      "type": "function"
    },
    {
      "inputs": [
        {
          "internalType": "uint256",
          "name": "assets",
          "type": "uint256"
        }
      ],
      "name": "previewWithdraw",
      "outputs": [
        {
          "internalType": "uint256",
          "name": "",
          "type": "uint256"
        }
      ],
      "stateMutability": "view",
      "type": "function"
    },
    {
      "inputs": [
        {
          "internalType": "uint256",
          "name": "shares",
          "type": "uint256"
        },
        {
          "internalType": "address",
          "name": "receiver",
          "type": "address"
        },
        {
          "internalType": "address",
          "name": "controller",
          "type": "address"
        }
      ],
      "name": "redeem",
      "outputs": [
        {
          "internalType": "uint256",
          "name": "assets",
          "type": "uint256"
        }
      ],
      "stateMutability": "nonpayable",
      "type": "function"
    },
    {
      "inputs": [],
      "name": "renounceOwnership",
      "outputs": [],
      "stateMutability": "nonpayable",
      "type": "function"
    },
    {
      "inputs": [
        {
          "internalType": "bytes32",
          "name": "role",
          "type": "bytes32"
        },
        {
          "internalType": "address",
          "name": "callerConfirmation",
          "type": "address"
        }
      ],
      "name": "renounceRole",
      "outputs": [],
      "stateMutability": "nonpayable",
      "type": "function"
    },
    {
      "inputs": [
        {
          "internalType": "uint256",
          "name": "assets",
          "type": "uint256"
        },
        {
          "internalType": "address",
          "name": "controller",
          "type": "address"
        },
        {
          "internalType": "address",
          "name": "owner",
          "type": "address"
        }
      ],
      "name": "requestDeposit",
      "outputs": [],
      "stateMutability": "nonpayable",
      "type": "function"
    },
    {
      "inputs": [
        {
          "internalType": "uint256",
          "name": "shares",
          "type": "uint256"
        },
        {
          "internalType": "address",
          "name": "controller",
          "type": "address"
        },
        {
          "internalType": "address",
          "name": "owner",
          "type": "address"
        }
      ],
      "name": "requestRedeem",
      "outputs": [],
      "stateMutability": "nonpayable",
      "type": "function"
    },
    {
      "inputs": [
        {
          "internalType": "bytes32",
          "name": "role",
          "type": "bytes32"
        },
        {
          "internalType": "address",
          "name": "account",
          "type": "address"
        }
      ],
      "name": "revokeRole",
      "outputs": [],
      "stateMutability": "nonpayable",
      "type": "function"
    },
    {
      "inputs": [
        {
          "internalType": "address",
          "name": "operator",
          "type": "address"
        },
        {
          "internalType": "bool",
          "name": "approved",
          "type": "bool"
        }
      ],
      "name": "setOperator",
      "outputs": [
        {
          "internalType": "bool",
          "name": "success",
          "type": "bool"
        }
      ],
      "stateMutability": "nonpayable",
      "type": "function"
    },
    {
      "inputs": [
        {
          "internalType": "uint32",
          "name": "time",
          "type": "uint32"
        }
      ],
      "name": "setSharesLockTime",
      "outputs": [],
      "stateMutability": "nonpayable",
      "type": "function"
    },
    {
      "inputs": [
        {
          "internalType": "bytes4",
          "name": "interfaceId",
          "type": "bytes4"
        }
      ],
      "name": "supportsInterface",
      "outputs": [
        {
          "internalType": "bool",
          "name": "",
          "type": "bool"
        }
      ],
      "stateMutability": "view",
      "type": "function"
    },
    {
      "inputs": [],
      "name": "symbol",
      "outputs": [
        {
          "internalType": "string",
          "name": "",
          "type": "string"
        }
      ],
      "stateMutability": "view",
      "type": "function"
    },
    {
      "inputs": [],
      "name": "totalAssets",
      "outputs": [
        {
          "internalType": "uint256",
          "name": "",
          "type": "uint256"
        }
      ],
      "stateMutability": "view",
      "type": "function"
    },
    {
      "inputs": [],
      "name": "totalSupply",
      "outputs": [
        {
          "internalType": "uint256",
          "name": "",
          "type": "uint256"
        }
      ],
      "stateMutability": "view",
      "type": "function"
    },
    {
      "inputs": [
        {
          "internalType": "address",
          "name": "to",
          "type": "address"
        },
        {
          "internalType": "uint256",
          "name": "value",
          "type": "uint256"
        }
      ],
      "name": "transfer",
      "outputs": [
        {
          "internalType": "bool",
          "name": "",
          "type": "bool"
        }
      ],
      "stateMutability": "nonpayable",
      "type": "function"
    },
    {
      "inputs": [
        {
          "internalType": "address",
          "name": "from",
          "type": "address"
        },
        {
          "internalType": "address",
          "name": "to",
          "type": "address"
        },
        {
          "internalType": "uint256",
          "name": "value",
          "type": "uint256"
        }
      ],
      "name": "transferFrom",
      "outputs": [
        {
          "internalType": "bool",
          "name": "",
          "type": "bool"
        }
      ],
      "stateMutability": "nonpayable",
      "type": "function"
    },
    {
      "inputs": [
        {
          "internalType": "address",
          "name": "newOwner",
          "type": "address"
        }
      ],
      "name": "transferOwnership",
      "outputs": [],
      "stateMutability": "nonpayable",
      "type": "function"
    },
    {
      "inputs": [
        {
          "internalType": "address",
          "name": "account",
          "type": "address"
        }
      ],
      "name": "unlockedOf",
      "outputs": [
        {
          "internalType": "uint256",
          "name": "",
          "type": "uint256"
        }
      ],
      "stateMutability": "view",
      "type": "function"
    },
    {
      "inputs": [
        {
          "components": [
            {
              "internalType": "address",
              "name": "receiver",
              "type": "address"
            },
            {
              "internalType": "address",
              "name": "token",
              "type": "address"
            },
            {
              "internalType": "uint256",
              "name": "feePercentage",
              "type": "uint256"
            }
          ],
          "internalType": "struct FeeConfiguration.FeeConfig",
          "name": "_feeConfig",
          "type": "tuple"
        }
      ],
      "name": "updateFeeConfig",
      "outputs": [],
      "stateMutability": "nonpayable",
      "type": "function"
    },
    {
      "inputs": [
        {
          "internalType": "uint256",
          "name": "assets",
          "type": "uint256"
        },
        {
          "internalType": "address",
          "name": "receiver",
          "type": "address"
        },
        {
          "internalType": "address",
          "name": "controller",
          "type": "address"
        }
      ],
      "name": "withdraw",
      "outputs": [
        {
          "internalType": "uint256",
          "name": "shares",
          "type": "uint256"
        }
      ],
      "stateMutability": "nonpayable",
      "type": "function"
    }
  ],
  "bytecode": "0x60c06040526040516200417438038062004174833981016040819052620000269162000596565b3388808989600362000039838262000748565b50600462000048828262000748565b5050506000806200005f836200012e60201b60201c565b91509150816200007157601262000073565b805b60ff1660a05250506001600160a01b0390811660805282169050620000b357604051631e4fbdf760e01b8152600060048201526024015b60405180910390fd5b620000be8162000213565b50620000cc85858562000265565b60007f66edf448d5bf7be6b4d59d8e281e5b0790ba1fdc49329b14b394277e0547430060050180546001600160401b03191664010000000063ffffffff9586160263ffffffff1916179290931691909117909155506200084c95505050505050565b60408051600481526024810182526020810180516001600160e01b031663313ce56760e01b17905290516000918291829182916001600160a01b03871691620001779162000814565b600060405180830381855afa9150503d8060008114620001b4576040519150601f19603f3d011682016040523d82523d6000602084013e620001b9565b606091505b5091509150818015620001ce57506020815110155b156200020657600081806020019051810190620001ec919062000832565b905060ff811162000204576001969095509350505050565b505b5060009485945092505050565b600980546001600160a01b038381166001600160a01b0319831681179093556040519116919082907f8be0079c531659141344cd1fd0a4f28419497f9722a3daafe3b4186f6b6457e090600090a35050565b8251602084015160408501516200027e929190620002eb565b6200028b600033620003ab565b50620002b87f477fc23fb51bb5d5aa814872a393b0e4f35d0916c7503c0fd96584681070d41083620003ab565b50620002e57f74e458455daa935f28c556b43e0cc4ad001a8a090f5feee376681e97d4618f4682620003ab565b50505050565b6127108110620003305760405162461bcd60e51b815260206004820152600f60248201526e46433a20496e76616c69642066656560881b6044820152606401620000aa565b600680546001600160a01b038581166001600160a01b0319928316811790935560078054918616919092168117909155600883905560408051928352602083019190915281018290527febd34b2df88ea5c9f67c04b13b08e5e63c2d17e269aab73b866fe47a8736a2649060600160405180910390a1505050565b60008281526005602090815260408083206001600160a01b038516845290915281205460ff16620004545760008381526005602090815260408083206001600160a01b03861684529091529020805460ff191660011790556200040b3390565b6001600160a01b0316826001600160a01b0316847f2f8788117e7eff1d82e926ec794901d17c78024a50270940304540a733656f0d60405160405180910390a450600162000458565b5060005b92915050565b6001600160a01b03811681146200047457600080fd5b50565b634e487b7160e01b600052604160045260246000fd5b604051606081016001600160401b0381118282101715620004b257620004b262000477565b60405290565b60005b83811015620004d5578181015183820152602001620004bb565b50506000910152565b600082601f830112620004f057600080fd5b81516001600160401b03808211156200050d576200050d62000477565b604051601f8301601f19908116603f0116810190828211818310171562000538576200053862000477565b816040528381528660208588010111156200055257600080fd5b62000565846020830160208901620004b8565b9695505050505050565b80516200057c816200045e565b919050565b805163ffffffff811681146200057c57600080fd5b600080600080600080600080888a03610140811215620005b557600080fd5b8951620005c2816200045e565b60208b01519099506001600160401b0380821115620005e057600080fd5b620005ee8d838e01620004de565b995060408c01519150808211156200060557600080fd5b50620006148c828d01620004de565b9750506060605f19820112156200062a57600080fd5b50620006356200048d565b60608a015162000645816200045e565b815260808a015162000657816200045e565b602082015260a08a0151604082015294506200067660c08a016200056f565b93506200068660e08a016200056f565b9250620006976101008a0162000581565b9150620006a86101208a0162000581565b90509295985092959890939650565b600181811c90821680620006cc57607f821691505b602082108103620006ed57634e487b7160e01b600052602260045260246000fd5b50919050565b601f82111562000743576000816000526020600020601f850160051c810160208610156200071e5750805b601f850160051c820191505b818110156200073f578281556001016200072a565b5050505b505050565b81516001600160401b0381111562000764576200076462000477565b6200077c81620007758454620006b7565b84620006f3565b602080601f831160018114620007b457600084156200079b5750858301515b600019600386901b1c1916600185901b1785556200073f565b600085815260208120601f198616915b82811015620007e557888601518255948401946001909101908401620007c4565b5085821015620008045787850151600019600388901b60f8161c191681555b5050505050600190811b01905550565b6000825162000828818460208701620004b8565b9190910192915050565b6000602082840312156200084557600080fd5b5051919050565b60805160a0516138fb620008796000396000610bf0015260008181610a150152610d1201526138fb6000f3fe6080604052600436106102e05760003560e01c806385b77f4511610186578063c4f59f9b116100d7578063d905777e11610085578063d905777e1461093b578063da39b3e71461095b578063dd62ed3e1461097b578063ef8b30f714610886578063efa6f4251461099b578063f2fde38b146109bb578063fba8619a146109db57600080fd5b8063c4f59f9b14610844578063c63d75b614610866578063c6e6f59214610886578063caad546e146108a6578063cd26c0e6146108c6578063ce96cb77146108fb578063d547741f1461091b57600080fd5b8063a5f1e28211610134578063a5f1e28214610750578063a9059cbb14610770578063b3d7f6b914610790578063b460af94146107b0578063b4f6d613146107d0578063ba08765214610804578063c37029891461082457600080fd5b806385b77f45146106955780638da5cb5b146106b557806391d14854146106d357806394bf804d146106f357806395d89b41146107135780639feb8f5014610728578063a217fddf1461073b57600080fd5b8063313ce56711610240578063558a7297116101ee578063558a7297146105aa5780635ab764ed146105ca5780636e553f65146105ea5780636f26a4361461060a57806370a082311461062a578063715018a6146106605780637d41c86e1461067557600080fd5b8063313ce567146104d4578063362a3fad146104fb57806336568abe1461052857806338d52e0f14610548578063402d267d1461056a5780634cdad5061461039357806353dc1dd31461058a57600080fd5b80630a28a4771161029d5780630a28a477146103d357806318160ddd146103f35780631e5eb1d01461040857806323b872dd14610442578063248a9ca3146104625780632e2d2984146104925780632f2ff15d146104b257600080fd5b806301e1d114146102e557806301ffc9a71461030d57806305fb2a511461033d57806306fdde031461037157806307a2d13a14610393578063095ea7b3146103b3575b600080fd5b3480156102f157600080fd5b506102fa6109fb565b6040519081526020015b60405180910390f35b34801561031957600080fd5b5061032d61032836600461326a565b610a90565b6040519015158152602001610304565b34801561034957600080fd5b506102fa7f74e458455daa935f28c556b43e0cc4ad001a8a090f5feee376681e97d4618f4681565b34801561037d57600080fd5b50610386610abb565b60405161030491906132b8565b34801561039f57600080fd5b506102fa6103ae3660046132eb565b610b4d565b3480156103bf57600080fd5b5061032d6103ce366004613320565b610b5a565b3480156103df57600080fd5b506102fa6103ee3660046132eb565b610b72565b3480156103ff57600080fd5b506002546102fa565b34801561041457600080fd5b50600654600754600854610433926001600160a01b0390811692169083565b6040516103049392919061334a565b34801561044e57600080fd5b5061032d61045d36600461336e565b610b7f565b34801561046e57600080fd5b506102fa61047d3660046132eb565b60009081526005602052604090206001015490565b34801561049e57600080fd5b506102fa6104ad3660046133aa565b610ba5565b3480156104be57600080fd5b506104d26104cd3660046133e6565b610bbd565b005b3480156104e057600080fd5b506104e9610be8565b60405160ff9091168152602001610304565b34801561050757600080fd5b5061051b610516366004613412565b610c14565b604051610304919061342d565b34801561053457600080fd5b506104d26105433660046133e6565b610cd8565b34801561055457600080fd5b5061055d610d10565b6040516103049190613471565b34801561057657600080fd5b506102fa610585366004613412565b610d34565b34801561059657600080fd5b506102fa6105a5366004613412565b610d60565b3480156105b657600080fd5b5061032d6105c5366004613493565b610d8d565b3480156105d657600080fd5b506102fa6105e53660046134ca565b610e38565b3480156105f657600080fd5b506102fa6106053660046133e6565b610f5f565b34801561061657600080fd5b506104d26106253660046134f4565b610f6c565b34801561063657600080fd5b506102fa610645366004613412565b6001600160a01b031660009081526020819052604090205490565b34801561066c57600080fd5b506104d2610fd2565b34801561068157600080fd5b506104d26106903660046133aa565b610fe6565b3480156106a157600080fd5b506104d26106b03660046133aa565b611018565b3480156106c157600080fd5b506009546001600160a01b031661055d565b3480156106df57600080fd5b5061032d6106ee3660046133e6565b611053565b3480156106ff57600080fd5b506102fa61070e3660046133e6565b61107e565b34801561071f57600080fd5b5061038661108b565b6104d2610736366004613320565b61109a565b34801561074757600080fd5b506102fa600081565b34801561075c57600080fd5b506102fa61076b366004613412565b6113c2565b34801561077c57600080fd5b5061032d61078b366004613320565b611411565b34801561079c57600080fd5b506102fa6107ab3660046132eb565b61141f565b3480156107bc57600080fd5b506102fa6107cb3660046133aa565b61142c565b3480156107dc57600080fd5b506102fa7f477fc23fb51bb5d5aa814872a393b0e4f35d0916c7503c0fd96584681070d41081565b34801561081057600080fd5b506102fa61081f3660046133aa565b611441565b34801561083057600080fd5b506102fa61083f366004613412565b61144e565b34801561085057600080fd5b50610859611478565b604051610304919061351a565b34801561087257600080fd5b506102fa610881366004613412565b6114e2565b34801561089257600080fd5b506102fa6108a13660046132eb565b611511565b3480156108b257600080fd5b506102fa6108c1366004613412565b61151e565b3480156108d257600080fd5b506108e66108e13660046133e6565b611529565b60408051928352602083019190915201610304565b34801561090757600080fd5b506102fa610916366004613412565b6116b6565b34801561092757600080fd5b506104d26109363660046133e6565b6116c4565b34801561094757600080fd5b506102fa610956366004613412565b6116e9565b34801561096757600080fd5b506102fa6109763660046133aa565b6116f4565b34801561098757600080fd5b506102fa6109963660046134ca565b61170c565b3480156109a757600080fd5b506104d26109b6366004613571565b611737565b3480156109c757600080fd5b506104d26109d6366004613412565b61177c565b3480156109e757600080fd5b506104d26109f636600461336e565b6117ba565b6040516370a0823160e01b81526000906001600160a01b037f000000000000000000000000000000000000000000000000000000000000000016906370a0823190610a4a903090600401613471565b602060405180830381865afa158015610a67573d6000803e3d6000fd5b505050506040513d601f19601f82011682018060405250810190610a8b91906135e7565b905090565b60006001600160e01b03198216631ee878f360e11b1480610ab55750610ab582611a6e565b92915050565b606060038054610aca90613600565b80601f0160208091040260200160405190810160405280929190818152602001828054610af690613600565b8015610b435780601f10610b1857610100808354040283529160200191610b43565b820191906000526020600020905b815481529060010190602001808311610b2657829003601f168201915b5050505050905090565b6000610ab5826000611aa3565b600033610b68818585611add565b5060019392505050565b6000610ab5826001611aea565b600033610b8d858285611b1a565b610b98858585611b67565b60019150505b9392505050565b6000610bb2848484611bc6565b9050610b9e84611c98565b600082815260056020526040902060010154610bd881611dd3565b610be28383611ddd565b50505050565b6000610a8b817f0000000000000000000000000000000000000000000000000000000000000000613650565b60606000610c20611e71565b60068101549091508067ffffffffffffffff811115610c4157610c4161355b565b604051908082528060200260200182016040528015610c6a578160200160208202803683370190505b50925060005b81811015610cd057610cab85846006018381548110610c9157610c91613669565b6000918252602090912001546001600160a01b0316610e38565b848281518110610cbd57610cbd613669565b6020908102919091010152600101610c70565b505050919050565b6001600160a01b0381163314610d015760405163334bd91960e11b815260040160405180910390fd5b610d0b8282611e95565b505050565b7f000000000000000000000000000000000000000000000000000000000000000090565b6000610d3e611e71565b6001600160a01b03909216600090815260029290920160205250604090205490565b6000610ab5610d6d611e71565b6001600160a01b0384166000908152600191909101602052604090205490565b60006001600160a01b0383163303610db85760405163ccea9e6f60e01b815260040160405180910390fd5b6000610dc2611e71565b33600081815260048301602090815260408083206001600160a01b038a1680855290835292819020805460ff1916891515908117909155905190815293945090927fceb576d9f15e4e200fdb5096d64d5dfd667e16def20c1eefd14256d8e3faa267910160405180910390a35060019392505050565b600080610e43611e71565b6001600160a01b03808516600081815260088401602090815260408083208054958b168452600787018352818420805495855260048101909352922054949550909390919081158015610e94575080155b15610ea85760009650505050505050610ab5565b81600003610eb857809650610f1d565b6001600160a01b038816600090815260058401602052604090205484811115610ede5750835b6000610eea828761367f565b90506000670de0b6b3a7640000610f018684613692565b610f0b91906136bf565b9050610f1784826136d3565b99505050505b86600003610f2a57600196505b60085415610f53576000610f4388600660020154611f02565b9050610f4f818961367f565b9750505b50505050505092915050565b6000610b9e838333610ba5565b610f74611f82565b6000610f7e611e71565b60058101805463ffffffff191663ffffffff85169081179091556040519081529091507f30131881e801ec5c72cbec6e47ad340b66e5165fa10332f449a92f188a8f27479060200160405180910390a15050565b610fda611f82565b610fe46000611faf565b565b6000610ff0611e71565b9050610ffd848484612001565b610be2838561100b87610b4d565b8460010185600301612129565b6000611022611e71565b9050600061102f85611511565b905061103c8585856121bb565b61104c84868385600281016122d5565b5050505050565b60009182526005602090815260408084206001600160a01b0393909316845291905290205460ff1690565b6000610b9e8383336116f4565b606060048054610aca90613600565b7f477fc23fb51bb5d5aa814872a393b0e4f35d0916c7503c0fd96584681070d4106110c481611dd3565b816000036111195760405162461bcd60e51b815260206004820181905260248201527f4173796e635661756c743a20416d6f756e742063616e2774206265207a65726f60448201526064015b60405180910390fd5b611121610d10565b6001600160a01b0316836001600160a01b03161415801561114b57506001600160a01b0383163014155b6111b45760405162461bcd60e51b815260206004820152603460248201527f4173796e635661756c743a2052657761726420616e64205374616b696e6720746044820152736f6b656e732063616e6e6f742062652073616d6560601b6064820152608401611110565b6001600160a01b03831661120a5760405162461bcd60e51b815260206004820181905260248201527f4173796e635661756c743a20496e76616c69642072657761726420746f6b656e6044820152606401611110565b6112126109fb565b6000036112615760405162461bcd60e51b815260206004820152601f60248201527f4173796e635661756c743a204e6f20746f6b656e207374616b656420796574006044820152606401611110565b600061126b611e71565b6006810154909150600a0361129357604051637561e0ab60e01b815260040160405180910390fd5b60006112b1670de0b6b3a76400006112a96109fb565b86919061235b565b6001600160a01b0386166000908152600884016020526040902060018101549192509060ff166113325760068301805460018082018355600092835260209092200180546001600160a01b0319166001600160a01b038916908117909155828201805460ff191690921790915582825561132d90333088612379565b611377565b6001600160a01b03861660009081526008840160205260408120805484929061135c9084906136d3565b9091555061137790506001600160a01b038716333088612379565b856001600160a01b03167fac24935fd910bc682b5ccb1a07b718cadf8cf2f6d1404c4f3ddc3662dae40e29866040516113b291815260200190565b60405180910390a2505050505050565b6000806113cd611e71565b90506113d88361151e565b6001600160a01b038416600090815260078301602052604090206002810154600190910154611407919061367f565b610b9e919061367f565b600033610b68818585611b67565b6000610ab5826001611aa3565b60006114398484846123d3565b949350505050565b60006114398484846124a5565b6000610ab561145b611e71565b6001600160a01b0384166000908152602091909152604090205490565b6060611482611e71565b600601805480602002602001604051908101604052809291908181526020018280548015610b4357602002820191906000526020600020905b81546001600160a01b031681526001909101906020018083116114bb575050505050905090565b60006114ec611e71565b6001600160a01b03909216600090815260029290920160205250604090206001015490565b6000610ab5826000611aea565b6000610ab58261256c565b6000806000611536611e71565b6006810154600754919250906001600160a01b03166000808381036115a85760405162461bcd60e51b815260206004820152602260248201527f4173796e635661756c743a204e6f2072657761726420746f6b656e73206578696044820152611cdd60f21b6064820152608401611110565b885b848110156116a6578560060181815481106115c7576115c7613669565b6000918252602090912001546001600160a01b031692506115e83384610e38565b9150811561169e576001600160a01b03808416600081815260088901602090815260408083205433845260078c018352818420948452600590940190915290205584161561163c5761163982612656565b91505b6116506001600160a01b0384168a84612758565b886001600160a01b0316836001600160a01b03167f0aa4d283470c904c551d18bb894d37e17674920f3261a7f854be501e25f421b78460405161169591815260200190565b60405180910390a35b6001016115aa565b5097989297509195505050505050565b6000610ab56103ae8361151e565b6000828152600560205260409020600101546116df81611dd3565b610be28383611e95565b6000610ab58261151e565b600061170184848461277e565b9050610b9e81611c98565b6001600160a01b03918216600090815260016020908152604080832093909416825291909152205490565b7f74e458455daa935f28c556b43e0cc4ad001a8a090f5feee376681e97d4618f4661176181611dd3565b611778826000015183602001518460400151612845565b5050565b611784611f82565b6001600160a01b0381166117ae576000604051631e4fbdf760e01b81526004016111109190613471565b6117b781611faf565b50565b60006117c4611e71565b6001600160a01b0385166000908152600882016020526040902060010154909150339060ff166118425760405162461bcd60e51b815260206004820152602360248201527f4865646572615661756c743a20496e636f72726563742072657761726420746f60448201526235b2b760e91b6064820152608401611110565b600061184e8287610e38565b9050838110156118b75760405162461bcd60e51b815260206004820152602e60248201527f4865646572615661756c743a2041637475616c20726577617264206973206c6560448201526d1cdcc81d1a185b881c185cdcd95960921b6064820152608401611110565b6001600160a01b038216600090815260078401602052604090205480156119365760006118ed86670de0b6b3a76400008461235b565b6001600160a01b0380861660009081526007880160209081526040808320938d168352600590930190529081208054929350839290919061192f9084906136d3565b9091555050505b6001600160a01b0380841660009081526007860160209081526040808320938b16835260049093019052205480156119e6578581106119b7576001600160a01b0380851660009081526007870160209081526040808320938c1683526004909301905290812080548892906119ac90849061367f565b909155506119e69050565b6001600160a01b0380851660009081526007870160209081526040808320938c16835260049093019052908120555b6007546001600160a01b031615611a0357611a0086612656565b95505b611a176001600160a01b0389168888612758565b866001600160a01b0316886001600160a01b03167f0aa4d283470c904c551d18bb894d37e17674920f3261a7f854be501e25f421b788604051611a5c91815260200190565b60405180910390a35050505050505050565b60006001600160e01b03198216637965db0b60e01b1480610ab557506301ffc9a760e01b6001600160e01b0319831614610ab5565b6000610b9e611ab06109fb565b611abb9060016136d3565b611ac76000600a6137ca565b600254611ad491906136d3565b85919085612903565b610d0b8383836001612954565b6000610b9e611afa82600a6137ca565b600254611b0791906136d3565b611b0f6109fb565b611ad49060016136d3565b6000611b26848461170c565b90506000198114610be25781811015611b5857828183604051637dc7a0d960e11b8152600401611110939291906137d9565b610be284848484036000612954565b6001600160a01b038316611b91576000604051634b637e8f60e11b81526004016111109190613471565b6001600160a01b038216611bbb57600060405163ec442f0560e01b81526004016111109190613471565b610d0b838383612a29565b600080611bd1611e71565b6001600160a01b03841660009081526004820160209081526040808320338452909152902054909150611c0890849060ff16612b40565b611c1183610d34565b851115611c3f578285611c2385610d34565b6040516356f1421360e01b8152600401611110939291906137d9565b6001600160a01b03831660009081526002820160209081526040918290208251808401909352805483526001015490820152611c7b8187612b74565b9250611c8d8684878786600201612b89565b509695505050505050565b6000611ca2611e71565b33600090815260078201602052604090206006015490915060ff16611d685760068101546000805b82811015611d3057836006018181548110611ce757611ce7613669565b60009182526020808320909101546001600160a01b0316808352600887018252604080842054338552600789018452818520838652600501909352909220559150600101611cca565b50503360009081526007929092016020525060409020818155600180820192909255426003820155600601805460ff19169091179055565b33600090815260078201602052604081208054849290611d899084906136d3565b909155505033600090815260078201602052604081206001018054849290611db29084906136d3565b90915550503360009081526007820160205260409020426003909101555050565b6117b78133612c08565b6000611de98383611053565b611e695760008381526005602090815260408083206001600160a01b03861684529091529020805460ff19166001179055611e213390565b6001600160a01b0316826001600160a01b0316847f2f8788117e7eff1d82e926ec794901d17c78024a50270940304540a733656f0d60405160405180910390a4506001610ab5565b506000610ab5565b7f66edf448d5bf7be6b4d59d8e281e5b0790ba1fdc49329b14b394277e0547430090565b6000611ea18383611053565b15611e695760008381526005602090815260408083206001600160a01b0386168085529252808320805460ff1916905551339286917ff6391f5c32d9c69d2a47ea670b442974b53935d1edc7fd64eb21e047a839171b9190a4506001610ab5565b6000612710611f118385613692565b1015611f6b5760405162461bcd60e51b8152602060048201526024808201527f46433a20546f6f20736d616c6c20616d6f756e7420746f20636f6e73696465726044820152632066656560e01b6064820152608401611110565b612710611f788385613692565b610b9e91906136bf565b6009546001600160a01b03163314610fe4573360405163118cdaa760e01b81526004016111109190613471565b600980546001600160a01b038381166001600160a01b0319831681179093556040519116919082907f8be0079c531659141344cd1fd0a4f28419497f9722a3daafe3b4186f6b6457e090600090a35050565b8260000361205b5760405162461bcd60e51b815260206004820152602160248201527f4173796e635661756c743a20496e76616c69642073686172657320616d6f756e6044820152601d60fa1b6064820152608401611110565b6001600160a01b0382161580159061207b57506001600160a01b03811615155b6120975760405162461bcd60e51b8152600401611110906137fa565b60006120a1611e71565b6001600160a01b038316600090815260048201602090815260408083203384529091528120549192509060ff166120d857336120da565b825b6001600160a01b03851660009081526001840160205260409020549091506121029086612c33565b6001600160a01b038516600090815260018401602052604090205561104c85858584612c3f565b6001600160a01b03851660009081526020839052604090205461214c9085612c8f565b6001600160a01b03861660009081526020848152604080832093909355839052908120805485929061217f9084906136d3565b90915550506001600160a01b038516600090815260208290526040812060010180548692906121af9084906136d3565b90915550505050505050565b8260000361220b5760405162461bcd60e51b815260206004820181905260248201527f4173796e635661756c743a20496e76616c696420617373657420616d6f756e746044820152606401611110565b6001600160a01b0382161580159061222b57506001600160a01b03811615155b6122475760405162461bcd60e51b8152600401611110906137fa565b6000612251611e71565b6001600160a01b038316600090815260048201602090815260408083203384529091528120549192509060ff16612288573361228a565b825b6001600160a01b0385166000908152602084905260409020549091506122b09086612c33565b6001600160a01b03851660009081526020849052604090205561104c85858584612c9b565b6001600160a01b0385166000908152602083905260409020546122f89085612c8f565b6001600160a01b03861660009081526020848152604080832093909355839052908120805486929061232b9084906136d3565b90915550506001600160a01b038516600090815260208290526040812060010180548592906121af9084906136d3565b600082600019048411830215820261237257600080fd5b5091020490565b610be284856001600160a01b03166323b872dd8686866040516024016123a19392919061334a565b604051602081830303815290604052915060e01b6020820180516001600160e01b038381831617835250505050612cff565b6000806123de611e71565b6001600160a01b0384166000908152600482016020908152604080832033845290915290205490915061241590849060ff16612b40565b61241e836116b6565b85111561244c578285612430856116b6565b604051633fa733bb60e21b8152600401611110939291906137d9565b6001600160a01b038316600090815260038201602090815260409182902082518084019093528054835260010154908201526124888187612b74565b925061249a8684878786600301612d59565b979650505050505050565b6000806124b0611e71565b6001600160a01b038416600090815260048201602090815260408083203384529091529020549091506124e790849060ff16612b40565b6124f0836116e9565b85111561251e578285612502856116e9565b60405163f046f30360e01b8152600401611110939291906137d9565b6001600160a01b0383166000908152600382016020908152604091829020825180840190935280548352600101549082015261255a8187612d80565b9250611c8d8387878786600301612d59565b600080612577611e71565b6001600160a01b038416600090815260078201602052604081206002810154600182015493945090926125aa919061367f565b600584015460038401549192506000916125d291640100000000900463ffffffff16906136d3565b9050804210806125e0575081155b156125f15750600095945050505050565b60058401546000906126099063ffffffff16836136d3565b905080421061261a5782955061264c565b6000612626834261367f565b600587015490915063ffffffff1661263e8286613692565b61264891906136bf565b9650505b5050505050919050565b6007546008546000916001600160a01b0316908290612676908590611f02565b905080826001600160a01b03166370a08231306040518263ffffffff1660e01b81526004016126a59190613471565b602060405180830381865afa1580156126c2573d6000803e3d6000fd5b505050506040513d601f19601f820116820180604052508101906126e691906135e7565b10156127345760405162461bcd60e51b815260206004820152601e60248201527f46433a20496e73756666696369656e7420746f6b656e2062616c616e636500006044820152606401611110565b60065461274e906001600160a01b03848116911683612758565b611439818561367f565b610d0b83846001600160a01b031663a9059cbb85856040516024016123a192919061383b565b600080612789611e71565b6001600160a01b038416600090815260048201602090815260408083203384529091529020549091506127c090849060ff16612b40565b6127c9836114e2565b8511156127f75783856127db856114e2565b60405163284ff66760e01b8152600401611110939291906137d9565b6001600160a01b038316600090815260028201602090815260409182902082518084019093528054835260010154908201526128338187612d80565b925061249a8387878786600201612b89565b61271081106128885760405162461bcd60e51b815260206004820152600f60248201526e46433a20496e76616c69642066656560881b6044820152606401611110565b600680546001600160a01b038581166001600160a01b0319928316811790935560078054918616919092168117909155600883905560408051928352602083019190915281018290527febd34b2df88ea5c9f67c04b13b08e5e63c2d17e269aab73b866fe47a8736a2649060600160405180910390a1505050565b600080612911868686612d95565b905061291c83612e59565b8015612938575060008480612933576129336136a9565b868809115b1561294b576129486001826136d3565b90505b95945050505050565b6001600160a01b03841661297e57600060405163e602df0560e01b81526004016111109190613471565b6001600160a01b0383166129a8576000604051634a1406b160e11b81526004016111109190613471565b6001600160a01b0380851660009081526001602090815260408083209387168352929052208290558015610be257826001600160a01b0316846001600160a01b03167f8c5be1e5ebec7d5bd14f71427d1e84f3dd0314c0f7b2291e5b200ac8c7c3b92584604051612a1b91815260200190565b60405180910390a350505050565b6001600160a01b038316612a54578060026000828254612a4991906136d3565b90915550612ab39050565b6001600160a01b03831660009081526020819052604090205481811015612a945783818360405163391434e360e21b8152600401611110939291906137d9565b6001600160a01b03841660009081526020819052604090209082900390555b6001600160a01b038216612acf57600280548290039055612aee565b6001600160a01b03821660009081526020819052604090208054820190555b816001600160a01b0316836001600160a01b03167fddf252ad1be2c89b69c2b068fc378daa952ba7f163c4a11628f55a4df523b3ef83604051612b3391815260200190565b60405180910390a3505050565b336001600160a01b03831614801590612b565750805b15611778576040516336abb4df60e11b815260040160405180910390fd5b6000610b9e836020015183856000015161235b565b6001600160a01b0382811660008181526020848152604080832080548b9003815560010180548a9003905580518a8152918201899052919384939088169290917fdcbc1c05240f31ff3ad067ef1ee35ce4997762752e3a095284754544f4c709d7910160405180910390a3612bfe8587612e86565b5093959350505050565b612c128282611053565b61177857808260405163e2517d3f60e01b815260040161111092919061383b565b6000610b9e82846136d3565b612c4a813086612a29565b816001600160a01b0316836001600160a01b03167f9d2f438fa9d25ba84aa5ca2b229d4ad0edad29fa7299e8f7dab10d9bc582391c8387604051612a1b92919061383b565b6000610b9e828461367f565b612cba813086612ca9610d10565b6001600160a01b0316929190612379565b816001600160a01b0316836001600160a01b03167f21c9033b0fdf75a8e4138c4bd5aeae053eee01f1fbd47d59cde75ea492c156e38387604051612a1b92919061383b565b6000612d146001600160a01b03841683612ebc565b90508051600014158015612d39575080806020019051810190612d379190613854565b155b15610d0b5782604051635274afe760e01b81526004016111109190613471565b600080612d6587612eca565b612d728787878787612f35565b915091509550959350505050565b6000610b9e836000015183856020015161235b565b6000838302816000198587098281108382030391505080600003612dcc57838281612dc257612dc26136a9565b0492505050610b9e565b808411612dec5760405163227bc15360e01b815260040160405180910390fd5b6000848688096000868103871696879004966002600389028118808a02820302808a02820302808a02820302808a02820302808a02820302808a02909103029181900381900460010186841190950394909402919094039290920491909117919091029150509392505050565b60006002826003811115612e6f57612e6f613871565b612e799190613887565b60ff166001149050919050565b6001600160a01b038216612eb057600060405163ec442f0560e01b81526004016111109190613471565b61177860008383612a29565b6060610b9e83836000612fdc565b612ed333613079565b6000612edd611e71565b336000908152600782016020526040812080549293508492909190612f0390849061367f565b909155505033600090815260078201602052604081206002018054849290612f2c9084906136d3565b90915550505050565b6001600160a01b0382166000908152602082905260408120805487900381556001018054869003905580612f6930876131b8565b612f868588612f76610d10565b6001600160a01b03169190612758565b60408051888152602081018890526001600160a01b03808716929088169133917ffbde797d201c681b91056529119e0b02407c7bb96a4a2c75c01fc9667232c8db910160405180910390a4509495939450505050565b606081471015613001573060405163cd78605960e01b81526004016111109190613471565b600080856001600160a01b0316848660405161301d91906138a9565b60006040518083038185875af1925050503d806000811461305a576040519150601f19603f3d011682016040523d82523d6000602084013e61305f565b606091505b509150915061306f8683836131ee565b9695505050505050565b6000613083611e71565b6001600160a01b0383166000908152600782016020526040812091925080808080805b60068801548110156131ad578760060181815481106130c7576130c7613669565b60009182526020808320909101546001600160a01b031680835260088b0182526040808420805460058d01909452932054909850909650945084861161310e576000613118565b613118858761367f565b935083158061312657508754155b1561313157506131a5565b8754670de0b6b3a764000090613148908690613692565b61315291906136bf565b6001600160a01b038816600090815260048a0160205260408120805492955085929091906131819084906136d3565b9091555050506001600160a01b038616600090815260058801602052604090208590555b6001016130a6565b505050505050505050565b6001600160a01b0382166131e2576000604051634b637e8f60e11b81526004016111109190613471565b61177882600083612a29565b606082613203576131fe82613241565b610b9e565b815115801561321a57506001600160a01b0384163b155b1561323a5783604051639996b31560e01b81526004016111109190613471565b5080610b9e565b8051156132515780518082602001fd5b604051630a12f52160e11b815260040160405180910390fd5b60006020828403121561327c57600080fd5b81356001600160e01b031981168114610b9e57600080fd5b60005b838110156132af578181015183820152602001613297565b50506000910152565b60208152600082518060208401526132d7816040850160208701613294565b601f01601f19169190910160400192915050565b6000602082840312156132fd57600080fd5b5035919050565b80356001600160a01b038116811461331b57600080fd5b919050565b6000806040838503121561333357600080fd5b61333c83613304565b946020939093013593505050565b6001600160a01b039384168152919092166020820152604081019190915260600190565b60008060006060848603121561338357600080fd5b61338c84613304565b925061339a60208501613304565b9150604084013590509250925092565b6000806000606084860312156133bf57600080fd5b833592506133cf60208501613304565b91506133dd60408501613304565b90509250925092565b600080604083850312156133f957600080fd5b8235915061340960208401613304565b90509250929050565b60006020828403121561342457600080fd5b610b9e82613304565b6020808252825182820181905260009190848201906040850190845b8181101561346557835183529284019291840191600101613449565b50909695505050505050565b6001600160a01b0391909116815260200190565b80151581146117b757600080fd5b600080604083850312156134a657600080fd5b6134af83613304565b915060208301356134bf81613485565b809150509250929050565b600080604083850312156134dd57600080fd5b6134e683613304565b915061340960208401613304565b60006020828403121561350657600080fd5b813563ffffffff81168114610b9e57600080fd5b6020808252825182820181905260009190848201906040850190845b818110156134655783516001600160a01b031683529284019291840191600101613536565b634e487b7160e01b600052604160045260246000fd5b60006060828403121561358357600080fd5b6040516060810181811067ffffffffffffffff821117156135b457634e487b7160e01b600052604160045260246000fd5b6040526135c083613304565b81526135ce60208401613304565b6020820152604083013560408201528091505092915050565b6000602082840312156135f957600080fd5b5051919050565b600181811c9082168061361457607f821691505b60208210810361363457634e487b7160e01b600052602260045260246000fd5b50919050565b634e487b7160e01b600052601160045260246000fd5b60ff8181168382160190811115610ab557610ab561363a565b634e487b7160e01b600052603260045260246000fd5b81810381811115610ab557610ab561363a565b8082028115828204841417610ab557610ab561363a565b634e487b7160e01b600052601260045260246000fd5b6000826136ce576136ce6136a9565b500490565b80820180821115610ab557610ab561363a565b600181815b808511156137215781600019048211156137075761370761363a565b8085161561371457918102915b93841c93908002906136eb565b509250929050565b60008261373857506001610ab5565b8161374557506000610ab5565b816001811461375b576002811461376557613781565b6001915050610ab5565b60ff8411156137765761377661363a565b50506001821b610ab5565b5060208310610133831016604e8410600b84101617156137a4575081810a610ab5565b6137ae83836136e6565b80600019048211156137c2576137c261363a565b029392505050565b6000610b9e60ff841683613729565b6001600160a01b039390931683526020830191909152604082015260600190565b60208082526021908201527f4173796e635661756c743a20496e76616c6964206f776e6572206164647265736040820152607360f81b606082015260800190565b6001600160a01b03929092168252602082015260400190565b60006020828403121561386657600080fd5b8151610b9e81613485565b634e487b7160e01b600052602160045260246000fd5b600060ff83168061389a5761389a6136a9565b8060ff84160691505092915050565b600082516138bb818460208701613294565b919091019291505056fea26469706673582212201ef033fa9b633c08967698e151d8ca1c2b850e5b04a558672fabb0fa1c45c39964736f6c63430008180033",
  "linkReferences": {},
  "deployedLinkReferences": {}
}