{
  "_format": "hh-sol-artifact-1",
  "contractName": "AsyncVaultFactory",
  "sourceName": "contracts/erc4626/factory/AsyncVaultFactory.sol",
  "abi": [
    {
      "inputs": [],
      "stateMutability": "nonpayable",
      "type": "constructor"
    },
    {
      "inputs": [
        {
          "internalType": "address",
          "name": "owner",
          "type": "address"
        }
      ],
      "name": "OwnableInvalidOwner",
      "type": "error"
    },
    {
      "inputs": [
        {
          "internalType": "address",
          "name": "account",
          "type": "address"
        }
      ],
      "name": "OwnableUnauthorizedAccount",
      "type": "error"
    },
    {
      "inputs": [
        {
          "internalType": "uint256",
          "name": "value",
          "type": "uint256"
        },
        {
          "internalType": "uint256",
          "name": "length",
          "type": "uint256"
        }
      ],
      "name": "StringsInsufficientHexLength",
      "type": "error"
    },
    {
      "anonymous": false,
      "inputs": [
        {
          "indexed": true,
          "internalType": "address",
          "name": "previousOwner",
          "type": "address"
        },
        {
          "indexed": true,
          "internalType": "address",
          "name": "newOwner",
          "type": "address"
        }
      ],
      "name": "OwnershipTransferred",
      "type": "event"
    },
    {
      "anonymous": false,
      "inputs": [
        {
          "indexed": true,
          "internalType": "address",
          "name": "vault",
          "type": "address"
        },
        {
          "indexed": true,
          "internalType": "address",
          "name": "asset",
          "type": "address"
        },
        {
          "indexed": false,
          "internalType": "string",
          "name": "name",
          "type": "string"
        },
        {
          "indexed": false,
          "internalType": "string",
          "name": "symbol",
          "type": "string"
        }
      ],
      "name": "VaultDeployed",
      "type": "event"
    },
    {
      "inputs": [
        {
          "internalType": "string",
          "name": "salt",
          "type": "string"
        },
        {
          "components": [
            {
              "internalType": "address",
              "name": "stakingToken",
              "type": "address"
            },
            {
              "internalType": "string",
              "name": "shareTokenName",
              "type": "string"
            },
            {
              "internalType": "string",
              "name": "shareTokenSymbol",
              "type": "string"
            },
            {
              "internalType": "address",
              "name": "vaultRewardController",
              "type": "address"
            },
            {
              "internalType": "address",
              "name": "feeConfigController",
              "type": "address"
            }
          ],
          "internalType": "struct IVaultFactory.VaultDetails",
          "name": "vaultDetails",
          "type": "tuple"
        },
        {
          "components": [
            {
              "internalType": "address",
              "name": "receiver",
              "type": "address"
            },
            {
              "internalType": "address",
              "name": "token",
              "type": "address"
            },
            {
              "internalType": "uint256",
              "name": "feePercentage",
              "type": "uint256"
            }
          ],
          "internalType": "struct FeeConfiguration.FeeConfig",
          "name": "feeConfig",
          "type": "tuple"
        }
      ],
      "name": "deployVault",
      "outputs": [
        {
          "internalType": "address",
          "name": "vault",
          "type": "address"
        }
      ],
      "stateMutability": "payable",
      "type": "function"
    },
    {
      "inputs": [
        {
          "internalType": "address",
          "name": "deployer",
          "type": "address"
        },
        {
          "internalType": "address",
          "name": "token",
          "type": "address"
        },
        {
          "internalType": "uint256",
          "name": "nonce",
          "type": "uint256"
        }
      ],
      "name": "generateSalt",
      "outputs": [
        {
          "internalType": "string",
          "name": "",
          "type": "string"
        }
      ],
      "stateMutability": "pure",
      "type": "function"
    },
    {
      "inputs": [],
      "name": "owner",
      "outputs": [
        {
          "internalType": "address",
          "name": "",
          "type": "address"
        }
      ],
      "stateMutability": "view",
      "type": "function"
    },
    {
      "inputs": [],
      "name": "renounceOwnership",
      "outputs": [],
      "stateMutability": "nonpayable",
      "type": "function"
    },
    {
      "inputs": [
        {
          "internalType": "bytes4",
          "name": "interfaceId",
          "type": "bytes4"
        }
      ],
      "name": "supportsInterface",
      "outputs": [
        {
          "internalType": "bool",
          "name": "",
          "type": "bool"
        }
      ],
      "stateMutability": "view",
      "type": "function"
    },
    {
      "inputs": [
        {
          "internalType": "address",
          "name": "newOwner",
          "type": "address"
        }
      ],
      "name": "transferOwnership",
      "outputs": [],
      "stateMutability": "nonpayable",
      "type": "function"
    },
    {
      "inputs": [
        {
          "internalType": "string",
          "name": "",
          "type": "string"
        }
      ],
      "name": "vaultDeployed",
      "outputs": [
        {
          "internalType": "address",
          "name": "",
          "type": "address"
        }
      ],
      "stateMutability": "view",
      "type": "function"
    }
  ],
  "bytecode": "0x608060405234801561001057600080fd5b50338061003757604051631e4fbdf760e01b81526000600482015260240160405180910390fd5b61004081610046565b50610096565b600080546001600160a01b038381166001600160a01b0319831681178455604051919092169283917f8be0079c531659141344cd1fd0a4f28419497f9722a3daafe3b4186f6b6457e09190a35050565b614a34806100a56000396000f3fe608060405260043610620000685760003560e01c806301ffc9a7146200006d578063715018a614620000a75780637bac419d14620000c15780638da5cb5b14620000e7578063a166bf061462000107578063f2fde38b146200013b578063fe738c831462000160575b600080fd5b3480156200007a57600080fd5b50620000926200008c36600462000ae6565b620001a5565b60405190151581526020015b60405180910390f35b348015620000b457600080fd5b50620000bf620001dd565b005b620000d8620000d236600462000b32565b620001f5565b6040516200009e919062000be6565b348015620000f457600080fd5b506000546001600160a01b0316620000d8565b3480156200011457600080fd5b506200012c6200012636600462000c17565b6200052e565b6040516200009e919062000c7e565b3480156200014857600080fd5b50620000bf6200015a36600462000cb3565b62000593565b3480156200016d57600080fd5b50620000d86200017f36600462000ce7565b80516020818301810180516001825292820191909301209152546001600160a01b031681565b60006001600160e01b0319821663dacafe9b60e01b1480620001d757506301ffc9a760e01b6001600160e01b03198316145b92915050565b620001e7620005d8565b620001f3600062000608565b565b6000806001600160a01b0316600186866040516200021592919062000da2565b908152604051908190036020019020546001600160a01b0316146200028d5760405162461bcd60e51b8152602060048201526024808201527f5661756c74466163746f72793a205661756c7420616c7265616479206465706c6044820152631bde595960e21b60648201526084015b60405180910390fd5b60006200029e602085018562000cb3565b6001600160a01b031603620003025760405162461bcd60e51b815260206004820152602360248201527f5661756c74466163746f72793a20496e76616c6964207374616b696e6720746f60448201526235b2b760e91b606482015260840162000284565b600062000316608085016060860162000cb3565b6001600160a01b031603620003865760405162461bcd60e51b815260206004820152602f60248201527f5661756c74466163746f72793a20496e76616c69642072657761726420636f6e60448201526e74726f6c6c6572206164647265737360881b606482015260840162000284565b60006200039a60a085016080860162000cb3565b6001600160a01b031603620004075760405162461bcd60e51b815260206004820152602c60248201527f5661756c74466163746f72793a20496e76616c69642066656520636f6e74726f60448201526b6c6c6572206164647265737360a01b606482015260840162000284565b620004158585858562000658565b905080600186866040516200042c92919062000da2565b90815260405190819003602001812080546001600160a01b039384166001600160a01b031990911617905563f2fde38b60e01b81529082169063f2fde38b906200047b90339060040162000be6565b600060405180830381600087803b1580156200049657600080fd5b505af1158015620004ab573d6000803e3d6000fd5b50620004bf92505050602084018462000cb3565b6001600160a01b039081169082167ffd7439309318fc0abb0976e1dddf30d112c3b5c6f4438cca5ee7f70342f97f59620004fd602087018762000db2565b6200050c604089018962000db2565b6040516200051e949392919062000e2c565b60405180910390a3949350505050565b606062000546846001600160a01b031660146200076b565b6200055c846001600160a01b031660146200076b565b620005678462000909565b6040516020016200057b9392919062000e62565b60405160208183030381529060405290509392505050565b6200059d620005d8565b6001600160a01b038116620005ca576000604051631e4fbdf760e01b815260040162000284919062000be6565b620005d58162000608565b50565b6000546001600160a01b03163314620001f3573360405163118cdaa760e01b815260040162000284919062000be6565b600080546001600160a01b038381166001600160a01b0319831681178455604051919092169283917f8be0079c531659141344cd1fd0a4f28419497f9722a3daafe3b4186f6b6457e09190a35050565b600080604051806020016200066d9062000ad8565b601f1982820381018352601f909101166040529050600062000693602086018662000cb3565b620006a2602087018762000db2565b620006b1604089018962000db2565b620006c060208a018a62000cb3565b620006d260408b0160208c0162000cb3565b60408b0135620006e960808e0160608f0162000cb3565b8d6080016020810190620006fe919062000cb3565b604051602001620007199a9998979695949392919062000eab565b6040516020818303038152906040529050600082826040516020016200074192919062000f1f565b60405160208183030381529060405290506200075f888883620009a3565b98975050505050505050565b60608260006200077d84600262000f68565b6200078a90600262000f82565b67ffffffffffffffff811115620007a557620007a562000cd1565b6040519080825280601f01601f191660200182016040528015620007d0576020820181803683370190505b509050600360fc1b81600081518110620007ee57620007ee62000f98565b60200101906001600160f81b031916908160001a905350600f60fb1b8160018151811062000820576200082062000f98565b60200101906001600160f81b031916908160001a90535060006200084685600262000f68565b6200085390600162000f82565b90505b6001811115620008d5576f181899199a1a9b1b9c1cb0b131b232b360811b83600f16601081106200088b576200088b62000f98565b1a60f81b828281518110620008a457620008a462000f98565b60200101906001600160f81b031916908160001a90535060049290921c91620008cd8162000fae565b905062000856565b508115620009015760405163e22e27eb60e01b8152600481018690526024810185905260440162000284565b949350505050565b606060006200091883620009f9565b600101905060008167ffffffffffffffff8111156200093b576200093b62000cd1565b6040519080825280601f01601f19166020018201604052801562000966576020820181803683370190505b5090508181016020015b600019016f181899199a1a9b1b9c1cb0b131b232b360811b600a86061a8153600a85049450846200097057509392505050565b6000808484604051602001620009bb92919062000da2565b604051602081830303815290604052805190602001209050600083602001845183818334f592505050803b620009f057600080fd5b95945050505050565b60008072184f03e93ff9f4daa797ed6e38ed64bf6a1f0160401b831062000a395772184f03e93ff9f4daa797ed6e38ed64bf6a1f0160401b830492506040015b6d04ee2d6d415b85acef8100000000831062000a66576d04ee2d6d415b85acef8100000000830492506020015b662386f26fc10000831062000a8557662386f26fc10000830492506010015b6305f5e100831062000a9e576305f5e100830492506008015b612710831062000ab357612710830492506004015b6064831062000ac6576064830492506002015b600a8310620001d75760010192915050565b613a368062000fc983390190565b60006020828403121562000af957600080fd5b81356001600160e01b03198116811462000b1257600080fd5b9392505050565b60006060828403121562000b2c57600080fd5b50919050565b60008060008060a0858703121562000b4957600080fd5b843567ffffffffffffffff8082111562000b6257600080fd5b818701915087601f83011262000b7757600080fd5b81358181111562000b8757600080fd5b88602082850101111562000b9a57600080fd5b60209283019650945090860135908082111562000bb657600080fd5b50850160a0818803121562000bca57600080fd5b915062000bdb866040870162000b19565b905092959194509250565b6001600160a01b0391909116815260200190565b80356001600160a01b038116811462000c1257600080fd5b919050565b60008060006060848603121562000c2d57600080fd5b62000c388462000bfa565b925062000c486020850162000bfa565b9150604084013590509250925092565b60005b8381101562000c7557818101518382015260200162000c5b565b50506000910152565b602081526000825180602084015262000c9f81604085016020870162000c58565b601f01601f19169190910160400192915050565b60006020828403121562000cc657600080fd5b62000b128262000bfa565b634e487b7160e01b600052604160045260246000fd5b60006020828403121562000cfa57600080fd5b813567ffffffffffffffff8082111562000d1357600080fd5b818401915084601f83011262000d2857600080fd5b81358181111562000d3d5762000d3d62000cd1565b604051601f8201601f19908116603f0116810190838211818310171562000d685762000d6862000cd1565b8160405282815287602084870101111562000d8257600080fd5b826020860160208301376000928101602001929092525095945050505050565b8183823760009101908152919050565b6000808335601e1984360301811262000dca57600080fd5b83018035915067ffffffffffffffff82111562000de657600080fd5b60200191503681900382131562000dfc57600080fd5b9250929050565b81835281816020850137506000828201602090810191909152601f909101601f19169091010190565b60408152600062000e4260408301868862000e03565b828103602084015262000e5781858762000e03565b979650505050505050565b6000845162000e7681846020890162000c58565b84519083019062000e8c81836020890162000c58565b845191019062000ea181836020880162000c58565b0195945050505050565b6001600160a01b038b811682526101006020830181905260009162000ed48483018d8f62000e03565b9150838203604085015262000eeb828b8d62000e03565b98811660608501529687166080840152505060a081019390935290831660c083015290911660e09091015295945050505050565b6000835162000f3381846020880162000c58565b83519083019062000f4981836020880162000c58565b01949350505050565b634e487b7160e01b600052601160045260246000fd5b8082028115828204841417620001d757620001d762000f52565b80820180821115620001d757620001d762000f52565b634e487b7160e01b600052603260045260246000fd5b60008162000fc05762000fc062000f52565b50600019019056fe60c060405260405162003a3638038062003a3683398101604081905262000026916200052b565b33868087876003620000398382620006b5565b506004620000488282620006b5565b5050506000806200005f83620000d860201b60201c565b91509150816200007157601262000073565b805b60ff1660a05250506001600160a01b0390811660805282169050620000b357604051631e4fbdf760e01b8152600060048201526024015b60405180910390fd5b620000be81620001bd565b50620000cc8383836200020f565b505050505050620007b9565b60408051600481526024810182526020810180516001600160e01b031663313ce56760e01b17905290516000918291829182916001600160a01b03871691620001219162000781565b600060405180830381855afa9150503d80600081146200015e576040519150601f19603f3d011682016040523d82523d6000602084013e62000163565b606091505b50915091508180156200017857506020815110155b15620001b0576000818060200190518101906200019691906200079f565b905060ff8111620001ae576001969095509350505050565b505b5060009485945092505050565b600e80546001600160a01b038381166001600160a01b0319831681179093556040519116919082907f8be0079c531659141344cd1fd0a4f28419497f9722a3daafe3b4186f6b6457e090600090a35050565b8251602084015160408501516200022892919062000295565b6200023560003362000355565b50620002627f477fc23fb51bb5d5aa814872a393b0e4f35d0916c7503c0fd96584681070d4108362000355565b506200028f7f74e458455daa935f28c556b43e0cc4ad001a8a090f5feee376681e97d4618f468262000355565b50505050565b6127108110620002da5760405162461bcd60e51b815260206004820152600f60248201526e46433a20496e76616c69642066656560881b6044820152606401620000aa565b600b80546001600160a01b038581166001600160a01b03199283168117909355600c8054918616919092168117909155600d83905560408051928352602083019190915281018290527febd34b2df88ea5c9f67c04b13b08e5e63c2d17e269aab73b866fe47a8736a2649060600160405180910390a1505050565b6000828152600a602090815260408083206001600160a01b038516845290915281205460ff16620003fe576000838152600a602090815260408083206001600160a01b03861684529091529020805460ff19166001179055620003b53390565b6001600160a01b0316826001600160a01b0316847f2f8788117e7eff1d82e926ec794901d17c78024a50270940304540a733656f0d60405160405180910390a450600162000402565b5060005b92915050565b6001600160a01b03811681146200041e57600080fd5b50565b634e487b7160e01b600052604160045260246000fd5b604051606081016001600160401b03811182821017156200045c576200045c62000421565b60405290565b60005b838110156200047f57818101518382015260200162000465565b50506000910152565b600082601f8301126200049a57600080fd5b81516001600160401b0380821115620004b757620004b762000421565b604051601f8301601f19908116603f01168101908282118183101715620004e257620004e262000421565b81604052838152866020858801011115620004fc57600080fd5b6200050f84602083016020890162000462565b9695505050505050565b8051620005268162000408565b919050565b6000806000806000808688036101008112156200054757600080fd5b8751620005548162000408565b60208901519097506001600160401b03808211156200057257600080fd5b620005808b838c0162000488565b975060408a01519150808211156200059757600080fd5b50620005a68a828b0162000488565b9550506060605f1982011215620005bc57600080fd5b50620005c762000437565b6060880151620005d78162000408565b81526080880151620005e98162000408565b602082015260a0880151604082015292506200060860c0880162000519565b91506200061860e0880162000519565b90509295509295509295565b600181811c908216806200063957607f821691505b6020821081036200065a57634e487b7160e01b600052602260045260246000fd5b50919050565b601f821115620006b0576000816000526020600020601f850160051c810160208610156200068b5750805b601f850160051c820191505b81811015620006ac5782815560010162000697565b5050505b505050565b81516001600160401b03811115620006d157620006d162000421565b620006e981620006e2845462000624565b8462000660565b602080601f831160018114620007215760008415620007085750858301515b600019600386901b1c1916600185901b178555620006ac565b600085815260208120601f198616915b82811015620007525788860151825594840194600190910190840162000731565b5085821015620007715787850151600019600388901b60f8161c191681555b5050505050600190811b01905550565b600082516200079581846020870162000462565b9190910192915050565b600060208284031215620007b257600080fd5b5051919050565b60805160a051613250620007e66000396000610c1f0152600081816109c40152610d3001526132506000f3fe6080604052600436106102ca5760003560e01c80637d41c86e1161017b578063ba087652116100d7578063d547741f11610085578063d547741f146108ea578063d905777e1461090a578063da39b3e71461092a578063dd62ed3e1461094a578063ef8b30f714610875578063efa6f4251461096a578063f2fde38b1461098a57600080fd5b8063ba087652146107f3578063c370298914610813578063c4f59f9b14610833578063c63d75b614610855578063c6e6f59214610875578063cd26c0e614610895578063ce96cb77146108ca57600080fd5b80639feb8f50116101345780639feb8f50146106fc578063a217fddf1461070f578063a9059cbb14610724578063b3d7f6b914610744578063b460af9414610764578063b4f6d61314610784578063b6363cf2146107b857600080fd5b80637d41c86e1461064957806385b77f45146106695780638da5cb5b1461068957806391d14854146106a757806394bf804d146106c757806395d89b41146106e757600080fd5b80632f2ff15d1161022a5780634cdad506116101e35780634cdad5061461037d57806353dc1dd314610594578063558a7297146105b45780635ab764ed146105d45780636e553f65146105f457806370a0823114610614578063715018a61461063457600080fd5b80632f2ff15d146104be578063313ce567146104de578063362a3fad1461050557806336568abe1461053257806338d52e0f14610552578063402d267d1461057457600080fd5b80630a28a477116102875780630a28a477146103bd57806318160ddd146103dd5780631e5eb1d0146103f25780632392e1d01461042c57806323b872dd1461044e578063248a9ca31461046e5780632e2d29841461049e57600080fd5b806301e1d114146102cf57806301ffc9a7146102f757806305fb2a511461032757806306fdde031461035b57806307a2d13a1461037d578063095ea7b31461039d575b600080fd5b3480156102db57600080fd5b506102e46109aa565b6040519081526020015b60405180910390f35b34801561030357600080fd5b50610317610312366004612bc0565b610a3f565b60405190151581526020016102ee565b34801561033357600080fd5b506102e47f74e458455daa935f28c556b43e0cc4ad001a8a090f5feee376681e97d4618f4681565b34801561036757600080fd5b50610370610a6a565b6040516102ee9190612c0e565b34801561038957600080fd5b506102e4610398366004612c41565b610afc565b3480156103a957600080fd5b506103176103b8366004612c76565b610b09565b3480156103c957600080fd5b506102e46103d8366004612c41565b610b21565b3480156103e957600080fd5b506002546102e4565b3480156103fe57600080fd5b50600b54600c54600d5461041d926001600160a01b0390811692169083565b6040516102ee93929190612ca0565b34801561043857600080fd5b5061044c610447366004612cc4565b610b2e565b005b34801561045a57600080fd5b50610317610469366004612ce9565b610b8e565b34801561047a57600080fd5b506102e4610489366004612c41565b6000908152600a602052604090206001015490565b3480156104aa57600080fd5b506102e46104b9366004612d25565b610bb4565b3480156104ca57600080fd5b5061044c6104d9366004612d61565b610bec565b3480156104ea57600080fd5b506104f3610c17565b60405160ff90911681526020016102ee565b34801561051157600080fd5b50610525610520366004612d8d565b610c43565b6040516102ee9190612da8565b34801561053e57600080fd5b5061044c61054d366004612d61565b610cf6565b34801561055e57600080fd5b50610567610d2e565b6040516102ee9190612dec565b34801561058057600080fd5b506102e461058f366004612d8d565b610d52565b3480156105a057600080fd5b506102e46105af366004612d8d565b610d6d565b3480156105c057600080fd5b506103176105cf366004612e0e565b610d8b565b3480156105e057600080fd5b506102e46105ef366004612e45565b610e27565b34801561060057600080fd5b506102e461060f366004612d61565b610f08565b34801561062057600080fd5b506102e461062f366004612d8d565b610f15565b34801561064057600080fd5b5061044c610f30565b34801561065557600080fd5b5061044c610664366004612d25565b610f44565b34801561067557600080fd5b5061044c610684366004612d25565b610f6b565b34801561069557600080fd5b50600e546001600160a01b0316610567565b3480156106b357600080fd5b506103176106c2366004612d61565b610f8e565b3480156106d357600080fd5b506102e46106e2366004612d61565b610fb9565b3480156106f357600080fd5b50610370610fc6565b61044c61070a366004612c76565b610fd5565b34801561071b57600080fd5b506102e4600081565b34801561073057600080fd5b5061031761073f366004612c76565b6112fd565b34801561075057600080fd5b506102e461075f366004612c41565b61130b565b34801561077057600080fd5b506102e461077f366004612d25565b611318565b34801561079057600080fd5b506102e47f477fc23fb51bb5d5aa814872a393b0e4f35d0916c7503c0fd96584681070d41081565b3480156107c457600080fd5b506103176107d3366004612e45565b600960209081526000928352604080842090915290825290205460ff1681565b3480156107ff57600080fd5b506102e461080e366004612d25565b61132d565b34801561081f57600080fd5b506102e461082e366004612d8d565b61133a565b34801561083f57600080fd5b50610848611358565b6040516102ee9190612e6f565b34801561086157600080fd5b506102e4610870366004612d8d565b6113b9565b34801561088157600080fd5b506102e4610890366004612c41565b6113d7565b3480156108a157600080fd5b506108b56108b0366004612d61565b6113e4565b604080519283526020830191909152016102ee565b3480156108d657600080fd5b506102e46108e5366004612d8d565b61151f565b3480156108f657600080fd5b5061044c610905366004612d61565b61152d565b34801561091657600080fd5b506102e4610925366004612d8d565b611552565b34801561093657600080fd5b506102e4610945366004612d25565b611570565b34801561095657600080fd5b506102e4610965366004612e45565b6115a0565b34801561097657600080fd5b5061044c610985366004612ec6565b6115cb565b34801561099657600080fd5b5061044c6109a5366004612d8d565b611610565b6040516370a0823160e01b81526000906001600160a01b037f000000000000000000000000000000000000000000000000000000000000000016906370a08231906109f9903090600401612dec565b602060405180830381865afa158015610a16573d6000803e3d6000fd5b505050506040513d601f19601f82011682018060405250810190610a3a9190612f3c565b905090565b60006001600160e01b0319821663685a837160e01b1480610a645750610a648261164e565b92915050565b606060038054610a7990612f55565b80601f0160208091040260200160405190810160405280929190818152602001828054610aa590612f55565b8015610af25780601f10610ac757610100808354040283529160200191610af2565b820191906000526020600020905b815481529060010190602001808311610ad557829003601f168201915b5050505050905090565b6000610a64826000611683565b600033610b178185856116bd565b5060019392505050565b6000610a648260016116ca565b610b366116fa565b600e805463ffffffff60a01b191662ffffff8316600160a01b8102919091179091556040519081527fe5bc4ca1e5c47dcfbef4e8bf7baa88967301ba5cfc97ab478fc9afd1b7fb16fd9060200160405180910390a150565b600033610b9c858285611727565b610ba7858585611774565b60019150505b9392505050565b600080610bc084610f15565b9050610bcd8585856117d3565b9150610bda848284611867565b610be4858561190b565b509392505050565b6000828152600a6020526040902060010154610c0781611a46565b610c118383611a50565b50505050565b6000610a3a817f0000000000000000000000000000000000000000000000000000000000000000612fa5565b600f546060908067ffffffffffffffff811115610c6257610c62612eb0565b604051908082528060200260200182016040528015610c8b578160200160208202803683370190505b50915060005b81811015610cef57610cca84600f8381548110610cb057610cb0612fbe565b6000918252602090912001546001600160a01b0316610e27565b838281518110610cdc57610cdc612fbe565b6020908102919091010152600101610c91565b5050919050565b6001600160a01b0381163314610d1f5760405163334bd91960e11b815260040160405180910390fd5b610d298282611ae4565b505050565b7f000000000000000000000000000000000000000000000000000000000000000090565b6001600160a01b031660009081526007602052604090205490565b6001600160a01b038116600090815260066020526040812054610a64565b60006001600160a01b0383163303610db65760405163ccea9e6f60e01b815260040160405180910390fd5b3360008181526009602090815260408083206001600160a01b03881680855290835292819020805460ff191687151590811790915590519081529192917fceb576d9f15e4e200fdb5096d64d5dfd667e16def20c1eefd14256d8e3faa267910160405180910390a350600192915050565b6001600160a01b0380821660009081526012602090815260408083208054948716845260119092528220805492939192808503610e6b576000945050505050610a64565b6001600160a01b038616600090815260028301602052604081205490610e918286612fd4565b905082610ea682670de0b6b3a7640000612fe7565b610eb09190613014565b9650610ec4670de0b6b3a764000088613014565b965086600003610ed357600196505b600d5415610efc576000610eec88600b60020154611b51565b9050610ef88189612fd4565b9750505b50505050505092915050565b6000610bad838333610bb4565b6001600160a01b031660009081526020819052604090205490565b610f386116fa565b610f426000611bd1565b565b610f4d82611c23565b610f58838383611c76565b610d298284610f6686610afc565b611d4d565b6000610f76846113d7565b9050610f83848484611de0565b610c11838583611ead565b6000918252600a602090815260408084206001600160a01b0393909316845291905290205460ff1690565b6000610bad838333611570565b606060048054610a7990612f55565b7f477fc23fb51bb5d5aa814872a393b0e4f35d0916c7503c0fd96584681070d410610fff81611a46565b816000036110545760405162461bcd60e51b815260206004820181905260248201527f4173796e635661756c743a20416d6f756e742063616e2774206265207a65726f60448201526064015b60405180910390fd5b61105c610d2e565b6001600160a01b0316836001600160a01b03161415801561108657506001600160a01b0383163014155b6110ef5760405162461bcd60e51b815260206004820152603460248201527f4173796e635661756c743a2052657761726420616e64205374616b696e6720746044820152736f6b656e732063616e6e6f742062652073616d6560601b606482015260840161104b565b6001600160a01b0383166111455760405162461bcd60e51b815260206004820181905260248201527f4173796e635661756c743a20496e76616c69642072657761726420746f6b656e604482015260640161104b565b61114d6109aa565b60000361119c5760405162461bcd60e51b815260206004820152601f60248201527f4173796e635661756c743a204e6f20746f6b656e207374616b65642079657400604482015260640161104b565b600f54600a036111bf57604051637561e0ab60e01b815260040160405180910390fd5b60006111d660016111ce6109aa565b859190611f36565b6001600160a01b038516600090815260126020526040902060018101549192509060ff1661127057600f8054600180820183556000929092527f8d1108e10bcb7c27dddfc02ed9d693a074039d026cf4ea4240b40f7d581ac8020180546001600160a01b0319166001600160a01b038816908117909155828201805460ff191690921790915582825561126b90333087611f54565b6112b3565b6001600160a01b03851660009081526012602052604081208054849290611298908490613028565b909155506112b390506001600160a01b038616333087611f54565b846001600160a01b03167fac24935fd910bc682b5ccb1a07b718cadf8cf2f6d1404c4f3ddc3662dae40e29856040516112ee91815260200190565b60405180910390a25050505050565b600033610b17818585611774565b6000610a64826001611683565b6000611325848484611fae565b949350505050565b6000611325848484612042565b6001600160a01b038116600090815260056020526040812054610a64565b6060600f805480602002602001604051908101604052809291908181526020018280548015610af257602002820191906000526020600020905b81546001600160a01b03168152600190910190602001808311611392575050505050905090565b6001600160a01b031660009081526007602052604090206001015490565b6000610a648260006116ca565b600f54600c5460009182916001600160a01b031682808381036114545760405162461bcd60e51b815260206004820152602260248201527f4173796e635661756c743a204e6f2072657761726420746f6b656e73206578696044820152611cdd60f21b606482015260840161104b565b875b8481101561151057600f818154811061147157611471612fbe565b6000918252602090912001546001600160a01b031692506114923384610e27565b6001600160a01b038085166000818152601260209081526040808320543384526011835281842094845260029094019091529020559092508416156114f4576114ef886114de846120cc565b6001600160a01b03861691906121ce565b611508565b6115086001600160a01b03841689846121ce565b600101611456565b50969792965091945050505050565b6000610a6461039883611552565b6000828152600a602052604090206001015461154881611a46565b610c118383611ae4565b6001600160a01b031660009081526008602052604090206001015490565b60008061157c84610f15565b90506115898585856121f4565b9150611596848287611867565b610be4828561190b565b6001600160a01b03918216600090815260016020908152604080832093909416825291909152205490565b7f74e458455daa935f28c556b43e0cc4ad001a8a090f5feee376681e97d4618f466115f581611a46565b61160c82600001518360200151846040015161227e565b5050565b6116186116fa565b6001600160a01b038116611642576000604051631e4fbdf760e01b815260040161104b9190612dec565b61164b81611bd1565b50565b60006001600160e01b03198216637965db0b60e01b1480610a6457506301ffc9a760e01b6001600160e01b0319831614610a64565b6000610bad6116906109aa565b61169b906001613028565b6116a76000600a61311f565b6002546116b49190613028565b8591908561233c565b610d29838383600161238d565b6000610bad6116da82600a61311f565b6002546116e79190613028565b6116ef6109aa565b6116b4906001613028565b600e546001600160a01b03163314610f42573360405163118cdaa760e01b815260040161104b9190612dec565b600061173384846115a0565b90506000198114610c11578181101561176557828183604051637dc7a0d960e11b815260040161104b9392919061312e565b610c118484848403600061238d565b6001600160a01b03831661179e576000604051634b637e8f60e11b815260040161104b9190612dec565b6001600160a01b0382166117c857600060405163ec442f0560e01b815260040161104b9190612dec565b610d29838383612462565b60006117de82612579565b6117e782610d52565b8411156118155781846117f984610d52565b6040516356f1421360e01b815260040161104b9392919061312e565b6001600160a01b038216600090815260076020908152604091829020825180840190935280548352600101549082015261184f81866125d4565b915061185d858386866125e9565b5095945050505050565b60006118738284613028565b90508260000361189d576001600160a01b0384166000908152601060205260409020429055610c11565b806118a88342612fe7565b6118b29190613014565b6001600160a01b03851660009081526010602052604090205482906118d8908690612fe7565b6118e29190613014565b6118ec9190613028565b6001600160a01b03851660009081526010602052604090205550505050565b3360009081526011602052604090206003015460ff166119bb57600f5460005b8181101561198d576000600f828154811061194857611948612fbe565b60009182526020808320909101546001600160a01b0316808352601282526040808420543385526011845281852092855260029092019092529120555060010161192b565b505033600090815260116020526040902082815560038101805460ff19166001908117909155429101555050565b3360009081526011602052604081205490036119fb5733600090815260116020526040812080548492906119f0908490613028565b9091555061160c9050565b611a066000826113e4565b50503360009081526011602052604081208054849290611a27908490613028565b9091555050336000908152601160205260409020426001909101555050565b61164b8133612670565b6000611a5c8383610f8e565b611adc576000838152600a602090815260408083206001600160a01b03861684529091529020805460ff19166001179055611a943390565b6001600160a01b0316826001600160a01b0316847f2f8788117e7eff1d82e926ec794901d17c78024a50270940304540a733656f0d60405160405180910390a4506001610a64565b506000610a64565b6000611af08383610f8e565b15611adc576000838152600a602090815260408083206001600160a01b0386168085529252808320805460ff1916905551339286917ff6391f5c32d9c69d2a47ea670b442974b53935d1edc7fd64eb21e047a839171b9190a4506001610a64565b6000612710611b608385612fe7565b1015611bba5760405162461bcd60e51b8152602060048201526024808201527f46433a20546f6f20736d616c6c20616d6f756e7420746f20636f6e73696465726044820152632066656560e01b606482015260840161104b565b612710611bc78385612fe7565b610bad9190613014565b600e80546001600160a01b038381166001600160a01b0319831681179093556040519116919082907f8be0079c531659141344cd1fd0a4f28419497f9722a3daafe3b4186f6b6457e090600090a35050565b600e546001600160a01b038216600090815260106020526040902054611c5691600160a01b900463ffffffff1690613028565b42101561164b57604051637a1cb75d60e01b815260040160405180910390fd5b82600003611cd05760405162461bcd60e51b815260206004820152602160248201527f4173796e635661756c743a20496e76616c69642073686172657320616d6f756e6044820152601d60fa1b606482015260840161104b565b6001600160a01b03821615801590611cf057506001600160a01b03811615155b611d0c5760405162461bcd60e51b815260040161104b9061314f565b6001600160a01b038116600090815260096020908152604080832033845290915281205460ff16611d3d5733611d3f565b815b9050610c118484848461269b565b6001600160a01b038316600090815260066020526040902054611d70908361271e565b6001600160a01b038416600090815260066020908152604080832093909355600890529081208054839290611da6908490613028565b90915550506001600160a01b03831660009081526008602052604081206001018054849290611dd6908490613028565b9091555050505050565b82600003611e305760405162461bcd60e51b815260206004820181905260248201527f4173796e635661756c743a20496e76616c696420617373657420616d6f756e74604482015260640161104b565b6001600160a01b03821615801590611e5057506001600160a01b03811615155b611e6c5760405162461bcd60e51b815260040161104b9061314f565b6001600160a01b038116600090815260096020908152604080832033845290915281205460ff16611e9d5733611e9f565b815b9050610c118484848461272a565b6001600160a01b038316600090815260056020526040902054611ed0908361271e565b6001600160a01b038416600090815260056020908152604080832093909355600790529081208054849290611f06908490613028565b90915550506001600160a01b03831660009081526007602052604081206001018054839290611dd6908490613028565b6000826000190484118302158202611f4d57600080fd5b5091020490565b610c1184856001600160a01b03166323b872dd868686604051602401611f7c93929190612ca0565b604051602081830303815290604052915060e01b6020820180516001600160e01b0383818316178352505050506127ca565b6000611fb982612579565b611fc28261151f565b841115611ff0578184611fd48461151f565b604051633fa733bb60e21b815260040161104b9392919061312e565b6001600160a01b038216600090815260086020908152604091829020825180840190935280548352600101549082015261202a81866125d4565b915061203885838686612824565b9695505050505050565b600061204d82612579565b61205682611552565b84111561208457818461206884611552565b60405163f046f30360e01b815260040161104b9392919061312e565b6001600160a01b03821660009081526008602090815260409182902082518084019093528054835260010154908201526120be818661284a565b915061185d82868686612824565b600c54600d546000916001600160a01b03169082906120ec908590611b51565b905080826001600160a01b03166370a08231306040518263ffffffff1660e01b815260040161211b9190612dec565b602060405180830381865afa158015612138573d6000803e3d6000fd5b505050506040513d601f19601f8201168201806040525081019061215c9190612f3c565b10156121aa5760405162461bcd60e51b815260206004820152601e60248201527f46433a20496e73756666696369656e7420746f6b656e2062616c616e63650000604482015260640161104b565b600b546121c4906001600160a01b038481169116836121ce565b6113258185612fd4565b610d2983846001600160a01b031663a9059cbb8585604051602401611f7c929190613190565b60006121ff82612579565b612208826113b9565b84111561223657828461221a846113b9565b60405163284ff66760e01b815260040161104b9392919061312e565b6001600160a01b0382166000908152600760209081526040918290208251808401909352805483526001015490820152612270818661284a565b9150612038828686866125e9565b61271081106122c15760405162461bcd60e51b815260206004820152600f60248201526e46433a20496e76616c69642066656560881b604482015260640161104b565b600b80546001600160a01b038581166001600160a01b03199283168117909355600c8054918616919092168117909155600d83905560408051928352602083019190915281018290527febd34b2df88ea5c9f67c04b13b08e5e63c2d17e269aab73b866fe47a8736a2649060600160405180910390a1505050565b60008061234a86868661285f565b905061235583612923565b801561237157506000848061236c5761236c612ffe565b868809115b1561238457612381600182613028565b90505b95945050505050565b6001600160a01b0384166123b757600060405163e602df0560e01b815260040161104b9190612dec565b6001600160a01b0383166123e1576000604051634a1406b160e11b815260040161104b9190612dec565b6001600160a01b0380851660009081526001602090815260408083209387168352929052208290558015610c1157826001600160a01b0316846001600160a01b03167f8c5be1e5ebec7d5bd14f71427d1e84f3dd0314c0f7b2291e5b200ac8c7c3b9258460405161245491815260200190565b60405180910390a350505050565b6001600160a01b03831661248d5780600260008282546124829190613028565b909155506124ec9050565b6001600160a01b038316600090815260208190526040902054818110156124cd5783818360405163391434e360e21b815260040161104b9392919061312e565b6001600160a01b03841660009081526020819052604090209082900390555b6001600160a01b03821661250857600280548290039055612527565b6001600160a01b03821660009081526020819052604090208054820190555b816001600160a01b0316836001600160a01b03167fddf252ad1be2c89b69c2b068fc378daa952ba7f163c4a11628f55a4df523b3ef8360405161256c91815260200190565b60405180910390a3505050565b336001600160a01b038216148015906125b657506001600160a01b038116600090815260096020908152604080832033845290915290205460ff16155b1561164b576040516336abb4df60e11b815260040160405180910390fd5b6000610bad8360200151838560000151611f36565b6001600160a01b0380821660008181526007602052604080822080548990038155600101805488900390555190928392908616917fdcbc1c05240f31ff3ad067ef1ee35ce4997762752e3a095284754544f4c709d790612655908a908a90918252602082015260400190565b60405180910390a36126678486612950565b50929492505050565b61267a8282610f8e565b61160c57808260405163e2517d3f60e01b815260040161104b929190613190565b6126a6813086612462565b6001600160a01b0383166000908152600660205260409020546126c99085612986565b6001600160a01b038085166000818152600660205260409081902093909355915190841691907f9d2f438fa9d25ba84aa5ca2b229d4ad0edad29fa7299e8f7dab10d9bc582391c906124549085908990613190565b6000610bad8284612fd4565b6001600160a01b03831660009081526005602052604090205461274d9085612986565b6001600160a01b038416600090815260056020526040902055612785813086612774610d2e565b6001600160a01b0316929190611f54565b816001600160a01b0316836001600160a01b03167f21c9033b0fdf75a8e4138c4bd5aeae053eee01f1fbd47d59cde75ea492c156e38387604051612454929190613190565b60006127df6001600160a01b03841683612992565b9050805160001415801561280457508080602001905181019061280291906131a9565b155b15610d295782604051635274afe760e01b815260040161104b9190612dec565b60008061283186856129a0565b61283d868686866129d5565b9150915094509492505050565b6000610bad8360000151838560200151611f36565b60008383028160001985870982811083820303915050806000036128965783828161288c5761288c612ffe565b0492505050610bad565b8084116128b65760405163227bc15360e01b815260040160405180910390fd5b6000848688096000868103871696879004966002600389028118808a02820302808a02820302808a02820302808a02820302808a02820302808a02909103029181900381900460010186841190950394909402919094039290920491909117919091029150509392505050565b60006002826003811115612939576129396131c6565b61294391906131dc565b60ff166001149050919050565b6001600160a01b03821661297a57600060405163ec442f0560e01b815260040161104b9190612dec565b61160c60008383612462565b6000610bad8284613028565b6060610bad83836000612a7b565b6129ab6000826113e4565b505033600090815260116020526040812080548492906129cc908490612fd4565b90915550505050565b6001600160a01b0381166000908152600860205260408120805486900381556001018054859003905580612a093086612b0e565b612a268487612a16610d2e565b6001600160a01b031691906121ce565b60408051878152602081018790526001600160a01b03808616929087169133917ffbde797d201c681b91056529119e0b02407c7bb96a4a2c75c01fc9667232c8db910160405180910390a45093949293505050565b606081471015612aa0573060405163cd78605960e01b815260040161104b9190612dec565b600080856001600160a01b03168486604051612abc91906131fe565b60006040518083038185875af1925050503d8060008114612af9576040519150601f19603f3d011682016040523d82523d6000602084013e612afe565b606091505b5091509150612038868383612b44565b6001600160a01b038216612b38576000604051634b637e8f60e11b815260040161104b9190612dec565b61160c82600083612462565b606082612b5957612b5482612b97565b610bad565b8151158015612b7057506001600160a01b0384163b155b15612b905783604051639996b31560e01b815260040161104b9190612dec565b5080610bad565b805115612ba75780518082602001fd5b604051630a12f52160e11b815260040160405180910390fd5b600060208284031215612bd257600080fd5b81356001600160e01b031981168114610bad57600080fd5b60005b83811015612c05578181015183820152602001612bed565b50506000910152565b6020815260008251806020840152612c2d816040850160208701612bea565b601f01601f19169190910160400192915050565b600060208284031215612c5357600080fd5b5035919050565b80356001600160a01b0381168114612c7157600080fd5b919050565b60008060408385031215612c8957600080fd5b612c9283612c5a565b946020939093013593505050565b6001600160a01b039384168152919092166020820152604081019190915260600190565b600060208284031215612cd657600080fd5b813562ffffff81168114610bad57600080fd5b600080600060608486031215612cfe57600080fd5b612d0784612c5a565b9250612d1560208501612c5a565b9150604084013590509250925092565b600080600060608486031215612d3a57600080fd5b83359250612d4a60208501612c5a565b9150612d5860408501612c5a565b90509250925092565b60008060408385031215612d7457600080fd5b82359150612d8460208401612c5a565b90509250929050565b600060208284031215612d9f57600080fd5b610bad82612c5a565b6020808252825182820181905260009190848201906040850190845b81811015612de057835183529284019291840191600101612dc4565b50909695505050505050565b6001600160a01b0391909116815260200190565b801515811461164b57600080fd5b60008060408385031215612e2157600080fd5b612e2a83612c5a565b91506020830135612e3a81612e00565b809150509250929050565b60008060408385031215612e5857600080fd5b612e6183612c5a565b9150612d8460208401612c5a565b6020808252825182820181905260009190848201906040850190845b81811015612de05783516001600160a01b031683529284019291840191600101612e8b565b634e487b7160e01b600052604160045260246000fd5b600060608284031215612ed857600080fd5b6040516060810181811067ffffffffffffffff82111715612f0957634e487b7160e01b600052604160045260246000fd5b604052612f1583612c5a565b8152612f2360208401612c5a565b6020820152604083013560408201528091505092915050565b600060208284031215612f4e57600080fd5b5051919050565b600181811c90821680612f6957607f821691505b602082108103612f8957634e487b7160e01b600052602260045260246000fd5b50919050565b634e487b7160e01b600052601160045260246000fd5b60ff8181168382160190811115610a6457610a64612f8f565b634e487b7160e01b600052603260045260246000fd5b81810381811115610a6457610a64612f8f565b8082028115828204841417610a6457610a64612f8f565b634e487b7160e01b600052601260045260246000fd5b60008261302357613023612ffe565b500490565b80820180821115610a6457610a64612f8f565b600181815b8085111561307657816000190482111561305c5761305c612f8f565b8085161561306957918102915b93841c9390800290613040565b509250929050565b60008261308d57506001610a64565b8161309a57506000610a64565b81600181146130b057600281146130ba576130d6565b6001915050610a64565b60ff8411156130cb576130cb612f8f565b50506001821b610a64565b5060208310610133831016604e8410600b84101617156130f9575081810a610a64565b613103838361303b565b806000190482111561311757613117612f8f565b029392505050565b6000610bad60ff84168361307e565b6001600160a01b039390931683526020830191909152604082015260600190565b60208082526021908201527f4173796e635661756c743a20496e76616c6964206f776e6572206164647265736040820152607360f81b606082015260800190565b6001600160a01b03929092168252602082015260400190565b6000602082840312156131bb57600080fd5b8151610bad81612e00565b634e487b7160e01b600052602160045260246000fd5b600060ff8316806131ef576131ef612ffe565b8060ff84160691505092915050565b60008251613210818460208701612bea565b919091019291505056fea2646970667358221220c8d2871aaf342f86ac1f6b09f2d3b0b5779c6e86187bef8da82f4cc9b7501d1764736f6c63430008180033a26469706673582212203223d050de03f96f008fd30eb87ab81ca0111e50f1e87a52677c2061827cc57764736f6c63430008180033",
  "linkReferences": {},
  "deployedLinkReferences": {}
}