{
  "_format": "hh-sol-artifact-1",
  "contractName": "AsyncVault",
  "sourceName": "contracts/erc7540/AsyncVault.sol",
  "abi": [
    {
      "inputs": [
        {
          "internalType": "contract ERC20",
          "name": "_underlying",
          "type": "address"
        },
        {
          "internalType": "string",
          "name": "_name",
          "type": "string"
        },
        {
          "internalType": "string",
          "name": "_symbol",
          "type": "string"
        },
        {
          "components": [
            {
              "internalType": "address",
              "name": "receiver",
              "type": "address"
            },
            {
              "internalType": "address",
              "name": "token",
              "type": "address"
            },
            {
              "internalType": "uint256",
              "name": "feePercentage",
              "type": "uint256"
            }
          ],
          "internalType": "struct FeeConfiguration.FeeConfig",
          "name": "_feeConfig",
          "type": "tuple"
        },
        {
          "internalType": "address",
          "name": "_vaultRewardController",
          "type": "address"
        },
        {
          "internalType": "address",
          "name": "_feeConfigController",
          "type": "address"
        }
      ],
      "stateMutability": "payable",
      "type": "constructor"
    },
    {
      "inputs": [],
      "name": "AccessControlBadConfirmation",
      "type": "error"
    },
    {
      "inputs": [
        {
          "internalType": "address",
          "name": "account",
          "type": "address"
        },
        {
          "internalType": "bytes32",
          "name": "neededRole",
          "type": "bytes32"
        }
      ],
      "name": "AccessControlUnauthorizedAccount",
      "type": "error"
    },
    {
      "inputs": [
        {
          "internalType": "address",
          "name": "target",
          "type": "address"
        }
      ],
      "name": "AddressEmptyCode",
      "type": "error"
    },
    {
      "inputs": [
        {
          "internalType": "address",
          "name": "account",
          "type": "address"
        }
      ],
      "name": "AddressInsufficientBalance",
      "type": "error"
    },
    {
      "inputs": [],
      "name": "ERC7540CantRequestDepositOnBehalfOf",
      "type": "error"
    },
    {
      "inputs": [],
      "name": "FailedInnerCall",
      "type": "error"
    },
    {
      "inputs": [
        {
          "internalType": "address",
          "name": "controller",
          "type": "address"
        },
        {
          "internalType": "uint256",
          "name": "assets",
          "type": "uint256"
        },
        {
          "internalType": "uint256",
          "name": "maxDeposit",
          "type": "uint256"
        }
      ],
      "name": "MaxDepositRequestExceeded",
      "type": "error"
    },
    {
      "inputs": [
        {
          "internalType": "address",
          "name": "controller",
          "type": "address"
        },
        {
          "internalType": "uint256",
          "name": "shares",
          "type": "uint256"
        },
        {
          "internalType": "uint256",
          "name": "maxShares",
          "type": "uint256"
        }
      ],
      "name": "MaxRedeemRequestExceeded",
      "type": "error"
    },
    {
      "inputs": [],
      "name": "MaxRewardTokensAmount",
      "type": "error"
    },
    {
      "inputs": [
        {
          "internalType": "address",
          "name": "owner",
          "type": "address"
        }
      ],
      "name": "OwnableInvalidOwner",
      "type": "error"
    },
    {
      "inputs": [
        {
          "internalType": "address",
          "name": "account",
          "type": "address"
        }
      ],
      "name": "OwnableUnauthorizedAccount",
      "type": "error"
    },
    {
      "inputs": [],
      "name": "ReentrancyGuardReentrantCall",
      "type": "error"
    },
    {
      "inputs": [
        {
          "internalType": "address",
          "name": "token",
          "type": "address"
        }
      ],
      "name": "SafeERC20FailedOperation",
      "type": "error"
    },
    {
      "anonymous": false,
      "inputs": [
        {
          "indexed": true,
          "internalType": "address",
          "name": "owner",
          "type": "address"
        },
        {
          "indexed": true,
          "internalType": "address",
          "name": "spender",
          "type": "address"
        },
        {
          "indexed": false,
          "internalType": "uint256",
          "name": "amount",
          "type": "uint256"
        }
      ],
      "name": "Approval",
      "type": "event"
    },
    {
      "anonymous": false,
      "inputs": [
        {
          "indexed": true,
          "internalType": "address",
          "name": "owner",
          "type": "address"
        },
        {
          "indexed": true,
          "internalType": "address",
          "name": "operator",
          "type": "address"
        },
        {
          "indexed": false,
          "internalType": "uint256",
          "name": "assets",
          "type": "uint256"
        },
        {
          "indexed": false,
          "internalType": "uint256",
          "name": "shares",
          "type": "uint256"
        }
      ],
      "name": "ClaimDeposit",
      "type": "event"
    },
    {
      "anonymous": false,
      "inputs": [
        {
          "indexed": true,
          "internalType": "address",
          "name": "owner",
          "type": "address"
        },
        {
          "indexed": true,
          "internalType": "address",
          "name": "operator",
          "type": "address"
        },
        {
          "indexed": false,
          "internalType": "uint256",
          "name": "assets",
          "type": "uint256"
        },
        {
          "indexed": false,
          "internalType": "uint256",
          "name": "shares",
          "type": "uint256"
        }
      ],
      "name": "ClaimRedeem",
      "type": "event"
    },
    {
      "anonymous": false,
      "inputs": [
        {
          "indexed": true,
          "internalType": "address",
          "name": "createdToken",
          "type": "address"
        }
      ],
      "name": "CreatedToken",
      "type": "event"
    },
    {
      "anonymous": false,
      "inputs": [
        {
          "indexed": true,
          "internalType": "address",
          "name": "owner",
          "type": "address"
        },
        {
          "indexed": true,
          "internalType": "uint256",
          "name": "previousRequestedAssets",
          "type": "uint256"
        },
        {
          "indexed": false,
          "internalType": "uint256",
          "name": "newRequestedAssets",
          "type": "uint256"
        }
      ],
      "name": "DecreaseDepositRequest",
      "type": "event"
    },
    {
      "anonymous": false,
      "inputs": [
        {
          "indexed": true,
          "internalType": "address",
          "name": "controller",
          "type": "address"
        },
        {
          "indexed": true,
          "internalType": "address",
          "name": "owner",
          "type": "address"
        },
        {
          "indexed": false,
          "internalType": "address",
          "name": "sender",
          "type": "address"
        },
        {
          "indexed": false,
          "internalType": "uint256",
          "name": "assets",
          "type": "uint256"
        }
      ],
      "name": "DepositRequested",
      "type": "event"
    },
    {
      "anonymous": false,
      "inputs": [
        {
          "components": [
            {
              "internalType": "address",
              "name": "receiver",
              "type": "address"
            },
            {
              "internalType": "address",
              "name": "token",
              "type": "address"
            },
            {
              "internalType": "uint256",
              "name": "feePercentage",
              "type": "uint256"
            }
          ],
          "indexed": false,
          "internalType": "struct FeeConfiguration.FeeConfig",
          "name": "feeConfig",
          "type": "tuple"
        }
      ],
      "name": "FeeConfigUpdated",
      "type": "event"
    },
    {
      "anonymous": false,
      "inputs": [
        {
          "indexed": true,
          "internalType": "address",
          "name": "previousOwner",
          "type": "address"
        },
        {
          "indexed": true,
          "internalType": "address",
          "name": "newOwner",
          "type": "address"
        }
      ],
      "name": "OwnershipTransferred",
      "type": "event"
    },
    {
      "anonymous": false,
      "inputs": [
        {
          "indexed": true,
          "internalType": "address",
          "name": "controller",
          "type": "address"
        },
        {
          "indexed": true,
          "internalType": "address",
          "name": "owner",
          "type": "address"
        },
        {
          "indexed": false,
          "internalType": "address",
          "name": "sender",
          "type": "address"
        },
        {
          "indexed": false,
          "internalType": "uint256",
          "name": "shares",
          "type": "uint256"
        }
      ],
      "name": "RedeemRequested",
      "type": "event"
    },
    {
      "anonymous": false,
      "inputs": [
        {
          "indexed": true,
          "internalType": "address",
          "name": "rewardToken",
          "type": "address"
        },
        {
          "indexed": false,
          "internalType": "uint256",
          "name": "amount",
          "type": "uint256"
        }
      ],
      "name": "RewardAdded",
      "type": "event"
    },
    {
      "anonymous": false,
      "inputs": [
        {
          "indexed": true,
          "internalType": "bytes32",
          "name": "role",
          "type": "bytes32"
        },
        {
          "indexed": true,
          "internalType": "bytes32",
          "name": "previousAdminRole",
          "type": "bytes32"
        },
        {
          "indexed": true,
          "internalType": "bytes32",
          "name": "newAdminRole",
          "type": "bytes32"
        }
      ],
      "name": "RoleAdminChanged",
      "type": "event"
    },
    {
      "anonymous": false,
      "inputs": [
        {
          "indexed": true,
          "internalType": "bytes32",
          "name": "role",
          "type": "bytes32"
        },
        {
          "indexed": true,
          "internalType": "address",
          "name": "account",
          "type": "address"
        },
        {
          "indexed": true,
          "internalType": "address",
          "name": "sender",
          "type": "address"
        }
      ],
      "name": "RoleGranted",
      "type": "event"
    },
    {
      "anonymous": false,
      "inputs": [
        {
          "indexed": true,
          "internalType": "bytes32",
          "name": "role",
          "type": "bytes32"
        },
        {
          "indexed": true,
          "internalType": "address",
          "name": "account",
          "type": "address"
        },
        {
          "indexed": true,
          "internalType": "address",
          "name": "sender",
          "type": "address"
        }
      ],
      "name": "RoleRevoked",
      "type": "event"
    },
    {
      "anonymous": false,
      "inputs": [
        {
          "indexed": true,
          "internalType": "address",
          "name": "from",
          "type": "address"
        },
        {
          "indexed": true,
          "internalType": "address",
          "name": "to",
          "type": "address"
        },
        {
          "indexed": false,
          "internalType": "uint256",
          "name": "amount",
          "type": "uint256"
        }
      ],
      "name": "Transfer",
      "type": "event"
    },
    {
      "inputs": [],
      "name": "DEFAULT_ADMIN_ROLE",
      "outputs": [
        {
          "internalType": "bytes32",
          "name": "",
          "type": "bytes32"
        }
      ],
      "stateMutability": "view",
      "type": "function"
    },
    {
      "inputs": [],
      "name": "DOMAIN_SEPARATOR",
      "outputs": [
        {
          "internalType": "bytes32",
          "name": "",
          "type": "bytes32"
        }
      ],
      "stateMutability": "view",
      "type": "function"
    },
    {
      "inputs": [],
      "name": "FEE_CONFIG_CONTROLLER_ROLE",
      "outputs": [
        {
          "internalType": "bytes32",
          "name": "",
          "type": "bytes32"
        }
      ],
      "stateMutability": "view",
      "type": "function"
    },
    {
      "inputs": [],
      "name": "VAULT_REWARD_CONTROLLER_ROLE",
      "outputs": [
        {
          "internalType": "bytes32",
          "name": "",
          "type": "bytes32"
        }
      ],
      "stateMutability": "view",
      "type": "function"
    },
    {
      "inputs": [
        {
          "internalType": "address",
          "name": "_token",
          "type": "address"
        },
        {
          "internalType": "uint256",
          "name": "_amount",
          "type": "uint256"
        }
      ],
      "name": "addReward",
      "outputs": [],
      "stateMutability": "payable",
      "type": "function"
    },
    {
      "inputs": [
        {
          "internalType": "address",
          "name": "",
          "type": "address"
        },
        {
          "internalType": "address",
          "name": "",
          "type": "address"
        }
      ],
      "name": "allowance",
      "outputs": [
        {
          "internalType": "uint256",
          "name": "",
          "type": "uint256"
        }
      ],
      "stateMutability": "view",
      "type": "function"
    },
    {
      "inputs": [
        {
          "internalType": "address",
          "name": "spender",
          "type": "address"
        },
        {
          "internalType": "uint256",
          "name": "amount",
          "type": "uint256"
        }
      ],
      "name": "approve",
      "outputs": [
        {
          "internalType": "bool",
          "name": "",
          "type": "bool"
        }
      ],
      "stateMutability": "nonpayable",
      "type": "function"
    },
    {
      "inputs": [],
      "name": "asset",
      "outputs": [
        {
          "internalType": "address",
          "name": "",
          "type": "address"
        }
      ],
      "stateMutability": "view",
      "type": "function"
    },
    {
      "inputs": [],
      "name": "assetTotalSupply",
      "outputs": [
        {
          "internalType": "uint256",
          "name": "",
          "type": "uint256"
        }
      ],
      "stateMutability": "view",
      "type": "function"
    },
    {
      "inputs": [
        {
          "internalType": "address",
          "name": "",
          "type": "address"
        }
      ],
      "name": "balanceOf",
      "outputs": [
        {
          "internalType": "uint256",
          "name": "",
          "type": "uint256"
        }
      ],
      "stateMutability": "view",
      "type": "function"
    },
    {
      "inputs": [
        {
          "internalType": "uint256",
          "name": "_startPosition",
          "type": "uint256"
        }
      ],
      "name": "claimAllReward",
      "outputs": [
        {
          "internalType": "uint256",
          "name": "",
          "type": "uint256"
        },
        {
          "internalType": "uint256",
          "name": "",
          "type": "uint256"
        }
      ],
      "stateMutability": "payable",
      "type": "function"
    },
    {
      "inputs": [
        {
          "internalType": "address",
          "name": "receiver",
          "type": "address"
        }
      ],
      "name": "claimDeposit",
      "outputs": [
        {
          "internalType": "uint256",
          "name": "shares",
          "type": "uint256"
        }
      ],
      "stateMutability": "nonpayable",
      "type": "function"
    },
    {
      "inputs": [
        {
          "internalType": "address",
          "name": "receiver",
          "type": "address"
        }
      ],
      "name": "claimRedeem",
      "outputs": [
        {
          "internalType": "uint256",
          "name": "assets",
          "type": "uint256"
        }
      ],
      "stateMutability": "nonpayable",
      "type": "function"
    },
    {
      "inputs": [],
      "name": "decimals",
      "outputs": [
        {
          "internalType": "uint8",
          "name": "",
          "type": "uint8"
        }
      ],
      "stateMutability": "view",
      "type": "function"
    },
    {
      "inputs": [
        {
          "internalType": "uint256",
          "name": "assets",
          "type": "uint256"
        }
      ],
      "name": "decreaseDepositRequest",
      "outputs": [],
      "stateMutability": "nonpayable",
      "type": "function"
    },
    {
      "inputs": [
        {
          "internalType": "address",
          "name": "",
          "type": "address"
        }
      ],
      "name": "deposits",
      "outputs": [
        {
          "internalType": "uint256",
          "name": "",
          "type": "uint256"
        }
      ],
      "stateMutability": "view",
      "type": "function"
    },
    {
      "inputs": [],
      "name": "feeConfig",
      "outputs": [
        {
          "internalType": "address",
          "name": "receiver",
          "type": "address"
        },
        {
          "internalType": "address",
          "name": "token",
          "type": "address"
        },
        {
          "internalType": "uint256",
          "name": "feePercentage",
          "type": "uint256"
        }
      ],
      "stateMutability": "view",
      "type": "function"
    },
    {
      "inputs": [
        {
          "internalType": "address",
          "name": "_user",
          "type": "address"
        }
      ],
      "name": "getAllRewards",
      "outputs": [
        {
          "internalType": "uint256[]",
          "name": "_rewards",
          "type": "uint256[]"
        }
      ],
      "stateMutability": "view",
      "type": "function"
    },
    {
      "inputs": [],
      "name": "getRewardTokens",
      "outputs": [
        {
          "internalType": "address[]",
          "name": "",
          "type": "address[]"
        }
      ],
      "stateMutability": "view",
      "type": "function"
    },
    {
      "inputs": [
        {
          "internalType": "bytes32",
          "name": "role",
          "type": "bytes32"
        }
      ],
      "name": "getRoleAdmin",
      "outputs": [
        {
          "internalType": "bytes32",
          "name": "",
          "type": "bytes32"
        }
      ],
      "stateMutability": "view",
      "type": "function"
    },
    {
      "inputs": [
        {
          "internalType": "address",
          "name": "_user",
          "type": "address"
        },
        {
          "internalType": "address",
          "name": "_rewardToken",
          "type": "address"
        }
      ],
      "name": "getUserReward",
      "outputs": [
        {
          "internalType": "uint256",
          "name": "unclaimedAmount",
          "type": "uint256"
        }
      ],
      "stateMutability": "view",
      "type": "function"
    },
    {
      "inputs": [
        {
          "internalType": "bytes32",
          "name": "role",
          "type": "bytes32"
        },
        {
          "internalType": "address",
          "name": "account",
          "type": "address"
        }
      ],
      "name": "grantRole",
      "outputs": [],
      "stateMutability": "nonpayable",
      "type": "function"
    },
    {
      "inputs": [
        {
          "internalType": "bytes32",
          "name": "role",
          "type": "bytes32"
        },
        {
          "internalType": "address",
          "name": "account",
          "type": "address"
        }
      ],
      "name": "hasRole",
      "outputs": [
        {
          "internalType": "bool",
          "name": "",
          "type": "bool"
        }
      ],
      "stateMutability": "view",
      "type": "function"
    },
    {
      "inputs": [
        {
          "internalType": "address",
          "name": "",
          "type": "address"
        }
      ],
      "name": "maxDepositRequest",
      "outputs": [
        {
          "internalType": "uint256",
          "name": "",
          "type": "uint256"
        }
      ],
      "stateMutability": "pure",
      "type": "function"
    },
    {
      "inputs": [
        {
          "internalType": "address",
          "name": "owner",
          "type": "address"
        }
      ],
      "name": "maxRedeemRequest",
      "outputs": [
        {
          "internalType": "uint256",
          "name": "",
          "type": "uint256"
        }
      ],
      "stateMutability": "view",
      "type": "function"
    },
    {
      "inputs": [],
      "name": "name",
      "outputs": [
        {
          "internalType": "string",
          "name": "",
          "type": "string"
        }
      ],
      "stateMutability": "view",
      "type": "function"
    },
    {
      "inputs": [
        {
          "internalType": "address",
          "name": "",
          "type": "address"
        }
      ],
      "name": "nonces",
      "outputs": [
        {
          "internalType": "uint256",
          "name": "",
          "type": "uint256"
        }
      ],
      "stateMutability": "view",
      "type": "function"
    },
    {
      "inputs": [],
      "name": "owner",
      "outputs": [
        {
          "internalType": "address",
          "name": "",
          "type": "address"
        }
      ],
      "stateMutability": "view",
      "type": "function"
    },
    {
      "inputs": [
        {
          "internalType": "address",
          "name": "owner",
          "type": "address"
        }
      ],
      "name": "pendingDepositRequest",
      "outputs": [
        {
          "internalType": "uint256",
          "name": "assets",
          "type": "uint256"
        }
      ],
      "stateMutability": "view",
      "type": "function"
    },
    {
      "inputs": [
        {
          "internalType": "address",
          "name": "owner",
          "type": "address"
        }
      ],
      "name": "pendingRedeemRequest",
      "outputs": [
        {
          "internalType": "uint256",
          "name": "shares",
          "type": "uint256"
        }
      ],
      "stateMutability": "view",
      "type": "function"
    },
    {
      "inputs": [
        {
          "internalType": "address",
          "name": "owner",
          "type": "address"
        },
        {
          "internalType": "address",
          "name": "spender",
          "type": "address"
        },
        {
          "internalType": "uint256",
          "name": "value",
          "type": "uint256"
        },
        {
          "internalType": "uint256",
          "name": "deadline",
          "type": "uint256"
        },
        {
          "internalType": "uint8",
          "name": "v",
          "type": "uint8"
        },
        {
          "internalType": "bytes32",
          "name": "r",
          "type": "bytes32"
        },
        {
          "internalType": "bytes32",
          "name": "s",
          "type": "bytes32"
        }
      ],
      "name": "permit",
      "outputs": [],
      "stateMutability": "nonpayable",
      "type": "function"
    },
    {
      "inputs": [
        {
          "internalType": "address",
          "name": "_owner",
          "type": "address"
        }
      ],
      "name": "previewClaimDeposit",
      "outputs": [
        {
          "internalType": "uint256",
          "name": "",
          "type": "uint256"
        }
      ],
      "stateMutability": "view",
      "type": "function"
    },
    {
      "inputs": [
        {
          "internalType": "address",
          "name": "owner",
          "type": "address"
        }
      ],
      "name": "previewClaimRedeem",
      "outputs": [
        {
          "internalType": "uint256",
          "name": "",
          "type": "uint256"
        }
      ],
      "stateMutability": "view",
      "type": "function"
    },
    {
      "inputs": [
        {
          "internalType": "address",
          "name": "",
          "type": "address"
        }
      ],
      "name": "redeems",
      "outputs": [
        {
          "internalType": "uint256",
          "name": "",
          "type": "uint256"
        }
      ],
      "stateMutability": "view",
      "type": "function"
    },
    {
      "inputs": [],
      "name": "renounceOwnership",
      "outputs": [],
      "stateMutability": "nonpayable",
      "type": "function"
    },
    {
      "inputs": [
        {
          "internalType": "bytes32",
          "name": "role",
          "type": "bytes32"
        },
        {
          "internalType": "address",
          "name": "callerConfirmation",
          "type": "address"
        }
      ],
      "name": "renounceRole",
      "outputs": [],
      "stateMutability": "nonpayable",
      "type": "function"
    },
    {
      "inputs": [
        {
          "internalType": "uint256",
          "name": "assets",
          "type": "uint256"
        },
        {
          "internalType": "address",
          "name": "operator",
          "type": "address"
        },
        {
          "internalType": "address",
          "name": "owner",
          "type": "address"
        }
      ],
      "name": "requestDeposit",
      "outputs": [],
      "stateMutability": "nonpayable",
      "type": "function"
    },
    {
      "inputs": [
        {
          "internalType": "uint256",
          "name": "shares",
          "type": "uint256"
        },
        {
          "internalType": "address",
          "name": "operator",
          "type": "address"
        },
        {
          "internalType": "address",
          "name": "owner",
          "type": "address"
        }
      ],
      "name": "requestRedeem",
      "outputs": [],
      "stateMutability": "nonpayable",
      "type": "function"
    },
    {
      "inputs": [
        {
          "internalType": "bytes32",
          "name": "role",
          "type": "bytes32"
        },
        {
          "internalType": "address",
          "name": "account",
          "type": "address"
        }
      ],
      "name": "revokeRole",
      "outputs": [],
      "stateMutability": "nonpayable",
      "type": "function"
    },
    {
      "inputs": [
        {
          "internalType": "uint256",
          "name": "",
          "type": "uint256"
        }
      ],
      "name": "rewardTokens",
      "outputs": [
        {
          "internalType": "address",
          "name": "",
          "type": "address"
        }
      ],
      "stateMutability": "view",
      "type": "function"
    },
    {
      "inputs": [],
      "name": "share",
      "outputs": [
        {
          "internalType": "address",
          "name": "",
          "type": "address"
        }
      ],
      "stateMutability": "view",
      "type": "function"
    },
    {
      "inputs": [
        {
          "internalType": "bytes4",
          "name": "interfaceId",
          "type": "bytes4"
        }
      ],
      "name": "supportsInterface",
      "outputs": [
        {
          "internalType": "bool",
          "name": "",
          "type": "bool"
        }
      ],
      "stateMutability": "view",
      "type": "function"
    },
    {
      "inputs": [],
      "name": "symbol",
      "outputs": [
        {
          "internalType": "string",
          "name": "",
          "type": "string"
        }
      ],
      "stateMutability": "view",
      "type": "function"
    },
    {
      "inputs": [
        {
          "internalType": "address",
          "name": "",
          "type": "address"
        }
      ],
      "name": "tokensRewardInfo",
      "outputs": [
        {
          "internalType": "uint256",
          "name": "amount",
          "type": "uint256"
        },
        {
          "internalType": "bool",
          "name": "exist",
          "type": "bool"
        }
      ],
      "stateMutability": "view",
      "type": "function"
    },
    {
      "inputs": [],
      "name": "totalAssets",
      "outputs": [
        {
          "internalType": "uint256",
          "name": "",
          "type": "uint256"
        }
      ],
      "stateMutability": "view",
      "type": "function"
    },
    {
      "inputs": [],
      "name": "totalSupply",
      "outputs": [
        {
          "internalType": "uint256",
          "name": "",
          "type": "uint256"
        }
      ],
      "stateMutability": "view",
      "type": "function"
    },
    {
      "inputs": [
        {
          "internalType": "address",
          "name": "to",
          "type": "address"
        },
        {
          "internalType": "uint256",
          "name": "amount",
          "type": "uint256"
        }
      ],
      "name": "transfer",
      "outputs": [
        {
          "internalType": "bool",
          "name": "",
          "type": "bool"
        }
      ],
      "stateMutability": "nonpayable",
      "type": "function"
    },
    {
      "inputs": [
        {
          "internalType": "address",
          "name": "from",
          "type": "address"
        },
        {
          "internalType": "address",
          "name": "to",
          "type": "address"
        },
        {
          "internalType": "uint256",
          "name": "amount",
          "type": "uint256"
        }
      ],
      "name": "transferFrom",
      "outputs": [
        {
          "internalType": "bool",
          "name": "",
          "type": "bool"
        }
      ],
      "stateMutability": "nonpayable",
      "type": "function"
    },
    {
      "inputs": [
        {
          "internalType": "address",
          "name": "newOwner",
          "type": "address"
        }
      ],
      "name": "transferOwnership",
      "outputs": [],
      "stateMutability": "nonpayable",
      "type": "function"
    },
    {
      "inputs": [
        {
          "components": [
            {
              "internalType": "address",
              "name": "receiver",
              "type": "address"
            },
            {
              "internalType": "address",
              "name": "token",
              "type": "address"
            },
            {
              "internalType": "uint256",
              "name": "feePercentage",
              "type": "uint256"
            }
          ],
          "internalType": "struct FeeConfiguration.FeeConfig",
          "name": "_feeConfig",
          "type": "tuple"
        }
      ],
      "name": "updateFeeConfig",
      "outputs": [],
      "stateMutability": "nonpayable",
      "type": "function"
    },
    {
      "inputs": [
        {
          "internalType": "address",
          "name": "",
          "type": "address"
        }
      ],
      "name": "userContribution",
      "outputs": [
        {
          "internalType": "uint256",
          "name": "sharesAmount",
          "type": "uint256"
        },
        {
          "internalType": "bool",
          "name": "exist",
          "type": "bool"
        }
      ],
      "stateMutability": "view",
      "type": "function"
    }
  ],
  "bytecode": "0x610100604052604051620036b6380380620036b6833981016040819052620000279162000543565b338585886001600160a01b031663313ce5676040518163ffffffff1660e01b8152600401602060405180830381865afa15801562000069573d6000803e3d6000fd5b505050506040513d601f19601f820116820180604052508101906200008f91906200063c565b60006200009d8482620006f9565b506001620000ac8382620006f9565b5060ff81166080524660a052620000c262000130565b60c05250506001600a55506001600160a01b038116620000fd57604051631e4fbdf760e01b8152600060048201526024015b60405180910390fd5b6200010881620001cc565b50620001168383836200021e565b5050506001600160a01b0390921660e05250620008439050565b60007f8b73c3c69bb8fe3d512ecc4cf759cc79239f7b179b0ffacaa9a75d522b39400f6000604051620001649190620007c5565b6040805191829003822060208301939093528101919091527fc89efdaa54c0f20c7adf612882df0950f5a951637e0307cdcb4c672f298b8bc660608201524660808201523060a082015260c00160405160208183030381529060405280519060200120905090565b600b80546001600160a01b038381166001600160a01b0319831681179093556040519116919082907f8be0079c531659141344cd1fd0a4f28419497f9722a3daafe3b4186f6b6457e090600090a35050565b82516020840151604085015162000237929190620002a4565b6200024460003362000364565b50620002717f477fc23fb51bb5d5aa814872a393b0e4f35d0916c7503c0fd96584681070d4108362000364565b506200029e7f74e458455daa935f28c556b43e0cc4ad001a8a090f5feee376681e97d4618f468262000364565b50505050565b6127108110620002e95760405162461bcd60e51b815260206004820152600f60248201526e46433a20496e76616c69642066656560881b6044820152606401620000f4565b600780546001600160a01b038581166001600160a01b0319928316811790935560088054918616919092168117909155600983905560408051928352602083019190915281018290527febd34b2df88ea5c9f67c04b13b08e5e63c2d17e269aab73b866fe47a8736a2649060600160405180910390a1505050565b60008281526006602090815260408083206001600160a01b038516845290915281205460ff166200040d5760008381526006602090815260408083206001600160a01b03861684529091529020805460ff19166001179055620003c43390565b6001600160a01b0316826001600160a01b0316847f2f8788117e7eff1d82e926ec794901d17c78024a50270940304540a733656f0d60405160405180910390a450600162000411565b5060005b92915050565b6001600160a01b03811681146200042d57600080fd5b50565b634e487b7160e01b600052604160045260246000fd5b604051606081016001600160401b03811182821017156200046b576200046b62000430565b60405290565b604051601f8201601f191681016001600160401b03811182821017156200049c576200049c62000430565b604052919050565b600082601f830112620004b657600080fd5b81516001600160401b03811115620004d257620004d262000430565b6020620004e8601f8301601f1916820162000471565b8281528582848701011115620004fd57600080fd5b60005b838110156200051d57858101830151828201840152820162000500565b506000928101909101919091529392505050565b80516200053e8162000417565b919050565b6000806000806000808688036101008112156200055f57600080fd5b87516200056c8162000417565b60208901519097506001600160401b03808211156200058a57600080fd5b620005988b838c01620004a4565b975060408a0151915080821115620005af57600080fd5b50620005be8a828b01620004a4565b9550506060605f1982011215620005d457600080fd5b50620005df62000446565b6060880151620005ef8162000417565b81526080880151620006018162000417565b602082015260a0880151604082015292506200062060c0880162000531565b91506200063060e0880162000531565b90509295509295509295565b6000602082840312156200064f57600080fd5b815160ff811681146200066157600080fd5b9392505050565b600181811c908216806200067d57607f821691505b6020821081036200069e57634e487b7160e01b600052602260045260246000fd5b50919050565b601f821115620006f4576000816000526020600020601f850160051c81016020861015620006cf5750805b601f850160051c820191505b81811015620006f057828155600101620006db565b5050505b505050565b81516001600160401b0381111562000715576200071562000430565b6200072d8162000726845462000668565b84620006a4565b602080601f8311600181146200076557600084156200074c5750858301515b600019600386901b1c1916600185901b178555620006f0565b600085815260208120601f198616915b82811015620007965788860151825594840194600190910190840162000775565b5085821015620007b55787850151600019600388901b60f8161c191681555b5050505050600190811b01905550565b6000808354620007d58162000668565b60018281168015620007f05760018114620008065762000837565b60ff198416875282151583028701945062000837565b8760005260208060002060005b858110156200082e5781548a82015290840190820162000813565b50505082870194505b50929695505050505050565b60805160a05160c05160e051612e16620008a06000396000818161058301528181610a700152818161133f0152818161141b01528181611b450152611cd201526000610e4b01526000610e1b015260006104de0152612e166000f3fe6080604052600436106102b45760003560e01c80637bb7bed111610170578063c3702989116100cc578063db6b207411610085578063db6b207414610951578063dd62ed3e14610971578063de56603c146109a9578063e842cb42146109c9578063efa6f425146109e9578063f2fde38b14610a09578063fc7e286d14610a2957600080fd5b8063c370298914610862578063c4f59f9b14610898578063cd9cdfda146108ba578063d3181f5a146108f1578063d505accf14610911578063d547741f1461093157600080fd5b806391d148541161012957806391d148541461079e57806395d89b41146107be5780639feb8f50146107d3578063a217fddf146107e6578063a8d5fd65146107fb578063a9059cbb1461080e578063b4f6d6131461082e57600080fd5b80637bb7bed1146106dd5780637d41c86e146106fd5780637ecebe001461071d57806385b77f451461074a5780638da5cb5b1461076a5780638f12c2f41461078857600080fd5b8063313ce5671161021f578063511ffbff116101d8578063511ffbff146105d057806353dc1dd3146105fd57806353f22867146106335780635ab764ed1461065357806370a0823114610673578063715018a6146106a05780637a07bf3a146106b557600080fd5b8063313ce567146104cc578063362a3fad146105125780633644e5151461053f57806336568abe1461055457806338d52e0f1461057457806344b05fa2146105b057600080fd5b806316ad06721161027157806316ad0672146103a757806318160ddd146103f35780631e5eb1d01461040957806323b872dd1461045a578063248a9ca31461047a5780632f2ff15d146104aa57600080fd5b806301e1d114146102b957806301ffc9a7146102e157806305fb2a511461031157806306fdde0314610345578063095ea7b3146103675780630c5cb57214610387575b600080fd5b3480156102c557600080fd5b506102ce610a56565b6040519081526020015b60405180910390f35b3480156102ed57600080fd5b506103016102fc3660046127e3565b610aeb565b60405190151581526020016102d8565b34801561031d57600080fd5b506102ce7f74e458455daa935f28c556b43e0cc4ad001a8a090f5feee376681e97d4618f4681565b34801561035157600080fd5b5061035a610b22565b6040516102d89190612831565b34801561037357600080fd5b50610301610382366004612880565b610bb0565b34801561039357600080fd5b506102ce6103a23660046128aa565b610c1c565b3480156103b357600080fd5b506103de6103c23660046128aa565b6010602052600090815260409020805460029091015460ff1682565b604080519283529015156020830152016102d8565b3480156103ff57600080fd5b506102ce60025481565b34801561041557600080fd5b50600754600854600954610434926001600160a01b0390811692169083565b604080516001600160a01b039485168152939092166020840152908201526060016102d8565b34801561046657600080fd5b506103016104753660046128c5565b610c57565b34801561048657600080fd5b506102ce610495366004612901565b60009081526006602052604090206001015490565b3480156104b657600080fd5b506104ca6104c536600461291a565b610d39565b005b3480156104d857600080fd5b506105007f000000000000000000000000000000000000000000000000000000000000000081565b60405160ff90911681526020016102d8565b34801561051e57600080fd5b5061053261052d3660046128aa565b610d64565b6040516102d89190612946565b34801561054b57600080fd5b506102ce610e17565b34801561056057600080fd5b506104ca61056f36600461291a565b610e6d565b34801561058057600080fd5b507f00000000000000000000000000000000000000000000000000000000000000005b6040516102d8919061298a565b3480156105bc57600080fd5b506102ce6105cb3660046128aa565b610ea5565b3480156105dc57600080fd5b506102ce6105eb3660046128aa565b600f6020526000908152604090205481565b34801561060957600080fd5b506102ce6106183660046128aa565b6001600160a01b03166000908152600f602052604090205490565b34801561063f57600080fd5b506102ce61064e3660046128aa565b610ec7565b34801561065f57600080fd5b506102ce61066e36600461299e565b610ece565b34801561067f57600080fd5b506102ce61068e3660046128aa565b60036020526000908152604090205481565b3480156106ac57600080fd5b506104ca610faf565b6106c86106c3366004612901565b610fc3565b604080519283526020830191909152016102d8565b3480156106e957600080fd5b506105a36106f8366004612901565b6110fd565b34801561070957600080fd5b506104ca6107183660046129c8565b611127565b34801561072957600080fd5b506102ce6107383660046128aa565b60056020526000908152604090205481565b34801561075657600080fd5b506104ca6107653660046129c8565b61121e565b34801561077657600080fd5b50600b546001600160a01b03166105a3565b34801561079457600080fd5b506102ce600c5481565b3480156107aa57600080fd5b506103016107b936600461291a565b611367565b3480156107ca57600080fd5b5061035a611392565b6104ca6107e1366004612880565b61139f565b3480156107f257600080fd5b506102ce600081565b34801561080757600080fd5b50306105a3565b34801561081a57600080fd5b50610301610829366004612880565b6116ee565b34801561083a57600080fd5b506102ce7f477fc23fb51bb5d5aa814872a393b0e4f35d0916c7503c0fd96584681070d41081565b34801561086e57600080fd5b506102ce61087d3660046128aa565b6001600160a01b03166000908152600e602052604090205490565b3480156108a457600080fd5b506108ad611754565b6040516102d89190612a04565b3480156108c657600080fd5b506103de6108d53660046128aa565b6011602052600090815260409020805460019091015460ff1682565b3480156108fd57600080fd5b506102ce61090c3660046128aa565b6117b6565b34801561091d57600080fd5b506104ca61092c366004612a45565b6117d8565b34801561093d57600080fd5b506104ca61094c36600461291a565b611a16565b34801561095d57600080fd5b506102ce61096c3660046128aa565b611a3b565b34801561097d57600080fd5b506102ce61098c36600461299e565b600460209081526000928352604080842090915290825290205481565b3480156109b557600080fd5b506102ce6109c43660046128aa565b611a56565b3480156109d557600080fd5b506104ca6109e4366004612901565b611a88565b3480156109f557600080fd5b506104ca610a04366004612ace565b611bbd565b348015610a1557600080fd5b506104ca610a243660046128aa565b611c02565b348015610a3557600080fd5b506102ce610a443660046128aa565b600e6020526000908152604090205481565b6040516370a0823160e01b81526000906001600160a01b037f000000000000000000000000000000000000000000000000000000000000000016906370a0823190610aa590309060040161298a565b602060405180830381865afa158015610ac2573d6000803e3d6000fd5b505050506040513d601f19601f82011682018060405250810190610ae69190612b44565b905090565b60006001600160e01b03198216637965db0b60e01b1480610b1c57506301ffc9a760e01b6001600160e01b03198316145b92915050565b60008054610b2f90612b5d565b80601f0160208091040260200160405190810160405280929190818152602001828054610b5b90612b5d565b8015610ba85780601f10610b7d57610100808354040283529160200191610ba8565b820191906000526020600020905b815481529060010190602001808311610b8b57829003601f168201915b505050505081565b3360008181526004602090815260408083206001600160a01b038716808552925280832085905551919290917f8c5be1e5ebec7d5bd14f71427d1e84f3dd0314c0f7b2291e5b200ac8c7c3b92590610c0b9086815260200190565b60405180910390a350600192915050565b60006001600160a01b038216610c4d5760405162461bcd60e51b8152600401610c4490612b97565b60405180910390fd5b610b1c3383611c40565b6001600160a01b03831660009081526004602090815260408083203384529091528120546000198114610cb357610c8e8382612bf1565b6001600160a01b03861660009081526004602090815260408083203384529091529020555b6001600160a01b03851660009081526003602052604081208054859290610cdb908490612bf1565b90915550506001600160a01b0380851660008181526003602052604090819020805487019055519091871690600080516020612dc183398151915290610d249087815260200190565b60405180910390a360019150505b9392505050565b600082815260066020526040902060010154610d5481611d56565b610d5e8383611d60565b50505050565b600d546060908067ffffffffffffffff811115610d8357610d83612ab8565b604051908082528060200260200182016040528015610dac578160200160208202803683370190505b50915060005b81811015610e1057610deb84600d8381548110610dd157610dd1612c04565b6000918252602090912001546001600160a01b0316610ece565b838281518110610dfd57610dfd612c04565b6020908102919091010152600101610db2565b5050919050565b60007f00000000000000000000000000000000000000000000000000000000000000004614610e4857610ae6611df4565b507f000000000000000000000000000000000000000000000000000000000000000090565b6001600160a01b0381163314610e965760405163334bd91960e11b815260040160405180910390fd5b610ea08282611e8e565b505050565b6001600160a01b0381166000908152600e6020526040812054610b1c90611efb565b5060001990565b6001600160a01b03808216600081815260116020908152604080832080549588168452601083528184208054958552600181019093529083205492949093909285610f198286612bf1565b905082600003610f6b5760405162461bcd60e51b815260206004820152601c60248201527f4173796e635661756c743a204e6f207374616b656420746f6b656e73000000006044820152606401610c44565b610f7781600185611f25565b60095490975015610fa3576000610f9388600760020154611f43565b9050610f9f8189612bf1565b9750505b50505050505092915050565b610fb7611fc3565b610fc16000611ff0565b565b600d5460085460009182916001600160a01b031682808381036110335760405162461bcd60e51b815260206004820152602260248201527f4173796e635661756c743a204e6f2072657761726420746f6b656e73206578696044820152611cdd60f21b6064820152608401610c44565b865b848110156110ef57600d818154811061105057611050612c04565b6000918252602090912001546001600160a01b031692506110713384610ece565b6001600160a01b038085166000818152601160209081526040808320543384526010835281842094845260019094019091529020559092508416156110d3576110ce336110bd84612042565b6001600160a01b038616919061214c565b6110e7565b6110e76001600160a01b038416338461214c565b600101611035565b509596929550919350505050565b600d818154811061110d57600080fd5b6000918252602090912001546001600160a01b0316905081565b826000036111775760405162461bcd60e51b815260206004820181905260248201527f4173796e635661756c743a20496e76616c696420736861726520616d6f756e746044820152606401610c44565b6001600160a01b0382161580159061119757506001600160a01b03811615155b6111b35760405162461bcd60e51b8152600401610c4490612c1a565b6111bc81611a3b565b8311156111ea5781836111ce83611a3b565b60405163f046f30360e01b8152600401610c4493929190612c5b565b60006111f5826117b6565b1115611207576112058182611c40565b505b611213308281866121c4565b610ea083838361224e565b8260000361126e5760405162461bcd60e51b815260206004820181905260248201527f4173796e635661756c743a20496e76616c696420617373657420616d6f756e746044820152606401610c44565b6001600160a01b0382161580159061128e57506001600160a01b03811615155b6112aa5760405162461bcd60e51b8152600401610c4490612c1a565b336001600160a01b038216146112d3576040516303c4f5db60e01b815260040160405180910390fd5b60006112de82610ea5565b11156112f0576112ee81826122cf565b505b6112f981610ec7565b83111561132757818361130b83610ec7565b6040516356f1421360e01b8152600401610c4493929190612c5b565b61133283838361236d565b610ea06001600160a01b037f0000000000000000000000000000000000000000000000000000000000000000168230866121c4565b60009182526006602090815260408084206001600160a01b0393909316845291905290205460ff1690565b60018054610b2f90612b5d565b7f477fc23fb51bb5d5aa814872a393b0e4f35d0916c7503c0fd96584681070d4106113c981611d56565b816000036114195760405162461bcd60e51b815260206004820181905260248201527f4173796e635661756c743a20416d6f756e742063616e2774206265207a65726f6044820152606401610c44565b7f00000000000000000000000000000000000000000000000000000000000000006001600160a01b0316836001600160a01b03161415801561146457506001600160a01b0383163014155b6114cd5760405162461bcd60e51b815260206004820152603460248201527f4173796e635661756c743a2052657761726420616e64205374616b696e6720746044820152736f6b656e732063616e6e6f742062652073616d6560601b6064820152608401610c44565b6001600160a01b0383166115235760405162461bcd60e51b815260206004820181905260248201527f4173796e635661756c743a20496e76616c69642072657761726420746f6b656e6044820152606401610c44565b600c546000036115755760405162461bcd60e51b815260206004820152601f60248201527f4173796e635661756c743a204e6f20746f6b656e207374616b656420796574006044820152606401610c44565b600d54600a0361159857604051637561e0ab60e01b815260040160405180910390fd5b60006115c760025460016115ac9190612c7c565b6115b4610a56565b6115bf906001612c7c565b859190611f25565b6001600160a01b038516600090815260116020526040902060018101549192509060ff1661166157600d8054600180820183556000929092527fd7b6990105719101dabeb77144f2a3385c8033acd3af97e9423a695e81ad1eb50180546001600160a01b0319166001600160a01b038816908117909155828201805460ff191690921790915582825561165c903330876121c4565b6116a4565b6001600160a01b03851660009081526011602052604081208054849290611689908490612c7c565b909155506116a490506001600160a01b0386163330876121c4565b846001600160a01b03167fac24935fd910bc682b5ccb1a07b718cadf8cf2f6d1404c4f3ddc3662dae40e29856040516116df91815260200190565b60405180910390a25050505050565b3360009081526003602052604081208054839190839061170f908490612bf1565b90915550506001600160a01b03831660008181526003602052604090819020805485019055513390600080516020612dc183398151915290610c0b9086815260200190565b6060600d8054806020026020016040519081016040528092919081815260200182805480156117ac57602002820191906000526020600020905b81546001600160a01b0316815260019091019060200180831161178e575b5050505050905090565b6001600160a01b0381166000908152600f6020526040812054610b1c906123fa565b428410156118225760405162461bcd60e51b815260206004820152601760248201527614115493525517d11150511312539157d1561412549151604a1b6044820152606401610c44565b6000600161182e610e17565b6001600160a01b038a811660008181526005602090815260409182902080546001810190915582517f6e71edae12b1b97f4d1f60370fef10105fa2faae0126114a169c64845d6126c98184015280840194909452938d166060840152608083018c905260a083019390935260c08083018b90528151808403909101815260e08301909152805192019190912061190160f01b6101008301526101028201929092526101228101919091526101420160408051601f198184030181528282528051602091820120600084529083018083525260ff871690820152606081018590526080810184905260a0016020604051602081039080840390855afa15801561193a573d6000803e3d6000fd5b5050604051601f1901519150506001600160a01b038116158015906119705750876001600160a01b0316816001600160a01b0316145b6119ad5760405162461bcd60e51b815260206004820152600e60248201526d24a72b20a624a22fa9a4a3a722a960911b6044820152606401610c44565b6001600160a01b0390811660009081526004602090815260408083208a8516808552908352928190208990555188815291928a16917f8c5be1e5ebec7d5bd14f71427d1e84f3dd0314c0f7b2291e5b200ac8c7c3b925910160405180910390a350505050505050565b600082815260066020526040902060010154611a3181611d56565b610d5e8383611e8e565b6001600160a01b031660009081526003602052604090205490565b60006001600160a01b038216611a7e5760405162461bcd60e51b8152600401610c4490612b97565b610b1c33836122cf565b336000908152600e6020526040902054808211801590611aa757508115155b611b135760405162461bcd60e51b815260206004820152603760248201527f4173796e635661756c743a20496e76616c696420616d6f756e7420746f20646560448201527618dc99585cd9481c995c5d595cdd195908185b5bdd5b9d604a1b6064820152608401610c44565b336000908152600e602052604081208054849290611b32908490612bf1565b90915550611b6c90506001600160a01b037f000000000000000000000000000000000000000000000000000000000000000016338461214c565b336000818152600e6020526040908190205490518392917f9f88fba26e4fc589b3520ec4695e8e53c4ab8e91fcdc72acf6db374ac7b129bc91611bb191815260200190565b60405180910390a35050565b7f74e458455daa935f28c556b43e0cc4ad001a8a090f5feee376681e97d4618f46611be781611d56565b611bfe826000015183602001518460400151612420565b5050565b611c0a611fc3565b6001600160a01b038116611c34576000604051631e4fbdf760e01b8152600401610c44919061298a565b611c3d81611ff0565b50565b6001600160a01b0382166000908152600f6020526040812054611c62846117b6565b6001600160a01b0385166000908152600f602090815260408083208390556010909152812080549294508392909190611c9c908490612bf1565b9250508190555081600c6000828254611cb59190612bf1565b90915550611cc5905030826124de565b611cf96001600160a01b037f000000000000000000000000000000000000000000000000000000000000000016858461214c565b826001600160a01b0316846001600160a01b03167f30b8067c48be106578d6045aba0f65aadc34d168940f701c445a2541fb4bd8a28484604051611d47929190918252602082015260400190565b60405180910390a35092915050565b611c3d8133612540565b6000611d6c8383611367565b611dec5760008381526006602090815260408083206001600160a01b03861684529091529020805460ff19166001179055611da43390565b6001600160a01b0316826001600160a01b0316847f2f8788117e7eff1d82e926ec794901d17c78024a50270940304540a733656f0d60405160405180910390a4506001610b1c565b506000610b1c565b60007f8b73c3c69bb8fe3d512ecc4cf759cc79239f7b179b0ffacaa9a75d522b39400f6000604051611e269190612c8f565b6040805191829003822060208301939093528101919091527fc89efdaa54c0f20c7adf612882df0950f5a951637e0307cdcb4c672f298b8bc660608201524660808201523060a082015260c00160405160208183030381529060405280519060200120905090565b6000611e9a8383611367565b15611dec5760008381526006602090815260408083206001600160a01b0386168085529252808320805460ff1916905551339286917ff6391f5c32d9c69d2a47ea670b442974b53935d1edc7fd64eb21e047a839171b9190a4506001610b1c565b6000600254600014611f2157611f1c6001611f14610a56565b849190611f25565b610b1c565b5090565b6000826000190484118302158202611f3c57600080fd5b5091020490565b6000612710611f528385612d30565b1015611fac5760405162461bcd60e51b8152602060048201526024808201527f46433a20546f6f20736d616c6c20616d6f756e7420746f20636f6e73696465726044820152632066656560e01b6064820152608401610c44565b612710611fb98385612d30565b610d329190612d47565b600b546001600160a01b03163314610fc1573360405163118cdaa760e01b8152600401610c44919061298a565b600b80546001600160a01b038381166001600160a01b0319831681179093556040519116919082907f8be0079c531659141344cd1fd0a4f28419497f9722a3daafe3b4186f6b6457e090600090a35050565b6008546009546000916001600160a01b0316908290612062908590611f43565b905080826001600160a01b03166370a08231306040518263ffffffff1660e01b8152600401612091919061298a565b602060405180830381865afa1580156120ae573d6000803e3d6000fd5b505050506040513d601f19601f820116820180604052508101906120d29190612b44565b10156121205760405162461bcd60e51b815260206004820152601e60248201527f46433a20496e73756666696369656e7420746f6b656e2062616c616e636500006044820152606401610c44565b60075461213a906001600160a01b0384811691168361256b565b6121448185612bf1565b949350505050565b600060405163a9059cbb60e01b8152836004820152826024820152602060006044836000895af13d15601f3d1160016000511416171691505080610d5e5760405162461bcd60e51b815260206004820152600f60248201526e1514905394d1915497d19052531151608a1b6044820152606401610c44565b60006040516323b872dd60e01b81528460048201528360248201528260448201526020600060648360008a5af13d15601f3d11600160005114161716915050806122475760405162461bcd60e51b81526020600482015260146024820152731514905394d1915497d19493d357d1905253115160621b6044820152606401610c44565b5050505050565b6001600160a01b0381166000908152600f602052604081208054859290612276908490612c7c565b92505081905550806001600160a01b0316826001600160a01b03167f9d2f438fa9d25ba84aa5ca2b229d4ad0edad29fa7299e8f7dab10d9bc582391c33866040516122c2929190612d69565b60405180910390a3505050565b6001600160a01b0382166000908152600e60205260408120546122f184610ea5565b6001600160a01b0385166000908152600e6020526040812055915061231683836125c3565b61231f82612615565b826001600160a01b0316846001600160a01b03167f97a83c0760e2cce8be754fa5c1eca3baac91df018bfbfdde7345be1652b01da68385604051611d47929190918252602082015260400190565b6001600160a01b0381166000908152600e602052604081208054859290612395908490612c7c565b9250508190555082600c60008282546123ae9190612c7c565b92505081905550806001600160a01b0316826001600160a01b03167f21c9033b0fdf75a8e4138c4bd5aeae053eee01f1fbd47d59cde75ea492c156e333866040516122c2929190612d69565b6000610b1c612407610a56565b612412906001612c7c565b600254611f14906001612c7c565b61271081106124635760405162461bcd60e51b815260206004820152600f60248201526e46433a20496e76616c69642066656560881b6044820152606401610c44565b600780546001600160a01b038581166001600160a01b0319928316811790935560088054918616919092168117909155600983905560408051928352602083019190915281018290527febd34b2df88ea5c9f67c04b13b08e5e63c2d17e269aab73b866fe47a8736a2649060600160405180910390a1505050565b6001600160a01b03821660009081526003602052604081208054839290612506908490612bf1565b90915550506002805482900390556040518181526000906001600160a01b03841690600080516020612dc183398151915290602001611bb1565b61254a8282611367565b611bfe57808260405163e2517d3f60e01b8152600401610c44929190612d69565b610ea083846001600160a01b031663a9059cbb8585604051602401612591929190612d69565b604051602081830303815290604052915060e01b6020820180516001600160e01b03838183161783525050505061268b565b80600260008282546125d59190612c7c565b90915550506001600160a01b038216600081815260036020908152604080832080548601905551848152600080516020612dc18339815191529101611bb1565b3360009081526010602052604090206002015460ff1661265857336000908152601060205260408120828155600201805460ff19166001179055610ea090610fc3565b6126626000610fc3565b50503360009081526010602052604081208054839290612683908490612c7c565b909155505050565b60006126a06001600160a01b038416836126e5565b905080516000141580156126c55750808060200190518101906126c39190612d82565b155b15610ea05782604051635274afe760e01b8152600401610c44919061298a565b6060610d328383600084600080856001600160a01b0316848660405161270b9190612da4565b60006040518083038185875af1925050503d8060008114612748576040519150601f19603f3d011682016040523d82523d6000602084013e61274d565b606091505b509150915061275d868383612767565b9695505050505050565b60608261277c57612777826127ba565b610d32565b815115801561279357506001600160a01b0384163b155b156127b35783604051639996b31560e01b8152600401610c44919061298a565b5080610d32565b8051156127ca5780518082602001fd5b604051630a12f52160e11b815260040160405180910390fd5b6000602082840312156127f557600080fd5b81356001600160e01b031981168114610d3257600080fd5b60005b83811015612828578181015183820152602001612810565b50506000910152565b602081526000825180602084015261285081604085016020870161280d565b601f01601f19169190910160400192915050565b80356001600160a01b038116811461287b57600080fd5b919050565b6000806040838503121561289357600080fd5b61289c83612864565b946020939093013593505050565b6000602082840312156128bc57600080fd5b610d3282612864565b6000806000606084860312156128da57600080fd5b6128e384612864565b92506128f160208501612864565b9150604084013590509250925092565b60006020828403121561291357600080fd5b5035919050565b6000806040838503121561292d57600080fd5b8235915061293d60208401612864565b90509250929050565b6020808252825182820181905260009190848201906040850190845b8181101561297e57835183529284019291840191600101612962565b50909695505050505050565b6001600160a01b0391909116815260200190565b600080604083850312156129b157600080fd5b6129ba83612864565b915061293d60208401612864565b6000806000606084860312156129dd57600080fd5b833592506129ed60208501612864565b91506129fb60408501612864565b90509250925092565b6020808252825182820181905260009190848201906040850190845b8181101561297e5783516001600160a01b031683529284019291840191600101612a20565b600080600080600080600060e0888a031215612a6057600080fd5b612a6988612864565b9650612a7760208901612864565b95506040880135945060608801359350608088013560ff81168114612a9b57600080fd5b9699959850939692959460a0840135945060c09093013592915050565b634e487b7160e01b600052604160045260246000fd5b600060608284031215612ae057600080fd5b6040516060810181811067ffffffffffffffff82111715612b1157634e487b7160e01b600052604160045260246000fd5b604052612b1d83612864565b8152612b2b60208401612864565b6020820152604083013560408201528091505092915050565b600060208284031215612b5657600080fd5b5051919050565b600181811c90821680612b7157607f821691505b602082108103612b9157634e487b7160e01b600052602260045260246000fd5b50919050565b60208082526024908201527f4173796e635661756c743a20496e76616c6964207265636569766572206164646040820152637265737360e01b606082015260800190565b634e487b7160e01b600052601160045260246000fd5b81810381811115610b1c57610b1c612bdb565b634e487b7160e01b600052603260045260246000fd5b60208082526021908201527f4173796e635661756c743a20496e76616c6964206f776e6572206164647265736040820152607360f81b606082015260800190565b6001600160a01b039390931683526020830191909152604082015260600190565b80820180821115610b1c57610b1c612bdb565b60008083548160018260011c91506001831680612cad57607f831692505b60208084108203612ccc57634e487b7160e01b86526022600452602486fd5b818015612ce05760018114612cf557612d22565b60ff1986168952841515850289019650612d22565b60008a81526020902060005b86811015612d1a5781548b820152908501908301612d01565b505084890196505b509498975050505050505050565b8082028115828204841417610b1c57610b1c612bdb565b600082612d6457634e487b7160e01b600052601260045260246000fd5b500490565b6001600160a01b03929092168252602082015260400190565b600060208284031215612d9457600080fd5b81518015158114610d3257600080fd5b60008251612db681846020870161280d565b919091019291505056feddf252ad1be2c89b69c2b068fc378daa952ba7f163c4a11628f55a4df523b3efa26469706673582212205adcf0cf1c8ca0c6698b88ab43e761591faa691e0a7bfcd8cbd6a493c7312cd564736f6c63430008180033",
  "linkReferences": {},
  "deployedLinkReferences": {}
}