{
  "_format": "hh-sol-artifact-1",
  "contractName": "AsyncVault",
  "sourceName": "contracts/erc7540/AsyncVault.sol",
  "abi": [
    {
      "inputs": [
        {
          "internalType": "contract IERC20",
          "name": "underlying_",
          "type": "address"
        },
        {
          "internalType": "string",
          "name": "name_",
          "type": "string"
        },
        {
          "internalType": "string",
          "name": "symbol_",
          "type": "string"
        },
        {
          "components": [
            {
              "internalType": "address",
              "name": "receiver",
              "type": "address"
            },
            {
              "internalType": "address",
              "name": "token",
              "type": "address"
            },
            {
              "internalType": "uint256",
              "name": "feePercentage",
              "type": "uint256"
            }
          ],
          "internalType": "struct FeeConfiguration.FeeConfig",
          "name": "feeConfig_",
          "type": "tuple"
        },
        {
          "internalType": "address",
          "name": "vaultRewardController_",
          "type": "address"
        },
        {
          "internalType": "address",
          "name": "feeConfigController_",
          "type": "address"
        },
        {
          "internalType": "uint32",
          "name": "cliff_",
          "type": "uint32"
        },
        {
          "internalType": "uint32",
          "name": "unlockDuration_",
          "type": "uint32"
        }
      ],
      "stateMutability": "payable",
      "type": "constructor"
    },
    {
      "inputs": [],
      "name": "AccessControlBadConfirmation",
      "type": "error"
    },
    {
      "inputs": [
        {
          "internalType": "address",
          "name": "account",
          "type": "address"
        },
        {
          "internalType": "bytes32",
          "name": "neededRole",
          "type": "bytes32"
        }
      ],
      "name": "AccessControlUnauthorizedAccount",
      "type": "error"
    },
    {
      "inputs": [
        {
          "internalType": "address",
          "name": "target",
          "type": "address"
        }
      ],
      "name": "AddressEmptyCode",
      "type": "error"
    },
    {
      "inputs": [
        {
          "internalType": "address",
          "name": "account",
          "type": "address"
        }
      ],
      "name": "AddressInsufficientBalance",
      "type": "error"
    },
    {
      "inputs": [
        {
          "internalType": "address",
          "name": "spender",
          "type": "address"
        },
        {
          "internalType": "uint256",
          "name": "allowance",
          "type": "uint256"
        },
        {
          "internalType": "uint256",
          "name": "needed",
          "type": "uint256"
        }
      ],
      "name": "ERC20InsufficientAllowance",
      "type": "error"
    },
    {
      "inputs": [
        {
          "internalType": "address",
          "name": "sender",
          "type": "address"
        },
        {
          "internalType": "uint256",
          "name": "balance",
          "type": "uint256"
        },
        {
          "internalType": "uint256",
          "name": "needed",
          "type": "uint256"
        }
      ],
      "name": "ERC20InsufficientBalance",
      "type": "error"
    },
    {
      "inputs": [
        {
          "internalType": "address",
          "name": "approver",
          "type": "address"
        }
      ],
      "name": "ERC20InvalidApprover",
      "type": "error"
    },
    {
      "inputs": [
        {
          "internalType": "address",
          "name": "receiver",
          "type": "address"
        }
      ],
      "name": "ERC20InvalidReceiver",
      "type": "error"
    },
    {
      "inputs": [
        {
          "internalType": "address",
          "name": "sender",
          "type": "address"
        }
      ],
      "name": "ERC20InvalidSender",
      "type": "error"
    },
    {
      "inputs": [
        {
          "internalType": "address",
          "name": "spender",
          "type": "address"
        }
      ],
      "name": "ERC20InvalidSpender",
      "type": "error"
    },
    {
      "inputs": [
        {
          "internalType": "address",
          "name": "receiver",
          "type": "address"
        },
        {
          "internalType": "uint256",
          "name": "assets",
          "type": "uint256"
        },
        {
          "internalType": "uint256",
          "name": "max",
          "type": "uint256"
        }
      ],
      "name": "ERC4626ExceededMaxDeposit",
      "type": "error"
    },
    {
      "inputs": [
        {
          "internalType": "address",
          "name": "receiver",
          "type": "address"
        },
        {
          "internalType": "uint256",
          "name": "shares",
          "type": "uint256"
        },
        {
          "internalType": "uint256",
          "name": "max",
          "type": "uint256"
        }
      ],
      "name": "ERC4626ExceededMaxMint",
      "type": "error"
    },
    {
      "inputs": [
        {
          "internalType": "address",
          "name": "owner",
          "type": "address"
        },
        {
          "internalType": "uint256",
          "name": "shares",
          "type": "uint256"
        },
        {
          "internalType": "uint256",
          "name": "max",
          "type": "uint256"
        }
      ],
      "name": "ERC4626ExceededMaxRedeem",
      "type": "error"
    },
    {
      "inputs": [
        {
          "internalType": "address",
          "name": "owner",
          "type": "address"
        },
        {
          "internalType": "uint256",
          "name": "assets",
          "type": "uint256"
        },
        {
          "internalType": "uint256",
          "name": "max",
          "type": "uint256"
        }
      ],
      "name": "ERC4626ExceededMaxWithdraw",
      "type": "error"
    },
    {
      "inputs": [],
      "name": "FailedInnerCall",
      "type": "error"
    },
    {
      "inputs": [],
      "name": "InvalidController",
      "type": "error"
    },
    {
      "inputs": [],
      "name": "InvalidOperator",
      "type": "error"
    },
    {
      "inputs": [],
      "name": "MathOverflowedMulDiv",
      "type": "error"
    },
    {
      "inputs": [
        {
          "internalType": "address",
          "name": "controller",
          "type": "address"
        },
        {
          "internalType": "uint256",
          "name": "assets",
          "type": "uint256"
        },
        {
          "internalType": "uint256",
          "name": "maxDeposit",
          "type": "uint256"
        }
      ],
      "name": "MaxDepositRequestExceeded",
      "type": "error"
    },
    {
      "inputs": [
        {
          "internalType": "address",
          "name": "controller",
          "type": "address"
        },
        {
          "internalType": "uint256",
          "name": "shares",
          "type": "uint256"
        },
        {
          "internalType": "uint256",
          "name": "maxShares",
          "type": "uint256"
        }
      ],
      "name": "MaxRedeemRequestExceeded",
      "type": "error"
    },
    {
      "inputs": [],
      "name": "MaxRewardTokensAmount",
      "type": "error"
    },
    {
      "inputs": [
        {
          "internalType": "address",
          "name": "owner",
          "type": "address"
        }
      ],
      "name": "OwnableInvalidOwner",
      "type": "error"
    },
    {
      "inputs": [
        {
          "internalType": "address",
          "name": "account",
          "type": "address"
        }
      ],
      "name": "OwnableUnauthorizedAccount",
      "type": "error"
    },
    {
      "inputs": [
        {
          "internalType": "address",
          "name": "token",
          "type": "address"
        }
      ],
      "name": "SafeERC20FailedOperation",
      "type": "error"
    },
    {
      "anonymous": false,
      "inputs": [
        {
          "indexed": true,
          "internalType": "address",
          "name": "owner",
          "type": "address"
        },
        {
          "indexed": true,
          "internalType": "address",
          "name": "spender",
          "type": "address"
        },
        {
          "indexed": false,
          "internalType": "uint256",
          "name": "value",
          "type": "uint256"
        }
      ],
      "name": "Approval",
      "type": "event"
    },
    {
      "anonymous": false,
      "inputs": [
        {
          "indexed": true,
          "internalType": "address",
          "name": "sender",
          "type": "address"
        },
        {
          "indexed": true,
          "internalType": "address",
          "name": "owner",
          "type": "address"
        },
        {
          "indexed": false,
          "internalType": "uint256",
          "name": "assets",
          "type": "uint256"
        },
        {
          "indexed": false,
          "internalType": "uint256",
          "name": "shares",
          "type": "uint256"
        }
      ],
      "name": "Deposit",
      "type": "event"
    },
    {
      "anonymous": false,
      "inputs": [
        {
          "indexed": true,
          "internalType": "address",
          "name": "controller",
          "type": "address"
        },
        {
          "indexed": true,
          "internalType": "address",
          "name": "owner",
          "type": "address"
        },
        {
          "indexed": false,
          "internalType": "address",
          "name": "sender",
          "type": "address"
        },
        {
          "indexed": false,
          "internalType": "uint256",
          "name": "assets",
          "type": "uint256"
        }
      ],
      "name": "DepositRequested",
      "type": "event"
    },
    {
      "anonymous": false,
      "inputs": [
        {
          "components": [
            {
              "internalType": "address",
              "name": "receiver",
              "type": "address"
            },
            {
              "internalType": "address",
              "name": "token",
              "type": "address"
            },
            {
              "internalType": "uint256",
              "name": "feePercentage",
              "type": "uint256"
            }
          ],
          "indexed": false,
          "internalType": "struct FeeConfiguration.FeeConfig",
          "name": "feeConfig",
          "type": "tuple"
        }
      ],
      "name": "FeeConfigUpdated",
      "type": "event"
    },
    {
      "anonymous": false,
      "inputs": [
        {
          "indexed": true,
          "internalType": "address",
          "name": "controller",
          "type": "address"
        },
        {
          "indexed": true,
          "internalType": "address",
          "name": "operator",
          "type": "address"
        },
        {
          "indexed": false,
          "internalType": "bool",
          "name": "approved",
          "type": "bool"
        }
      ],
      "name": "OperatorSet",
      "type": "event"
    },
    {
      "anonymous": false,
      "inputs": [
        {
          "indexed": true,
          "internalType": "address",
          "name": "previousOwner",
          "type": "address"
        },
        {
          "indexed": true,
          "internalType": "address",
          "name": "newOwner",
          "type": "address"
        }
      ],
      "name": "OwnershipTransferred",
      "type": "event"
    },
    {
      "anonymous": false,
      "inputs": [
        {
          "indexed": true,
          "internalType": "address",
          "name": "controller",
          "type": "address"
        },
        {
          "indexed": true,
          "internalType": "address",
          "name": "owner",
          "type": "address"
        },
        {
          "indexed": false,
          "internalType": "address",
          "name": "sender",
          "type": "address"
        },
        {
          "indexed": false,
          "internalType": "uint256",
          "name": "shares",
          "type": "uint256"
        }
      ],
      "name": "RedeemRequested",
      "type": "event"
    },
    {
      "anonymous": false,
      "inputs": [
        {
          "indexed": true,
          "internalType": "address",
          "name": "rewardToken",
          "type": "address"
        },
        {
          "indexed": false,
          "internalType": "uint256",
          "name": "amount",
          "type": "uint256"
        }
      ],
      "name": "RewardAdded",
      "type": "event"
    },
    {
      "anonymous": false,
      "inputs": [
        {
          "indexed": true,
          "internalType": "bytes32",
          "name": "role",
          "type": "bytes32"
        },
        {
          "indexed": true,
          "internalType": "bytes32",
          "name": "previousAdminRole",
          "type": "bytes32"
        },
        {
          "indexed": true,
          "internalType": "bytes32",
          "name": "newAdminRole",
          "type": "bytes32"
        }
      ],
      "name": "RoleAdminChanged",
      "type": "event"
    },
    {
      "anonymous": false,
      "inputs": [
        {
          "indexed": true,
          "internalType": "bytes32",
          "name": "role",
          "type": "bytes32"
        },
        {
          "indexed": true,
          "internalType": "address",
          "name": "account",
          "type": "address"
        },
        {
          "indexed": true,
          "internalType": "address",
          "name": "sender",
          "type": "address"
        }
      ],
      "name": "RoleGranted",
      "type": "event"
    },
    {
      "anonymous": false,
      "inputs": [
        {
          "indexed": true,
          "internalType": "bytes32",
          "name": "role",
          "type": "bytes32"
        },
        {
          "indexed": true,
          "internalType": "address",
          "name": "account",
          "type": "address"
        },
        {
          "indexed": true,
          "internalType": "address",
          "name": "sender",
          "type": "address"
        }
      ],
      "name": "RoleRevoked",
      "type": "event"
    },
    {
      "anonymous": false,
      "inputs": [
        {
          "indexed": false,
          "internalType": "uint32",
          "name": "time",
          "type": "uint32"
        }
      ],
      "name": "SetSharesLockTime",
      "type": "event"
    },
    {
      "anonymous": false,
      "inputs": [
        {
          "indexed": true,
          "internalType": "address",
          "name": "from",
          "type": "address"
        },
        {
          "indexed": true,
          "internalType": "address",
          "name": "to",
          "type": "address"
        },
        {
          "indexed": false,
          "internalType": "uint256",
          "name": "value",
          "type": "uint256"
        }
      ],
      "name": "Transfer",
      "type": "event"
    },
    {
      "anonymous": false,
      "inputs": [
        {
          "indexed": true,
          "internalType": "address",
          "name": "sender",
          "type": "address"
        },
        {
          "indexed": true,
          "internalType": "address",
          "name": "receiver",
          "type": "address"
        },
        {
          "indexed": true,
          "internalType": "address",
          "name": "owner",
          "type": "address"
        },
        {
          "indexed": false,
          "internalType": "uint256",
          "name": "assets",
          "type": "uint256"
        },
        {
          "indexed": false,
          "internalType": "uint256",
          "name": "shares",
          "type": "uint256"
        }
      ],
      "name": "Withdraw",
      "type": "event"
    },
    {
      "inputs": [],
      "name": "DEFAULT_ADMIN_ROLE",
      "outputs": [
        {
          "internalType": "bytes32",
          "name": "",
          "type": "bytes32"
        }
      ],
      "stateMutability": "view",
      "type": "function"
    },
    {
      "inputs": [],
      "name": "FEE_CONFIG_CONTROLLER_ROLE",
      "outputs": [
        {
          "internalType": "bytes32",
          "name": "",
          "type": "bytes32"
        }
      ],
      "stateMutability": "view",
      "type": "function"
    },
    {
      "inputs": [],
      "name": "VAULT_REWARD_CONTROLLER_ROLE",
      "outputs": [
        {
          "internalType": "bytes32",
          "name": "",
          "type": "bytes32"
        }
      ],
      "stateMutability": "view",
      "type": "function"
    },
    {
      "inputs": [],
      "name": "_cliff",
      "outputs": [
        {
          "internalType": "uint32",
          "name": "",
          "type": "uint32"
        }
      ],
      "stateMutability": "view",
      "type": "function"
    },
    {
      "inputs": [
        {
          "internalType": "address",
          "name": "_token",
          "type": "address"
        },
        {
          "internalType": "uint256",
          "name": "_amount",
          "type": "uint256"
        }
      ],
      "name": "addReward",
      "outputs": [],
      "stateMutability": "payable",
      "type": "function"
    },
    {
      "inputs": [
        {
          "internalType": "address",
          "name": "owner",
          "type": "address"
        },
        {
          "internalType": "address",
          "name": "spender",
          "type": "address"
        }
      ],
      "name": "allowance",
      "outputs": [
        {
          "internalType": "uint256",
          "name": "",
          "type": "uint256"
        }
      ],
      "stateMutability": "view",
      "type": "function"
    },
    {
      "inputs": [
        {
          "internalType": "address",
          "name": "spender",
          "type": "address"
        },
        {
          "internalType": "uint256",
          "name": "value",
          "type": "uint256"
        }
      ],
      "name": "approve",
      "outputs": [
        {
          "internalType": "bool",
          "name": "",
          "type": "bool"
        }
      ],
      "stateMutability": "nonpayable",
      "type": "function"
    },
    {
      "inputs": [],
      "name": "asset",
      "outputs": [
        {
          "internalType": "address",
          "name": "",
          "type": "address"
        }
      ],
      "stateMutability": "view",
      "type": "function"
    },
    {
      "inputs": [
        {
          "internalType": "address",
          "name": "account",
          "type": "address"
        }
      ],
      "name": "balanceOf",
      "outputs": [
        {
          "internalType": "uint256",
          "name": "",
          "type": "uint256"
        }
      ],
      "stateMutability": "view",
      "type": "function"
    },
    {
      "inputs": [
        {
          "internalType": "uint256",
          "name": "_startPosition",
          "type": "uint256"
        },
        {
          "internalType": "address",
          "name": "_receiver",
          "type": "address"
        }
      ],
      "name": "claimAllReward",
      "outputs": [
        {
          "internalType": "uint256",
          "name": "",
          "type": "uint256"
        },
        {
          "internalType": "uint256",
          "name": "",
          "type": "uint256"
        }
      ],
      "stateMutability": "nonpayable",
      "type": "function"
    },
    {
      "inputs": [
        {
          "internalType": "uint256",
          "name": "shares",
          "type": "uint256"
        }
      ],
      "name": "convertToAssets",
      "outputs": [
        {
          "internalType": "uint256",
          "name": "",
          "type": "uint256"
        }
      ],
      "stateMutability": "view",
      "type": "function"
    },
    {
      "inputs": [
        {
          "internalType": "uint256",
          "name": "assets",
          "type": "uint256"
        }
      ],
      "name": "convertToShares",
      "outputs": [
        {
          "internalType": "uint256",
          "name": "",
          "type": "uint256"
        }
      ],
      "stateMutability": "view",
      "type": "function"
    },
    {
      "inputs": [],
      "name": "decimals",
      "outputs": [
        {
          "internalType": "uint8",
          "name": "",
          "type": "uint8"
        }
      ],
      "stateMutability": "view",
      "type": "function"
    },
    {
      "inputs": [
        {
          "internalType": "uint256",
          "name": "assets",
          "type": "uint256"
        },
        {
          "internalType": "address",
          "name": "to",
          "type": "address"
        },
        {
          "internalType": "address",
          "name": "controller",
          "type": "address"
        }
      ],
      "name": "deposit",
      "outputs": [
        {
          "internalType": "uint256",
          "name": "shares",
          "type": "uint256"
        }
      ],
      "stateMutability": "nonpayable",
      "type": "function"
    },
    {
      "inputs": [
        {
          "internalType": "uint256",
          "name": "assets",
          "type": "uint256"
        },
        {
          "internalType": "address",
          "name": "to",
          "type": "address"
        }
      ],
      "name": "deposit",
      "outputs": [
        {
          "internalType": "uint256",
          "name": "shares",
          "type": "uint256"
        }
      ],
      "stateMutability": "nonpayable",
      "type": "function"
    },
    {
      "inputs": [],
      "name": "feeConfig",
      "outputs": [
        {
          "internalType": "address",
          "name": "receiver",
          "type": "address"
        },
        {
          "internalType": "address",
          "name": "token",
          "type": "address"
        },
        {
          "internalType": "uint256",
          "name": "feePercentage",
          "type": "uint256"
        }
      ],
      "stateMutability": "view",
      "type": "function"
    },
    {
      "inputs": [
        {
          "internalType": "address",
          "name": "_user",
          "type": "address"
        }
      ],
      "name": "getAllRewards",
      "outputs": [
        {
          "internalType": "uint256[]",
          "name": "_rewards",
          "type": "uint256[]"
        }
      ],
      "stateMutability": "view",
      "type": "function"
    },
    {
      "inputs": [],
      "name": "getRewardTokens",
      "outputs": [
        {
          "internalType": "address[]",
          "name": "",
          "type": "address[]"
        }
      ],
      "stateMutability": "view",
      "type": "function"
    },
    {
      "inputs": [
        {
          "internalType": "bytes32",
          "name": "role",
          "type": "bytes32"
        }
      ],
      "name": "getRoleAdmin",
      "outputs": [
        {
          "internalType": "bytes32",
          "name": "",
          "type": "bytes32"
        }
      ],
      "stateMutability": "view",
      "type": "function"
    },
    {
      "inputs": [
        {
          "internalType": "address",
          "name": "_user",
          "type": "address"
        },
        {
          "internalType": "address",
          "name": "_rewardToken",
          "type": "address"
        }
      ],
      "name": "getUserReward",
      "outputs": [
        {
          "internalType": "uint256",
          "name": "unclaimedAmount",
          "type": "uint256"
        }
      ],
      "stateMutability": "view",
      "type": "function"
    },
    {
      "inputs": [
        {
          "internalType": "bytes32",
          "name": "role",
          "type": "bytes32"
        },
        {
          "internalType": "address",
          "name": "account",
          "type": "address"
        }
      ],
      "name": "grantRole",
      "outputs": [],
      "stateMutability": "nonpayable",
      "type": "function"
    },
    {
      "inputs": [
        {
          "internalType": "bytes32",
          "name": "role",
          "type": "bytes32"
        },
        {
          "internalType": "address",
          "name": "account",
          "type": "address"
        }
      ],
      "name": "hasRole",
      "outputs": [
        {
          "internalType": "bool",
          "name": "",
          "type": "bool"
        }
      ],
      "stateMutability": "view",
      "type": "function"
    },
    {
      "inputs": [
        {
          "internalType": "address",
          "name": "controller",
          "type": "address"
        },
        {
          "internalType": "address",
          "name": "operator",
          "type": "address"
        }
      ],
      "name": "isOperator",
      "outputs": [
        {
          "internalType": "bool",
          "name": "",
          "type": "bool"
        }
      ],
      "stateMutability": "view",
      "type": "function"
    },
    {
      "inputs": [
        {
          "internalType": "address",
          "name": "account",
          "type": "address"
        }
      ],
      "name": "lockedOf",
      "outputs": [
        {
          "internalType": "uint256",
          "name": "",
          "type": "uint256"
        }
      ],
      "stateMutability": "view",
      "type": "function"
    },
    {
      "inputs": [
        {
          "internalType": "address",
          "name": "owner",
          "type": "address"
        }
      ],
      "name": "maxDeposit",
      "outputs": [
        {
          "internalType": "uint256",
          "name": "",
          "type": "uint256"
        }
      ],
      "stateMutability": "view",
      "type": "function"
    },
    {
      "inputs": [
        {
          "internalType": "address",
          "name": "owner",
          "type": "address"
        }
      ],
      "name": "maxMint",
      "outputs": [
        {
          "internalType": "uint256",
          "name": "shares",
          "type": "uint256"
        }
      ],
      "stateMutability": "view",
      "type": "function"
    },
    {
      "inputs": [
        {
          "internalType": "address",
          "name": "owner",
          "type": "address"
        }
      ],
      "name": "maxRedeem",
      "outputs": [
        {
          "internalType": "uint256",
          "name": "",
          "type": "uint256"
        }
      ],
      "stateMutability": "view",
      "type": "function"
    },
    {
      "inputs": [
        {
          "internalType": "address",
          "name": "owner",
          "type": "address"
        }
      ],
      "name": "maxWithdraw",
      "outputs": [
        {
          "internalType": "uint256",
          "name": "assets",
          "type": "uint256"
        }
      ],
      "stateMutability": "view",
      "type": "function"
    },
    {
      "inputs": [
        {
          "internalType": "uint256",
          "name": "shares",
          "type": "uint256"
        },
        {
          "internalType": "address",
          "name": "to",
          "type": "address"
        }
      ],
      "name": "mint",
      "outputs": [
        {
          "internalType": "uint256",
          "name": "assets",
          "type": "uint256"
        }
      ],
      "stateMutability": "nonpayable",
      "type": "function"
    },
    {
      "inputs": [
        {
          "internalType": "uint256",
          "name": "shares",
          "type": "uint256"
        },
        {
          "internalType": "address",
          "name": "to",
          "type": "address"
        },
        {
          "internalType": "address",
          "name": "controller",
          "type": "address"
        }
      ],
      "name": "mint",
      "outputs": [
        {
          "internalType": "uint256",
          "name": "assets",
          "type": "uint256"
        }
      ],
      "stateMutability": "nonpayable",
      "type": "function"
    },
    {
      "inputs": [],
      "name": "name",
      "outputs": [
        {
          "internalType": "string",
          "name": "",
          "type": "string"
        }
      ],
      "stateMutability": "view",
      "type": "function"
    },
    {
      "inputs": [],
      "name": "owner",
      "outputs": [
        {
          "internalType": "address",
          "name": "",
          "type": "address"
        }
      ],
      "stateMutability": "view",
      "type": "function"
    },
    {
      "inputs": [
        {
          "internalType": "address",
          "name": "owner",
          "type": "address"
        }
      ],
      "name": "pendingDepositRequest",
      "outputs": [
        {
          "internalType": "uint256",
          "name": "assets",
          "type": "uint256"
        }
      ],
      "stateMutability": "view",
      "type": "function"
    },
    {
      "inputs": [
        {
          "internalType": "address",
          "name": "owner",
          "type": "address"
        }
      ],
      "name": "pendingRedeemRequest",
      "outputs": [
        {
          "internalType": "uint256",
          "name": "shares",
          "type": "uint256"
        }
      ],
      "stateMutability": "view",
      "type": "function"
    },
    {
      "inputs": [
        {
          "internalType": "uint256",
          "name": "assets",
          "type": "uint256"
        }
      ],
      "name": "previewDeposit",
      "outputs": [
        {
          "internalType": "uint256",
          "name": "",
          "type": "uint256"
        }
      ],
      "stateMutability": "view",
      "type": "function"
    },
    {
      "inputs": [
        {
          "internalType": "uint256",
          "name": "shares",
          "type": "uint256"
        }
      ],
      "name": "previewMint",
      "outputs": [
        {
          "internalType": "uint256",
          "name": "",
          "type": "uint256"
        }
      ],
      "stateMutability": "view",
      "type": "function"
    },
    {
      "inputs": [
        {
          "internalType": "uint256",
          "name": "shares",
          "type": "uint256"
        }
      ],
      "name": "previewRedeem",
      "outputs": [
        {
          "internalType": "uint256",
          "name": "",
          "type": "uint256"
        }
      ],
      "stateMutability": "view",
      "type": "function"
    },
    {
      "inputs": [
        {
          "internalType": "uint256",
          "name": "assets",
          "type": "uint256"
        }
      ],
      "name": "previewWithdraw",
      "outputs": [
        {
          "internalType": "uint256",
          "name": "",
          "type": "uint256"
        }
      ],
      "stateMutability": "view",
      "type": "function"
    },
    {
      "inputs": [
        {
          "internalType": "uint256",
          "name": "shares",
          "type": "uint256"
        },
        {
          "internalType": "address",
          "name": "receiver",
          "type": "address"
        },
        {
          "internalType": "address",
          "name": "controller",
          "type": "address"
        }
      ],
      "name": "redeem",
      "outputs": [
        {
          "internalType": "uint256",
          "name": "assets",
          "type": "uint256"
        }
      ],
      "stateMutability": "nonpayable",
      "type": "function"
    },
    {
      "inputs": [],
      "name": "renounceOwnership",
      "outputs": [],
      "stateMutability": "nonpayable",
      "type": "function"
    },
    {
      "inputs": [
        {
          "internalType": "bytes32",
          "name": "role",
          "type": "bytes32"
        },
        {
          "internalType": "address",
          "name": "callerConfirmation",
          "type": "address"
        }
      ],
      "name": "renounceRole",
      "outputs": [],
      "stateMutability": "nonpayable",
      "type": "function"
    },
    {
      "inputs": [
        {
          "internalType": "uint256",
          "name": "assets",
          "type": "uint256"
        },
        {
          "internalType": "address",
          "name": "controller",
          "type": "address"
        },
        {
          "internalType": "address",
          "name": "owner",
          "type": "address"
        }
      ],
      "name": "requestDeposit",
      "outputs": [],
      "stateMutability": "nonpayable",
      "type": "function"
    },
    {
      "inputs": [
        {
          "internalType": "uint256",
          "name": "shares",
          "type": "uint256"
        },
        {
          "internalType": "address",
          "name": "controller",
          "type": "address"
        },
        {
          "internalType": "address",
          "name": "owner",
          "type": "address"
        }
      ],
      "name": "requestRedeem",
      "outputs": [],
      "stateMutability": "nonpayable",
      "type": "function"
    },
    {
      "inputs": [
        {
          "internalType": "bytes32",
          "name": "role",
          "type": "bytes32"
        },
        {
          "internalType": "address",
          "name": "account",
          "type": "address"
        }
      ],
      "name": "revokeRole",
      "outputs": [],
      "stateMutability": "nonpayable",
      "type": "function"
    },
    {
      "inputs": [
        {
          "internalType": "address",
          "name": "operator",
          "type": "address"
        },
        {
          "internalType": "bool",
          "name": "approved",
          "type": "bool"
        }
      ],
      "name": "setOperator",
      "outputs": [
        {
          "internalType": "bool",
          "name": "success",
          "type": "bool"
        }
      ],
      "stateMutability": "nonpayable",
      "type": "function"
    },
    {
      "inputs": [
        {
          "internalType": "uint32",
          "name": "time",
          "type": "uint32"
        }
      ],
      "name": "setSharesLockTime",
      "outputs": [],
      "stateMutability": "nonpayable",
      "type": "function"
    },
    {
      "inputs": [
        {
          "internalType": "bytes4",
          "name": "interfaceId",
          "type": "bytes4"
        }
      ],
      "name": "supportsInterface",
      "outputs": [
        {
          "internalType": "bool",
          "name": "",
          "type": "bool"
        }
      ],
      "stateMutability": "view",
      "type": "function"
    },
    {
      "inputs": [],
      "name": "symbol",
      "outputs": [
        {
          "internalType": "string",
          "name": "",
          "type": "string"
        }
      ],
      "stateMutability": "view",
      "type": "function"
    },
    {
      "inputs": [],
      "name": "totalAssets",
      "outputs": [
        {
          "internalType": "uint256",
          "name": "",
          "type": "uint256"
        }
      ],
      "stateMutability": "view",
      "type": "function"
    },
    {
      "inputs": [],
      "name": "totalSupply",
      "outputs": [
        {
          "internalType": "uint256",
          "name": "",
          "type": "uint256"
        }
      ],
      "stateMutability": "view",
      "type": "function"
    },
    {
      "inputs": [
        {
          "internalType": "address",
          "name": "to",
          "type": "address"
        },
        {
          "internalType": "uint256",
          "name": "value",
          "type": "uint256"
        }
      ],
      "name": "transfer",
      "outputs": [
        {
          "internalType": "bool",
          "name": "",
          "type": "bool"
        }
      ],
      "stateMutability": "nonpayable",
      "type": "function"
    },
    {
      "inputs": [
        {
          "internalType": "address",
          "name": "from",
          "type": "address"
        },
        {
          "internalType": "address",
          "name": "to",
          "type": "address"
        },
        {
          "internalType": "uint256",
          "name": "value",
          "type": "uint256"
        }
      ],
      "name": "transferFrom",
      "outputs": [
        {
          "internalType": "bool",
          "name": "",
          "type": "bool"
        }
      ],
      "stateMutability": "nonpayable",
      "type": "function"
    },
    {
      "inputs": [
        {
          "internalType": "address",
          "name": "newOwner",
          "type": "address"
        }
      ],
      "name": "transferOwnership",
      "outputs": [],
      "stateMutability": "nonpayable",
      "type": "function"
    },
    {
      "inputs": [
        {
          "internalType": "address",
          "name": "account",
          "type": "address"
        }
      ],
      "name": "unlockedOf",
      "outputs": [
        {
          "internalType": "uint256",
          "name": "",
          "type": "uint256"
        }
      ],
      "stateMutability": "view",
      "type": "function"
    },
    {
      "inputs": [
        {
          "components": [
            {
              "internalType": "address",
              "name": "receiver",
              "type": "address"
            },
            {
              "internalType": "address",
              "name": "token",
              "type": "address"
            },
            {
              "internalType": "uint256",
              "name": "feePercentage",
              "type": "uint256"
            }
          ],
          "internalType": "struct FeeConfiguration.FeeConfig",
          "name": "_feeConfig",
          "type": "tuple"
        }
      ],
      "name": "updateFeeConfig",
      "outputs": [],
      "stateMutability": "nonpayable",
      "type": "function"
    },
    {
      "inputs": [
        {
          "internalType": "uint256",
          "name": "assets",
          "type": "uint256"
        },
        {
          "internalType": "address",
          "name": "receiver",
          "type": "address"
        },
        {
          "internalType": "address",
          "name": "controller",
          "type": "address"
        }
      ],
      "name": "withdraw",
      "outputs": [
        {
          "internalType": "uint256",
          "name": "shares",
          "type": "uint256"
        }
      ],
      "stateMutability": "nonpayable",
      "type": "function"
    }
  ],
  "bytecode": "0x60c060405260405162003b7538038062003b7583398101604081905262000026916200057e565b3388808989600362000039838262000730565b50600462000048828262000730565b5050506000806200005f836200011660201b60201c565b91509150816200007157601262000073565b805b60ff1660a05250506001600160a01b0390811660805282169050620000b357604051631e4fbdf760e01b8152600060048201526024015b60405180910390fd5b620000be81620001fb565b50620000cc8585856200024d565b600e8054600160a01b600160e01b031916600160c01b63ffffffff9485160263ffffffff60a01b191617600160a01b92909316919091029190911790555062000834945050505050565b60408051600481526024810182526020810180516001600160e01b031663313ce56760e01b17905290516000918291829182916001600160a01b038716916200015f91620007fc565b600060405180830381855afa9150503d80600081146200019c576040519150601f19603f3d011682016040523d82523d6000602084013e620001a1565b606091505b5091509150818015620001b657506020815110155b15620001ee57600081806020019051810190620001d491906200081a565b905060ff8111620001ec576001969095509350505050565b505b5060009485945092505050565b600e80546001600160a01b038381166001600160a01b0319831681179093556040519116919082907f8be0079c531659141344cd1fd0a4f28419497f9722a3daafe3b4186f6b6457e090600090a35050565b82516020840151604085015162000266929190620002d3565b6200027360003362000393565b50620002a07f477fc23fb51bb5d5aa814872a393b0e4f35d0916c7503c0fd96584681070d4108362000393565b50620002cd7f74e458455daa935f28c556b43e0cc4ad001a8a090f5feee376681e97d4618f468262000393565b50505050565b6127108110620003185760405162461bcd60e51b815260206004820152600f60248201526e46433a20496e76616c69642066656560881b6044820152606401620000aa565b600b80546001600160a01b038581166001600160a01b03199283168117909355600c8054918616919092168117909155600d83905560408051928352602083019190915281018290527febd34b2df88ea5c9f67c04b13b08e5e63c2d17e269aab73b866fe47a8736a2649060600160405180910390a1505050565b6000828152600a602090815260408083206001600160a01b038516845290915281205460ff166200043c576000838152600a602090815260408083206001600160a01b03861684529091529020805460ff19166001179055620003f33390565b6001600160a01b0316826001600160a01b0316847f2f8788117e7eff1d82e926ec794901d17c78024a50270940304540a733656f0d60405160405180910390a450600162000440565b5060005b92915050565b6001600160a01b03811681146200045c57600080fd5b50565b634e487b7160e01b600052604160045260246000fd5b604051606081016001600160401b03811182821017156200049a576200049a6200045f565b60405290565b60005b83811015620004bd578181015183820152602001620004a3565b50506000910152565b600082601f830112620004d857600080fd5b81516001600160401b0380821115620004f557620004f56200045f565b604051601f8301601f19908116603f011681019082821181831017156200052057620005206200045f565b816040528381528660208588010111156200053a57600080fd5b6200054d846020830160208901620004a0565b9695505050505050565b8051620005648162000446565b919050565b805163ffffffff811681146200056457600080fd5b600080600080600080600080888a036101408112156200059d57600080fd5b8951620005aa8162000446565b60208b01519099506001600160401b0380821115620005c857600080fd5b620005d68d838e01620004c6565b995060408c0151915080821115620005ed57600080fd5b50620005fc8c828d01620004c6565b9750506060605f19820112156200061257600080fd5b506200061d62000475565b60608a01516200062d8162000446565b815260808a01516200063f8162000446565b602082015260a08a0151604082015294506200065e60c08a0162000557565b93506200066e60e08a0162000557565b92506200067f6101008a0162000569565b9150620006906101208a0162000569565b90509295985092959890939650565b600181811c90821680620006b457607f821691505b602082108103620006d557634e487b7160e01b600052602260045260246000fd5b50919050565b601f8211156200072b576000816000526020600020601f850160051c81016020861015620007065750805b601f850160051c820191505b81811015620007275782815560010162000712565b5050505b505050565b81516001600160401b038111156200074c576200074c6200045f565b62000764816200075d84546200069f565b84620006db565b602080601f8311600181146200079c5760008415620007835750858301515b600019600386901b1c1916600185901b17855562000727565b600085815260208120601f198616915b82811015620007cd57888601518255948401946001909101908401620007ac565b5085821015620007ec5787850151600019600388901b60f8161c191681555b5050505050600190811b01905550565b6000825162000810818460208701620004a0565b9190910192915050565b6000602082840312156200082d57600080fd5b5051919050565b60805160a051613314620008616000396000610c50015260008181610a740152610d6101526133146000f3fe6080604052600436106102eb5760003560e01c806385b77f4511610186578063c3702989116100d7578063d547741f11610085578063d547741f1461099a578063d905777e146109ba578063da39b3e7146109da578063dd62ed3e146109fa578063ef8b30f714610905578063efa6f42514610a1a578063f2fde38b14610a3a57600080fd5b8063c3702989146108a3578063c4f59f9b146108c3578063c63d75b6146108e5578063c6e6f59214610905578063caad546e14610925578063cd26c0e614610945578063ce96cb771461097a57600080fd5b8063a5f1e28211610134578063a5f1e28214610794578063a9059cbb146107b4578063b3d7f6b9146107d4578063b460af94146107f4578063b4f6d61314610814578063b6363cf214610848578063ba0876521461088357600080fd5b806385b77f45146106d95780638da5cb5b146106f957806391d148541461071757806394bf804d1461073757806395d89b41146107575780639feb8f501461076c578063a217fddf1461077f57600080fd5b8063313ce56711610240578063558a7297116101ee578063558a7297146105ee5780635ab764ed1461060e5780636e553f651461062e5780636f26a4361461064e57806370a082311461066e578063715018a6146106a45780637d41c86e146106b957600080fd5b8063313ce56714610518578063362a3fad1461053f57806336568abe1461056c57806338d52e0f1461058c578063402d267d146105ae5780634cdad5061461039e57806353dc1dd3146105ce57600080fd5b806318160ddd1161029d57806318160ddd146103fe5780631c073faa146104135780631e5eb1d01461044c57806323b872dd14610486578063248a9ca3146104a65780632e2d2984146104d65780632f2ff15d146104f657600080fd5b806301e1d114146102f057806301ffc9a71461031857806305fb2a511461034857806306fdde031461037c57806307a2d13a1461039e578063095ea7b3146103be5780630a28a477146103de575b600080fd5b3480156102fc57600080fd5b50610305610a5a565b6040519081526020015b60405180910390f35b34801561032457600080fd5b50610338610333366004612c83565b610aef565b604051901515815260200161030f565b34801561035457600080fd5b506103057f74e458455daa935f28c556b43e0cc4ad001a8a090f5feee376681e97d4618f4681565b34801561038857600080fd5b50610391610b1a565b60405161030f9190612cd1565b3480156103aa57600080fd5b506103056103b9366004612d04565b610bac565b3480156103ca57600080fd5b506103386103d9366004612d39565b610bb9565b3480156103ea57600080fd5b506103056103f9366004612d04565b610bd1565b34801561040a57600080fd5b50600254610305565b34801561041f57600080fd5b50600e5461043790600160c01b900463ffffffff1681565b60405163ffffffff909116815260200161030f565b34801561045857600080fd5b50600b54600c54600d54610477926001600160a01b0390811692169083565b60405161030f93929190612d63565b34801561049257600080fd5b506103386104a1366004612d87565b610bde565b3480156104b257600080fd5b506103056104c1366004612d04565b6000908152600a602052604090206001015490565b3480156104e257600080fd5b506103056104f1366004612dc3565b610c04565b34801561050257600080fd5b50610516610511366004612dff565b610c1d565b005b34801561052457600080fd5b5061052d610c48565b60405160ff909116815260200161030f565b34801561054b57600080fd5b5061055f61055a366004612e2b565b610c74565b60405161030f9190612e46565b34801561057857600080fd5b50610516610587366004612dff565b610d27565b34801561059857600080fd5b506105a1610d5f565b60405161030f9190612e8a565b3480156105ba57600080fd5b506103056105c9366004612e2b565b610d83565b3480156105da57600080fd5b506103056105e9366004612e2b565b610d9e565b3480156105fa57600080fd5b50610338610609366004612eac565b610dbc565b34801561061a57600080fd5b50610305610629366004612ee3565b610e58565b34801561063a57600080fd5b50610305610649366004612dff565b610f39565b34801561065a57600080fd5b50610516610669366004612f0d565b610f46565b34801561067a57600080fd5b50610305610689366004612e2b565b6001600160a01b031660009081526020819052604090205490565b3480156106b057600080fd5b50610516610fa8565b3480156106c557600080fd5b506105166106d4366004612dc3565b610fbc565b3480156106e557600080fd5b506105166106f4366004612dc3565b610fda565b34801561070557600080fd5b50600e546001600160a01b03166105a1565b34801561072357600080fd5b50610338610732366004612dff565b610ffd565b34801561074357600080fd5b50610305610752366004612dff565b611028565b34801561076357600080fd5b50610391611035565b61051661077a366004612d39565b611044565b34801561078b57600080fd5b50610305600081565b3480156107a057600080fd5b506103056107af366004612e2b565b61136c565b3480156107c057600080fd5b506103386107cf366004612d39565b6113ae565b3480156107e057600080fd5b506103056107ef366004612d04565b6113bc565b34801561080057600080fd5b5061030561080f366004612dc3565b6113c9565b34801561082057600080fd5b506103057f477fc23fb51bb5d5aa814872a393b0e4f35d0916c7503c0fd96584681070d41081565b34801561085457600080fd5b50610338610863366004612ee3565b600960209081526000928352604080842090915290825290205460ff1681565b34801561088f57600080fd5b5061030561089e366004612dc3565b6113de565b3480156108af57600080fd5b506103056108be366004612e2b565b6113eb565b3480156108cf57600080fd5b506108d8611409565b60405161030f9190612f33565b3480156108f157600080fd5b50610305610900366004612e2b565b61146a565b34801561091157600080fd5b50610305610920366004612d04565b611488565b34801561093157600080fd5b50610305610940366004612e2b565b611495565b34801561095157600080fd5b50610965610960366004612dff565b6114a0565b6040805192835260208301919091520161030f565b34801561098657600080fd5b50610305610995366004612e2b565b6115db565b3480156109a657600080fd5b506105166109b5366004612dff565b6115e9565b3480156109c657600080fd5b506103056109d5366004612e2b565b61160e565b3480156109e657600080fd5b506103056109f5366004612dc3565b611619565b348015610a0657600080fd5b50610305610a15366004612ee3565b611632565b348015610a2657600080fd5b50610516610a35366004612f8a565b61165d565b348015610a4657600080fd5b50610516610a55366004612e2b565b6116a2565b6040516370a0823160e01b81526000906001600160a01b037f000000000000000000000000000000000000000000000000000000000000000016906370a0823190610aa9903090600401612e8a565b602060405180830381865afa158015610ac6573d6000803e3d6000fd5b505050506040513d601f19601f82011682018060405250810190610aea9190613000565b905090565b60006001600160e01b03198216631ee878f360e11b1480610b145750610b14826116e0565b92915050565b606060038054610b2990613019565b80601f0160208091040260200160405190810160405280929190818152602001828054610b5590613019565b8015610ba25780601f10610b7757610100808354040283529160200191610ba2565b820191906000526020600020905b815481529060010190602001808311610b8557829003601f168201915b5050505050905090565b6000610b14826000611715565b600033610bc781858561174f565b5060019392505050565b6000610b1482600161175c565b600033610bec85828561178c565b610bf78585856117d9565b60019150505b9392505050565b6000610c11848484611838565b9050610bfd84846118cc565b6000828152600a6020526040902060010154610c3881611a2a565b610c428383611a34565b50505050565b6000610aea817f0000000000000000000000000000000000000000000000000000000000000000613069565b600f546060908067ffffffffffffffff811115610c9357610c93612f74565b604051908082528060200260200182016040528015610cbc578160200160208202803683370190505b50915060005b81811015610d2057610cfb84600f8381548110610ce157610ce1613082565b6000918252602090912001546001600160a01b0316610e58565b838281518110610d0d57610d0d613082565b6020908102919091010152600101610cc2565b5050919050565b6001600160a01b0381163314610d505760405163334bd91960e11b815260040160405180910390fd5b610d5a8282611ac8565b505050565b7f000000000000000000000000000000000000000000000000000000000000000090565b6001600160a01b031660009081526007602052604090205490565b6001600160a01b038116600090815260066020526040812054610b14565b60006001600160a01b0383163303610de75760405163ccea9e6f60e01b815260040160405180910390fd5b3360008181526009602090815260408083206001600160a01b03881680855290835292819020805460ff191687151590811790915590519081529192917fceb576d9f15e4e200fdb5096d64d5dfd667e16def20c1eefd14256d8e3faa267910160405180910390a350600192915050565b6001600160a01b0380821660009081526012602090815260408083208054948716845260119092528220805492939192808503610e9c576000945050505050610b14565b6001600160a01b038616600090815260048301602052604081205490610ec28286613098565b905082610ed782670de0b6b3a76400006130ab565b610ee191906130d8565b9650610ef5670de0b6b3a7640000886130d8565b965086600003610f0457600196505b600d5415610f2d576000610f1d88600b60020154611b35565b9050610f298189613098565b9750505b50505050505092915050565b6000610bfd838333610c04565b610f4e611bb5565b600e805463ffffffff60a01b1916600160a01b63ffffffff8416908102919091179091556040519081527f30131881e801ec5c72cbec6e47ad340b66e5165fa10332f449a92f188a8f27479060200160405180910390a150565b610fb0611bb5565b610fba6000611be2565b565b610fc7838383611c34565b610d5a8284610fd586610bac565b611d0b565b6000610fe584611488565b9050610ff2848484611d9e565b610c42838583611e6b565b6000918252600a602090815260408084206001600160a01b0393909316845291905290205460ff1690565b6000610bfd838333611619565b606060048054610b2990613019565b7f477fc23fb51bb5d5aa814872a393b0e4f35d0916c7503c0fd96584681070d41061106e81611a2a565b816000036110c35760405162461bcd60e51b815260206004820181905260248201527f4173796e635661756c743a20416d6f756e742063616e2774206265207a65726f60448201526064015b60405180910390fd5b6110cb610d5f565b6001600160a01b0316836001600160a01b0316141580156110f557506001600160a01b0383163014155b61115e5760405162461bcd60e51b815260206004820152603460248201527f4173796e635661756c743a2052657761726420616e64205374616b696e6720746044820152736f6b656e732063616e6e6f742062652073616d6560601b60648201526084016110ba565b6001600160a01b0383166111b45760405162461bcd60e51b815260206004820181905260248201527f4173796e635661756c743a20496e76616c69642072657761726420746f6b656e60448201526064016110ba565b6111bc610a5a565b60000361120b5760405162461bcd60e51b815260206004820152601f60248201527f4173796e635661756c743a204e6f20746f6b656e207374616b6564207965740060448201526064016110ba565b600f54600a0361122e57604051637561e0ab60e01b815260040160405180910390fd5b6000611245600161123d610a5a565b859190611ef4565b6001600160a01b038516600090815260126020526040902060018101549192509060ff166112df57600f8054600180820183556000929092527f8d1108e10bcb7c27dddfc02ed9d693a074039d026cf4ea4240b40f7d581ac8020180546001600160a01b0319166001600160a01b038816908117909155828201805460ff19169092179091558282556112da90333087611f12565b611322565b6001600160a01b038516600090815260126020526040812080548492906113079084906130ec565b9091555061132290506001600160a01b038616333087611f12565b846001600160a01b03167fac24935fd910bc682b5ccb1a07b718cadf8cf2f6d1404c4f3ddc3662dae40e298560405161135d91815260200190565b60405180910390a25050505050565b600061137782611495565b6001600160a01b038316600090815260116020526040902060028101546001909101546113a49190613098565b610b149190613098565b600033610bc78185856117d9565b6000610b14826001611715565b60006113d6848484611f6c565b949350505050565b60006113d6848484612000565b6001600160a01b038116600090815260056020526040812054610b14565b6060600f805480602002602001604051908101604052809291908181526020018280548015610ba257602002820191906000526020600020905b81546001600160a01b03168152600190910190602001808311611443575050505050905090565b6001600160a01b031660009081526007602052604090206001015490565b6000610b1482600061175c565b6000610b148261208a565b600f54600c5460009182916001600160a01b031682808381036115105760405162461bcd60e51b815260206004820152602260248201527f4173796e635661756c743a204e6f2072657761726420746f6b656e73206578696044820152611cdd60f21b60648201526084016110ba565b875b848110156115cc57600f818154811061152d5761152d613082565b6000918252602090912001546001600160a01b0316925061154e3384610e58565b6001600160a01b038085166000818152601260209081526040808320543384526011835281842094845260049094019091529020559092508416156115b0576115ab8861159a84612168565b6001600160a01b038616919061226a565b6115c4565b6115c46001600160a01b038416898461226a565b600101611512565b50969792965091945050505050565b6000610b146103b983611495565b6000828152600a602052604090206001015461160481611a2a565b610c428383611ac8565b6000610b1482611495565b6000611626848484612290565b9050610bfd81846118cc565b6001600160a01b03918216600090815260016020908152604080832093909416825291909152205490565b7f74e458455daa935f28c556b43e0cc4ad001a8a090f5feee376681e97d4618f4661168781611a2a565b61169e82600001518360200151846040015161231a565b5050565b6116aa611bb5565b6001600160a01b0381166116d4576000604051631e4fbdf760e01b81526004016110ba9190612e8a565b6116dd81611be2565b50565b60006001600160e01b03198216637965db0b60e01b1480610b1457506301ffc9a760e01b6001600160e01b0319831614610b14565b6000610bfd611722610a5a565b61172d9060016130ec565b6117396000600a6131e3565b60025461174691906130ec565b859190856123d8565b610d5a8383836001612429565b6000610bfd61176c82600a6131e3565b60025461177991906130ec565b611781610a5a565b6117469060016130ec565b60006117988484611632565b90506000198114610c4257818110156117ca57828183604051637dc7a0d960e11b81526004016110ba939291906131f2565b610c4284848484036000612429565b6001600160a01b038316611803576000604051634b637e8f60e11b81526004016110ba9190612e8a565b6001600160a01b03821661182d57600060405163ec442f0560e01b81526004016110ba9190612e8a565b610d5a8383836124fe565b600061184382612615565b61184c82610d83565b84111561187a57818461185e84610d83565b6040516356f1421360e01b81526004016110ba939291906131f2565b6001600160a01b03821660009081526007602090815260409182902082518084019093528054835260010154908201526118b48186612670565b91506118c285838686612685565b5095945050505050565b3360009081526011602052604090206005015460ff1661198357600f5460005b8181101561194e576000600f828154811061190957611909613082565b60009182526020808320909101546001600160a01b031680835260128252604080842054338552601184528185209285526004909201909252912055506001016118ec565b5050336000908152601160205260409020828155600180820193909355426003820155600501805460ff191690921790915550565b3360009081526011602052604081205490036119fe5733600090815260116020526040812080548492906119b89084906130ec565b909155505033600090815260116020526040812060010180548492906119df9084906130ec565b9091555050336000908152601160205260409020426003909101555050565b611a096000826114a0565b505033600090815260116020526040812080548492906119b89084906130ec565b6116dd813361270c565b6000611a408383610ffd565b611ac0576000838152600a602090815260408083206001600160a01b03861684529091529020805460ff19166001179055611a783390565b6001600160a01b0316826001600160a01b0316847f2f8788117e7eff1d82e926ec794901d17c78024a50270940304540a733656f0d60405160405180910390a4506001610b14565b506000610b14565b6000611ad48383610ffd565b15611ac0576000838152600a602090815260408083206001600160a01b0386168085529252808320805460ff1916905551339286917ff6391f5c32d9c69d2a47ea670b442974b53935d1edc7fd64eb21e047a839171b9190a4506001610b14565b6000612710611b4483856130ab565b1015611b9e5760405162461bcd60e51b8152602060048201526024808201527f46433a20546f6f20736d616c6c20616d6f756e7420746f20636f6e73696465726044820152632066656560e01b60648201526084016110ba565b612710611bab83856130ab565b610bfd91906130d8565b600e546001600160a01b03163314610fba573360405163118cdaa760e01b81526004016110ba9190612e8a565b600e80546001600160a01b038381166001600160a01b0319831681179093556040519116919082907f8be0079c531659141344cd1fd0a4f28419497f9722a3daafe3b4186f6b6457e090600090a35050565b82600003611c8e5760405162461bcd60e51b815260206004820152602160248201527f4173796e635661756c743a20496e76616c69642073686172657320616d6f756e6044820152601d60fa1b60648201526084016110ba565b6001600160a01b03821615801590611cae57506001600160a01b03811615155b611cca5760405162461bcd60e51b81526004016110ba90613213565b6001600160a01b038116600090815260096020908152604080832033845290915281205460ff16611cfb5733611cfd565b815b9050610c4284848484612737565b6001600160a01b038316600090815260066020526040902054611d2e90836127ba565b6001600160a01b038416600090815260066020908152604080832093909355600890529081208054839290611d649084906130ec565b90915550506001600160a01b03831660009081526008602052604081206001018054849290611d949084906130ec565b9091555050505050565b82600003611dee5760405162461bcd60e51b815260206004820181905260248201527f4173796e635661756c743a20496e76616c696420617373657420616d6f756e7460448201526064016110ba565b6001600160a01b03821615801590611e0e57506001600160a01b03811615155b611e2a5760405162461bcd60e51b81526004016110ba90613213565b6001600160a01b038116600090815260096020908152604080832033845290915281205460ff16611e5b5733611e5d565b815b9050610c42848484846127c6565b6001600160a01b038316600090815260056020526040902054611e8e90836127ba565b6001600160a01b038416600090815260056020908152604080832093909355600790529081208054849290611ec49084906130ec565b90915550506001600160a01b03831660009081526007602052604081206001018054839290611d949084906130ec565b6000826000190484118302158202611f0b57600080fd5b5091020490565b610c4284856001600160a01b03166323b872dd868686604051602401611f3a93929190612d63565b604051602081830303815290604052915060e01b6020820180516001600160e01b038381831617835250505050612866565b6000611f7782612615565b611f80826115db565b841115611fae578184611f92846115db565b604051633fa733bb60e21b81526004016110ba939291906131f2565b6001600160a01b0382166000908152600860209081526040918290208251808401909352805483526001015490820152611fe88186612670565b9150611ff6858386866128c0565b9695505050505050565b600061200b82612615565b6120148261160e565b8411156120425781846120268461160e565b60405163f046f30360e01b81526004016110ba939291906131f2565b6001600160a01b038216600090815260086020908152604091829020825180840190935280548352600101549082015261207c81866128e6565b91506118c2828686866128c0565b6001600160a01b03811660009081526011602052604081206002810154600182015483916120b791613098565b600e5460038401549192506000916120dc91600160c01b900463ffffffff16906130ec565b9050804210806120ea575081155b156120fa57506000949350505050565b600e5460009061211790600160a01b900463ffffffff16836130ec565b90508042106121285782945061215f565b60006121348342613098565b600e54909150600160a01b900463ffffffff1661215182866130ab565b61215b91906130d8565b9550505b50505050919050565b600c54600d546000916001600160a01b0316908290612188908590611b35565b905080826001600160a01b03166370a08231306040518263ffffffff1660e01b81526004016121b79190612e8a565b602060405180830381865afa1580156121d4573d6000803e3d6000fd5b505050506040513d601f19601f820116820180604052508101906121f89190613000565b10156122465760405162461bcd60e51b815260206004820152601e60248201527f46433a20496e73756666696369656e7420746f6b656e2062616c616e6365000060448201526064016110ba565b600b54612260906001600160a01b0384811691168361226a565b6113d68185613098565b610d5a83846001600160a01b031663a9059cbb8585604051602401611f3a929190613254565b600061229b82612615565b6122a48261146a565b8411156122d25782846122b68461146a565b60405163284ff66760e01b81526004016110ba939291906131f2565b6001600160a01b038216600090815260076020908152604091829020825180840190935280548352600101549082015261230c81866128e6565b9150611ff682868686612685565b612710811061235d5760405162461bcd60e51b815260206004820152600f60248201526e46433a20496e76616c69642066656560881b60448201526064016110ba565b600b80546001600160a01b038581166001600160a01b03199283168117909355600c8054918616919092168117909155600d83905560408051928352602083019190915281018290527febd34b2df88ea5c9f67c04b13b08e5e63c2d17e269aab73b866fe47a8736a2649060600160405180910390a1505050565b6000806123e68686866128fb565b90506123f1836129bf565b801561240d575060008480612408576124086130c2565b868809115b156124205761241d6001826130ec565b90505b95945050505050565b6001600160a01b03841661245357600060405163e602df0560e01b81526004016110ba9190612e8a565b6001600160a01b03831661247d576000604051634a1406b160e11b81526004016110ba9190612e8a565b6001600160a01b0380851660009081526001602090815260408083209387168352929052208290558015610c4257826001600160a01b0316846001600160a01b03167f8c5be1e5ebec7d5bd14f71427d1e84f3dd0314c0f7b2291e5b200ac8c7c3b925846040516124f091815260200190565b60405180910390a350505050565b6001600160a01b03831661252957806002600082825461251e91906130ec565b909155506125889050565b6001600160a01b038316600090815260208190526040902054818110156125695783818360405163391434e360e21b81526004016110ba939291906131f2565b6001600160a01b03841660009081526020819052604090209082900390555b6001600160a01b0382166125a4576002805482900390556125c3565b6001600160a01b03821660009081526020819052604090208054820190555b816001600160a01b0316836001600160a01b03167fddf252ad1be2c89b69c2b068fc378daa952ba7f163c4a11628f55a4df523b3ef8360405161260891815260200190565b60405180910390a3505050565b336001600160a01b0382161480159061265257506001600160a01b038116600090815260096020908152604080832033845290915290205460ff16155b156116dd576040516336abb4df60e11b815260040160405180910390fd5b6000610bfd8360200151838560000151611ef4565b6001600160a01b0380821660008181526007602052604080822080548990038155600101805488900390555190928392908616917fdcbc1c05240f31ff3ad067ef1ee35ce4997762752e3a095284754544f4c709d7906126f1908a908a90918252602082015260400190565b60405180910390a361270384866129ec565b50929492505050565b6127168282610ffd565b61169e57808260405163e2517d3f60e01b81526004016110ba929190613254565b6127428130866124fe565b6001600160a01b0383166000908152600660205260409020546127659085612a22565b6001600160a01b038085166000818152600660205260409081902093909355915190841691907f9d2f438fa9d25ba84aa5ca2b229d4ad0edad29fa7299e8f7dab10d9bc582391c906124f09085908990613254565b6000610bfd8284613098565b6001600160a01b0383166000908152600560205260409020546127e99085612a22565b6001600160a01b038416600090815260056020526040902055612821813086612810610d5f565b6001600160a01b0316929190611f12565b816001600160a01b0316836001600160a01b03167f21c9033b0fdf75a8e4138c4bd5aeae053eee01f1fbd47d59cde75ea492c156e383876040516124f0929190613254565b600061287b6001600160a01b03841683612a2e565b905080516000141580156128a057508080602001905181019061289e919061326d565b155b15610d5a5782604051635274afe760e01b81526004016110ba9190612e8a565b6000806128cd8685612a3c565b6128d986868686612a98565b9150915094509492505050565b6000610bfd8360000151838560200151611ef4565b600083830281600019858709828110838203039150508060000361293257838281612928576129286130c2565b0492505050610bfd565b8084116129525760405163227bc15360e01b815260040160405180910390fd5b6000848688096000868103871696879004966002600389028118808a02820302808a02820302808a02820302808a02820302808a02820302808a02909103029181900381900460010186841190950394909402919094039290920491909117919091029150509392505050565b600060028260038111156129d5576129d561328a565b6129df91906132a0565b60ff166001149050919050565b6001600160a01b038216612a1657600060405163ec442f0560e01b81526004016110ba9190612e8a565b61169e600083836124fe565b6000610bfd82846130ec565b6060610bfd83836000612b3e565b612a476000826114a0565b50503360009081526011602052604081208054849290612a68908490613098565b90915550503360009081526011602052604081206002018054849290612a8f9084906130ec565b90915550505050565b6001600160a01b0381166000908152600860205260408120805486900381556001018054859003905580612acc3086612bd1565b612ae98487612ad9610d5f565b6001600160a01b0316919061226a565b60408051878152602081018790526001600160a01b03808616929087169133917ffbde797d201c681b91056529119e0b02407c7bb96a4a2c75c01fc9667232c8db910160405180910390a45093949293505050565b606081471015612b63573060405163cd78605960e01b81526004016110ba9190612e8a565b600080856001600160a01b03168486604051612b7f91906132c2565b60006040518083038185875af1925050503d8060008114612bbc576040519150601f19603f3d011682016040523d82523d6000602084013e612bc1565b606091505b5091509150611ff6868383612c07565b6001600160a01b038216612bfb576000604051634b637e8f60e11b81526004016110ba9190612e8a565b61169e826000836124fe565b606082612c1c57612c1782612c5a565b610bfd565b8151158015612c3357506001600160a01b0384163b155b15612c535783604051639996b31560e01b81526004016110ba9190612e8a565b5080610bfd565b805115612c6a5780518082602001fd5b604051630a12f52160e11b815260040160405180910390fd5b600060208284031215612c9557600080fd5b81356001600160e01b031981168114610bfd57600080fd5b60005b83811015612cc8578181015183820152602001612cb0565b50506000910152565b6020815260008251806020840152612cf0816040850160208701612cad565b601f01601f19169190910160400192915050565b600060208284031215612d1657600080fd5b5035919050565b80356001600160a01b0381168114612d3457600080fd5b919050565b60008060408385031215612d4c57600080fd5b612d5583612d1d565b946020939093013593505050565b6001600160a01b039384168152919092166020820152604081019190915260600190565b600080600060608486031215612d9c57600080fd5b612da584612d1d565b9250612db360208501612d1d565b9150604084013590509250925092565b600080600060608486031215612dd857600080fd5b83359250612de860208501612d1d565b9150612df660408501612d1d565b90509250925092565b60008060408385031215612e1257600080fd5b82359150612e2260208401612d1d565b90509250929050565b600060208284031215612e3d57600080fd5b610bfd82612d1d565b6020808252825182820181905260009190848201906040850190845b81811015612e7e57835183529284019291840191600101612e62565b50909695505050505050565b6001600160a01b0391909116815260200190565b80151581146116dd57600080fd5b60008060408385031215612ebf57600080fd5b612ec883612d1d565b91506020830135612ed881612e9e565b809150509250929050565b60008060408385031215612ef657600080fd5b612eff83612d1d565b9150612e2260208401612d1d565b600060208284031215612f1f57600080fd5b813563ffffffff81168114610bfd57600080fd5b6020808252825182820181905260009190848201906040850190845b81811015612e7e5783516001600160a01b031683529284019291840191600101612f4f565b634e487b7160e01b600052604160045260246000fd5b600060608284031215612f9c57600080fd5b6040516060810181811067ffffffffffffffff82111715612fcd57634e487b7160e01b600052604160045260246000fd5b604052612fd983612d1d565b8152612fe760208401612d1d565b6020820152604083013560408201528091505092915050565b60006020828403121561301257600080fd5b5051919050565b600181811c9082168061302d57607f821691505b60208210810361304d57634e487b7160e01b600052602260045260246000fd5b50919050565b634e487b7160e01b600052601160045260246000fd5b60ff8181168382160190811115610b1457610b14613053565b634e487b7160e01b600052603260045260246000fd5b81810381811115610b1457610b14613053565b8082028115828204841417610b1457610b14613053565b634e487b7160e01b600052601260045260246000fd5b6000826130e7576130e76130c2565b500490565b80820180821115610b1457610b14613053565b600181815b8085111561313a57816000190482111561312057613120613053565b8085161561312d57918102915b93841c9390800290613104565b509250929050565b60008261315157506001610b14565b8161315e57506000610b14565b8160018114613174576002811461317e5761319a565b6001915050610b14565b60ff84111561318f5761318f613053565b50506001821b610b14565b5060208310610133831016604e8410600b84101617156131bd575081810a610b14565b6131c783836130ff565b80600019048211156131db576131db613053565b029392505050565b6000610bfd60ff841683613142565b6001600160a01b039390931683526020830191909152604082015260600190565b60208082526021908201527f4173796e635661756c743a20496e76616c6964206f776e6572206164647265736040820152607360f81b606082015260800190565b6001600160a01b03929092168252602082015260400190565b60006020828403121561327f57600080fd5b8151610bfd81612e9e565b634e487b7160e01b600052602160045260246000fd5b600060ff8316806132b3576132b36130c2565b8060ff84160691505092915050565b600082516132d4818460208701612cad565b919091019291505056fea26469706673582212207cc36814e97368cb136b9e55f9eb3c5a43e0eaa5e7e59567cfbaa0698b8fe4e164736f6c63430008180033",
  "linkReferences": {},
  "deployedLinkReferences": {}
}