{
  "_format": "hh-sol-artifact-1",
  "contractName": "AsyncVault",
  "sourceName": "contracts/erc7540/AsyncVault.sol",
  "abi": [
    {
      "inputs": [
        {
          "internalType": "contract ERC20",
          "name": "_underlying",
          "type": "address"
        },
        {
          "internalType": "string",
          "name": "_name",
          "type": "string"
        },
        {
          "internalType": "string",
          "name": "_symbol",
          "type": "string"
        },
        {
          "components": [
            {
              "internalType": "address",
              "name": "receiver",
              "type": "address"
            },
            {
              "internalType": "address",
              "name": "token",
              "type": "address"
            },
            {
              "internalType": "uint256",
              "name": "feePercentage",
              "type": "uint256"
            }
          ],
          "internalType": "struct FeeConfiguration.FeeConfig",
          "name": "_feeConfig",
          "type": "tuple"
        },
        {
          "internalType": "address",
          "name": "_vaultRewardController",
          "type": "address"
        },
        {
          "internalType": "address",
          "name": "_feeConfigController",
          "type": "address"
        }
      ],
      "stateMutability": "payable",
      "type": "constructor"
    },
    {
      "inputs": [],
      "name": "AccessControlBadConfirmation",
      "type": "error"
    },
    {
      "inputs": [
        {
          "internalType": "address",
          "name": "account",
          "type": "address"
        },
        {
          "internalType": "bytes32",
          "name": "neededRole",
          "type": "bytes32"
        }
      ],
      "name": "AccessControlUnauthorizedAccount",
      "type": "error"
    },
    {
      "inputs": [],
      "name": "ERC7540CantRequestDepositOnBehalfOf",
      "type": "error"
    },
    {
      "inputs": [
        {
          "internalType": "address",
          "name": "controller",
          "type": "address"
        },
        {
          "internalType": "uint256",
          "name": "assets",
          "type": "uint256"
        },
        {
          "internalType": "uint256",
          "name": "maxDeposit",
          "type": "uint256"
        }
      ],
      "name": "MaxDepositRequestExceeded",
      "type": "error"
    },
    {
      "inputs": [
        {
          "internalType": "address",
          "name": "controller",
          "type": "address"
        },
        {
          "internalType": "uint256",
          "name": "shares",
          "type": "uint256"
        },
        {
          "internalType": "uint256",
          "name": "maxShares",
          "type": "uint256"
        }
      ],
      "name": "MaxRedeemRequestExceeded",
      "type": "error"
    },
    {
      "inputs": [],
      "name": "MaxRewardTokensAmount",
      "type": "error"
    },
    {
      "inputs": [
        {
          "internalType": "address",
          "name": "owner",
          "type": "address"
        }
      ],
      "name": "OwnableInvalidOwner",
      "type": "error"
    },
    {
      "inputs": [
        {
          "internalType": "address",
          "name": "account",
          "type": "address"
        }
      ],
      "name": "OwnableUnauthorizedAccount",
      "type": "error"
    },
    {
      "inputs": [],
      "name": "ReentrancyGuardReentrantCall",
      "type": "error"
    },
    {
      "anonymous": false,
      "inputs": [
        {
          "indexed": true,
          "internalType": "address",
          "name": "owner",
          "type": "address"
        },
        {
          "indexed": true,
          "internalType": "address",
          "name": "spender",
          "type": "address"
        },
        {
          "indexed": false,
          "internalType": "uint256",
          "name": "amount",
          "type": "uint256"
        }
      ],
      "name": "Approval",
      "type": "event"
    },
    {
      "anonymous": false,
      "inputs": [
        {
          "indexed": true,
          "internalType": "uint256",
          "name": "requestId",
          "type": "uint256"
        },
        {
          "indexed": true,
          "internalType": "address",
          "name": "owner",
          "type": "address"
        },
        {
          "indexed": true,
          "internalType": "address",
          "name": "operator",
          "type": "address"
        },
        {
          "indexed": false,
          "internalType": "uint256",
          "name": "assets",
          "type": "uint256"
        },
        {
          "indexed": false,
          "internalType": "uint256",
          "name": "shares",
          "type": "uint256"
        }
      ],
      "name": "ClaimDeposit",
      "type": "event"
    },
    {
      "anonymous": false,
      "inputs": [
        {
          "indexed": true,
          "internalType": "uint256",
          "name": "requestId",
          "type": "uint256"
        },
        {
          "indexed": true,
          "internalType": "address",
          "name": "owner",
          "type": "address"
        },
        {
          "indexed": true,
          "internalType": "address",
          "name": "operator",
          "type": "address"
        },
        {
          "indexed": false,
          "internalType": "uint256",
          "name": "assets",
          "type": "uint256"
        },
        {
          "indexed": false,
          "internalType": "uint256",
          "name": "shares",
          "type": "uint256"
        }
      ],
      "name": "ClaimRedeem",
      "type": "event"
    },
    {
      "anonymous": false,
      "inputs": [
        {
          "indexed": true,
          "internalType": "address",
          "name": "createdToken",
          "type": "address"
        }
      ],
      "name": "CreatedToken",
      "type": "event"
    },
    {
      "anonymous": false,
      "inputs": [
        {
          "indexed": true,
          "internalType": "uint256",
          "name": "requestId",
          "type": "uint256"
        },
        {
          "indexed": true,
          "internalType": "address",
          "name": "owner",
          "type": "address"
        },
        {
          "indexed": true,
          "internalType": "uint256",
          "name": "previousRequestedAssets",
          "type": "uint256"
        },
        {
          "indexed": false,
          "internalType": "uint256",
          "name": "newRequestedAssets",
          "type": "uint256"
        }
      ],
      "name": "DecreaseDepositRequest",
      "type": "event"
    },
    {
      "anonymous": false,
      "inputs": [
        {
          "indexed": true,
          "internalType": "address",
          "name": "controller",
          "type": "address"
        },
        {
          "indexed": true,
          "internalType": "address",
          "name": "owner",
          "type": "address"
        },
        {
          "indexed": true,
          "internalType": "uint256",
          "name": "requestId",
          "type": "uint256"
        },
        {
          "indexed": false,
          "internalType": "address",
          "name": "sender",
          "type": "address"
        },
        {
          "indexed": false,
          "internalType": "uint256",
          "name": "assets",
          "type": "uint256"
        }
      ],
      "name": "DepositRequested",
      "type": "event"
    },
    {
      "anonymous": false,
      "inputs": [
        {
          "components": [
            {
              "internalType": "address",
              "name": "receiver",
              "type": "address"
            },
            {
              "internalType": "address",
              "name": "token",
              "type": "address"
            },
            {
              "internalType": "uint256",
              "name": "feePercentage",
              "type": "uint256"
            }
          ],
          "indexed": false,
          "internalType": "struct FeeConfiguration.FeeConfig",
          "name": "feeConfig",
          "type": "tuple"
        }
      ],
      "name": "FeeConfigUpdated",
      "type": "event"
    },
    {
      "anonymous": false,
      "inputs": [
        {
          "indexed": true,
          "internalType": "address",
          "name": "previousOwner",
          "type": "address"
        },
        {
          "indexed": true,
          "internalType": "address",
          "name": "newOwner",
          "type": "address"
        }
      ],
      "name": "OwnershipTransferred",
      "type": "event"
    },
    {
      "anonymous": false,
      "inputs": [
        {
          "indexed": true,
          "internalType": "address",
          "name": "controller",
          "type": "address"
        },
        {
          "indexed": true,
          "internalType": "address",
          "name": "owner",
          "type": "address"
        },
        {
          "indexed": true,
          "internalType": "uint256",
          "name": "requestId",
          "type": "uint256"
        },
        {
          "indexed": false,
          "internalType": "address",
          "name": "sender",
          "type": "address"
        },
        {
          "indexed": false,
          "internalType": "uint256",
          "name": "shares",
          "type": "uint256"
        }
      ],
      "name": "RedeemRequested",
      "type": "event"
    },
    {
      "anonymous": false,
      "inputs": [
        {
          "indexed": true,
          "internalType": "address",
          "name": "rewardToken",
          "type": "address"
        },
        {
          "indexed": false,
          "internalType": "uint256",
          "name": "amount",
          "type": "uint256"
        }
      ],
      "name": "RewardAdded",
      "type": "event"
    },
    {
      "anonymous": false,
      "inputs": [
        {
          "indexed": true,
          "internalType": "bytes32",
          "name": "role",
          "type": "bytes32"
        },
        {
          "indexed": true,
          "internalType": "bytes32",
          "name": "previousAdminRole",
          "type": "bytes32"
        },
        {
          "indexed": true,
          "internalType": "bytes32",
          "name": "newAdminRole",
          "type": "bytes32"
        }
      ],
      "name": "RoleAdminChanged",
      "type": "event"
    },
    {
      "anonymous": false,
      "inputs": [
        {
          "indexed": true,
          "internalType": "bytes32",
          "name": "role",
          "type": "bytes32"
        },
        {
          "indexed": true,
          "internalType": "address",
          "name": "account",
          "type": "address"
        },
        {
          "indexed": true,
          "internalType": "address",
          "name": "sender",
          "type": "address"
        }
      ],
      "name": "RoleGranted",
      "type": "event"
    },
    {
      "anonymous": false,
      "inputs": [
        {
          "indexed": true,
          "internalType": "bytes32",
          "name": "role",
          "type": "bytes32"
        },
        {
          "indexed": true,
          "internalType": "address",
          "name": "account",
          "type": "address"
        },
        {
          "indexed": true,
          "internalType": "address",
          "name": "sender",
          "type": "address"
        }
      ],
      "name": "RoleRevoked",
      "type": "event"
    },
    {
      "anonymous": false,
      "inputs": [
        {
          "indexed": true,
          "internalType": "address",
          "name": "from",
          "type": "address"
        },
        {
          "indexed": true,
          "internalType": "address",
          "name": "to",
          "type": "address"
        },
        {
          "indexed": false,
          "internalType": "uint256",
          "name": "amount",
          "type": "uint256"
        }
      ],
      "name": "Transfer",
      "type": "event"
    },
    {
      "inputs": [],
      "name": "DEFAULT_ADMIN_ROLE",
      "outputs": [
        {
          "internalType": "bytes32",
          "name": "",
          "type": "bytes32"
        }
      ],
      "stateMutability": "view",
      "type": "function"
    },
    {
      "inputs": [],
      "name": "DOMAIN_SEPARATOR",
      "outputs": [
        {
          "internalType": "bytes32",
          "name": "",
          "type": "bytes32"
        }
      ],
      "stateMutability": "view",
      "type": "function"
    },
    {
      "inputs": [],
      "name": "FEE_CONFIG_CONTROLLER_ROLE",
      "outputs": [
        {
          "internalType": "bytes32",
          "name": "",
          "type": "bytes32"
        }
      ],
      "stateMutability": "view",
      "type": "function"
    },
    {
      "inputs": [],
      "name": "VAULT_REWARD_CONTROLLER_ROLE",
      "outputs": [
        {
          "internalType": "bytes32",
          "name": "",
          "type": "bytes32"
        }
      ],
      "stateMutability": "view",
      "type": "function"
    },
    {
      "inputs": [
        {
          "internalType": "address",
          "name": "_token",
          "type": "address"
        },
        {
          "internalType": "uint256",
          "name": "_amount",
          "type": "uint256"
        }
      ],
      "name": "addReward",
      "outputs": [],
      "stateMutability": "payable",
      "type": "function"
    },
    {
      "inputs": [
        {
          "internalType": "address",
          "name": "",
          "type": "address"
        },
        {
          "internalType": "address",
          "name": "",
          "type": "address"
        }
      ],
      "name": "allowance",
      "outputs": [
        {
          "internalType": "uint256",
          "name": "",
          "type": "uint256"
        }
      ],
      "stateMutability": "view",
      "type": "function"
    },
    {
      "inputs": [
        {
          "internalType": "address",
          "name": "spender",
          "type": "address"
        },
        {
          "internalType": "uint256",
          "name": "amount",
          "type": "uint256"
        }
      ],
      "name": "approve",
      "outputs": [
        {
          "internalType": "bool",
          "name": "",
          "type": "bool"
        }
      ],
      "stateMutability": "nonpayable",
      "type": "function"
    },
    {
      "inputs": [],
      "name": "asset",
      "outputs": [
        {
          "internalType": "contract ERC20",
          "name": "",
          "type": "address"
        }
      ],
      "stateMutability": "view",
      "type": "function"
    },
    {
      "inputs": [],
      "name": "assetTotalSupply",
      "outputs": [
        {
          "internalType": "uint256",
          "name": "",
          "type": "uint256"
        }
      ],
      "stateMutability": "view",
      "type": "function"
    },
    {
      "inputs": [
        {
          "internalType": "address",
          "name": "",
          "type": "address"
        }
      ],
      "name": "balanceOf",
      "outputs": [
        {
          "internalType": "uint256",
          "name": "",
          "type": "uint256"
        }
      ],
      "stateMutability": "view",
      "type": "function"
    },
    {
      "inputs": [
        {
          "internalType": "uint256",
          "name": "_startPosition",
          "type": "uint256"
        }
      ],
      "name": "claimAllReward",
      "outputs": [
        {
          "internalType": "uint256",
          "name": "",
          "type": "uint256"
        },
        {
          "internalType": "uint256",
          "name": "",
          "type": "uint256"
        }
      ],
      "stateMutability": "payable",
      "type": "function"
    },
    {
      "inputs": [
        {
          "internalType": "address",
          "name": "receiver",
          "type": "address"
        },
        {
          "internalType": "uint256",
          "name": "requestId",
          "type": "uint256"
        }
      ],
      "name": "claimDeposit",
      "outputs": [
        {
          "internalType": "uint256",
          "name": "shares",
          "type": "uint256"
        }
      ],
      "stateMutability": "nonpayable",
      "type": "function"
    },
    {
      "inputs": [
        {
          "internalType": "address",
          "name": "receiver",
          "type": "address"
        },
        {
          "internalType": "uint256",
          "name": "requestId",
          "type": "uint256"
        }
      ],
      "name": "claimRedeem",
      "outputs": [
        {
          "internalType": "uint256",
          "name": "assets",
          "type": "uint256"
        }
      ],
      "stateMutability": "nonpayable",
      "type": "function"
    },
    {
      "inputs": [
        {
          "internalType": "address",
          "name": "",
          "type": "address"
        }
      ],
      "name": "claimableDepositBalance",
      "outputs": [
        {
          "internalType": "uint256",
          "name": "",
          "type": "uint256"
        }
      ],
      "stateMutability": "view",
      "type": "function"
    },
    {
      "inputs": [],
      "name": "decimals",
      "outputs": [
        {
          "internalType": "uint8",
          "name": "",
          "type": "uint8"
        }
      ],
      "stateMutability": "view",
      "type": "function"
    },
    {
      "inputs": [
        {
          "internalType": "uint256",
          "name": "assets",
          "type": "uint256"
        },
        {
          "internalType": "uint256",
          "name": "requestId",
          "type": "uint256"
        }
      ],
      "name": "decreaseDepositRequest",
      "outputs": [],
      "stateMutability": "nonpayable",
      "type": "function"
    },
    {
      "inputs": [
        {
          "internalType": "address",
          "name": "",
          "type": "address"
        },
        {
          "internalType": "uint256",
          "name": "requestId",
          "type": "uint256"
        }
      ],
      "name": "deposits",
      "outputs": [
        {
          "internalType": "uint256",
          "name": "",
          "type": "uint256"
        }
      ],
      "stateMutability": "view",
      "type": "function"
    },
    {
      "inputs": [],
      "name": "feeConfig",
      "outputs": [
        {
          "internalType": "address",
          "name": "receiver",
          "type": "address"
        },
        {
          "internalType": "address",
          "name": "token",
          "type": "address"
        },
        {
          "internalType": "uint256",
          "name": "feePercentage",
          "type": "uint256"
        }
      ],
      "stateMutability": "view",
      "type": "function"
    },
    {
      "inputs": [],
      "name": "getRewardTokens",
      "outputs": [
        {
          "internalType": "address[]",
          "name": "",
          "type": "address[]"
        }
      ],
      "stateMutability": "view",
      "type": "function"
    },
    {
      "inputs": [
        {
          "internalType": "bytes32",
          "name": "role",
          "type": "bytes32"
        }
      ],
      "name": "getRoleAdmin",
      "outputs": [
        {
          "internalType": "bytes32",
          "name": "",
          "type": "bytes32"
        }
      ],
      "stateMutability": "view",
      "type": "function"
    },
    {
      "inputs": [
        {
          "internalType": "address",
          "name": "_user",
          "type": "address"
        },
        {
          "internalType": "address",
          "name": "_rewardToken",
          "type": "address"
        }
      ],
      "name": "getUserReward",
      "outputs": [
        {
          "internalType": "uint256",
          "name": "unclaimedAmount",
          "type": "uint256"
        }
      ],
      "stateMutability": "view",
      "type": "function"
    },
    {
      "inputs": [
        {
          "internalType": "bytes32",
          "name": "role",
          "type": "bytes32"
        },
        {
          "internalType": "address",
          "name": "account",
          "type": "address"
        }
      ],
      "name": "grantRole",
      "outputs": [],
      "stateMutability": "nonpayable",
      "type": "function"
    },
    {
      "inputs": [
        {
          "internalType": "bytes32",
          "name": "role",
          "type": "bytes32"
        },
        {
          "internalType": "address",
          "name": "account",
          "type": "address"
        }
      ],
      "name": "hasRole",
      "outputs": [
        {
          "internalType": "bool",
          "name": "",
          "type": "bool"
        }
      ],
      "stateMutability": "view",
      "type": "function"
    },
    {
      "inputs": [
        {
          "internalType": "address",
          "name": "",
          "type": "address"
        }
      ],
      "name": "maxDepositRequest",
      "outputs": [
        {
          "internalType": "uint256",
          "name": "",
          "type": "uint256"
        }
      ],
      "stateMutability": "pure",
      "type": "function"
    },
    {
      "inputs": [
        {
          "internalType": "address",
          "name": "owner",
          "type": "address"
        }
      ],
      "name": "maxRedeemRequest",
      "outputs": [
        {
          "internalType": "uint256",
          "name": "",
          "type": "uint256"
        }
      ],
      "stateMutability": "view",
      "type": "function"
    },
    {
      "inputs": [],
      "name": "name",
      "outputs": [
        {
          "internalType": "string",
          "name": "",
          "type": "string"
        }
      ],
      "stateMutability": "view",
      "type": "function"
    },
    {
      "inputs": [],
      "name": "nextDepositRequestId",
      "outputs": [
        {
          "internalType": "uint256",
          "name": "",
          "type": "uint256"
        }
      ],
      "stateMutability": "view",
      "type": "function"
    },
    {
      "inputs": [],
      "name": "nextRedeemRequestId",
      "outputs": [
        {
          "internalType": "uint256",
          "name": "",
          "type": "uint256"
        }
      ],
      "stateMutability": "view",
      "type": "function"
    },
    {
      "inputs": [
        {
          "internalType": "address",
          "name": "",
          "type": "address"
        }
      ],
      "name": "nonces",
      "outputs": [
        {
          "internalType": "uint256",
          "name": "",
          "type": "uint256"
        }
      ],
      "stateMutability": "view",
      "type": "function"
    },
    {
      "inputs": [],
      "name": "owner",
      "outputs": [
        {
          "internalType": "address",
          "name": "",
          "type": "address"
        }
      ],
      "stateMutability": "view",
      "type": "function"
    },
    {
      "inputs": [
        {
          "internalType": "address",
          "name": "",
          "type": "address"
        }
      ],
      "name": "pendingDepositBalance",
      "outputs": [
        {
          "internalType": "uint256",
          "name": "",
          "type": "uint256"
        }
      ],
      "stateMutability": "view",
      "type": "function"
    },
    {
      "inputs": [
        {
          "internalType": "address",
          "name": "owner",
          "type": "address"
        },
        {
          "internalType": "uint256",
          "name": "requestId",
          "type": "uint256"
        }
      ],
      "name": "pendingDepositRequest",
      "outputs": [
        {
          "internalType": "uint256",
          "name": "assets",
          "type": "uint256"
        }
      ],
      "stateMutability": "view",
      "type": "function"
    },
    {
      "inputs": [
        {
          "internalType": "address",
          "name": "owner",
          "type": "address"
        },
        {
          "internalType": "uint256",
          "name": "requestId",
          "type": "uint256"
        }
      ],
      "name": "pendingRedeemRequest",
      "outputs": [
        {
          "internalType": "uint256",
          "name": "shares",
          "type": "uint256"
        }
      ],
      "stateMutability": "view",
      "type": "function"
    },
    {
      "inputs": [
        {
          "internalType": "address",
          "name": "owner",
          "type": "address"
        },
        {
          "internalType": "address",
          "name": "spender",
          "type": "address"
        },
        {
          "internalType": "uint256",
          "name": "value",
          "type": "uint256"
        },
        {
          "internalType": "uint256",
          "name": "deadline",
          "type": "uint256"
        },
        {
          "internalType": "uint8",
          "name": "v",
          "type": "uint8"
        },
        {
          "internalType": "bytes32",
          "name": "r",
          "type": "bytes32"
        },
        {
          "internalType": "bytes32",
          "name": "s",
          "type": "bytes32"
        }
      ],
      "name": "permit",
      "outputs": [],
      "stateMutability": "nonpayable",
      "type": "function"
    },
    {
      "inputs": [
        {
          "internalType": "address",
          "name": "owner",
          "type": "address"
        },
        {
          "internalType": "uint256",
          "name": "requestId",
          "type": "uint256"
        }
      ],
      "name": "previewClaimDeposit",
      "outputs": [
        {
          "internalType": "uint256",
          "name": "",
          "type": "uint256"
        }
      ],
      "stateMutability": "view",
      "type": "function"
    },
    {
      "inputs": [
        {
          "internalType": "address",
          "name": "owner",
          "type": "address"
        },
        {
          "internalType": "uint256",
          "name": "requestId",
          "type": "uint256"
        }
      ],
      "name": "previewClaimRedeem",
      "outputs": [
        {
          "internalType": "uint256",
          "name": "",
          "type": "uint256"
        }
      ],
      "stateMutability": "view",
      "type": "function"
    },
    {
      "inputs": [
        {
          "internalType": "address",
          "name": "",
          "type": "address"
        },
        {
          "internalType": "uint256",
          "name": "requestId",
          "type": "uint256"
        }
      ],
      "name": "redeems",
      "outputs": [
        {
          "internalType": "uint256",
          "name": "",
          "type": "uint256"
        }
      ],
      "stateMutability": "view",
      "type": "function"
    },
    {
      "inputs": [],
      "name": "renounceOwnership",
      "outputs": [],
      "stateMutability": "nonpayable",
      "type": "function"
    },
    {
      "inputs": [
        {
          "internalType": "bytes32",
          "name": "role",
          "type": "bytes32"
        },
        {
          "internalType": "address",
          "name": "callerConfirmation",
          "type": "address"
        }
      ],
      "name": "renounceRole",
      "outputs": [],
      "stateMutability": "nonpayable",
      "type": "function"
    },
    {
      "inputs": [
        {
          "internalType": "uint256",
          "name": "assets",
          "type": "uint256"
        },
        {
          "internalType": "address",
          "name": "operator",
          "type": "address"
        },
        {
          "internalType": "address",
          "name": "owner",
          "type": "address"
        }
      ],
      "name": "requestDeposit",
      "outputs": [],
      "stateMutability": "nonpayable",
      "type": "function"
    },
    {
      "inputs": [
        {
          "internalType": "uint256",
          "name": "shares",
          "type": "uint256"
        },
        {
          "internalType": "address",
          "name": "operator",
          "type": "address"
        },
        {
          "internalType": "address",
          "name": "owner",
          "type": "address"
        }
      ],
      "name": "requestRedeem",
      "outputs": [],
      "stateMutability": "nonpayable",
      "type": "function"
    },
    {
      "inputs": [
        {
          "internalType": "bytes32",
          "name": "role",
          "type": "bytes32"
        },
        {
          "internalType": "address",
          "name": "account",
          "type": "address"
        }
      ],
      "name": "revokeRole",
      "outputs": [],
      "stateMutability": "nonpayable",
      "type": "function"
    },
    {
      "inputs": [
        {
          "internalType": "uint256",
          "name": "",
          "type": "uint256"
        }
      ],
      "name": "rewardTokens",
      "outputs": [
        {
          "internalType": "address",
          "name": "",
          "type": "address"
        }
      ],
      "stateMutability": "view",
      "type": "function"
    },
    {
      "inputs": [],
      "name": "share",
      "outputs": [
        {
          "internalType": "address",
          "name": "",
          "type": "address"
        }
      ],
      "stateMutability": "view",
      "type": "function"
    },
    {
      "inputs": [
        {
          "internalType": "bytes4",
          "name": "interfaceId",
          "type": "bytes4"
        }
      ],
      "name": "supportsInterface",
      "outputs": [
        {
          "internalType": "bool",
          "name": "",
          "type": "bool"
        }
      ],
      "stateMutability": "view",
      "type": "function"
    },
    {
      "inputs": [],
      "name": "symbol",
      "outputs": [
        {
          "internalType": "string",
          "name": "",
          "type": "string"
        }
      ],
      "stateMutability": "view",
      "type": "function"
    },
    {
      "inputs": [
        {
          "internalType": "address",
          "name": "",
          "type": "address"
        }
      ],
      "name": "tokensRewardInfo",
      "outputs": [
        {
          "internalType": "uint256",
          "name": "amount",
          "type": "uint256"
        },
        {
          "internalType": "bool",
          "name": "exist",
          "type": "bool"
        }
      ],
      "stateMutability": "view",
      "type": "function"
    },
    {
      "inputs": [],
      "name": "totalAssets",
      "outputs": [
        {
          "internalType": "uint256",
          "name": "",
          "type": "uint256"
        }
      ],
      "stateMutability": "view",
      "type": "function"
    },
    {
      "inputs": [],
      "name": "totalSupply",
      "outputs": [
        {
          "internalType": "uint256",
          "name": "",
          "type": "uint256"
        }
      ],
      "stateMutability": "view",
      "type": "function"
    },
    {
      "inputs": [
        {
          "internalType": "address",
          "name": "to",
          "type": "address"
        },
        {
          "internalType": "uint256",
          "name": "amount",
          "type": "uint256"
        }
      ],
      "name": "transfer",
      "outputs": [
        {
          "internalType": "bool",
          "name": "",
          "type": "bool"
        }
      ],
      "stateMutability": "nonpayable",
      "type": "function"
    },
    {
      "inputs": [
        {
          "internalType": "address",
          "name": "from",
          "type": "address"
        },
        {
          "internalType": "address",
          "name": "to",
          "type": "address"
        },
        {
          "internalType": "uint256",
          "name": "amount",
          "type": "uint256"
        }
      ],
      "name": "transferFrom",
      "outputs": [
        {
          "internalType": "bool",
          "name": "",
          "type": "bool"
        }
      ],
      "stateMutability": "nonpayable",
      "type": "function"
    },
    {
      "inputs": [
        {
          "internalType": "address",
          "name": "newOwner",
          "type": "address"
        }
      ],
      "name": "transferOwnership",
      "outputs": [],
      "stateMutability": "nonpayable",
      "type": "function"
    },
    {
      "inputs": [
        {
          "components": [
            {
              "internalType": "address",
              "name": "receiver",
              "type": "address"
            },
            {
              "internalType": "address",
              "name": "token",
              "type": "address"
            },
            {
              "internalType": "uint256",
              "name": "feePercentage",
              "type": "uint256"
            }
          ],
          "internalType": "struct FeeConfiguration.FeeConfig",
          "name": "_feeConfig",
          "type": "tuple"
        }
      ],
      "name": "updateFeeConfig",
      "outputs": [],
      "stateMutability": "nonpayable",
      "type": "function"
    },
    {
      "inputs": [
        {
          "internalType": "address",
          "name": "",
          "type": "address"
        }
      ],
      "name": "userContribution",
      "outputs": [
        {
          "internalType": "uint256",
          "name": "sharesAmount",
          "type": "uint256"
        },
        {
          "internalType": "bool",
          "name": "exist",
          "type": "bool"
        }
      ],
      "stateMutability": "view",
      "type": "function"
    }
  ],
  "bytecode": "0x6101006040526040516200436938038062004369833981016040819052620000279162000b14565b338585886001600160a01b031663313ce5676040518163ffffffff1660e01b8152600401602060405180830381865afa15801562000069573d6000803e3d6000fd5b505050506040513d601f19601f820116820180604052508101906200008f919062000c0d565b60006200009d848262000cca565b506001620000ac838262000cca565b5060ff81166080524660a052620000c262000146565b60c05250506001600a55506001600160a01b038116620000fd57604051631e4fbdf760e01b8152600060048201526024015b60405180910390fd5b6200010881620001e2565b506200011683838362000234565b6001600160a01b03861660e052600160158190556016556200013a858588620002ba565b505050505050620010e1565b60007f8b73c3c69bb8fe3d512ecc4cf759cc79239f7b179b0ffacaa9a75d522b39400f60006040516200017a919062000d96565b6040805191829003822060208301939093528101919091527fc89efdaa54c0f20c7adf612882df0950f5a951637e0307cdcb4c672f298b8bc660608201524660808201523060a082015260c00160405160208183030381529060405280519060200120905090565b600b80546001600160a01b038381166001600160a01b0319831681179093556040519116919082907f8be0079c531659141344cd1fd0a4f28419497f9722a3daafe3b4186f6b6457e090600090a35050565b8251602084015160408501516200024d9291906200055d565b6200025a6000336200061d565b50620002877f477fc23fb51bb5d5aa814872a393b0e4f35d0916c7503c0fd96584681070d410836200061d565b50620002b47f74e458455daa935f28c556b43e0cc4ad001a8a090f5feee376681e97d4618f46826200061d565b50505050565b620002c68130620006d0565b6040805160a08082018352600080835260208084018290526060848601819052808501819052306080808701829052875195860188528486528584018590528588018390528583018390528501528551600280825291810190965260109560019594939290919082015b6200033a62000993565b81526020019060019003908162000330579050509050604051806040016040528086815260200184815250816000815181106200037b576200037b62000e14565b602002602001018190525060405180604001604052808581526020018381525081600181518110620003b157620003b162000e14565b6020026020010181905250620003f66040518060600160405280600063ffffffff16815260200160006001600160a01b03168152602001600063ffffffff1681525090565b306020820152627a120060408201526200046c60408051610120810182526060808252602080830182905260008385018190528284018390526080840181905260a0840181905260c0840181905260e0840183905284519283018552808352908201819052928101929092529061010082015290565b89815260208082018a905230604080840191909152610100830184905260e08301859052805163313ce56760e01b81529051620005099284926000926001600160a01b038e169263313ce56792600480820193918290030181865afa158015620004da573d6000803e3d6000fd5b505050506040513d601f19601f8201168201806040525081019062000500919062000c0d565b60ff16620007ff565b600c80546001600160a01b0319166001600160a01b039290921691821790556040517f7bb17726df1f3adee8aa00ba8e8bc5d6f182af3bbf77604639cb7f008dd3b4ed90600090a250505050505050505050565b6127108110620005a25760405162461bcd60e51b815260206004820152600f60248201526e46433a20496e76616c69642066656560881b6044820152606401620000f4565b600780546001600160a01b038581166001600160a01b0319928316811790935560088054918616919092168117909155600983905560408051928352602083019190915281018290527febd34b2df88ea5c9f67c04b13b08e5e63c2d17e269aab73b866fe47a8736a2649060600160405180910390a1505050565b60008281526006602090815260408083206001600160a01b038516845290915281205460ff16620006c65760008381526006602090815260408083206001600160a01b03861684529091529020805460ff191660011790556200067d3390565b6001600160a01b0316826001600160a01b0316847f2f8788117e7eff1d82e926ec794901d17c78024a50270940304540a733656f0d60405160405180910390a4506001620006ca565b5060005b92915050565b604080516001600160a01b038381166024830152841660448083019190915282518083039091018152606490910182526020810180516001600160e01b031663248a35ef60e11b1790529051600091829182916101679162000733919062000e2a565b6000604051808303816000865af19150503d806000811462000772576040519150601f19603f3d011682016040523d82523d6000602084013e62000777565b606091505b5091509150816200078a576015620007a0565b80806020019051810190620007a0919062000e5b565b9250600383900b601614620007f85760405162461bcd60e51b815260206004820152601f60248201527f536166652073696e676c65206173736f63696174696f6e206661696c656421006044820152606401620000f4565b5050505050565b61010083015151600090849063ffffffff161580156200082c57506101008101516040015163ffffffff16155b1562000843576101008101516276a7006040909101525b60008060006101676001600160a01b031634637812a04b60e01b8a8a8a604051602401620008749392919062000f78565b60408051601f198184030181529181526020820180516001600160e01b03166001600160e01b0319909416939093179092529051620008b4919062000e2a565b60006040518083038185875af1925050503d8060008114620008f3576040519150601f19603f3d011682016040523d82523d6000602084013e620008f8565b606091505b5091509150816200090d576015600062000923565b80806020019051810190620009239190620010a5565b95509250600383900b601614620009885760405162461bcd60e51b815260206004820152602260248201527f53616665206372656174652066756e6769626c6520746f6b656e206661696c65604482015261642160f01b6064820152608401620000f4565b505050509392505050565b604051806040016040528060008152602001620009ec6040518060a0016040528060001515815260200160006001600160a01b03168152602001606081526020016060815260200160006001600160a01b031681525090565b905290565b6001600160a01b038116811462000a0757600080fd5b50565b634e487b7160e01b600052604160045260246000fd5b604051606081016001600160401b038111828210171562000a455762000a4562000a0a565b60405290565b60005b8381101562000a6857818101518382015260200162000a4e565b50506000910152565b600082601f83011262000a8357600080fd5b81516001600160401b038082111562000aa05762000aa062000a0a565b604051601f8301601f19908116603f0116810190828211818310171562000acb5762000acb62000a0a565b8160405283815286602085880101111562000ae557600080fd5b62000af884602083016020890162000a4b565b9695505050505050565b805162000b0f81620009f1565b919050565b60008060008060008086880361010081121562000b3057600080fd5b875162000b3d81620009f1565b60208901519097506001600160401b038082111562000b5b57600080fd5b62000b698b838c0162000a71565b975060408a015191508082111562000b8057600080fd5b5062000b8f8a828b0162000a71565b9550506060605f198201121562000ba557600080fd5b5062000bb062000a20565b606088015162000bc081620009f1565b8152608088015162000bd281620009f1565b602082015260a08801516040820152925062000bf160c0880162000b02565b915062000c0160e0880162000b02565b90509295509295509295565b60006020828403121562000c2057600080fd5b815160ff8116811462000c3257600080fd5b9392505050565b600181811c9082168062000c4e57607f821691505b60208210810362000c6f57634e487b7160e01b600052602260045260246000fd5b50919050565b601f82111562000cc5576000816000526020600020601f850160051c8101602086101562000ca05750805b601f850160051c820191505b8181101562000cc15782815560010162000cac565b5050505b505050565b81516001600160401b0381111562000ce65762000ce662000a0a565b62000cfe8162000cf7845462000c39565b8462000c75565b602080601f83116001811462000d36576000841562000d1d5750858301515b600019600386901b1c1916600185901b17855562000cc1565b600085815260208120601f198616915b8281101562000d675788860151825594840194600190910190840162000d46565b508582101562000d865787850151600019600388901b60f8161c191681555b5050505050600190811b01905550565b600080835462000da68162000c39565b6001828116801562000dc1576001811462000dd75762000e08565b60ff198416875282151583028701945062000e08565b8760005260208060002060005b8581101562000dff5781548a82015290840190820162000de4565b50505082870194505b50929695505050505050565b634e487b7160e01b600052603260045260246000fd5b6000825162000e3e81846020870162000a4b565b9190910192915050565b8051600381900b811462000b0f57600080fd5b60006020828403121562000e6e57600080fd5b62000c328262000e48565b6000815180845262000e9381602086016020860162000a4b565b601f01601f19169290920160200192915050565b600082825180855260208086019550808260051b84010181860160005b8481101562000f6b57858303601f1901895281518051845284015160408585018190528151151581860152818601516001600160a01b039081166060808801919091529183015160a0608080890182905291939092909162000f2a60e08a018662000e79565b92860151898403603f1901858b015292945062000f48858462000e79565b9501511660c0979097019690965250509884019892509083019060010162000ec4565b5090979650505050505050565b606081526000845161016080606085015262000f996101c085018362000e79565b91506020870151605f198086850301608087015262000fb9848362000e79565b93506040890151915062000fd860a08701836001600160a01b03169052565b60608901519150808685030160c087015262000ff5848362000e79565b9350608089015191506200100d60e087018315159052565b60a08901519150610100620010298188018463ffffffff169052565b60c08a0151151561012088015260e08a01518786038301610140890152925062001054858462000ea7565b9450808a0151925050506200109182860182805163ffffffff90811683526020808301516001600160a01b03169084015260409182015116910152565b505060208301949094525060400152919050565b60008060408385031215620010b957600080fd5b620010c48362000e48565b91506020830151620010d681620009f1565b809150509250929050565b60805160a05160c05160e05161322b6200113e600039600081816105f001528181610bad01528181610f75015281816114b30152818161161f01526124670152600061102601526000610ff601526000610555015261322b6000f3fe6080604052600436106103355760003560e01c80637ecebe00116101ab578063a9059cbb116100f7578063d6543a5811610095578063dd62ed3e1161006f578063dd62ed3e14610b07578063efa6f42514610b3f578063f2fde38b14610b5f578063fddca04114610b7f57600080fd5b8063d6543a5814610a6c578063d6d6817714610a99578063db6b207414610ad157600080fd5b8063c4f59f9b116100d1578063c4f59f9b146109d3578063cd9cdfda146109f5578063d505accf14610a2c578063d547741f14610a4c57600080fd5b8063a9059cbb1461093c578063aa3a08301461095c578063b4f6d6131461099f57600080fd5b806395ab1924116101645780639feb8f501161013e5780639feb8f50146108d4578063a1bfe1ba146108e7578063a217fddf14610907578063a8d5fd651461091c57600080fd5b806395ab19241461087257806395d89b41146108925780639930f7c8146108a757600080fd5b80637ecebe001461079957806385b77f45146107c6578063890b1c99146107e65780638da5cb5b1461081e5780638f12c2f41461083c57806391d148541461085257600080fd5b80633528b03411610285578063552bba8c11610223578063715018a6116101fd578063715018a61461071c5780637a07bf3a146107315780637bb7bed1146107595780637d41c86e1461077957600080fd5b8063552bba8c1461068c5780635ab764ed146106cf57806370a08231146106ef57600080fd5b806338d52e0f1161025f57806338d52e0f146105de57806340e44a541461062a5780634715b00f1461064a57806353f228671461066a57600080fd5b80633528b034146105895780633644e515146105a957806336568abe146105be57600080fd5b806316ad0672116102f257806323b872dd116102cc57806323b872dd146104d1578063248a9ca3146104f15780632f2ff15d14610521578063313ce5671461054357600080fd5b806316ad06721461041e57806318160ddd1461046a5780631e5eb1d01461048057600080fd5b806301e1d1141461033a57806301ffc9a71461036257806305fb2a511461039257806306fdde03146103c6578063095ea7b3146103e85780631587a90c14610408575b600080fd5b34801561034657600080fd5b5061034f610b95565b6040519081526020015b60405180910390f35b34801561036e57600080fd5b5061038261037d366004612ac0565b610c25565b6040519015158152602001610359565b34801561039e57600080fd5b5061034f7f74e458455daa935f28c556b43e0cc4ad001a8a090f5feee376681e97d4618f4681565b3480156103d257600080fd5b506103db610c5c565b6040516103599190612b3a565b3480156103f457600080fd5b50610382610403366004612b69565b610cea565b34801561041457600080fd5b5061034f60155481565b34801561042a57600080fd5b50610455610439366004612b93565b6013602052600090815260409020805460029091015460ff1682565b60408051928352901515602083015201610359565b34801561047657600080fd5b5061034f60025481565b34801561048c57600080fd5b506007546008546009546104ab926001600160a01b0390811692169083565b604080516001600160a01b03948516815293909216602084015290820152606001610359565b3480156104dd57600080fd5b506103826104ec366004612bae565b610d56565b3480156104fd57600080fd5b5061034f61050c366004612bea565b60009081526006602052604090206001015490565b34801561052d57600080fd5b5061054161053c366004612c03565b610e48565b005b34801561054f57600080fd5b506105777f000000000000000000000000000000000000000000000000000000000000000081565b60405160ff9091168152602001610359565b34801561059557600080fd5b506105416105a4366004612c2f565b610e73565b3480156105b557600080fd5b5061034f610ff2565b3480156105ca57600080fd5b506105416105d9366004612c03565b611048565b3480156105ea57600080fd5b506106127f000000000000000000000000000000000000000000000000000000000000000081565b6040516001600160a01b039091168152602001610359565b34801561063657600080fd5b5061034f610645366004612b69565b611080565b34801561065657600080fd5b5061034f610665366004612b69565b6110b4565b34801561067657600080fd5b5061034f610685366004612b93565b5060001990565b34801561069857600080fd5b5061034f6106a7366004612b69565b6001600160a01b03919091166000908152601160209081526040808320938352929052205490565b3480156106db57600080fd5b5061034f6106ea366004612c51565b6110e1565b3480156106fb57600080fd5b5061034f61070a366004612b93565b60036020526000908152604090205481565b34801561072857600080fd5b50610541611172565b61074461073f366004612bea565b611186565b60408051928352602083019190915201610359565b34801561076557600080fd5b50610612610774366004612bea565b6112a5565b34801561078557600080fd5b50610541610794366004612c7b565b6112cf565b3480156107a557600080fd5b5061034f6107b4366004612b93565b60056020526000908152604090205481565b3480156107d257600080fd5b506105416107e1366004612c7b565b6113f1565b3480156107f257600080fd5b5061034f610801366004612b69565b601260209081526000928352604080842090915290825290205481565b34801561082a57600080fd5b50600b546001600160a01b0316610612565b34801561084857600080fd5b5061034f600d5481565b34801561085e57600080fd5b5061038261086d366004612c03565b6114e6565b34801561087e57600080fd5b5061034f61088d366004612b69565b611511565b34801561089e57600080fd5b506103db611544565b3480156108b357600080fd5b5061034f6108c2366004612b93565b600f6020526000908152604090205481565b6105416108e2366004612b69565b611551565b3480156108f357600080fd5b5061034f610902366004612b69565b611859565b34801561091357600080fd5b5061034f600081565b34801561092857600080fd5b50600c54610612906001600160a01b031681565b34801561094857600080fd5b50610382610957366004612b69565b61188c565b34801561096857600080fd5b5061034f610977366004612b69565b6001600160a01b03919091166000908152601260209081526040808320938352929052205490565b3480156109ab57600080fd5b5061034f7f477fc23fb51bb5d5aa814872a393b0e4f35d0916c7503c0fd96584681070d41081565b3480156109df57600080fd5b506109e8611904565b6040516103599190612cb7565b348015610a0157600080fd5b50610455610a10366004612b93565b6014602052600090815260409020805460019091015460ff1682565b348015610a3857600080fd5b50610541610a47366004612d04565b611966565b348015610a5857600080fd5b50610541610a67366004612c03565b611baa565b348015610a7857600080fd5b5061034f610a87366004612b93565b60106020526000908152604090205481565b348015610aa557600080fd5b5061034f610ab4366004612b69565b601160209081526000928352604080842090915290825290205481565b348015610add57600080fd5b5061034f610aec366004612b93565b6001600160a01b031660009081526003602052604090205490565b348015610b1357600080fd5b5061034f610b22366004612c51565b600460209081526000928352604080842090915290825290205481565b348015610b4b57600080fd5b50610541610b5a366004612dbe565b611bcf565b348015610b6b57600080fd5b50610541610b7a366004612b93565b611c14565b348015610b8b57600080fd5b5061034f60165481565b6040516370a0823160e01b81523060048201526000907f00000000000000000000000000000000000000000000000000000000000000006001600160a01b0316906370a0823190602401602060405180830381865afa158015610bfc573d6000803e3d6000fd5b505050506040513d601f19601f82011682018060405250810190610c209190612e26565b905090565b60006001600160e01b03198216637965db0b60e01b1480610c5657506301ffc9a760e01b6001600160e01b03198316145b92915050565b60008054610c6990612e3f565b80601f0160208091040260200160405190810160405280929190818152602001828054610c9590612e3f565b8015610ce25780601f10610cb757610100808354040283529160200191610ce2565b820191906000526020600020905b815481529060010190602001808311610cc557829003601f168201915b505050505081565b3360008181526004602090815260408083206001600160a01b038716808552925280832085905551919290917f8c5be1e5ebec7d5bd14f71427d1e84f3dd0314c0f7b2291e5b200ac8c7c3b92590610d459086815260200190565b60405180910390a350600192915050565b6001600160a01b03831660009081526004602090815260408083203384529091528120546000198114610db257610d8d8382612e8f565b6001600160a01b03861660009081526004602090815260408083203384529091529020555b6001600160a01b03851660009081526003602052604081208054859290610dda908490612e8f565b90915550506001600160a01b03808516600081815260036020526040908190208054870190555190918716907fddf252ad1be2c89b69c2b068fc378daa952ba7f163c4a11628f55a4df523b3ef90610e359087815260200190565b60405180910390a3506001949350505050565b600082815260066020526040902060010154610e6381611c52565b610e6d8383611c5c565b50505050565b336000908152601160209081526040808320848452909152902054808311801590610e9d57508215155b610f145760405162461bcd60e51b815260206004820152603760248201527f4173796e635661756c743a20496e76616c696420616d6f756e7420746f20646560448201527f6372656173652072657175657374656420616d6f756e7400000000000000000060648201526084015b60405180910390fd5b33600090815260116020908152604080832085845290915281208054859290610f3e908490612e8f565b9091555050336000908152600f602052604081208054859290610f62908490612e8f565b90915550610f9c90506001600160a01b037f0000000000000000000000000000000000000000000000000000000000000000163385611cf0565b33600081815260116020908152604080832086845282529182902054915191825283929185917f69fb258dd22920a83a8863be947f39d9987b98b004ff860d24d78967538d5e29910160405180910390a4505050565b60007f0000000000000000000000000000000000000000000000000000000000000000461461102357610c20611d68565b507f000000000000000000000000000000000000000000000000000000000000000090565b6001600160a01b03811633146110715760405163334bd91960e11b815260040160405180910390fd5b61107b8282611e02565b505050565b6001600160a01b03821660009081526012602090815260408083208484529091528120546110ad90611e6f565b9392505050565b6001600160a01b03821660009081526011602090815260408083208484529091528120546110ad90611e9d565b6001600160a01b0380821660008181526014602090815260408083208054958816845260138352818420805495855260018101909352908320549294909390928561112c8286612e8f565b905061113a81600185611ec4565b6009549097501561116657600061115688600760020154611ee2565b90506111628189612e8f565b9750505b50505050505092915050565b61117a611f62565b6111846000611f8f565b565b600e5460085460009182916001600160a01b0316845b82811080156111b457506111b186600a612ea2565b81105b1561129a57600080600e83815481106111cf576111cf612eb5565b600091825260208083209091015433835260138252604080842080546001600160a01b03909316808652600191820185528286205460149095529190942054909450611226939261121f91612e8f565b9190611ec4565b6001600160a01b038216600081815260146020908152604080832054338085526013845282852095855260019095019092529091205590925061126d908290309085611fe1565b6001600160a01b03841615611285576112858261211a565b5050808061129290612ecb565b91505061119c565b509394909350915050565b600e81815481106112b557600080fd5b6000918252602090912001546001600160a01b0316905081565b8260000361131f5760405162461bcd60e51b815260206004820181905260248201527f4173796e635661756c743a20496e76616c696420736861726520616d6f756e746044820152606401610f0b565b6001600160a01b0382161580159061133f57506001600160a01b03811615155b61135b5760405162461bcd60e51b8152600401610f0b90612ee4565b6001600160a01b0381166000908152600360205260409020548311156113ce57818361139c836001600160a01b031660009081526003602052604090205490565b60405163f046f30360e01b81526001600160a01b03909316600484015260248301919091526044820152606401610f0b565b600c546113e6906001600160a01b0316333086611fe1565b61107b83838361220f565b826000036114415760405162461bcd60e51b815260206004820181905260248201527f4173796e635661756c743a20496e76616c696420617373657420616d6f756e746044820152606401610f0b565b6001600160a01b0382161580159061146157506001600160a01b03811615155b61147d5760405162461bcd60e51b8152600401610f0b90612ee4565b336001600160a01b038216146114a6576040516303c4f5db60e01b815260040160405180910390fd5b6114db6001600160a01b037f000000000000000000000000000000000000000000000000000000000000000016333086612291565b61107b83838361231b565b60009182526006602090815260408084206001600160a01b0393909316845291905290205460ff1690565b60006001600160a01b0383166115395760405162461bcd60e51b8152600401610f0b90612f25565b6110ad3384846123be565b60018054610c6990612e3f565b7f477fc23fb51bb5d5aa814872a393b0e4f35d0916c7503c0fd96584681070d41061157b81611c52565b816000036115cb5760405162461bcd60e51b815260206004820152601b60248201527f5661756c743a20416d6f756e742063616e2774206265207a65726f00000000006044820152606401610f0b565b600d5460000361161d5760405162461bcd60e51b815260206004820152601a60248201527f5661756c743a204e6f20746f6b656e207374616b6564207965740000000000006044820152606401610f0b565b7f00000000000000000000000000000000000000000000000000000000000000006001600160a01b0316836001600160a01b03161415801561166d5750600c546001600160a01b03848116911614155b6116d15760405162461bcd60e51b815260206004820152602f60248201527f5661756c743a2052657761726420616e64205374616b696e6720746f6b656e7360448201526e2063616e6e6f742062652073616d6560881b6064820152608401610f0b565b600e54600a036116f457604051637561e0ab60e01b815260040160405180910390fd5b600061172360025460016117089190612ea2565b611710610b95565b61171b906001612ea2565b859190611ec4565b6001600160a01b038516600090815260146020526040902060018101549192509060ff166117cc57600e8054600180820183556000929092527fbb7b4a454dc3493923482f07822329ed19e8244eff582cc204f8554c3620c3fd0180546001600160a01b0319166001600160a01b038816179055818101805460ff191690911790558181556117b285306124ed565b6117c76001600160a01b038616333087612291565b61180f565b6001600160a01b038516600090815260146020526040812080548492906117f4908490612ea2565b9091555061180f90506001600160a01b038616333087612291565b846001600160a01b03167fac24935fd910bc682b5ccb1a07b718cadf8cf2f6d1404c4f3ddc3662dae40e298560405161184a91815260200190565b60405180910390a25050505050565b60006001600160a01b0383166118815760405162461bcd60e51b8152600401610f0b90612f25565b6110ad33848461260b565b336000908152600360205260408120805483919083906118ad908490612e8f565b90915550506001600160a01b038316600081815260036020526040908190208054850190555133907fddf252ad1be2c89b69c2b068fc378daa952ba7f163c4a11628f55a4df523b3ef90610d459086815260200190565b6060600e80548060200260200160405190810160405280929190818152602001828054801561195c57602002820191906000526020600020905b81546001600160a01b0316815260019091019060200180831161193e575b5050505050905090565b428410156119b65760405162461bcd60e51b815260206004820152601760248201527f5045524d49545f444541444c494e455f455850495245440000000000000000006044820152606401610f0b565b600060016119c2610ff2565b6001600160a01b038a811660008181526005602090815260409182902080546001810190915582517f6e71edae12b1b97f4d1f60370fef10105fa2faae0126114a169c64845d6126c98184015280840194909452938d166060840152608083018c905260a083019390935260c08083018b90528151808403909101815260e08301909152805192019190912061190160f01b6101008301526101028201929092526101228101919091526101420160408051601f198184030181528282528051602091820120600084529083018083525260ff871690820152606081018590526080810184905260a0016020604051602081039080840390855afa158015611ace573d6000803e3d6000fd5b5050604051601f1901519150506001600160a01b03811615801590611b045750876001600160a01b0316816001600160a01b0316145b611b415760405162461bcd60e51b815260206004820152600e60248201526d24a72b20a624a22fa9a4a3a722a960911b6044820152606401610f0b565b6001600160a01b0390811660009081526004602090815260408083208a8516808552908352928190208990555188815291928a16917f8c5be1e5ebec7d5bd14f71427d1e84f3dd0314c0f7b2291e5b200ac8c7c3b925910160405180910390a350505050505050565b600082815260066020526040902060010154611bc581611c52565b610e6d8383611e02565b7f74e458455daa935f28c556b43e0cc4ad001a8a090f5feee376681e97d4618f46611bf981611c52565b611c1082600001518360200151846040015161273a565b5050565b611c1c611f62565b6001600160a01b038116611c4657604051631e4fbdf760e01b815260006004820152602401610f0b565b611c4f81611f8f565b50565b611c4f81336127f8565b6000611c6883836114e6565b611ce85760008381526006602090815260408083206001600160a01b03861684529091529020805460ff19166001179055611ca03390565b6001600160a01b0316826001600160a01b0316847f2f8788117e7eff1d82e926ec794901d17c78024a50270940304540a733656f0d60405160405180910390a4506001610c56565b506000610c56565b600060405163a9059cbb60e01b8152836004820152826024820152602060006044836000895af13d15601f3d1160016000511416171691505080610e6d5760405162461bcd60e51b815260206004820152600f60248201526e1514905394d1915497d19052531151608a1b6044820152606401610f0b565b60007f8b73c3c69bb8fe3d512ecc4cf759cc79239f7b179b0ffacaa9a75d522b39400f6000604051611d9a9190612f69565b6040805191829003822060208301939093528101919091527fc89efdaa54c0f20c7adf612882df0950f5a951637e0307cdcb4c672f298b8bc660608201524660808201523060a082015260c00160405160208183030381529060405280519060200120905090565b6000611e0e83836114e6565b15611ce85760008381526006602090815260408083206001600160a01b0386168085529252808320805460ff1916905551339286917ff6391f5c32d9c69d2a47ea670b442974b53935d1edc7fd64eb21e047a839171b9190a4506001610c56565b6000610c56611e7c610b95565b611e87906001612ea2565b600254611e95906001612ea2565b849190611ec4565b6000610c566002546001611eb19190612ea2565b611eb9610b95565b611e95906001612ea2565b6000826000190484118302158202611edb57600080fd5b5091020490565b6000612710611ef1838561300a565b1015611f4b5760405162461bcd60e51b8152602060048201526024808201527f46433a20546f6f20736d616c6c20616d6f756e7420746f20636f6e73696465726044820152632066656560e01b6064820152608401610f0b565b612710611f58838561300a565b6110ad9190613021565b600b546001600160a01b031633146111845760405163118cdaa760e01b8152336004820152602401610f0b565b600b80546001600160a01b038381166001600160a01b0319831681179093556040519116919082907f8be0079c531659141344cd1fd0a4f28419497f9722a3daafe3b4186f6b6457e090600090a35050565b604080516001600160a01b038681166024830152858116604483015284166064820152600783900b6084808301919091528251808303909101815260a490910182526020810180516001600160e01b031663eca3691760e01b179052905160009182918291610167916120549190613043565b6000604051808303816000865af19150503d8060008114612091576040519150601f19603f3d011682016040523d82523d6000602084013e612096565b606091505b5091509150816120a75760156120bb565b808060200190518101906120bb9190613071565b9250600383900b6016146121115760405162461bcd60e51b815260206004820152601b60248201527f5361666520746f6b656e207472616e73666572206661696c65642100000000006044820152606401610f0b565b50505050505050565b6008546009546001600160a01b039091169060009061213a908490611ee2565b6040516370a0823160e01b815233600482015290915081906001600160a01b038416906370a0823190602401602060405180830381865afa158015612183573d6000803e3d6000fd5b505050506040513d601f19601f820116820180604052508101906121a79190612e26565b10156121f55760405162461bcd60e51b815260206004820152601e60248201527f46433a20496e73756666696369656e7420746f6b656e2062616c616e636500006044820152606401610f0b565b60075461107b90839033906001600160a01b031684611fe1565b6001600160a01b0381811660008181526012602090815260408083206015805485529083529281902088905591548251338152918201889052938616917f1e7ddf69e1e9242eb5635deb06ffd4691a8962ec488a863a26721288c8898551910160405180910390a46016805490600061228783612ecb565b9190505550505050565b60006040516323b872dd60e01b81528460048201528360248201528260448201526020600060648360008a5af13d15601f3d11600160005114161716915050806123145760405162461bcd60e51b81526020600482015260146024820152731514905394d1915497d19493d357d1905253115160621b6044820152606401610f0b565b5050505050565b6001600160a01b038116600081815260116020908152604080832060155484528252808320879055928252600f9052908120805485929061235d908490612ea2565b909155505060155460408051338152602081018690526001600160a01b0380851692908616917f1d29486a5e3ec3aeab2168099a5bf0cfa1664052f673812babd91912115380fb910160405180910390a46015805490600061228783612ecb565b6001600160a01b03831660009081526012602090815260408083208484529091528120546123ec8584611080565b6001600160a01b038616600081815260126020908152604080832088845282528083208390559282526013905290812080549294508392909190612431908490612e8f565b9250508190555081600d600082825461244a9190612e8f565b9091555061245a90503082612831565b61248e6001600160a01b037f0000000000000000000000000000000000000000000000000000000000000000168684611cf0565b836001600160a01b0316856001600160a01b0316847f97e51cb7384809a186f5f66727774f4e061708a7133dd467f6eb423ec4ccb8d385856040516124dd929190918252602082015260400190565b60405180910390a4509392505050565b604080516001600160a01b038381166024830152841660448083019190915282518083039091018152606490910182526020810180516001600160e01b031663248a35ef60e11b1790529051600091829182916101679161254e9190613043565b6000604051808303816000865af19150503d806000811461258b576040519150601f19603f3d011682016040523d82523d6000602084013e612590565b606091505b5091509150816125a15760156125b5565b808060200190518101906125b59190613071565b9250600383900b6016146123145760405162461bcd60e51b815260206004820152601f60248201527f536166652073696e676c65206173736f63696174696f6e206661696c656421006044820152606401610f0b565b6001600160a01b038316600090815260116020908152604080832084845290915281205461263985846110b4565b6001600160a01b03861660008181526011602090815260408083208884528252808320839055928252601090529081208054929450839290919061267e908490612e8f565b9091555061268d9050826128ac565b600c54604080516000808252602082019092526126d1926001600160a01b0316918591906126cb565b60608152602001906001900390816126b65790505b5061297d565b5050600c546126eb906001600160a01b0316303385611fe1565b836001600160a01b0316856001600160a01b0316847fa58ba2dc206ba708bedff28607ec751812d5b1a8e66b35771034981d56d7613984866040516124dd929190918252602082015260400190565b612710811061277d5760405162461bcd60e51b815260206004820152600f60248201526e46433a20496e76616c69642066656560881b6044820152606401610f0b565b600780546001600160a01b038581166001600160a01b0319928316811790935560088054918616919092168117909155600983905560408051928352602083019190915281018290527febd34b2df88ea5c9f67c04b13b08e5e63c2d17e269aab73b866fe47a8736a2649060600160405180910390a1505050565b61280282826114e6565b611c105760405163e2517d3f60e01b81526001600160a01b038216600482015260248101839052604401610f0b565b6001600160a01b03821660009081526003602052604081208054839290612859908490612e8f565b90915550506002805482900390556040518181526000906001600160a01b038416907fddf252ad1be2c89b69c2b068fc378daa952ba7f163c4a11628f55a4df523b3ef9060200160405180910390a35050565b3360009081526013602052604090206002015460ff1661295657600e5460005b81811015612931576000600e82815481106128e9576128e9612eb5565b60009182526020808320909101546001600160a01b031680835260148252604080842054338552601384528185209285526001928301909352909220559190910190506128cc565b5050336000908152601360205260409020818155600201805460ff1916600117905550565b3360009081526013602052604081208054839290612975908490612ea2565b909155505050565b6000606060008060006101676001600160a01b031663278e0b8860e01b8989896040516024016129af9392919061308c565b60408051601f198184030181529181526020820180516001600160e01b03166001600160e01b03199094169390931790925290516129ed9190613043565b6000604051808303816000865af19150503d8060008114612a2a576040519150601f19603f3d011682016040523d82523d6000602084013e612a2f565b606091505b509150915081612a52576040805160008082526020820190925260159190612a66565b80806020019051810190612a669190613111565b90965094509250600383900b601614612ab55760405162461bcd60e51b815260206004820152601160248201527053616665206d696e74206661696c65642160781b6044820152606401610f0b565b505050935093915050565b600060208284031215612ad257600080fd5b81356001600160e01b0319811681146110ad57600080fd5b60005b83811015612b05578181015183820152602001612aed565b50506000910152565b60008151808452612b26816020860160208601612aea565b601f01601f19169290920160200192915050565b6020815260006110ad6020830184612b0e565b80356001600160a01b0381168114612b6457600080fd5b919050565b60008060408385031215612b7c57600080fd5b612b8583612b4d565b946020939093013593505050565b600060208284031215612ba557600080fd5b6110ad82612b4d565b600080600060608486031215612bc357600080fd5b612bcc84612b4d565b9250612bda60208501612b4d565b9150604084013590509250925092565b600060208284031215612bfc57600080fd5b5035919050565b60008060408385031215612c1657600080fd5b82359150612c2660208401612b4d565b90509250929050565b60008060408385031215612c4257600080fd5b50508035926020909101359150565b60008060408385031215612c6457600080fd5b612c6d83612b4d565b9150612c2660208401612b4d565b600080600060608486031215612c9057600080fd5b83359250612ca060208501612b4d565b9150612cae60408501612b4d565b90509250925092565b6020808252825182820181905260009190848201906040850190845b81811015612cf85783516001600160a01b031683529284019291840191600101612cd3565b50909695505050505050565b600080600080600080600060e0888a031215612d1f57600080fd5b612d2888612b4d565b9650612d3660208901612b4d565b95506040880135945060608801359350608088013560ff81168114612d5a57600080fd5b9699959850939692959460a0840135945060c09093013592915050565b634e487b7160e01b600052604160045260246000fd5b604051601f8201601f1916810167ffffffffffffffff81118282101715612db657612db6612d77565b604052919050565b600060608284031215612dd057600080fd5b6040516060810181811067ffffffffffffffff82111715612df357612df3612d77565b604052612dff83612b4d565b8152612e0d60208401612b4d565b6020820152604083013560408201528091505092915050565b600060208284031215612e3857600080fd5b5051919050565b600181811c90821680612e5357607f821691505b602082108103612e7357634e487b7160e01b600052602260045260246000fd5b50919050565b634e487b7160e01b600052601160045260246000fd5b81810381811115610c5657610c56612e79565b80820180821115610c5657610c56612e79565b634e487b7160e01b600052603260045260246000fd5b600060018201612edd57612edd612e79565b5060010190565b60208082526021908201527f4173796e635661756c743a20496e76616c6964206f776e6572206164647265736040820152607360f81b606082015260800190565b60208082526024908201527f4173796e635661756c743a20496e76616c6964207265636569766572206164646040820152637265737360e01b606082015260800190565b60008083548160018260011c91506001831680612f8757607f831692505b60208084108203612fa657634e487b7160e01b86526022600452602486fd5b818015612fba5760018114612fcf57612ffc565b60ff1986168952841515850289019650612ffc565b60008a81526020902060005b86811015612ff45781548b820152908501908301612fdb565b505084890196505b509498975050505050505050565b8082028115828204841417610c5657610c56612e79565b60008261303e57634e487b7160e01b600052601260045260246000fd5b500490565b60008251613055818460208701612aea565b9190910192915050565b8051600381900b8114612b6457600080fd5b60006020828403121561308357600080fd5b6110ad8261305f565b60006060820160018060a01b0386168352602067ffffffffffffffff861660208501526060604085015281855180845260808601915060808160051b87010193506020870160005b8281101561310257607f198887030184526130f0868351612b0e565b955092840192908401906001016130d4565b50939998505050505050505050565b60008060006060848603121561312657600080fd5b61312f8461305f565b925060208085015167ffffffffffffffff808216821461314e57600080fd5b60408701519194508082111561316357600080fd5b818701915087601f83011261317757600080fd5b81518181111561318957613189612d77565b8060051b915061319a848301612d8d565b818152918301840191848101908a8411156131b457600080fd5b938501935b838510156131e557845192508260070b83146131d55760008081fd5b82825293850193908501906131b9565b809650505050505050925092509256fea264697066735822122094c2d756abda2cb6143aa659797b58e63a82b698f6e57d45aca0ca70a03b862564736f6c63430008180033",
  "linkReferences": {},
  "deployedLinkReferences": {}
}