{
  "_format": "hh-sol-artifact-1",
  "contractName": "AsyncVault",
  "sourceName": "contracts/erc7540/AsyncVault.sol",
  "abi": [
    {
      "inputs": [
        {
          "internalType": "contract IERC20",
          "name": "underlying_",
          "type": "address"
        },
        {
          "internalType": "string",
          "name": "name_",
          "type": "string"
        },
        {
          "internalType": "string",
          "name": "symbol_",
          "type": "string"
        },
        {
          "components": [
            {
              "internalType": "address",
              "name": "receiver",
              "type": "address"
            },
            {
              "internalType": "address",
              "name": "token",
              "type": "address"
            },
            {
              "internalType": "uint256",
              "name": "feePercentage",
              "type": "uint256"
            }
          ],
          "internalType": "struct FeeConfiguration.FeeConfig",
          "name": "feeConfig_",
          "type": "tuple"
        },
        {
          "internalType": "address",
          "name": "vaultRewardController_",
          "type": "address"
        },
        {
          "internalType": "address",
          "name": "feeConfigController_",
          "type": "address"
        },
        {
          "internalType": "uint32",
          "name": "cliff_",
          "type": "uint32"
        },
        {
          "internalType": "uint32",
          "name": "unlockDuration_",
          "type": "uint32"
        }
      ],
      "stateMutability": "payable",
      "type": "constructor"
    },
    {
      "inputs": [],
      "name": "AccessControlBadConfirmation",
      "type": "error"
    },
    {
      "inputs": [
        {
          "internalType": "address",
          "name": "account",
          "type": "address"
        },
        {
          "internalType": "bytes32",
          "name": "neededRole",
          "type": "bytes32"
        }
      ],
      "name": "AccessControlUnauthorizedAccount",
      "type": "error"
    },
    {
      "inputs": [
        {
          "internalType": "address",
          "name": "target",
          "type": "address"
        }
      ],
      "name": "AddressEmptyCode",
      "type": "error"
    },
    {
      "inputs": [
        {
          "internalType": "address",
          "name": "account",
          "type": "address"
        }
      ],
      "name": "AddressInsufficientBalance",
      "type": "error"
    },
    {
      "inputs": [
        {
          "internalType": "address",
          "name": "spender",
          "type": "address"
        },
        {
          "internalType": "uint256",
          "name": "allowance",
          "type": "uint256"
        },
        {
          "internalType": "uint256",
          "name": "needed",
          "type": "uint256"
        }
      ],
      "name": "ERC20InsufficientAllowance",
      "type": "error"
    },
    {
      "inputs": [
        {
          "internalType": "address",
          "name": "sender",
          "type": "address"
        },
        {
          "internalType": "uint256",
          "name": "balance",
          "type": "uint256"
        },
        {
          "internalType": "uint256",
          "name": "needed",
          "type": "uint256"
        }
      ],
      "name": "ERC20InsufficientBalance",
      "type": "error"
    },
    {
      "inputs": [
        {
          "internalType": "address",
          "name": "approver",
          "type": "address"
        }
      ],
      "name": "ERC20InvalidApprover",
      "type": "error"
    },
    {
      "inputs": [
        {
          "internalType": "address",
          "name": "receiver",
          "type": "address"
        }
      ],
      "name": "ERC20InvalidReceiver",
      "type": "error"
    },
    {
      "inputs": [
        {
          "internalType": "address",
          "name": "sender",
          "type": "address"
        }
      ],
      "name": "ERC20InvalidSender",
      "type": "error"
    },
    {
      "inputs": [
        {
          "internalType": "address",
          "name": "spender",
          "type": "address"
        }
      ],
      "name": "ERC20InvalidSpender",
      "type": "error"
    },
    {
      "inputs": [
        {
          "internalType": "address",
          "name": "receiver",
          "type": "address"
        },
        {
          "internalType": "uint256",
          "name": "assets",
          "type": "uint256"
        },
        {
          "internalType": "uint256",
          "name": "max",
          "type": "uint256"
        }
      ],
      "name": "ERC4626ExceededMaxDeposit",
      "type": "error"
    },
    {
      "inputs": [
        {
          "internalType": "address",
          "name": "receiver",
          "type": "address"
        },
        {
          "internalType": "uint256",
          "name": "shares",
          "type": "uint256"
        },
        {
          "internalType": "uint256",
          "name": "max",
          "type": "uint256"
        }
      ],
      "name": "ERC4626ExceededMaxMint",
      "type": "error"
    },
    {
      "inputs": [
        {
          "internalType": "address",
          "name": "owner",
          "type": "address"
        },
        {
          "internalType": "uint256",
          "name": "shares",
          "type": "uint256"
        },
        {
          "internalType": "uint256",
          "name": "max",
          "type": "uint256"
        }
      ],
      "name": "ERC4626ExceededMaxRedeem",
      "type": "error"
    },
    {
      "inputs": [
        {
          "internalType": "address",
          "name": "owner",
          "type": "address"
        },
        {
          "internalType": "uint256",
          "name": "assets",
          "type": "uint256"
        },
        {
          "internalType": "uint256",
          "name": "max",
          "type": "uint256"
        }
      ],
      "name": "ERC4626ExceededMaxWithdraw",
      "type": "error"
    },
    {
      "inputs": [],
      "name": "FailedInnerCall",
      "type": "error"
    },
    {
      "inputs": [],
      "name": "InvalidController",
      "type": "error"
    },
    {
      "inputs": [],
      "name": "InvalidOperator",
      "type": "error"
    },
    {
      "inputs": [],
      "name": "MathOverflowedMulDiv",
      "type": "error"
    },
    {
      "inputs": [
        {
          "internalType": "address",
          "name": "controller",
          "type": "address"
        },
        {
          "internalType": "uint256",
          "name": "assets",
          "type": "uint256"
        },
        {
          "internalType": "uint256",
          "name": "maxDeposit",
          "type": "uint256"
        }
      ],
      "name": "MaxDepositRequestExceeded",
      "type": "error"
    },
    {
      "inputs": [
        {
          "internalType": "address",
          "name": "controller",
          "type": "address"
        },
        {
          "internalType": "uint256",
          "name": "shares",
          "type": "uint256"
        },
        {
          "internalType": "uint256",
          "name": "maxShares",
          "type": "uint256"
        }
      ],
      "name": "MaxRedeemRequestExceeded",
      "type": "error"
    },
    {
      "inputs": [],
      "name": "MaxRewardTokensAmount",
      "type": "error"
    },
    {
      "inputs": [
        {
          "internalType": "address",
          "name": "owner",
          "type": "address"
        }
      ],
      "name": "OwnableInvalidOwner",
      "type": "error"
    },
    {
      "inputs": [
        {
          "internalType": "address",
          "name": "account",
          "type": "address"
        }
      ],
      "name": "OwnableUnauthorizedAccount",
      "type": "error"
    },
    {
      "inputs": [
        {
          "internalType": "address",
          "name": "token",
          "type": "address"
        }
      ],
      "name": "SafeERC20FailedOperation",
      "type": "error"
    },
    {
      "anonymous": false,
      "inputs": [
        {
          "indexed": true,
          "internalType": "address",
          "name": "owner",
          "type": "address"
        },
        {
          "indexed": true,
          "internalType": "address",
          "name": "spender",
          "type": "address"
        },
        {
          "indexed": false,
          "internalType": "uint256",
          "name": "value",
          "type": "uint256"
        }
      ],
      "name": "Approval",
      "type": "event"
    },
    {
      "anonymous": false,
      "inputs": [
        {
          "indexed": true,
          "internalType": "address",
          "name": "sender",
          "type": "address"
        },
        {
          "indexed": true,
          "internalType": "address",
          "name": "owner",
          "type": "address"
        },
        {
          "indexed": false,
          "internalType": "uint256",
          "name": "assets",
          "type": "uint256"
        },
        {
          "indexed": false,
          "internalType": "uint256",
          "name": "shares",
          "type": "uint256"
        }
      ],
      "name": "Deposit",
      "type": "event"
    },
    {
      "anonymous": false,
      "inputs": [
        {
          "indexed": true,
          "internalType": "address",
          "name": "controller",
          "type": "address"
        },
        {
          "indexed": true,
          "internalType": "address",
          "name": "owner",
          "type": "address"
        },
        {
          "indexed": false,
          "internalType": "address",
          "name": "sender",
          "type": "address"
        },
        {
          "indexed": false,
          "internalType": "uint256",
          "name": "assets",
          "type": "uint256"
        }
      ],
      "name": "DepositRequested",
      "type": "event"
    },
    {
      "anonymous": false,
      "inputs": [
        {
          "components": [
            {
              "internalType": "address",
              "name": "receiver",
              "type": "address"
            },
            {
              "internalType": "address",
              "name": "token",
              "type": "address"
            },
            {
              "internalType": "uint256",
              "name": "feePercentage",
              "type": "uint256"
            }
          ],
          "indexed": false,
          "internalType": "struct FeeConfiguration.FeeConfig",
          "name": "feeConfig",
          "type": "tuple"
        }
      ],
      "name": "FeeConfigUpdated",
      "type": "event"
    },
    {
      "anonymous": false,
      "inputs": [
        {
          "indexed": true,
          "internalType": "address",
          "name": "controller",
          "type": "address"
        },
        {
          "indexed": true,
          "internalType": "address",
          "name": "operator",
          "type": "address"
        },
        {
          "indexed": false,
          "internalType": "bool",
          "name": "approved",
          "type": "bool"
        }
      ],
      "name": "OperatorSet",
      "type": "event"
    },
    {
      "anonymous": false,
      "inputs": [
        {
          "indexed": true,
          "internalType": "address",
          "name": "previousOwner",
          "type": "address"
        },
        {
          "indexed": true,
          "internalType": "address",
          "name": "newOwner",
          "type": "address"
        }
      ],
      "name": "OwnershipTransferred",
      "type": "event"
    },
    {
      "anonymous": false,
      "inputs": [
        {
          "indexed": true,
          "internalType": "address",
          "name": "controller",
          "type": "address"
        },
        {
          "indexed": true,
          "internalType": "address",
          "name": "owner",
          "type": "address"
        },
        {
          "indexed": false,
          "internalType": "address",
          "name": "sender",
          "type": "address"
        },
        {
          "indexed": false,
          "internalType": "uint256",
          "name": "shares",
          "type": "uint256"
        }
      ],
      "name": "RedeemRequested",
      "type": "event"
    },
    {
      "anonymous": false,
      "inputs": [
        {
          "indexed": true,
          "internalType": "address",
          "name": "rewardToken",
          "type": "address"
        },
        {
          "indexed": false,
          "internalType": "uint256",
          "name": "amount",
          "type": "uint256"
        }
      ],
      "name": "RewardAdded",
      "type": "event"
    },
    {
      "anonymous": false,
      "inputs": [
        {
          "indexed": true,
          "internalType": "bytes32",
          "name": "role",
          "type": "bytes32"
        },
        {
          "indexed": true,
          "internalType": "bytes32",
          "name": "previousAdminRole",
          "type": "bytes32"
        },
        {
          "indexed": true,
          "internalType": "bytes32",
          "name": "newAdminRole",
          "type": "bytes32"
        }
      ],
      "name": "RoleAdminChanged",
      "type": "event"
    },
    {
      "anonymous": false,
      "inputs": [
        {
          "indexed": true,
          "internalType": "bytes32",
          "name": "role",
          "type": "bytes32"
        },
        {
          "indexed": true,
          "internalType": "address",
          "name": "account",
          "type": "address"
        },
        {
          "indexed": true,
          "internalType": "address",
          "name": "sender",
          "type": "address"
        }
      ],
      "name": "RoleGranted",
      "type": "event"
    },
    {
      "anonymous": false,
      "inputs": [
        {
          "indexed": true,
          "internalType": "bytes32",
          "name": "role",
          "type": "bytes32"
        },
        {
          "indexed": true,
          "internalType": "address",
          "name": "account",
          "type": "address"
        },
        {
          "indexed": true,
          "internalType": "address",
          "name": "sender",
          "type": "address"
        }
      ],
      "name": "RoleRevoked",
      "type": "event"
    },
    {
      "anonymous": false,
      "inputs": [
        {
          "indexed": false,
          "internalType": "uint32",
          "name": "time",
          "type": "uint32"
        }
      ],
      "name": "SetSharesLockTime",
      "type": "event"
    },
    {
      "anonymous": false,
      "inputs": [
        {
          "indexed": true,
          "internalType": "address",
          "name": "from",
          "type": "address"
        },
        {
          "indexed": true,
          "internalType": "address",
          "name": "to",
          "type": "address"
        },
        {
          "indexed": false,
          "internalType": "uint256",
          "name": "value",
          "type": "uint256"
        }
      ],
      "name": "Transfer",
      "type": "event"
    },
    {
      "anonymous": false,
      "inputs": [
        {
          "indexed": true,
          "internalType": "address",
          "name": "sender",
          "type": "address"
        },
        {
          "indexed": true,
          "internalType": "address",
          "name": "receiver",
          "type": "address"
        },
        {
          "indexed": true,
          "internalType": "address",
          "name": "owner",
          "type": "address"
        },
        {
          "indexed": false,
          "internalType": "uint256",
          "name": "assets",
          "type": "uint256"
        },
        {
          "indexed": false,
          "internalType": "uint256",
          "name": "shares",
          "type": "uint256"
        }
      ],
      "name": "Withdraw",
      "type": "event"
    },
    {
      "inputs": [],
      "name": "DEFAULT_ADMIN_ROLE",
      "outputs": [
        {
          "internalType": "bytes32",
          "name": "",
          "type": "bytes32"
        }
      ],
      "stateMutability": "view",
      "type": "function"
    },
    {
      "inputs": [],
      "name": "FEE_CONFIG_CONTROLLER_ROLE",
      "outputs": [
        {
          "internalType": "bytes32",
          "name": "",
          "type": "bytes32"
        }
      ],
      "stateMutability": "view",
      "type": "function"
    },
    {
      "inputs": [],
      "name": "VAULT_REWARD_CONTROLLER_ROLE",
      "outputs": [
        {
          "internalType": "bytes32",
          "name": "",
          "type": "bytes32"
        }
      ],
      "stateMutability": "view",
      "type": "function"
    },
    {
      "inputs": [
        {
          "internalType": "address",
          "name": "_token",
          "type": "address"
        },
        {
          "internalType": "uint256",
          "name": "_amount",
          "type": "uint256"
        }
      ],
      "name": "addReward",
      "outputs": [],
      "stateMutability": "payable",
      "type": "function"
    },
    {
      "inputs": [
        {
          "internalType": "address",
          "name": "owner",
          "type": "address"
        },
        {
          "internalType": "address",
          "name": "spender",
          "type": "address"
        }
      ],
      "name": "allowance",
      "outputs": [
        {
          "internalType": "uint256",
          "name": "",
          "type": "uint256"
        }
      ],
      "stateMutability": "view",
      "type": "function"
    },
    {
      "inputs": [
        {
          "internalType": "address",
          "name": "spender",
          "type": "address"
        },
        {
          "internalType": "uint256",
          "name": "value",
          "type": "uint256"
        }
      ],
      "name": "approve",
      "outputs": [
        {
          "internalType": "bool",
          "name": "",
          "type": "bool"
        }
      ],
      "stateMutability": "nonpayable",
      "type": "function"
    },
    {
      "inputs": [],
      "name": "asset",
      "outputs": [
        {
          "internalType": "address",
          "name": "",
          "type": "address"
        }
      ],
      "stateMutability": "view",
      "type": "function"
    },
    {
      "inputs": [
        {
          "internalType": "address",
          "name": "account",
          "type": "address"
        }
      ],
      "name": "balanceOf",
      "outputs": [
        {
          "internalType": "uint256",
          "name": "",
          "type": "uint256"
        }
      ],
      "stateMutability": "view",
      "type": "function"
    },
    {
      "inputs": [
        {
          "internalType": "uint256",
          "name": "_startPosition",
          "type": "uint256"
        },
        {
          "internalType": "address",
          "name": "_receiver",
          "type": "address"
        }
      ],
      "name": "claimAllReward",
      "outputs": [
        {
          "internalType": "uint256",
          "name": "",
          "type": "uint256"
        },
        {
          "internalType": "uint256",
          "name": "",
          "type": "uint256"
        }
      ],
      "stateMutability": "nonpayable",
      "type": "function"
    },
    {
      "inputs": [
        {
          "internalType": "uint256",
          "name": "shares",
          "type": "uint256"
        }
      ],
      "name": "convertToAssets",
      "outputs": [
        {
          "internalType": "uint256",
          "name": "",
          "type": "uint256"
        }
      ],
      "stateMutability": "view",
      "type": "function"
    },
    {
      "inputs": [
        {
          "internalType": "uint256",
          "name": "assets",
          "type": "uint256"
        }
      ],
      "name": "convertToShares",
      "outputs": [
        {
          "internalType": "uint256",
          "name": "",
          "type": "uint256"
        }
      ],
      "stateMutability": "view",
      "type": "function"
    },
    {
      "inputs": [],
      "name": "decimals",
      "outputs": [
        {
          "internalType": "uint8",
          "name": "",
          "type": "uint8"
        }
      ],
      "stateMutability": "view",
      "type": "function"
    },
    {
      "inputs": [
        {
          "internalType": "uint256",
          "name": "assets",
          "type": "uint256"
        },
        {
          "internalType": "address",
          "name": "to",
          "type": "address"
        },
        {
          "internalType": "address",
          "name": "controller",
          "type": "address"
        }
      ],
      "name": "deposit",
      "outputs": [
        {
          "internalType": "uint256",
          "name": "shares",
          "type": "uint256"
        }
      ],
      "stateMutability": "nonpayable",
      "type": "function"
    },
    {
      "inputs": [
        {
          "internalType": "uint256",
          "name": "assets",
          "type": "uint256"
        },
        {
          "internalType": "address",
          "name": "to",
          "type": "address"
        }
      ],
      "name": "deposit",
      "outputs": [
        {
          "internalType": "uint256",
          "name": "shares",
          "type": "uint256"
        }
      ],
      "stateMutability": "nonpayable",
      "type": "function"
    },
    {
      "inputs": [],
      "name": "feeConfig",
      "outputs": [
        {
          "internalType": "address",
          "name": "receiver",
          "type": "address"
        },
        {
          "internalType": "address",
          "name": "token",
          "type": "address"
        },
        {
          "internalType": "uint256",
          "name": "feePercentage",
          "type": "uint256"
        }
      ],
      "stateMutability": "view",
      "type": "function"
    },
    {
      "inputs": [
        {
          "internalType": "address",
          "name": "_user",
          "type": "address"
        }
      ],
      "name": "getAllRewards",
      "outputs": [
        {
          "internalType": "uint256[]",
          "name": "_rewards",
          "type": "uint256[]"
        }
      ],
      "stateMutability": "view",
      "type": "function"
    },
    {
      "inputs": [],
      "name": "getRewardTokens",
      "outputs": [
        {
          "internalType": "address[]",
          "name": "",
          "type": "address[]"
        }
      ],
      "stateMutability": "view",
      "type": "function"
    },
    {
      "inputs": [
        {
          "internalType": "bytes32",
          "name": "role",
          "type": "bytes32"
        }
      ],
      "name": "getRoleAdmin",
      "outputs": [
        {
          "internalType": "bytes32",
          "name": "",
          "type": "bytes32"
        }
      ],
      "stateMutability": "view",
      "type": "function"
    },
    {
      "inputs": [
        {
          "internalType": "address",
          "name": "_user",
          "type": "address"
        },
        {
          "internalType": "address",
          "name": "_rewardToken",
          "type": "address"
        }
      ],
      "name": "getUserReward",
      "outputs": [
        {
          "internalType": "uint256",
          "name": "unclaimedAmount",
          "type": "uint256"
        }
      ],
      "stateMutability": "view",
      "type": "function"
    },
    {
      "inputs": [
        {
          "internalType": "bytes32",
          "name": "role",
          "type": "bytes32"
        },
        {
          "internalType": "address",
          "name": "account",
          "type": "address"
        }
      ],
      "name": "grantRole",
      "outputs": [],
      "stateMutability": "nonpayable",
      "type": "function"
    },
    {
      "inputs": [
        {
          "internalType": "bytes32",
          "name": "role",
          "type": "bytes32"
        },
        {
          "internalType": "address",
          "name": "account",
          "type": "address"
        }
      ],
      "name": "hasRole",
      "outputs": [
        {
          "internalType": "bool",
          "name": "",
          "type": "bool"
        }
      ],
      "stateMutability": "view",
      "type": "function"
    },
    {
      "inputs": [
        {
          "internalType": "address",
          "name": "account",
          "type": "address"
        }
      ],
      "name": "lockedOf",
      "outputs": [
        {
          "internalType": "uint256",
          "name": "",
          "type": "uint256"
        }
      ],
      "stateMutability": "view",
      "type": "function"
    },
    {
      "inputs": [
        {
          "internalType": "address",
          "name": "owner",
          "type": "address"
        }
      ],
      "name": "maxDeposit",
      "outputs": [
        {
          "internalType": "uint256",
          "name": "",
          "type": "uint256"
        }
      ],
      "stateMutability": "view",
      "type": "function"
    },
    {
      "inputs": [
        {
          "internalType": "address",
          "name": "owner",
          "type": "address"
        }
      ],
      "name": "maxMint",
      "outputs": [
        {
          "internalType": "uint256",
          "name": "shares",
          "type": "uint256"
        }
      ],
      "stateMutability": "view",
      "type": "function"
    },
    {
      "inputs": [
        {
          "internalType": "address",
          "name": "owner",
          "type": "address"
        }
      ],
      "name": "maxRedeem",
      "outputs": [
        {
          "internalType": "uint256",
          "name": "",
          "type": "uint256"
        }
      ],
      "stateMutability": "view",
      "type": "function"
    },
    {
      "inputs": [
        {
          "internalType": "address",
          "name": "owner",
          "type": "address"
        }
      ],
      "name": "maxWithdraw",
      "outputs": [
        {
          "internalType": "uint256",
          "name": "assets",
          "type": "uint256"
        }
      ],
      "stateMutability": "view",
      "type": "function"
    },
    {
      "inputs": [
        {
          "internalType": "uint256",
          "name": "shares",
          "type": "uint256"
        },
        {
          "internalType": "address",
          "name": "to",
          "type": "address"
        }
      ],
      "name": "mint",
      "outputs": [
        {
          "internalType": "uint256",
          "name": "assets",
          "type": "uint256"
        }
      ],
      "stateMutability": "nonpayable",
      "type": "function"
    },
    {
      "inputs": [
        {
          "internalType": "uint256",
          "name": "shares",
          "type": "uint256"
        },
        {
          "internalType": "address",
          "name": "to",
          "type": "address"
        },
        {
          "internalType": "address",
          "name": "controller",
          "type": "address"
        }
      ],
      "name": "mint",
      "outputs": [
        {
          "internalType": "uint256",
          "name": "assets",
          "type": "uint256"
        }
      ],
      "stateMutability": "nonpayable",
      "type": "function"
    },
    {
      "inputs": [],
      "name": "name",
      "outputs": [
        {
          "internalType": "string",
          "name": "",
          "type": "string"
        }
      ],
      "stateMutability": "view",
      "type": "function"
    },
    {
      "inputs": [],
      "name": "owner",
      "outputs": [
        {
          "internalType": "address",
          "name": "",
          "type": "address"
        }
      ],
      "stateMutability": "view",
      "type": "function"
    },
    {
      "inputs": [
        {
          "internalType": "address",
          "name": "owner",
          "type": "address"
        }
      ],
      "name": "pendingDepositRequest",
      "outputs": [
        {
          "internalType": "uint256",
          "name": "assets",
          "type": "uint256"
        }
      ],
      "stateMutability": "view",
      "type": "function"
    },
    {
      "inputs": [
        {
          "internalType": "address",
          "name": "owner",
          "type": "address"
        }
      ],
      "name": "pendingRedeemRequest",
      "outputs": [
        {
          "internalType": "uint256",
          "name": "shares",
          "type": "uint256"
        }
      ],
      "stateMutability": "view",
      "type": "function"
    },
    {
      "inputs": [
        {
          "internalType": "uint256",
          "name": "assets",
          "type": "uint256"
        }
      ],
      "name": "previewDeposit",
      "outputs": [
        {
          "internalType": "uint256",
          "name": "",
          "type": "uint256"
        }
      ],
      "stateMutability": "view",
      "type": "function"
    },
    {
      "inputs": [
        {
          "internalType": "uint256",
          "name": "shares",
          "type": "uint256"
        }
      ],
      "name": "previewMint",
      "outputs": [
        {
          "internalType": "uint256",
          "name": "",
          "type": "uint256"
        }
      ],
      "stateMutability": "view",
      "type": "function"
    },
    {
      "inputs": [
        {
          "internalType": "uint256",
          "name": "shares",
          "type": "uint256"
        }
      ],
      "name": "previewRedeem",
      "outputs": [
        {
          "internalType": "uint256",
          "name": "",
          "type": "uint256"
        }
      ],
      "stateMutability": "view",
      "type": "function"
    },
    {
      "inputs": [
        {
          "internalType": "uint256",
          "name": "assets",
          "type": "uint256"
        }
      ],
      "name": "previewWithdraw",
      "outputs": [
        {
          "internalType": "uint256",
          "name": "",
          "type": "uint256"
        }
      ],
      "stateMutability": "view",
      "type": "function"
    },
    {
      "inputs": [
        {
          "internalType": "uint256",
          "name": "shares",
          "type": "uint256"
        },
        {
          "internalType": "address",
          "name": "receiver",
          "type": "address"
        },
        {
          "internalType": "address",
          "name": "controller",
          "type": "address"
        }
      ],
      "name": "redeem",
      "outputs": [
        {
          "internalType": "uint256",
          "name": "assets",
          "type": "uint256"
        }
      ],
      "stateMutability": "nonpayable",
      "type": "function"
    },
    {
      "inputs": [],
      "name": "renounceOwnership",
      "outputs": [],
      "stateMutability": "nonpayable",
      "type": "function"
    },
    {
      "inputs": [
        {
          "internalType": "bytes32",
          "name": "role",
          "type": "bytes32"
        },
        {
          "internalType": "address",
          "name": "callerConfirmation",
          "type": "address"
        }
      ],
      "name": "renounceRole",
      "outputs": [],
      "stateMutability": "nonpayable",
      "type": "function"
    },
    {
      "inputs": [
        {
          "internalType": "uint256",
          "name": "assets",
          "type": "uint256"
        },
        {
          "internalType": "address",
          "name": "controller",
          "type": "address"
        },
        {
          "internalType": "address",
          "name": "owner",
          "type": "address"
        }
      ],
      "name": "requestDeposit",
      "outputs": [],
      "stateMutability": "nonpayable",
      "type": "function"
    },
    {
      "inputs": [
        {
          "internalType": "uint256",
          "name": "shares",
          "type": "uint256"
        },
        {
          "internalType": "address",
          "name": "controller",
          "type": "address"
        },
        {
          "internalType": "address",
          "name": "owner",
          "type": "address"
        }
      ],
      "name": "requestRedeem",
      "outputs": [],
      "stateMutability": "nonpayable",
      "type": "function"
    },
    {
      "inputs": [
        {
          "internalType": "bytes32",
          "name": "role",
          "type": "bytes32"
        },
        {
          "internalType": "address",
          "name": "account",
          "type": "address"
        }
      ],
      "name": "revokeRole",
      "outputs": [],
      "stateMutability": "nonpayable",
      "type": "function"
    },
    {
      "inputs": [
        {
          "internalType": "address",
          "name": "operator",
          "type": "address"
        },
        {
          "internalType": "bool",
          "name": "approved",
          "type": "bool"
        }
      ],
      "name": "setOperator",
      "outputs": [
        {
          "internalType": "bool",
          "name": "success",
          "type": "bool"
        }
      ],
      "stateMutability": "nonpayable",
      "type": "function"
    },
    {
      "inputs": [
        {
          "internalType": "uint32",
          "name": "time",
          "type": "uint32"
        }
      ],
      "name": "setSharesLockTime",
      "outputs": [],
      "stateMutability": "nonpayable",
      "type": "function"
    },
    {
      "inputs": [
        {
          "internalType": "bytes4",
          "name": "interfaceId",
          "type": "bytes4"
        }
      ],
      "name": "supportsInterface",
      "outputs": [
        {
          "internalType": "bool",
          "name": "",
          "type": "bool"
        }
      ],
      "stateMutability": "view",
      "type": "function"
    },
    {
      "inputs": [],
      "name": "symbol",
      "outputs": [
        {
          "internalType": "string",
          "name": "",
          "type": "string"
        }
      ],
      "stateMutability": "view",
      "type": "function"
    },
    {
      "inputs": [],
      "name": "totalAssets",
      "outputs": [
        {
          "internalType": "uint256",
          "name": "",
          "type": "uint256"
        }
      ],
      "stateMutability": "view",
      "type": "function"
    },
    {
      "inputs": [],
      "name": "totalSupply",
      "outputs": [
        {
          "internalType": "uint256",
          "name": "",
          "type": "uint256"
        }
      ],
      "stateMutability": "view",
      "type": "function"
    },
    {
      "inputs": [
        {
          "internalType": "address",
          "name": "to",
          "type": "address"
        },
        {
          "internalType": "uint256",
          "name": "value",
          "type": "uint256"
        }
      ],
      "name": "transfer",
      "outputs": [
        {
          "internalType": "bool",
          "name": "",
          "type": "bool"
        }
      ],
      "stateMutability": "nonpayable",
      "type": "function"
    },
    {
      "inputs": [
        {
          "internalType": "address",
          "name": "from",
          "type": "address"
        },
        {
          "internalType": "address",
          "name": "to",
          "type": "address"
        },
        {
          "internalType": "uint256",
          "name": "value",
          "type": "uint256"
        }
      ],
      "name": "transferFrom",
      "outputs": [
        {
          "internalType": "bool",
          "name": "",
          "type": "bool"
        }
      ],
      "stateMutability": "nonpayable",
      "type": "function"
    },
    {
      "inputs": [
        {
          "internalType": "address",
          "name": "newOwner",
          "type": "address"
        }
      ],
      "name": "transferOwnership",
      "outputs": [],
      "stateMutability": "nonpayable",
      "type": "function"
    },
    {
      "inputs": [
        {
          "internalType": "address",
          "name": "account",
          "type": "address"
        }
      ],
      "name": "unlockedOf",
      "outputs": [
        {
          "internalType": "uint256",
          "name": "",
          "type": "uint256"
        }
      ],
      "stateMutability": "view",
      "type": "function"
    },
    {
      "inputs": [
        {
          "components": [
            {
              "internalType": "address",
              "name": "receiver",
              "type": "address"
            },
            {
              "internalType": "address",
              "name": "token",
              "type": "address"
            },
            {
              "internalType": "uint256",
              "name": "feePercentage",
              "type": "uint256"
            }
          ],
          "internalType": "struct FeeConfiguration.FeeConfig",
          "name": "_feeConfig",
          "type": "tuple"
        }
      ],
      "name": "updateFeeConfig",
      "outputs": [],
      "stateMutability": "nonpayable",
      "type": "function"
    },
    {
      "inputs": [
        {
          "internalType": "uint256",
          "name": "assets",
          "type": "uint256"
        },
        {
          "internalType": "address",
          "name": "receiver",
          "type": "address"
        },
        {
          "internalType": "address",
          "name": "controller",
          "type": "address"
        }
      ],
      "name": "withdraw",
      "outputs": [
        {
          "internalType": "uint256",
          "name": "shares",
          "type": "uint256"
        }
      ],
      "stateMutability": "nonpayable",
      "type": "function"
    }
  ],
  "bytecode": "0x60c060405260405162003d2538038062003d25833981016040819052620000269162000596565b3388808989600362000039838262000748565b50600462000048828262000748565b5050506000806200005f836200012e60201b60201c565b91509150816200007157601262000073565b805b60ff1660a05250506001600160a01b0390811660805282169050620000b357604051631e4fbdf760e01b8152600060048201526024015b60405180910390fd5b620000be8162000213565b50620000cc85858562000265565b60007f66edf448d5bf7be6b4d59d8e281e5b0790ba1fdc49329b14b394277e0547430060050180546001600160401b03191664010000000063ffffffff9586160263ffffffff1916179290931691909117909155506200084c95505050505050565b60408051600481526024810182526020810180516001600160e01b031663313ce56760e01b17905290516000918291829182916001600160a01b03871691620001779162000814565b600060405180830381855afa9150503d8060008114620001b4576040519150601f19603f3d011682016040523d82523d6000602084013e620001b9565b606091505b5091509150818015620001ce57506020815110155b156200020657600081806020019051810190620001ec919062000832565b905060ff811162000204576001969095509350505050565b505b5060009485945092505050565b600980546001600160a01b038381166001600160a01b0319831681179093556040519116919082907f8be0079c531659141344cd1fd0a4f28419497f9722a3daafe3b4186f6b6457e090600090a35050565b8251602084015160408501516200027e929190620002eb565b6200028b600033620003ab565b50620002b87f477fc23fb51bb5d5aa814872a393b0e4f35d0916c7503c0fd96584681070d41083620003ab565b50620002e57f74e458455daa935f28c556b43e0cc4ad001a8a090f5feee376681e97d4618f4682620003ab565b50505050565b6127108110620003305760405162461bcd60e51b815260206004820152600f60248201526e46433a20496e76616c69642066656560881b6044820152606401620000aa565b600680546001600160a01b038581166001600160a01b0319928316811790935560078054918616919092168117909155600883905560408051928352602083019190915281018290527febd34b2df88ea5c9f67c04b13b08e5e63c2d17e269aab73b866fe47a8736a2649060600160405180910390a1505050565b60008281526005602090815260408083206001600160a01b038516845290915281205460ff16620004545760008381526005602090815260408083206001600160a01b03861684529091529020805460ff191660011790556200040b3390565b6001600160a01b0316826001600160a01b0316847f2f8788117e7eff1d82e926ec794901d17c78024a50270940304540a733656f0d60405160405180910390a450600162000458565b5060005b92915050565b6001600160a01b03811681146200047457600080fd5b50565b634e487b7160e01b600052604160045260246000fd5b604051606081016001600160401b0381118282101715620004b257620004b262000477565b60405290565b60005b83811015620004d5578181015183820152602001620004bb565b50506000910152565b600082601f830112620004f057600080fd5b81516001600160401b03808211156200050d576200050d62000477565b604051601f8301601f19908116603f0116810190828211818310171562000538576200053862000477565b816040528381528660208588010111156200055257600080fd5b62000565846020830160208901620004b8565b9695505050505050565b80516200057c816200045e565b919050565b805163ffffffff811681146200057c57600080fd5b600080600080600080600080888a03610140811215620005b557600080fd5b8951620005c2816200045e565b60208b01519099506001600160401b0380821115620005e057600080fd5b620005ee8d838e01620004de565b995060408c01519150808211156200060557600080fd5b50620006148c828d01620004de565b9750506060605f19820112156200062a57600080fd5b50620006356200048d565b60608a015162000645816200045e565b815260808a015162000657816200045e565b602082015260a08a0151604082015294506200067660c08a016200056f565b93506200068660e08a016200056f565b9250620006976101008a0162000581565b9150620006a86101208a0162000581565b90509295985092959890939650565b600181811c90821680620006cc57607f821691505b602082108103620006ed57634e487b7160e01b600052602260045260246000fd5b50919050565b601f82111562000743576000816000526020600020601f850160051c810160208610156200071e5750805b601f850160051c820191505b818110156200073f578281556001016200072a565b5050505b505050565b81516001600160401b0381111562000764576200076462000477565b6200077c81620007758454620006b7565b84620006f3565b602080601f831160018114620007b457600084156200079b5750858301515b600019600386901b1c1916600185901b1785556200073f565b600085815260208120601f198616915b82811015620007e557888601518255948401946001909101908401620007c4565b5085821015620008045787850151600019600388901b60f8161c191681555b5050505050600190811b01905550565b6000825162000828818460208701620004b8565b9190910192915050565b6000602082840312156200084557600080fd5b5051919050565b60805160a0516134ac620008796000396000610bc60152600081816109ea0152610ce801526134ac6000f3fe6080604052600436106102d55760003560e01c806385b77f451161017b578063c3702989116100d7578063d547741f11610085578063d547741f14610910578063d905777e14610930578063da39b3e714610950578063dd62ed3e14610970578063ef8b30f71461087b578063efa6f42514610990578063f2fde38b146109b057600080fd5b8063c370298914610819578063c4f59f9b14610839578063c63d75b61461085b578063c6e6f5921461087b578063caad546e1461089b578063cd26c0e6146108bb578063ce96cb77146108f057600080fd5b8063a217fddf11610134578063a217fddf14610730578063a5f1e28214610745578063a9059cbb14610765578063b3d7f6b914610785578063b460af94146107a5578063b4f6d613146107c5578063ba087652146107f957600080fd5b806385b77f451461068a5780638da5cb5b146106aa57806391d14854146106c857806394bf804d146106e857806395d89b41146107085780639feb8f501461071d57600080fd5b8063313ce56711610235578063558a7297116101e3578063558a72971461059f5780635ab764ed146105bf5780636e553f65146105df5780636f26a436146105ff57806370a082311461061f578063715018a6146106555780637d41c86e1461066a57600080fd5b8063313ce567146104c9578063362a3fad146104f057806336568abe1461051d57806338d52e0f1461053d578063402d267d1461055f5780634cdad5061461038857806353dc1dd31461057f57600080fd5b80630a28a477116102925780630a28a477146103c857806318160ddd146103e85780631e5eb1d0146103fd57806323b872dd14610437578063248a9ca3146104575780632e2d2984146104875780632f2ff15d146104a757600080fd5b806301e1d114146102da57806301ffc9a71461030257806305fb2a511461033257806306fdde031461036657806307a2d13a14610388578063095ea7b3146103a8575b600080fd5b3480156102e657600080fd5b506102ef6109d0565b6040519081526020015b60405180910390f35b34801561030e57600080fd5b5061032261031d366004612e1b565b610a65565b60405190151581526020016102f9565b34801561033e57600080fd5b506102ef7f74e458455daa935f28c556b43e0cc4ad001a8a090f5feee376681e97d4618f4681565b34801561037257600080fd5b5061037b610a90565b6040516102f99190612e69565b34801561039457600080fd5b506102ef6103a3366004612e9c565b610b22565b3480156103b457600080fd5b506103226103c3366004612ed1565b610b2f565b3480156103d457600080fd5b506102ef6103e3366004612e9c565b610b47565b3480156103f457600080fd5b506002546102ef565b34801561040957600080fd5b50600654600754600854610428926001600160a01b0390811692169083565b6040516102f993929190612efb565b34801561044357600080fd5b50610322610452366004612f1f565b610b54565b34801561046357600080fd5b506102ef610472366004612e9c565b60009081526005602052604090206001015490565b34801561049357600080fd5b506102ef6104a2366004612f5b565b610b7a565b3480156104b357600080fd5b506104c76104c2366004612f97565b610b93565b005b3480156104d557600080fd5b506104de610bbe565b60405160ff90911681526020016102f9565b3480156104fc57600080fd5b5061051061050b366004612fc3565b610bea565b6040516102f99190612fde565b34801561052957600080fd5b506104c7610538366004612f97565b610cae565b34801561054957600080fd5b50610552610ce6565b6040516102f99190613022565b34801561056b57600080fd5b506102ef61057a366004612fc3565b610d0a565b34801561058b57600080fd5b506102ef61059a366004612fc3565b610d36565b3480156105ab57600080fd5b506103226105ba366004613044565b610d63565b3480156105cb57600080fd5b506102ef6105da36600461307b565b610e0e565b3480156105eb57600080fd5b506102ef6105fa366004612f97565b610eef565b34801561060b57600080fd5b506104c761061a3660046130a5565b610efc565b34801561062b57600080fd5b506102ef61063a366004612fc3565b6001600160a01b031660009081526020819052604090205490565b34801561066157600080fd5b506104c7610f62565b34801561067657600080fd5b506104c7610685366004612f5b565b610f76565b34801561069657600080fd5b506104c76106a5366004612f5b565b610fa8565b3480156106b657600080fd5b506009546001600160a01b0316610552565b3480156106d457600080fd5b506103226106e3366004612f97565b610fe3565b3480156106f457600080fd5b506102ef610703366004612f97565b61100e565b34801561071457600080fd5b5061037b61101b565b6104c761072b366004612ed1565b61102a565b34801561073c57600080fd5b506102ef600081565b34801561075157600080fd5b506102ef610760366004612fc3565b611352565b34801561077157600080fd5b50610322610780366004612ed1565b6113a1565b34801561079157600080fd5b506102ef6107a0366004612e9c565b6113af565b3480156107b157600080fd5b506102ef6107c0366004612f5b565b6113bc565b3480156107d157600080fd5b506102ef7f477fc23fb51bb5d5aa814872a393b0e4f35d0916c7503c0fd96584681070d41081565b34801561080557600080fd5b506102ef610814366004612f5b565b6113d1565b34801561082557600080fd5b506102ef610834366004612fc3565b6113de565b34801561084557600080fd5b5061084e611408565b6040516102f991906130cb565b34801561086757600080fd5b506102ef610876366004612fc3565b611472565b34801561088757600080fd5b506102ef610896366004612e9c565b6114a1565b3480156108a757600080fd5b506102ef6108b6366004612fc3565b6114ae565b3480156108c757600080fd5b506108db6108d6366004612f97565b6114b9565b604080519283526020830191909152016102f9565b3480156108fc57600080fd5b506102ef61090b366004612fc3565b61160a565b34801561091c57600080fd5b506104c761092b366004612f97565b611618565b34801561093c57600080fd5b506102ef61094b366004612fc3565b61163d565b34801561095c57600080fd5b506102ef61096b366004612f5b565b611648565b34801561097c57600080fd5b506102ef61098b36600461307b565b611661565b34801561099c57600080fd5b506104c76109ab366004613122565b61168c565b3480156109bc57600080fd5b506104c76109cb366004612fc3565b6116d1565b6040516370a0823160e01b81526000906001600160a01b037f000000000000000000000000000000000000000000000000000000000000000016906370a0823190610a1f903090600401613022565b602060405180830381865afa158015610a3c573d6000803e3d6000fd5b505050506040513d601f19601f82011682018060405250810190610a609190613198565b905090565b60006001600160e01b03198216631ee878f360e11b1480610a8a5750610a8a8261170f565b92915050565b606060038054610a9f906131b1565b80601f0160208091040260200160405190810160405280929190818152602001828054610acb906131b1565b8015610b185780601f10610aed57610100808354040283529160200191610b18565b820191906000526020600020905b815481529060010190602001808311610afb57829003601f168201915b5050505050905090565b6000610a8a826000611744565b600033610b3d81858561177e565b5060019392505050565b6000610a8a82600161178b565b600033610b628582856117bb565b610b6d858585611808565b60019150505b9392505050565b6000610b87848484611867565b9050610b738484611939565b600082815260056020526040902060010154610bae81611abd565b610bb88383611ac7565b50505050565b6000610a60817f0000000000000000000000000000000000000000000000000000000000000000613201565b60606000610bf6611b5b565b60068101549091508067ffffffffffffffff811115610c1757610c1761310c565b604051908082528060200260200182016040528015610c40578160200160208202803683370190505b50925060005b81811015610ca657610c8185846006018381548110610c6757610c6761321a565b6000918252602090912001546001600160a01b0316610e0e565b848281518110610c9357610c9361321a565b6020908102919091010152600101610c46565b505050919050565b6001600160a01b0381163314610cd75760405163334bd91960e11b815260040160405180910390fd5b610ce18282611b7f565b505050565b7f000000000000000000000000000000000000000000000000000000000000000090565b6000610d14611b5b565b6001600160a01b03909216600090815260029290920160205250604090205490565b6000610a8a610d43611b5b565b6001600160a01b0384166000908152600191909101602052604090205490565b60006001600160a01b0383163303610d8e5760405163ccea9e6f60e01b815260040160405180910390fd5b6000610d98611b5b565b33600081815260048301602090815260408083206001600160a01b038a1680855290835292819020805460ff1916891515908117909155905190815293945090927fceb576d9f15e4e200fdb5096d64d5dfd667e16def20c1eefd14256d8e3faa267910160405180910390a35060019392505050565b600080610e19611b5b565b6001600160a01b03808516600090815260088301602090815260408083208054948a168452600786019092528220805494955090939091819003610e6557600095505050505050610a8a565b6001600160a01b038716600090815260048301602052604081205490610e8b8286613230565b9050670de0b6b3a7640000610ea08483613243565b610eaa9190613270565b975087600003610eb957600197505b60085415610ee2576000610ed289600660020154611bec565b9050610ede818a613230565b9850505b5050505050505092915050565b6000610b73838333610b7a565b610f04611c6c565b6000610f0e611b5b565b60058101805463ffffffff191663ffffffff85169081179091556040519081529091507f30131881e801ec5c72cbec6e47ad340b66e5165fa10332f449a92f188a8f27479060200160405180910390a15050565b610f6a611c6c565b610f746000611c99565b565b6000610f80611b5b565b9050610f8d848484611ceb565b610bb88385610f9b87610b22565b8460010185600301611e13565b6000610fb2611b5b565b90506000610fbf856114a1565b9050610fcc858585611ea5565b610fdc8486838560028101611fbf565b5050505050565b60009182526005602090815260408084206001600160a01b0393909316845291905290205460ff1690565b6000610b73838333611648565b606060048054610a9f906131b1565b7f477fc23fb51bb5d5aa814872a393b0e4f35d0916c7503c0fd96584681070d41061105481611abd565b816000036110a95760405162461bcd60e51b815260206004820181905260248201527f4173796e635661756c743a20416d6f756e742063616e2774206265207a65726f60448201526064015b60405180910390fd5b6110b1610ce6565b6001600160a01b0316836001600160a01b0316141580156110db57506001600160a01b0383163014155b6111445760405162461bcd60e51b815260206004820152603460248201527f4173796e635661756c743a2052657761726420616e64205374616b696e6720746044820152736f6b656e732063616e6e6f742062652073616d6560601b60648201526084016110a0565b6001600160a01b03831661119a5760405162461bcd60e51b815260206004820181905260248201527f4173796e635661756c743a20496e76616c69642072657761726420746f6b656e60448201526064016110a0565b6111a26109d0565b6000036111f15760405162461bcd60e51b815260206004820152601f60248201527f4173796e635661756c743a204e6f20746f6b656e207374616b6564207965740060448201526064016110a0565b60006111fb611b5b565b6006810154909150600a0361122357604051637561e0ab60e01b815260040160405180910390fd5b6000611241670de0b6b3a76400006112396109d0565b869190612045565b6001600160a01b0386166000908152600884016020526040902060018101549192509060ff166112c25760068301805460018082018355600092835260209092200180546001600160a01b0319166001600160a01b038916908117909155828201805460ff19169092179091558282556112bd90333088612063565b611307565b6001600160a01b0386166000908152600884016020526040812080548492906112ec908490613284565b9091555061130790506001600160a01b038716333088612063565b856001600160a01b03167fac24935fd910bc682b5ccb1a07b718cadf8cf2f6d1404c4f3ddc3662dae40e298660405161134291815260200190565b60405180910390a2505050505050565b60008061135d611b5b565b9050611368836114ae565b6001600160a01b0384166000908152600783016020526040902060028101546001909101546113979190613230565b610b739190613230565b600033610b3d818585611808565b6000610a8a826001611744565b60006113c98484846120bd565b949350505050565b60006113c984848461218f565b6000610a8a6113eb611b5b565b6001600160a01b0384166000908152602091909152604090205490565b6060611412611b5b565b600601805480602002602001604051908101604052809291908181526020018280548015610b1857602002820191906000526020600020905b81546001600160a01b0316815260019091019060200180831161144b575050505050905090565b600061147c611b5b565b6001600160a01b03909216600090815260029290920160205250604090206001015490565b6000610a8a82600061178b565b6000610a8a82612256565b60008060006114c6611b5b565b6006810154600754919250906001600160a01b03166000808381036115385760405162461bcd60e51b815260206004820152602260248201527f4173796e635661756c743a204e6f2072657761726420746f6b656e73206578696044820152611cdd60f21b60648201526084016110a0565b885b848110156115fa578560060181815481106115575761155761321a565b6000918252602090912001546001600160a01b031692506115783384610e0e565b6001600160a01b03808516600081815260088a01602090815260408083205433845260078d01835281842094845260049094019091529020559092508416156115de576115d9896115c884612340565b6001600160a01b0386169190612442565b6115f2565b6115f26001600160a01b0384168a84612442565b60010161153a565b5097989297509195505050505050565b6000610a8a6103a3836114ae565b60008281526005602052604090206001015461163381611abd565b610bb88383611b7f565b6000610a8a826114ae565b6000611655848484612468565b9050610b738184611939565b6001600160a01b03918216600090815260016020908152604080832093909416825291909152205490565b7f74e458455daa935f28c556b43e0cc4ad001a8a090f5feee376681e97d4618f466116b681611abd565b6116cd82600001518360200151846040015161252f565b5050565b6116d9611c6c565b6001600160a01b038116611703576000604051631e4fbdf760e01b81526004016110a09190613022565b61170c81611c99565b50565b60006001600160e01b03198216637965db0b60e01b1480610a8a57506301ffc9a760e01b6001600160e01b0319831614610a8a565b6000610b736117516109d0565b61175c906001613284565b6117686000600a61337b565b6002546117759190613284565b859190856125ed565b610ce1838383600161263e565b6000610b7361179b82600a61337b565b6002546117a89190613284565b6117b06109d0565b611775906001613284565b60006117c78484611661565b90506000198114610bb857818110156117f957828183604051637dc7a0d960e11b81526004016110a09392919061338a565b610bb88484848403600061263e565b6001600160a01b038316611832576000604051634b637e8f60e11b81526004016110a09190613022565b6001600160a01b03821661185c57600060405163ec442f0560e01b81526004016110a09190613022565b610ce1838383612713565b600080611872611b5b565b6001600160a01b038416600090815260048201602090815260408083203384529091529020549091506118a990849060ff1661282a565b6118b283610d0a565b8511156118e05782856118c485610d0a565b6040516356f1421360e01b81526004016110a09392919061338a565b6001600160a01b0383166000908152600282016020908152604091829020825180840190935280548352600101549082015261191c818761285e565b925061192e8684878786600201612873565b509695505050505050565b6000611943611b5b565b33600090815260078201602052604090206005015490915060ff16611a0b57600681015460005b818110156119d25760008360060182815481106119895761198961321a565b60009182526020808320909101546001600160a01b031680835260088701825260408084205433855260078901845281852092855260049092019092529120555060010161196a565b5050336000908152600782016020526040902083815560018082018590554260038301556005909101805460ff19169091179055505050565b3360009081526007820160205260408120549003611a8f5733600090815260078201602052604081208054859290611a44908490613284565b909155505033600090815260078201602052604081206001018054859290611a6d908490613284565b9091555050336000908152600782016020526040902042600390910155505050565b611a9a6000836114b9565b505033600090815260078201602052604081208054859290611a44908490613284565b61170c81336128f2565b6000611ad38383610fe3565b611b535760008381526005602090815260408083206001600160a01b03861684529091529020805460ff19166001179055611b0b3390565b6001600160a01b0316826001600160a01b0316847f2f8788117e7eff1d82e926ec794901d17c78024a50270940304540a733656f0d60405160405180910390a4506001610a8a565b506000610a8a565b7f66edf448d5bf7be6b4d59d8e281e5b0790ba1fdc49329b14b394277e0547430090565b6000611b8b8383610fe3565b15611b535760008381526005602090815260408083206001600160a01b0386168085529252808320805460ff1916905551339286917ff6391f5c32d9c69d2a47ea670b442974b53935d1edc7fd64eb21e047a839171b9190a4506001610a8a565b6000612710611bfb8385613243565b1015611c555760405162461bcd60e51b8152602060048201526024808201527f46433a20546f6f20736d616c6c20616d6f756e7420746f20636f6e73696465726044820152632066656560e01b60648201526084016110a0565b612710611c628385613243565b610b739190613270565b6009546001600160a01b03163314610f74573360405163118cdaa760e01b81526004016110a09190613022565b600980546001600160a01b038381166001600160a01b0319831681179093556040519116919082907f8be0079c531659141344cd1fd0a4f28419497f9722a3daafe3b4186f6b6457e090600090a35050565b82600003611d455760405162461bcd60e51b815260206004820152602160248201527f4173796e635661756c743a20496e76616c69642073686172657320616d6f756e6044820152601d60fa1b60648201526084016110a0565b6001600160a01b03821615801590611d6557506001600160a01b03811615155b611d815760405162461bcd60e51b81526004016110a0906133ab565b6000611d8b611b5b565b6001600160a01b038316600090815260048201602090815260408083203384529091528120549192509060ff16611dc25733611dc4565b825b6001600160a01b0385166000908152600184016020526040902054909150611dec908661291d565b6001600160a01b0385166000908152600184016020526040902055610fdc85858584612929565b6001600160a01b038516600090815260208390526040902054611e369085612979565b6001600160a01b038616600090815260208481526040808320939093558390529081208054859290611e69908490613284565b90915550506001600160a01b03851660009081526020829052604081206001018054869290611e99908490613284565b90915550505050505050565b82600003611ef55760405162461bcd60e51b815260206004820181905260248201527f4173796e635661756c743a20496e76616c696420617373657420616d6f756e7460448201526064016110a0565b6001600160a01b03821615801590611f1557506001600160a01b03811615155b611f315760405162461bcd60e51b81526004016110a0906133ab565b6000611f3b611b5b565b6001600160a01b038316600090815260048201602090815260408083203384529091528120549192509060ff16611f725733611f74565b825b6001600160a01b038516600090815260208490526040902054909150611f9a908661291d565b6001600160a01b038516600090815260208490526040902055610fdc85858584612985565b6001600160a01b038516600090815260208390526040902054611fe29085612979565b6001600160a01b038616600090815260208481526040808320939093558390529081208054869290612015908490613284565b90915550506001600160a01b03851660009081526020829052604081206001018054859290611e99908490613284565b600082600019048411830215820261205c57600080fd5b5091020490565b610bb884856001600160a01b03166323b872dd86868660405160240161208b93929190612efb565b604051602081830303815290604052915060e01b6020820180516001600160e01b0383818316178352505050506129e9565b6000806120c8611b5b565b6001600160a01b038416600090815260048201602090815260408083203384529091529020549091506120ff90849060ff1661282a565b6121088361160a565b85111561213657828561211a8561160a565b604051633fa733bb60e21b81526004016110a09392919061338a565b6001600160a01b03831660009081526003820160209081526040918290208251808401909352805483526001015490820152612172818761285e565b92506121848684878786600301612a43565b979650505050505050565b60008061219a611b5b565b6001600160a01b038416600090815260048201602090815260408083203384529091529020549091506121d190849060ff1661282a565b6121da8361163d565b8511156122085782856121ec8561163d565b60405163f046f30360e01b81526004016110a09392919061338a565b6001600160a01b038316600090815260038201602090815260409182902082518084019093528054835260010154908201526122448187612a6b565b925061192e8387878786600301612a43565b600080612261611b5b565b6001600160a01b038416600090815260078201602052604081206002810154600182015493945090926122949190613230565b600584015460038401549192506000916122bc91640100000000900463ffffffff1690613284565b9050804210806122ca575081155b156122db5750600095945050505050565b60058401546000906122f39063ffffffff1683613284565b905080421061230457829550612336565b60006123108342613230565b600587015490915063ffffffff166123288286613243565b6123329190613270565b9650505b5050505050919050565b6007546008546000916001600160a01b0316908290612360908590611bec565b905080826001600160a01b03166370a08231306040518263ffffffff1660e01b815260040161238f9190613022565b602060405180830381865afa1580156123ac573d6000803e3d6000fd5b505050506040513d601f19601f820116820180604052508101906123d09190613198565b101561241e5760405162461bcd60e51b815260206004820152601e60248201527f46433a20496e73756666696369656e7420746f6b656e2062616c616e6365000060448201526064016110a0565b600654612438906001600160a01b03848116911683612442565b6113c98185613230565b610ce183846001600160a01b031663a9059cbb858560405160240161208b9291906133ec565b600080612473611b5b565b6001600160a01b038416600090815260048201602090815260408083203384529091529020549091506124aa90849060ff1661282a565b6124b383611472565b8511156124e15783856124c585611472565b60405163284ff66760e01b81526004016110a09392919061338a565b6001600160a01b0383166000908152600282016020908152604091829020825180840190935280548352600101549082015261251d8187612a6b565b92506121848387878786600201612873565b61271081106125725760405162461bcd60e51b815260206004820152600f60248201526e46433a20496e76616c69642066656560881b60448201526064016110a0565b600680546001600160a01b038581166001600160a01b0319928316811790935560078054918616919092168117909155600883905560408051928352602083019190915281018290527febd34b2df88ea5c9f67c04b13b08e5e63c2d17e269aab73b866fe47a8736a2649060600160405180910390a1505050565b6000806125fb868686612a80565b905061260683612b44565b801561262257506000848061261d5761261d61325a565b868809115b1561263557612632600182613284565b90505b95945050505050565b6001600160a01b03841661266857600060405163e602df0560e01b81526004016110a09190613022565b6001600160a01b038316612692576000604051634a1406b160e11b81526004016110a09190613022565b6001600160a01b0380851660009081526001602090815260408083209387168352929052208290558015610bb857826001600160a01b0316846001600160a01b03167f8c5be1e5ebec7d5bd14f71427d1e84f3dd0314c0f7b2291e5b200ac8c7c3b9258460405161270591815260200190565b60405180910390a350505050565b6001600160a01b03831661273e5780600260008282546127339190613284565b9091555061279d9050565b6001600160a01b0383166000908152602081905260409020548181101561277e5783818360405163391434e360e21b81526004016110a09392919061338a565b6001600160a01b03841660009081526020819052604090209082900390555b6001600160a01b0382166127b9576002805482900390556127d8565b6001600160a01b03821660009081526020819052604090208054820190555b816001600160a01b0316836001600160a01b03167fddf252ad1be2c89b69c2b068fc378daa952ba7f163c4a11628f55a4df523b3ef8360405161281d91815260200190565b60405180910390a3505050565b336001600160a01b038316148015906128405750805b156116cd576040516336abb4df60e11b815260040160405180910390fd5b6000610b738360200151838560000151612045565b6001600160a01b0382811660008181526020848152604080832080548b9003815560010180548a9003905580518a8152918201899052919384939088169290917fdcbc1c05240f31ff3ad067ef1ee35ce4997762752e3a095284754544f4c709d7910160405180910390a36128e88587612b71565b5093959350505050565b6128fc8282610fe3565b6116cd57808260405163e2517d3f60e01b81526004016110a09291906133ec565b6000610b738284613284565b612934813086612713565b816001600160a01b0316836001600160a01b03167f9d2f438fa9d25ba84aa5ca2b229d4ad0edad29fa7299e8f7dab10d9bc582391c83876040516127059291906133ec565b6000610b738284613230565b6129a4813086612993610ce6565b6001600160a01b0316929190612063565b816001600160a01b0316836001600160a01b03167f21c9033b0fdf75a8e4138c4bd5aeae053eee01f1fbd47d59cde75ea492c156e383876040516127059291906133ec565b60006129fe6001600160a01b03841683612ba7565b90508051600014158015612a23575080806020019051810190612a219190613405565b155b15610ce15782604051635274afe760e01b81526004016110a09190613022565b600080612a508786612bb5565b612a5d8787878787612c25565b915091509550959350505050565b6000610b738360000151838560200151612045565b6000838302816000198587098281108382030391505080600003612ab757838281612aad57612aad61325a565b0492505050610b73565b808411612ad75760405163227bc15360e01b815260040160405180910390fd5b6000848688096000868103871696879004966002600389028118808a02820302808a02820302808a02820302808a02820302808a02820302808a02909103029181900381900460010186841190950394909402919094039290920491909117919091029150509392505050565b60006002826003811115612b5a57612b5a613422565b612b649190613438565b60ff166001149050919050565b6001600160a01b038216612b9b57600060405163ec442f0560e01b81526004016110a09190613022565b6116cd60008383612713565b6060610b7383836000612ccc565b612bc06000826114b9565b50506000612bcc611b5b565b336000908152600782016020526040812080549293508592909190612bf2908490613230565b909155505033600090815260078201602052604081206002018054859290612c1b908490613284565b9091555050505050565b6001600160a01b0382166000908152602082905260408120805487900381556001018054869003905580612c593087612d69565b612c768588612c66610ce6565b6001600160a01b03169190612442565b60408051888152602081018890526001600160a01b03808716929088169133917ffbde797d201c681b91056529119e0b02407c7bb96a4a2c75c01fc9667232c8db910160405180910390a4509495939450505050565b606081471015612cf1573060405163cd78605960e01b81526004016110a09190613022565b600080856001600160a01b03168486604051612d0d919061345a565b60006040518083038185875af1925050503d8060008114612d4a576040519150601f19603f3d011682016040523d82523d6000602084013e612d4f565b606091505b5091509150612d5f868383612d9f565b9695505050505050565b6001600160a01b038216612d93576000604051634b637e8f60e11b81526004016110a09190613022565b6116cd82600083612713565b606082612db457612daf82612df2565b610b73565b8151158015612dcb57506001600160a01b0384163b155b15612deb5783604051639996b31560e01b81526004016110a09190613022565b5080610b73565b805115612e025780518082602001fd5b604051630a12f52160e11b815260040160405180910390fd5b600060208284031215612e2d57600080fd5b81356001600160e01b031981168114610b7357600080fd5b60005b83811015612e60578181015183820152602001612e48565b50506000910152565b6020815260008251806020840152612e88816040850160208701612e45565b601f01601f19169190910160400192915050565b600060208284031215612eae57600080fd5b5035919050565b80356001600160a01b0381168114612ecc57600080fd5b919050565b60008060408385031215612ee457600080fd5b612eed83612eb5565b946020939093013593505050565b6001600160a01b039384168152919092166020820152604081019190915260600190565b600080600060608486031215612f3457600080fd5b612f3d84612eb5565b9250612f4b60208501612eb5565b9150604084013590509250925092565b600080600060608486031215612f7057600080fd5b83359250612f8060208501612eb5565b9150612f8e60408501612eb5565b90509250925092565b60008060408385031215612faa57600080fd5b82359150612fba60208401612eb5565b90509250929050565b600060208284031215612fd557600080fd5b610b7382612eb5565b6020808252825182820181905260009190848201906040850190845b8181101561301657835183529284019291840191600101612ffa565b50909695505050505050565b6001600160a01b0391909116815260200190565b801515811461170c57600080fd5b6000806040838503121561305757600080fd5b61306083612eb5565b9150602083013561307081613036565b809150509250929050565b6000806040838503121561308e57600080fd5b61309783612eb5565b9150612fba60208401612eb5565b6000602082840312156130b757600080fd5b813563ffffffff81168114610b7357600080fd5b6020808252825182820181905260009190848201906040850190845b818110156130165783516001600160a01b0316835292840192918401916001016130e7565b634e487b7160e01b600052604160045260246000fd5b60006060828403121561313457600080fd5b6040516060810181811067ffffffffffffffff8211171561316557634e487b7160e01b600052604160045260246000fd5b60405261317183612eb5565b815261317f60208401612eb5565b6020820152604083013560408201528091505092915050565b6000602082840312156131aa57600080fd5b5051919050565b600181811c908216806131c557607f821691505b6020821081036131e557634e487b7160e01b600052602260045260246000fd5b50919050565b634e487b7160e01b600052601160045260246000fd5b60ff8181168382160190811115610a8a57610a8a6131eb565b634e487b7160e01b600052603260045260246000fd5b81810381811115610a8a57610a8a6131eb565b8082028115828204841417610a8a57610a8a6131eb565b634e487b7160e01b600052601260045260246000fd5b60008261327f5761327f61325a565b500490565b80820180821115610a8a57610a8a6131eb565b600181815b808511156132d25781600019048211156132b8576132b86131eb565b808516156132c557918102915b93841c939080029061329c565b509250929050565b6000826132e957506001610a8a565b816132f657506000610a8a565b816001811461330c576002811461331657613332565b6001915050610a8a565b60ff841115613327576133276131eb565b50506001821b610a8a565b5060208310610133831016604e8410600b8410161715613355575081810a610a8a565b61335f8383613297565b8060001904821115613373576133736131eb565b029392505050565b6000610b7360ff8416836132da565b6001600160a01b039390931683526020830191909152604082015260600190565b60208082526021908201527f4173796e635661756c743a20496e76616c6964206f776e6572206164647265736040820152607360f81b606082015260800190565b6001600160a01b03929092168252602082015260400190565b60006020828403121561341757600080fd5b8151610b7381613036565b634e487b7160e01b600052602160045260246000fd5b600060ff83168061344b5761344b61325a565b8060ff84160691505092915050565b6000825161346c818460208701612e45565b919091019291505056fea2646970667358221220f1f250fa07d43dcff66d8640b5998b9e37ba7e99d2fd81e84ce181f8c55bbbfe64736f6c63430008180033",
  "linkReferences": {},
  "deployedLinkReferences": {}
}