{
  "_format": "hh-sol-artifact-1",
  "contractName": "AsyncVault",
  "sourceName": "contracts/erc7540/AsyncVault.sol",
  "abi": [
    {
      "inputs": [
        {
          "internalType": "contract ERC20",
          "name": "_underlying",
          "type": "address"
        },
        {
          "internalType": "string",
          "name": "_name",
          "type": "string"
        },
        {
          "internalType": "string",
          "name": "_symbol",
          "type": "string"
        },
        {
          "components": [
            {
              "internalType": "address",
              "name": "receiver",
              "type": "address"
            },
            {
              "internalType": "address",
              "name": "token",
              "type": "address"
            },
            {
              "internalType": "uint256",
              "name": "feePercentage",
              "type": "uint256"
            }
          ],
          "internalType": "struct FeeConfiguration.FeeConfig",
          "name": "_feeConfig",
          "type": "tuple"
        },
        {
          "internalType": "address",
          "name": "_vaultRewardController",
          "type": "address"
        },
        {
          "internalType": "address",
          "name": "_feeConfigController",
          "type": "address"
        }
      ],
      "stateMutability": "payable",
      "type": "constructor"
    },
    {
      "inputs": [],
      "name": "AccessControlBadConfirmation",
      "type": "error"
    },
    {
      "inputs": [
        {
          "internalType": "address",
          "name": "account",
          "type": "address"
        },
        {
          "internalType": "bytes32",
          "name": "neededRole",
          "type": "bytes32"
        }
      ],
      "name": "AccessControlUnauthorizedAccount",
      "type": "error"
    },
    {
      "inputs": [
        {
          "internalType": "address",
          "name": "target",
          "type": "address"
        }
      ],
      "name": "AddressEmptyCode",
      "type": "error"
    },
    {
      "inputs": [
        {
          "internalType": "address",
          "name": "account",
          "type": "address"
        }
      ],
      "name": "AddressInsufficientBalance",
      "type": "error"
    },
    {
      "inputs": [],
      "name": "ERC7540CantRequestDepositOnBehalfOf",
      "type": "error"
    },
    {
      "inputs": [],
      "name": "FailedInnerCall",
      "type": "error"
    },
    {
      "inputs": [
        {
          "internalType": "address",
          "name": "controller",
          "type": "address"
        },
        {
          "internalType": "uint256",
          "name": "assets",
          "type": "uint256"
        },
        {
          "internalType": "uint256",
          "name": "maxDeposit",
          "type": "uint256"
        }
      ],
      "name": "MaxDepositRequestExceeded",
      "type": "error"
    },
    {
      "inputs": [
        {
          "internalType": "address",
          "name": "controller",
          "type": "address"
        },
        {
          "internalType": "uint256",
          "name": "shares",
          "type": "uint256"
        },
        {
          "internalType": "uint256",
          "name": "maxShares",
          "type": "uint256"
        }
      ],
      "name": "MaxRedeemRequestExceeded",
      "type": "error"
    },
    {
      "inputs": [],
      "name": "MaxRewardTokensAmount",
      "type": "error"
    },
    {
      "inputs": [
        {
          "internalType": "address",
          "name": "owner",
          "type": "address"
        }
      ],
      "name": "OwnableInvalidOwner",
      "type": "error"
    },
    {
      "inputs": [
        {
          "internalType": "address",
          "name": "account",
          "type": "address"
        }
      ],
      "name": "OwnableUnauthorizedAccount",
      "type": "error"
    },
    {
      "inputs": [],
      "name": "ReentrancyGuardReentrantCall",
      "type": "error"
    },
    {
      "inputs": [
        {
          "internalType": "address",
          "name": "token",
          "type": "address"
        }
      ],
      "name": "SafeERC20FailedOperation",
      "type": "error"
    },
    {
      "anonymous": false,
      "inputs": [
        {
          "indexed": true,
          "internalType": "address",
          "name": "owner",
          "type": "address"
        },
        {
          "indexed": true,
          "internalType": "address",
          "name": "spender",
          "type": "address"
        },
        {
          "indexed": false,
          "internalType": "uint256",
          "name": "amount",
          "type": "uint256"
        }
      ],
      "name": "Approval",
      "type": "event"
    },
    {
      "anonymous": false,
      "inputs": [
        {
          "indexed": true,
          "internalType": "address",
          "name": "owner",
          "type": "address"
        },
        {
          "indexed": true,
          "internalType": "address",
          "name": "operator",
          "type": "address"
        },
        {
          "indexed": false,
          "internalType": "uint256",
          "name": "assets",
          "type": "uint256"
        },
        {
          "indexed": false,
          "internalType": "uint256",
          "name": "shares",
          "type": "uint256"
        }
      ],
      "name": "ClaimDeposit",
      "type": "event"
    },
    {
      "anonymous": false,
      "inputs": [
        {
          "indexed": true,
          "internalType": "address",
          "name": "owner",
          "type": "address"
        },
        {
          "indexed": true,
          "internalType": "address",
          "name": "operator",
          "type": "address"
        },
        {
          "indexed": false,
          "internalType": "uint256",
          "name": "assets",
          "type": "uint256"
        },
        {
          "indexed": false,
          "internalType": "uint256",
          "name": "shares",
          "type": "uint256"
        }
      ],
      "name": "ClaimRedeem",
      "type": "event"
    },
    {
      "anonymous": false,
      "inputs": [
        {
          "indexed": true,
          "internalType": "address",
          "name": "createdToken",
          "type": "address"
        }
      ],
      "name": "CreatedToken",
      "type": "event"
    },
    {
      "anonymous": false,
      "inputs": [
        {
          "indexed": true,
          "internalType": "address",
          "name": "owner",
          "type": "address"
        },
        {
          "indexed": true,
          "internalType": "uint256",
          "name": "previousRequestedAssets",
          "type": "uint256"
        },
        {
          "indexed": false,
          "internalType": "uint256",
          "name": "newRequestedAssets",
          "type": "uint256"
        }
      ],
      "name": "DecreaseDepositRequest",
      "type": "event"
    },
    {
      "anonymous": false,
      "inputs": [
        {
          "indexed": true,
          "internalType": "address",
          "name": "controller",
          "type": "address"
        },
        {
          "indexed": true,
          "internalType": "address",
          "name": "owner",
          "type": "address"
        },
        {
          "indexed": false,
          "internalType": "address",
          "name": "sender",
          "type": "address"
        },
        {
          "indexed": false,
          "internalType": "uint256",
          "name": "assets",
          "type": "uint256"
        }
      ],
      "name": "DepositRequested",
      "type": "event"
    },
    {
      "anonymous": false,
      "inputs": [
        {
          "components": [
            {
              "internalType": "address",
              "name": "receiver",
              "type": "address"
            },
            {
              "internalType": "address",
              "name": "token",
              "type": "address"
            },
            {
              "internalType": "uint256",
              "name": "feePercentage",
              "type": "uint256"
            }
          ],
          "indexed": false,
          "internalType": "struct FeeConfiguration.FeeConfig",
          "name": "feeConfig",
          "type": "tuple"
        }
      ],
      "name": "FeeConfigUpdated",
      "type": "event"
    },
    {
      "anonymous": false,
      "inputs": [
        {
          "indexed": true,
          "internalType": "address",
          "name": "previousOwner",
          "type": "address"
        },
        {
          "indexed": true,
          "internalType": "address",
          "name": "newOwner",
          "type": "address"
        }
      ],
      "name": "OwnershipTransferred",
      "type": "event"
    },
    {
      "anonymous": false,
      "inputs": [
        {
          "indexed": true,
          "internalType": "address",
          "name": "controller",
          "type": "address"
        },
        {
          "indexed": true,
          "internalType": "address",
          "name": "owner",
          "type": "address"
        },
        {
          "indexed": false,
          "internalType": "address",
          "name": "sender",
          "type": "address"
        },
        {
          "indexed": false,
          "internalType": "uint256",
          "name": "shares",
          "type": "uint256"
        }
      ],
      "name": "RedeemRequested",
      "type": "event"
    },
    {
      "anonymous": false,
      "inputs": [
        {
          "indexed": true,
          "internalType": "address",
          "name": "rewardToken",
          "type": "address"
        },
        {
          "indexed": false,
          "internalType": "uint256",
          "name": "amount",
          "type": "uint256"
        }
      ],
      "name": "RewardAdded",
      "type": "event"
    },
    {
      "anonymous": false,
      "inputs": [
        {
          "indexed": true,
          "internalType": "bytes32",
          "name": "role",
          "type": "bytes32"
        },
        {
          "indexed": true,
          "internalType": "bytes32",
          "name": "previousAdminRole",
          "type": "bytes32"
        },
        {
          "indexed": true,
          "internalType": "bytes32",
          "name": "newAdminRole",
          "type": "bytes32"
        }
      ],
      "name": "RoleAdminChanged",
      "type": "event"
    },
    {
      "anonymous": false,
      "inputs": [
        {
          "indexed": true,
          "internalType": "bytes32",
          "name": "role",
          "type": "bytes32"
        },
        {
          "indexed": true,
          "internalType": "address",
          "name": "account",
          "type": "address"
        },
        {
          "indexed": true,
          "internalType": "address",
          "name": "sender",
          "type": "address"
        }
      ],
      "name": "RoleGranted",
      "type": "event"
    },
    {
      "anonymous": false,
      "inputs": [
        {
          "indexed": true,
          "internalType": "bytes32",
          "name": "role",
          "type": "bytes32"
        },
        {
          "indexed": true,
          "internalType": "address",
          "name": "account",
          "type": "address"
        },
        {
          "indexed": true,
          "internalType": "address",
          "name": "sender",
          "type": "address"
        }
      ],
      "name": "RoleRevoked",
      "type": "event"
    },
    {
      "anonymous": false,
      "inputs": [
        {
          "indexed": true,
          "internalType": "address",
          "name": "from",
          "type": "address"
        },
        {
          "indexed": true,
          "internalType": "address",
          "name": "to",
          "type": "address"
        },
        {
          "indexed": false,
          "internalType": "uint256",
          "name": "amount",
          "type": "uint256"
        }
      ],
      "name": "Transfer",
      "type": "event"
    },
    {
      "inputs": [],
      "name": "DEFAULT_ADMIN_ROLE",
      "outputs": [
        {
          "internalType": "bytes32",
          "name": "",
          "type": "bytes32"
        }
      ],
      "stateMutability": "view",
      "type": "function"
    },
    {
      "inputs": [],
      "name": "DOMAIN_SEPARATOR",
      "outputs": [
        {
          "internalType": "bytes32",
          "name": "",
          "type": "bytes32"
        }
      ],
      "stateMutability": "view",
      "type": "function"
    },
    {
      "inputs": [],
      "name": "FEE_CONFIG_CONTROLLER_ROLE",
      "outputs": [
        {
          "internalType": "bytes32",
          "name": "",
          "type": "bytes32"
        }
      ],
      "stateMutability": "view",
      "type": "function"
    },
    {
      "inputs": [],
      "name": "VAULT_REWARD_CONTROLLER_ROLE",
      "outputs": [
        {
          "internalType": "bytes32",
          "name": "",
          "type": "bytes32"
        }
      ],
      "stateMutability": "view",
      "type": "function"
    },
    {
      "inputs": [
        {
          "internalType": "address",
          "name": "_token",
          "type": "address"
        },
        {
          "internalType": "uint256",
          "name": "_amount",
          "type": "uint256"
        }
      ],
      "name": "addReward",
      "outputs": [],
      "stateMutability": "payable",
      "type": "function"
    },
    {
      "inputs": [
        {
          "internalType": "address",
          "name": "",
          "type": "address"
        },
        {
          "internalType": "address",
          "name": "",
          "type": "address"
        }
      ],
      "name": "allowance",
      "outputs": [
        {
          "internalType": "uint256",
          "name": "",
          "type": "uint256"
        }
      ],
      "stateMutability": "view",
      "type": "function"
    },
    {
      "inputs": [
        {
          "internalType": "address",
          "name": "spender",
          "type": "address"
        },
        {
          "internalType": "uint256",
          "name": "amount",
          "type": "uint256"
        }
      ],
      "name": "approve",
      "outputs": [
        {
          "internalType": "bool",
          "name": "",
          "type": "bool"
        }
      ],
      "stateMutability": "nonpayable",
      "type": "function"
    },
    {
      "inputs": [],
      "name": "asset",
      "outputs": [
        {
          "internalType": "address",
          "name": "",
          "type": "address"
        }
      ],
      "stateMutability": "view",
      "type": "function"
    },
    {
      "inputs": [],
      "name": "assetTotalSupply",
      "outputs": [
        {
          "internalType": "uint256",
          "name": "",
          "type": "uint256"
        }
      ],
      "stateMutability": "view",
      "type": "function"
    },
    {
      "inputs": [
        {
          "internalType": "address",
          "name": "",
          "type": "address"
        }
      ],
      "name": "balanceOf",
      "outputs": [
        {
          "internalType": "uint256",
          "name": "",
          "type": "uint256"
        }
      ],
      "stateMutability": "view",
      "type": "function"
    },
    {
      "inputs": [
        {
          "internalType": "uint256",
          "name": "_startPosition",
          "type": "uint256"
        }
      ],
      "name": "claimAllReward",
      "outputs": [
        {
          "internalType": "uint256",
          "name": "",
          "type": "uint256"
        },
        {
          "internalType": "uint256",
          "name": "",
          "type": "uint256"
        }
      ],
      "stateMutability": "payable",
      "type": "function"
    },
    {
      "inputs": [
        {
          "internalType": "address",
          "name": "receiver",
          "type": "address"
        }
      ],
      "name": "claimDeposit",
      "outputs": [
        {
          "internalType": "uint256",
          "name": "shares",
          "type": "uint256"
        }
      ],
      "stateMutability": "nonpayable",
      "type": "function"
    },
    {
      "inputs": [
        {
          "internalType": "address",
          "name": "receiver",
          "type": "address"
        }
      ],
      "name": "claimRedeem",
      "outputs": [
        {
          "internalType": "uint256",
          "name": "assets",
          "type": "uint256"
        }
      ],
      "stateMutability": "nonpayable",
      "type": "function"
    },
    {
      "inputs": [],
      "name": "decimals",
      "outputs": [
        {
          "internalType": "uint8",
          "name": "",
          "type": "uint8"
        }
      ],
      "stateMutability": "view",
      "type": "function"
    },
    {
      "inputs": [
        {
          "internalType": "uint256",
          "name": "assets",
          "type": "uint256"
        }
      ],
      "name": "decreaseDepositRequest",
      "outputs": [],
      "stateMutability": "nonpayable",
      "type": "function"
    },
    {
      "inputs": [
        {
          "internalType": "address",
          "name": "",
          "type": "address"
        }
      ],
      "name": "deposits",
      "outputs": [
        {
          "internalType": "uint256",
          "name": "",
          "type": "uint256"
        }
      ],
      "stateMutability": "view",
      "type": "function"
    },
    {
      "inputs": [],
      "name": "feeConfig",
      "outputs": [
        {
          "internalType": "address",
          "name": "receiver",
          "type": "address"
        },
        {
          "internalType": "address",
          "name": "token",
          "type": "address"
        },
        {
          "internalType": "uint256",
          "name": "feePercentage",
          "type": "uint256"
        }
      ],
      "stateMutability": "view",
      "type": "function"
    },
    {
      "inputs": [
        {
          "internalType": "address",
          "name": "_user",
          "type": "address"
        }
      ],
      "name": "getAllRewards",
      "outputs": [
        {
          "internalType": "uint256[]",
          "name": "_rewards",
          "type": "uint256[]"
        }
      ],
      "stateMutability": "view",
      "type": "function"
    },
    {
      "inputs": [],
      "name": "getRewardTokens",
      "outputs": [
        {
          "internalType": "address[]",
          "name": "",
          "type": "address[]"
        }
      ],
      "stateMutability": "view",
      "type": "function"
    },
    {
      "inputs": [
        {
          "internalType": "bytes32",
          "name": "role",
          "type": "bytes32"
        }
      ],
      "name": "getRoleAdmin",
      "outputs": [
        {
          "internalType": "bytes32",
          "name": "",
          "type": "bytes32"
        }
      ],
      "stateMutability": "view",
      "type": "function"
    },
    {
      "inputs": [
        {
          "internalType": "address",
          "name": "_user",
          "type": "address"
        },
        {
          "internalType": "address",
          "name": "_rewardToken",
          "type": "address"
        }
      ],
      "name": "getUserReward",
      "outputs": [
        {
          "internalType": "uint256",
          "name": "unclaimedAmount",
          "type": "uint256"
        }
      ],
      "stateMutability": "view",
      "type": "function"
    },
    {
      "inputs": [
        {
          "internalType": "bytes32",
          "name": "role",
          "type": "bytes32"
        },
        {
          "internalType": "address",
          "name": "account",
          "type": "address"
        }
      ],
      "name": "grantRole",
      "outputs": [],
      "stateMutability": "nonpayable",
      "type": "function"
    },
    {
      "inputs": [
        {
          "internalType": "bytes32",
          "name": "role",
          "type": "bytes32"
        },
        {
          "internalType": "address",
          "name": "account",
          "type": "address"
        }
      ],
      "name": "hasRole",
      "outputs": [
        {
          "internalType": "bool",
          "name": "",
          "type": "bool"
        }
      ],
      "stateMutability": "view",
      "type": "function"
    },
    {
      "inputs": [
        {
          "internalType": "address",
          "name": "",
          "type": "address"
        }
      ],
      "name": "maxDepositRequest",
      "outputs": [
        {
          "internalType": "uint256",
          "name": "",
          "type": "uint256"
        }
      ],
      "stateMutability": "pure",
      "type": "function"
    },
    {
      "inputs": [
        {
          "internalType": "address",
          "name": "owner",
          "type": "address"
        }
      ],
      "name": "maxRedeemRequest",
      "outputs": [
        {
          "internalType": "uint256",
          "name": "",
          "type": "uint256"
        }
      ],
      "stateMutability": "view",
      "type": "function"
    },
    {
      "inputs": [],
      "name": "name",
      "outputs": [
        {
          "internalType": "string",
          "name": "",
          "type": "string"
        }
      ],
      "stateMutability": "view",
      "type": "function"
    },
    {
      "inputs": [
        {
          "internalType": "address",
          "name": "",
          "type": "address"
        }
      ],
      "name": "nonces",
      "outputs": [
        {
          "internalType": "uint256",
          "name": "",
          "type": "uint256"
        }
      ],
      "stateMutability": "view",
      "type": "function"
    },
    {
      "inputs": [],
      "name": "owner",
      "outputs": [
        {
          "internalType": "address",
          "name": "",
          "type": "address"
        }
      ],
      "stateMutability": "view",
      "type": "function"
    },
    {
      "inputs": [
        {
          "internalType": "address",
          "name": "owner",
          "type": "address"
        }
      ],
      "name": "pendingDepositRequest",
      "outputs": [
        {
          "internalType": "uint256",
          "name": "assets",
          "type": "uint256"
        }
      ],
      "stateMutability": "view",
      "type": "function"
    },
    {
      "inputs": [
        {
          "internalType": "address",
          "name": "owner",
          "type": "address"
        }
      ],
      "name": "pendingRedeemRequest",
      "outputs": [
        {
          "internalType": "uint256",
          "name": "shares",
          "type": "uint256"
        }
      ],
      "stateMutability": "view",
      "type": "function"
    },
    {
      "inputs": [
        {
          "internalType": "address",
          "name": "owner",
          "type": "address"
        },
        {
          "internalType": "address",
          "name": "spender",
          "type": "address"
        },
        {
          "internalType": "uint256",
          "name": "value",
          "type": "uint256"
        },
        {
          "internalType": "uint256",
          "name": "deadline",
          "type": "uint256"
        },
        {
          "internalType": "uint8",
          "name": "v",
          "type": "uint8"
        },
        {
          "internalType": "bytes32",
          "name": "r",
          "type": "bytes32"
        },
        {
          "internalType": "bytes32",
          "name": "s",
          "type": "bytes32"
        }
      ],
      "name": "permit",
      "outputs": [],
      "stateMutability": "nonpayable",
      "type": "function"
    },
    {
      "inputs": [
        {
          "internalType": "address",
          "name": "_owner",
          "type": "address"
        }
      ],
      "name": "previewClaimDeposit",
      "outputs": [
        {
          "internalType": "uint256",
          "name": "",
          "type": "uint256"
        }
      ],
      "stateMutability": "view",
      "type": "function"
    },
    {
      "inputs": [
        {
          "internalType": "address",
          "name": "owner",
          "type": "address"
        }
      ],
      "name": "previewClaimRedeem",
      "outputs": [
        {
          "internalType": "uint256",
          "name": "",
          "type": "uint256"
        }
      ],
      "stateMutability": "view",
      "type": "function"
    },
    {
      "inputs": [
        {
          "internalType": "address",
          "name": "",
          "type": "address"
        }
      ],
      "name": "redeems",
      "outputs": [
        {
          "internalType": "uint256",
          "name": "",
          "type": "uint256"
        }
      ],
      "stateMutability": "view",
      "type": "function"
    },
    {
      "inputs": [],
      "name": "renounceOwnership",
      "outputs": [],
      "stateMutability": "nonpayable",
      "type": "function"
    },
    {
      "inputs": [
        {
          "internalType": "bytes32",
          "name": "role",
          "type": "bytes32"
        },
        {
          "internalType": "address",
          "name": "callerConfirmation",
          "type": "address"
        }
      ],
      "name": "renounceRole",
      "outputs": [],
      "stateMutability": "nonpayable",
      "type": "function"
    },
    {
      "inputs": [
        {
          "internalType": "uint256",
          "name": "assets",
          "type": "uint256"
        },
        {
          "internalType": "address",
          "name": "operator",
          "type": "address"
        },
        {
          "internalType": "address",
          "name": "owner",
          "type": "address"
        }
      ],
      "name": "requestDeposit",
      "outputs": [],
      "stateMutability": "nonpayable",
      "type": "function"
    },
    {
      "inputs": [
        {
          "internalType": "uint256",
          "name": "shares",
          "type": "uint256"
        },
        {
          "internalType": "address",
          "name": "operator",
          "type": "address"
        },
        {
          "internalType": "address",
          "name": "owner",
          "type": "address"
        }
      ],
      "name": "requestRedeem",
      "outputs": [],
      "stateMutability": "nonpayable",
      "type": "function"
    },
    {
      "inputs": [
        {
          "internalType": "bytes32",
          "name": "role",
          "type": "bytes32"
        },
        {
          "internalType": "address",
          "name": "account",
          "type": "address"
        }
      ],
      "name": "revokeRole",
      "outputs": [],
      "stateMutability": "nonpayable",
      "type": "function"
    },
    {
      "inputs": [
        {
          "internalType": "uint256",
          "name": "",
          "type": "uint256"
        }
      ],
      "name": "rewardTokens",
      "outputs": [
        {
          "internalType": "address",
          "name": "",
          "type": "address"
        }
      ],
      "stateMutability": "view",
      "type": "function"
    },
    {
      "inputs": [],
      "name": "share",
      "outputs": [
        {
          "internalType": "address",
          "name": "",
          "type": "address"
        }
      ],
      "stateMutability": "view",
      "type": "function"
    },
    {
      "inputs": [
        {
          "internalType": "bytes4",
          "name": "interfaceId",
          "type": "bytes4"
        }
      ],
      "name": "supportsInterface",
      "outputs": [
        {
          "internalType": "bool",
          "name": "",
          "type": "bool"
        }
      ],
      "stateMutability": "view",
      "type": "function"
    },
    {
      "inputs": [],
      "name": "symbol",
      "outputs": [
        {
          "internalType": "string",
          "name": "",
          "type": "string"
        }
      ],
      "stateMutability": "view",
      "type": "function"
    },
    {
      "inputs": [
        {
          "internalType": "address",
          "name": "",
          "type": "address"
        }
      ],
      "name": "tokensRewardInfo",
      "outputs": [
        {
          "internalType": "uint256",
          "name": "amount",
          "type": "uint256"
        },
        {
          "internalType": "bool",
          "name": "exist",
          "type": "bool"
        }
      ],
      "stateMutability": "view",
      "type": "function"
    },
    {
      "inputs": [],
      "name": "totalAssets",
      "outputs": [
        {
          "internalType": "uint256",
          "name": "",
          "type": "uint256"
        }
      ],
      "stateMutability": "view",
      "type": "function"
    },
    {
      "inputs": [],
      "name": "totalSupply",
      "outputs": [
        {
          "internalType": "uint256",
          "name": "",
          "type": "uint256"
        }
      ],
      "stateMutability": "view",
      "type": "function"
    },
    {
      "inputs": [
        {
          "internalType": "address",
          "name": "to",
          "type": "address"
        },
        {
          "internalType": "uint256",
          "name": "amount",
          "type": "uint256"
        }
      ],
      "name": "transfer",
      "outputs": [
        {
          "internalType": "bool",
          "name": "",
          "type": "bool"
        }
      ],
      "stateMutability": "nonpayable",
      "type": "function"
    },
    {
      "inputs": [
        {
          "internalType": "address",
          "name": "from",
          "type": "address"
        },
        {
          "internalType": "address",
          "name": "to",
          "type": "address"
        },
        {
          "internalType": "uint256",
          "name": "amount",
          "type": "uint256"
        }
      ],
      "name": "transferFrom",
      "outputs": [
        {
          "internalType": "bool",
          "name": "",
          "type": "bool"
        }
      ],
      "stateMutability": "nonpayable",
      "type": "function"
    },
    {
      "inputs": [
        {
          "internalType": "address",
          "name": "newOwner",
          "type": "address"
        }
      ],
      "name": "transferOwnership",
      "outputs": [],
      "stateMutability": "nonpayable",
      "type": "function"
    },
    {
      "inputs": [
        {
          "components": [
            {
              "internalType": "address",
              "name": "receiver",
              "type": "address"
            },
            {
              "internalType": "address",
              "name": "token",
              "type": "address"
            },
            {
              "internalType": "uint256",
              "name": "feePercentage",
              "type": "uint256"
            }
          ],
          "internalType": "struct FeeConfiguration.FeeConfig",
          "name": "_feeConfig",
          "type": "tuple"
        }
      ],
      "name": "updateFeeConfig",
      "outputs": [],
      "stateMutability": "nonpayable",
      "type": "function"
    },
    {
      "inputs": [
        {
          "internalType": "address",
          "name": "",
          "type": "address"
        }
      ],
      "name": "userContribution",
      "outputs": [
        {
          "internalType": "uint256",
          "name": "sharesAmount",
          "type": "uint256"
        },
        {
          "internalType": "bool",
          "name": "exist",
          "type": "bool"
        }
      ],
      "stateMutability": "view",
      "type": "function"
    }
  ],
  "bytecode": "0x610100604052604051620036be380380620036be833981016040819052620000279162000543565b338585886001600160a01b031663313ce5676040518163ffffffff1660e01b8152600401602060405180830381865afa15801562000069573d6000803e3d6000fd5b505050506040513d601f19601f820116820180604052508101906200008f91906200063c565b60006200009d8482620006f9565b506001620000ac8382620006f9565b5060ff81166080524660a052620000c262000130565b60c05250506001600a55506001600160a01b038116620000fd57604051631e4fbdf760e01b8152600060048201526024015b60405180910390fd5b6200010881620001cc565b50620001168383836200021e565b5050506001600160a01b0390921660e05250620008439050565b60007f8b73c3c69bb8fe3d512ecc4cf759cc79239f7b179b0ffacaa9a75d522b39400f6000604051620001649190620007c5565b6040805191829003822060208301939093528101919091527fc89efdaa54c0f20c7adf612882df0950f5a951637e0307cdcb4c672f298b8bc660608201524660808201523060a082015260c00160405160208183030381529060405280519060200120905090565b600b80546001600160a01b038381166001600160a01b0319831681179093556040519116919082907f8be0079c531659141344cd1fd0a4f28419497f9722a3daafe3b4186f6b6457e090600090a35050565b82516020840151604085015162000237929190620002a4565b6200024460003362000364565b50620002717f477fc23fb51bb5d5aa814872a393b0e4f35d0916c7503c0fd96584681070d4108362000364565b506200029e7f74e458455daa935f28c556b43e0cc4ad001a8a090f5feee376681e97d4618f468262000364565b50505050565b6127108110620002e95760405162461bcd60e51b815260206004820152600f60248201526e46433a20496e76616c69642066656560881b6044820152606401620000f4565b600780546001600160a01b038581166001600160a01b0319928316811790935560088054918616919092168117909155600983905560408051928352602083019190915281018290527febd34b2df88ea5c9f67c04b13b08e5e63c2d17e269aab73b866fe47a8736a2649060600160405180910390a1505050565b60008281526006602090815260408083206001600160a01b038516845290915281205460ff166200040d5760008381526006602090815260408083206001600160a01b03861684529091529020805460ff19166001179055620003c43390565b6001600160a01b0316826001600160a01b0316847f2f8788117e7eff1d82e926ec794901d17c78024a50270940304540a733656f0d60405160405180910390a450600162000411565b5060005b92915050565b6001600160a01b03811681146200042d57600080fd5b50565b634e487b7160e01b600052604160045260246000fd5b604051606081016001600160401b03811182821017156200046b576200046b62000430565b60405290565b604051601f8201601f191681016001600160401b03811182821017156200049c576200049c62000430565b604052919050565b600082601f830112620004b657600080fd5b81516001600160401b03811115620004d257620004d262000430565b6020620004e8601f8301601f1916820162000471565b8281528582848701011115620004fd57600080fd5b60005b838110156200051d57858101830151828201840152820162000500565b506000928101909101919091529392505050565b80516200053e8162000417565b919050565b6000806000806000808688036101008112156200055f57600080fd5b87516200056c8162000417565b60208901519097506001600160401b03808211156200058a57600080fd5b620005988b838c01620004a4565b975060408a0151915080821115620005af57600080fd5b50620005be8a828b01620004a4565b9550506060605f1982011215620005d457600080fd5b50620005df62000446565b6060880151620005ef8162000417565b81526080880151620006018162000417565b602082015260a0880151604082015292506200062060c0880162000531565b91506200063060e0880162000531565b90509295509295509295565b6000602082840312156200064f57600080fd5b815160ff811681146200066157600080fd5b9392505050565b600181811c908216806200067d57607f821691505b6020821081036200069e57634e487b7160e01b600052602260045260246000fd5b50919050565b601f821115620006f4576000816000526020600020601f850160051c81016020861015620006cf5750805b601f850160051c820191505b81811015620006f057828155600101620006db565b5050505b505050565b81516001600160401b0381111562000715576200071562000430565b6200072d8162000726845462000668565b84620006a4565b602080601f8311600181146200076557600084156200074c5750858301515b600019600386901b1c1916600185901b178555620006f0565b600085815260208120601f198616915b82811015620007965788860151825594840194600190910190840162000775565b5085821015620007b55787850151600019600388901b60f8161c191681555b5050505050600190811b01905550565b6000808354620007d58162000668565b60018281168015620007f05760018114620008065762000837565b60ff198416875282151583028701945062000837565b8760005260208060002060005b858110156200082e5781548a82015290840190820162000813565b50505082870194505b50929695505050505050565b60805160a05160c05160e051612e1e620008a06000396000818161058201528181610a6f0152818161133e0152818161141a01528181611b490152611cd601526000610e4a01526000610e1a015260006104dd0152612e1e6000f3fe6080604052600436106102b45760003560e01c80637bb7bed111610170578063c3702989116100cc578063db6b207411610085578063db6b207414610950578063dd62ed3e14610970578063de56603c146109a8578063e842cb42146109c8578063efa6f425146109e8578063f2fde38b14610a08578063fc7e286d14610a2857600080fd5b8063c370298914610861578063c4f59f9b14610897578063cd9cdfda146108b9578063d3181f5a146108f0578063d505accf14610910578063d547741f1461093057600080fd5b806391d148541161012957806391d148541461079d57806395d89b41146107bd5780639feb8f50146107d2578063a217fddf146107e5578063a8d5fd65146107fa578063a9059cbb1461080d578063b4f6d6131461082d57600080fd5b80637bb7bed1146106dc5780637d41c86e146106fc5780637ecebe001461071c57806385b77f45146107495780638da5cb5b146107695780638f12c2f41461078757600080fd5b8063313ce5671161021f578063511ffbff116101d8578063511ffbff146105cf57806353dc1dd3146105fc57806353f22867146106325780635ab764ed1461065257806370a0823114610672578063715018a61461069f5780637a07bf3a146106b457600080fd5b8063313ce567146104cb578063362a3fad146105115780633644e5151461053e57806336568abe1461055357806338d52e0f1461057357806344b05fa2146105af57600080fd5b806316ad06721161027157806316ad0672146103a757806318160ddd146103f35780631e5eb1d01461040857806323b872dd14610459578063248a9ca3146104795780632f2ff15d146104a957600080fd5b806301e1d114146102b957806301ffc9a7146102e157806305fb2a511461031157806306fdde0314610345578063095ea7b3146103675780630c5cb57214610387575b600080fd5b3480156102c557600080fd5b506102ce610a55565b6040519081526020015b60405180910390f35b3480156102ed57600080fd5b506103016102fc3660046127eb565b610aea565b60405190151581526020016102d8565b34801561031d57600080fd5b506102ce7f74e458455daa935f28c556b43e0cc4ad001a8a090f5feee376681e97d4618f4681565b34801561035157600080fd5b5061035a610b21565b6040516102d89190612839565b34801561037357600080fd5b50610301610382366004612888565b610baf565b34801561039357600080fd5b506102ce6103a23660046128b2565b610c1b565b3480156103b357600080fd5b506103de6103c23660046128b2565b6010602052600090815260409020805460029091015460ff1682565b604080519283529015156020830152016102d8565b3480156103ff57600080fd5b506002546102ce565b34801561041457600080fd5b50600754600854600954610433926001600160a01b0390811692169083565b604080516001600160a01b039485168152939092166020840152908201526060016102d8565b34801561046557600080fd5b506103016104743660046128cd565b610c56565b34801561048557600080fd5b506102ce610494366004612909565b60009081526006602052604090206001015490565b3480156104b557600080fd5b506104c96104c4366004612922565b610d38565b005b3480156104d757600080fd5b506104ff7f000000000000000000000000000000000000000000000000000000000000000081565b60405160ff90911681526020016102d8565b34801561051d57600080fd5b5061053161052c3660046128b2565b610d63565b6040516102d8919061294e565b34801561054a57600080fd5b506102ce610e16565b34801561055f57600080fd5b506104c961056e366004612922565b610e6c565b34801561057f57600080fd5b507f00000000000000000000000000000000000000000000000000000000000000005b6040516102d89190612992565b3480156105bb57600080fd5b506102ce6105ca3660046128b2565b610ea4565b3480156105db57600080fd5b506102ce6105ea3660046128b2565b600f6020526000908152604090205481565b34801561060857600080fd5b506102ce6106173660046128b2565b6001600160a01b03166000908152600f602052604090205490565b34801561063e57600080fd5b506102ce61064d3660046128b2565b610ec6565b34801561065e57600080fd5b506102ce61066d3660046129a6565b610ecd565b34801561067e57600080fd5b506102ce61068d3660046128b2565b60036020526000908152604090205481565b3480156106ab57600080fd5b506104c9610fae565b6106c76106c2366004612909565b610fc2565b604080519283526020830191909152016102d8565b3480156106e857600080fd5b506105a26106f7366004612909565b6110fc565b34801561070857600080fd5b506104c96107173660046129d0565b611126565b34801561072857600080fd5b506102ce6107373660046128b2565b60056020526000908152604090205481565b34801561075557600080fd5b506104c96107643660046129d0565b61121d565b34801561077557600080fd5b50600b546001600160a01b03166105a2565b34801561079357600080fd5b506102ce600c5481565b3480156107a957600080fd5b506103016107b8366004612922565b611366565b3480156107c957600080fd5b5061035a611391565b6104c96107e0366004612888565b61139e565b3480156107f157600080fd5b506102ce600081565b34801561080657600080fd5b50306105a2565b34801561081957600080fd5b50610301610828366004612888565b6116f2565b34801561083957600080fd5b506102ce7f477fc23fb51bb5d5aa814872a393b0e4f35d0916c7503c0fd96584681070d41081565b34801561086d57600080fd5b506102ce61087c3660046128b2565b6001600160a01b03166000908152600e602052604090205490565b3480156108a357600080fd5b506108ac611758565b6040516102d89190612a0c565b3480156108c557600080fd5b506103de6108d43660046128b2565b6011602052600090815260409020805460019091015460ff1682565b3480156108fc57600080fd5b506102ce61090b3660046128b2565b6117ba565b34801561091c57600080fd5b506104c961092b366004612a4d565b6117dc565b34801561093c57600080fd5b506104c961094b366004612922565b611a1a565b34801561095c57600080fd5b506102ce61096b3660046128b2565b611a3f565b34801561097c57600080fd5b506102ce61098b3660046129a6565b600460209081526000928352604080842090915290825290205481565b3480156109b457600080fd5b506102ce6109c33660046128b2565b611a5a565b3480156109d457600080fd5b506104c96109e3366004612909565b611a8c565b3480156109f457600080fd5b506104c9610a03366004612ad6565b611bc1565b348015610a1457600080fd5b506104c9610a233660046128b2565b611c06565b348015610a3457600080fd5b506102ce610a433660046128b2565b600e6020526000908152604090205481565b6040516370a0823160e01b81526000906001600160a01b037f000000000000000000000000000000000000000000000000000000000000000016906370a0823190610aa4903090600401612992565b602060405180830381865afa158015610ac1573d6000803e3d6000fd5b505050506040513d601f19601f82011682018060405250810190610ae59190612b4c565b905090565b60006001600160e01b03198216637965db0b60e01b1480610b1b57506301ffc9a760e01b6001600160e01b03198316145b92915050565b60008054610b2e90612b65565b80601f0160208091040260200160405190810160405280929190818152602001828054610b5a90612b65565b8015610ba75780601f10610b7c57610100808354040283529160200191610ba7565b820191906000526020600020905b815481529060010190602001808311610b8a57829003601f168201915b505050505081565b3360008181526004602090815260408083206001600160a01b038716808552925280832085905551919290917f8c5be1e5ebec7d5bd14f71427d1e84f3dd0314c0f7b2291e5b200ac8c7c3b92590610c0a9086815260200190565b60405180910390a350600192915050565b60006001600160a01b038216610c4c5760405162461bcd60e51b8152600401610c4390612b9f565b60405180910390fd5b610b1b3383611c44565b6001600160a01b03831660009081526004602090815260408083203384529091528120546000198114610cb257610c8d8382612bf9565b6001600160a01b03861660009081526004602090815260408083203384529091529020555b6001600160a01b03851660009081526003602052604081208054859290610cda908490612bf9565b90915550506001600160a01b0380851660008181526003602052604090819020805487019055519091871690600080516020612dc983398151915290610d239087815260200190565b60405180910390a360019150505b9392505050565b600082815260066020526040902060010154610d5381611d5a565b610d5d8383611d64565b50505050565b600d546060908067ffffffffffffffff811115610d8257610d82612ac0565b604051908082528060200260200182016040528015610dab578160200160208202803683370190505b50915060005b81811015610e0f57610dea84600d8381548110610dd057610dd0612c0c565b6000918252602090912001546001600160a01b0316610ecd565b838281518110610dfc57610dfc612c0c565b6020908102919091010152600101610db1565b5050919050565b60007f00000000000000000000000000000000000000000000000000000000000000004614610e4757610ae5611df8565b507f000000000000000000000000000000000000000000000000000000000000000090565b6001600160a01b0381163314610e955760405163334bd91960e11b815260040160405180910390fd5b610e9f8282611e92565b505050565b6001600160a01b0381166000908152600e6020526040812054610b1b90611eff565b5060001990565b6001600160a01b03808216600081815260116020908152604080832080549588168452601083528184208054958552600181019093529083205492949093909285610f188286612bf9565b905082600003610f6a5760405162461bcd60e51b815260206004820152601c60248201527f4173796e635661756c743a204e6f207374616b656420746f6b656e73000000006044820152606401610c43565b610f7681600185611f2d565b60095490975015610fa2576000610f9288600760020154611f4b565b9050610f9e8189612bf9565b9750505b50505050505092915050565b610fb6611fcb565b610fc06000611ff8565b565b600d5460085460009182916001600160a01b031682808381036110325760405162461bcd60e51b815260206004820152602260248201527f4173796e635661756c743a204e6f2072657761726420746f6b656e73206578696044820152611cdd60f21b6064820152608401610c43565b865b848110156110ee57600d818154811061104f5761104f612c0c565b6000918252602090912001546001600160a01b031692506110703384610ecd565b6001600160a01b038085166000818152601160209081526040808320543384526010835281842094845260019094019091529020559092508416156110d2576110cd336110bc8461204a565b6001600160a01b0386169190612154565b6110e6565b6110e66001600160a01b0384163384612154565b600101611034565b509596929550919350505050565b600d818154811061110c57600080fd5b6000918252602090912001546001600160a01b0316905081565b826000036111765760405162461bcd60e51b815260206004820181905260248201527f4173796e635661756c743a20496e76616c696420736861726520616d6f756e746044820152606401610c43565b6001600160a01b0382161580159061119657506001600160a01b03811615155b6111b25760405162461bcd60e51b8152600401610c4390612c22565b6111bb81611a3f565b8311156111e95781836111cd83611a3f565b60405163f046f30360e01b8152600401610c4393929190612c63565b60006111f4826117ba565b1115611206576112048182611c44565b505b611212308281866121cc565b610e9f838383612256565b8260000361126d5760405162461bcd60e51b815260206004820181905260248201527f4173796e635661756c743a20496e76616c696420617373657420616d6f756e746044820152606401610c43565b6001600160a01b0382161580159061128d57506001600160a01b03811615155b6112a95760405162461bcd60e51b8152600401610c4390612c22565b336001600160a01b038216146112d2576040516303c4f5db60e01b815260040160405180910390fd5b60006112dd82610ea4565b11156112ef576112ed81826122d7565b505b6112f881610ec6565b83111561132657818361130a83610ec6565b6040516356f1421360e01b8152600401610c4393929190612c63565b611331838383612375565b610e9f6001600160a01b037f0000000000000000000000000000000000000000000000000000000000000000168230866121cc565b60009182526006602090815260408084206001600160a01b0393909316845291905290205460ff1690565b60018054610b2e90612b65565b7f477fc23fb51bb5d5aa814872a393b0e4f35d0916c7503c0fd96584681070d4106113c881611d5a565b816000036114185760405162461bcd60e51b815260206004820181905260248201527f4173796e635661756c743a20416d6f756e742063616e2774206265207a65726f6044820152606401610c43565b7f00000000000000000000000000000000000000000000000000000000000000006001600160a01b0316836001600160a01b03161415801561146357506001600160a01b0383163014155b6114cc5760405162461bcd60e51b815260206004820152603460248201527f4173796e635661756c743a2052657761726420616e64205374616b696e6720746044820152736f6b656e732063616e6e6f742062652073616d6560601b6064820152608401610c43565b6001600160a01b0383166115225760405162461bcd60e51b815260206004820181905260248201527f4173796e635661756c743a20496e76616c69642072657761726420746f6b656e6044820152606401610c43565b600c546000036115745760405162461bcd60e51b815260206004820152601f60248201527f4173796e635661756c743a204e6f20746f6b656e207374616b656420796574006044820152606401610c43565b600d54600a0361159757604051637561e0ab60e01b815260040160405180910390fd5b60006115cb6115a560025490565b6115b0906001612c84565b6115b8610a55565b6115c3906001612c84565b859190611f2d565b6001600160a01b038516600090815260116020526040902060018101549192509060ff1661166557600d8054600180820183556000929092527fd7b6990105719101dabeb77144f2a3385c8033acd3af97e9423a695e81ad1eb50180546001600160a01b0319166001600160a01b038816908117909155828201805460ff1916909217909155828255611660903330876121cc565b6116a8565b6001600160a01b0385166000908152601160205260408120805484929061168d908490612c84565b909155506116a890506001600160a01b0386163330876121cc565b846001600160a01b03167fac24935fd910bc682b5ccb1a07b718cadf8cf2f6d1404c4f3ddc3662dae40e29856040516116e391815260200190565b60405180910390a25050505050565b33600090815260036020526040812080548391908390611713908490612bf9565b90915550506001600160a01b03831660008181526003602052604090819020805485019055513390600080516020612dc983398151915290610c0a9086815260200190565b6060600d8054806020026020016040519081016040528092919081815260200182805480156117b057602002820191906000526020600020905b81546001600160a01b03168152600190910190602001808311611792575b5050505050905090565b6001600160a01b0381166000908152600f6020526040812054610b1b90612402565b428410156118265760405162461bcd60e51b815260206004820152601760248201527614115493525517d11150511312539157d1561412549151604a1b6044820152606401610c43565b60006001611832610e16565b6001600160a01b038a811660008181526005602090815260409182902080546001810190915582517f6e71edae12b1b97f4d1f60370fef10105fa2faae0126114a169c64845d6126c98184015280840194909452938d166060840152608083018c905260a083019390935260c08083018b90528151808403909101815260e08301909152805192019190912061190160f01b6101008301526101028201929092526101228101919091526101420160408051601f198184030181528282528051602091820120600084529083018083525260ff871690820152606081018590526080810184905260a0016020604051602081039080840390855afa15801561193e573d6000803e3d6000fd5b5050604051601f1901519150506001600160a01b038116158015906119745750876001600160a01b0316816001600160a01b0316145b6119b15760405162461bcd60e51b815260206004820152600e60248201526d24a72b20a624a22fa9a4a3a722a960911b6044820152606401610c43565b6001600160a01b0390811660009081526004602090815260408083208a8516808552908352928190208990555188815291928a16917f8c5be1e5ebec7d5bd14f71427d1e84f3dd0314c0f7b2291e5b200ac8c7c3b925910160405180910390a350505050505050565b600082815260066020526040902060010154611a3581611d5a565b610d5d8383611e92565b6001600160a01b031660009081526003602052604090205490565b60006001600160a01b038216611a825760405162461bcd60e51b8152600401610c4390612b9f565b610b1b33836122d7565b336000908152600e6020526040902054808211801590611aab57508115155b611b175760405162461bcd60e51b815260206004820152603760248201527f4173796e635661756c743a20496e76616c696420616d6f756e7420746f20646560448201527618dc99585cd9481c995c5d595cdd195908185b5bdd5b9d604a1b6064820152608401610c43565b336000908152600e602052604081208054849290611b36908490612bf9565b90915550611b7090506001600160a01b037f0000000000000000000000000000000000000000000000000000000000000000163384612154565b336000818152600e6020526040908190205490518392917f9f88fba26e4fc589b3520ec4695e8e53c4ab8e91fcdc72acf6db374ac7b129bc91611bb591815260200190565b60405180910390a35050565b7f74e458455daa935f28c556b43e0cc4ad001a8a090f5feee376681e97d4618f46611beb81611d5a565b611c02826000015183602001518460400151612428565b5050565b611c0e611fcb565b6001600160a01b038116611c38576000604051631e4fbdf760e01b8152600401610c439190612992565b611c4181611ff8565b50565b6001600160a01b0382166000908152600f6020526040812054611c66846117ba565b6001600160a01b0385166000908152600f602090815260408083208390556010909152812080549294508392909190611ca0908490612bf9565b9250508190555081600c6000828254611cb99190612bf9565b90915550611cc9905030826124e6565b611cfd6001600160a01b037f0000000000000000000000000000000000000000000000000000000000000000168584612154565b826001600160a01b0316846001600160a01b03167f30b8067c48be106578d6045aba0f65aadc34d168940f701c445a2541fb4bd8a28484604051611d4b929190918252602082015260400190565b60405180910390a35092915050565b611c418133612548565b6000611d708383611366565b611df05760008381526006602090815260408083206001600160a01b03861684529091529020805460ff19166001179055611da83390565b6001600160a01b0316826001600160a01b0316847f2f8788117e7eff1d82e926ec794901d17c78024a50270940304540a733656f0d60405160405180910390a4506001610b1b565b506000610b1b565b60007f8b73c3c69bb8fe3d512ecc4cf759cc79239f7b179b0ffacaa9a75d522b39400f6000604051611e2a9190612c97565b6040805191829003822060208301939093528101919091527fc89efdaa54c0f20c7adf612882df0950f5a951637e0307cdcb4c672f298b8bc660608201524660808201523060a082015260c00160405160208183030381529060405280519060200120905090565b6000611e9e8383611366565b15611df05760008381526006602090815260408083206001600160a01b0386168085529252808320805460ff1916905551339286917ff6391f5c32d9c69d2a47ea670b442974b53935d1edc7fd64eb21e047a839171b9190a4506001610b1b565b6000611f0a60025490565b15611f2957611f246001611f1c610a55565b849190611f2d565b610b1b565b5090565b6000826000190484118302158202611f4457600080fd5b5091020490565b6000612710611f5a8385612d38565b1015611fb45760405162461bcd60e51b8152602060048201526024808201527f46433a20546f6f20736d616c6c20616d6f756e7420746f20636f6e73696465726044820152632066656560e01b6064820152608401610c43565b612710611fc18385612d38565b610d319190612d4f565b600b546001600160a01b03163314610fc0573360405163118cdaa760e01b8152600401610c439190612992565b600b80546001600160a01b038381166001600160a01b0319831681179093556040519116919082907f8be0079c531659141344cd1fd0a4f28419497f9722a3daafe3b4186f6b6457e090600090a35050565b6008546009546000916001600160a01b031690829061206a908590611f4b565b905080826001600160a01b03166370a08231306040518263ffffffff1660e01b81526004016120999190612992565b602060405180830381865afa1580156120b6573d6000803e3d6000fd5b505050506040513d601f19601f820116820180604052508101906120da9190612b4c565b10156121285760405162461bcd60e51b815260206004820152601e60248201527f46433a20496e73756666696369656e7420746f6b656e2062616c616e636500006044820152606401610c43565b600754612142906001600160a01b03848116911683612573565b61214c8185612bf9565b949350505050565b600060405163a9059cbb60e01b8152836004820152826024820152602060006044836000895af13d15601f3d1160016000511416171691505080610d5d5760405162461bcd60e51b815260206004820152600f60248201526e1514905394d1915497d19052531151608a1b6044820152606401610c43565b60006040516323b872dd60e01b81528460048201528360248201528260448201526020600060648360008a5af13d15601f3d116001600051141617169150508061224f5760405162461bcd60e51b81526020600482015260146024820152731514905394d1915497d19493d357d1905253115160621b6044820152606401610c43565b5050505050565b6001600160a01b0381166000908152600f60205260408120805485929061227e908490612c84565b92505081905550806001600160a01b0316826001600160a01b03167f9d2f438fa9d25ba84aa5ca2b229d4ad0edad29fa7299e8f7dab10d9bc582391c33866040516122ca929190612d71565b60405180910390a3505050565b6001600160a01b0382166000908152600e60205260408120546122f984610ea4565b6001600160a01b0385166000908152600e6020526040812055915061231e83836125cb565b6123278261261d565b826001600160a01b0316846001600160a01b03167f97a83c0760e2cce8be754fa5c1eca3baac91df018bfbfdde7345be1652b01da68385604051611d4b929190918252602082015260400190565b6001600160a01b0381166000908152600e60205260408120805485929061239d908490612c84565b9250508190555082600c60008282546123b69190612c84565b92505081905550806001600160a01b0316826001600160a01b03167f21c9033b0fdf75a8e4138c4bd5aeae053eee01f1fbd47d59cde75ea492c156e333866040516122ca929190612d71565b6000610b1b61240f610a55565b61241a906001612c84565b600254611f1c906001612c84565b612710811061246b5760405162461bcd60e51b815260206004820152600f60248201526e46433a20496e76616c69642066656560881b6044820152606401610c43565b600780546001600160a01b038581166001600160a01b0319928316811790935560088054918616919092168117909155600983905560408051928352602083019190915281018290527febd34b2df88ea5c9f67c04b13b08e5e63c2d17e269aab73b866fe47a8736a2649060600160405180910390a1505050565b6001600160a01b0382166000908152600360205260408120805483929061250e908490612bf9565b90915550506002805482900390556040518181526000906001600160a01b03841690600080516020612dc983398151915290602001611bb5565b6125528282611366565b611c0257808260405163e2517d3f60e01b8152600401610c43929190612d71565b610e9f83846001600160a01b031663a9059cbb8585604051602401612599929190612d71565b604051602081830303815290604052915060e01b6020820180516001600160e01b038381831617835250505050612693565b80600260008282546125dd9190612c84565b90915550506001600160a01b038216600081815260036020908152604080832080548601905551848152600080516020612dc98339815191529101611bb5565b3360009081526010602052604090206002015460ff1661266057336000908152601060205260408120828155600201805460ff19166001179055610e9f90610fc2565b61266a6000610fc2565b5050336000908152601060205260408120805483929061268b908490612c84565b909155505050565b60006126a86001600160a01b038416836126ed565b905080516000141580156126cd5750808060200190518101906126cb9190612d8a565b155b15610e9f5782604051635274afe760e01b8152600401610c439190612992565b6060610d318383600084600080856001600160a01b031684866040516127139190612dac565b60006040518083038185875af1925050503d8060008114612750576040519150601f19603f3d011682016040523d82523d6000602084013e612755565b606091505b509150915061276586838361276f565b9695505050505050565b6060826127845761277f826127c2565b610d31565b815115801561279b57506001600160a01b0384163b155b156127bb5783604051639996b31560e01b8152600401610c439190612992565b5080610d31565b8051156127d25780518082602001fd5b604051630a12f52160e11b815260040160405180910390fd5b6000602082840312156127fd57600080fd5b81356001600160e01b031981168114610d3157600080fd5b60005b83811015612830578181015183820152602001612818565b50506000910152565b6020815260008251806020840152612858816040850160208701612815565b601f01601f19169190910160400192915050565b80356001600160a01b038116811461288357600080fd5b919050565b6000806040838503121561289b57600080fd5b6128a48361286c565b946020939093013593505050565b6000602082840312156128c457600080fd5b610d318261286c565b6000806000606084860312156128e257600080fd5b6128eb8461286c565b92506128f96020850161286c565b9150604084013590509250925092565b60006020828403121561291b57600080fd5b5035919050565b6000806040838503121561293557600080fd5b823591506129456020840161286c565b90509250929050565b6020808252825182820181905260009190848201906040850190845b818110156129865783518352928401929184019160010161296a565b50909695505050505050565b6001600160a01b0391909116815260200190565b600080604083850312156129b957600080fd5b6129c28361286c565b91506129456020840161286c565b6000806000606084860312156129e557600080fd5b833592506129f56020850161286c565b9150612a036040850161286c565b90509250925092565b6020808252825182820181905260009190848201906040850190845b818110156129865783516001600160a01b031683529284019291840191600101612a28565b600080600080600080600060e0888a031215612a6857600080fd5b612a718861286c565b9650612a7f6020890161286c565b95506040880135945060608801359350608088013560ff81168114612aa357600080fd5b9699959850939692959460a0840135945060c09093013592915050565b634e487b7160e01b600052604160045260246000fd5b600060608284031215612ae857600080fd5b6040516060810181811067ffffffffffffffff82111715612b1957634e487b7160e01b600052604160045260246000fd5b604052612b258361286c565b8152612b336020840161286c565b6020820152604083013560408201528091505092915050565b600060208284031215612b5e57600080fd5b5051919050565b600181811c90821680612b7957607f821691505b602082108103612b9957634e487b7160e01b600052602260045260246000fd5b50919050565b60208082526024908201527f4173796e635661756c743a20496e76616c6964207265636569766572206164646040820152637265737360e01b606082015260800190565b634e487b7160e01b600052601160045260246000fd5b81810381811115610b1b57610b1b612be3565b634e487b7160e01b600052603260045260246000fd5b60208082526021908201527f4173796e635661756c743a20496e76616c6964206f776e6572206164647265736040820152607360f81b606082015260800190565b6001600160a01b039390931683526020830191909152604082015260600190565b80820180821115610b1b57610b1b612be3565b60008083548160018260011c91506001831680612cb557607f831692505b60208084108203612cd457634e487b7160e01b86526022600452602486fd5b818015612ce85760018114612cfd57612d2a565b60ff1986168952841515850289019650612d2a565b60008a81526020902060005b86811015612d225781548b820152908501908301612d09565b505084890196505b509498975050505050505050565b8082028115828204841417610b1b57610b1b612be3565b600082612d6c57634e487b7160e01b600052601260045260246000fd5b500490565b6001600160a01b03929092168252602082015260400190565b600060208284031215612d9c57600080fd5b81518015158114610d3157600080fd5b60008251612dbe818460208701612815565b919091019291505056feddf252ad1be2c89b69c2b068fc378daa952ba7f163c4a11628f55a4df523b3efa264697066735822122045b059acff84d49cdb402395182181ec66ce0028ec7c26fc6d2172eac003062c64736f6c63430008180033",
  "linkReferences": {},
  "deployedLinkReferences": {}
}