{
  "_format": "hh-sol-artifact-1",
  "contractName": "AuditRegistry",
  "sourceName": "contracts/audit/AuditRegistry.sol",
  "abi": [
    {
      "inputs": [],
      "stateMutability": "nonpayable",
      "type": "constructor"
    },
    {
      "inputs": [],
      "name": "AccessControlBadConfirmation",
      "type": "error"
    },
    {
      "inputs": [
        {
          "internalType": "address",
          "name": "account",
          "type": "address"
        },
        {
          "internalType": "bytes32",
          "name": "neededRole",
          "type": "bytes32"
        }
      ],
      "name": "AccessControlUnauthorizedAccount",
      "type": "error"
    },
    {
      "anonymous": false,
      "inputs": [
        {
          "indexed": true,
          "internalType": "uint256",
          "name": "recordId",
          "type": "uint256"
        },
        {
          "indexed": true,
          "internalType": "address",
          "name": "building",
          "type": "address"
        },
        {
          "indexed": true,
          "internalType": "address",
          "name": "auditor",
          "type": "address"
        },
        {
          "indexed": false,
          "internalType": "string",
          "name": "ipfsHash",
          "type": "string"
        },
        {
          "indexed": false,
          "internalType": "uint256",
          "name": "timestamp",
          "type": "uint256"
        }
      ],
      "name": "AuditRecordAdded",
      "type": "event"
    },
    {
      "anonymous": false,
      "inputs": [
        {
          "indexed": true,
          "internalType": "uint256",
          "name": "recordId",
          "type": "uint256"
        },
        {
          "indexed": false,
          "internalType": "uint256",
          "name": "timestamp",
          "type": "uint256"
        }
      ],
      "name": "AuditRecordRevoked",
      "type": "event"
    },
    {
      "anonymous": false,
      "inputs": [
        {
          "indexed": true,
          "internalType": "uint256",
          "name": "recordId",
          "type": "uint256"
        },
        {
          "indexed": false,
          "internalType": "string",
          "name": "newIpfsHash",
          "type": "string"
        },
        {
          "indexed": false,
          "internalType": "uint256",
          "name": "timestamp",
          "type": "uint256"
        }
      ],
      "name": "AuditRecordUpdated",
      "type": "event"
    },
    {
      "anonymous": false,
      "inputs": [
        {
          "indexed": true,
          "internalType": "address",
          "name": "auditor",
          "type": "address"
        }
      ],
      "name": "AuditorAdded",
      "type": "event"
    },
    {
      "anonymous": false,
      "inputs": [
        {
          "indexed": true,
          "internalType": "address",
          "name": "auditor",
          "type": "address"
        }
      ],
      "name": "AuditorRemoved",
      "type": "event"
    },
    {
      "anonymous": false,
      "inputs": [
        {
          "indexed": true,
          "internalType": "bytes32",
          "name": "role",
          "type": "bytes32"
        },
        {
          "indexed": true,
          "internalType": "bytes32",
          "name": "previousAdminRole",
          "type": "bytes32"
        },
        {
          "indexed": true,
          "internalType": "bytes32",
          "name": "newAdminRole",
          "type": "bytes32"
        }
      ],
      "name": "RoleAdminChanged",
      "type": "event"
    },
    {
      "anonymous": false,
      "inputs": [
        {
          "indexed": true,
          "internalType": "bytes32",
          "name": "role",
          "type": "bytes32"
        },
        {
          "indexed": true,
          "internalType": "address",
          "name": "account",
          "type": "address"
        },
        {
          "indexed": true,
          "internalType": "address",
          "name": "sender",
          "type": "address"
        }
      ],
      "name": "RoleGranted",
      "type": "event"
    },
    {
      "anonymous": false,
      "inputs": [
        {
          "indexed": true,
          "internalType": "bytes32",
          "name": "role",
          "type": "bytes32"
        },
        {
          "indexed": true,
          "internalType": "address",
          "name": "account",
          "type": "address"
        },
        {
          "indexed": true,
          "internalType": "address",
          "name": "sender",
          "type": "address"
        }
      ],
      "name": "RoleRevoked",
      "type": "event"
    },
    {
      "inputs": [],
      "name": "AUDITOR_ROLE",
      "outputs": [
        {
          "internalType": "bytes32",
          "name": "",
          "type": "bytes32"
        }
      ],
      "stateMutability": "view",
      "type": "function"
    },
    {
      "inputs": [],
      "name": "DEFAULT_ADMIN_ROLE",
      "outputs": [
        {
          "internalType": "bytes32",
          "name": "",
          "type": "bytes32"
        }
      ],
      "stateMutability": "view",
      "type": "function"
    },
    {
      "inputs": [
        {
          "internalType": "address",
          "name": "_building",
          "type": "address"
        },
        {
          "internalType": "string",
          "name": "_ipfsHash",
          "type": "string"
        }
      ],
      "name": "addAuditRecord",
      "outputs": [],
      "stateMutability": "nonpayable",
      "type": "function"
    },
    {
      "inputs": [
        {
          "internalType": "address",
          "name": "_auditor",
          "type": "address"
        }
      ],
      "name": "addAuditor",
      "outputs": [],
      "stateMutability": "nonpayable",
      "type": "function"
    },
    {
      "inputs": [],
      "name": "auditRecordCounter",
      "outputs": [
        {
          "internalType": "uint256",
          "name": "",
          "type": "uint256"
        }
      ],
      "stateMutability": "view",
      "type": "function"
    },
    {
      "inputs": [
        {
          "internalType": "uint256",
          "name": "",
          "type": "uint256"
        }
      ],
      "name": "auditRecords",
      "outputs": [
        {
          "internalType": "address",
          "name": "building",
          "type": "address"
        },
        {
          "internalType": "address",
          "name": "auditor",
          "type": "address"
        },
        {
          "internalType": "string",
          "name": "ipfsHash",
          "type": "string"
        },
        {
          "internalType": "uint256",
          "name": "timestamp",
          "type": "uint256"
        },
        {
          "internalType": "bool",
          "name": "revoked",
          "type": "bool"
        }
      ],
      "stateMutability": "view",
      "type": "function"
    },
    {
      "inputs": [
        {
          "internalType": "address",
          "name": "",
          "type": "address"
        },
        {
          "internalType": "uint256",
          "name": "",
          "type": "uint256"
        }
      ],
      "name": "buildingAuditRecords",
      "outputs": [
        {
          "internalType": "uint256",
          "name": "",
          "type": "uint256"
        }
      ],
      "stateMutability": "view",
      "type": "function"
    },
    {
      "inputs": [
        {
          "internalType": "uint256",
          "name": "_recordId",
          "type": "uint256"
        }
      ],
      "name": "getAuditRecordDetails",
      "outputs": [
        {
          "components": [
            {
              "internalType": "address",
              "name": "building",
              "type": "address"
            },
            {
              "internalType": "address",
              "name": "auditor",
              "type": "address"
            },
            {
              "internalType": "string",
              "name": "ipfsHash",
              "type": "string"
            },
            {
              "internalType": "uint256",
              "name": "timestamp",
              "type": "uint256"
            },
            {
              "internalType": "bool",
              "name": "revoked",
              "type": "bool"
            }
          ],
          "internalType": "struct AuditRegistry.AuditRecord",
          "name": "",
          "type": "tuple"
        }
      ],
      "stateMutability": "view",
      "type": "function"
    },
    {
      "inputs": [
        {
          "internalType": "address",
          "name": "_building",
          "type": "address"
        }
      ],
      "name": "getAuditRecordsByBuilding",
      "outputs": [
        {
          "internalType": "uint256[]",
          "name": "",
          "type": "uint256[]"
        }
      ],
      "stateMutability": "view",
      "type": "function"
    },
    {
      "inputs": [
        {
          "internalType": "bytes32",
          "name": "role",
          "type": "bytes32"
        }
      ],
      "name": "getRoleAdmin",
      "outputs": [
        {
          "internalType": "bytes32",
          "name": "",
          "type": "bytes32"
        }
      ],
      "stateMutability": "view",
      "type": "function"
    },
    {
      "inputs": [
        {
          "internalType": "bytes32",
          "name": "role",
          "type": "bytes32"
        },
        {
          "internalType": "address",
          "name": "account",
          "type": "address"
        }
      ],
      "name": "grantRole",
      "outputs": [],
      "stateMutability": "nonpayable",
      "type": "function"
    },
    {
      "inputs": [
        {
          "internalType": "bytes32",
          "name": "role",
          "type": "bytes32"
        },
        {
          "internalType": "address",
          "name": "account",
          "type": "address"
        }
      ],
      "name": "hasRole",
      "outputs": [
        {
          "internalType": "bool",
          "name": "",
          "type": "bool"
        }
      ],
      "stateMutability": "view",
      "type": "function"
    },
    {
      "inputs": [
        {
          "internalType": "address",
          "name": "_auditor",
          "type": "address"
        }
      ],
      "name": "removeAuditor",
      "outputs": [],
      "stateMutability": "nonpayable",
      "type": "function"
    },
    {
      "inputs": [
        {
          "internalType": "bytes32",
          "name": "role",
          "type": "bytes32"
        },
        {
          "internalType": "address",
          "name": "callerConfirmation",
          "type": "address"
        }
      ],
      "name": "renounceRole",
      "outputs": [],
      "stateMutability": "nonpayable",
      "type": "function"
    },
    {
      "inputs": [
        {
          "internalType": "uint256",
          "name": "_recordId",
          "type": "uint256"
        }
      ],
      "name": "revokeAuditRecord",
      "outputs": [],
      "stateMutability": "nonpayable",
      "type": "function"
    },
    {
      "inputs": [
        {
          "internalType": "bytes32",
          "name": "role",
          "type": "bytes32"
        },
        {
          "internalType": "address",
          "name": "account",
          "type": "address"
        }
      ],
      "name": "revokeRole",
      "outputs": [],
      "stateMutability": "nonpayable",
      "type": "function"
    },
    {
      "inputs": [
        {
          "internalType": "bytes4",
          "name": "interfaceId",
          "type": "bytes4"
        }
      ],
      "name": "supportsInterface",
      "outputs": [
        {
          "internalType": "bool",
          "name": "",
          "type": "bool"
        }
      ],
      "stateMutability": "view",
      "type": "function"
    },
    {
      "inputs": [
        {
          "internalType": "uint256",
          "name": "_recordId",
          "type": "uint256"
        },
        {
          "internalType": "string",
          "name": "_newIpfsHash",
          "type": "string"
        }
      ],
      "name": "updateAuditRecord",
      "outputs": [],
      "stateMutability": "nonpayable",
      "type": "function"
    }
  ],
  "bytecode": "0x608060405234801561001057600080fd5b5061001c600033610022565b506100ce565b6000828152602081815260408083206001600160a01b038516845290915281205460ff166100c4576000838152602081815260408083206001600160a01b03861684529091529020805460ff1916600117905561007c3390565b6001600160a01b0316826001600160a01b0316847f2f8788117e7eff1d82e926ec794901d17c78024a50270940304540a733656f0d60405160405180910390a45060016100c8565b5060005b92915050565b6112ed806100dd6000396000f3fe608060405234801561001057600080fd5b50600436106100f65760003560e01c80636e1d616e116100925780636e1d616e146101eb57806391d1485414610200578063a217fddf14610213578063c9e398441461021b578063d547741f1461022e578063e429cef114610241578063e6116cfd14610254578063e74e786d14610267578063e95cf4441461028b57600080fd5b806301ffc9a7146100fb578063129b25af14610123578063237f4bcc14610138578063248a9ca3146101585780632f2ff15d1461018957806336568abe1461019c5780633f76730f146101af5780634afb29c6146101cf5780635949ea69146101d8575b600080fd5b61010e610109366004610caf565b61029e565b60405190151581526020015b60405180910390f35b610136610131366004610d45565b6102d5565b005b61014b610146366004610d98565b6104f1565b60405161011a9190610db3565b61017b610166366004610df7565b60009081526020819052604090206001015490565b60405190815260200161011a565b610136610197366004610e10565b61055d565b6101366101aa366004610e10565b610588565b6101c26101bd366004610df7565b6105c0565b60405161011a9190610e82565b61017b60015481565b6101366101e6366004610ee0565b6106d7565b61017b60008051602061129883398151915281565b61010e61020e366004610e10565b61080d565b61017b600081565b610136610229366004610df7565b610836565b61013661023c366004610e10565b61092d565b61013661024f366004610d98565b610952565b610136610262366004610d98565b610a12565b61027a610275366004610df7565b610a6d565b60405161011a959493929190610f13565b61017b610299366004610f58565b610b37565b60006001600160e01b03198216637965db0b60e01b14806102cf57506301ffc9a760e01b6001600160e01b03198316145b92915050565b6000805160206112988339815191526102ed81610b68565b6001600160a01b0384166103585760405162461bcd60e51b815260206004820152602760248201527f417564697452656769737472793a20496e76616c6964206275696c64696e67206044820152666164647265737360c81b60648201526084015b60405180910390fd5b816103755760405162461bcd60e51b815260040161034f90610f82565b6001805490600061038583610fc6565b9190505550600060015490506040518060a00160405280866001600160a01b03168152602001336001600160a01b0316815260200185858080601f01602080910402602001604051908101604052809392919081815260200183838082843760009201829052509385525050426020808501919091526040938401839052858352600280825292849020855181546001600160a01b03199081166001600160a01b039283161783559287015160018301805490941691161790915592840151918301916104539150826110a2565b5060608201516003828101919091556080909201516004909101805460ff19169115159190911790556001600160a01b038616600081815260209283526040808220805460018101825590835293909120909201839055905133919083907f9238fb7e1f523c52ddf4024bdcb41357b62ed007c90dac38ee13e1c72e0c0a80906104e29089908990429061115c565b60405180910390a45050505050565b6001600160a01b03811660009081526003602090815260409182902080548351818402810184019094528084526060939283018282801561055157602002820191906000526020600020905b81548152602001906001019080831161053d575b50505050509050919050565b60008281526020819052604090206001015461057881610b68565b6105828383610b75565b50505050565b6001600160a01b03811633146105b15760405163334bd91960e11b815260040160405180910390fd5b6105bb8282610c07565b505050565b6040805160a08101825260008082526020820181905260609282018390529181018290526080810191909152600082815260026020818152604092839020835160a08101855281546001600160a01b039081168252600183015416928101929092529182018054919384019161063590611003565b80601f016020809104026020016040519081016040528092919081815260200182805461066190611003565b80156106ae5780601f10610683576101008083540402835291602001916106ae565b820191906000526020600020905b81548152906001019060200180831161069157829003601f168201915b50505091835250506003820154602082015260049091015460ff16151560409091015292915050565b6000805160206112988339815191526106ef81610b68565b8161070c5760405162461bcd60e51b815260040161034f90610f82565b600084815260026020526040902060018101546001600160a01b031633146107465760405162461bcd60e51b815260040161034f90611195565b600481015460ff16156107b15760405162461bcd60e51b815260206004820152602d60248201527f417564697452656769737472793a2043616e6e6f74207570646174652061207260448201526c195d9bdad959081c9958dbdc99609a1b606482015260840161034f565b600281016107c08486836111dc565b50428160030181905550847f7d88a6413bdea2f765837b2027d150e8d9eff6811a00e7b32ce22566577ae3218585426040516107fe9392919061115c565b60405180910390a25050505050565b6000918252602082815260408084206001600160a01b0393909316845291905290205460ff1690565b60008051602061129883398151915261084e81610b68565b600082815260026020526040902060018101546001600160a01b031633146108885760405162461bcd60e51b815260040161034f90611195565b600481015460ff16156108dd5760405162461bcd60e51b815260206004820152601e60248201527f417564697452656769737472793a20416c7265616479207265766f6b65640000604482015260640161034f565b60048101805460ff1916600117905560405183907fe4839e81aa65ee9120ee35c9291915fa224f6ae0bfab747215ee7f0b5368a193906109209042815260200190565b60405180910390a2505050565b60008281526020819052604090206001015461094881610b68565b6105828383610c07565b600061095d81610b68565b6001600160a01b0382166109c25760405162461bcd60e51b815260206004820152602660248201527f417564697452656769737472793a20496e76616c69642061756469746f72206160448201526564647265737360d01b606482015260840161034f565b6109da6000805160206112988339815191528361055d565b6040516001600160a01b038316907f2c31044378cc14466459f09320dd4057d7ad6e99b194c0800c78227383a2529690600090a25050565b6000610a1d81610b68565b610a356000805160206112988339815191528361092d565b6040516001600160a01b038316907fd3e803f2dfdacd206b7d19aa46d847206386d84e3dc6b8de0926e54affa6fddc90600090a25050565b60026020819052600091825260409091208054600182015492820180546001600160a01b03928316949092169291610aa490611003565b80601f0160208091040260200160405190810160405280929190818152602001828054610ad090611003565b8015610b1d5780601f10610af257610100808354040283529160200191610b1d565b820191906000526020600020905b815481529060010190602001808311610b0057829003601f168201915b50505050600383015460049093015491929160ff16905085565b60036020528160005260406000208181548110610b5357600080fd5b90600052602060002001600091509150505481565b610b728133610c72565b50565b6000610b81838361080d565b610bff576000838152602081815260408083206001600160a01b03861684529091529020805460ff19166001179055610bb73390565b6001600160a01b0316826001600160a01b0316847f2f8788117e7eff1d82e926ec794901d17c78024a50270940304540a733656f0d60405160405180910390a45060016102cf565b5060006102cf565b6000610c13838361080d565b15610bff576000838152602081815260408083206001600160a01b0386168085529252808320805460ff1916905551339286917ff6391f5c32d9c69d2a47ea670b442974b53935d1edc7fd64eb21e047a839171b9190a45060016102cf565b610c7c828261080d565b610cab5760405163e2517d3f60e01b81526001600160a01b03821660048201526024810183905260440161034f565b5050565b600060208284031215610cc157600080fd5b81356001600160e01b031981168114610cd957600080fd5b9392505050565b80356001600160a01b0381168114610cf757600080fd5b919050565b60008083601f840112610d0e57600080fd5b50813567ffffffffffffffff811115610d2657600080fd5b602083019150836020828501011115610d3e57600080fd5b9250929050565b600080600060408486031215610d5a57600080fd5b610d6384610ce0565b9250602084013567ffffffffffffffff811115610d7f57600080fd5b610d8b86828701610cfc565b9497909650939450505050565b600060208284031215610daa57600080fd5b610cd982610ce0565b6020808252825182820181905260009190848201906040850190845b81811015610deb57835183529284019291840191600101610dcf565b50909695505050505050565b600060208284031215610e0957600080fd5b5035919050565b60008060408385031215610e2357600080fd5b82359150610e3360208401610ce0565b90509250929050565b6000815180845260005b81811015610e6257602081850181015186830182015201610e46565b506000602082860101526020601f19601f83011685010191505092915050565b60208152600060018060a01b0380845116602084015280602085015116604084015250604083015160a06060840152610ebe60c0840182610e3c565b9050606084015160808401526080840151151560a08401528091505092915050565b600080600060408486031215610ef557600080fd5b83359250602084013567ffffffffffffffff811115610d7f57600080fd5b6001600160a01b0386811682528516602082015260a060408201819052600090610f3f90830186610e3c565b6060830194909452509015156080909101529392505050565b60008060408385031215610f6b57600080fd5b610f7483610ce0565b946020939093013593505050565b60208082526024908201527f417564697452656769737472793a2049504653206861736820697320726571756040820152631a5c995960e21b606082015260800190565b600060018201610fe657634e487b7160e01b600052601160045260246000fd5b5060010190565b634e487b7160e01b600052604160045260246000fd5b600181811c9082168061101757607f821691505b60208210810361103757634e487b7160e01b600052602260045260246000fd5b50919050565b601f8211156105bb576000816000526020600020601f850160051c810160208610156110665750805b601f850160051c820191505b8181101561108557828155600101611072565b505050505050565b600019600383901b1c191660019190911b1790565b815167ffffffffffffffff8111156110bc576110bc610fed565b6110d0816110ca8454611003565b8461103d565b602080601f8311600181146110ff57600084156110ed5750858301515b6110f7858261108d565b865550611085565b600085815260208120601f198616915b8281101561112e5788860151825594840194600190910190840161110f565b508582101561114c5787850151600019600388901b60f8161c191681555b5050505050600190811b01905550565b604081528260408201528284606083013760006060848301015260006060601f19601f8601168301019050826020830152949350505050565b60208082526027908201527f417564697452656769737472793a204e6f7420746865206f726967696e616c2060408201526630bab234ba37b960c91b606082015260800190565b67ffffffffffffffff8311156111f4576111f4610fed565b611208836112028354611003565b8361103d565b6000601f84116001811461123657600085156112245750838201355b61122e868261108d565b845550611290565b600083815260209020601f19861690835b828110156112675786850135825560209485019460019092019101611247565b50868210156112845760001960f88860031b161c19848701351681555b505060018560011b0183555b505050505056fe59a1c48e5837ad7a7f3dcedcbe129bf3249ec4fbf651fd4f5e2600ead39fe2f5a2646970667358221220cd91349aa7b87d7677c7a36565ca9525f8e379d24f32a5c6c7de418ec594745064736f6c63430008180033",
  "linkReferences": {},
  "deployedLinkReferences": {}
}