{
  "_format": "hh-sol-artifact-1",
  "contractName": "AuditRegistry",
  "sourceName": "contracts/audit/AuditRegistry.sol",
  "abi": [
    {
      "inputs": [],
      "stateMutability": "nonpayable",
      "type": "constructor"
    },
    {
      "inputs": [],
      "name": "AccessControlBadConfirmation",
      "type": "error"
    },
    {
      "inputs": [
        {
          "internalType": "address",
          "name": "account",
          "type": "address"
        },
        {
          "internalType": "bytes32",
          "name": "neededRole",
          "type": "bytes32"
        }
      ],
      "name": "AccessControlUnauthorizedAccount",
      "type": "error"
    },
    {
      "inputs": [],
      "name": "DuplicateIpfsHash",
      "type": "error"
    },
    {
      "anonymous": false,
      "inputs": [
        {
          "indexed": true,
          "internalType": "uint256",
          "name": "recordId",
          "type": "uint256"
        },
        {
          "indexed": true,
          "internalType": "address",
          "name": "building",
          "type": "address"
        },
        {
          "indexed": true,
          "internalType": "address",
          "name": "auditor",
          "type": "address"
        },
        {
          "indexed": false,
          "internalType": "string",
          "name": "ipfsHash",
          "type": "string"
        },
        {
          "indexed": false,
          "internalType": "uint256",
          "name": "timestamp",
          "type": "uint256"
        }
      ],
      "name": "AuditRecordAdded",
      "type": "event"
    },
    {
      "anonymous": false,
      "inputs": [
        {
          "indexed": true,
          "internalType": "uint256",
          "name": "recordId",
          "type": "uint256"
        },
        {
          "indexed": false,
          "internalType": "uint256",
          "name": "timestamp",
          "type": "uint256"
        }
      ],
      "name": "AuditRecordRevoked",
      "type": "event"
    },
    {
      "anonymous": false,
      "inputs": [
        {
          "indexed": true,
          "internalType": "uint256",
          "name": "recordId",
          "type": "uint256"
        },
        {
          "indexed": false,
          "internalType": "string",
          "name": "newIpfsHash",
          "type": "string"
        },
        {
          "indexed": false,
          "internalType": "uint256",
          "name": "timestamp",
          "type": "uint256"
        }
      ],
      "name": "AuditRecordUpdated",
      "type": "event"
    },
    {
      "anonymous": false,
      "inputs": [
        {
          "indexed": true,
          "internalType": "address",
          "name": "auditor",
          "type": "address"
        }
      ],
      "name": "AuditorAdded",
      "type": "event"
    },
    {
      "anonymous": false,
      "inputs": [
        {
          "indexed": true,
          "internalType": "address",
          "name": "auditor",
          "type": "address"
        }
      ],
      "name": "AuditorRemoved",
      "type": "event"
    },
    {
      "anonymous": false,
      "inputs": [
        {
          "indexed": true,
          "internalType": "bytes32",
          "name": "role",
          "type": "bytes32"
        },
        {
          "indexed": true,
          "internalType": "bytes32",
          "name": "previousAdminRole",
          "type": "bytes32"
        },
        {
          "indexed": true,
          "internalType": "bytes32",
          "name": "newAdminRole",
          "type": "bytes32"
        }
      ],
      "name": "RoleAdminChanged",
      "type": "event"
    },
    {
      "anonymous": false,
      "inputs": [
        {
          "indexed": true,
          "internalType": "bytes32",
          "name": "role",
          "type": "bytes32"
        },
        {
          "indexed": true,
          "internalType": "address",
          "name": "account",
          "type": "address"
        },
        {
          "indexed": true,
          "internalType": "address",
          "name": "sender",
          "type": "address"
        }
      ],
      "name": "RoleGranted",
      "type": "event"
    },
    {
      "anonymous": false,
      "inputs": [
        {
          "indexed": true,
          "internalType": "bytes32",
          "name": "role",
          "type": "bytes32"
        },
        {
          "indexed": true,
          "internalType": "address",
          "name": "account",
          "type": "address"
        },
        {
          "indexed": true,
          "internalType": "address",
          "name": "sender",
          "type": "address"
        }
      ],
      "name": "RoleRevoked",
      "type": "event"
    },
    {
      "inputs": [],
      "name": "AUDITOR_ROLE",
      "outputs": [
        {
          "internalType": "bytes32",
          "name": "",
          "type": "bytes32"
        }
      ],
      "stateMutability": "view",
      "type": "function"
    },
    {
      "inputs": [],
      "name": "DEFAULT_ADMIN_ROLE",
      "outputs": [
        {
          "internalType": "bytes32",
          "name": "",
          "type": "bytes32"
        }
      ],
      "stateMutability": "view",
      "type": "function"
    },
    {
      "inputs": [
        {
          "internalType": "address",
          "name": "_building",
          "type": "address"
        },
        {
          "internalType": "string",
          "name": "_ipfsHash",
          "type": "string"
        }
      ],
      "name": "addAuditRecord",
      "outputs": [],
      "stateMutability": "nonpayable",
      "type": "function"
    },
    {
      "inputs": [
        {
          "internalType": "address",
          "name": "_auditor",
          "type": "address"
        }
      ],
      "name": "addAuditor",
      "outputs": [],
      "stateMutability": "nonpayable",
      "type": "function"
    },
    {
      "inputs": [],
      "name": "auditRecordCounter",
      "outputs": [
        {
          "internalType": "uint256",
          "name": "",
          "type": "uint256"
        }
      ],
      "stateMutability": "view",
      "type": "function"
    },
    {
      "inputs": [
        {
          "internalType": "uint256",
          "name": "",
          "type": "uint256"
        }
      ],
      "name": "auditRecords",
      "outputs": [
        {
          "internalType": "address",
          "name": "building",
          "type": "address"
        },
        {
          "internalType": "address",
          "name": "auditor",
          "type": "address"
        },
        {
          "internalType": "uint64",
          "name": "timestamp",
          "type": "uint64"
        },
        {
          "internalType": "bool",
          "name": "revoked",
          "type": "bool"
        },
        {
          "internalType": "string",
          "name": "ipfsHash",
          "type": "string"
        }
      ],
      "stateMutability": "view",
      "type": "function"
    },
    {
      "inputs": [
        {
          "internalType": "address",
          "name": "",
          "type": "address"
        },
        {
          "internalType": "uint256",
          "name": "",
          "type": "uint256"
        }
      ],
      "name": "buildingAuditRecords",
      "outputs": [
        {
          "internalType": "uint256",
          "name": "",
          "type": "uint256"
        }
      ],
      "stateMutability": "view",
      "type": "function"
    },
    {
      "inputs": [
        {
          "internalType": "uint256",
          "name": "_recordId",
          "type": "uint256"
        }
      ],
      "name": "getAuditRecordDetails",
      "outputs": [
        {
          "components": [
            {
              "internalType": "address",
              "name": "building",
              "type": "address"
            },
            {
              "internalType": "address",
              "name": "auditor",
              "type": "address"
            },
            {
              "internalType": "uint64",
              "name": "timestamp",
              "type": "uint64"
            },
            {
              "internalType": "bool",
              "name": "revoked",
              "type": "bool"
            },
            {
              "internalType": "string",
              "name": "ipfsHash",
              "type": "string"
            }
          ],
          "internalType": "struct AuditRegistry.AuditRecord",
          "name": "",
          "type": "tuple"
        }
      ],
      "stateMutability": "view",
      "type": "function"
    },
    {
      "inputs": [
        {
          "internalType": "address",
          "name": "_building",
          "type": "address"
        }
      ],
      "name": "getAuditRecordsByBuilding",
      "outputs": [
        {
          "internalType": "uint256[]",
          "name": "",
          "type": "uint256[]"
        }
      ],
      "stateMutability": "view",
      "type": "function"
    },
    {
      "inputs": [
        {
          "internalType": "bytes32",
          "name": "role",
          "type": "bytes32"
        }
      ],
      "name": "getRoleAdmin",
      "outputs": [
        {
          "internalType": "bytes32",
          "name": "",
          "type": "bytes32"
        }
      ],
      "stateMutability": "view",
      "type": "function"
    },
    {
      "inputs": [
        {
          "internalType": "bytes32",
          "name": "role",
          "type": "bytes32"
        },
        {
          "internalType": "address",
          "name": "account",
          "type": "address"
        }
      ],
      "name": "grantRole",
      "outputs": [],
      "stateMutability": "nonpayable",
      "type": "function"
    },
    {
      "inputs": [
        {
          "internalType": "bytes32",
          "name": "role",
          "type": "bytes32"
        },
        {
          "internalType": "address",
          "name": "account",
          "type": "address"
        }
      ],
      "name": "hasRole",
      "outputs": [
        {
          "internalType": "bool",
          "name": "",
          "type": "bool"
        }
      ],
      "stateMutability": "view",
      "type": "function"
    },
    {
      "inputs": [
        {
          "internalType": "address",
          "name": "_auditor",
          "type": "address"
        }
      ],
      "name": "removeAuditor",
      "outputs": [],
      "stateMutability": "nonpayable",
      "type": "function"
    },
    {
      "inputs": [
        {
          "internalType": "bytes32",
          "name": "role",
          "type": "bytes32"
        },
        {
          "internalType": "address",
          "name": "callerConfirmation",
          "type": "address"
        }
      ],
      "name": "renounceRole",
      "outputs": [],
      "stateMutability": "nonpayable",
      "type": "function"
    },
    {
      "inputs": [
        {
          "internalType": "uint256",
          "name": "_recordId",
          "type": "uint256"
        }
      ],
      "name": "revokeAuditRecord",
      "outputs": [],
      "stateMutability": "nonpayable",
      "type": "function"
    },
    {
      "inputs": [
        {
          "internalType": "bytes32",
          "name": "role",
          "type": "bytes32"
        },
        {
          "internalType": "address",
          "name": "account",
          "type": "address"
        }
      ],
      "name": "revokeRole",
      "outputs": [],
      "stateMutability": "nonpayable",
      "type": "function"
    },
    {
      "inputs": [
        {
          "internalType": "bytes4",
          "name": "interfaceId",
          "type": "bytes4"
        }
      ],
      "name": "supportsInterface",
      "outputs": [
        {
          "internalType": "bool",
          "name": "",
          "type": "bool"
        }
      ],
      "stateMutability": "view",
      "type": "function"
    },
    {
      "inputs": [
        {
          "internalType": "uint256",
          "name": "_recordId",
          "type": "uint256"
        },
        {
          "internalType": "string",
          "name": "_newIpfsHash",
          "type": "string"
        }
      ],
      "name": "updateAuditRecord",
      "outputs": [],
      "stateMutability": "nonpayable",
      "type": "function"
    }
  ],
  "bytecode": "0x608060405234801561001057600080fd5b5061001c600033610022565b506100ce565b6000828152602081815260408083206001600160a01b038516845290915281205460ff166100c4576000838152602081815260408083206001600160a01b03861684529091529020805460ff1916600117905561007c3390565b6001600160a01b0316826001600160a01b0316847f2f8788117e7eff1d82e926ec794901d17c78024a50270940304540a733656f0d60405160405180910390a45060016100c8565b5060005b92915050565b611530806100dd6000396000f3fe608060405234801561001057600080fd5b50600436106100f65760003560e01c80636e1d616e116100925780636e1d616e146101eb57806391d1485414610200578063a217fddf14610213578063c9e398441461021b578063d547741f1461022e578063e429cef114610241578063e6116cfd14610254578063e74e786d14610267578063e95cf4441461028b57600080fd5b806301ffc9a7146100fb578063129b25af14610123578063237f4bcc14610138578063248a9ca3146101585780632f2ff15d1461018957806336568abe1461019c5780633f76730f146101af5780634afb29c6146101cf5780635949ea69146101d8575b600080fd5b61010e610109366004610edb565b61029e565b60405190151581526020015b60405180910390f35b610136610131366004610f69565b6102d5565b005b61014b610146366004610fbb565b61052f565b60405161011a9190610fd6565b61017b61016636600461101a565b60009081526020819052604090206001015490565b60405190815260200161011a565b610136610197366004611033565b61059b565b6101366101aa366004611033565b6105c6565b6101c26101bd36600461101a565b6105fe565b60405161011a91906110a5565b61017b60015481565b6101366101e6366004611107565b610729565b61017b6000805160206114db83398151915281565b61010e61020e366004611033565b6108ba565b61017b600081565b61013661022936600461101a565b6108e3565b61013661023c366004611033565b6109e7565b61013661024f366004610fbb565b610a0c565b610136610262366004610fbb565b610acc565b61027a61027536600461101a565b610b27565b60405161011a959493929190611139565b61017b610299366004611187565b610bfe565b60006001600160e01b03198216637965db0b60e01b14806102cf57506301ffc9a760e01b6001600160e01b03198316145b92915050565b6000805160206114db8339815191526102ed81610c2f565b6001600160a01b0384166103585760405162461bcd60e51b815260206004820152602760248201527f417564697452656769737472793a20496e76616c6964206275696c64696e67206044820152666164647265737360c81b60648201526084015b60405180910390fd5b816103755760405162461bcd60e51b815260040161034f906111b1565b610380848484610c3c565b1561039e57604051635d922ec360e01b815260040160405180910390fd5b600180549060006103ae836111f5565b90915550506001546040805160a0810182526001600160a01b0387168152336020808301919091526001600160401b03421682840152600060608301528251601f8701829004820281018201909352858352909160808301918790879081908401838280828437600092018290525093909452505083815260026020818152604092839020855181546001600160a01b039182166001600160a01b0319909116178255918601516001820180549588015160608901511515600160e01b0260ff60e01b196001600160401b03909216600160a01b026001600160e01b0319909816939095169290921795909517169190911790925560808401519192508201906104b890826112d1565b5050506001600160a01b0385166000818152600360209081526040808320805460018101825590845291909220018390555133919083907f9238fb7e1f523c52ddf4024bdcb41357b62ed007c90dac38ee13e1c72e0c0a80906105209089908990429061138a565b60405180910390a45050505050565b6001600160a01b03811660009081526003602090815260409182902080548351818402810184019094528084526060939283018282801561058f57602002820191906000526020600020905b81548152602001906001019080831161057b575b50505050509050919050565b6000828152602081905260409020600101546105b681610c2f565b6105c08383610d7b565b50505050565b6001600160a01b03811633146105ef5760405163334bd91960e11b815260040160405180910390fd5b6105f98282610e0d565b505050565b6040805160a0810182526000808252602082018190529181018290526060808201929092526080810191909152600082815260026020818152604092839020835160a08101855281546001600160a01b039081168252600183015490811693820193909352600160a01b83046001600160401b031694810194909452600160e01b90910460ff161515606084015290810180546080840191906106a090611232565b80601f01602080910402602001604051908101604052809291908181526020018280546106cc90611232565b80156107195780601f106106ee57610100808354040283529160200191610719565b820191906000526020600020905b8154815290600101906020018083116106fc57829003601f168201915b5050505050815250509050919050565b6000805160206114db83398151915261074181610c2f565b8161075e5760405162461bcd60e51b815260040161034f906111b1565b600084815260026020526040902060018101546001600160a01b031633146107985760405162461bcd60e51b815260040161034f906113c3565b6001810154600160e01b900460ff161561080a5760405162461bcd60e51b815260206004820152602d60248201527f417564697452656769737472793a2043616e6e6f74207570646174652061207260448201526c195d9bdad959081c9958dbdc99609a1b606482015260840161034f565b8054610820906001600160a01b03168585610c3c565b1561083e57604051635d922ec360e01b815260040160405180910390fd5b6002810161084d84868361140a565b50428160010160146101000a8154816001600160401b0302191690836001600160401b03160217905550847f7d88a6413bdea2f765837b2027d150e8d9eff6811a00e7b32ce22566577ae3218585426040516108ab9392919061138a565b60405180910390a25050505050565b6000918252602082815260408084206001600160a01b0393909316845291905290205460ff1690565b6000805160206114db8339815191526108fb81610c2f565b600082815260026020526040902060018101546001600160a01b031633146109355760405162461bcd60e51b815260040161034f906113c3565b6001810154600160e01b900460ff16156109915760405162461bcd60e51b815260206004820152601e60248201527f417564697452656769737472793a20416c7265616479207265766f6b65640000604482015260640161034f565b60018101805460ff60e01b1916600160e01b17905560405183907fe4839e81aa65ee9120ee35c9291915fa224f6ae0bfab747215ee7f0b5368a193906109da9042815260200190565b60405180910390a2505050565b600082815260208190526040902060010154610a0281610c2f565b6105c08383610e0d565b6000610a1781610c2f565b6001600160a01b038216610a7c5760405162461bcd60e51b815260206004820152602660248201527f417564697452656769737472793a20496e76616c69642061756469746f72206160448201526564647265737360d01b606482015260840161034f565b610a946000805160206114db8339815191528361059b565b6040516001600160a01b038316907f2c31044378cc14466459f09320dd4057d7ad6e99b194c0800c78227383a2529690600090a25050565b6000610ad781610c2f565b610aef6000805160206114db833981519152836109e7565b6040516001600160a01b038316907fd3e803f2dfdacd206b7d19aa46d847206386d84e3dc6b8de0926e54affa6fddc90600090a25050565b60026020819052600091825260409091208054600182015492820180546001600160a01b039283169492831693600160a01b84046001600160401b031693600160e01b900460ff16929091610b7b90611232565b80601f0160208091040260200160405190810160405280929190818152602001828054610ba790611232565b8015610bf45780601f10610bc957610100808354040283529160200191610bf4565b820191906000526020600020905b815481529060010190602001808311610bd757829003601f168201915b5050505050905085565b60036020528160005260406000208181548110610c1a57600080fd5b90600052602060002001600091509150505481565b610c398133610e78565b50565b6001600160a01b0383166000908152600360205260408120815b8154811015610d7157610d5960026000848481548110610c7857610c786114c4565b906000526020600020015481526020019081526020016000206002018054610c9f90611232565b80601f0160208091040260200160405190810160405280929190818152602001828054610ccb90611232565b8015610d185780601f10610ced57610100808354040283529160200191610d18565b820191906000526020600020905b815481529060010190602001808311610cfb57829003601f168201915b505050505086868080601f016020809104026020016040519081016040528093929190818152602001838380828437600092019190915250610eb592505050565b15610d6957600192505050610d74565b600101610c56565b50505b9392505050565b6000610d8783836108ba565b610e05576000838152602081815260408083206001600160a01b03861684529091529020805460ff19166001179055610dbd3390565b6001600160a01b0316826001600160a01b0316847f2f8788117e7eff1d82e926ec794901d17c78024a50270940304540a733656f0d60405160405180910390a45060016102cf565b5060006102cf565b6000610e1983836108ba565b15610e05576000838152602081815260408083206001600160a01b0386168085529252808320805460ff1916905551339286917ff6391f5c32d9c69d2a47ea670b442974b53935d1edc7fd64eb21e047a839171b9190a45060016102cf565b610e8282826108ba565b610eb15760405163e2517d3f60e01b81526001600160a01b03821660048201526024810183905260440161034f565b5050565b600081518351148015610d74575081805190602001208380519060200120149392505050565b600060208284031215610eed57600080fd5b81356001600160e01b031981168114610d7457600080fd5b80356001600160a01b0381168114610f1c57600080fd5b919050565b60008083601f840112610f3357600080fd5b5081356001600160401b03811115610f4a57600080fd5b602083019150836020828501011115610f6257600080fd5b9250929050565b600080600060408486031215610f7e57600080fd5b610f8784610f05565b925060208401356001600160401b03811115610fa257600080fd5b610fae86828701610f21565b9497909650939450505050565b600060208284031215610fcd57600080fd5b610d7482610f05565b6020808252825182820181905260009190848201906040850190845b8181101561100e57835183529284019291840191600101610ff2565b50909695505050505050565b60006020828403121561102c57600080fd5b5035919050565b6000806040838503121561104657600080fd5b8235915061105660208401610f05565b90509250929050565b6000815180845260005b8181101561108557602081850181015186830182015201611069565b506000602082860101526020601f19601f83011685010191505092915050565b60208152600060018060a01b03808451166020840152806020850151166040840152506001600160401b036040840151166060830152606083015115156080830152608083015160a0808401526110ff60c084018261105f565b949350505050565b60008060006040848603121561111c57600080fd5b8335925060208401356001600160401b03811115610fa257600080fd5b6001600160a01b038681168252851660208201526001600160401b0384166040820152821515606082015260a06080820181905260009061117c9083018461105f565b979650505050505050565b6000806040838503121561119a57600080fd5b6111a383610f05565b946020939093013593505050565b60208082526024908201527f417564697452656769737472793a2049504653206861736820697320726571756040820152631a5c995960e21b606082015260800190565b60006001820161121557634e487b7160e01b600052601160045260246000fd5b5060010190565b634e487b7160e01b600052604160045260246000fd5b600181811c9082168061124657607f821691505b60208210810361126657634e487b7160e01b600052602260045260246000fd5b50919050565b601f8211156105f9576000816000526020600020601f850160051c810160208610156112955750805b601f850160051c820191505b818110156112b4578281556001016112a1565b505050505050565b600019600383901b1c191660019190911b1790565b81516001600160401b038111156112ea576112ea61121c565b6112fe816112f88454611232565b8461126c565b602080601f83116001811461132d576000841561131b5750858301515b61132585826112bc565b8655506112b4565b600085815260208120601f198616915b8281101561135c5788860151825594840194600190910190840161133d565b508582101561137a5787850151600019600388901b60f8161c191681555b5050505050600190811b01905550565b604081528260408201528284606083013760006060848301015260006060601f19601f8601168301019050826020830152949350505050565b60208082526027908201527f417564697452656769737472793a204e6f7420746865206f726967696e616c2060408201526630bab234ba37b960c91b606082015260800190565b6001600160401b038311156114215761142161121c565b6114358361142f8354611232565b8361126c565b6000601f84116001811461146357600085156114515750838201355b61145b86826112bc565b8455506114bd565b600083815260209020601f19861690835b828110156114945786850135825560209485019460019092019101611474565b50868210156114b15760001960f88860031b161c19848701351681555b505060018560011b0183555b5050505050565b634e487b7160e01b600052603260045260246000fdfe59a1c48e5837ad7a7f3dcedcbe129bf3249ec4fbf651fd4f5e2600ead39fe2f5a2646970667358221220cd34648cd51e87ab84da1a4458b7973d5364daca54bd2cb21ec970fe8fb8327164736f6c63430008180033",
  "linkReferences": {},
  "deployedLinkReferences": {}
}