{
  "_format": "hh-sol-artifact-1",
  "contractName": "AuditRegistry",
  "sourceName": "contracts/audit/AuditRegistry.sol",
  "abi": [
    {
      "inputs": [
        {
          "internalType": "address",
          "name": "_buildingNFTAddress",
          "type": "address"
        }
      ],
      "stateMutability": "nonpayable",
      "type": "constructor"
    },
    {
      "inputs": [],
      "name": "AccessControlBadConfirmation",
      "type": "error"
    },
    {
      "inputs": [
        {
          "internalType": "address",
          "name": "account",
          "type": "address"
        },
        {
          "internalType": "bytes32",
          "name": "neededRole",
          "type": "bytes32"
        }
      ],
      "name": "AccessControlUnauthorizedAccount",
      "type": "error"
    },
    {
      "anonymous": false,
      "inputs": [
        {
          "indexed": true,
          "internalType": "uint256",
          "name": "auditRecordId",
          "type": "uint256"
        },
        {
          "indexed": true,
          "internalType": "uint256",
          "name": "buildingId",
          "type": "uint256"
        },
        {
          "indexed": true,
          "internalType": "address",
          "name": "auditor",
          "type": "address"
        },
        {
          "indexed": false,
          "internalType": "string",
          "name": "ipfsHash",
          "type": "string"
        },
        {
          "indexed": false,
          "internalType": "uint256",
          "name": "timestamp",
          "type": "uint256"
        }
      ],
      "name": "AuditRecordAdded",
      "type": "event"
    },
    {
      "anonymous": false,
      "inputs": [
        {
          "indexed": true,
          "internalType": "uint256",
          "name": "auditRecordId",
          "type": "uint256"
        },
        {
          "indexed": false,
          "internalType": "uint256",
          "name": "timestamp",
          "type": "uint256"
        }
      ],
      "name": "AuditRecordRevoked",
      "type": "event"
    },
    {
      "anonymous": false,
      "inputs": [
        {
          "indexed": true,
          "internalType": "uint256",
          "name": "auditRecordId",
          "type": "uint256"
        },
        {
          "indexed": false,
          "internalType": "string",
          "name": "newIpfsHash",
          "type": "string"
        },
        {
          "indexed": false,
          "internalType": "uint256",
          "name": "timestamp",
          "type": "uint256"
        }
      ],
      "name": "AuditRecordUpdated",
      "type": "event"
    },
    {
      "anonymous": false,
      "inputs": [
        {
          "indexed": true,
          "internalType": "address",
          "name": "auditor",
          "type": "address"
        }
      ],
      "name": "AuditorAdded",
      "type": "event"
    },
    {
      "anonymous": false,
      "inputs": [
        {
          "indexed": true,
          "internalType": "address",
          "name": "auditor",
          "type": "address"
        }
      ],
      "name": "AuditorRemoved",
      "type": "event"
    },
    {
      "anonymous": false,
      "inputs": [
        {
          "indexed": true,
          "internalType": "bytes32",
          "name": "role",
          "type": "bytes32"
        },
        {
          "indexed": true,
          "internalType": "bytes32",
          "name": "previousAdminRole",
          "type": "bytes32"
        },
        {
          "indexed": true,
          "internalType": "bytes32",
          "name": "newAdminRole",
          "type": "bytes32"
        }
      ],
      "name": "RoleAdminChanged",
      "type": "event"
    },
    {
      "anonymous": false,
      "inputs": [
        {
          "indexed": true,
          "internalType": "bytes32",
          "name": "role",
          "type": "bytes32"
        },
        {
          "indexed": true,
          "internalType": "address",
          "name": "account",
          "type": "address"
        },
        {
          "indexed": true,
          "internalType": "address",
          "name": "sender",
          "type": "address"
        }
      ],
      "name": "RoleGranted",
      "type": "event"
    },
    {
      "anonymous": false,
      "inputs": [
        {
          "indexed": true,
          "internalType": "bytes32",
          "name": "role",
          "type": "bytes32"
        },
        {
          "indexed": true,
          "internalType": "address",
          "name": "account",
          "type": "address"
        },
        {
          "indexed": true,
          "internalType": "address",
          "name": "sender",
          "type": "address"
        }
      ],
      "name": "RoleRevoked",
      "type": "event"
    },
    {
      "inputs": [],
      "name": "AUDITOR_ROLE",
      "outputs": [
        {
          "internalType": "bytes32",
          "name": "",
          "type": "bytes32"
        }
      ],
      "stateMutability": "view",
      "type": "function"
    },
    {
      "inputs": [],
      "name": "DEFAULT_ADMIN_ROLE",
      "outputs": [
        {
          "internalType": "bytes32",
          "name": "",
          "type": "bytes32"
        }
      ],
      "stateMutability": "view",
      "type": "function"
    },
    {
      "inputs": [
        {
          "internalType": "uint256",
          "name": "_buildingId",
          "type": "uint256"
        },
        {
          "internalType": "string",
          "name": "_ipfsHash",
          "type": "string"
        }
      ],
      "name": "addAuditRecord",
      "outputs": [],
      "stateMutability": "nonpayable",
      "type": "function"
    },
    {
      "inputs": [
        {
          "internalType": "address",
          "name": "_auditor",
          "type": "address"
        }
      ],
      "name": "addAuditor",
      "outputs": [],
      "stateMutability": "nonpayable",
      "type": "function"
    },
    {
      "inputs": [],
      "name": "auditRecordCounter",
      "outputs": [
        {
          "internalType": "uint256",
          "name": "",
          "type": "uint256"
        }
      ],
      "stateMutability": "view",
      "type": "function"
    },
    {
      "inputs": [
        {
          "internalType": "uint256",
          "name": "",
          "type": "uint256"
        }
      ],
      "name": "auditRecords",
      "outputs": [
        {
          "internalType": "uint256",
          "name": "buildingId",
          "type": "uint256"
        },
        {
          "internalType": "address",
          "name": "auditor",
          "type": "address"
        },
        {
          "internalType": "string",
          "name": "ipfsHash",
          "type": "string"
        },
        {
          "internalType": "uint256",
          "name": "timestamp",
          "type": "uint256"
        },
        {
          "internalType": "bool",
          "name": "revoked",
          "type": "bool"
        }
      ],
      "stateMutability": "view",
      "type": "function"
    },
    {
      "inputs": [
        {
          "internalType": "uint256",
          "name": "",
          "type": "uint256"
        },
        {
          "internalType": "uint256",
          "name": "",
          "type": "uint256"
        }
      ],
      "name": "buildingAuditRecords",
      "outputs": [
        {
          "internalType": "uint256",
          "name": "",
          "type": "uint256"
        }
      ],
      "stateMutability": "view",
      "type": "function"
    },
    {
      "inputs": [],
      "name": "buildingNFT",
      "outputs": [
        {
          "internalType": "contract IERC721",
          "name": "",
          "type": "address"
        }
      ],
      "stateMutability": "view",
      "type": "function"
    },
    {
      "inputs": [
        {
          "internalType": "uint256",
          "name": "_auditRecordId",
          "type": "uint256"
        }
      ],
      "name": "getAuditRecordDetails",
      "outputs": [
        {
          "components": [
            {
              "internalType": "uint256",
              "name": "buildingId",
              "type": "uint256"
            },
            {
              "internalType": "address",
              "name": "auditor",
              "type": "address"
            },
            {
              "internalType": "string",
              "name": "ipfsHash",
              "type": "string"
            },
            {
              "internalType": "uint256",
              "name": "timestamp",
              "type": "uint256"
            },
            {
              "internalType": "bool",
              "name": "revoked",
              "type": "bool"
            }
          ],
          "internalType": "struct AuditRegistry.AuditRecord",
          "name": "",
          "type": "tuple"
        }
      ],
      "stateMutability": "view",
      "type": "function"
    },
    {
      "inputs": [
        {
          "internalType": "uint256",
          "name": "_buildingId",
          "type": "uint256"
        }
      ],
      "name": "getAuditRecordsByBuilding",
      "outputs": [
        {
          "internalType": "uint256[]",
          "name": "",
          "type": "uint256[]"
        }
      ],
      "stateMutability": "view",
      "type": "function"
    },
    {
      "inputs": [
        {
          "internalType": "bytes32",
          "name": "role",
          "type": "bytes32"
        }
      ],
      "name": "getRoleAdmin",
      "outputs": [
        {
          "internalType": "bytes32",
          "name": "",
          "type": "bytes32"
        }
      ],
      "stateMutability": "view",
      "type": "function"
    },
    {
      "inputs": [
        {
          "internalType": "bytes32",
          "name": "role",
          "type": "bytes32"
        },
        {
          "internalType": "address",
          "name": "account",
          "type": "address"
        }
      ],
      "name": "grantRole",
      "outputs": [],
      "stateMutability": "nonpayable",
      "type": "function"
    },
    {
      "inputs": [
        {
          "internalType": "bytes32",
          "name": "role",
          "type": "bytes32"
        },
        {
          "internalType": "address",
          "name": "account",
          "type": "address"
        }
      ],
      "name": "hasRole",
      "outputs": [
        {
          "internalType": "bool",
          "name": "",
          "type": "bool"
        }
      ],
      "stateMutability": "view",
      "type": "function"
    },
    {
      "inputs": [
        {
          "internalType": "address",
          "name": "_auditor",
          "type": "address"
        }
      ],
      "name": "removeAuditor",
      "outputs": [],
      "stateMutability": "nonpayable",
      "type": "function"
    },
    {
      "inputs": [
        {
          "internalType": "bytes32",
          "name": "role",
          "type": "bytes32"
        },
        {
          "internalType": "address",
          "name": "callerConfirmation",
          "type": "address"
        }
      ],
      "name": "renounceRole",
      "outputs": [],
      "stateMutability": "nonpayable",
      "type": "function"
    },
    {
      "inputs": [
        {
          "internalType": "uint256",
          "name": "_auditRecordId",
          "type": "uint256"
        }
      ],
      "name": "revokeAuditRecord",
      "outputs": [],
      "stateMutability": "nonpayable",
      "type": "function"
    },
    {
      "inputs": [
        {
          "internalType": "bytes32",
          "name": "role",
          "type": "bytes32"
        },
        {
          "internalType": "address",
          "name": "account",
          "type": "address"
        }
      ],
      "name": "revokeRole",
      "outputs": [],
      "stateMutability": "nonpayable",
      "type": "function"
    },
    {
      "inputs": [
        {
          "internalType": "bytes4",
          "name": "interfaceId",
          "type": "bytes4"
        }
      ],
      "name": "supportsInterface",
      "outputs": [
        {
          "internalType": "bool",
          "name": "",
          "type": "bool"
        }
      ],
      "stateMutability": "view",
      "type": "function"
    },
    {
      "inputs": [
        {
          "internalType": "uint256",
          "name": "_auditRecordId",
          "type": "uint256"
        },
        {
          "internalType": "string",
          "name": "_newIpfsHash",
          "type": "string"
        }
      ],
      "name": "updateAuditRecord",
      "outputs": [],
      "stateMutability": "nonpayable",
      "type": "function"
    }
  ],
  "bytecode": "0x6080604052600060035534801561001557600080fd5b50604051620015143803806200151483398101604081905261003691610169565b6001600160a01b0381166100905760405162461bcd60e51b815260206004820152601c60248201527f496e76616c6964204e465420636f6e7472616374206164647265737300000000604482015260640160405180910390fd5b600480546001600160a01b0319166001600160a01b0383161790556100b66000336100bd565b5050610199565b6000828152602081815260408083206001600160a01b038516845290915281205460ff1661015f576000838152602081815260408083206001600160a01b03861684529091529020805460ff191660011790556101173390565b6001600160a01b0316826001600160a01b0316847f2f8788117e7eff1d82e926ec794901d17c78024a50270940304540a733656f0d60405160405180910390a4506001610163565b5060005b92915050565b60006020828403121561017b57600080fd5b81516001600160a01b038116811461019257600080fd5b9392505050565b61136b80620001a96000396000f3fe608060405234801561001057600080fd5b50600436106101115760003560e01c80638579229f116100ad578063c9e3984411610071578063c9e3984414610274578063d547741f14610287578063e429cef11461029a578063e6116cfd146102ad578063e74e786d146102c057600080fd5b80638579229f146101fb57806391d148541461020e578063a217fddf14610221578063ba5ed88a14610229578063c36109af1461025457600080fd5b806301ffc9a714610116578063248a9ca31461013e5780632f2ff15d1461016f57806336568abe146101845780633f76730f146101975780634afb29c6146101b75780635949ea69146101c05780636e1d616e146101d35780637574ad32146101e8575b600080fd5b610129610124366004610d72565b6102e4565b60405190151581526020015b60405180910390f35b61016161014c366004610da3565b60009081526020819052604090206001015490565b604051908152602001610135565b61018261017d366004610dd1565b61031b565b005b610182610192366004610dd1565b610346565b6101aa6101a5366004610da3565b61037e565b6040516101359190610e47565b61016160035481565b6101826101ce366004610ea1565b6104a6565b61016160008051602061131683398151915281565b6101616101f6366004610f1d565b6105e7565b610182610209366004610ea1565b610618565b61012961021c366004610dd1565b610812565b610161600081565b60045461023c906001600160a01b031681565b6040516001600160a01b039091168152602001610135565b610267610262366004610da3565b61083b565b6040516101359190610f3f565b610182610282366004610da3565b61089d565b610182610295366004610dd1565b6109a4565b6101826102a8366004610f83565b6109c9565b6101826102bb366004610f83565b610a89565b6102d36102ce366004610da3565b610ae4565b604051610135959493929190610fa0565b60006001600160e01b03198216637965db0b60e01b148061031557506301ffc9a760e01b6001600160e01b03198316145b92915050565b60008281526020819052604090206001015461033681610baa565b6103408383610bb7565b50505050565b6001600160a01b038116331461036f5760405163334bd91960e11b815260040160405180910390fd5b6103798282610c49565b505050565b6103bb6040518060a001604052806000815260200160006001600160a01b0316815260200160608152602001600081526020016000151581525090565b600082815260016020818152604092839020835160a08101855281548152928101546001600160a01b031691830191909152600281018054929391929184019161040490610fe3565b80601f016020809104026020016040519081016040528092919081815260200182805461043090610fe3565b801561047d5780601f106104525761010080835404028352916020019161047d565b820191906000526020600020905b81548152906001019060200180831161046057829003601f168201915b50505091835250506003820154602082015260049091015460ff16151560409091015292915050565b6000805160206113168339815191526104be81610baa565b816104e45760405162461bcd60e51b81526004016104db9061101d565b60405180910390fd5b6000848152600160208190526040909120908101546001600160a01b031633146105205760405162461bcd60e51b81526004016104db90611061565b600481015460ff161561058b5760405162461bcd60e51b815260206004820152602d60248201527f417564697452656769737472793a2043616e6e6f74207570646174652061207260448201526c195d9bdad959081c9958dbdc99609a1b60648201526084016104db565b6002810161059a848683611123565b50428160030181905550847f7d88a6413bdea2f765837b2027d150e8d9eff6811a00e7b32ce22566577ae3218585426040516105d8939291906111de565b60405180910390a25050505050565b6002602052816000526040600020818154811061060357600080fd5b90600052602060002001600091509150505481565b60008051602061131683398151915261063081610baa565b8361063a81610cb4565b6106955760405162461bcd60e51b815260206004820152602660248201527f417564697452656769737472793a204275696c64696e6720646f6573206e6f7460448201526508195e1a5cdd60d21b60648201526084016104db565b826106b25760405162461bcd60e51b81526004016104db9061101d565b600380549060006106c283611217565b91905055506040518060a00160405280868152602001336001600160a01b0316815260200185858080601f016020809104026020016040519081016040528093929190818152602001838380828437600092018290525093855250504260208085019190915260409384018390526003548352600180825292849020855181559085015192810180546001600160a01b0319166001600160a01b03909416939093179092555090820151600282019061077b908261123e565b5060608201516003828101919091556080909201516004909101805460ff1916911515919091179055600086815260026020908152604080832084548154600181018355918552929093209092015590549051339187917f92a0387dc7c67d734c77ccfb7ffb948823976ffc08e374f17223ceab2abfa8e490610803908990899042906111de565b60405180910390a45050505050565b6000918252602082815260408084206001600160a01b0393909316845291905290205460ff1690565b60008181526002602090815260409182902080548351818402810184019094528084526060939283018282801561089157602002820191906000526020600020905b81548152602001906001019080831161087d575b50505050509050919050565b6000805160206113168339815191526108b581610baa565b6000828152600160208190526040909120908101546001600160a01b031633146108f15760405162461bcd60e51b81526004016104db90611061565b600481015460ff16156109545760405162461bcd60e51b815260206004820152602560248201527f417564697452656769737472793a205265636f726420616c72656164792072656044820152641d9bdad95960da1b60648201526084016104db565b60048101805460ff1916600117905560405183907fe4839e81aa65ee9120ee35c9291915fa224f6ae0bfab747215ee7f0b5368a193906109979042815260200190565b60405180910390a2505050565b6000828152602081905260409020600101546109bf81610baa565b6103408383610c49565b60006109d481610baa565b6001600160a01b038216610a395760405162461bcd60e51b815260206004820152602660248201527f417564697452656769737472793a20496e76616c69642061756469746f72206160448201526564647265737360d01b60648201526084016104db565b610a516000805160206113168339815191528361031b565b6040516001600160a01b038316907f2c31044378cc14466459f09320dd4057d7ad6e99b194c0800c78227383a2529690600090a25050565b6000610a9481610baa565b610aac600080516020611316833981519152836109a4565b6040516001600160a01b038316907fd3e803f2dfdacd206b7d19aa46d847206386d84e3dc6b8de0926e54affa6fddc90600090a25050565b60016020819052600091825260409091208054918101546002820180546001600160a01b039092169291610b1790610fe3565b80601f0160208091040260200160405190810160405280929190818152602001828054610b4390610fe3565b8015610b905780601f10610b6557610100808354040283529160200191610b90565b820191906000526020600020905b815481529060010190602001808311610b7357829003601f168201915b50505050600383015460049093015491929160ff16905085565b610bb48133610d35565b50565b6000610bc38383610812565b610c41576000838152602081815260408083206001600160a01b03861684529091529020805460ff19166001179055610bf93390565b6001600160a01b0316826001600160a01b0316847f2f8788117e7eff1d82e926ec794901d17c78024a50270940304540a733656f0d60405160405180910390a4506001610315565b506000610315565b6000610c558383610812565b15610c41576000838152602081815260408083206001600160a01b0386168085529252808320805460ff1916905551339286917ff6391f5c32d9c69d2a47ea670b442974b53935d1edc7fd64eb21e047a839171b9190a4506001610315565b600480546040516331a9108f60e11b815291820183905260009182916001600160a01b031690636352211e90602401602060405180830381865afa158015610d00573d6000803e3d6000fd5b505050506040513d601f19601f82011682018060405250810190610d2491906112f8565b6001600160a01b0316141592915050565b610d3f8282610812565b610d6e5760405163e2517d3f60e01b81526001600160a01b0382166004820152602481018390526044016104db565b5050565b600060208284031215610d8457600080fd5b81356001600160e01b031981168114610d9c57600080fd5b9392505050565b600060208284031215610db557600080fd5b5035919050565b6001600160a01b0381168114610bb457600080fd5b60008060408385031215610de457600080fd5b823591506020830135610df681610dbc565b809150509250929050565b6000815180845260005b81811015610e2757602081850181015186830182015201610e0b565b506000602082860101526020601f19601f83011685010191505092915050565b602081528151602082015260018060a01b0360208301511660408201526000604083015160a06060840152610e7f60c0840182610e01565b9050606084015160808401526080840151151560a08401528091505092915050565b600080600060408486031215610eb657600080fd5b83359250602084013567ffffffffffffffff80821115610ed557600080fd5b818601915086601f830112610ee957600080fd5b813581811115610ef857600080fd5b876020828501011115610f0a57600080fd5b6020830194508093505050509250925092565b60008060408385031215610f3057600080fd5b50508035926020909101359150565b6020808252825182820181905260009190848201906040850190845b81811015610f7757835183529284019291840191600101610f5b565b50909695505050505050565b600060208284031215610f9557600080fd5b8135610d9c81610dbc565b8581526001600160a01b038516602082015260a060408201819052600090610fca90830186610e01565b6060830194909452509015156080909101529392505050565b600181811c90821680610ff757607f821691505b60208210810361101757634e487b7160e01b600052602260045260246000fd5b50919050565b60208082526024908201527f417564697452656769737472793a2049504653206861736820697320726571756040820152631a5c995960e21b606082015260800190565b60208082526027908201527f417564697452656769737472793a204e6f7420746865206f726967696e616c2060408201526630bab234ba37b960c91b606082015260800190565b634e487b7160e01b600052604160045260246000fd5b601f821115610379576000816000526020600020601f850160051c810160208610156110e75750805b601f850160051c820191505b81811015611106578281556001016110f3565b505050505050565b600019600383901b1c191660019190911b1790565b67ffffffffffffffff83111561113b5761113b6110a8565b61114f836111498354610fe3565b836110be565b6000601f84116001811461117d576000851561116b5750838201355b611175868261110e565b8455506111d7565b600083815260209020601f19861690835b828110156111ae578685013582556020948501946001909201910161118e565b50868210156111cb5760001960f88860031b161c19848701351681555b505060018560011b0183555b5050505050565b604081528260408201528284606083013760006060848301015260006060601f19601f8601168301019050826020830152949350505050565b60006001820161123757634e487b7160e01b600052601160045260246000fd5b5060010190565b815167ffffffffffffffff811115611258576112586110a8565b61126c816112668454610fe3565b846110be565b602080601f83116001811461129b57600084156112895750858301515b611293858261110e565b865550611106565b600085815260208120601f198616915b828110156112ca578886015182559484019460019091019084016112ab565b50858210156112e85787850151600019600388901b60f8161c191681555b5050505050600190811b01905550565b60006020828403121561130a57600080fd5b8151610d9c81610dbc56fe59a1c48e5837ad7a7f3dcedcbe129bf3249ec4fbf651fd4f5e2600ead39fe2f5a2646970667358221220a155bdb1c8a0165e424a843e49fac40b3024ecb814eaaf51cf2c8ef3c3aa97a764736f6c63430008180033",
  "linkReferences": {},
  "deployedLinkReferences": {}
}