{
  "_format": "hh-sol-artifact-1",
  "contractName": "AuditRegistry",
  "sourceName": "contracts/audit/AuditRegistry.sol",
  "abi": [
    {
      "inputs": [],
      "stateMutability": "nonpayable",
      "type": "constructor"
    },
    {
      "inputs": [],
      "name": "AccessControlBadConfirmation",
      "type": "error"
    },
    {
      "inputs": [
        {
          "internalType": "address",
          "name": "account",
          "type": "address"
        },
        {
          "internalType": "bytes32",
          "name": "neededRole",
          "type": "bytes32"
        }
      ],
      "name": "AccessControlUnauthorizedAccount",
      "type": "error"
    },
    {
      "inputs": [],
      "name": "DuplicateIpfsHash",
      "type": "error"
    },
    {
      "anonymous": false,
      "inputs": [
        {
          "indexed": true,
          "internalType": "uint256",
          "name": "recordId",
          "type": "uint256"
        },
        {
          "indexed": true,
          "internalType": "address",
          "name": "building",
          "type": "address"
        },
        {
          "indexed": true,
          "internalType": "address",
          "name": "auditor",
          "type": "address"
        },
        {
          "indexed": false,
          "internalType": "string",
          "name": "ipfsHash",
          "type": "string"
        },
        {
          "indexed": false,
          "internalType": "uint256",
          "name": "timestamp",
          "type": "uint256"
        }
      ],
      "name": "AuditRecordAdded",
      "type": "event"
    },
    {
      "anonymous": false,
      "inputs": [
        {
          "indexed": true,
          "internalType": "uint256",
          "name": "recordId",
          "type": "uint256"
        },
        {
          "indexed": false,
          "internalType": "uint256",
          "name": "timestamp",
          "type": "uint256"
        }
      ],
      "name": "AuditRecordRevoked",
      "type": "event"
    },
    {
      "anonymous": false,
      "inputs": [
        {
          "indexed": true,
          "internalType": "uint256",
          "name": "recordId",
          "type": "uint256"
        },
        {
          "indexed": false,
          "internalType": "string",
          "name": "newIpfsHash",
          "type": "string"
        },
        {
          "indexed": false,
          "internalType": "uint256",
          "name": "timestamp",
          "type": "uint256"
        }
      ],
      "name": "AuditRecordUpdated",
      "type": "event"
    },
    {
      "anonymous": false,
      "inputs": [
        {
          "indexed": true,
          "internalType": "address",
          "name": "auditor",
          "type": "address"
        }
      ],
      "name": "AuditorAdded",
      "type": "event"
    },
    {
      "anonymous": false,
      "inputs": [
        {
          "indexed": true,
          "internalType": "address",
          "name": "auditor",
          "type": "address"
        }
      ],
      "name": "AuditorRemoved",
      "type": "event"
    },
    {
      "anonymous": false,
      "inputs": [
        {
          "indexed": true,
          "internalType": "bytes32",
          "name": "role",
          "type": "bytes32"
        },
        {
          "indexed": true,
          "internalType": "bytes32",
          "name": "previousAdminRole",
          "type": "bytes32"
        },
        {
          "indexed": true,
          "internalType": "bytes32",
          "name": "newAdminRole",
          "type": "bytes32"
        }
      ],
      "name": "RoleAdminChanged",
      "type": "event"
    },
    {
      "anonymous": false,
      "inputs": [
        {
          "indexed": true,
          "internalType": "bytes32",
          "name": "role",
          "type": "bytes32"
        },
        {
          "indexed": true,
          "internalType": "address",
          "name": "account",
          "type": "address"
        },
        {
          "indexed": true,
          "internalType": "address",
          "name": "sender",
          "type": "address"
        }
      ],
      "name": "RoleGranted",
      "type": "event"
    },
    {
      "anonymous": false,
      "inputs": [
        {
          "indexed": true,
          "internalType": "bytes32",
          "name": "role",
          "type": "bytes32"
        },
        {
          "indexed": true,
          "internalType": "address",
          "name": "account",
          "type": "address"
        },
        {
          "indexed": true,
          "internalType": "address",
          "name": "sender",
          "type": "address"
        }
      ],
      "name": "RoleRevoked",
      "type": "event"
    },
    {
      "inputs": [],
      "name": "AUDITOR_ROLE",
      "outputs": [
        {
          "internalType": "bytes32",
          "name": "",
          "type": "bytes32"
        }
      ],
      "stateMutability": "view",
      "type": "function"
    },
    {
      "inputs": [],
      "name": "DEFAULT_ADMIN_ROLE",
      "outputs": [
        {
          "internalType": "bytes32",
          "name": "",
          "type": "bytes32"
        }
      ],
      "stateMutability": "view",
      "type": "function"
    },
    {
      "inputs": [
        {
          "internalType": "address",
          "name": "_building",
          "type": "address"
        },
        {
          "internalType": "string",
          "name": "_ipfsHash",
          "type": "string"
        }
      ],
      "name": "addAuditRecord",
      "outputs": [],
      "stateMutability": "nonpayable",
      "type": "function"
    },
    {
      "inputs": [],
      "name": "auditRecordCounter",
      "outputs": [
        {
          "internalType": "uint256",
          "name": "",
          "type": "uint256"
        }
      ],
      "stateMutability": "view",
      "type": "function"
    },
    {
      "inputs": [
        {
          "internalType": "uint256",
          "name": "",
          "type": "uint256"
        }
      ],
      "name": "auditRecords",
      "outputs": [
        {
          "internalType": "address",
          "name": "building",
          "type": "address"
        },
        {
          "internalType": "address",
          "name": "auditor",
          "type": "address"
        },
        {
          "internalType": "uint64",
          "name": "timestamp",
          "type": "uint64"
        },
        {
          "internalType": "bool",
          "name": "revoked",
          "type": "bool"
        },
        {
          "internalType": "string",
          "name": "ipfsHash",
          "type": "string"
        }
      ],
      "stateMutability": "view",
      "type": "function"
    },
    {
      "inputs": [
        {
          "internalType": "address",
          "name": "",
          "type": "address"
        },
        {
          "internalType": "uint256",
          "name": "",
          "type": "uint256"
        }
      ],
      "name": "buildingAuditRecords",
      "outputs": [
        {
          "internalType": "uint256",
          "name": "",
          "type": "uint256"
        }
      ],
      "stateMutability": "view",
      "type": "function"
    },
    {
      "inputs": [
        {
          "internalType": "uint256",
          "name": "_recordId",
          "type": "uint256"
        }
      ],
      "name": "getAuditRecordDetails",
      "outputs": [
        {
          "components": [
            {
              "internalType": "address",
              "name": "building",
              "type": "address"
            },
            {
              "internalType": "address",
              "name": "auditor",
              "type": "address"
            },
            {
              "internalType": "uint64",
              "name": "timestamp",
              "type": "uint64"
            },
            {
              "internalType": "bool",
              "name": "revoked",
              "type": "bool"
            },
            {
              "internalType": "string",
              "name": "ipfsHash",
              "type": "string"
            }
          ],
          "internalType": "struct AuditRegistry.AuditRecord",
          "name": "",
          "type": "tuple"
        }
      ],
      "stateMutability": "view",
      "type": "function"
    },
    {
      "inputs": [
        {
          "internalType": "address",
          "name": "_building",
          "type": "address"
        }
      ],
      "name": "getAuditRecordsByBuilding",
      "outputs": [
        {
          "internalType": "uint256[]",
          "name": "",
          "type": "uint256[]"
        }
      ],
      "stateMutability": "view",
      "type": "function"
    },
    {
      "inputs": [
        {
          "internalType": "bytes32",
          "name": "role",
          "type": "bytes32"
        }
      ],
      "name": "getRoleAdmin",
      "outputs": [
        {
          "internalType": "bytes32",
          "name": "",
          "type": "bytes32"
        }
      ],
      "stateMutability": "view",
      "type": "function"
    },
    {
      "inputs": [
        {
          "internalType": "bytes32",
          "name": "role",
          "type": "bytes32"
        },
        {
          "internalType": "address",
          "name": "account",
          "type": "address"
        }
      ],
      "name": "grantRole",
      "outputs": [],
      "stateMutability": "nonpayable",
      "type": "function"
    },
    {
      "inputs": [
        {
          "internalType": "bytes32",
          "name": "role",
          "type": "bytes32"
        },
        {
          "internalType": "address",
          "name": "account",
          "type": "address"
        }
      ],
      "name": "hasRole",
      "outputs": [
        {
          "internalType": "bool",
          "name": "",
          "type": "bool"
        }
      ],
      "stateMutability": "view",
      "type": "function"
    },
    {
      "inputs": [
        {
          "internalType": "bytes32",
          "name": "role",
          "type": "bytes32"
        },
        {
          "internalType": "address",
          "name": "callerConfirmation",
          "type": "address"
        }
      ],
      "name": "renounceRole",
      "outputs": [],
      "stateMutability": "nonpayable",
      "type": "function"
    },
    {
      "inputs": [
        {
          "internalType": "uint256",
          "name": "_recordId",
          "type": "uint256"
        }
      ],
      "name": "revokeAuditRecord",
      "outputs": [],
      "stateMutability": "nonpayable",
      "type": "function"
    },
    {
      "inputs": [
        {
          "internalType": "bytes32",
          "name": "role",
          "type": "bytes32"
        },
        {
          "internalType": "address",
          "name": "account",
          "type": "address"
        }
      ],
      "name": "revokeRole",
      "outputs": [],
      "stateMutability": "nonpayable",
      "type": "function"
    },
    {
      "inputs": [
        {
          "internalType": "bytes4",
          "name": "interfaceId",
          "type": "bytes4"
        }
      ],
      "name": "supportsInterface",
      "outputs": [
        {
          "internalType": "bool",
          "name": "",
          "type": "bool"
        }
      ],
      "stateMutability": "view",
      "type": "function"
    },
    {
      "inputs": [
        {
          "internalType": "uint256",
          "name": "_recordId",
          "type": "uint256"
        },
        {
          "internalType": "string",
          "name": "_newIpfsHash",
          "type": "string"
        }
      ],
      "name": "updateAuditRecord",
      "outputs": [],
      "stateMutability": "nonpayable",
      "type": "function"
    }
  ],
  "bytecode": "0x608060405234801561001057600080fd5b5061001c600033610022565b506100ce565b6000828152602081815260408083206001600160a01b038516845290915281205460ff166100c4576000838152602081815260408083206001600160a01b03861684529091529020805460ff1916600117905561007c3390565b6001600160a01b0316826001600160a01b0316847f2f8788117e7eff1d82e926ec794901d17c78024a50270940304540a733656f0d60405160405180910390a45060016100c8565b5060005b92915050565b6113d9806100dd6000396000f3fe608060405234801561001057600080fd5b50600436106100e05760003560e01c80635949ea69116100875780635949ea69146101c25780636e1d616e146101d557806391d14854146101ea578063a217fddf146101fd578063c9e3984414610205578063d547741f14610218578063e74e786d1461022b578063e95cf4441461024f57600080fd5b806301ffc9a7146100e5578063129b25af1461010d578063237f4bcc14610122578063248a9ca3146101425780632f2ff15d1461017357806336568abe146101865780633f76730f146101995780634afb29c6146101b9575b600080fd5b6100f86100f3366004610d84565b610262565b60405190151581526020015b60405180910390f35b61012061011b366004610e12565b610299565b005b610135610130366004610e64565b6104f3565b6040516101049190610e7f565b610165610150366004610ec3565b60009081526020819052604090206001015490565b604051908152602001610104565b610120610181366004610edc565b61055f565b610120610194366004610edc565b61058a565b6101ac6101a7366004610ec3565b6105c2565b6040516101049190610f4e565b61016560015481565b6101206101d0366004610fb0565b6106ed565b61016560008051602061138483398151915281565b6100f86101f8366004610edc565b61087e565b610165600081565b610120610213366004610ec3565b6108a7565b610120610226366004610edc565b6109ab565b61023e610239366004610ec3565b6109d0565b604051610104959493929190610fe2565b61016561025d366004611030565b610aa7565b60006001600160e01b03198216637965db0b60e01b148061029357506301ffc9a760e01b6001600160e01b03198316145b92915050565b6000805160206113848339815191526102b181610ad8565b6001600160a01b03841661031c5760405162461bcd60e51b815260206004820152602760248201527f417564697452656769737472793a20496e76616c6964206275696c64696e67206044820152666164647265737360c81b60648201526084015b60405180910390fd5b816103395760405162461bcd60e51b81526004016103139061105a565b610344848484610ae5565b1561036257604051635d922ec360e01b815260040160405180910390fd5b600180549060006103728361109e565b90915550506001546040805160a0810182526001600160a01b0387168152336020808301919091526001600160401b03421682840152600060608301528251601f8701829004820281018201909352858352909160808301918790879081908401838280828437600092018290525093909452505083815260026020818152604092839020855181546001600160a01b039182166001600160a01b0319909116178255918601516001820180549588015160608901511515600160e01b0260ff60e01b196001600160401b03909216600160a01b026001600160e01b03199098169390951692909217959095171691909117909255608084015191925082019061047c908261117a565b5050506001600160a01b0385166000818152600360209081526040808320805460018101825590845291909220018390555133919083907f9238fb7e1f523c52ddf4024bdcb41357b62ed007c90dac38ee13e1c72e0c0a80906104e490899089904290611233565b60405180910390a45050505050565b6001600160a01b03811660009081526003602090815260409182902080548351818402810184019094528084526060939283018282801561055357602002820191906000526020600020905b81548152602001906001019080831161053f575b50505050509050919050565b60008281526020819052604090206001015461057a81610ad8565b6105848383610c24565b50505050565b6001600160a01b03811633146105b35760405163334bd91960e11b815260040160405180910390fd5b6105bd8282610cb6565b505050565b6040805160a0810182526000808252602082018190529181018290526060808201929092526080810191909152600082815260026020818152604092839020835160a08101855281546001600160a01b039081168252600183015490811693820193909352600160a01b83046001600160401b031694810194909452600160e01b90910460ff16151560608401529081018054608084019190610664906110db565b80601f0160208091040260200160405190810160405280929190818152602001828054610690906110db565b80156106dd5780601f106106b2576101008083540402835291602001916106dd565b820191906000526020600020905b8154815290600101906020018083116106c057829003601f168201915b5050505050815250509050919050565b60008051602061138483398151915261070581610ad8565b816107225760405162461bcd60e51b81526004016103139061105a565b600084815260026020526040902060018101546001600160a01b0316331461075c5760405162461bcd60e51b81526004016103139061126c565b6001810154600160e01b900460ff16156107ce5760405162461bcd60e51b815260206004820152602d60248201527f417564697452656769737472793a2043616e6e6f74207570646174652061207260448201526c195d9bdad959081c9958dbdc99609a1b6064820152608401610313565b80546107e4906001600160a01b03168585610ae5565b1561080257604051635d922ec360e01b815260040160405180910390fd5b600281016108118486836112b3565b50428160010160146101000a8154816001600160401b0302191690836001600160401b03160217905550847f7d88a6413bdea2f765837b2027d150e8d9eff6811a00e7b32ce22566577ae32185854260405161086f93929190611233565b60405180910390a25050505050565b6000918252602082815260408084206001600160a01b0393909316845291905290205460ff1690565b6000805160206113848339815191526108bf81610ad8565b600082815260026020526040902060018101546001600160a01b031633146108f95760405162461bcd60e51b81526004016103139061126c565b6001810154600160e01b900460ff16156109555760405162461bcd60e51b815260206004820152601e60248201527f417564697452656769737472793a20416c7265616479207265766f6b656400006044820152606401610313565b60018101805460ff60e01b1916600160e01b17905560405183907fe4839e81aa65ee9120ee35c9291915fa224f6ae0bfab747215ee7f0b5368a1939061099e9042815260200190565b60405180910390a2505050565b6000828152602081905260409020600101546109c681610ad8565b6105848383610cb6565b60026020819052600091825260409091208054600182015492820180546001600160a01b039283169492831693600160a01b84046001600160401b031693600160e01b900460ff16929091610a24906110db565b80601f0160208091040260200160405190810160405280929190818152602001828054610a50906110db565b8015610a9d5780601f10610a7257610100808354040283529160200191610a9d565b820191906000526020600020905b815481529060010190602001808311610a8057829003601f168201915b5050505050905085565b60036020528160005260406000208181548110610ac357600080fd5b90600052602060002001600091509150505481565b610ae28133610d21565b50565b6001600160a01b0383166000908152600360205260408120815b8154811015610c1a57610c0260026000848481548110610b2157610b2161136d565b906000526020600020015481526020019081526020016000206002018054610b48906110db565b80601f0160208091040260200160405190810160405280929190818152602001828054610b74906110db565b8015610bc15780601f10610b9657610100808354040283529160200191610bc1565b820191906000526020600020905b815481529060010190602001808311610ba457829003601f168201915b505050505086868080601f016020809104026020016040519081016040528093929190818152602001838380828437600092019190915250610d5e92505050565b15610c1257600192505050610c1d565b600101610aff565b50505b9392505050565b6000610c30838361087e565b610cae576000838152602081815260408083206001600160a01b03861684529091529020805460ff19166001179055610c663390565b6001600160a01b0316826001600160a01b0316847f2f8788117e7eff1d82e926ec794901d17c78024a50270940304540a733656f0d60405160405180910390a4506001610293565b506000610293565b6000610cc2838361087e565b15610cae576000838152602081815260408083206001600160a01b0386168085529252808320805460ff1916905551339286917ff6391f5c32d9c69d2a47ea670b442974b53935d1edc7fd64eb21e047a839171b9190a4506001610293565b610d2b828261087e565b610d5a5760405163e2517d3f60e01b81526001600160a01b038216600482015260248101839052604401610313565b5050565b600081518351148015610c1d575081805190602001208380519060200120149392505050565b600060208284031215610d9657600080fd5b81356001600160e01b031981168114610c1d57600080fd5b80356001600160a01b0381168114610dc557600080fd5b919050565b60008083601f840112610ddc57600080fd5b5081356001600160401b03811115610df357600080fd5b602083019150836020828501011115610e0b57600080fd5b9250929050565b600080600060408486031215610e2757600080fd5b610e3084610dae565b925060208401356001600160401b03811115610e4b57600080fd5b610e5786828701610dca565b9497909650939450505050565b600060208284031215610e7657600080fd5b610c1d82610dae565b6020808252825182820181905260009190848201906040850190845b81811015610eb757835183529284019291840191600101610e9b565b50909695505050505050565b600060208284031215610ed557600080fd5b5035919050565b60008060408385031215610eef57600080fd5b82359150610eff60208401610dae565b90509250929050565b6000815180845260005b81811015610f2e57602081850181015186830182015201610f12565b506000602082860101526020601f19601f83011685010191505092915050565b60208152600060018060a01b03808451166020840152806020850151166040840152506001600160401b036040840151166060830152606083015115156080830152608083015160a080840152610fa860c0840182610f08565b949350505050565b600080600060408486031215610fc557600080fd5b8335925060208401356001600160401b03811115610e4b57600080fd5b6001600160a01b038681168252851660208201526001600160401b0384166040820152821515606082015260a06080820181905260009061102590830184610f08565b979650505050505050565b6000806040838503121561104357600080fd5b61104c83610dae565b946020939093013593505050565b60208082526024908201527f417564697452656769737472793a2049504653206861736820697320726571756040820152631a5c995960e21b606082015260800190565b6000600182016110be57634e487b7160e01b600052601160045260246000fd5b5060010190565b634e487b7160e01b600052604160045260246000fd5b600181811c908216806110ef57607f821691505b60208210810361110f57634e487b7160e01b600052602260045260246000fd5b50919050565b601f8211156105bd576000816000526020600020601f850160051c8101602086101561113e5750805b601f850160051c820191505b8181101561115d5782815560010161114a565b505050505050565b600019600383901b1c191660019190911b1790565b81516001600160401b03811115611193576111936110c5565b6111a7816111a184546110db565b84611115565b602080601f8311600181146111d657600084156111c45750858301515b6111ce8582611165565b86555061115d565b600085815260208120601f198616915b82811015611205578886015182559484019460019091019084016111e6565b50858210156112235787850151600019600388901b60f8161c191681555b5050505050600190811b01905550565b604081528260408201528284606083013760006060848301015260006060601f19601f8601168301019050826020830152949350505050565b60208082526027908201527f417564697452656769737472793a204e6f7420746865206f726967696e616c2060408201526630bab234ba37b960c91b606082015260800190565b6001600160401b038311156112ca576112ca6110c5565b6112de836112d883546110db565b83611115565b6000601f84116001811461130c57600085156112fa5750838201355b6113048682611165565b845550611366565b600083815260209020601f19861690835b8281101561133d578685013582556020948501946001909201910161131d565b508682101561135a5760001960f88860031b161c19848701351681555b505060018560011b0183555b5050505050565b634e487b7160e01b600052603260045260246000fdfe59a1c48e5837ad7a7f3dcedcbe129bf3249ec4fbf651fd4f5e2600ead39fe2f5a264697066735822122086848fe47a0469f926563ec1db36a3e376a7415f364d73d1ef19f6e7fe6a755f64736f6c63430008180033",
  "linkReferences": {},
  "deployedLinkReferences": {}
}