{
  "_format": "hh-sol-artifact-1",
  "contractName": "AutoCompounder",
  "sourceName": "contracts/erc4626/AutoCompounder.sol",
  "abi": [
    {
      "inputs": [
        {
          "internalType": "address",
          "name": "uniswapV2Router_",
          "type": "address"
        },
        {
          "internalType": "address",
          "name": "vault_",
          "type": "address"
        },
        {
          "internalType": "address",
          "name": "usdc_",
          "type": "address"
        },
        {
          "internalType": "string",
          "name": "name_",
          "type": "string"
        },
        {
          "internalType": "string",
          "name": "symbol_",
          "type": "string"
        }
      ],
      "stateMutability": "payable",
      "type": "constructor"
    },
    {
      "inputs": [
        {
          "internalType": "address",
          "name": "target",
          "type": "address"
        }
      ],
      "name": "AddressEmptyCode",
      "type": "error"
    },
    {
      "inputs": [
        {
          "internalType": "address",
          "name": "account",
          "type": "address"
        }
      ],
      "name": "AddressInsufficientBalance",
      "type": "error"
    },
    {
      "inputs": [],
      "name": "FailedInnerCall",
      "type": "error"
    },
    {
      "inputs": [
        {
          "internalType": "address",
          "name": "owner",
          "type": "address"
        }
      ],
      "name": "OwnableInvalidOwner",
      "type": "error"
    },
    {
      "inputs": [
        {
          "internalType": "address",
          "name": "account",
          "type": "address"
        }
      ],
      "name": "OwnableUnauthorizedAccount",
      "type": "error"
    },
    {
      "inputs": [
        {
          "internalType": "address",
          "name": "token",
          "type": "address"
        }
      ],
      "name": "SafeERC20FailedOperation",
      "type": "error"
    },
    {
      "inputs": [],
      "name": "ZeroReward",
      "type": "error"
    },
    {
      "anonymous": false,
      "inputs": [
        {
          "indexed": true,
          "internalType": "address",
          "name": "owner",
          "type": "address"
        },
        {
          "indexed": true,
          "internalType": "address",
          "name": "spender",
          "type": "address"
        },
        {
          "indexed": false,
          "internalType": "uint256",
          "name": "amount",
          "type": "uint256"
        }
      ],
      "name": "Approval",
      "type": "event"
    },
    {
      "anonymous": false,
      "inputs": [
        {
          "indexed": false,
          "internalType": "uint256",
          "name": "depositedUnderlying",
          "type": "uint256"
        }
      ],
      "name": "Claim",
      "type": "event"
    },
    {
      "anonymous": false,
      "inputs": [
        {
          "indexed": true,
          "internalType": "address",
          "name": "createdToken",
          "type": "address"
        }
      ],
      "name": "CreatedToken",
      "type": "event"
    },
    {
      "anonymous": false,
      "inputs": [
        {
          "indexed": true,
          "internalType": "address",
          "name": "caller",
          "type": "address"
        },
        {
          "indexed": false,
          "internalType": "uint256",
          "name": "assets",
          "type": "uint256"
        },
        {
          "indexed": false,
          "internalType": "uint256",
          "name": "aTokenMinted",
          "type": "uint256"
        }
      ],
      "name": "Deposit",
      "type": "event"
    },
    {
      "anonymous": false,
      "inputs": [
        {
          "indexed": true,
          "internalType": "address",
          "name": "previousOwner",
          "type": "address"
        },
        {
          "indexed": true,
          "internalType": "address",
          "name": "newOwner",
          "type": "address"
        }
      ],
      "name": "OwnershipTransferred",
      "type": "event"
    },
    {
      "anonymous": false,
      "inputs": [
        {
          "indexed": true,
          "internalType": "address",
          "name": "from",
          "type": "address"
        },
        {
          "indexed": true,
          "internalType": "address",
          "name": "to",
          "type": "address"
        },
        {
          "indexed": false,
          "internalType": "uint256",
          "name": "amount",
          "type": "uint256"
        }
      ],
      "name": "Transfer",
      "type": "event"
    },
    {
      "anonymous": false,
      "inputs": [
        {
          "indexed": true,
          "internalType": "address",
          "name": "caller",
          "type": "address"
        },
        {
          "indexed": false,
          "internalType": "uint256",
          "name": "aTokenAmount",
          "type": "uint256"
        },
        {
          "indexed": false,
          "internalType": "uint256",
          "name": "underlyingAmount",
          "type": "uint256"
        }
      ],
      "name": "Withdraw",
      "type": "event"
    },
    {
      "inputs": [],
      "name": "DOMAIN_SEPARATOR",
      "outputs": [
        {
          "internalType": "bytes32",
          "name": "",
          "type": "bytes32"
        }
      ],
      "stateMutability": "view",
      "type": "function"
    },
    {
      "inputs": [
        {
          "internalType": "address",
          "name": "",
          "type": "address"
        },
        {
          "internalType": "address",
          "name": "",
          "type": "address"
        }
      ],
      "name": "allowance",
      "outputs": [
        {
          "internalType": "uint256",
          "name": "",
          "type": "uint256"
        }
      ],
      "stateMutability": "view",
      "type": "function"
    },
    {
      "inputs": [
        {
          "internalType": "address",
          "name": "spender",
          "type": "address"
        },
        {
          "internalType": "uint256",
          "name": "amount",
          "type": "uint256"
        }
      ],
      "name": "approve",
      "outputs": [
        {
          "internalType": "bool",
          "name": "",
          "type": "bool"
        }
      ],
      "stateMutability": "nonpayable",
      "type": "function"
    },
    {
      "inputs": [],
      "name": "asset",
      "outputs": [
        {
          "internalType": "address",
          "name": "",
          "type": "address"
        }
      ],
      "stateMutability": "view",
      "type": "function"
    },
    {
      "inputs": [
        {
          "internalType": "address",
          "name": "",
          "type": "address"
        }
      ],
      "name": "balanceOf",
      "outputs": [
        {
          "internalType": "uint256",
          "name": "",
          "type": "uint256"
        }
      ],
      "stateMutability": "view",
      "type": "function"
    },
    {
      "inputs": [],
      "name": "claim",
      "outputs": [],
      "stateMutability": "nonpayable",
      "type": "function"
    },
    {
      "inputs": [],
      "name": "decimals",
      "outputs": [
        {
          "internalType": "uint8",
          "name": "",
          "type": "uint8"
        }
      ],
      "stateMutability": "view",
      "type": "function"
    },
    {
      "inputs": [
        {
          "internalType": "uint256",
          "name": "assets",
          "type": "uint256"
        },
        {
          "internalType": "address",
          "name": "receiver",
          "type": "address"
        }
      ],
      "name": "deposit",
      "outputs": [
        {
          "internalType": "uint256",
          "name": "amountToMint",
          "type": "uint256"
        }
      ],
      "stateMutability": "nonpayable",
      "type": "function"
    },
    {
      "inputs": [
        {
          "internalType": "address",
          "name": "token",
          "type": "address"
        }
      ],
      "name": "exchangeRate",
      "outputs": [
        {
          "internalType": "uint256",
          "name": "exchangeRate",
          "type": "uint256"
        }
      ],
      "stateMutability": "view",
      "type": "function"
    },
    {
      "inputs": [],
      "name": "name",
      "outputs": [
        {
          "internalType": "string",
          "name": "",
          "type": "string"
        }
      ],
      "stateMutability": "view",
      "type": "function"
    },
    {
      "inputs": [
        {
          "internalType": "address",
          "name": "",
          "type": "address"
        }
      ],
      "name": "nonces",
      "outputs": [
        {
          "internalType": "uint256",
          "name": "",
          "type": "uint256"
        }
      ],
      "stateMutability": "view",
      "type": "function"
    },
    {
      "inputs": [],
      "name": "owner",
      "outputs": [
        {
          "internalType": "address",
          "name": "",
          "type": "address"
        }
      ],
      "stateMutability": "view",
      "type": "function"
    },
    {
      "inputs": [
        {
          "internalType": "address",
          "name": "owner",
          "type": "address"
        },
        {
          "internalType": "address",
          "name": "spender",
          "type": "address"
        },
        {
          "internalType": "uint256",
          "name": "value",
          "type": "uint256"
        },
        {
          "internalType": "uint256",
          "name": "deadline",
          "type": "uint256"
        },
        {
          "internalType": "uint8",
          "name": "v",
          "type": "uint8"
        },
        {
          "internalType": "bytes32",
          "name": "r",
          "type": "bytes32"
        },
        {
          "internalType": "bytes32",
          "name": "s",
          "type": "bytes32"
        }
      ],
      "name": "permit",
      "outputs": [],
      "stateMutability": "nonpayable",
      "type": "function"
    },
    {
      "inputs": [],
      "name": "renounceOwnership",
      "outputs": [],
      "stateMutability": "nonpayable",
      "type": "function"
    },
    {
      "inputs": [],
      "name": "symbol",
      "outputs": [
        {
          "internalType": "string",
          "name": "",
          "type": "string"
        }
      ],
      "stateMutability": "view",
      "type": "function"
    },
    {
      "inputs": [],
      "name": "totalSupply",
      "outputs": [
        {
          "internalType": "uint256",
          "name": "",
          "type": "uint256"
        }
      ],
      "stateMutability": "view",
      "type": "function"
    },
    {
      "inputs": [
        {
          "internalType": "address",
          "name": "to",
          "type": "address"
        },
        {
          "internalType": "uint256",
          "name": "amount",
          "type": "uint256"
        }
      ],
      "name": "transfer",
      "outputs": [
        {
          "internalType": "bool",
          "name": "",
          "type": "bool"
        }
      ],
      "stateMutability": "nonpayable",
      "type": "function"
    },
    {
      "inputs": [
        {
          "internalType": "address",
          "name": "from",
          "type": "address"
        },
        {
          "internalType": "address",
          "name": "to",
          "type": "address"
        },
        {
          "internalType": "uint256",
          "name": "amount",
          "type": "uint256"
        }
      ],
      "name": "transferFrom",
      "outputs": [
        {
          "internalType": "bool",
          "name": "",
          "type": "bool"
        }
      ],
      "stateMutability": "nonpayable",
      "type": "function"
    },
    {
      "inputs": [
        {
          "internalType": "address",
          "name": "newOwner",
          "type": "address"
        }
      ],
      "name": "transferOwnership",
      "outputs": [],
      "stateMutability": "nonpayable",
      "type": "function"
    },
    {
      "inputs": [],
      "name": "uniswapV2Router",
      "outputs": [
        {
          "internalType": "address",
          "name": "",
          "type": "address"
        }
      ],
      "stateMutability": "view",
      "type": "function"
    },
    {
      "inputs": [],
      "name": "usdc",
      "outputs": [
        {
          "internalType": "address",
          "name": "",
          "type": "address"
        }
      ],
      "stateMutability": "view",
      "type": "function"
    },
    {
      "inputs": [],
      "name": "vault",
      "outputs": [
        {
          "internalType": "address",
          "name": "",
          "type": "address"
        }
      ],
      "stateMutability": "view",
      "type": "function"
    },
    {
      "inputs": [
        {
          "internalType": "uint256",
          "name": "aTokenAmount",
          "type": "uint256"
        },
        {
          "internalType": "address",
          "name": "receiver",
          "type": "address"
        }
      ],
      "name": "withdraw",
      "outputs": [
        {
          "internalType": "uint256",
          "name": "underlyingAmount",
          "type": "uint256"
        }
      ],
      "stateMutability": "nonpayable",
      "type": "function"
    }
  ],
  "bytecode": "0x610120604052604051620026773803806200267783398101604081905262000027916200067b565b338282866001600160a01b03166338d52e0f6040518163ffffffff1660e01b8152600401602060405180830381865afa15801562000069573d6000803e3d6000fd5b505050506040513d601f19601f820116820180604052508101906200008f91906200071e565b6001600160a01b031663313ce5676040518163ffffffff1660e01b8152600401602060405180830381865afa158015620000cd573d6000803e3d6000fd5b505050506040513d601f19601f82011682018060405250810190620000f3919062000743565b6000620001018482620007f9565b506001620001108382620007f9565b5060ff81166080524660a0526200012662000427565b60c0525050506001600160a01b0381166200015c57604051631e4fbdf760e01b8152600060048201526024015b60405180910390fd5b6200016781620004c3565b506001600160a01b038516620001d75760405162461bcd60e51b815260206004820152602e60248201527f4175746f436f6d706f756e6465723a20496e76616c696420556e69737761702060448201526d526f75746572206164647265737360901b606482015260840162000153565b6001600160a01b0384166200023d5760405162461bcd60e51b815260206004820152602560248201527f4175746f436f6d706f756e6465723a20496e76616c6964205661756c74206164604482015264647265737360d81b606482015260840162000153565b6001600160a01b038316620002a85760405162461bcd60e51b815260206004820152602a60248201527f4175746f436f6d706f756e6465723a20496e76616c6964205553444320746f6b604482015269656e206164647265737360b01b606482015260840162000153565b84600760006101000a8154816001600160a01b0302191690836001600160a01b03160217905550836001600160a01b03166338d52e0f6040518163ffffffff1660e01b8152600401602060405180830381865afa1580156200030e573d6000803e3d6000fd5b505050506040513d601f19601f820116820180604052508101906200033491906200071e565b6001600160a01b039081166101005284811660e052600980546001600160a01b0319169185169190911790556040805160028082526060820183529091602083019080368337505081516200039192600a92506020019062000515565b506009546001600160a01b031661010051600a600081548110620003b957620003b9620008c5565b906000526020600020016000600a600181548110620003dc57620003dc620008c5565b600091825260209091200180546001600160a01b039485166001600160a01b031990911617905581549383166101009190910a90810292021990921617905550620009599350505050565b60007f8b73c3c69bb8fe3d512ecc4cf759cc79239f7b179b0ffacaa9a75d522b39400f60006040516200045b9190620008db565b6040805191829003822060208301939093528101919091527fc89efdaa54c0f20c7adf612882df0950f5a951637e0307cdcb4c672f298b8bc660608201524660808201523060a082015260c00160405160208183030381529060405280519060200120905090565b600680546001600160a01b038381166001600160a01b0319831681179093556040519116919082907f8be0079c531659141344cd1fd0a4f28419497f9722a3daafe3b4186f6b6457e090600090a35050565b8280548282559060005260206000209081019282156200056d579160200282015b828111156200056d57825182546001600160a01b0319166001600160a01b0390911617825560209092019160019091019062000536565b506200057b9291506200057f565b5090565b5b808211156200057b576000815560010162000580565b80516001600160a01b0381168114620005ae57600080fd5b919050565b634e487b7160e01b600052604160045260246000fd5b600082601f830112620005db57600080fd5b81516001600160401b0380821115620005f857620005f8620005b3565b604051601f8301601f19908116603f01168101908282118183101715620006235762000623620005b3565b81604052838152602092508660208588010111156200064157600080fd5b600091505b8382101562000665578582018301518183018401529082019062000646565b6000602085830101528094505050505092915050565b600080600080600060a086880312156200069457600080fd5b6200069f8662000596565b9450620006af6020870162000596565b9350620006bf6040870162000596565b60608701519093506001600160401b0380821115620006dd57600080fd5b620006eb89838a01620005c9565b935060808801519150808211156200070257600080fd5b506200071188828901620005c9565b9150509295509295909350565b6000602082840312156200073157600080fd5b6200073c8262000596565b9392505050565b6000602082840312156200075657600080fd5b815160ff811681146200073c57600080fd5b600181811c908216806200077d57607f821691505b6020821081036200079e57634e487b7160e01b600052602260045260246000fd5b50919050565b601f821115620007f4576000816000526020600020601f850160051c81016020861015620007cf5750805b601f850160051c820191505b81811015620007f057828155600101620007db565b5050505b505050565b81516001600160401b03811115620008155762000815620005b3565b6200082d8162000826845462000768565b84620007a4565b602080601f8311600181146200086557600084156200084c5750858301515b600019600386901b1c1916600185901b178555620007f0565b600085815260208120601f198616915b82811015620008965788860151825594840194600190910190840162000875565b5085821015620008b55787850151600019600388901b60f8161c191681555b5050505050600190811b01905550565b634e487b7160e01b600052603260045260246000fd5b6000808354620008eb8162000768565b600182811680156200090657600181146200091c576200094d565b60ff19841687528215158302870194506200094d565b8760005260208060002060005b85811015620009445781548a82015290840190820162000929565b50505082870194505b50929695505050505050565b60805160a05160c05160e05161010051611c9a620009dd60003960006107f60152600081816103e80152818161050c0152818161081c015281816108ea01528181610b1301528181610d8301528181611113015281816111a4015281816111fe01526112ef015260006107d20152600061079d015260006101e90152611c9a6000f3fe608060405234801561001057600080fd5b506004361061014c5760003560e01c80636e553f65116100c3578063a9059cbb1161007c578063a9059cbb146102bc578063d505accf146102cf578063dc3b7c8b146102e2578063dd62ed3e146102f5578063f2fde38b14610320578063fbfa77cf1461033357600080fd5b80636e553f651461024857806370a082311461025b578063715018a61461027b5780637ecebe00146102835780638da5cb5b146102a357806395d89b41146102b457600080fd5b806323b872dd1161011557806323b872dd146101d1578063313ce567146101e45780633644e5151461021d57806338d52e0f146102255780633e413bee1461022d5780634e71d92d1461023e57600080fd5b8062f714ce1461015157806306fdde0314610177578063095ea7b31461018c5780631694505e146101af57806318160ddd146101c9575b600080fd5b61016461015f3660046116b8565b61033b565b6040519081526020015b60405180910390f35b61017f6105bc565b60405161016e919061170c565b61019f61019a36600461173f565b61064a565b604051901515815260200161016e565b6007546001600160a01b03165b60405161016e919061176b565b600254610164565b61019f6101df36600461177f565b6106b7565b61020b7f000000000000000000000000000000000000000000000000000000000000000081565b60405160ff909116815260200161016e565b610164610799565b6101bc6107f4565b6009546001600160a01b03166101bc565b610246610818565b005b6101646102563660046116b8565b610c30565b6101646102693660046117c0565b60036020526000908152604090205481565b610246610e49565b6101646102913660046117c0565b60056020526000908152604090205481565b6006546001600160a01b03166101bc565b61017f610e5d565b61019f6102ca36600461173f565b610e6a565b6102466102dd3660046117dd565b610ed0565b6101646102f03660046117c0565b61110e565b610164610303366004611854565b600460209081526000928352604080842090915290825290205481565b61024661032e3660046117c0565b6112b2565b6101bc6112ed565b600080831161039f5760405162461bcd60e51b815260206004820152602560248201527f4175746f436f6d706f756e6465723a20496e76616c69642061546f6b656e20616044820152641b5bdd5b9d60da1b60648201526084015b60405180910390fd5b6001600160a01b0382166103c55760405162461bcd60e51b815260040161039690611882565b6103d06102f06112ed565b6103da90846118e0565b90506103e63384611311565b7f00000000000000000000000000000000000000000000000000000000000000006001600160a01b031663a8d5fd656040518163ffffffff1660e01b8152600401602060405180830381865afa158015610444573d6000803e3d6000fd5b505050506040513d601f19601f8201168201806040525081019061046891906118f7565b6001600160a01b031663095ea7b361047e6112ed565b836040518363ffffffff1660e01b815260040161049c929190611914565b6020604051808303816000875af11580156104bb573d6000803e3d6000fd5b505050506040513d601f19601f820116820180604052508101906104df919061192d565b50604051632d182be560e21b8152600481018290526001600160a01b0383811660248301523060448301527f0000000000000000000000000000000000000000000000000000000000000000169063b460af94906064016020604051808303816000875af1158015610555573d6000803e3d6000fd5b505050506040513d601f19601f82011682018060405250810190610579919061194f565b50604080518481526020810183905233917ff279e6a1f5e320cca91135676d9cb6e44ca8a08c0b88342bcdb1144f6511b56891015b60405180910390a292915050565b600080546105c990611968565b80601f01602080910402602001604051908101604052809291908181526020018280546105f590611968565b80156106425780601f1061061757610100808354040283529160200191610642565b820191906000526020600020905b81548152906001019060200180831161062557829003601f168201915b505050505081565b3360008181526004602090815260408083206001600160a01b038716808552925280832085905551919290917f8c5be1e5ebec7d5bd14f71427d1e84f3dd0314c0f7b2291e5b200ac8c7c3b925906106a59086815260200190565b60405180910390a35060015b92915050565b6001600160a01b03831660009081526004602090815260408083203384529091528120546000198114610713576106ee83826119a2565b6001600160a01b03861660009081526004602090815260408083203384529091529020555b6001600160a01b0385166000908152600360205260408120805485929061073b9084906119a2565b90915550506001600160a01b0380851660008181526003602052604090819020805487019055519091871690600080516020611c45833981519152906107849087815260200190565b60405180910390a360019150505b9392505050565b60007f000000000000000000000000000000000000000000000000000000000000000046146107cf576107ca61137b565b905090565b507f000000000000000000000000000000000000000000000000000000000000000090565b7f000000000000000000000000000000000000000000000000000000000000000090565b60007f00000000000000000000000000000000000000000000000000000000000000006001600160a01b0316635ab764ed3061085c6009546001600160a01b031690565b6040516001600160e01b031960e085901b1681526001600160a01b03928316600482015291166024820152604401602060405180830381865afa1580156108a7573d6000803e3d6000fd5b505050506040513d601f19601f820116820180604052508101906108cb919061194f565b90508015610c1457604051636693607360e11b81526001600160a01b037f0000000000000000000000000000000000000000000000000000000000000000169063cd26c0e6906109229060009030906004016119b5565b60408051808303816000875af1158015610940573d6000803e3d6000fd5b505050506040513d601f19601f8201168201806040525081019061096491906119cc565b50506009546001600160a01b03166001600160a01b031663095ea7b36109926007546001600160a01b031690565b836040518363ffffffff1660e01b81526004016109b0929190611914565b6020604051808303816000875af11580156109cf573d6000803e3d6000fd5b505050506040513d601f19601f820116820180604052508101906109f3919061192d565b506007546040516338ed173960e01b81526000916001600160a01b0316906338ed173990610a2e9085908590600a90309042906004016119f0565b6000604051808303816000875af1158015610a4d573d6000803e3d6000fd5b505050506040513d6000823e601f3d908101601f19168201604052610a759190810190611a7e565b9050610a7f6107f4565b6001600160a01b031663095ea7b3610a956112ed565b83600181518110610aa857610aa8611b3c565b60200260200101516040518363ffffffff1660e01b8152600401610acd929190611914565b6020604051808303816000875af1158015610aec573d6000803e3d6000fd5b505050506040513d601f19601f82011682018060405250810190610b10919061192d565b507f00000000000000000000000000000000000000000000000000000000000000006001600160a01b0316636e553f6582600181518110610b5357610b53611b3c565b6020026020010151306040518363ffffffff1660e01b8152600401610b799291906119b5565b6020604051808303816000875af1158015610b98573d6000803e3d6000fd5b505050506040513d601f19601f82011682018060405250810190610bbc919061194f565b507f7bb2b3c10797baccb6f8c4791f1edd6ca2f0d028ee0eda64b01a9a57e3a653f781600181518110610bf157610bf1611b3c565b6020026020010151604051610c0891815260200190565b60405180910390a15050565b604051632706c9e160e21b815260040160405180910390fd5b50565b600082600003610c905760405162461bcd60e51b815260206004820152602560248201527f4175746f436f6d706f756e6465723a20496e76616c69642061737365747320616044820152641b5bdd5b9d60da1b6064820152608401610396565b6001600160a01b038216610cb65760405162461bcd60e51b815260040161039690611882565b610cc16102f06112ed565b610ccb9084611b52565b9050610cec333085610cdb6107f4565b6001600160a01b0316929190611415565b610cf46107f4565b6001600160a01b031663095ea7b3610d0a6112ed565b856040518363ffffffff1660e01b8152600401610d28929190611914565b6020604051808303816000875af1158015610d47573d6000803e3d6000fd5b505050506040513d601f19601f82011682018060405250810190610d6b919061192d565b50604051636e553f6560e01b81526001600160a01b037f00000000000000000000000000000000000000000000000000000000000000001690636e553f6590610dba90869030906004016119b5565b6020604051808303816000875af1158015610dd9573d6000803e3d6000fd5b505050506040513d601f19601f82011682018060405250810190610dfd919061194f565b50610e088282611475565b60408051848152602081018390526001600160a01b038416917f90890809c654f11d6e72a28fa60149770a0d11ec6c92319d6ceb2bb0a4ea1a1591016105ae565b610e516114c7565b610e5b60006114f4565b565b600180546105c990611968565b33600090815260036020526040812080548391908390610e8b9084906119a2565b90915550506001600160a01b03831660008181526003602052604090819020805485019055513390600080516020611c45833981519152906106a59086815260200190565b42841015610f1a5760405162461bcd60e51b815260206004820152601760248201527614115493525517d11150511312539157d1561412549151604a1b6044820152606401610396565b60006001610f26610799565b6001600160a01b038a811660008181526005602090815260409182902080546001810190915582517f6e71edae12b1b97f4d1f60370fef10105fa2faae0126114a169c64845d6126c98184015280840194909452938d166060840152608083018c905260a083019390935260c08083018b90528151808403909101815260e08301909152805192019190912061190160f01b6101008301526101028201929092526101228101919091526101420160408051601f198184030181528282528051602091820120600084529083018083525260ff871690820152606081018590526080810184905260a0016020604051602081039080840390855afa158015611032573d6000803e3d6000fd5b5050604051601f1901519150506001600160a01b038116158015906110685750876001600160a01b0316816001600160a01b0316145b6110a55760405162461bcd60e51b815260206004820152600e60248201526d24a72b20a624a22fa9a4a3a722a960911b6044820152606401610396565b6001600160a01b0390811660009081526004602090815260408083208a8516808552908352928190208990555188815291928a16917f8c5be1e5ebec7d5bd14f71427d1e84f3dd0314c0f7b2291e5b200ac8c7c3b925910160405180910390a350505050505050565b6000807f00000000000000000000000000000000000000000000000000000000000000006001600160a01b03166318160ddd6040518163ffffffff1660e01b8152600401602060405180830381865afa15801561116f573d6000803e3d6000fd5b505050506040513d601f19601f82011682018060405250810190611193919061194f565b905060006111a060025490565b90507f00000000000000000000000000000000000000000000000000000000000000006001600160a01b0316846001600160a01b0316036111fa5780156111f0576111eb8282611b52565b6111f3565b60015b92506112ab565b60007f00000000000000000000000000000000000000000000000000000000000000006001600160a01b0316633ba0b9a96040518163ffffffff1660e01b8152600401602060405180830381865afa15801561125a573d6000803e3d6000fd5b505050506040513d601f19601f8201168201806040525081019061127e919061194f565b905060008215611297576112928484611b52565b61129a565b60015b90506112a682826118e0565b945050505b5050919050565b6112ba6114c7565b6001600160a01b0381166112e4576000604051631e4fbdf760e01b8152600401610396919061176b565b610c2d816114f4565b7f000000000000000000000000000000000000000000000000000000000000000090565b6001600160a01b038216600090815260036020526040812080548392906113399084906119a2565b90915550506002805482900390556040518181526000906001600160a01b03841690600080516020611c45833981519152906020015b60405180910390a35050565b60007f8b73c3c69bb8fe3d512ecc4cf759cc79239f7b179b0ffacaa9a75d522b39400f60006040516113ad9190611b74565b6040805191829003822060208301939093528101919091527fc89efdaa54c0f20c7adf612882df0950f5a951637e0307cdcb4c672f298b8bc660608201524660808201523060a082015260c00160405160208183030381529060405280519060200120905090565b604080516001600160a01b0385811660248301528416604482015260648082018490528251808303909101815260849091019091526020810180516001600160e01b03166323b872dd60e01b17905261146f908590611546565b50505050565b80600260008282546114879190611c15565b90915550506001600160a01b038216600081815260036020908152604080832080548601905551848152600080516020611c45833981519152910161136f565b6006546001600160a01b03163314610e5b573360405163118cdaa760e01b8152600401610396919061176b565b600680546001600160a01b038381166001600160a01b0319831681179093556040519116919082907f8be0079c531659141344cd1fd0a4f28419497f9722a3daafe3b4186f6b6457e090600090a35050565b600061155b6001600160a01b038416836115a5565b9050805160001415801561158057508080602001905181019061157e919061192d565b155b156115a05782604051635274afe760e01b8152600401610396919061176b565b505050565b60606107928383600084600080856001600160a01b031684866040516115cb9190611c28565b60006040518083038185875af1925050503d8060008114611608576040519150601f19603f3d011682016040523d82523d6000602084013e61160d565b606091505b509150915061161d868383611627565b9695505050505050565b60608261163c576116378261167a565b610792565b815115801561165357506001600160a01b0384163b155b156116735783604051639996b31560e01b8152600401610396919061176b565b5080610792565b80511561168a5780518082602001fd5b604051630a12f52160e11b815260040160405180910390fd5b6001600160a01b0381168114610c2d57600080fd5b600080604083850312156116cb57600080fd5b8235915060208301356116dd816116a3565b809150509250929050565b60005b838110156117035781810151838201526020016116eb565b50506000910152565b602081526000825180602084015261172b8160408501602087016116e8565b601f01601f19169190910160400192915050565b6000806040838503121561175257600080fd5b823561175d816116a3565b946020939093013593505050565b6001600160a01b0391909116815260200190565b60008060006060848603121561179457600080fd5b833561179f816116a3565b925060208401356117af816116a3565b929592945050506040919091013590565b6000602082840312156117d257600080fd5b8135610792816116a3565b600080600080600080600060e0888a0312156117f857600080fd5b8735611803816116a3565b96506020880135611813816116a3565b95506040880135945060608801359350608088013560ff8116811461183757600080fd5b9699959850939692959460a0840135945060c09093013592915050565b6000806040838503121561186757600080fd5b8235611872816116a3565b915060208301356116dd816116a3565b60208082526028908201527f4175746f436f6d706f756e6465723a20496e76616c6964207265636569766572604082015267206164647265737360c01b606082015260800190565b634e487b7160e01b600052601160045260246000fd5b80820281158282048414176106b1576106b16118ca565b60006020828403121561190957600080fd5b8151610792816116a3565b6001600160a01b03929092168252602082015260400190565b60006020828403121561193f57600080fd5b8151801515811461079257600080fd5b60006020828403121561196157600080fd5b5051919050565b600181811c9082168061197c57607f821691505b60208210810361199c57634e487b7160e01b600052602260045260246000fd5b50919050565b818103818111156106b1576106b16118ca565b9182526001600160a01b0316602082015260400190565b600080604083850312156119df57600080fd5b505080516020909101519092909150565b600060a08201878352602087602085015260a0604085015281875480845260c086019150886000526020600020935060005b81811015611a475784546001600160a01b031683526001948501949284019201611a22565b50506001600160a01b03969096166060850152505050608001529392505050565b634e487b7160e01b600052604160045260246000fd5b60006020808385031215611a9157600080fd5b825167ffffffffffffffff80821115611aa957600080fd5b818501915085601f830112611abd57600080fd5b815181811115611acf57611acf611a68565b8060051b604051601f19603f83011681018181108582111715611af457611af4611a68565b604052918252848201925083810185019188831115611b1257600080fd5b938501935b82851015611b3057845184529385019392850192611b17565b98975050505050505050565b634e487b7160e01b600052603260045260246000fd5b600082611b6f57634e487b7160e01b600052601260045260246000fd5b500490565b60008083548160018260011c91506001831680611b9257607f831692505b60208084108203611bb157634e487b7160e01b86526022600452602486fd5b818015611bc55760018114611bda57611c07565b60ff1986168952841515850289019650611c07565b60008a81526020902060005b86811015611bff5781548b820152908501908301611be6565b505084890196505b509498975050505050505050565b808201808211156106b1576106b16118ca565b60008251611c3a8184602087016116e8565b919091019291505056feddf252ad1be2c89b69c2b068fc378daa952ba7f163c4a11628f55a4df523b3efa2646970667358221220a15aa4afe61d95cb0359ab782127ef8d8607527cd2aeef8a7d6de9c06bf7f6d164736f6c63430008180033",
  "linkReferences": {},
  "deployedLinkReferences": {}
}