{
  "_format": "hh-sol-artifact-1",
  "contractName": "AutoCompounder",
  "sourceName": "contracts/autocompounder/AutoCompounder.sol",
  "abi": [
    {
      "inputs": [
        {
          "internalType": "address",
          "name": "uniswapV2Router_",
          "type": "address"
        },
        {
          "internalType": "address",
          "name": "vault_",
          "type": "address"
        },
        {
          "internalType": "address",
          "name": "usdc_",
          "type": "address"
        },
        {
          "internalType": "string",
          "name": "name_",
          "type": "string"
        },
        {
          "internalType": "string",
          "name": "symbol_",
          "type": "string"
        },
        {
          "internalType": "address",
          "name": "operator_",
          "type": "address"
        }
      ],
      "stateMutability": "payable",
      "type": "constructor"
    },
    {
      "inputs": [
        {
          "internalType": "address",
          "name": "target",
          "type": "address"
        }
      ],
      "name": "AddressEmptyCode",
      "type": "error"
    },
    {
      "inputs": [
        {
          "internalType": "address",
          "name": "account",
          "type": "address"
        }
      ],
      "name": "AddressInsufficientBalance",
      "type": "error"
    },
    {
      "inputs": [
        {
          "internalType": "address",
          "name": "spender",
          "type": "address"
        },
        {
          "internalType": "uint256",
          "name": "allowance",
          "type": "uint256"
        },
        {
          "internalType": "uint256",
          "name": "needed",
          "type": "uint256"
        }
      ],
      "name": "ERC20InsufficientAllowance",
      "type": "error"
    },
    {
      "inputs": [
        {
          "internalType": "address",
          "name": "sender",
          "type": "address"
        },
        {
          "internalType": "uint256",
          "name": "balance",
          "type": "uint256"
        },
        {
          "internalType": "uint256",
          "name": "needed",
          "type": "uint256"
        }
      ],
      "name": "ERC20InsufficientBalance",
      "type": "error"
    },
    {
      "inputs": [
        {
          "internalType": "address",
          "name": "approver",
          "type": "address"
        }
      ],
      "name": "ERC20InvalidApprover",
      "type": "error"
    },
    {
      "inputs": [
        {
          "internalType": "address",
          "name": "receiver",
          "type": "address"
        }
      ],
      "name": "ERC20InvalidReceiver",
      "type": "error"
    },
    {
      "inputs": [
        {
          "internalType": "address",
          "name": "sender",
          "type": "address"
        }
      ],
      "name": "ERC20InvalidSender",
      "type": "error"
    },
    {
      "inputs": [
        {
          "internalType": "address",
          "name": "spender",
          "type": "address"
        }
      ],
      "name": "ERC20InvalidSpender",
      "type": "error"
    },
    {
      "inputs": [],
      "name": "FailedInnerCall",
      "type": "error"
    },
    {
      "inputs": [
        {
          "internalType": "uint256",
          "name": "reward",
          "type": "uint256"
        }
      ],
      "name": "InsufficientReward",
      "type": "error"
    },
    {
      "inputs": [
        {
          "internalType": "address",
          "name": "owner",
          "type": "address"
        }
      ],
      "name": "OwnableInvalidOwner",
      "type": "error"
    },
    {
      "inputs": [
        {
          "internalType": "address",
          "name": "account",
          "type": "address"
        }
      ],
      "name": "OwnableUnauthorizedAccount",
      "type": "error"
    },
    {
      "inputs": [
        {
          "internalType": "address",
          "name": "token",
          "type": "address"
        }
      ],
      "name": "SafeERC20FailedOperation",
      "type": "error"
    },
    {
      "anonymous": false,
      "inputs": [
        {
          "indexed": true,
          "internalType": "address",
          "name": "owner",
          "type": "address"
        },
        {
          "indexed": true,
          "internalType": "address",
          "name": "spender",
          "type": "address"
        },
        {
          "indexed": false,
          "internalType": "uint256",
          "name": "value",
          "type": "uint256"
        }
      ],
      "name": "Approval",
      "type": "event"
    },
    {
      "anonymous": false,
      "inputs": [
        {
          "indexed": false,
          "internalType": "uint256",
          "name": "depositedUnderlying",
          "type": "uint256"
        }
      ],
      "name": "Claim",
      "type": "event"
    },
    {
      "anonymous": false,
      "inputs": [
        {
          "indexed": true,
          "internalType": "address",
          "name": "createdToken",
          "type": "address"
        }
      ],
      "name": "CreatedToken",
      "type": "event"
    },
    {
      "anonymous": false,
      "inputs": [
        {
          "indexed": true,
          "internalType": "address",
          "name": "caller",
          "type": "address"
        },
        {
          "indexed": true,
          "internalType": "address",
          "name": "receiver",
          "type": "address"
        },
        {
          "indexed": false,
          "internalType": "uint256",
          "name": "assets",
          "type": "uint256"
        },
        {
          "indexed": false,
          "internalType": "uint256",
          "name": "aTokenMinted",
          "type": "uint256"
        }
      ],
      "name": "Deposit",
      "type": "event"
    },
    {
      "anonymous": false,
      "inputs": [
        {
          "indexed": true,
          "internalType": "address",
          "name": "previousOwner",
          "type": "address"
        },
        {
          "indexed": true,
          "internalType": "address",
          "name": "newOwner",
          "type": "address"
        }
      ],
      "name": "OwnershipTransferred",
      "type": "event"
    },
    {
      "anonymous": false,
      "inputs": [
        {
          "indexed": true,
          "internalType": "address",
          "name": "from",
          "type": "address"
        },
        {
          "indexed": true,
          "internalType": "address",
          "name": "to",
          "type": "address"
        },
        {
          "indexed": false,
          "internalType": "uint256",
          "name": "value",
          "type": "uint256"
        }
      ],
      "name": "Transfer",
      "type": "event"
    },
    {
      "anonymous": false,
      "inputs": [
        {
          "indexed": true,
          "internalType": "address",
          "name": "caller",
          "type": "address"
        },
        {
          "indexed": true,
          "internalType": "address",
          "name": "receiver",
          "type": "address"
        },
        {
          "indexed": false,
          "internalType": "uint256",
          "name": "reward",
          "type": "uint256"
        }
      ],
      "name": "UserClaimedReward",
      "type": "event"
    },
    {
      "anonymous": false,
      "inputs": [
        {
          "indexed": true,
          "internalType": "address",
          "name": "caller",
          "type": "address"
        },
        {
          "indexed": false,
          "internalType": "uint256",
          "name": "aTokenAmount",
          "type": "uint256"
        },
        {
          "indexed": false,
          "internalType": "uint256",
          "name": "underlyingAmount",
          "type": "uint256"
        }
      ],
      "name": "Withdraw",
      "type": "event"
    },
    {
      "inputs": [
        {
          "internalType": "address",
          "name": "owner",
          "type": "address"
        },
        {
          "internalType": "address",
          "name": "spender",
          "type": "address"
        }
      ],
      "name": "allowance",
      "outputs": [
        {
          "internalType": "uint256",
          "name": "",
          "type": "uint256"
        }
      ],
      "stateMutability": "view",
      "type": "function"
    },
    {
      "inputs": [
        {
          "internalType": "address",
          "name": "spender",
          "type": "address"
        },
        {
          "internalType": "uint256",
          "name": "value",
          "type": "uint256"
        }
      ],
      "name": "approve",
      "outputs": [
        {
          "internalType": "bool",
          "name": "",
          "type": "bool"
        }
      ],
      "stateMutability": "nonpayable",
      "type": "function"
    },
    {
      "inputs": [],
      "name": "asset",
      "outputs": [
        {
          "internalType": "address",
          "name": "",
          "type": "address"
        }
      ],
      "stateMutability": "view",
      "type": "function"
    },
    {
      "inputs": [
        {
          "internalType": "address",
          "name": "account",
          "type": "address"
        }
      ],
      "name": "balanceOf",
      "outputs": [
        {
          "internalType": "uint256",
          "name": "",
          "type": "uint256"
        }
      ],
      "stateMutability": "view",
      "type": "function"
    },
    {
      "inputs": [],
      "name": "claim",
      "outputs": [],
      "stateMutability": "nonpayable",
      "type": "function"
    },
    {
      "inputs": [
        {
          "internalType": "address",
          "name": "receiver",
          "type": "address"
        }
      ],
      "name": "claimExactUserReward",
      "outputs": [],
      "stateMutability": "nonpayable",
      "type": "function"
    },
    {
      "inputs": [],
      "name": "decimals",
      "outputs": [
        {
          "internalType": "uint8",
          "name": "",
          "type": "uint8"
        }
      ],
      "stateMutability": "view",
      "type": "function"
    },
    {
      "inputs": [
        {
          "internalType": "uint256",
          "name": "assets",
          "type": "uint256"
        },
        {
          "internalType": "address",
          "name": "receiver",
          "type": "address"
        }
      ],
      "name": "deposit",
      "outputs": [
        {
          "internalType": "uint256",
          "name": "amountToMint",
          "type": "uint256"
        }
      ],
      "stateMutability": "nonpayable",
      "type": "function"
    },
    {
      "inputs": [],
      "name": "exchangeRate",
      "outputs": [
        {
          "internalType": "uint256",
          "name": "",
          "type": "uint256"
        }
      ],
      "stateMutability": "view",
      "type": "function"
    },
    {
      "inputs": [
        {
          "internalType": "address",
          "name": "user",
          "type": "address"
        }
      ],
      "name": "getPendingReward",
      "outputs": [
        {
          "internalType": "uint256",
          "name": "pendingReward",
          "type": "uint256"
        }
      ],
      "stateMutability": "view",
      "type": "function"
    },
    {
      "inputs": [],
      "name": "name",
      "outputs": [
        {
          "internalType": "string",
          "name": "",
          "type": "string"
        }
      ],
      "stateMutability": "view",
      "type": "function"
    },
    {
      "inputs": [],
      "name": "owner",
      "outputs": [
        {
          "internalType": "address",
          "name": "",
          "type": "address"
        }
      ],
      "stateMutability": "view",
      "type": "function"
    },
    {
      "inputs": [],
      "name": "renounceOwnership",
      "outputs": [],
      "stateMutability": "nonpayable",
      "type": "function"
    },
    {
      "inputs": [
        {
          "internalType": "bytes4",
          "name": "interfaceId",
          "type": "bytes4"
        }
      ],
      "name": "supportsInterface",
      "outputs": [
        {
          "internalType": "bool",
          "name": "",
          "type": "bool"
        }
      ],
      "stateMutability": "view",
      "type": "function"
    },
    {
      "inputs": [],
      "name": "symbol",
      "outputs": [
        {
          "internalType": "string",
          "name": "",
          "type": "string"
        }
      ],
      "stateMutability": "view",
      "type": "function"
    },
    {
      "inputs": [],
      "name": "totalSupply",
      "outputs": [
        {
          "internalType": "uint256",
          "name": "",
          "type": "uint256"
        }
      ],
      "stateMutability": "view",
      "type": "function"
    },
    {
      "inputs": [
        {
          "internalType": "address",
          "name": "to",
          "type": "address"
        },
        {
          "internalType": "uint256",
          "name": "value",
          "type": "uint256"
        }
      ],
      "name": "transfer",
      "outputs": [
        {
          "internalType": "bool",
          "name": "",
          "type": "bool"
        }
      ],
      "stateMutability": "nonpayable",
      "type": "function"
    },
    {
      "inputs": [
        {
          "internalType": "address",
          "name": "from",
          "type": "address"
        },
        {
          "internalType": "address",
          "name": "to",
          "type": "address"
        },
        {
          "internalType": "uint256",
          "name": "value",
          "type": "uint256"
        }
      ],
      "name": "transferFrom",
      "outputs": [
        {
          "internalType": "bool",
          "name": "",
          "type": "bool"
        }
      ],
      "stateMutability": "nonpayable",
      "type": "function"
    },
    {
      "inputs": [
        {
          "internalType": "address",
          "name": "newOwner",
          "type": "address"
        }
      ],
      "name": "transferOwnership",
      "outputs": [],
      "stateMutability": "nonpayable",
      "type": "function"
    },
    {
      "inputs": [],
      "name": "uniswapV2Router",
      "outputs": [
        {
          "internalType": "address",
          "name": "",
          "type": "address"
        }
      ],
      "stateMutability": "view",
      "type": "function"
    },
    {
      "inputs": [],
      "name": "usdc",
      "outputs": [
        {
          "internalType": "address",
          "name": "",
          "type": "address"
        }
      ],
      "stateMutability": "view",
      "type": "function"
    },
    {
      "inputs": [],
      "name": "vault",
      "outputs": [
        {
          "internalType": "address",
          "name": "",
          "type": "address"
        }
      ],
      "stateMutability": "view",
      "type": "function"
    },
    {
      "inputs": [
        {
          "internalType": "uint256",
          "name": "aTokenAmount",
          "type": "uint256"
        },
        {
          "internalType": "address",
          "name": "receiver",
          "type": "address"
        }
      ],
      "name": "withdraw",
      "outputs": [
        {
          "internalType": "uint256",
          "name": "underlyingAmount",
          "type": "uint256"
        }
      ],
      "stateMutability": "nonpayable",
      "type": "function"
    }
  ],
  "bytecode": "0x60e0604052604051620025d4380380620025d4833981016040819052620000269162000706565b33838360036200003783826200084b565b5060046200004682826200084b565b5050506001600160a01b0381166200007957604051631e4fbdf760e01b8152600060048201526024015b60405180910390fd5b620000848162000461565b506001600160a01b038616620000f45760405162461bcd60e51b815260206004820152602e60248201527f4175746f436f6d706f756e6465723a20496e76616c696420556e69737761702060448201526d526f75746572206164647265737360901b606482015260840162000070565b6001600160a01b0385166200015a5760405162461bcd60e51b815260206004820152602560248201527f4175746f436f6d706f756e6465723a20496e76616c6964205661756c74206164604482015264647265737360d81b606482015260840162000070565b6001600160a01b038416620001c55760405162461bcd60e51b815260206004820152602a60248201527f4175746f436f6d706f756e6465723a20496e76616c6964205553444320746f6b604482015269656e206164647265737360b01b606482015260840162000070565b620001d885631ee878f360e11b620004b3565b151560a081905280620001f95750620001f98563043eff2d60e51b620004b3565b6200025e5760405162461bcd60e51b815260206004820152602e60248201527f4175746f436f6d706f756e6465723a20556e737570706f72746564207661756c60448201526d1d081a5b9d195c999858d948125160921b606482015260840162000070565b85600660006101000a8154816001600160a01b0302191690836001600160a01b03160217905550846001600160a01b03166338d52e0f6040518163ffffffff1660e01b8152600401602060405180830381865afa158015620002c4573d6000803e3d6000fd5b505050506040513d601f19601f82011682018060405250810190620002ea919062000917565b6001600160a01b0390811660c052858116608052600780546001600160a01b03191691861691909117905560408051600280825260608201835290916020830190803683375050815162000346926008925060200190620005a0565b506007546001600160a01b031660c05160086000815481106200036d576200036d62000935565b906000526020600020016000600860018154811062000390576200039062000935565b600091825260209091200180546001600160a01b039485166001600160a01b031990911617905581549383166101009190910a90810292021990921617905560a05115620004555760805160405163558a729760e01b81526001600160a01b03838116600483015260016024830152919091169063558a7297906044016020604051808303816000875af11580156200042d573d6000803e3d6000fd5b505050506040513d601f19601f820116820180604052508101906200045391906200094b565b505b5050505050506200096f565b600580546001600160a01b038381166001600160a01b0319831681179093556040519116919082907f8be0079c531659141344cd1fd0a4f28419497f9722a3daafe3b4186f6b6457e090600090a35050565b6000620004c083620004db565b8015620004d45750620004d4838362000514565b9392505050565b6000620004f0826301ffc9a760e01b62000514565b80156200050e57506200050c826001600160e01b031962000514565b155b92915050565b6040516001600160e01b031982166024820152600090819060440160408051601f19818403018152919052602080820180516001600160e01b03166301ffc9a760e01b178152825192935060009283928392909183918a617530fa92503d9150600051905082801562000588575060208210155b8015620005955750600081115b979650505050505050565b828054828255906000526020600020908101928215620005f8579160200282015b82811115620005f857825182546001600160a01b0319166001600160a01b03909116178255602090920191600190910190620005c1565b50620006069291506200060a565b5090565b5b808211156200060657600081556001016200060b565b80516001600160a01b03811681146200063957600080fd5b919050565b634e487b7160e01b600052604160045260246000fd5b600082601f8301126200066657600080fd5b81516001600160401b03808211156200068357620006836200063e565b604051601f8301601f19908116603f01168101908282118183101715620006ae57620006ae6200063e565b8160405283815260209250866020858801011115620006cc57600080fd5b600091505b83821015620006f05785820183015181830184015290820190620006d1565b6000602085830101528094505050505092915050565b60008060008060008060c087890312156200072057600080fd5b6200072b8762000621565b95506200073b6020880162000621565b94506200074b6040880162000621565b60608801519094506001600160401b03808211156200076957600080fd5b620007778a838b0162000654565b945060808901519150808211156200078e57600080fd5b506200079d89828a0162000654565b925050620007ae60a0880162000621565b90509295509295509295565b600181811c90821680620007cf57607f821691505b602082108103620007f057634e487b7160e01b600052602260045260246000fd5b50919050565b601f82111562000846576000816000526020600020601f850160051c81016020861015620008215750805b601f850160051c820191505b8181101562000842578281556001016200082d565b5050505b505050565b81516001600160401b038111156200086757620008676200063e565b6200087f81620008788454620007ba565b84620007f6565b602080601f831160018114620008b757600084156200089e5750858301515b600019600386901b1c1916600185901b17855562000842565b600085815260208120601f198616915b82811015620008e857888601518255948401946001909101908401620008c7565b5085821015620009075787850151600019600388901b60f8161c191681555b5050505050600190811b01905550565b6000602082840312156200092a57600080fd5b620004d48262000621565b634e487b7160e01b600052603260045260246000fd5b6000602082840312156200095e57600080fd5b81518015158114620004d457600080fd5b60805160a05160c051611c12620009c2600039600061079701526000610f480152600081816103a901528181610457015281816107be01528181610ce201528181610fed01526111680152611c126000f3fe608060405234801561001057600080fd5b506004361061014c5760003560e01c80633e413bee116100c35780638da5cb5b1161007c5780638da5cb5b1461029257806395d89b41146102a3578063a9059cbb146102ab578063dd62ed3e146102be578063f2fde38b146102d1578063fbfa77cf146102e457600080fd5b80633e413bee1461022b5780634df9d6ba146102335780634e71d92d146102465780636e553f651461024e57806370a0823114610261578063715018a61461028a57600080fd5b806318160ddd1161011557806318160ddd146101dc57806319dbabed146101e457806323b872dd146101f9578063313ce5671461020c57806338d52e0f1461021b5780633ba0b9a91461022357600080fd5b8062f714ce1461015157806301ffc9a71461017757806306fdde031461019a578063095ea7b3146101af5780631694505e146101c2575b600080fd5b61016461015f366004611708565b6102ec565b6040519081526020015b60405180910390f35b61018a610185366004611734565b61051f565b604051901515815260200161016e565b6101a2610556565b60405161016e9190611782565b61018a6101bd3660046117b5565b6105e8565b6006546001600160a01b03165b60405161016e91906117df565b600254610164565b6101f76101f23660046117f3565b610600565b005b61018a61020736600461180e565b61076f565b6040516012815260200161016e565b6101cf610795565b6101646107b9565b6101cf61087c565b6101646102413660046117f3565b61088b565b6101f7610a18565b61016461025c366004611708565b610e02565b61016461026f3660046117f3565b6001600160a01b031660009081526020819052604090205490565b6101f76110cf565b6005546001600160a01b03166101cf565b6101a26110e3565b61018a6102b93660046117b5565b6110f2565b6101646102cc36600461184a565b611100565b6101f76102df3660046117f3565b61112b565b6101cf611166565b60008083116103505760405162461bcd60e51b815260206004820152602560248201527f4175746f436f6d706f756e6465723a20496e76616c69642061546f6b656e20616044820152641b5bdd5b9d60da1b60648201526084015b60405180910390fd5b6001600160a01b0382166103765760405162461bcd60e51b815260040161034790611874565b336103926103826107b9565b8590670de0b6b3a764000061118a565b915061039d83610600565b6103a781856111a8565b7f00000000000000000000000000000000000000000000000000000000000000006001600160a01b031663095ea7b36103de611166565b846040518363ffffffff1660e01b81526004016103fc9291906118bc565b6020604051808303816000875af115801561041b573d6000803e3d6000fd5b505050506040513d601f19601f8201168201806040525081019061043f91906118d5565b50604051632d182be560e21b81526001600160a01b037f0000000000000000000000000000000000000000000000000000000000000000169063b460af9490610490908590879030906004016118f7565b6020604051808303816000875af11580156104af573d6000803e3d6000fd5b505050506040513d601f19601f820116820180604052508101906104d39190611916565b5060408051858152602081018490526001600160a01b038316917ff279e6a1f5e320cca91135676d9cb6e44ca8a08c0b88342bcdb1144f6511b568910160405180910390a25092915050565b60006001600160e01b0319821663d85c12ef60e01b148061055057506301ffc9a760e01b6001600160e01b03198316145b92915050565b6060600380546105659061192f565b80601f01602080910402602001604051908101604052809291908181526020018280546105919061192f565b80156105de5780601f106105b3576101008083540402835291602001916105de565b820191906000526020600020905b8154815290600101906020018083116105c157829003601f168201915b5050505050905090565b6000336105f68185856111e2565b5060019392505050565b6001600160a01b03811661066e5760405162461bcd60e51b815260206004820152602f60248201527f4175746f436f6d706f756e6465723a20496e76616c696420726577617264207260448201526e65636569766572206164647265737360881b6064820152608401610347565b33600061067a8261088b565b6001600160a01b0383166000908152600960205260408120805492935083929091906106a790849061197f565b909155506106b59050611166565b6001600160a01b031663fba8619a6106cb61087c565b85846040518463ffffffff1660e01b81526004016106eb93929190611992565b600060405180830381600087803b15801561070557600080fd5b505af1158015610719573d6000803e3d6000fd5b50505050826001600160a01b0316826001600160a01b03167f2e85dba8abbec99ac7ecb87f8120d3af23101751cb33fb3c93a4715e562abc768360405161076291815260200190565b60405180910390a3505050565b60003361077d8582856111f4565b610788858585611247565b60019150505b9392505050565b7f000000000000000000000000000000000000000000000000000000000000000090565b6000807f00000000000000000000000000000000000000000000000000000000000000006001600160a01b03166318160ddd6040518163ffffffff1660e01b8152600401602060405180830381865afa15801561081a573d6000803e3d6000fd5b505050506040513d601f19601f8201168201806040525081019061083e9190611916565b9050600061084b60025490565b9050801561086b5761086681670de0b6b3a76400008461118a565b610875565b670de0b6b3a76400005b9250505090565b6007546001600160a01b031690565b60006001600160a01b0382166108ef5760405162461bcd60e51b8152602060048201526024808201527f4175746f436f6d706f756e6465723a20496e76616c69642075736572206164646044820152637265737360e01b6064820152608401610347565b60006108f9611166565b6001600160a01b0316635ab764ed3061091061087c565b6040516001600160e01b031960e085901b1681526001600160a01b03928316600482015291166024820152604401602060405180830381865afa15801561095b573d6000803e3d6000fd5b505050506040513d601f19601f8201168201806040525081019061097f9190611916565b9050600061098c60025490565b826109ac866001600160a01b031660009081526020819052604090205490565b6109b691906119b6565b6109c091906119cd565b6001600160a01b0385166000908152600960205260409020549091508110156109ed575060009392505050565b6001600160a01b038416600090815260096020526040902054610a1090826119ef565b949350505050565b6000610a22611166565b6001600160a01b0316635ab764ed30610a3961087c565b6040516001600160e01b031960e085901b1681526001600160a01b03928316600482015291166024820152604401602060405180830381865afa158015610a84573d6000803e3d6000fd5b505050506040513d601f19601f82011682018060405250810190610aa89190611916565b9050629896808110610de357610abc611166565b6001600160a01b031663cd26c0e66000306040518363ffffffff1660e01b8152600401610aea929190611a02565b60408051808303816000875af1158015610b08573d6000803e3d6000fd5b505050506040513d601f19601f82011682018060405250810190610b2c9190611a19565b5050610b3661087c565b6001600160a01b031663095ea7b3610b566006546001600160a01b031690565b836040518363ffffffff1660e01b8152600401610b749291906118bc565b6020604051808303816000875af1158015610b93573d6000803e3d6000fd5b505050506040513d601f19601f82011682018060405250810190610bb791906118d5565b506006546000906001600160a01b03166338ed17398383600830610bdd4261012c61197f565b6040518663ffffffff1660e01b8152600401610bfd959493929190611a3d565b6000604051808303816000875af1158015610c1c573d6000803e3d6000fd5b505050506040513d6000823e601f3d908101601f19168201604052610c449190810190611acb565b9050610c4e610795565b6001600160a01b031663095ea7b3610c64611166565b83600181518110610c7757610c77611b89565b60200260200101516040518363ffffffff1660e01b8152600401610c9c9291906118bc565b6020604051808303816000875af1158015610cbb573d6000803e3d6000fd5b505050506040513d601f19601f82011682018060405250810190610cdf91906118d5565b507f00000000000000000000000000000000000000000000000000000000000000006001600160a01b0316636e553f6582600181518110610d2257610d22611b89565b6020026020010151306040518363ffffffff1660e01b8152600401610d48929190611a02565b6020604051808303816000875af1158015610d67573d6000803e3d6000fd5b505050506040513d601f19601f82011682018060405250810190610d8b9190611916565b507f7bb2b3c10797baccb6f8c4791f1edd6ca2f0d028ee0eda64b01a9a57e3a653f781600181518110610dc057610dc0611b89565b6020026020010151604051610dd791815260200190565b60405180910390a15050565b60405163040bbf8f60e21b815260048101829052602401610347565b50565b600082600003610e625760405162461bcd60e51b815260206004820152602560248201527f4175746f436f6d706f756e6465723a20496e76616c69642061737365747320616044820152641b5bdd5b9d60da1b6064820152608401610347565b6001600160a01b038216610e885760405162461bcd60e51b815260040161034790611874565b33610ea5670de0b6b3a7640000610e9d6107b9565b86919061118a565b9150610ec6813086610eb5610795565b6001600160a01b03169291906112a6565b610ece610795565b6001600160a01b031663095ea7b3610ee4611166565b866040518363ffffffff1660e01b8152600401610f029291906118bc565b6020604051808303816000875af1158015610f21573d6000803e3d6000fd5b505050506040513d601f19601f82011682018060405250810190610f4591906118d5565b507f000000000000000000000000000000000000000000000000000000000000000015610fd657610f74611166565b6001600160a01b03166385b77f458530306040518463ffffffff1660e01b8152600401610fa3939291906118f7565b600060405180830381600087803b158015610fbd57600080fd5b505af1158015610fd1573d6000803e3d6000fd5b505050505b604051636e553f6560e01b81526001600160a01b037f00000000000000000000000000000000000000000000000000000000000000001690636e553f65906110249087903090600401611a02565b6020604051808303816000875af1158015611043573d6000803e3d6000fd5b505050506040513d601f19601f820116820180604052508101906110679190611916565b506110728383611300565b826001600160a01b0316816001600160a01b03167fdcbc1c05240f31ff3ad067ef1ee35ce4997762752e3a095284754544f4c709d786856040516110c0929190918252602082015260400190565b60405180910390a35092915050565b6110d7611336565b6110e16000611363565b565b6060600480546105659061192f565b6000336105f6818585611247565b6001600160a01b03918216600090815260016020908152604080832093909416825291909152205490565b611133611336565b6001600160a01b03811661115d576000604051631e4fbdf760e01b815260040161034791906117df565b610dff81611363565b7f000000000000000000000000000000000000000000000000000000000000000090565b60008260001904841183021582026111a157600080fd5b5091020490565b6001600160a01b0382166111d2576000604051634b637e8f60e11b815260040161034791906117df565b6111de826000836113b5565b5050565b6111ef83838360016114bf565b505050565b60006112008484611100565b90506000198114611241578181101561123257828183604051637dc7a0d960e11b815260040161034793929190611b9f565b611241848484840360006114bf565b50505050565b6001600160a01b038316611271576000604051634b637e8f60e11b815260040161034791906117df565b6001600160a01b03821661129b57600060405163ec442f0560e01b815260040161034791906117df565b6111ef8383836113b5565b61124184856001600160a01b03166323b872dd8686866040516024016112ce93929190611992565b604051602081830303815290604052915060e01b6020820180516001600160e01b038381831617835250505050611594565b6001600160a01b03821661132a57600060405163ec442f0560e01b815260040161034791906117df565b6111de600083836113b5565b6005546001600160a01b031633146110e1573360405163118cdaa760e01b815260040161034791906117df565b600580546001600160a01b038381166001600160a01b0319831681179093556040519116919082907f8be0079c531659141344cd1fd0a4f28419497f9722a3daafe3b4186f6b6457e090600090a35050565b6001600160a01b0383166113e05780600260008282546113d5919061197f565b9091555061143f9050565b6001600160a01b038316600090815260208190526040902054818110156114205783818360405163391434e360e21b815260040161034793929190611b9f565b6001600160a01b03841660009081526020819052604090209082900390555b6001600160a01b03821661145b5760028054829003905561147a565b6001600160a01b03821660009081526020819052604090208054820190555b816001600160a01b0316836001600160a01b03167fddf252ad1be2c89b69c2b068fc378daa952ba7f163c4a11628f55a4df523b3ef8360405161076291815260200190565b6001600160a01b0384166114e957600060405163e602df0560e01b815260040161034791906117df565b6001600160a01b038316611513576000604051634a1406b160e11b815260040161034791906117df565b6001600160a01b038085166000908152600160209081526040808320938716835292905220829055801561124157826001600160a01b0316846001600160a01b03167f8c5be1e5ebec7d5bd14f71427d1e84f3dd0314c0f7b2291e5b200ac8c7c3b9258460405161158691815260200190565b60405180910390a350505050565b60006115a96001600160a01b038416836115ee565b905080516000141580156115ce5750808060200190518101906115cc91906118d5565b155b156111ef5782604051635274afe760e01b815260040161034791906117df565b606061078e8383600084600080856001600160a01b031684866040516116149190611bc0565b60006040518083038185875af1925050503d8060008114611651576040519150601f19603f3d011682016040523d82523d6000602084013e611656565b606091505b5091509150611666868383611670565b9695505050505050565b60608261168557611680826116c3565b61078e565b815115801561169c57506001600160a01b0384163b155b156116bc5783604051639996b31560e01b815260040161034791906117df565b508061078e565b8051156116d35780518082602001fd5b604051630a12f52160e11b815260040160405180910390fd5b80356001600160a01b038116811461170357600080fd5b919050565b6000806040838503121561171b57600080fd5b8235915061172b602084016116ec565b90509250929050565b60006020828403121561174657600080fd5b81356001600160e01b03198116811461078e57600080fd5b60005b83811015611779578181015183820152602001611761565b50506000910152565b60208152600082518060208401526117a181604085016020870161175e565b601f01601f19169190910160400192915050565b600080604083850312156117c857600080fd5b6117d1836116ec565b946020939093013593505050565b6001600160a01b0391909116815260200190565b60006020828403121561180557600080fd5b61078e826116ec565b60008060006060848603121561182357600080fd5b61182c846116ec565b925061183a602085016116ec565b9150604084013590509250925092565b6000806040838503121561185d57600080fd5b611866836116ec565b915061172b602084016116ec565b60208082526028908201527f4175746f436f6d706f756e6465723a20496e76616c6964207265636569766572604082015267206164647265737360c01b606082015260800190565b6001600160a01b03929092168252602082015260400190565b6000602082840312156118e757600080fd5b8151801515811461078e57600080fd5b9283526001600160a01b03918216602084015216604082015260600190565b60006020828403121561192857600080fd5b5051919050565b600181811c9082168061194357607f821691505b60208210810361196357634e487b7160e01b600052602260045260246000fd5b50919050565b634e487b7160e01b600052601160045260246000fd5b8082018082111561055057610550611969565b6001600160a01b039384168152919092166020820152604081019190915260600190565b808202811582820484141761055057610550611969565b6000826119ea57634e487b7160e01b600052601260045260246000fd5b500490565b8181038181111561055057610550611969565b9182526001600160a01b0316602082015260400190565b60008060408385031215611a2c57600080fd5b505080516020909101519092909150565b600060a08201878352602087602085015260a0604085015281875480845260c086019150886000526020600020935060005b81811015611a945784546001600160a01b031683526001948501949284019201611a6f565b50506001600160a01b03969096166060850152505050608001529392505050565b634e487b7160e01b600052604160045260246000fd5b60006020808385031215611ade57600080fd5b825167ffffffffffffffff80821115611af657600080fd5b818501915085601f830112611b0a57600080fd5b815181811115611b1c57611b1c611ab5565b8060051b604051601f19603f83011681018181108582111715611b4157611b41611ab5565b604052918252848201925083810185019188831115611b5f57600080fd5b938501935b82851015611b7d57845184529385019392850192611b64565b98975050505050505050565b634e487b7160e01b600052603260045260246000fd5b6001600160a01b039390931683526020830191909152604082015260600190565b60008251611bd281846020870161175e565b919091019291505056fea26469706673582212209ae35f7b1151c7ddb0f83359e066b891fd8868eeb3d28cf8e28934a4d467392964736f6c63430008180033",
  "linkReferences": {},
  "deployedLinkReferences": {}
}