{
  "_format": "hh-sol-artifact-1",
  "contractName": "AutoCompounderFactory",
  "sourceName": "contracts/autocompounder/factory/AutoCompounderFactory.sol",
  "abi": [
    {
      "inputs": [],
      "stateMutability": "nonpayable",
      "type": "constructor"
    },
    {
      "inputs": [
        {
          "internalType": "address",
          "name": "owner",
          "type": "address"
        }
      ],
      "name": "OwnableInvalidOwner",
      "type": "error"
    },
    {
      "inputs": [
        {
          "internalType": "address",
          "name": "account",
          "type": "address"
        }
      ],
      "name": "OwnableUnauthorizedAccount",
      "type": "error"
    },
    {
      "anonymous": false,
      "inputs": [
        {
          "indexed": true,
          "internalType": "address",
          "name": "autoCompounder",
          "type": "address"
        },
        {
          "indexed": true,
          "internalType": "address",
          "name": "vault",
          "type": "address"
        },
        {
          "indexed": false,
          "internalType": "string",
          "name": "name",
          "type": "string"
        },
        {
          "indexed": false,
          "internalType": "string",
          "name": "symbol",
          "type": "string"
        }
      ],
      "name": "AutoCompounderDeployed",
      "type": "event"
    },
    {
      "anonymous": false,
      "inputs": [
        {
          "indexed": true,
          "internalType": "address",
          "name": "previousOwner",
          "type": "address"
        },
        {
          "indexed": true,
          "internalType": "address",
          "name": "newOwner",
          "type": "address"
        }
      ],
      "name": "OwnershipTransferred",
      "type": "event"
    },
    {
      "inputs": [
        {
          "internalType": "string",
          "name": "",
          "type": "string"
        }
      ],
      "name": "autoCompounderDeployed",
      "outputs": [
        {
          "internalType": "address",
          "name": "",
          "type": "address"
        }
      ],
      "stateMutability": "view",
      "type": "function"
    },
    {
      "inputs": [
        {
          "internalType": "string",
          "name": "salt",
          "type": "string"
        },
        {
          "components": [
            {
              "internalType": "address",
              "name": "uniswapV2Router",
              "type": "address"
            },
            {
              "internalType": "address",
              "name": "vault",
              "type": "address"
            },
            {
              "internalType": "address",
              "name": "usdc",
              "type": "address"
            },
            {
              "internalType": "string",
              "name": "aTokenName",
              "type": "string"
            },
            {
              "internalType": "string",
              "name": "aTokenSymbol",
              "type": "string"
            },
            {
              "internalType": "address",
              "name": "operator",
              "type": "address"
            }
          ],
          "internalType": "struct IAutoCompounderFactory.AutoCompounderDetails",
          "name": "autoCompounderDetails",
          "type": "tuple"
        }
      ],
      "name": "deployAutoCompounder",
      "outputs": [
        {
          "internalType": "address",
          "name": "autoCompounder",
          "type": "address"
        }
      ],
      "stateMutability": "payable",
      "type": "function"
    },
    {
      "inputs": [],
      "name": "owner",
      "outputs": [
        {
          "internalType": "address",
          "name": "",
          "type": "address"
        }
      ],
      "stateMutability": "view",
      "type": "function"
    },
    {
      "inputs": [],
      "name": "renounceOwnership",
      "outputs": [],
      "stateMutability": "nonpayable",
      "type": "function"
    },
    {
      "inputs": [
        {
          "internalType": "bytes4",
          "name": "interfaceId",
          "type": "bytes4"
        }
      ],
      "name": "supportsInterface",
      "outputs": [
        {
          "internalType": "bool",
          "name": "",
          "type": "bool"
        }
      ],
      "stateMutability": "view",
      "type": "function"
    },
    {
      "inputs": [
        {
          "internalType": "address",
          "name": "newOwner",
          "type": "address"
        }
      ],
      "name": "transferOwnership",
      "outputs": [],
      "stateMutability": "nonpayable",
      "type": "function"
    }
  ],
  "bytecode": "0x608060405234801561001057600080fd5b50338061003757604051631e4fbdf760e01b81526000600482015260240160405180910390fd5b61004081610046565b50610096565b600080546001600160a01b038381166001600160a01b0319831681178455604051919092169283917f8be0079c531659141344cd1fd0a4f28419497f9722a3daafe3b4186f6b6457e09190a35050565b612caa806100a56000396000f3fe6080604052600436106200005c5760003560e01c806301ffc9a71462000061578063715018a6146200009b5780638da5cb5b14620000b5578063ae071ea514620000df578063c7ff2d3c1462000124578063f2fde38b146200013b575b600080fd5b3480156200006e57600080fd5b5062000086620000803660046200072d565b62000160565b60405190151581526020015b60405180910390f35b348015620000a857600080fd5b50620000b362000198565b005b348015620000c257600080fd5b506000546001600160a01b03165b60405162000092919062000760565b348015620000ec57600080fd5b50620000d0620000fe3660046200078a565b80516020818301810180516001825292820191909301209152546001600160a01b031681565b620000d06200013536600462000845565b620001b0565b3480156200014857600080fd5b50620000b36200015a366004620008e7565b6200050b565b60006001600160e01b031982166331ffcb4f60e21b14806200019257506301ffc9a760e01b6001600160e01b03198316145b92915050565b620001a262000550565b620001ae600062000580565b565b6000806001600160a01b031660018585604051620001d092919062000912565b908152604051908190036020019020546001600160a01b0316146200025b5760405162461bcd60e51b815260206004820152603660248201527f4175746f436f6d706f756e646572466163746f72793a204175746f436f6d706f6044820152751d5b99195c88185b1c9958591e4819195c1b1bde595960521b60648201526084015b60405180910390fd5b60006200026c6020840184620008e7565b6001600160a01b031603620002e25760405162461bcd60e51b815260206004820152603560248201527f4175746f436f6d706f756e646572466163746f72793a20496e76616c696420556044820152746e697377617020526f75746572206164647265737360581b606482015260840162000252565b6000620002f66040840160208501620008e7565b6001600160a01b031603620003635760405162461bcd60e51b815260206004820152602c60248201527f4175746f436f6d706f756e646572466163746f72793a20496e76616c6964205660448201526b61756c74206164647265737360a01b606482015260840162000252565b6000620003776060840160408501620008e7565b6001600160a01b031603620003e35760405162461bcd60e51b815260206004820152602b60248201527f4175746f436f6d706f756e646572466163746f72793a20496e76616c6964205560448201526a534443206164647265737360a81b606482015260840162000252565b620003f0848484620005d0565b905080600185856040516200040792919062000912565b90815260405190819003602001812080546001600160a01b039384166001600160a01b031990911617905563f2fde38b60e01b81529082169063f2fde38b906200045690339060040162000760565b600060405180830381600087803b1580156200047157600080fd5b505af115801562000486573d6000803e3d6000fd5b506200049d925050506040830160208401620008e7565b6001600160a01b039081169082167f1a47151e881174e5adc7c88cb8cb4d42988bc8e263e9051f07f99454056ac7cb620004db606086018662000922565b620004ea608088018862000922565b604051620004fc94939291906200099c565b60405180910390a39392505050565b6200051562000550565b6001600160a01b03811662000542576000604051631e4fbdf760e01b815260040162000252919062000760565b6200054d8162000580565b50565b6000546001600160a01b03163314620001ae573360405163118cdaa760e01b815260040162000252919062000760565b600080546001600160a01b038381166001600160a01b0319831681178455604051919092169283917f8be0079c531659141344cd1fd0a4f28419497f9722a3daafe3b4186f6b6457e09190a35050565b60008060405180602001620005e5906200071f565b601f1982820381018352601f90910116604052905060006200060b6020850185620008e7565b6200061d6040860160208701620008e7565b6200062f6060870160408801620008e7565b6200063e606088018862000922565b6200064d60808a018a62000922565b6200065f60c08c0160a08d01620008e7565b60405160200162000678989796959493929190620009c7565b604051602081830303815290604052905060008282604051602001620006a092919062000a5c565b6040516020818303038152906040529050620006be878783620006c9565b979650505050505050565b6000808484604051602001620006e192919062000912565b604051602081830303815290604052805190602001209050600083602001845183818334f592505050803b6200071657600080fd5b95945050505050565b6121f78062000a7e83390190565b6000602082840312156200074057600080fd5b81356001600160e01b0319811681146200075957600080fd5b9392505050565b6001600160a01b0391909116815260200190565b634e487b7160e01b600052604160045260246000fd5b6000602082840312156200079d57600080fd5b813567ffffffffffffffff80821115620007b657600080fd5b818401915084601f830112620007cb57600080fd5b813581811115620007e057620007e062000774565b604051601f8201601f19908116603f011681019083821181831017156200080b576200080b62000774565b816040528281528760208487010111156200082557600080fd5b826020860160208301376000928101602001929092525095945050505050565b6000806000604084860312156200085b57600080fd5b833567ffffffffffffffff808211156200087457600080fd5b818601915086601f8301126200088957600080fd5b8135818111156200089957600080fd5b876020828501011115620008ac57600080fd5b602092830195509350908501359080821115620008c857600080fd5b50840160c08187031215620008dc57600080fd5b809150509250925092565b600060208284031215620008fa57600080fd5b81356001600160a01b03811681146200075957600080fd5b8183823760009101908152919050565b6000808335601e198436030181126200093a57600080fd5b83018035915067ffffffffffffffff8211156200095657600080fd5b6020019150368190038213156200096c57600080fd5b9250929050565b81835281816020850137506000828201602090810191909152601f909101601f19169091010190565b604081526000620009b260408301868862000973565b8281036020840152620006be81858762000973565b600060018060a01b03808b168352808a166020840152808916604084015260c06060840152620009fc60c08401888a62000973565b838103608085015262000a1181878962000973565b92505080841660a0840152509998505050505050505050565b6000815160005b8181101562000a4d576020818501810151868301520162000a31565b50600093019283525090919050565b600062000a7562000a6e838662000a2a565b8462000a2a565b94935050505056fe60e0604052604051620021f7380380620021f7833981016040819052620000269162000706565b33838360036200003783826200084b565b5060046200004682826200084b565b5050506001600160a01b0381166200007957604051631e4fbdf760e01b8152600060048201526024015b60405180910390fd5b620000848162000461565b506001600160a01b038616620000f45760405162461bcd60e51b815260206004820152602e60248201527f4175746f436f6d706f756e6465723a20496e76616c696420556e69737761702060448201526d526f75746572206164647265737360901b606482015260840162000070565b6001600160a01b0385166200015a5760405162461bcd60e51b815260206004820152602560248201527f4175746f436f6d706f756e6465723a20496e76616c6964205661756c74206164604482015264647265737360d81b606482015260840162000070565b6001600160a01b038416620001c55760405162461bcd60e51b815260206004820152602a60248201527f4175746f436f6d706f756e6465723a20496e76616c6964205553444320746f6b604482015269656e206164647265737360b01b606482015260840162000070565b620001d885631ee878f360e11b620004b3565b151560a081905280620001f95750620001f98563043eff2d60e51b620004b3565b6200025e5760405162461bcd60e51b815260206004820152602e60248201527f4175746f436f6d706f756e6465723a20556e737570706f72746564207661756c60448201526d1d081a5b9d195c999858d948125160921b606482015260840162000070565b85600660006101000a8154816001600160a01b0302191690836001600160a01b03160217905550846001600160a01b03166338d52e0f6040518163ffffffff1660e01b8152600401602060405180830381865afa158015620002c4573d6000803e3d6000fd5b505050506040513d601f19601f82011682018060405250810190620002ea919062000917565b6001600160a01b0390811660c052858116608052600780546001600160a01b03191691861691909117905560408051600280825260608201835290916020830190803683375050815162000346926008925060200190620005a0565b506007546001600160a01b031660c05160086000815481106200036d576200036d62000935565b906000526020600020016000600860018154811062000390576200039062000935565b600091825260209091200180546001600160a01b039485166001600160a01b031990911617905581549383166101009190910a90810292021990921617905560a05115620004555760805160405163558a729760e01b81526001600160a01b03838116600483015260016024830152919091169063558a7297906044016020604051808303816000875af11580156200042d573d6000803e3d6000fd5b505050506040513d601f19601f820116820180604052508101906200045391906200094b565b505b5050505050506200096f565b600580546001600160a01b038381166001600160a01b0319831681179093556040519116919082907f8be0079c531659141344cd1fd0a4f28419497f9722a3daafe3b4186f6b6457e090600090a35050565b6000620004c083620004db565b8015620004d45750620004d4838362000514565b9392505050565b6000620004f0826301ffc9a760e01b62000514565b80156200050e57506200050c826001600160e01b031962000514565b155b92915050565b6040516001600160e01b031982166024820152600090819060440160408051601f19818403018152919052602080820180516001600160e01b03166301ffc9a760e01b178152825192935060009283928392909183918a617530fa92503d9150600051905082801562000588575060208210155b8015620005955750600081115b979650505050505050565b828054828255906000526020600020908101928215620005f8579160200282015b82811115620005f857825182546001600160a01b0319166001600160a01b03909116178255602090920191600190910190620005c1565b50620006069291506200060a565b5090565b5b808211156200060657600081556001016200060b565b80516001600160a01b03811681146200063957600080fd5b919050565b634e487b7160e01b600052604160045260246000fd5b600082601f8301126200066657600080fd5b81516001600160401b03808211156200068357620006836200063e565b604051601f8301601f19908116603f01168101908282118183101715620006ae57620006ae6200063e565b8160405283815260209250866020858801011115620006cc57600080fd5b600091505b83821015620006f05785820183015181830184015290820190620006d1565b6000602085830101528094505050505092915050565b60008060008060008060c087890312156200072057600080fd5b6200072b8762000621565b95506200073b6020880162000621565b94506200074b6040880162000621565b60608801519094506001600160401b03808211156200076957600080fd5b620007778a838b0162000654565b945060808901519150808211156200078e57600080fd5b506200079d89828a0162000654565b925050620007ae60a0880162000621565b90509295509295509295565b600181811c90821680620007cf57607f821691505b602082108103620007f057634e487b7160e01b600052602260045260246000fd5b50919050565b601f82111562000846576000816000526020600020601f850160051c81016020861015620008215750805b601f850160051c820191505b8181101562000842578281556001016200082d565b5050505b505050565b81516001600160401b038111156200086757620008676200063e565b6200087f81620008788454620007ba565b84620007f6565b602080601f831160018114620008b757600084156200089e5750858301515b600019600386901b1c1916600185901b17855562000842565b600085815260208120601f198616915b82811015620008e857888601518255948401946001909101908401620008c7565b5085821015620009075787850151600019600388901b60f8161c191681555b5050505050600190811b01905550565b6000602082840312156200092a57600080fd5b620004d48262000621565b634e487b7160e01b600052603260045260246000fd5b6000602082840312156200095e57600080fd5b81518015158114620004d457600080fd5b60805160a05160c051611835620009c260003960006105d901526000610bcf01526000818161036301528181610411015281816106000152818161097701528181610c740152610dd301526118356000f3fe608060405234801561001057600080fd5b50600436106101365760003560e01c80633e413bee116100b85780638da5cb5b1161007c5780638da5cb5b1461025f57806395d89b4114610270578063a9059cbb14610278578063dd62ed3e1461028b578063f2fde38b1461029e578063fbfa77cf146102b157600080fd5b80633e413bee146102005780634e71d92d146102115780636e553f651461021b57806370a082311461022e578063715018a61461025757600080fd5b806318160ddd116100ff57806318160ddd146101c657806323b872dd146101ce578063313ce567146101e157806338d52e0f146101f05780633ba0b9a9146101f857600080fd5b8062f714ce1461013b57806301ffc9a71461016157806306fdde0314610184578063095ea7b3146101995780631694505e146101ac575b600080fd5b61014e610149366004611362565b6102b9565b6040519081526020015b60405180910390f35b61017461016f36600461138e565b6104d0565b6040519015158152602001610158565b61018c610507565b60405161015891906113dc565b6101746101a736600461140f565b610599565b6006546001600160a01b03165b6040516101589190611439565b60025461014e565b6101746101dc36600461144d565b6105b1565b60405160128152602001610158565b6101b96105d7565b61014e6105fb565b6007546001600160a01b03166101b9565b6102196106ae565b005b61014e610229366004611362565b610a94565b61014e61023c366004611489565b6001600160a01b031660009081526020819052604090205490565b610219610d3a565b6005546001600160a01b03166101b9565b61018c610d4e565b61017461028636600461140f565b610d5d565b61014e6102993660046114a4565b610d6b565b6102196102ac366004611489565b610d96565b6101b9610dd1565b600080831161031d5760405162461bcd60e51b815260206004820152602560248201527f4175746f436f6d706f756e6465723a20496e76616c69642061546f6b656e20616044820152641b5bdd5b9d60da1b60648201526084015b60405180910390fd5b6001600160a01b0382166103435760405162461bcd60e51b8152600401610314906114ce565b61034b6105fb565b610355908461152c565b90506103613384610df5565b7f00000000000000000000000000000000000000000000000000000000000000006001600160a01b031663095ea7b3610398610dd1565b836040518363ffffffff1660e01b81526004016103b6929190611543565b6020604051808303816000875af11580156103d5573d6000803e3d6000fd5b505050506040513d601f19601f820116820180604052508101906103f9919061155c565b50604051632d182be560e21b81526001600160a01b037f0000000000000000000000000000000000000000000000000000000000000000169063b460af949061044a9084908690309060040161157e565b6020604051808303816000875af1158015610469573d6000803e3d6000fd5b505050506040513d601f19601f8201168201806040525081019061048d919061159d565b50604080518481526020810183905233917ff279e6a1f5e320cca91135676d9cb6e44ca8a08c0b88342bcdb1144f6511b56891015b60405180910390a292915050565b60006001600160e01b0319821663d85c12ef60e01b148061050157506301ffc9a760e01b6001600160e01b03198316145b92915050565b606060038054610516906115b6565b80601f0160208091040260200160405190810160405280929190818152602001828054610542906115b6565b801561058f5780601f106105645761010080835404028352916020019161058f565b820191906000526020600020905b81548152906001019060200180831161057257829003601f168201915b5050505050905090565b6000336105a7818585610e2f565b5060019392505050565b6000336105bf858285610e41565b6105ca858585610e94565b60019150505b9392505050565b7f000000000000000000000000000000000000000000000000000000000000000090565b6000807f00000000000000000000000000000000000000000000000000000000000000006001600160a01b03166318160ddd6040518163ffffffff1660e01b8152600401602060405180830381865afa15801561065c573d6000803e3d6000fd5b505050506040513d601f19601f82011682018060405250810190610680919061159d565b9050600061068d60025490565b905080156106a45761069f82826115f0565b6106a7565b60015b9250505090565b60006106b8610dd1565b6001600160a01b0316635ab764ed306106d96007546001600160a01b031690565b6040516001600160e01b031960e085901b1681526001600160a01b03928316600482015291166024820152604401602060405180830381865afa158015610724573d6000803e3d6000fd5b505050506040513d601f19601f82011682018060405250810190610748919061159d565b90508015610a7857610758610dd1565b6001600160a01b031663cd26c0e66000306040518363ffffffff1660e01b8152600401610786929190611612565b60408051808303816000875af11580156107a4573d6000803e3d6000fd5b505050506040513d601f19601f820116820180604052508101906107c89190611629565b50506007546001600160a01b03166001600160a01b031663095ea7b36107f66006546001600160a01b031690565b836040518363ffffffff1660e01b8152600401610814929190611543565b6020604051808303816000875af1158015610833573d6000803e3d6000fd5b505050506040513d601f19601f82011682018060405250810190610857919061155c565b506006546040516338ed173960e01b81526000916001600160a01b0316906338ed17399061089290859085906008903090429060040161164d565b6000604051808303816000875af11580156108b1573d6000803e3d6000fd5b505050506040513d6000823e601f3d908101601f191682016040526108d991908101906116db565b90506108e36105d7565b6001600160a01b031663095ea7b36108f9610dd1565b8360018151811061090c5761090c611799565b60200260200101516040518363ffffffff1660e01b8152600401610931929190611543565b6020604051808303816000875af1158015610950573d6000803e3d6000fd5b505050506040513d601f19601f82011682018060405250810190610974919061155c565b507f00000000000000000000000000000000000000000000000000000000000000006001600160a01b0316636e553f65826001815181106109b7576109b7611799565b6020026020010151306040518363ffffffff1660e01b81526004016109dd929190611612565b6020604051808303816000875af11580156109fc573d6000803e3d6000fd5b505050506040513d601f19601f82011682018060405250810190610a20919061159d565b507f7bb2b3c10797baccb6f8c4791f1edd6ca2f0d028ee0eda64b01a9a57e3a653f781600181518110610a5557610a55611799565b6020026020010151604051610a6c91815260200190565b60405180910390a15050565b604051632706c9e160e21b815260040160405180910390fd5b50565b600082600003610af45760405162461bcd60e51b815260206004820152602560248201527f4175746f436f6d706f756e6465723a20496e76616c69642061737365747320616044820152641b5bdd5b9d60da1b6064820152608401610314565b6001600160a01b038216610b1a5760405162461bcd60e51b8152600401610314906114ce565b610b226105fb565b610b2c90846115f0565b9050610b4d333085610b3c6105d7565b6001600160a01b0316929190610ef3565b610b556105d7565b6001600160a01b031663095ea7b3610b6b610dd1565b856040518363ffffffff1660e01b8152600401610b89929190611543565b6020604051808303816000875af1158015610ba8573d6000803e3d6000fd5b505050506040513d601f19601f82011682018060405250810190610bcc919061155c565b507f000000000000000000000000000000000000000000000000000000000000000015610c5d57610bfb610dd1565b6001600160a01b03166385b77f458430306040518463ffffffff1660e01b8152600401610c2a9392919061157e565b600060405180830381600087803b158015610c4457600080fd5b505af1158015610c58573d6000803e3d6000fd5b505050505b604051636e553f6560e01b81526001600160a01b037f00000000000000000000000000000000000000000000000000000000000000001690636e553f6590610cab9086903090600401611612565b6020604051808303816000875af1158015610cca573d6000803e3d6000fd5b505050506040513d601f19601f82011682018060405250810190610cee919061159d565b50610cf98282610f4d565b60408051848152602081018390526001600160a01b038416917f90890809c654f11d6e72a28fa60149770a0d11ec6c92319d6ceb2bb0a4ea1a1591016104c2565b610d42610f83565b610d4c6000610fb0565b565b606060048054610516906115b6565b6000336105a7818585610e94565b6001600160a01b03918216600090815260016020908152604080832093909416825291909152205490565b610d9e610f83565b6001600160a01b038116610dc8576000604051631e4fbdf760e01b81526004016103149190611439565b610a9181610fb0565b7f000000000000000000000000000000000000000000000000000000000000000090565b6001600160a01b038216610e1f576000604051634b637e8f60e11b81526004016103149190611439565b610e2b82600083611002565b5050565b610e3c8383836001611119565b505050565b6000610e4d8484610d6b565b90506000198114610e8e5781811015610e7f57828183604051637dc7a0d960e11b8152600401610314939291906117af565b610e8e84848484036000611119565b50505050565b6001600160a01b038316610ebe576000604051634b637e8f60e11b81526004016103149190611439565b6001600160a01b038216610ee857600060405163ec442f0560e01b81526004016103149190611439565b610e3c838383611002565b604080516001600160a01b0385811660248301528416604482015260648082018490528251808303909101815260849091019091526020810180516001600160e01b03166323b872dd60e01b179052610e8e9085906111ee565b6001600160a01b038216610f7757600060405163ec442f0560e01b81526004016103149190611439565b610e2b60008383611002565b6005546001600160a01b03163314610d4c573360405163118cdaa760e01b81526004016103149190611439565b600580546001600160a01b038381166001600160a01b0319831681179093556040519116919082907f8be0079c531659141344cd1fd0a4f28419497f9722a3daafe3b4186f6b6457e090600090a35050565b6001600160a01b03831661102d57806002600082825461102291906117d0565b9091555061108c9050565b6001600160a01b0383166000908152602081905260409020548181101561106d5783818360405163391434e360e21b8152600401610314939291906117af565b6001600160a01b03841660009081526020819052604090209082900390555b6001600160a01b0382166110a8576002805482900390556110c7565b6001600160a01b03821660009081526020819052604090208054820190555b816001600160a01b0316836001600160a01b03167fddf252ad1be2c89b69c2b068fc378daa952ba7f163c4a11628f55a4df523b3ef8360405161110c91815260200190565b60405180910390a3505050565b6001600160a01b03841661114357600060405163e602df0560e01b81526004016103149190611439565b6001600160a01b03831661116d576000604051634a1406b160e11b81526004016103149190611439565b6001600160a01b0380851660009081526001602090815260408083209387168352929052208290558015610e8e57826001600160a01b0316846001600160a01b03167f8c5be1e5ebec7d5bd14f71427d1e84f3dd0314c0f7b2291e5b200ac8c7c3b925846040516111e091815260200190565b60405180910390a350505050565b60006112036001600160a01b03841683611248565b90508051600014158015611228575080806020019051810190611226919061155c565b155b15610e3c5782604051635274afe760e01b81526004016103149190611439565b60606105d08383600084600080856001600160a01b0316848660405161126e91906117e3565b60006040518083038185875af1925050503d80600081146112ab576040519150601f19603f3d011682016040523d82523d6000602084013e6112b0565b606091505b50915091506112c08683836112ca565b9695505050505050565b6060826112df576112da8261131d565b6105d0565b81511580156112f657506001600160a01b0384163b155b156113165783604051639996b31560e01b81526004016103149190611439565b50806105d0565b80511561132d5780518082602001fd5b604051630a12f52160e11b815260040160405180910390fd5b80356001600160a01b038116811461135d57600080fd5b919050565b6000806040838503121561137557600080fd5b8235915061138560208401611346565b90509250929050565b6000602082840312156113a057600080fd5b81356001600160e01b0319811681146105d057600080fd5b60005b838110156113d35781810151838201526020016113bb565b50506000910152565b60208152600082518060208401526113fb8160408501602087016113b8565b601f01601f19169190910160400192915050565b6000806040838503121561142257600080fd5b61142b83611346565b946020939093013593505050565b6001600160a01b0391909116815260200190565b60008060006060848603121561146257600080fd5b61146b84611346565b925061147960208501611346565b9150604084013590509250925092565b60006020828403121561149b57600080fd5b6105d082611346565b600080604083850312156114b757600080fd5b6114c083611346565b915061138560208401611346565b60208082526028908201527f4175746f436f6d706f756e6465723a20496e76616c6964207265636569766572604082015267206164647265737360c01b606082015260800190565b634e487b7160e01b600052601160045260246000fd5b808202811582820484141761050157610501611516565b6001600160a01b03929092168252602082015260400190565b60006020828403121561156e57600080fd5b815180151581146105d057600080fd5b9283526001600160a01b03918216602084015216604082015260600190565b6000602082840312156115af57600080fd5b5051919050565b600181811c908216806115ca57607f821691505b6020821081036115ea57634e487b7160e01b600052602260045260246000fd5b50919050565b60008261160d57634e487b7160e01b600052601260045260246000fd5b500490565b9182526001600160a01b0316602082015260400190565b6000806040838503121561163c57600080fd5b505080516020909101519092909150565b600060a08201878352602087602085015260a0604085015281875480845260c086019150886000526020600020935060005b818110156116a45784546001600160a01b03168352600194850194928401920161167f565b50506001600160a01b03969096166060850152505050608001529392505050565b634e487b7160e01b600052604160045260246000fd5b600060208083850312156116ee57600080fd5b825167ffffffffffffffff8082111561170657600080fd5b818501915085601f83011261171a57600080fd5b81518181111561172c5761172c6116c5565b8060051b604051601f19603f83011681018181108582111715611751576117516116c5565b60405291825284820192508381018501918883111561176f57600080fd5b938501935b8285101561178d57845184529385019392850192611774565b98975050505050505050565b634e487b7160e01b600052603260045260246000fd5b6001600160a01b039390931683526020830191909152604082015260600190565b8082018082111561050157610501611516565b600082516117f58184602087016113b8565b919091019291505056fea2646970667358221220a7c4b07463a4f2a942f65239a68c3e276db57d7d1c8453db90e93aa5e37a405e64736f6c63430008180033a26469706673582212209d55981b03a28319f6cb8c8b48349767e65388cdd68c2d167f391f6ee448b91664736f6c63430008180033",
  "linkReferences": {},
  "deployedLinkReferences": {}
}