{
  "_format": "hh-sol-artifact-1",
  "contractName": "AutoCompounder",
  "sourceName": "contracts/erc4626/AutoCompounder.sol",
  "abi": [
    {
      "inputs": [
        {
          "internalType": "address",
          "name": "uniswapV2Router_",
          "type": "address"
        },
        {
          "internalType": "address",
          "name": "vault_",
          "type": "address"
        },
        {
          "internalType": "address",
          "name": "usdc_",
          "type": "address"
        },
        {
          "internalType": "string",
          "name": "name_",
          "type": "string"
        },
        {
          "internalType": "string",
          "name": "symbol_",
          "type": "string"
        }
      ],
      "stateMutability": "payable",
      "type": "constructor"
    },
    {
      "inputs": [
        {
          "internalType": "address",
          "name": "target",
          "type": "address"
        }
      ],
      "name": "AddressEmptyCode",
      "type": "error"
    },
    {
      "inputs": [
        {
          "internalType": "address",
          "name": "account",
          "type": "address"
        }
      ],
      "name": "AddressInsufficientBalance",
      "type": "error"
    },
    {
      "inputs": [],
      "name": "FailedInnerCall",
      "type": "error"
    },
    {
      "inputs": [
        {
          "internalType": "address",
          "name": "owner",
          "type": "address"
        }
      ],
      "name": "OwnableInvalidOwner",
      "type": "error"
    },
    {
      "inputs": [
        {
          "internalType": "address",
          "name": "account",
          "type": "address"
        }
      ],
      "name": "OwnableUnauthorizedAccount",
      "type": "error"
    },
    {
      "inputs": [
        {
          "internalType": "address",
          "name": "token",
          "type": "address"
        }
      ],
      "name": "SafeERC20FailedOperation",
      "type": "error"
    },
    {
      "inputs": [],
      "name": "ZeroReward",
      "type": "error"
    },
    {
      "anonymous": false,
      "inputs": [
        {
          "indexed": true,
          "internalType": "address",
          "name": "owner",
          "type": "address"
        },
        {
          "indexed": true,
          "internalType": "address",
          "name": "spender",
          "type": "address"
        },
        {
          "indexed": false,
          "internalType": "uint256",
          "name": "amount",
          "type": "uint256"
        }
      ],
      "name": "Approval",
      "type": "event"
    },
    {
      "anonymous": false,
      "inputs": [
        {
          "indexed": false,
          "internalType": "uint256",
          "name": "depositedUnderlying",
          "type": "uint256"
        }
      ],
      "name": "Claim",
      "type": "event"
    },
    {
      "anonymous": false,
      "inputs": [
        {
          "indexed": true,
          "internalType": "address",
          "name": "createdToken",
          "type": "address"
        }
      ],
      "name": "CreatedToken",
      "type": "event"
    },
    {
      "anonymous": false,
      "inputs": [
        {
          "indexed": true,
          "internalType": "address",
          "name": "caller",
          "type": "address"
        },
        {
          "indexed": false,
          "internalType": "uint256",
          "name": "assets",
          "type": "uint256"
        },
        {
          "indexed": false,
          "internalType": "uint256",
          "name": "aTokenMinted",
          "type": "uint256"
        }
      ],
      "name": "Deposit",
      "type": "event"
    },
    {
      "anonymous": false,
      "inputs": [
        {
          "indexed": true,
          "internalType": "address",
          "name": "previousOwner",
          "type": "address"
        },
        {
          "indexed": true,
          "internalType": "address",
          "name": "newOwner",
          "type": "address"
        }
      ],
      "name": "OwnershipTransferred",
      "type": "event"
    },
    {
      "anonymous": false,
      "inputs": [
        {
          "indexed": true,
          "internalType": "address",
          "name": "from",
          "type": "address"
        },
        {
          "indexed": true,
          "internalType": "address",
          "name": "to",
          "type": "address"
        },
        {
          "indexed": false,
          "internalType": "uint256",
          "name": "amount",
          "type": "uint256"
        }
      ],
      "name": "Transfer",
      "type": "event"
    },
    {
      "anonymous": false,
      "inputs": [
        {
          "indexed": true,
          "internalType": "address",
          "name": "caller",
          "type": "address"
        },
        {
          "indexed": false,
          "internalType": "uint256",
          "name": "aTokenAmount",
          "type": "uint256"
        },
        {
          "indexed": false,
          "internalType": "uint256",
          "name": "underlyingAmount",
          "type": "uint256"
        }
      ],
      "name": "Withdraw",
      "type": "event"
    },
    {
      "inputs": [],
      "name": "DOMAIN_SEPARATOR",
      "outputs": [
        {
          "internalType": "bytes32",
          "name": "",
          "type": "bytes32"
        }
      ],
      "stateMutability": "view",
      "type": "function"
    },
    {
      "inputs": [
        {
          "internalType": "address",
          "name": "",
          "type": "address"
        },
        {
          "internalType": "address",
          "name": "",
          "type": "address"
        }
      ],
      "name": "allowance",
      "outputs": [
        {
          "internalType": "uint256",
          "name": "",
          "type": "uint256"
        }
      ],
      "stateMutability": "view",
      "type": "function"
    },
    {
      "inputs": [
        {
          "internalType": "address",
          "name": "spender",
          "type": "address"
        },
        {
          "internalType": "uint256",
          "name": "amount",
          "type": "uint256"
        }
      ],
      "name": "approve",
      "outputs": [
        {
          "internalType": "bool",
          "name": "",
          "type": "bool"
        }
      ],
      "stateMutability": "nonpayable",
      "type": "function"
    },
    {
      "inputs": [],
      "name": "asset",
      "outputs": [
        {
          "internalType": "address",
          "name": "",
          "type": "address"
        }
      ],
      "stateMutability": "view",
      "type": "function"
    },
    {
      "inputs": [
        {
          "internalType": "address",
          "name": "",
          "type": "address"
        }
      ],
      "name": "balanceOf",
      "outputs": [
        {
          "internalType": "uint256",
          "name": "",
          "type": "uint256"
        }
      ],
      "stateMutability": "view",
      "type": "function"
    },
    {
      "inputs": [],
      "name": "claim",
      "outputs": [],
      "stateMutability": "nonpayable",
      "type": "function"
    },
    {
      "inputs": [],
      "name": "decimals",
      "outputs": [
        {
          "internalType": "uint8",
          "name": "",
          "type": "uint8"
        }
      ],
      "stateMutability": "view",
      "type": "function"
    },
    {
      "inputs": [
        {
          "internalType": "uint256",
          "name": "assets",
          "type": "uint256"
        },
        {
          "internalType": "address",
          "name": "receiver",
          "type": "address"
        }
      ],
      "name": "deposit",
      "outputs": [
        {
          "internalType": "uint256",
          "name": "amountToMint",
          "type": "uint256"
        }
      ],
      "stateMutability": "nonpayable",
      "type": "function"
    },
    {
      "inputs": [],
      "name": "exchangeRate",
      "outputs": [
        {
          "internalType": "uint256",
          "name": "",
          "type": "uint256"
        }
      ],
      "stateMutability": "view",
      "type": "function"
    },
    {
      "inputs": [],
      "name": "name",
      "outputs": [
        {
          "internalType": "string",
          "name": "",
          "type": "string"
        }
      ],
      "stateMutability": "view",
      "type": "function"
    },
    {
      "inputs": [
        {
          "internalType": "address",
          "name": "",
          "type": "address"
        }
      ],
      "name": "nonces",
      "outputs": [
        {
          "internalType": "uint256",
          "name": "",
          "type": "uint256"
        }
      ],
      "stateMutability": "view",
      "type": "function"
    },
    {
      "inputs": [],
      "name": "owner",
      "outputs": [
        {
          "internalType": "address",
          "name": "",
          "type": "address"
        }
      ],
      "stateMutability": "view",
      "type": "function"
    },
    {
      "inputs": [
        {
          "internalType": "address",
          "name": "owner",
          "type": "address"
        },
        {
          "internalType": "address",
          "name": "spender",
          "type": "address"
        },
        {
          "internalType": "uint256",
          "name": "value",
          "type": "uint256"
        },
        {
          "internalType": "uint256",
          "name": "deadline",
          "type": "uint256"
        },
        {
          "internalType": "uint8",
          "name": "v",
          "type": "uint8"
        },
        {
          "internalType": "bytes32",
          "name": "r",
          "type": "bytes32"
        },
        {
          "internalType": "bytes32",
          "name": "s",
          "type": "bytes32"
        }
      ],
      "name": "permit",
      "outputs": [],
      "stateMutability": "nonpayable",
      "type": "function"
    },
    {
      "inputs": [],
      "name": "renounceOwnership",
      "outputs": [],
      "stateMutability": "nonpayable",
      "type": "function"
    },
    {
      "inputs": [
        {
          "internalType": "bytes4",
          "name": "interfaceId",
          "type": "bytes4"
        }
      ],
      "name": "supportsInterface",
      "outputs": [
        {
          "internalType": "bool",
          "name": "",
          "type": "bool"
        }
      ],
      "stateMutability": "view",
      "type": "function"
    },
    {
      "inputs": [],
      "name": "symbol",
      "outputs": [
        {
          "internalType": "string",
          "name": "",
          "type": "string"
        }
      ],
      "stateMutability": "view",
      "type": "function"
    },
    {
      "inputs": [],
      "name": "totalSupply",
      "outputs": [
        {
          "internalType": "uint256",
          "name": "",
          "type": "uint256"
        }
      ],
      "stateMutability": "view",
      "type": "function"
    },
    {
      "inputs": [
        {
          "internalType": "address",
          "name": "to",
          "type": "address"
        },
        {
          "internalType": "uint256",
          "name": "amount",
          "type": "uint256"
        }
      ],
      "name": "transfer",
      "outputs": [
        {
          "internalType": "bool",
          "name": "",
          "type": "bool"
        }
      ],
      "stateMutability": "nonpayable",
      "type": "function"
    },
    {
      "inputs": [
        {
          "internalType": "address",
          "name": "from",
          "type": "address"
        },
        {
          "internalType": "address",
          "name": "to",
          "type": "address"
        },
        {
          "internalType": "uint256",
          "name": "amount",
          "type": "uint256"
        }
      ],
      "name": "transferFrom",
      "outputs": [
        {
          "internalType": "bool",
          "name": "",
          "type": "bool"
        }
      ],
      "stateMutability": "nonpayable",
      "type": "function"
    },
    {
      "inputs": [
        {
          "internalType": "address",
          "name": "newOwner",
          "type": "address"
        }
      ],
      "name": "transferOwnership",
      "outputs": [],
      "stateMutability": "nonpayable",
      "type": "function"
    },
    {
      "inputs": [],
      "name": "uniswapV2Router",
      "outputs": [
        {
          "internalType": "address",
          "name": "",
          "type": "address"
        }
      ],
      "stateMutability": "view",
      "type": "function"
    },
    {
      "inputs": [],
      "name": "usdc",
      "outputs": [
        {
          "internalType": "address",
          "name": "",
          "type": "address"
        }
      ],
      "stateMutability": "view",
      "type": "function"
    },
    {
      "inputs": [],
      "name": "vault",
      "outputs": [
        {
          "internalType": "address",
          "name": "",
          "type": "address"
        }
      ],
      "stateMutability": "view",
      "type": "function"
    },
    {
      "inputs": [
        {
          "internalType": "uint256",
          "name": "aTokenAmount",
          "type": "uint256"
        },
        {
          "internalType": "address",
          "name": "receiver",
          "type": "address"
        }
      ],
      "name": "withdraw",
      "outputs": [
        {
          "internalType": "uint256",
          "name": "underlyingAmount",
          "type": "uint256"
        }
      ],
      "stateMutability": "nonpayable",
      "type": "function"
    }
  ],
  "bytecode": "0x61012060405260405162002677380380620026778339810160408190526200002791620007e0565b338282866001600160a01b03166338d52e0f6040518163ffffffff1660e01b8152600401602060405180830381865afa15801562000069573d6000803e3d6000fd5b505050506040513d601f19601f820116820180604052508101906200008f919062000883565b6001600160a01b031663313ce5676040518163ffffffff1660e01b8152600401602060405180830381865afa158015620000cd573d6000803e3d6000fd5b505050506040513d601f19601f82011682018060405250810190620000f39190620008a1565b600062000101848262000957565b50600162000110838262000957565b5060ff81166080524660a052620001266200049f565b60c0525050506001600160a01b0381166200015c57604051631e4fbdf760e01b8152600060048201526024015b60405180910390fd5b62000167816200053b565b506001600160a01b038516620001d75760405162461bcd60e51b815260206004820152602e60248201527f4175746f436f6d706f756e6465723a20496e76616c696420556e69737761702060448201526d526f75746572206164647265737360901b606482015260840162000153565b6001600160a01b0384166200023d5760405162461bcd60e51b815260206004820152602560248201527f4175746f436f6d706f756e6465723a20496e76616c6964205661756c74206164604482015264647265737360d81b606482015260840162000153565b6001600160a01b038316620002a85760405162461bcd60e51b815260206004820152602a60248201527f4175746f436f6d706f756e6465723a20496e76616c6964205553444320746f6b604482015269656e206164647265737360b01b606482015260840162000153565b620002bb8463043eff2d60e51b6200058d565b620003205760405162461bcd60e51b815260206004820152602e60248201527f4175746f436f6d706f756e6465723a20556e737570706f72746564207661756c60448201526d1d081a5b9d195c999858d948125160921b606482015260840162000153565b84600760006101000a8154816001600160a01b0302191690836001600160a01b03160217905550836001600160a01b03166338d52e0f6040518163ffffffff1660e01b8152600401602060405180830381865afa15801562000386573d6000803e3d6000fd5b505050506040513d601f19601f82011682018060405250810190620003ac919062000883565b6001600160a01b039081166101005284811660e052600980546001600160a01b0319169185169190911790556040805160028082526060820183529091602083019080368337505081516200040992600a9250602001906200067a565b506009546001600160a01b031661010051600a60008154811062000431576200043162000a23565b906000526020600020016000600a60018154811062000454576200045462000a23565b600091825260209091200180546001600160a01b039485166001600160a01b031990911617905581549383166101009190910a9081029202199092161790555062000ab79350505050565b60007f8b73c3c69bb8fe3d512ecc4cf759cc79239f7b179b0ffacaa9a75d522b39400f6000604051620004d3919062000a39565b6040805191829003822060208301939093528101919091527fc89efdaa54c0f20c7adf612882df0950f5a951637e0307cdcb4c672f298b8bc660608201524660808201523060a082015260c00160405160208183030381529060405280519060200120905090565b600680546001600160a01b038381166001600160a01b0319831681179093556040519116919082907f8be0079c531659141344cd1fd0a4f28419497f9722a3daafe3b4186f6b6457e090600090a35050565b60006200059a83620005b5565b8015620005ae5750620005ae8383620005ee565b9392505050565b6000620005ca826301ffc9a760e01b620005ee565b8015620005e85750620005e6826001600160e01b0319620005ee565b155b92915050565b6040516001600160e01b031982166024820152600090819060440160408051601f19818403018152919052602080820180516001600160e01b03166301ffc9a760e01b178152825192935060009283928392909183918a617530fa92503d9150600051905082801562000662575060208210155b80156200066f5750600081115b979650505050505050565b828054828255906000526020600020908101928215620006d2579160200282015b82811115620006d257825182546001600160a01b0319166001600160a01b039091161782556020909201916001909101906200069b565b50620006e0929150620006e4565b5090565b5b80821115620006e05760008155600101620006e5565b80516001600160a01b03811681146200071357600080fd5b919050565b634e487b7160e01b600052604160045260246000fd5b600082601f8301126200074057600080fd5b81516001600160401b03808211156200075d576200075d62000718565b604051601f8301601f19908116603f0116810190828211818310171562000788576200078862000718565b8160405283815260209250866020858801011115620007a657600080fd5b600091505b83821015620007ca5785820183015181830184015290820190620007ab565b6000602085830101528094505050505092915050565b600080600080600060a08688031215620007f957600080fd5b6200080486620006fb565b94506200081460208701620006fb565b93506200082460408701620006fb565b60608701519093506001600160401b03808211156200084257600080fd5b6200085089838a016200072e565b935060808801519150808211156200086757600080fd5b5062000876888289016200072e565b9150509295509295909350565b6000602082840312156200089657600080fd5b620005ae82620006fb565b600060208284031215620008b457600080fd5b815160ff81168114620005ae57600080fd5b600181811c90821680620008db57607f821691505b602082108103620008fc57634e487b7160e01b600052602260045260246000fd5b50919050565b601f82111562000952576000816000526020600020601f850160051c810160208610156200092d5750805b601f850160051c820191505b818110156200094e5782815560010162000939565b5050505b505050565b81516001600160401b0381111562000973576200097362000718565b6200098b81620009848454620008c6565b8462000902565b602080601f831160018114620009c35760008415620009aa5750858301515b600019600386901b1c1916600185901b1785556200094e565b600085815260208120601f198616915b82811015620009f457888601518255948401946001909101908401620009d3565b508582101562000a135787850151600019600388901b60f8161c191681555b5050505050600190811b01905550565b634e487b7160e01b600052603260045260246000fd5b600080835462000a4981620008c6565b6001828116801562000a64576001811462000a7a5762000aab565b60ff198416875282151583028701945062000aab565b8760005260208060002060005b8581101562000aa25781548a82015290840190820162000a87565b50505082870194505b50929695505050505050565b60805160a05160c05160e05161010051611b5862000b1f60003960006107db0152600081816103f8015281816104bb0152818161080201528181610b7901528181610de601526111ae015260006107b701526000610782015260006102070152611b586000f3fe608060405234801561001057600080fd5b50600436106101575760003560e01c80634e71d92d116100c357806395d89b411161007c57806395d89b41146102da578063a9059cbb146102e2578063d505accf146102f5578063dd62ed3e14610308578063f2fde38b14610333578063fbfa77cf1461034657600080fd5b80634e71d92d146102645780636e553f651461026e57806370a0823114610281578063715018a6146102a15780637ecebe00146102a95780638da5cb5b146102c957600080fd5b806323b872dd1161011557806323b872dd146101ef578063313ce567146102025780633644e5151461023b57806338d52e0f146102435780633ba0b9a91461024b5780633e413bee1461025357600080fd5b8062f714ce1461015c57806301ffc9a71461018257806306fdde03146101a5578063095ea7b3146101ba5780631694505e146101cd57806318160ddd146101e7575b600080fd5b61016f61016a36600461157e565b61034e565b6040519081526020015b60405180910390f35b6101956101903660046115aa565b61056b565b6040519015158152602001610179565b6101ad6105a2565b60405161017991906115f8565b6101956101c836600461162b565b610630565b6007546001600160a01b03165b6040516101799190611655565b60025461016f565b6101956101fd366004611669565b61069c565b6102297f000000000000000000000000000000000000000000000000000000000000000081565b60405160ff9091168152602001610179565b61016f61077e565b6101da6107d9565b61016f6107fd565b6009546001600160a01b03166101da565b61026c6108b0565b005b61016f61027c36600461157e565b610c96565b61016f61028f3660046116a5565b60036020526000908152604090205481565b61026c610eac565b61016f6102b73660046116a5565b60056020526000908152604090205481565b6006546001600160a01b03166101da565b6101ad610ec0565b6101956102f036600461162b565b610ecd565b61026c6103033660046116c0565b610f33565b61016f610316366004611733565b600460209081526000928352604080842090915290825290205481565b61026c6103413660046116a5565b611171565b6101da6111ac565b60008083116103b25760405162461bcd60e51b815260206004820152602560248201527f4175746f436f6d706f756e6465723a20496e76616c69642061546f6b656e20616044820152641b5bdd5b9d60da1b60648201526084015b60405180910390fd5b6001600160a01b0382166103d85760405162461bcd60e51b81526004016103a99061175d565b6103e06107fd565b6103ea90846117bb565b90506103f633846111d0565b7f00000000000000000000000000000000000000000000000000000000000000006001600160a01b031663095ea7b361042d6111ac565b836040518363ffffffff1660e01b815260040161044b9291906117d2565b6020604051808303816000875af115801561046a573d6000803e3d6000fd5b505050506040513d601f19601f8201168201806040525081019061048e91906117eb565b50604051632d182be560e21b8152600481018290526001600160a01b0383811660248301523060448301527f0000000000000000000000000000000000000000000000000000000000000000169063b460af94906064016020604051808303816000875af1158015610504573d6000803e3d6000fd5b505050506040513d601f19601f82011682018060405250810190610528919061180d565b50604080518481526020810183905233917ff279e6a1f5e320cca91135676d9cb6e44ca8a08c0b88342bcdb1144f6511b56891015b60405180910390a292915050565b60006001600160e01b0319821663d85c12ef60e01b148061059c57506301ffc9a760e01b6001600160e01b03198316145b92915050565b600080546105af90611826565b80601f01602080910402602001604051908101604052809291908181526020018280546105db90611826565b80156106285780601f106105fd57610100808354040283529160200191610628565b820191906000526020600020905b81548152906001019060200180831161060b57829003601f168201915b505050505081565b3360008181526004602090815260408083206001600160a01b038716808552925280832085905551919290917f8c5be1e5ebec7d5bd14f71427d1e84f3dd0314c0f7b2291e5b200ac8c7c3b9259061068b9086815260200190565b60405180910390a350600192915050565b6001600160a01b038316600090815260046020908152604080832033845290915281205460001981146106f8576106d38382611860565b6001600160a01b03861660009081526004602090815260408083203384529091529020555b6001600160a01b03851660009081526003602052604081208054859290610720908490611860565b90915550506001600160a01b0380851660008181526003602052604090819020805487019055519091871690600080516020611b03833981519152906107699087815260200190565b60405180910390a360019150505b9392505050565b60007f000000000000000000000000000000000000000000000000000000000000000046146107b4576107af61123a565b905090565b507f000000000000000000000000000000000000000000000000000000000000000090565b7f000000000000000000000000000000000000000000000000000000000000000090565b6000807f00000000000000000000000000000000000000000000000000000000000000006001600160a01b03166318160ddd6040518163ffffffff1660e01b8152600401602060405180830381865afa15801561085e573d6000803e3d6000fd5b505050506040513d601f19601f82011682018060405250810190610882919061180d565b9050600061088f60025490565b905080156108a6576108a18282611873565b6108a9565b60015b9250505090565b60006108ba6111ac565b6001600160a01b0316635ab764ed306108db6009546001600160a01b031690565b6040516001600160e01b031960e085901b1681526001600160a01b03928316600482015291166024820152604401602060405180830381865afa158015610926573d6000803e3d6000fd5b505050506040513d601f19601f8201168201806040525081019061094a919061180d565b90508015610c7a5761095a6111ac565b6001600160a01b031663cd26c0e66000306040518363ffffffff1660e01b8152600401610988929190611895565b60408051808303816000875af11580156109a6573d6000803e3d6000fd5b505050506040513d601f19601f820116820180604052508101906109ca91906118ac565b50506009546001600160a01b03166001600160a01b031663095ea7b36109f86007546001600160a01b031690565b836040518363ffffffff1660e01b8152600401610a169291906117d2565b6020604051808303816000875af1158015610a35573d6000803e3d6000fd5b505050506040513d601f19601f82011682018060405250810190610a5991906117eb565b506007546040516338ed173960e01b81526000916001600160a01b0316906338ed173990610a949085908590600a90309042906004016118d0565b6000604051808303816000875af1158015610ab3573d6000803e3d6000fd5b505050506040513d6000823e601f3d908101601f19168201604052610adb919081019061195e565b9050610ae56107d9565b6001600160a01b031663095ea7b3610afb6111ac565b83600181518110610b0e57610b0e611a1c565b60200260200101516040518363ffffffff1660e01b8152600401610b339291906117d2565b6020604051808303816000875af1158015610b52573d6000803e3d6000fd5b505050506040513d601f19601f82011682018060405250810190610b7691906117eb565b507f00000000000000000000000000000000000000000000000000000000000000006001600160a01b0316636e553f6582600181518110610bb957610bb9611a1c565b6020026020010151306040518363ffffffff1660e01b8152600401610bdf929190611895565b6020604051808303816000875af1158015610bfe573d6000803e3d6000fd5b505050506040513d601f19601f82011682018060405250810190610c22919061180d565b507f7bb2b3c10797baccb6f8c4791f1edd6ca2f0d028ee0eda64b01a9a57e3a653f781600181518110610c5757610c57611a1c565b6020026020010151604051610c6e91815260200190565b60405180910390a15050565b604051632706c9e160e21b815260040160405180910390fd5b50565b600082600003610cf65760405162461bcd60e51b815260206004820152602560248201527f4175746f436f6d706f756e6465723a20496e76616c69642061737365747320616044820152641b5bdd5b9d60da1b60648201526084016103a9565b6001600160a01b038216610d1c5760405162461bcd60e51b81526004016103a99061175d565b610d246107fd565b610d2e9084611873565b9050610d4f333085610d3e6107d9565b6001600160a01b03169291906112d4565b610d576107d9565b6001600160a01b031663095ea7b3610d6d6111ac565b856040518363ffffffff1660e01b8152600401610d8b9291906117d2565b6020604051808303816000875af1158015610daa573d6000803e3d6000fd5b505050506040513d601f19601f82011682018060405250810190610dce91906117eb565b50604051636e553f6560e01b81526001600160a01b037f00000000000000000000000000000000000000000000000000000000000000001690636e553f6590610e1d9086903090600401611895565b6020604051808303816000875af1158015610e3c573d6000803e3d6000fd5b505050506040513d601f19601f82011682018060405250810190610e60919061180d565b50610e6b8282611334565b60408051848152602081018390526001600160a01b038416917f90890809c654f11d6e72a28fa60149770a0d11ec6c92319d6ceb2bb0a4ea1a15910161055d565b610eb4611386565b610ebe60006113b3565b565b600180546105af90611826565b33600090815260036020526040812080548391908390610eee908490611860565b90915550506001600160a01b03831660008181526003602052604090819020805485019055513390600080516020611b038339815191529061068b9086815260200190565b42841015610f7d5760405162461bcd60e51b815260206004820152601760248201527614115493525517d11150511312539157d1561412549151604a1b60448201526064016103a9565b60006001610f8961077e565b6001600160a01b038a811660008181526005602090815260409182902080546001810190915582517f6e71edae12b1b97f4d1f60370fef10105fa2faae0126114a169c64845d6126c98184015280840194909452938d166060840152608083018c905260a083019390935260c08083018b90528151808403909101815260e08301909152805192019190912061190160f01b6101008301526101028201929092526101228101919091526101420160408051601f198184030181528282528051602091820120600084529083018083525260ff871690820152606081018590526080810184905260a0016020604051602081039080840390855afa158015611095573d6000803e3d6000fd5b5050604051601f1901519150506001600160a01b038116158015906110cb5750876001600160a01b0316816001600160a01b0316145b6111085760405162461bcd60e51b815260206004820152600e60248201526d24a72b20a624a22fa9a4a3a722a960911b60448201526064016103a9565b6001600160a01b0390811660009081526004602090815260408083208a8516808552908352928190208990555188815291928a16917f8c5be1e5ebec7d5bd14f71427d1e84f3dd0314c0f7b2291e5b200ac8c7c3b925910160405180910390a350505050505050565b611179611386565b6001600160a01b0381166111a3576000604051631e4fbdf760e01b81526004016103a99190611655565b610c93816113b3565b7f000000000000000000000000000000000000000000000000000000000000000090565b6001600160a01b038216600090815260036020526040812080548392906111f8908490611860565b90915550506002805482900390556040518181526000906001600160a01b03841690600080516020611b03833981519152906020015b60405180910390a35050565b60007f8b73c3c69bb8fe3d512ecc4cf759cc79239f7b179b0ffacaa9a75d522b39400f600060405161126c9190611a32565b6040805191829003822060208301939093528101919091527fc89efdaa54c0f20c7adf612882df0950f5a951637e0307cdcb4c672f298b8bc660608201524660808201523060a082015260c00160405160208183030381529060405280519060200120905090565b604080516001600160a01b0385811660248301528416604482015260648082018490528251808303909101815260849091019091526020810180516001600160e01b03166323b872dd60e01b17905261132e908590611405565b50505050565b80600260008282546113469190611ad3565b90915550506001600160a01b038216600081815260036020908152604080832080548601905551848152600080516020611b03833981519152910161122e565b6006546001600160a01b03163314610ebe573360405163118cdaa760e01b81526004016103a99190611655565b600680546001600160a01b038381166001600160a01b0319831681179093556040519116919082907f8be0079c531659141344cd1fd0a4f28419497f9722a3daafe3b4186f6b6457e090600090a35050565b600061141a6001600160a01b03841683611464565b9050805160001415801561143f57508080602001905181019061143d91906117eb565b155b1561145f5782604051635274afe760e01b81526004016103a99190611655565b505050565b60606107778383600084600080856001600160a01b0316848660405161148a9190611ae6565b60006040518083038185875af1925050503d80600081146114c7576040519150601f19603f3d011682016040523d82523d6000602084013e6114cc565b606091505b50915091506114dc8683836114e6565b9695505050505050565b6060826114fb576114f682611539565b610777565b815115801561151257506001600160a01b0384163b155b156115325783604051639996b31560e01b81526004016103a99190611655565b5080610777565b8051156115495780518082602001fd5b604051630a12f52160e11b815260040160405180910390fd5b80356001600160a01b038116811461157957600080fd5b919050565b6000806040838503121561159157600080fd5b823591506115a160208401611562565b90509250929050565b6000602082840312156115bc57600080fd5b81356001600160e01b03198116811461077757600080fd5b60005b838110156115ef5781810151838201526020016115d7565b50506000910152565b60208152600082518060208401526116178160408501602087016115d4565b601f01601f19169190910160400192915050565b6000806040838503121561163e57600080fd5b61164783611562565b946020939093013593505050565b6001600160a01b0391909116815260200190565b60008060006060848603121561167e57600080fd5b61168784611562565b925061169560208501611562565b9150604084013590509250925092565b6000602082840312156116b757600080fd5b61077782611562565b600080600080600080600060e0888a0312156116db57600080fd5b6116e488611562565b96506116f260208901611562565b95506040880135945060608801359350608088013560ff8116811461171657600080fd5b9699959850939692959460a0840135945060c09093013592915050565b6000806040838503121561174657600080fd5b61174f83611562565b91506115a160208401611562565b60208082526028908201527f4175746f436f6d706f756e6465723a20496e76616c6964207265636569766572604082015267206164647265737360c01b606082015260800190565b634e487b7160e01b600052601160045260246000fd5b808202811582820484141761059c5761059c6117a5565b6001600160a01b03929092168252602082015260400190565b6000602082840312156117fd57600080fd5b8151801515811461077757600080fd5b60006020828403121561181f57600080fd5b5051919050565b600181811c9082168061183a57607f821691505b60208210810361185a57634e487b7160e01b600052602260045260246000fd5b50919050565b8181038181111561059c5761059c6117a5565b60008261189057634e487b7160e01b600052601260045260246000fd5b500490565b9182526001600160a01b0316602082015260400190565b600080604083850312156118bf57600080fd5b505080516020909101519092909150565b600060a08201878352602087602085015260a0604085015281875480845260c086019150886000526020600020935060005b818110156119275784546001600160a01b031683526001948501949284019201611902565b50506001600160a01b03969096166060850152505050608001529392505050565b634e487b7160e01b600052604160045260246000fd5b6000602080838503121561197157600080fd5b825167ffffffffffffffff8082111561198957600080fd5b818501915085601f83011261199d57600080fd5b8151818111156119af576119af611948565b8060051b604051601f19603f830116810181811085821117156119d4576119d4611948565b6040529182528482019250838101850191888311156119f257600080fd5b938501935b82851015611a10578451845293850193928501926119f7565b98975050505050505050565b634e487b7160e01b600052603260045260246000fd5b60008083548160018260011c91506001831680611a5057607f831692505b60208084108203611a6f57634e487b7160e01b86526022600452602486fd5b818015611a835760018114611a9857611ac5565b60ff1986168952841515850289019650611ac5565b60008a81526020902060005b86811015611abd5781548b820152908501908301611aa4565b505084890196505b509498975050505050505050565b8082018082111561059c5761059c6117a5565b60008251611af88184602087016115d4565b919091019291505056feddf252ad1be2c89b69c2b068fc378daa952ba7f163c4a11628f55a4df523b3efa26469706673582212202e69d1d7462e7dad6dd64fb25f37dcb09f5e15f29ab10231b840e897d62499a564736f6c63430008180033",
  "linkReferences": {},
  "deployedLinkReferences": {}
}