{
  "_format": "hh-sol-artifact-1",
  "contractName": "AutoCompounder",
  "sourceName": "contracts/erc4626/AutoCompounder.sol",
  "abi": [
    {
      "inputs": [
        {
          "internalType": "address",
          "name": "_uniswapV2Router",
          "type": "address"
        },
        {
          "internalType": "address",
          "name": "_vault",
          "type": "address"
        },
        {
          "internalType": "address",
          "name": "_usdc",
          "type": "address"
        },
        {
          "internalType": "string",
          "name": "_name",
          "type": "string"
        },
        {
          "internalType": "string",
          "name": "_symbol",
          "type": "string"
        }
      ],
      "stateMutability": "payable",
      "type": "constructor"
    },
    {
      "inputs": [
        {
          "internalType": "address",
          "name": "owner",
          "type": "address"
        }
      ],
      "name": "OwnableInvalidOwner",
      "type": "error"
    },
    {
      "inputs": [
        {
          "internalType": "address",
          "name": "account",
          "type": "address"
        }
      ],
      "name": "OwnableUnauthorizedAccount",
      "type": "error"
    },
    {
      "inputs": [],
      "name": "ZeroReward",
      "type": "error"
    },
    {
      "anonymous": false,
      "inputs": [
        {
          "indexed": true,
          "internalType": "address",
          "name": "owner",
          "type": "address"
        },
        {
          "indexed": true,
          "internalType": "address",
          "name": "spender",
          "type": "address"
        },
        {
          "indexed": false,
          "internalType": "uint256",
          "name": "amount",
          "type": "uint256"
        }
      ],
      "name": "Approval",
      "type": "event"
    },
    {
      "anonymous": false,
      "inputs": [
        {
          "indexed": false,
          "internalType": "uint256",
          "name": "depositedUnderlying",
          "type": "uint256"
        }
      ],
      "name": "Claim",
      "type": "event"
    },
    {
      "anonymous": false,
      "inputs": [
        {
          "indexed": true,
          "internalType": "address",
          "name": "createdToken",
          "type": "address"
        }
      ],
      "name": "CreatedToken",
      "type": "event"
    },
    {
      "anonymous": false,
      "inputs": [
        {
          "indexed": true,
          "internalType": "address",
          "name": "caller",
          "type": "address"
        },
        {
          "indexed": false,
          "internalType": "uint256",
          "name": "assets",
          "type": "uint256"
        },
        {
          "indexed": false,
          "internalType": "uint256",
          "name": "aTokenMinted",
          "type": "uint256"
        }
      ],
      "name": "Deposit",
      "type": "event"
    },
    {
      "anonymous": false,
      "inputs": [
        {
          "indexed": true,
          "internalType": "address",
          "name": "previousOwner",
          "type": "address"
        },
        {
          "indexed": true,
          "internalType": "address",
          "name": "newOwner",
          "type": "address"
        }
      ],
      "name": "OwnershipTransferred",
      "type": "event"
    },
    {
      "anonymous": false,
      "inputs": [
        {
          "indexed": true,
          "internalType": "address",
          "name": "from",
          "type": "address"
        },
        {
          "indexed": true,
          "internalType": "address",
          "name": "to",
          "type": "address"
        },
        {
          "indexed": false,
          "internalType": "uint256",
          "name": "amount",
          "type": "uint256"
        }
      ],
      "name": "Transfer",
      "type": "event"
    },
    {
      "anonymous": false,
      "inputs": [
        {
          "indexed": true,
          "internalType": "address",
          "name": "caller",
          "type": "address"
        },
        {
          "indexed": false,
          "internalType": "uint256",
          "name": "aTokenAmount",
          "type": "uint256"
        },
        {
          "indexed": false,
          "internalType": "uint256",
          "name": "underlyingAmount",
          "type": "uint256"
        }
      ],
      "name": "Withdraw",
      "type": "event"
    },
    {
      "inputs": [],
      "name": "DOMAIN_SEPARATOR",
      "outputs": [
        {
          "internalType": "bytes32",
          "name": "",
          "type": "bytes32"
        }
      ],
      "stateMutability": "view",
      "type": "function"
    },
    {
      "inputs": [],
      "name": "aToken",
      "outputs": [
        {
          "internalType": "address",
          "name": "",
          "type": "address"
        }
      ],
      "stateMutability": "view",
      "type": "function"
    },
    {
      "inputs": [
        {
          "internalType": "address",
          "name": "",
          "type": "address"
        },
        {
          "internalType": "address",
          "name": "",
          "type": "address"
        }
      ],
      "name": "allowance",
      "outputs": [
        {
          "internalType": "uint256",
          "name": "",
          "type": "uint256"
        }
      ],
      "stateMutability": "view",
      "type": "function"
    },
    {
      "inputs": [
        {
          "internalType": "address",
          "name": "spender",
          "type": "address"
        },
        {
          "internalType": "uint256",
          "name": "amount",
          "type": "uint256"
        }
      ],
      "name": "approve",
      "outputs": [
        {
          "internalType": "bool",
          "name": "",
          "type": "bool"
        }
      ],
      "stateMutability": "nonpayable",
      "type": "function"
    },
    {
      "inputs": [],
      "name": "asset",
      "outputs": [
        {
          "internalType": "address",
          "name": "",
          "type": "address"
        }
      ],
      "stateMutability": "view",
      "type": "function"
    },
    {
      "inputs": [
        {
          "internalType": "address",
          "name": "",
          "type": "address"
        }
      ],
      "name": "balanceOf",
      "outputs": [
        {
          "internalType": "uint256",
          "name": "",
          "type": "uint256"
        }
      ],
      "stateMutability": "view",
      "type": "function"
    },
    {
      "inputs": [
        {
          "internalType": "address",
          "name": "token",
          "type": "address"
        }
      ],
      "name": "balances",
      "outputs": [
        {
          "internalType": "uint256",
          "name": "balance",
          "type": "uint256"
        }
      ],
      "stateMutability": "view",
      "type": "function"
    },
    {
      "inputs": [],
      "name": "claim",
      "outputs": [],
      "stateMutability": "nonpayable",
      "type": "function"
    },
    {
      "inputs": [],
      "name": "decimals",
      "outputs": [
        {
          "internalType": "uint8",
          "name": "",
          "type": "uint8"
        }
      ],
      "stateMutability": "view",
      "type": "function"
    },
    {
      "inputs": [
        {
          "internalType": "uint256",
          "name": "assets",
          "type": "uint256"
        }
      ],
      "name": "deposit",
      "outputs": [
        {
          "internalType": "uint256",
          "name": "amountToMint",
          "type": "uint256"
        }
      ],
      "stateMutability": "nonpayable",
      "type": "function"
    },
    {
      "inputs": [],
      "name": "exchangeRate",
      "outputs": [
        {
          "internalType": "uint256",
          "name": "",
          "type": "uint256"
        }
      ],
      "stateMutability": "view",
      "type": "function"
    },
    {
      "inputs": [],
      "name": "name",
      "outputs": [
        {
          "internalType": "string",
          "name": "",
          "type": "string"
        }
      ],
      "stateMutability": "view",
      "type": "function"
    },
    {
      "inputs": [
        {
          "internalType": "address",
          "name": "",
          "type": "address"
        }
      ],
      "name": "nonces",
      "outputs": [
        {
          "internalType": "uint256",
          "name": "",
          "type": "uint256"
        }
      ],
      "stateMutability": "view",
      "type": "function"
    },
    {
      "inputs": [],
      "name": "owner",
      "outputs": [
        {
          "internalType": "address",
          "name": "",
          "type": "address"
        }
      ],
      "stateMutability": "view",
      "type": "function"
    },
    {
      "inputs": [
        {
          "internalType": "address",
          "name": "owner",
          "type": "address"
        },
        {
          "internalType": "address",
          "name": "spender",
          "type": "address"
        },
        {
          "internalType": "uint256",
          "name": "value",
          "type": "uint256"
        },
        {
          "internalType": "uint256",
          "name": "deadline",
          "type": "uint256"
        },
        {
          "internalType": "uint8",
          "name": "v",
          "type": "uint8"
        },
        {
          "internalType": "bytes32",
          "name": "r",
          "type": "bytes32"
        },
        {
          "internalType": "bytes32",
          "name": "s",
          "type": "bytes32"
        }
      ],
      "name": "permit",
      "outputs": [],
      "stateMutability": "nonpayable",
      "type": "function"
    },
    {
      "inputs": [],
      "name": "renounceOwnership",
      "outputs": [],
      "stateMutability": "nonpayable",
      "type": "function"
    },
    {
      "inputs": [],
      "name": "symbol",
      "outputs": [
        {
          "internalType": "string",
          "name": "",
          "type": "string"
        }
      ],
      "stateMutability": "view",
      "type": "function"
    },
    {
      "inputs": [],
      "name": "totalSupply",
      "outputs": [
        {
          "internalType": "uint256",
          "name": "",
          "type": "uint256"
        }
      ],
      "stateMutability": "view",
      "type": "function"
    },
    {
      "inputs": [
        {
          "internalType": "address",
          "name": "to",
          "type": "address"
        },
        {
          "internalType": "uint256",
          "name": "amount",
          "type": "uint256"
        }
      ],
      "name": "transfer",
      "outputs": [
        {
          "internalType": "bool",
          "name": "",
          "type": "bool"
        }
      ],
      "stateMutability": "nonpayable",
      "type": "function"
    },
    {
      "inputs": [
        {
          "internalType": "address",
          "name": "from",
          "type": "address"
        },
        {
          "internalType": "address",
          "name": "to",
          "type": "address"
        },
        {
          "internalType": "uint256",
          "name": "amount",
          "type": "uint256"
        }
      ],
      "name": "transferFrom",
      "outputs": [
        {
          "internalType": "bool",
          "name": "",
          "type": "bool"
        }
      ],
      "stateMutability": "nonpayable",
      "type": "function"
    },
    {
      "inputs": [
        {
          "internalType": "address",
          "name": "newOwner",
          "type": "address"
        }
      ],
      "name": "transferOwnership",
      "outputs": [],
      "stateMutability": "nonpayable",
      "type": "function"
    },
    {
      "inputs": [],
      "name": "underlying",
      "outputs": [
        {
          "internalType": "address",
          "name": "",
          "type": "address"
        }
      ],
      "stateMutability": "view",
      "type": "function"
    },
    {
      "inputs": [],
      "name": "uniswapV2Router",
      "outputs": [
        {
          "internalType": "contract IUniswapV2Router02",
          "name": "",
          "type": "address"
        }
      ],
      "stateMutability": "view",
      "type": "function"
    },
    {
      "inputs": [],
      "name": "usdc",
      "outputs": [
        {
          "internalType": "address",
          "name": "",
          "type": "address"
        }
      ],
      "stateMutability": "view",
      "type": "function"
    },
    {
      "inputs": [],
      "name": "vault",
      "outputs": [
        {
          "internalType": "contract IERC4626",
          "name": "",
          "type": "address"
        }
      ],
      "stateMutability": "view",
      "type": "function"
    },
    {
      "inputs": [
        {
          "internalType": "uint256",
          "name": "aTokenAmount",
          "type": "uint256"
        }
      ],
      "name": "withdraw",
      "outputs": [
        {
          "internalType": "uint256",
          "name": "underlyingAmount",
          "type": "uint256"
        }
      ],
      "stateMutability": "nonpayable",
      "type": "function"
    }
  ],
  "bytecode": "0x610120604052604051620032e3380380620032e3833981016040819052620000279162000cda565b338282866001600160a01b03166338d52e0f6040518163ffffffff1660e01b8152600401602060405180830381865afa15801562000069573d6000803e3d6000fd5b505050506040513d601f19601f820116820180604052508101906200008f919062000d85565b6001600160a01b031663313ce5676040518163ffffffff1660e01b8152600401602060405180830381865afa158015620000cd573d6000803e3d6000fd5b505050506040513d601f19601f82011682018060405250810190620000f3919062000dac565b600062000101848262000e62565b50600162000110838262000e62565b5060ff81166080524660a05262000126620004cd565b60c0525050506001600160a01b0381166200015c57604051631e4fbdf760e01b8152600060048201526024015b60405180910390fd5b620001678162000569565b506001600160a01b038516620001d65760405162461bcd60e51b815260206004820152602d60248201527f546f6b656e42616c616e6365723a20496e76616c696420556e6973776170205260448201526c6f75746572206164647265737360981b606482015260840162000153565b6001600160a01b0384166200023a5760405162461bcd60e51b8152602060048201526024808201527f546f6b656e42616c616e6365723a20496e76616c6964205661756c74206164646044820152637265737360e01b606482015260840162000153565b6001600160a01b038316620002a45760405162461bcd60e51b815260206004820152602960248201527f546f6b656e42616c616e6365723a20496e76616c6964205553444320746f6b656044820152686e206164647265737360b81b606482015260840162000153565b84600760006101000a8154816001600160a01b0302191690836001600160a01b03160217905550836001600160a01b03166338d52e0f6040518163ffffffff1660e01b8152600401602060405180830381865afa1580156200030a573d6000803e3d6000fd5b505050506040513d601f19601f8201168201806040525081019062000330919062000d85565b6001600160a01b039081166101005284811660e052600980546001600160a01b0319169185169190911790556040805160028082526060820183529091602083019080368337505081516200038d92600a92506020019062000b15565b5060095461010051600a80546001600160a01b0390931692600090620003b757620003b762000f2e565b906000526020600020016000600a600181548110620003da57620003da62000f2e565b600091825260209091200180546001600160a01b0319166001600160a01b0394851617905581546101009190910a8084021990911693831602929092179091556009546200042a911630620005bb565b610100516200043a9030620005bb565b620004ac60e0516001600160a01b031663a8d5fd656040518163ffffffff1660e01b8152600401602060405180830381865afa1580156200047f573d6000803e3d6000fd5b505050506040513d601f19601f82011682018060405250810190620004a5919062000d85565b30620005bb565b620004c2828261010051620006ea60201b60201c565b50505050506200127e565b60007f8b73c3c69bb8fe3d512ecc4cf759cc79239f7b179b0ffacaa9a75d522b39400f600060405162000501919062000f44565b6040805191829003822060208301939093528101919091527fc89efdaa54c0f20c7adf612882df0950f5a951637e0307cdcb4c672f298b8bc660608201524660808201523060a082015260c00160405160208183030381529060405280519060200120905090565b600680546001600160a01b038381166001600160a01b0319831681179093556040519116919082907f8be0079c531659141344cd1fd0a4f28419497f9722a3daafe3b4186f6b6457e090600090a35050565b604080516001600160a01b038381166024830152841660448083019190915282518083039091018152606490910182526020810180516001600160e01b031663248a35ef60e11b179052905160009182918291610167916200061e919062000fc2565b6000604051808303816000865af19150503d80600081146200065d576040519150601f19603f3d011682016040523d82523d6000602084013e62000662565b606091505b509150915081620006755760156200068b565b808060200190518101906200068b919062000ff8565b9250600383900b601614620006e35760405162461bcd60e51b815260206004820152601f60248201527f536166652073696e676c65206173736f63696174696f6e206661696c65642100604482015260640162000153565b5050505050565b6040805160a08082018352600080835260208084018290526060848601819052808501819052306080808701829052875195860188528486528584018590528588018390528583018390528501528551600280825291810190965260109560019594939290919082015b6200075e62000b7f565b81526020019060019003908162000754579050509050604051806040016040528086815260200184815250816000815181106200079f576200079f62000f2e565b602002602001018190525060405180604001604052808581526020018381525081600181518110620007d557620007d562000f2e565b60200260200101819052506200081a6040518060600160405280600063ffffffff16815260200160006001600160a01b03168152602001600063ffffffff1681525090565b306020820152627a120060408201526200089060408051610120810182526060808252602080830182905260008385018190528284018390526080840181905260a0840181905260c0840181905260e0840183905284519283018552808352908201819052928101929092529061010082015290565b89815260208082018a905230604080840191909152610100830184905260e08301859052805163313ce56760e01b815290516200092d9284926000926001600160a01b038e169263313ce56792600480820193918290030181865afa158015620008fe573d6000803e3d6000fd5b505050506040513d601f19601f8201168201806040525081019062000924919062000dac565b60ff1662000981565b600880546001600160a01b0319166001600160a01b039290921691821790556040517f7bb17726df1f3adee8aa00ba8e8bc5d6f182af3bbf77604639cb7f008dd3b4ed90600090a250505050505050505050565b61010083015151600090849063ffffffff16158015620009ae57506101008101516040015163ffffffff16155b15620009c5576101008101516276a7006040909101525b60008060006101676001600160a01b031634637812a04b60e01b8a8a8a604051602401620009f69392919062001115565b60408051601f198184030181529181526020820180516001600160e01b03166001600160e01b031990941693909317909252905162000a36919062000fc2565b60006040518083038185875af1925050503d806000811462000a75576040519150601f19603f3d011682016040523d82523d6000602084013e62000a7a565b606091505b50915091508162000a8f576015600062000aa5565b8080602001905181019062000aa5919062001242565b95509250600383900b60161462000b0a5760405162461bcd60e51b815260206004820152602260248201527f53616665206372656174652066756e6769626c6520746f6b656e206661696c65604482015261642160f01b606482015260840162000153565b505050509392505050565b82805482825590600052602060002090810192821562000b6d579160200282015b8281111562000b6d57825182546001600160a01b0319166001600160a01b0390911617825560209092019160019091019062000b36565b5062000b7b92915062000bdd565b5090565b60405180604001604052806000815260200162000bd86040518060a0016040528060001515815260200160006001600160a01b03168152602001606081526020016060815260200160006001600160a01b031681525090565b905290565b5b8082111562000b7b576000815560010162000bde565b6001600160a01b038116811462000c0a57600080fd5b50565b634e487b7160e01b600052604160045260246000fd5b60005b8381101562000c4057818101518382015260200162000c26565b50506000910152565b600082601f83011262000c5b57600080fd5b81516001600160401b038082111562000c785762000c7862000c0d565b604051601f8301601f19908116603f0116810190828211818310171562000ca35762000ca362000c0d565b8160405283815286602085880101111562000cbd57600080fd5b62000cd084602083016020890162000c23565b9695505050505050565b600080600080600060a0868803121562000cf357600080fd5b855162000d008162000bf4565b602087015190955062000d138162000bf4565b604087015190945062000d268162000bf4565b60608701519093506001600160401b038082111562000d4457600080fd5b62000d5289838a0162000c49565b9350608088015191508082111562000d6957600080fd5b5062000d788882890162000c49565b9150509295509295909350565b60006020828403121562000d9857600080fd5b815162000da58162000bf4565b9392505050565b60006020828403121562000dbf57600080fd5b815160ff8116811462000da557600080fd5b600181811c9082168062000de657607f821691505b60208210810362000e0757634e487b7160e01b600052602260045260246000fd5b50919050565b601f82111562000e5d576000816000526020600020601f850160051c8101602086101562000e385750805b601f850160051c820191505b8181101562000e595782815560010162000e44565b5050505b505050565b81516001600160401b0381111562000e7e5762000e7e62000c0d565b62000e968162000e8f845462000dd1565b8462000e0d565b602080601f83116001811462000ece576000841562000eb55750858301515b600019600386901b1c1916600185901b17855562000e59565b600085815260208120601f198616915b8281101562000eff5788860151825594840194600190910190840162000ede565b508582101562000f1e5787850151600019600388901b60f8161c191681555b5050505050600190811b01905550565b634e487b7160e01b600052603260045260246000fd5b600080835462000f548162000dd1565b6001828116801562000f6f576001811462000f855762000fb6565b60ff198416875282151583028701945062000fb6565b8760005260208060002060005b8581101562000fad5781548a82015290840190820162000f92565b50505082870194505b50929695505050505050565b6000825162000fd681846020870162000c23565b9190910192915050565b8051600381900b811462000ff357600080fd5b919050565b6000602082840312156200100b57600080fd5b62000da58262000fe0565b600081518084526200103081602086016020860162000c23565b601f01601f19169290920160200192915050565b600082825180855260208086019550808260051b84010181860160005b848110156200110857858303601f1901895281518051845284015160408585018190528151151581860152818601516001600160a01b039081166060808801919091529183015160a06080808901829052919390929091620010c760e08a018662001016565b92860151898403603f1901858b0152929450620010e5858462001016565b9501511660c0979097019690965250509884019892509083019060010162001061565b5090979650505050505050565b6060815260008451610160806060850152620011366101c085018362001016565b91506020870151605f198086850301608087015262001156848362001016565b9350604089015191506200117560a08701836001600160a01b03169052565b60608901519150808685030160c087015262001192848362001016565b935060808901519150620011aa60e087018315159052565b60a08901519150610100620011c68188018463ffffffff169052565b60c08a0151151561012088015260e08a015187860383016101408901529250620011f1858462001044565b9450808a0151925050506200122e82860182805163ffffffff90811683526020808301516001600160a01b03169084015260409182015116910152565b505060208301949094525060400152919050565b600080604083850312156200125657600080fd5b620012618362000fe0565b91506020830151620012738162000bf4565b809150509250929050565b60805160a05160c05160e05161010051611fb06200133360003960008181610274015281816102c20152818161066301528181610b2b01528181610dd101528181610e1f0152610e4b0152600081816103d4015281816106f001528181610772015281816107ba015281816108d1015281816109a401528181610a2d01528181610b4c01528181610b8d01528181610e6c0152610ead015260006108aa01526000610875015260006102360152611fb06000f3fe608060405234801561001057600080fd5b506004361061016e5760003560e01c80636f307dc3116100ce578063a0c1f15e11610087578063a0c1f15e14610345578063a9059cbb14610358578063b6b55f251461036b578063d505accf1461037e578063dd62ed3e14610391578063f2fde38b146103bc578063fbfa77cf146103cf57600080fd5b80636f307dc3146102bd57806370a08231146102e4578063715018a6146103045780637ecebe001461030c5780638da5cb5b1461032c57806395d89b411461033d57600080fd5b80632e1a7d4d1161012b5780632e1a7d4d1461021e578063313ce567146102315780633644e5151461026a57806338d52e0f146102725780633ba0b9a9146102985780633e413bee146102a05780634e71d92d146102b357600080fd5b806306fdde0314610173578063095ea7b3146101915780631694505e146101b457806318160ddd146101d457806323b872dd146101eb57806327e235e3146101fe575b600080fd5b61017b6103f6565b6040516101889190611864565b60405180910390f35b6101a461019f366004611893565b610484565b6040519015158152602001610188565b6007546101c7906001600160a01b031681565b60405161018891906118bf565b6101dd60025481565b604051908152602001610188565b6101a46101f93660046118d3565b6104f1565b6101dd61020c366004611914565b600b6020526000908152604090205481565b6101dd61022c366004611931565b6105e3565b6102587f000000000000000000000000000000000000000000000000000000000000000081565b60405160ff9091168152602001610188565b6101dd610871565b7f00000000000000000000000000000000000000000000000000000000000000006101c7565b6101dd6108cc565b6009546101c7906001600160a01b031681565b6102bb610979565b005b6101c77f000000000000000000000000000000000000000000000000000000000000000081565b6101dd6102f2366004611914565b60036020526000908152604090205481565b6102bb610cbc565b6101dd61031a366004611914565b60056020526000908152604090205481565b6006546001600160a01b03166101c7565b61017b610cd0565b6008546101c7906001600160a01b031681565b6101a4610366366004611893565b610cdd565b6101dd610379366004611931565b610d55565b6102bb61038c36600461194a565b610fb9565b6101dd61039f3660046119c1565b600460209081526000928352604080842090915290825290205481565b6102bb6103ca366004611914565b6111f7565b6101c77f000000000000000000000000000000000000000000000000000000000000000081565b60008054610403906119fa565b80601f016020809104026020016040519081016040528092919081815260200182805461042f906119fa565b801561047c5780601f106104515761010080835404028352916020019161047c565b820191906000526020600020905b81548152906001019060200180831161045f57829003601f168201915b505050505081565b3360008181526004602090815260408083206001600160a01b038716808552925280832085905551919290917f8c5be1e5ebec7d5bd14f71427d1e84f3dd0314c0f7b2291e5b200ac8c7c3b925906104df9086815260200190565b60405180910390a35060015b92915050565b6001600160a01b0383166000908152600460209081526040808320338452909152812054600019811461054d576105288382611a4a565b6001600160a01b03861660009081526004602090815260408083203384529091529020555b6001600160a01b03851660009081526003602052604081208054859290610575908490611a4a565b90915550506001600160a01b03808516600081815260036020526040908190208054870190555190918716907fddf252ad1be2c89b69c2b068fc378daa952ba7f163c4a11628f55a4df523b3ef906105d09087815260200190565b60405180910390a3506001949350505050565b60008082116106475760405162461bcd60e51b815260206004820152602560248201527f4175746f436f6d706f756e6465723a20496e76616c69642061546f6b656e20616044820152641b5bdd5b9d60da1b60648201526084015b60405180910390fd5b61064f6108cc565b6106599083611a5d565b6001600160a01b037f0000000000000000000000000000000000000000000000000000000000000000166000908152600b60205260408120805492935083929091906106a6908490611a74565b90915550506008546106c3906001600160a01b0316333085611232565b6008546040805160008152602081019091526106ea916001600160a01b031690849061136b565b506107977f00000000000000000000000000000000000000000000000000000000000000006001600160a01b031663a8d5fd656040518163ffffffff1660e01b8152600401602060405180830381865afa15801561074c573d6000803e3d6000fd5b505050506040513d601f19601f820116820180604052508101906107709190611a9d565b7f000000000000000000000000000000000000000000000000000000000000000083611497565b604051632d182be560e21b815260048101829052306024820181905260448201527f00000000000000000000000000000000000000000000000000000000000000006001600160a01b03169063b460af94906064016020604051808303816000875af115801561080b573d6000803e3d6000fd5b505050506040513d601f19601f8201168201806040525081019061082f9190611aba565b50604080518381526020810183905233917ff279e6a1f5e320cca91135676d9cb6e44ca8a08c0b88342bcdb1144f6511b56891015b60405180910390a2919050565b60007f000000000000000000000000000000000000000000000000000000000000000046146108a7576108a26115b8565b905090565b507f000000000000000000000000000000000000000000000000000000000000000090565b6000807f00000000000000000000000000000000000000000000000000000000000000006001600160a01b03166301e1d1146040518163ffffffff1660e01b8152600401602060405180830381865afa15801561092d573d6000803e3d6000fd5b505050506040513d601f19601f820116820180604052508101906109519190611aba565b9050600254600014610970578060025461096b9190611ad3565b610973565b60015b91505090565b600954604051635ab764ed60e01b81523060048201526001600160a01b0391821660248201526000917f00000000000000000000000000000000000000000000000000000000000000001690635ab764ed90604401602060405180830381865afa1580156109eb573d6000803e3d6000fd5b505050506040513d601f19601f82011682018060405250810190610a0f9190611aba565b90508015610ca057604051633d03df9d60e11b8152600060048201527f00000000000000000000000000000000000000000000000000000000000000006001600160a01b031690637a07bf3a9060240160408051808303816000875af1158015610a7d573d6000803e3d6000fd5b505050506040513d601f19601f82011682018060405250810190610aa19190611af5565b50506007546040516338ed173960e01b81526000916001600160a01b0316906338ed173990610add9085908590600a9030904290600401611b19565b6000604051808303816000875af1158015610afc573d6000803e3d6000fd5b505050506040513d6000823e601f3d908101601f19168201604052610b249190810190611be4565b9050610b8b7f00000000000000000000000000000000000000000000000000000000000000007f000000000000000000000000000000000000000000000000000000000000000083600181518110610b7e57610b7e611c79565b6020026020010151611497565b7f00000000000000000000000000000000000000000000000000000000000000006001600160a01b0316636e553f6582600181518110610bcd57610bcd611c79565b6020026020010151306040518363ffffffff1660e01b8152600401610c059291909182526001600160a01b0316602082015260400190565b6020604051808303816000875af1158015610c24573d6000803e3d6000fd5b505050506040513d601f19601f82011682018060405250810190610c489190611aba565b507f7bb2b3c10797baccb6f8c4791f1edd6ca2f0d028ee0eda64b01a9a57e3a653f781600181518110610c7d57610c7d611c79565b6020026020010151604051610c9491815260200190565b60405180910390a15050565b604051632706c9e160e21b815260040160405180910390fd5b50565b610cc4611652565b610cce600061167f565b565b60018054610403906119fa565b33600090815260036020526040812080548391908390610cfe908490611a4a565b90915550506001600160a01b038316600081815260036020526040908190208054850190555133907fddf252ad1be2c89b69c2b068fc378daa952ba7f163c4a11628f55a4df523b3ef906104df9086815260200190565b600081600003610db55760405162461bcd60e51b815260206004820152602560248201527f4175746f436f6d706f756e6465723a20496e76616c69642061737365747320616044820152641b5bdd5b9d60da1b606482015260840161063e565b610dbd6108cc565b610dc79083611ad3565b6001600160a01b037f0000000000000000000000000000000000000000000000000000000000000000166000908152600b6020526040812080549293508492909190610e14908490611a74565b90915550610e4690507f0000000000000000000000000000000000000000000000000000000000000000333085611232565b610e917f00000000000000000000000000000000000000000000000000000000000000007f000000000000000000000000000000000000000000000000000000000000000084611497565b604051636e553f6560e01b8152600481018390523060248201527f00000000000000000000000000000000000000000000000000000000000000006001600160a01b031690636e553f65906044016020604051808303816000875af1158015610efe573d6000803e3d6000fd5b505050506040513d601f19601f82011682018060405250810190610f229190611aba565b5060085460408051600080825260208201909252610f67926001600160a01b031691849190610f61565b6060815260200190600190039081610f4c5790505b506116d1565b5050600854610f81906001600160a01b0316303384611232565b604080518381526020810183905233917f90890809c654f11d6e72a28fa60149770a0d11ec6c92319d6ceb2bb0a4ea1a159101610864565b428410156110035760405162461bcd60e51b815260206004820152601760248201527614115493525517d11150511312539157d1561412549151604a1b604482015260640161063e565b6000600161100f610871565b6001600160a01b038a811660008181526005602090815260409182902080546001810190915582517f6e71edae12b1b97f4d1f60370fef10105fa2faae0126114a169c64845d6126c98184015280840194909452938d166060840152608083018c905260a083019390935260c08083018b90528151808403909101815260e08301909152805192019190912061190160f01b6101008301526101028201929092526101228101919091526101420160408051601f198184030181528282528051602091820120600084529083018083525260ff871690820152606081018590526080810184905260a0016020604051602081039080840390855afa15801561111b573d6000803e3d6000fd5b5050604051601f1901519150506001600160a01b038116158015906111515750876001600160a01b0316816001600160a01b0316145b61118e5760405162461bcd60e51b815260206004820152600e60248201526d24a72b20a624a22fa9a4a3a722a960911b604482015260640161063e565b6001600160a01b0390811660009081526004602090815260408083208a8516808552908352928190208990555188815291928a16917f8c5be1e5ebec7d5bd14f71427d1e84f3dd0314c0f7b2291e5b200ac8c7c3b925910160405180910390a350505050505050565b6111ff611652565b6001600160a01b038116611229576000604051631e4fbdf760e01b815260040161063e91906118bf565b610cb98161167f565b604080516001600160a01b038681166024830152858116604483015284166064820152600783900b6084808301919091528251808303909101815260a490910182526020810180516001600160e01b031663eca3691760e01b179052905160009182918291610167916112a59190611c8f565b6000604051808303816000865af19150503d80600081146112e2576040519150601f19603f3d011682016040523d82523d6000602084013e6112e7565b606091505b5091509150816112f857601561130c565b8080602001905181019061130c9190611cc2565b9250600383900b6016146113625760405162461bcd60e51b815260206004820152601b60248201527f5361666520746f6b656e207472616e73666572206661696c6564210000000000604482015260640161063e565b50505050505050565b6000806000806101676001600160a01b031663acb9cff960e01b88888860405160240161139a93929190611cdd565b60408051601f198184030181529181526020820180516001600160e01b03166001600160e01b03199094169390931790925290516113d89190611c8f565b6000604051808303816000865af19150503d8060008114611415576040519150601f19603f3d011682016040523d82523d6000602084013e61141a565b606091505b50915091508161142d5760156000611441565b808060200190518101906114419190611d5f565b94509250600383900b60161461148d5760405162461bcd60e51b815260206004820152601160248201527053616665206275726e206661696c65642160781b604482015260640161063e565b5050509392505050565b604080516001600160a01b03858116602483015284166044820152606480820184905282518083039091018152608490910182526020810180516001600160e01b031663e1f21c6760e01b179052905160009182918291610167916114fc9190611c8f565b6000604051808303816000865af19150503d8060008114611539576040519150601f19603f3d011682016040523d82523d6000602084013e61153e565b606091505b50915091508161154f576015611563565b808060200190518101906115639190611cc2565b9250600383900b6016146115b05760405162461bcd60e51b81526020600482015260146024820152735361666520617070726f7665206661696c65642160601b604482015260640161063e565b505050505050565b60007f8b73c3c69bb8fe3d512ecc4cf759cc79239f7b179b0ffacaa9a75d522b39400f60006040516115ea9190611d92565b6040805191829003822060208301939093528101919091527fc89efdaa54c0f20c7adf612882df0950f5a951637e0307cdcb4c672f298b8bc660608201524660808201523060a082015260c00160405160208183030381529060405280519060200120905090565b6006546001600160a01b03163314610cce573360405163118cdaa760e01b815260040161063e91906118bf565b600680546001600160a01b038381166001600160a01b0319831681179093556040519116919082907f8be0079c531659141344cd1fd0a4f28419497f9722a3daafe3b4186f6b6457e090600090a35050565b6000606060008060006101676001600160a01b031663278e0b8860e01b89898960405160240161170393929190611e33565b60408051601f198184030181529181526020820180516001600160e01b03166001600160e01b03199094169390931790925290516117419190611c8f565b6000604051808303816000865af19150503d806000811461177e576040519150601f19603f3d011682016040523d82523d6000602084013e611783565b606091505b5091509150816117a65760408051600080825260208201909252601591906117ba565b808060200190518101906117ba9190611eb7565b90965094509250600383900b6016146118095760405162461bcd60e51b815260206004820152601160248201527053616665206d696e74206661696c65642160781b604482015260640161063e565b505050935093915050565b60005b8381101561182f578181015183820152602001611817565b50506000910152565b60008151808452611850816020860160208601611814565b601f01601f19169290920160200192915050565b6020815260006118776020830184611838565b9392505050565b6001600160a01b0381168114610cb957600080fd5b600080604083850312156118a657600080fd5b82356118b18161187e565b946020939093013593505050565b6001600160a01b0391909116815260200190565b6000806000606084860312156118e857600080fd5b83356118f38161187e565b925060208401356119038161187e565b929592945050506040919091013590565b60006020828403121561192657600080fd5b81356118778161187e565b60006020828403121561194357600080fd5b5035919050565b600080600080600080600060e0888a03121561196557600080fd5b87356119708161187e565b965060208801356119808161187e565b95506040880135945060608801359350608088013560ff811681146119a457600080fd5b9699959850939692959460a0840135945060c09093013592915050565b600080604083850312156119d457600080fd5b82356119df8161187e565b915060208301356119ef8161187e565b809150509250929050565b600181811c90821680611a0e57607f821691505b602082108103611a2e57634e487b7160e01b600052602260045260246000fd5b50919050565b634e487b7160e01b600052601160045260246000fd5b818103818111156104eb576104eb611a34565b80820281158282048414176104eb576104eb611a34565b808201808211156104eb576104eb611a34565b634e487b7160e01b600052604160045260246000fd5b600060208284031215611aaf57600080fd5b81516118778161187e565b600060208284031215611acc57600080fd5b5051919050565b600082611af057634e487b7160e01b600052601260045260246000fd5b500490565b60008060408385031215611b0857600080fd5b505080516020909101519092909150565b600060a08201878352602087602085015260a0604085015281875480845260c086019150886000526020600020935060005b81811015611b705784546001600160a01b031683526001948501949284019201611b4b565b50506001600160a01b03969096166060850152505050608001529392505050565b604051601f8201601f191681016001600160401b0381118282101715611bb957611bb9611a87565b604052919050565b60006001600160401b03821115611bda57611bda611a87565b5060051b60200190565b60006020808385031215611bf757600080fd5b82516001600160401b03811115611c0d57600080fd5b8301601f81018513611c1e57600080fd5b8051611c31611c2c82611bc1565b611b91565b81815260059190911b82018301908381019087831115611c5057600080fd5b928401925b82841015611c6e57835182529284019290840190611c55565b979650505050505050565b634e487b7160e01b600052603260045260246000fd5b60008251611ca1818460208701611814565b9190910192915050565b8051600381900b8114611cbd57600080fd5b919050565b600060208284031215611cd457600080fd5b61187782611cab565b6001600160a01b03841681526001600160401b0383166020808301919091526060604083018190528351908301819052600091848101916080850190845b81811015611d3a57845160070b83529383019391830191600101611d1b565b509098975050505050505050565b80516001600160401b0381168114611cbd57600080fd5b60008060408385031215611d7257600080fd5b611d7b83611cab565b9150611d8960208401611d48565b90509250929050565b60008083548160018260011c91506001831680611db057607f831692505b60208084108203611dcf57634e487b7160e01b86526022600452602486fd5b818015611de35760018114611df857611e25565b60ff1986168952841515850289019650611e25565b60008a81526020902060005b86811015611e1d5781548b820152908501908301611e04565b505084890196505b509498975050505050505050565b60006060820160018060a01b038616835260206001600160401b03861660208501526060604085015281855180845260808601915060808160051b87010193506020870160005b82811015611ea857607f19888703018452611e96868351611838565b95509284019290840190600101611e7a565b50939998505050505050505050565b600080600060608486031215611ecc57600080fd5b611ed584611cab565b92506020611ee4818601611d48565b925060408501516001600160401b03811115611eff57600080fd5b8501601f81018713611f1057600080fd5b8051611f1e611c2c82611bc1565b81815260059190911b82018301908381019089831115611f3d57600080fd5b928401925b82841015611f6b5783518060070b8114611f5c5760008081fd5b82529284019290840190611f42565b8095505050505050925092509256fea26469706673582212202d49594d4d8c62074bf3b36291dad6f7adbcee39e4d4bdabea982b17ac809faf64736f6c63430008180033",
  "linkReferences": {},
  "deployedLinkReferences": {}
}