{
  "_format": "hh-sol-artifact-1",
  "contractName": "AutoCompounderFactory",
  "sourceName": "contracts/erc4626/factory/AutoCompounderFactory.sol",
  "abi": [
    {
      "inputs": [],
      "stateMutability": "nonpayable",
      "type": "constructor"
    },
    {
      "inputs": [
        {
          "internalType": "address",
          "name": "owner",
          "type": "address"
        }
      ],
      "name": "OwnableInvalidOwner",
      "type": "error"
    },
    {
      "inputs": [
        {
          "internalType": "address",
          "name": "account",
          "type": "address"
        }
      ],
      "name": "OwnableUnauthorizedAccount",
      "type": "error"
    },
    {
      "anonymous": false,
      "inputs": [
        {
          "indexed": true,
          "internalType": "address",
          "name": "autoCompounder",
          "type": "address"
        },
        {
          "indexed": false,
          "internalType": "string",
          "name": "name",
          "type": "string"
        },
        {
          "indexed": false,
          "internalType": "string",
          "name": "symbol",
          "type": "string"
        }
      ],
      "name": "AutoCompounderDeployed",
      "type": "event"
    },
    {
      "anonymous": false,
      "inputs": [
        {
          "indexed": true,
          "internalType": "address",
          "name": "previousOwner",
          "type": "address"
        },
        {
          "indexed": true,
          "internalType": "address",
          "name": "newOwner",
          "type": "address"
        }
      ],
      "name": "OwnershipTransferred",
      "type": "event"
    },
    {
      "inputs": [
        {
          "internalType": "string",
          "name": "",
          "type": "string"
        }
      ],
      "name": "autoCompounderDeployed",
      "outputs": [
        {
          "internalType": "address",
          "name": "",
          "type": "address"
        }
      ],
      "stateMutability": "view",
      "type": "function"
    },
    {
      "inputs": [
        {
          "internalType": "string",
          "name": "salt",
          "type": "string"
        },
        {
          "components": [
            {
              "internalType": "address",
              "name": "uniswapV2Router",
              "type": "address"
            },
            {
              "internalType": "address",
              "name": "vault",
              "type": "address"
            },
            {
              "internalType": "address",
              "name": "usdc",
              "type": "address"
            },
            {
              "internalType": "string",
              "name": "aTokenName",
              "type": "string"
            },
            {
              "internalType": "string",
              "name": "aTokenSymbol",
              "type": "string"
            }
          ],
          "internalType": "struct IAutoCompounderFactory.AutoCompounderDetails",
          "name": "autoCompounderDetails",
          "type": "tuple"
        }
      ],
      "name": "deployAutoCompounder",
      "outputs": [
        {
          "internalType": "address",
          "name": "autoCompounder",
          "type": "address"
        }
      ],
      "stateMutability": "payable",
      "type": "function"
    },
    {
      "inputs": [],
      "name": "owner",
      "outputs": [
        {
          "internalType": "address",
          "name": "",
          "type": "address"
        }
      ],
      "stateMutability": "view",
      "type": "function"
    },
    {
      "inputs": [],
      "name": "renounceOwnership",
      "outputs": [],
      "stateMutability": "nonpayable",
      "type": "function"
    },
    {
      "inputs": [
        {
          "internalType": "bytes4",
          "name": "interfaceId",
          "type": "bytes4"
        }
      ],
      "name": "supportsInterface",
      "outputs": [
        {
          "internalType": "bool",
          "name": "",
          "type": "bool"
        }
      ],
      "stateMutability": "view",
      "type": "function"
    },
    {
      "inputs": [
        {
          "internalType": "address",
          "name": "newOwner",
          "type": "address"
        }
      ],
      "name": "transferOwnership",
      "outputs": [],
      "stateMutability": "nonpayable",
      "type": "function"
    }
  ],
  "bytecode": "0x608060405234801561001057600080fd5b50338061003757604051631e4fbdf760e01b81526000600482015260240160405180910390fd5b61004081610046565b50610096565b600080546001600160a01b038381166001600160a01b0319831681178455604051919092169283917f8be0079c531659141344cd1fd0a4f28419497f9722a3daafe3b4186f6b6457e09190a35050565b613d0d806100a56000396000f3fe6080604052600436106200005c5760003560e01c806301ffc9a7146200006157806309492203146200009b578063715018a614620000cb5780638da5cb5b14620000e5578063ae071ea51462000105578063f2fde38b146200014a575b600080fd5b3480156200006e57600080fd5b50620000866200008036600462000693565b6200016f565b60405190151581526020015b60405180910390f35b620000b2620000ac366004620006c6565b620001a7565b6040516001600160a01b03909116815260200162000092565b348015620000d857600080fd5b50620000e36200046e565b005b348015620000f257600080fd5b506000546001600160a01b0316620000b2565b3480156200011257600080fd5b50620000b2620001243660046200077e565b80516020818301810180516001825292820191909301209152546001600160a01b031681565b3480156200015757600080fd5b50620000e36200016936600462000839565b62000486565b60006001600160e01b03198216630949220360e01b1480620001a157506301ffc9a760e01b6001600160e01b03198316145b92915050565b6000806001600160a01b031660018585604051620001c792919062000864565b908152604051908190036020019020546001600160a01b031614620002335760405162461bcd60e51b815260206004820152601f60248201527f4175746f436f6d706f756e64657220616c7265616479206465706c6f7965640060448201526064015b60405180910390fd5b600062000244602084018462000839565b6001600160a01b0316036200029c5760405162461bcd60e51b815260206004820152601e60248201527f496e76616c696420556e697377617020526f757465722061646472657373000060448201526064016200022a565b6000620002b0604084016020850162000839565b6001600160a01b031603620003005760405162461bcd60e51b8152602060048201526015602482015274496e76616c6964205661756c74206164647265737360581b60448201526064016200022a565b600062000314606084016040850162000839565b6001600160a01b031603620003635760405162461bcd60e51b8152602060048201526014602482015273496e76616c69642055534443206164647265737360601b60448201526064016200022a565b62000370848484620004ca565b905080600185856040516200038792919062000864565b90815260405190819003602001812080546001600160a01b039384166001600160a01b031990911617905563f2fde38b60e01b81523360048201529082169063f2fde38b90602401600060405180830381600087803b158015620003ea57600080fd5b505af1158015620003ff573d6000803e3d6000fd5b5050506001600160a01b03821690507f41729c0b7086a23dd211cc6fa9df5b15727983d1da53fdca1c2614ebc0b2eb276200043e606085018562000874565b6200044d608087018762000874565b6040516200045f9493929190620008ee565b60405180910390a29392505050565b62000478620005b0565b620004846000620005df565b565b62000490620005b0565b6001600160a01b038116620004bc57604051631e4fbdf760e01b8152600060048201526024016200022a565b620004c781620005df565b50565b60008060405180602001620004df9062000685565b601f1982820381018352601f909101166040529050600062000505602085018562000839565b62000517604086016020870162000839565b62000529606087016040880162000839565b62000538606088018862000874565b6200054760808a018a62000874565b6040516020016200055f979695949392919062000919565b60405160208183030381529060405290506000828260405160200162000587929190620009a5565b6040516020818303038152906040529050620005a58787836200062f565b979650505050505050565b6000546001600160a01b03163314620004845760405163118cdaa760e01b81523360048201526024016200022a565b600080546001600160a01b038381166001600160a01b0319831681178455604051919092169283917f8be0079c531659141344cd1fd0a4f28419497f9722a3daafe3b4186f6b6457e09190a35050565b60008084846040516020016200064792919062000864565b604051602081830303815290604052805190602001209050600083602001845183818334f592505050803b6200067c57600080fd5b95945050505050565b61331180620009c783390190565b600060208284031215620006a657600080fd5b81356001600160e01b031981168114620006bf57600080fd5b9392505050565b600080600060408486031215620006dc57600080fd5b833567ffffffffffffffff80821115620006f557600080fd5b818601915086601f8301126200070a57600080fd5b8135818111156200071a57600080fd5b8760208285010111156200072d57600080fd5b6020928301955093509085013590808211156200074957600080fd5b50840160a081870312156200075d57600080fd5b809150509250925092565b634e487b7160e01b600052604160045260246000fd5b6000602082840312156200079157600080fd5b813567ffffffffffffffff80821115620007aa57600080fd5b818401915084601f830112620007bf57600080fd5b813581811115620007d457620007d462000768565b604051601f8201601f19908116603f01168101908382118183101715620007ff57620007ff62000768565b816040528281528760208487010111156200081957600080fd5b826020860160208301376000928101602001929092525095945050505050565b6000602082840312156200084c57600080fd5b81356001600160a01b0381168114620006bf57600080fd5b8183823760009101908152919050565b6000808335601e198436030181126200088c57600080fd5b83018035915067ffffffffffffffff821115620008a857600080fd5b602001915036819003821315620008be57600080fd5b9250929050565b81835281816020850137506000828201602090810191909152601f909101601f19169091010190565b60408152600062000904604083018688620008c5565b8281036020840152620005a5818587620008c5565b6001600160a01b03888116825287811660208301528616604082015260a060608201819052600090620009509083018688620008c5565b828103608084015262000965818587620008c5565b9a9950505050505050505050565b6000815160005b818110156200099657602081850181015186830152016200097a565b50600093019283525090919050565b6000620009be620009b7838662000973565b8462000973565b94935050505056fe6101206040526040516200331138038062003311833981016040819052620000279162000cda565b338282866001600160a01b03166338d52e0f6040518163ffffffff1660e01b8152600401602060405180830381865afa15801562000069573d6000803e3d6000fd5b505050506040513d601f19601f820116820180604052508101906200008f919062000d85565b6001600160a01b031663313ce5676040518163ffffffff1660e01b8152600401602060405180830381865afa158015620000cd573d6000803e3d6000fd5b505050506040513d601f19601f82011682018060405250810190620000f3919062000dac565b600062000101848262000e62565b50600162000110838262000e62565b5060ff81166080524660a05262000126620004cd565b60c0525050506001600160a01b0381166200015c57604051631e4fbdf760e01b8152600060048201526024015b60405180910390fd5b620001678162000569565b506001600160a01b038516620001d65760405162461bcd60e51b815260206004820152602d60248201527f546f6b656e42616c616e6365723a20496e76616c696420556e6973776170205260448201526c6f75746572206164647265737360981b606482015260840162000153565b6001600160a01b0384166200023a5760405162461bcd60e51b8152602060048201526024808201527f546f6b656e42616c616e6365723a20496e76616c6964205661756c74206164646044820152637265737360e01b606482015260840162000153565b6001600160a01b038316620002a45760405162461bcd60e51b815260206004820152602960248201527f546f6b656e42616c616e6365723a20496e76616c6964205553444320746f6b656044820152686e206164647265737360b81b606482015260840162000153565b84600760006101000a8154816001600160a01b0302191690836001600160a01b03160217905550836001600160a01b03166338d52e0f6040518163ffffffff1660e01b8152600401602060405180830381865afa1580156200030a573d6000803e3d6000fd5b505050506040513d601f19601f8201168201806040525081019062000330919062000d85565b6001600160a01b039081166101005284811660e052600980546001600160a01b0319169185169190911790556040805160028082526060820183529091602083019080368337505081516200038d92600a92506020019062000b15565b5060095461010051600a80546001600160a01b0390931692600090620003b757620003b762000f2e565b906000526020600020016000600a600181548110620003da57620003da62000f2e565b600091825260209091200180546001600160a01b0319166001600160a01b0394851617905581546101009190910a8084021990911693831602929092179091556009546200042a911630620005bb565b610100516200043a9030620005bb565b620004ac60e0516001600160a01b031663a8d5fd656040518163ffffffff1660e01b8152600401602060405180830381865afa1580156200047f573d6000803e3d6000fd5b505050506040513d601f19601f82011682018060405250810190620004a5919062000d85565b30620005bb565b620004c2828261010051620006ea60201b60201c565b50505050506200127e565b60007f8b73c3c69bb8fe3d512ecc4cf759cc79239f7b179b0ffacaa9a75d522b39400f600060405162000501919062000f44565b6040805191829003822060208301939093528101919091527fc89efdaa54c0f20c7adf612882df0950f5a951637e0307cdcb4c672f298b8bc660608201524660808201523060a082015260c00160405160208183030381529060405280519060200120905090565b600680546001600160a01b038381166001600160a01b0319831681179093556040519116919082907f8be0079c531659141344cd1fd0a4f28419497f9722a3daafe3b4186f6b6457e090600090a35050565b604080516001600160a01b038381166024830152841660448083019190915282518083039091018152606490910182526020810180516001600160e01b031663248a35ef60e11b179052905160009182918291610167916200061e919062000fc2565b6000604051808303816000865af19150503d80600081146200065d576040519150601f19603f3d011682016040523d82523d6000602084013e62000662565b606091505b509150915081620006755760156200068b565b808060200190518101906200068b919062000ff8565b9250600383900b601614620006e35760405162461bcd60e51b815260206004820152601f60248201527f536166652073696e676c65206173736f63696174696f6e206661696c65642100604482015260640162000153565b5050505050565b6040805160a08082018352600080835260208084018290526060848601819052808501819052306080808701829052875195860188528486528584018590528588018390528583018390528501528551600280825291810190965260109560019594939290919082015b6200075e62000b7f565b81526020019060019003908162000754579050509050604051806040016040528086815260200184815250816000815181106200079f576200079f62000f2e565b602002602001018190525060405180604001604052808581526020018381525081600181518110620007d557620007d562000f2e565b60200260200101819052506200081a6040518060600160405280600063ffffffff16815260200160006001600160a01b03168152602001600063ffffffff1681525090565b306020820152627a120060408201526200089060408051610120810182526060808252602080830182905260008385018190528284018390526080840181905260a0840181905260c0840181905260e0840183905284519283018552808352908201819052928101929092529061010082015290565b89815260208082018a905230604080840191909152610100830184905260e08301859052805163313ce56760e01b815290516200092d9284926000926001600160a01b038e169263313ce56792600480820193918290030181865afa158015620008fe573d6000803e3d6000fd5b505050506040513d601f19601f8201168201806040525081019062000924919062000dac565b60ff1662000981565b600880546001600160a01b0319166001600160a01b039290921691821790556040517f7bb17726df1f3adee8aa00ba8e8bc5d6f182af3bbf77604639cb7f008dd3b4ed90600090a250505050505050505050565b61010083015151600090849063ffffffff16158015620009ae57506101008101516040015163ffffffff16155b15620009c5576101008101516276a7006040909101525b60008060006101676001600160a01b031634637812a04b60e01b8a8a8a604051602401620009f69392919062001115565b60408051601f198184030181529181526020820180516001600160e01b03166001600160e01b031990941693909317909252905162000a36919062000fc2565b60006040518083038185875af1925050503d806000811462000a75576040519150601f19603f3d011682016040523d82523d6000602084013e62000a7a565b606091505b50915091508162000a8f576015600062000aa5565b8080602001905181019062000aa5919062001242565b95509250600383900b60161462000b0a5760405162461bcd60e51b815260206004820152602260248201527f53616665206372656174652066756e6769626c6520746f6b656e206661696c65604482015261642160f01b606482015260840162000153565b505050509392505050565b82805482825590600052602060002090810192821562000b6d579160200282015b8281111562000b6d57825182546001600160a01b0319166001600160a01b0390911617825560209092019160019091019062000b36565b5062000b7b92915062000bdd565b5090565b60405180604001604052806000815260200162000bd86040518060a0016040528060001515815260200160006001600160a01b03168152602001606081526020016060815260200160006001600160a01b031681525090565b905290565b5b8082111562000b7b576000815560010162000bde565b6001600160a01b038116811462000c0a57600080fd5b50565b634e487b7160e01b600052604160045260246000fd5b60005b8381101562000c4057818101518382015260200162000c26565b50506000910152565b600082601f83011262000c5b57600080fd5b81516001600160401b038082111562000c785762000c7862000c0d565b604051601f8301601f19908116603f0116810190828211818310171562000ca35762000ca362000c0d565b8160405283815286602085880101111562000cbd57600080fd5b62000cd084602083016020890162000c23565b9695505050505050565b600080600080600060a0868803121562000cf357600080fd5b855162000d008162000bf4565b602087015190955062000d138162000bf4565b604087015190945062000d268162000bf4565b60608701519093506001600160401b038082111562000d4457600080fd5b62000d5289838a0162000c49565b9350608088015191508082111562000d6957600080fd5b5062000d788882890162000c49565b9150509295509295909350565b60006020828403121562000d9857600080fd5b815162000da58162000bf4565b9392505050565b60006020828403121562000dbf57600080fd5b815160ff8116811462000da557600080fd5b600181811c9082168062000de657607f821691505b60208210810362000e0757634e487b7160e01b600052602260045260246000fd5b50919050565b601f82111562000e5d576000816000526020600020601f850160051c8101602086101562000e385750805b601f850160051c820191505b8181101562000e595782815560010162000e44565b5050505b505050565b81516001600160401b0381111562000e7e5762000e7e62000c0d565b62000e968162000e8f845462000dd1565b8462000e0d565b602080601f83116001811462000ece576000841562000eb55750858301515b600019600386901b1c1916600185901b17855562000e59565b600085815260208120601f198616915b8281101562000eff5788860151825594840194600190910190840162000ede565b508582101562000f1e5787850151600019600388901b60f8161c191681555b5050505050600190811b01905550565b634e487b7160e01b600052603260045260246000fd5b600080835462000f548162000dd1565b6001828116801562000f6f576001811462000f855762000fb6565b60ff198416875282151583028701945062000fb6565b8760005260208060002060005b8581101562000fad5781548a82015290840190820162000f92565b50505082870194505b50929695505050505050565b6000825162000fd681846020870162000c23565b9190910192915050565b8051600381900b811462000ff357600080fd5b919050565b6000602082840312156200100b57600080fd5b62000da58262000fe0565b600081518084526200103081602086016020860162000c23565b601f01601f19169290920160200192915050565b600082825180855260208086019550808260051b84010181860160005b848110156200110857858303601f1901895281518051845284015160408585018190528151151581860152818601516001600160a01b039081166060808801919091529183015160a06080808901829052919390929091620010c760e08a018662001016565b92860151898403603f1901858b0152929450620010e5858462001016565b9501511660c0979097019690965250509884019892509083019060010162001061565b5090979650505050505050565b6060815260008451610160806060850152620011366101c085018362001016565b91506020870151605f198086850301608087015262001156848362001016565b9350604089015191506200117560a08701836001600160a01b03169052565b60608901519150808685030160c087015262001192848362001016565b935060808901519150620011aa60e087018315159052565b60a08901519150610100620011c68188018463ffffffff169052565b60c08a0151151561012088015260e08a015187860383016101408901529250620011f1858462001044565b9450808a0151925050506200122e82860182805163ffffffff90811683526020808301516001600160a01b03169084015260409182015116910152565b505060208301949094525060400152919050565b600080604083850312156200125657600080fd5b620012618362000fe0565b91506020830151620012738162000bf4565b809150509250929050565b60805160a05160c05160e05161010051611fe56200132c6000396000818161029f015281816102ed0152818161068e01528181610b7201528181610e0d01528181610e5b0152610e870152600081816103ff0152818161071b0152818161079d015281816107e5015281816108fc015281816109cf01528181610a5801528181610bc901528181610ea80152610ee9015260006108d5015260006108a0015260006102610152611fe56000f3fe608060405234801561001057600080fd5b506004361061018e5760003560e01c80636f307dc3116100de578063a0c1f15e11610097578063d505accf11610071578063d505accf146103a9578063dd62ed3e146103bc578063f2fde38b146103e7578063fbfa77cf146103fa57600080fd5b8063a0c1f15e14610370578063a9059cbb14610383578063b6b55f251461039657600080fd5b80636f307dc3146102e857806370a082311461030f578063715018a61461032f5780637ecebe00146103375780638da5cb5b1461035757806395d89b411461036857600080fd5b80632e1a7d4d1161014b57806338d52e0f1161012557806338d52e0f1461029d5780633ba0b9a9146102c35780633e413bee146102cb5780634e71d92d146102de57600080fd5b80632e1a7d4d14610249578063313ce5671461025c5780633644e5151461029557600080fd5b806306fdde0314610193578063095ea7b3146101b15780631694505e146101d457806318160ddd146101ff57806323b872dd1461021657806327e235e314610229575b600080fd5b61019b610421565b6040516101a891906118a6565b60405180910390f35b6101c46101bf3660046118d5565b6104af565b60405190151581526020016101a8565b6007546101e7906001600160a01b031681565b6040516001600160a01b0390911681526020016101a8565b61020860025481565b6040519081526020016101a8565b6101c4610224366004611901565b61051c565b610208610237366004611942565b600b6020526000908152604090205481565b61020861025736600461195f565b61060e565b6102837f000000000000000000000000000000000000000000000000000000000000000081565b60405160ff90911681526020016101a8565b61020861089c565b7f00000000000000000000000000000000000000000000000000000000000000006101e7565b6102086108f7565b6009546101e7906001600160a01b031681565b6102e66109a4565b005b6101e77f000000000000000000000000000000000000000000000000000000000000000081565b61020861031d366004611942565b60036020526000908152604090205481565b6102e6610cf8565b610208610345366004611942565b60056020526000908152604090205481565b6006546001600160a01b03166101e7565b61019b610d0c565b6008546101e7906001600160a01b031681565b6101c46103913660046118d5565b610d19565b6102086103a436600461195f565b610d91565b6102e66103b7366004611978565b610ff5565b6102086103ca3660046119ef565b600460209081526000928352604080842090915290825290205481565b6102e66103f5366004611942565b611239565b6101e77f000000000000000000000000000000000000000000000000000000000000000081565b6000805461042e90611a28565b80601f016020809104026020016040519081016040528092919081815260200182805461045a90611a28565b80156104a75780601f1061047c576101008083540402835291602001916104a7565b820191906000526020600020905b81548152906001019060200180831161048a57829003601f168201915b505050505081565b3360008181526004602090815260408083206001600160a01b038716808552925280832085905551919290917f8c5be1e5ebec7d5bd14f71427d1e84f3dd0314c0f7b2291e5b200ac8c7c3b9259061050a9086815260200190565b60405180910390a35060015b92915050565b6001600160a01b03831660009081526004602090815260408083203384529091528120546000198114610578576105538382611a78565b6001600160a01b03861660009081526004602090815260408083203384529091529020555b6001600160a01b038516600090815260036020526040812080548592906105a0908490611a78565b90915550506001600160a01b03808516600081815260036020526040908190208054870190555190918716907fddf252ad1be2c89b69c2b068fc378daa952ba7f163c4a11628f55a4df523b3ef906105fb9087815260200190565b60405180910390a3506001949350505050565b60008082116106725760405162461bcd60e51b815260206004820152602560248201527f4175746f436f6d706f756e6465723a20496e76616c69642061546f6b656e20616044820152641b5bdd5b9d60da1b60648201526084015b60405180910390fd5b61067a6108f7565b6106849083611a8b565b6001600160a01b037f0000000000000000000000000000000000000000000000000000000000000000166000908152600b60205260408120805492935083929091906106d1908490611aa2565b90915550506008546106ee906001600160a01b0316333085611274565b600854604080516000815260208101909152610715916001600160a01b03169084906113ad565b506107c27f00000000000000000000000000000000000000000000000000000000000000006001600160a01b031663a8d5fd656040518163ffffffff1660e01b8152600401602060405180830381865afa158015610777573d6000803e3d6000fd5b505050506040513d601f19601f8201168201806040525081019061079b9190611acb565b7f0000000000000000000000000000000000000000000000000000000000000000836114d9565b604051632d182be560e21b815260048101829052306024820181905260448201527f00000000000000000000000000000000000000000000000000000000000000006001600160a01b03169063b460af94906064016020604051808303816000875af1158015610836573d6000803e3d6000fd5b505050506040513d601f19601f8201168201806040525081019061085a9190611ae8565b50604080518381526020810183905233917ff279e6a1f5e320cca91135676d9cb6e44ca8a08c0b88342bcdb1144f6511b56891015b60405180910390a2919050565b60007f000000000000000000000000000000000000000000000000000000000000000046146108d2576108cd6115fa565b905090565b507f000000000000000000000000000000000000000000000000000000000000000090565b6000807f00000000000000000000000000000000000000000000000000000000000000006001600160a01b03166301e1d1146040518163ffffffff1660e01b8152600401602060405180830381865afa158015610958573d6000803e3d6000fd5b505050506040513d601f19601f8201168201806040525081019061097c9190611ae8565b905060025460001461099b57806002546109969190611b01565b61099e565b60015b91505090565b600954604051635ab764ed60e01b81523060048201526001600160a01b0391821660248201526000917f00000000000000000000000000000000000000000000000000000000000000001690635ab764ed90604401602060405180830381865afa158015610a16573d6000803e3d6000fd5b505050506040513d601f19601f82011682018060405250810190610a3a9190611ae8565b90508015610cdc57604051633d03df9d60e11b8152600060048201527f00000000000000000000000000000000000000000000000000000000000000006001600160a01b031690637a07bf3a9060240160408051808303816000875af1158015610aa8573d6000803e3d6000fd5b505050506040513d601f19601f82011682018060405250810190610acc9190611b23565b50506007546040516338ed173960e01b81526000916001600160a01b0316906338ed173990610b089085908590600a9030904290600401611b47565b6000604051808303816000875af1158015610b27573d6000803e3d6000fd5b505050506040513d6000823e601f3d908101601f19168201604052610b4f9190810190611c14565b905080600181518110610b6457610b64611caa565b6020026020010151600b60007f00000000000000000000000000000000000000000000000000000000000000006001600160a01b03166001600160a01b031681526020019081526020016000206000828254610bc09190611aa2565b925050819055507f00000000000000000000000000000000000000000000000000000000000000006001600160a01b0316636e553f6582600181518110610c0957610c09611caa565b6020026020010151306040518363ffffffff1660e01b8152600401610c419291909182526001600160a01b0316602082015260400190565b6020604051808303816000875af1158015610c60573d6000803e3d6000fd5b505050506040513d601f19601f82011682018060405250810190610c849190611ae8565b507f7bb2b3c10797baccb6f8c4791f1edd6ca2f0d028ee0eda64b01a9a57e3a653f781600181518110610cb957610cb9611caa565b6020026020010151604051610cd091815260200190565b60405180910390a15050565b604051632706c9e160e21b815260040160405180910390fd5b50565b610d00611694565b610d0a60006116c1565b565b6001805461042e90611a28565b33600090815260036020526040812080548391908390610d3a908490611a78565b90915550506001600160a01b038316600081815260036020526040908190208054850190555133907fddf252ad1be2c89b69c2b068fc378daa952ba7f163c4a11628f55a4df523b3ef9061050a9086815260200190565b600081600003610df15760405162461bcd60e51b815260206004820152602560248201527f4175746f436f6d706f756e6465723a20496e76616c69642061737365747320616044820152641b5bdd5b9d60da1b6064820152608401610669565b610df96108f7565b610e039083611b01565b6001600160a01b037f0000000000000000000000000000000000000000000000000000000000000000166000908152600b6020526040812080549293508492909190610e50908490611aa2565b90915550610e8290507f0000000000000000000000000000000000000000000000000000000000000000333085611274565b610ecd7f00000000000000000000000000000000000000000000000000000000000000007f0000000000000000000000000000000000000000000000000000000000000000846114d9565b604051636e553f6560e01b8152600481018390523060248201527f00000000000000000000000000000000000000000000000000000000000000006001600160a01b031690636e553f65906044016020604051808303816000875af1158015610f3a573d6000803e3d6000fd5b505050506040513d601f19601f82011682018060405250810190610f5e9190611ae8565b5060085460408051600080825260208201909252610fa3926001600160a01b031691849190610f9d565b6060815260200190600190039081610f885790505b50611713565b5050600854610fbd906001600160a01b0316303384611274565b604080518381526020810183905233917f90890809c654f11d6e72a28fa60149770a0d11ec6c92319d6ceb2bb0a4ea1a15910161088f565b428410156110455760405162461bcd60e51b815260206004820152601760248201527f5045524d49545f444541444c494e455f455850495245440000000000000000006044820152606401610669565b6000600161105161089c565b6001600160a01b038a811660008181526005602090815260409182902080546001810190915582517f6e71edae12b1b97f4d1f60370fef10105fa2faae0126114a169c64845d6126c98184015280840194909452938d166060840152608083018c905260a083019390935260c08083018b90528151808403909101815260e08301909152805192019190912061190160f01b6101008301526101028201929092526101228101919091526101420160408051601f198184030181528282528051602091820120600084529083018083525260ff871690820152606081018590526080810184905260a0016020604051602081039080840390855afa15801561115d573d6000803e3d6000fd5b5050604051601f1901519150506001600160a01b038116158015906111935750876001600160a01b0316816001600160a01b0316145b6111d05760405162461bcd60e51b815260206004820152600e60248201526d24a72b20a624a22fa9a4a3a722a960911b6044820152606401610669565b6001600160a01b0390811660009081526004602090815260408083208a8516808552908352928190208990555188815291928a16917f8c5be1e5ebec7d5bd14f71427d1e84f3dd0314c0f7b2291e5b200ac8c7c3b925910160405180910390a350505050505050565b611241611694565b6001600160a01b03811661126b57604051631e4fbdf760e01b815260006004820152602401610669565b610cf5816116c1565b604080516001600160a01b038681166024830152858116604483015284166064820152600783900b6084808301919091528251808303909101815260a490910182526020810180516001600160e01b031663eca3691760e01b179052905160009182918291610167916112e79190611cc0565b6000604051808303816000865af19150503d8060008114611324576040519150601f19603f3d011682016040523d82523d6000602084013e611329565b606091505b50915091508161133a57601561134e565b8080602001905181019061134e9190611cf3565b9250600383900b6016146113a45760405162461bcd60e51b815260206004820152601b60248201527f5361666520746f6b656e207472616e73666572206661696c65642100000000006044820152606401610669565b50505050505050565b6000806000806101676001600160a01b031663acb9cff960e01b8888886040516024016113dc93929190611d0e565b60408051601f198184030181529181526020820180516001600160e01b03166001600160e01b031990941693909317909252905161141a9190611cc0565b6000604051808303816000865af19150503d8060008114611457576040519150601f19603f3d011682016040523d82523d6000602084013e61145c565b606091505b50915091508161146f5760156000611483565b808060200190518101906114839190611d92565b94509250600383900b6016146114cf5760405162461bcd60e51b815260206004820152601160248201527053616665206275726e206661696c65642160781b6044820152606401610669565b5050509392505050565b604080516001600160a01b03858116602483015284166044820152606480820184905282518083039091018152608490910182526020810180516001600160e01b031663e1f21c6760e01b1790529051600091829182916101679161153e9190611cc0565b6000604051808303816000865af19150503d806000811461157b576040519150601f19603f3d011682016040523d82523d6000602084013e611580565b606091505b5091509150816115915760156115a5565b808060200190518101906115a59190611cf3565b9250600383900b6016146115f25760405162461bcd60e51b81526020600482015260146024820152735361666520617070726f7665206661696c65642160601b6044820152606401610669565b505050505050565b60007f8b73c3c69bb8fe3d512ecc4cf759cc79239f7b179b0ffacaa9a75d522b39400f600060405161162c9190611dc5565b6040805191829003822060208301939093528101919091527fc89efdaa54c0f20c7adf612882df0950f5a951637e0307cdcb4c672f298b8bc660608201524660808201523060a082015260c00160405160208183030381529060405280519060200120905090565b6006546001600160a01b03163314610d0a5760405163118cdaa760e01b8152336004820152602401610669565b600680546001600160a01b038381166001600160a01b0319831681179093556040519116919082907f8be0079c531659141344cd1fd0a4f28419497f9722a3daafe3b4186f6b6457e090600090a35050565b6000606060008060006101676001600160a01b031663278e0b8860e01b89898960405160240161174593929190611e66565b60408051601f198184030181529181526020820180516001600160e01b03166001600160e01b03199094169390931790925290516117839190611cc0565b6000604051808303816000865af19150503d80600081146117c0576040519150601f19603f3d011682016040523d82523d6000602084013e6117c5565b606091505b5091509150816117e85760408051600080825260208201909252601591906117fc565b808060200190518101906117fc9190611eeb565b90965094509250600383900b60161461184b5760405162461bcd60e51b815260206004820152601160248201527053616665206d696e74206661696c65642160781b6044820152606401610669565b505050935093915050565b60005b83811015611871578181015183820152602001611859565b50506000910152565b60008151808452611892816020860160208601611856565b601f01601f19169290920160200192915050565b6020815260006118b9602083018461187a565b9392505050565b6001600160a01b0381168114610cf557600080fd5b600080604083850312156118e857600080fd5b82356118f3816118c0565b946020939093013593505050565b60008060006060848603121561191657600080fd5b8335611921816118c0565b92506020840135611931816118c0565b929592945050506040919091013590565b60006020828403121561195457600080fd5b81356118b9816118c0565b60006020828403121561197157600080fd5b5035919050565b600080600080600080600060e0888a03121561199357600080fd5b873561199e816118c0565b965060208801356119ae816118c0565b95506040880135945060608801359350608088013560ff811681146119d257600080fd5b9699959850939692959460a0840135945060c09093013592915050565b60008060408385031215611a0257600080fd5b8235611a0d816118c0565b91506020830135611a1d816118c0565b809150509250929050565b600181811c90821680611a3c57607f821691505b602082108103611a5c57634e487b7160e01b600052602260045260246000fd5b50919050565b634e487b7160e01b600052601160045260246000fd5b8181038181111561051657610516611a62565b808202811582820484141761051657610516611a62565b8082018082111561051657610516611a62565b634e487b7160e01b600052604160045260246000fd5b600060208284031215611add57600080fd5b81516118b9816118c0565b600060208284031215611afa57600080fd5b5051919050565b600082611b1e57634e487b7160e01b600052601260045260246000fd5b500490565b60008060408385031215611b3657600080fd5b505080516020909101519092909150565b600060a08201878352602087602085015260a0604085015281875480845260c086019150886000526020600020935060005b81811015611b9e5784546001600160a01b031683526001948501949284019201611b79565b50506001600160a01b03969096166060850152505050608001529392505050565b604051601f8201601f1916810167ffffffffffffffff81118282101715611be857611be8611ab5565b604052919050565b600067ffffffffffffffff821115611c0a57611c0a611ab5565b5060051b60200190565b60006020808385031215611c2757600080fd5b825167ffffffffffffffff811115611c3e57600080fd5b8301601f81018513611c4f57600080fd5b8051611c62611c5d82611bf0565b611bbf565b81815260059190911b82018301908381019087831115611c8157600080fd5b928401925b82841015611c9f57835182529284019290840190611c86565b979650505050505050565b634e487b7160e01b600052603260045260246000fd5b60008251611cd2818460208701611856565b9190910192915050565b8051600381900b8114611cee57600080fd5b919050565b600060208284031215611d0557600080fd5b6118b982611cdc565b6001600160a01b038416815267ffffffffffffffff83166020808301919091526060604083018190528351908301819052600091848101916080850190845b81811015611d6c57845160070b83529383019391830191600101611d4d565b509098975050505050505050565b805167ffffffffffffffff81168114611cee57600080fd5b60008060408385031215611da557600080fd5b611dae83611cdc565b9150611dbc60208401611d7a565b90509250929050565b60008083548160018260011c91506001831680611de357607f831692505b60208084108203611e0257634e487b7160e01b86526022600452602486fd5b818015611e165760018114611e2b57611e58565b60ff1986168952841515850289019650611e58565b60008a81526020902060005b86811015611e505781548b820152908501908301611e37565b505084890196505b509498975050505050505050565b60006060820160018060a01b0386168352602067ffffffffffffffff861660208501526060604085015281855180845260808601915060808160051b87010193506020870160005b82811015611edc57607f19888703018452611eca86835161187a565b95509284019290840190600101611eae565b50939998505050505050505050565b600080600060608486031215611f0057600080fd5b611f0984611cdc565b92506020611f18818601611d7a565b9250604085015167ffffffffffffffff811115611f3457600080fd5b8501601f81018713611f4557600080fd5b8051611f53611c5d82611bf0565b81815260059190911b82018301908381019089831115611f7257600080fd5b928401925b82841015611fa05783518060070b8114611f915760008081fd5b82529284019290840190611f77565b8095505050505050925092509256fea26469706673582212202137ca29e2f845d91461267fd8a8c7b52219b36221e166289bed3672a40f7adb64736f6c63430008180033a264697066735822122018395659b259f1b2a4a9194f8ebfc66f478d4789098a06dfea62e0da86d4902564736f6c63430008180033",
  "linkReferences": {},
  "deployedLinkReferences": {}
}