{
  "_format": "hh-sol-artifact-1",
  "contractName": "AutoCompounder",
  "sourceName": "contracts/erc4626/AutoCompounder.sol",
  "abi": [
    {
      "inputs": [
        {
          "internalType": "address",
          "name": "uniswapV2Router_",
          "type": "address"
        },
        {
          "internalType": "address",
          "name": "vault_",
          "type": "address"
        },
        {
          "internalType": "address",
          "name": "usdc_",
          "type": "address"
        },
        {
          "internalType": "string",
          "name": "name_",
          "type": "string"
        },
        {
          "internalType": "string",
          "name": "symbol_",
          "type": "string"
        }
      ],
      "stateMutability": "payable",
      "type": "constructor"
    },
    {
      "inputs": [
        {
          "internalType": "address",
          "name": "target",
          "type": "address"
        }
      ],
      "name": "AddressEmptyCode",
      "type": "error"
    },
    {
      "inputs": [
        {
          "internalType": "address",
          "name": "account",
          "type": "address"
        }
      ],
      "name": "AddressInsufficientBalance",
      "type": "error"
    },
    {
      "inputs": [],
      "name": "FailedInnerCall",
      "type": "error"
    },
    {
      "inputs": [
        {
          "internalType": "address",
          "name": "owner",
          "type": "address"
        }
      ],
      "name": "OwnableInvalidOwner",
      "type": "error"
    },
    {
      "inputs": [
        {
          "internalType": "address",
          "name": "account",
          "type": "address"
        }
      ],
      "name": "OwnableUnauthorizedAccount",
      "type": "error"
    },
    {
      "inputs": [
        {
          "internalType": "address",
          "name": "token",
          "type": "address"
        }
      ],
      "name": "SafeERC20FailedOperation",
      "type": "error"
    },
    {
      "inputs": [],
      "name": "ZeroReward",
      "type": "error"
    },
    {
      "anonymous": false,
      "inputs": [
        {
          "indexed": true,
          "internalType": "address",
          "name": "owner",
          "type": "address"
        },
        {
          "indexed": true,
          "internalType": "address",
          "name": "spender",
          "type": "address"
        },
        {
          "indexed": false,
          "internalType": "uint256",
          "name": "amount",
          "type": "uint256"
        }
      ],
      "name": "Approval",
      "type": "event"
    },
    {
      "anonymous": false,
      "inputs": [
        {
          "indexed": false,
          "internalType": "uint256",
          "name": "depositedUnderlying",
          "type": "uint256"
        }
      ],
      "name": "Claim",
      "type": "event"
    },
    {
      "anonymous": false,
      "inputs": [
        {
          "indexed": true,
          "internalType": "address",
          "name": "createdToken",
          "type": "address"
        }
      ],
      "name": "CreatedToken",
      "type": "event"
    },
    {
      "anonymous": false,
      "inputs": [
        {
          "indexed": true,
          "internalType": "address",
          "name": "caller",
          "type": "address"
        },
        {
          "indexed": false,
          "internalType": "uint256",
          "name": "assets",
          "type": "uint256"
        },
        {
          "indexed": false,
          "internalType": "uint256",
          "name": "aTokenMinted",
          "type": "uint256"
        }
      ],
      "name": "Deposit",
      "type": "event"
    },
    {
      "anonymous": false,
      "inputs": [
        {
          "indexed": true,
          "internalType": "address",
          "name": "previousOwner",
          "type": "address"
        },
        {
          "indexed": true,
          "internalType": "address",
          "name": "newOwner",
          "type": "address"
        }
      ],
      "name": "OwnershipTransferred",
      "type": "event"
    },
    {
      "anonymous": false,
      "inputs": [
        {
          "indexed": true,
          "internalType": "address",
          "name": "from",
          "type": "address"
        },
        {
          "indexed": true,
          "internalType": "address",
          "name": "to",
          "type": "address"
        },
        {
          "indexed": false,
          "internalType": "uint256",
          "name": "amount",
          "type": "uint256"
        }
      ],
      "name": "Transfer",
      "type": "event"
    },
    {
      "anonymous": false,
      "inputs": [
        {
          "indexed": true,
          "internalType": "address",
          "name": "caller",
          "type": "address"
        },
        {
          "indexed": false,
          "internalType": "uint256",
          "name": "aTokenAmount",
          "type": "uint256"
        },
        {
          "indexed": false,
          "internalType": "uint256",
          "name": "underlyingAmount",
          "type": "uint256"
        }
      ],
      "name": "Withdraw",
      "type": "event"
    },
    {
      "inputs": [],
      "name": "DOMAIN_SEPARATOR",
      "outputs": [
        {
          "internalType": "bytes32",
          "name": "",
          "type": "bytes32"
        }
      ],
      "stateMutability": "view",
      "type": "function"
    },
    {
      "inputs": [
        {
          "internalType": "address",
          "name": "",
          "type": "address"
        },
        {
          "internalType": "address",
          "name": "",
          "type": "address"
        }
      ],
      "name": "allowance",
      "outputs": [
        {
          "internalType": "uint256",
          "name": "",
          "type": "uint256"
        }
      ],
      "stateMutability": "view",
      "type": "function"
    },
    {
      "inputs": [
        {
          "internalType": "address",
          "name": "spender",
          "type": "address"
        },
        {
          "internalType": "uint256",
          "name": "amount",
          "type": "uint256"
        }
      ],
      "name": "approve",
      "outputs": [
        {
          "internalType": "bool",
          "name": "",
          "type": "bool"
        }
      ],
      "stateMutability": "nonpayable",
      "type": "function"
    },
    {
      "inputs": [],
      "name": "asset",
      "outputs": [
        {
          "internalType": "address",
          "name": "",
          "type": "address"
        }
      ],
      "stateMutability": "view",
      "type": "function"
    },
    {
      "inputs": [
        {
          "internalType": "address",
          "name": "",
          "type": "address"
        }
      ],
      "name": "balanceOf",
      "outputs": [
        {
          "internalType": "uint256",
          "name": "",
          "type": "uint256"
        }
      ],
      "stateMutability": "view",
      "type": "function"
    },
    {
      "inputs": [],
      "name": "claim",
      "outputs": [],
      "stateMutability": "nonpayable",
      "type": "function"
    },
    {
      "inputs": [],
      "name": "decimals",
      "outputs": [
        {
          "internalType": "uint8",
          "name": "",
          "type": "uint8"
        }
      ],
      "stateMutability": "view",
      "type": "function"
    },
    {
      "inputs": [
        {
          "internalType": "uint256",
          "name": "assets",
          "type": "uint256"
        },
        {
          "internalType": "address",
          "name": "receiver",
          "type": "address"
        }
      ],
      "name": "deposit",
      "outputs": [
        {
          "internalType": "uint256",
          "name": "amountToMint",
          "type": "uint256"
        }
      ],
      "stateMutability": "nonpayable",
      "type": "function"
    },
    {
      "inputs": [],
      "name": "exchangeRate",
      "outputs": [
        {
          "internalType": "uint256",
          "name": "",
          "type": "uint256"
        }
      ],
      "stateMutability": "view",
      "type": "function"
    },
    {
      "inputs": [],
      "name": "name",
      "outputs": [
        {
          "internalType": "string",
          "name": "",
          "type": "string"
        }
      ],
      "stateMutability": "view",
      "type": "function"
    },
    {
      "inputs": [
        {
          "internalType": "address",
          "name": "",
          "type": "address"
        }
      ],
      "name": "nonces",
      "outputs": [
        {
          "internalType": "uint256",
          "name": "",
          "type": "uint256"
        }
      ],
      "stateMutability": "view",
      "type": "function"
    },
    {
      "inputs": [],
      "name": "owner",
      "outputs": [
        {
          "internalType": "address",
          "name": "",
          "type": "address"
        }
      ],
      "stateMutability": "view",
      "type": "function"
    },
    {
      "inputs": [
        {
          "internalType": "address",
          "name": "owner",
          "type": "address"
        },
        {
          "internalType": "address",
          "name": "spender",
          "type": "address"
        },
        {
          "internalType": "uint256",
          "name": "value",
          "type": "uint256"
        },
        {
          "internalType": "uint256",
          "name": "deadline",
          "type": "uint256"
        },
        {
          "internalType": "uint8",
          "name": "v",
          "type": "uint8"
        },
        {
          "internalType": "bytes32",
          "name": "r",
          "type": "bytes32"
        },
        {
          "internalType": "bytes32",
          "name": "s",
          "type": "bytes32"
        }
      ],
      "name": "permit",
      "outputs": [],
      "stateMutability": "nonpayable",
      "type": "function"
    },
    {
      "inputs": [],
      "name": "renounceOwnership",
      "outputs": [],
      "stateMutability": "nonpayable",
      "type": "function"
    },
    {
      "inputs": [
        {
          "internalType": "bytes4",
          "name": "interfaceId",
          "type": "bytes4"
        }
      ],
      "name": "supportsInterface",
      "outputs": [
        {
          "internalType": "bool",
          "name": "",
          "type": "bool"
        }
      ],
      "stateMutability": "view",
      "type": "function"
    },
    {
      "inputs": [],
      "name": "symbol",
      "outputs": [
        {
          "internalType": "string",
          "name": "",
          "type": "string"
        }
      ],
      "stateMutability": "view",
      "type": "function"
    },
    {
      "inputs": [],
      "name": "totalSupply",
      "outputs": [
        {
          "internalType": "uint256",
          "name": "",
          "type": "uint256"
        }
      ],
      "stateMutability": "view",
      "type": "function"
    },
    {
      "inputs": [
        {
          "internalType": "address",
          "name": "to",
          "type": "address"
        },
        {
          "internalType": "uint256",
          "name": "amount",
          "type": "uint256"
        }
      ],
      "name": "transfer",
      "outputs": [
        {
          "internalType": "bool",
          "name": "",
          "type": "bool"
        }
      ],
      "stateMutability": "nonpayable",
      "type": "function"
    },
    {
      "inputs": [
        {
          "internalType": "address",
          "name": "from",
          "type": "address"
        },
        {
          "internalType": "address",
          "name": "to",
          "type": "address"
        },
        {
          "internalType": "uint256",
          "name": "amount",
          "type": "uint256"
        }
      ],
      "name": "transferFrom",
      "outputs": [
        {
          "internalType": "bool",
          "name": "",
          "type": "bool"
        }
      ],
      "stateMutability": "nonpayable",
      "type": "function"
    },
    {
      "inputs": [
        {
          "internalType": "address",
          "name": "newOwner",
          "type": "address"
        }
      ],
      "name": "transferOwnership",
      "outputs": [],
      "stateMutability": "nonpayable",
      "type": "function"
    },
    {
      "inputs": [],
      "name": "uniswapV2Router",
      "outputs": [
        {
          "internalType": "address",
          "name": "",
          "type": "address"
        }
      ],
      "stateMutability": "view",
      "type": "function"
    },
    {
      "inputs": [],
      "name": "usdc",
      "outputs": [
        {
          "internalType": "address",
          "name": "",
          "type": "address"
        }
      ],
      "stateMutability": "view",
      "type": "function"
    },
    {
      "inputs": [],
      "name": "vault",
      "outputs": [
        {
          "internalType": "address",
          "name": "",
          "type": "address"
        }
      ],
      "stateMutability": "view",
      "type": "function"
    },
    {
      "inputs": [
        {
          "internalType": "uint256",
          "name": "aTokenAmount",
          "type": "uint256"
        },
        {
          "internalType": "address",
          "name": "receiver",
          "type": "address"
        }
      ],
      "name": "withdraw",
      "outputs": [
        {
          "internalType": "uint256",
          "name": "underlyingAmount",
          "type": "uint256"
        }
      ],
      "stateMutability": "nonpayable",
      "type": "function"
    }
  ],
  "bytecode": "0x6101406040526040516200274d3803806200274d833981016040819052620000279162000802565b338282866001600160a01b03166338d52e0f6040518163ffffffff1660e01b8152600401602060405180830381865afa15801562000069573d6000803e3d6000fd5b505050506040513d601f19601f820116820180604052508101906200008f9190620008a5565b6001600160a01b031663313ce5676040518163ffffffff1660e01b8152600401602060405180830381865afa158015620000cd573d6000803e3d6000fd5b505050506040513d601f19601f82011682018060405250810190620000f39190620008c3565b600062000101848262000979565b50600162000110838262000979565b5060ff81166080524660a05262000126620004c1565b60c0525050506001600160a01b0381166200015c57604051631e4fbdf760e01b8152600060048201526024015b60405180910390fd5b62000167816200055d565b506001600160a01b038516620001d75760405162461bcd60e51b815260206004820152602e60248201527f4175746f436f6d706f756e6465723a20496e76616c696420556e69737761702060448201526d526f75746572206164647265737360901b606482015260840162000153565b6001600160a01b0384166200023d5760405162461bcd60e51b815260206004820152602560248201527f4175746f436f6d706f756e6465723a20496e76616c6964205661756c74206164604482015264647265737360d81b606482015260840162000153565b6001600160a01b038316620002a85760405162461bcd60e51b815260206004820152602a60248201527f4175746f436f6d706f756e6465723a20496e76616c6964205553444320746f6b604482015269656e206164647265737360b01b606482015260840162000153565b620002bb8463685a837160e01b620005af565b151561010081905280620002dd5750620002dd8463043eff2d60e51b620005af565b620003425760405162461bcd60e51b815260206004820152602e60248201527f4175746f436f6d706f756e6465723a20556e737570706f72746564207661756c60448201526d1d081a5b9d195c999858d948125160921b606482015260840162000153565b84600760006101000a8154816001600160a01b0302191690836001600160a01b03160217905550836001600160a01b03166338d52e0f6040518163ffffffff1660e01b8152600401602060405180830381865afa158015620003a8573d6000803e3d6000fd5b505050506040513d601f19601f82011682018060405250810190620003ce9190620008a5565b6001600160a01b039081166101205284811660e052600880546001600160a01b0319169185169190911790556040805160028082526060820183529091602083019080368337505081516200042b9260099250602001906200069c565b506008546001600160a01b031661012051600960008154811062000453576200045362000a45565b906000526020600020016000600960018154811062000476576200047662000a45565b600091825260209091200180546001600160a01b039485166001600160a01b031990911617905581549383166101009190910a9081029202199092161790555062000ad99350505050565b60007f8b73c3c69bb8fe3d512ecc4cf759cc79239f7b179b0ffacaa9a75d522b39400f6000604051620004f5919062000a5b565b6040805191829003822060208301939093528101919091527fc89efdaa54c0f20c7adf612882df0950f5a951637e0307cdcb4c672f298b8bc660608201524660808201523060a082015260c00160405160208183030381529060405280519060200120905090565b600680546001600160a01b038381166001600160a01b0319831681179093556040519116919082907f8be0079c531659141344cd1fd0a4f28419497f9722a3daafe3b4186f6b6457e090600090a35050565b6000620005bc83620005d7565b8015620005d05750620005d0838362000610565b9392505050565b6000620005ec826301ffc9a760e01b62000610565b80156200060a575062000608826001600160e01b031962000610565b155b92915050565b6040516001600160e01b031982166024820152600090819060440160408051601f19818403018152919052602080820180516001600160e01b03166301ffc9a760e01b178152825192935060009283928392909183918a617530fa92503d9150600051905082801562000684575060208210155b8015620006915750600081115b979650505050505050565b828054828255906000526020600020908101928215620006f4579160200282015b82811115620006f457825182546001600160a01b0319166001600160a01b03909116178255602090920191600190910190620006bd565b506200070292915062000706565b5090565b5b8082111562000702576000815560010162000707565b80516001600160a01b03811681146200073557600080fd5b919050565b634e487b7160e01b600052604160045260246000fd5b600082601f8301126200076257600080fd5b81516001600160401b03808211156200077f576200077f6200073a565b604051601f8301601f19908116603f01168101908282118183101715620007aa57620007aa6200073a565b8160405283815260209250866020858801011115620007c857600080fd5b600091505b83821015620007ec5785820183015181830184015290820190620007cd565b6000602085830101528094505050505092915050565b600080600080600060a086880312156200081b57600080fd5b62000826866200071d565b945062000836602087016200071d565b935062000846604087016200071d565b60608701519093506001600160401b03808211156200086457600080fd5b6200087289838a0162000750565b935060808801519150808211156200088957600080fd5b50620008988882890162000750565b9150509295509295909350565b600060208284031215620008b857600080fd5b620005d0826200071d565b600060208284031215620008d657600080fd5b815160ff81168114620005d057600080fd5b600181811c90821680620008fd57607f821691505b6020821081036200091e57634e487b7160e01b600052602260045260246000fd5b50919050565b601f82111562000974576000816000526020600020601f850160051c810160208610156200094f5750805b601f850160051c820191505b8181101562000970578281556001016200095b565b5050505b505050565b81516001600160401b038111156200099557620009956200073a565b620009ad81620009a68454620008e8565b8462000924565b602080601f831160018114620009e55760008415620009cc5750858301515b600019600386901b1c1916600185901b17855562000970565b600085815260208120601f198616915b8281101562000a1657888601518255948401946001909101908401620009f5565b508582101562000a355787850151600019600388901b60f8161c191681555b5050505050600190811b01905550565b634e487b7160e01b600052603260045260246000fd5b600080835462000a6b81620008e8565b6001828116801562000a86576001811462000a9c5762000acd565b60ff198416875282151583028701945062000acd565b8760005260208060002060005b8581101562000ac45781548a82015290840190820162000aa9565b50505082870194505b50929695505050505050565b60805160a05160c05160e0516101005161012051611c0162000b4c60003960006107d501526000610dcb0152600081816103f8015281816104a6015281816107fc01528181610b7301528181610e700152611238015260006107b10152600061077c015260006102070152611c016000f3fe608060405234801561001057600080fd5b50600436106101575760003560e01c80634e71d92d116100c357806395d89b411161007c57806395d89b41146102da578063a9059cbb146102e2578063d505accf146102f5578063dd62ed3e14610308578063f2fde38b14610333578063fbfa77cf1461034657600080fd5b80634e71d92d146102645780636e553f651461026e57806370a0823114610281578063715018a6146102a15780637ecebe00146102a95780638da5cb5b146102c957600080fd5b806323b872dd1161011557806323b872dd146101ef578063313ce567146102025780633644e5151461023b57806338d52e0f146102435780633ba0b9a91461024b5780633e413bee1461025357600080fd5b8062f714ce1461015c57806301ffc9a71461018257806306fdde03146101a5578063095ea7b3146101ba5780631694505e146101cd57806318160ddd146101e7575b600080fd5b61016f61016a366004611608565b61034e565b6040519081526020015b60405180910390f35b610195610190366004611634565b610565565b6040519015158152602001610179565b6101ad61059c565b6040516101799190611682565b6101956101c83660046116b5565b61062a565b6007546001600160a01b03165b60405161017991906116df565b60025461016f565b6101956101fd3660046116f3565b610696565b6102297f000000000000000000000000000000000000000000000000000000000000000081565b60405160ff9091168152602001610179565b61016f610778565b6101da6107d3565b61016f6107f7565b6008546001600160a01b03166101da565b61026c6108aa565b005b61016f61027c366004611608565b610c90565b61016f61028f36600461172f565b60036020526000908152604090205481565b61026c610f36565b61016f6102b736600461172f565b60056020526000908152604090205481565b6006546001600160a01b03166101da565b6101ad610f4a565b6101956102f03660046116b5565b610f57565b61026c61030336600461174a565b610fbd565b61016f6103163660046117bd565b600460209081526000928352604080842090915290825290205481565b61026c61034136600461172f565b6111fb565b6101da611236565b60008083116103b25760405162461bcd60e51b815260206004820152602560248201527f4175746f436f6d706f756e6465723a20496e76616c69642061546f6b656e20616044820152641b5bdd5b9d60da1b60648201526084015b60405180910390fd5b6001600160a01b0382166103d85760405162461bcd60e51b81526004016103a9906117e7565b6103e06107f7565b6103ea9084611845565b90506103f6338461125a565b7f00000000000000000000000000000000000000000000000000000000000000006001600160a01b031663095ea7b361042d611236565b836040518363ffffffff1660e01b815260040161044b92919061185c565b6020604051808303816000875af115801561046a573d6000803e3d6000fd5b505050506040513d601f19601f8201168201806040525081019061048e9190611875565b50604051632d182be560e21b81526001600160a01b037f0000000000000000000000000000000000000000000000000000000000000000169063b460af94906104df90849086903090600401611897565b6020604051808303816000875af11580156104fe573d6000803e3d6000fd5b505050506040513d601f19601f8201168201806040525081019061052291906118b6565b50604080518481526020810183905233917ff279e6a1f5e320cca91135676d9cb6e44ca8a08c0b88342bcdb1144f6511b56891015b60405180910390a292915050565b60006001600160e01b0319821663d85c12ef60e01b148061059657506301ffc9a760e01b6001600160e01b03198316145b92915050565b600080546105a9906118cf565b80601f01602080910402602001604051908101604052809291908181526020018280546105d5906118cf565b80156106225780601f106105f757610100808354040283529160200191610622565b820191906000526020600020905b81548152906001019060200180831161060557829003601f168201915b505050505081565b3360008181526004602090815260408083206001600160a01b038716808552925280832085905551919290917f8c5be1e5ebec7d5bd14f71427d1e84f3dd0314c0f7b2291e5b200ac8c7c3b925906106859086815260200190565b60405180910390a350600192915050565b6001600160a01b038316600090815260046020908152604080832033845290915281205460001981146106f2576106cd8382611909565b6001600160a01b03861660009081526004602090815260408083203384529091529020555b6001600160a01b0385166000908152600360205260408120805485929061071a908490611909565b90915550506001600160a01b0380851660008181526003602052604090819020805487019055519091871690600080516020611bac833981519152906107639087815260200190565b60405180910390a360019150505b9392505050565b60007f000000000000000000000000000000000000000000000000000000000000000046146107ae576107a96112c4565b905090565b507f000000000000000000000000000000000000000000000000000000000000000090565b7f000000000000000000000000000000000000000000000000000000000000000090565b6000807f00000000000000000000000000000000000000000000000000000000000000006001600160a01b03166318160ddd6040518163ffffffff1660e01b8152600401602060405180830381865afa158015610858573d6000803e3d6000fd5b505050506040513d601f19601f8201168201806040525081019061087c91906118b6565b9050600061088960025490565b905080156108a05761089b828261191c565b6108a3565b60015b9250505090565b60006108b4611236565b6001600160a01b0316635ab764ed306108d56008546001600160a01b031690565b6040516001600160e01b031960e085901b1681526001600160a01b03928316600482015291166024820152604401602060405180830381865afa158015610920573d6000803e3d6000fd5b505050506040513d601f19601f8201168201806040525081019061094491906118b6565b90508015610c7457610954611236565b6001600160a01b031663cd26c0e66000306040518363ffffffff1660e01b815260040161098292919061193e565b60408051808303816000875af11580156109a0573d6000803e3d6000fd5b505050506040513d601f19601f820116820180604052508101906109c49190611955565b50506008546001600160a01b03166001600160a01b031663095ea7b36109f26007546001600160a01b031690565b836040518363ffffffff1660e01b8152600401610a1092919061185c565b6020604051808303816000875af1158015610a2f573d6000803e3d6000fd5b505050506040513d601f19601f82011682018060405250810190610a539190611875565b506007546040516338ed173960e01b81526000916001600160a01b0316906338ed173990610a8e908590859060099030904290600401611979565b6000604051808303816000875af1158015610aad573d6000803e3d6000fd5b505050506040513d6000823e601f3d908101601f19168201604052610ad59190810190611a07565b9050610adf6107d3565b6001600160a01b031663095ea7b3610af5611236565b83600181518110610b0857610b08611ac5565b60200260200101516040518363ffffffff1660e01b8152600401610b2d92919061185c565b6020604051808303816000875af1158015610b4c573d6000803e3d6000fd5b505050506040513d601f19601f82011682018060405250810190610b709190611875565b507f00000000000000000000000000000000000000000000000000000000000000006001600160a01b0316636e553f6582600181518110610bb357610bb3611ac5565b6020026020010151306040518363ffffffff1660e01b8152600401610bd992919061193e565b6020604051808303816000875af1158015610bf8573d6000803e3d6000fd5b505050506040513d601f19601f82011682018060405250810190610c1c91906118b6565b507f7bb2b3c10797baccb6f8c4791f1edd6ca2f0d028ee0eda64b01a9a57e3a653f781600181518110610c5157610c51611ac5565b6020026020010151604051610c6891815260200190565b60405180910390a15050565b604051632706c9e160e21b815260040160405180910390fd5b50565b600082600003610cf05760405162461bcd60e51b815260206004820152602560248201527f4175746f436f6d706f756e6465723a20496e76616c69642061737365747320616044820152641b5bdd5b9d60da1b60648201526084016103a9565b6001600160a01b038216610d165760405162461bcd60e51b81526004016103a9906117e7565b610d1e6107f7565b610d28908461191c565b9050610d49333085610d386107d3565b6001600160a01b031692919061135e565b610d516107d3565b6001600160a01b031663095ea7b3610d67611236565b856040518363ffffffff1660e01b8152600401610d8592919061185c565b6020604051808303816000875af1158015610da4573d6000803e3d6000fd5b505050506040513d601f19601f82011682018060405250810190610dc89190611875565b507f000000000000000000000000000000000000000000000000000000000000000015610e5957610df7611236565b6001600160a01b03166385b77f458430306040518463ffffffff1660e01b8152600401610e2693929190611897565b600060405180830381600087803b158015610e4057600080fd5b505af1158015610e54573d6000803e3d6000fd5b505050505b604051636e553f6560e01b81526001600160a01b037f00000000000000000000000000000000000000000000000000000000000000001690636e553f6590610ea7908690309060040161193e565b6020604051808303816000875af1158015610ec6573d6000803e3d6000fd5b505050506040513d601f19601f82011682018060405250810190610eea91906118b6565b50610ef582826113be565b60408051848152602081018390526001600160a01b038416917f90890809c654f11d6e72a28fa60149770a0d11ec6c92319d6ceb2bb0a4ea1a159101610557565b610f3e611410565b610f48600061143d565b565b600180546105a9906118cf565b33600090815260036020526040812080548391908390610f78908490611909565b90915550506001600160a01b03831660008181526003602052604090819020805485019055513390600080516020611bac833981519152906106859086815260200190565b428410156110075760405162461bcd60e51b815260206004820152601760248201527614115493525517d11150511312539157d1561412549151604a1b60448201526064016103a9565b60006001611013610778565b6001600160a01b038a811660008181526005602090815260409182902080546001810190915582517f6e71edae12b1b97f4d1f60370fef10105fa2faae0126114a169c64845d6126c98184015280840194909452938d166060840152608083018c905260a083019390935260c08083018b90528151808403909101815260e08301909152805192019190912061190160f01b6101008301526101028201929092526101228101919091526101420160408051601f198184030181528282528051602091820120600084529083018083525260ff871690820152606081018590526080810184905260a0016020604051602081039080840390855afa15801561111f573d6000803e3d6000fd5b5050604051601f1901519150506001600160a01b038116158015906111555750876001600160a01b0316816001600160a01b0316145b6111925760405162461bcd60e51b815260206004820152600e60248201526d24a72b20a624a22fa9a4a3a722a960911b60448201526064016103a9565b6001600160a01b0390811660009081526004602090815260408083208a8516808552908352928190208990555188815291928a16917f8c5be1e5ebec7d5bd14f71427d1e84f3dd0314c0f7b2291e5b200ac8c7c3b925910160405180910390a350505050505050565b611203611410565b6001600160a01b03811661122d576000604051631e4fbdf760e01b81526004016103a991906116df565b610c8d8161143d565b7f000000000000000000000000000000000000000000000000000000000000000090565b6001600160a01b03821660009081526003602052604081208054839290611282908490611909565b90915550506002805482900390556040518181526000906001600160a01b03841690600080516020611bac833981519152906020015b60405180910390a35050565b60007f8b73c3c69bb8fe3d512ecc4cf759cc79239f7b179b0ffacaa9a75d522b39400f60006040516112f69190611adb565b6040805191829003822060208301939093528101919091527fc89efdaa54c0f20c7adf612882df0950f5a951637e0307cdcb4c672f298b8bc660608201524660808201523060a082015260c00160405160208183030381529060405280519060200120905090565b604080516001600160a01b0385811660248301528416604482015260648082018490528251808303909101815260849091019091526020810180516001600160e01b03166323b872dd60e01b1790526113b890859061148f565b50505050565b80600260008282546113d09190611b7c565b90915550506001600160a01b038216600081815260036020908152604080832080548601905551848152600080516020611bac83398151915291016112b8565b6006546001600160a01b03163314610f48573360405163118cdaa760e01b81526004016103a991906116df565b600680546001600160a01b038381166001600160a01b0319831681179093556040519116919082907f8be0079c531659141344cd1fd0a4f28419497f9722a3daafe3b4186f6b6457e090600090a35050565b60006114a46001600160a01b038416836114ee565b905080516000141580156114c95750808060200190518101906114c79190611875565b155b156114e95782604051635274afe760e01b81526004016103a991906116df565b505050565b60606107718383600084600080856001600160a01b031684866040516115149190611b8f565b60006040518083038185875af1925050503d8060008114611551576040519150601f19603f3d011682016040523d82523d6000602084013e611556565b606091505b5091509150611566868383611570565b9695505050505050565b60608261158557611580826115c3565b610771565b815115801561159c57506001600160a01b0384163b155b156115bc5783604051639996b31560e01b81526004016103a991906116df565b5080610771565b8051156115d35780518082602001fd5b604051630a12f52160e11b815260040160405180910390fd5b80356001600160a01b038116811461160357600080fd5b919050565b6000806040838503121561161b57600080fd5b8235915061162b602084016115ec565b90509250929050565b60006020828403121561164657600080fd5b81356001600160e01b03198116811461077157600080fd5b60005b83811015611679578181015183820152602001611661565b50506000910152565b60208152600082518060208401526116a181604085016020870161165e565b601f01601f19169190910160400192915050565b600080604083850312156116c857600080fd5b6116d1836115ec565b946020939093013593505050565b6001600160a01b0391909116815260200190565b60008060006060848603121561170857600080fd5b611711846115ec565b925061171f602085016115ec565b9150604084013590509250925092565b60006020828403121561174157600080fd5b610771826115ec565b600080600080600080600060e0888a03121561176557600080fd5b61176e886115ec565b965061177c602089016115ec565b95506040880135945060608801359350608088013560ff811681146117a057600080fd5b9699959850939692959460a0840135945060c09093013592915050565b600080604083850312156117d057600080fd5b6117d9836115ec565b915061162b602084016115ec565b60208082526028908201527f4175746f436f6d706f756e6465723a20496e76616c6964207265636569766572604082015267206164647265737360c01b606082015260800190565b634e487b7160e01b600052601160045260246000fd5b80820281158282048414176105965761059661182f565b6001600160a01b03929092168252602082015260400190565b60006020828403121561188757600080fd5b8151801515811461077157600080fd5b9283526001600160a01b03918216602084015216604082015260600190565b6000602082840312156118c857600080fd5b5051919050565b600181811c908216806118e357607f821691505b60208210810361190357634e487b7160e01b600052602260045260246000fd5b50919050565b818103818111156105965761059661182f565b60008261193957634e487b7160e01b600052601260045260246000fd5b500490565b9182526001600160a01b0316602082015260400190565b6000806040838503121561196857600080fd5b505080516020909101519092909150565b600060a08201878352602087602085015260a0604085015281875480845260c086019150886000526020600020935060005b818110156119d05784546001600160a01b0316835260019485019492840192016119ab565b50506001600160a01b03969096166060850152505050608001529392505050565b634e487b7160e01b600052604160045260246000fd5b60006020808385031215611a1a57600080fd5b825167ffffffffffffffff80821115611a3257600080fd5b818501915085601f830112611a4657600080fd5b815181811115611a5857611a586119f1565b8060051b604051601f19603f83011681018181108582111715611a7d57611a7d6119f1565b604052918252848201925083810185019188831115611a9b57600080fd5b938501935b82851015611ab957845184529385019392850192611aa0565b98975050505050505050565b634e487b7160e01b600052603260045260246000fd5b60008083548160018260011c91506001831680611af957607f831692505b60208084108203611b1857634e487b7160e01b86526022600452602486fd5b818015611b2c5760018114611b4157611b6e565b60ff1986168952841515850289019650611b6e565b60008a81526020902060005b86811015611b665781548b820152908501908301611b4d565b505084890196505b509498975050505050505050565b808201808211156105965761059661182f565b60008251611ba181846020870161165e565b919091019291505056feddf252ad1be2c89b69c2b068fc378daa952ba7f163c4a11628f55a4df523b3efa264697066735822122083127dde9fcbfa8c4f200cd7372e552d5409ceaeb70538715de773c00ec1761164736f6c63430008180033",
  "linkReferences": {},
  "deployedLinkReferences": {}
}