{
  "_format": "hh-sol-artifact-1",
  "contractName": "BasicVault",
  "sourceName": "contracts/erc4626/BasicVault.sol",
  "abi": [
    {
      "inputs": [
        {
          "internalType": "contract IERC20",
          "name": "underlying_",
          "type": "address"
        },
        {
          "internalType": "string",
          "name": "name_",
          "type": "string"
        },
        {
          "internalType": "string",
          "name": "symbol_",
          "type": "string"
        },
        {
          "components": [
            {
              "internalType": "address",
              "name": "receiver",
              "type": "address"
            },
            {
              "internalType": "address",
              "name": "token",
              "type": "address"
            },
            {
              "internalType": "uint256",
              "name": "feePercentage",
              "type": "uint256"
            }
          ],
          "internalType": "struct FeeConfiguration.FeeConfig",
          "name": "feeConfig_",
          "type": "tuple"
        },
        {
          "internalType": "address",
          "name": "vaultRewardController_",
          "type": "address"
        },
        {
          "internalType": "address",
          "name": "feeConfigController_",
          "type": "address"
        },
        {
          "internalType": "uint32",
          "name": "cliff_",
          "type": "uint32"
        },
        {
          "internalType": "uint32",
          "name": "unlockDuration_",
          "type": "uint32"
        }
      ],
      "stateMutability": "payable",
      "type": "constructor"
    },
    {
      "inputs": [],
      "name": "AccessControlBadConfirmation",
      "type": "error"
    },
    {
      "inputs": [
        {
          "internalType": "address",
          "name": "account",
          "type": "address"
        },
        {
          "internalType": "bytes32",
          "name": "neededRole",
          "type": "bytes32"
        }
      ],
      "name": "AccessControlUnauthorizedAccount",
      "type": "error"
    },
    {
      "inputs": [
        {
          "internalType": "address",
          "name": "target",
          "type": "address"
        }
      ],
      "name": "AddressEmptyCode",
      "type": "error"
    },
    {
      "inputs": [
        {
          "internalType": "address",
          "name": "account",
          "type": "address"
        }
      ],
      "name": "AddressInsufficientBalance",
      "type": "error"
    },
    {
      "inputs": [
        {
          "internalType": "address",
          "name": "spender",
          "type": "address"
        },
        {
          "internalType": "uint256",
          "name": "allowance",
          "type": "uint256"
        },
        {
          "internalType": "uint256",
          "name": "needed",
          "type": "uint256"
        }
      ],
      "name": "ERC20InsufficientAllowance",
      "type": "error"
    },
    {
      "inputs": [
        {
          "internalType": "address",
          "name": "sender",
          "type": "address"
        },
        {
          "internalType": "uint256",
          "name": "balance",
          "type": "uint256"
        },
        {
          "internalType": "uint256",
          "name": "needed",
          "type": "uint256"
        }
      ],
      "name": "ERC20InsufficientBalance",
      "type": "error"
    },
    {
      "inputs": [
        {
          "internalType": "address",
          "name": "approver",
          "type": "address"
        }
      ],
      "name": "ERC20InvalidApprover",
      "type": "error"
    },
    {
      "inputs": [
        {
          "internalType": "address",
          "name": "receiver",
          "type": "address"
        }
      ],
      "name": "ERC20InvalidReceiver",
      "type": "error"
    },
    {
      "inputs": [
        {
          "internalType": "address",
          "name": "sender",
          "type": "address"
        }
      ],
      "name": "ERC20InvalidSender",
      "type": "error"
    },
    {
      "inputs": [
        {
          "internalType": "address",
          "name": "spender",
          "type": "address"
        }
      ],
      "name": "ERC20InvalidSpender",
      "type": "error"
    },
    {
      "inputs": [
        {
          "internalType": "address",
          "name": "receiver",
          "type": "address"
        },
        {
          "internalType": "uint256",
          "name": "assets",
          "type": "uint256"
        },
        {
          "internalType": "uint256",
          "name": "max",
          "type": "uint256"
        }
      ],
      "name": "ERC4626ExceededMaxDeposit",
      "type": "error"
    },
    {
      "inputs": [
        {
          "internalType": "address",
          "name": "receiver",
          "type": "address"
        },
        {
          "internalType": "uint256",
          "name": "shares",
          "type": "uint256"
        },
        {
          "internalType": "uint256",
          "name": "max",
          "type": "uint256"
        }
      ],
      "name": "ERC4626ExceededMaxMint",
      "type": "error"
    },
    {
      "inputs": [
        {
          "internalType": "address",
          "name": "owner",
          "type": "address"
        },
        {
          "internalType": "uint256",
          "name": "shares",
          "type": "uint256"
        },
        {
          "internalType": "uint256",
          "name": "max",
          "type": "uint256"
        }
      ],
      "name": "ERC4626ExceededMaxRedeem",
      "type": "error"
    },
    {
      "inputs": [
        {
          "internalType": "address",
          "name": "owner",
          "type": "address"
        },
        {
          "internalType": "uint256",
          "name": "assets",
          "type": "uint256"
        },
        {
          "internalType": "uint256",
          "name": "max",
          "type": "uint256"
        }
      ],
      "name": "ERC4626ExceededMaxWithdraw",
      "type": "error"
    },
    {
      "inputs": [],
      "name": "FailedInnerCall",
      "type": "error"
    },
    {
      "inputs": [],
      "name": "MathOverflowedMulDiv",
      "type": "error"
    },
    {
      "inputs": [],
      "name": "MaxRewardTokensAmount",
      "type": "error"
    },
    {
      "inputs": [
        {
          "internalType": "address",
          "name": "owner",
          "type": "address"
        }
      ],
      "name": "OwnableInvalidOwner",
      "type": "error"
    },
    {
      "inputs": [
        {
          "internalType": "address",
          "name": "account",
          "type": "address"
        }
      ],
      "name": "OwnableUnauthorizedAccount",
      "type": "error"
    },
    {
      "inputs": [],
      "name": "ReentrancyGuardReentrantCall",
      "type": "error"
    },
    {
      "inputs": [
        {
          "internalType": "address",
          "name": "token",
          "type": "address"
        }
      ],
      "name": "SafeERC20FailedOperation",
      "type": "error"
    },
    {
      "anonymous": false,
      "inputs": [
        {
          "indexed": true,
          "internalType": "address",
          "name": "owner",
          "type": "address"
        },
        {
          "indexed": true,
          "internalType": "address",
          "name": "spender",
          "type": "address"
        },
        {
          "indexed": false,
          "internalType": "uint256",
          "name": "value",
          "type": "uint256"
        }
      ],
      "name": "Approval",
      "type": "event"
    },
    {
      "anonymous": false,
      "inputs": [
        {
          "indexed": true,
          "internalType": "address",
          "name": "sender",
          "type": "address"
        },
        {
          "indexed": true,
          "internalType": "address",
          "name": "owner",
          "type": "address"
        },
        {
          "indexed": false,
          "internalType": "uint256",
          "name": "assets",
          "type": "uint256"
        },
        {
          "indexed": false,
          "internalType": "uint256",
          "name": "shares",
          "type": "uint256"
        }
      ],
      "name": "Deposit",
      "type": "event"
    },
    {
      "anonymous": false,
      "inputs": [
        {
          "components": [
            {
              "internalType": "address",
              "name": "receiver",
              "type": "address"
            },
            {
              "internalType": "address",
              "name": "token",
              "type": "address"
            },
            {
              "internalType": "uint256",
              "name": "feePercentage",
              "type": "uint256"
            }
          ],
          "indexed": false,
          "internalType": "struct FeeConfiguration.FeeConfig",
          "name": "feeConfig",
          "type": "tuple"
        }
      ],
      "name": "FeeConfigUpdated",
      "type": "event"
    },
    {
      "anonymous": false,
      "inputs": [
        {
          "indexed": true,
          "internalType": "address",
          "name": "previousOwner",
          "type": "address"
        },
        {
          "indexed": true,
          "internalType": "address",
          "name": "newOwner",
          "type": "address"
        }
      ],
      "name": "OwnershipTransferred",
      "type": "event"
    },
    {
      "anonymous": false,
      "inputs": [
        {
          "indexed": true,
          "internalType": "address",
          "name": "rewardToken",
          "type": "address"
        },
        {
          "indexed": false,
          "internalType": "uint256",
          "name": "amount",
          "type": "uint256"
        }
      ],
      "name": "RewardAdded",
      "type": "event"
    },
    {
      "anonymous": false,
      "inputs": [
        {
          "indexed": true,
          "internalType": "address",
          "name": "rewardToken",
          "type": "address"
        },
        {
          "indexed": true,
          "internalType": "address",
          "name": "receiver",
          "type": "address"
        },
        {
          "indexed": false,
          "internalType": "uint256",
          "name": "amount",
          "type": "uint256"
        }
      ],
      "name": "RewardClaimed",
      "type": "event"
    },
    {
      "anonymous": false,
      "inputs": [
        {
          "indexed": true,
          "internalType": "bytes32",
          "name": "role",
          "type": "bytes32"
        },
        {
          "indexed": true,
          "internalType": "bytes32",
          "name": "previousAdminRole",
          "type": "bytes32"
        },
        {
          "indexed": true,
          "internalType": "bytes32",
          "name": "newAdminRole",
          "type": "bytes32"
        }
      ],
      "name": "RoleAdminChanged",
      "type": "event"
    },
    {
      "anonymous": false,
      "inputs": [
        {
          "indexed": true,
          "internalType": "bytes32",
          "name": "role",
          "type": "bytes32"
        },
        {
          "indexed": true,
          "internalType": "address",
          "name": "account",
          "type": "address"
        },
        {
          "indexed": true,
          "internalType": "address",
          "name": "sender",
          "type": "address"
        }
      ],
      "name": "RoleGranted",
      "type": "event"
    },
    {
      "anonymous": false,
      "inputs": [
        {
          "indexed": true,
          "internalType": "bytes32",
          "name": "role",
          "type": "bytes32"
        },
        {
          "indexed": true,
          "internalType": "address",
          "name": "account",
          "type": "address"
        },
        {
          "indexed": true,
          "internalType": "address",
          "name": "sender",
          "type": "address"
        }
      ],
      "name": "RoleRevoked",
      "type": "event"
    },
    {
      "anonymous": false,
      "inputs": [
        {
          "indexed": false,
          "internalType": "uint32",
          "name": "time",
          "type": "uint32"
        }
      ],
      "name": "SetSharesLockTime",
      "type": "event"
    },
    {
      "anonymous": false,
      "inputs": [
        {
          "indexed": true,
          "internalType": "address",
          "name": "from",
          "type": "address"
        },
        {
          "indexed": true,
          "internalType": "address",
          "name": "to",
          "type": "address"
        },
        {
          "indexed": false,
          "internalType": "uint256",
          "name": "value",
          "type": "uint256"
        }
      ],
      "name": "Transfer",
      "type": "event"
    },
    {
      "anonymous": false,
      "inputs": [
        {
          "indexed": true,
          "internalType": "address",
          "name": "sender",
          "type": "address"
        },
        {
          "indexed": true,
          "internalType": "address",
          "name": "receiver",
          "type": "address"
        },
        {
          "indexed": true,
          "internalType": "address",
          "name": "owner",
          "type": "address"
        },
        {
          "indexed": false,
          "internalType": "uint256",
          "name": "assets",
          "type": "uint256"
        },
        {
          "indexed": false,
          "internalType": "uint256",
          "name": "shares",
          "type": "uint256"
        }
      ],
      "name": "Withdraw",
      "type": "event"
    },
    {
      "inputs": [],
      "name": "DEFAULT_ADMIN_ROLE",
      "outputs": [
        {
          "internalType": "bytes32",
          "name": "",
          "type": "bytes32"
        }
      ],
      "stateMutability": "view",
      "type": "function"
    },
    {
      "inputs": [],
      "name": "FEE_CONFIG_CONTROLLER_ROLE",
      "outputs": [
        {
          "internalType": "bytes32",
          "name": "",
          "type": "bytes32"
        }
      ],
      "stateMutability": "view",
      "type": "function"
    },
    {
      "inputs": [],
      "name": "VAULT_REWARD_CONTROLLER_ROLE",
      "outputs": [
        {
          "internalType": "bytes32",
          "name": "",
          "type": "bytes32"
        }
      ],
      "stateMutability": "view",
      "type": "function"
    },
    {
      "inputs": [
        {
          "internalType": "address",
          "name": "_token",
          "type": "address"
        },
        {
          "internalType": "uint256",
          "name": "_amount",
          "type": "uint256"
        }
      ],
      "name": "addReward",
      "outputs": [],
      "stateMutability": "payable",
      "type": "function"
    },
    {
      "inputs": [
        {
          "internalType": "address",
          "name": "owner",
          "type": "address"
        },
        {
          "internalType": "address",
          "name": "spender",
          "type": "address"
        }
      ],
      "name": "allowance",
      "outputs": [
        {
          "internalType": "uint256",
          "name": "",
          "type": "uint256"
        }
      ],
      "stateMutability": "view",
      "type": "function"
    },
    {
      "inputs": [
        {
          "internalType": "address",
          "name": "spender",
          "type": "address"
        },
        {
          "internalType": "uint256",
          "name": "value",
          "type": "uint256"
        }
      ],
      "name": "approve",
      "outputs": [
        {
          "internalType": "bool",
          "name": "",
          "type": "bool"
        }
      ],
      "stateMutability": "nonpayable",
      "type": "function"
    },
    {
      "inputs": [],
      "name": "asset",
      "outputs": [
        {
          "internalType": "address",
          "name": "",
          "type": "address"
        }
      ],
      "stateMutability": "view",
      "type": "function"
    },
    {
      "inputs": [
        {
          "internalType": "address",
          "name": "account",
          "type": "address"
        }
      ],
      "name": "balanceOf",
      "outputs": [
        {
          "internalType": "uint256",
          "name": "",
          "type": "uint256"
        }
      ],
      "stateMutability": "view",
      "type": "function"
    },
    {
      "inputs": [
        {
          "internalType": "uint256",
          "name": "_startPosition",
          "type": "uint256"
        },
        {
          "internalType": "address",
          "name": "receiver",
          "type": "address"
        }
      ],
      "name": "claimAllReward",
      "outputs": [
        {
          "internalType": "uint256",
          "name": "",
          "type": "uint256"
        },
        {
          "internalType": "uint256",
          "name": "",
          "type": "uint256"
        }
      ],
      "stateMutability": "nonpayable",
      "type": "function"
    },
    {
      "inputs": [],
      "name": "cliff",
      "outputs": [
        {
          "internalType": "uint32",
          "name": "",
          "type": "uint32"
        }
      ],
      "stateMutability": "view",
      "type": "function"
    },
    {
      "inputs": [
        {
          "internalType": "uint256",
          "name": "shares",
          "type": "uint256"
        }
      ],
      "name": "convertToAssets",
      "outputs": [
        {
          "internalType": "uint256",
          "name": "",
          "type": "uint256"
        }
      ],
      "stateMutability": "view",
      "type": "function"
    },
    {
      "inputs": [
        {
          "internalType": "uint256",
          "name": "assets",
          "type": "uint256"
        }
      ],
      "name": "convertToShares",
      "outputs": [
        {
          "internalType": "uint256",
          "name": "",
          "type": "uint256"
        }
      ],
      "stateMutability": "view",
      "type": "function"
    },
    {
      "inputs": [],
      "name": "decimals",
      "outputs": [
        {
          "internalType": "uint8",
          "name": "",
          "type": "uint8"
        }
      ],
      "stateMutability": "view",
      "type": "function"
    },
    {
      "inputs": [
        {
          "internalType": "uint256",
          "name": "assets",
          "type": "uint256"
        },
        {
          "internalType": "address",
          "name": "receiver",
          "type": "address"
        }
      ],
      "name": "deposit",
      "outputs": [
        {
          "internalType": "uint256",
          "name": "shares",
          "type": "uint256"
        }
      ],
      "stateMutability": "nonpayable",
      "type": "function"
    },
    {
      "inputs": [],
      "name": "feeConfig",
      "outputs": [
        {
          "internalType": "address",
          "name": "receiver",
          "type": "address"
        },
        {
          "internalType": "address",
          "name": "token",
          "type": "address"
        },
        {
          "internalType": "uint256",
          "name": "feePercentage",
          "type": "uint256"
        }
      ],
      "stateMutability": "view",
      "type": "function"
    },
    {
      "inputs": [
        {
          "internalType": "address",
          "name": "_user",
          "type": "address"
        }
      ],
      "name": "getAllRewards",
      "outputs": [
        {
          "internalType": "uint256[]",
          "name": "_rewards",
          "type": "uint256[]"
        }
      ],
      "stateMutability": "view",
      "type": "function"
    },
    {
      "inputs": [],
      "name": "getRewardTokens",
      "outputs": [
        {
          "internalType": "address[]",
          "name": "",
          "type": "address[]"
        }
      ],
      "stateMutability": "view",
      "type": "function"
    },
    {
      "inputs": [
        {
          "internalType": "bytes32",
          "name": "role",
          "type": "bytes32"
        }
      ],
      "name": "getRoleAdmin",
      "outputs": [
        {
          "internalType": "bytes32",
          "name": "",
          "type": "bytes32"
        }
      ],
      "stateMutability": "view",
      "type": "function"
    },
    {
      "inputs": [
        {
          "internalType": "address",
          "name": "_user",
          "type": "address"
        },
        {
          "internalType": "address",
          "name": "_rewardToken",
          "type": "address"
        }
      ],
      "name": "getUserReward",
      "outputs": [
        {
          "internalType": "uint256",
          "name": "unclaimedAmount",
          "type": "uint256"
        }
      ],
      "stateMutability": "view",
      "type": "function"
    },
    {
      "inputs": [
        {
          "internalType": "bytes32",
          "name": "role",
          "type": "bytes32"
        },
        {
          "internalType": "address",
          "name": "account",
          "type": "address"
        }
      ],
      "name": "grantRole",
      "outputs": [],
      "stateMutability": "nonpayable",
      "type": "function"
    },
    {
      "inputs": [
        {
          "internalType": "bytes32",
          "name": "role",
          "type": "bytes32"
        },
        {
          "internalType": "address",
          "name": "account",
          "type": "address"
        }
      ],
      "name": "hasRole",
      "outputs": [
        {
          "internalType": "bool",
          "name": "",
          "type": "bool"
        }
      ],
      "stateMutability": "view",
      "type": "function"
    },
    {
      "inputs": [
        {
          "internalType": "address",
          "name": "account",
          "type": "address"
        }
      ],
      "name": "lockedOf",
      "outputs": [
        {
          "internalType": "uint256",
          "name": "",
          "type": "uint256"
        }
      ],
      "stateMutability": "view",
      "type": "function"
    },
    {
      "inputs": [
        {
          "internalType": "address",
          "name": "",
          "type": "address"
        }
      ],
      "name": "maxDeposit",
      "outputs": [
        {
          "internalType": "uint256",
          "name": "",
          "type": "uint256"
        }
      ],
      "stateMutability": "view",
      "type": "function"
    },
    {
      "inputs": [
        {
          "internalType": "address",
          "name": "",
          "type": "address"
        }
      ],
      "name": "maxMint",
      "outputs": [
        {
          "internalType": "uint256",
          "name": "",
          "type": "uint256"
        }
      ],
      "stateMutability": "view",
      "type": "function"
    },
    {
      "inputs": [
        {
          "internalType": "address",
          "name": "owner",
          "type": "address"
        }
      ],
      "name": "maxRedeem",
      "outputs": [
        {
          "internalType": "uint256",
          "name": "",
          "type": "uint256"
        }
      ],
      "stateMutability": "view",
      "type": "function"
    },
    {
      "inputs": [
        {
          "internalType": "address",
          "name": "owner",
          "type": "address"
        }
      ],
      "name": "maxWithdraw",
      "outputs": [
        {
          "internalType": "uint256",
          "name": "",
          "type": "uint256"
        }
      ],
      "stateMutability": "view",
      "type": "function"
    },
    {
      "inputs": [
        {
          "internalType": "uint256",
          "name": "shares",
          "type": "uint256"
        },
        {
          "internalType": "address",
          "name": "receiver",
          "type": "address"
        }
      ],
      "name": "mint",
      "outputs": [
        {
          "internalType": "uint256",
          "name": "assets",
          "type": "uint256"
        }
      ],
      "stateMutability": "nonpayable",
      "type": "function"
    },
    {
      "inputs": [],
      "name": "name",
      "outputs": [
        {
          "internalType": "string",
          "name": "",
          "type": "string"
        }
      ],
      "stateMutability": "view",
      "type": "function"
    },
    {
      "inputs": [],
      "name": "owner",
      "outputs": [
        {
          "internalType": "address",
          "name": "",
          "type": "address"
        }
      ],
      "stateMutability": "view",
      "type": "function"
    },
    {
      "inputs": [
        {
          "internalType": "uint256",
          "name": "assets",
          "type": "uint256"
        }
      ],
      "name": "previewDeposit",
      "outputs": [
        {
          "internalType": "uint256",
          "name": "",
          "type": "uint256"
        }
      ],
      "stateMutability": "view",
      "type": "function"
    },
    {
      "inputs": [
        {
          "internalType": "uint256",
          "name": "shares",
          "type": "uint256"
        }
      ],
      "name": "previewMint",
      "outputs": [
        {
          "internalType": "uint256",
          "name": "",
          "type": "uint256"
        }
      ],
      "stateMutability": "view",
      "type": "function"
    },
    {
      "inputs": [
        {
          "internalType": "uint256",
          "name": "shares",
          "type": "uint256"
        }
      ],
      "name": "previewRedeem",
      "outputs": [
        {
          "internalType": "uint256",
          "name": "",
          "type": "uint256"
        }
      ],
      "stateMutability": "view",
      "type": "function"
    },
    {
      "inputs": [
        {
          "internalType": "uint256",
          "name": "assets",
          "type": "uint256"
        }
      ],
      "name": "previewWithdraw",
      "outputs": [
        {
          "internalType": "uint256",
          "name": "",
          "type": "uint256"
        }
      ],
      "stateMutability": "view",
      "type": "function"
    },
    {
      "inputs": [
        {
          "internalType": "uint256",
          "name": "shares",
          "type": "uint256"
        },
        {
          "internalType": "address",
          "name": "receiver",
          "type": "address"
        },
        {
          "internalType": "address",
          "name": "owner",
          "type": "address"
        }
      ],
      "name": "redeem",
      "outputs": [
        {
          "internalType": "uint256",
          "name": "assets",
          "type": "uint256"
        }
      ],
      "stateMutability": "nonpayable",
      "type": "function"
    },
    {
      "inputs": [],
      "name": "renounceOwnership",
      "outputs": [],
      "stateMutability": "nonpayable",
      "type": "function"
    },
    {
      "inputs": [
        {
          "internalType": "bytes32",
          "name": "role",
          "type": "bytes32"
        },
        {
          "internalType": "address",
          "name": "callerConfirmation",
          "type": "address"
        }
      ],
      "name": "renounceRole",
      "outputs": [],
      "stateMutability": "nonpayable",
      "type": "function"
    },
    {
      "inputs": [
        {
          "internalType": "bytes32",
          "name": "role",
          "type": "bytes32"
        },
        {
          "internalType": "address",
          "name": "account",
          "type": "address"
        }
      ],
      "name": "revokeRole",
      "outputs": [],
      "stateMutability": "nonpayable",
      "type": "function"
    },
    {
      "inputs": [
        {
          "internalType": "uint32",
          "name": "time",
          "type": "uint32"
        }
      ],
      "name": "setSharesLockTime",
      "outputs": [],
      "stateMutability": "nonpayable",
      "type": "function"
    },
    {
      "inputs": [
        {
          "internalType": "bytes4",
          "name": "interfaceId",
          "type": "bytes4"
        }
      ],
      "name": "supportsInterface",
      "outputs": [
        {
          "internalType": "bool",
          "name": "",
          "type": "bool"
        }
      ],
      "stateMutability": "view",
      "type": "function"
    },
    {
      "inputs": [],
      "name": "symbol",
      "outputs": [
        {
          "internalType": "string",
          "name": "",
          "type": "string"
        }
      ],
      "stateMutability": "view",
      "type": "function"
    },
    {
      "inputs": [],
      "name": "totalAssets",
      "outputs": [
        {
          "internalType": "uint256",
          "name": "",
          "type": "uint256"
        }
      ],
      "stateMutability": "view",
      "type": "function"
    },
    {
      "inputs": [],
      "name": "totalSupply",
      "outputs": [
        {
          "internalType": "uint256",
          "name": "",
          "type": "uint256"
        }
      ],
      "stateMutability": "view",
      "type": "function"
    },
    {
      "inputs": [
        {
          "internalType": "address",
          "name": "to",
          "type": "address"
        },
        {
          "internalType": "uint256",
          "name": "value",
          "type": "uint256"
        }
      ],
      "name": "transfer",
      "outputs": [
        {
          "internalType": "bool",
          "name": "",
          "type": "bool"
        }
      ],
      "stateMutability": "nonpayable",
      "type": "function"
    },
    {
      "inputs": [
        {
          "internalType": "address",
          "name": "from",
          "type": "address"
        },
        {
          "internalType": "address",
          "name": "to",
          "type": "address"
        },
        {
          "internalType": "uint256",
          "name": "value",
          "type": "uint256"
        }
      ],
      "name": "transferFrom",
      "outputs": [
        {
          "internalType": "bool",
          "name": "",
          "type": "bool"
        }
      ],
      "stateMutability": "nonpayable",
      "type": "function"
    },
    {
      "inputs": [
        {
          "internalType": "address",
          "name": "newOwner",
          "type": "address"
        }
      ],
      "name": "transferOwnership",
      "outputs": [],
      "stateMutability": "nonpayable",
      "type": "function"
    },
    {
      "inputs": [],
      "name": "unlockDuration",
      "outputs": [
        {
          "internalType": "uint32",
          "name": "",
          "type": "uint32"
        }
      ],
      "stateMutability": "view",
      "type": "function"
    },
    {
      "inputs": [
        {
          "internalType": "address",
          "name": "account",
          "type": "address"
        }
      ],
      "name": "unlockedOf",
      "outputs": [
        {
          "internalType": "uint256",
          "name": "",
          "type": "uint256"
        }
      ],
      "stateMutability": "view",
      "type": "function"
    },
    {
      "inputs": [
        {
          "components": [
            {
              "internalType": "address",
              "name": "receiver",
              "type": "address"
            },
            {
              "internalType": "address",
              "name": "token",
              "type": "address"
            },
            {
              "internalType": "uint256",
              "name": "feePercentage",
              "type": "uint256"
            }
          ],
          "internalType": "struct FeeConfiguration.FeeConfig",
          "name": "_feeConfig",
          "type": "tuple"
        }
      ],
      "name": "updateFeeConfig",
      "outputs": [],
      "stateMutability": "nonpayable",
      "type": "function"
    },
    {
      "inputs": [
        {
          "internalType": "uint256",
          "name": "assets",
          "type": "uint256"
        },
        {
          "internalType": "address",
          "name": "receiver",
          "type": "address"
        },
        {
          "internalType": "address",
          "name": "owner",
          "type": "address"
        }
      ],
      "name": "withdraw",
      "outputs": [
        {
          "internalType": "uint256",
          "name": "shares",
          "type": "uint256"
        }
      ],
      "stateMutability": "nonpayable",
      "type": "function"
    }
  ],
  "bytecode": "0x60c06040526040516200352f3803806200352f83398101604081905262000026916200058e565b33888888600362000038838262000740565b50600462000047828262000740565b5050506000806200005e836200012660201b60201c565b91509150816200007057601262000072565b805b60ff1660a05250506001600160a01b039081166080528116620000b057604051631e4fbdf760e01b8152600060048201526024015b60405180910390fd5b620000bb816200020b565b506001600a557fb5311d7a8ac81ee4993288bc4c98b414fbe1c746351a804bd1a32db330eae700620000ef8686866200025d565b80546001600160401b03191664010000000063ffffffff9485160263ffffffff191617919092161790555062000844945050505050565b60408051600481526024810182526020810180516001600160e01b031663313ce56760e01b17905290516000918291829182916001600160a01b038716916200016f916200080c565b600060405180830381855afa9150503d8060008114620001ac576040519150601f19603f3d011682016040523d82523d6000602084013e620001b1565b606091505b5091509150818015620001c657506020815110155b15620001fe57600081806020019051810190620001e491906200082a565b905060ff8111620001fc576001969095509350505050565b505b5060009485945092505050565b600980546001600160a01b038381166001600160a01b0319831681179093556040519116919082907f8be0079c531659141344cd1fd0a4f28419497f9722a3daafe3b4186f6b6457e090600090a35050565b82516020840151604085015162000276929190620002e3565b62000283600033620003a3565b50620002b07f477fc23fb51bb5d5aa814872a393b0e4f35d0916c7503c0fd96584681070d41083620003a3565b50620002dd7f74e458455daa935f28c556b43e0cc4ad001a8a090f5feee376681e97d4618f4682620003a3565b50505050565b6127108110620003285760405162461bcd60e51b815260206004820152600f60248201526e46433a20496e76616c69642066656560881b6044820152606401620000a7565b600680546001600160a01b038581166001600160a01b0319928316811790935560078054918616919092168117909155600883905560408051928352602083019190915281018290527febd34b2df88ea5c9f67c04b13b08e5e63c2d17e269aab73b866fe47a8736a2649060600160405180910390a1505050565b60008281526005602090815260408083206001600160a01b038516845290915281205460ff166200044c5760008381526005602090815260408083206001600160a01b03861684529091529020805460ff19166001179055620004033390565b6001600160a01b0316826001600160a01b0316847f2f8788117e7eff1d82e926ec794901d17c78024a50270940304540a733656f0d60405160405180910390a450600162000450565b5060005b92915050565b6001600160a01b03811681146200046c57600080fd5b50565b634e487b7160e01b600052604160045260246000fd5b604051606081016001600160401b0381118282101715620004aa57620004aa6200046f565b60405290565b60005b83811015620004cd578181015183820152602001620004b3565b50506000910152565b600082601f830112620004e857600080fd5b81516001600160401b03808211156200050557620005056200046f565b604051601f8301601f19908116603f011681019082821181831017156200053057620005306200046f565b816040528381528660208588010111156200054a57600080fd5b6200055d846020830160208901620004b0565b9695505050505050565b8051620005748162000456565b919050565b805163ffffffff811681146200057457600080fd5b600080600080600080600080888a03610140811215620005ad57600080fd5b8951620005ba8162000456565b60208b01519099506001600160401b0380821115620005d857600080fd5b620005e68d838e01620004d6565b995060408c0151915080821115620005fd57600080fd5b506200060c8c828d01620004d6565b9750506060605f19820112156200062257600080fd5b506200062d62000485565b60608a01516200063d8162000456565b815260808a01516200064f8162000456565b602082015260a08a0151604082015294506200066e60c08a0162000567565b93506200067e60e08a0162000567565b92506200068f6101008a0162000579565b9150620006a06101208a0162000579565b90509295985092959890939650565b600181811c90821680620006c457607f821691505b602082108103620006e557634e487b7160e01b600052602260045260246000fd5b50919050565b601f8211156200073b576000816000526020600020601f850160051c81016020861015620007165750805b601f850160051c820191505b81811015620007375782815560010162000722565b5050505b505050565b81516001600160401b038111156200075c576200075c6200046f565b62000774816200076d8454620006af565b84620006eb565b602080601f831160018114620007ac5760008415620007935750858301515b600019600386901b1c1916600185901b17855562000737565b600085815260208120601f198616915b82811015620007dd57888601518255948401946001909101908401620007bc565b5085821015620007fc5787850151600019600388901b60f8161c191681555b5050505050600190811b01905550565b6000825162000820818460208701620004b0565b9190910192915050565b6000602082840312156200083d57600080fd5b5051919050565b60805160a051612ca9620008866000396000610aef01526000818161051f0152818161090c01528181610fa001528181611a560152611db70152612ca96000f3fe60806040526004361061029e5760003560e01c80638a1fcd6011610165578063ba087652116100cc578063ce96cb7711610085578063ce96cb7714610832578063d547741f14610852578063d905777e14610872578063dd62ed3e14610892578063ef8b30f7146107bd578063efa6f425146108b2578063f2fde38b146108d257600080fd5b8063ba0876521461077b578063c4f59f9b1461079b578063c63d75b61461054c578063c6e6f592146107bd578063caad546e146107dd578063cd26c0e6146107fd57600080fd5b8063a217fddf1161011e578063a217fddf146106b2578063a5f1e282146106c7578063a9059cbb146106e7578063b3d7f6b914610707578063b460af9414610727578063b4f6d6131461074757600080fd5b80638a1fcd60146106175780638da5cb5b1461062c57806391d148541461064a57806394bf804d1461066a57806395d89b411461068a5780639feb8f501461069f57600080fd5b80632f2ff15d116102095780634cdad506116101c25780634cdad506146103515780635ab764ed1461056c5780636e553f651461058c5780636f26a436146105ac57806370a08231146105cc578063715018a61461060257600080fd5b80632f2ff15d1461047a578063313ce5671461049c578063362a3fad146104c357806336568abe146104f057806338d52e0f14610510578063402d267d1461054c57600080fd5b80630a28a4771161025b5780630a28a4771461039157806313d033c0146103b157806318160ddd146103db5780631e5eb1d0146103f057806323b872dd1461042a578063248a9ca31461044a57600080fd5b806301e1d114146102a357806301ffc9a7146102cb57806305fb2a51146102fb57806306fdde031461032f57806307a2d13a14610351578063095ea7b314610371575b600080fd5b3480156102af57600080fd5b506102b86108f2565b6040519081526020015b60405180910390f35b3480156102d757600080fd5b506102eb6102e636600461263b565b610987565b60405190151581526020016102c2565b34801561030757600080fd5b506102b87f74e458455daa935f28c556b43e0cc4ad001a8a090f5feee376681e97d4618f4681565b34801561033b57600080fd5b506103446109b2565b6040516102c29190612689565b34801561035d57600080fd5b506102b861036c3660046126bc565b610a44565b34801561037d57600080fd5b506102eb61038c3660046126f1565b610a51565b34801561039d57600080fd5b506102b86103ac3660046126bc565b610a69565b3480156103bd57600080fd5b506103c6610a76565b60405163ffffffff90911681526020016102c2565b3480156103e757600080fd5b506002546102b8565b3480156103fc57600080fd5b5060065460075460085461041b926001600160a01b0390811692169083565b6040516102c29392919061271b565b34801561043657600080fd5b506102eb61044536600461273f565b610a96565b34801561045657600080fd5b506102b86104653660046126bc565b60009081526005602052604090206001015490565b34801561048657600080fd5b5061049a61049536600461277b565b610abc565b005b3480156104a857600080fd5b506104b1610ae7565b60405160ff90911681526020016102c2565b3480156104cf57600080fd5b506104e36104de3660046127a7565b610b13565b6040516102c291906127c2565b3480156104fc57600080fd5b5061049a61050b36600461277b565b610bd7565b34801561051c57600080fd5b507f00000000000000000000000000000000000000000000000000000000000000005b6040516102c29190612806565b34801561055857600080fd5b506102b86105673660046127a7565b610c0f565b34801561057857600080fd5b506102b861058736600461281a565b610c16565b34801561059857600080fd5b506102b86105a736600461277b565b610cf7565b3480156105b857600080fd5b5061049a6105c7366004612844565b610daf565b3480156105d857600080fd5b506102b86105e73660046127a7565b6001600160a01b031660009081526020819052604090205490565b34801561060e57600080fd5b5061049a610e10565b34801561062357600080fd5b506103c6610e24565b34801561063857600080fd5b506009546001600160a01b031661053f565b34801561065657600080fd5b506102eb61066536600461277b565b610e3c565b34801561067657600080fd5b506102b861068536600461277b565b610e67565b34801561069657600080fd5b50610344610f0b565b61049a6106ad3660046126f1565b610f1a565b3480156106be57600080fd5b506102b8600081565b3480156106d357600080fd5b506102b86106e23660046127a7565b61126a565b3480156106f357600080fd5b506102eb6107023660046126f1565b6112ba565b34801561071357600080fd5b506102b86107223660046126bc565b6112c8565b34801561073357600080fd5b506102b861074236600461286a565b6112d5565b34801561075357600080fd5b506102b87f477fc23fb51bb5d5aa814872a393b0e4f35d0916c7503c0fd96584681070d41081565b34801561078757600080fd5b506102b861079636600461286a565b611386565b3480156107a757600080fd5b506107b0611457565b6040516102c291906128a6565b3480156107c957600080fd5b506102b86107d83660046126bc565b6114c3565b3480156107e957600080fd5b506102b86107f83660046127a7565b6114d0565b34801561080957600080fd5b5061081d61081836600461277b565b6114db565b604080519283526020830191909152016102c2565b34801561083e57600080fd5b506102b861084d3660046127a7565b61162d565b34801561085e57600080fd5b5061049a61086d36600461277b565b611642565b34801561087e57600080fd5b506102b861088d3660046127a7565b611667565b34801561089e57600080fd5b506102b86108ad36600461281a565b611672565b3480156108be57600080fd5b5061049a6108cd3660046128fd565b61169d565b3480156108de57600080fd5b5061049a6108ed3660046127a7565b6116e2565b6040516370a0823160e01b81526000906001600160a01b037f000000000000000000000000000000000000000000000000000000000000000016906370a0823190610941903090600401612806565b602060405180830381865afa15801561095e573d6000803e3d6000fd5b505050506040513d601f19601f820116820180604052508101906109829190612973565b905090565b60006001600160e01b0319821663043eff2d60e51b14806109ac57506109ac82611720565b92915050565b6060600380546109c19061298c565b80601f01602080910402602001604051908101604052809291908181526020018280546109ed9061298c565b8015610a3a5780601f10610a0f57610100808354040283529160200191610a3a565b820191906000526020600020905b815481529060010190602001808311610a1d57829003601f168201915b5050505050905090565b60006109ac826000611755565b600033610a5f81858561178f565b5060019392505050565b60006109ac82600161179c565b600080610a816117cc565b54640100000000900463ffffffff1692915050565b600033610aa48582856117f0565b610aaf85858561183d565b60019150505b9392505050565b600082815260056020526040902060010154610ad78161189c565b610ae183836118a6565b50505050565b6000610982817f00000000000000000000000000000000000000000000000000000000000000006129dc565b60606000610b1f6117cc565b60018101549091508067ffffffffffffffff811115610b4057610b406128e7565b604051908082528060200260200182016040528015610b69578160200160208202803683370190505b50925060005b81811015610bcf57610baa85846001018381548110610b9057610b906129f5565b6000918252602090912001546001600160a01b0316610c16565b848281518110610bbc57610bbc6129f5565b6020908102919091010152600101610b6f565b505050919050565b6001600160a01b0381163314610c005760405163334bd91960e11b815260040160405180910390fd5b610c0a828261193a565b505050565b5060001990565b600080610c216117cc565b6001600160a01b03808516600090815260038301602090815260408083208054948a168452600286019092528220805494955090939091819003610c6d576000955050505050506109ac565b6001600160a01b038716600090815260048301602052604081205490610c938286612a0b565b9050670de0b6b3a7640000610ca88483612a1e565b610cb29190612a4b565b975087600003610cc157600197505b60085415610cea576000610cda896006600201546119a7565b9050610ce6818a612a0b565b9850505b5050505050505092915050565b6000610d01611a27565b6001600160a01b038216610d305760405162461bcd60e51b8152600401610d2790612a5f565b60405180910390fd5b6000610d3b83610c0f565b905080841115610d6457828482604051633c8097d960e11b8152600401610d2793929190612aa4565b610d6d846114c3565b915081600003610d8f5760405162461bcd60e51b8152600401610d2790612ac5565b610d9b33848685611a51565b610da484611ae3565b506109ac6001600a55565b610db7611c1e565b6000610dc16117cc565b805463ffffffff191663ffffffff841690811782556040519081529091507f30131881e801ec5c72cbec6e47ad340b66e5165fa10332f449a92f188a8f27479060200160405180910390a15050565b610e18611c1e565b610e226000611c4b565b565b600080610e2f6117cc565b5463ffffffff1692915050565b60009182526005602090815260408084206001600160a01b0393909316845291905290205460ff1690565b6000610e71611a27565b6001600160a01b038216610e975760405162461bcd60e51b8152600401610d2790612a5f565b6000610ea283610c0f565b905080841115610ecb5782848260405163284ff66760e01b8152600401610d2793929190612aa4565b610ed4846112c8565b915081600003610ef65760405162461bcd60e51b8152600401610d2790612ac5565b610f0233848487611a51565b610da482611ae3565b6060600480546109c19061298c565b7f477fc23fb51bb5d5aa814872a393b0e4f35d0916c7503c0fd96584681070d410610f448161189c565b81600003610f9e5760405162461bcd60e51b815260206004820152602160248201527f4865646572615661756c743a20416d6f756e742063616e2774206265207a65726044820152606f60f81b6064820152608401610d27565b7f00000000000000000000000000000000000000000000000000000000000000006001600160a01b0316836001600160a01b031614158015610fe957506001600160a01b0383163014155b6110535760405162461bcd60e51b815260206004820152603560248201527f4865646572615661756c743a2052657761726420616e64205374616b696e6720604482015274746f6b656e732063616e6e6f742062652073616d6560581b6064820152608401610d27565b6001600160a01b0383166110b35760405162461bcd60e51b815260206004820152602160248201527f4865646572615661756c743a20496e76616c69642072657761726420746f6b656044820152603760f91b6064820152608401610d27565b6110bb6108f2565b60000361110a5760405162461bcd60e51b815260206004820181905260248201527f4865646572615661756c743a204e6f20746f6b656e207374616b6564207965746044820152606401610d27565b60006111146117cc565b6001810154909150600a0361113c57604051637561e0ab60e01b815260040160405180910390fd5b600061115a670de0b6b3a76400006111526108f2565b869190611c9d565b6001600160a01b0386166000908152600384016020526040902060018101549192509060ff166111da57600183810180548083018255600091825260209091200180546001600160a01b0319166001600160a01b038916908117909155828201805460ff19169092179091558282556111d590333088611cbb565b61121f565b6001600160a01b038616600090815260038401602052604081208054849290611204908490612af7565b9091555061121f90506001600160a01b038716333088611cbb565b856001600160a01b03167fac24935fd910bc682b5ccb1a07b718cadf8cf2f6d1404c4f3ddc3662dae40e298660405161125a91815260200190565b60405180910390a2505050505050565b6000806112756117cc565b9050611280836114d0565b6001600160a01b038416600090815260028084016020526040909120908101546001909101546112b09190612a0b565b610ab59190612a0b565b600033610a5f81858561183d565b60006109ac826001611755565b60006112df611a27565b6001600160a01b0383166113055760405162461bcd60e51b8152600401610d2790612a5f565b60006113108361162d565b90508085111561133957828582604051633fa733bb60e21b8152600401610d2793929190612aa4565b6113438585611d15565b61134c85610a69565b91508160000361136e5760405162461bcd60e51b8152600401610d2790612ac5565b61137b3385858886611d84565b50610ab56001600a55565b6000611390611a27565b6001600160a01b0383166113b65760405162461bcd60e51b8152600401610d2790612a5f565b60006113c183611667565b9050808511156113ea57828582604051632e52afbb60e21b8152600401610d2793929190612aa4565b6113f48285611d15565b6113fd85610a44565b91508160000361144a5760405162461bcd60e51b81526020600482015260186024820152774865646572615661756c743a205a65726f2061737365747360401b6044820152606401610d27565b61137b3385858589611d84565b606060006114636117cc565b600181018054604080516020808402820181019092528281529394508301828280156114b857602002820191906000526020600020905b81546001600160a01b0316815260019091019060200180831161149a575b505050505091505090565b60006109ac82600061179c565b60006109ac82611e44565b60008060006114e86117cc565b6001810154600754919250906001600160a01b031660008083810361155b5760405162461bcd60e51b815260206004820152602360248201527f4865646572615661756c743a204e6f2072657761726420746f6b656e732065786044820152621a5cdd60ea1b6064820152608401610d27565b885b8481101561161d5785600101818154811061157a5761157a6129f5565b6000918252602090912001546001600160a01b0316925061159b3384610c16565b6001600160a01b03808516600081815260038a01602090815260408083205433845260028d0183528184209484526004909401909152902055909250841615611601576115fc896115eb84611f25565b6001600160a01b038616919061202f565b611615565b6116156001600160a01b0384168a8461202f565b60010161155d565b5097989297509195505050505050565b60006109ac61163b836114d0565b6000611755565b60008281526005602052604090206001015461165d8161189c565b610ae1838361193a565b60006109ac826114d0565b6001600160a01b03918216600090815260016020908152604080832093909416825291909152205490565b7f74e458455daa935f28c556b43e0cc4ad001a8a090f5feee376681e97d4618f466116c78161189c565b6116de826000015183602001518460400151612060565b5050565b6116ea611c1e565b6001600160a01b038116611714576000604051631e4fbdf760e01b8152600401610d279190612806565b61171d81611c4b565b50565b60006001600160e01b03198216637965db0b60e01b14806109ac57506301ffc9a760e01b6001600160e01b03198316146109ac565b6000610ab56117626108f2565b61176d906001612af7565b6117796000600a612bee565b6002546117869190612af7565b8591908561211e565b610c0a838383600161216f565b6000610ab56117ac82600a612bee565b6002546117b99190612af7565b6117c16108f2565b611786906001612af7565b7fb5311d7a8ac81ee4993288bc4c98b414fbe1c746351a804bd1a32db330eae70090565b60006117fc8484611672565b90506000198114610ae1578181101561182e57828183604051637dc7a0d960e11b8152600401610d2793929190612aa4565b610ae18484848403600061216f565b6001600160a01b038316611867576000604051634b637e8f60e11b8152600401610d279190612806565b6001600160a01b03821661189157600060405163ec442f0560e01b8152600401610d279190612806565b610c0a838383612236565b61171d813361234d565b60006118b28383610e3c565b6119325760008381526005602090815260408083206001600160a01b03861684529091529020805460ff191660011790556118ea3390565b6001600160a01b0316826001600160a01b0316847f2f8788117e7eff1d82e926ec794901d17c78024a50270940304540a733656f0d60405160405180910390a45060016109ac565b5060006109ac565b60006119468383610e3c565b156119325760008381526005602090815260408083206001600160a01b0386168085529252808320805460ff1916905551339286917ff6391f5c32d9c69d2a47ea670b442974b53935d1edc7fd64eb21e047a839171b9190a45060016109ac565b60006127106119b68385612a1e565b1015611a105760405162461bcd60e51b8152602060048201526024808201527f46433a20546f6f20736d616c6c20616d6f756e7420746f20636f6e73696465726044820152632066656560e01b6064820152608401610d27565b612710611a1d8385612a1e565b610ab59190612a4b565b6002600a5403611a4a57604051633ee5aeb560e01b815260040160405180910390fd5b6002600a55565b611a7d7f0000000000000000000000000000000000000000000000000000000000000000853085611cbb565b611a878382612386565b826001600160a01b0316846001600160a01b03167fdcbc1c05240f31ff3ad067ef1ee35ce4997762752e3a095284754544f4c709d78484604051611ad5929190918252602082015260400190565b60405180910390a350505050565b6000611aed6117cc565b33600090815260028201602052604090206005015490915060ff16611bb357600181015460005b81811015611b7c576000836001018281548110611b3357611b336129f5565b60009182526020808320909101546001600160a01b0316808352600387018252604080842054338552600289018452818520928552600490920190925291205550600101611b14565b505033600090815260029190910160205260409020818155600180820192909255426003820155600501805460ff19169091179055565b33600090815260028201602052604081208054849290611bd4908490612af7565b909155505033600090815260028201602052604081206001018054849290611bfd908490612af7565b90915550503360009081526002820160205260409020426003909101555050565b6009546001600160a01b03163314610e22573360405163118cdaa760e01b8152600401610d279190612806565b600980546001600160a01b038381166001600160a01b0319831681179093556040519116919082907f8be0079c531659141344cd1fd0a4f28419497f9722a3daafe3b4186f6b6457e090600090a35050565b6000826000190484118302158202611cb457600080fd5b5091020490565b610ae184856001600160a01b03166323b872dd868686604051602401611ce39392919061271b565b604051602081830303815290604052915060e01b6020820180516001600160e01b0383818316178352505050506123bc565b611d206000826114db565b50506000611d2c6117cc565b336000908152600282016020526040812080549293508592909190611d52908490612a0b565b9091555050336000908152600280830160205260408220018054859290611d7a908490612af7565b9091555050505050565b826001600160a01b0316856001600160a01b031614611da857611da88386836117f0565b611db28382612416565b611ddd7f0000000000000000000000000000000000000000000000000000000000000000858461202f565b826001600160a01b0316846001600160a01b0316866001600160a01b03167ffbde797d201c681b91056529119e0b02407c7bb96a4a2c75c01fc9667232c8db8585604051611e35929190918252602082015260400190565b60405180910390a45050505050565b600080611e4f6117cc565b6001600160a01b03841660009081526002808301602052604082209081015460018201549394509092611e829190612a0b565b83546003840154919250600091611ea791640100000000900463ffffffff1690612af7565b905080421080611eb5575081155b15611ec65750600095945050505050565b8354600090611edb9063ffffffff1683612af7565b9050804210611eec57829550611f1b565b6000611ef88342612a0b565b865490915063ffffffff16611f0d8286612a1e565b611f179190612a4b565b9650505b5050505050919050565b6007546008546000916001600160a01b0316908290611f459085906119a7565b905080826001600160a01b03166370a08231306040518263ffffffff1660e01b8152600401611f749190612806565b602060405180830381865afa158015611f91573d6000803e3d6000fd5b505050506040513d601f19601f82011682018060405250810190611fb59190612973565b10156120035760405162461bcd60e51b815260206004820152601e60248201527f46433a20496e73756666696369656e7420746f6b656e2062616c616e636500006044820152606401610d27565b60065461201d906001600160a01b0384811691168361202f565b6120278185612a0b565b949350505050565b6040516001600160a01b03838116602483015260448201839052610c0a91859182169063a9059cbb90606401611ce3565b61271081106120a35760405162461bcd60e51b815260206004820152600f60248201526e46433a20496e76616c69642066656560881b6044820152606401610d27565b600680546001600160a01b038581166001600160a01b0319928316811790935560078054918616919092168117909155600883905560408051928352602083019190915281018290527febd34b2df88ea5c9f67c04b13b08e5e63c2d17e269aab73b866fe47a8736a2649060600160405180910390a1505050565b60008061212c86868661244c565b905061213783612510565b801561215357506000848061214e5761214e612a35565b868809115b1561216657612163600182612af7565b90505b95945050505050565b6001600160a01b03841661219957600060405163e602df0560e01b8152600401610d279190612806565b6001600160a01b0383166121c3576000604051634a1406b160e11b8152600401610d279190612806565b6001600160a01b0380851660009081526001602090815260408083209387168352929052208290558015610ae157826001600160a01b0316846001600160a01b03167f8c5be1e5ebec7d5bd14f71427d1e84f3dd0314c0f7b2291e5b200ac8c7c3b92584604051611ad591815260200190565b6001600160a01b0383166122615780600260008282546122569190612af7565b909155506122c09050565b6001600160a01b038316600090815260208190526040902054818110156122a15783818360405163391434e360e21b8152600401610d2793929190612aa4565b6001600160a01b03841660009081526020819052604090209082900390555b6001600160a01b0382166122dc576002805482900390556122fb565b6001600160a01b03821660009081526020819052604090208054820190555b816001600160a01b0316836001600160a01b03167fddf252ad1be2c89b69c2b068fc378daa952ba7f163c4a11628f55a4df523b3ef8360405161234091815260200190565b60405180910390a3505050565b6123578282610e3c565b6116de5760405163e2517d3f60e01b81526001600160a01b038216600482015260248101839052604401610d27565b6001600160a01b0382166123b057600060405163ec442f0560e01b8152600401610d279190612806565b6116de60008383612236565b60006123d16001600160a01b0384168361253d565b905080516000141580156123f65750808060200190518101906123f49190612bfd565b155b15610c0a5782604051635274afe760e01b8152600401610d279190612806565b6001600160a01b038216612440576000604051634b637e8f60e11b8152600401610d279190612806565b6116de82600083612236565b60008383028160001985870982811083820303915050806000036124835783828161247957612479612a35565b0492505050610ab5565b8084116124a35760405163227bc15360e01b815260040160405180910390fd5b6000848688096000868103871696879004966002600389028118808a02820302808a02820302808a02820302808a02820302808a02820302808a02909103029181900381900460010186841190950394909402919094039290920491909117919091029150509392505050565b6000600282600381111561252657612526612c1f565b6125309190612c35565b60ff166001149050919050565b6060610ab58383600084600080856001600160a01b031684866040516125639190612c57565b60006040518083038185875af1925050503d80600081146125a0576040519150601f19603f3d011682016040523d82523d6000602084013e6125a5565b606091505b50915091506125b58683836125bf565b9695505050505050565b6060826125d4576125cf82612612565b610ab5565b81511580156125eb57506001600160a01b0384163b155b1561260b5783604051639996b31560e01b8152600401610d279190612806565b5080610ab5565b8051156126225780518082602001fd5b604051630a12f52160e11b815260040160405180910390fd5b60006020828403121561264d57600080fd5b81356001600160e01b031981168114610ab557600080fd5b60005b83811015612680578181015183820152602001612668565b50506000910152565b60208152600082518060208401526126a8816040850160208701612665565b601f01601f19169190910160400192915050565b6000602082840312156126ce57600080fd5b5035919050565b80356001600160a01b03811681146126ec57600080fd5b919050565b6000806040838503121561270457600080fd5b61270d836126d5565b946020939093013593505050565b6001600160a01b039384168152919092166020820152604081019190915260600190565b60008060006060848603121561275457600080fd5b61275d846126d5565b925061276b602085016126d5565b9150604084013590509250925092565b6000806040838503121561278e57600080fd5b8235915061279e602084016126d5565b90509250929050565b6000602082840312156127b957600080fd5b610ab5826126d5565b6020808252825182820181905260009190848201906040850190845b818110156127fa578351835292840192918401916001016127de565b50909695505050505050565b6001600160a01b0391909116815260200190565b6000806040838503121561282d57600080fd5b612836836126d5565b915061279e602084016126d5565b60006020828403121561285657600080fd5b813563ffffffff81168114610ab557600080fd5b60008060006060848603121561287f57600080fd5b8335925061288f602085016126d5565b915061289d604085016126d5565b90509250925092565b6020808252825182820181905260009190848201906040850190845b818110156127fa5783516001600160a01b0316835292840192918401916001016128c2565b634e487b7160e01b600052604160045260246000fd5b60006060828403121561290f57600080fd5b6040516060810181811067ffffffffffffffff8211171561294057634e487b7160e01b600052604160045260246000fd5b60405261294c836126d5565b815261295a602084016126d5565b6020820152604083013560408201528091505092915050565b60006020828403121561298557600080fd5b5051919050565b600181811c908216806129a057607f821691505b6020821081036129c057634e487b7160e01b600052602260045260246000fd5b50919050565b634e487b7160e01b600052601160045260246000fd5b60ff81811683821601908111156109ac576109ac6129c6565b634e487b7160e01b600052603260045260246000fd5b818103818111156109ac576109ac6129c6565b80820281158282048414176109ac576109ac6129c6565b634e487b7160e01b600052601260045260246000fd5b600082612a5a57612a5a612a35565b500490565b60208082526025908201527f4865646572615661756c743a20496e76616c6964207265636569766572206164604082015264647265737360d81b606082015260800190565b6001600160a01b039390931683526020830191909152604082015260600190565b6020808252601890820152774865646572615661756c743a205a65726f2073686172657360401b604082015260600190565b808201808211156109ac576109ac6129c6565b600181815b80851115612b45578160001904821115612b2b57612b2b6129c6565b80851615612b3857918102915b93841c9390800290612b0f565b509250929050565b600082612b5c575060016109ac565b81612b69575060006109ac565b8160018114612b7f5760028114612b8957612ba5565b60019150506109ac565b60ff841115612b9a57612b9a6129c6565b50506001821b6109ac565b5060208310610133831016604e8410600b8410161715612bc8575081810a6109ac565b612bd28383612b0a565b8060001904821115612be657612be66129c6565b029392505050565b6000610ab560ff841683612b4d565b600060208284031215612c0f57600080fd5b81518015158114610ab557600080fd5b634e487b7160e01b600052602160045260246000fd5b600060ff831680612c4857612c48612a35565b8060ff84160691505092915050565b60008251612c69818460208701612665565b919091019291505056fea26469706673582212203e613b3725620b000bd56c29bbdf56bd592f1f0c13be7dcaafe3333fe2bb277e64736f6c63430008180033",
  "linkReferences": {},
  "deployedLinkReferences": {}
}