{
  "_format": "hh-sol-artifact-1",
  "contractName": "BasicVault",
  "sourceName": "contracts/erc4626/BasicVault.sol",
  "abi": [
    {
      "inputs": [
        {
          "internalType": "contract IERC20",
          "name": "underlying_",
          "type": "address"
        },
        {
          "internalType": "string",
          "name": "name_",
          "type": "string"
        },
        {
          "internalType": "string",
          "name": "symbol_",
          "type": "string"
        },
        {
          "components": [
            {
              "internalType": "address",
              "name": "receiver",
              "type": "address"
            },
            {
              "internalType": "address",
              "name": "token",
              "type": "address"
            },
            {
              "internalType": "uint256",
              "name": "feePercentage",
              "type": "uint256"
            }
          ],
          "internalType": "struct FeeConfiguration.FeeConfig",
          "name": "feeConfig_",
          "type": "tuple"
        },
        {
          "internalType": "address",
          "name": "vaultRewardController_",
          "type": "address"
        },
        {
          "internalType": "address",
          "name": "feeConfigController_",
          "type": "address"
        },
        {
          "internalType": "uint32",
          "name": "cliff_",
          "type": "uint32"
        },
        {
          "internalType": "uint32",
          "name": "unlockDuration_",
          "type": "uint32"
        }
      ],
      "stateMutability": "payable",
      "type": "constructor"
    },
    {
      "inputs": [],
      "name": "AccessControlBadConfirmation",
      "type": "error"
    },
    {
      "inputs": [
        {
          "internalType": "address",
          "name": "account",
          "type": "address"
        },
        {
          "internalType": "bytes32",
          "name": "neededRole",
          "type": "bytes32"
        }
      ],
      "name": "AccessControlUnauthorizedAccount",
      "type": "error"
    },
    {
      "inputs": [
        {
          "internalType": "address",
          "name": "target",
          "type": "address"
        }
      ],
      "name": "AddressEmptyCode",
      "type": "error"
    },
    {
      "inputs": [
        {
          "internalType": "address",
          "name": "account",
          "type": "address"
        }
      ],
      "name": "AddressInsufficientBalance",
      "type": "error"
    },
    {
      "inputs": [
        {
          "internalType": "address",
          "name": "spender",
          "type": "address"
        },
        {
          "internalType": "uint256",
          "name": "allowance",
          "type": "uint256"
        },
        {
          "internalType": "uint256",
          "name": "needed",
          "type": "uint256"
        }
      ],
      "name": "ERC20InsufficientAllowance",
      "type": "error"
    },
    {
      "inputs": [
        {
          "internalType": "address",
          "name": "sender",
          "type": "address"
        },
        {
          "internalType": "uint256",
          "name": "balance",
          "type": "uint256"
        },
        {
          "internalType": "uint256",
          "name": "needed",
          "type": "uint256"
        }
      ],
      "name": "ERC20InsufficientBalance",
      "type": "error"
    },
    {
      "inputs": [
        {
          "internalType": "address",
          "name": "approver",
          "type": "address"
        }
      ],
      "name": "ERC20InvalidApprover",
      "type": "error"
    },
    {
      "inputs": [
        {
          "internalType": "address",
          "name": "receiver",
          "type": "address"
        }
      ],
      "name": "ERC20InvalidReceiver",
      "type": "error"
    },
    {
      "inputs": [
        {
          "internalType": "address",
          "name": "sender",
          "type": "address"
        }
      ],
      "name": "ERC20InvalidSender",
      "type": "error"
    },
    {
      "inputs": [
        {
          "internalType": "address",
          "name": "spender",
          "type": "address"
        }
      ],
      "name": "ERC20InvalidSpender",
      "type": "error"
    },
    {
      "inputs": [
        {
          "internalType": "address",
          "name": "receiver",
          "type": "address"
        },
        {
          "internalType": "uint256",
          "name": "assets",
          "type": "uint256"
        },
        {
          "internalType": "uint256",
          "name": "max",
          "type": "uint256"
        }
      ],
      "name": "ERC4626ExceededMaxDeposit",
      "type": "error"
    },
    {
      "inputs": [
        {
          "internalType": "address",
          "name": "receiver",
          "type": "address"
        },
        {
          "internalType": "uint256",
          "name": "shares",
          "type": "uint256"
        },
        {
          "internalType": "uint256",
          "name": "max",
          "type": "uint256"
        }
      ],
      "name": "ERC4626ExceededMaxMint",
      "type": "error"
    },
    {
      "inputs": [
        {
          "internalType": "address",
          "name": "owner",
          "type": "address"
        },
        {
          "internalType": "uint256",
          "name": "shares",
          "type": "uint256"
        },
        {
          "internalType": "uint256",
          "name": "max",
          "type": "uint256"
        }
      ],
      "name": "ERC4626ExceededMaxRedeem",
      "type": "error"
    },
    {
      "inputs": [
        {
          "internalType": "address",
          "name": "owner",
          "type": "address"
        },
        {
          "internalType": "uint256",
          "name": "assets",
          "type": "uint256"
        },
        {
          "internalType": "uint256",
          "name": "max",
          "type": "uint256"
        }
      ],
      "name": "ERC4626ExceededMaxWithdraw",
      "type": "error"
    },
    {
      "inputs": [],
      "name": "FailedInnerCall",
      "type": "error"
    },
    {
      "inputs": [],
      "name": "MathOverflowedMulDiv",
      "type": "error"
    },
    {
      "inputs": [],
      "name": "MaxRewardTokensAmount",
      "type": "error"
    },
    {
      "inputs": [
        {
          "internalType": "address",
          "name": "owner",
          "type": "address"
        }
      ],
      "name": "OwnableInvalidOwner",
      "type": "error"
    },
    {
      "inputs": [
        {
          "internalType": "address",
          "name": "account",
          "type": "address"
        }
      ],
      "name": "OwnableUnauthorizedAccount",
      "type": "error"
    },
    {
      "inputs": [],
      "name": "ReentrancyGuardReentrantCall",
      "type": "error"
    },
    {
      "inputs": [
        {
          "internalType": "address",
          "name": "token",
          "type": "address"
        }
      ],
      "name": "SafeERC20FailedOperation",
      "type": "error"
    },
    {
      "anonymous": false,
      "inputs": [
        {
          "indexed": true,
          "internalType": "address",
          "name": "owner",
          "type": "address"
        },
        {
          "indexed": true,
          "internalType": "address",
          "name": "spender",
          "type": "address"
        },
        {
          "indexed": false,
          "internalType": "uint256",
          "name": "value",
          "type": "uint256"
        }
      ],
      "name": "Approval",
      "type": "event"
    },
    {
      "anonymous": false,
      "inputs": [
        {
          "indexed": true,
          "internalType": "address",
          "name": "sender",
          "type": "address"
        },
        {
          "indexed": true,
          "internalType": "address",
          "name": "owner",
          "type": "address"
        },
        {
          "indexed": false,
          "internalType": "uint256",
          "name": "assets",
          "type": "uint256"
        },
        {
          "indexed": false,
          "internalType": "uint256",
          "name": "shares",
          "type": "uint256"
        }
      ],
      "name": "Deposit",
      "type": "event"
    },
    {
      "anonymous": false,
      "inputs": [
        {
          "components": [
            {
              "internalType": "address",
              "name": "receiver",
              "type": "address"
            },
            {
              "internalType": "address",
              "name": "token",
              "type": "address"
            },
            {
              "internalType": "uint256",
              "name": "feePercentage",
              "type": "uint256"
            }
          ],
          "indexed": false,
          "internalType": "struct FeeConfiguration.FeeConfig",
          "name": "feeConfig",
          "type": "tuple"
        }
      ],
      "name": "FeeConfigUpdated",
      "type": "event"
    },
    {
      "anonymous": false,
      "inputs": [
        {
          "indexed": true,
          "internalType": "address",
          "name": "previousOwner",
          "type": "address"
        },
        {
          "indexed": true,
          "internalType": "address",
          "name": "newOwner",
          "type": "address"
        }
      ],
      "name": "OwnershipTransferred",
      "type": "event"
    },
    {
      "anonymous": false,
      "inputs": [
        {
          "indexed": true,
          "internalType": "address",
          "name": "rewardToken",
          "type": "address"
        },
        {
          "indexed": false,
          "internalType": "uint256",
          "name": "amount",
          "type": "uint256"
        }
      ],
      "name": "RewardAdded",
      "type": "event"
    },
    {
      "anonymous": false,
      "inputs": [
        {
          "indexed": true,
          "internalType": "bytes32",
          "name": "role",
          "type": "bytes32"
        },
        {
          "indexed": true,
          "internalType": "bytes32",
          "name": "previousAdminRole",
          "type": "bytes32"
        },
        {
          "indexed": true,
          "internalType": "bytes32",
          "name": "newAdminRole",
          "type": "bytes32"
        }
      ],
      "name": "RoleAdminChanged",
      "type": "event"
    },
    {
      "anonymous": false,
      "inputs": [
        {
          "indexed": true,
          "internalType": "bytes32",
          "name": "role",
          "type": "bytes32"
        },
        {
          "indexed": true,
          "internalType": "address",
          "name": "account",
          "type": "address"
        },
        {
          "indexed": true,
          "internalType": "address",
          "name": "sender",
          "type": "address"
        }
      ],
      "name": "RoleGranted",
      "type": "event"
    },
    {
      "anonymous": false,
      "inputs": [
        {
          "indexed": true,
          "internalType": "bytes32",
          "name": "role",
          "type": "bytes32"
        },
        {
          "indexed": true,
          "internalType": "address",
          "name": "account",
          "type": "address"
        },
        {
          "indexed": true,
          "internalType": "address",
          "name": "sender",
          "type": "address"
        }
      ],
      "name": "RoleRevoked",
      "type": "event"
    },
    {
      "anonymous": false,
      "inputs": [
        {
          "indexed": false,
          "internalType": "uint32",
          "name": "time",
          "type": "uint32"
        }
      ],
      "name": "SetSharesLockTime",
      "type": "event"
    },
    {
      "anonymous": false,
      "inputs": [
        {
          "indexed": true,
          "internalType": "address",
          "name": "from",
          "type": "address"
        },
        {
          "indexed": true,
          "internalType": "address",
          "name": "to",
          "type": "address"
        },
        {
          "indexed": false,
          "internalType": "uint256",
          "name": "value",
          "type": "uint256"
        }
      ],
      "name": "Transfer",
      "type": "event"
    },
    {
      "anonymous": false,
      "inputs": [
        {
          "indexed": true,
          "internalType": "address",
          "name": "sender",
          "type": "address"
        },
        {
          "indexed": true,
          "internalType": "address",
          "name": "receiver",
          "type": "address"
        },
        {
          "indexed": true,
          "internalType": "address",
          "name": "owner",
          "type": "address"
        },
        {
          "indexed": false,
          "internalType": "uint256",
          "name": "assets",
          "type": "uint256"
        },
        {
          "indexed": false,
          "internalType": "uint256",
          "name": "shares",
          "type": "uint256"
        }
      ],
      "name": "Withdraw",
      "type": "event"
    },
    {
      "inputs": [],
      "name": "DEFAULT_ADMIN_ROLE",
      "outputs": [
        {
          "internalType": "bytes32",
          "name": "",
          "type": "bytes32"
        }
      ],
      "stateMutability": "view",
      "type": "function"
    },
    {
      "inputs": [],
      "name": "FEE_CONFIG_CONTROLLER_ROLE",
      "outputs": [
        {
          "internalType": "bytes32",
          "name": "",
          "type": "bytes32"
        }
      ],
      "stateMutability": "view",
      "type": "function"
    },
    {
      "inputs": [],
      "name": "VAULT_REWARD_CONTROLLER_ROLE",
      "outputs": [
        {
          "internalType": "bytes32",
          "name": "",
          "type": "bytes32"
        }
      ],
      "stateMutability": "view",
      "type": "function"
    },
    {
      "inputs": [
        {
          "internalType": "address",
          "name": "_token",
          "type": "address"
        },
        {
          "internalType": "uint256",
          "name": "_amount",
          "type": "uint256"
        }
      ],
      "name": "addReward",
      "outputs": [],
      "stateMutability": "payable",
      "type": "function"
    },
    {
      "inputs": [
        {
          "internalType": "address",
          "name": "owner",
          "type": "address"
        },
        {
          "internalType": "address",
          "name": "spender",
          "type": "address"
        }
      ],
      "name": "allowance",
      "outputs": [
        {
          "internalType": "uint256",
          "name": "",
          "type": "uint256"
        }
      ],
      "stateMutability": "view",
      "type": "function"
    },
    {
      "inputs": [
        {
          "internalType": "address",
          "name": "spender",
          "type": "address"
        },
        {
          "internalType": "uint256",
          "name": "value",
          "type": "uint256"
        }
      ],
      "name": "approve",
      "outputs": [
        {
          "internalType": "bool",
          "name": "",
          "type": "bool"
        }
      ],
      "stateMutability": "nonpayable",
      "type": "function"
    },
    {
      "inputs": [],
      "name": "asset",
      "outputs": [
        {
          "internalType": "address",
          "name": "",
          "type": "address"
        }
      ],
      "stateMutability": "view",
      "type": "function"
    },
    {
      "inputs": [
        {
          "internalType": "address",
          "name": "account",
          "type": "address"
        }
      ],
      "name": "balanceOf",
      "outputs": [
        {
          "internalType": "uint256",
          "name": "",
          "type": "uint256"
        }
      ],
      "stateMutability": "view",
      "type": "function"
    },
    {
      "inputs": [
        {
          "internalType": "uint256",
          "name": "_startPosition",
          "type": "uint256"
        },
        {
          "internalType": "address",
          "name": "receiver",
          "type": "address"
        }
      ],
      "name": "claimAllReward",
      "outputs": [
        {
          "internalType": "uint256",
          "name": "",
          "type": "uint256"
        },
        {
          "internalType": "uint256",
          "name": "",
          "type": "uint256"
        }
      ],
      "stateMutability": "nonpayable",
      "type": "function"
    },
    {
      "inputs": [],
      "name": "cliff",
      "outputs": [
        {
          "internalType": "uint32",
          "name": "",
          "type": "uint32"
        }
      ],
      "stateMutability": "view",
      "type": "function"
    },
    {
      "inputs": [
        {
          "internalType": "uint256",
          "name": "shares",
          "type": "uint256"
        }
      ],
      "name": "convertToAssets",
      "outputs": [
        {
          "internalType": "uint256",
          "name": "",
          "type": "uint256"
        }
      ],
      "stateMutability": "view",
      "type": "function"
    },
    {
      "inputs": [
        {
          "internalType": "uint256",
          "name": "assets",
          "type": "uint256"
        }
      ],
      "name": "convertToShares",
      "outputs": [
        {
          "internalType": "uint256",
          "name": "",
          "type": "uint256"
        }
      ],
      "stateMutability": "view",
      "type": "function"
    },
    {
      "inputs": [],
      "name": "decimals",
      "outputs": [
        {
          "internalType": "uint8",
          "name": "",
          "type": "uint8"
        }
      ],
      "stateMutability": "view",
      "type": "function"
    },
    {
      "inputs": [
        {
          "internalType": "uint256",
          "name": "assets",
          "type": "uint256"
        },
        {
          "internalType": "address",
          "name": "receiver",
          "type": "address"
        }
      ],
      "name": "deposit",
      "outputs": [
        {
          "internalType": "uint256",
          "name": "shares",
          "type": "uint256"
        }
      ],
      "stateMutability": "nonpayable",
      "type": "function"
    },
    {
      "inputs": [],
      "name": "feeConfig",
      "outputs": [
        {
          "internalType": "address",
          "name": "receiver",
          "type": "address"
        },
        {
          "internalType": "address",
          "name": "token",
          "type": "address"
        },
        {
          "internalType": "uint256",
          "name": "feePercentage",
          "type": "uint256"
        }
      ],
      "stateMutability": "view",
      "type": "function"
    },
    {
      "inputs": [
        {
          "internalType": "address",
          "name": "_user",
          "type": "address"
        }
      ],
      "name": "getAllRewards",
      "outputs": [
        {
          "internalType": "uint256[]",
          "name": "_rewards",
          "type": "uint256[]"
        }
      ],
      "stateMutability": "view",
      "type": "function"
    },
    {
      "inputs": [],
      "name": "getRewardTokens",
      "outputs": [
        {
          "internalType": "address[]",
          "name": "",
          "type": "address[]"
        }
      ],
      "stateMutability": "view",
      "type": "function"
    },
    {
      "inputs": [
        {
          "internalType": "bytes32",
          "name": "role",
          "type": "bytes32"
        }
      ],
      "name": "getRoleAdmin",
      "outputs": [
        {
          "internalType": "bytes32",
          "name": "",
          "type": "bytes32"
        }
      ],
      "stateMutability": "view",
      "type": "function"
    },
    {
      "inputs": [
        {
          "internalType": "address",
          "name": "_user",
          "type": "address"
        },
        {
          "internalType": "address",
          "name": "_rewardToken",
          "type": "address"
        }
      ],
      "name": "getUserReward",
      "outputs": [
        {
          "internalType": "uint256",
          "name": "unclaimedAmount",
          "type": "uint256"
        }
      ],
      "stateMutability": "view",
      "type": "function"
    },
    {
      "inputs": [
        {
          "internalType": "bytes32",
          "name": "role",
          "type": "bytes32"
        },
        {
          "internalType": "address",
          "name": "account",
          "type": "address"
        }
      ],
      "name": "grantRole",
      "outputs": [],
      "stateMutability": "nonpayable",
      "type": "function"
    },
    {
      "inputs": [
        {
          "internalType": "bytes32",
          "name": "role",
          "type": "bytes32"
        },
        {
          "internalType": "address",
          "name": "account",
          "type": "address"
        }
      ],
      "name": "hasRole",
      "outputs": [
        {
          "internalType": "bool",
          "name": "",
          "type": "bool"
        }
      ],
      "stateMutability": "view",
      "type": "function"
    },
    {
      "inputs": [
        {
          "internalType": "address",
          "name": "account",
          "type": "address"
        }
      ],
      "name": "lockedOf",
      "outputs": [
        {
          "internalType": "uint256",
          "name": "",
          "type": "uint256"
        }
      ],
      "stateMutability": "view",
      "type": "function"
    },
    {
      "inputs": [
        {
          "internalType": "address",
          "name": "",
          "type": "address"
        }
      ],
      "name": "maxDeposit",
      "outputs": [
        {
          "internalType": "uint256",
          "name": "",
          "type": "uint256"
        }
      ],
      "stateMutability": "view",
      "type": "function"
    },
    {
      "inputs": [
        {
          "internalType": "address",
          "name": "",
          "type": "address"
        }
      ],
      "name": "maxMint",
      "outputs": [
        {
          "internalType": "uint256",
          "name": "",
          "type": "uint256"
        }
      ],
      "stateMutability": "view",
      "type": "function"
    },
    {
      "inputs": [
        {
          "internalType": "address",
          "name": "owner",
          "type": "address"
        }
      ],
      "name": "maxRedeem",
      "outputs": [
        {
          "internalType": "uint256",
          "name": "",
          "type": "uint256"
        }
      ],
      "stateMutability": "view",
      "type": "function"
    },
    {
      "inputs": [
        {
          "internalType": "address",
          "name": "owner",
          "type": "address"
        }
      ],
      "name": "maxWithdraw",
      "outputs": [
        {
          "internalType": "uint256",
          "name": "",
          "type": "uint256"
        }
      ],
      "stateMutability": "view",
      "type": "function"
    },
    {
      "inputs": [
        {
          "internalType": "uint256",
          "name": "shares",
          "type": "uint256"
        },
        {
          "internalType": "address",
          "name": "receiver",
          "type": "address"
        }
      ],
      "name": "mint",
      "outputs": [
        {
          "internalType": "uint256",
          "name": "assets",
          "type": "uint256"
        }
      ],
      "stateMutability": "nonpayable",
      "type": "function"
    },
    {
      "inputs": [],
      "name": "name",
      "outputs": [
        {
          "internalType": "string",
          "name": "",
          "type": "string"
        }
      ],
      "stateMutability": "view",
      "type": "function"
    },
    {
      "inputs": [],
      "name": "owner",
      "outputs": [
        {
          "internalType": "address",
          "name": "",
          "type": "address"
        }
      ],
      "stateMutability": "view",
      "type": "function"
    },
    {
      "inputs": [
        {
          "internalType": "uint256",
          "name": "assets",
          "type": "uint256"
        }
      ],
      "name": "previewDeposit",
      "outputs": [
        {
          "internalType": "uint256",
          "name": "",
          "type": "uint256"
        }
      ],
      "stateMutability": "view",
      "type": "function"
    },
    {
      "inputs": [
        {
          "internalType": "uint256",
          "name": "shares",
          "type": "uint256"
        }
      ],
      "name": "previewMint",
      "outputs": [
        {
          "internalType": "uint256",
          "name": "",
          "type": "uint256"
        }
      ],
      "stateMutability": "view",
      "type": "function"
    },
    {
      "inputs": [
        {
          "internalType": "uint256",
          "name": "shares",
          "type": "uint256"
        }
      ],
      "name": "previewRedeem",
      "outputs": [
        {
          "internalType": "uint256",
          "name": "",
          "type": "uint256"
        }
      ],
      "stateMutability": "view",
      "type": "function"
    },
    {
      "inputs": [
        {
          "internalType": "uint256",
          "name": "assets",
          "type": "uint256"
        }
      ],
      "name": "previewWithdraw",
      "outputs": [
        {
          "internalType": "uint256",
          "name": "",
          "type": "uint256"
        }
      ],
      "stateMutability": "view",
      "type": "function"
    },
    {
      "inputs": [
        {
          "internalType": "uint256",
          "name": "shares",
          "type": "uint256"
        },
        {
          "internalType": "address",
          "name": "receiver",
          "type": "address"
        },
        {
          "internalType": "address",
          "name": "owner",
          "type": "address"
        }
      ],
      "name": "redeem",
      "outputs": [
        {
          "internalType": "uint256",
          "name": "assets",
          "type": "uint256"
        }
      ],
      "stateMutability": "nonpayable",
      "type": "function"
    },
    {
      "inputs": [],
      "name": "renounceOwnership",
      "outputs": [],
      "stateMutability": "nonpayable",
      "type": "function"
    },
    {
      "inputs": [
        {
          "internalType": "bytes32",
          "name": "role",
          "type": "bytes32"
        },
        {
          "internalType": "address",
          "name": "callerConfirmation",
          "type": "address"
        }
      ],
      "name": "renounceRole",
      "outputs": [],
      "stateMutability": "nonpayable",
      "type": "function"
    },
    {
      "inputs": [
        {
          "internalType": "bytes32",
          "name": "role",
          "type": "bytes32"
        },
        {
          "internalType": "address",
          "name": "account",
          "type": "address"
        }
      ],
      "name": "revokeRole",
      "outputs": [],
      "stateMutability": "nonpayable",
      "type": "function"
    },
    {
      "inputs": [
        {
          "internalType": "uint32",
          "name": "time",
          "type": "uint32"
        }
      ],
      "name": "setSharesLockTime",
      "outputs": [],
      "stateMutability": "nonpayable",
      "type": "function"
    },
    {
      "inputs": [
        {
          "internalType": "bytes4",
          "name": "interfaceId",
          "type": "bytes4"
        }
      ],
      "name": "supportsInterface",
      "outputs": [
        {
          "internalType": "bool",
          "name": "",
          "type": "bool"
        }
      ],
      "stateMutability": "view",
      "type": "function"
    },
    {
      "inputs": [],
      "name": "symbol",
      "outputs": [
        {
          "internalType": "string",
          "name": "",
          "type": "string"
        }
      ],
      "stateMutability": "view",
      "type": "function"
    },
    {
      "inputs": [],
      "name": "totalAssets",
      "outputs": [
        {
          "internalType": "uint256",
          "name": "",
          "type": "uint256"
        }
      ],
      "stateMutability": "view",
      "type": "function"
    },
    {
      "inputs": [],
      "name": "totalSupply",
      "outputs": [
        {
          "internalType": "uint256",
          "name": "",
          "type": "uint256"
        }
      ],
      "stateMutability": "view",
      "type": "function"
    },
    {
      "inputs": [
        {
          "internalType": "address",
          "name": "to",
          "type": "address"
        },
        {
          "internalType": "uint256",
          "name": "value",
          "type": "uint256"
        }
      ],
      "name": "transfer",
      "outputs": [
        {
          "internalType": "bool",
          "name": "",
          "type": "bool"
        }
      ],
      "stateMutability": "nonpayable",
      "type": "function"
    },
    {
      "inputs": [
        {
          "internalType": "address",
          "name": "from",
          "type": "address"
        },
        {
          "internalType": "address",
          "name": "to",
          "type": "address"
        },
        {
          "internalType": "uint256",
          "name": "value",
          "type": "uint256"
        }
      ],
      "name": "transferFrom",
      "outputs": [
        {
          "internalType": "bool",
          "name": "",
          "type": "bool"
        }
      ],
      "stateMutability": "nonpayable",
      "type": "function"
    },
    {
      "inputs": [
        {
          "internalType": "address",
          "name": "newOwner",
          "type": "address"
        }
      ],
      "name": "transferOwnership",
      "outputs": [],
      "stateMutability": "nonpayable",
      "type": "function"
    },
    {
      "inputs": [],
      "name": "unlockDuration",
      "outputs": [
        {
          "internalType": "uint32",
          "name": "",
          "type": "uint32"
        }
      ],
      "stateMutability": "view",
      "type": "function"
    },
    {
      "inputs": [
        {
          "internalType": "address",
          "name": "account",
          "type": "address"
        }
      ],
      "name": "unlockedOf",
      "outputs": [
        {
          "internalType": "uint256",
          "name": "",
          "type": "uint256"
        }
      ],
      "stateMutability": "view",
      "type": "function"
    },
    {
      "inputs": [
        {
          "components": [
            {
              "internalType": "address",
              "name": "receiver",
              "type": "address"
            },
            {
              "internalType": "address",
              "name": "token",
              "type": "address"
            },
            {
              "internalType": "uint256",
              "name": "feePercentage",
              "type": "uint256"
            }
          ],
          "internalType": "struct FeeConfiguration.FeeConfig",
          "name": "_feeConfig",
          "type": "tuple"
        }
      ],
      "name": "updateFeeConfig",
      "outputs": [],
      "stateMutability": "nonpayable",
      "type": "function"
    },
    {
      "inputs": [
        {
          "internalType": "uint256",
          "name": "assets",
          "type": "uint256"
        },
        {
          "internalType": "address",
          "name": "receiver",
          "type": "address"
        },
        {
          "internalType": "address",
          "name": "owner",
          "type": "address"
        }
      ],
      "name": "withdraw",
      "outputs": [
        {
          "internalType": "uint256",
          "name": "shares",
          "type": "uint256"
        }
      ],
      "stateMutability": "nonpayable",
      "type": "function"
    }
  ],
  "bytecode": "0x60c06040526040516200357a3803806200357a83398101604081905262000026916200058e565b33888888600362000038838262000740565b50600462000047828262000740565b5050506000806200005e836200012660201b60201c565b91509150816200007057601262000072565b805b60ff1660a05250506001600160a01b039081166080528116620000b057604051631e4fbdf760e01b8152600060048201526024015b60405180910390fd5b620000bb816200020b565b506001600a557fb5311d7a8ac81ee4993288bc4c98b414fbe1c746351a804bd1a32db330eae700620000ef8686866200025d565b80546001600160401b03191664010000000063ffffffff9485160263ffffffff191617919092161790555062000844945050505050565b60408051600481526024810182526020810180516001600160e01b031663313ce56760e01b17905290516000918291829182916001600160a01b038716916200016f916200080c565b600060405180830381855afa9150503d8060008114620001ac576040519150601f19603f3d011682016040523d82523d6000602084013e620001b1565b606091505b5091509150818015620001c657506020815110155b15620001fe57600081806020019051810190620001e491906200082a565b905060ff8111620001fc576001969095509350505050565b505b5060009485945092505050565b600980546001600160a01b038381166001600160a01b0319831681179093556040519116919082907f8be0079c531659141344cd1fd0a4f28419497f9722a3daafe3b4186f6b6457e090600090a35050565b82516020840151604085015162000276929190620002e3565b62000283600033620003a3565b50620002b07f477fc23fb51bb5d5aa814872a393b0e4f35d0916c7503c0fd96584681070d41083620003a3565b50620002dd7f74e458455daa935f28c556b43e0cc4ad001a8a090f5feee376681e97d4618f4682620003a3565b50505050565b6127108110620003285760405162461bcd60e51b815260206004820152600f60248201526e46433a20496e76616c69642066656560881b6044820152606401620000a7565b600680546001600160a01b038581166001600160a01b0319928316811790935560078054918616919092168117909155600883905560408051928352602083019190915281018290527febd34b2df88ea5c9f67c04b13b08e5e63c2d17e269aab73b866fe47a8736a2649060600160405180910390a1505050565b60008281526005602090815260408083206001600160a01b038516845290915281205460ff166200044c5760008381526005602090815260408083206001600160a01b03861684529091529020805460ff19166001179055620004033390565b6001600160a01b0316826001600160a01b0316847f2f8788117e7eff1d82e926ec794901d17c78024a50270940304540a733656f0d60405160405180910390a450600162000450565b5060005b92915050565b6001600160a01b03811681146200046c57600080fd5b50565b634e487b7160e01b600052604160045260246000fd5b604051606081016001600160401b0381118282101715620004aa57620004aa6200046f565b60405290565b60005b83811015620004cd578181015183820152602001620004b3565b50506000910152565b600082601f830112620004e857600080fd5b81516001600160401b03808211156200050557620005056200046f565b604051601f8301601f19908116603f011681019082821181831017156200053057620005306200046f565b816040528381528660208588010111156200054a57600080fd5b6200055d846020830160208901620004b0565b9695505050505050565b8051620005748162000456565b919050565b805163ffffffff811681146200057457600080fd5b600080600080600080600080888a03610140811215620005ad57600080fd5b8951620005ba8162000456565b60208b01519099506001600160401b0380821115620005d857600080fd5b620005e68d838e01620004d6565b995060408c0151915080821115620005fd57600080fd5b506200060c8c828d01620004d6565b9750506060605f19820112156200062257600080fd5b506200062d62000485565b60608a01516200063d8162000456565b815260808a01516200064f8162000456565b602082015260a08a0151604082015294506200066e60c08a0162000567565b93506200067e60e08a0162000567565b92506200068f6101008a0162000579565b9150620006a06101208a0162000579565b90509295985092959890939650565b600181811c90821680620006c457607f821691505b602082108103620006e557634e487b7160e01b600052602260045260246000fd5b50919050565b601f8211156200073b576000816000526020600020601f850160051c81016020861015620007165750805b601f850160051c820191505b81811015620007375782815560010162000722565b5050505b505050565b81516001600160401b038111156200075c576200075c6200046f565b62000774816200076d8454620006af565b84620006eb565b602080601f831160018114620007ac5760008415620007935750858301515b600019600386901b1c1916600185901b17855562000737565b600085815260208120601f198616915b82811015620007dd57888601518255948401946001909101908401620007bc565b5085821015620007fc5787850151600019600388901b60f8161c191681555b5050505050600190811b01905550565b6000825162000820818460208701620004b0565b9190910192915050565b6000602082840312156200083d57600080fd5b5051919050565b60805160a051612cf4620008866000396000610aef01526000818161051f0152818161090c01528181610fa201528181611a580152611e020152612cf46000f3fe60806040526004361061029e5760003560e01c80638a1fcd6011610165578063ba087652116100cc578063ce96cb7711610085578063ce96cb7714610832578063d547741f14610852578063d905777e14610872578063dd62ed3e14610892578063ef8b30f7146107bd578063efa6f425146108b2578063f2fde38b146108d257600080fd5b8063ba0876521461077b578063c4f59f9b1461079b578063c63d75b61461054c578063c6e6f592146107bd578063caad546e146107dd578063cd26c0e6146107fd57600080fd5b8063a217fddf1161011e578063a217fddf146106b2578063a5f1e282146106c7578063a9059cbb146106e7578063b3d7f6b914610707578063b460af9414610727578063b4f6d6131461074757600080fd5b80638a1fcd60146106175780638da5cb5b1461062c57806391d148541461064a57806394bf804d1461066a57806395d89b411461068a5780639feb8f501461069f57600080fd5b80632f2ff15d116102095780634cdad506116101c25780634cdad506146103515780635ab764ed1461056c5780636e553f651461058c5780636f26a436146105ac57806370a08231146105cc578063715018a61461060257600080fd5b80632f2ff15d1461047a578063313ce5671461049c578063362a3fad146104c357806336568abe146104f057806338d52e0f14610510578063402d267d1461054c57600080fd5b80630a28a4771161025b5780630a28a4771461039157806313d033c0146103b157806318160ddd146103db5780631e5eb1d0146103f057806323b872dd1461042a578063248a9ca31461044a57600080fd5b806301e1d114146102a357806301ffc9a7146102cb57806305fb2a51146102fb57806306fdde031461032f57806307a2d13a14610351578063095ea7b314610371575b600080fd5b3480156102af57600080fd5b506102b86108f2565b6040519081526020015b60405180910390f35b3480156102d757600080fd5b506102eb6102e6366004612686565b610987565b60405190151581526020016102c2565b34801561030757600080fd5b506102b87f74e458455daa935f28c556b43e0cc4ad001a8a090f5feee376681e97d4618f4681565b34801561033b57600080fd5b506103446109b2565b6040516102c291906126d4565b34801561035d57600080fd5b506102b861036c366004612707565b610a44565b34801561037d57600080fd5b506102eb61038c36600461273c565b610a51565b34801561039d57600080fd5b506102b86103ac366004612707565b610a69565b3480156103bd57600080fd5b506103c6610a76565b60405163ffffffff90911681526020016102c2565b3480156103e757600080fd5b506002546102b8565b3480156103fc57600080fd5b5060065460075460085461041b926001600160a01b0390811692169083565b6040516102c293929190612766565b34801561043657600080fd5b506102eb61044536600461278a565b610a96565b34801561045657600080fd5b506102b8610465366004612707565b60009081526005602052604090206001015490565b34801561048657600080fd5b5061049a6104953660046127c6565b610abc565b005b3480156104a857600080fd5b506104b1610ae7565b60405160ff90911681526020016102c2565b3480156104cf57600080fd5b506104e36104de3660046127f2565b610b13565b6040516102c2919061280d565b3480156104fc57600080fd5b5061049a61050b3660046127c6565b610bd7565b34801561051c57600080fd5b507f00000000000000000000000000000000000000000000000000000000000000005b6040516102c29190612851565b34801561055857600080fd5b506102b86105673660046127f2565b610c0f565b34801561057857600080fd5b506102b8610587366004612865565b610c16565b34801561059857600080fd5b506102b86105a73660046127c6565b610cf7565b3480156105b857600080fd5b5061049a6105c736600461288f565b610db0565b3480156105d857600080fd5b506102b86105e73660046127f2565b6001600160a01b031660009081526020819052604090205490565b34801561060e57600080fd5b5061049a610e11565b34801561062357600080fd5b506103c6610e25565b34801561063857600080fd5b506009546001600160a01b031661053f565b34801561065657600080fd5b506102eb6106653660046127c6565b610e3d565b34801561067657600080fd5b506102b86106853660046127c6565b610e68565b34801561069657600080fd5b50610344610f0d565b61049a6106ad36600461273c565b610f1c565b3480156106be57600080fd5b506102b8600081565b3480156106d357600080fd5b506102b86106e23660046127f2565b61126c565b3480156106f357600080fd5b506102eb61070236600461273c565b6112bc565b34801561071357600080fd5b506102b8610722366004612707565b6112ca565b34801561073357600080fd5b506102b86107423660046128b5565b6112d7565b34801561075357600080fd5b506102b87f477fc23fb51bb5d5aa814872a393b0e4f35d0916c7503c0fd96584681070d41081565b34801561078757600080fd5b506102b86107963660046128b5565b611388565b3480156107a757600080fd5b506107b0611459565b6040516102c291906128f1565b3480156107c957600080fd5b506102b86107d8366004612707565b6114c5565b3480156107e957600080fd5b506102b86107f83660046127f2565b6114d2565b34801561080957600080fd5b5061081d6108183660046127c6565b6114dd565b604080519283526020830191909152016102c2565b34801561083e57600080fd5b506102b861084d3660046127f2565b61162f565b34801561085e57600080fd5b5061049a61086d3660046127c6565b611644565b34801561087e57600080fd5b506102b861088d3660046127f2565b611669565b34801561089e57600080fd5b506102b86108ad366004612865565b611674565b3480156108be57600080fd5b5061049a6108cd366004612948565b61169f565b3480156108de57600080fd5b5061049a6108ed3660046127f2565b6116e4565b6040516370a0823160e01b81526000906001600160a01b037f000000000000000000000000000000000000000000000000000000000000000016906370a0823190610941903090600401612851565b602060405180830381865afa15801561095e573d6000803e3d6000fd5b505050506040513d601f19601f8201168201806040525081019061098291906129be565b905090565b60006001600160e01b0319821663043eff2d60e51b14806109ac57506109ac82611722565b92915050565b6060600380546109c1906129d7565b80601f01602080910402602001604051908101604052809291908181526020018280546109ed906129d7565b8015610a3a5780601f10610a0f57610100808354040283529160200191610a3a565b820191906000526020600020905b815481529060010190602001808311610a1d57829003601f168201915b5050505050905090565b60006109ac826000611757565b600033610a5f818585611791565b5060019392505050565b60006109ac82600161179e565b600080610a816117ce565b54640100000000900463ffffffff1692915050565b600033610aa48582856117f2565b610aaf85858561183f565b60019150505b9392505050565b600082815260056020526040902060010154610ad78161189e565b610ae183836118a8565b50505050565b6000610982817f0000000000000000000000000000000000000000000000000000000000000000612a27565b60606000610b1f6117ce565b60018101549091508067ffffffffffffffff811115610b4057610b40612932565b604051908082528060200260200182016040528015610b69578160200160208202803683370190505b50925060005b81811015610bcf57610baa85846001018381548110610b9057610b90612a40565b6000918252602090912001546001600160a01b0316610c16565b848281518110610bbc57610bbc612a40565b6020908102919091010152600101610b6f565b505050919050565b6001600160a01b0381163314610c005760405163334bd91960e11b815260040160405180910390fd5b610c0a828261193c565b505050565b5060001990565b600080610c216117ce565b6001600160a01b03808516600090815260038301602090815260408083208054948a168452600286019092528220805494955090939091819003610c6d576000955050505050506109ac565b6001600160a01b038716600090815260048301602052604081205490610c938286612a56565b9050670de0b6b3a7640000610ca88483612a69565b610cb29190612a96565b975087600003610cc157600197505b60085415610cea576000610cda896006600201546119a9565b9050610ce6818a612a56565b9850505b5050505050505092915050565b6000610d01611a29565b6001600160a01b038216610d305760405162461bcd60e51b8152600401610d2790612aaa565b60405180910390fd5b6000610d3b83610c0f565b905080841115610d6457828482604051633c8097d960e11b8152600401610d2793929190612aef565b610d6d846114c5565b915081600003610d8f5760405162461bcd60e51b8152600401610d2790612b10565b610d9b33848685611a53565b610da58484611ae5565b506109ac6001600a55565b610db8611c69565b6000610dc26117ce565b805463ffffffff191663ffffffff841690811782556040519081529091507f30131881e801ec5c72cbec6e47ad340b66e5165fa10332f449a92f188a8f27479060200160405180910390a15050565b610e19611c69565b610e236000611c96565b565b600080610e306117ce565b5463ffffffff1692915050565b60009182526005602090815260408084206001600160a01b0393909316845291905290205460ff1690565b6000610e72611a29565b6001600160a01b038216610e985760405162461bcd60e51b8152600401610d2790612aaa565b6000610ea383610c0f565b905080841115610ecc5782848260405163284ff66760e01b8152600401610d2793929190612aef565b610ed5846112ca565b915081600003610ef75760405162461bcd60e51b8152600401610d2790612b10565b610f0333848487611a53565b610da58284611ae5565b6060600480546109c1906129d7565b7f477fc23fb51bb5d5aa814872a393b0e4f35d0916c7503c0fd96584681070d410610f468161189e565b81600003610fa05760405162461bcd60e51b815260206004820152602160248201527f4865646572615661756c743a20416d6f756e742063616e2774206265207a65726044820152606f60f81b6064820152608401610d27565b7f00000000000000000000000000000000000000000000000000000000000000006001600160a01b0316836001600160a01b031614158015610feb57506001600160a01b0383163014155b6110555760405162461bcd60e51b815260206004820152603560248201527f4865646572615661756c743a2052657761726420616e64205374616b696e6720604482015274746f6b656e732063616e6e6f742062652073616d6560581b6064820152608401610d27565b6001600160a01b0383166110b55760405162461bcd60e51b815260206004820152602160248201527f4865646572615661756c743a20496e76616c69642072657761726420746f6b656044820152603760f91b6064820152608401610d27565b6110bd6108f2565b60000361110c5760405162461bcd60e51b815260206004820181905260248201527f4865646572615661756c743a204e6f20746f6b656e207374616b6564207965746044820152606401610d27565b60006111166117ce565b6001810154909150600a0361113e57604051637561e0ab60e01b815260040160405180910390fd5b600061115c670de0b6b3a76400006111546108f2565b869190611ce8565b6001600160a01b0386166000908152600384016020526040902060018101549192509060ff166111dc57600183810180548083018255600091825260209091200180546001600160a01b0319166001600160a01b038916908117909155828201805460ff19169092179091558282556111d790333088611d06565b611221565b6001600160a01b038616600090815260038401602052604081208054849290611206908490612b42565b9091555061122190506001600160a01b038716333088611d06565b856001600160a01b03167fac24935fd910bc682b5ccb1a07b718cadf8cf2f6d1404c4f3ddc3662dae40e298660405161125c91815260200190565b60405180910390a2505050505050565b6000806112776117ce565b9050611282836114d2565b6001600160a01b038416600090815260028084016020526040909120908101546001909101546112b29190612a56565b610ab59190612a56565b600033610a5f81858561183f565b60006109ac826001611757565b60006112e1611a29565b6001600160a01b0383166113075760405162461bcd60e51b8152600401610d2790612aaa565b60006113128361162f565b90508085111561133b57828582604051633fa733bb60e21b8152600401610d2793929190612aef565b6113458585611d60565b61134e85610a69565b9150816000036113705760405162461bcd60e51b8152600401610d2790612b10565b61137d3385858886611dcf565b50610ab56001600a55565b6000611392611a29565b6001600160a01b0383166113b85760405162461bcd60e51b8152600401610d2790612aaa565b60006113c383611669565b9050808511156113ec57828582604051632e52afbb60e21b8152600401610d2793929190612aef565b6113f68285611d60565b6113ff85610a44565b91508160000361144c5760405162461bcd60e51b81526020600482015260186024820152774865646572615661756c743a205a65726f2061737365747360401b6044820152606401610d27565b61137d3385858589611dcf565b606060006114656117ce565b600181018054604080516020808402820181019092528281529394508301828280156114ba57602002820191906000526020600020905b81546001600160a01b0316815260019091019060200180831161149c575b505050505091505090565b60006109ac82600061179e565b60006109ac82611e8f565b60008060006114ea6117ce565b6001810154600754919250906001600160a01b031660008083810361155d5760405162461bcd60e51b815260206004820152602360248201527f4865646572615661756c743a204e6f2072657761726420746f6b656e732065786044820152621a5cdd60ea1b6064820152608401610d27565b885b8481101561161f5785600101818154811061157c5761157c612a40565b6000918252602090912001546001600160a01b0316925061159d3384610c16565b6001600160a01b03808516600081815260038a01602090815260408083205433845260028d0183528184209484526004909401909152902055909250841615611603576115fe896115ed84611f70565b6001600160a01b038616919061207a565b611617565b6116176001600160a01b0384168a8461207a565b60010161155f565b5097989297509195505050505050565b60006109ac61163d836114d2565b6000611757565b60008281526005602052604090206001015461165f8161189e565b610ae1838361193c565b60006109ac826114d2565b6001600160a01b03918216600090815260016020908152604080832093909416825291909152205490565b7f74e458455daa935f28c556b43e0cc4ad001a8a090f5feee376681e97d4618f466116c98161189e565b6116e08260000151836020015184604001516120ab565b5050565b6116ec611c69565b6001600160a01b038116611716576000604051631e4fbdf760e01b8152600401610d279190612851565b61171f81611c96565b50565b60006001600160e01b03198216637965db0b60e01b14806109ac57506301ffc9a760e01b6001600160e01b03198316146109ac565b6000610ab56117646108f2565b61176f906001612b42565b61177b6000600a612c39565b6002546117889190612b42565b85919085612169565b610c0a83838360016121ba565b6000610ab56117ae82600a612c39565b6002546117bb9190612b42565b6117c36108f2565b611788906001612b42565b7fb5311d7a8ac81ee4993288bc4c98b414fbe1c746351a804bd1a32db330eae70090565b60006117fe8484611674565b90506000198114610ae1578181101561183057828183604051637dc7a0d960e11b8152600401610d2793929190612aef565b610ae1848484840360006121ba565b6001600160a01b038316611869576000604051634b637e8f60e11b8152600401610d279190612851565b6001600160a01b03821661189357600060405163ec442f0560e01b8152600401610d279190612851565b610c0a838383612281565b61171f8133612398565b60006118b48383610e3d565b6119345760008381526005602090815260408083206001600160a01b03861684529091529020805460ff191660011790556118ec3390565b6001600160a01b0316826001600160a01b0316847f2f8788117e7eff1d82e926ec794901d17c78024a50270940304540a733656f0d60405160405180910390a45060016109ac565b5060006109ac565b60006119488383610e3d565b156119345760008381526005602090815260408083206001600160a01b0386168085529252808320805460ff1916905551339286917ff6391f5c32d9c69d2a47ea670b442974b53935d1edc7fd64eb21e047a839171b9190a45060016109ac565b60006127106119b88385612a69565b1015611a125760405162461bcd60e51b8152602060048201526024808201527f46433a20546f6f20736d616c6c20616d6f756e7420746f20636f6e73696465726044820152632066656560e01b6064820152608401610d27565b612710611a1f8385612a69565b610ab59190612a96565b6002600a5403611a4c57604051633ee5aeb560e01b815260040160405180910390fd5b6002600a55565b611a7f7f0000000000000000000000000000000000000000000000000000000000000000853085611d06565b611a8983826123d1565b826001600160a01b0316846001600160a01b03167fdcbc1c05240f31ff3ad067ef1ee35ce4997762752e3a095284754544f4c709d78484604051611ad7929190918252602082015260400190565b60405180910390a350505050565b6000611aef6117ce565b33600090815260028201602052604090206005015490915060ff16611bb757600181015460005b81811015611b7e576000836001018281548110611b3557611b35612a40565b60009182526020808320909101546001600160a01b0316808352600387018252604080842054338552600289018452818520928552600490920190925291205550600101611b16565b5050336000908152600282016020526040902083815560018082018590554260038301556005909101805460ff19169091179055505050565b3360009081526002820160205260408120549003611c3b5733600090815260028201602052604081208054859290611bf0908490612b42565b909155505033600090815260028201602052604081206001018054859290611c19908490612b42565b9091555050336000908152600282016020526040902042600390910155505050565b611c466000836114dd565b505033600090815260028201602052604081208054859290611bf0908490612b42565b6009546001600160a01b03163314610e23573360405163118cdaa760e01b8152600401610d279190612851565b600980546001600160a01b038381166001600160a01b0319831681179093556040519116919082907f8be0079c531659141344cd1fd0a4f28419497f9722a3daafe3b4186f6b6457e090600090a35050565b6000826000190484118302158202611cff57600080fd5b5091020490565b610ae184856001600160a01b03166323b872dd868686604051602401611d2e93929190612766565b604051602081830303815290604052915060e01b6020820180516001600160e01b038381831617835250505050612407565b611d6b6000826114dd565b50506000611d776117ce565b336000908152600282016020526040812080549293508592909190611d9d908490612a56565b9091555050336000908152600280830160205260408220018054859290611dc5908490612b42565b9091555050505050565b826001600160a01b0316856001600160a01b031614611df357611df38386836117f2565b611dfd8382612461565b611e287f0000000000000000000000000000000000000000000000000000000000000000858461207a565b826001600160a01b0316846001600160a01b0316866001600160a01b03167ffbde797d201c681b91056529119e0b02407c7bb96a4a2c75c01fc9667232c8db8585604051611e80929190918252602082015260400190565b60405180910390a45050505050565b600080611e9a6117ce565b6001600160a01b03841660009081526002808301602052604082209081015460018201549394509092611ecd9190612a56565b83546003840154919250600091611ef291640100000000900463ffffffff1690612b42565b905080421080611f00575081155b15611f115750600095945050505050565b8354600090611f269063ffffffff1683612b42565b9050804210611f3757829550611f66565b6000611f438342612a56565b865490915063ffffffff16611f588286612a69565b611f629190612a96565b9650505b5050505050919050565b6007546008546000916001600160a01b0316908290611f909085906119a9565b905080826001600160a01b03166370a08231306040518263ffffffff1660e01b8152600401611fbf9190612851565b602060405180830381865afa158015611fdc573d6000803e3d6000fd5b505050506040513d601f19601f8201168201806040525081019061200091906129be565b101561204e5760405162461bcd60e51b815260206004820152601e60248201527f46433a20496e73756666696369656e7420746f6b656e2062616c616e636500006044820152606401610d27565b600654612068906001600160a01b0384811691168361207a565b6120728185612a56565b949350505050565b6040516001600160a01b03838116602483015260448201839052610c0a91859182169063a9059cbb90606401611d2e565b61271081106120ee5760405162461bcd60e51b815260206004820152600f60248201526e46433a20496e76616c69642066656560881b6044820152606401610d27565b600680546001600160a01b038581166001600160a01b0319928316811790935560078054918616919092168117909155600883905560408051928352602083019190915281018290527febd34b2df88ea5c9f67c04b13b08e5e63c2d17e269aab73b866fe47a8736a2649060600160405180910390a1505050565b600080612177868686612497565b90506121828361255b565b801561219e57506000848061219957612199612a80565b868809115b156121b1576121ae600182612b42565b90505b95945050505050565b6001600160a01b0384166121e457600060405163e602df0560e01b8152600401610d279190612851565b6001600160a01b03831661220e576000604051634a1406b160e11b8152600401610d279190612851565b6001600160a01b0380851660009081526001602090815260408083209387168352929052208290558015610ae157826001600160a01b0316846001600160a01b03167f8c5be1e5ebec7d5bd14f71427d1e84f3dd0314c0f7b2291e5b200ac8c7c3b92584604051611ad791815260200190565b6001600160a01b0383166122ac5780600260008282546122a19190612b42565b9091555061230b9050565b6001600160a01b038316600090815260208190526040902054818110156122ec5783818360405163391434e360e21b8152600401610d2793929190612aef565b6001600160a01b03841660009081526020819052604090209082900390555b6001600160a01b03821661232757600280548290039055612346565b6001600160a01b03821660009081526020819052604090208054820190555b816001600160a01b0316836001600160a01b03167fddf252ad1be2c89b69c2b068fc378daa952ba7f163c4a11628f55a4df523b3ef8360405161238b91815260200190565b60405180910390a3505050565b6123a28282610e3d565b6116e05760405163e2517d3f60e01b81526001600160a01b038216600482015260248101839052604401610d27565b6001600160a01b0382166123fb57600060405163ec442f0560e01b8152600401610d279190612851565b6116e060008383612281565b600061241c6001600160a01b03841683612588565b9050805160001415801561244157508080602001905181019061243f9190612c48565b155b15610c0a5782604051635274afe760e01b8152600401610d279190612851565b6001600160a01b03821661248b576000604051634b637e8f60e11b8152600401610d279190612851565b6116e082600083612281565b60008383028160001985870982811083820303915050806000036124ce578382816124c4576124c4612a80565b0492505050610ab5565b8084116124ee5760405163227bc15360e01b815260040160405180910390fd5b6000848688096000868103871696879004966002600389028118808a02820302808a02820302808a02820302808a02820302808a02820302808a02909103029181900381900460010186841190950394909402919094039290920491909117919091029150509392505050565b6000600282600381111561257157612571612c6a565b61257b9190612c80565b60ff166001149050919050565b6060610ab58383600084600080856001600160a01b031684866040516125ae9190612ca2565b60006040518083038185875af1925050503d80600081146125eb576040519150601f19603f3d011682016040523d82523d6000602084013e6125f0565b606091505b509150915061260086838361260a565b9695505050505050565b60608261261f5761261a8261265d565b610ab5565b815115801561263657506001600160a01b0384163b155b156126565783604051639996b31560e01b8152600401610d279190612851565b5080610ab5565b80511561266d5780518082602001fd5b604051630a12f52160e11b815260040160405180910390fd5b60006020828403121561269857600080fd5b81356001600160e01b031981168114610ab557600080fd5b60005b838110156126cb5781810151838201526020016126b3565b50506000910152565b60208152600082518060208401526126f38160408501602087016126b0565b601f01601f19169190910160400192915050565b60006020828403121561271957600080fd5b5035919050565b80356001600160a01b038116811461273757600080fd5b919050565b6000806040838503121561274f57600080fd5b61275883612720565b946020939093013593505050565b6001600160a01b039384168152919092166020820152604081019190915260600190565b60008060006060848603121561279f57600080fd5b6127a884612720565b92506127b660208501612720565b9150604084013590509250925092565b600080604083850312156127d957600080fd5b823591506127e960208401612720565b90509250929050565b60006020828403121561280457600080fd5b610ab582612720565b6020808252825182820181905260009190848201906040850190845b8181101561284557835183529284019291840191600101612829565b50909695505050505050565b6001600160a01b0391909116815260200190565b6000806040838503121561287857600080fd5b61288183612720565b91506127e960208401612720565b6000602082840312156128a157600080fd5b813563ffffffff81168114610ab557600080fd5b6000806000606084860312156128ca57600080fd5b833592506128da60208501612720565b91506128e860408501612720565b90509250925092565b6020808252825182820181905260009190848201906040850190845b818110156128455783516001600160a01b03168352928401929184019160010161290d565b634e487b7160e01b600052604160045260246000fd5b60006060828403121561295a57600080fd5b6040516060810181811067ffffffffffffffff8211171561298b57634e487b7160e01b600052604160045260246000fd5b60405261299783612720565b81526129a560208401612720565b6020820152604083013560408201528091505092915050565b6000602082840312156129d057600080fd5b5051919050565b600181811c908216806129eb57607f821691505b602082108103612a0b57634e487b7160e01b600052602260045260246000fd5b50919050565b634e487b7160e01b600052601160045260246000fd5b60ff81811683821601908111156109ac576109ac612a11565b634e487b7160e01b600052603260045260246000fd5b818103818111156109ac576109ac612a11565b80820281158282048414176109ac576109ac612a11565b634e487b7160e01b600052601260045260246000fd5b600082612aa557612aa5612a80565b500490565b60208082526025908201527f4865646572615661756c743a20496e76616c6964207265636569766572206164604082015264647265737360d81b606082015260800190565b6001600160a01b039390931683526020830191909152604082015260600190565b6020808252601890820152774865646572615661756c743a205a65726f2073686172657360401b604082015260600190565b808201808211156109ac576109ac612a11565b600181815b80851115612b90578160001904821115612b7657612b76612a11565b80851615612b8357918102915b93841c9390800290612b5a565b509250929050565b600082612ba7575060016109ac565b81612bb4575060006109ac565b8160018114612bca5760028114612bd457612bf0565b60019150506109ac565b60ff841115612be557612be5612a11565b50506001821b6109ac565b5060208310610133831016604e8410600b8410161715612c13575081810a6109ac565b612c1d8383612b55565b8060001904821115612c3157612c31612a11565b029392505050565b6000610ab560ff841683612b98565b600060208284031215612c5a57600080fd5b81518015158114610ab557600080fd5b634e487b7160e01b600052602160045260246000fd5b600060ff831680612c9357612c93612a80565b8060ff84160691505092915050565b60008251612cb48184602087016126b0565b919091019291505056fea2646970667358221220c369580ec5ba95082fe2939ede2d0e5e31b3985b55d271e7ed36844e19dd05bb64736f6c63430008180033",
  "linkReferences": {},
  "deployedLinkReferences": {}
}