{
  "_format": "hh-sol-artifact-1",
  "contractName": "BasicVault",
  "sourceName": "contracts/erc4626/BasicVault.sol",
  "abi": [
    {
      "inputs": [
        {
          "internalType": "contract ERC20",
          "name": "_underlying",
          "type": "address"
        },
        {
          "internalType": "string",
          "name": "_name",
          "type": "string"
        },
        {
          "internalType": "string",
          "name": "_symbol",
          "type": "string"
        },
        {
          "components": [
            {
              "internalType": "address",
              "name": "receiver",
              "type": "address"
            },
            {
              "internalType": "address",
              "name": "token",
              "type": "address"
            },
            {
              "internalType": "uint256",
              "name": "feePercentage",
              "type": "uint256"
            }
          ],
          "internalType": "struct FeeConfiguration.FeeConfig",
          "name": "_feeConfig",
          "type": "tuple"
        },
        {
          "internalType": "address",
          "name": "_vaultRewardController",
          "type": "address"
        },
        {
          "internalType": "address",
          "name": "_feeConfigController",
          "type": "address"
        }
      ],
      "stateMutability": "payable",
      "type": "constructor"
    },
    {
      "inputs": [],
      "name": "AccessControlBadConfirmation",
      "type": "error"
    },
    {
      "inputs": [
        {
          "internalType": "address",
          "name": "account",
          "type": "address"
        },
        {
          "internalType": "bytes32",
          "name": "neededRole",
          "type": "bytes32"
        }
      ],
      "name": "AccessControlUnauthorizedAccount",
      "type": "error"
    },
    {
      "inputs": [
        {
          "internalType": "address",
          "name": "target",
          "type": "address"
        }
      ],
      "name": "AddressEmptyCode",
      "type": "error"
    },
    {
      "inputs": [
        {
          "internalType": "address",
          "name": "account",
          "type": "address"
        }
      ],
      "name": "AddressInsufficientBalance",
      "type": "error"
    },
    {
      "inputs": [],
      "name": "FailedInnerCall",
      "type": "error"
    },
    {
      "inputs": [],
      "name": "MaxRewardTokensAmount",
      "type": "error"
    },
    {
      "inputs": [
        {
          "internalType": "address",
          "name": "owner",
          "type": "address"
        }
      ],
      "name": "OwnableInvalidOwner",
      "type": "error"
    },
    {
      "inputs": [
        {
          "internalType": "address",
          "name": "account",
          "type": "address"
        }
      ],
      "name": "OwnableUnauthorizedAccount",
      "type": "error"
    },
    {
      "inputs": [],
      "name": "ReentrancyGuardReentrantCall",
      "type": "error"
    },
    {
      "inputs": [
        {
          "internalType": "address",
          "name": "token",
          "type": "address"
        }
      ],
      "name": "SafeERC20FailedOperation",
      "type": "error"
    },
    {
      "inputs": [
        {
          "internalType": "uint256",
          "name": "numberOfShares",
          "type": "uint256"
        }
      ],
      "name": "ZeroShares",
      "type": "error"
    },
    {
      "anonymous": false,
      "inputs": [
        {
          "indexed": true,
          "internalType": "address",
          "name": "owner",
          "type": "address"
        },
        {
          "indexed": true,
          "internalType": "address",
          "name": "spender",
          "type": "address"
        },
        {
          "indexed": false,
          "internalType": "uint256",
          "name": "amount",
          "type": "uint256"
        }
      ],
      "name": "Approval",
      "type": "event"
    },
    {
      "anonymous": false,
      "inputs": [
        {
          "indexed": true,
          "internalType": "address",
          "name": "createdToken",
          "type": "address"
        }
      ],
      "name": "CreatedToken",
      "type": "event"
    },
    {
      "anonymous": false,
      "inputs": [
        {
          "indexed": true,
          "internalType": "address",
          "name": "sender",
          "type": "address"
        },
        {
          "indexed": true,
          "internalType": "address",
          "name": "receiver",
          "type": "address"
        },
        {
          "indexed": false,
          "internalType": "uint256",
          "name": "assets",
          "type": "uint256"
        },
        {
          "indexed": false,
          "internalType": "uint256",
          "name": "shares",
          "type": "uint256"
        }
      ],
      "name": "Deposit",
      "type": "event"
    },
    {
      "anonymous": false,
      "inputs": [
        {
          "components": [
            {
              "internalType": "address",
              "name": "receiver",
              "type": "address"
            },
            {
              "internalType": "address",
              "name": "token",
              "type": "address"
            },
            {
              "internalType": "uint256",
              "name": "feePercentage",
              "type": "uint256"
            }
          ],
          "indexed": false,
          "internalType": "struct FeeConfiguration.FeeConfig",
          "name": "feeConfig",
          "type": "tuple"
        }
      ],
      "name": "FeeConfigUpdated",
      "type": "event"
    },
    {
      "anonymous": false,
      "inputs": [
        {
          "indexed": true,
          "internalType": "address",
          "name": "previousOwner",
          "type": "address"
        },
        {
          "indexed": true,
          "internalType": "address",
          "name": "newOwner",
          "type": "address"
        }
      ],
      "name": "OwnershipTransferred",
      "type": "event"
    },
    {
      "anonymous": false,
      "inputs": [
        {
          "indexed": true,
          "internalType": "address",
          "name": "rewardToken",
          "type": "address"
        },
        {
          "indexed": false,
          "internalType": "uint256",
          "name": "amount",
          "type": "uint256"
        }
      ],
      "name": "RewardAdded",
      "type": "event"
    },
    {
      "anonymous": false,
      "inputs": [
        {
          "indexed": true,
          "internalType": "bytes32",
          "name": "role",
          "type": "bytes32"
        },
        {
          "indexed": true,
          "internalType": "bytes32",
          "name": "previousAdminRole",
          "type": "bytes32"
        },
        {
          "indexed": true,
          "internalType": "bytes32",
          "name": "newAdminRole",
          "type": "bytes32"
        }
      ],
      "name": "RoleAdminChanged",
      "type": "event"
    },
    {
      "anonymous": false,
      "inputs": [
        {
          "indexed": true,
          "internalType": "bytes32",
          "name": "role",
          "type": "bytes32"
        },
        {
          "indexed": true,
          "internalType": "address",
          "name": "account",
          "type": "address"
        },
        {
          "indexed": true,
          "internalType": "address",
          "name": "sender",
          "type": "address"
        }
      ],
      "name": "RoleGranted",
      "type": "event"
    },
    {
      "anonymous": false,
      "inputs": [
        {
          "indexed": true,
          "internalType": "bytes32",
          "name": "role",
          "type": "bytes32"
        },
        {
          "indexed": true,
          "internalType": "address",
          "name": "account",
          "type": "address"
        },
        {
          "indexed": true,
          "internalType": "address",
          "name": "sender",
          "type": "address"
        }
      ],
      "name": "RoleRevoked",
      "type": "event"
    },
    {
      "anonymous": false,
      "inputs": [
        {
          "indexed": true,
          "internalType": "address",
          "name": "from",
          "type": "address"
        },
        {
          "indexed": true,
          "internalType": "address",
          "name": "to",
          "type": "address"
        },
        {
          "indexed": false,
          "internalType": "uint256",
          "name": "amount",
          "type": "uint256"
        }
      ],
      "name": "Transfer",
      "type": "event"
    },
    {
      "anonymous": false,
      "inputs": [
        {
          "indexed": true,
          "internalType": "address",
          "name": "sender",
          "type": "address"
        },
        {
          "indexed": true,
          "internalType": "address",
          "name": "receiver",
          "type": "address"
        },
        {
          "indexed": false,
          "internalType": "uint256",
          "name": "assets",
          "type": "uint256"
        },
        {
          "indexed": false,
          "internalType": "uint256",
          "name": "shares",
          "type": "uint256"
        }
      ],
      "name": "Withdraw",
      "type": "event"
    },
    {
      "inputs": [],
      "name": "DEFAULT_ADMIN_ROLE",
      "outputs": [
        {
          "internalType": "bytes32",
          "name": "",
          "type": "bytes32"
        }
      ],
      "stateMutability": "view",
      "type": "function"
    },
    {
      "inputs": [],
      "name": "DOMAIN_SEPARATOR",
      "outputs": [
        {
          "internalType": "bytes32",
          "name": "",
          "type": "bytes32"
        }
      ],
      "stateMutability": "view",
      "type": "function"
    },
    {
      "inputs": [],
      "name": "FEE_CONFIG_CONTROLLER_ROLE",
      "outputs": [
        {
          "internalType": "bytes32",
          "name": "",
          "type": "bytes32"
        }
      ],
      "stateMutability": "view",
      "type": "function"
    },
    {
      "inputs": [],
      "name": "VAULT_REWARD_CONTROLLER_ROLE",
      "outputs": [
        {
          "internalType": "bytes32",
          "name": "",
          "type": "bytes32"
        }
      ],
      "stateMutability": "view",
      "type": "function"
    },
    {
      "inputs": [
        {
          "internalType": "address",
          "name": "_token",
          "type": "address"
        },
        {
          "internalType": "uint256",
          "name": "_amount",
          "type": "uint256"
        }
      ],
      "name": "addReward",
      "outputs": [],
      "stateMutability": "payable",
      "type": "function"
    },
    {
      "inputs": [
        {
          "internalType": "address",
          "name": "",
          "type": "address"
        },
        {
          "internalType": "address",
          "name": "",
          "type": "address"
        }
      ],
      "name": "allowance",
      "outputs": [
        {
          "internalType": "uint256",
          "name": "",
          "type": "uint256"
        }
      ],
      "stateMutability": "view",
      "type": "function"
    },
    {
      "inputs": [
        {
          "internalType": "address",
          "name": "spender",
          "type": "address"
        },
        {
          "internalType": "uint256",
          "name": "amount",
          "type": "uint256"
        }
      ],
      "name": "approve",
      "outputs": [
        {
          "internalType": "bool",
          "name": "",
          "type": "bool"
        }
      ],
      "stateMutability": "nonpayable",
      "type": "function"
    },
    {
      "inputs": [],
      "name": "asset",
      "outputs": [
        {
          "internalType": "address",
          "name": "",
          "type": "address"
        }
      ],
      "stateMutability": "view",
      "type": "function"
    },
    {
      "inputs": [],
      "name": "assetTotalSupply",
      "outputs": [
        {
          "internalType": "uint256",
          "name": "",
          "type": "uint256"
        }
      ],
      "stateMutability": "view",
      "type": "function"
    },
    {
      "inputs": [
        {
          "internalType": "address",
          "name": "user",
          "type": "address"
        }
      ],
      "name": "assetsOf",
      "outputs": [
        {
          "internalType": "uint256",
          "name": "",
          "type": "uint256"
        }
      ],
      "stateMutability": "view",
      "type": "function"
    },
    {
      "inputs": [],
      "name": "assetsPerShare",
      "outputs": [
        {
          "internalType": "uint256",
          "name": "",
          "type": "uint256"
        }
      ],
      "stateMutability": "view",
      "type": "function"
    },
    {
      "inputs": [
        {
          "internalType": "address",
          "name": "",
          "type": "address"
        }
      ],
      "name": "balanceOf",
      "outputs": [
        {
          "internalType": "uint256",
          "name": "",
          "type": "uint256"
        }
      ],
      "stateMutability": "view",
      "type": "function"
    },
    {
      "inputs": [
        {
          "internalType": "uint256",
          "name": "_startPosition",
          "type": "uint256"
        },
        {
          "internalType": "address",
          "name": "receiver",
          "type": "address"
        }
      ],
      "name": "claimAllReward",
      "outputs": [
        {
          "internalType": "uint256",
          "name": "",
          "type": "uint256"
        },
        {
          "internalType": "uint256",
          "name": "",
          "type": "uint256"
        }
      ],
      "stateMutability": "payable",
      "type": "function"
    },
    {
      "inputs": [],
      "name": "decimals",
      "outputs": [
        {
          "internalType": "uint8",
          "name": "",
          "type": "uint8"
        }
      ],
      "stateMutability": "view",
      "type": "function"
    },
    {
      "inputs": [
        {
          "internalType": "uint256",
          "name": "assets",
          "type": "uint256"
        },
        {
          "internalType": "address",
          "name": "receiver",
          "type": "address"
        }
      ],
      "name": "deposit",
      "outputs": [
        {
          "internalType": "uint256",
          "name": "shares",
          "type": "uint256"
        }
      ],
      "stateMutability": "nonpayable",
      "type": "function"
    },
    {
      "inputs": [],
      "name": "exchangeRate",
      "outputs": [
        {
          "internalType": "uint256",
          "name": "",
          "type": "uint256"
        }
      ],
      "stateMutability": "pure",
      "type": "function"
    },
    {
      "inputs": [],
      "name": "feeConfig",
      "outputs": [
        {
          "internalType": "address",
          "name": "receiver",
          "type": "address"
        },
        {
          "internalType": "address",
          "name": "token",
          "type": "address"
        },
        {
          "internalType": "uint256",
          "name": "feePercentage",
          "type": "uint256"
        }
      ],
      "stateMutability": "view",
      "type": "function"
    },
    {
      "inputs": [
        {
          "internalType": "address",
          "name": "_user",
          "type": "address"
        }
      ],
      "name": "getAllRewards",
      "outputs": [
        {
          "internalType": "uint256[]",
          "name": "_rewards",
          "type": "uint256[]"
        }
      ],
      "stateMutability": "view",
      "type": "function"
    },
    {
      "inputs": [],
      "name": "getRewardTokens",
      "outputs": [
        {
          "internalType": "address[]",
          "name": "",
          "type": "address[]"
        }
      ],
      "stateMutability": "view",
      "type": "function"
    },
    {
      "inputs": [
        {
          "internalType": "bytes32",
          "name": "role",
          "type": "bytes32"
        }
      ],
      "name": "getRoleAdmin",
      "outputs": [
        {
          "internalType": "bytes32",
          "name": "",
          "type": "bytes32"
        }
      ],
      "stateMutability": "view",
      "type": "function"
    },
    {
      "inputs": [
        {
          "internalType": "address",
          "name": "_user",
          "type": "address"
        },
        {
          "internalType": "address",
          "name": "_rewardToken",
          "type": "address"
        }
      ],
      "name": "getUserReward",
      "outputs": [
        {
          "internalType": "uint256",
          "name": "unclaimedAmount",
          "type": "uint256"
        }
      ],
      "stateMutability": "view",
      "type": "function"
    },
    {
      "inputs": [
        {
          "internalType": "bytes32",
          "name": "role",
          "type": "bytes32"
        },
        {
          "internalType": "address",
          "name": "account",
          "type": "address"
        }
      ],
      "name": "grantRole",
      "outputs": [],
      "stateMutability": "nonpayable",
      "type": "function"
    },
    {
      "inputs": [
        {
          "internalType": "bytes32",
          "name": "role",
          "type": "bytes32"
        },
        {
          "internalType": "address",
          "name": "account",
          "type": "address"
        }
      ],
      "name": "hasRole",
      "outputs": [
        {
          "internalType": "bool",
          "name": "",
          "type": "bool"
        }
      ],
      "stateMutability": "view",
      "type": "function"
    },
    {
      "inputs": [
        {
          "internalType": "address",
          "name": "",
          "type": "address"
        }
      ],
      "name": "maxDeposit",
      "outputs": [
        {
          "internalType": "uint256",
          "name": "",
          "type": "uint256"
        }
      ],
      "stateMutability": "pure",
      "type": "function"
    },
    {
      "inputs": [
        {
          "internalType": "address",
          "name": "",
          "type": "address"
        }
      ],
      "name": "maxMint",
      "outputs": [
        {
          "internalType": "uint256",
          "name": "",
          "type": "uint256"
        }
      ],
      "stateMutability": "pure",
      "type": "function"
    },
    {
      "inputs": [
        {
          "internalType": "address",
          "name": "user",
          "type": "address"
        }
      ],
      "name": "maxRedeem",
      "outputs": [
        {
          "internalType": "uint256",
          "name": "",
          "type": "uint256"
        }
      ],
      "stateMutability": "view",
      "type": "function"
    },
    {
      "inputs": [
        {
          "internalType": "address",
          "name": "user",
          "type": "address"
        }
      ],
      "name": "maxWithdraw",
      "outputs": [
        {
          "internalType": "uint256",
          "name": "",
          "type": "uint256"
        }
      ],
      "stateMutability": "view",
      "type": "function"
    },
    {
      "inputs": [
        {
          "internalType": "uint256",
          "name": "shares",
          "type": "uint256"
        },
        {
          "internalType": "address",
          "name": "receiver",
          "type": "address"
        }
      ],
      "name": "mint",
      "outputs": [
        {
          "internalType": "uint256",
          "name": "amount",
          "type": "uint256"
        }
      ],
      "stateMutability": "nonpayable",
      "type": "function"
    },
    {
      "inputs": [],
      "name": "name",
      "outputs": [
        {
          "internalType": "string",
          "name": "",
          "type": "string"
        }
      ],
      "stateMutability": "view",
      "type": "function"
    },
    {
      "inputs": [
        {
          "internalType": "address",
          "name": "",
          "type": "address"
        }
      ],
      "name": "nonces",
      "outputs": [
        {
          "internalType": "uint256",
          "name": "",
          "type": "uint256"
        }
      ],
      "stateMutability": "view",
      "type": "function"
    },
    {
      "inputs": [],
      "name": "owner",
      "outputs": [
        {
          "internalType": "address",
          "name": "",
          "type": "address"
        }
      ],
      "stateMutability": "view",
      "type": "function"
    },
    {
      "inputs": [
        {
          "internalType": "address",
          "name": "owner",
          "type": "address"
        },
        {
          "internalType": "address",
          "name": "spender",
          "type": "address"
        },
        {
          "internalType": "uint256",
          "name": "value",
          "type": "uint256"
        },
        {
          "internalType": "uint256",
          "name": "deadline",
          "type": "uint256"
        },
        {
          "internalType": "uint8",
          "name": "v",
          "type": "uint8"
        },
        {
          "internalType": "bytes32",
          "name": "r",
          "type": "bytes32"
        },
        {
          "internalType": "bytes32",
          "name": "s",
          "type": "bytes32"
        }
      ],
      "name": "permit",
      "outputs": [],
      "stateMutability": "nonpayable",
      "type": "function"
    },
    {
      "inputs": [
        {
          "internalType": "uint256",
          "name": "amount",
          "type": "uint256"
        }
      ],
      "name": "previewDeposit",
      "outputs": [
        {
          "internalType": "uint256",
          "name": "shares",
          "type": "uint256"
        }
      ],
      "stateMutability": "view",
      "type": "function"
    },
    {
      "inputs": [
        {
          "internalType": "uint256",
          "name": "shares",
          "type": "uint256"
        }
      ],
      "name": "previewMint",
      "outputs": [
        {
          "internalType": "uint256",
          "name": "amount",
          "type": "uint256"
        }
      ],
      "stateMutability": "view",
      "type": "function"
    },
    {
      "inputs": [
        {
          "internalType": "uint256",
          "name": "shares",
          "type": "uint256"
        }
      ],
      "name": "previewRedeem",
      "outputs": [
        {
          "internalType": "uint256",
          "name": "amount",
          "type": "uint256"
        }
      ],
      "stateMutability": "view",
      "type": "function"
    },
    {
      "inputs": [
        {
          "internalType": "uint256",
          "name": "amount",
          "type": "uint256"
        }
      ],
      "name": "previewWithdraw",
      "outputs": [
        {
          "internalType": "uint256",
          "name": "shares",
          "type": "uint256"
        }
      ],
      "stateMutability": "view",
      "type": "function"
    },
    {
      "inputs": [
        {
          "internalType": "uint256",
          "name": "shares",
          "type": "uint256"
        },
        {
          "internalType": "address",
          "name": "receiver",
          "type": "address"
        },
        {
          "internalType": "address",
          "name": "from",
          "type": "address"
        }
      ],
      "name": "redeem",
      "outputs": [
        {
          "internalType": "uint256",
          "name": "amount",
          "type": "uint256"
        }
      ],
      "stateMutability": "nonpayable",
      "type": "function"
    },
    {
      "inputs": [],
      "name": "renounceOwnership",
      "outputs": [],
      "stateMutability": "nonpayable",
      "type": "function"
    },
    {
      "inputs": [
        {
          "internalType": "bytes32",
          "name": "role",
          "type": "bytes32"
        },
        {
          "internalType": "address",
          "name": "callerConfirmation",
          "type": "address"
        }
      ],
      "name": "renounceRole",
      "outputs": [],
      "stateMutability": "nonpayable",
      "type": "function"
    },
    {
      "inputs": [
        {
          "internalType": "bytes32",
          "name": "role",
          "type": "bytes32"
        },
        {
          "internalType": "address",
          "name": "account",
          "type": "address"
        }
      ],
      "name": "revokeRole",
      "outputs": [],
      "stateMutability": "nonpayable",
      "type": "function"
    },
    {
      "inputs": [],
      "name": "share",
      "outputs": [
        {
          "internalType": "address",
          "name": "",
          "type": "address"
        }
      ],
      "stateMutability": "view",
      "type": "function"
    },
    {
      "inputs": [
        {
          "internalType": "bytes4",
          "name": "interfaceId",
          "type": "bytes4"
        }
      ],
      "name": "supportsInterface",
      "outputs": [
        {
          "internalType": "bool",
          "name": "",
          "type": "bool"
        }
      ],
      "stateMutability": "view",
      "type": "function"
    },
    {
      "inputs": [],
      "name": "symbol",
      "outputs": [
        {
          "internalType": "string",
          "name": "",
          "type": "string"
        }
      ],
      "stateMutability": "view",
      "type": "function"
    },
    {
      "inputs": [],
      "name": "totalAssets",
      "outputs": [
        {
          "internalType": "uint256",
          "name": "",
          "type": "uint256"
        }
      ],
      "stateMutability": "view",
      "type": "function"
    },
    {
      "inputs": [],
      "name": "totalSupply",
      "outputs": [
        {
          "internalType": "uint256",
          "name": "",
          "type": "uint256"
        }
      ],
      "stateMutability": "view",
      "type": "function"
    },
    {
      "inputs": [
        {
          "internalType": "address",
          "name": "to",
          "type": "address"
        },
        {
          "internalType": "uint256",
          "name": "amount",
          "type": "uint256"
        }
      ],
      "name": "transfer",
      "outputs": [
        {
          "internalType": "bool",
          "name": "",
          "type": "bool"
        }
      ],
      "stateMutability": "nonpayable",
      "type": "function"
    },
    {
      "inputs": [
        {
          "internalType": "address",
          "name": "from",
          "type": "address"
        },
        {
          "internalType": "address",
          "name": "to",
          "type": "address"
        },
        {
          "internalType": "uint256",
          "name": "amount",
          "type": "uint256"
        }
      ],
      "name": "transferFrom",
      "outputs": [
        {
          "internalType": "bool",
          "name": "",
          "type": "bool"
        }
      ],
      "stateMutability": "nonpayable",
      "type": "function"
    },
    {
      "inputs": [
        {
          "internalType": "address",
          "name": "newOwner",
          "type": "address"
        }
      ],
      "name": "transferOwnership",
      "outputs": [],
      "stateMutability": "nonpayable",
      "type": "function"
    },
    {
      "inputs": [
        {
          "components": [
            {
              "internalType": "address",
              "name": "receiver",
              "type": "address"
            },
            {
              "internalType": "address",
              "name": "token",
              "type": "address"
            },
            {
              "internalType": "uint256",
              "name": "feePercentage",
              "type": "uint256"
            }
          ],
          "internalType": "struct FeeConfiguration.FeeConfig",
          "name": "_feeConfig",
          "type": "tuple"
        }
      ],
      "name": "updateFeeConfig",
      "outputs": [],
      "stateMutability": "nonpayable",
      "type": "function"
    },
    {
      "inputs": [
        {
          "internalType": "uint256",
          "name": "amount",
          "type": "uint256"
        },
        {
          "internalType": "address",
          "name": "receiver",
          "type": "address"
        },
        {
          "internalType": "address",
          "name": "from",
          "type": "address"
        }
      ],
      "name": "withdraw",
      "outputs": [
        {
          "internalType": "uint256",
          "name": "shares",
          "type": "uint256"
        }
      ],
      "stateMutability": "nonpayable",
      "type": "function"
    }
  ],
  "bytecode": "0x6101006040526040516200378238038062003782833981016040819052620000279162000543565b338585886001600160a01b031663313ce5676040518163ffffffff1660e01b8152600401602060405180830381865afa15801562000069573d6000803e3d6000fd5b505050506040513d601f19601f820116820180604052508101906200008f91906200063c565b60006200009d8482620006f9565b506001620000ac8382620006f9565b5060ff81166080524660a052620000c262000130565b60c0525050506001600160a01b038116620000f857604051631e4fbdf760e01b8152600060048201526024015b60405180910390fd5b6200010381620001cc565b506001600b55620001168383836200021e565b5050506001600160a01b0390921660e05250620008439050565b60007f8b73c3c69bb8fe3d512ecc4cf759cc79239f7b179b0ffacaa9a75d522b39400f6000604051620001649190620007c5565b6040805191829003822060208301939093528101919091527fc89efdaa54c0f20c7adf612882df0950f5a951637e0307cdcb4c672f298b8bc660608201524660808201523060a082015260c00160405160208183030381529060405280519060200120905090565b600a80546001600160a01b038381166001600160a01b0319831681179093556040519116919082907f8be0079c531659141344cd1fd0a4f28419497f9722a3daafe3b4186f6b6457e090600090a35050565b82516020840151604085015162000237929190620002a4565b6200024460003362000364565b50620002717f477fc23fb51bb5d5aa814872a393b0e4f35d0916c7503c0fd96584681070d4108362000364565b506200029e7f74e458455daa935f28c556b43e0cc4ad001a8a090f5feee376681e97d4618f468262000364565b50505050565b6127108110620002e95760405162461bcd60e51b815260206004820152600f60248201526e46433a20496e76616c69642066656560881b6044820152606401620000ef565b600780546001600160a01b038581166001600160a01b0319928316811790935560088054918616919092168117909155600983905560408051928352602083019190915281018290527febd34b2df88ea5c9f67c04b13b08e5e63c2d17e269aab73b866fe47a8736a2649060600160405180910390a1505050565b60008281526006602090815260408083206001600160a01b038516845290915281205460ff166200040d5760008381526006602090815260408083206001600160a01b03861684529091529020805460ff19166001179055620003c43390565b6001600160a01b0316826001600160a01b0316847f2f8788117e7eff1d82e926ec794901d17c78024a50270940304540a733656f0d60405160405180910390a450600162000411565b5060005b92915050565b6001600160a01b03811681146200042d57600080fd5b50565b634e487b7160e01b600052604160045260246000fd5b604051606081016001600160401b03811182821017156200046b576200046b62000430565b60405290565b604051601f8201601f191681016001600160401b03811182821017156200049c576200049c62000430565b604052919050565b600082601f830112620004b657600080fd5b81516001600160401b03811115620004d257620004d262000430565b6020620004e8601f8301601f1916820162000471565b8281528582848701011115620004fd57600080fd5b60005b838110156200051d57858101830151828201840152820162000500565b506000928101909101919091529392505050565b80516200053e8162000417565b919050565b6000806000806000808688036101008112156200055f57600080fd5b87516200056c8162000417565b60208901519097506001600160401b03808211156200058a57600080fd5b620005988b838c01620004a4565b975060408a0151915080821115620005af57600080fd5b50620005be8a828b01620004a4565b9550506060605f1982011215620005d457600080fd5b50620005df62000446565b6060880151620005ef8162000417565b81526080880151620006018162000417565b602082015260a0880151604082015292506200062060c0880162000531565b91506200063060e0880162000531565b90509295509295509295565b6000602082840312156200064f57600080fd5b815160ff811681146200066157600080fd5b9392505050565b600181811c908216806200067d57607f821691505b6020821081036200069e57634e487b7160e01b600052602260045260246000fd5b50919050565b601f821115620006f4576000816000526020600020601f850160051c81016020861015620006cf5750805b601f850160051c820191505b81811015620006f057828155600101620006db565b5050505b505050565b81516001600160401b0381111562000715576200071562000430565b6200072d8162000726845462000668565b84620006a4565b602080601f8311600181146200076557600084156200074c5750858301515b600019600386901b1c1916600185901b178555620006f0565b600085815260208120601f198616915b82811015620007965788860151825594840194600190910190840162000775565b5085821015620007b55787850151600019600388901b60f8161c191681555b5050505050600190811b01905550565b6000808354620007d58162000668565b60018281168015620007f05760018114620008065762000837565b60ff198416875282151583028701945062000837565b8760005260208060002060005b858110156200082e5781548a82015290840190820162000813565b50505082870194505b50929695505050505050565b60805160a05160c05160e051612ebf620008c3600039600081816105600152818161099b01528181610b4c01528181611027015281816111ae01528181611273015281816116a101526117f901526000610e4501526000610e150152600081816104a601528181610d3801528181610f1b0152610f540152612ebf6000f3fe6080604052600436106102a95760003560e01c80637ecebe0011610165578063b4f6d613116100cc578063d505accf11610085578063d505accf14610873578063d547741f14610893578063d905777e146108b3578063dd62ed3e146108e9578063ef8b30f714610921578063efa6f42514610941578063f2fde38b1461096157600080fd5b8063b4f6d613146107b5578063ba087652146107e9578063c4f59f9b14610809578063c63d75b6146105a1578063cd26c0e61461082b578063ce96cb771461085357600080fd5b80639feb8f501161011e5780639feb8f501461071a578063a217fddf1461072d578063a8d5fd6514610742578063a9059cbb14610755578063b3d7f6b914610775578063b460af941461079557600080fd5b80637ecebe00146106655780638da5cb5b146106925780638f12c2f4146106b057806391d14854146106c557806394bf804d146106e557806395d89b411461070557600080fd5b8063313ce567116102145780633ba0b9a9116101cd5780633ba0b9a91461058d578063402d267d146105a15780634cdad506146105c35780635ab764ed146105e35780636e553f651461060357806370a0823114610623578063715018a61461065057600080fd5b8063313ce5671461049457806335d16e17146104da578063362a3fad146104ef5780633644e5151461051c57806336568abe1461053157806338d52e0f1461055157600080fd5b806318160ddd1161026657806318160ddd1461039c5780631e5eb1d0146103b157806323b872dd14610402578063248a9ca3146104225780632c62fa10146104525780632f2ff15d1461047257600080fd5b806301e1d114146102ae57806301ffc9a7146102d657806305fb2a511461030657806306fdde031461033a578063095ea7b31461035c5780630a28a4771461037c575b600080fd5b3480156102ba57600080fd5b506102c3610981565b6040519081526020015b60405180910390f35b3480156102e257600080fd5b506102f66102f1366004612754565b610a16565b60405190151581526020016102cd565b34801561031257600080fd5b506102c37f74e458455daa935f28c556b43e0cc4ad001a8a090f5feee376681e97d4618f4681565b34801561034657600080fd5b5061034f610a4d565b6040516102cd91906127a2565b34801561036857600080fd5b506102f66103773660046127f1565b610adb565b34801561038857600080fd5b506102c361039736600461281b565b610b47565b3480156103a857600080fd5b506002546102c3565b3480156103bd57600080fd5b506007546008546009546103dc926001600160a01b0390811692169083565b604080516001600160a01b039485168152939092166020840152908201526060016102cd565b34801561040e57600080fd5b506102f661041d366004612834565b610c01565b34801561042e57600080fd5b506102c361043d36600461281b565b60009081526006602052604090206001015490565b34801561045e57600080fd5b506102c361046d366004612870565b610ce1565b34801561047e57600080fd5b5061049261048d36600461288b565b610d03565b005b3480156104a057600080fd5b506104c87f000000000000000000000000000000000000000000000000000000000000000081565b60405160ff90911681526020016102cd565b3480156104e657600080fd5b506102c3610d2e565b3480156104fb57600080fd5b5061050f61050a366004612870565b610d5e565b6040516102cd91906128b7565b34801561052857600080fd5b506102c3610e11565b34801561053d57600080fd5b5061049261054c36600461288b565b610e67565b34801561055d57600080fd5b507f00000000000000000000000000000000000000000000000000000000000000005b6040516102cd91906128fb565b34801561059957600080fd5b5060016102c3565b3480156105ad57600080fd5b506102c36105bc366004612870565b5060001990565b3480156105cf57600080fd5b506102c36105de36600461281b565b610e9f565b3480156105ef57600080fd5b506102c36105fe36600461290f565b610ec6565b34801561060f57600080fd5b506102c361061e36600461288b565b610fb2565b34801561062f57600080fd5b506102c361063e366004612870565b60036020526000908152604090205481565b34801561065c57600080fd5b506104926110b3565b34801561067157600080fd5b506102c3610680366004612870565b60056020526000908152604090205481565b34801561069e57600080fd5b50600a546001600160a01b0316610580565b3480156106bc57600080fd5b50600c546102c3565b3480156106d157600080fd5b506102f66106e036600461288b565b6110c7565b3480156106f157600080fd5b506102c361070036600461288b565b6110f2565b34801561071157600080fd5b5061034f6111e0565b6104926107283660046127f1565b6111ed565b34801561073957600080fd5b506102c3600081565b34801561074e57600080fd5b5030610580565b34801561076157600080fd5b506102f66107703660046127f1565b61153a565b34801561078157600080fd5b506102c361079036600461281b565b6115a0565b3480156107a157600080fd5b506102c36107b0366004612939565b6115c7565b3480156107c157600080fd5b506102c37f477fc23fb51bb5d5aa814872a393b0e4f35d0916c7503c0fd96584681070d41081565b3480156107f557600080fd5b506102c3610804366004612939565b611728565b34801561081557600080fd5b5061081e61186e565b6040516102cd9190612975565b61083e61083936600461288b565b6118d0565b604080519283526020830191909152016102cd565b34801561085f57600080fd5b506102c361086e366004612870565b611a0c565b34801561087f57600080fd5b5061049261088e3660046129b6565b611a17565b34801561089f57600080fd5b506104926108ae36600461288b565b611c55565b3480156108bf57600080fd5b506102c36108ce366004612870565b6001600160a01b031660009081526003602052604090205490565b3480156108f557600080fd5b506102c361090436600461290f565b600460209081526000928352604080842090915290825290205481565b34801561092d57600080fd5b506102c361093c36600461281b565b611c7a565b34801561094d57600080fd5b5061049261095c366004612a3f565b611c9b565b34801561096d57600080fd5b5061049261097c366004612870565b611ce0565b6040516370a0823160e01b81526000906001600160a01b037f000000000000000000000000000000000000000000000000000000000000000016906370a08231906109d09030906004016128fb565b602060405180830381865afa1580156109ed573d6000803e3d6000fd5b505050506040513d601f19601f82011682018060405250810190610a119190612ab5565b905090565b60006001600160e01b03198216637965db0b60e01b1480610a4757506301ffc9a760e01b6001600160e01b03198316145b92915050565b60008054610a5a90612ace565b80601f0160208091040260200160405190810160405280929190818152602001828054610a8690612ace565b8015610ad35780601f10610aa857610100808354040283529160200191610ad3565b820191906000526020600020905b815481529060010190602001808311610ab657829003601f168201915b505050505081565b3360008181526004602090815260408083206001600160a01b038716808552925280832085905551919290917f8c5be1e5ebec7d5bd14f71427d1e84f3dd0314c0f7b2291e5b200ac8c7c3b92590610b369086815260200190565b60405180910390a350600192915050565b6000807f00000000000000000000000000000000000000000000000000000000000000006001600160a01b03166370a08231306040518263ffffffff1660e01b8152600401610b9691906128fb565b602060405180830381865afa158015610bb3573d6000803e3d6000fd5b505050506040513d601f19601f82011682018060405250810190610bd79190612ab5565b90508015610bf857610bf381610beb610981565b859190611d1e565b610bfa565b825b9392505050565b6001600160a01b03831660009081526004602090815260408083203384529091528120546000198114610c5d57610c388382612b1e565b6001600160a01b03861660009081526004602090815260408083203384529091529020555b6001600160a01b03851660009081526003602052604081208054859290610c85908490612b1e565b90915550506001600160a01b0380851660008181526003602052604090819020805487019055519091871690600080516020612e6a83398151915290610cce9087815260200190565b60405180910390a3506001949350505050565b6001600160a01b038116600090815260036020526040812054610a4790610e9f565b600082815260066020526040902060010154610d1e81611d44565b610d288383611d4e565b50505050565b6000610a116105de7f0000000000000000000000000000000000000000000000000000000000000000600a612c15565b600d546060908067ffffffffffffffff811115610d7d57610d7d612a29565b604051908082528060200260200182016040528015610da6578160200160208202803683370190505b50915060005b81811015610e0a57610de584600d8381548110610dcb57610dcb612c24565b6000918252602090912001546001600160a01b0316610ec6565b838281518110610df757610df7612c24565b6020908102919091010152600101610dac565b5050919050565b60007f00000000000000000000000000000000000000000000000000000000000000004614610e4257610a11611de2565b507f000000000000000000000000000000000000000000000000000000000000000090565b6001600160a01b0381163314610e905760405163334bd91960e11b815260040160405180910390fd5b610e9a8282611e7c565b505050565b600080610eab60025490565b90508015610bf857610bf3610ebe610981565b849083611ee9565b6001600160a01b038082166000818152600f6020908152604080832080549588168452600e83528184208054958552600281019093529083205492949093909285610f118286612b1e565b905082610f4160ff7f00000000000000000000000000000000000000000000000000000000000000001683612c3a565b610f4b9190612c51565b9650610f7a60ff7f00000000000000000000000000000000000000000000000000000000000000001688612c51565b60095490975015610fa6576000610f9688600760020154611f07565b9050610fa28189612b1e565b9750505b50505050505092915050565b6000610fbc611f87565b6001600160a01b038216610feb5760405162461bcd60e51b8152600401610fe290612c73565b60405180910390fd5b610ff483611c7a565b90508060000361101a57604051636e3699b760e11b815260048101849052602401610fe2565b61104f6001600160a01b037f000000000000000000000000000000000000000000000000000000000000000016333086611fb1565b611059828461203b565b60408051848152602081018390526001600160a01b0384169133917fdcbc1c05240f31ff3ad067ef1ee35ce4997762752e3a095284754544f4c709d7910160405180910390a36110a98383612095565b610a476001600b55565b6110bb612219565b6110c56000612246565b565b60009182526006602090815260408084206001600160a01b0393909316845291905290205460ff1690565b60006110fc611f87565b6001600160a01b0382166111225760405162461bcd60e51b8152600401610fe290612c73565b61112b836115a0565b90508060000361115157604051636e3699b760e11b815260048101849052602401610fe2565b61115b828261203b565b60408051828152602081018590526001600160a01b0384169133917fdcbc1c05240f31ff3ad067ef1ee35ce4997762752e3a095284754544f4c709d7910160405180910390a36111d66001600160a01b037f000000000000000000000000000000000000000000000000000000000000000016333084611fb1565b6110a98183612095565b60018054610a5a90612ace565b7f477fc23fb51bb5d5aa814872a393b0e4f35d0916c7503c0fd96584681070d41061121781611d44565b816000036112715760405162461bcd60e51b815260206004820152602160248201527f4865646572615661756c743a20416d6f756e742063616e2774206265207a65726044820152606f60f81b6064820152608401610fe2565b7f00000000000000000000000000000000000000000000000000000000000000006001600160a01b0316836001600160a01b0316141580156112bc57506001600160a01b0383163014155b6113265760405162461bcd60e51b815260206004820152603560248201527f4865646572615661756c743a2052657761726420616e64205374616b696e6720604482015274746f6b656e732063616e6e6f742062652073616d6560581b6064820152608401610fe2565b6001600160a01b0383166113865760405162461bcd60e51b815260206004820152602160248201527f4865646572615661756c743a20496e76616c69642072657761726420746f6b656044820152603760f91b6064820152608401610fe2565b600c546000036113d85760405162461bcd60e51b815260206004820181905260248201527f4865646572615661756c743a204e6f20746f6b656e207374616b6564207965746044820152606401610fe2565b600d54600a036113fb57604051637561e0ab60e01b815260040160405180910390fd5b6000611413600161140b600c5490565b859190611ee9565b6001600160a01b0385166000908152600f6020526040902060018101549192509060ff166114ad57600d8054600180820183556000929092527fd7b6990105719101dabeb77144f2a3385c8033acd3af97e9423a695e81ad1eb50180546001600160a01b0319166001600160a01b038816908117909155828201805460ff19169092179091558282556114a890333087611fb1565b6114f0565b6001600160a01b0385166000908152600f6020526040812080548492906114d5908490612cb8565b909155506114f090506001600160a01b038616333087611fb1565b846001600160a01b03167fac24935fd910bc682b5ccb1a07b718cadf8cf2f6d1404c4f3ddc3662dae40e298560405161152b91815260200190565b60405180910390a25050505050565b3360009081526003602052604081208054839190839061155b908490612b1e565b90915550506001600160a01b03831660008181526003602052604090819020805485019055513390600080516020612e6a83398151915290610b369086815260200190565b6000806115ac60025490565b90508015610bf857610bf36115bf610981565b849083611d1e565b60006115d1611f87565b6001600160a01b0383166115f75760405162461bcd60e51b8152600401610fe290612c73565b6001600160a01b03821661161d5760405162461bcd60e51b8152600401610fe290612ccb565b61162684610b47565b9050806000036116485760405162461bcd60e51b8152600401610fe290612d0c565b6001600160a01b0382166000908152600e60205260409020548111156116805760405162461bcd60e51b8152600401610fe290612d3e565b61168a8484612298565b61169482856122dd565b6116c86001600160a01b037f000000000000000000000000000000000000000000000000000000000000000016848661233f565b826001600160a01b0316826001600160a01b03167ff341246adaac6f497bc2a656f546ab9e182111d630394f0c57c710a59a2cb5678684604051611716929190918252602082015260400190565b60405180910390a3610bfa6001600b55565b6000611732611f87565b6001600160a01b0383166117585760405162461bcd60e51b8152600401610fe290612c73565b6001600160a01b03821661177e5760405162461bcd60e51b8152600401610fe290612ccb565b61178784610e9f565b9050806000036117a95760405162461bcd60e51b8152600401610fe290612d0c565b336000908152600e60205260409020548411156117d85760405162461bcd60e51b8152600401610fe290612d3e565b6117e28184612298565b6117ec82856122dd565b6118206001600160a01b037f000000000000000000000000000000000000000000000000000000000000000016848361233f565b826001600160a01b0316826001600160a01b03167ff341246adaac6f497bc2a656f546ab9e182111d630394f0c57c710a59a2cb5678387604051611716929190918252602082015260400190565b6060600d8054806020026020016040519081016040528092919081815260200182805480156118c657602002820191906000526020600020905b81546001600160a01b031681526001909101906020018083116118a8575b5050505050905090565b600d5460085460009182916001600160a01b031682808381036119415760405162461bcd60e51b815260206004820152602360248201527f4865646572615661756c743a204e6f2072657761726420746f6b656e732065786044820152621a5cdd60ea1b6064820152608401610fe2565b875b848110156119fd57600d818154811061195e5761195e612c24565b6000918252602090912001546001600160a01b0316925061197f3384610ec6565b6001600160a01b038085166000818152600f6020908152604080832054338452600e835281842094845260029094019091529020559092508416156119e1576119dc886119cb846123b7565b6001600160a01b038616919061233f565b6119f5565b6119f56001600160a01b038416898461233f565b600101611943565b50969792965091945050505050565b6000610a4782610ce1565b42841015611a615760405162461bcd60e51b815260206004820152601760248201527614115493525517d11150511312539157d1561412549151604a1b6044820152606401610fe2565b60006001611a6d610e11565b6001600160a01b038a811660008181526005602090815260409182902080546001810190915582517f6e71edae12b1b97f4d1f60370fef10105fa2faae0126114a169c64845d6126c98184015280840194909452938d166060840152608083018c905260a083019390935260c08083018b90528151808403909101815260e08301909152805192019190912061190160f01b6101008301526101028201929092526101228101919091526101420160408051601f198184030181528282528051602091820120600084529083018083525260ff871690820152606081018590526080810184905260a0016020604051602081039080840390855afa158015611b79573d6000803e3d6000fd5b5050604051601f1901519150506001600160a01b03811615801590611baf5750876001600160a01b0316816001600160a01b0316145b611bec5760405162461bcd60e51b815260206004820152600e60248201526d24a72b20a624a22fa9a4a3a722a960911b6044820152606401610fe2565b6001600160a01b0390811660009081526004602090815260408083208a8516808552908352928190208990555188815291928a16917f8c5be1e5ebec7d5bd14f71427d1e84f3dd0314c0f7b2291e5b200ac8c7c3b925910160405180910390a350505050505050565b600082815260066020526040902060010154611c7081611d44565b610d288383611e7c565b600080611c8660025490565b90508015610bf857610bf3600161140b610981565b7f74e458455daa935f28c556b43e0cc4ad001a8a090f5feee376681e97d4618f46611cc581611d44565b611cdc8260000151836020015184604001516124c1565b5050565b611ce8612219565b6001600160a01b038116611d12576000604051631e4fbdf760e01b8152600401610fe291906128fb565b611d1b81612246565b50565b6000826000190484118302158202611d3557600080fd5b50910281810615159190040190565b611d1b813361257f565b6000611d5a83836110c7565b611dda5760008381526006602090815260408083206001600160a01b03861684529091529020805460ff19166001179055611d923390565b6001600160a01b0316826001600160a01b0316847f2f8788117e7eff1d82e926ec794901d17c78024a50270940304540a733656f0d60405160405180910390a4506001610a47565b506000610a47565b60007f8b73c3c69bb8fe3d512ecc4cf759cc79239f7b179b0ffacaa9a75d522b39400f6000604051611e149190612d8a565b6040805191829003822060208301939093528101919091527fc89efdaa54c0f20c7adf612882df0950f5a951637e0307cdcb4c672f298b8bc660608201524660808201523060a082015260c00160405160208183030381529060405280519060200120905090565b6000611e8883836110c7565b15611dda5760008381526006602090815260408083206001600160a01b0386168085529252808320805460ff1916905551339286917ff6391f5c32d9c69d2a47ea670b442974b53935d1edc7fd64eb21e047a839171b9190a4506001610a47565b6000826000190484118302158202611f0057600080fd5b5091020490565b6000612710611f168385612c3a565b1015611f705760405162461bcd60e51b8152602060048201526024808201527f46433a20546f6f20736d616c6c20616d6f756e7420746f20636f6e73696465726044820152632066656560e01b6064820152608401610fe2565b612710611f7d8385612c3a565b610bfa9190612c51565b6002600b5403611faa57604051633ee5aeb560e01b815260040160405180910390fd5b6002600b55565b60006040516323b872dd60e01b81528460048201528360248201528260448201526020600060648360008a5af13d15601f3d11600160005114161716915050806120345760405162461bcd60e51b81526020600482015260146024820152731514905394d1915497d19493d357d1905253115160621b6044820152606401610fe2565b5050505050565b806002600082825461204d9190612cb8565b90915550506001600160a01b038216600081815260036020908152604080832080548601905551848152600080516020612e6a83398151915291015b60405180910390a35050565b336000908152600e602052604090206003015460ff1661215e57600d5460005b81811015612117576000600d82815481106120d2576120d2612c24565b60009182526020808320909101546001600160a01b0316808352600f8252604080842054338552600e84528185209285526002909201909252912055506001016120b5565b50336000908152600e6020526040812084815560038101805460ff1916600190811790915542910155600c8054859290612152908490612cb8565b90915550611cdc915050565b336000908152600e602052604081205490036121b757336000908152600e602052604081208054849290612193908490612cb8565b9250508190555081600c60008282546121ac9190612cb8565b90915550611cdc9050565b6121c26000826118d0565b5050336000908152600e6020526040812080548492906121e3908490612cb8565b9091555050336000908152600e6020526040812042600190910155600c8054849290612210908490612cb8565b90915550505050565b600a546001600160a01b031633146110c5573360405163118cdaa760e01b8152600401610fe291906128fb565b600a80546001600160a01b038381166001600160a01b0319831681179093556040519116919082907f8be0079c531659141344cd1fd0a4f28419497f9722a3daafe3b4186f6b6457e090600090a35050565b6122a36000826118d0565b5050336000908152600e6020526040812080548492906122c4908490612b1e565b9250508190555081600c60008282546122109190612b1e565b6001600160a01b03821660009081526003602052604081208054839290612305908490612b1e565b90915550506002805482900390556040518181526000906001600160a01b03841690600080516020612e6a83398151915290602001612089565b600060405163a9059cbb60e01b8152836004820152826024820152602060006044836000895af13d15601f3d1160016000511416171691505080610d285760405162461bcd60e51b815260206004820152600f60248201526e1514905394d1915497d19052531151608a1b6044820152606401610fe2565b6008546009546000916001600160a01b03169082906123d7908590611f07565b905080826001600160a01b03166370a08231306040518263ffffffff1660e01b815260040161240691906128fb565b602060405180830381865afa158015612423573d6000803e3d6000fd5b505050506040513d601f19601f820116820180604052508101906124479190612ab5565b10156124955760405162461bcd60e51b815260206004820152601e60248201527f46433a20496e73756666696369656e7420746f6b656e2062616c616e636500006044820152606401610fe2565b6007546124af906001600160a01b038481169116836125b8565b6124b98185612b1e565b949350505050565b61271081106125045760405162461bcd60e51b815260206004820152600f60248201526e46433a20496e76616c69642066656560881b6044820152606401610fe2565b600780546001600160a01b038581166001600160a01b0319928316811790935560088054918616919092168117909155600983905560408051928352602083019190915281018290527febd34b2df88ea5c9f67c04b13b08e5e63c2d17e269aab73b866fe47a8736a2649060600160405180910390a1505050565b61258982826110c7565b611cdc5760405163e2517d3f60e01b81526001600160a01b038216600482015260248101839052604401610fe2565b604080516001600160a01b03848116602483015260448083018590528351808403909101815260649092019092526020810180516001600160e01b031663a9059cbb60e01b179052610e9a918591906000906126169084168361265b565b9050805160001415801561263b5750808060200190518101906126399190612e2b565b155b15610e9a5782604051635274afe760e01b8152600401610fe291906128fb565b6060610bfa8383600084600080856001600160a01b031684866040516126819190612e4d565b60006040518083038185875af1925050503d80600081146126be576040519150601f19603f3d011682016040523d82523d6000602084013e6126c3565b606091505b50915091506126d38683836126dd565b9695505050505050565b6060826126ed57610bf38261272b565b815115801561270457506001600160a01b0384163b155b156127245783604051639996b31560e01b8152600401610fe291906128fb565b5080610bfa565b80511561273b5780518082602001fd5b604051630a12f52160e11b815260040160405180910390fd5b60006020828403121561276657600080fd5b81356001600160e01b031981168114610bfa57600080fd5b60005b83811015612799578181015183820152602001612781565b50506000910152565b60208152600082518060208401526127c181604085016020870161277e565b601f01601f19169190910160400192915050565b80356001600160a01b03811681146127ec57600080fd5b919050565b6000806040838503121561280457600080fd5b61280d836127d5565b946020939093013593505050565b60006020828403121561282d57600080fd5b5035919050565b60008060006060848603121561284957600080fd5b612852846127d5565b9250612860602085016127d5565b9150604084013590509250925092565b60006020828403121561288257600080fd5b610bfa826127d5565b6000806040838503121561289e57600080fd5b823591506128ae602084016127d5565b90509250929050565b6020808252825182820181905260009190848201906040850190845b818110156128ef578351835292840192918401916001016128d3565b50909695505050505050565b6001600160a01b0391909116815260200190565b6000806040838503121561292257600080fd5b61292b836127d5565b91506128ae602084016127d5565b60008060006060848603121561294e57600080fd5b8335925061295e602085016127d5565b915061296c604085016127d5565b90509250925092565b6020808252825182820181905260009190848201906040850190845b818110156128ef5783516001600160a01b031683529284019291840191600101612991565b600080600080600080600060e0888a0312156129d157600080fd5b6129da886127d5565b96506129e8602089016127d5565b95506040880135945060608801359350608088013560ff81168114612a0c57600080fd5b9699959850939692959460a0840135945060c09093013592915050565b634e487b7160e01b600052604160045260246000fd5b600060608284031215612a5157600080fd5b6040516060810181811067ffffffffffffffff82111715612a8257634e487b7160e01b600052604160045260246000fd5b604052612a8e836127d5565b8152612a9c602084016127d5565b6020820152604083013560408201528091505092915050565b600060208284031215612ac757600080fd5b5051919050565b600181811c90821680612ae257607f821691505b602082108103612b0257634e487b7160e01b600052602260045260246000fd5b50919050565b634e487b7160e01b600052601160045260246000fd5b81810381811115610a4757610a47612b08565b600181815b80851115612b6c578160001904821115612b5257612b52612b08565b80851615612b5f57918102915b93841c9390800290612b36565b509250929050565b600082612b8357506001610a47565b81612b9057506000610a47565b8160018114612ba65760028114612bb057612bcc565b6001915050610a47565b60ff841115612bc157612bc1612b08565b50506001821b610a47565b5060208310610133831016604e8410600b8410161715612bef575081810a610a47565b612bf98383612b31565b8060001904821115612c0d57612c0d612b08565b029392505050565b6000610bfa60ff841683612b74565b634e487b7160e01b600052603260045260246000fd5b8082028115828204841417610a4757610a47612b08565b600082612c6e57634e487b7160e01b600052601260045260246000fd5b500490565b60208082526025908201527f4865646572615661756c743a20496e76616c6964207265636569766572206164604082015264647265737360d81b606082015260800190565b80820180821115610a4757610a47612b08565b60208082526021908201527f4865646572615661756c743a20496e76616c69642066726f6d206164647265736040820152607360f81b606082015260800190565b6020808252601890820152774865646572615661756c743a205a65726f2061737365747360401b604082015260600190565b6020808252602c908201527f4865646572615661756c743a204e6f7420656e6f756768207368617265206f6e60408201526b207468652062616c616e636560a01b606082015260800190565b60008083548160018260011c91506001831680612da857607f831692505b60208084108203612dc757634e487b7160e01b86526022600452602486fd5b818015612ddb5760018114612df057612e1d565b60ff1986168952841515850289019650612e1d565b60008a81526020902060005b86811015612e155781548b820152908501908301612dfc565b505084890196505b509498975050505050505050565b600060208284031215612e3d57600080fd5b81518015158114610bfa57600080fd5b60008251612e5f81846020870161277e565b919091019291505056feddf252ad1be2c89b69c2b068fc378daa952ba7f163c4a11628f55a4df523b3efa264697066735822122027e31607cc5c66263b6944edcd65f129575a444fa194792d1dbeb6f3b6ebd3ce64736f6c63430008180033",
  "linkReferences": {},
  "deployedLinkReferences": {}
}