{
  "_format": "hh-sol-artifact-1",
  "contractName": "Building",
  "sourceName": "contracts/buildings/Building.sol",
  "abi": [
    {
      "inputs": [],
      "stateMutability": "nonpayable",
      "type": "constructor"
    },
    {
      "inputs": [],
      "name": "InvalidInitialization",
      "type": "error"
    },
    {
      "inputs": [],
      "name": "NotInitializing",
      "type": "error"
    },
    {
      "inputs": [
        {
          "internalType": "address",
          "name": "owner",
          "type": "address"
        }
      ],
      "name": "OwnableInvalidOwner",
      "type": "error"
    },
    {
      "inputs": [
        {
          "internalType": "address",
          "name": "account",
          "type": "address"
        }
      ],
      "name": "OwnableUnauthorizedAccount",
      "type": "error"
    },
    {
      "anonymous": false,
      "inputs": [
        {
          "indexed": false,
          "internalType": "bool",
          "name": "",
          "type": "bool"
        },
        {
          "indexed": false,
          "internalType": "bytes",
          "name": "",
          "type": "bytes"
        }
      ],
      "name": "CallResponseEvent",
      "type": "event"
    },
    {
      "anonymous": false,
      "inputs": [
        {
          "indexed": false,
          "internalType": "uint64",
          "name": "version",
          "type": "uint64"
        }
      ],
      "name": "Initialized",
      "type": "event"
    },
    {
      "anonymous": false,
      "inputs": [
        {
          "indexed": false,
          "internalType": "address",
          "name": "addr",
          "type": "address"
        }
      ],
      "name": "NewAuditRegistry",
      "type": "event"
    },
    {
      "anonymous": false,
      "inputs": [
        {
          "indexed": true,
          "internalType": "address",
          "name": "previousOwner",
          "type": "address"
        },
        {
          "indexed": true,
          "internalType": "address",
          "name": "newOwner",
          "type": "address"
        }
      ],
      "name": "OwnershipTransferred",
      "type": "event"
    },
    {
      "inputs": [
        {
          "internalType": "address",
          "name": "tokenA",
          "type": "address"
        },
        {
          "internalType": "uint256",
          "name": "tokenAAmount",
          "type": "uint256"
        },
        {
          "internalType": "address",
          "name": "tokenB",
          "type": "address"
        },
        {
          "internalType": "uint256",
          "name": "tokenBAmount",
          "type": "uint256"
        }
      ],
      "name": "addLiquidity",
      "outputs": [
        {
          "internalType": "uint256",
          "name": "amountA",
          "type": "uint256"
        },
        {
          "internalType": "uint256",
          "name": "amountB",
          "type": "uint256"
        },
        {
          "internalType": "uint256",
          "name": "liquidity",
          "type": "uint256"
        },
        {
          "internalType": "address",
          "name": "pair",
          "type": "address"
        }
      ],
      "stateMutability": "payable",
      "type": "function"
    },
    {
      "inputs": [
        {
          "internalType": "address",
          "name": "callableContract",
          "type": "address"
        },
        {
          "internalType": "bytes",
          "name": "data",
          "type": "bytes"
        }
      ],
      "name": "callContract",
      "outputs": [
        {
          "internalType": "bytes",
          "name": "",
          "type": "bytes"
        }
      ],
      "stateMutability": "payable",
      "type": "function"
    },
    {
      "inputs": [],
      "name": "getAuditRegistry",
      "outputs": [
        {
          "internalType": "address",
          "name": "",
          "type": "address"
        }
      ],
      "stateMutability": "view",
      "type": "function"
    },
    {
      "inputs": [],
      "name": "getUniswapFactory",
      "outputs": [
        {
          "internalType": "address",
          "name": "",
          "type": "address"
        }
      ],
      "stateMutability": "view",
      "type": "function"
    },
    {
      "inputs": [],
      "name": "getUniswapRouter",
      "outputs": [
        {
          "internalType": "address",
          "name": "",
          "type": "address"
        }
      ],
      "stateMutability": "view",
      "type": "function"
    },
    {
      "inputs": [
        {
          "internalType": "address",
          "name": "_uniswapRouter",
          "type": "address"
        },
        {
          "internalType": "address",
          "name": "_uniswapFactory",
          "type": "address"
        },
        {
          "internalType": "address",
          "name": "_initialOwner",
          "type": "address"
        }
      ],
      "name": "initialize",
      "outputs": [],
      "stateMutability": "nonpayable",
      "type": "function"
    },
    {
      "inputs": [
        {
          "internalType": "address",
          "name": "",
          "type": "address"
        },
        {
          "internalType": "address",
          "name": "",
          "type": "address"
        },
        {
          "internalType": "uint256",
          "name": "",
          "type": "uint256"
        },
        {
          "internalType": "bytes",
          "name": "",
          "type": "bytes"
        }
      ],
      "name": "onERC721Received",
      "outputs": [
        {
          "internalType": "bytes4",
          "name": "",
          "type": "bytes4"
        }
      ],
      "stateMutability": "pure",
      "type": "function"
    },
    {
      "inputs": [],
      "name": "owner",
      "outputs": [
        {
          "internalType": "address",
          "name": "",
          "type": "address"
        }
      ],
      "stateMutability": "view",
      "type": "function"
    },
    {
      "inputs": [
        {
          "internalType": "address",
          "name": "token",
          "type": "address"
        },
        {
          "internalType": "bytes",
          "name": "encodedFunctionSelector",
          "type": "bytes"
        }
      ],
      "name": "redirectForToken",
      "outputs": [
        {
          "internalType": "int256",
          "name": "responseCode",
          "type": "int256"
        },
        {
          "internalType": "bytes",
          "name": "response",
          "type": "bytes"
        }
      ],
      "stateMutability": "nonpayable",
      "type": "function"
    },
    {
      "inputs": [],
      "name": "renounceOwnership",
      "outputs": [],
      "stateMutability": "nonpayable",
      "type": "function"
    },
    {
      "inputs": [
        {
          "internalType": "address",
          "name": "token",
          "type": "address"
        },
        {
          "internalType": "address",
          "name": "from",
          "type": "address"
        },
        {
          "internalType": "address",
          "name": "to",
          "type": "address"
        },
        {
          "internalType": "uint256",
          "name": "amount",
          "type": "uint256"
        }
      ],
      "name": "transferFrom",
      "outputs": [
        {
          "internalType": "int64",
          "name": "responseCode",
          "type": "int64"
        }
      ],
      "stateMutability": "nonpayable",
      "type": "function"
    },
    {
      "inputs": [
        {
          "internalType": "address",
          "name": "token",
          "type": "address"
        },
        {
          "internalType": "address",
          "name": "from",
          "type": "address"
        },
        {
          "internalType": "address",
          "name": "to",
          "type": "address"
        },
        {
          "internalType": "uint256",
          "name": "serialNumber",
          "type": "uint256"
        }
      ],
      "name": "transferFromNFT",
      "outputs": [
        {
          "internalType": "int64",
          "name": "responseCode",
          "type": "int64"
        }
      ],
      "stateMutability": "nonpayable",
      "type": "function"
    },
    {
      "inputs": [
        {
          "internalType": "address",
          "name": "newOwner",
          "type": "address"
        }
      ],
      "name": "transferOwnership",
      "outputs": [],
      "stateMutability": "nonpayable",
      "type": "function"
    }
  ],
  "bytecode": "0x608060405234801561001057600080fd5b5061001961001e565b6100d0565b7ff0c57e16840df040f15088dc2f81fe391c3923bec73e23a9662efc9c229c6a00805468010000000000000000900460ff161561006e5760405163f92ee8a960e01b815260040160405180910390fd5b80546001600160401b03908116146100cd5780546001600160401b0319166001600160401b0390811782556040519081527fc7f505b2f371ae2175ee4913f4499e1f2633a7b5936321eed1cdaeb6115181d29060200160405180910390a15b50565b61263c806100df6000396000f3fe6080604052600436106100b25760003560e01c8063618dc65e1161006f578063618dc65e146101cb578063715018a6146101f95780638da5cb5b146102105780639b23d3d914610225578063bb6e15dc14610245578063c0c53b8b1461025a578063f2fde38b1461027a57600080fd5b806303710668146100b7578063150b7a02146100e057806315dacbea14610125578063376d3d5d146101585780633e6dfa3614610194578063524900b5146101b6575b600080fd5b6100ca6100c5366004610df7565b61029a565b6040516100d79190610f0b565b60405180910390f35b3480156100ec57600080fd5b5061010c6100fb366004610f1e565b630a85bd0160e11b95945050505050565b6040516001600160e01b031990911681526020016100d7565b34801561013157600080fd5b50610145610140366004610fbd565b6102b7565b60405160079190910b81526020016100d7565b61016b61016636600461100e565b61039a565b604080519485526020850193909352918301526001600160a01b031660608201526080016100d7565b3480156101a057600080fd5b506101a96104a5565b6040516100d79190611046565b3480156101c257600080fd5b506101a96104c3565b3480156101d757600080fd5b506101eb6101e6366004610df7565b6104de565b6040516100d792919061105a565b34801561020557600080fd5b5061020e6105fc565b005b34801561021c57600080fd5b506101a9610610565b34801561023157600080fd5b50610145610240366004610fbd565b610639565b34801561025157600080fd5b506101a9610669565b34801561026657600080fd5b5061020e610275366004611073565b610692565b34801561028657600080fd5b5061020e6102953660046110be565b6107b6565b60606102a46107fd565b6102ae838361082f565b90505b92915050565b60008060006101676001600160a01b03166315dacbea60e01b888888886040516024016102e794939291906110e2565b60408051601f198184030181529181526020820180516001600160e01b03166001600160e01b0319909416939093179092529051610325919061110c565b6000604051808303816000865af19150503d8060008114610362576040519150601f19603f3d011682016040523d82523d6000602084013e610367565b606091505b50915091508161037857601561038c565b8080602001905181019061038c9190611128565b60030b979650505050505050565b60008080806001600160a01b0388166323b872dd33308a6040518463ffffffff1660e01b81526004016103cf9392919061114b565b6020604051808303816000875af11580156103ee573d6000803e3d6000fd5b505050506040513d601f19601f82011682018060405250810190610412919061116f565b506040516323b872dd60e01b81526001600160a01b038716906323b872dd9061044390339030908a9060040161114b565b6020604051808303816000875af1158015610462573d6000803e3d6000fd5b505050506040513d601f19601f82011682018060405250810190610486919061116f565b50610493888789886108e1565b929b919a509850909650945050505050565b6000806104b0610bbd565b600101546001600160a01b031692915050565b6000806104ce610bbd565b546001600160a01b031692915050565b600060606000806101676001600160a01b031663618dc65e60e01b878760405160240161050c929190611191565b60408051601f198184030181529181526020820180516001600160e01b03166001600160e01b031990941693909317909252905161054a919061110c565b6000604051808303816000865af19150503d8060008114610587576040519150601f19603f3d011682016040523d82523d6000602084013e61058c565b606091505b50915091507f4af4780e06fe8cb9df64b0794fa6f01399af979175bb988e35e0e57e594567bc82826040516105c29291906111b5565b60405180910390a1816105e6576015604051806020016040528060008152506105ea565b6016815b60039190910b97909650945050505050565b6106046107fd565b61060e6000610be1565b565b6000807f9016d09d72d40fdae2fd8ceac6b6234c7706214fd39c1cd1e609a0528c1993006104ce565b60008060006101676001600160a01b0316639b23d3d960e01b888888886040516024016102e794939291906110e2565b6000807f1398114c786fd2d5dbcf29c302f594800c3b9ea470c98dbb34a8fb40a97e71006104ce565b7ff0c57e16840df040f15088dc2f81fe391c3923bec73e23a9662efc9c229c6a008054600160401b810460ff16159067ffffffffffffffff166000811580156106d85750825b905060008267ffffffffffffffff1660011480156106f55750303b155b905081158015610703575080155b156107215760405163f92ee8a960e01b815260040160405180910390fd5b845467ffffffffffffffff19166001178555831561074b57845460ff60401b1916600160401b1785555b61075486610c52565b61075e8888610c63565b610766610ca8565b83156107ac57845460ff60401b19168555604051600181527fc7f505b2f371ae2175ee4913f4499e1f2633a7b5936321eed1cdaeb6115181d29060200160405180910390a15b5050505050505050565b6107be6107fd565b6001600160a01b0381166107f1576000604051631e4fbdf760e01b81526004016107e89190611046565b60405180910390fd5b6107fa81610be1565b50565b33610806610610565b6001600160a01b03161461060e573360405163118cdaa760e01b81526004016107e89190611046565b6060600080846001600160a01b0316348560405161084d919061110c565b60006040518083038185875af1925050503d806000811461088a576040519150601f19603f3d011682016040523d82523d6000602084013e61088f565b606091505b5091509150816108d95760405162461bcd60e51b8152602060048201526015602482015274109d5a5b191a5b99ce8818d85b1b0819985a5b1959605a1b60448201526064016107e8565b949350505050565b60008060008060006108f1610bbd565b600181015460405163e6a4390560e01b81526001600160a01b038c811660048301528b8116602483015292935091169063e6a4390590604401602060405180830381865afa158015610947573d6000803e3d6000fd5b505050506040513d601f19601f8201168201806040525081019061096b91906111d0565b91506001600160a01b0382166109f85760018101546040516364e329cb60e11b81526001600160a01b038b811660048301528a811660248301529091169063c9c65396906044016020604051808303816000875af11580156109d1573d6000803e3d6000fd5b505050506040513d601f19601f820116820180604052508101906109f591906111d0565b91505b805460405163095ea7b360e01b81526001600160a01b03918216600482015260248101899052908a169063095ea7b3906044016020604051808303816000875af1158015610a4a573d6000803e3d6000fd5b505050506040513d601f19601f82011682018060405250810190610a6e919061116f565b50805460405163095ea7b360e01b81526001600160a01b039182166004820152602481018890529089169063095ea7b3906044016020604051808303816000875af1158015610ac1573d6000803e3d6000fd5b505050506040513d601f19601f82011682018060405250810190610ae5919061116f565b5080546001600160a01b031663e8e337008a8a8a8a818130610b094261012c6111ed565b60405160e08a901b6001600160e01b03191681526001600160a01b039889166004820152968816602488015260448701959095526064860193909352608485019190915260a484015290921660c482015260e4810191909152610104016060604051808303816000875af1158015610b85573d6000803e3d6000fd5b505050506040513d601f19601f82011682018060405250810190610ba9919061120e565b919b909a5090985091965090945050505050565b7f75fd97eeafae39525b32773f2af3e4b201521c02695ece8bd2fe94e4c5024f0090565b7f9016d09d72d40fdae2fd8ceac6b6234c7706214fd39c1cd1e609a0528c19930080546001600160a01b031981166001600160a01b03848116918217845560405192169182907f8be0079c531659141344cd1fd0a4f28419497f9722a3daafe3b4186f6b6457e090600090a3505050565b610c5a610cf6565b6107fa81610d3f565b610c6b610cf6565b6000610c75610bbd565b80546001600160a01b039485166001600160a01b0319918216178255600190910180549390941692169190911790915550565b610cb0610cf6565b7f1398114c786fd2d5dbcf29c302f594800c3b9ea470c98dbb34a8fb40a97e7100610cd9610d50565b81546001600160a01b0319166001600160a01b0391909116179055565b7ff0c57e16840df040f15088dc2f81fe391c3923bec73e23a9662efc9c229c6a0054600160401b900460ff1661060e57604051631afcd79f60e31b815260040160405180910390fd5b610d47610cf6565b6107fa81610db7565b6000604051610d5e90610dbf565b604051809103906000f080158015610d7a573d6000803e3d6000fd5b5090507f86391fba409e44e3af18aa6478dfccdb9b93ae68a497e6bbe24ff16b75196f1881604051610dac9190611046565b60405180910390a190565b6107be610cf6565b6113ca8061123d83390190565b6001600160a01b03811681146107fa57600080fd5b634e487b7160e01b600052604160045260246000fd5b60008060408385031215610e0a57600080fd5b8235610e1581610dcc565b9150602083013567ffffffffffffffff80821115610e3257600080fd5b818501915085601f830112610e4657600080fd5b813581811115610e5857610e58610de1565b604051601f8201601f19908116603f01168101908382118183101715610e8057610e80610de1565b81604052828152886020848701011115610e9957600080fd5b8260208601602083013760006020848301015280955050505050509250929050565b60005b83811015610ed6578181015183820152602001610ebe565b50506000910152565b60008151808452610ef7816020860160208601610ebb565b601f01601f19169290920160200192915050565b6020815260006102ae6020830184610edf565b600080600080600060808688031215610f3657600080fd5b8535610f4181610dcc565b94506020860135610f5181610dcc565b935060408601359250606086013567ffffffffffffffff80821115610f7557600080fd5b818801915088601f830112610f8957600080fd5b813581811115610f9857600080fd5b896020828501011115610faa57600080fd5b9699959850939650602001949392505050565b60008060008060808587031215610fd357600080fd5b8435610fde81610dcc565b93506020850135610fee81610dcc565b92506040850135610ffe81610dcc565b9396929550929360600135925050565b6000806000806080858703121561102457600080fd5b843561102f81610dcc565b9350602085013592506040850135610ffe81610dcc565b6001600160a01b0391909116815260200190565b8281526040602082015260006108d96040830184610edf565b60008060006060848603121561108857600080fd5b833561109381610dcc565b925060208401356110a381610dcc565b915060408401356110b381610dcc565b809150509250925092565b6000602082840312156110d057600080fd5b81356110db81610dcc565b9392505050565b6001600160a01b039485168152928416602084015292166040820152606081019190915260800190565b6000825161111e818460208701610ebb565b9190910192915050565b60006020828403121561113a57600080fd5b81518060030b81146110db57600080fd5b6001600160a01b039384168152919092166020820152604081019190915260600190565b60006020828403121561118157600080fd5b815180151581146110db57600080fd5b6001600160a01b03831681526040602082018190526000906108d990830184610edf565b82151581526040602082015260006108d96040830184610edf565b6000602082840312156111e257600080fd5b81516110db81610dcc565b808201808211156102b157634e487b7160e01b600052601160045260246000fd5b60008060006060848603121561122357600080fd5b835192506020840151915060408401519050925092509256fe608060405234801561001057600080fd5b5061001c600033610022565b506100ce565b6000828152602081815260408083206001600160a01b038516845290915281205460ff166100c4576000838152602081815260408083206001600160a01b03861684529091529020805460ff1916600117905561007c3390565b6001600160a01b0316826001600160a01b0316847f2f8788117e7eff1d82e926ec794901d17c78024a50270940304540a733656f0d60405160405180910390a45060016100c8565b5060005b92915050565b6112ed806100dd6000396000f3fe608060405234801561001057600080fd5b50600436106100f65760003560e01c80636e1d616e116100925780636e1d616e146101eb57806391d1485414610200578063a217fddf14610213578063c9e398441461021b578063d547741f1461022e578063e429cef114610241578063e6116cfd14610254578063e74e786d14610267578063e95cf4441461028b57600080fd5b806301ffc9a7146100fb578063129b25af14610123578063237f4bcc14610138578063248a9ca3146101585780632f2ff15d1461018957806336568abe1461019c5780633f76730f146101af5780634afb29c6146101cf5780635949ea69146101d8575b600080fd5b61010e610109366004610caf565b61029e565b60405190151581526020015b60405180910390f35b610136610131366004610d45565b6102d5565b005b61014b610146366004610d98565b6104f1565b60405161011a9190610db3565b61017b610166366004610df7565b60009081526020819052604090206001015490565b60405190815260200161011a565b610136610197366004610e10565b61055d565b6101366101aa366004610e10565b610588565b6101c26101bd366004610df7565b6105c0565b60405161011a9190610e82565b61017b60015481565b6101366101e6366004610ee0565b6106d7565b61017b60008051602061129883398151915281565b61010e61020e366004610e10565b61080d565b61017b600081565b610136610229366004610df7565b610836565b61013661023c366004610e10565b61092d565b61013661024f366004610d98565b610952565b610136610262366004610d98565b610a12565b61027a610275366004610df7565b610a6d565b60405161011a959493929190610f13565b61017b610299366004610f58565b610b37565b60006001600160e01b03198216637965db0b60e01b14806102cf57506301ffc9a760e01b6001600160e01b03198316145b92915050565b6000805160206112988339815191526102ed81610b68565b6001600160a01b0384166103585760405162461bcd60e51b815260206004820152602760248201527f417564697452656769737472793a20496e76616c6964206275696c64696e67206044820152666164647265737360c81b60648201526084015b60405180910390fd5b816103755760405162461bcd60e51b815260040161034f90610f82565b6001805490600061038583610fc6565b9190505550600060015490506040518060a00160405280866001600160a01b03168152602001336001600160a01b0316815260200185858080601f01602080910402602001604051908101604052809392919081815260200183838082843760009201829052509385525050426020808501919091526040938401839052858352600280825292849020855181546001600160a01b03199081166001600160a01b039283161783559287015160018301805490941691161790915592840151918301916104539150826110a2565b5060608201516003828101919091556080909201516004909101805460ff19169115159190911790556001600160a01b038616600081815260209283526040808220805460018101825590835293909120909201839055905133919083907f9238fb7e1f523c52ddf4024bdcb41357b62ed007c90dac38ee13e1c72e0c0a80906104e29089908990429061115c565b60405180910390a45050505050565b6001600160a01b03811660009081526003602090815260409182902080548351818402810184019094528084526060939283018282801561055157602002820191906000526020600020905b81548152602001906001019080831161053d575b50505050509050919050565b60008281526020819052604090206001015461057881610b68565b6105828383610b75565b50505050565b6001600160a01b03811633146105b15760405163334bd91960e11b815260040160405180910390fd5b6105bb8282610c07565b505050565b6040805160a08101825260008082526020820181905260609282018390529181018290526080810191909152600082815260026020818152604092839020835160a08101855281546001600160a01b039081168252600183015416928101929092529182018054919384019161063590611003565b80601f016020809104026020016040519081016040528092919081815260200182805461066190611003565b80156106ae5780601f10610683576101008083540402835291602001916106ae565b820191906000526020600020905b81548152906001019060200180831161069157829003601f168201915b50505091835250506003820154602082015260049091015460ff16151560409091015292915050565b6000805160206112988339815191526106ef81610b68565b8161070c5760405162461bcd60e51b815260040161034f90610f82565b600084815260026020526040902060018101546001600160a01b031633146107465760405162461bcd60e51b815260040161034f90611195565b600481015460ff16156107b15760405162461bcd60e51b815260206004820152602d60248201527f417564697452656769737472793a2043616e6e6f74207570646174652061207260448201526c195d9bdad959081c9958dbdc99609a1b606482015260840161034f565b600281016107c08486836111dc565b50428160030181905550847f7d88a6413bdea2f765837b2027d150e8d9eff6811a00e7b32ce22566577ae3218585426040516107fe9392919061115c565b60405180910390a25050505050565b6000918252602082815260408084206001600160a01b0393909316845291905290205460ff1690565b60008051602061129883398151915261084e81610b68565b600082815260026020526040902060018101546001600160a01b031633146108885760405162461bcd60e51b815260040161034f90611195565b600481015460ff16156108dd5760405162461bcd60e51b815260206004820152601e60248201527f417564697452656769737472793a20416c7265616479207265766f6b65640000604482015260640161034f565b60048101805460ff1916600117905560405183907fe4839e81aa65ee9120ee35c9291915fa224f6ae0bfab747215ee7f0b5368a193906109209042815260200190565b60405180910390a2505050565b60008281526020819052604090206001015461094881610b68565b6105828383610c07565b600061095d81610b68565b6001600160a01b0382166109c25760405162461bcd60e51b815260206004820152602660248201527f417564697452656769737472793a20496e76616c69642061756469746f72206160448201526564647265737360d01b606482015260840161034f565b6109da6000805160206112988339815191528361055d565b6040516001600160a01b038316907f2c31044378cc14466459f09320dd4057d7ad6e99b194c0800c78227383a2529690600090a25050565b6000610a1d81610b68565b610a356000805160206112988339815191528361092d565b6040516001600160a01b038316907fd3e803f2dfdacd206b7d19aa46d847206386d84e3dc6b8de0926e54affa6fddc90600090a25050565b60026020819052600091825260409091208054600182015492820180546001600160a01b03928316949092169291610aa490611003565b80601f0160208091040260200160405190810160405280929190818152602001828054610ad090611003565b8015610b1d5780601f10610af257610100808354040283529160200191610b1d565b820191906000526020600020905b815481529060010190602001808311610b0057829003601f168201915b50505050600383015460049093015491929160ff16905085565b60036020528160005260406000208181548110610b5357600080fd5b90600052602060002001600091509150505481565b610b728133610c72565b50565b6000610b81838361080d565b610bff576000838152602081815260408083206001600160a01b03861684529091529020805460ff19166001179055610bb73390565b6001600160a01b0316826001600160a01b0316847f2f8788117e7eff1d82e926ec794901d17c78024a50270940304540a733656f0d60405160405180910390a45060016102cf565b5060006102cf565b6000610c13838361080d565b15610bff576000838152602081815260408083206001600160a01b0386168085529252808320805460ff1916905551339286917ff6391f5c32d9c69d2a47ea670b442974b53935d1edc7fd64eb21e047a839171b9190a45060016102cf565b610c7c828261080d565b610cab5760405163e2517d3f60e01b81526001600160a01b03821660048201526024810183905260440161034f565b5050565b600060208284031215610cc157600080fd5b81356001600160e01b031981168114610cd957600080fd5b9392505050565b80356001600160a01b0381168114610cf757600080fd5b919050565b60008083601f840112610d0e57600080fd5b50813567ffffffffffffffff811115610d2657600080fd5b602083019150836020828501011115610d3e57600080fd5b9250929050565b600080600060408486031215610d5a57600080fd5b610d6384610ce0565b9250602084013567ffffffffffffffff811115610d7f57600080fd5b610d8b86828701610cfc565b9497909650939450505050565b600060208284031215610daa57600080fd5b610cd982610ce0565b6020808252825182820181905260009190848201906040850190845b81811015610deb57835183529284019291840191600101610dcf565b50909695505050505050565b600060208284031215610e0957600080fd5b5035919050565b60008060408385031215610e2357600080fd5b82359150610e3360208401610ce0565b90509250929050565b6000815180845260005b81811015610e6257602081850181015186830182015201610e46565b506000602082860101526020601f19601f83011685010191505092915050565b60208152600060018060a01b0380845116602084015280602085015116604084015250604083015160a06060840152610ebe60c0840182610e3c565b9050606084015160808401526080840151151560a08401528091505092915050565b600080600060408486031215610ef557600080fd5b83359250602084013567ffffffffffffffff811115610d7f57600080fd5b6001600160a01b0386811682528516602082015260a060408201819052600090610f3f90830186610e3c565b6060830194909452509015156080909101529392505050565b60008060408385031215610f6b57600080fd5b610f7483610ce0565b946020939093013593505050565b60208082526024908201527f417564697452656769737472793a2049504653206861736820697320726571756040820152631a5c995960e21b606082015260800190565b600060018201610fe657634e487b7160e01b600052601160045260246000fd5b5060010190565b634e487b7160e01b600052604160045260246000fd5b600181811c9082168061101757607f821691505b60208210810361103757634e487b7160e01b600052602260045260246000fd5b50919050565b601f8211156105bb576000816000526020600020601f850160051c810160208610156110665750805b601f850160051c820191505b8181101561108557828155600101611072565b505050505050565b600019600383901b1c191660019190911b1790565b815167ffffffffffffffff8111156110bc576110bc610fed565b6110d0816110ca8454611003565b8461103d565b602080601f8311600181146110ff57600084156110ed5750858301515b6110f7858261108d565b865550611085565b600085815260208120601f198616915b8281101561112e5788860151825594840194600190910190840161110f565b508582101561114c5787850151600019600388901b60f8161c191681555b5050505050600190811b01905550565b604081528260408201528284606083013760006060848301015260006060601f19601f8601168301019050826020830152949350505050565b60208082526027908201527f417564697452656769737472793a204e6f7420746865206f726967696e616c2060408201526630bab234ba37b960c91b606082015260800190565b67ffffffffffffffff8311156111f4576111f4610fed565b611208836112028354611003565b8361103d565b6000601f84116001811461123657600085156112245750838201355b61122e868261108d565b845550611290565b600083815260209020601f19861690835b828110156112675786850135825560209485019460019092019101611247565b50868210156112845760001960f88860031b161c19848701351681555b505060018560011b0183555b505050505056fe59a1c48e5837ad7a7f3dcedcbe129bf3249ec4fbf651fd4f5e2600ead39fe2f5a2646970667358221220cd91349aa7b87d7677c7a36565ca9525f8e379d24f32a5c6c7de418ec594745064736f6c63430008180033a2646970667358221220117141df607850110d536c38350ae9d41574496bbe7ddb5690f27c1ea4b1aad964736f6c63430008180033",
  "linkReferences": {},
  "deployedLinkReferences": {}
}