{
  "_format": "hh-sol-artifact-1",
  "contractName": "BuildingFactory",
  "sourceName": "contracts/buildings/BuildingFactory.sol",
  "abi": [
    {
      "inputs": [],
      "name": "InvalidInitialization",
      "type": "error"
    },
    {
      "inputs": [],
      "name": "NotInitializing",
      "type": "error"
    },
    {
      "inputs": [
        {
          "internalType": "address",
          "name": "owner",
          "type": "address"
        }
      ],
      "name": "OwnableInvalidOwner",
      "type": "error"
    },
    {
      "inputs": [
        {
          "internalType": "address",
          "name": "account",
          "type": "address"
        }
      ],
      "name": "OwnableUnauthorizedAccount",
      "type": "error"
    },
    {
      "anonymous": false,
      "inputs": [
        {
          "indexed": false,
          "internalType": "uint64",
          "name": "version",
          "type": "uint64"
        }
      ],
      "name": "Initialized",
      "type": "event"
    },
    {
      "anonymous": false,
      "inputs": [
        {
          "indexed": false,
          "internalType": "address",
          "name": "addr",
          "type": "address"
        }
      ],
      "name": "NewAuditRegistry",
      "type": "event"
    },
    {
      "anonymous": false,
      "inputs": [
        {
          "indexed": false,
          "internalType": "address",
          "name": "addr",
          "type": "address"
        }
      ],
      "name": "NewBuilding",
      "type": "event"
    },
    {
      "anonymous": false,
      "inputs": [
        {
          "indexed": false,
          "internalType": "address",
          "name": "building",
          "type": "address"
        },
        {
          "indexed": false,
          "internalType": "address",
          "name": "token",
          "type": "address"
        }
      ],
      "name": "NewERC3643Token",
      "type": "event"
    },
    {
      "anonymous": false,
      "inputs": [
        {
          "indexed": true,
          "internalType": "address",
          "name": "previousOwner",
          "type": "address"
        },
        {
          "indexed": true,
          "internalType": "address",
          "name": "newOwner",
          "type": "address"
        }
      ],
      "name": "OwnershipTransferred",
      "type": "event"
    },
    {
      "inputs": [
        {
          "internalType": "address",
          "name": "buildingAddress",
          "type": "address"
        },
        {
          "internalType": "address",
          "name": "callableContract",
          "type": "address"
        },
        {
          "internalType": "bytes",
          "name": "data",
          "type": "bytes"
        }
      ],
      "name": "callFromBuilding",
      "outputs": [],
      "stateMutability": "nonpayable",
      "type": "function"
    },
    {
      "inputs": [
        {
          "internalType": "address",
          "name": "buildingAddress",
          "type": "address"
        }
      ],
      "name": "getBuildingDetails",
      "outputs": [
        {
          "components": [
            {
              "internalType": "address",
              "name": "addr",
              "type": "address"
            },
            {
              "internalType": "uint256",
              "name": "nftId",
              "type": "uint256"
            },
            {
              "internalType": "string",
              "name": "tokenURI",
              "type": "string"
            },
            {
              "internalType": "address",
              "name": "identity",
              "type": "address"
            },
            {
              "internalType": "address",
              "name": "erc3643Token",
              "type": "address"
            }
          ],
          "internalType": "struct BuildingFactory.BuildingInfo",
          "name": "",
          "type": "tuple"
        }
      ],
      "stateMutability": "view",
      "type": "function"
    },
    {
      "inputs": [],
      "name": "getBuildingList",
      "outputs": [
        {
          "components": [
            {
              "internalType": "address",
              "name": "addr",
              "type": "address"
            },
            {
              "internalType": "uint256",
              "name": "nftId",
              "type": "uint256"
            },
            {
              "internalType": "string",
              "name": "tokenURI",
              "type": "string"
            },
            {
              "internalType": "address",
              "name": "identity",
              "type": "address"
            },
            {
              "internalType": "address",
              "name": "erc3643Token",
              "type": "address"
            }
          ],
          "internalType": "struct BuildingFactory.BuildingInfo[]",
          "name": "",
          "type": "tuple[]"
        }
      ],
      "stateMutability": "view",
      "type": "function"
    },
    {
      "inputs": [
        {
          "internalType": "address",
          "name": "_nft",
          "type": "address"
        },
        {
          "internalType": "address",
          "name": "_uniswapRouter",
          "type": "address"
        },
        {
          "internalType": "address",
          "name": "_uniswapFactory",
          "type": "address"
        },
        {
          "internalType": "address",
          "name": "_buildingBeacon",
          "type": "address"
        },
        {
          "internalType": "address",
          "name": "_onchainIdGateway",
          "type": "address"
        },
        {
          "internalType": "address",
          "name": "_trexGateway",
          "type": "address"
        }
      ],
      "name": "initialize",
      "outputs": [],
      "stateMutability": "nonpayable",
      "type": "function"
    },
    {
      "inputs": [
        {
          "internalType": "string",
          "name": "tokenURI",
          "type": "string"
        }
      ],
      "name": "newBuilding",
      "outputs": [],
      "stateMutability": "nonpayable",
      "type": "function"
    },
    {
      "inputs": [
        {
          "internalType": "address",
          "name": "buildingAddress",
          "type": "address"
        },
        {
          "internalType": "string",
          "name": "name",
          "type": "string"
        },
        {
          "internalType": "string",
          "name": "symbol",
          "type": "string"
        },
        {
          "internalType": "uint8",
          "name": "decimals",
          "type": "uint8"
        }
      ],
      "name": "newERC3643Token",
      "outputs": [],
      "stateMutability": "nonpayable",
      "type": "function"
    },
    {
      "inputs": [],
      "name": "owner",
      "outputs": [
        {
          "internalType": "address",
          "name": "",
          "type": "address"
        }
      ],
      "stateMutability": "view",
      "type": "function"
    },
    {
      "inputs": [],
      "name": "renounceOwnership",
      "outputs": [],
      "stateMutability": "nonpayable",
      "type": "function"
    },
    {
      "inputs": [
        {
          "internalType": "address",
          "name": "newOwner",
          "type": "address"
        }
      ],
      "name": "transferOwnership",
      "outputs": [],
      "stateMutability": "nonpayable",
      "type": "function"
    }
  ],
  "bytecode": "0x608060405234801561001057600080fd5b50612a1a806100206000396000f3fe60806040523480156200001157600080fd5b50600436106200008e5760003560e01c806344cccdcf1462000093578063665fa4a114620000ac578063715018a614620000db5780638090fc7a14620000e55780638da5cb5b14620000fc578063baff7ae71462000115578063cc2a9a5b146200012c578063db652ec81462000143578063f2fde38b146200015c575b600080fd5b620000aa620000a436600462000fde565b62000173565b005b620000c3620000bd3660046200105c565b620002cd565b604051620000d2919062001130565b60405180910390f35b620000aa6200040c565b620000aa620000f636600462001168565b62000424565b6200010662000609565b604051620000d2919062001200565b620000aa6200012636600462001214565b62000637565b620000aa6200013d36600462001254565b62000985565b6200014d62000be5565b604051620000d29190620012e3565b620000aa6200016d3660046200105c565b62000d33565b60006200017f62000d78565b6001600160a01b038086166000818152600784016020526040902054929350911614620001c95760405162461bcd60e51b8152600401620001c0906200134b565b60405180910390fd5b6001600160a01b038316600090815260088201602052604090205460ff1615156001146200024d5760405162461bcd60e51b815260206004820152602a60248201527f4275696c64696e67466163746f72793a20496e76616c69642063616c6c61626c604482015269194818dbdb9d1c9858dd60b21b6064820152608401620001c0565b604051626e20cd60e31b81526001600160a01b038516906303710668906200027c908690869060040162001394565b6000604051808303816000875af11580156200029c573d6000803e3d6000fd5b505050506040513d6000823e601f3d908101601f19168201604052620002c69190810190620013ba565b5050505050565b6040805160a081018252600080825260208201819052606092820183905291810182905260808101829052906200030362000d78565b6001600160a01b038085166000908152600783016020908152604091829020825160a081018452815490941684526001810154918401919091526002810180549495509293909291840191906200035a9062001439565b80601f0160208091040260200160405190810160405280929190818152602001828054620003889062001439565b8015620003d95780601f10620003ad57610100808354040283529160200191620003d9565b820191906000526020600020905b815481529060010190602001808311620003bb57829003601f168201915b505050918352505060038201546001600160a01b0390811660208301526004909201549091166040909101529392505050565b6200041662000d9c565b62000422600062000dd3565b565b60006200043062000d78565b90506001600160a01b038516158015906200046657506001600160a01b0385811660009081526007830160205260409020541615155b620004855760405162461bcd60e51b8152600401620001c0906200134b565b6001600160a01b0385811660009081526007830160205260409020600401541615620005105760405162461bcd60e51b815260206004820152603360248201527f4275696c64696e67466163746f72793a20746f6b656e20616c7265616479206360448201527272656174656420666f72206275696c64696e6760681b6064820152608401620001c0565b600581015460009062000530906001600160a01b03168787878762000e44565b60405163f2fde38b60e01b81529091506001600160a01b0382169063f2fde38b906200056190339060040162001200565b600060405180830381600087803b1580156200057c57600080fd5b505af115801562000591573d6000803e3d6000fd5b505050506001600160a01b03868116600081815260078501602090815260409182902060040180546001600160a01b031916948616948517905581519283528201929092527fb248a19ee520af52b2708cdaad4b5668a428f194685638a13d8a7b9ee84711a3910160405180910390a1505050505050565b7f9016d09d72d40fdae2fd8ceac6b6234c7706214fd39c1cd1e609a0528c199300546001600160a01b031690565b60006200064362000d78565b60038101546001820154600283015483546040516001600160a01b03938416602482015291831660448301528216606482015292935060009291169063c0c53b8b60e01b9060840160408051601f198184030181529181526020820180516001600160e01b03166001600160e01b0319909416939093179092529051620006ca9062000ef6565b620006d792919062001394565b604051809103906000f080158015620006f4573d6000803e3d6000fd5b50825460405163d0def52160e01b81529192506000916001600160a01b039091169063d0def521906200072e908590889060040162001394565b6020604051808303816000875af11580156200074e573d6000803e3d6000fd5b505050506040513d601f19601f8201168201806040525081019062000774919062001475565b600480850154604051633e8e6e8b60e01b81529293506000926001600160a01b0390911691633e8e6e8b91620007ad9187910162001200565b6020604051808303816000875af1158015620007cd573d6000803e3d6000fd5b505050506040513d601f19601f82011682018060405250810190620007f391906200148f565b6040805160a0810182526001600160a01b0386811680835260208084018881528486018c8152878516606087015260006080870181905293845260078c0190925294909120835181546001600160a01b03191693169290921782559251600182015591519293509160028201906200086c908262001519565b5060608201516003820180546001600160a01b03199081166001600160a01b039384161790915560809093015160049092018054841692821692909217909155848116600090815260078701602090815260408220600689018054600181810183559185529290932081546005909302018054929094169190941617825582810154908201556002808201906200090690840182620015e1565b5060038281015490820180546001600160a01b03199081166001600160a01b039384161790915560049384015493909201805490921692169190911790556040517f02eb67024749e9ed4b0bebae49012408b7466ee9ebbf5a0310811dc2c059d9cd906200097690859062001200565b60405180910390a15050505050565b7ff0c57e16840df040f15088dc2f81fe391c3923bec73e23a9662efc9c229c6a008054600160401b810460ff1615906001600160401b0316600081158015620009cb5750825b90506000826001600160401b03166001148015620009e85750303b155b905081158015620009f7575080155b1562000a165760405163f92ee8a960e01b815260040160405180910390fd5b845467ffffffffffffffff19166001178555831562000a4157845460ff60401b1916600160401b1785555b62000a4c3362000e8d565b600062000a5862000d78565b90508b8160000160006101000a8154816001600160a01b0302191690836001600160a01b031602179055508a8160010160006101000a8154816001600160a01b0302191690836001600160a01b03160217905550898160020160006101000a8154816001600160a01b0302191690836001600160a01b03160217905550888160030160006101000a8154816001600160a01b0302191690836001600160a01b03160217905550878160040160006101000a8154816001600160a01b0302191690836001600160a01b03160217905550868160050160006101000a8154816001600160a01b0302191690836001600160a01b0316021790555060018160080160008e6001600160a01b03166001600160a01b0316815260200190815260200160002060006101000a81548160ff02191690831515021790555050831562000bd857845460ff60401b19168555604051600181527fc7f505b2f371ae2175ee4913f4499e1f2633a7b5936321eed1cdaeb6115181d29060200160405180910390a15b5050505050505050505050565b6060600062000bf362000d78565b6006810180546040805160208084028201810190925282815293945060009084015b8282101562000d295760008481526020908190206040805160a0810182526005860290920180546001600160a01b031683526001810154938301939093526002830180549293929184019162000c6b9062001439565b80601f016020809104026020016040519081016040528092919081815260200182805462000c999062001439565b801562000cea5780601f1062000cbe5761010080835404028352916020019162000cea565b820191906000526020600020905b81548152906001019060200180831162000ccc57829003601f168201915b505050918352505060038201546001600160a01b0390811660208084019190915260049093015416604090910152908252600192909201910162000c15565b5050505091505090565b62000d3d62000d9c565b6001600160a01b03811662000d6a576000604051631e4fbdf760e01b8152600401620001c0919062001200565b62000d758162000dd3565b50565b7f0f40dde8b99b0722537b774c6ef775b5e5a0af035d95bf9802cd87411f806f0090565b3362000da762000609565b6001600160a01b03161462000422573360405163118cdaa760e01b8152600401620001c0919062001200565b7f9016d09d72d40fdae2fd8ceac6b6234c7706214fd39c1cd1e609a0528c19930080546001600160a01b031981166001600160a01b03848116918217845560405192169182907f8be0079c531659141344cd1fd0a4f28419497f9722a3daafe3b4186f6b6457e090600090a3505050565b600083838360405162000e579062000f04565b62000e6593929190620016be565b604051809103906000f08015801562000e82573d6000803e3d6000fd5b509695505050505050565b62000e9762000ea2565b62000d758162000eec565b7ff0c57e16840df040f15088dc2f81fe391c3923bec73e23a9662efc9c229c6a0054600160401b900460ff166200042257604051631afcd79f60e31b815260040160405180910390fd5b62000d3d62000ea2565b6105bf80620016fc83390190565b610d2a8062001cbb83390190565b6001600160a01b038116811462000d7557600080fd5b634e487b7160e01b600052604160045260246000fd5b604051601f8201601f191681016001600160401b038111828210171562000f695762000f6962000f28565b604052919050565b60006001600160401b0382111562000f8d5762000f8d62000f28565b50601f01601f191660200190565b600062000fb262000fac8462000f71565b62000f3e565b905082815283838301111562000fc757600080fd5b828260208301376000602084830101529392505050565b60008060006060848603121562000ff457600080fd5b8335620010018162000f12565b92506020840135620010138162000f12565b915060408401356001600160401b038111156200102f57600080fd5b8401601f810186136200104157600080fd5b620010528682356020840162000f9b565b9150509250925092565b6000602082840312156200106f57600080fd5b81356200107c8162000f12565b9392505050565b60005b83811015620010a057818101518382015260200162001086565b50506000910152565b60008151808452620010c381602086016020860162001083565b601f01601f19169290920160200192915050565b600060018060a01b0380835116845260208301516020850152604083015160a060408601526200110b60a0860182620010a9565b9050816060850151166060860152816080850151166080860152809250505092915050565b6020815260006200107c6020830184620010d7565b600082601f8301126200115757600080fd5b6200107c8383356020850162000f9b565b600080600080608085870312156200117f57600080fd5b84356200118c8162000f12565b935060208501356001600160401b0380821115620011a957600080fd5b620011b78883890162001145565b94506040870135915080821115620011ce57600080fd5b50620011dd8782880162001145565b925050606085013560ff81168114620011f557600080fd5b939692955090935050565b6001600160a01b0391909116815260200190565b6000602082840312156200122757600080fd5b81356001600160401b038111156200123e57600080fd5b6200124c8482850162001145565b949350505050565b60008060008060008060c087890312156200126e57600080fd5b86356200127b8162000f12565b955060208701356200128d8162000f12565b945060408701356200129f8162000f12565b93506060870135620012b18162000f12565b92506080870135620012c38162000f12565b915060a0870135620012d58162000f12565b809150509295509295509295565b600060208083016020845280855180835260408601915060408160051b87010192506020870160005b828110156200133e57603f198886030184526200132b858351620010d7565b945092850192908501906001016200130c565b5092979650505050505050565b60208082526029908201527f4275696c64696e67466163746f72793a20496e76616c6964206275696c64696e60408201526867206164647265737360b81b606082015260800190565b6001600160a01b03831681526040602082018190526000906200124c90830184620010a9565b600060208284031215620013cd57600080fd5b81516001600160401b03811115620013e457600080fd5b8201601f81018413620013f657600080fd5b80516200140762000fac8262000f71565b8181528560208385010111156200141d57600080fd5b6200143082602083016020860162001083565b95945050505050565b600181811c908216806200144e57607f821691505b6020821081036200146f57634e487b7160e01b600052602260045260246000fd5b50919050565b6000602082840312156200148857600080fd5b5051919050565b600060208284031215620014a257600080fd5b81516200107c8162000f12565b601f821115620014ff576000816000526020600020601f850160051c81016020861015620014da5750805b601f850160051c820191505b81811015620014fb57828155600101620014e6565b5050505b505050565b600019600383901b1c191660019190911b1790565b81516001600160401b0381111562001535576200153562000f28565b6200154d8162001546845462001439565b84620014af565b602080601f8311600181146200158157600084156200156c5750858301515b62001578858262001504565b865550620014fb565b600085815260208120601f198616915b82811015620015b25788860151825594840194600190910190840162001591565b5085821015620015d15787850151600019600388901b60f8161c191681555b5050505050600190811b01905550565b818103620015ed575050565b620015f9825462001439565b6001600160401b0381111562001613576200161362000f28565b620016248162001546845462001439565b6000601f821160018114620016575760008315620016425750848201545b6200164e848262001504565b855550620002c6565b600085815260209020601f19841690600086815260209020845b8381101562001693578286015482556001958601959091019060200162001671565b5085831015620015d15793015460001960f8600387901b161c19169092555050600190811b01905550565b606081526000620016d36060830186620010a9565b8281036020840152620016e78186620010a9565b91505060ff8316604083015294935050505056fe60a06040526040516105bf3803806105bf83398101604081905261002291610387565b61002c828261003e565b506001600160a01b031660805261047e565b610047826100fe565b6040516001600160a01b038316907f1cf3b03a6cf19fa2baba4df148e9dcabedea7f8a5c07840e207e5c089be95d3e90600090a28051156100f2576100ed826001600160a01b0316635c60da1b6040518163ffffffff1660e01b8152600401602060405180830381865afa1580156100c3573d6000803e3d6000fd5b505050506040513d601f19601f820116820180604052508101906100e79190610447565b82610211565b505050565b6100fa610288565b5050565b806001600160a01b03163b60000361013957604051631933b43b60e21b81526001600160a01b03821660048201526024015b60405180910390fd5b807fa3f0ad74e5423aebfd80d3ef4346578335a9a72aeaee59ff6cb3582b35133d5080546001600160a01b0319166001600160a01b0392831617905560408051635c60da1b60e01b81529051600092841691635c60da1b9160048083019260209291908290030181865afa1580156101b5573d6000803e3d6000fd5b505050506040513d601f19601f820116820180604052508101906101d99190610447565b9050806001600160a01b03163b6000036100fa57604051634c9c8ce360e01b81526001600160a01b0382166004820152602401610130565b6060600080846001600160a01b03168460405161022e9190610462565b600060405180830381855af49150503d8060008114610269576040519150601f19603f3d011682016040523d82523d6000602084013e61026e565b606091505b50909250905061027f8583836102a9565b95945050505050565b34156102a75760405163b398979f60e01b815260040160405180910390fd5b565b6060826102be576102b982610308565b610301565b81511580156102d557506001600160a01b0384163b155b156102fe57604051639996b31560e01b81526001600160a01b0385166004820152602401610130565b50805b9392505050565b8051156103185780518082602001fd5b604051630a12f52160e11b815260040160405180910390fd5b80516001600160a01b038116811461034857600080fd5b919050565b634e487b7160e01b600052604160045260246000fd5b60005b8381101561037e578181015183820152602001610366565b50506000910152565b6000806040838503121561039a57600080fd5b6103a383610331565b60208401519092506001600160401b03808211156103c057600080fd5b818501915085601f8301126103d457600080fd5b8151818111156103e6576103e661034d565b604051601f8201601f19908116603f0116810190838211818310171561040e5761040e61034d565b8160405282815288602084870101111561042757600080fd5b610438836020830160208801610363565b80955050505050509250929050565b60006020828403121561045957600080fd5b61030182610331565b60008251610474818460208701610363565b9190910192915050565b6080516101276104986000396000601e01526101276000f3fe6080604052600a600c565b005b60186014601a565b60a0565b565b60007f00000000000000000000000000000000000000000000000000000000000000006001600160a01b0316635c60da1b6040518163ffffffff1660e01b8152600401602060405180830381865afa1580156079573d6000803e3d6000fd5b505050506040513d601f19601f82011682018060405250810190609b919060c3565b905090565b3660008037600080366000845af43d6000803e80801560be573d6000f35b3d6000fd5b60006020828403121560d457600080fd5b81516001600160a01b038116811460ea57600080fd5b939250505056fea26469706673582212205c8a2fcdc6f79c1d43b849e2b03f494652cee222b2ec86046b7caaa1405f985f64736f6c6343000818003360806040523480156200001157600080fd5b5060405162000d2a38038062000d2a8339810160408190526200003491620001d3565b3383836003620000458382620002e9565b506004620000548282620002e9565b5050506001600160a01b0381166200008657604051631e4fbdf760e01b81526000600482015260240160405180910390fd5b6200009181620000b9565b506005805460ff909216600160a01b0260ff60a01b1990921691909117905550620003b59050565b600580546001600160a01b038381166001600160a01b0319831681179093556040519116919082907f8be0079c531659141344cd1fd0a4f28419497f9722a3daafe3b4186f6b6457e090600090a35050565b634e487b7160e01b600052604160045260246000fd5b600082601f8301126200013357600080fd5b81516001600160401b03808211156200015057620001506200010b565b604051601f8301601f19908116603f011681019082821181831017156200017b576200017b6200010b565b81604052838152602092508660208588010111156200019957600080fd5b600091505b83821015620001bd57858201830151818301840152908201906200019e565b6000602085830101528094505050505092915050565b600080600060608486031215620001e957600080fd5b83516001600160401b03808211156200020157600080fd5b6200020f8783880162000121565b945060208601519150808211156200022657600080fd5b50620002358682870162000121565b925050604084015160ff811681146200024d57600080fd5b809150509250925092565b600181811c908216806200026d57607f821691505b6020821081036200028e57634e487b7160e01b600052602260045260246000fd5b50919050565b601f821115620002e4576000816000526020600020601f850160051c81016020861015620002bf5750805b601f850160051c820191505b81811015620002e057828155600101620002cb565b5050505b505050565b81516001600160401b038111156200030557620003056200010b565b6200031d8162000316845462000258565b8462000294565b602080601f8311600181146200035557600084156200033c5750858301515b600019600386901b1c1916600185901b178555620002e0565b600085815260208120601f198616915b82811015620003865788860151825594840194600190910190840162000365565b5085821015620003a55787850151600019600388901b60f8161c191681555b5050505050600190811b01905550565b61096580620003c56000396000f3fe608060405234801561001057600080fd5b50600436106100bf5760003560e01c806370a082311161007c57806370a082311461015e578063715018a6146101875780638da5cb5b1461018f57806395d89b41146101a8578063a9059cbb146101b0578063dd62ed3e146101c3578063f2fde38b146101d657600080fd5b806306fdde03146100c4578063095ea7b3146100e257806318160ddd1461010557806323b872dd14610117578063313ce5671461012a57806340c10f1914610149575b600080fd5b6100cc6101e9565b6040516100d99190610779565b60405180910390f35b6100f56100f03660046107e4565b61027b565b60405190151581526020016100d9565b6002545b6040519081526020016100d9565b6100f561012536600461080e565b610295565b600554600160a01b900460ff1660405160ff90911681526020016100d9565b61015c6101573660046107e4565b6102b9565b005b61010961016c36600461084a565b6001600160a01b031660009081526020819052604090205490565b61015c61037a565b6005546001600160a01b03166040516100d9919061086c565b6100cc61038e565b6100f56101be3660046107e4565b61039d565b6101096101d1366004610880565b6103ab565b61015c6101e436600461084a565b6103d6565b6060600380546101f8906108b3565b80601f0160208091040260200160405190810160405280929190818152602001828054610224906108b3565b80156102715780601f1061024657610100808354040283529160200191610271565b820191906000526020600020905b81548152906001019060200180831161025457829003601f168201915b5050505050905090565b600033610289818585610414565b60019150505b92915050565b6000336102a3858285610426565b6102ae858585610479565b506001949350505050565b6102c16104d8565b6001600160a01b03821661031c5760405162461bcd60e51b815260206004820152601e60248201527f4275696c64696e6745524332303a20496e76616c69642061646472657373000060448201526064015b60405180910390fd5b6000811161036c5760405162461bcd60e51b815260206004820152601d60248201527f4275696c64696e6745524332303a20496e76616c696420616d6f756e740000006044820152606401610313565b6103768282610505565b5050565b6103826104d8565b61038c600061053b565b565b6060600480546101f8906108b3565b600033610289818585610479565b6001600160a01b03918216600090815260016020908152604080832093909416825291909152205490565b6103de6104d8565b6001600160a01b038116610408576000604051631e4fbdf760e01b8152600401610313919061086c565b6104118161053b565b50565b610421838383600161058d565b505050565b600061043284846103ab565b90506000198114610473578181101561046457828183604051637dc7a0d960e11b8152600401610313939291906108ed565b6104738484848403600061058d565b50505050565b6001600160a01b0383166104a3576000604051634b637e8f60e11b8152600401610313919061086c565b6001600160a01b0382166104cd57600060405163ec442f0560e01b8152600401610313919061086c565b610421838383610662565b6005546001600160a01b0316331461038c573360405163118cdaa760e01b8152600401610313919061086c565b6001600160a01b03821661052f57600060405163ec442f0560e01b8152600401610313919061086c565b61037660008383610662565b600580546001600160a01b038381166001600160a01b0319831681179093556040519116919082907f8be0079c531659141344cd1fd0a4f28419497f9722a3daafe3b4186f6b6457e090600090a35050565b6001600160a01b0384166105b757600060405163e602df0560e01b8152600401610313919061086c565b6001600160a01b0383166105e1576000604051634a1406b160e11b8152600401610313919061086c565b6001600160a01b038085166000908152600160209081526040808320938716835292905220829055801561047357826001600160a01b0316846001600160a01b03167f8c5be1e5ebec7d5bd14f71427d1e84f3dd0314c0f7b2291e5b200ac8c7c3b9258460405161065491815260200190565b60405180910390a350505050565b6001600160a01b03831661068d578060026000828254610682919061090e565b909155506106ec9050565b6001600160a01b038316600090815260208190526040902054818110156106cd5783818360405163391434e360e21b8152600401610313939291906108ed565b6001600160a01b03841660009081526020819052604090209082900390555b6001600160a01b03821661070857600280548290039055610727565b6001600160a01b03821660009081526020819052604090208054820190555b816001600160a01b0316836001600160a01b03167fddf252ad1be2c89b69c2b068fc378daa952ba7f163c4a11628f55a4df523b3ef8360405161076c91815260200190565b60405180910390a3505050565b60006020808352835180602085015260005b818110156107a75785810183015185820160400152820161078b565b506000604082860101526040601f19601f8301168501019250505092915050565b80356001600160a01b03811681146107df57600080fd5b919050565b600080604083850312156107f757600080fd5b610800836107c8565b946020939093013593505050565b60008060006060848603121561082357600080fd5b61082c846107c8565b925061083a602085016107c8565b9150604084013590509250925092565b60006020828403121561085c57600080fd5b610865826107c8565b9392505050565b6001600160a01b0391909116815260200190565b6000806040838503121561089357600080fd5b61089c836107c8565b91506108aa602084016107c8565b90509250929050565b600181811c908216806108c757607f821691505b6020821081036108e757634e487b7160e01b600052602260045260246000fd5b50919050565b6001600160a01b039390931683526020830191909152604082015260600190565b8082018082111561028f57634e487b7160e01b600052601160045260246000fdfea2646970667358221220e8b826ce471c0906000ab68b0cb1d8e68abf2915e368951ee2d9441cc204197c64736f6c63430008180033a2646970667358221220fa3581b469a19267833afb93d92f8d4fb61aeee6e82ed715c050895f09955d5664736f6c63430008180033",
  "linkReferences": {},
  "deployedLinkReferences": {}
}