{
  "_format": "hh-sol-artifact-1",
  "contractName": "BuildingFactoryMock",
  "sourceName": "contracts/buildings/mock/BuildingFactoryMock.sol",
  "abi": [
    {
      "inputs": [],
      "name": "InvalidInitialization",
      "type": "error"
    },
    {
      "inputs": [],
      "name": "NotInitializing",
      "type": "error"
    },
    {
      "anonymous": false,
      "inputs": [
        {
          "indexed": false,
          "internalType": "uint64",
          "name": "version",
          "type": "uint64"
        }
      ],
      "name": "Initialized",
      "type": "event"
    },
    {
      "anonymous": false,
      "inputs": [
        {
          "indexed": false,
          "internalType": "address",
          "name": "addr",
          "type": "address"
        }
      ],
      "name": "NewAuditRegistry",
      "type": "event"
    },
    {
      "anonymous": false,
      "inputs": [
        {
          "indexed": false,
          "internalType": "address",
          "name": "addr",
          "type": "address"
        },
        {
          "indexed": false,
          "internalType": "address",
          "name": "initialOwner",
          "type": "address"
        }
      ],
      "name": "NewBuilding",
      "type": "event"
    },
    {
      "anonymous": false,
      "inputs": [
        {
          "indexed": false,
          "internalType": "address",
          "name": "token",
          "type": "address"
        },
        {
          "indexed": false,
          "internalType": "address",
          "name": "building",
          "type": "address"
        },
        {
          "indexed": false,
          "internalType": "address",
          "name": "initialOwner",
          "type": "address"
        }
      ],
      "name": "NewERC3643Token",
      "type": "event"
    },
    {
      "anonymous": false,
      "inputs": [
        {
          "indexed": false,
          "internalType": "address",
          "name": "governance",
          "type": "address"
        },
        {
          "indexed": false,
          "internalType": "address",
          "name": "building",
          "type": "address"
        },
        {
          "indexed": false,
          "internalType": "address",
          "name": "initialOwner",
          "type": "address"
        }
      ],
      "name": "NewGovernance",
      "type": "event"
    },
    {
      "anonymous": false,
      "inputs": [
        {
          "indexed": false,
          "internalType": "address",
          "name": "treasury",
          "type": "address"
        },
        {
          "indexed": false,
          "internalType": "address",
          "name": "building",
          "type": "address"
        },
        {
          "indexed": false,
          "internalType": "address",
          "name": "initialOwner",
          "type": "address"
        }
      ],
      "name": "NewTreasury",
      "type": "event"
    },
    {
      "inputs": [
        {
          "internalType": "address",
          "name": "buildingAddress",
          "type": "address"
        }
      ],
      "name": "getBuildingDetails",
      "outputs": [
        {
          "components": [
            {
              "internalType": "address",
              "name": "addr",
              "type": "address"
            },
            {
              "internalType": "uint256",
              "name": "nftId",
              "type": "uint256"
            },
            {
              "internalType": "string",
              "name": "tokenURI",
              "type": "string"
            },
            {
              "internalType": "address",
              "name": "identity",
              "type": "address"
            },
            {
              "internalType": "address",
              "name": "erc3643Token",
              "type": "address"
            },
            {
              "internalType": "address",
              "name": "treasury",
              "type": "address"
            },
            {
              "internalType": "address",
              "name": "governance",
              "type": "address"
            }
          ],
          "internalType": "struct BuildingFactoryStorage.BuildingInfo",
          "name": "",
          "type": "tuple"
        }
      ],
      "stateMutability": "view",
      "type": "function"
    },
    {
      "inputs": [],
      "name": "getBuildingList",
      "outputs": [
        {
          "components": [
            {
              "internalType": "address",
              "name": "addr",
              "type": "address"
            },
            {
              "internalType": "uint256",
              "name": "nftId",
              "type": "uint256"
            },
            {
              "internalType": "string",
              "name": "tokenURI",
              "type": "string"
            },
            {
              "internalType": "address",
              "name": "identity",
              "type": "address"
            },
            {
              "internalType": "address",
              "name": "erc3643Token",
              "type": "address"
            },
            {
              "internalType": "address",
              "name": "treasury",
              "type": "address"
            },
            {
              "internalType": "address",
              "name": "governance",
              "type": "address"
            }
          ],
          "internalType": "struct BuildingFactoryStorage.BuildingInfo[]",
          "name": "",
          "type": "tuple[]"
        }
      ],
      "stateMutability": "view",
      "type": "function"
    },
    {
      "inputs": [
        {
          "internalType": "address",
          "name": "_nft",
          "type": "address"
        },
        {
          "internalType": "address",
          "name": "_uniswapRouter",
          "type": "address"
        },
        {
          "internalType": "address",
          "name": "_uniswapFactory",
          "type": "address"
        },
        {
          "internalType": "address",
          "name": "_onchainIdGateway",
          "type": "address"
        },
        {
          "internalType": "address",
          "name": "_trexGateway",
          "type": "address"
        },
        {
          "internalType": "address",
          "name": "_usdc",
          "type": "address"
        },
        {
          "internalType": "address",
          "name": "_buildingBeacon",
          "type": "address"
        },
        {
          "internalType": "address",
          "name": "_vaultFactory",
          "type": "address"
        },
        {
          "internalType": "address",
          "name": "_treasuryBeacon",
          "type": "address"
        },
        {
          "internalType": "address",
          "name": "_governanceBeacon",
          "type": "address"
        }
      ],
      "name": "initialize",
      "outputs": [],
      "stateMutability": "nonpayable",
      "type": "function"
    },
    {
      "inputs": [
        {
          "internalType": "string",
          "name": "tokenURI",
          "type": "string"
        }
      ],
      "name": "newBuilding",
      "outputs": [],
      "stateMutability": "nonpayable",
      "type": "function"
    },
    {
      "inputs": [
        {
          "internalType": "address",
          "name": "building",
          "type": "address"
        },
        {
          "internalType": "string",
          "name": "name",
          "type": "string"
        },
        {
          "internalType": "string",
          "name": "symbol",
          "type": "string"
        },
        {
          "internalType": "uint8",
          "name": "decimals",
          "type": "uint8"
        }
      ],
      "name": "newERC3643Token",
      "outputs": [],
      "stateMutability": "nonpayable",
      "type": "function"
    },
    {
      "inputs": [
        {
          "internalType": "address",
          "name": "building",
          "type": "address"
        },
        {
          "internalType": "string",
          "name": "name",
          "type": "string"
        },
        {
          "internalType": "address",
          "name": "token",
          "type": "address"
        },
        {
          "internalType": "address",
          "name": "treasury",
          "type": "address"
        }
      ],
      "name": "newGovernance",
      "outputs": [],
      "stateMutability": "nonpayable",
      "type": "function"
    },
    {
      "inputs": [
        {
          "internalType": "address",
          "name": "building",
          "type": "address"
        },
        {
          "internalType": "address",
          "name": "token",
          "type": "address"
        },
        {
          "internalType": "uint256",
          "name": "reserveAmount",
          "type": "uint256"
        },
        {
          "internalType": "uint256",
          "name": "nPercentage",
          "type": "uint256"
        }
      ],
      "name": "newTreasury",
      "outputs": [],
      "stateMutability": "nonpayable",
      "type": "function"
    },
    {
      "inputs": [],
      "name": "version",
      "outputs": [
        {
          "internalType": "string",
          "name": "",
          "type": "string"
        }
      ],
      "stateMutability": "pure",
      "type": "function"
    }
  ],
  "bytecode": "0x608060405234801561001057600080fd5b5061001961001e565b6100d0565b7ff0c57e16840df040f15088dc2f81fe391c3923bec73e23a9662efc9c229c6a00805468010000000000000000900460ff161561006e5760405163f92ee8a960e01b815260040160405180910390fd5b80546001600160401b03908116146100cd5780546001600160401b0319166001600160401b0390811782556040519081527fc7f505b2f371ae2175ee4913f4499e1f2633a7b5936321eed1cdaeb6115181d29060200160405180910390a15b50565b614e8080620000e06000396000f3fe60806040523480156200001157600080fd5b5060043610620000825760003560e01c806304ae1393146200008757806354fd4d5014620000a0578063665fa4a114620000d05780636cefd2e514620000f65780638090fc7a146200010d578063baff7ae71462000124578063c306b378146200013b578063db652ec81462000152575b600080fd5b6200009e6200009836600462001913565b6200016b565b005b60408051808201825260038152620322e360ec1b60208201529051620000c79190620019e5565b60405180910390f35b620000e7620000e136600462001a01565b6200044c565b604051620000c7919062001a92565b6200009e6200010736600462001aa7565b620005b1565b6200009e6200011e36600462001af2565b62000811565b6200009e6200013536600462001b7f565b62000ae6565b6200009e6200014c36600462001bbf565b62000af4565b6200015c62000c1d565b604051620000c7919062001ca4565b8360006200017862000d83565b90506001600160a01b03821615801590620001ae57506001600160a01b038281166000908152600c830160205260409020541615155b620001d65760405162461bcd60e51b8152600401620001cd9062001d0c565b60405180910390fd5b336001600160a01b0316826001600160a01b0316638da5cb5b6040518163ffffffff1660e01b8152600401602060405180830381865afa1580156200021f573d6000803e3d6000fd5b505050506040513d601f19601f8201168201806040525081019062000245919062001d55565b6001600160a01b0316146200026e5760405162461bcd60e51b8152600401620001cd9062001d75565b60006200027a62000d83565b90506001600160a01b03851615801590620002b357506001600160a01b038781166000908152600c830160205260409020600401541615155b620002d25760405162461bcd60e51b8152600401620001cd9062001db8565b6001600160a01b038416158015906200030957506001600160a01b038781166000908152600c830160205260409020600501541615155b620003695760405162461bcd60e51b815260206004820152602960248201527f4275696c64696e67466163746f72793a20496e76616c6964207472656173757260448201526879206164647265737360b81b6064820152608401620001cd565b6000620003798688873362000da7565b6001600160a01b038981166000908152600c850160205260409081902060060180546001600160a01b031916848416179055516260360760e81b8152919250861690636036070090620003d190849060040162001dfe565b600060405180830381600087803b158015620003ec57600080fd5b505af115801562000401573d6000803e3d6000fd5b505050507f1d1f9bb8967d6cc0afb743c179484d36a49436606ce55b2f5dbf3218aa6bcece8189336040516200043a9392919062001e12565b60405180910390a15050505050505050565b6040805160e08101825260008082526020820181905260609282018390529181018290526080810182905260a0810182905260c08101829052906200049062000d83565b6001600160a01b038085166000908152600c83016020908152604091829020825160e08101845281549094168452600181015491840191909152600281018054949550929390929184019190620004e79062001e35565b80601f0160208091040260200160405190810160405280929190818152602001828054620005159062001e35565b8015620005665780601f106200053a5761010080835404028352916020019162000566565b820191906000526020600020905b8154815290600101906020018083116200054857829003601f168201915b505050918352505060038201546001600160a01b0390811660208301526004830154811660408301526005830154811660608301526006909201549091166080909101529392505050565b836000620005be62000d83565b90506001600160a01b03821615801590620005f457506001600160a01b038281166000908152600c830160205260409020541615155b620006135760405162461bcd60e51b8152600401620001cd9062001d0c565b336001600160a01b0316826001600160a01b0316638da5cb5b6040518163ffffffff1660e01b8152600401602060405180830381865afa1580156200065c573d6000803e3d6000fd5b505050506040513d601f19601f8201168201806040525081019062000682919062001d55565b6001600160a01b031614620006ab5760405162461bcd60e51b8152600401620001cd9062001d75565b6000620006b762000d83565b90506001600160a01b03861615801590620006f057506001600160a01b038781166000908152600c830160205260409020600401541615155b6200070f5760405162461bcd60e51b8152600401620001cd9062001db8565b60006200071e86863362000e62565b905060006200072f88338462000ef9565b6040516312b5ad0160e11b81529091506001600160a01b0383169063256b5a02906200076090849060040162001dfe565b600060405180830381600087803b1580156200077b57600080fd5b505af115801562000790573d6000803e3d6000fd5b505050506001600160a01b038981166000908152600c850160205260409081902060050180546001600160a01b03191692851692909217909155517fb0adc7a7c8e39008849c6df3e694846e12ab706c573632f252265fa26944923690620007fe9084908c90339062001e12565b60405180910390a1505050505050505050565b8360006200081e62000d83565b90506001600160a01b038216158015906200085457506001600160a01b038281166000908152600c830160205260409020541615155b620008735760405162461bcd60e51b8152600401620001cd9062001d0c565b336001600160a01b0316826001600160a01b0316638da5cb5b6040518163ffffffff1660e01b8152600401602060405180830381865afa158015620008bc573d6000803e3d6000fd5b505050506040513d601f19601f82011682018060405250810190620008e2919062001d55565b6001600160a01b0316146200090b5760405162461bcd60e51b8152600401620001cd9062001d75565b60006200091762000d83565b90506001600160a01b038716158015906200094d57506001600160a01b038781166000908152600c830160205260409020541615155b6200096c5760405162461bcd60e51b8152600401620001cd9062001d0c565b6001600160a01b038781166000908152600c830160205260409020600401541615620009f75760405162461bcd60e51b815260206004820152603360248201527f4275696c64696e67466163746f72793a20746f6b656e20616c7265616479206360448201527272656174656420666f72206275696c64696e6760681b6064820152608401620001cd565b600581015460009062000a17906001600160a01b03168989898962001165565b60405163f2fde38b60e01b81529091506001600160a01b0382169063f2fde38b9062000a4890339060040162001dfe565b600060405180830381600087803b15801562000a6357600080fd5b505af115801562000a78573d6000803e3d6000fd5b505050506001600160a01b038881166000908152600c840160205260409081902060040180546001600160a01b03191692841692909217909155517fd760e45dc84b0e0af2e851e2faeb76570dc35712d88342d0830f504022183b95906200043a9083908b90339062001e12565b62000af181620011ae565b50565b7ff0c57e16840df040f15088dc2f81fe391c3923bec73e23a9662efc9c229c6a008054600160401b810460ff1615906001600160401b031660008115801562000b3a5750825b90506000826001600160401b0316600114801562000b575750303b155b90508115801562000b66575080155b1562000b855760405163f92ee8a960e01b815260040160405180910390fd5b845467ffffffffffffffff19166001178555831562000bb057845460ff60401b1916600160401b1785555b62000bc48f8f8f8f8f8f8f8f8f8f6200155f565b831562000c0c57845460ff60401b19168555604051600181527fc7f505b2f371ae2175ee4913f4499e1f2633a7b5936321eed1cdaeb6115181d2906020015b60405180910390a15b505050505050505050505050505050565b6060600062000c2b62000d83565b600b810180546040805160208084028201810190925282815293945060009084015b8282101562000d795760008481526020908190206040805160e0810182526007860290920180546001600160a01b031683526001810154938301939093526002830180549293929184019162000ca39062001e35565b80601f016020809104026020016040519081016040528092919081815260200182805462000cd19062001e35565b801562000d225780601f1062000cf65761010080835404028352916020019162000d22565b820191906000526020600020905b81548152906001019060200180831162000d0457829003601f168201915b505050918352505060038201546001600160a01b0390811660208084019190915260048401548216604084015260058401548216606084015260069093015416608090910152908252600192909201910162000c4d565b5050505091505090565b7f0f40dde8b99b0722537b774c6ef775b5e5a0af035d95bf9802cd87411f806f0090565b60008062000db462000d83565b60088101546040519192506000916001600160a01b0390911690632e3e235960e21b9062000ded908a908a9089908b9060240162001e71565b60408051601f198184030181529181526020820180516001600160e01b03166001600160e01b031990941693909317909252905162000e2c9062001812565b62000e3992919062001eae565b604051809103906000f08015801562000e56573d6000803e3d6000fd5b50979650505050505050565b60008062000e6f62000d83565b60068101546007820154604080516001600160a01b039283166024820152604481018a9052606481018990528783166084820181905260a48201523060c4808301919091528251808303909101815260e490910182526020810180516001600160e01b03166311917b1d60e01b17905290519394508693600093929092169162000e2c9062001812565b60008062000f0662000d83565b600a81018054919250600062000f1c8362001ed4565b90915550506009810154600a8201546040516350b35f8360e11b81526001600160a01b03878116600483015288811660248301526044820192909252600092919091169063a166bf0690606401600060405180830381865afa15801562000f87573d6000803e3d6000fd5b505050506040513d6000823e601f3d908101601f1916820160405262000fb1919081019062001efc565b90506000866001600160a01b03166306fdde036040518163ffffffff1660e01b8152600401600060405180830381865afa15801562000ff4573d6000803e3d6000fd5b505050506040513d6000823e601f3d908101601f191682016040526200101e919081019062001efc565b90506000876001600160a01b03166395d89b416040518163ffffffff1660e01b8152600401600060405180830381865afa15801562001061573d6000803e3d6000fd5b505050506040513d6000823e601f3d908101601f191682016040526200108b919081019062001efc565b6040805160a0810182526001600160a01b03808c16825260208083018790528284018590528a82166060808501919091528c831660808501528451908101855260008082529181018290528085019190915260098901549351637bac419d60e01b8152949550919391921690637bac419d90620011119088908690869060040162001f7b565b6020604051808303816000875af115801562001131573d6000803e3d6000fd5b505050506040513d601f19601f8201168201806040525081019062001157919062001d55565b9a9950505050505050505050565b6000838383604051620011789062001820565b620011869392919062002023565b604051809103906000f080158015620011a3573d6000803e3d6000fd5b509695505050505050565b6000620011ba62000d83565b6003810154600182015460028301546040519394506000936001600160a01b039384169363c0c53b8b60e01b93620011fe9390821692911690339060240162001e12565b60408051601f198184030181529181526020820180516001600160e01b03166001600160e01b03199094169390931790925290516200123d9062001812565b6200124a92919062001eae565b604051809103906000f08015801562001267573d6000803e3d6000fd5b50825460405163d0def52160e01b81529192506000916001600160a01b039091169063d0def52190620012a1908590889060040162001eae565b6020604051808303816000875af1158015620012c1573d6000803e3d6000fd5b505050506040513d601f19601f82011682018060405250810190620012e7919062002060565b600480850154604051633e8e6e8b60e01b81529293506000926001600160a01b0390911691633e8e6e8b91620013209187910162001dfe565b6020604051808303816000875af115801562001340573d6000803e3d6000fd5b505050506040513d601f19601f8201168201806040525081019062001366919062001d55565b6040805160e0810182526001600160a01b0386811680835260208084018881528486018c8152878516606087015260006080870181905260a0870181905260c08701819052938452600c8c0190925294909120835181546001600160a01b0319169316929092178255925160018201559151929350916002820190620013ed9082620020e4565b5060608201516003820180546001600160a01b03199081166001600160a01b03938416179091556080840151600484018054831691841691909117905560a0840151600584018054831691841691909117905560c090930151600690920180548416928216929092179091558481166000908152600c8701602090815260408220600b8901805460018181018355918552929093208154600790930201805492909416919094161782558281015490820155600280820190620014b390840182620021ac565b5060038281015490820180546001600160a01b03199081166001600160a01b039384161790915560048085015490840180548316918416919091179055600580850154908401805483169184169190911790556006938401549390920180549092169281169290921790556040805191851682523360208301527f959085eb68ffa09abaec4dfe857741f20f41ead0b8f7a04c76e8555a78c597a2910160405180910390a15050505050565b7ff0c57e16840df040f15088dc2f81fe391c3923bec73e23a9662efc9c229c6a008054600160401b810460ff1615906001600160401b0316600081158015620015a55750825b90506000826001600160401b03166001148015620015c25750303b155b905081158015620015d1575080155b15620015f05760405163f92ee8a960e01b815260040160405180910390fd5b845467ffffffffffffffff1916600117855583156200161b57845460ff60401b1916600160401b1785555b60006200162762000d83565b90508f8160000160006101000a8154816001600160a01b0302191690836001600160a01b031602179055508e8160010160006101000a8154816001600160a01b0302191690836001600160a01b031602179055508d8160020160006101000a8154816001600160a01b0302191690836001600160a01b03160217905550898160030160006101000a8154816001600160a01b0302191690836001600160a01b031602179055508c8160040160006101000a8154816001600160a01b0302191690836001600160a01b031602179055508b8160050160006101000a8154816001600160a01b0302191690836001600160a01b03160217905550878160060160006101000a8154816001600160a01b0302191690836001600160a01b031602179055508a8160070160006101000a8154816001600160a01b0302191690836001600160a01b03160217905550868160080160006101000a8154816001600160a01b0302191690836001600160a01b03160217905550888160090160006101000a8154816001600160a01b0302191690836001600160a01b03160217905550600081600a018190555050831562000c0c57845460ff60401b19168555604051600181527fc7f505b2f371ae2175ee4913f4499e1f2633a7b5936321eed1cdaeb6115181d29060200162000c03565b6105bf806200229283390190565b6125fa806200285183390190565b6001600160a01b038116811462000af157600080fd5b634e487b7160e01b600052604160045260246000fd5b604051601f8201601f191681016001600160401b038111828210171562001885576200188562001844565b604052919050565b60006001600160401b03821115620018a957620018a962001844565b50601f01601f191660200190565b600082601f830112620018c957600080fd5b8135620018e0620018da826200188d565b6200185a565b818152846020838601011115620018f657600080fd5b816020850160208301376000918101602001919091529392505050565b600080600080608085870312156200192a57600080fd5b843562001937816200182e565b935060208501356001600160401b038111156200195357600080fd5b6200196187828801620018b7565b935050604085013562001974816200182e565b9150606085013562001986816200182e565b939692955090935050565b60005b83811015620019ae57818101518382015260200162001994565b50506000910152565b60008151808452620019d181602086016020860162001991565b601f01601f19169290920160200192915050565b602081526000620019fa6020830184620019b7565b9392505050565b60006020828403121562001a1457600080fd5b8135620019fa816200182e565b600060018060a01b0380835116845260208301516020850152604083015160e0604086015262001a5560e0860182620019b7565b90508160608501511660608601528160808501511660808601528160a08501511660a08601528160c08501511660c0860152809250505092915050565b602081526000620019fa602083018462001a21565b6000806000806080858703121562001abe57600080fd5b843562001acb816200182e565b9350602085013562001add816200182e565b93969395505050506040820135916060013590565b6000806000806080858703121562001b0957600080fd5b843562001b16816200182e565b935060208501356001600160401b038082111562001b3357600080fd5b62001b4188838901620018b7565b9450604087013591508082111562001b5857600080fd5b5062001b6787828801620018b7565b925050606085013560ff811681146200198657600080fd5b60006020828403121562001b9257600080fd5b81356001600160401b0381111562001ba957600080fd5b62001bb784828501620018b7565b949350505050565b6000806000806000806000806000806101408b8d03121562001be057600080fd5b8a3562001bed816200182e565b995060208b013562001bff816200182e565b985060408b013562001c11816200182e565b975060608b013562001c23816200182e565b965060808b013562001c35816200182e565b955060a08b013562001c47816200182e565b945060c08b013562001c59816200182e565b935060e08b013562001c6b816200182e565b92506101008b013562001c7e816200182e565b91506101208b013562001c91816200182e565b809150509295989b9194979a5092959850565b600060208083016020845280855180835260408601915060408160051b87010192506020870160005b8281101562001cff57603f1988860301845262001cec85835162001a21565b9450928501929085019060010162001ccd565b5092979650505050505050565b60208082526029908201527f4275696c64696e67466163746f72793a20496e76616c6964206275696c64696e60408201526867206164647265737360b81b606082015260800190565b60006020828403121562001d6857600080fd5b8151620019fa816200182e565b60208082526023908201527f4275696c64696e67466163746f72793a204e6f74206275696c64696e67206f776040820152623732b960e91b606082015260800190565b60208082526026908201527f4275696c64696e67466163746f72793a20496e76616c696420746f6b656e206160408201526564647265737360d01b606082015260800190565b6001600160a01b0391909116815260200190565b6001600160a01b0393841681529183166020830152909116604082015260600190565b600181811c9082168062001e4a57607f821691505b60208210810362001e6b57634e487b7160e01b600052602260045260246000fd5b50919050565b600060018060a01b0380871683526080602084015262001e956080840187620019b7565b9481166040840152929092166060909101525092915050565b6001600160a01b038316815260406020820181905260009062001bb790830184620019b7565b60006001820162001ef557634e487b7160e01b600052601160045260246000fd5b5060010190565b60006020828403121562001f0f57600080fd5b81516001600160401b0381111562001f2657600080fd5b8201601f8101841362001f3857600080fd5b805162001f49620018da826200188d565b81815285602083850101111562001f5f57600080fd5b62001f7282602083016020860162001991565b95945050505050565b60a08152600062001f9060a0830186620019b7565b828103602084015260018060a01b03808651168252602086015160a0602084015262001fc060a0840182620019b7565b90506040870151838203604085015262001fdb8282620019b7565b91505081606088015116606084015281608088015116608084015280935050808551166040850152806020860151166060850152505060408301516080830152949350505050565b606081526000620020386060830186620019b7565b82810360208401526200204c8186620019b7565b91505060ff83166040830152949350505050565b6000602082840312156200207357600080fd5b5051919050565b601f821115620020ca576000816000526020600020601f850160051c81016020861015620020a55750805b601f850160051c820191505b81811015620020c657828155600101620020b1565b5050505b505050565b600019600383901b1c191660019190911b1790565b81516001600160401b0381111562002100576200210062001844565b620021188162002111845462001e35565b846200207a565b602080601f8311600181146200214c5760008415620021375750858301515b620021438582620020cf565b865550620020c6565b600085815260208120601f198616915b828110156200217d578886015182559484019460019091019084016200215c565b50858210156200219c5787850151600019600388901b60f8161c191681555b5050505050600190811b01905550565b818103620021b8575050565b620021c4825462001e35565b6001600160401b03811115620021de57620021de62001844565b620021ef8162002111845462001e35565b6000601f8211600181146200222257600083156200220d5750848201545b620022198482620020cf565b8555506200228a565b600085815260209020601f19841690600086815260209020845b838110156200225e57828601548255600195860195909101906020016200223c565b50858310156200227d5781850154600019600388901b60f8161c191681555b50505060018360011b0184555b505050505056fe60a06040526040516105bf3803806105bf83398101604081905261002291610387565b61002c828261003e565b506001600160a01b031660805261047e565b610047826100fe565b6040516001600160a01b038316907f1cf3b03a6cf19fa2baba4df148e9dcabedea7f8a5c07840e207e5c089be95d3e90600090a28051156100f2576100ed826001600160a01b0316635c60da1b6040518163ffffffff1660e01b8152600401602060405180830381865afa1580156100c3573d6000803e3d6000fd5b505050506040513d601f19601f820116820180604052508101906100e79190610447565b82610211565b505050565b6100fa610288565b5050565b806001600160a01b03163b60000361013957604051631933b43b60e21b81526001600160a01b03821660048201526024015b60405180910390fd5b807fa3f0ad74e5423aebfd80d3ef4346578335a9a72aeaee59ff6cb3582b35133d5080546001600160a01b0319166001600160a01b0392831617905560408051635c60da1b60e01b81529051600092841691635c60da1b9160048083019260209291908290030181865afa1580156101b5573d6000803e3d6000fd5b505050506040513d601f19601f820116820180604052508101906101d99190610447565b9050806001600160a01b03163b6000036100fa57604051634c9c8ce360e01b81526001600160a01b0382166004820152602401610130565b6060600080846001600160a01b03168460405161022e9190610462565b600060405180830381855af49150503d8060008114610269576040519150601f19603f3d011682016040523d82523d6000602084013e61026e565b606091505b50909250905061027f8583836102a9565b95945050505050565b34156102a75760405163b398979f60e01b815260040160405180910390fd5b565b6060826102be576102b982610308565b610301565b81511580156102d557506001600160a01b0384163b155b156102fe57604051639996b31560e01b81526001600160a01b0385166004820152602401610130565b50805b9392505050565b8051156103185780518082602001fd5b604051630a12f52160e11b815260040160405180910390fd5b80516001600160a01b038116811461034857600080fd5b919050565b634e487b7160e01b600052604160045260246000fd5b60005b8381101561037e578181015183820152602001610366565b50506000910152565b6000806040838503121561039a57600080fd5b6103a383610331565b60208401519092506001600160401b03808211156103c057600080fd5b818501915085601f8301126103d457600080fd5b8151818111156103e6576103e661034d565b604051601f8201601f19908116603f0116810190838211818310171561040e5761040e61034d565b8160405282815288602084870101111561042757600080fd5b610438836020830160208801610363565b80955050505050509250929050565b60006020828403121561045957600080fd5b61030182610331565b60008251610474818460208701610363565b9190910192915050565b6080516101276104986000396000601e01526101276000f3fe6080604052600a600c565b005b60186014601a565b60a0565b565b60007f00000000000000000000000000000000000000000000000000000000000000006001600160a01b0316635c60da1b6040518163ffffffff1660e01b8152600401602060405180830381865afa1580156079573d6000803e3d6000fd5b505050506040513d601f19601f82011682018060405250810190609b919060c3565b905090565b3660008037600080366000845af43d6000803e80801560be573d6000f35b3d6000fd5b60006020828403121560d457600080fd5b81516001600160a01b038116811460ea57600080fd5b939250505056fea26469706673582212205c8a2fcdc6f79c1d43b849e2b03f494652cee222b2ec86046b7caaa1405f985f64736f6c634300081800336101606040523480156200001257600080fd5b50604051620025fa380380620025fa83398101604081905262000035916200032d565b338280604051806040016040528060018152602001603160f81b8152508686816003908162000065919062000443565b50600462000074828262000443565b50620000869150839050600562000192565b610120526200009781600662000192565b61014052815160208084019190912060e052815190820120610100524660a0526200012560e05161010051604080517f8b73c3c69bb8fe3d512ecc4cf759cc79239f7b179b0ffacaa9a75d522b39400f60208201529081019290925260608201524660808201523060a082015260009060c00160405160208183030381529060405280519060200120905090565b60805250503060c052506001600160a01b0381166200015f57604051631e4fbdf760e01b8152600060048201526024015b60405180910390fd5b6200016a81620001cb565b50600b805460ff909216600160a01b0260ff60a01b1990921691909117905550620005699050565b6000602083511015620001b257620001aa836200021d565b9050620001c5565b81620001bf848262000443565b5060ff90505b92915050565b600b80546001600160a01b038381166001600160a01b0319831681179093556040519116919082907f8be0079c531659141344cd1fd0a4f28419497f9722a3daafe3b4186f6b6457e090600090a35050565b600080829050601f815111156200024b578260405163305a27a960e01b81526004016200015691906200050f565b8051620002588262000544565b179392505050565b634e487b7160e01b600052604160045260246000fd5b60005b838110156200029357818101518382015260200162000279565b50506000910152565b600082601f830112620002ae57600080fd5b81516001600160401b0380821115620002cb57620002cb62000260565b604051601f8301601f19908116603f01168101908282118183101715620002f657620002f662000260565b816040528381528660208588010111156200031057600080fd5b6200032384602083016020890162000276565b9695505050505050565b6000806000606084860312156200034357600080fd5b83516001600160401b03808211156200035b57600080fd5b62000369878388016200029c565b945060208601519150808211156200038057600080fd5b506200038f868287016200029c565b925050604084015160ff81168114620003a757600080fd5b809150509250925092565b600181811c90821680620003c757607f821691505b602082108103620003e857634e487b7160e01b600052602260045260246000fd5b50919050565b601f8211156200043e576000816000526020600020601f850160051c81016020861015620004195750805b601f850160051c820191505b818110156200043a5782815560010162000425565b5050505b505050565b81516001600160401b038111156200045f576200045f62000260565b6200047781620004708454620003b2565b84620003ee565b602080601f831160018114620004af5760008415620004965750858301515b600019600386901b1c1916600185901b1785556200043a565b600085815260208120601f198616915b82811015620004e057888601518255948401946001909101908401620004bf565b5085821015620004ff5787850151600019600388901b60f8161c191681555b5050505050600190811b01905550565b60208152600082518060208401526200053081604085016020870162000276565b601f01601f19169190910160400192915050565b80516020808301519190811015620003e85760001960209190910360031b1b16919050565b60805160a05160c05160e051610100516101205161014051612036620005c46000396000610ed601526000610ea901526000610be901526000610bc101526000610b1c01526000610b4601526000610b7001526120366000f3fe608060405234801561001057600080fd5b50600436106101795760003560e01c8063715018a6116100d95780639ab24eb0116100875780639ab24eb014610340578063a9059cbb14610353578063c3cda52014610366578063d505accf14610379578063dd62ed3e1461038c578063f1127ed81461039f578063f2fde38b146103de57600080fd5b8063715018a6146102bf5780637ecebe00146102c757806384b0196e146102da5780638da5cb5b146102f55780638e539e8c1461030657806391ddadf41461031957806395d89b411461033857600080fd5b80633a46b1a8116101365780633a46b1a81461020b57806340c10f191461021e5780634bf5d7e914610233578063587cde1e1461023b5780635c19a95c1461025b5780636fcfff451461026e57806370a082311461029657600080fd5b806306fdde031461017e578063095ea7b31461019c57806318160ddd146101bf57806323b872dd146101d1578063313ce567146101e45780633644e51514610203575b600080fd5b6101866103f1565b6040516101939190611c02565b60405180910390f35b6101af6101aa366004611c31565b610483565b6040519015158152602001610193565b6002545b604051908152602001610193565b6101af6101df366004611c5b565b61049d565b600b54600160a01b900460ff1660405160ff9091168152602001610193565b6101c36104c1565b6101c3610219366004611c31565b6104d0565b61023161022c366004611c31565b610556565b005b610186610612565b61024e610249366004611c97565b61068a565b6040516101939190611cb2565b610231610269366004611c97565b6106a8565b61028161027c366004611c97565b6106b3565b60405163ffffffff9091168152602001610193565b6101c36102a4366004611c97565b6001600160a01b031660009081526020819052604090205490565b6102316106be565b6101c36102d5366004611c97565b6106d2565b6102e26106dd565b6040516101939796959493929190611cc6565b600b546001600160a01b031661024e565b6101c3610314366004611d5f565b610723565b61032161078d565b60405165ffffffffffff9091168152602001610193565b610186610797565b6101c361034e366004611c97565b6107a6565b6101af610361366004611c31565b6107d6565b610231610374366004611d89565b6107e4565b610231610387366004611de1565b6108a1565b6101c361039a366004611e4b565b6109bd565b6103b26103ad366004611e7e565b6109e8565b60408051825165ffffffffffff1681526020928301516001600160d01b03169281019290925201610193565b6102316103ec366004611c97565b610a0d565b60606003805461040090611ebe565b80601f016020809104026020016040519081016040528092919081815260200182805461042c90611ebe565b80156104795780601f1061044e57610100808354040283529160200191610479565b820191906000526020600020905b81548152906001019060200180831161045c57829003601f168201915b5050505050905090565b600033610491818585610a4b565b60019150505b92915050565b6000336104ab858285610a5d565b6104b6858585610ab0565b506001949350505050565b60006104cb610b0f565b905090565b6000806104db61078d565b90508065ffffffffffff16831061051b57604051637669fc0f60e11b81526004810184905265ffffffffffff821660248201526044015b60405180910390fd5b61054561052784610c3a565b6001600160a01b038616600090815260096020526040902090610c71565b6001600160d01b0316949350505050565b61055e610d27565b6001600160a01b0382166105b45760405162461bcd60e51b815260206004820152601e60248201527f4275696c64696e6745524332303a20496e76616c6964206164647265737300006044820152606401610512565b600081116106045760405162461bcd60e51b815260206004820152601d60248201527f4275696c64696e6745524332303a20496e76616c696420616d6f756e740000006044820152606401610512565b61060e8282610d54565b5050565b606061061c610d8a565b65ffffffffffff1661062c61078d565b65ffffffffffff1614610652576040516301bfc1c560e61b815260040160405180910390fd5b5060408051808201909152601d81527f6d6f64653d626c6f636b6e756d6265722666726f6d3d64656661756c74000000602082015290565b6001600160a01b039081166000908152600860205260409020541690565b3361060e8183610d95565b600061049782610e10565b6106c6610d27565b6106d06000610e32565b565b600061049782610e84565b6000606080600080600060606106f1610ea2565b6106f9610ecf565b60408051600080825260208201909252600f60f81b9b939a50919850469750309650945092509050565b60008061072e61078d565b90508065ffffffffffff16831061076957604051637669fc0f60e11b81526004810184905265ffffffffffff82166024820152604401610512565b61077d61077584610c3a565b600a90610c71565b6001600160d01b03169392505050565b60006104cb610d8a565b60606004805461040090611ebe565b6001600160a01b03811660009081526009602052604081206107c790610efc565b6001600160d01b031692915050565b600033610491818585610ab0565b8342111561080857604051632341d78760e11b815260048101859052602401610512565b604080517fe48329057bfd03d55e49b547132e39cffd9c1820ad7b9d4c5307691425d15adf60208201526001600160a01b0388169181019190915260608101869052608081018590526000906108829061087a9060a00160405160208183030381529060405280519060200120610f35565b858585610f62565b905061088e8187610f90565b6108988188610d95565b50505050505050565b834211156108c55760405163313c898160e11b815260048101859052602401610512565b60007f6e71edae12b1b97f4d1f60370fef10105fa2faae0126114a169c64845d6126c98888886108f48c610fcf565b6040805160208101969096526001600160a01b0394851690860152929091166060840152608083015260a082015260c0810186905260e001604051602081830303815290604052805190602001209050600061094f82610f35565b9050600061095f82878787610f62565b9050896001600160a01b0316816001600160a01b0316146109a6576040516325c0072360e11b81526001600160a01b0380831660048301528b166024820152604401610512565b6109b18a8a8a610a4b565b50505050505050505050565b6001600160a01b03918216600090815260016020908152604080832093909416825291909152205490565b6040805180820190915260008082526020820152610a068383610ff2565b9392505050565b610a15610d27565b6001600160a01b038116610a3f576000604051631e4fbdf760e01b81526004016105129190611cb2565b610a4881610e32565b50565b610a588383836001611028565b505050565b6000610a6984846109bd565b90506000198114610aaa5781811015610a9b57828183604051637dc7a0d960e11b815260040161051293929190611ef8565b610aaa84848484036000611028565b50505050565b6001600160a01b038316610ada576000604051634b637e8f60e11b81526004016105129190611cb2565b6001600160a01b038216610b0457600060405163ec442f0560e01b81526004016105129190611cb2565b610a588383836110fd565b6000306001600160a01b037f000000000000000000000000000000000000000000000000000000000000000016148015610b6857507f000000000000000000000000000000000000000000000000000000000000000046145b15610b9257507f000000000000000000000000000000000000000000000000000000000000000090565b6104cb604080517f8b73c3c69bb8fe3d512ecc4cf759cc79239f7b179b0ffacaa9a75d522b39400f60208201527f0000000000000000000000000000000000000000000000000000000000000000918101919091527f000000000000000000000000000000000000000000000000000000000000000060608201524660808201523060a082015260009060c00160405160208183030381529060405280519060200120905090565b600065ffffffffffff821115610c6d576040516306dfcc6560e41b81526030600482015260248101839052604401610512565b5090565b815460009081816005811115610cd0576000610c8c84611108565b610c969085611f2f565b60008881526020902090915081015465ffffffffffff9081169087161015610cc057809150610cce565b610ccb816001611f42565b92505b505b6000610cde878785856111f0565b90508015610d1957610d0387610cf5600184611f2f565b600091825260209091200190565b54600160301b90046001600160d01b0316610d1c565b60005b979650505050505050565b600b546001600160a01b031633146106d0573360405163118cdaa760e01b81526004016105129190611cb2565b6001600160a01b038216610d7e57600060405163ec442f0560e01b81526004016105129190611cb2565b61060e600083836110fd565b60006104cb43610c3a565b6000610da08361068a565b6001600160a01b0384811660008181526008602052604080822080546001600160a01b031916888616908117909155905194955093928516927f3134e8a2e6d97e929a7e54011ea5485d7d196dd5f0ba4d4ef95803e8e3fc257f9190a4610a588183610e0b86611252565b611270565b6001600160a01b038116600090815260096020526040812054610497906113dc565b600b80546001600160a01b038381166001600160a01b0319831681179093556040519116919082907f8be0079c531659141344cd1fd0a4f28419497f9722a3daafe3b4186f6b6457e090600090a35050565b6001600160a01b038116600090815260076020526040812054610497565b60606104cb7f0000000000000000000000000000000000000000000000000000000000000000600561140d565b60606104cb7f0000000000000000000000000000000000000000000000000000000000000000600661140d565b80546000908015610f2c57610f1683610cf5600184611f2f565b54600160301b90046001600160d01b0316610a06565b60009392505050565b6000610497610f42610b0f565b8360405161190160f01b8152600281019290925260228201526042902090565b600080600080610f74888888886114b8565b925092509250610f84828261157d565b50909695505050505050565b6000610f9b83610fcf565b9050808214610a58576040516301d4b62360e61b81526001600160a01b038416600482015260248101829052604401610512565b6001600160a01b0316600090815260076020526040902080546001810190915590565b60408051808201909152600080825260208201526001600160a01b0383166000908152600960205260409020610a069083611636565b6001600160a01b03841661105257600060405163e602df0560e01b81526004016105129190611cb2565b6001600160a01b03831661107c576000604051634a1406b160e11b81526004016105129190611cb2565b6001600160a01b0380851660009081526001602090815260408083209387168352929052208290558015610aaa57826001600160a01b0316846001600160a01b03167f8c5be1e5ebec7d5bd14f71427d1e84f3dd0314c0f7b2291e5b200ac8c7c3b925846040516110ef91815260200190565b60405180910390a350505050565b610a588383836116a6565b60008160000361111a57506000919050565b600060016111278461170d565b901c6001901b9050600181848161114057611140611f55565b048201901c9050600181848161115857611158611f55565b048201901c9050600181848161117057611170611f55565b048201901c9050600181848161118857611188611f55565b048201901c905060018184816111a0576111a0611f55565b048201901c905060018184816111b8576111b8611f55565b048201901c905060018184816111d0576111d0611f55565b048201901c9050610a06818285816111ea576111ea611f55565b046117a1565b60005b8183101561124a57600061120784846117b7565b60008781526020902090915065ffffffffffff86169082015465ffffffffffff16111561123657809250611244565b611241816001611f42565b93505b506111f3565b509392505050565b6001600160a01b038116600090815260208190526040812054610497565b816001600160a01b0316836001600160a01b0316141580156112925750600081115b15610a58576001600160a01b0383161561133a576001600160a01b038316600090815260096020526040812081906112d5906117d26112d0866117de565b611812565b6001600160d01b031691506001600160d01b03169150846001600160a01b03167fdec2bacdd2f05b59de34da9b523dff8be42e5e38e818c82fdb0bae774387a724838360405161132f929190918252602082015260400190565b60405180910390a250505b6001600160a01b03821615610a58576001600160a01b038216600090815260096020526040812081906113739061184b6112d0866117de565b6001600160d01b031691506001600160d01b03169150836001600160a01b03167fdec2bacdd2f05b59de34da9b523dff8be42e5e38e818c82fdb0bae774387a72483836040516113cd929190918252602082015260400190565b60405180910390a25050505050565b600063ffffffff821115610c6d576040516306dfcc6560e41b81526020600482015260248101839052604401610512565b606060ff83146114275761142083611857565b9050610497565b81805461143390611ebe565b80601f016020809104026020016040519081016040528092919081815260200182805461145f90611ebe565b80156114ac5780601f10611481576101008083540402835291602001916114ac565b820191906000526020600020905b81548152906001019060200180831161148f57829003601f168201915b50505050509050610497565b600080806fa2a8918ca85bafe22016d0b997e4df60600160ff1b038411156114e95750600091506003905082611573565b604080516000808252602082018084528a905260ff891692820192909252606081018790526080810186905260019060a0016020604051602081039080840390855afa15801561153d573d6000803e3d6000fd5b5050604051601f1901519150506001600160a01b03811661156957506000925060019150829050611573565b9250600091508190505b9450945094915050565b600082600381111561159157611591611f6b565b0361159a575050565b60018260038111156115ae576115ae611f6b565b036115cc5760405163f645eedf60e01b815260040160405180910390fd5b60028260038111156115e0576115e0611f6b565b036116015760405163fce698f760e01b815260048101829052602401610512565b600382600381111561161557611615611f6b565b0361060e576040516335e2f38360e21b815260048101829052602401610512565b6040805180820190915260008082526020820152826000018263ffffffff168154811061166557611665611f81565b60009182526020918290206040805180820190915291015465ffffffffffff81168252600160301b90046001600160d01b0316918101919091529392505050565b6116b1838383611896565b6001600160a01b0383166117025760006116ca60025490565b90506001600160d01b03808211156116ff57604051630e58ae9360e11b81526004810183905260248101829052604401610512565b50505b610a588383836119ad565b600080608083901c1561172257608092831c92015b604083901c1561173457604092831c92015b602083901c1561174657602092831c92015b601083901c1561175857601092831c92015b600883901c1561176a57600892831c92015b600483901c1561177c57600492831c92015b600283901c1561178e57600292831c92015b600183901c156104975760010192915050565b60008183106117b05781610a06565b5090919050565b60006117c66002848418611f97565b610a0690848416611f42565b6000610a068284611fb9565b60006001600160d01b03821115610c6d576040516306dfcc6560e41b815260d0600482015260248101839052604401610512565b60008061183e61182061078d565b61183661182c88610efc565b868863ffffffff16565b879190611a0c565b915091505b935093915050565b6000610a068284611fe0565b6060600061186483611a1a565b604080516020808252818301909252919250600091906020820181803683375050509182525060208101929092525090565b6001600160a01b0383166118c15780600260008282546118b69190611f42565b909155506119209050565b6001600160a01b038316600090815260208190526040902054818110156119015783818360405163391434e360e21b815260040161051293929190611ef8565b6001600160a01b03841660009081526020819052604090209082900390555b6001600160a01b03821661193c5760028054829003905561195b565b6001600160a01b03821660009081526020819052604090208054820190555b816001600160a01b0316836001600160a01b03167fddf252ad1be2c89b69c2b068fc378daa952ba7f163c4a11628f55a4df523b3ef836040516119a091815260200190565b60405180910390a3505050565b6001600160a01b0383166119cf576119cc600a61184b6112d0846117de565b50505b6001600160a01b0382166119f1576119ee600a6117d26112d0846117de565b50505b610a586119fd8461068a565b611a068461068a565b83611270565b60008061183e858585611a42565b600060ff8216601f81111561049757604051632cd44ac360e21b815260040160405180910390fd5b825460009081908015611b61576000611a6087610cf5600185611f2f565b60408051808201909152905465ffffffffffff808216808452600160301b9092046001600160d01b031660208401529192509087161015611ab457604051632520601d60e01b815260040160405180910390fd5b805165ffffffffffff808816911603611b005784611ad788610cf5600186611f2f565b80546001600160d01b0392909216600160301b0265ffffffffffff909216919091179055611b51565b6040805180820190915265ffffffffffff80881682526001600160d01b0380881660208085019182528b54600181018d5560008d81529190912094519151909216600160301b029216919091179101555b6020015192508391506118439050565b50506040805180820190915265ffffffffffff80851682526001600160d01b0380851660208085019182528854600181018a5560008a815291822095519251909316600160301b029190931617920191909155905081611843565b6000815180845260005b81811015611be257602081850181015186830182015201611bc6565b506000602082860101526020601f19601f83011685010191505092915050565b602081526000610a066020830184611bbc565b80356001600160a01b0381168114611c2c57600080fd5b919050565b60008060408385031215611c4457600080fd5b611c4d83611c15565b946020939093013593505050565b600080600060608486031215611c7057600080fd5b611c7984611c15565b9250611c8760208501611c15565b9150604084013590509250925092565b600060208284031215611ca957600080fd5b610a0682611c15565b6001600160a01b0391909116815260200190565b60ff60f81b881681526000602060e06020840152611ce760e084018a611bbc565b8381036040850152611cf9818a611bbc565b606085018990526001600160a01b038816608086015260a0850187905284810360c08601528551808252602080880193509091019060005b81811015611d4d57835183529284019291840191600101611d31565b50909c9b505050505050505050505050565b600060208284031215611d7157600080fd5b5035919050565b803560ff81168114611c2c57600080fd5b60008060008060008060c08789031215611da257600080fd5b611dab87611c15565b95506020870135945060408701359350611dc760608801611d78565b92506080870135915060a087013590509295509295509295565b600080600080600080600060e0888a031215611dfc57600080fd5b611e0588611c15565b9650611e1360208901611c15565b95506040880135945060608801359350611e2f60808901611d78565b925060a0880135915060c0880135905092959891949750929550565b60008060408385031215611e5e57600080fd5b611e6783611c15565b9150611e7560208401611c15565b90509250929050565b60008060408385031215611e9157600080fd5b611e9a83611c15565b9150602083013563ffffffff81168114611eb357600080fd5b809150509250929050565b600181811c90821680611ed257607f821691505b602082108103611ef257634e487b7160e01b600052602260045260246000fd5b50919050565b6001600160a01b039390931683526020830191909152604082015260600190565b634e487b7160e01b600052601160045260246000fd5b8181038181111561049757610497611f19565b8082018082111561049757610497611f19565b634e487b7160e01b600052601260045260246000fd5b634e487b7160e01b600052602160045260246000fd5b634e487b7160e01b600052603260045260246000fd5b600082611fb457634e487b7160e01b600052601260045260246000fd5b500490565b6001600160d01b03828116828216039080821115611fd957611fd9611f19565b5092915050565b6001600160d01b03818116838216019080821115611fd957611fd9611f1956fea2646970667358221220e0e17d2f0ebf767b6c1778db47235ab6fb01c71ff19353cf846b8b2934090a7264736f6c63430008180033a264697066735822122093951a4cde361cb7d270d23be180b1def3e2465324999cea0c2f13ba575bdf5564736f6c63430008180033",
  "linkReferences": {},
  "deployedLinkReferences": {}
}