{
  "_format": "hh-sol-artifact-1",
  "contractName": "BuildingMock",
  "sourceName": "contracts/buildings/mock/BuildingMock.sol",
  "abi": [
    {
      "inputs": [],
      "name": "InvalidInitialization",
      "type": "error"
    },
    {
      "inputs": [],
      "name": "NotInitializing",
      "type": "error"
    },
    {
      "inputs": [
        {
          "internalType": "address",
          "name": "owner",
          "type": "address"
        }
      ],
      "name": "OwnableInvalidOwner",
      "type": "error"
    },
    {
      "inputs": [
        {
          "internalType": "address",
          "name": "account",
          "type": "address"
        }
      ],
      "name": "OwnableUnauthorizedAccount",
      "type": "error"
    },
    {
      "anonymous": false,
      "inputs": [
        {
          "indexed": false,
          "internalType": "bool",
          "name": "",
          "type": "bool"
        },
        {
          "indexed": false,
          "internalType": "bytes",
          "name": "",
          "type": "bytes"
        }
      ],
      "name": "CallResponseEvent",
      "type": "event"
    },
    {
      "anonymous": false,
      "inputs": [
        {
          "indexed": false,
          "internalType": "uint64",
          "name": "version",
          "type": "uint64"
        }
      ],
      "name": "Initialized",
      "type": "event"
    },
    {
      "anonymous": false,
      "inputs": [
        {
          "indexed": false,
          "internalType": "address",
          "name": "addr",
          "type": "address"
        }
      ],
      "name": "NewAuditRegistry",
      "type": "event"
    },
    {
      "anonymous": false,
      "inputs": [
        {
          "indexed": true,
          "internalType": "address",
          "name": "previousOwner",
          "type": "address"
        },
        {
          "indexed": true,
          "internalType": "address",
          "name": "newOwner",
          "type": "address"
        }
      ],
      "name": "OwnershipTransferred",
      "type": "event"
    },
    {
      "inputs": [
        {
          "internalType": "address",
          "name": "tokenA",
          "type": "address"
        },
        {
          "internalType": "uint256",
          "name": "tokenAAmount",
          "type": "uint256"
        },
        {
          "internalType": "address",
          "name": "tokenB",
          "type": "address"
        },
        {
          "internalType": "uint256",
          "name": "tokenBAmount",
          "type": "uint256"
        }
      ],
      "name": "addLiquidity",
      "outputs": [
        {
          "internalType": "uint256",
          "name": "",
          "type": "uint256"
        },
        {
          "internalType": "uint256",
          "name": "",
          "type": "uint256"
        },
        {
          "internalType": "uint256",
          "name": "",
          "type": "uint256"
        },
        {
          "internalType": "address",
          "name": "",
          "type": "address"
        }
      ],
      "stateMutability": "payable",
      "type": "function"
    },
    {
      "inputs": [],
      "name": "amountA",
      "outputs": [
        {
          "internalType": "uint256",
          "name": "",
          "type": "uint256"
        }
      ],
      "stateMutability": "view",
      "type": "function"
    },
    {
      "inputs": [],
      "name": "amountB",
      "outputs": [
        {
          "internalType": "uint256",
          "name": "",
          "type": "uint256"
        }
      ],
      "stateMutability": "view",
      "type": "function"
    },
    {
      "inputs": [
        {
          "internalType": "address",
          "name": "callableContract",
          "type": "address"
        },
        {
          "internalType": "bytes",
          "name": "data",
          "type": "bytes"
        }
      ],
      "name": "callContract",
      "outputs": [
        {
          "internalType": "bytes",
          "name": "",
          "type": "bytes"
        }
      ],
      "stateMutability": "payable",
      "type": "function"
    },
    {
      "inputs": [],
      "name": "getAuditRegistry",
      "outputs": [
        {
          "internalType": "address",
          "name": "",
          "type": "address"
        }
      ],
      "stateMutability": "view",
      "type": "function"
    },
    {
      "inputs": [],
      "name": "getUniswapFactory",
      "outputs": [
        {
          "internalType": "address",
          "name": "",
          "type": "address"
        }
      ],
      "stateMutability": "view",
      "type": "function"
    },
    {
      "inputs": [],
      "name": "getUniswapRouter",
      "outputs": [
        {
          "internalType": "address",
          "name": "",
          "type": "address"
        }
      ],
      "stateMutability": "view",
      "type": "function"
    },
    {
      "inputs": [
        {
          "internalType": "address",
          "name": "_uniswapRouter",
          "type": "address"
        },
        {
          "internalType": "address",
          "name": "_uniswapFactory",
          "type": "address"
        },
        {
          "internalType": "address",
          "name": "_nftAddress",
          "type": "address"
        }
      ],
      "name": "initialize",
      "outputs": [],
      "stateMutability": "nonpayable",
      "type": "function"
    },
    {
      "inputs": [],
      "name": "liquidity",
      "outputs": [
        {
          "internalType": "uint256",
          "name": "",
          "type": "uint256"
        }
      ],
      "stateMutability": "view",
      "type": "function"
    },
    {
      "inputs": [
        {
          "internalType": "address",
          "name": "",
          "type": "address"
        },
        {
          "internalType": "address",
          "name": "",
          "type": "address"
        },
        {
          "internalType": "uint256",
          "name": "",
          "type": "uint256"
        },
        {
          "internalType": "bytes",
          "name": "",
          "type": "bytes"
        }
      ],
      "name": "onERC721Received",
      "outputs": [
        {
          "internalType": "bytes4",
          "name": "",
          "type": "bytes4"
        }
      ],
      "stateMutability": "pure",
      "type": "function"
    },
    {
      "inputs": [],
      "name": "owner",
      "outputs": [
        {
          "internalType": "address",
          "name": "",
          "type": "address"
        }
      ],
      "stateMutability": "view",
      "type": "function"
    },
    {
      "inputs": [],
      "name": "pair",
      "outputs": [
        {
          "internalType": "address",
          "name": "",
          "type": "address"
        }
      ],
      "stateMutability": "view",
      "type": "function"
    },
    {
      "inputs": [
        {
          "internalType": "address",
          "name": "token",
          "type": "address"
        },
        {
          "internalType": "bytes",
          "name": "encodedFunctionSelector",
          "type": "bytes"
        }
      ],
      "name": "redirectForToken",
      "outputs": [
        {
          "internalType": "int256",
          "name": "responseCode",
          "type": "int256"
        },
        {
          "internalType": "bytes",
          "name": "response",
          "type": "bytes"
        }
      ],
      "stateMutability": "nonpayable",
      "type": "function"
    },
    {
      "inputs": [],
      "name": "renounceOwnership",
      "outputs": [],
      "stateMutability": "nonpayable",
      "type": "function"
    },
    {
      "inputs": [
        {
          "internalType": "address",
          "name": "token",
          "type": "address"
        },
        {
          "internalType": "address",
          "name": "from",
          "type": "address"
        },
        {
          "internalType": "address",
          "name": "to",
          "type": "address"
        },
        {
          "internalType": "uint256",
          "name": "amount",
          "type": "uint256"
        }
      ],
      "name": "transferFrom",
      "outputs": [
        {
          "internalType": "int64",
          "name": "responseCode",
          "type": "int64"
        }
      ],
      "stateMutability": "nonpayable",
      "type": "function"
    },
    {
      "inputs": [
        {
          "internalType": "address",
          "name": "token",
          "type": "address"
        },
        {
          "internalType": "address",
          "name": "from",
          "type": "address"
        },
        {
          "internalType": "address",
          "name": "to",
          "type": "address"
        },
        {
          "internalType": "uint256",
          "name": "serialNumber",
          "type": "uint256"
        }
      ],
      "name": "transferFromNFT",
      "outputs": [
        {
          "internalType": "int64",
          "name": "responseCode",
          "type": "int64"
        }
      ],
      "stateMutability": "nonpayable",
      "type": "function"
    },
    {
      "inputs": [
        {
          "internalType": "address",
          "name": "newOwner",
          "type": "address"
        }
      ],
      "name": "transferOwnership",
      "outputs": [],
      "stateMutability": "nonpayable",
      "type": "function"
    },
    {
      "inputs": [],
      "name": "version",
      "outputs": [
        {
          "internalType": "string",
          "name": "",
          "type": "string"
        }
      ],
      "stateMutability": "pure",
      "type": "function"
    }
  ],
  "bytecode": "0x608060405234801561001057600080fd5b5061001961001e565b6100d0565b7ff0c57e16840df040f15088dc2f81fe391c3923bec73e23a9662efc9c229c6a00805468010000000000000000900460ff161561006e5760405163f92ee8a960e01b815260040160405180910390fd5b80546001600160401b03908116146100cd5780546001600160401b0319166001600160401b0390811782556040519081527fc7f505b2f371ae2175ee4913f4499e1f2633a7b5936321eed1cdaeb6115181d29060200160405180910390a15b50565b612771806100df6000396000f3fe6080604052600436106100e95760003560e01c806354fd4d501161008557806354fd4d5014610252578063618dc65e1461027e578063715018a6146102ac5780638da5cb5b146102c35780639b23d3d9146102d8578063a8aa1b31146102f8578063bb6e15dc14610318578063c0c53b8b1461032d578063f2fde38b1461034d57600080fd5b806303710668146100ee578063150b7a0214610117578063156dcbf01461015c57806315dacbea146101805780631a686502146101b35780632efe91ef146101c9578063376d3d5d146101df5780633e6dfa361461021b578063524900b51461023d575b600080fd5b6101016100fc366004610f2c565b61036d565b60405161010e9190611040565b60405180910390f35b34801561012357600080fd5b50610143610132366004611053565b630a85bd0160e11b95945050505050565b6040516001600160e01b0319909116815260200161010e565b34801561016857600080fd5b5061017260005481565b60405190815260200161010e565b34801561018c57600080fd5b506101a061019b3660046110f2565b61038a565b60405160079190910b815260200161010e565b3480156101bf57600080fd5b5061017260025481565b3480156101d557600080fd5b5061017260015481565b6101f26101ed366004611143565b61046d565b604080519485526020850193909352918301526001600160a01b0316606082015260800161010e565b34801561022757600080fd5b506102306104be565b60405161010e919061117b565b34801561024957600080fd5b506102306104dc565b34801561025e57600080fd5b506040805180820190915260038152620322e360ec1b6020820152610101565b34801561028a57600080fd5b5061029e610299366004610f2c565b6104f7565b60405161010e92919061118f565b3480156102b857600080fd5b506102c1610615565b005b3480156102cf57600080fd5b50610230610629565b3480156102e457600080fd5b506101a06102f33660046110f2565b610652565b34801561030457600080fd5b50600354610230906001600160a01b031681565b34801561032457600080fd5b50610230610682565b34801561033957600080fd5b506102c16103483660046111a8565b6106ab565b34801561035957600080fd5b506102c16103683660046111f3565b6106bb565b6060610377610702565b6103818383610734565b90505b92915050565b60008060006101676001600160a01b03166315dacbea60e01b888888886040516024016103ba9493929190611217565b60408051601f198184030181529181526020820180516001600160e01b03166001600160e01b03199094169390931790925290516103f89190611241565b6000604051808303816000865af19150503d8060008114610435576040519150601f19603f3d011682016040523d82523d6000602084013e61043a565b606091505b50915091508161044b57601561045f565b8080602001905181019061045f919061125d565b60030b979650505050505050565b60008060008061047b610702565b610487888888886107e6565b600380546001600160a01b0319166001600160a01b0392909216919091179055600255600155600055929791965094509092509050565b6000806104c96108f1565b600101546001600160a01b031692915050565b6000806104e76108f1565b546001600160a01b031692915050565b600060606000806101676001600160a01b031663618dc65e60e01b8787604051602401610525929190611280565b60408051601f198184030181529181526020820180516001600160e01b03166001600160e01b03199094169390931790925290516105639190611241565b6000604051808303816000865af19150503d80600081146105a0576040519150601f19603f3d011682016040523d82523d6000602084013e6105a5565b606091505b50915091507f4af4780e06fe8cb9df64b0794fa6f01399af979175bb988e35e0e57e594567bc82826040516105db9291906112a4565b60405180910390a1816105ff57601560405180602001604052806000815250610603565b6016815b60039190910b97909650945050505050565b61061d610702565b6106276000610915565b565b6000807f9016d09d72d40fdae2fd8ceac6b6234c7706214fd39c1cd1e609a0528c1993006104e7565b60008060006101676001600160a01b0316639b23d3d960e01b888888886040516024016103ba9493929190611217565b6000807f1398114c786fd2d5dbcf29c302f594800c3b9ea470c98dbb34a8fb40a97e71006104e7565b6106b6838383610986565b505050565b6106c3610702565b6001600160a01b0381166106f6576000604051631e4fbdf760e01b81526004016106ed919061117b565b60405180910390fd5b6106ff81610915565b50565b3361070b610629565b6001600160a01b031614610627573360405163118cdaa760e01b81526004016106ed919061117b565b6060600080846001600160a01b031634856040516107529190611241565b60006040518083038185875af1925050503d806000811461078f576040519150601f19603f3d011682016040523d82523d6000602084013e610794565b606091505b5091509150816107de5760405162461bcd60e51b8152602060048201526015602482015274109d5a5b191a5b99ce8818d85b1b0819985a5b1959605a1b60448201526064016106ed565b949350505050565b60008080806001600160a01b0388166323b872dd33308a6040518463ffffffff1660e01b815260040161081b939291906112bf565b6020604051808303816000875af115801561083a573d6000803e3d6000fd5b505050506040513d601f19601f8201168201806040525081019061085e91906112e3565b506040516323b872dd60e01b81526001600160a01b038716906323b872dd9061088f90339030908a906004016112bf565b6020604051808303816000875af11580156108ae573d6000803e3d6000fd5b505050506040513d601f19601f820116820180604052508101906108d291906112e3565b506108df88878988610aaa565b929b919a509850909650945050505050565b7f75fd97eeafae39525b32773f2af3e4b201521c02695ece8bd2fe94e4c5024f0090565b7f9016d09d72d40fdae2fd8ceac6b6234c7706214fd39c1cd1e609a0528c19930080546001600160a01b031981166001600160a01b03848116918217845560405192169182907f8be0079c531659141344cd1fd0a4f28419497f9722a3daafe3b4186f6b6457e090600090a3505050565b7ff0c57e16840df040f15088dc2f81fe391c3923bec73e23a9662efc9c229c6a008054600160401b810460ff16159067ffffffffffffffff166000811580156109cc5750825b905060008267ffffffffffffffff1660011480156109e95750303b155b9050811580156109f7575080155b15610a155760405163f92ee8a960e01b815260040160405180910390fd5b845467ffffffffffffffff191660011785558315610a3f57845460ff60401b1916600160401b1785555b610a4886610d86565b610a528888610d97565b610a5a610ddc565b8315610aa057845460ff60401b19168555604051600181527fc7f505b2f371ae2175ee4913f4499e1f2633a7b5936321eed1cdaeb6115181d29060200160405180910390a15b5050505050505050565b6000806000806000610aba6108f1565b600181015460405163e6a4390560e01b81526001600160a01b038c811660048301528b8116602483015292935091169063e6a4390590604401602060405180830381865afa158015610b10573d6000803e3d6000fd5b505050506040513d601f19601f82011682018060405250810190610b349190611305565b91506001600160a01b038216610bc15760018101546040516364e329cb60e11b81526001600160a01b038b811660048301528a811660248301529091169063c9c65396906044016020604051808303816000875af1158015610b9a573d6000803e3d6000fd5b505050506040513d601f19601f82011682018060405250810190610bbe9190611305565b91505b805460405163095ea7b360e01b81526001600160a01b03918216600482015260248101899052908a169063095ea7b3906044016020604051808303816000875af1158015610c13573d6000803e3d6000fd5b505050506040513d601f19601f82011682018060405250810190610c3791906112e3565b50805460405163095ea7b360e01b81526001600160a01b039182166004820152602481018890529089169063095ea7b3906044016020604051808303816000875af1158015610c8a573d6000803e3d6000fd5b505050506040513d601f19601f82011682018060405250810190610cae91906112e3565b5080546001600160a01b031663e8e337008a8a8a8a818130610cd24261012c611322565b60405160e08a901b6001600160e01b03191681526001600160a01b039889166004820152968816602488015260448701959095526064860193909352608485019190915260a484015290921660c482015260e4810191909152610104016060604051808303816000875af1158015610d4e573d6000803e3d6000fd5b505050506040513d601f19601f82011682018060405250810190610d729190611343565b919b909a5090985091965090945050505050565b610d8e610e2a565b6106ff81610e73565b610d9f610e2a565b6000610da96108f1565b80546001600160a01b039485166001600160a01b0319918216178255600190910180549390941692169190911790915550565b610de4610e2a565b7f1398114c786fd2d5dbcf29c302f594800c3b9ea470c98dbb34a8fb40a97e7100610e0d610e84565b81546001600160a01b0319166001600160a01b0391909116179055565b7ff0c57e16840df040f15088dc2f81fe391c3923bec73e23a9662efc9c229c6a0054600160401b900460ff1661062757604051631afcd79f60e31b815260040160405180910390fd5b610e7b610e2a565b6106ff81610eeb565b6000604051610e9290610ef3565b604051809103906000f080158015610eae573d6000803e3d6000fd5b5090507f86391fba409e44e3af18aa6478dfccdb9b93ae68a497e6bbe24ff16b75196f1881604051610ee0919061117b565b60405180910390a190565b6106c3610e2a565b6113ca806200137283390190565b6001600160a01b03811681146106ff57600080fd5b634e487b7160e01b600052604160045260246000fd5b60008060408385031215610f3f57600080fd5b8235610f4a81610f01565b9150602083013567ffffffffffffffff80821115610f6757600080fd5b818501915085601f830112610f7b57600080fd5b813581811115610f8d57610f8d610f16565b604051601f8201601f19908116603f01168101908382118183101715610fb557610fb5610f16565b81604052828152886020848701011115610fce57600080fd5b8260208601602083013760006020848301015280955050505050509250929050565b60005b8381101561100b578181015183820152602001610ff3565b50506000910152565b6000815180845261102c816020860160208601610ff0565b601f01601f19169290920160200192915050565b6020815260006103816020830184611014565b60008060008060006080868803121561106b57600080fd5b853561107681610f01565b9450602086013561108681610f01565b935060408601359250606086013567ffffffffffffffff808211156110aa57600080fd5b818801915088601f8301126110be57600080fd5b8135818111156110cd57600080fd5b8960208285010111156110df57600080fd5b9699959850939650602001949392505050565b6000806000806080858703121561110857600080fd5b843561111381610f01565b9350602085013561112381610f01565b9250604085013561113381610f01565b9396929550929360600135925050565b6000806000806080858703121561115957600080fd5b843561116481610f01565b935060208501359250604085013561113381610f01565b6001600160a01b0391909116815260200190565b8281526040602082015260006107de6040830184611014565b6000806000606084860312156111bd57600080fd5b83356111c881610f01565b925060208401356111d881610f01565b915060408401356111e881610f01565b809150509250925092565b60006020828403121561120557600080fd5b813561121081610f01565b9392505050565b6001600160a01b039485168152928416602084015292166040820152606081019190915260800190565b60008251611253818460208701610ff0565b9190910192915050565b60006020828403121561126f57600080fd5b81518060030b811461121057600080fd5b6001600160a01b03831681526040602082018190526000906107de90830184611014565b82151581526040602082015260006107de6040830184611014565b6001600160a01b039384168152919092166020820152604081019190915260600190565b6000602082840312156112f557600080fd5b8151801515811461121057600080fd5b60006020828403121561131757600080fd5b815161121081610f01565b8082018082111561038457634e487b7160e01b600052601160045260246000fd5b60008060006060848603121561135857600080fd5b835192506020840151915060408401519050925092509256fe608060405234801561001057600080fd5b5061001c600033610022565b506100ce565b6000828152602081815260408083206001600160a01b038516845290915281205460ff166100c4576000838152602081815260408083206001600160a01b03861684529091529020805460ff1916600117905561007c3390565b6001600160a01b0316826001600160a01b0316847f2f8788117e7eff1d82e926ec794901d17c78024a50270940304540a733656f0d60405160405180910390a45060016100c8565b5060005b92915050565b6112ed806100dd6000396000f3fe608060405234801561001057600080fd5b50600436106100f65760003560e01c80636e1d616e116100925780636e1d616e146101eb57806391d1485414610200578063a217fddf14610213578063c9e398441461021b578063d547741f1461022e578063e429cef114610241578063e6116cfd14610254578063e74e786d14610267578063e95cf4441461028b57600080fd5b806301ffc9a7146100fb578063129b25af14610123578063237f4bcc14610138578063248a9ca3146101585780632f2ff15d1461018957806336568abe1461019c5780633f76730f146101af5780634afb29c6146101cf5780635949ea69146101d8575b600080fd5b61010e610109366004610caf565b61029e565b60405190151581526020015b60405180910390f35b610136610131366004610d45565b6102d5565b005b61014b610146366004610d98565b6104f1565b60405161011a9190610db3565b61017b610166366004610df7565b60009081526020819052604090206001015490565b60405190815260200161011a565b610136610197366004610e10565b61055d565b6101366101aa366004610e10565b610588565b6101c26101bd366004610df7565b6105c0565b60405161011a9190610e82565b61017b60015481565b6101366101e6366004610ee0565b6106d7565b61017b60008051602061129883398151915281565b61010e61020e366004610e10565b61080d565b61017b600081565b610136610229366004610df7565b610836565b61013661023c366004610e10565b61092d565b61013661024f366004610d98565b610952565b610136610262366004610d98565b610a12565b61027a610275366004610df7565b610a6d565b60405161011a959493929190610f13565b61017b610299366004610f58565b610b37565b60006001600160e01b03198216637965db0b60e01b14806102cf57506301ffc9a760e01b6001600160e01b03198316145b92915050565b6000805160206112988339815191526102ed81610b68565b6001600160a01b0384166103585760405162461bcd60e51b815260206004820152602760248201527f417564697452656769737472793a20496e76616c6964206275696c64696e67206044820152666164647265737360c81b60648201526084015b60405180910390fd5b816103755760405162461bcd60e51b815260040161034f90610f82565b6001805490600061038583610fc6565b9190505550600060015490506040518060a00160405280866001600160a01b03168152602001336001600160a01b0316815260200185858080601f01602080910402602001604051908101604052809392919081815260200183838082843760009201829052509385525050426020808501919091526040938401839052858352600280825292849020855181546001600160a01b03199081166001600160a01b039283161783559287015160018301805490941691161790915592840151918301916104539150826110a2565b5060608201516003828101919091556080909201516004909101805460ff19169115159190911790556001600160a01b038616600081815260209283526040808220805460018101825590835293909120909201839055905133919083907f9238fb7e1f523c52ddf4024bdcb41357b62ed007c90dac38ee13e1c72e0c0a80906104e29089908990429061115c565b60405180910390a45050505050565b6001600160a01b03811660009081526003602090815260409182902080548351818402810184019094528084526060939283018282801561055157602002820191906000526020600020905b81548152602001906001019080831161053d575b50505050509050919050565b60008281526020819052604090206001015461057881610b68565b6105828383610b75565b50505050565b6001600160a01b03811633146105b15760405163334bd91960e11b815260040160405180910390fd5b6105bb8282610c07565b505050565b6040805160a08101825260008082526020820181905260609282018390529181018290526080810191909152600082815260026020818152604092839020835160a08101855281546001600160a01b039081168252600183015416928101929092529182018054919384019161063590611003565b80601f016020809104026020016040519081016040528092919081815260200182805461066190611003565b80156106ae5780601f10610683576101008083540402835291602001916106ae565b820191906000526020600020905b81548152906001019060200180831161069157829003601f168201915b50505091835250506003820154602082015260049091015460ff16151560409091015292915050565b6000805160206112988339815191526106ef81610b68565b8161070c5760405162461bcd60e51b815260040161034f90610f82565b600084815260026020526040902060018101546001600160a01b031633146107465760405162461bcd60e51b815260040161034f90611195565b600481015460ff16156107b15760405162461bcd60e51b815260206004820152602d60248201527f417564697452656769737472793a2043616e6e6f74207570646174652061207260448201526c195d9bdad959081c9958dbdc99609a1b606482015260840161034f565b600281016107c08486836111dc565b50428160030181905550847f7d88a6413bdea2f765837b2027d150e8d9eff6811a00e7b32ce22566577ae3218585426040516107fe9392919061115c565b60405180910390a25050505050565b6000918252602082815260408084206001600160a01b0393909316845291905290205460ff1690565b60008051602061129883398151915261084e81610b68565b600082815260026020526040902060018101546001600160a01b031633146108885760405162461bcd60e51b815260040161034f90611195565b600481015460ff16156108dd5760405162461bcd60e51b815260206004820152601e60248201527f417564697452656769737472793a20416c7265616479207265766f6b65640000604482015260640161034f565b60048101805460ff1916600117905560405183907fe4839e81aa65ee9120ee35c9291915fa224f6ae0bfab747215ee7f0b5368a193906109209042815260200190565b60405180910390a2505050565b60008281526020819052604090206001015461094881610b68565b6105828383610c07565b600061095d81610b68565b6001600160a01b0382166109c25760405162461bcd60e51b815260206004820152602660248201527f417564697452656769737472793a20496e76616c69642061756469746f72206160448201526564647265737360d01b606482015260840161034f565b6109da6000805160206112988339815191528361055d565b6040516001600160a01b038316907f2c31044378cc14466459f09320dd4057d7ad6e99b194c0800c78227383a2529690600090a25050565b6000610a1d81610b68565b610a356000805160206112988339815191528361092d565b6040516001600160a01b038316907fd3e803f2dfdacd206b7d19aa46d847206386d84e3dc6b8de0926e54affa6fddc90600090a25050565b60026020819052600091825260409091208054600182015492820180546001600160a01b03928316949092169291610aa490611003565b80601f0160208091040260200160405190810160405280929190818152602001828054610ad090611003565b8015610b1d5780601f10610af257610100808354040283529160200191610b1d565b820191906000526020600020905b815481529060010190602001808311610b0057829003601f168201915b50505050600383015460049093015491929160ff16905085565b60036020528160005260406000208181548110610b5357600080fd5b90600052602060002001600091509150505481565b610b728133610c72565b50565b6000610b81838361080d565b610bff576000838152602081815260408083206001600160a01b03861684529091529020805460ff19166001179055610bb73390565b6001600160a01b0316826001600160a01b0316847f2f8788117e7eff1d82e926ec794901d17c78024a50270940304540a733656f0d60405160405180910390a45060016102cf565b5060006102cf565b6000610c13838361080d565b15610bff576000838152602081815260408083206001600160a01b0386168085529252808320805460ff1916905551339286917ff6391f5c32d9c69d2a47ea670b442974b53935d1edc7fd64eb21e047a839171b9190a45060016102cf565b610c7c828261080d565b610cab5760405163e2517d3f60e01b81526001600160a01b03821660048201526024810183905260440161034f565b5050565b600060208284031215610cc157600080fd5b81356001600160e01b031981168114610cd957600080fd5b9392505050565b80356001600160a01b0381168114610cf757600080fd5b919050565b60008083601f840112610d0e57600080fd5b50813567ffffffffffffffff811115610d2657600080fd5b602083019150836020828501011115610d3e57600080fd5b9250929050565b600080600060408486031215610d5a57600080fd5b610d6384610ce0565b9250602084013567ffffffffffffffff811115610d7f57600080fd5b610d8b86828701610cfc565b9497909650939450505050565b600060208284031215610daa57600080fd5b610cd982610ce0565b6020808252825182820181905260009190848201906040850190845b81811015610deb57835183529284019291840191600101610dcf565b50909695505050505050565b600060208284031215610e0957600080fd5b5035919050565b60008060408385031215610e2357600080fd5b82359150610e3360208401610ce0565b90509250929050565b6000815180845260005b81811015610e6257602081850181015186830182015201610e46565b506000602082860101526020601f19601f83011685010191505092915050565b60208152600060018060a01b0380845116602084015280602085015116604084015250604083015160a06060840152610ebe60c0840182610e3c565b9050606084015160808401526080840151151560a08401528091505092915050565b600080600060408486031215610ef557600080fd5b83359250602084013567ffffffffffffffff811115610d7f57600080fd5b6001600160a01b0386811682528516602082015260a060408201819052600090610f3f90830186610e3c565b6060830194909452509015156080909101529392505050565b60008060408385031215610f6b57600080fd5b610f7483610ce0565b946020939093013593505050565b60208082526024908201527f417564697452656769737472793a2049504653206861736820697320726571756040820152631a5c995960e21b606082015260800190565b600060018201610fe657634e487b7160e01b600052601160045260246000fd5b5060010190565b634e487b7160e01b600052604160045260246000fd5b600181811c9082168061101757607f821691505b60208210810361103757634e487b7160e01b600052602260045260246000fd5b50919050565b601f8211156105bb576000816000526020600020601f850160051c810160208610156110665750805b601f850160051c820191505b8181101561108557828155600101611072565b505050505050565b600019600383901b1c191660019190911b1790565b815167ffffffffffffffff8111156110bc576110bc610fed565b6110d0816110ca8454611003565b8461103d565b602080601f8311600181146110ff57600084156110ed5750858301515b6110f7858261108d565b865550611085565b600085815260208120601f198616915b8281101561112e5788860151825594840194600190910190840161110f565b508582101561114c5787850151600019600388901b60f8161c191681555b5050505050600190811b01905550565b604081528260408201528284606083013760006060848301015260006060601f19601f8601168301019050826020830152949350505050565b60208082526027908201527f417564697452656769737472793a204e6f7420746865206f726967696e616c2060408201526630bab234ba37b960c91b606082015260800190565b67ffffffffffffffff8311156111f4576111f4610fed565b611208836112028354611003565b8361103d565b6000601f84116001811461123657600085156112245750838201355b61122e868261108d565b845550611290565b600083815260209020601f19861690835b828110156112675786850135825560209485019460019092019101611247565b50868210156112845760001960f88860031b161c19848701351681555b505060018560011b0183555b505050505056fe59a1c48e5837ad7a7f3dcedcbe129bf3249ec4fbf651fd4f5e2600ead39fe2f5a2646970667358221220cd91349aa7b87d7677c7a36565ca9525f8e379d24f32a5c6c7de418ec594745064736f6c63430008180033a2646970667358221220e7e77acaacf49f08f0496200801273271eea54ece297f4b48841723d621f4bf764736f6c63430008180033",
  "linkReferences": {},
  "deployedLinkReferences": {}
}