{
  "_format": "hh-sol-artifact-1",
  "contractName": "BuildingERC20",
  "sourceName": "contracts/buildings/extensions/BuildingERC20.sol",
  "abi": [
    {
      "inputs": [
        {
          "internalType": "string",
          "name": "name",
          "type": "string"
        },
        {
          "internalType": "string",
          "name": "symbol",
          "type": "string"
        },
        {
          "internalType": "uint8",
          "name": "_customDecimals",
          "type": "uint8"
        }
      ],
      "stateMutability": "nonpayable",
      "type": "constructor"
    },
    {
      "inputs": [],
      "name": "CheckpointUnorderedInsertion",
      "type": "error"
    },
    {
      "inputs": [],
      "name": "ECDSAInvalidSignature",
      "type": "error"
    },
    {
      "inputs": [
        {
          "internalType": "uint256",
          "name": "length",
          "type": "uint256"
        }
      ],
      "name": "ECDSAInvalidSignatureLength",
      "type": "error"
    },
    {
      "inputs": [
        {
          "internalType": "bytes32",
          "name": "s",
          "type": "bytes32"
        }
      ],
      "name": "ECDSAInvalidSignatureS",
      "type": "error"
    },
    {
      "inputs": [
        {
          "internalType": "uint256",
          "name": "increasedSupply",
          "type": "uint256"
        },
        {
          "internalType": "uint256",
          "name": "cap",
          "type": "uint256"
        }
      ],
      "name": "ERC20ExceededSafeSupply",
      "type": "error"
    },
    {
      "inputs": [
        {
          "internalType": "address",
          "name": "spender",
          "type": "address"
        },
        {
          "internalType": "uint256",
          "name": "allowance",
          "type": "uint256"
        },
        {
          "internalType": "uint256",
          "name": "needed",
          "type": "uint256"
        }
      ],
      "name": "ERC20InsufficientAllowance",
      "type": "error"
    },
    {
      "inputs": [
        {
          "internalType": "address",
          "name": "sender",
          "type": "address"
        },
        {
          "internalType": "uint256",
          "name": "balance",
          "type": "uint256"
        },
        {
          "internalType": "uint256",
          "name": "needed",
          "type": "uint256"
        }
      ],
      "name": "ERC20InsufficientBalance",
      "type": "error"
    },
    {
      "inputs": [
        {
          "internalType": "address",
          "name": "approver",
          "type": "address"
        }
      ],
      "name": "ERC20InvalidApprover",
      "type": "error"
    },
    {
      "inputs": [
        {
          "internalType": "address",
          "name": "receiver",
          "type": "address"
        }
      ],
      "name": "ERC20InvalidReceiver",
      "type": "error"
    },
    {
      "inputs": [
        {
          "internalType": "address",
          "name": "sender",
          "type": "address"
        }
      ],
      "name": "ERC20InvalidSender",
      "type": "error"
    },
    {
      "inputs": [
        {
          "internalType": "address",
          "name": "spender",
          "type": "address"
        }
      ],
      "name": "ERC20InvalidSpender",
      "type": "error"
    },
    {
      "inputs": [
        {
          "internalType": "uint256",
          "name": "deadline",
          "type": "uint256"
        }
      ],
      "name": "ERC2612ExpiredSignature",
      "type": "error"
    },
    {
      "inputs": [
        {
          "internalType": "address",
          "name": "signer",
          "type": "address"
        },
        {
          "internalType": "address",
          "name": "owner",
          "type": "address"
        }
      ],
      "name": "ERC2612InvalidSigner",
      "type": "error"
    },
    {
      "inputs": [
        {
          "internalType": "uint256",
          "name": "timepoint",
          "type": "uint256"
        },
        {
          "internalType": "uint48",
          "name": "clock",
          "type": "uint48"
        }
      ],
      "name": "ERC5805FutureLookup",
      "type": "error"
    },
    {
      "inputs": [],
      "name": "ERC6372InconsistentClock",
      "type": "error"
    },
    {
      "inputs": [
        {
          "internalType": "address",
          "name": "account",
          "type": "address"
        },
        {
          "internalType": "uint256",
          "name": "currentNonce",
          "type": "uint256"
        }
      ],
      "name": "InvalidAccountNonce",
      "type": "error"
    },
    {
      "inputs": [],
      "name": "InvalidShortString",
      "type": "error"
    },
    {
      "inputs": [
        {
          "internalType": "address",
          "name": "owner",
          "type": "address"
        }
      ],
      "name": "OwnableInvalidOwner",
      "type": "error"
    },
    {
      "inputs": [
        {
          "internalType": "address",
          "name": "account",
          "type": "address"
        }
      ],
      "name": "OwnableUnauthorizedAccount",
      "type": "error"
    },
    {
      "inputs": [
        {
          "internalType": "uint8",
          "name": "bits",
          "type": "uint8"
        },
        {
          "internalType": "uint256",
          "name": "value",
          "type": "uint256"
        }
      ],
      "name": "SafeCastOverflowedUintDowncast",
      "type": "error"
    },
    {
      "inputs": [
        {
          "internalType": "string",
          "name": "str",
          "type": "string"
        }
      ],
      "name": "StringTooLong",
      "type": "error"
    },
    {
      "inputs": [
        {
          "internalType": "uint256",
          "name": "expiry",
          "type": "uint256"
        }
      ],
      "name": "VotesExpiredSignature",
      "type": "error"
    },
    {
      "anonymous": false,
      "inputs": [
        {
          "indexed": true,
          "internalType": "address",
          "name": "owner",
          "type": "address"
        },
        {
          "indexed": true,
          "internalType": "address",
          "name": "spender",
          "type": "address"
        },
        {
          "indexed": false,
          "internalType": "uint256",
          "name": "value",
          "type": "uint256"
        }
      ],
      "name": "Approval",
      "type": "event"
    },
    {
      "anonymous": false,
      "inputs": [
        {
          "indexed": true,
          "internalType": "address",
          "name": "delegator",
          "type": "address"
        },
        {
          "indexed": true,
          "internalType": "address",
          "name": "fromDelegate",
          "type": "address"
        },
        {
          "indexed": true,
          "internalType": "address",
          "name": "toDelegate",
          "type": "address"
        }
      ],
      "name": "DelegateChanged",
      "type": "event"
    },
    {
      "anonymous": false,
      "inputs": [
        {
          "indexed": true,
          "internalType": "address",
          "name": "delegate",
          "type": "address"
        },
        {
          "indexed": false,
          "internalType": "uint256",
          "name": "previousVotes",
          "type": "uint256"
        },
        {
          "indexed": false,
          "internalType": "uint256",
          "name": "newVotes",
          "type": "uint256"
        }
      ],
      "name": "DelegateVotesChanged",
      "type": "event"
    },
    {
      "anonymous": false,
      "inputs": [],
      "name": "EIP712DomainChanged",
      "type": "event"
    },
    {
      "anonymous": false,
      "inputs": [
        {
          "indexed": true,
          "internalType": "address",
          "name": "previousOwner",
          "type": "address"
        },
        {
          "indexed": true,
          "internalType": "address",
          "name": "newOwner",
          "type": "address"
        }
      ],
      "name": "OwnershipTransferred",
      "type": "event"
    },
    {
      "anonymous": false,
      "inputs": [
        {
          "indexed": true,
          "internalType": "address",
          "name": "from",
          "type": "address"
        },
        {
          "indexed": true,
          "internalType": "address",
          "name": "to",
          "type": "address"
        },
        {
          "indexed": false,
          "internalType": "uint256",
          "name": "value",
          "type": "uint256"
        }
      ],
      "name": "Transfer",
      "type": "event"
    },
    {
      "inputs": [],
      "name": "CLOCK_MODE",
      "outputs": [
        {
          "internalType": "string",
          "name": "",
          "type": "string"
        }
      ],
      "stateMutability": "pure",
      "type": "function"
    },
    {
      "inputs": [],
      "name": "DOMAIN_SEPARATOR",
      "outputs": [
        {
          "internalType": "bytes32",
          "name": "",
          "type": "bytes32"
        }
      ],
      "stateMutability": "view",
      "type": "function"
    },
    {
      "inputs": [
        {
          "internalType": "address",
          "name": "owner",
          "type": "address"
        },
        {
          "internalType": "address",
          "name": "spender",
          "type": "address"
        }
      ],
      "name": "allowance",
      "outputs": [
        {
          "internalType": "uint256",
          "name": "",
          "type": "uint256"
        }
      ],
      "stateMutability": "view",
      "type": "function"
    },
    {
      "inputs": [
        {
          "internalType": "address",
          "name": "spender",
          "type": "address"
        },
        {
          "internalType": "uint256",
          "name": "value",
          "type": "uint256"
        }
      ],
      "name": "approve",
      "outputs": [
        {
          "internalType": "bool",
          "name": "",
          "type": "bool"
        }
      ],
      "stateMutability": "nonpayable",
      "type": "function"
    },
    {
      "inputs": [
        {
          "internalType": "address",
          "name": "account",
          "type": "address"
        }
      ],
      "name": "balanceOf",
      "outputs": [
        {
          "internalType": "uint256",
          "name": "",
          "type": "uint256"
        }
      ],
      "stateMutability": "view",
      "type": "function"
    },
    {
      "inputs": [
        {
          "internalType": "address",
          "name": "account",
          "type": "address"
        },
        {
          "internalType": "uint32",
          "name": "pos",
          "type": "uint32"
        }
      ],
      "name": "checkpoints",
      "outputs": [
        {
          "components": [
            {
              "internalType": "uint48",
              "name": "_key",
              "type": "uint48"
            },
            {
              "internalType": "uint208",
              "name": "_value",
              "type": "uint208"
            }
          ],
          "internalType": "struct Checkpoints.Checkpoint208",
          "name": "",
          "type": "tuple"
        }
      ],
      "stateMutability": "view",
      "type": "function"
    },
    {
      "inputs": [],
      "name": "clock",
      "outputs": [
        {
          "internalType": "uint48",
          "name": "",
          "type": "uint48"
        }
      ],
      "stateMutability": "view",
      "type": "function"
    },
    {
      "inputs": [],
      "name": "decimals",
      "outputs": [
        {
          "internalType": "uint8",
          "name": "",
          "type": "uint8"
        }
      ],
      "stateMutability": "view",
      "type": "function"
    },
    {
      "inputs": [
        {
          "internalType": "address",
          "name": "delegatee",
          "type": "address"
        }
      ],
      "name": "delegate",
      "outputs": [],
      "stateMutability": "nonpayable",
      "type": "function"
    },
    {
      "inputs": [
        {
          "internalType": "address",
          "name": "delegatee",
          "type": "address"
        },
        {
          "internalType": "uint256",
          "name": "nonce",
          "type": "uint256"
        },
        {
          "internalType": "uint256",
          "name": "expiry",
          "type": "uint256"
        },
        {
          "internalType": "uint8",
          "name": "v",
          "type": "uint8"
        },
        {
          "internalType": "bytes32",
          "name": "r",
          "type": "bytes32"
        },
        {
          "internalType": "bytes32",
          "name": "s",
          "type": "bytes32"
        }
      ],
      "name": "delegateBySig",
      "outputs": [],
      "stateMutability": "nonpayable",
      "type": "function"
    },
    {
      "inputs": [
        {
          "internalType": "address",
          "name": "account",
          "type": "address"
        }
      ],
      "name": "delegates",
      "outputs": [
        {
          "internalType": "address",
          "name": "",
          "type": "address"
        }
      ],
      "stateMutability": "view",
      "type": "function"
    },
    {
      "inputs": [],
      "name": "eip712Domain",
      "outputs": [
        {
          "internalType": "bytes1",
          "name": "fields",
          "type": "bytes1"
        },
        {
          "internalType": "string",
          "name": "name",
          "type": "string"
        },
        {
          "internalType": "string",
          "name": "version",
          "type": "string"
        },
        {
          "internalType": "uint256",
          "name": "chainId",
          "type": "uint256"
        },
        {
          "internalType": "address",
          "name": "verifyingContract",
          "type": "address"
        },
        {
          "internalType": "bytes32",
          "name": "salt",
          "type": "bytes32"
        },
        {
          "internalType": "uint256[]",
          "name": "extensions",
          "type": "uint256[]"
        }
      ],
      "stateMutability": "view",
      "type": "function"
    },
    {
      "inputs": [
        {
          "internalType": "uint256",
          "name": "timepoint",
          "type": "uint256"
        }
      ],
      "name": "getPastTotalSupply",
      "outputs": [
        {
          "internalType": "uint256",
          "name": "",
          "type": "uint256"
        }
      ],
      "stateMutability": "view",
      "type": "function"
    },
    {
      "inputs": [
        {
          "internalType": "address",
          "name": "account",
          "type": "address"
        },
        {
          "internalType": "uint256",
          "name": "timepoint",
          "type": "uint256"
        }
      ],
      "name": "getPastVotes",
      "outputs": [
        {
          "internalType": "uint256",
          "name": "",
          "type": "uint256"
        }
      ],
      "stateMutability": "view",
      "type": "function"
    },
    {
      "inputs": [
        {
          "internalType": "address",
          "name": "account",
          "type": "address"
        }
      ],
      "name": "getVotes",
      "outputs": [
        {
          "internalType": "uint256",
          "name": "",
          "type": "uint256"
        }
      ],
      "stateMutability": "view",
      "type": "function"
    },
    {
      "inputs": [
        {
          "internalType": "address",
          "name": "to",
          "type": "address"
        },
        {
          "internalType": "uint256",
          "name": "amount",
          "type": "uint256"
        }
      ],
      "name": "mint",
      "outputs": [],
      "stateMutability": "nonpayable",
      "type": "function"
    },
    {
      "inputs": [],
      "name": "name",
      "outputs": [
        {
          "internalType": "string",
          "name": "",
          "type": "string"
        }
      ],
      "stateMutability": "view",
      "type": "function"
    },
    {
      "inputs": [
        {
          "internalType": "address",
          "name": "owner",
          "type": "address"
        }
      ],
      "name": "nonces",
      "outputs": [
        {
          "internalType": "uint256",
          "name": "",
          "type": "uint256"
        }
      ],
      "stateMutability": "view",
      "type": "function"
    },
    {
      "inputs": [
        {
          "internalType": "address",
          "name": "account",
          "type": "address"
        }
      ],
      "name": "numCheckpoints",
      "outputs": [
        {
          "internalType": "uint32",
          "name": "",
          "type": "uint32"
        }
      ],
      "stateMutability": "view",
      "type": "function"
    },
    {
      "inputs": [],
      "name": "owner",
      "outputs": [
        {
          "internalType": "address",
          "name": "",
          "type": "address"
        }
      ],
      "stateMutability": "view",
      "type": "function"
    },
    {
      "inputs": [
        {
          "internalType": "address",
          "name": "owner",
          "type": "address"
        },
        {
          "internalType": "address",
          "name": "spender",
          "type": "address"
        },
        {
          "internalType": "uint256",
          "name": "value",
          "type": "uint256"
        },
        {
          "internalType": "uint256",
          "name": "deadline",
          "type": "uint256"
        },
        {
          "internalType": "uint8",
          "name": "v",
          "type": "uint8"
        },
        {
          "internalType": "bytes32",
          "name": "r",
          "type": "bytes32"
        },
        {
          "internalType": "bytes32",
          "name": "s",
          "type": "bytes32"
        }
      ],
      "name": "permit",
      "outputs": [],
      "stateMutability": "nonpayable",
      "type": "function"
    },
    {
      "inputs": [],
      "name": "renounceOwnership",
      "outputs": [],
      "stateMutability": "nonpayable",
      "type": "function"
    },
    {
      "inputs": [],
      "name": "symbol",
      "outputs": [
        {
          "internalType": "string",
          "name": "",
          "type": "string"
        }
      ],
      "stateMutability": "view",
      "type": "function"
    },
    {
      "inputs": [],
      "name": "totalSupply",
      "outputs": [
        {
          "internalType": "uint256",
          "name": "",
          "type": "uint256"
        }
      ],
      "stateMutability": "view",
      "type": "function"
    },
    {
      "inputs": [
        {
          "internalType": "address",
          "name": "to",
          "type": "address"
        },
        {
          "internalType": "uint256",
          "name": "value",
          "type": "uint256"
        }
      ],
      "name": "transfer",
      "outputs": [
        {
          "internalType": "bool",
          "name": "",
          "type": "bool"
        }
      ],
      "stateMutability": "nonpayable",
      "type": "function"
    },
    {
      "inputs": [
        {
          "internalType": "address",
          "name": "from",
          "type": "address"
        },
        {
          "internalType": "address",
          "name": "to",
          "type": "address"
        },
        {
          "internalType": "uint256",
          "name": "value",
          "type": "uint256"
        }
      ],
      "name": "transferFrom",
      "outputs": [
        {
          "internalType": "bool",
          "name": "",
          "type": "bool"
        }
      ],
      "stateMutability": "nonpayable",
      "type": "function"
    },
    {
      "inputs": [
        {
          "internalType": "address",
          "name": "newOwner",
          "type": "address"
        }
      ],
      "name": "transferOwnership",
      "outputs": [],
      "stateMutability": "nonpayable",
      "type": "function"
    }
  ],
  "bytecode": "0x6101606040523480156200001257600080fd5b506040516200256b3803806200256b83398101604081905262000035916200032d565b338280604051806040016040528060018152602001603160f81b8152508686816003908162000065919062000443565b50600462000074828262000443565b50620000869150839050600562000192565b610120526200009781600662000192565b61014052815160208084019190912060e052815190820120610100524660a0526200012560e05161010051604080517f8b73c3c69bb8fe3d512ecc4cf759cc79239f7b179b0ffacaa9a75d522b39400f60208201529081019290925260608201524660808201523060a082015260009060c00160405160208183030381529060405280519060200120905090565b60805250503060c052506001600160a01b0381166200015f57604051631e4fbdf760e01b8152600060048201526024015b60405180910390fd5b6200016a81620001cb565b50600b805460ff909216600160a01b0260ff60a01b1990921691909117905550620005699050565b6000602083511015620001b257620001aa836200021d565b9050620001c5565b81620001bf848262000443565b5060ff90505b92915050565b600b80546001600160a01b038381166001600160a01b0319831681179093556040519116919082907f8be0079c531659141344cd1fd0a4f28419497f9722a3daafe3b4186f6b6457e090600090a35050565b600080829050601f815111156200024b578260405163305a27a960e01b81526004016200015691906200050f565b8051620002588262000544565b179392505050565b634e487b7160e01b600052604160045260246000fd5b60005b838110156200029357818101518382015260200162000279565b50506000910152565b600082601f830112620002ae57600080fd5b81516001600160401b0380821115620002cb57620002cb62000260565b604051601f8301601f19908116603f01168101908282118183101715620002f657620002f662000260565b816040528381528660208588010111156200031057600080fd5b6200032384602083016020890162000276565b9695505050505050565b6000806000606084860312156200034357600080fd5b83516001600160401b03808211156200035b57600080fd5b62000369878388016200029c565b945060208601519150808211156200038057600080fd5b506200038f868287016200029c565b925050604084015160ff81168114620003a757600080fd5b809150509250925092565b600181811c90821680620003c757607f821691505b602082108103620003e857634e487b7160e01b600052602260045260246000fd5b50919050565b601f8211156200043e576000816000526020600020601f850160051c81016020861015620004195750805b601f850160051c820191505b818110156200043a5782815560010162000425565b5050505b505050565b81516001600160401b038111156200045f576200045f62000260565b6200047781620004708454620003b2565b84620003ee565b602080601f831160018114620004af5760008415620004965750858301515b600019600386901b1c1916600185901b1785556200043a565b600085815260208120601f198616915b82811015620004e057888601518255948401946001909101908401620004bf565b5085821015620004ff5787850151600019600388901b60f8161c191681555b5050505050600190811b01905550565b60208152600082518060208401526200053081604085016020870162000276565b601f01601f19169190910160400192915050565b80516020808301519190811015620003e85760001960209190910360031b1b16919050565b60805160a05160c05160e051610100516101205161014051611fa7620005c46000396000610e4e01526000610e2101526000610b6c01526000610b4401526000610a9f01526000610ac901526000610af30152611fa76000f3fe608060405234801561001057600080fd5b50600436106101795760003560e01c8063715018a6116100d95780639ab24eb0116100875780639ab24eb014610359578063a9059cbb1461036c578063c3cda5201461037f578063d505accf14610392578063dd62ed3e146103a5578063f1127ed8146103b8578063f2fde38b146103f757600080fd5b8063715018a6146102e15780637ecebe00146102e957806384b0196e146102fc5780638da5cb5b146103175780638e539e8c1461032857806391ddadf41461033b57806395d89b411461035157600080fd5b80633a46b1a8116101365780633a46b1a81461020b57806340c10f191461021e5780634bf5d7e914610233578063587cde1e1461025d5780635c19a95c1461027d5780636fcfff451461029057806370a08231146102b857600080fd5b806306fdde031461017e578063095ea7b31461019c57806318160ddd146101bf57806323b872dd146101d1578063313ce567146101e45780633644e51514610203575b600080fd5b61018661040a565b6040516101939190611b73565b60405180910390f35b6101af6101aa366004611ba2565b61049c565b6040519015158152602001610193565b6002545b604051908152602001610193565b6101af6101df366004611bcc565b6104b6565b600b54600160a01b900460ff1660405160ff9091168152602001610193565b6101c36104da565b6101c3610219366004611ba2565b6104e9565b61023161022c366004611ba2565b610565565b005b60408051808201909152600e81526d06d6f64653d74696d657374616d760941b6020820152610186565b61027061026b366004611c08565b610621565b6040516101939190611c23565b61023161028b366004611c08565b61063f565b6102a361029e366004611c08565b61064a565b60405163ffffffff9091168152602001610193565b6101c36102c6366004611c08565b6001600160a01b031660009081526020819052604090205490565b610231610655565b6101c36102f7366004611c08565b610669565b610304610674565b6040516101939796959493929190611c37565b600b546001600160a01b0316610270565b6101c3610336366004611cd0565b6106ba565b60405165ffffffffffff42168152602001610193565b61018661071a565b6101c3610367366004611c08565b610729565b6101af61037a366004611ba2565b610759565b61023161038d366004611cfa565b610767565b6102316103a0366004611d52565b610824565b6101c36103b3366004611dbc565b610940565b6103cb6103c6366004611def565b61096b565b60408051825165ffffffffffff1681526020928301516001600160d01b03169281019290925201610193565b610231610405366004611c08565b610990565b60606003805461041990611e2f565b80601f016020809104026020016040519081016040528092919081815260200182805461044590611e2f565b80156104925780601f1061046757610100808354040283529160200191610492565b820191906000526020600020905b81548152906001019060200180831161047557829003601f168201915b5050505050905090565b6000336104aa8185856109ce565b60019150505b92915050565b6000336104c48582856109e0565b6104cf858585610a33565b506001949350505050565b60006104e4610a92565b905090565b60004265ffffffffffff8116831061052a57604051637669fc0f60e11b81526004810184905265ffffffffffff821660248201526044015b60405180910390fd5b61055461053684610bbd565b6001600160a01b038616600090815260096020526040902090610bf4565b6001600160d01b0316949350505050565b61056d610caa565b6001600160a01b0382166105c35760405162461bcd60e51b815260206004820152601e60248201527f4275696c64696e6745524332303a20496e76616c6964206164647265737300006044820152606401610521565b600081116106135760405162461bcd60e51b815260206004820152601d60248201527f4275696c64696e6745524332303a20496e76616c696420616d6f756e740000006044820152606401610521565b61061d8282610cd7565b5050565b6001600160a01b039081166000908152600860205260409020541690565b3361061d8183610d0d565b60006104b082610d88565b61065d610caa565b6106676000610daa565b565b60006104b082610dfc565b600060608060008060006060610688610e1a565b610690610e47565b60408051600080825260208201909252600f60f81b9b939a50919850469750309650945092509050565b60004265ffffffffffff811683106106f657604051637669fc0f60e11b81526004810184905265ffffffffffff82166024820152604401610521565b61070a61070284610bbd565b600a90610bf4565b6001600160d01b03169392505050565b60606004805461041990611e2f565b6001600160a01b038116600090815260096020526040812061074a90610e74565b6001600160d01b031692915050565b6000336104aa818585610a33565b8342111561078b57604051632341d78760e11b815260048101859052602401610521565b604080517fe48329057bfd03d55e49b547132e39cffd9c1820ad7b9d4c5307691425d15adf60208201526001600160a01b038816918101919091526060810186905260808101859052600090610805906107fd9060a00160405160208183030381529060405280519060200120610ead565b858585610eda565b90506108118187610f08565b61081b8188610d0d565b50505050505050565b834211156108485760405163313c898160e11b815260048101859052602401610521565b60007f6e71edae12b1b97f4d1f60370fef10105fa2faae0126114a169c64845d6126c98888886108778c610f47565b6040805160208101969096526001600160a01b0394851690860152929091166060840152608083015260a082015260c0810186905260e00160405160208183030381529060405280519060200120905060006108d282610ead565b905060006108e282878787610eda565b9050896001600160a01b0316816001600160a01b031614610929576040516325c0072360e11b81526001600160a01b0380831660048301528b166024820152604401610521565b6109348a8a8a6109ce565b50505050505050505050565b6001600160a01b03918216600090815260016020908152604080832093909416825291909152205490565b60408051808201909152600080825260208201526109898383610f6a565b9392505050565b610998610caa565b6001600160a01b0381166109c2576000604051631e4fbdf760e01b81526004016105219190611c23565b6109cb81610daa565b50565b6109db8383836001610fa0565b505050565b60006109ec8484610940565b90506000198114610a2d5781811015610a1e57828183604051637dc7a0d960e11b815260040161052193929190611e69565b610a2d84848484036000610fa0565b50505050565b6001600160a01b038316610a5d576000604051634b637e8f60e11b81526004016105219190611c23565b6001600160a01b038216610a8757600060405163ec442f0560e01b81526004016105219190611c23565b6109db838383611075565b6000306001600160a01b037f000000000000000000000000000000000000000000000000000000000000000016148015610aeb57507f000000000000000000000000000000000000000000000000000000000000000046145b15610b1557507f000000000000000000000000000000000000000000000000000000000000000090565b6104e4604080517f8b73c3c69bb8fe3d512ecc4cf759cc79239f7b179b0ffacaa9a75d522b39400f60208201527f0000000000000000000000000000000000000000000000000000000000000000918101919091527f000000000000000000000000000000000000000000000000000000000000000060608201524660808201523060a082015260009060c00160405160208183030381529060405280519060200120905090565b600065ffffffffffff821115610bf0576040516306dfcc6560e41b81526030600482015260248101839052604401610521565b5090565b815460009081816005811115610c53576000610c0f84611080565b610c199085611ea0565b60008881526020902090915081015465ffffffffffff9081169087161015610c4357809150610c51565b610c4e816001611eb3565b92505b505b6000610c6187878585611168565b90508015610c9c57610c8687610c78600184611ea0565b600091825260209091200190565b54600160301b90046001600160d01b0316610c9f565b60005b979650505050505050565b600b546001600160a01b03163314610667573360405163118cdaa760e01b81526004016105219190611c23565b6001600160a01b038216610d0157600060405163ec442f0560e01b81526004016105219190611c23565b61061d60008383611075565b6000610d1883610621565b6001600160a01b0384811660008181526008602052604080822080546001600160a01b031916888616908117909155905194955093928516927f3134e8a2e6d97e929a7e54011ea5485d7d196dd5f0ba4d4ef95803e8e3fc257f9190a46109db8183610d83866111ca565b6111e8565b6001600160a01b0381166000908152600960205260408120546104b090611354565b600b80546001600160a01b038381166001600160a01b0319831681179093556040519116919082907f8be0079c531659141344cd1fd0a4f28419497f9722a3daafe3b4186f6b6457e090600090a35050565b6001600160a01b0381166000908152600760205260408120546104b0565b60606104e47f00000000000000000000000000000000000000000000000000000000000000006005611385565b60606104e47f00000000000000000000000000000000000000000000000000000000000000006006611385565b80546000908015610ea457610e8e83610c78600184611ea0565b54600160301b90046001600160d01b0316610989565b60009392505050565b60006104b0610eba610a92565b8360405161190160f01b8152600281019290925260228201526042902090565b600080600080610eec88888888611430565b925092509250610efc82826114f5565b50909695505050505050565b6000610f1383610f47565b90508082146109db576040516301d4b62360e61b81526001600160a01b038416600482015260248101829052604401610521565b6001600160a01b0316600090815260076020526040902080546001810190915590565b60408051808201909152600080825260208201526001600160a01b038316600090815260096020526040902061098990836115ae565b6001600160a01b038416610fca57600060405163e602df0560e01b81526004016105219190611c23565b6001600160a01b038316610ff4576000604051634a1406b160e11b81526004016105219190611c23565b6001600160a01b0380851660009081526001602090815260408083209387168352929052208290558015610a2d57826001600160a01b0316846001600160a01b03167f8c5be1e5ebec7d5bd14f71427d1e84f3dd0314c0f7b2291e5b200ac8c7c3b9258460405161106791815260200190565b60405180910390a350505050565b6109db83838361161e565b60008160000361109257506000919050565b6000600161109f84611685565b901c6001901b905060018184816110b8576110b8611ec6565b048201901c905060018184816110d0576110d0611ec6565b048201901c905060018184816110e8576110e8611ec6565b048201901c9050600181848161110057611100611ec6565b048201901c9050600181848161111857611118611ec6565b048201901c9050600181848161113057611130611ec6565b048201901c9050600181848161114857611148611ec6565b048201901c90506109898182858161116257611162611ec6565b04611719565b60005b818310156111c257600061117f848461172f565b60008781526020902090915065ffffffffffff86169082015465ffffffffffff1611156111ae578092506111bc565b6111b9816001611eb3565b93505b5061116b565b509392505050565b6001600160a01b0381166000908152602081905260408120546104b0565b816001600160a01b0316836001600160a01b03161415801561120a5750600081115b156109db576001600160a01b038316156112b2576001600160a01b0383166000908152600960205260408120819061124d9061174a61124886611756565b61178a565b6001600160d01b031691506001600160d01b03169150846001600160a01b03167fdec2bacdd2f05b59de34da9b523dff8be42e5e38e818c82fdb0bae774387a72483836040516112a7929190918252602082015260400190565b60405180910390a250505b6001600160a01b038216156109db576001600160a01b038216600090815260096020526040812081906112eb906117bc61124886611756565b6001600160d01b031691506001600160d01b03169150836001600160a01b03167fdec2bacdd2f05b59de34da9b523dff8be42e5e38e818c82fdb0bae774387a7248383604051611345929190918252602082015260400190565b60405180910390a25050505050565b600063ffffffff821115610bf0576040516306dfcc6560e41b81526020600482015260248101839052604401610521565b606060ff831461139f57611398836117c8565b90506104b0565b8180546113ab90611e2f565b80601f01602080910402602001604051908101604052809291908181526020018280546113d790611e2f565b80156114245780601f106113f957610100808354040283529160200191611424565b820191906000526020600020905b81548152906001019060200180831161140757829003601f168201915b505050505090506104b0565b600080806fa2a8918ca85bafe22016d0b997e4df60600160ff1b0384111561146157506000915060039050826114eb565b604080516000808252602082018084528a905260ff891692820192909252606081018790526080810186905260019060a0016020604051602081039080840390855afa1580156114b5573d6000803e3d6000fd5b5050604051601f1901519150506001600160a01b0381166114e1575060009250600191508290506114eb565b9250600091508190505b9450945094915050565b600082600381111561150957611509611edc565b03611512575050565b600182600381111561152657611526611edc565b036115445760405163f645eedf60e01b815260040160405180910390fd5b600282600381111561155857611558611edc565b036115795760405163fce698f760e01b815260048101829052602401610521565b600382600381111561158d5761158d611edc565b0361061d576040516335e2f38360e21b815260048101829052602401610521565b6040805180820190915260008082526020820152826000018263ffffffff16815481106115dd576115dd611ef2565b60009182526020918290206040805180820190915291015465ffffffffffff81168252600160301b90046001600160d01b0316918101919091529392505050565b611629838383611807565b6001600160a01b03831661167a57600061164260025490565b90506001600160d01b038082111561167757604051630e58ae9360e11b81526004810183905260248101829052604401610521565b50505b6109db83838361191e565b600080608083901c1561169a57608092831c92015b604083901c156116ac57604092831c92015b602083901c156116be57602092831c92015b601083901c156116d057601092831c92015b600883901c156116e257600892831c92015b600483901c156116f457600492831c92015b600283901c1561170657600292831c92015b600183901c156104b05760010192915050565b60008183106117285781610989565b5090919050565b600061173e6002848418611f08565b61098990848416611eb3565b60006109898284611f2a565b60006001600160d01b03821115610bf0576040516306dfcc6560e41b815260d0600482015260248101839052604401610521565b6000806117af426117a761179d88610e74565b868863ffffffff16565b87919061197d565b915091505b935093915050565b60006109898284611f51565b606060006117d58361198b565b604080516020808252818301909252919250600091906020820181803683375050509182525060208101929092525090565b6001600160a01b0383166118325780600260008282546118279190611eb3565b909155506118919050565b6001600160a01b038316600090815260208190526040902054818110156118725783818360405163391434e360e21b815260040161052193929190611e69565b6001600160a01b03841660009081526020819052604090209082900390555b6001600160a01b0382166118ad576002805482900390556118cc565b6001600160a01b03821660009081526020819052604090208054820190555b816001600160a01b0316836001600160a01b03167fddf252ad1be2c89b69c2b068fc378daa952ba7f163c4a11628f55a4df523b3ef8360405161191191815260200190565b60405180910390a3505050565b6001600160a01b0383166119405761193d600a6117bc61124884611756565b50505b6001600160a01b0382166119625761195f600a61174a61124884611756565b50505b6109db61196e84610621565b61197784610621565b836111e8565b6000806117af8585856119b3565b600060ff8216601f8111156104b057604051632cd44ac360e21b815260040160405180910390fd5b825460009081908015611ad25760006119d187610c78600185611ea0565b60408051808201909152905465ffffffffffff808216808452600160301b9092046001600160d01b031660208401529192509087161015611a2557604051632520601d60e01b815260040160405180910390fd5b805165ffffffffffff808816911603611a715784611a4888610c78600186611ea0565b80546001600160d01b0392909216600160301b0265ffffffffffff909216919091179055611ac2565b6040805180820190915265ffffffffffff80881682526001600160d01b0380881660208085019182528b54600181018d5560008d81529190912094519151909216600160301b029216919091179101555b6020015192508391506117b49050565b50506040805180820190915265ffffffffffff80851682526001600160d01b0380851660208085019182528854600181018a5560008a815291822095519251909316600160301b0291909316179201919091559050816117b4565b6000815180845260005b81811015611b5357602081850181015186830182015201611b37565b506000602082860101526020601f19601f83011685010191505092915050565b6020815260006109896020830184611b2d565b80356001600160a01b0381168114611b9d57600080fd5b919050565b60008060408385031215611bb557600080fd5b611bbe83611b86565b946020939093013593505050565b600080600060608486031215611be157600080fd5b611bea84611b86565b9250611bf860208501611b86565b9150604084013590509250925092565b600060208284031215611c1a57600080fd5b61098982611b86565b6001600160a01b0391909116815260200190565b60ff60f81b881681526000602060e06020840152611c5860e084018a611b2d565b8381036040850152611c6a818a611b2d565b606085018990526001600160a01b038816608086015260a0850187905284810360c08601528551808252602080880193509091019060005b81811015611cbe57835183529284019291840191600101611ca2565b50909c9b505050505050505050505050565b600060208284031215611ce257600080fd5b5035919050565b803560ff81168114611b9d57600080fd5b60008060008060008060c08789031215611d1357600080fd5b611d1c87611b86565b95506020870135945060408701359350611d3860608801611ce9565b92506080870135915060a087013590509295509295509295565b600080600080600080600060e0888a031215611d6d57600080fd5b611d7688611b86565b9650611d8460208901611b86565b95506040880135945060608801359350611da060808901611ce9565b925060a0880135915060c0880135905092959891949750929550565b60008060408385031215611dcf57600080fd5b611dd883611b86565b9150611de660208401611b86565b90509250929050565b60008060408385031215611e0257600080fd5b611e0b83611b86565b9150602083013563ffffffff81168114611e2457600080fd5b809150509250929050565b600181811c90821680611e4357607f821691505b602082108103611e6357634e487b7160e01b600052602260045260246000fd5b50919050565b6001600160a01b039390931683526020830191909152604082015260600190565b634e487b7160e01b600052601160045260246000fd5b818103818111156104b0576104b0611e8a565b808201808211156104b0576104b0611e8a565b634e487b7160e01b600052601260045260246000fd5b634e487b7160e01b600052602160045260246000fd5b634e487b7160e01b600052603260045260246000fd5b600082611f2557634e487b7160e01b600052601260045260246000fd5b500490565b6001600160d01b03828116828216039080821115611f4a57611f4a611e8a565b5092915050565b6001600160d01b03818116838216019080821115611f4a57611f4a611e8a56fea264697066735822122052142c2da94f2201e548ea57c516eb1615f17a9473d60896a5920e19771715bf64736f6c63430008180033",
  "linkReferences": {},
  "deployedLinkReferences": {}
}