{
  "_format": "hh-sol-artifact-1",
  "contractName": "BuildingFactory",
  "sourceName": "contracts/buildings/BuildingFactory.sol",
  "abi": [
    {
      "inputs": [],
      "name": "InvalidInitialization",
      "type": "error"
    },
    {
      "inputs": [],
      "name": "NotInitializing",
      "type": "error"
    },
    {
      "inputs": [
        {
          "internalType": "address",
          "name": "owner",
          "type": "address"
        }
      ],
      "name": "OwnableInvalidOwner",
      "type": "error"
    },
    {
      "inputs": [
        {
          "internalType": "address",
          "name": "account",
          "type": "address"
        }
      ],
      "name": "OwnableUnauthorizedAccount",
      "type": "error"
    },
    {
      "anonymous": false,
      "inputs": [
        {
          "indexed": false,
          "internalType": "uint64",
          "name": "version",
          "type": "uint64"
        }
      ],
      "name": "Initialized",
      "type": "event"
    },
    {
      "anonymous": false,
      "inputs": [
        {
          "indexed": false,
          "internalType": "address",
          "name": "addr",
          "type": "address"
        }
      ],
      "name": "NewBuilding",
      "type": "event"
    },
    {
      "anonymous": false,
      "inputs": [
        {
          "indexed": true,
          "internalType": "address",
          "name": "previousOwner",
          "type": "address"
        },
        {
          "indexed": true,
          "internalType": "address",
          "name": "newOwner",
          "type": "address"
        }
      ],
      "name": "OwnershipTransferred",
      "type": "event"
    },
    {
      "inputs": [
        {
          "internalType": "uint256",
          "name": "",
          "type": "uint256"
        }
      ],
      "name": "buildingsList",
      "outputs": [
        {
          "internalType": "address",
          "name": "addr",
          "type": "address"
        },
        {
          "internalType": "uint256",
          "name": "nftId",
          "type": "uint256"
        },
        {
          "internalType": "string",
          "name": "tokenURI",
          "type": "string"
        }
      ],
      "stateMutability": "view",
      "type": "function"
    },
    {
      "inputs": [
        {
          "internalType": "address",
          "name": "_nft",
          "type": "address"
        },
        {
          "internalType": "address",
          "name": "_uniswapRouter",
          "type": "address"
        },
        {
          "internalType": "address",
          "name": "_uniswapFactory",
          "type": "address"
        },
        {
          "internalType": "address",
          "name": "_buildingBeacon",
          "type": "address"
        }
      ],
      "name": "initialize",
      "outputs": [],
      "stateMutability": "nonpayable",
      "type": "function"
    },
    {
      "inputs": [
        {
          "internalType": "string",
          "name": "tokenURI",
          "type": "string"
        }
      ],
      "name": "newBuilding",
      "outputs": [],
      "stateMutability": "nonpayable",
      "type": "function"
    },
    {
      "inputs": [],
      "name": "owner",
      "outputs": [
        {
          "internalType": "address",
          "name": "",
          "type": "address"
        }
      ],
      "stateMutability": "view",
      "type": "function"
    },
    {
      "inputs": [],
      "name": "renounceOwnership",
      "outputs": [],
      "stateMutability": "nonpayable",
      "type": "function"
    },
    {
      "inputs": [
        {
          "internalType": "address",
          "name": "newOwner",
          "type": "address"
        }
      ],
      "name": "transferOwnership",
      "outputs": [],
      "stateMutability": "nonpayable",
      "type": "function"
    }
  ],
  "bytecode": "0x608060405234801561001057600080fd5b506110df806100206000396000f3fe60806040523480156200001157600080fd5b50600436106200006a5760003560e01c806351348236146200006f578063715018a614620000a05780638da5cb5b14620000ac578063baff7ae714620000c5578063f2fde38b14620000dc578063f8c8765e14620000f3575b600080fd5b62000086620000803660046200072c565b6200010a565b60405162000097939291906200078e565b60405180910390f35b620000aa620001dc565b005b620000b6620001f4565b604051620000979190620007c0565b620000aa620000d6366004620007ea565b62000222565b620000aa620000ed366004620008c2565b6200045a565b620000aa62000104366004620008e7565b620004a8565b600481815481106200011b57600080fd5b60009182526020909120600390910201805460018201546002830180546001600160a01b039093169450909291620001539062000944565b80601f0160208091040260200160405190810160405280929190818152602001828054620001819062000944565b8015620001d25780601f10620001a657610100808354040283529160200191620001d2565b820191906000526020600020905b815481529060010190602001808311620001b457829003601f168201915b5050505050905083565b620001e66200060d565b620001f2600062000644565b565b7f9016d09d72d40fdae2fd8ceac6b6234c7706214fd39c1cd1e609a0528c199300546001600160a01b031690565b6200022c6200060d565b60035460015460025460008054604080516001600160a01b039586166024820152938516604485015290841660648085019190915281518085039091018152608490930181526020830180516001600160e01b031663c0c53b8b60e01b17905251909392909216916200029f906200071e565b620002ac92919062000980565b604051809103906000f080158015620002c9573d6000803e3d6000fd5b506000805460405163d0def52160e01b815292935090916001600160a01b039091169063d0def5219062000304908590879060040162000980565b6020604051808303816000875af115801562000324573d6000803e3d6000fd5b505050506040513d601f19601f820116820180604052508101906200034a9190620009ae565b604080516060810182526001600160a01b038581168252602082018481529282018781526004805460018101825560009190915283517f8a35acfbc15ff81a39ae7d344fd709f28e8600b4aa8c65c6b64bfe7fe36bd19b600390920291820180546001600160a01b0319169190941617835593517f8a35acfbc15ff81a39ae7d344fd709f28e8600b4aa8c65c6b64bfe7fe36bd19c85015551939450909290917f8a35acfbc15ff81a39ae7d344fd709f28e8600b4aa8c65c6b64bfe7fe36bd19d019062000419908262000a1d565b5050507f02eb67024749e9ed4b0bebae49012408b7466ee9ebbf5a0310811dc2c059d9cd826040516200044d9190620007c0565b60405180910390a1505050565b620004646200060d565b6001600160a01b0381166200049a576000604051631e4fbdf760e01b8152600401620004919190620007c0565b60405180910390fd5b620004a58162000644565b50565b7ff0c57e16840df040f15088dc2f81fe391c3923bec73e23a9662efc9c229c6a008054600160401b810460ff16159067ffffffffffffffff16600081158015620004ef5750825b905060008267ffffffffffffffff1660011480156200050d5750303b155b9050811580156200051c575080155b156200053b5760405163f92ee8a960e01b815260040160405180910390fd5b845467ffffffffffffffff1916600117855583156200056657845460ff60401b1916600160401b1785555b6200057133620006b5565b600080546001600160a01b03808c166001600160a01b031992831617909255600180548b8416908316179055600280548a8416908316179055600380549289169290911691909117905583156200060257845460ff60401b19168555604051600181527fc7f505b2f371ae2175ee4913f4499e1f2633a7b5936321eed1cdaeb6115181d29060200160405180910390a15b505050505050505050565b3362000618620001f4565b6001600160a01b031614620001f2573360405163118cdaa760e01b8152600401620004919190620007c0565b7f9016d09d72d40fdae2fd8ceac6b6234c7706214fd39c1cd1e609a0528c19930080546001600160a01b031981166001600160a01b03848116918217845560405192169182907f8be0079c531659141344cd1fd0a4f28419497f9722a3daafe3b4186f6b6457e090600090a3505050565b620006bf620006ca565b620004a58162000714565b7ff0c57e16840df040f15088dc2f81fe391c3923bec73e23a9662efc9c229c6a0054600160401b900460ff16620001f257604051631afcd79f60e31b815260040160405180910390fd5b62000464620006ca565b6105bf8062000aeb83390190565b6000602082840312156200073f57600080fd5b5035919050565b6000815180845260005b818110156200076e5760208185018101518683018201520162000750565b506000602082860101526020601f19601f83011685010191505092915050565b60018060a01b0384168152826020820152606060408201526000620007b7606083018462000746565b95945050505050565b6001600160a01b0391909116815260200190565b634e487b7160e01b600052604160045260246000fd5b600060208284031215620007fd57600080fd5b813567ffffffffffffffff808211156200081657600080fd5b818401915084601f8301126200082b57600080fd5b813581811115620008405762000840620007d4565b604051601f8201601f19908116603f011681019083821181831017156200086b576200086b620007d4565b816040528281528760208487010111156200088557600080fd5b826020860160208301376000928101602001929092525095945050505050565b80356001600160a01b0381168114620008bd57600080fd5b919050565b600060208284031215620008d557600080fd5b620008e082620008a5565b9392505050565b60008060008060808587031215620008fe57600080fd5b6200090985620008a5565b93506200091960208601620008a5565b92506200092960408601620008a5565b91506200093960608601620008a5565b905092959194509250565b600181811c908216806200095957607f821691505b6020821081036200097a57634e487b7160e01b600052602260045260246000fd5b50919050565b6001600160a01b0383168152604060208201819052600090620009a69083018462000746565b949350505050565b600060208284031215620009c157600080fd5b5051919050565b601f82111562000a18576000816000526020600020601f850160051c81016020861015620009f35750805b601f850160051c820191505b8181101562000a1457828155600101620009ff565b5050505b505050565b815167ffffffffffffffff81111562000a3a5762000a3a620007d4565b62000a528162000a4b845462000944565b84620009c8565b602080601f83116001811462000a8a576000841562000a715750858301515b600019600386901b1c1916600185901b17855562000a14565b600085815260208120601f198616915b8281101562000abb5788860151825594840194600190910190840162000a9a565b508582101562000ada5787850151600019600388901b60f8161c191681555b5050505050600190811b0190555056fe60a06040526040516105bf3803806105bf83398101604081905261002291610387565b61002c828261003e565b506001600160a01b031660805261047e565b610047826100fe565b6040516001600160a01b038316907f1cf3b03a6cf19fa2baba4df148e9dcabedea7f8a5c07840e207e5c089be95d3e90600090a28051156100f2576100ed826001600160a01b0316635c60da1b6040518163ffffffff1660e01b8152600401602060405180830381865afa1580156100c3573d6000803e3d6000fd5b505050506040513d601f19601f820116820180604052508101906100e79190610447565b82610211565b505050565b6100fa610288565b5050565b806001600160a01b03163b60000361013957604051631933b43b60e21b81526001600160a01b03821660048201526024015b60405180910390fd5b807fa3f0ad74e5423aebfd80d3ef4346578335a9a72aeaee59ff6cb3582b35133d5080546001600160a01b0319166001600160a01b0392831617905560408051635c60da1b60e01b81529051600092841691635c60da1b9160048083019260209291908290030181865afa1580156101b5573d6000803e3d6000fd5b505050506040513d601f19601f820116820180604052508101906101d99190610447565b9050806001600160a01b03163b6000036100fa57604051634c9c8ce360e01b81526001600160a01b0382166004820152602401610130565b6060600080846001600160a01b03168460405161022e9190610462565b600060405180830381855af49150503d8060008114610269576040519150601f19603f3d011682016040523d82523d6000602084013e61026e565b606091505b50909250905061027f8583836102a9565b95945050505050565b34156102a75760405163b398979f60e01b815260040160405180910390fd5b565b6060826102be576102b982610308565b610301565b81511580156102d557506001600160a01b0384163b155b156102fe57604051639996b31560e01b81526001600160a01b0385166004820152602401610130565b50805b9392505050565b8051156103185780518082602001fd5b604051630a12f52160e11b815260040160405180910390fd5b80516001600160a01b038116811461034857600080fd5b919050565b634e487b7160e01b600052604160045260246000fd5b60005b8381101561037e578181015183820152602001610366565b50506000910152565b6000806040838503121561039a57600080fd5b6103a383610331565b60208401519092506001600160401b03808211156103c057600080fd5b818501915085601f8301126103d457600080fd5b8151818111156103e6576103e661034d565b604051601f8201601f19908116603f0116810190838211818310171561040e5761040e61034d565b8160405282815288602084870101111561042757600080fd5b610438836020830160208801610363565b80955050505050509250929050565b60006020828403121561045957600080fd5b61030182610331565b60008251610474818460208701610363565b9190910192915050565b6080516101276104986000396000601e01526101276000f3fe6080604052600a600c565b005b60186014601a565b60a0565b565b60007f00000000000000000000000000000000000000000000000000000000000000006001600160a01b0316635c60da1b6040518163ffffffff1660e01b8152600401602060405180830381865afa1580156079573d6000803e3d6000fd5b505050506040513d601f19601f82011682018060405250810190609b919060c3565b905090565b3660008037600080366000845af43d6000803e80801560be573d6000f35b3d6000fd5b60006020828403121560d457600080fd5b81516001600160a01b038116811460ea57600080fd5b939250505056fea26469706673582212205c8a2fcdc6f79c1d43b849e2b03f494652cee222b2ec86046b7caaa1405f985f64736f6c63430008180033a264697066735822122045518f4a7ad82f9f5846541700d8a46a8656ba9f095184548e5bbcdb183aef3a64736f6c63430008180033",
  "linkReferences": {},
  "deployedLinkReferences": {}
}