{
  "_format": "hh-sol-artifact-1",
  "contractName": "BuildingFactory",
  "sourceName": "contracts/buildings/BuildingFactory.sol",
  "abi": [
    {
      "inputs": [],
      "stateMutability": "nonpayable",
      "type": "constructor"
    },
    {
      "inputs": [],
      "name": "InvalidInitialization",
      "type": "error"
    },
    {
      "inputs": [],
      "name": "NotInitializing",
      "type": "error"
    },
    {
      "anonymous": false,
      "inputs": [
        {
          "indexed": false,
          "internalType": "uint64",
          "name": "version",
          "type": "uint64"
        }
      ],
      "name": "Initialized",
      "type": "event"
    },
    {
      "anonymous": false,
      "inputs": [
        {
          "indexed": false,
          "internalType": "address",
          "name": "buildingAddress",
          "type": "address"
        },
        {
          "indexed": false,
          "internalType": "address",
          "name": "erc3643Token",
          "type": "address"
        },
        {
          "indexed": false,
          "internalType": "address",
          "name": "treasury",
          "type": "address"
        },
        {
          "indexed": false,
          "internalType": "address",
          "name": "vault",
          "type": "address"
        },
        {
          "indexed": false,
          "internalType": "address",
          "name": "governance",
          "type": "address"
        },
        {
          "indexed": false,
          "internalType": "address",
          "name": "initialOwner",
          "type": "address"
        }
      ],
      "name": "NewBuilding",
      "type": "event"
    },
    {
      "inputs": [
        {
          "internalType": "address",
          "name": "buildingAddress",
          "type": "address"
        }
      ],
      "name": "getBuildingDetails",
      "outputs": [
        {
          "components": [
            {
              "internalType": "address",
              "name": "addr",
              "type": "address"
            },
            {
              "internalType": "uint256",
              "name": "nftId",
              "type": "uint256"
            },
            {
              "internalType": "string",
              "name": "tokenURI",
              "type": "string"
            },
            {
              "internalType": "address",
              "name": "identity",
              "type": "address"
            },
            {
              "internalType": "address",
              "name": "erc3643Token",
              "type": "address"
            },
            {
              "internalType": "address",
              "name": "treasury",
              "type": "address"
            },
            {
              "internalType": "address",
              "name": "governance",
              "type": "address"
            },
            {
              "internalType": "address",
              "name": "vault",
              "type": "address"
            }
          ],
          "internalType": "struct BuildingFactoryStorage.BuildingDetails",
          "name": "",
          "type": "tuple"
        }
      ],
      "stateMutability": "view",
      "type": "function"
    },
    {
      "inputs": [],
      "name": "getBuildingList",
      "outputs": [
        {
          "components": [
            {
              "internalType": "address",
              "name": "addr",
              "type": "address"
            },
            {
              "internalType": "uint256",
              "name": "nftId",
              "type": "uint256"
            },
            {
              "internalType": "string",
              "name": "tokenURI",
              "type": "string"
            },
            {
              "internalType": "address",
              "name": "identity",
              "type": "address"
            },
            {
              "internalType": "address",
              "name": "erc3643Token",
              "type": "address"
            },
            {
              "internalType": "address",
              "name": "treasury",
              "type": "address"
            },
            {
              "internalType": "address",
              "name": "governance",
              "type": "address"
            },
            {
              "internalType": "address",
              "name": "vault",
              "type": "address"
            }
          ],
          "internalType": "struct BuildingFactoryStorage.BuildingDetails[]",
          "name": "",
          "type": "tuple[]"
        }
      ],
      "stateMutability": "view",
      "type": "function"
    },
    {
      "inputs": [
        {
          "internalType": "address",
          "name": "_nft",
          "type": "address"
        },
        {
          "internalType": "address",
          "name": "_uniswapRouter",
          "type": "address"
        },
        {
          "internalType": "address",
          "name": "_uniswapFactory",
          "type": "address"
        },
        {
          "internalType": "address",
          "name": "_onchainIdGateway",
          "type": "address"
        },
        {
          "internalType": "address",
          "name": "_trexGateway",
          "type": "address"
        },
        {
          "internalType": "address",
          "name": "_usdc",
          "type": "address"
        },
        {
          "internalType": "address",
          "name": "_buildingBeacon",
          "type": "address"
        },
        {
          "internalType": "address",
          "name": "_treasuryBeacon",
          "type": "address"
        },
        {
          "internalType": "address",
          "name": "_governanceBeacon",
          "type": "address"
        }
      ],
      "name": "initialize",
      "outputs": [],
      "stateMutability": "nonpayable",
      "type": "function"
    },
    {
      "inputs": [
        {
          "components": [
            {
              "internalType": "string",
              "name": "tokenURI",
              "type": "string"
            },
            {
              "internalType": "string",
              "name": "tokenName",
              "type": "string"
            },
            {
              "internalType": "string",
              "name": "tokenSymbol",
              "type": "string"
            },
            {
              "internalType": "uint8",
              "name": "tokenDecimals",
              "type": "uint8"
            },
            {
              "internalType": "uint256",
              "name": "treasuryReserveAmount",
              "type": "uint256"
            },
            {
              "internalType": "uint256",
              "name": "treasuryNPercent",
              "type": "uint256"
            },
            {
              "internalType": "string",
              "name": "governanceName",
              "type": "string"
            },
            {
              "internalType": "string",
              "name": "vaultShareTokenName",
              "type": "string"
            },
            {
              "internalType": "string",
              "name": "vaultShareTokenSymbol",
              "type": "string"
            },
            {
              "internalType": "address",
              "name": "vaultFeeReceiver",
              "type": "address"
            },
            {
              "internalType": "address",
              "name": "vaultFeeToken",
              "type": "address"
            },
            {
              "internalType": "uint256",
              "name": "vaultFeePercentage",
              "type": "uint256"
            },
            {
              "internalType": "uint32",
              "name": "vaultCliff",
              "type": "uint32"
            },
            {
              "internalType": "uint32",
              "name": "vaultUnlockDuration",
              "type": "uint32"
            }
          ],
          "internalType": "struct BuildingFactoryStorage.NewBuildingDetails",
          "name": "details",
          "type": "tuple"
        }
      ],
      "name": "newBuilding",
      "outputs": [
        {
          "components": [
            {
              "internalType": "address",
              "name": "addr",
              "type": "address"
            },
            {
              "internalType": "uint256",
              "name": "nftId",
              "type": "uint256"
            },
            {
              "internalType": "string",
              "name": "tokenURI",
              "type": "string"
            },
            {
              "internalType": "address",
              "name": "identity",
              "type": "address"
            },
            {
              "internalType": "address",
              "name": "erc3643Token",
              "type": "address"
            },
            {
              "internalType": "address",
              "name": "treasury",
              "type": "address"
            },
            {
              "internalType": "address",
              "name": "governance",
              "type": "address"
            },
            {
              "internalType": "address",
              "name": "vault",
              "type": "address"
            }
          ],
          "internalType": "struct BuildingFactoryStorage.BuildingDetails",
          "name": "buildingDetails",
          "type": "tuple"
        }
      ],
      "stateMutability": "nonpayable",
      "type": "function"
    }
  ],
  "bytecode": "0x608060405234801561001057600080fd5b5061001961001e565b6100d0565b7ff0c57e16840df040f15088dc2f81fe391c3923bec73e23a9662efc9c229c6a00805468010000000000000000900460ff161561006e5760405163f92ee8a960e01b815260040160405180910390fd5b80546001600160401b03908116146100cd5780546001600160401b0319166001600160401b0390811782556040519081527fc7f505b2f371ae2175ee4913f4499e1f2633a7b5936321eed1cdaeb6115181d29060200160405180910390a15b50565b6178cc80620000e06000396000f3fe60806040523480156200001157600080fd5b5060043610620000525760003560e01c8063665fa4a11462000057578063717edf7d1462000086578063db652ec8146200009d578063f5e95acb14620000b6575b600080fd5b6200006e620000683660046200118a565b620000cf565b6040516200007d919062001285565b60405180910390f35b6200006e620000973660046200129a565b62000213565b620000a762000a47565b6040516200007d9190620012d9565b620000cd620000c736600462001341565b62000bba565b005b620000d962001102565b6000620000e562000e4f565b6001600160a01b038085166000908152600a83016020908152604091829020825161010081018452815490941684526001810154918401919091526002810180549495509293909291840191906200013d9062001410565b80601f01602080910402602001604051908101604052809291908181526020018280546200016b9062001410565b8015620001bc5780601f106200019057610100808354040283529160200191620001bc565b820191906000526020600020905b8154815290600101906020018083116200019e57829003601f168201915b505050918352505060038201546001600160a01b03908116602083015260048301548116604083015260058301548116606083015260068301548116608083015260079092015490911660a0909101529392505050565b6200021d62001102565b60006200022962000e4f565b6040805161010081018252600080825260208201819052818301819052606082018190526080820181905260a0820181905260c0820181905260e082015260038301546001840154600285015493516001600160a01b03918216602482015293811660448501523360648501529394509092169063c0c53b8b60e01b9060840160408051601f198184030181529181526020820180516001600160e01b03166001600160e01b0319909416939093179092529051620002e89062001147565b620002f59291906200144c565b604051809103906000f08015801562000312573d6000803e3d6000fd5b506001600160a01b039081166020830181905233835283549091169063d0def521906200034087806200147a565b6040518463ffffffff1660e01b81526004016200036093929190620014cb565b6020604051808303816000875af115801562000380573d6000803e3d6000fd5b505050506040513d601f19601f82011682018060405250810190620003a691906200150b565b60408083019190915260048084015460208401519251633e8e6e8b60e01b81526001600160a01b0390911692633e8e6e8b92620003e4920162001525565b6020604051808303816000875af115801562000404573d6000803e3d6000fd5b505050506040513d601f19601f820116820180604052508101906200042a919062001539565b6001600160a01b03166060820152602080820151620004e29162000451908701876200147a565b8080601f016020809104026020016040519081016040528093929190818152602001838380828437600092019190915250620004959250505060408801886200147a565b8080601f016020809104026020016040519081016040528093929190818152602001838380828437600092019190915250620004dc925050506080890160608a0162001559565b62000e73565b6001600160a01b031660808083019190915281516200050b918601359060a08701359062000f0e565b6001600160a01b031660a0820152608081015162000610906200053260e08701876200147a565b8080601f01602080910402602001604051908101604052809392919081815260200183838082843760009201919091525062000577925050506101008801886200147a565b8080601f01602080910402602001604051908101604052809392919081815260200183838082843760009201919091525050505060a08501518551620005c66101408b016101208c016200118a565b620005da6101608c016101408d016200118a565b6101608c0135620005f46101a08e016101808f016200157e565b8d6101a00160208101906200060a91906200157e565b62000fea565b6001600160a01b031660c08083019190915260808201516200067b916200063a908701876200147a565b8080601f01602080910402602001604051908101604052809392919081815260200183838082843760009201919091525050505060a0840151845162001073565b6001600160a01b0390811660e0830181905260a08301516040516260360760e81b8152921691636036070091620006b59160040162001525565b600060405180830381600087803b158015620006d057600080fd5b505af1158015620006e5573d6000803e3d6000fd5b505050508060a001516001600160a01b031663256b5a028260c001516040518263ffffffff1660e01b81526004016200071f919062001525565b600060405180830381600087803b1580156200073a57600080fd5b505af11580156200074f573d6000803e3d6000fd5b505060408051610100810182526020808601516001600160a01b0316825285830151908201529250820190506200078786806200147a565b8080601f01602080910402602001604051908101604052809392919081815260200183838082843760009201829052509385525050506060848101516001600160a01b03908116602080860191909152608080880151831660408088019190915260a0808a015185169588019590955260e089015184169187019190915260c0880151831693909501929092528186015181168352600a8701825291839020845181546001600160a01b0319169316929092178255830151600182015590820151919450849160028201906200085e908262001611565b5060608201516003820180546001600160a01b03199081166001600160a01b03938416179091556080840151600484018054831691841691909117905560a0840151600584018054831691841691909117905560c0840151600684018054831691841691909117905560e09093015160079092018054841692821692909217909155600984018054600181810183556000928352602092839020885160089093020180549095169190931617835585015190820155604084015184919060028201906200092c908262001611565b5060608201516003820180546001600160a01b039283166001600160a01b03199182161790915560808085015160048501805491851691841691909117905560a08086015160058601805491861691851691909117905560c08087015160068701805491871691861691909117905560e0968701516007909601805496909516959093169490941790925560208501519185015192850151908501519385015185516040517f315a052801fe1a783410fc1478f3c1b2adf871da15f341112ad2223b9d8dd0d19662000a38969493909290916001600160a01b0396871681529486166020860152928516604085015290841660608401528316608083015290911660a082015260c00190565b60405180910390a15050919050565b6060600062000a5562000e4f565b6009810180546040805160208084028201810190925282815293945060009084015b8282101562000bb057600084815260209081902060408051610100810182526008860290920180546001600160a01b031683526001810154938301939093526002830180549293929184019162000ace9062001410565b80601f016020809104026020016040519081016040528092919081815260200182805462000afc9062001410565b801562000b4d5780601f1062000b215761010080835404028352916020019162000b4d565b820191906000526020600020905b81548152906001019060200180831162000b2f57829003601f168201915b505050918352505060038201546001600160a01b039081166020808401919091526004840154821660408401526005840154821660608401526006840154821660808401526007909301541660a090910152908252600192909201910162000a77565b5050505091505090565b7ff0c57e16840df040f15088dc2f81fe391c3923bec73e23a9662efc9c229c6a008054600160401b810460ff16159067ffffffffffffffff1660008115801562000c015750825b905060008267ffffffffffffffff16600114801562000c1f5750303b155b90508115801562000c2e575080155b1562000c4d5760405163f92ee8a960e01b815260040160405180910390fd5b845467ffffffffffffffff19166001178555831562000c7857845460ff60401b1916600160401b1785555b600062000c8462000e4f565b90508e8160000160006101000a8154816001600160a01b0302191690836001600160a01b031602179055508d8160010160006101000a8154816001600160a01b0302191690836001600160a01b031602179055508c8160020160006101000a8154816001600160a01b0302191690836001600160a01b03160217905550888160030160006101000a8154816001600160a01b0302191690836001600160a01b031602179055508b8160040160006101000a8154816001600160a01b0302191690836001600160a01b031602179055508a8160050160006101000a8154816001600160a01b0302191690836001600160a01b03160217905550878160060160006101000a8154816001600160a01b0302191690836001600160a01b03160217905550898160070160006101000a8154816001600160a01b0302191690836001600160a01b03160217905550868160080160006101000a8154816001600160a01b0302191690836001600160a01b0316021790555050831562000e3f57845460ff60401b19168555604051600181527fc7f505b2f371ae2175ee4913f4499e1f2633a7b5936321eed1cdaeb6115181d29060200160405180910390a15b5050505050505050505050505050565b7f0f40dde8b99b0722537b774c6ef775b5e5a0af035d95bf9802cd87411f806f0090565b60008062000e8062000e4f565b600581015490915062000ea0906001600160a01b031687878787620010b9565b60405163f2fde38b60e01b81529092506001600160a01b0383169063f2fde38b9062000ed190339060040162001525565b600060405180830381600087803b15801562000eec57600080fd5b505af115801562000f01573d6000803e3d6000fd5b5050505050949350505050565b60008062000f1b62000e4f565b600681015460078201546040516001600160a01b03918216602482015260448101899052606481018890528187166084820181905260a48201523060c4820152929350859260009291909116906311917b1d60e01b9060e4015b60408051601f198184030181529181526020820180516001600160e01b03166001600160e01b031990941693909317909252905162000fb49062001147565b62000fc19291906200144c565b604051809103906000f08015801562000fde573d6000803e3d6000fd5b50979650505050505050565b6000806040518060600160405280886001600160a01b03168152602001876001600160a01b031681526020018681525090508b8b8b838c8c8989604051620010329062001155565b62001045989796959493929190620016de565b604051809103906000f08015801562001062573d6000803e3d6000fd5b509c9b505050505050505050505050565b6000806200108062000e4f565b60088101546040519192506000916001600160a01b0390911690632e3e235960e21b9062000f75908a908a9089908b9060240162001778565b6000838383604051620010cc9062001163565b620010da93929190620017b5565b604051809103906000f080158015620010f7573d6000803e3d6000fd5b509695505050505050565b604080516101008101825260008082526020820181905260609282018390529181018290526080810182905260a0810182905260c0810182905260e081019190915290565b6105bf80620017f383390190565b61357a8062001db283390190565b61256b806200532c83390190565b6001600160a01b03811681146200118757600080fd5b50565b6000602082840312156200119d57600080fd5b8135620011aa8162001171565b9392505050565b6000815180845260005b81811015620011d957602081850181015186830182015201620011bb565b506000602082860101526020601f19601f83011685010191505092915050565b600061010060018060a01b038084511685526020840151602086015260408401518260408701526200122e83870182620011b1565b9250508060608501511660608601528060808501511660808601528060a08501511660a08601528060c08501511660c08601525060e08301516200127d60e08601826001600160a01b03169052565b509392505050565b602081526000620011aa6020830184620011f9565b600060208284031215620012ad57600080fd5b813567ffffffffffffffff811115620012c557600080fd5b82016101c08185031215620011aa57600080fd5b600060208083016020845280855180835260408601915060408160051b87010192506020870160005b828110156200133457603f1988860301845262001321858351620011f9565b9450928501929085019060010162001302565b5092979650505050505050565b60008060008060008060008060006101208a8c0312156200136157600080fd5b89356200136e8162001171565b985060208a0135620013808162001171565b975060408a0135620013928162001171565b965060608a0135620013a48162001171565b955060808a0135620013b68162001171565b945060a08a0135620013c88162001171565b935060c08a0135620013da8162001171565b925060e08a0135620013ec8162001171565b91506101008a0135620013ff8162001171565b809150509295985092959850929598565b600181811c908216806200142557607f821691505b6020821081036200144657634e487b7160e01b600052602260045260246000fd5b50919050565b6001600160a01b03831681526040602082018190526000906200147290830184620011b1565b949350505050565b6000808335601e198436030181126200149257600080fd5b83018035915067ffffffffffffffff821115620014ae57600080fd5b602001915036819003821315620014c457600080fd5b9250929050565b6001600160a01b03841681526040602082018190528101829052818360608301376000818301606090810191909152601f909201601f1916010192915050565b6000602082840312156200151e57600080fd5b5051919050565b6001600160a01b0391909116815260200190565b6000602082840312156200154c57600080fd5b8151620011aa8162001171565b6000602082840312156200156c57600080fd5b813560ff81168114620011aa57600080fd5b6000602082840312156200159157600080fd5b813563ffffffff81168114620011aa57600080fd5b634e487b7160e01b600052604160045260246000fd5b601f8211156200160c576000816000526020600020601f850160051c81016020861015620015e75750805b601f850160051c820191505b818110156200160857828155600101620015f3565b5050505b505050565b815167ffffffffffffffff8111156200162e576200162e620015a6565b62001646816200163f845462001410565b84620015bc565b602080601f8311600181146200167e5760008415620016655750858301515b600019600386901b1c1916600185901b17855562001608565b600085815260208120601f198616915b82811015620016af578886015182559484019460019091019084016200168e565b5085821015620016ce5787850151600019600388901b60f8161c191681555b5050505050600190811b01905550565b6001600160a01b03898116825261014060208301819052600091620017068483018c620011b1565b915083820360408501526200171c828b620011b1565b89518216606086015260208a01518216608086015260408a015160a086015288821660c086015290871660e085015263ffffffff868116610100860152851661012085015291506200176b9050565b9998505050505050505050565b600060018060a01b038087168352608060208401526200179c6080840187620011b1565b9481166040840152929092166060909101525092915050565b606081526000620017ca6060830186620011b1565b8281036020840152620017de8186620011b1565b91505060ff8316604083015294935050505056fe60a06040526040516105bf3803806105bf83398101604081905261002291610387565b61002c828261003e565b506001600160a01b031660805261047e565b610047826100fe565b6040516001600160a01b038316907f1cf3b03a6cf19fa2baba4df148e9dcabedea7f8a5c07840e207e5c089be95d3e90600090a28051156100f2576100ed826001600160a01b0316635c60da1b6040518163ffffffff1660e01b8152600401602060405180830381865afa1580156100c3573d6000803e3d6000fd5b505050506040513d601f19601f820116820180604052508101906100e79190610447565b82610211565b505050565b6100fa610288565b5050565b806001600160a01b03163b60000361013957604051631933b43b60e21b81526001600160a01b03821660048201526024015b60405180910390fd5b807fa3f0ad74e5423aebfd80d3ef4346578335a9a72aeaee59ff6cb3582b35133d5080546001600160a01b0319166001600160a01b0392831617905560408051635c60da1b60e01b81529051600092841691635c60da1b9160048083019260209291908290030181865afa1580156101b5573d6000803e3d6000fd5b505050506040513d601f19601f820116820180604052508101906101d99190610447565b9050806001600160a01b03163b6000036100fa57604051634c9c8ce360e01b81526001600160a01b0382166004820152602401610130565b6060600080846001600160a01b03168460405161022e9190610462565b600060405180830381855af49150503d8060008114610269576040519150601f19603f3d011682016040523d82523d6000602084013e61026e565b606091505b50909250905061027f8583836102a9565b95945050505050565b34156102a75760405163b398979f60e01b815260040160405180910390fd5b565b6060826102be576102b982610308565b610301565b81511580156102d557506001600160a01b0384163b155b156102fe57604051639996b31560e01b81526001600160a01b0385166004820152602401610130565b50805b9392505050565b8051156103185780518082602001fd5b604051630a12f52160e11b815260040160405180910390fd5b80516001600160a01b038116811461034857600080fd5b919050565b634e487b7160e01b600052604160045260246000fd5b60005b8381101561037e578181015183820152602001610366565b50506000910152565b6000806040838503121561039a57600080fd5b6103a383610331565b60208401519092506001600160401b03808211156103c057600080fd5b818501915085601f8301126103d457600080fd5b8151818111156103e6576103e661034d565b604051601f8201601f19908116603f0116810190838211818310171561040e5761040e61034d565b8160405282815288602084870101111561042757600080fd5b610438836020830160208801610363565b80955050505050509250929050565b60006020828403121561045957600080fd5b61030182610331565b60008251610474818460208701610363565b9190910192915050565b6080516101276104986000396000601e01526101276000f3fe6080604052600a600c565b005b60186014601a565b60a0565b565b60007f00000000000000000000000000000000000000000000000000000000000000006001600160a01b0316635c60da1b6040518163ffffffff1660e01b8152600401602060405180830381865afa1580156079573d6000803e3d6000fd5b505050506040513d601f19601f82011682018060405250810190609b919060c3565b905090565b3660008037600080366000845af43d6000803e80801560be573d6000f35b3d6000fd5b60006020828403121560d457600080fd5b81516001600160a01b038116811460ea57600080fd5b939250505056fea26469706673582212205c8a2fcdc6f79c1d43b849e2b03f494652cee222b2ec86046b7caaa1405f985f64736f6c6343000818003360c06040526040516200357a3803806200357a83398101604081905262000026916200058e565b33888888600362000038838262000740565b50600462000047828262000740565b5050506000806200005e836200012660201b60201c565b91509150816200007057601262000072565b805b60ff1660a05250506001600160a01b039081166080528116620000b057604051631e4fbdf760e01b8152600060048201526024015b60405180910390fd5b620000bb816200020b565b506001600a557fb5311d7a8ac81ee4993288bc4c98b414fbe1c746351a804bd1a32db330eae700620000ef8686866200025d565b80546001600160401b03191664010000000063ffffffff9485160263ffffffff191617919092161790555062000844945050505050565b60408051600481526024810182526020810180516001600160e01b031663313ce56760e01b17905290516000918291829182916001600160a01b038716916200016f916200080c565b600060405180830381855afa9150503d8060008114620001ac576040519150601f19603f3d011682016040523d82523d6000602084013e620001b1565b606091505b5091509150818015620001c657506020815110155b15620001fe57600081806020019051810190620001e491906200082a565b905060ff8111620001fc576001969095509350505050565b505b5060009485945092505050565b600980546001600160a01b038381166001600160a01b0319831681179093556040519116919082907f8be0079c531659141344cd1fd0a4f28419497f9722a3daafe3b4186f6b6457e090600090a35050565b82516020840151604085015162000276929190620002e3565b62000283600033620003a3565b50620002b07f477fc23fb51bb5d5aa814872a393b0e4f35d0916c7503c0fd96584681070d41083620003a3565b50620002dd7f74e458455daa935f28c556b43e0cc4ad001a8a090f5feee376681e97d4618f4682620003a3565b50505050565b6127108110620003285760405162461bcd60e51b815260206004820152600f60248201526e46433a20496e76616c69642066656560881b6044820152606401620000a7565b600680546001600160a01b038581166001600160a01b0319928316811790935560078054918616919092168117909155600883905560408051928352602083019190915281018290527febd34b2df88ea5c9f67c04b13b08e5e63c2d17e269aab73b866fe47a8736a2649060600160405180910390a1505050565b60008281526005602090815260408083206001600160a01b038516845290915281205460ff166200044c5760008381526005602090815260408083206001600160a01b03861684529091529020805460ff19166001179055620004033390565b6001600160a01b0316826001600160a01b0316847f2f8788117e7eff1d82e926ec794901d17c78024a50270940304540a733656f0d60405160405180910390a450600162000450565b5060005b92915050565b6001600160a01b03811681146200046c57600080fd5b50565b634e487b7160e01b600052604160045260246000fd5b604051606081016001600160401b0381118282101715620004aa57620004aa6200046f565b60405290565b60005b83811015620004cd578181015183820152602001620004b3565b50506000910152565b600082601f830112620004e857600080fd5b81516001600160401b03808211156200050557620005056200046f565b604051601f8301601f19908116603f011681019082821181831017156200053057620005306200046f565b816040528381528660208588010111156200054a57600080fd5b6200055d846020830160208901620004b0565b9695505050505050565b8051620005748162000456565b919050565b805163ffffffff811681146200057457600080fd5b600080600080600080600080888a03610140811215620005ad57600080fd5b8951620005ba8162000456565b60208b01519099506001600160401b0380821115620005d857600080fd5b620005e68d838e01620004d6565b995060408c0151915080821115620005fd57600080fd5b506200060c8c828d01620004d6565b9750506060605f19820112156200062257600080fd5b506200062d62000485565b60608a01516200063d8162000456565b815260808a01516200064f8162000456565b602082015260a08a0151604082015294506200066e60c08a0162000567565b93506200067e60e08a0162000567565b92506200068f6101008a0162000579565b9150620006a06101208a0162000579565b90509295985092959890939650565b600181811c90821680620006c457607f821691505b602082108103620006e557634e487b7160e01b600052602260045260246000fd5b50919050565b601f8211156200073b576000816000526020600020601f850160051c81016020861015620007165750805b601f850160051c820191505b81811015620007375782815560010162000722565b5050505b505050565b81516001600160401b038111156200075c576200075c6200046f565b62000774816200076d8454620006af565b84620006eb565b602080601f831160018114620007ac5760008415620007935750858301515b600019600386901b1c1916600185901b17855562000737565b600085815260208120601f198616915b82811015620007dd57888601518255948401946001909101908401620007bc565b5085821015620007fc5787850151600019600388901b60f8161c191681555b5050505050600190811b01905550565b6000825162000820818460208701620004b0565b9190910192915050565b6000602082840312156200083d57600080fd5b5051919050565b60805160a051612cf4620008866000396000610aef01526000818161051f0152818161090c01528181610fa201528181611a580152611e020152612cf46000f3fe60806040526004361061029e5760003560e01c80638a1fcd6011610165578063ba087652116100cc578063ce96cb7711610085578063ce96cb7714610832578063d547741f14610852578063d905777e14610872578063dd62ed3e14610892578063ef8b30f7146107bd578063efa6f425146108b2578063f2fde38b146108d257600080fd5b8063ba0876521461077b578063c4f59f9b1461079b578063c63d75b61461054c578063c6e6f592146107bd578063caad546e146107dd578063cd26c0e6146107fd57600080fd5b8063a217fddf1161011e578063a217fddf146106b2578063a5f1e282146106c7578063a9059cbb146106e7578063b3d7f6b914610707578063b460af9414610727578063b4f6d6131461074757600080fd5b80638a1fcd60146106175780638da5cb5b1461062c57806391d148541461064a57806394bf804d1461066a57806395d89b411461068a5780639feb8f501461069f57600080fd5b80632f2ff15d116102095780634cdad506116101c25780634cdad506146103515780635ab764ed1461056c5780636e553f651461058c5780636f26a436146105ac57806370a08231146105cc578063715018a61461060257600080fd5b80632f2ff15d1461047a578063313ce5671461049c578063362a3fad146104c357806336568abe146104f057806338d52e0f14610510578063402d267d1461054c57600080fd5b80630a28a4771161025b5780630a28a4771461039157806313d033c0146103b157806318160ddd146103db5780631e5eb1d0146103f057806323b872dd1461042a578063248a9ca31461044a57600080fd5b806301e1d114146102a357806301ffc9a7146102cb57806305fb2a51146102fb57806306fdde031461032f57806307a2d13a14610351578063095ea7b314610371575b600080fd5b3480156102af57600080fd5b506102b86108f2565b6040519081526020015b60405180910390f35b3480156102d757600080fd5b506102eb6102e6366004612686565b610987565b60405190151581526020016102c2565b34801561030757600080fd5b506102b87f74e458455daa935f28c556b43e0cc4ad001a8a090f5feee376681e97d4618f4681565b34801561033b57600080fd5b506103446109b2565b6040516102c291906126d4565b34801561035d57600080fd5b506102b861036c366004612707565b610a44565b34801561037d57600080fd5b506102eb61038c36600461273c565b610a51565b34801561039d57600080fd5b506102b86103ac366004612707565b610a69565b3480156103bd57600080fd5b506103c6610a76565b60405163ffffffff90911681526020016102c2565b3480156103e757600080fd5b506002546102b8565b3480156103fc57600080fd5b5060065460075460085461041b926001600160a01b0390811692169083565b6040516102c293929190612766565b34801561043657600080fd5b506102eb61044536600461278a565b610a96565b34801561045657600080fd5b506102b8610465366004612707565b60009081526005602052604090206001015490565b34801561048657600080fd5b5061049a6104953660046127c6565b610abc565b005b3480156104a857600080fd5b506104b1610ae7565b60405160ff90911681526020016102c2565b3480156104cf57600080fd5b506104e36104de3660046127f2565b610b13565b6040516102c2919061280d565b3480156104fc57600080fd5b5061049a61050b3660046127c6565b610bd7565b34801561051c57600080fd5b507f00000000000000000000000000000000000000000000000000000000000000005b6040516102c29190612851565b34801561055857600080fd5b506102b86105673660046127f2565b610c0f565b34801561057857600080fd5b506102b8610587366004612865565b610c16565b34801561059857600080fd5b506102b86105a73660046127c6565b610cf7565b3480156105b857600080fd5b5061049a6105c736600461288f565b610db0565b3480156105d857600080fd5b506102b86105e73660046127f2565b6001600160a01b031660009081526020819052604090205490565b34801561060e57600080fd5b5061049a610e11565b34801561062357600080fd5b506103c6610e25565b34801561063857600080fd5b506009546001600160a01b031661053f565b34801561065657600080fd5b506102eb6106653660046127c6565b610e3d565b34801561067657600080fd5b506102b86106853660046127c6565b610e68565b34801561069657600080fd5b50610344610f0d565b61049a6106ad36600461273c565b610f1c565b3480156106be57600080fd5b506102b8600081565b3480156106d357600080fd5b506102b86106e23660046127f2565b61126c565b3480156106f357600080fd5b506102eb61070236600461273c565b6112bc565b34801561071357600080fd5b506102b8610722366004612707565b6112ca565b34801561073357600080fd5b506102b86107423660046128b5565b6112d7565b34801561075357600080fd5b506102b87f477fc23fb51bb5d5aa814872a393b0e4f35d0916c7503c0fd96584681070d41081565b34801561078757600080fd5b506102b86107963660046128b5565b611388565b3480156107a757600080fd5b506107b0611459565b6040516102c291906128f1565b3480156107c957600080fd5b506102b86107d8366004612707565b6114c5565b3480156107e957600080fd5b506102b86107f83660046127f2565b6114d2565b34801561080957600080fd5b5061081d6108183660046127c6565b6114dd565b604080519283526020830191909152016102c2565b34801561083e57600080fd5b506102b861084d3660046127f2565b61162f565b34801561085e57600080fd5b5061049a61086d3660046127c6565b611644565b34801561087e57600080fd5b506102b861088d3660046127f2565b611669565b34801561089e57600080fd5b506102b86108ad366004612865565b611674565b3480156108be57600080fd5b5061049a6108cd366004612948565b61169f565b3480156108de57600080fd5b5061049a6108ed3660046127f2565b6116e4565b6040516370a0823160e01b81526000906001600160a01b037f000000000000000000000000000000000000000000000000000000000000000016906370a0823190610941903090600401612851565b602060405180830381865afa15801561095e573d6000803e3d6000fd5b505050506040513d601f19601f8201168201806040525081019061098291906129be565b905090565b60006001600160e01b0319821663043eff2d60e51b14806109ac57506109ac82611722565b92915050565b6060600380546109c1906129d7565b80601f01602080910402602001604051908101604052809291908181526020018280546109ed906129d7565b8015610a3a5780601f10610a0f57610100808354040283529160200191610a3a565b820191906000526020600020905b815481529060010190602001808311610a1d57829003601f168201915b5050505050905090565b60006109ac826000611757565b600033610a5f818585611791565b5060019392505050565b60006109ac82600161179e565b600080610a816117ce565b54640100000000900463ffffffff1692915050565b600033610aa48582856117f2565b610aaf85858561183f565b60019150505b9392505050565b600082815260056020526040902060010154610ad78161189e565b610ae183836118a8565b50505050565b6000610982817f0000000000000000000000000000000000000000000000000000000000000000612a27565b60606000610b1f6117ce565b60018101549091508067ffffffffffffffff811115610b4057610b40612932565b604051908082528060200260200182016040528015610b69578160200160208202803683370190505b50925060005b81811015610bcf57610baa85846001018381548110610b9057610b90612a40565b6000918252602090912001546001600160a01b0316610c16565b848281518110610bbc57610bbc612a40565b6020908102919091010152600101610b6f565b505050919050565b6001600160a01b0381163314610c005760405163334bd91960e11b815260040160405180910390fd5b610c0a828261193c565b505050565b5060001990565b600080610c216117ce565b6001600160a01b03808516600090815260038301602090815260408083208054948a168452600286019092528220805494955090939091819003610c6d576000955050505050506109ac565b6001600160a01b038716600090815260048301602052604081205490610c938286612a56565b9050670de0b6b3a7640000610ca88483612a69565b610cb29190612a96565b975087600003610cc157600197505b60085415610cea576000610cda896006600201546119a9565b9050610ce6818a612a56565b9850505b5050505050505092915050565b6000610d01611a29565b6001600160a01b038216610d305760405162461bcd60e51b8152600401610d2790612aaa565b60405180910390fd5b6000610d3b83610c0f565b905080841115610d6457828482604051633c8097d960e11b8152600401610d2793929190612aef565b610d6d846114c5565b915081600003610d8f5760405162461bcd60e51b8152600401610d2790612b10565b610d9b33848685611a53565b610da58484611ae5565b506109ac6001600a55565b610db8611c69565b6000610dc26117ce565b805463ffffffff191663ffffffff841690811782556040519081529091507f30131881e801ec5c72cbec6e47ad340b66e5165fa10332f449a92f188a8f27479060200160405180910390a15050565b610e19611c69565b610e236000611c96565b565b600080610e306117ce565b5463ffffffff1692915050565b60009182526005602090815260408084206001600160a01b0393909316845291905290205460ff1690565b6000610e72611a29565b6001600160a01b038216610e985760405162461bcd60e51b8152600401610d2790612aaa565b6000610ea383610c0f565b905080841115610ecc5782848260405163284ff66760e01b8152600401610d2793929190612aef565b610ed5846112ca565b915081600003610ef75760405162461bcd60e51b8152600401610d2790612b10565b610f0333848487611a53565b610da58284611ae5565b6060600480546109c1906129d7565b7f477fc23fb51bb5d5aa814872a393b0e4f35d0916c7503c0fd96584681070d410610f468161189e565b81600003610fa05760405162461bcd60e51b815260206004820152602160248201527f4865646572615661756c743a20416d6f756e742063616e2774206265207a65726044820152606f60f81b6064820152608401610d27565b7f00000000000000000000000000000000000000000000000000000000000000006001600160a01b0316836001600160a01b031614158015610feb57506001600160a01b0383163014155b6110555760405162461bcd60e51b815260206004820152603560248201527f4865646572615661756c743a2052657761726420616e64205374616b696e6720604482015274746f6b656e732063616e6e6f742062652073616d6560581b6064820152608401610d27565b6001600160a01b0383166110b55760405162461bcd60e51b815260206004820152602160248201527f4865646572615661756c743a20496e76616c69642072657761726420746f6b656044820152603760f91b6064820152608401610d27565b6110bd6108f2565b60000361110c5760405162461bcd60e51b815260206004820181905260248201527f4865646572615661756c743a204e6f20746f6b656e207374616b6564207965746044820152606401610d27565b60006111166117ce565b6001810154909150600a0361113e57604051637561e0ab60e01b815260040160405180910390fd5b600061115c670de0b6b3a76400006111546108f2565b869190611ce8565b6001600160a01b0386166000908152600384016020526040902060018101549192509060ff166111dc57600183810180548083018255600091825260209091200180546001600160a01b0319166001600160a01b038916908117909155828201805460ff19169092179091558282556111d790333088611d06565b611221565b6001600160a01b038616600090815260038401602052604081208054849290611206908490612b42565b9091555061122190506001600160a01b038716333088611d06565b856001600160a01b03167fac24935fd910bc682b5ccb1a07b718cadf8cf2f6d1404c4f3ddc3662dae40e298660405161125c91815260200190565b60405180910390a2505050505050565b6000806112776117ce565b9050611282836114d2565b6001600160a01b038416600090815260028084016020526040909120908101546001909101546112b29190612a56565b610ab59190612a56565b600033610a5f81858561183f565b60006109ac826001611757565b60006112e1611a29565b6001600160a01b0383166113075760405162461bcd60e51b8152600401610d2790612aaa565b60006113128361162f565b90508085111561133b57828582604051633fa733bb60e21b8152600401610d2793929190612aef565b6113458585611d60565b61134e85610a69565b9150816000036113705760405162461bcd60e51b8152600401610d2790612b10565b61137d3385858886611dcf565b50610ab56001600a55565b6000611392611a29565b6001600160a01b0383166113b85760405162461bcd60e51b8152600401610d2790612aaa565b60006113c383611669565b9050808511156113ec57828582604051632e52afbb60e21b8152600401610d2793929190612aef565b6113f68285611d60565b6113ff85610a44565b91508160000361144c5760405162461bcd60e51b81526020600482015260186024820152774865646572615661756c743a205a65726f2061737365747360401b6044820152606401610d27565b61137d3385858589611dcf565b606060006114656117ce565b600181018054604080516020808402820181019092528281529394508301828280156114ba57602002820191906000526020600020905b81546001600160a01b0316815260019091019060200180831161149c575b505050505091505090565b60006109ac82600061179e565b60006109ac82611e8f565b60008060006114ea6117ce565b6001810154600754919250906001600160a01b031660008083810361155d5760405162461bcd60e51b815260206004820152602360248201527f4865646572615661756c743a204e6f2072657761726420746f6b656e732065786044820152621a5cdd60ea1b6064820152608401610d27565b885b8481101561161f5785600101818154811061157c5761157c612a40565b6000918252602090912001546001600160a01b0316925061159d3384610c16565b6001600160a01b03808516600081815260038a01602090815260408083205433845260028d0183528184209484526004909401909152902055909250841615611603576115fe896115ed84611f70565b6001600160a01b038616919061207a565b611617565b6116176001600160a01b0384168a8461207a565b60010161155f565b5097989297509195505050505050565b60006109ac61163d836114d2565b6000611757565b60008281526005602052604090206001015461165f8161189e565b610ae1838361193c565b60006109ac826114d2565b6001600160a01b03918216600090815260016020908152604080832093909416825291909152205490565b7f74e458455daa935f28c556b43e0cc4ad001a8a090f5feee376681e97d4618f466116c98161189e565b6116e08260000151836020015184604001516120ab565b5050565b6116ec611c69565b6001600160a01b038116611716576000604051631e4fbdf760e01b8152600401610d279190612851565b61171f81611c96565b50565b60006001600160e01b03198216637965db0b60e01b14806109ac57506301ffc9a760e01b6001600160e01b03198316146109ac565b6000610ab56117646108f2565b61176f906001612b42565b61177b6000600a612c39565b6002546117889190612b42565b85919085612169565b610c0a83838360016121ba565b6000610ab56117ae82600a612c39565b6002546117bb9190612b42565b6117c36108f2565b611788906001612b42565b7fb5311d7a8ac81ee4993288bc4c98b414fbe1c746351a804bd1a32db330eae70090565b60006117fe8484611674565b90506000198114610ae1578181101561183057828183604051637dc7a0d960e11b8152600401610d2793929190612aef565b610ae1848484840360006121ba565b6001600160a01b038316611869576000604051634b637e8f60e11b8152600401610d279190612851565b6001600160a01b03821661189357600060405163ec442f0560e01b8152600401610d279190612851565b610c0a838383612281565b61171f8133612398565b60006118b48383610e3d565b6119345760008381526005602090815260408083206001600160a01b03861684529091529020805460ff191660011790556118ec3390565b6001600160a01b0316826001600160a01b0316847f2f8788117e7eff1d82e926ec794901d17c78024a50270940304540a733656f0d60405160405180910390a45060016109ac565b5060006109ac565b60006119488383610e3d565b156119345760008381526005602090815260408083206001600160a01b0386168085529252808320805460ff1916905551339286917ff6391f5c32d9c69d2a47ea670b442974b53935d1edc7fd64eb21e047a839171b9190a45060016109ac565b60006127106119b88385612a69565b1015611a125760405162461bcd60e51b8152602060048201526024808201527f46433a20546f6f20736d616c6c20616d6f756e7420746f20636f6e73696465726044820152632066656560e01b6064820152608401610d27565b612710611a1f8385612a69565b610ab59190612a96565b6002600a5403611a4c57604051633ee5aeb560e01b815260040160405180910390fd5b6002600a55565b611a7f7f0000000000000000000000000000000000000000000000000000000000000000853085611d06565b611a8983826123d1565b826001600160a01b0316846001600160a01b03167fdcbc1c05240f31ff3ad067ef1ee35ce4997762752e3a095284754544f4c709d78484604051611ad7929190918252602082015260400190565b60405180910390a350505050565b6000611aef6117ce565b33600090815260028201602052604090206005015490915060ff16611bb757600181015460005b81811015611b7e576000836001018281548110611b3557611b35612a40565b60009182526020808320909101546001600160a01b0316808352600387018252604080842054338552600289018452818520928552600490920190925291205550600101611b16565b5050336000908152600282016020526040902083815560018082018590554260038301556005909101805460ff19169091179055505050565b3360009081526002820160205260408120549003611c3b5733600090815260028201602052604081208054859290611bf0908490612b42565b909155505033600090815260028201602052604081206001018054859290611c19908490612b42565b9091555050336000908152600282016020526040902042600390910155505050565b611c466000836114dd565b505033600090815260028201602052604081208054859290611bf0908490612b42565b6009546001600160a01b03163314610e23573360405163118cdaa760e01b8152600401610d279190612851565b600980546001600160a01b038381166001600160a01b0319831681179093556040519116919082907f8be0079c531659141344cd1fd0a4f28419497f9722a3daafe3b4186f6b6457e090600090a35050565b6000826000190484118302158202611cff57600080fd5b5091020490565b610ae184856001600160a01b03166323b872dd868686604051602401611d2e93929190612766565b604051602081830303815290604052915060e01b6020820180516001600160e01b038381831617835250505050612407565b611d6b6000826114dd565b50506000611d776117ce565b336000908152600282016020526040812080549293508592909190611d9d908490612a56565b9091555050336000908152600280830160205260408220018054859290611dc5908490612b42565b9091555050505050565b826001600160a01b0316856001600160a01b031614611df357611df38386836117f2565b611dfd8382612461565b611e287f0000000000000000000000000000000000000000000000000000000000000000858461207a565b826001600160a01b0316846001600160a01b0316866001600160a01b03167ffbde797d201c681b91056529119e0b02407c7bb96a4a2c75c01fc9667232c8db8585604051611e80929190918252602082015260400190565b60405180910390a45050505050565b600080611e9a6117ce565b6001600160a01b03841660009081526002808301602052604082209081015460018201549394509092611ecd9190612a56565b83546003840154919250600091611ef291640100000000900463ffffffff1690612b42565b905080421080611f00575081155b15611f115750600095945050505050565b8354600090611f269063ffffffff1683612b42565b9050804210611f3757829550611f66565b6000611f438342612a56565b865490915063ffffffff16611f588286612a69565b611f629190612a96565b9650505b5050505050919050565b6007546008546000916001600160a01b0316908290611f909085906119a9565b905080826001600160a01b03166370a08231306040518263ffffffff1660e01b8152600401611fbf9190612851565b602060405180830381865afa158015611fdc573d6000803e3d6000fd5b505050506040513d601f19601f8201168201806040525081019061200091906129be565b101561204e5760405162461bcd60e51b815260206004820152601e60248201527f46433a20496e73756666696369656e7420746f6b656e2062616c616e636500006044820152606401610d27565b600654612068906001600160a01b0384811691168361207a565b6120728185612a56565b949350505050565b6040516001600160a01b03838116602483015260448201839052610c0a91859182169063a9059cbb90606401611d2e565b61271081106120ee5760405162461bcd60e51b815260206004820152600f60248201526e46433a20496e76616c69642066656560881b6044820152606401610d27565b600680546001600160a01b038581166001600160a01b0319928316811790935560078054918616919092168117909155600883905560408051928352602083019190915281018290527febd34b2df88ea5c9f67c04b13b08e5e63c2d17e269aab73b866fe47a8736a2649060600160405180910390a1505050565b600080612177868686612497565b90506121828361255b565b801561219e57506000848061219957612199612a80565b868809115b156121b1576121ae600182612b42565b90505b95945050505050565b6001600160a01b0384166121e457600060405163e602df0560e01b8152600401610d279190612851565b6001600160a01b03831661220e576000604051634a1406b160e11b8152600401610d279190612851565b6001600160a01b0380851660009081526001602090815260408083209387168352929052208290558015610ae157826001600160a01b0316846001600160a01b03167f8c5be1e5ebec7d5bd14f71427d1e84f3dd0314c0f7b2291e5b200ac8c7c3b92584604051611ad791815260200190565b6001600160a01b0383166122ac5780600260008282546122a19190612b42565b9091555061230b9050565b6001600160a01b038316600090815260208190526040902054818110156122ec5783818360405163391434e360e21b8152600401610d2793929190612aef565b6001600160a01b03841660009081526020819052604090209082900390555b6001600160a01b03821661232757600280548290039055612346565b6001600160a01b03821660009081526020819052604090208054820190555b816001600160a01b0316836001600160a01b03167fddf252ad1be2c89b69c2b068fc378daa952ba7f163c4a11628f55a4df523b3ef8360405161238b91815260200190565b60405180910390a3505050565b6123a28282610e3d565b6116e05760405163e2517d3f60e01b81526001600160a01b038216600482015260248101839052604401610d27565b6001600160a01b0382166123fb57600060405163ec442f0560e01b8152600401610d279190612851565b6116e060008383612281565b600061241c6001600160a01b03841683612588565b9050805160001415801561244157508080602001905181019061243f9190612c48565b155b15610c0a5782604051635274afe760e01b8152600401610d279190612851565b6001600160a01b03821661248b576000604051634b637e8f60e11b8152600401610d279190612851565b6116e082600083612281565b60008383028160001985870982811083820303915050806000036124ce578382816124c4576124c4612a80565b0492505050610ab5565b8084116124ee5760405163227bc15360e01b815260040160405180910390fd5b6000848688096000868103871696879004966002600389028118808a02820302808a02820302808a02820302808a02820302808a02820302808a02909103029181900381900460010186841190950394909402919094039290920491909117919091029150509392505050565b6000600282600381111561257157612571612c6a565b61257b9190612c80565b60ff166001149050919050565b6060610ab58383600084600080856001600160a01b031684866040516125ae9190612ca2565b60006040518083038185875af1925050503d80600081146125eb576040519150601f19603f3d011682016040523d82523d6000602084013e6125f0565b606091505b509150915061260086838361260a565b9695505050505050565b60608261261f5761261a8261265d565b610ab5565b815115801561263657506001600160a01b0384163b155b156126565783604051639996b31560e01b8152600401610d279190612851565b5080610ab5565b80511561266d5780518082602001fd5b604051630a12f52160e11b815260040160405180910390fd5b60006020828403121561269857600080fd5b81356001600160e01b031981168114610ab557600080fd5b60005b838110156126cb5781810151838201526020016126b3565b50506000910152565b60208152600082518060208401526126f38160408501602087016126b0565b601f01601f19169190910160400192915050565b60006020828403121561271957600080fd5b5035919050565b80356001600160a01b038116811461273757600080fd5b919050565b6000806040838503121561274f57600080fd5b61275883612720565b946020939093013593505050565b6001600160a01b039384168152919092166020820152604081019190915260600190565b60008060006060848603121561279f57600080fd5b6127a884612720565b92506127b660208501612720565b9150604084013590509250925092565b600080604083850312156127d957600080fd5b823591506127e960208401612720565b90509250929050565b60006020828403121561280457600080fd5b610ab582612720565b6020808252825182820181905260009190848201906040850190845b8181101561284557835183529284019291840191600101612829565b50909695505050505050565b6001600160a01b0391909116815260200190565b6000806040838503121561287857600080fd5b61288183612720565b91506127e960208401612720565b6000602082840312156128a157600080fd5b813563ffffffff81168114610ab557600080fd5b6000806000606084860312156128ca57600080fd5b833592506128da60208501612720565b91506128e860408501612720565b90509250925092565b6020808252825182820181905260009190848201906040850190845b818110156128455783516001600160a01b03168352928401929184019160010161290d565b634e487b7160e01b600052604160045260246000fd5b60006060828403121561295a57600080fd5b6040516060810181811067ffffffffffffffff8211171561298b57634e487b7160e01b600052604160045260246000fd5b60405261299783612720565b81526129a560208401612720565b6020820152604083013560408201528091505092915050565b6000602082840312156129d057600080fd5b5051919050565b600181811c908216806129eb57607f821691505b602082108103612a0b57634e487b7160e01b600052602260045260246000fd5b50919050565b634e487b7160e01b600052601160045260246000fd5b60ff81811683821601908111156109ac576109ac612a11565b634e487b7160e01b600052603260045260246000fd5b818103818111156109ac576109ac612a11565b80820281158282048414176109ac576109ac612a11565b634e487b7160e01b600052601260045260246000fd5b600082612aa557612aa5612a80565b500490565b60208082526025908201527f4865646572615661756c743a20496e76616c6964207265636569766572206164604082015264647265737360d81b606082015260800190565b6001600160a01b039390931683526020830191909152604082015260600190565b6020808252601890820152774865646572615661756c743a205a65726f2073686172657360401b604082015260600190565b808201808211156109ac576109ac612a11565b600181815b80851115612b90578160001904821115612b7657612b76612a11565b80851615612b8357918102915b93841c9390800290612b5a565b509250929050565b600082612ba7575060016109ac565b81612bb4575060006109ac565b8160018114612bca5760028114612bd457612bf0565b60019150506109ac565b60ff841115612be557612be5612a11565b50506001821b6109ac565b5060208310610133831016604e8410600b8410161715612c13575081810a6109ac565b612c1d8383612b55565b8060001904821115612c3157612c31612a11565b029392505050565b6000610ab560ff841683612b98565b600060208284031215612c5a57600080fd5b81518015158114610ab557600080fd5b634e487b7160e01b600052602160045260246000fd5b600060ff831680612c9357612c93612a80565b8060ff84160691505092915050565b60008251612cb48184602087016126b0565b919091019291505056fea2646970667358221220c369580ec5ba95082fe2939ede2d0e5e31b3985b55d271e7ed36844e19dd05bb64736f6c634300081800336101606040523480156200001257600080fd5b506040516200256b3803806200256b83398101604081905262000035916200032d565b338280604051806040016040528060018152602001603160f81b8152508686816003908162000065919062000443565b50600462000074828262000443565b50620000869150839050600562000192565b610120526200009781600662000192565b61014052815160208084019190912060e052815190820120610100524660a0526200012560e05161010051604080517f8b73c3c69bb8fe3d512ecc4cf759cc79239f7b179b0ffacaa9a75d522b39400f60208201529081019290925260608201524660808201523060a082015260009060c00160405160208183030381529060405280519060200120905090565b60805250503060c052506001600160a01b0381166200015f57604051631e4fbdf760e01b8152600060048201526024015b60405180910390fd5b6200016a81620001cb565b50600b805460ff909216600160a01b0260ff60a01b1990921691909117905550620005699050565b6000602083511015620001b257620001aa836200021d565b9050620001c5565b81620001bf848262000443565b5060ff90505b92915050565b600b80546001600160a01b038381166001600160a01b0319831681179093556040519116919082907f8be0079c531659141344cd1fd0a4f28419497f9722a3daafe3b4186f6b6457e090600090a35050565b600080829050601f815111156200024b578260405163305a27a960e01b81526004016200015691906200050f565b8051620002588262000544565b179392505050565b634e487b7160e01b600052604160045260246000fd5b60005b838110156200029357818101518382015260200162000279565b50506000910152565b600082601f830112620002ae57600080fd5b81516001600160401b0380821115620002cb57620002cb62000260565b604051601f8301601f19908116603f01168101908282118183101715620002f657620002f662000260565b816040528381528660208588010111156200031057600080fd5b6200032384602083016020890162000276565b9695505050505050565b6000806000606084860312156200034357600080fd5b83516001600160401b03808211156200035b57600080fd5b62000369878388016200029c565b945060208601519150808211156200038057600080fd5b506200038f868287016200029c565b925050604084015160ff81168114620003a757600080fd5b809150509250925092565b600181811c90821680620003c757607f821691505b602082108103620003e857634e487b7160e01b600052602260045260246000fd5b50919050565b601f8211156200043e576000816000526020600020601f850160051c81016020861015620004195750805b601f850160051c820191505b818110156200043a5782815560010162000425565b5050505b505050565b81516001600160401b038111156200045f576200045f62000260565b6200047781620004708454620003b2565b84620003ee565b602080601f831160018114620004af5760008415620004965750858301515b600019600386901b1c1916600185901b1785556200043a565b600085815260208120601f198616915b82811015620004e057888601518255948401946001909101908401620004bf565b5085821015620004ff5787850151600019600388901b60f8161c191681555b5050505050600190811b01905550565b60208152600082518060208401526200053081604085016020870162000276565b601f01601f19169190910160400192915050565b80516020808301519190811015620003e85760001960209190910360031b1b16919050565b60805160a05160c05160e051610100516101205161014051611fa7620005c46000396000610e4e01526000610e2101526000610b6c01526000610b4401526000610a9f01526000610ac901526000610af30152611fa76000f3fe608060405234801561001057600080fd5b50600436106101795760003560e01c8063715018a6116100d95780639ab24eb0116100875780639ab24eb014610359578063a9059cbb1461036c578063c3cda5201461037f578063d505accf14610392578063dd62ed3e146103a5578063f1127ed8146103b8578063f2fde38b146103f757600080fd5b8063715018a6146102e15780637ecebe00146102e957806384b0196e146102fc5780638da5cb5b146103175780638e539e8c1461032857806391ddadf41461033b57806395d89b411461035157600080fd5b80633a46b1a8116101365780633a46b1a81461020b57806340c10f191461021e5780634bf5d7e914610233578063587cde1e1461025d5780635c19a95c1461027d5780636fcfff451461029057806370a08231146102b857600080fd5b806306fdde031461017e578063095ea7b31461019c57806318160ddd146101bf57806323b872dd146101d1578063313ce567146101e45780633644e51514610203575b600080fd5b61018661040a565b6040516101939190611b73565b60405180910390f35b6101af6101aa366004611ba2565b61049c565b6040519015158152602001610193565b6002545b604051908152602001610193565b6101af6101df366004611bcc565b6104b6565b600b54600160a01b900460ff1660405160ff9091168152602001610193565b6101c36104da565b6101c3610219366004611ba2565b6104e9565b61023161022c366004611ba2565b610565565b005b60408051808201909152600e81526d06d6f64653d74696d657374616d760941b6020820152610186565b61027061026b366004611c08565b610621565b6040516101939190611c23565b61023161028b366004611c08565b61063f565b6102a361029e366004611c08565b61064a565b60405163ffffffff9091168152602001610193565b6101c36102c6366004611c08565b6001600160a01b031660009081526020819052604090205490565b610231610655565b6101c36102f7366004611c08565b610669565b610304610674565b6040516101939796959493929190611c37565b600b546001600160a01b0316610270565b6101c3610336366004611cd0565b6106ba565b60405165ffffffffffff42168152602001610193565b61018661071a565b6101c3610367366004611c08565b610729565b6101af61037a366004611ba2565b610759565b61023161038d366004611cfa565b610767565b6102316103a0366004611d52565b610824565b6101c36103b3366004611dbc565b610940565b6103cb6103c6366004611def565b61096b565b60408051825165ffffffffffff1681526020928301516001600160d01b03169281019290925201610193565b610231610405366004611c08565b610990565b60606003805461041990611e2f565b80601f016020809104026020016040519081016040528092919081815260200182805461044590611e2f565b80156104925780601f1061046757610100808354040283529160200191610492565b820191906000526020600020905b81548152906001019060200180831161047557829003601f168201915b5050505050905090565b6000336104aa8185856109ce565b60019150505b92915050565b6000336104c48582856109e0565b6104cf858585610a33565b506001949350505050565b60006104e4610a92565b905090565b60004265ffffffffffff8116831061052a57604051637669fc0f60e11b81526004810184905265ffffffffffff821660248201526044015b60405180910390fd5b61055461053684610bbd565b6001600160a01b038616600090815260096020526040902090610bf4565b6001600160d01b0316949350505050565b61056d610caa565b6001600160a01b0382166105c35760405162461bcd60e51b815260206004820152601e60248201527f4275696c64696e6745524332303a20496e76616c6964206164647265737300006044820152606401610521565b600081116106135760405162461bcd60e51b815260206004820152601d60248201527f4275696c64696e6745524332303a20496e76616c696420616d6f756e740000006044820152606401610521565b61061d8282610cd7565b5050565b6001600160a01b039081166000908152600860205260409020541690565b3361061d8183610d0d565b60006104b082610d88565b61065d610caa565b6106676000610daa565b565b60006104b082610dfc565b600060608060008060006060610688610e1a565b610690610e47565b60408051600080825260208201909252600f60f81b9b939a50919850469750309650945092509050565b60004265ffffffffffff811683106106f657604051637669fc0f60e11b81526004810184905265ffffffffffff82166024820152604401610521565b61070a61070284610bbd565b600a90610bf4565b6001600160d01b03169392505050565b60606004805461041990611e2f565b6001600160a01b038116600090815260096020526040812061074a90610e74565b6001600160d01b031692915050565b6000336104aa818585610a33565b8342111561078b57604051632341d78760e11b815260048101859052602401610521565b604080517fe48329057bfd03d55e49b547132e39cffd9c1820ad7b9d4c5307691425d15adf60208201526001600160a01b038816918101919091526060810186905260808101859052600090610805906107fd9060a00160405160208183030381529060405280519060200120610ead565b858585610eda565b90506108118187610f08565b61081b8188610d0d565b50505050505050565b834211156108485760405163313c898160e11b815260048101859052602401610521565b60007f6e71edae12b1b97f4d1f60370fef10105fa2faae0126114a169c64845d6126c98888886108778c610f47565b6040805160208101969096526001600160a01b0394851690860152929091166060840152608083015260a082015260c0810186905260e00160405160208183030381529060405280519060200120905060006108d282610ead565b905060006108e282878787610eda565b9050896001600160a01b0316816001600160a01b031614610929576040516325c0072360e11b81526001600160a01b0380831660048301528b166024820152604401610521565b6109348a8a8a6109ce565b50505050505050505050565b6001600160a01b03918216600090815260016020908152604080832093909416825291909152205490565b60408051808201909152600080825260208201526109898383610f6a565b9392505050565b610998610caa565b6001600160a01b0381166109c2576000604051631e4fbdf760e01b81526004016105219190611c23565b6109cb81610daa565b50565b6109db8383836001610fa0565b505050565b60006109ec8484610940565b90506000198114610a2d5781811015610a1e57828183604051637dc7a0d960e11b815260040161052193929190611e69565b610a2d84848484036000610fa0565b50505050565b6001600160a01b038316610a5d576000604051634b637e8f60e11b81526004016105219190611c23565b6001600160a01b038216610a8757600060405163ec442f0560e01b81526004016105219190611c23565b6109db838383611075565b6000306001600160a01b037f000000000000000000000000000000000000000000000000000000000000000016148015610aeb57507f000000000000000000000000000000000000000000000000000000000000000046145b15610b1557507f000000000000000000000000000000000000000000000000000000000000000090565b6104e4604080517f8b73c3c69bb8fe3d512ecc4cf759cc79239f7b179b0ffacaa9a75d522b39400f60208201527f0000000000000000000000000000000000000000000000000000000000000000918101919091527f000000000000000000000000000000000000000000000000000000000000000060608201524660808201523060a082015260009060c00160405160208183030381529060405280519060200120905090565b600065ffffffffffff821115610bf0576040516306dfcc6560e41b81526030600482015260248101839052604401610521565b5090565b815460009081816005811115610c53576000610c0f84611080565b610c199085611ea0565b60008881526020902090915081015465ffffffffffff9081169087161015610c4357809150610c51565b610c4e816001611eb3565b92505b505b6000610c6187878585611168565b90508015610c9c57610c8687610c78600184611ea0565b600091825260209091200190565b54600160301b90046001600160d01b0316610c9f565b60005b979650505050505050565b600b546001600160a01b03163314610667573360405163118cdaa760e01b81526004016105219190611c23565b6001600160a01b038216610d0157600060405163ec442f0560e01b81526004016105219190611c23565b61061d60008383611075565b6000610d1883610621565b6001600160a01b0384811660008181526008602052604080822080546001600160a01b031916888616908117909155905194955093928516927f3134e8a2e6d97e929a7e54011ea5485d7d196dd5f0ba4d4ef95803e8e3fc257f9190a46109db8183610d83866111ca565b6111e8565b6001600160a01b0381166000908152600960205260408120546104b090611354565b600b80546001600160a01b038381166001600160a01b0319831681179093556040519116919082907f8be0079c531659141344cd1fd0a4f28419497f9722a3daafe3b4186f6b6457e090600090a35050565b6001600160a01b0381166000908152600760205260408120546104b0565b60606104e47f00000000000000000000000000000000000000000000000000000000000000006005611385565b60606104e47f00000000000000000000000000000000000000000000000000000000000000006006611385565b80546000908015610ea457610e8e83610c78600184611ea0565b54600160301b90046001600160d01b0316610989565b60009392505050565b60006104b0610eba610a92565b8360405161190160f01b8152600281019290925260228201526042902090565b600080600080610eec88888888611430565b925092509250610efc82826114f5565b50909695505050505050565b6000610f1383610f47565b90508082146109db576040516301d4b62360e61b81526001600160a01b038416600482015260248101829052604401610521565b6001600160a01b0316600090815260076020526040902080546001810190915590565b60408051808201909152600080825260208201526001600160a01b038316600090815260096020526040902061098990836115ae565b6001600160a01b038416610fca57600060405163e602df0560e01b81526004016105219190611c23565b6001600160a01b038316610ff4576000604051634a1406b160e11b81526004016105219190611c23565b6001600160a01b0380851660009081526001602090815260408083209387168352929052208290558015610a2d57826001600160a01b0316846001600160a01b03167f8c5be1e5ebec7d5bd14f71427d1e84f3dd0314c0f7b2291e5b200ac8c7c3b9258460405161106791815260200190565b60405180910390a350505050565b6109db83838361161e565b60008160000361109257506000919050565b6000600161109f84611685565b901c6001901b905060018184816110b8576110b8611ec6565b048201901c905060018184816110d0576110d0611ec6565b048201901c905060018184816110e8576110e8611ec6565b048201901c9050600181848161110057611100611ec6565b048201901c9050600181848161111857611118611ec6565b048201901c9050600181848161113057611130611ec6565b048201901c9050600181848161114857611148611ec6565b048201901c90506109898182858161116257611162611ec6565b04611719565b60005b818310156111c257600061117f848461172f565b60008781526020902090915065ffffffffffff86169082015465ffffffffffff1611156111ae578092506111bc565b6111b9816001611eb3565b93505b5061116b565b509392505050565b6001600160a01b0381166000908152602081905260408120546104b0565b816001600160a01b0316836001600160a01b03161415801561120a5750600081115b156109db576001600160a01b038316156112b2576001600160a01b0383166000908152600960205260408120819061124d9061174a61124886611756565b61178a565b6001600160d01b031691506001600160d01b03169150846001600160a01b03167fdec2bacdd2f05b59de34da9b523dff8be42e5e38e818c82fdb0bae774387a72483836040516112a7929190918252602082015260400190565b60405180910390a250505b6001600160a01b038216156109db576001600160a01b038216600090815260096020526040812081906112eb906117bc61124886611756565b6001600160d01b031691506001600160d01b03169150836001600160a01b03167fdec2bacdd2f05b59de34da9b523dff8be42e5e38e818c82fdb0bae774387a7248383604051611345929190918252602082015260400190565b60405180910390a25050505050565b600063ffffffff821115610bf0576040516306dfcc6560e41b81526020600482015260248101839052604401610521565b606060ff831461139f57611398836117c8565b90506104b0565b8180546113ab90611e2f565b80601f01602080910402602001604051908101604052809291908181526020018280546113d790611e2f565b80156114245780601f106113f957610100808354040283529160200191611424565b820191906000526020600020905b81548152906001019060200180831161140757829003601f168201915b505050505090506104b0565b600080806fa2a8918ca85bafe22016d0b997e4df60600160ff1b0384111561146157506000915060039050826114eb565b604080516000808252602082018084528a905260ff891692820192909252606081018790526080810186905260019060a0016020604051602081039080840390855afa1580156114b5573d6000803e3d6000fd5b5050604051601f1901519150506001600160a01b0381166114e1575060009250600191508290506114eb565b9250600091508190505b9450945094915050565b600082600381111561150957611509611edc565b03611512575050565b600182600381111561152657611526611edc565b036115445760405163f645eedf60e01b815260040160405180910390fd5b600282600381111561155857611558611edc565b036115795760405163fce698f760e01b815260048101829052602401610521565b600382600381111561158d5761158d611edc565b0361061d576040516335e2f38360e21b815260048101829052602401610521565b6040805180820190915260008082526020820152826000018263ffffffff16815481106115dd576115dd611ef2565b60009182526020918290206040805180820190915291015465ffffffffffff81168252600160301b90046001600160d01b0316918101919091529392505050565b611629838383611807565b6001600160a01b03831661167a57600061164260025490565b90506001600160d01b038082111561167757604051630e58ae9360e11b81526004810183905260248101829052604401610521565b50505b6109db83838361191e565b600080608083901c1561169a57608092831c92015b604083901c156116ac57604092831c92015b602083901c156116be57602092831c92015b601083901c156116d057601092831c92015b600883901c156116e257600892831c92015b600483901c156116f457600492831c92015b600283901c1561170657600292831c92015b600183901c156104b05760010192915050565b60008183106117285781610989565b5090919050565b600061173e6002848418611f08565b61098990848416611eb3565b60006109898284611f2a565b60006001600160d01b03821115610bf0576040516306dfcc6560e41b815260d0600482015260248101839052604401610521565b6000806117af426117a761179d88610e74565b868863ffffffff16565b87919061197d565b915091505b935093915050565b60006109898284611f51565b606060006117d58361198b565b604080516020808252818301909252919250600091906020820181803683375050509182525060208101929092525090565b6001600160a01b0383166118325780600260008282546118279190611eb3565b909155506118919050565b6001600160a01b038316600090815260208190526040902054818110156118725783818360405163391434e360e21b815260040161052193929190611e69565b6001600160a01b03841660009081526020819052604090209082900390555b6001600160a01b0382166118ad576002805482900390556118cc565b6001600160a01b03821660009081526020819052604090208054820190555b816001600160a01b0316836001600160a01b03167fddf252ad1be2c89b69c2b068fc378daa952ba7f163c4a11628f55a4df523b3ef8360405161191191815260200190565b60405180910390a3505050565b6001600160a01b0383166119405761193d600a6117bc61124884611756565b50505b6001600160a01b0382166119625761195f600a61174a61124884611756565b50505b6109db61196e84610621565b61197784610621565b836111e8565b6000806117af8585856119b3565b600060ff8216601f8111156104b057604051632cd44ac360e21b815260040160405180910390fd5b825460009081908015611ad25760006119d187610c78600185611ea0565b60408051808201909152905465ffffffffffff808216808452600160301b9092046001600160d01b031660208401529192509087161015611a2557604051632520601d60e01b815260040160405180910390fd5b805165ffffffffffff808816911603611a715784611a4888610c78600186611ea0565b80546001600160d01b0392909216600160301b0265ffffffffffff909216919091179055611ac2565b6040805180820190915265ffffffffffff80881682526001600160d01b0380881660208085019182528b54600181018d5560008d81529190912094519151909216600160301b029216919091179101555b6020015192508391506117b49050565b50506040805180820190915265ffffffffffff80851682526001600160d01b0380851660208085019182528854600181018a5560008a815291822095519251909316600160301b0291909316179201919091559050816117b4565b6000815180845260005b81811015611b5357602081850181015186830182015201611b37565b506000602082860101526020601f19601f83011685010191505092915050565b6020815260006109896020830184611b2d565b80356001600160a01b0381168114611b9d57600080fd5b919050565b60008060408385031215611bb557600080fd5b611bbe83611b86565b946020939093013593505050565b600080600060608486031215611be157600080fd5b611bea84611b86565b9250611bf860208501611b86565b9150604084013590509250925092565b600060208284031215611c1a57600080fd5b61098982611b86565b6001600160a01b0391909116815260200190565b60ff60f81b881681526000602060e06020840152611c5860e084018a611b2d565b8381036040850152611c6a818a611b2d565b606085018990526001600160a01b038816608086015260a0850187905284810360c08601528551808252602080880193509091019060005b81811015611cbe57835183529284019291840191600101611ca2565b50909c9b505050505050505050505050565b600060208284031215611ce257600080fd5b5035919050565b803560ff81168114611b9d57600080fd5b60008060008060008060c08789031215611d1357600080fd5b611d1c87611b86565b95506020870135945060408701359350611d3860608801611ce9565b92506080870135915060a087013590509295509295509295565b600080600080600080600060e0888a031215611d6d57600080fd5b611d7688611b86565b9650611d8460208901611b86565b95506040880135945060608801359350611da060808901611ce9565b925060a0880135915060c0880135905092959891949750929550565b60008060408385031215611dcf57600080fd5b611dd883611b86565b9150611de660208401611b86565b90509250929050565b60008060408385031215611e0257600080fd5b611e0b83611b86565b9150602083013563ffffffff81168114611e2457600080fd5b809150509250929050565b600181811c90821680611e4357607f821691505b602082108103611e6357634e487b7160e01b600052602260045260246000fd5b50919050565b6001600160a01b039390931683526020830191909152604082015260600190565b634e487b7160e01b600052601160045260246000fd5b818103818111156104b0576104b0611e8a565b808201808211156104b0576104b0611e8a565b634e487b7160e01b600052601260045260246000fd5b634e487b7160e01b600052602160045260246000fd5b634e487b7160e01b600052603260045260246000fd5b600082611f2557634e487b7160e01b600052601260045260246000fd5b500490565b6001600160d01b03828116828216039080821115611f4a57611f4a611e8a565b5092915050565b6001600160d01b03818116838216019080821115611f4a57611f4a611e8a56fea264697066735822122052142c2da94f2201e548ea57c516eb1615f17a9473d60896a5920e19771715bf64736f6c63430008180033a2646970667358221220a0144f4573de982b1d61b123bab78327cd28f1c0c68ba442a7a2097505529dbc64736f6c63430008180033",
  "linkReferences": {},
  "deployedLinkReferences": {}
}