{
  "_format": "hh-sol-artifact-1",
  "contractName": "BuildingFactoryMock",
  "sourceName": "contracts/buildings/mock/BuildingFactoryMock.sol",
  "abi": [
    {
      "inputs": [],
      "name": "InvalidInitialization",
      "type": "error"
    },
    {
      "inputs": [],
      "name": "NotInitializing",
      "type": "error"
    },
    {
      "inputs": [
        {
          "internalType": "address",
          "name": "owner",
          "type": "address"
        }
      ],
      "name": "OwnableInvalidOwner",
      "type": "error"
    },
    {
      "inputs": [
        {
          "internalType": "address",
          "name": "account",
          "type": "address"
        }
      ],
      "name": "OwnableUnauthorizedAccount",
      "type": "error"
    },
    {
      "anonymous": false,
      "inputs": [
        {
          "indexed": false,
          "internalType": "uint64",
          "name": "version",
          "type": "uint64"
        }
      ],
      "name": "Initialized",
      "type": "event"
    },
    {
      "anonymous": false,
      "inputs": [
        {
          "indexed": false,
          "internalType": "address",
          "name": "addr",
          "type": "address"
        }
      ],
      "name": "NewBuilding",
      "type": "event"
    },
    {
      "anonymous": false,
      "inputs": [
        {
          "indexed": true,
          "internalType": "address",
          "name": "previousOwner",
          "type": "address"
        },
        {
          "indexed": true,
          "internalType": "address",
          "name": "newOwner",
          "type": "address"
        }
      ],
      "name": "OwnershipTransferred",
      "type": "event"
    },
    {
      "inputs": [
        {
          "internalType": "bytes32",
          "name": "",
          "type": "bytes32"
        }
      ],
      "name": "buildingSalts",
      "outputs": [
        {
          "internalType": "address",
          "name": "",
          "type": "address"
        }
      ],
      "stateMutability": "view",
      "type": "function"
    },
    {
      "inputs": [
        {
          "internalType": "uint256",
          "name": "",
          "type": "uint256"
        }
      ],
      "name": "buildingsList",
      "outputs": [
        {
          "internalType": "address",
          "name": "addr",
          "type": "address"
        },
        {
          "internalType": "uint256",
          "name": "nftId",
          "type": "uint256"
        },
        {
          "internalType": "string",
          "name": "tokenURI",
          "type": "string"
        },
        {
          "internalType": "bytes32",
          "name": "salt",
          "type": "bytes32"
        }
      ],
      "stateMutability": "view",
      "type": "function"
    },
    {
      "inputs": [
        {
          "internalType": "address",
          "name": "_nft",
          "type": "address"
        },
        {
          "internalType": "address",
          "name": "_uniswapRouter",
          "type": "address"
        },
        {
          "internalType": "address",
          "name": "_uniswapFactory",
          "type": "address"
        }
      ],
      "name": "initialize",
      "outputs": [],
      "stateMutability": "nonpayable",
      "type": "function"
    },
    {
      "inputs": [
        {
          "internalType": "bytes32",
          "name": "_salt",
          "type": "bytes32"
        },
        {
          "internalType": "string",
          "name": "tokenURI",
          "type": "string"
        }
      ],
      "name": "newBuilding",
      "outputs": [],
      "stateMutability": "nonpayable",
      "type": "function"
    },
    {
      "inputs": [],
      "name": "owner",
      "outputs": [
        {
          "internalType": "address",
          "name": "",
          "type": "address"
        }
      ],
      "stateMutability": "view",
      "type": "function"
    },
    {
      "inputs": [],
      "name": "renounceOwnership",
      "outputs": [],
      "stateMutability": "nonpayable",
      "type": "function"
    },
    {
      "inputs": [
        {
          "internalType": "address",
          "name": "newOwner",
          "type": "address"
        }
      ],
      "name": "transferOwnership",
      "outputs": [],
      "stateMutability": "nonpayable",
      "type": "function"
    },
    {
      "inputs": [],
      "name": "version",
      "outputs": [
        {
          "internalType": "string",
          "name": "",
          "type": "string"
        }
      ],
      "stateMutability": "pure",
      "type": "function"
    }
  ],
  "bytecode": "0x608060405234801561001057600080fd5b5061310c806100206000396000f3fe608060405234801561001057600080fd5b50600436106100785760003560e01c80631bc5c7de1461007d57806351348236146100bc57806354fd4d50146100df578063550de9c914610104578063715018a6146101195780638da5cb5b14610121578063c0c53b8b14610129578063f2fde38b1461013c575b600080fd5b6100a661008b3660046108ff565b6003602052600090815260409020546001600160a01b031681565b6040516100b39190610918565b60405180910390f35b6100cf6100ca3660046108ff565b61014f565b6040516100b39493929190610972565b60408051808201825260038152620322e360ec1b602082015290516100b391906109aa565b6101176101123660046109da565b61021e565b005b610117610234565b6100a6610248565b610117610137366004610ab1565b610276565b61011761014a366004610af4565b610377565b6004818154811061015f57600080fd5b60009182526020909120600490910201805460018201546002830180546001600160a01b03909316945090929161019590610b0f565b80601f01602080910402602001604051908101604052809291908181526020018280546101c190610b0f565b801561020e5780601f106101e35761010080835404028352916020019161020e565b820191906000526020600020905b8154815290600101906020018083116101f157829003601f168201915b5050505050908060030154905084565b6102266103be565b61023082826103f0565b5050565b61023c6103be565b61024660006106d8565b565b7f9016d09d72d40fdae2fd8ceac6b6234c7706214fd39c1cd1e609a0528c199300546001600160a01b031690565b6000610280610749565b805490915060ff600160401b820416159067ffffffffffffffff166000811580156102a85750825b905060008267ffffffffffffffff1660011480156102c55750303b155b9050811580156102d3575080155b156102f15760405163f92ee8a960e01b815260040160405180910390fd5b845467ffffffffffffffff19166001178555831561031b57845460ff60401b1916600160401b1785555b61032688888861076d565b831561036d57845460ff60401b19168555604051600181527fc7f505b2f371ae2175ee4913f4499e1f2633a7b5936321eed1cdaeb6115181d2906020015b60405180910390a15b5050505050505050565b61037f6103be565b6001600160a01b0381166103b2576000604051631e4fbdf760e01b81526004016103a99190610918565b60405180910390fd5b6103bb816106d8565b50565b336103c7610248565b6001600160a01b031614610246573360405163118cdaa760e01b81526004016103a99190610918565b6103f86103be565b6000828152600360205260409020546001600160a01b03161561046d5760405162461bcd60e51b815260206004820152602760248201527f4275696c64696e67466163746f72793a204275696c64696e6720616c726561646044820152667945786973747360c81b60648201526084016103a9565b60008260405161047c906108f2565b8190604051809103906000f590508015801561049c573d6000803e3d6000fd5b5060015460025460005460405163374b1f2f60e21b8152600481018890526001600160a01b03938416602482015291831660448301528216606482015291925082169063dd2c7cbc90608401600060405180830381600087803b15801561050257600080fd5b505af1158015610516573d6000803e3d6000fd5b50506000805460405163d0def52160e01b81529193506001600160a01b0316915063d0def5219061054d9085908790600401610b49565b6020604051808303816000875af115801561056c573d6000803e3d6000fd5b505050506040513d601f19601f820116820180604052508101906105909190610b75565b604080516080810182526001600160a01b0380861682526020820184815292820187815260608301899052600480546001810182556000829052845191027f8a35acfbc15ff81a39ae7d344fd709f28e8600b4aa8c65c6b64bfe7fe36bd19b81018054929094166001600160a01b031990921691909117835593517f8a35acfbc15ff81a39ae7d344fd709f28e8600b4aa8c65c6b64bfe7fe36bd19c85015551939450909290917f8a35acfbc15ff81a39ae7d344fd709f28e8600b4aa8c65c6b64bfe7fe36bd19d01906106649082610bdf565b5060609190910151600391820155600085815260209190915260409081902080546001600160a01b0319166001600160a01b038516179055517f02eb67024749e9ed4b0bebae49012408b7466ee9ebbf5a0310811dc2c059d9cd906106ca908490610918565b60405180910390a150505050565b7f9016d09d72d40fdae2fd8ceac6b6234c7706214fd39c1cd1e609a0528c19930080546001600160a01b031981166001600160a01b03848116918217845560405192169182907f8be0079c531659141344cd1fd0a4f28419497f9722a3daafe3b4186f6b6457e090600090a3505050565b7ff0c57e16840df040f15088dc2f81fe391c3923bec73e23a9662efc9c229c6a0090565b6000610777610749565b805490915060ff600160401b820416159067ffffffffffffffff1660008115801561079f5750825b905060008267ffffffffffffffff1660011480156107bc5750303b155b9050811580156107ca575080155b156107e85760405163f92ee8a960e01b815260040160405180910390fd5b845467ffffffffffffffff19166001178555831561081257845460ff60401b1916600160401b1785555b61081b3361089a565b600080546001600160a01b03808b166001600160a01b031992831617909255600180548a84169083161790556002805492891692909116919091179055831561036d57845460ff60401b19168555604051600181527fc7f505b2f371ae2175ee4913f4499e1f2633a7b5936321eed1cdaeb6115181d290602001610364565b6108a26108ab565b6103bb816108d0565b6108b36108d8565b61024657604051631afcd79f60e31b815260040160405180910390fd5b61037f6108ab565b60006108e2610749565b54600160401b900460ff16919050565b61243780610ca083390190565b60006020828403121561091157600080fd5b5035919050565b6001600160a01b0391909116815260200190565b6000815180845260005b8181101561095257602081850181015186830182015201610936565b506000602082860101526020601f19601f83011685010191505092915050565b60018060a01b0385168152836020820152608060408201526000610999608083018561092c565b905082606083015295945050505050565b6020815260006109bd602083018461092c565b9392505050565b634e487b7160e01b600052604160045260246000fd5b600080604083850312156109ed57600080fd5b82359150602083013567ffffffffffffffff80821115610a0c57600080fd5b818501915085601f830112610a2057600080fd5b813581811115610a3257610a326109c4565b604051601f8201601f19908116603f01168101908382118183101715610a5a57610a5a6109c4565b81604052828152886020848701011115610a7357600080fd5b8260208601602083013760006020848301015280955050505050509250929050565b80356001600160a01b0381168114610aac57600080fd5b919050565b600080600060608486031215610ac657600080fd5b610acf84610a95565b9250610add60208501610a95565b9150610aeb60408501610a95565b90509250925092565b600060208284031215610b0657600080fd5b6109bd82610a95565b600181811c90821680610b2357607f821691505b602082108103610b4357634e487b7160e01b600052602260045260246000fd5b50919050565b6001600160a01b0383168152604060208201819052600090610b6d9083018461092c565b949350505050565b600060208284031215610b8757600080fd5b5051919050565b601f821115610bda576000816000526020600020601f850160051c81016020861015610bb75750805b601f850160051c820191505b81811015610bd657828155600101610bc3565b5050505b505050565b815167ffffffffffffffff811115610bf957610bf96109c4565b610c0d81610c078454610b0f565b84610b8e565b602080601f831160018114610c425760008415610c2a5750858301515b600019600386901b1c1916600185901b178555610bd6565b600085815260208120601f198616915b82811015610c7157888601518255948401946001909101908401610c52565b5085821015610c8f5787850151600019600388901b60f8161c191681555b5050505050600190811b0190555056fe608060405234801561001057600080fd5b50612417806100206000396000f3fe6080604052600436106200009d5760003560e01c8063735de9f71162000060578063735de9f714620001a75780638bdb2afa14620001c95780638da5cb5b14620001eb578063dd2c7cbc1462000203578063f2fde38b146200022857600080fd5b80630371066814620000a2578063150b7a0214620000d1578063376d3d5d146200011b578063715018a6146200015c57806371cb49c01462000176575b600080fd5b620000b9620000b336600462000b41565b6200024d565b604051620000c8919062000c37565b60405180910390f35b348015620000de57600080fd5b5062000101620000f036600462000c6c565b630a85bd0160e11b95945050505050565b6040516001600160e01b03199091168152602001620000c8565b620001326200012c36600462000d14565b6200026e565b604080519485526020850193909352918301526001600160a01b03166060820152608001620000c8565b3480156200016957600080fd5b506200017462000385565b005b3480156200018357600080fd5b5060025462000198906001600160a01b031681565b604051620000c8919062000d61565b348015620001b457600080fd5b5060005462000198906001600160a01b031681565b348015620001d657600080fd5b5060015462000198906001600160a01b031681565b348015620001f857600080fd5b50620001986200039d565b3480156200021057600080fd5b50620001746200022236600462000d75565b620003cb565b3480156200023557600080fd5b50620001746200024736600462000dcf565b62000508565b60606200025962000556565b6200026583836200058d565b90505b92915050565b60008080806001600160a01b0388166323b872dd33308a6040518463ffffffff1660e01b8152600401620002a59392919062000df6565b6020604051808303816000875af1158015620002c5573d6000803e3d6000fd5b505050506040513d601f19601f82011682018060405250810190620002eb919062000e1a565b506040516323b872dd60e01b81526001600160a01b038716906323b872dd906200031e90339030908a9060040162000df6565b6020604051808303816000875af11580156200033e573d6000803e3d6000fd5b505050506040513d601f19601f8201168201806040525081019062000364919062000e1a565b50620003738887898862000645565b929b919a509850909650945050505050565b6200038f62000556565b6200039b600062000925565b565b7f9016d09d72d40fdae2fd8ceac6b6234c7706214fd39c1cd1e609a0528c199300546001600160a01b031690565b7ff0c57e16840df040f15088dc2f81fe391c3923bec73e23a9662efc9c229c6a008054600160401b810460ff16159067ffffffffffffffff16600081158015620004125750825b905060008267ffffffffffffffff166001148015620004305750303b155b9050811580156200043f575080155b156200045e5760405163f92ee8a960e01b815260040160405180910390fd5b845467ffffffffffffffff1916600117855583156200048957845460ff60401b1916600160401b1785555b620004943362000996565b6200049e620009ab565b620004aa8888620009c0565b620004b68987620009f8565b8315620004fd57845460ff60401b19168555604051600181527fc7f505b2f371ae2175ee4913f4499e1f2633a7b5936321eed1cdaeb6115181d29060200160405180910390a15b505050505050505050565b6200051262000556565b6001600160a01b03811662000548576000604051631e4fbdf760e01b81526004016200053f919062000d61565b60405180910390fd5b620005538162000925565b50565b33620005616200039d565b6001600160a01b0316146200039b573360405163118cdaa760e01b81526004016200053f919062000d61565b6060600080846001600160a01b03163485604051620005ad919062000e3e565b60006040518083038185875af1925050503d8060008114620005ec576040519150601f19603f3d011682016040523d82523d6000602084013e620005f1565b606091505b5091509150816200063d5760405162461bcd60e51b8152602060048201526015602482015274109d5a5b191a5b99ce8818d85b1b0819985a5b1959605a1b60448201526064016200053f565b949350505050565b60015460405163e6a4390560e01b81526001600160a01b0386811660048301528581166024830152600092839283928392169063e6a4390590604401602060405180830381865afa1580156200069f573d6000803e3d6000fd5b505050506040513d601f19601f82011682018060405250810190620006c5919062000e5c565b90506001600160a01b03811662000754576001546040516364e329cb60e11b81526001600160a01b038a8116600483015289811660248301529091169063c9c65396906044016020604051808303816000875af11580156200072b573d6000803e3d6000fd5b505050506040513d601f19601f8201168201806040525081019062000751919062000e5c565b90505b60005460405163095ea7b360e01b81526001600160a01b039182166004820152602481018890529089169063095ea7b3906044016020604051808303816000875af1158015620007a8573d6000803e3d6000fd5b505050506040513d601f19601f82011682018060405250810190620007ce919062000e1a565b5060005460405163095ea7b360e01b81526001600160a01b039182166004820152602481018790529088169063095ea7b3906044016020604051808303816000875af115801562000823573d6000803e3d6000fd5b505050506040513d601f19601f8201168201806040525081019062000849919062000e1a565b506000546001600160a01b031663e8e3370089898989818130620008704261012c62000e7c565b60405160e08a901b6001600160e01b03191681526001600160a01b039889166004820152968816602488015260448701959095526064860193909352608485019190915260a484015290921660c482015260e4810191909152610104016060604051808303816000875af1158015620008ed573d6000803e3d6000fd5b505050506040513d601f19601f8201168201806040525081019062000913919062000e9e565b919a9099509097509095509350505050565b7f9016d09d72d40fdae2fd8ceac6b6234c7706214fd39c1cd1e609a0528c19930080546001600160a01b031981166001600160a01b03848116918217845560405192169182907f8be0079c531659141344cd1fd0a4f28419497f9722a3daafe3b4186f6b6457e090600090a3505050565b620009a062000a32565b620005538162000a7c565b620009b562000a32565b6200039b3362000996565b620009ca62000a32565b600080546001600160a01b039384166001600160a01b03199182161790915560018054929093169116179055565b62000a0262000a32565b62000a0e828262000a86565b600280546001600160a01b0319166001600160a01b03929092169190911790555050565b7ff0c57e16840df040f15088dc2f81fe391c3923bec73e23a9662efc9c229c6a0054600160401b900460ff166200039b57604051631afcd79f60e31b815260040160405180910390fd5b6200051262000a32565b6000828260405162000a989062000b07565b62000aa4919062000d61565b8190604051809103906000f590508015801562000ac5573d6000803e3d6000fd5b5090507f86391fba409e44e3af18aa6478dfccdb9b93ae68a497e6bbe24ff16b75196f188160405162000af9919062000d61565b60405180910390a192915050565b6115148062000ece83390190565b6001600160a01b03811681146200055357600080fd5b634e487b7160e01b600052604160045260246000fd5b6000806040838503121562000b5557600080fd5b823562000b628162000b15565b9150602083013567ffffffffffffffff8082111562000b8057600080fd5b818501915085601f83011262000b9557600080fd5b81358181111562000baa5762000baa62000b2b565b604051601f8201601f19908116603f0116810190838211818310171562000bd55762000bd562000b2b565b8160405282815288602084870101111562000bef57600080fd5b8260208601602083013760006020848301015280955050505050509250929050565b60005b8381101562000c2e57818101518382015260200162000c14565b50506000910152565b602081526000825180602084015262000c5881604085016020870162000c11565b601f01601f19169190910160400192915050565b60008060008060006080868803121562000c8557600080fd5b853562000c928162000b15565b9450602086013562000ca48162000b15565b935060408601359250606086013567ffffffffffffffff8082111562000cc957600080fd5b818801915088601f83011262000cde57600080fd5b81358181111562000cee57600080fd5b89602082850101111562000d0157600080fd5b9699959850939650602001949392505050565b6000806000806080858703121562000d2b57600080fd5b843562000d388162000b15565b935060208501359250604085013562000d518162000b15565b9396929550929360600135925050565b6001600160a01b0391909116815260200190565b6000806000806080858703121562000d8c57600080fd5b84359350602085013562000da08162000b15565b9250604085013562000db28162000b15565b9150606085013562000dc48162000b15565b939692955090935050565b60006020828403121562000de257600080fd5b813562000def8162000b15565b9392505050565b6001600160a01b039384168152919092166020820152604081019190915260600190565b60006020828403121562000e2d57600080fd5b8151801515811462000def57600080fd5b6000825162000e5281846020870162000c11565b9190910192915050565b60006020828403121562000e6f57600080fd5b815162000def8162000b15565b808201808211156200026857634e487b7160e01b600052601160045260246000fd5b60008060006060848603121562000eb457600080fd5b835192506020840151915060408401519050925092509256fe6080604052600060035534801561001557600080fd5b50604051620015143803806200151483398101604081905261003691610169565b6001600160a01b0381166100905760405162461bcd60e51b815260206004820152601c60248201527f496e76616c6964204e465420636f6e7472616374206164647265737300000000604482015260640160405180910390fd5b600480546001600160a01b0319166001600160a01b0383161790556100b66000336100bd565b5050610199565b6000828152602081815260408083206001600160a01b038516845290915281205460ff1661015f576000838152602081815260408083206001600160a01b03861684529091529020805460ff191660011790556101173390565b6001600160a01b0316826001600160a01b0316847f2f8788117e7eff1d82e926ec794901d17c78024a50270940304540a733656f0d60405160405180910390a4506001610163565b5060005b92915050565b60006020828403121561017b57600080fd5b81516001600160a01b038116811461019257600080fd5b9392505050565b61136b80620001a96000396000f3fe608060405234801561001057600080fd5b50600436106101115760003560e01c80638579229f116100ad578063c9e3984411610071578063c9e3984414610274578063d547741f14610287578063e429cef11461029a578063e6116cfd146102ad578063e74e786d146102c057600080fd5b80638579229f146101fb57806391d148541461020e578063a217fddf14610221578063ba5ed88a14610229578063c36109af1461025457600080fd5b806301ffc9a714610116578063248a9ca31461013e5780632f2ff15d1461016f57806336568abe146101845780633f76730f146101975780634afb29c6146101b75780635949ea69146101c05780636e1d616e146101d35780637574ad32146101e8575b600080fd5b610129610124366004610d72565b6102e4565b60405190151581526020015b60405180910390f35b61016161014c366004610da3565b60009081526020819052604090206001015490565b604051908152602001610135565b61018261017d366004610dd1565b61031b565b005b610182610192366004610dd1565b610346565b6101aa6101a5366004610da3565b61037e565b6040516101359190610e47565b61016160035481565b6101826101ce366004610ea1565b6104a6565b61016160008051602061131683398151915281565b6101616101f6366004610f1d565b6105e7565b610182610209366004610ea1565b610618565b61012961021c366004610dd1565b610812565b610161600081565b60045461023c906001600160a01b031681565b6040516001600160a01b039091168152602001610135565b610267610262366004610da3565b61083b565b6040516101359190610f3f565b610182610282366004610da3565b61089d565b610182610295366004610dd1565b6109a4565b6101826102a8366004610f83565b6109c9565b6101826102bb366004610f83565b610a89565b6102d36102ce366004610da3565b610ae4565b604051610135959493929190610fa0565b60006001600160e01b03198216637965db0b60e01b148061031557506301ffc9a760e01b6001600160e01b03198316145b92915050565b60008281526020819052604090206001015461033681610baa565b6103408383610bb7565b50505050565b6001600160a01b038116331461036f5760405163334bd91960e11b815260040160405180910390fd5b6103798282610c49565b505050565b6103bb6040518060a001604052806000815260200160006001600160a01b0316815260200160608152602001600081526020016000151581525090565b600082815260016020818152604092839020835160a08101855281548152928101546001600160a01b031691830191909152600281018054929391929184019161040490610fe3565b80601f016020809104026020016040519081016040528092919081815260200182805461043090610fe3565b801561047d5780601f106104525761010080835404028352916020019161047d565b820191906000526020600020905b81548152906001019060200180831161046057829003601f168201915b50505091835250506003820154602082015260049091015460ff16151560409091015292915050565b6000805160206113168339815191526104be81610baa565b816104e45760405162461bcd60e51b81526004016104db9061101d565b60405180910390fd5b6000848152600160208190526040909120908101546001600160a01b031633146105205760405162461bcd60e51b81526004016104db90611061565b600481015460ff161561058b5760405162461bcd60e51b815260206004820152602d60248201527f417564697452656769737472793a2043616e6e6f74207570646174652061207260448201526c195d9bdad959081c9958dbdc99609a1b60648201526084016104db565b6002810161059a848683611123565b50428160030181905550847f7d88a6413bdea2f765837b2027d150e8d9eff6811a00e7b32ce22566577ae3218585426040516105d8939291906111de565b60405180910390a25050505050565b6002602052816000526040600020818154811061060357600080fd5b90600052602060002001600091509150505481565b60008051602061131683398151915261063081610baa565b8361063a81610cb4565b6106955760405162461bcd60e51b815260206004820152602660248201527f417564697452656769737472793a204275696c64696e6720646f6573206e6f7460448201526508195e1a5cdd60d21b60648201526084016104db565b826106b25760405162461bcd60e51b81526004016104db9061101d565b600380549060006106c283611217565b91905055506040518060a00160405280868152602001336001600160a01b0316815260200185858080601f016020809104026020016040519081016040528093929190818152602001838380828437600092018290525093855250504260208085019190915260409384018390526003548352600180825292849020855181559085015192810180546001600160a01b0319166001600160a01b03909416939093179092555090820151600282019061077b908261123e565b5060608201516003828101919091556080909201516004909101805460ff1916911515919091179055600086815260026020908152604080832084548154600181018355918552929093209092015590549051339187917f92a0387dc7c67d734c77ccfb7ffb948823976ffc08e374f17223ceab2abfa8e490610803908990899042906111de565b60405180910390a45050505050565b6000918252602082815260408084206001600160a01b0393909316845291905290205460ff1690565b60008181526002602090815260409182902080548351818402810184019094528084526060939283018282801561089157602002820191906000526020600020905b81548152602001906001019080831161087d575b50505050509050919050565b6000805160206113168339815191526108b581610baa565b6000828152600160208190526040909120908101546001600160a01b031633146108f15760405162461bcd60e51b81526004016104db90611061565b600481015460ff16156109545760405162461bcd60e51b815260206004820152602560248201527f417564697452656769737472793a205265636f726420616c72656164792072656044820152641d9bdad95960da1b60648201526084016104db565b60048101805460ff1916600117905560405183907fe4839e81aa65ee9120ee35c9291915fa224f6ae0bfab747215ee7f0b5368a193906109979042815260200190565b60405180910390a2505050565b6000828152602081905260409020600101546109bf81610baa565b6103408383610c49565b60006109d481610baa565b6001600160a01b038216610a395760405162461bcd60e51b815260206004820152602660248201527f417564697452656769737472793a20496e76616c69642061756469746f72206160448201526564647265737360d01b60648201526084016104db565b610a516000805160206113168339815191528361031b565b6040516001600160a01b038316907f2c31044378cc14466459f09320dd4057d7ad6e99b194c0800c78227383a2529690600090a25050565b6000610a9481610baa565b610aac600080516020611316833981519152836109a4565b6040516001600160a01b038316907fd3e803f2dfdacd206b7d19aa46d847206386d84e3dc6b8de0926e54affa6fddc90600090a25050565b60016020819052600091825260409091208054918101546002820180546001600160a01b039092169291610b1790610fe3565b80601f0160208091040260200160405190810160405280929190818152602001828054610b4390610fe3565b8015610b905780601f10610b6557610100808354040283529160200191610b90565b820191906000526020600020905b815481529060010190602001808311610b7357829003601f168201915b50505050600383015460049093015491929160ff16905085565b610bb48133610d35565b50565b6000610bc38383610812565b610c41576000838152602081815260408083206001600160a01b03861684529091529020805460ff19166001179055610bf93390565b6001600160a01b0316826001600160a01b0316847f2f8788117e7eff1d82e926ec794901d17c78024a50270940304540a733656f0d60405160405180910390a4506001610315565b506000610315565b6000610c558383610812565b15610c41576000838152602081815260408083206001600160a01b0386168085529252808320805460ff1916905551339286917ff6391f5c32d9c69d2a47ea670b442974b53935d1edc7fd64eb21e047a839171b9190a4506001610315565b600480546040516331a9108f60e11b815291820183905260009182916001600160a01b031690636352211e90602401602060405180830381865afa158015610d00573d6000803e3d6000fd5b505050506040513d601f19601f82011682018060405250810190610d2491906112f8565b6001600160a01b0316141592915050565b610d3f8282610812565b610d6e5760405163e2517d3f60e01b81526001600160a01b0382166004820152602481018390526044016104db565b5050565b600060208284031215610d8457600080fd5b81356001600160e01b031981168114610d9c57600080fd5b9392505050565b600060208284031215610db557600080fd5b5035919050565b6001600160a01b0381168114610bb457600080fd5b60008060408385031215610de457600080fd5b823591506020830135610df681610dbc565b809150509250929050565b6000815180845260005b81811015610e2757602081850181015186830182015201610e0b565b506000602082860101526020601f19601f83011685010191505092915050565b602081528151602082015260018060a01b0360208301511660408201526000604083015160a06060840152610e7f60c0840182610e01565b9050606084015160808401526080840151151560a08401528091505092915050565b600080600060408486031215610eb657600080fd5b83359250602084013567ffffffffffffffff80821115610ed557600080fd5b818601915086601f830112610ee957600080fd5b813581811115610ef857600080fd5b876020828501011115610f0a57600080fd5b6020830194508093505050509250925092565b60008060408385031215610f3057600080fd5b50508035926020909101359150565b6020808252825182820181905260009190848201906040850190845b81811015610f7757835183529284019291840191600101610f5b565b50909695505050505050565b600060208284031215610f9557600080fd5b8135610d9c81610dbc565b8581526001600160a01b038516602082015260a060408201819052600090610fca90830186610e01565b6060830194909452509015156080909101529392505050565b600181811c90821680610ff757607f821691505b60208210810361101757634e487b7160e01b600052602260045260246000fd5b50919050565b60208082526024908201527f417564697452656769737472793a2049504653206861736820697320726571756040820152631a5c995960e21b606082015260800190565b60208082526027908201527f417564697452656769737472793a204e6f7420746865206f726967696e616c2060408201526630bab234ba37b960c91b606082015260800190565b634e487b7160e01b600052604160045260246000fd5b601f821115610379576000816000526020600020601f850160051c810160208610156110e75750805b601f850160051c820191505b81811015611106578281556001016110f3565b505050505050565b600019600383901b1c191660019190911b1790565b67ffffffffffffffff83111561113b5761113b6110a8565b61114f836111498354610fe3565b836110be565b6000601f84116001811461117d576000851561116b5750838201355b611175868261110e565b8455506111d7565b600083815260209020601f19861690835b828110156111ae578685013582556020948501946001909201910161118e565b50868210156111cb5760001960f88860031b161c19848701351681555b505060018560011b0183555b5050505050565b604081528260408201528284606083013760006060848301015260006060601f19601f8601168301019050826020830152949350505050565b60006001820161123757634e487b7160e01b600052601160045260246000fd5b5060010190565b815167ffffffffffffffff811115611258576112586110a8565b61126c816112668454610fe3565b846110be565b602080601f83116001811461129b57600084156112895750858301515b611293858261110e565b865550611106565b600085815260208120601f198616915b828110156112ca578886015182559484019460019091019084016112ab565b50858210156112e85787850151600019600388901b60f8161c191681555b5050505050600190811b01905550565b60006020828403121561130a57600080fd5b8151610d9c81610dbc56fe59a1c48e5837ad7a7f3dcedcbe129bf3249ec4fbf651fd4f5e2600ead39fe2f5a2646970667358221220a155bdb1c8a0165e424a843e49fac40b3024ecb814eaaf51cf2c8ef3c3aa97a764736f6c63430008180033a26469706673582212201e155b18a648cc5270f31166eff8143b1247d4aa344ae0fdffa870ae7c43bfb364736f6c63430008180033a264697066735822122023dfdf289d3452662a309db1e647120fb1e0894ecda8194d147752744ec996c464736f6c63430008180033",
  "linkReferences": {},
  "deployedLinkReferences": {}
}