{
  "_format": "hh-sol-artifact-1",
  "contractName": "BuildingFactoryMock",
  "sourceName": "contracts/buildings/mock/BuildingFactoryMock.sol",
  "abi": [
    {
      "inputs": [],
      "name": "InvalidInitialization",
      "type": "error"
    },
    {
      "inputs": [],
      "name": "NotInitializing",
      "type": "error"
    },
    {
      "inputs": [
        {
          "internalType": "address",
          "name": "owner",
          "type": "address"
        }
      ],
      "name": "OwnableInvalidOwner",
      "type": "error"
    },
    {
      "inputs": [
        {
          "internalType": "address",
          "name": "account",
          "type": "address"
        }
      ],
      "name": "OwnableUnauthorizedAccount",
      "type": "error"
    },
    {
      "anonymous": false,
      "inputs": [
        {
          "indexed": false,
          "internalType": "uint64",
          "name": "version",
          "type": "uint64"
        }
      ],
      "name": "Initialized",
      "type": "event"
    },
    {
      "anonymous": false,
      "inputs": [
        {
          "indexed": false,
          "internalType": "address",
          "name": "addr",
          "type": "address"
        }
      ],
      "name": "NewAuditRegistry",
      "type": "event"
    },
    {
      "anonymous": false,
      "inputs": [
        {
          "indexed": false,
          "internalType": "address",
          "name": "addr",
          "type": "address"
        }
      ],
      "name": "NewBuilding",
      "type": "event"
    },
    {
      "anonymous": false,
      "inputs": [
        {
          "indexed": false,
          "internalType": "address",
          "name": "building",
          "type": "address"
        },
        {
          "indexed": false,
          "internalType": "address",
          "name": "token",
          "type": "address"
        }
      ],
      "name": "NewERC3643Token",
      "type": "event"
    },
    {
      "anonymous": false,
      "inputs": [
        {
          "indexed": true,
          "internalType": "address",
          "name": "previousOwner",
          "type": "address"
        },
        {
          "indexed": true,
          "internalType": "address",
          "name": "newOwner",
          "type": "address"
        }
      ],
      "name": "OwnershipTransferred",
      "type": "event"
    },
    {
      "inputs": [
        {
          "internalType": "address",
          "name": "buildingAddress",
          "type": "address"
        },
        {
          "internalType": "address",
          "name": "callableContract",
          "type": "address"
        },
        {
          "internalType": "bytes",
          "name": "data",
          "type": "bytes"
        }
      ],
      "name": "callFromBuilding",
      "outputs": [],
      "stateMutability": "nonpayable",
      "type": "function"
    },
    {
      "inputs": [
        {
          "internalType": "address",
          "name": "buildingAddress",
          "type": "address"
        }
      ],
      "name": "getBuildingDetails",
      "outputs": [
        {
          "components": [
            {
              "internalType": "address",
              "name": "addr",
              "type": "address"
            },
            {
              "internalType": "uint256",
              "name": "nftId",
              "type": "uint256"
            },
            {
              "internalType": "string",
              "name": "tokenURI",
              "type": "string"
            },
            {
              "internalType": "address",
              "name": "identity",
              "type": "address"
            },
            {
              "internalType": "address",
              "name": "erc3643Token",
              "type": "address"
            }
          ],
          "internalType": "struct BuildingFactory.BuildingInfo",
          "name": "",
          "type": "tuple"
        }
      ],
      "stateMutability": "view",
      "type": "function"
    },
    {
      "inputs": [],
      "name": "getBuildingList",
      "outputs": [
        {
          "components": [
            {
              "internalType": "address",
              "name": "addr",
              "type": "address"
            },
            {
              "internalType": "uint256",
              "name": "nftId",
              "type": "uint256"
            },
            {
              "internalType": "string",
              "name": "tokenURI",
              "type": "string"
            },
            {
              "internalType": "address",
              "name": "identity",
              "type": "address"
            },
            {
              "internalType": "address",
              "name": "erc3643Token",
              "type": "address"
            }
          ],
          "internalType": "struct BuildingFactory.BuildingInfo[]",
          "name": "",
          "type": "tuple[]"
        }
      ],
      "stateMutability": "view",
      "type": "function"
    },
    {
      "inputs": [
        {
          "internalType": "address",
          "name": "_nft",
          "type": "address"
        },
        {
          "internalType": "address",
          "name": "_uniswapRouter",
          "type": "address"
        },
        {
          "internalType": "address",
          "name": "_uniswapFactory",
          "type": "address"
        },
        {
          "internalType": "address",
          "name": "_beacon",
          "type": "address"
        },
        {
          "internalType": "address",
          "name": "_onchainIdGateway",
          "type": "address"
        },
        {
          "internalType": "address",
          "name": "_trexGateway",
          "type": "address"
        }
      ],
      "name": "initialize",
      "outputs": [],
      "stateMutability": "nonpayable",
      "type": "function"
    },
    {
      "inputs": [
        {
          "internalType": "string",
          "name": "tokenURI",
          "type": "string"
        }
      ],
      "name": "newBuilding",
      "outputs": [],
      "stateMutability": "nonpayable",
      "type": "function"
    },
    {
      "inputs": [
        {
          "internalType": "address",
          "name": "buildingAddress",
          "type": "address"
        },
        {
          "internalType": "string",
          "name": "name",
          "type": "string"
        },
        {
          "internalType": "string",
          "name": "symbol",
          "type": "string"
        },
        {
          "internalType": "uint8",
          "name": "decimals",
          "type": "uint8"
        }
      ],
      "name": "newERC3643Token",
      "outputs": [],
      "stateMutability": "nonpayable",
      "type": "function"
    },
    {
      "inputs": [],
      "name": "owner",
      "outputs": [
        {
          "internalType": "address",
          "name": "",
          "type": "address"
        }
      ],
      "stateMutability": "view",
      "type": "function"
    },
    {
      "inputs": [],
      "name": "renounceOwnership",
      "outputs": [],
      "stateMutability": "nonpayable",
      "type": "function"
    },
    {
      "inputs": [
        {
          "internalType": "address",
          "name": "newOwner",
          "type": "address"
        }
      ],
      "name": "transferOwnership",
      "outputs": [],
      "stateMutability": "nonpayable",
      "type": "function"
    },
    {
      "inputs": [],
      "name": "version",
      "outputs": [
        {
          "internalType": "string",
          "name": "",
          "type": "string"
        }
      ],
      "stateMutability": "pure",
      "type": "function"
    }
  ],
  "bytecode": "0x608060405234801561001057600080fd5b50612b89806100206000396000f3fe60806040523480156200001157600080fd5b5060043610620000ab5760003560e01c80638da5cb5b116200006e5780638da5cb5b1462000140578063baff7ae71462000159578063cc2a9a5b1462000170578063db652ec81462000187578063f2fde38b14620001a057600080fd5b806344cccdcf14620000b057806354fd4d5014620000c9578063665fa4a114620000f9578063715018a6146200011f5780638090fc7a1462000129575b600080fd5b620000c7620000c136600462001138565b620001b7565b005b60408051808201825260038152620322e360ec1b60208201529051620000f091906200120a565b60405180910390f35b620001106200010a36600462001226565b62000311565b604051620000f091906200129f565b620000c762000450565b620000c76200013a366004620012d7565b62000468565b6200014a6200064d565b604051620000f091906200136f565b620000c76200016a36600462001383565b6200067b565b620000c762000181366004620013c3565b62000689565b6200019162000798565b604051620000f0919062001452565b620000c7620001b136600462001226565b620008e6565b6000620001c362000928565b6001600160a01b0380861660008181526007840160205260409020549293509116146200020d5760405162461bcd60e51b81526004016200020490620014ba565b60405180910390fd5b6001600160a01b038316600090815260088201602052604090205460ff161515600114620002915760405162461bcd60e51b815260206004820152602a60248201527f4275696c64696e67466163746f72793a20496e76616c69642063616c6c61626c604482015269194818dbdb9d1c9858dd60b21b606482015260840162000204565b604051626e20cd60e31b81526001600160a01b03851690630371066890620002c0908690869060040162001503565b6000604051808303816000875af1158015620002e0573d6000803e3d6000fd5b505050506040513d6000823e601f3d908101601f191682016040526200030a919081019062001529565b5050505050565b6040805160a081018252600080825260208201819052606092820183905291810182905260808101829052906200034762000928565b6001600160a01b038085166000908152600783016020908152604091829020825160a081018452815490941684526001810154918401919091526002810180549495509293909291840191906200039e90620015a8565b80601f0160208091040260200160405190810160405280929190818152602001828054620003cc90620015a8565b80156200041d5780601f10620003f1576101008083540402835291602001916200041d565b820191906000526020600020905b815481529060010190602001808311620003ff57829003601f168201915b505050918352505060038201546001600160a01b0390811660208301526004909201549091166040909101529392505050565b6200045a6200094c565b62000466600062000983565b565b60006200047462000928565b90506001600160a01b03851615801590620004aa57506001600160a01b0385811660009081526007830160205260409020541615155b620004c95760405162461bcd60e51b81526004016200020490620014ba565b6001600160a01b0385811660009081526007830160205260409020600401541615620005545760405162461bcd60e51b815260206004820152603360248201527f4275696c64696e67466163746f72793a20746f6b656e20616c7265616479206360448201527272656174656420666f72206275696c64696e6760681b606482015260840162000204565b600581015460009062000574906001600160a01b031687878787620009f4565b60405163f2fde38b60e01b81529091506001600160a01b0382169063f2fde38b90620005a59033906004016200136f565b600060405180830381600087803b158015620005c057600080fd5b505af1158015620005d5573d6000803e3d6000fd5b505050506001600160a01b03868116600081815260078501602090815260409182902060040180546001600160a01b031916948616948517905581519283528201929092527fb248a19ee520af52b2708cdaad4b5668a428f194685638a13d8a7b9ee84711a3910160405180910390a1505050505050565b7f9016d09d72d40fdae2fd8ceac6b6234c7706214fd39c1cd1e609a0528c199300546001600160a01b031690565b620006868162000a3d565b50565b60006200069562000d8b565b805490915060ff600160401b82041615906001600160401b0316600081158015620006bd5750825b90506000826001600160401b03166001148015620006da5750303b155b905081158015620006e9575080155b15620007085760405163f92ee8a960e01b815260040160405180910390fd5b845467ffffffffffffffff1916600117855583156200073357845460ff60401b1916600160401b1785555b620007438b8b8b8b8b8b62000daf565b83156200078b57845460ff60401b19168555604051600181527fc7f505b2f371ae2175ee4913f4499e1f2633a7b5936321eed1cdaeb6115181d2906020015b60405180910390a15b5050505050505050505050565b60606000620007a662000928565b6006810180546040805160208084028201810190925282815293945060009084015b82821015620008dc5760008481526020908190206040805160a0810182526005860290920180546001600160a01b03168352600181015493830193909352600283018054929392918401916200081e90620015a8565b80601f01602080910402602001604051908101604052809291908181526020018280546200084c90620015a8565b80156200089d5780601f1062000871576101008083540402835291602001916200089d565b820191906000526020600020905b8154815290600101906020018083116200087f57829003601f168201915b505050918352505060038201546001600160a01b03908116602080840191909152600490930154166040909101529082526001929092019101620007c8565b5050505091505090565b620008f06200094c565b6001600160a01b0381166200091d576000604051631e4fbdf760e01b81526004016200020491906200136f565b620006868162000983565b7f0f40dde8b99b0722537b774c6ef775b5e5a0af035d95bf9802cd87411f806f0090565b33620009576200064d565b6001600160a01b03161462000466573360405163118cdaa760e01b81526004016200020491906200136f565b7f9016d09d72d40fdae2fd8ceac6b6234c7706214fd39c1cd1e609a0528c19930080546001600160a01b031981166001600160a01b03848116918217845560405192169182907f8be0079c531659141344cd1fd0a4f28419497f9722a3daafe3b4186f6b6457e090600090a3505050565b600083838360405162000a079062001050565b62000a1593929190620015e4565b604051809103906000f08015801562000a32573d6000803e3d6000fd5b509695505050505050565b600062000a4962000928565b60038101546001820154600283015483546040516001600160a01b03938416602482015291831660448301528216606482015292935060009291169063c0c53b8b60e01b9060840160408051601f198184030181529181526020820180516001600160e01b03166001600160e01b031990941693909317909252905162000ad0906200105e565b62000add92919062001503565b604051809103906000f08015801562000afa573d6000803e3d6000fd5b50825460405163d0def52160e01b81529192506000916001600160a01b039091169063d0def5219062000b34908590889060040162001503565b6020604051808303816000875af115801562000b54573d6000803e3d6000fd5b505050506040513d601f19601f8201168201806040525081019062000b7a919062001621565b600480850154604051633e8e6e8b60e01b81529293506000926001600160a01b0390911691633e8e6e8b9162000bb3918791016200136f565b6020604051808303816000875af115801562000bd3573d6000803e3d6000fd5b505050506040513d601f19601f8201168201806040525081019062000bf991906200163b565b6040805160a0810182526001600160a01b0386811680835260208084018881528486018c8152878516606087015260006080870181905293845260078c0190925294909120835181546001600160a01b031916931692909217825592516001820155915192935091600282019062000c729082620016c5565b5060608201516003820180546001600160a01b03199081166001600160a01b0393841617909155608090930151600490920180548416928216929092179091558481166000908152600787016020908152604082206006890180546001818101835591855292909320815460059093020180549290941691909416178255828101549082015560028082019062000d0c908401826200178d565b5060038281015490820180546001600160a01b03199081166001600160a01b039384161790915560049384015493909201805490921692169190911790556040517f02eb67024749e9ed4b0bebae49012408b7466ee9ebbf5a0310811dc2c059d9cd9062000d7c9085906200136f565b60405180910390a15050505050565b7ff0c57e16840df040f15088dc2f81fe391c3923bec73e23a9662efc9c229c6a0090565b600062000dbb62000d8b565b805490915060ff600160401b82041615906001600160401b031660008115801562000de35750825b90506000826001600160401b0316600114801562000e005750303b155b90508115801562000e0f575080155b1562000e2e5760405163f92ee8a960e01b815260040160405180910390fd5b845467ffffffffffffffff19166001178555831562000e5957845460ff60401b1916600160401b1785555b62000e643362000fed565b600062000e7062000928565b90508b8160000160006101000a8154816001600160a01b0302191690836001600160a01b031602179055508a8160010160006101000a8154816001600160a01b0302191690836001600160a01b03160217905550898160020160006101000a8154816001600160a01b0302191690836001600160a01b03160217905550888160030160006101000a8154816001600160a01b0302191690836001600160a01b03160217905550878160040160006101000a8154816001600160a01b0302191690836001600160a01b03160217905550868160050160006101000a8154816001600160a01b0302191690836001600160a01b0316021790555060018160080160008e6001600160a01b03166001600160a01b0316815260200190815260200160002060006101000a81548160ff0219169083151502179055505083156200078b57845460ff60401b19168555604051600181527fc7f505b2f371ae2175ee4913f4499e1f2633a7b5936321eed1cdaeb6115181d29060200162000782565b62000ff762001002565b62000686816200102a565b6200100c62001034565b6200046657604051631afcd79f60e31b815260040160405180910390fd5b620008f062001002565b60006200104062000d8b565b54600160401b900460ff16919050565b610d2a806200186b83390190565b6105bf806200259583390190565b6001600160a01b03811681146200068657600080fd5b634e487b7160e01b600052604160045260246000fd5b604051601f8201601f191681016001600160401b0381118282101715620010c357620010c362001082565b604052919050565b60006001600160401b03821115620010e757620010e762001082565b50601f01601f191660200190565b60006200110c6200110684620010cb565b62001098565b90508281528383830111156200112157600080fd5b828260208301376000602084830101529392505050565b6000806000606084860312156200114e57600080fd5b83356200115b816200106c565b925060208401356200116d816200106c565b915060408401356001600160401b038111156200118957600080fd5b8401601f810186136200119b57600080fd5b620011ac86823560208401620010f5565b9150509250925092565b60005b83811015620011d3578181015183820152602001620011b9565b50506000910152565b60008151808452620011f6816020860160208601620011b6565b601f01601f19169290920160200192915050565b6020815260006200121f6020830184620011dc565b9392505050565b6000602082840312156200123957600080fd5b81356200121f816200106c565b600060018060a01b0380835116845260208301516020850152604083015160a060408601526200127a60a0860182620011dc565b9050816060850151166060860152816080850151166080860152809250505092915050565b6020815260006200121f602083018462001246565b600082601f830112620012c657600080fd5b6200121f83833560208501620010f5565b60008060008060808587031215620012ee57600080fd5b8435620012fb816200106c565b935060208501356001600160401b03808211156200131857600080fd5b6200132688838901620012b4565b945060408701359150808211156200133d57600080fd5b506200134c87828801620012b4565b925050606085013560ff811681146200136457600080fd5b939692955090935050565b6001600160a01b0391909116815260200190565b6000602082840312156200139657600080fd5b81356001600160401b03811115620013ad57600080fd5b620013bb84828501620012b4565b949350505050565b60008060008060008060c08789031215620013dd57600080fd5b8635620013ea816200106c565b95506020870135620013fc816200106c565b945060408701356200140e816200106c565b9350606087013562001420816200106c565b9250608087013562001432816200106c565b915060a087013562001444816200106c565b809150509295509295509295565b600060208083016020845280855180835260408601915060408160051b87010192506020870160005b82811015620014ad57603f198886030184526200149a85835162001246565b945092850192908501906001016200147b565b5092979650505050505050565b60208082526029908201527f4275696c64696e67466163746f72793a20496e76616c6964206275696c64696e60408201526867206164647265737360b81b606082015260800190565b6001600160a01b0383168152604060208201819052600090620013bb90830184620011dc565b6000602082840312156200153c57600080fd5b81516001600160401b038111156200155357600080fd5b8201601f810184136200156557600080fd5b8051620015766200110682620010cb565b8181528560208385010111156200158c57600080fd5b6200159f826020830160208601620011b6565b95945050505050565b600181811c90821680620015bd57607f821691505b602082108103620015de57634e487b7160e01b600052602260045260246000fd5b50919050565b606081526000620015f96060830186620011dc565b82810360208401526200160d8186620011dc565b91505060ff83166040830152949350505050565b6000602082840312156200163457600080fd5b5051919050565b6000602082840312156200164e57600080fd5b81516200121f816200106c565b601f821115620016ab576000816000526020600020601f850160051c81016020861015620016865750805b601f850160051c820191505b81811015620016a75782815560010162001692565b5050505b505050565b600019600383901b1c191660019190911b1790565b81516001600160401b03811115620016e157620016e162001082565b620016f981620016f28454620015a8565b846200165b565b602080601f8311600181146200172d5760008415620017185750858301515b620017248582620016b0565b865550620016a7565b600085815260208120601f198616915b828110156200175e578886015182559484019460019091019084016200173d565b50858210156200177d5787850151600019600388901b60f8161c191681555b5050505050600190811b01905550565b81810362001799575050565b620017a58254620015a8565b6001600160401b03811115620017bf57620017bf62001082565b620017d081620016f28454620015a8565b6000601f821160018114620018035760008315620017ee5750848201545b620017fa8482620016b0565b8555506200030a565b600085815260209020601f19841690600086815260209020845b838110156200183f57828601548255600195860195909101906020016200181d565b50858310156200177d5793015460001960f8600387901b161c19169092555050600190811b0190555056fe60806040523480156200001157600080fd5b5060405162000d2a38038062000d2a8339810160408190526200003491620001d3565b3383836003620000458382620002e9565b506004620000548282620002e9565b5050506001600160a01b0381166200008657604051631e4fbdf760e01b81526000600482015260240160405180910390fd5b6200009181620000b9565b506005805460ff909216600160a01b0260ff60a01b1990921691909117905550620003b59050565b600580546001600160a01b038381166001600160a01b0319831681179093556040519116919082907f8be0079c531659141344cd1fd0a4f28419497f9722a3daafe3b4186f6b6457e090600090a35050565b634e487b7160e01b600052604160045260246000fd5b600082601f8301126200013357600080fd5b81516001600160401b03808211156200015057620001506200010b565b604051601f8301601f19908116603f011681019082821181831017156200017b576200017b6200010b565b81604052838152602092508660208588010111156200019957600080fd5b600091505b83821015620001bd57858201830151818301840152908201906200019e565b6000602085830101528094505050505092915050565b600080600060608486031215620001e957600080fd5b83516001600160401b03808211156200020157600080fd5b6200020f8783880162000121565b945060208601519150808211156200022657600080fd5b50620002358682870162000121565b925050604084015160ff811681146200024d57600080fd5b809150509250925092565b600181811c908216806200026d57607f821691505b6020821081036200028e57634e487b7160e01b600052602260045260246000fd5b50919050565b601f821115620002e4576000816000526020600020601f850160051c81016020861015620002bf5750805b601f850160051c820191505b81811015620002e057828155600101620002cb565b5050505b505050565b81516001600160401b038111156200030557620003056200010b565b6200031d8162000316845462000258565b8462000294565b602080601f8311600181146200035557600084156200033c5750858301515b600019600386901b1c1916600185901b178555620002e0565b600085815260208120601f198616915b82811015620003865788860151825594840194600190910190840162000365565b5085821015620003a55787850151600019600388901b60f8161c191681555b5050505050600190811b01905550565b61096580620003c56000396000f3fe608060405234801561001057600080fd5b50600436106100bf5760003560e01c806370a082311161007c57806370a082311461015e578063715018a6146101875780638da5cb5b1461018f57806395d89b41146101a8578063a9059cbb146101b0578063dd62ed3e146101c3578063f2fde38b146101d657600080fd5b806306fdde03146100c4578063095ea7b3146100e257806318160ddd1461010557806323b872dd14610117578063313ce5671461012a57806340c10f1914610149575b600080fd5b6100cc6101e9565b6040516100d99190610779565b60405180910390f35b6100f56100f03660046107e4565b61027b565b60405190151581526020016100d9565b6002545b6040519081526020016100d9565b6100f561012536600461080e565b610295565b600554600160a01b900460ff1660405160ff90911681526020016100d9565b61015c6101573660046107e4565b6102b9565b005b61010961016c36600461084a565b6001600160a01b031660009081526020819052604090205490565b61015c61037a565b6005546001600160a01b03166040516100d9919061086c565b6100cc61038e565b6100f56101be3660046107e4565b61039d565b6101096101d1366004610880565b6103ab565b61015c6101e436600461084a565b6103d6565b6060600380546101f8906108b3565b80601f0160208091040260200160405190810160405280929190818152602001828054610224906108b3565b80156102715780601f1061024657610100808354040283529160200191610271565b820191906000526020600020905b81548152906001019060200180831161025457829003601f168201915b5050505050905090565b600033610289818585610414565b60019150505b92915050565b6000336102a3858285610426565b6102ae858585610479565b506001949350505050565b6102c16104d8565b6001600160a01b03821661031c5760405162461bcd60e51b815260206004820152601e60248201527f4275696c64696e6745524332303a20496e76616c69642061646472657373000060448201526064015b60405180910390fd5b6000811161036c5760405162461bcd60e51b815260206004820152601d60248201527f4275696c64696e6745524332303a20496e76616c696420616d6f756e740000006044820152606401610313565b6103768282610505565b5050565b6103826104d8565b61038c600061053b565b565b6060600480546101f8906108b3565b600033610289818585610479565b6001600160a01b03918216600090815260016020908152604080832093909416825291909152205490565b6103de6104d8565b6001600160a01b038116610408576000604051631e4fbdf760e01b8152600401610313919061086c565b6104118161053b565b50565b610421838383600161058d565b505050565b600061043284846103ab565b90506000198114610473578181101561046457828183604051637dc7a0d960e11b8152600401610313939291906108ed565b6104738484848403600061058d565b50505050565b6001600160a01b0383166104a3576000604051634b637e8f60e11b8152600401610313919061086c565b6001600160a01b0382166104cd57600060405163ec442f0560e01b8152600401610313919061086c565b610421838383610662565b6005546001600160a01b0316331461038c573360405163118cdaa760e01b8152600401610313919061086c565b6001600160a01b03821661052f57600060405163ec442f0560e01b8152600401610313919061086c565b61037660008383610662565b600580546001600160a01b038381166001600160a01b0319831681179093556040519116919082907f8be0079c531659141344cd1fd0a4f28419497f9722a3daafe3b4186f6b6457e090600090a35050565b6001600160a01b0384166105b757600060405163e602df0560e01b8152600401610313919061086c565b6001600160a01b0383166105e1576000604051634a1406b160e11b8152600401610313919061086c565b6001600160a01b038085166000908152600160209081526040808320938716835292905220829055801561047357826001600160a01b0316846001600160a01b03167f8c5be1e5ebec7d5bd14f71427d1e84f3dd0314c0f7b2291e5b200ac8c7c3b9258460405161065491815260200190565b60405180910390a350505050565b6001600160a01b03831661068d578060026000828254610682919061090e565b909155506106ec9050565b6001600160a01b038316600090815260208190526040902054818110156106cd5783818360405163391434e360e21b8152600401610313939291906108ed565b6001600160a01b03841660009081526020819052604090209082900390555b6001600160a01b03821661070857600280548290039055610727565b6001600160a01b03821660009081526020819052604090208054820190555b816001600160a01b0316836001600160a01b03167fddf252ad1be2c89b69c2b068fc378daa952ba7f163c4a11628f55a4df523b3ef8360405161076c91815260200190565b60405180910390a3505050565b60006020808352835180602085015260005b818110156107a75785810183015185820160400152820161078b565b506000604082860101526040601f19601f8301168501019250505092915050565b80356001600160a01b03811681146107df57600080fd5b919050565b600080604083850312156107f757600080fd5b610800836107c8565b946020939093013593505050565b60008060006060848603121561082357600080fd5b61082c846107c8565b925061083a602085016107c8565b9150604084013590509250925092565b60006020828403121561085c57600080fd5b610865826107c8565b9392505050565b6001600160a01b0391909116815260200190565b6000806040838503121561089357600080fd5b61089c836107c8565b91506108aa602084016107c8565b90509250929050565b600181811c908216806108c757607f821691505b6020821081036108e757634e487b7160e01b600052602260045260246000fd5b50919050565b6001600160a01b039390931683526020830191909152604082015260600190565b8082018082111561028f57634e487b7160e01b600052601160045260246000fdfea2646970667358221220e8b826ce471c0906000ab68b0cb1d8e68abf2915e368951ee2d9441cc204197c64736f6c6343000818003360a06040526040516105bf3803806105bf83398101604081905261002291610387565b61002c828261003e565b506001600160a01b031660805261047e565b610047826100fe565b6040516001600160a01b038316907f1cf3b03a6cf19fa2baba4df148e9dcabedea7f8a5c07840e207e5c089be95d3e90600090a28051156100f2576100ed826001600160a01b0316635c60da1b6040518163ffffffff1660e01b8152600401602060405180830381865afa1580156100c3573d6000803e3d6000fd5b505050506040513d601f19601f820116820180604052508101906100e79190610447565b82610211565b505050565b6100fa610288565b5050565b806001600160a01b03163b60000361013957604051631933b43b60e21b81526001600160a01b03821660048201526024015b60405180910390fd5b807fa3f0ad74e5423aebfd80d3ef4346578335a9a72aeaee59ff6cb3582b35133d5080546001600160a01b0319166001600160a01b0392831617905560408051635c60da1b60e01b81529051600092841691635c60da1b9160048083019260209291908290030181865afa1580156101b5573d6000803e3d6000fd5b505050506040513d601f19601f820116820180604052508101906101d99190610447565b9050806001600160a01b03163b6000036100fa57604051634c9c8ce360e01b81526001600160a01b0382166004820152602401610130565b6060600080846001600160a01b03168460405161022e9190610462565b600060405180830381855af49150503d8060008114610269576040519150601f19603f3d011682016040523d82523d6000602084013e61026e565b606091505b50909250905061027f8583836102a9565b95945050505050565b34156102a75760405163b398979f60e01b815260040160405180910390fd5b565b6060826102be576102b982610308565b610301565b81511580156102d557506001600160a01b0384163b155b156102fe57604051639996b31560e01b81526001600160a01b0385166004820152602401610130565b50805b9392505050565b8051156103185780518082602001fd5b604051630a12f52160e11b815260040160405180910390fd5b80516001600160a01b038116811461034857600080fd5b919050565b634e487b7160e01b600052604160045260246000fd5b60005b8381101561037e578181015183820152602001610366565b50506000910152565b6000806040838503121561039a57600080fd5b6103a383610331565b60208401519092506001600160401b03808211156103c057600080fd5b818501915085601f8301126103d457600080fd5b8151818111156103e6576103e661034d565b604051601f8201601f19908116603f0116810190838211818310171561040e5761040e61034d565b8160405282815288602084870101111561042757600080fd5b610438836020830160208801610363565b80955050505050509250929050565b60006020828403121561045957600080fd5b61030182610331565b60008251610474818460208701610363565b9190910192915050565b6080516101276104986000396000601e01526101276000f3fe6080604052600a600c565b005b60186014601a565b60a0565b565b60007f00000000000000000000000000000000000000000000000000000000000000006001600160a01b0316635c60da1b6040518163ffffffff1660e01b8152600401602060405180830381865afa1580156079573d6000803e3d6000fd5b505050506040513d601f19601f82011682018060405250810190609b919060c3565b905090565b3660008037600080366000845af43d6000803e80801560be573d6000f35b3d6000fd5b60006020828403121560d457600080fd5b81516001600160a01b038116811460ea57600080fd5b939250505056fea26469706673582212205c8a2fcdc6f79c1d43b849e2b03f494652cee222b2ec86046b7caaa1405f985f64736f6c63430008180033a26469706673582212206af89c3511e909f7f84818d056e55d490f833d590169e33baca289d80aa8236f64736f6c63430008180033",
  "linkReferences": {},
  "deployedLinkReferences": {}
}