{
  "_format": "hh-sol-artifact-1",
  "contractName": "BuildingFactory",
  "sourceName": "contracts/buildings/BuildingFactory.sol",
  "abi": [
    {
      "inputs": [],
      "name": "InvalidInitialization",
      "type": "error"
    },
    {
      "inputs": [],
      "name": "NotInitializing",
      "type": "error"
    },
    {
      "inputs": [
        {
          "internalType": "address",
          "name": "owner",
          "type": "address"
        }
      ],
      "name": "OwnableInvalidOwner",
      "type": "error"
    },
    {
      "inputs": [
        {
          "internalType": "address",
          "name": "account",
          "type": "address"
        }
      ],
      "name": "OwnableUnauthorizedAccount",
      "type": "error"
    },
    {
      "anonymous": false,
      "inputs": [
        {
          "indexed": false,
          "internalType": "uint64",
          "name": "version",
          "type": "uint64"
        }
      ],
      "name": "Initialized",
      "type": "event"
    },
    {
      "anonymous": false,
      "inputs": [
        {
          "indexed": false,
          "internalType": "address",
          "name": "addr",
          "type": "address"
        }
      ],
      "name": "NewAuditRegistry",
      "type": "event"
    },
    {
      "anonymous": false,
      "inputs": [
        {
          "indexed": false,
          "internalType": "address",
          "name": "addr",
          "type": "address"
        }
      ],
      "name": "NewBuilding",
      "type": "event"
    },
    {
      "anonymous": false,
      "inputs": [
        {
          "indexed": true,
          "internalType": "address",
          "name": "previousOwner",
          "type": "address"
        },
        {
          "indexed": true,
          "internalType": "address",
          "name": "newOwner",
          "type": "address"
        }
      ],
      "name": "OwnershipTransferred",
      "type": "event"
    },
    {
      "inputs": [
        {
          "internalType": "address",
          "name": "buildingAddress",
          "type": "address"
        }
      ],
      "name": "getBuildingDetails",
      "outputs": [
        {
          "components": [
            {
              "internalType": "address",
              "name": "addr",
              "type": "address"
            },
            {
              "internalType": "uint256",
              "name": "nftId",
              "type": "uint256"
            },
            {
              "internalType": "string",
              "name": "tokenURI",
              "type": "string"
            }
          ],
          "internalType": "struct BuildingFactory.BuildingInfo",
          "name": "",
          "type": "tuple"
        }
      ],
      "stateMutability": "view",
      "type": "function"
    },
    {
      "inputs": [],
      "name": "getBuildingList",
      "outputs": [
        {
          "components": [
            {
              "internalType": "address",
              "name": "addr",
              "type": "address"
            },
            {
              "internalType": "uint256",
              "name": "nftId",
              "type": "uint256"
            },
            {
              "internalType": "string",
              "name": "tokenURI",
              "type": "string"
            }
          ],
          "internalType": "struct BuildingFactory.BuildingInfo[]",
          "name": "",
          "type": "tuple[]"
        }
      ],
      "stateMutability": "view",
      "type": "function"
    },
    {
      "inputs": [
        {
          "internalType": "address",
          "name": "_nft",
          "type": "address"
        },
        {
          "internalType": "address",
          "name": "_uniswapRouter",
          "type": "address"
        },
        {
          "internalType": "address",
          "name": "_uniswapFactory",
          "type": "address"
        },
        {
          "internalType": "address",
          "name": "_buildingBeacon",
          "type": "address"
        }
      ],
      "name": "initialize",
      "outputs": [],
      "stateMutability": "nonpayable",
      "type": "function"
    },
    {
      "inputs": [
        {
          "internalType": "string",
          "name": "tokenURI",
          "type": "string"
        }
      ],
      "name": "newBuilding",
      "outputs": [],
      "stateMutability": "nonpayable",
      "type": "function"
    },
    {
      "inputs": [],
      "name": "owner",
      "outputs": [
        {
          "internalType": "address",
          "name": "",
          "type": "address"
        }
      ],
      "stateMutability": "view",
      "type": "function"
    },
    {
      "inputs": [],
      "name": "renounceOwnership",
      "outputs": [],
      "stateMutability": "nonpayable",
      "type": "function"
    },
    {
      "inputs": [
        {
          "internalType": "address",
          "name": "newOwner",
          "type": "address"
        }
      ],
      "name": "transferOwnership",
      "outputs": [],
      "stateMutability": "nonpayable",
      "type": "function"
    }
  ],
  "bytecode": "0x608060405234801561001057600080fd5b50611418806100206000396000f3fe60806040523480156200001157600080fd5b5060043610620000765760003560e01c8063665fa4a1146200007b578063715018a614620000aa5780638da5cb5b14620000b6578063baff7ae714620000cf578063db652ec814620000e6578063f2fde38b14620000ff578063f8c8765e1462000116575b600080fd5b620000926200008c36600462000927565b6200012d565b604051620000a19190620009cf565b60405180910390f35b620000b46200023a565b005b620000c062000252565b604051620000a19190620009e4565b620000b4620000e036600462000a0e565b62000280565b620000f0620004db565b604051620000a1919062000ac9565b620000b46200011036600462000927565b62000603565b620000b46200012736600462000b31565b62000651565b6040805160608082018352600080835260208301819052928201529062000153620007c7565b6001600160a01b038085166000908152600583016020908152604091829020825160608101845281549094168452600181015491840191909152600281018054949550929390929184019190620001aa9062000b8e565b80601f0160208091040260200160405190810160405280929190818152602001828054620001d89062000b8e565b8015620002295780601f10620001fd5761010080835404028352916020019162000229565b820191906000526020600020905b8154815290600101906020018083116200020b57829003601f168201915b505050505081525050915050919050565b62000244620007eb565b62000250600062000822565b565b7f9016d09d72d40fdae2fd8ceac6b6234c7706214fd39c1cd1e609a0528c199300546001600160a01b031690565b60006200028c620007c7565b60038101546001820154600283015483546040516001600160a01b03938416602482015291831660448301528216606482015292935060009291169063c0c53b8b60e01b9060840160408051601f198184030181529181526020820180516001600160e01b03166001600160e01b03199094169390931790925290516200031390620008fc565b6200032092919062000bca565b604051809103906000f0801580156200033d573d6000803e3d6000fd5b50825460405163d0def52160e01b81529192506000916001600160a01b039091169063d0def5219062000377908590889060040162000bca565b6020604051808303816000875af115801562000397573d6000803e3d6000fd5b505050506040513d601f19601f82011682018060405250810190620003bd919062000bf0565b604080516060810182526001600160a01b0385811680835260208084018681528486018b8152600093845260058b0190925294909120835181546001600160a01b031916931692909217825592516001820155915192935091600282019062000427908262000c74565b5050506001600160a01b038083166000908152600585016020908152604082206004870180546001818101835591855292909320815460039093020180546001600160a01b03191692909416919091178355818101549183019190915590600280820190620004999084018262000d3d565b5050507f02eb67024749e9ed4b0bebae49012408b7466ee9ebbf5a0310811dc2c059d9cd82604051620004cd9190620009e4565b60405180910390a150505050565b60606000620004e9620007c7565b6004810180546040805160208084028201810190925282815293945060009084015b82821015620005f9576000848152602090819020604080516060810182526003860290920180546001600160a01b0316835260018101549383019390935260028301805492939291840191620005619062000b8e565b80601f01602080910402602001604051908101604052809291908181526020018280546200058f9062000b8e565b8015620005e05780601f10620005b457610100808354040283529160200191620005e0565b820191906000526020600020905b815481529060010190602001808311620005c257829003601f168201915b505050505081525050815260200190600101906200050b565b5050505091505090565b6200060d620007eb565b6001600160a01b03811662000643576000604051631e4fbdf760e01b81526004016200063a9190620009e4565b60405180910390fd5b6200064e8162000822565b50565b7ff0c57e16840df040f15088dc2f81fe391c3923bec73e23a9662efc9c229c6a008054600160401b810460ff16159067ffffffffffffffff16600081158015620006985750825b905060008267ffffffffffffffff166001148015620006b65750303b155b905081158015620006c5575080155b15620006e45760405163f92ee8a960e01b815260040160405180910390fd5b845467ffffffffffffffff1916600117855583156200070f57845460ff60401b1916600160401b1785555b6200071a3362000893565b600062000726620007c7565b80546001600160a01b03808d166001600160a01b03199283161783556001830180548d83169084161790556002830180548c831690841617905560039092018054928a1692909116919091179055508315620007bc57845460ff60401b19168555604051600181527fc7f505b2f371ae2175ee4913f4499e1f2633a7b5936321eed1cdaeb6115181d29060200160405180910390a15b505050505050505050565b7f0f40dde8b99b0722537b774c6ef775b5e5a0af035d95bf9802cd87411f806f0090565b33620007f662000252565b6001600160a01b03161462000250573360405163118cdaa760e01b81526004016200063a9190620009e4565b7f9016d09d72d40fdae2fd8ceac6b6234c7706214fd39c1cd1e609a0528c19930080546001600160a01b031981166001600160a01b03848116918217845560405192169182907f8be0079c531659141344cd1fd0a4f28419497f9722a3daafe3b4186f6b6457e090600090a3505050565b6200089d620008a8565b6200064e81620008f2565b7ff0c57e16840df040f15088dc2f81fe391c3923bec73e23a9662efc9c229c6a0054600160401b900460ff166200025057604051631afcd79f60e31b815260040160405180910390fd5b6200060d620008a8565b6105bf8062000e2483390190565b80356001600160a01b03811681146200092257600080fd5b919050565b6000602082840312156200093a57600080fd5b62000945826200090a565b9392505050565b6000815180845260005b81811015620009745760208185018101518683018201520162000956565b506000602082860101526020601f19601f83011685010191505092915050565b60018060a01b038151168252602081015160208301526000604082015160606040850152620009c760608501826200094c565b949350505050565b60208152600062000945602083018462000994565b6001600160a01b0391909116815260200190565b634e487b7160e01b600052604160045260246000fd5b60006020828403121562000a2157600080fd5b813567ffffffffffffffff8082111562000a3a57600080fd5b818401915084601f83011262000a4f57600080fd5b81358181111562000a645762000a64620009f8565b604051601f8201601f19908116603f0116810190838211818310171562000a8f5762000a8f620009f8565b8160405282815287602084870101111562000aa957600080fd5b826020860160208301376000928101602001929092525095945050505050565b600060208083016020845280855180835260408601915060408160051b87010192506020870160005b8281101562000b2457603f1988860301845262000b1185835162000994565b9450928501929085019060010162000af2565b5092979650505050505050565b6000806000806080858703121562000b4857600080fd5b62000b53856200090a565b935062000b63602086016200090a565b925062000b73604086016200090a565b915062000b83606086016200090a565b905092959194509250565b600181811c9082168062000ba357607f821691505b60208210810362000bc457634e487b7160e01b600052602260045260246000fd5b50919050565b6001600160a01b0383168152604060208201819052600090620009c7908301846200094c565b60006020828403121562000c0357600080fd5b5051919050565b601f82111562000c5a576000816000526020600020601f850160051c8101602086101562000c355750805b601f850160051c820191505b8181101562000c565782815560010162000c41565b5050505b505050565b600019600383901b1c191660019190911b1790565b815167ffffffffffffffff81111562000c915762000c91620009f8565b62000ca98162000ca2845462000b8e565b8462000c0a565b602080601f83116001811462000cdd576000841562000cc85750858301515b62000cd4858262000c5f565b86555062000c56565b600085815260208120601f198616915b8281101562000d0e5788860151825594840194600190910190840162000ced565b508582101562000d2d5787850151600019600388901b60f8161c191681555b5050505050600190811b01905550565b81810362000d49575050565b62000d55825462000b8e565b67ffffffffffffffff81111562000d705762000d70620009f8565b62000d818162000ca2845462000b8e565b6000601f82116001811462000db4576000831562000d9f5750848201545b62000dab848262000c5f565b85555062000e1c565b600085815260209020601f19841690600086815260209020845b8381101562000df0578286015482556001958601959091019060200162000dce565b508583101562000e0f5781850154600019600388901b60f8161c191681555b50505060018360011b0184555b505050505056fe60a06040526040516105bf3803806105bf83398101604081905261002291610387565b61002c828261003e565b506001600160a01b031660805261047e565b610047826100fe565b6040516001600160a01b038316907f1cf3b03a6cf19fa2baba4df148e9dcabedea7f8a5c07840e207e5c089be95d3e90600090a28051156100f2576100ed826001600160a01b0316635c60da1b6040518163ffffffff1660e01b8152600401602060405180830381865afa1580156100c3573d6000803e3d6000fd5b505050506040513d601f19601f820116820180604052508101906100e79190610447565b82610211565b505050565b6100fa610288565b5050565b806001600160a01b03163b60000361013957604051631933b43b60e21b81526001600160a01b03821660048201526024015b60405180910390fd5b807fa3f0ad74e5423aebfd80d3ef4346578335a9a72aeaee59ff6cb3582b35133d5080546001600160a01b0319166001600160a01b0392831617905560408051635c60da1b60e01b81529051600092841691635c60da1b9160048083019260209291908290030181865afa1580156101b5573d6000803e3d6000fd5b505050506040513d601f19601f820116820180604052508101906101d99190610447565b9050806001600160a01b03163b6000036100fa57604051634c9c8ce360e01b81526001600160a01b0382166004820152602401610130565b6060600080846001600160a01b03168460405161022e9190610462565b600060405180830381855af49150503d8060008114610269576040519150601f19603f3d011682016040523d82523d6000602084013e61026e565b606091505b50909250905061027f8583836102a9565b95945050505050565b34156102a75760405163b398979f60e01b815260040160405180910390fd5b565b6060826102be576102b982610308565b610301565b81511580156102d557506001600160a01b0384163b155b156102fe57604051639996b31560e01b81526001600160a01b0385166004820152602401610130565b50805b9392505050565b8051156103185780518082602001fd5b604051630a12f52160e11b815260040160405180910390fd5b80516001600160a01b038116811461034857600080fd5b919050565b634e487b7160e01b600052604160045260246000fd5b60005b8381101561037e578181015183820152602001610366565b50506000910152565b6000806040838503121561039a57600080fd5b6103a383610331565b60208401519092506001600160401b03808211156103c057600080fd5b818501915085601f8301126103d457600080fd5b8151818111156103e6576103e661034d565b604051601f8201601f19908116603f0116810190838211818310171561040e5761040e61034d565b8160405282815288602084870101111561042757600080fd5b610438836020830160208801610363565b80955050505050509250929050565b60006020828403121561045957600080fd5b61030182610331565b60008251610474818460208701610363565b9190910192915050565b6080516101276104986000396000601e01526101276000f3fe6080604052600a600c565b005b60186014601a565b60a0565b565b60007f00000000000000000000000000000000000000000000000000000000000000006001600160a01b0316635c60da1b6040518163ffffffff1660e01b8152600401602060405180830381865afa1580156079573d6000803e3d6000fd5b505050506040513d601f19601f82011682018060405250810190609b919060c3565b905090565b3660008037600080366000845af43d6000803e80801560be573d6000f35b3d6000fd5b60006020828403121560d457600080fd5b81516001600160a01b038116811460ea57600080fd5b939250505056fea26469706673582212205c8a2fcdc6f79c1d43b849e2b03f494652cee222b2ec86046b7caaa1405f985f64736f6c63430008180033a264697066735822122017c7c15864f17f935ba4b07dfce84230d5496c99c61484ce54a59e6c4251d3d464736f6c63430008180033",
  "linkReferences": {},
  "deployedLinkReferences": {}
}