{
  "_format": "hh-sol-artifact-1",
  "contractName": "BuildingGovernance",
  "sourceName": "contracts/buildings/governance/BuildingGovernance.sol",
  "abi": [
    {
      "inputs": [],
      "stateMutability": "nonpayable",
      "type": "constructor"
    },
    {
      "inputs": [
        {
          "internalType": "address",
          "name": "target",
          "type": "address"
        }
      ],
      "name": "AddressEmptyCode",
      "type": "error"
    },
    {
      "inputs": [],
      "name": "CheckpointUnorderedInsertion",
      "type": "error"
    },
    {
      "inputs": [
        {
          "internalType": "address",
          "name": "implementation",
          "type": "address"
        }
      ],
      "name": "ERC1967InvalidImplementation",
      "type": "error"
    },
    {
      "inputs": [],
      "name": "ERC1967NonPayable",
      "type": "error"
    },
    {
      "inputs": [],
      "name": "FailedInnerCall",
      "type": "error"
    },
    {
      "inputs": [
        {
          "internalType": "address",
          "name": "voter",
          "type": "address"
        }
      ],
      "name": "GovernorAlreadyCastVote",
      "type": "error"
    },
    {
      "inputs": [
        {
          "internalType": "uint256",
          "name": "proposalId",
          "type": "uint256"
        }
      ],
      "name": "GovernorAlreadyQueuedProposal",
      "type": "error"
    },
    {
      "inputs": [],
      "name": "GovernorDisabledDeposit",
      "type": "error"
    },
    {
      "inputs": [
        {
          "internalType": "address",
          "name": "proposer",
          "type": "address"
        },
        {
          "internalType": "uint256",
          "name": "votes",
          "type": "uint256"
        },
        {
          "internalType": "uint256",
          "name": "threshold",
          "type": "uint256"
        }
      ],
      "name": "GovernorInsufficientProposerVotes",
      "type": "error"
    },
    {
      "inputs": [
        {
          "internalType": "uint256",
          "name": "targets",
          "type": "uint256"
        },
        {
          "internalType": "uint256",
          "name": "calldatas",
          "type": "uint256"
        },
        {
          "internalType": "uint256",
          "name": "values",
          "type": "uint256"
        }
      ],
      "name": "GovernorInvalidProposalLength",
      "type": "error"
    },
    {
      "inputs": [
        {
          "internalType": "uint256",
          "name": "quorumNumerator",
          "type": "uint256"
        },
        {
          "internalType": "uint256",
          "name": "quorumDenominator",
          "type": "uint256"
        }
      ],
      "name": "GovernorInvalidQuorumFraction",
      "type": "error"
    },
    {
      "inputs": [
        {
          "internalType": "address",
          "name": "voter",
          "type": "address"
        }
      ],
      "name": "GovernorInvalidSignature",
      "type": "error"
    },
    {
      "inputs": [],
      "name": "GovernorInvalidVoteType",
      "type": "error"
    },
    {
      "inputs": [
        {
          "internalType": "uint256",
          "name": "votingPeriod",
          "type": "uint256"
        }
      ],
      "name": "GovernorInvalidVotingPeriod",
      "type": "error"
    },
    {
      "inputs": [
        {
          "internalType": "uint256",
          "name": "proposalId",
          "type": "uint256"
        }
      ],
      "name": "GovernorNonexistentProposal",
      "type": "error"
    },
    {
      "inputs": [
        {
          "internalType": "uint256",
          "name": "proposalId",
          "type": "uint256"
        }
      ],
      "name": "GovernorNotQueuedProposal",
      "type": "error"
    },
    {
      "inputs": [
        {
          "internalType": "address",
          "name": "account",
          "type": "address"
        }
      ],
      "name": "GovernorOnlyExecutor",
      "type": "error"
    },
    {
      "inputs": [
        {
          "internalType": "address",
          "name": "account",
          "type": "address"
        }
      ],
      "name": "GovernorOnlyProposer",
      "type": "error"
    },
    {
      "inputs": [],
      "name": "GovernorQueueNotImplemented",
      "type": "error"
    },
    {
      "inputs": [
        {
          "internalType": "address",
          "name": "proposer",
          "type": "address"
        }
      ],
      "name": "GovernorRestrictedProposer",
      "type": "error"
    },
    {
      "inputs": [
        {
          "internalType": "uint256",
          "name": "proposalId",
          "type": "uint256"
        },
        {
          "internalType": "enum IGovernor.ProposalState",
          "name": "current",
          "type": "uint8"
        },
        {
          "internalType": "bytes32",
          "name": "expectedStates",
          "type": "bytes32"
        }
      ],
      "name": "GovernorUnexpectedProposalState",
      "type": "error"
    },
    {
      "inputs": [
        {
          "internalType": "address",
          "name": "account",
          "type": "address"
        },
        {
          "internalType": "uint256",
          "name": "currentNonce",
          "type": "uint256"
        }
      ],
      "name": "InvalidAccountNonce",
      "type": "error"
    },
    {
      "inputs": [],
      "name": "InvalidInitialization",
      "type": "error"
    },
    {
      "inputs": [],
      "name": "NotInitializing",
      "type": "error"
    },
    {
      "inputs": [
        {
          "internalType": "address",
          "name": "owner",
          "type": "address"
        }
      ],
      "name": "OwnableInvalidOwner",
      "type": "error"
    },
    {
      "inputs": [
        {
          "internalType": "address",
          "name": "account",
          "type": "address"
        }
      ],
      "name": "OwnableUnauthorizedAccount",
      "type": "error"
    },
    {
      "inputs": [],
      "name": "QueueEmpty",
      "type": "error"
    },
    {
      "inputs": [],
      "name": "QueueFull",
      "type": "error"
    },
    {
      "inputs": [
        {
          "internalType": "uint8",
          "name": "bits",
          "type": "uint8"
        },
        {
          "internalType": "uint256",
          "name": "value",
          "type": "uint256"
        }
      ],
      "name": "SafeCastOverflowedUintDowncast",
      "type": "error"
    },
    {
      "inputs": [],
      "name": "UUPSUnauthorizedCallContext",
      "type": "error"
    },
    {
      "inputs": [
        {
          "internalType": "bytes32",
          "name": "slot",
          "type": "bytes32"
        }
      ],
      "name": "UUPSUnsupportedProxiableUUID",
      "type": "error"
    },
    {
      "anonymous": false,
      "inputs": [],
      "name": "EIP712DomainChanged",
      "type": "event"
    },
    {
      "anonymous": false,
      "inputs": [
        {
          "indexed": false,
          "internalType": "uint64",
          "name": "version",
          "type": "uint64"
        }
      ],
      "name": "Initialized",
      "type": "event"
    },
    {
      "anonymous": false,
      "inputs": [
        {
          "indexed": true,
          "internalType": "address",
          "name": "previousOwner",
          "type": "address"
        },
        {
          "indexed": true,
          "internalType": "address",
          "name": "newOwner",
          "type": "address"
        }
      ],
      "name": "OwnershipTransferred",
      "type": "event"
    },
    {
      "anonymous": false,
      "inputs": [
        {
          "indexed": false,
          "internalType": "uint256",
          "name": "proposalId",
          "type": "uint256"
        }
      ],
      "name": "ProposalCanceled",
      "type": "event"
    },
    {
      "anonymous": false,
      "inputs": [
        {
          "indexed": false,
          "internalType": "uint256",
          "name": "proposalId",
          "type": "uint256"
        },
        {
          "indexed": false,
          "internalType": "address",
          "name": "proposer",
          "type": "address"
        },
        {
          "indexed": false,
          "internalType": "address[]",
          "name": "targets",
          "type": "address[]"
        },
        {
          "indexed": false,
          "internalType": "uint256[]",
          "name": "values",
          "type": "uint256[]"
        },
        {
          "indexed": false,
          "internalType": "string[]",
          "name": "signatures",
          "type": "string[]"
        },
        {
          "indexed": false,
          "internalType": "bytes[]",
          "name": "calldatas",
          "type": "bytes[]"
        },
        {
          "indexed": false,
          "internalType": "uint256",
          "name": "voteStart",
          "type": "uint256"
        },
        {
          "indexed": false,
          "internalType": "uint256",
          "name": "voteEnd",
          "type": "uint256"
        },
        {
          "indexed": false,
          "internalType": "string",
          "name": "description",
          "type": "string"
        }
      ],
      "name": "ProposalCreated",
      "type": "event"
    },
    {
      "anonymous": false,
      "inputs": [
        {
          "indexed": false,
          "internalType": "enum BuildingGovernanceStorage.ProposalType",
          "name": "proposalType",
          "type": "uint8"
        },
        {
          "indexed": false,
          "internalType": "uint256",
          "name": "id",
          "type": "uint256"
        },
        {
          "indexed": false,
          "internalType": "address",
          "name": "proposer",
          "type": "address"
        }
      ],
      "name": "ProposalCreated",
      "type": "event"
    },
    {
      "anonymous": false,
      "inputs": [
        {
          "indexed": false,
          "internalType": "uint256",
          "name": "proposalId",
          "type": "uint256"
        }
      ],
      "name": "ProposalExecuted",
      "type": "event"
    },
    {
      "anonymous": false,
      "inputs": [
        {
          "indexed": false,
          "internalType": "uint256",
          "name": "proposalId",
          "type": "uint256"
        },
        {
          "indexed": false,
          "internalType": "uint256",
          "name": "etaSeconds",
          "type": "uint256"
        }
      ],
      "name": "ProposalQueued",
      "type": "event"
    },
    {
      "anonymous": false,
      "inputs": [
        {
          "indexed": false,
          "internalType": "uint256",
          "name": "oldQuorumNumerator",
          "type": "uint256"
        },
        {
          "indexed": false,
          "internalType": "uint256",
          "name": "newQuorumNumerator",
          "type": "uint256"
        }
      ],
      "name": "QuorumNumeratorUpdated",
      "type": "event"
    },
    {
      "anonymous": false,
      "inputs": [
        {
          "indexed": true,
          "internalType": "address",
          "name": "implementation",
          "type": "address"
        }
      ],
      "name": "Upgraded",
      "type": "event"
    },
    {
      "anonymous": false,
      "inputs": [
        {
          "indexed": true,
          "internalType": "address",
          "name": "voter",
          "type": "address"
        },
        {
          "indexed": false,
          "internalType": "uint256",
          "name": "proposalId",
          "type": "uint256"
        },
        {
          "indexed": false,
          "internalType": "uint8",
          "name": "support",
          "type": "uint8"
        },
        {
          "indexed": false,
          "internalType": "uint256",
          "name": "weight",
          "type": "uint256"
        },
        {
          "indexed": false,
          "internalType": "string",
          "name": "reason",
          "type": "string"
        }
      ],
      "name": "VoteCast",
      "type": "event"
    },
    {
      "anonymous": false,
      "inputs": [
        {
          "indexed": true,
          "internalType": "address",
          "name": "voter",
          "type": "address"
        },
        {
          "indexed": false,
          "internalType": "uint256",
          "name": "proposalId",
          "type": "uint256"
        },
        {
          "indexed": false,
          "internalType": "uint8",
          "name": "support",
          "type": "uint8"
        },
        {
          "indexed": false,
          "internalType": "uint256",
          "name": "weight",
          "type": "uint256"
        },
        {
          "indexed": false,
          "internalType": "string",
          "name": "reason",
          "type": "string"
        },
        {
          "indexed": false,
          "internalType": "bytes",
          "name": "params",
          "type": "bytes"
        }
      ],
      "name": "VoteCastWithParams",
      "type": "event"
    },
    {
      "inputs": [],
      "name": "BALLOT_TYPEHASH",
      "outputs": [
        {
          "internalType": "bytes32",
          "name": "",
          "type": "bytes32"
        }
      ],
      "stateMutability": "view",
      "type": "function"
    },
    {
      "inputs": [],
      "name": "CLOCK_MODE",
      "outputs": [
        {
          "internalType": "string",
          "name": "",
          "type": "string"
        }
      ],
      "stateMutability": "view",
      "type": "function"
    },
    {
      "inputs": [],
      "name": "COUNTING_MODE",
      "outputs": [
        {
          "internalType": "string",
          "name": "",
          "type": "string"
        }
      ],
      "stateMutability": "pure",
      "type": "function"
    },
    {
      "inputs": [],
      "name": "EXTENDED_BALLOT_TYPEHASH",
      "outputs": [
        {
          "internalType": "bytes32",
          "name": "",
          "type": "bytes32"
        }
      ],
      "stateMutability": "view",
      "type": "function"
    },
    {
      "inputs": [],
      "name": "UPGRADE_INTERFACE_VERSION",
      "outputs": [
        {
          "internalType": "string",
          "name": "",
          "type": "string"
        }
      ],
      "stateMutability": "view",
      "type": "function"
    },
    {
      "inputs": [
        {
          "internalType": "address[]",
          "name": "targets",
          "type": "address[]"
        },
        {
          "internalType": "uint256[]",
          "name": "values",
          "type": "uint256[]"
        },
        {
          "internalType": "bytes[]",
          "name": "calldatas",
          "type": "bytes[]"
        },
        {
          "internalType": "bytes32",
          "name": "descriptionHash",
          "type": "bytes32"
        }
      ],
      "name": "cancel",
      "outputs": [
        {
          "internalType": "uint256",
          "name": "",
          "type": "uint256"
        }
      ],
      "stateMutability": "nonpayable",
      "type": "function"
    },
    {
      "inputs": [
        {
          "internalType": "uint256",
          "name": "proposalId",
          "type": "uint256"
        },
        {
          "internalType": "uint8",
          "name": "support",
          "type": "uint8"
        }
      ],
      "name": "castVote",
      "outputs": [
        {
          "internalType": "uint256",
          "name": "",
          "type": "uint256"
        }
      ],
      "stateMutability": "nonpayable",
      "type": "function"
    },
    {
      "inputs": [
        {
          "internalType": "uint256",
          "name": "proposalId",
          "type": "uint256"
        },
        {
          "internalType": "uint8",
          "name": "support",
          "type": "uint8"
        },
        {
          "internalType": "address",
          "name": "voter",
          "type": "address"
        },
        {
          "internalType": "bytes",
          "name": "signature",
          "type": "bytes"
        }
      ],
      "name": "castVoteBySig",
      "outputs": [
        {
          "internalType": "uint256",
          "name": "",
          "type": "uint256"
        }
      ],
      "stateMutability": "nonpayable",
      "type": "function"
    },
    {
      "inputs": [
        {
          "internalType": "uint256",
          "name": "proposalId",
          "type": "uint256"
        },
        {
          "internalType": "uint8",
          "name": "support",
          "type": "uint8"
        },
        {
          "internalType": "string",
          "name": "reason",
          "type": "string"
        }
      ],
      "name": "castVoteWithReason",
      "outputs": [
        {
          "internalType": "uint256",
          "name": "",
          "type": "uint256"
        }
      ],
      "stateMutability": "nonpayable",
      "type": "function"
    },
    {
      "inputs": [
        {
          "internalType": "uint256",
          "name": "proposalId",
          "type": "uint256"
        },
        {
          "internalType": "uint8",
          "name": "support",
          "type": "uint8"
        },
        {
          "internalType": "string",
          "name": "reason",
          "type": "string"
        },
        {
          "internalType": "bytes",
          "name": "params",
          "type": "bytes"
        }
      ],
      "name": "castVoteWithReasonAndParams",
      "outputs": [
        {
          "internalType": "uint256",
          "name": "",
          "type": "uint256"
        }
      ],
      "stateMutability": "nonpayable",
      "type": "function"
    },
    {
      "inputs": [
        {
          "internalType": "uint256",
          "name": "proposalId",
          "type": "uint256"
        },
        {
          "internalType": "uint8",
          "name": "support",
          "type": "uint8"
        },
        {
          "internalType": "address",
          "name": "voter",
          "type": "address"
        },
        {
          "internalType": "string",
          "name": "reason",
          "type": "string"
        },
        {
          "internalType": "bytes",
          "name": "params",
          "type": "bytes"
        },
        {
          "internalType": "bytes",
          "name": "signature",
          "type": "bytes"
        }
      ],
      "name": "castVoteWithReasonAndParamsBySig",
      "outputs": [
        {
          "internalType": "uint256",
          "name": "",
          "type": "uint256"
        }
      ],
      "stateMutability": "nonpayable",
      "type": "function"
    },
    {
      "inputs": [],
      "name": "clock",
      "outputs": [
        {
          "internalType": "uint48",
          "name": "",
          "type": "uint48"
        }
      ],
      "stateMutability": "view",
      "type": "function"
    },
    {
      "inputs": [
        {
          "internalType": "uint256",
          "name": "amount",
          "type": "uint256"
        },
        {
          "internalType": "string",
          "name": "description",
          "type": "string"
        }
      ],
      "name": "createChangeReserveProposal",
      "outputs": [
        {
          "internalType": "uint256",
          "name": "proposalId",
          "type": "uint256"
        }
      ],
      "stateMutability": "nonpayable",
      "type": "function"
    },
    {
      "inputs": [
        {
          "internalType": "uint256",
          "name": "amount",
          "type": "uint256"
        },
        {
          "internalType": "address",
          "name": "to",
          "type": "address"
        },
        {
          "internalType": "string",
          "name": "description",
          "type": "string"
        }
      ],
      "name": "createPaymentProposal",
      "outputs": [
        {
          "internalType": "uint256",
          "name": "proposalId",
          "type": "uint256"
        }
      ],
      "stateMutability": "nonpayable",
      "type": "function"
    },
    {
      "inputs": [
        {
          "internalType": "enum BuildingGovernanceStorage.ProposalLevel",
          "name": "level",
          "type": "uint8"
        },
        {
          "internalType": "string",
          "name": "description",
          "type": "string"
        }
      ],
      "name": "createTextProposal",
      "outputs": [
        {
          "internalType": "uint256",
          "name": "proposalId",
          "type": "uint256"
        }
      ],
      "stateMutability": "nonpayable",
      "type": "function"
    },
    {
      "inputs": [],
      "name": "eip712Domain",
      "outputs": [
        {
          "internalType": "bytes1",
          "name": "fields",
          "type": "bytes1"
        },
        {
          "internalType": "string",
          "name": "name",
          "type": "string"
        },
        {
          "internalType": "string",
          "name": "version",
          "type": "string"
        },
        {
          "internalType": "uint256",
          "name": "chainId",
          "type": "uint256"
        },
        {
          "internalType": "address",
          "name": "verifyingContract",
          "type": "address"
        },
        {
          "internalType": "bytes32",
          "name": "salt",
          "type": "bytes32"
        },
        {
          "internalType": "uint256[]",
          "name": "extensions",
          "type": "uint256[]"
        }
      ],
      "stateMutability": "view",
      "type": "function"
    },
    {
      "inputs": [
        {
          "internalType": "address[]",
          "name": "targets",
          "type": "address[]"
        },
        {
          "internalType": "uint256[]",
          "name": "values",
          "type": "uint256[]"
        },
        {
          "internalType": "bytes[]",
          "name": "calldatas",
          "type": "bytes[]"
        },
        {
          "internalType": "bytes32",
          "name": "descriptionHash",
          "type": "bytes32"
        }
      ],
      "name": "execute",
      "outputs": [
        {
          "internalType": "uint256",
          "name": "",
          "type": "uint256"
        }
      ],
      "stateMutability": "payable",
      "type": "function"
    },
    {
      "inputs": [
        {
          "internalType": "address",
          "name": "account",
          "type": "address"
        },
        {
          "internalType": "uint256",
          "name": "timepoint",
          "type": "uint256"
        }
      ],
      "name": "getVotes",
      "outputs": [
        {
          "internalType": "uint256",
          "name": "",
          "type": "uint256"
        }
      ],
      "stateMutability": "view",
      "type": "function"
    },
    {
      "inputs": [
        {
          "internalType": "address",
          "name": "account",
          "type": "address"
        },
        {
          "internalType": "uint256",
          "name": "timepoint",
          "type": "uint256"
        },
        {
          "internalType": "bytes",
          "name": "params",
          "type": "bytes"
        }
      ],
      "name": "getVotesWithParams",
      "outputs": [
        {
          "internalType": "uint256",
          "name": "",
          "type": "uint256"
        }
      ],
      "stateMutability": "view",
      "type": "function"
    },
    {
      "inputs": [
        {
          "internalType": "uint256",
          "name": "proposalId",
          "type": "uint256"
        },
        {
          "internalType": "address",
          "name": "account",
          "type": "address"
        }
      ],
      "name": "hasVoted",
      "outputs": [
        {
          "internalType": "bool",
          "name": "",
          "type": "bool"
        }
      ],
      "stateMutability": "view",
      "type": "function"
    },
    {
      "inputs": [
        {
          "internalType": "address[]",
          "name": "targets",
          "type": "address[]"
        },
        {
          "internalType": "uint256[]",
          "name": "values",
          "type": "uint256[]"
        },
        {
          "internalType": "bytes[]",
          "name": "calldatas",
          "type": "bytes[]"
        },
        {
          "internalType": "bytes32",
          "name": "descriptionHash",
          "type": "bytes32"
        }
      ],
      "name": "hashProposal",
      "outputs": [
        {
          "internalType": "uint256",
          "name": "",
          "type": "uint256"
        }
      ],
      "stateMutability": "pure",
      "type": "function"
    },
    {
      "inputs": [
        {
          "internalType": "contract IVotes",
          "name": "_token",
          "type": "address"
        },
        {
          "internalType": "string",
          "name": "name",
          "type": "string"
        },
        {
          "internalType": "address",
          "name": "initialOwner",
          "type": "address"
        },
        {
          "internalType": "address",
          "name": "treasury",
          "type": "address"
        }
      ],
      "name": "initialize",
      "outputs": [],
      "stateMutability": "nonpayable",
      "type": "function"
    },
    {
      "inputs": [],
      "name": "name",
      "outputs": [
        {
          "internalType": "string",
          "name": "",
          "type": "string"
        }
      ],
      "stateMutability": "view",
      "type": "function"
    },
    {
      "inputs": [
        {
          "internalType": "address",
          "name": "owner",
          "type": "address"
        }
      ],
      "name": "nonces",
      "outputs": [
        {
          "internalType": "uint256",
          "name": "",
          "type": "uint256"
        }
      ],
      "stateMutability": "view",
      "type": "function"
    },
    {
      "inputs": [
        {
          "internalType": "address",
          "name": "",
          "type": "address"
        },
        {
          "internalType": "address",
          "name": "",
          "type": "address"
        },
        {
          "internalType": "uint256[]",
          "name": "",
          "type": "uint256[]"
        },
        {
          "internalType": "uint256[]",
          "name": "",
          "type": "uint256[]"
        },
        {
          "internalType": "bytes",
          "name": "",
          "type": "bytes"
        }
      ],
      "name": "onERC1155BatchReceived",
      "outputs": [
        {
          "internalType": "bytes4",
          "name": "",
          "type": "bytes4"
        }
      ],
      "stateMutability": "nonpayable",
      "type": "function"
    },
    {
      "inputs": [
        {
          "internalType": "address",
          "name": "",
          "type": "address"
        },
        {
          "internalType": "address",
          "name": "",
          "type": "address"
        },
        {
          "internalType": "uint256",
          "name": "",
          "type": "uint256"
        },
        {
          "internalType": "uint256",
          "name": "",
          "type": "uint256"
        },
        {
          "internalType": "bytes",
          "name": "",
          "type": "bytes"
        }
      ],
      "name": "onERC1155Received",
      "outputs": [
        {
          "internalType": "bytes4",
          "name": "",
          "type": "bytes4"
        }
      ],
      "stateMutability": "nonpayable",
      "type": "function"
    },
    {
      "inputs": [
        {
          "internalType": "address",
          "name": "",
          "type": "address"
        },
        {
          "internalType": "address",
          "name": "",
          "type": "address"
        },
        {
          "internalType": "uint256",
          "name": "",
          "type": "uint256"
        },
        {
          "internalType": "bytes",
          "name": "",
          "type": "bytes"
        }
      ],
      "name": "onERC721Received",
      "outputs": [
        {
          "internalType": "bytes4",
          "name": "",
          "type": "bytes4"
        }
      ],
      "stateMutability": "nonpayable",
      "type": "function"
    },
    {
      "inputs": [],
      "name": "owner",
      "outputs": [
        {
          "internalType": "address",
          "name": "",
          "type": "address"
        }
      ],
      "stateMutability": "view",
      "type": "function"
    },
    {
      "inputs": [
        {
          "internalType": "uint256",
          "name": "proposalId",
          "type": "uint256"
        }
      ],
      "name": "proposalDeadline",
      "outputs": [
        {
          "internalType": "uint256",
          "name": "",
          "type": "uint256"
        }
      ],
      "stateMutability": "view",
      "type": "function"
    },
    {
      "inputs": [
        {
          "internalType": "uint256",
          "name": "proposalId",
          "type": "uint256"
        }
      ],
      "name": "proposalEta",
      "outputs": [
        {
          "internalType": "uint256",
          "name": "",
          "type": "uint256"
        }
      ],
      "stateMutability": "view",
      "type": "function"
    },
    {
      "inputs": [
        {
          "internalType": "uint256",
          "name": "",
          "type": "uint256"
        }
      ],
      "name": "proposalNeedsQueuing",
      "outputs": [
        {
          "internalType": "bool",
          "name": "",
          "type": "bool"
        }
      ],
      "stateMutability": "view",
      "type": "function"
    },
    {
      "inputs": [
        {
          "internalType": "uint256",
          "name": "proposalId",
          "type": "uint256"
        }
      ],
      "name": "proposalProposer",
      "outputs": [
        {
          "internalType": "address",
          "name": "",
          "type": "address"
        }
      ],
      "stateMutability": "view",
      "type": "function"
    },
    {
      "inputs": [
        {
          "internalType": "uint256",
          "name": "proposalId",
          "type": "uint256"
        }
      ],
      "name": "proposalSnapshot",
      "outputs": [
        {
          "internalType": "uint256",
          "name": "",
          "type": "uint256"
        }
      ],
      "stateMutability": "view",
      "type": "function"
    },
    {
      "inputs": [],
      "name": "proposalThreshold",
      "outputs": [
        {
          "internalType": "uint256",
          "name": "",
          "type": "uint256"
        }
      ],
      "stateMutability": "view",
      "type": "function"
    },
    {
      "inputs": [
        {
          "internalType": "uint256",
          "name": "proposalId",
          "type": "uint256"
        }
      ],
      "name": "proposalVotes",
      "outputs": [
        {
          "internalType": "uint256",
          "name": "againstVotes",
          "type": "uint256"
        },
        {
          "internalType": "uint256",
          "name": "forVotes",
          "type": "uint256"
        },
        {
          "internalType": "uint256",
          "name": "abstainVotes",
          "type": "uint256"
        }
      ],
      "stateMutability": "view",
      "type": "function"
    },
    {
      "inputs": [
        {
          "internalType": "address[]",
          "name": "targets",
          "type": "address[]"
        },
        {
          "internalType": "uint256[]",
          "name": "values",
          "type": "uint256[]"
        },
        {
          "internalType": "bytes[]",
          "name": "calldatas",
          "type": "bytes[]"
        },
        {
          "internalType": "string",
          "name": "description",
          "type": "string"
        }
      ],
      "name": "propose",
      "outputs": [
        {
          "internalType": "uint256",
          "name": "",
          "type": "uint256"
        }
      ],
      "stateMutability": "nonpayable",
      "type": "function"
    },
    {
      "inputs": [],
      "name": "proxiableUUID",
      "outputs": [
        {
          "internalType": "bytes32",
          "name": "",
          "type": "bytes32"
        }
      ],
      "stateMutability": "view",
      "type": "function"
    },
    {
      "inputs": [
        {
          "internalType": "address[]",
          "name": "targets",
          "type": "address[]"
        },
        {
          "internalType": "uint256[]",
          "name": "values",
          "type": "uint256[]"
        },
        {
          "internalType": "bytes[]",
          "name": "calldatas",
          "type": "bytes[]"
        },
        {
          "internalType": "bytes32",
          "name": "descriptionHash",
          "type": "bytes32"
        }
      ],
      "name": "queue",
      "outputs": [
        {
          "internalType": "uint256",
          "name": "",
          "type": "uint256"
        }
      ],
      "stateMutability": "nonpayable",
      "type": "function"
    },
    {
      "inputs": [
        {
          "internalType": "uint256",
          "name": "blockNumber",
          "type": "uint256"
        }
      ],
      "name": "quorum",
      "outputs": [
        {
          "internalType": "uint256",
          "name": "",
          "type": "uint256"
        }
      ],
      "stateMutability": "view",
      "type": "function"
    },
    {
      "inputs": [],
      "name": "quorumDenominator",
      "outputs": [
        {
          "internalType": "uint256",
          "name": "",
          "type": "uint256"
        }
      ],
      "stateMutability": "view",
      "type": "function"
    },
    {
      "inputs": [
        {
          "internalType": "uint256",
          "name": "timepoint",
          "type": "uint256"
        }
      ],
      "name": "quorumNumerator",
      "outputs": [
        {
          "internalType": "uint256",
          "name": "",
          "type": "uint256"
        }
      ],
      "stateMutability": "view",
      "type": "function"
    },
    {
      "inputs": [],
      "name": "quorumNumerator",
      "outputs": [
        {
          "internalType": "uint256",
          "name": "",
          "type": "uint256"
        }
      ],
      "stateMutability": "view",
      "type": "function"
    },
    {
      "inputs": [
        {
          "internalType": "address",
          "name": "target",
          "type": "address"
        },
        {
          "internalType": "uint256",
          "name": "value",
          "type": "uint256"
        },
        {
          "internalType": "bytes",
          "name": "data",
          "type": "bytes"
        }
      ],
      "name": "relay",
      "outputs": [],
      "stateMutability": "payable",
      "type": "function"
    },
    {
      "inputs": [],
      "name": "renounceOwnership",
      "outputs": [],
      "stateMutability": "nonpayable",
      "type": "function"
    },
    {
      "inputs": [
        {
          "internalType": "uint256",
          "name": "proposalId",
          "type": "uint256"
        }
      ],
      "name": "state",
      "outputs": [
        {
          "internalType": "enum IGovernor.ProposalState",
          "name": "",
          "type": "uint8"
        }
      ],
      "stateMutability": "view",
      "type": "function"
    },
    {
      "inputs": [
        {
          "internalType": "bytes4",
          "name": "interfaceId",
          "type": "bytes4"
        }
      ],
      "name": "supportsInterface",
      "outputs": [
        {
          "internalType": "bool",
          "name": "",
          "type": "bool"
        }
      ],
      "stateMutability": "view",
      "type": "function"
    },
    {
      "inputs": [],
      "name": "token",
      "outputs": [
        {
          "internalType": "contract IERC5805",
          "name": "",
          "type": "address"
        }
      ],
      "stateMutability": "view",
      "type": "function"
    },
    {
      "inputs": [
        {
          "internalType": "address",
          "name": "newOwner",
          "type": "address"
        }
      ],
      "name": "transferOwnership",
      "outputs": [],
      "stateMutability": "nonpayable",
      "type": "function"
    },
    {
      "inputs": [
        {
          "internalType": "uint256",
          "name": "newQuorumNumerator",
          "type": "uint256"
        }
      ],
      "name": "updateQuorumNumerator",
      "outputs": [],
      "stateMutability": "nonpayable",
      "type": "function"
    },
    {
      "inputs": [
        {
          "internalType": "address",
          "name": "newImplementation",
          "type": "address"
        },
        {
          "internalType": "bytes",
          "name": "data",
          "type": "bytes"
        }
      ],
      "name": "upgradeToAndCall",
      "outputs": [],
      "stateMutability": "payable",
      "type": "function"
    },
    {
      "inputs": [],
      "name": "version",
      "outputs": [
        {
          "internalType": "string",
          "name": "",
          "type": "string"
        }
      ],
      "stateMutability": "view",
      "type": "function"
    },
    {
      "inputs": [],
      "name": "votingDelay",
      "outputs": [
        {
          "internalType": "uint256",
          "name": "",
          "type": "uint256"
        }
      ],
      "stateMutability": "pure",
      "type": "function"
    },
    {
      "inputs": [],
      "name": "votingPeriod",
      "outputs": [
        {
          "internalType": "uint256",
          "name": "",
          "type": "uint256"
        }
      ],
      "stateMutability": "pure",
      "type": "function"
    },
    {
      "stateMutability": "payable",
      "type": "receive"
    }
  ],
  "bytecode": "0x60a0604052306080523480156200001557600080fd5b506200002062000026565b620000da565b7ff0c57e16840df040f15088dc2f81fe391c3923bec73e23a9662efc9c229c6a00805468010000000000000000900460ff1615620000775760405163f92ee8a960e01b815260040160405180910390fd5b80546001600160401b0390811614620000d75780546001600160401b0319166001600160401b0390811782556040519081527fc7f505b2f371ae2175ee4913f4499e1f2633a7b5936321eed1cdaeb6115181d29060200160405180910390a15b50565b6080516148cf620001046000396000818161206d0152818161209601526121d301526148cf6000f3fe6080604052600436106102ce5760003560e01c80637ecebe001161017b578063b8f88d64116100d7578063eb9019d411610085578063eb9019d41461091e578063ec5827801461093e578063f0a75c631461095e578063f23a6e611461097e578063f2fde38b146109aa578063f8ce560a146109ca578063fc0c546a146109ea57600080fd5b8063b8f88d6414610805578063bc197c8114610825578063c01f9e3714610851578063c28bc2fa14610871578063c59057e414610884578063dd4e2ba5146108a4578063deaaa7cc146108ea57600080fd5b80639a802a6d116101345780639a802a6d1461073e578063a277136e1461075e578063a7713a701461077e578063a9a9529414610793578063ab58fb8e146107b4578063ad3cb1cc146107d4578063b58131b01461046957600080fd5b80637ecebe001461064c57806384b0196e146106a15780638da5cb5b146106c95780638ff262e3146106de57806391ddadf4146106fe57806397c3d3341461072a57600080fd5b8063452115d61161022a57806356781388116101e357806356781388146105775780635b8d0e0d146105975780635f398a14146105b757806360c4247f146105d7578063715018a6146105f75780637b3c71d31461060c5780637d5e81e21461062c57600080fd5b8063452115d6146104ca5780634bf5d7e9146104ea5780634f1ef286146104ff57806352d1902d14610512578063544ffc9c1461052757806354fd4d501461056257600080fd5b8063160cbed711610287578063160cbed7146103e25780632656227d146104025780632d63f693146104155780632fe3e261146104355780633932abb1146104695780633e4f49e61461047d57806343859632146104aa57600080fd5b806301ffc9a7146102dc57806302a251a31461031157806306f3f9e61461032f57806306fdde031461034f578063143489d014610371578063150b7a021461039e57600080fd5b366102d757005b005b600080fd5b3480156102e857600080fd5b506102fc6102f73660046136a5565b6109ff565b60405190151581526020015b60405180910390f35b34801561031d57600080fd5b5060965b604051908152602001610308565b34801561033b57600080fd5b506102d561034a3660046136cf565b610a51565b34801561035b57600080fd5b50610364610a65565b6040516103089190613738565b34801561037d57600080fd5b5061039161038c3660046136cf565b610b06565b604051610308919061374b565b3480156103aa57600080fd5b506103c96103b9366004613837565b630a85bd0160e11b949350505050565b6040516001600160e01b03199091168152602001610308565b3480156103ee57600080fd5b506103216103fd366004613a0b565b610b2f565b610321610410366004613a0b565b610b86565b34801561042157600080fd5b506103216104303660046136cf565b610cc2565b34801561044157600080fd5b506103217f3e83946653575f9a39005e1545185629e92736b7528ab20ca3816f315424a81181565b34801561047557600080fd5b506000610321565b34801561048957600080fd5b5061049d6104983660046136cf565b610cf1565b6040516103089190613ac4565b3480156104b657600080fd5b506102fc6104c5366004613ad2565b610e29565b3480156104d657600080fd5b506103216104e5366004613a0b565b610e63565b3480156104f657600080fd5b50610364610ed5565b6102d561050d366004613b02565b610f7e565b34801561051e57600080fd5b50610321610f9d565b34801561053357600080fd5b506105476105423660046136cf565b610fba565b60408051938452602084019290925290820152606001610308565b34801561056e57600080fd5b50610364610fed565b34801561058357600080fd5b50610321610592366004613b62565b611008565b3480156105a357600080fd5b506103216105b2366004613bd6565b611031565b3480156105c357600080fd5b506103216105d2366004613c90565b611169565b3480156105e357600080fd5b506103216105f23660046136cf565b6111be565b34801561060357600080fd5b506102d5611257565b34801561061857600080fd5b50610321610627366004613d13565b61126b565b34801561063857600080fd5b50610321610647366004613d6c565b6112b3565b34801561065857600080fd5b50610321610667366004613e0c565b6001600160a01b031660009081527f5ab42ced628888259c08ac98db1eb0cf702fc1501344311d8b100cd1bfe4bb00602052604090205490565b3480156106ad57600080fd5b506106b6611323565b6040516103089796959493929190613e65565b3480156106d557600080fd5b506103916113cc565b3480156106ea57600080fd5b506103216106f9366004613ed5565b611401565b34801561070a57600080fd5b506107136114ac565b60405165ffffffffffff9091168152602001610308565b34801561073657600080fd5b506064610321565b34801561074a57600080fd5b50610321610759366004613f26565b6114bc565b34801561076a57600080fd5b50610321610779366004613f7e565b6114d3565b34801561078a57600080fd5b50610321611656565b34801561079f57600080fd5b506102fc6107ae3660046136cf565b50600090565b3480156107c057600080fd5b506103216107cf3660046136cf565b61167b565b3480156107e057600080fd5b50610364604051806040016040528060058152602001640352e302e360dc1b81525081565b34801561081157600080fd5b506102d5610820366004613fc0565b6116aa565b34801561083157600080fd5b506103c9610840366004614034565b63bc197c8160e01b95945050505050565b34801561085d57600080fd5b5061032161086c3660046136cf565b61180b565b6102d561087f3660046140c7565b61185f565b34801561089057600080fd5b5061032161089f366004613a0b565b6118df565b3480156108b057600080fd5b506040805180820190915260208082527f737570706f72743d627261766f2671756f72756d3d666f722c6162737461696e90820152610364565b3480156108f657600080fd5b506103217ff2aad550cf55f045cb27e9c559f9889fdfb6e6cdaa032301d6ea397784ae51d781565b34801561092a57600080fd5b5061032161093936600461410a565b611919565b34801561094a57600080fd5b50610321610959366004614136565b61193a565b34801561096a57600080fd5b50610321610979366004614158565b611a7a565b34801561098a57600080fd5b506103c9610999366004614188565b63f23a6e6160e01b95945050505050565b3480156109b657600080fd5b506102d56109c5366004613e0c565b611bec565b3480156109d657600080fd5b506103216109e53660046136cf565b611c27565b3480156109f657600080fd5b50610391611c32565b60006001600160e01b031982166332a2ad4360e11b1480610a3057506001600160e01b03198216630271189760e51b145b80610a4b57506301ffc9a760e01b6001600160e01b03198316145b92915050565b610a59611c5b565b610a6281611c9f565b50565b60606000610a71611d41565b9050806000018054610a82906141f0565b80601f0160208091040260200160405190810160405280929190818152602001828054610aae906141f0565b8015610afb5780601f10610ad057610100808354040283529160200191610afb565b820191906000526020600020905b815481529060010190602001808311610ade57829003601f168201915b505050505091505090565b600080610b11611d41565b6000938452600101602052505060409020546001600160a01b031690565b600080610b3a611d41565b90506000610b4a878787876118df565b9050610b5f81610b5a6004611d65565b611d88565b506000604051634844252360e11b815260040160405180910390fd5b509695505050505050565b600080610b91611d41565b90506000610ba1878787876118df565b9050610bc181610bb16005611d65565b610bbb6004611d65565b17611d88565b5060008181526001830160205260409020805460ff60f01b1916600160f01b17905530610beb3090565b6001600160a01b031614610c775760005b8751811015610c7557306001600160a01b0316888281518110610c2157610c2161422a565b60200260200101516001600160a01b031603610c6d57610c6d868281518110610c4c57610c4c61422a565b60200260200101518051906020012084600201611dc790919063ffffffff16565b600101610bfc565b505b610c848188888888611e38565b6040518181527f712ae1383f79ac853f8d882153778e0260ef8f03b504e2866e0593e04d2b291f906020015b60405180910390a19695505050505050565b600080610ccd611d41565b600093845260010160205250506040902054600160a01b900465ffffffffffff1690565b600080610cfc611d41565b6000848152600182016020526040902080549192509060ff600160f01b8204811691600160f81b9004168115610d385750600795945050505050565b8015610d4a5750600295945050505050565b6000610d5587610cc2565b905080600003610d8057604051636ad0607560e01b8152600481018890526024015b60405180910390fd5b6000610d8a6114ac565b65ffffffffffff169050808210610da957506000979650505050505050565b6000610db48961180b565b9050818110610dcc5750600198975050505050505050565b610dd589611f12565b1580610de75750610de589611f5a565b155b15610dfb5750600398975050505050505050565b610e048961167b565b600003610e1a5750600498975050505050505050565b50600598975050505050505050565b600080610e34611f7f565b6000858152602091825260408082206001600160a01b0387168352600301909252205460ff1691505092915050565b600080610e72868686866118df565b9050610e8281610b5a6000611d65565b50610e8c81610b06565b6001600160a01b0316336001600160a01b031614610ebf573360405163233d98e360e01b8152600401610d77919061374b565b610ecb86868686611fa3565b9695505050505050565b6060610edf611c32565b6001600160a01b0316634bf5d7e96040518163ffffffff1660e01b8152600401600060405180830381865afa925050508015610f3d57506040513d6000823e601f3d908101601f19168201604052610f3a9190810190614240565b60015b610f79575060408051808201909152601d81527f6d6f64653d626c6f636b6e756d6265722666726f6d3d64656661756c74000000602082015290565b919050565b610f86612062565b610f8f82612107565b610f99828261210f565b5050565b6000610fa76121c8565b5060008051602061485a83398151915290565b600080600080610fc8611f7f565b6000958652602052505060409092208054600182015460029092015490949193509150565b6040805180820190915260018152603160f81b602082015290565b60008033905061102984828560405180602001604052806000815250612211565b949350505050565b6000806110f6876110f07f3e83946653575f9a39005e1545185629e92736b7528ab20ca3816f315424a8118c8c8c6110688e61223d565b8d8d6040516110789291906142ad565b60405180910390208c805190602001206040516020016110d59796959493929190968752602087019590955260ff9390931660408601526001600160a01b03919091166060850152608084015260a083015260c082015260e00190565b6040516020818303038152906040528051906020012061227f565b856122ac565b90508061111857866040516394ab6c0760e01b8152600401610d77919061374b565b61115c89888a89898080601f0160208091040260200160405190810160405280939291908181526020018383808284376000920191909152508b9250612304915050565b9998505050505050505050565b6000803390506111b387828888888080601f0160208091040260200160405190810160405280939291908181526020018383808284376000920191909152508a9250612304915050565b979650505050505050565b6000806111c96123e1565b80549091506000826111dc6001846142d3565b815481106111ec576111ec61422a565b6000918252602090912001805490915065ffffffffffff811690600160301b90046001600160d01b0316868211611230576001600160d01b03169695505050505050565b61124361123c88612405565b869061243c565b6001600160d01b0316979650505050505050565b61125f6124f1565b6112696000612523565b565b600080339050610ecb86828787878080601f01602080910402602001604051908101604052809392919081815260200183838082843760009201919091525061221192505050565b6000336112c08184612594565b6112df578060405163d9b3955760e01b8152600401610d77919061374b565b60006113068260016112ef6114ac565b6112f991906142e6565b65ffffffffffff16611919565b90506000611317888888888761267f565b98975050505050505050565b6000606080600080600060606000611339612882565b805490915015801561134d57506001810154155b6113915760405162461bcd60e51b81526020600482015260156024820152741152540dcc4c8e88155b9a5b9a5d1a585b1a5e9959605a1b6044820152606401610d77565b6113996128a6565b6113a16128c3565b60408051600080825260208201909252600f60f81b9c939b5091995046985030975095509350915050565b6000807f9016d09d72d40fdae2fd8ceac6b6234c7706214fd39c1cd1e609a0528c1993005b546001600160a01b031692915050565b60008061146f846110f07ff2aad550cf55f045cb27e9c559f9889fdfb6e6cdaa032301d6ea397784ae51d78989896114388b61223d565b60408051602081019690965285019390935260ff90911660608401526001600160a01b0316608083015260a082015260c0016110d5565b90508061149157836040516394ab6c0760e01b8152600401610d77919061374b565b610ecb86858760405180602001604052806000815250612211565b60006114b743612405565b905090565b60006114c98484846128e0565b90505b9392505050565b6000806114de61295d565b60408051600180825281830190925291925060009190602080830190803683375050835482519293506001600160a01b0316918391506000906115235761152361422a565b6001600160a01b0392909216602092830291909101909101526040805160018082528183019092526000918160200160208202803683370190505090506000816000815181106115755761157561422a565b6020908102919091010152604080516001808252818301909252600091816020015b6060815260200190600190039081611597579050506040516001600160a01b0389166024820152604481018a905290915060640160408051601f198184030181529190526020810180516001600160e01b0316633e633c1f60e21b179052815182906000906116085761160861422a565b602002602001018190525061161f838383896112b3565b945060008051602061487a833981519152600186336040516116439392919061430c565b60405180910390a1505050509392505050565b6000806116616123e1565b905061166c81612981565b6001600160d01b031691505090565b600080611686611d41565b6000938452600190810160205260409093209092015465ffffffffffff1692915050565b7ff0c57e16840df040f15088dc2f81fe391c3923bec73e23a9662efc9c229c6a008054600160401b810460ff1615906001600160401b03166000811580156116ef5750825b90506000826001600160401b0316600114801561170b5750303b155b905081158015611719575080155b156117375760405163f92ee8a960e01b815260040160405180910390fd5b845467ffffffffffffffff19166001178555831561176157845460ff60401b1916600160401b1785555b61176a886129ba565b6117726129dc565b61177b896129e4565b61178560016129f5565b61178e87612a06565b6117966129dc565b60006117a061295d565b80546001600160a01b0319166001600160a01b03891617905550831561180057845460ff60401b19168555604051600181527fc7f505b2f371ae2175ee4913f4499e1f2633a7b5936321eed1cdaeb6115181d29060200160405180910390a15b505050505050505050565b600080611816611d41565b600084815260018201602052604090205490915061185090600160d01b810463ffffffff1690600160a01b900465ffffffffffff1661433d565b65ffffffffffff169392505050565b611867611c5b565b600080856001600160a01b03168585856040516118859291906142ad565b60006040518083038185875af1925050503d80600081146118c2576040519150601f19603f3d011682016040523d82523d6000602084013e6118c7565b606091505b50915091506118d68282612a17565b50505050505050565b6000848484846040516020016118f894939291906143f0565b60408051601f19818403018152919052805160209091012095945050505050565b60006114cc838361193560408051602081019091526000815290565b6128e0565b60408051600180825281830190925260009182919060208083019080368337505060408051600180825281830190925292935060009291506020808301908036833750506040805160018082528183019092529293506000929150602082015b606081526020019060019003908161199a5790505090506000836000815181106119c6576119c661422a565b60200260200101906001600160a01b031690816001600160a01b0316815250506000826000815181106119fb576119fb61422a565b602090810291909101810191909152604080516000808252928101909152905081600081518110611a2e57611a2e61422a565b6020026020010181905250611a45838383886112b3565b935060008051602061487a83398151915260008533604051611a699392919061430c565b60405180910390a150505092915050565b600080611a8561295d565b60408051600180825281830190925291925060009190602080830190803683375050835482519293506001600160a01b031691839150600090611aca57611aca61422a565b6001600160a01b039290921660209283029190910190910152604080516001808252818301909252600091816020016020820280368337019050509050600081600081518110611b1c57611b1c61422a565b6020908102919091010152604080516001808252818301909252600091816020015b6060815260200190600190039081611b3e5750506040516024810189905290915060440160408051601f198184030181529190526020810180516001600160e01b0316638c4a381560e01b17905281518290600090611b9f57611b9f61422a565b6020026020010181905250611bb6838383896112b3565b945060008051602061487a83398151915260018633604051611bda9392919061430c565b60405180910390a15050505092915050565b611bf46124f1565b6001600160a01b038116611c1e576000604051631e4fbdf760e01b8152600401610d77919061374b565b610a6281612523565b6000610a4b82612a33565b6000807f3ba4977254e415696610a40ebf2258dbfa0ec6a2ff64e84bfe715ff16977cc006113f1565b6000611c65611d41565b9050303314610a6257336040516347096e4760e01b8152600401610d77919061374b565b80611c9683600201612aca565b03611c89575050565b6000611ca96123e1565b9050606480831115611cd85760405163243e544560e01b81526004810184905260248101829052604401610d77565b6000611ce2611656565b9050611d00611cef6114ac565b611cf886612b3f565b859190612b73565b505060408051828152602081018690527f0553476bf02ef2726e8ce5ced78d63e26e602e4a2257b1f559418e24b4633997910160405180910390a150505050565b7f7c712897014dbe49c045ef1299aa2d5f9e67e48eea4403efa21f1e0f3ac0cb0090565b6000816007811115611d7957611d79613a9a565b600160ff919091161b92915050565b600080611d9484610cf1565b9050600083611da283611d65565b16036114cc578381846040516331b75e4d60e01b8152600401610d779392919061443b565b81546001600160801b03600160801b820481169181166001830190911603611e0257604051638acb5f2760e01b815260040160405180910390fd5b6001600160801b03808216600090815260018086016020526040909120939093558354919092018216600160801b029116179055565b60005b8451811015611f0a57600080868381518110611e5957611e5961422a565b60200260200101516001600160a01b0316868481518110611e7c57611e7c61422a565b6020026020010151868581518110611e9657611e9661422a565b6020026020010151604051611eab919061445d565b60006040518083038185875af1925050503d8060008114611ee8576040519150601f19603f3d011682016040523d82523d6000602084013e611eed565b606091505b5091509150611efc8282612a17565b505050806001019050611e3b565b505050505050565b600080611f1d611f7f565b6000848152602082905260409020600281015460018201549293509091611f449190614479565b611f506109e586610cc2565b1115949350505050565b600080611f65611f7f565b600093845260205250506040902080546001909101541190565b7fa1cefa0f43667ef127a258e673c94202a79b656e62899531c4376d87a7f3980090565b600080611fae611d41565b90506000611fbe878787876118df565b905061200c81611fce6007611d65565b611fd86006611d65565b611fe26002611d65565b6001611fef60078261448c565b611ffa906002614589565b61200491906142d3565b181818611d88565b5060008181526001830160205260409081902080546001600160f81b0316600160f81b179055517f789cf55be980739dad1d0699b93b58e806b51c9d96619bfa8fe0a28abaa7b30c90610cb09083815260200190565b306001600160a01b037f00000000000000000000000000000000000000000000000000000000000000001614806120e957507f00000000000000000000000000000000000000000000000000000000000000006001600160a01b03166120dd60008051602061485a833981519152546001600160a01b031690565b6001600160a01b031614155b156112695760405163703e46dd60e11b815260040160405180910390fd5b610a626124f1565b816001600160a01b03166352d1902d6040518163ffffffff1660e01b8152600401602060405180830381865afa925050508015612169575060408051601f3d908101601f1916820190925261216691810190614598565b60015b6121885781604051634c9c8ce360e01b8152600401610d77919061374b565b60008051602061485a83398151915281146121b957604051632a87526960e21b815260048101829052602401610d77565b6121c38383612b8e565b505050565b306001600160a01b037f000000000000000000000000000000000000000000000000000000000000000016146112695760405163703e46dd60e11b815260040160405180910390fd5b60006122348585858561222f60408051602081019091526000815290565b612304565b95945050505050565b6001600160a01b031660009081527f5ab42ced628888259c08ac98db1eb0cf702fc1501344311d8b100cd1bfe4bb006020526040902080546001810190915590565b6000610a4b61228c612be4565b8360405161190160f01b8152600281019290925260228201526042902090565b60008060006122bb8585612bee565b50909250905060008160038111156122d5576122d5613a9a565b1480156122f35750856001600160a01b0316826001600160a01b0316145b80610ecb5750610ecb868686612c3b565b600061231486610b5a6001611d65565b50600061232a8661232489610cc2565b856128e0565b90506123398787878487612d16565b825160000361238e57856001600160a01b03167fb8e138887d0aa13bab447e82de9d5c1777041ecd21ca36ba824ff1e6c07ddda48887848860405161238194939291906145b1565b60405180910390a2610ecb565b856001600160a01b03167fe2babfbac5889a709b63bb7f598b324e08bc5a4fb9ec647fb3cbc9ec07eb871288878488886040516123cf9594939291906145d9565b60405180910390a29695505050505050565b7fe770710421fd2cad75ad828c61aa98f2d77d423a440b67872d0f65554148e00090565b600065ffffffffffff821115612438576040516306dfcc6560e41b81526030600482015260248101839052604401610d77565b5090565b81546000908181600581111561249b57600061245784612e12565b61246190856142d3565b60008881526020902090915081015465ffffffffffff908116908716101561248b57809150612499565b612496816001614479565b92505b505b60006124a987878585612efa565b905080156124e4576124ce876124c06001846142d3565b600091825260209091200190565b54600160301b90046001600160d01b03166111b3565b6000979650505050505050565b336124fa6113cc565b6001600160a01b031614611269573360405163118cdaa760e01b8152600401610d77919061374b565b7f9016d09d72d40fdae2fd8ceac6b6234c7706214fd39c1cd1e609a0528c19930080546001600160a01b031981166001600160a01b03848116918217845560405192169182907f8be0079c531659141344cd1fd0a4f28419497f9722a3daafe3b4186f6b6457e090600090a3505050565b805160009060348110156125ac576001915050610a4b565b82810160131901516001600160a01b031981166b046e0e4dee0dee6cae47a60f60a31b146125df57600192505050610a4b565b6000806125ed6028856142d3565b90505b8381101561265e576000806126248884815181106126105761261061422a565b01602001516001600160f81b031916612f5c565b915091508161263c5760019650505050505050610a4b565b8060ff166004856001600160a01b0316901b17935050508060010190506125f0565b50856001600160a01b0316816001600160a01b031614935050505092915050565b60008061268a611d41565b905061269f87878787805190602001206118df565b9150855187511415806126b457508451875114155b806126be57508651155b156126f357865185518751604051630447b05d60e41b8152600481019390935260248301919091526044820152606401610d77565b6000828152600182016020526040902054600160a01b900465ffffffffffff1615612740578161272283610cf1565b6040516331b75e4d60e01b8152610d7792919060009060040161443b565b600061274c8143614479565b9050600060966000858152600185016020526040902080546001600160a01b0319166001600160a01b03881617815590915061278783612405565b815465ffffffffffff91909116600160a01b0265ffffffffffff60a01b199091161781556127b482612fee565b815463ffffffff91909116600160d01b0263ffffffff60d01b1990911617815589517f7d84a6263ae0d98d3329bd7b46bb4e8d6f98cd35a7adb45c274c8b7fd5ebd5e090869088908d908d906001600160401b0381111561281757612817613774565b60405190808252806020026020018201604052801561284a57816020015b60608152602001906001900390816128355790505b508d896128578a82614479565b8f60405161286d99989796959493929190614613565b60405180910390a15050505095945050505050565b7fa16a46d94261c7517cc8ff89f61c0ce93598e3c849801011dee649a6a557d10090565b606060006128b2612882565b9050806002018054610a82906141f0565b606060006128cf612882565b9050806003018054610a82906141f0565b60006128ea611c32565b604051630748d63560e31b81526001600160a01b038681166004830152602482018690529190911690633a46b1a890604401602060405180830381865afa158015612939573d6000803e3d6000fd5b505050506040513d601f19601f820116820180604052508101906114c99190614598565b7f72a4ccd47996c0aa9e54efd606e03b13bee57794bd0974b6dda8fcd457f3770090565b805460009080156129b15761299b836124c06001846142d3565b54600160301b90046001600160d01b03166114cc565b60009392505050565b6129c261301f565b6129d3816129ce610fed565b613068565b610a62816130a9565b61126961301f565b6129ec61301f565b610a62816130c8565b6129fd61301f565b610a6281613111565b612a0e61301f565b610a6281613119565b606082612a2c57612a2782613121565b610a4b565b5080610a4b565b60006064612a40836111be565b612a48611c32565b6001600160a01b0316638e539e8c856040518263ffffffff1660e01b8152600401612a7591815260200190565b602060405180830381865afa158015612a92573d6000803e3d6000fd5b505050506040513d601f19601f82011682018060405250810190612ab69190614598565b612ac091906146ea565b610a4b9190614717565b80546000906001600160801b0380821691600160801b9004168103612b02576040516375e52f4f60e01b815260040160405180910390fd5b6001600160801b038181166000908152600185810160205260408220805492905585546001600160801b0319169301909116919091179092555090565b60006001600160d01b03821115612438576040516306dfcc6560e41b815260d0600482015260248101839052604401610d77565b600080612b8185858561314a565b915091505b935093915050565b612b97826132c4565b6040516001600160a01b038316907fbc7cd75a20ee27fd9adebab32041f755214dbc6bffa90cc0225b39da2e5c2d3b90600090a2805115612bdc576121c38282613320565b610f9961338d565b60006114b76133ac565b60008060008351604103612c285760208401516040850151606086015160001a612c1a88828585613420565b955095509550505050612c34565b50508151600091506002905b9250925092565b6000806000856001600160a01b03168585604051602401612c5d929190614739565b60408051601f198184030181529181526020820180516001600160e01b0316630b135d3f60e11b17905251612c92919061445d565b600060405180830381855afa9150503d8060008114612ccd576040519150601f19603f3d011682016040523d82523d6000602084013e612cd2565b606091505b5091509150818015612ce657506020815110155b8015610ecb57508051630b135d3f60e11b90612d0b9083016020908101908401614598565b149695505050505050565b6000612d20611f7f565b6000878152602082815260408083206001600160a01b038a16845260038101909252909120549192509060ff1615612d6d57856040516371c6af4960e01b8152600401610d77919061374b565b6001600160a01b03861660009081526003820160205260409020805460ff1916600117905560ff8516612db95783816000016000828254612dae9190614479565b909155506118d69050565b60001960ff861601612dd95783816001016000828254612dae9190614479565b60011960ff861601612df95783816002016000828254612dae9190614479565b6040516303599be160e11b815260040160405180910390fd5b600081600003612e2457506000919050565b60006001612e31846134e5565b901c6001901b90506001818481612e4a57612e4a614701565b048201901c90506001818481612e6257612e62614701565b048201901c90506001818481612e7a57612e7a614701565b048201901c90506001818481612e9257612e92614701565b048201901c90506001818481612eaa57612eaa614701565b048201901c90506001818481612ec257612ec2614701565b048201901c90506001818481612eda57612eda614701565b048201901c90506114cc81828581612ef457612ef4614701565b04613579565b60005b81831015612f54576000612f11848461358f565b60008781526020902090915065ffffffffffff86169082015465ffffffffffff161115612f4057809250612f4e565b612f4b816001614479565b93505b50612efd565b509392505050565b60008060f883901c602f81118015612f775750603a8160ff16105b15612f8c57600194602f199091019350915050565b8060ff166040108015612fa2575060478160ff16105b15612fb7576001946036199091019350915050565b8060ff166060108015612fcd575060678160ff16105b15612fe2576001946056199091019350915050565b50600093849350915050565b600063ffffffff821115612438576040516306dfcc6560e41b81526020600482015260248101839052604401610d77565b7ff0c57e16840df040f15088dc2f81fe391c3923bec73e23a9662efc9c229c6a0054600160401b900460ff1661126957604051631afcd79f60e31b815260040160405180910390fd5b61307061301f565b600061307a612882565b90506002810161308a848261479a565b5060038101613099838261479a565b5060008082556001909101555050565b6130b161301f565b60006130bb611d41565b9050806121c3838261479a565b6130d061301f565b7f3ba4977254e415696610a40ebf2258dbfa0ec6a2ff64e84bfe715ff16977cc0080546001600160a01b0319166001600160a01b0392909216919091179055565b610a5961301f565b611bf461301f565b8051156131315780518082602001fd5b604051630a12f52160e11b815260040160405180910390fd5b825460009081908015613269576000613168876124c06001856142d3565b60408051808201909152905465ffffffffffff808216808452600160301b9092046001600160d01b0316602084015291925090871610156131bc57604051632520601d60e01b815260040160405180910390fd5b805165ffffffffffff80881691160361320857846131df886124c06001866142d3565b80546001600160d01b0392909216600160301b0265ffffffffffff909216919091179055613259565b6040805180820190915265ffffffffffff80881682526001600160d01b0380881660208085019182528b54600181018d5560008d81529190912094519151909216600160301b029216919091179101555b602001519250839150612b869050565b50506040805180820190915265ffffffffffff80851682526001600160d01b0380851660208085019182528854600181018a5560008a815291822095519251909316600160301b029190931617920191909155905081612b86565b806001600160a01b03163b6000036132f15780604051634c9c8ce360e01b8152600401610d77919061374b565b60008051602061485a83398151915280546001600160a01b0319166001600160a01b0392909216919091179055565b6060600080846001600160a01b03168460405161333d919061445d565b600060405180830381855af49150503d8060008114613378576040519150601f19603f3d011682016040523d82523d6000602084013e61337d565b606091505b50915091506122348583836135aa565b34156112695760405163b398979f60e01b815260040160405180910390fd5b60007f8b73c3c69bb8fe3d512ecc4cf759cc79239f7b179b0ffacaa9a75d522b39400f6133d76135fd565b6133df613664565b60408051602081019490945283019190915260608201524660808201523060a082015260c00160405160208183030381529060405280519060200120905090565b600080806fa2a8918ca85bafe22016d0b997e4df60600160ff1b0384111561345157506000915060039050826134db565b604080516000808252602082018084528a905260ff891692820192909252606081018790526080810186905260019060a0016020604051602081039080840390855afa1580156134a5573d6000803e3d6000fd5b5050604051601f1901519150506001600160a01b0381166134d1575060009250600191508290506134db565b9250600091508190505b9450945094915050565b600080608083901c156134fa57608092831c92015b604083901c1561350c57604092831c92015b602083901c1561351e57602092831c92015b601083901c1561353057601092831c92015b600883901c1561354257600892831c92015b600483901c1561355457600492831c92015b600283901c1561356657600292831c92015b600183901c15610a4b5760010192915050565b600081831061358857816114cc565b5090919050565b600061359e6002848418614717565b6114cc90848416614479565b6060826135bf576135ba82613121565b6114cc565b81511580156135d657506001600160a01b0384163b155b156135f65783604051639996b31560e01b8152600401610d77919061374b565b50806114cc565b600080613608612882565b905060006136146128a6565b80519091501561362c57805160209091012092915050565b8154801561363b579392505050565b7fc5d2460186f7233c927e7db2dcc703c0e500b653ca82273b7bfad8045d85a470935050505090565b60008061366f612882565b9050600061367b6128c3565b80519091501561369357805160209091012092915050565b6001820154801561363b579392505050565b6000602082840312156136b757600080fd5b81356001600160e01b0319811681146114cc57600080fd5b6000602082840312156136e157600080fd5b5035919050565b60005b838110156137035781810151838201526020016136eb565b50506000910152565b600081518084526137248160208601602086016136e8565b601f01601f19169290920160200192915050565b6020815260006114cc602083018461370c565b6001600160a01b0391909116815260200190565b6001600160a01b0381168114610a6257600080fd5b634e487b7160e01b600052604160045260246000fd5b604051601f8201601f191681016001600160401b03811182821017156137b2576137b2613774565b604052919050565b60006001600160401b038211156137d3576137d3613774565b50601f01601f191660200190565b600082601f8301126137f257600080fd5b8135613805613800826137ba565b61378a565b81815284602083860101111561381a57600080fd5b816020850160208301376000918101602001919091529392505050565b6000806000806080858703121561384d57600080fd5b84356138588161375f565b935060208501356138688161375f565b92506040850135915060608501356001600160401b0381111561388a57600080fd5b613896878288016137e1565b91505092959194509250565b60006001600160401b038211156138bb576138bb613774565b5060051b60200190565b600082601f8301126138d657600080fd5b813560206138e6613800836138a2565b8083825260208201915060208460051b87010193508684111561390857600080fd5b602086015b84811015610b7b5780356139208161375f565b835291830191830161390d565b600082601f83011261393e57600080fd5b8135602061394e613800836138a2565b8083825260208201915060208460051b87010193508684111561397057600080fd5b602086015b84811015610b7b5780358352918301918301613975565b600082601f83011261399d57600080fd5b813560206139ad613800836138a2565b82815260059290921b840181019181810190868411156139cc57600080fd5b8286015b84811015610b7b5780356001600160401b038111156139ef5760008081fd5b6139fd8986838b01016137e1565b8452509183019183016139d0565b60008060008060808587031215613a2157600080fd5b84356001600160401b0380821115613a3857600080fd5b613a44888389016138c5565b95506020870135915080821115613a5a57600080fd5b613a668883890161392d565b94506040870135915080821115613a7c57600080fd5b50613a898782880161398c565b949793965093946060013593505050565b634e487b7160e01b600052602160045260246000fd5b60088110613ac057613ac0613a9a565b9052565b60208101610a4b8284613ab0565b60008060408385031215613ae557600080fd5b823591506020830135613af78161375f565b809150509250929050565b60008060408385031215613b1557600080fd5b8235613b208161375f565b915060208301356001600160401b03811115613b3b57600080fd5b613b47858286016137e1565b9150509250929050565b803560ff81168114610f7957600080fd5b60008060408385031215613b7557600080fd5b82359150613b8560208401613b51565b90509250929050565b60008083601f840112613ba057600080fd5b5081356001600160401b03811115613bb757600080fd5b602083019150836020828501011115613bcf57600080fd5b9250929050565b600080600080600080600060c0888a031215613bf157600080fd5b87359650613c0160208901613b51565b95506040880135613c118161375f565b945060608801356001600160401b0380821115613c2d57600080fd5b613c398b838c01613b8e565b909650945060808a0135915080821115613c5257600080fd5b613c5e8b838c016137e1565b935060a08a0135915080821115613c7457600080fd5b50613c818a828b016137e1565b91505092959891949750929550565b600080600080600060808688031215613ca857600080fd5b85359450613cb860208701613b51565b935060408601356001600160401b0380821115613cd457600080fd5b613ce089838a01613b8e565b90955093506060880135915080821115613cf957600080fd5b50613d06888289016137e1565b9150509295509295909350565b60008060008060608587031215613d2957600080fd5b84359350613d3960208601613b51565b925060408501356001600160401b03811115613d5457600080fd5b613d6087828801613b8e565b95989497509550505050565b60008060008060808587031215613d8257600080fd5b84356001600160401b0380821115613d9957600080fd5b613da5888389016138c5565b95506020870135915080821115613dbb57600080fd5b613dc78883890161392d565b94506040870135915080821115613ddd57600080fd5b613de98883890161398c565b93506060870135915080821115613dff57600080fd5b50613896878288016137e1565b600060208284031215613e1e57600080fd5b81356114cc8161375f565b60008151808452602080850194506020840160005b83811015613e5a57815187529582019590820190600101613e3e565b509495945050505050565b60ff60f81b8816815260e060208201526000613e8460e083018961370c565b8281036040840152613e96818961370c565b606084018890526001600160a01b038716608085015260a0840186905283810360c08501529050613ec78185613e29565b9a9950505050505050505050565b60008060008060808587031215613eeb57600080fd5b84359350613efb60208601613b51565b92506040850135613f0b8161375f565b915060608501356001600160401b0381111561388a57600080fd5b600080600060608486031215613f3b57600080fd5b8335613f468161375f565b92506020840135915060408401356001600160401b03811115613f6857600080fd5b613f74868287016137e1565b9150509250925092565b600080600060608486031215613f9357600080fd5b833592506020840135613fa58161375f565b915060408401356001600160401b03811115613f6857600080fd5b60008060008060808587031215613fd657600080fd5b8435613fe18161375f565b935060208501356001600160401b03811115613ffc57600080fd5b614008878288016137e1565b93505060408501356140198161375f565b915060608501356140298161375f565b939692955090935050565b600080600080600060a0868803121561404c57600080fd5b85356140578161375f565b945060208601356140678161375f565b935060408601356001600160401b038082111561408357600080fd5b61408f89838a0161392d565b945060608801359150808211156140a557600080fd5b6140b189838a0161392d565b93506080880135915080821115613cf957600080fd5b600080600080606085870312156140dd57600080fd5b84356140e88161375f565b93506020850135925060408501356001600160401b03811115613d5457600080fd5b6000806040838503121561411d57600080fd5b82356141288161375f565b946020939093013593505050565b6000806040838503121561414957600080fd5b823560018110613b2057600080fd5b6000806040838503121561416b57600080fd5b8235915060208301356001600160401b03811115613b3b57600080fd5b600080600080600060a086880312156141a057600080fd5b85356141ab8161375f565b945060208601356141bb8161375f565b9350604086013592506060860135915060808601356001600160401b038111156141e457600080fd5b613d06888289016137e1565b600181811c9082168061420457607f821691505b60208210810361422457634e487b7160e01b600052602260045260246000fd5b50919050565b634e487b7160e01b600052603260045260246000fd5b60006020828403121561425257600080fd5b81516001600160401b0381111561426857600080fd5b8201601f8101841361427957600080fd5b8051614287613800826137ba565b81815285602083850101111561429c57600080fd5b6122348260208301602086016136e8565b8183823760009101908152919050565b634e487b7160e01b600052601160045260246000fd5b81810381811115610a4b57610a4b6142bd565b65ffffffffffff828116828216039080821115614305576143056142bd565b5092915050565b606081016002851061432057614320613a9a565b93815260208101929092526001600160a01b031660409091015290565b65ffffffffffff818116838216019080821115614305576143056142bd565b60008151808452602080850194506020840160005b83811015613e5a5781516001600160a01b031687529582019590820190600101614371565b60008282518085526020808601955060208260051b8401016020860160005b848110156143e357601f198684030189526143d183835161370c565b988401989250908301906001016143b5565b5090979650505050505050565b608081526000614403608083018761435c565b82810360208401526144158187613e29565b905082810360408401526144298186614396565b91505082606083015295945050505050565b8381526060810161444f6020830185613ab0565b826040830152949350505050565b6000825161446f8184602087016136e8565b9190910192915050565b80820180821115610a4b57610a4b6142bd565b60ff8181168382160190811115610a4b57610a4b6142bd565b600181815b808511156144e05781600019048211156144c6576144c66142bd565b808516156144d357918102915b93841c93908002906144aa565b509250929050565b6000826144f757506001610a4b565b8161450457506000610a4b565b816001811461451a576002811461452457614540565b6001915050610a4b565b60ff841115614535576145356142bd565b50506001821b610a4b565b5060208310610133831016604e8410600b8410161715614563575081810a610a4b565b61456d83836144a5565b8060001904821115614581576145816142bd565b029392505050565b60006114cc60ff8416836144e8565b6000602082840312156145aa57600080fd5b5051919050565b84815260ff84166020820152826040820152608060608201526000610ecb608083018461370c565b85815260ff8516602082015283604082015260a06060820152600061460160a083018561370c565b8281036080840152611317818561370c565b60006101208b8352602060018060a01b038c168185015281604085015261463c8285018c61435c565b91508382036060850152614650828b613e29565b915083820360808501528189518084528284019150828160051b850101838c0160005b838110156146a157601f1987840301855261468f83835161370c565b94860194925090850190600101614673565b505086810360a08801526146b5818c614396565b9450505050508560c08401528460e08401528281036101008401526146da818561370c565b9c9b505050505050505050505050565b8082028115828204841417610a4b57610a4b6142bd565b634e487b7160e01b600052601260045260246000fd5b60008261473457634e487b7160e01b600052601260045260246000fd5b500490565b8281526040602082015260006114c9604083018461370c565b601f8211156121c3576000816000526020600020601f850160051c8101602086101561477b5750805b601f850160051c820191505b81811015611f0a57828155600101614787565b81516001600160401b038111156147b3576147b3613774565b6147c7816147c184546141f0565b84614752565b602080601f8311600181146147fc57600084156147e45750858301515b600019600386901b1c1916600185901b178555611f0a565b600085815260208120601f198616915b8281101561482b5788860151825594840194600190910190840161480c565b50858210156148495787850151600019600388901b60f8161c191681555b5050505050600190811b0190555056fe360894a13ba1a3210667c828492db98dca3e2076cc3735a920a3ca505d382bbc1646ab1bafec4eef5889c5e664648b7d94cabbfd6ff249152e6e3bde3f429e9da2646970667358221220ca6ee982f045ce96a70c1947ceef6a10e278978bd41656d5bc54b59c75ef74d064736f6c63430008180033",
  "linkReferences": {},
  "deployedLinkReferences": {}
}