{
  "_format": "hh-sol-artifact-1",
  "contractName": "BuildingMock",
  "sourceName": "contracts/buildings/mock/BuildingMock.sol",
  "abi": [
    {
      "inputs": [],
      "name": "InvalidInitialization",
      "type": "error"
    },
    {
      "inputs": [],
      "name": "NotInitializing",
      "type": "error"
    },
    {
      "inputs": [
        {
          "internalType": "address",
          "name": "owner",
          "type": "address"
        }
      ],
      "name": "OwnableInvalidOwner",
      "type": "error"
    },
    {
      "inputs": [
        {
          "internalType": "address",
          "name": "account",
          "type": "address"
        }
      ],
      "name": "OwnableUnauthorizedAccount",
      "type": "error"
    },
    {
      "anonymous": false,
      "inputs": [
        {
          "indexed": false,
          "internalType": "uint64",
          "name": "version",
          "type": "uint64"
        }
      ],
      "name": "Initialized",
      "type": "event"
    },
    {
      "anonymous": false,
      "inputs": [
        {
          "indexed": false,
          "internalType": "address",
          "name": "addr",
          "type": "address"
        }
      ],
      "name": "NewAuditRegistry",
      "type": "event"
    },
    {
      "anonymous": false,
      "inputs": [
        {
          "indexed": true,
          "internalType": "address",
          "name": "previousOwner",
          "type": "address"
        },
        {
          "indexed": true,
          "internalType": "address",
          "name": "newOwner",
          "type": "address"
        }
      ],
      "name": "OwnershipTransferred",
      "type": "event"
    },
    {
      "inputs": [
        {
          "internalType": "address",
          "name": "tokenA",
          "type": "address"
        },
        {
          "internalType": "uint256",
          "name": "tokenAAmount",
          "type": "uint256"
        },
        {
          "internalType": "address",
          "name": "tokenB",
          "type": "address"
        },
        {
          "internalType": "uint256",
          "name": "tokenBAmount",
          "type": "uint256"
        }
      ],
      "name": "addLiquidity",
      "outputs": [
        {
          "internalType": "uint256",
          "name": "",
          "type": "uint256"
        },
        {
          "internalType": "uint256",
          "name": "",
          "type": "uint256"
        },
        {
          "internalType": "uint256",
          "name": "",
          "type": "uint256"
        },
        {
          "internalType": "address",
          "name": "",
          "type": "address"
        }
      ],
      "stateMutability": "payable",
      "type": "function"
    },
    {
      "inputs": [],
      "name": "amountA",
      "outputs": [
        {
          "internalType": "uint256",
          "name": "",
          "type": "uint256"
        }
      ],
      "stateMutability": "view",
      "type": "function"
    },
    {
      "inputs": [],
      "name": "amountB",
      "outputs": [
        {
          "internalType": "uint256",
          "name": "",
          "type": "uint256"
        }
      ],
      "stateMutability": "view",
      "type": "function"
    },
    {
      "inputs": [],
      "name": "auditRegistry",
      "outputs": [
        {
          "internalType": "contract AuditRegistry",
          "name": "",
          "type": "address"
        }
      ],
      "stateMutability": "view",
      "type": "function"
    },
    {
      "inputs": [
        {
          "internalType": "address",
          "name": "callableContract",
          "type": "address"
        },
        {
          "internalType": "bytes",
          "name": "data",
          "type": "bytes"
        }
      ],
      "name": "callContract",
      "outputs": [
        {
          "internalType": "bytes",
          "name": "",
          "type": "bytes"
        }
      ],
      "stateMutability": "payable",
      "type": "function"
    },
    {
      "inputs": [
        {
          "internalType": "bytes32",
          "name": "_salt",
          "type": "bytes32"
        },
        {
          "internalType": "address",
          "name": "_uniswapRouter",
          "type": "address"
        },
        {
          "internalType": "address",
          "name": "_uniswapFactory",
          "type": "address"
        },
        {
          "internalType": "address",
          "name": "_nftAddress",
          "type": "address"
        }
      ],
      "name": "initialize",
      "outputs": [],
      "stateMutability": "nonpayable",
      "type": "function"
    },
    {
      "inputs": [],
      "name": "isUpgraded",
      "outputs": [
        {
          "internalType": "bool",
          "name": "",
          "type": "bool"
        }
      ],
      "stateMutability": "view",
      "type": "function"
    },
    {
      "inputs": [],
      "name": "liquidity",
      "outputs": [
        {
          "internalType": "uint256",
          "name": "",
          "type": "uint256"
        }
      ],
      "stateMutability": "view",
      "type": "function"
    },
    {
      "inputs": [
        {
          "internalType": "address",
          "name": "",
          "type": "address"
        },
        {
          "internalType": "address",
          "name": "",
          "type": "address"
        },
        {
          "internalType": "uint256",
          "name": "",
          "type": "uint256"
        },
        {
          "internalType": "bytes",
          "name": "",
          "type": "bytes"
        }
      ],
      "name": "onERC721Received",
      "outputs": [
        {
          "internalType": "bytes4",
          "name": "",
          "type": "bytes4"
        }
      ],
      "stateMutability": "pure",
      "type": "function"
    },
    {
      "inputs": [],
      "name": "owner",
      "outputs": [
        {
          "internalType": "address",
          "name": "",
          "type": "address"
        }
      ],
      "stateMutability": "view",
      "type": "function"
    },
    {
      "inputs": [],
      "name": "pair",
      "outputs": [
        {
          "internalType": "address",
          "name": "",
          "type": "address"
        }
      ],
      "stateMutability": "view",
      "type": "function"
    },
    {
      "inputs": [],
      "name": "renounceOwnership",
      "outputs": [],
      "stateMutability": "nonpayable",
      "type": "function"
    },
    {
      "inputs": [
        {
          "internalType": "address",
          "name": "newOwner",
          "type": "address"
        }
      ],
      "name": "transferOwnership",
      "outputs": [],
      "stateMutability": "nonpayable",
      "type": "function"
    },
    {
      "inputs": [],
      "name": "uniswapFactory",
      "outputs": [
        {
          "internalType": "address",
          "name": "",
          "type": "address"
        }
      ],
      "stateMutability": "view",
      "type": "function"
    },
    {
      "inputs": [],
      "name": "uniswapRouter",
      "outputs": [
        {
          "internalType": "address",
          "name": "",
          "type": "address"
        }
      ],
      "stateMutability": "view",
      "type": "function"
    },
    {
      "inputs": [],
      "name": "version",
      "outputs": [
        {
          "internalType": "string",
          "name": "",
          "type": "string"
        }
      ],
      "stateMutability": "pure",
      "type": "function"
    }
  ],
  "bytecode": "0x608060405234801561001057600080fd5b506125b1806100206000396000f3fe608060405260043610620000e55760003560e01c8063715018a61162000084578063715018a6146200025d57806371cb49c01462000277578063735de9f714620002a85780638bdb2afa14620002ca5780638da5cb5b14620002ec578063a8aa1b311462000304578063dd2c7cbc1462000326578063f2fde38b146200034b57600080fd5b80630371066814620000ea578063150b7a021462000119578063156dcbf014620001635780631a686502146200018a5780632efe91ef14620001a2578063376d3d5d14620001ba57806342c80fc914620001fb57806354fd4d50146200022f575b600080fd5b62000101620000fb36600462000ccd565b62000370565b60405162000110919062000df1565b60405180910390f35b3480156200012657600080fd5b50620001496200013836600462000e06565b630a85bd0160e11b95945050505050565b6040516001600160e01b0319909116815260200162000110565b3480156200017057600080fd5b506200017b60035481565b60405190815260200162000110565b3480156200019757600080fd5b506200017b60055481565b348015620001af57600080fd5b506200017b60045481565b620001d1620001cb36600462000eae565b62000391565b604080519485526020850193909352918301526001600160a01b0316606082015260800162000110565b3480156200020857600080fd5b506006546200021e90600160a01b900460ff1681565b604051901515815260200162000110565b3480156200023c57600080fd5b506040805180820190915260038152620322e360ec1b602082015262000101565b3480156200026a57600080fd5b5062000275620003e6565b005b3480156200028457600080fd5b5060025462000299906001600160a01b031681565b60405162000110919062000efb565b348015620002b557600080fd5b5060005462000299906001600160a01b031681565b348015620002d757600080fd5b5060015462000299906001600160a01b031681565b348015620002f957600080fd5b5062000299620003fe565b3480156200031157600080fd5b5060065462000299906001600160a01b031681565b3480156200033357600080fd5b50620002756200034536600462000f0f565b6200042c565b3480156200035857600080fd5b50620002756200036a36600462000f69565b62000440565b60606200037c6200048e565b620003888383620004c5565b90505b92915050565b600080600080620003a16200048e565b620003af888888886200057d565b600680546001600160a01b0319166001600160a01b0392909216919091179055600555600455600355929791965094509092509050565b620003f06200048e565b620003fc600062000694565b565b7f9016d09d72d40fdae2fd8ceac6b6234c7706214fd39c1cd1e609a0528c199300546001600160a01b031690565b6200043a8484848462000705565b50505050565b6200044a6200048e565b6001600160a01b03811662000480576000604051631e4fbdf760e01b815260040162000477919062000efb565b60405180910390fd5b6200048b8162000694565b50565b3362000499620003fe565b6001600160a01b031614620003fc573360405163118cdaa760e01b815260040162000477919062000efb565b6060600080846001600160a01b03163485604051620004e5919062000f90565b60006040518083038185875af1925050503d806000811462000524576040519150601f19603f3d011682016040523d82523d6000602084013e62000529565b606091505b509150915081620005755760405162461bcd60e51b8152602060048201526015602482015274109d5a5b191a5b99ce8818d85b1b0819985a5b1959605a1b604482015260640162000477565b949350505050565b60008080806001600160a01b0388166323b872dd33308a6040518463ffffffff1660e01b8152600401620005b49392919062000fae565b6020604051808303816000875af1158015620005d4573d6000803e3d6000fd5b505050506040513d601f19601f82011682018060405250810190620005fa919062000fd2565b506040516323b872dd60e01b81526001600160a01b038716906323b872dd906200062d90339030908a9060040162000fae565b6020604051808303816000875af11580156200064d573d6000803e3d6000fd5b505050506040513d601f19601f8201168201806040525081019062000673919062000fd2565b50620006828887898862000842565b929b919a509850909650945050505050565b7f9016d09d72d40fdae2fd8ceac6b6234c7706214fd39c1cd1e609a0528c19930080546001600160a01b031981166001600160a01b03848116918217845560405192169182907f8be0079c531659141344cd1fd0a4f28419497f9722a3daafe3b4186f6b6457e090600090a3505050565b7ff0c57e16840df040f15088dc2f81fe391c3923bec73e23a9662efc9c229c6a008054600160401b810460ff16159067ffffffffffffffff166000811580156200074c5750825b905060008267ffffffffffffffff1660011480156200076a5750303b155b90508115801562000779575080155b15620007985760405163f92ee8a960e01b815260040160405180910390fd5b845467ffffffffffffffff191660011785558315620007c357845460ff60401b1916600160401b1785555b620007ce3362000b22565b620007d862000b37565b620007e4888862000b4c565b620007f0898762000b84565b83156200083757845460ff60401b19168555604051600181527fc7f505b2f371ae2175ee4913f4499e1f2633a7b5936321eed1cdaeb6115181d29060200160405180910390a15b505050505050505050565b60015460405163e6a4390560e01b81526001600160a01b0386811660048301528581166024830152600092839283928392169063e6a4390590604401602060405180830381865afa1580156200089c573d6000803e3d6000fd5b505050506040513d601f19601f82011682018060405250810190620008c2919062000ff6565b90506001600160a01b03811662000951576001546040516364e329cb60e11b81526001600160a01b038a8116600483015289811660248301529091169063c9c65396906044016020604051808303816000875af115801562000928573d6000803e3d6000fd5b505050506040513d601f19601f820116820180604052508101906200094e919062000ff6565b90505b60005460405163095ea7b360e01b81526001600160a01b039182166004820152602481018890529089169063095ea7b3906044016020604051808303816000875af1158015620009a5573d6000803e3d6000fd5b505050506040513d601f19601f82011682018060405250810190620009cb919062000fd2565b5060005460405163095ea7b360e01b81526001600160a01b039182166004820152602481018790529088169063095ea7b3906044016020604051808303816000875af115801562000a20573d6000803e3d6000fd5b505050506040513d601f19601f8201168201806040525081019062000a46919062000fd2565b506000546001600160a01b031663e8e337008989898981813062000a6d4261012c62001016565b60405160e08a901b6001600160e01b03191681526001600160a01b039889166004820152968816602488015260448701959095526064860193909352608485019190915260a484015290921660c482015260e4810191909152610104016060604051808303816000875af115801562000aea573d6000803e3d6000fd5b505050506040513d601f19601f8201168201806040525081019062000b10919062001038565b919a9099509097509095509350505050565b62000b2c62000bbe565b6200048b8162000c08565b62000b4162000bbe565b620003fc3362000b22565b62000b5662000bbe565b600080546001600160a01b039384166001600160a01b03199182161790915560018054929093169116179055565b62000b8e62000bbe565b62000b9a828262000c12565b600280546001600160a01b0319166001600160a01b03929092169190911790555050565b7ff0c57e16840df040f15088dc2f81fe391c3923bec73e23a9662efc9c229c6a0054600160401b900460ff16620003fc57604051631afcd79f60e31b815260040160405180910390fd5b6200044a62000bbe565b6000828260405162000c249062000c93565b62000c30919062000efb565b8190604051809103906000f590508015801562000c51573d6000803e3d6000fd5b5090507f86391fba409e44e3af18aa6478dfccdb9b93ae68a497e6bbe24ff16b75196f188160405162000c85919062000efb565b60405180910390a192915050565b611514806200106883390190565b6001600160a01b03811681146200048b57600080fd5b634e487b7160e01b600052604160045260246000fd5b6000806040838503121562000ce157600080fd5b823562000cee8162000ca1565b9150602083013567ffffffffffffffff8082111562000d0c57600080fd5b818501915085601f83011262000d2157600080fd5b81358181111562000d365762000d3662000cb7565b604051601f8201601f19908116603f0116810190838211818310171562000d615762000d6162000cb7565b8160405282815288602084870101111562000d7b57600080fd5b8260208601602083013760006020848301015280955050505050509250929050565b60005b8381101562000dba57818101518382015260200162000da0565b50506000910152565b6000815180845262000ddd81602086016020860162000d9d565b601f01601f19169290920160200192915050565b60208152600062000388602083018462000dc3565b60008060008060006080868803121562000e1f57600080fd5b853562000e2c8162000ca1565b9450602086013562000e3e8162000ca1565b935060408601359250606086013567ffffffffffffffff8082111562000e6357600080fd5b818801915088601f83011262000e7857600080fd5b81358181111562000e8857600080fd5b89602082850101111562000e9b57600080fd5b9699959850939650602001949392505050565b6000806000806080858703121562000ec557600080fd5b843562000ed28162000ca1565b935060208501359250604085013562000eeb8162000ca1565b9396929550929360600135925050565b6001600160a01b0391909116815260200190565b6000806000806080858703121562000f2657600080fd5b84359350602085013562000f3a8162000ca1565b9250604085013562000f4c8162000ca1565b9150606085013562000f5e8162000ca1565b939692955090935050565b60006020828403121562000f7c57600080fd5b813562000f898162000ca1565b9392505050565b6000825162000fa481846020870162000d9d565b9190910192915050565b6001600160a01b039384168152919092166020820152604081019190915260600190565b60006020828403121562000fe557600080fd5b8151801515811462000f8957600080fd5b6000602082840312156200100957600080fd5b815162000f898162000ca1565b808201808211156200038b57634e487b7160e01b600052601160045260246000fd5b6000806000606084860312156200104e57600080fd5b835192506020840151915060408401519050925092509256fe6080604052600060035534801561001557600080fd5b50604051620015143803806200151483398101604081905261003691610169565b6001600160a01b0381166100905760405162461bcd60e51b815260206004820152601c60248201527f496e76616c6964204e465420636f6e7472616374206164647265737300000000604482015260640160405180910390fd5b600480546001600160a01b0319166001600160a01b0383161790556100b66000336100bd565b5050610199565b6000828152602081815260408083206001600160a01b038516845290915281205460ff1661015f576000838152602081815260408083206001600160a01b03861684529091529020805460ff191660011790556101173390565b6001600160a01b0316826001600160a01b0316847f2f8788117e7eff1d82e926ec794901d17c78024a50270940304540a733656f0d60405160405180910390a4506001610163565b5060005b92915050565b60006020828403121561017b57600080fd5b81516001600160a01b038116811461019257600080fd5b9392505050565b61136b80620001a96000396000f3fe608060405234801561001057600080fd5b50600436106101115760003560e01c80638579229f116100ad578063c9e3984411610071578063c9e3984414610274578063d547741f14610287578063e429cef11461029a578063e6116cfd146102ad578063e74e786d146102c057600080fd5b80638579229f146101fb57806391d148541461020e578063a217fddf14610221578063ba5ed88a14610229578063c36109af1461025457600080fd5b806301ffc9a714610116578063248a9ca31461013e5780632f2ff15d1461016f57806336568abe146101845780633f76730f146101975780634afb29c6146101b75780635949ea69146101c05780636e1d616e146101d35780637574ad32146101e8575b600080fd5b610129610124366004610d72565b6102e4565b60405190151581526020015b60405180910390f35b61016161014c366004610da3565b60009081526020819052604090206001015490565b604051908152602001610135565b61018261017d366004610dd1565b61031b565b005b610182610192366004610dd1565b610346565b6101aa6101a5366004610da3565b61037e565b6040516101359190610e47565b61016160035481565b6101826101ce366004610ea1565b6104a6565b61016160008051602061131683398151915281565b6101616101f6366004610f1d565b6105e7565b610182610209366004610ea1565b610618565b61012961021c366004610dd1565b610812565b610161600081565b60045461023c906001600160a01b031681565b6040516001600160a01b039091168152602001610135565b610267610262366004610da3565b61083b565b6040516101359190610f3f565b610182610282366004610da3565b61089d565b610182610295366004610dd1565b6109a4565b6101826102a8366004610f83565b6109c9565b6101826102bb366004610f83565b610a89565b6102d36102ce366004610da3565b610ae4565b604051610135959493929190610fa0565b60006001600160e01b03198216637965db0b60e01b148061031557506301ffc9a760e01b6001600160e01b03198316145b92915050565b60008281526020819052604090206001015461033681610baa565b6103408383610bb7565b50505050565b6001600160a01b038116331461036f5760405163334bd91960e11b815260040160405180910390fd5b6103798282610c49565b505050565b6103bb6040518060a001604052806000815260200160006001600160a01b0316815260200160608152602001600081526020016000151581525090565b600082815260016020818152604092839020835160a08101855281548152928101546001600160a01b031691830191909152600281018054929391929184019161040490610fe3565b80601f016020809104026020016040519081016040528092919081815260200182805461043090610fe3565b801561047d5780601f106104525761010080835404028352916020019161047d565b820191906000526020600020905b81548152906001019060200180831161046057829003601f168201915b50505091835250506003820154602082015260049091015460ff16151560409091015292915050565b6000805160206113168339815191526104be81610baa565b816104e45760405162461bcd60e51b81526004016104db9061101d565b60405180910390fd5b6000848152600160208190526040909120908101546001600160a01b031633146105205760405162461bcd60e51b81526004016104db90611061565b600481015460ff161561058b5760405162461bcd60e51b815260206004820152602d60248201527f417564697452656769737472793a2043616e6e6f74207570646174652061207260448201526c195d9bdad959081c9958dbdc99609a1b60648201526084016104db565b6002810161059a848683611123565b50428160030181905550847f7d88a6413bdea2f765837b2027d150e8d9eff6811a00e7b32ce22566577ae3218585426040516105d8939291906111de565b60405180910390a25050505050565b6002602052816000526040600020818154811061060357600080fd5b90600052602060002001600091509150505481565b60008051602061131683398151915261063081610baa565b8361063a81610cb4565b6106955760405162461bcd60e51b815260206004820152602660248201527f417564697452656769737472793a204275696c64696e6720646f6573206e6f7460448201526508195e1a5cdd60d21b60648201526084016104db565b826106b25760405162461bcd60e51b81526004016104db9061101d565b600380549060006106c283611217565b91905055506040518060a00160405280868152602001336001600160a01b0316815260200185858080601f016020809104026020016040519081016040528093929190818152602001838380828437600092018290525093855250504260208085019190915260409384018390526003548352600180825292849020855181559085015192810180546001600160a01b0319166001600160a01b03909416939093179092555090820151600282019061077b908261123e565b5060608201516003828101919091556080909201516004909101805460ff1916911515919091179055600086815260026020908152604080832084548154600181018355918552929093209092015590549051339187917f92a0387dc7c67d734c77ccfb7ffb948823976ffc08e374f17223ceab2abfa8e490610803908990899042906111de565b60405180910390a45050505050565b6000918252602082815260408084206001600160a01b0393909316845291905290205460ff1690565b60008181526002602090815260409182902080548351818402810184019094528084526060939283018282801561089157602002820191906000526020600020905b81548152602001906001019080831161087d575b50505050509050919050565b6000805160206113168339815191526108b581610baa565b6000828152600160208190526040909120908101546001600160a01b031633146108f15760405162461bcd60e51b81526004016104db90611061565b600481015460ff16156109545760405162461bcd60e51b815260206004820152602560248201527f417564697452656769737472793a205265636f726420616c72656164792072656044820152641d9bdad95960da1b60648201526084016104db565b60048101805460ff1916600117905560405183907fe4839e81aa65ee9120ee35c9291915fa224f6ae0bfab747215ee7f0b5368a193906109979042815260200190565b60405180910390a2505050565b6000828152602081905260409020600101546109bf81610baa565b6103408383610c49565b60006109d481610baa565b6001600160a01b038216610a395760405162461bcd60e51b815260206004820152602660248201527f417564697452656769737472793a20496e76616c69642061756469746f72206160448201526564647265737360d01b60648201526084016104db565b610a516000805160206113168339815191528361031b565b6040516001600160a01b038316907f2c31044378cc14466459f09320dd4057d7ad6e99b194c0800c78227383a2529690600090a25050565b6000610a9481610baa565b610aac600080516020611316833981519152836109a4565b6040516001600160a01b038316907fd3e803f2dfdacd206b7d19aa46d847206386d84e3dc6b8de0926e54affa6fddc90600090a25050565b60016020819052600091825260409091208054918101546002820180546001600160a01b039092169291610b1790610fe3565b80601f0160208091040260200160405190810160405280929190818152602001828054610b4390610fe3565b8015610b905780601f10610b6557610100808354040283529160200191610b90565b820191906000526020600020905b815481529060010190602001808311610b7357829003601f168201915b50505050600383015460049093015491929160ff16905085565b610bb48133610d35565b50565b6000610bc38383610812565b610c41576000838152602081815260408083206001600160a01b03861684529091529020805460ff19166001179055610bf93390565b6001600160a01b0316826001600160a01b0316847f2f8788117e7eff1d82e926ec794901d17c78024a50270940304540a733656f0d60405160405180910390a4506001610315565b506000610315565b6000610c558383610812565b15610c41576000838152602081815260408083206001600160a01b0386168085529252808320805460ff1916905551339286917ff6391f5c32d9c69d2a47ea670b442974b53935d1edc7fd64eb21e047a839171b9190a4506001610315565b600480546040516331a9108f60e11b815291820183905260009182916001600160a01b031690636352211e90602401602060405180830381865afa158015610d00573d6000803e3d6000fd5b505050506040513d601f19601f82011682018060405250810190610d2491906112f8565b6001600160a01b0316141592915050565b610d3f8282610812565b610d6e5760405163e2517d3f60e01b81526001600160a01b0382166004820152602481018390526044016104db565b5050565b600060208284031215610d8457600080fd5b81356001600160e01b031981168114610d9c57600080fd5b9392505050565b600060208284031215610db557600080fd5b5035919050565b6001600160a01b0381168114610bb457600080fd5b60008060408385031215610de457600080fd5b823591506020830135610df681610dbc565b809150509250929050565b6000815180845260005b81811015610e2757602081850181015186830182015201610e0b565b506000602082860101526020601f19601f83011685010191505092915050565b602081528151602082015260018060a01b0360208301511660408201526000604083015160a06060840152610e7f60c0840182610e01565b9050606084015160808401526080840151151560a08401528091505092915050565b600080600060408486031215610eb657600080fd5b83359250602084013567ffffffffffffffff80821115610ed557600080fd5b818601915086601f830112610ee957600080fd5b813581811115610ef857600080fd5b876020828501011115610f0a57600080fd5b6020830194508093505050509250925092565b60008060408385031215610f3057600080fd5b50508035926020909101359150565b6020808252825182820181905260009190848201906040850190845b81811015610f7757835183529284019291840191600101610f5b565b50909695505050505050565b600060208284031215610f9557600080fd5b8135610d9c81610dbc565b8581526001600160a01b038516602082015260a060408201819052600090610fca90830186610e01565b6060830194909452509015156080909101529392505050565b600181811c90821680610ff757607f821691505b60208210810361101757634e487b7160e01b600052602260045260246000fd5b50919050565b60208082526024908201527f417564697452656769737472793a2049504653206861736820697320726571756040820152631a5c995960e21b606082015260800190565b60208082526027908201527f417564697452656769737472793a204e6f7420746865206f726967696e616c2060408201526630bab234ba37b960c91b606082015260800190565b634e487b7160e01b600052604160045260246000fd5b601f821115610379576000816000526020600020601f850160051c810160208610156110e75750805b601f850160051c820191505b81811015611106578281556001016110f3565b505050505050565b600019600383901b1c191660019190911b1790565b67ffffffffffffffff83111561113b5761113b6110a8565b61114f836111498354610fe3565b836110be565b6000601f84116001811461117d576000851561116b5750838201355b611175868261110e565b8455506111d7565b600083815260209020601f19861690835b828110156111ae578685013582556020948501946001909201910161118e565b50868210156111cb5760001960f88860031b161c19848701351681555b505060018560011b0183555b5050505050565b604081528260408201528284606083013760006060848301015260006060601f19601f8601168301019050826020830152949350505050565b60006001820161123757634e487b7160e01b600052601160045260246000fd5b5060010190565b815167ffffffffffffffff811115611258576112586110a8565b61126c816112668454610fe3565b846110be565b602080601f83116001811461129b57600084156112895750858301515b611293858261110e565b865550611106565b600085815260208120601f198616915b828110156112ca578886015182559484019460019091019084016112ab565b50858210156112e85787850151600019600388901b60f8161c191681555b5050505050600190811b01905550565b60006020828403121561130a57600080fd5b8151610d9c81610dbc56fe59a1c48e5837ad7a7f3dcedcbe129bf3249ec4fbf651fd4f5e2600ead39fe2f5a2646970667358221220a155bdb1c8a0165e424a843e49fac40b3024ecb814eaaf51cf2c8ef3c3aa97a764736f6c63430008180033a2646970667358221220580a8bb2b92a4da9c486c5be78877633df35fbbbbbde17fb3c9a50484af6c8e164736f6c63430008180033",
  "linkReferences": {},
  "deployedLinkReferences": {}
}