{
  "_format": "hh-sol-artifact-1",
  "contractName": "BuildingFactoryMock",
  "sourceName": "contracts/buildings/mock/BuildingFactoryMock.sol",
  "abi": [
    {
      "inputs": [],
      "name": "InvalidInitialization",
      "type": "error"
    },
    {
      "inputs": [],
      "name": "NotInitializing",
      "type": "error"
    },
    {
      "anonymous": false,
      "inputs": [
        {
          "indexed": false,
          "internalType": "uint64",
          "name": "version",
          "type": "uint64"
        }
      ],
      "name": "Initialized",
      "type": "event"
    },
    {
      "anonymous": false,
      "inputs": [
        {
          "indexed": false,
          "internalType": "address",
          "name": "buildingAddress",
          "type": "address"
        },
        {
          "indexed": false,
          "internalType": "address",
          "name": "erc3643Token",
          "type": "address"
        },
        {
          "indexed": false,
          "internalType": "address",
          "name": "treasury",
          "type": "address"
        },
        {
          "indexed": false,
          "internalType": "address",
          "name": "vault",
          "type": "address"
        },
        {
          "indexed": false,
          "internalType": "address",
          "name": "governance",
          "type": "address"
        },
        {
          "indexed": false,
          "internalType": "address",
          "name": "initialOwner",
          "type": "address"
        },
        {
          "indexed": false,
          "internalType": "address",
          "name": "autoCompounder",
          "type": "address"
        }
      ],
      "name": "NewBuilding",
      "type": "event"
    },
    {
      "inputs": [
        {
          "internalType": "address",
          "name": "buildingAddress",
          "type": "address"
        }
      ],
      "name": "getBuildingDetails",
      "outputs": [
        {
          "components": [
            {
              "internalType": "address",
              "name": "addr",
              "type": "address"
            },
            {
              "internalType": "uint256",
              "name": "nftId",
              "type": "uint256"
            },
            {
              "internalType": "string",
              "name": "tokenURI",
              "type": "string"
            },
            {
              "internalType": "address",
              "name": "identity",
              "type": "address"
            },
            {
              "internalType": "address",
              "name": "erc3643Token",
              "type": "address"
            },
            {
              "internalType": "address",
              "name": "treasury",
              "type": "address"
            },
            {
              "internalType": "address",
              "name": "governance",
              "type": "address"
            },
            {
              "internalType": "address",
              "name": "vault",
              "type": "address"
            },
            {
              "internalType": "address",
              "name": "autoCompounder",
              "type": "address"
            }
          ],
          "internalType": "struct BuildingFactoryStorage.BuildingDetails",
          "name": "",
          "type": "tuple"
        }
      ],
      "stateMutability": "view",
      "type": "function"
    },
    {
      "inputs": [],
      "name": "getBuildingList",
      "outputs": [
        {
          "components": [
            {
              "internalType": "address",
              "name": "addr",
              "type": "address"
            },
            {
              "internalType": "uint256",
              "name": "nftId",
              "type": "uint256"
            },
            {
              "internalType": "string",
              "name": "tokenURI",
              "type": "string"
            },
            {
              "internalType": "address",
              "name": "identity",
              "type": "address"
            },
            {
              "internalType": "address",
              "name": "erc3643Token",
              "type": "address"
            },
            {
              "internalType": "address",
              "name": "treasury",
              "type": "address"
            },
            {
              "internalType": "address",
              "name": "governance",
              "type": "address"
            },
            {
              "internalType": "address",
              "name": "vault",
              "type": "address"
            },
            {
              "internalType": "address",
              "name": "autoCompounder",
              "type": "address"
            }
          ],
          "internalType": "struct BuildingFactoryStorage.BuildingDetails[]",
          "name": "",
          "type": "tuple[]"
        }
      ],
      "stateMutability": "view",
      "type": "function"
    },
    {
      "inputs": [
        {
          "internalType": "address",
          "name": "_nft",
          "type": "address"
        },
        {
          "internalType": "address",
          "name": "_uniswapRouter",
          "type": "address"
        },
        {
          "internalType": "address",
          "name": "_uniswapFactory",
          "type": "address"
        },
        {
          "internalType": "address",
          "name": "_onchainIdGateway",
          "type": "address"
        },
        {
          "internalType": "address",
          "name": "_trexGateway",
          "type": "address"
        },
        {
          "internalType": "address",
          "name": "_usdc",
          "type": "address"
        },
        {
          "internalType": "address",
          "name": "_buildingBeacon",
          "type": "address"
        },
        {
          "internalType": "address",
          "name": "_treasuryBeacon",
          "type": "address"
        },
        {
          "internalType": "address",
          "name": "_governanceBeacon",
          "type": "address"
        }
      ],
      "name": "initialize",
      "outputs": [],
      "stateMutability": "nonpayable",
      "type": "function"
    },
    {
      "inputs": [
        {
          "components": [
            {
              "internalType": "string",
              "name": "tokenURI",
              "type": "string"
            },
            {
              "internalType": "string",
              "name": "tokenName",
              "type": "string"
            },
            {
              "internalType": "string",
              "name": "tokenSymbol",
              "type": "string"
            },
            {
              "internalType": "uint8",
              "name": "tokenDecimals",
              "type": "uint8"
            },
            {
              "internalType": "uint256",
              "name": "tokenMintAmount",
              "type": "uint256"
            },
            {
              "internalType": "uint256",
              "name": "treasuryReserveAmount",
              "type": "uint256"
            },
            {
              "internalType": "uint256",
              "name": "treasuryNPercent",
              "type": "uint256"
            },
            {
              "internalType": "string",
              "name": "governanceName",
              "type": "string"
            },
            {
              "internalType": "string",
              "name": "vaultShareTokenName",
              "type": "string"
            },
            {
              "internalType": "string",
              "name": "vaultShareTokenSymbol",
              "type": "string"
            },
            {
              "internalType": "address",
              "name": "vaultFeeReceiver",
              "type": "address"
            },
            {
              "internalType": "address",
              "name": "vaultFeeToken",
              "type": "address"
            },
            {
              "internalType": "uint256",
              "name": "vaultFeePercentage",
              "type": "uint256"
            },
            {
              "internalType": "uint32",
              "name": "vaultCliff",
              "type": "uint32"
            },
            {
              "internalType": "uint32",
              "name": "vaultUnlockDuration",
              "type": "uint32"
            },
            {
              "internalType": "string",
              "name": "aTokenName",
              "type": "string"
            },
            {
              "internalType": "string",
              "name": "aTokenSymbol",
              "type": "string"
            }
          ],
          "internalType": "struct BuildingFactoryStorage.NewBuildingDetails",
          "name": "details",
          "type": "tuple"
        }
      ],
      "name": "newBuilding",
      "outputs": [
        {
          "components": [
            {
              "internalType": "address",
              "name": "addr",
              "type": "address"
            },
            {
              "internalType": "uint256",
              "name": "nftId",
              "type": "uint256"
            },
            {
              "internalType": "string",
              "name": "tokenURI",
              "type": "string"
            },
            {
              "internalType": "address",
              "name": "identity",
              "type": "address"
            },
            {
              "internalType": "address",
              "name": "erc3643Token",
              "type": "address"
            },
            {
              "internalType": "address",
              "name": "treasury",
              "type": "address"
            },
            {
              "internalType": "address",
              "name": "governance",
              "type": "address"
            },
            {
              "internalType": "address",
              "name": "vault",
              "type": "address"
            },
            {
              "internalType": "address",
              "name": "autoCompounder",
              "type": "address"
            }
          ],
          "internalType": "struct BuildingFactoryStorage.BuildingDetails",
          "name": "buildingDetails",
          "type": "tuple"
        }
      ],
      "stateMutability": "nonpayable",
      "type": "function"
    },
    {
      "inputs": [],
      "name": "version",
      "outputs": [
        {
          "internalType": "string",
          "name": "",
          "type": "string"
        }
      ],
      "stateMutability": "pure",
      "type": "function"
    }
  ],
  "bytecode": "0x608060405234801561001057600080fd5b5061001961001e565b6100d0565b7ff0c57e16840df040f15088dc2f81fe391c3923bec73e23a9662efc9c229c6a00805468010000000000000000900460ff161561006e5760405163f92ee8a960e01b815260040160405180910390fd5b80546001600160401b03908116146100cd5780546001600160401b0319166001600160401b0390811782556040519081527fc7f505b2f371ae2175ee4913f4499e1f2633a7b5936321eed1cdaeb6115181d29060200160405180910390a15b50565b61253c80620000e06000396000f3fe60806040523480156200001157600080fd5b50600436106200005e5760003560e01c806354fd4d501462000063578063665fa4a11462000093578063899a0ebe14620000b9578063db652ec814620000d0578063f5e95acb14620000e9575b600080fd5b60408051808201825260038152620322e360ec1b602082015290516200008a919062001790565b60405180910390f35b620000aa620000a4366004620017c5565b62000102565b6040516200008a9190620018b1565b620000aa620000ca366004620018c6565b62000252565b620000da6200026d565b6040516200008a919062001904565b62000100620000fa3660046200196c565b620003ec565b005b6200010c620016ed565b60006200011862000513565b6001600160a01b038085166000908152600a8301602090815260409182902082516101208101845281549094168452600181015491840191909152600281018054949550929390929184019190620001709062001a3b565b80601f01602080910402602001604051908101604052809291908181526020018280546200019e9062001a3b565b8015620001ef5780601f10620001c357610100808354040283529160200191620001ef565b820191906000526020600020905b815481529060010190602001808311620001d157829003601f168201915b505050918352505060038201546001600160a01b0390811660208301526004830154811660408301526005830154811660608301526006830154811660808301526007830154811660a083015260089092015490911660c0909101529392505050565b6200025c620016ed565b620002678262000537565b92915050565b606060006200027b62000513565b6009810180546040805160208084028201810190925282815293945060009084015b82821015620003e257600084815260209081902060408051610120810182526009860290920180546001600160a01b0316835260018101549383019390935260028301805492939291840191620002f49062001a3b565b80601f0160208091040260200160405190810160405280929190818152602001828054620003229062001a3b565b8015620003735780601f10620003475761010080835404028352916020019162000373565b820191906000526020600020905b8154815290600101906020018083116200035557829003601f168201915b505050918352505060038201546001600160a01b039081166020808401919091526004840154821660408401526005840154821660608401526006840154821660808401526007840154821660a08401526008909301541660c09091015290825260019290920191016200029d565b5050505091505090565b7ff0c57e16840df040f15088dc2f81fe391c3923bec73e23a9662efc9c229c6a008054600160401b810460ff1615906001600160401b0316600081158015620004325750825b90506000826001600160401b031660011480156200044f5750303b155b9050811580156200045e575080155b156200047d5760405163f92ee8a960e01b815260040160405180910390fd5b845467ffffffffffffffff191660011785558315620004a857845460ff60401b1916600160401b1785555b620004bb8e8e8e8e8e8e8e8e8e6200146d565b83156200050357845460ff60401b19168555604051600181527fc7f505b2f371ae2175ee4913f4499e1f2633a7b5936321eed1cdaeb6115181d2906020015b60405180910390a15b5050505050505050505050505050565b7f0f40dde8b99b0722537b774c6ef775b5e5a0af035d95bf9802cd87411f806f0090565b62000541620016ed565b60006200054d62000513565b6040805161012081018252600080825260208201819052818301819052606082018190526080820181905260a0820181905260c0820181905260e0820181905261010082015260038301546001840154600285015493516001600160a01b03918216602482015293811660448501523360648501529394509092169063c0c53b8b60e01b9060840160408051601f198184030181529181526020820180516001600160e01b03166001600160e01b031990941693909317909252905162000614906200173a565b6200062192919062001a77565b604051809103906000f0801580156200063e573d6000803e3d6000fd5b506001600160a01b039081166020830181905233835283549091169063d0def521906200066c878062001aa5565b6040518463ffffffff1660e01b81526004016200068c9392919062001af5565b6020604051808303816000875af1158015620006ac573d6000803e3d6000fd5b505050506040513d601f19601f82011682018060405250810190620006d2919062001b35565b60408083019190915260048084015460208401519251633e8e6e8b60e01b81526001600160a01b0390911692633e8e6e8b9262000710920162001b4f565b6020604051808303816000875af115801562000730573d6000803e3d6000fd5b505050506040513d601f19601f8201168201806040525081019062000756919062001b63565b6001600160a01b0390811660608301526040805160a0810182526005850154831681526020808501519093168382015273__$6bcf1faf5c0920414dc51cd0daeb07e0f7$__92633af9cf1e92820190620007b39089018962001aa5565b8080601f016020809104026020016040519081016040528093929190818152602001838380828437600092019190915250505090825250602001620007fc604089018962001aa5565b8080601f016020809104026020016040519081016040528093929190818152602001838380828437600092019190915250505090825250602001620008486080890160608a0162001b83565b60ff168152506040518263ffffffff1660e01b81526004016200086c919062001ba8565b602060405180830381865af41580156200088a573d6000803e3d6000fd5b505050506040513d601f19601f82011682018060405250810190620008b0919062001b63565b6001600160a01b039081166080838101919091526040805160e081018252600686015484168152845184166020820190815260a08981013583850190815260c0808c0135606086019081528951891697860197885260078b0154891693860193845230918601918252955163af15b96960e01b8152945188166004860152925187166024850152516044840152925160648301529251841660848201529051831660a4820152905190911660c482015273__$6dd86c1de004dc2dd48a17c9065be1de70$__9063af15b9699060e401602060405180830381865af41580156200099d573d6000803e3d6000fd5b505050506040513d601f19601f82011682018060405250810190620009c3919062001b63565b6001600160a01b0390811660a08301526040805161014081019091526080830151909116815273__$e6502af67ab2c746a64bc3775a7b8857c1$__9063cd6856ef906020810162000a1961010089018962001aa5565b8080601f01602080910402602001604051908101604052809392919081815260200183838082843760009201919091525050509082525060200162000a6361012089018962001aa5565b8080601f01602080910402602001604051908101604052809392919081815260200183838082843760009201919091525050509082525060200162000ab161016089016101408a01620017c5565b6001600160a01b0316815260200162000ad361018089016101608a01620017c5565b6001600160a01b0390811682526101808901356020830152855181166040830152855116606082015260800162000b136101c089016101a08a0162001c1f565b63ffffffff16815260200162000b326101e089016101c08a0162001c1f565b63ffffffff168152506040518263ffffffff1660e01b815260040162000b59919062001c47565b602060405180830381865af415801562000b77573d6000803e3d6000fd5b505050506040513d601f19601f8201168201806040525081019062000b9d919062001b63565b6001600160a01b0390811660c08301526040805160a0810182526008850154831681526080840151909216602083015273__$9b19b7f7ded493586f11dad0d7ebc9ca26$__9163d88d811091810162000bfa60e089018962001aa5565b8080601f01602080910402602001604051908101604052809392919081815260200183838082843760009201919091525050509082525060a08501516001600160a01b039081166020830152855116604091820152516001600160e01b031960e084901b16815262000c70919060040162001d2c565b602060405180830381865af415801562000c8e573d6000803e3d6000fd5b505050506040513d601f19601f8201168201806040525081019062000cb4919062001b63565b6001600160a01b0390811660e08301526040805160c080820183526002860154841682528401518316602082015260078501549092169082015273__$3080f05ed92e5505050a1e3d528e8c5fcb$__9063ea5fb336906060810162000d1e6101e089018962001aa5565b8080601f01602080910402602001604051908101604052809392919081815260200183838082843760009201919091525050509082525060200162000d6861020089018962001aa5565b8080601f01602080910402602001604051908101604052809392919081815260200183838082843760009201919091525050509082525084516001600160a01b03166020909101526040516001600160e01b031960e084901b16815262000dd3919060040162001d8e565b602060405180830381865af415801562000df1573d6000803e3d6000fd5b505050506040513d601f19601f8201168201806040525081019062000e17919062001b63565b6001600160a01b0390811661010083015260a082015160e08301516040516260360760e81b8152919092169163603607009162000e58919060040162001b4f565b600060405180830381600087803b15801562000e7357600080fd5b505af115801562000e88573d6000803e3d6000fd5b505050508060a001516001600160a01b031663256b5a028260c001516040518263ffffffff1660e01b815260040162000ec2919062001b4f565b600060405180830381600087803b15801562000edd57600080fd5b505af115801562000ef2573d6000803e3d6000fd5b5050505060c081015160a0820151604051632f2ff15d60e01b81527f477fc23fb51bb5d5aa814872a393b0e4f35d0916c7503c0fd96584681070d41060048201526001600160a01b039182166024820152911690632f2ff15d90604401600060405180830381600087803b15801562000f6a57600080fd5b505af115801562000f7f573d6000803e3d6000fd5b5050505060c0810151815160405163f2fde38b60e01b81526001600160a01b039092169163f2fde38b9162000fb79160040162001b4f565b600060405180830381600087803b15801562000fd257600080fd5b505af115801562000fe7573d6000803e3d6000fd5b5050505060808181015182516040516340c10f1960e01b81526001600160a01b03918216600482015292870135602484015216906340c10f1990604401600060405180830381600087803b1580156200103f57600080fd5b505af115801562001054573d6000803e3d6000fd5b505050506080810151815160405163f2fde38b60e01b81526001600160a01b039092169163f2fde38b916200108c9160040162001b4f565b600060405180830381600087803b158015620010a757600080fd5b505af1158015620010bc573d6000803e3d6000fd5b50505050610100810151815160405163f2fde38b60e01b81526001600160a01b039092169163f2fde38b91620010f59160040162001b4f565b600060405180830381600087803b1580156200111057600080fd5b505af115801562001125573d6000803e3d6000fd5b505060408051610120810182526020808601516001600160a01b0316825285830151908201529250820190506200115d868062001aa5565b8080601f01602080910402602001604051908101604052809392919081815260200183838082843760009201829052509385525050506060848101516001600160a01b03908116602080860191909152608080880151831660408088019190915260a0808a015185169588019590955260e089015184169187019190915260c080890151841694870194909452610100880151831693909501929092528186015181168352600a8701825291839020845181546001600160a01b03191693169290921782558301516001820155908201519194508491600282019062001244908262001e7b565b5060608201516003820180546001600160a01b03199081166001600160a01b03938416179091556080840151600484018054831691841691909117905560a0840151600584018054831691841691909117905560c0840151600684018054831691841691909117905560e08401516007840180548316918416919091179055610100909301516008909201805484169282169290921790915560098481018054600181810183556000928352602092839020895192909402909301805490951693169290921783559085015190820155604084015184919060028201906200132d908262001e7b565b5060608201516003820180546001600160a01b039283166001600160a01b03199182161790915560808085015160048501805491851691841691909117905560a08086015160058601805491861691851691909117905560c08087015160068701805491871691861691909117905560e08088015160078801805491881691871691909117905561010097880151600890970180549790961696909416959095179093556020860151908601519286015193860151918601518651958701516040517f3163bceb365c85326c53476ceb0b49cfacb67f6d675e6eeb739c58ceb8b20bb6976200145e97949695939290916001600160a01b03978816815295871660208701529386166040860152918516606085015284166080840152831660a083015290911660c082015260e00190565b60405180910390a15050919050565b7ff0c57e16840df040f15088dc2f81fe391c3923bec73e23a9662efc9c229c6a008054600160401b810460ff1615906001600160401b0316600081158015620014b35750825b90506000826001600160401b03166001148015620014d05750303b155b905081158015620014df575080155b15620014fe5760405163f92ee8a960e01b815260040160405180910390fd5b845467ffffffffffffffff1916600117855583156200152957845460ff60401b1916600160401b1785555b60006200153562000513565b90508e8160000160006101000a8154816001600160a01b0302191690836001600160a01b031602179055508d8160010160006101000a8154816001600160a01b0302191690836001600160a01b031602179055508c8160020160006101000a8154816001600160a01b0302191690836001600160a01b03160217905550888160030160006101000a8154816001600160a01b0302191690836001600160a01b031602179055508b8160040160006101000a8154816001600160a01b0302191690836001600160a01b031602179055508a8160050160006101000a8154816001600160a01b0302191690836001600160a01b03160217905550878160060160006101000a8154816001600160a01b0302191690836001600160a01b03160217905550898160070160006101000a8154816001600160a01b0302191690836001600160a01b03160217905550868160080160006101000a8154816001600160a01b0302191690836001600160a01b031602179055505083156200050357845460ff60401b19168555604051600181527fc7f505b2f371ae2175ee4913f4499e1f2633a7b5936321eed1cdaeb6115181d290602001620004fa565b604080516101208101825260008082526020820181905260609282018390529181018290526080810182905260a0810182905260c0810182905260e0810182905261010081019190915290565b6105bf8062001f4883390190565b6000815180845260005b81811015620017705760208185018101518683018201520162001752565b506000602082860101526020601f19601f83011685010191505092915050565b602081526000620017a5602083018462001748565b9392505050565b6001600160a01b0381168114620017c257600080fd5b50565b600060208284031215620017d857600080fd5b8135620017a581620017ac565b6001600160a01b03169052565b600061012060018060a01b038351168452602083015160208501526040830151816040860152620018268286018262001748565b91505060608301516200183d6060860182620017e5565b506080830151620018526080860182620017e5565b5060a08301516200186760a0860182620017e5565b5060c08301516200187c60c0860182620017e5565b5060e08301516200189160e0860182620017e5565b5061010080840151620018a782870182620017e5565b5090949350505050565b602081526000620017a56020830184620017f2565b600060208284031215620018d957600080fd5b81356001600160401b03811115620018f057600080fd5b82016102208185031215620017a557600080fd5b600060208083016020845280855180835260408601915060408160051b87010192506020870160005b828110156200195f57603f198886030184526200194c858351620017f2565b945092850192908501906001016200192d565b5092979650505050505050565b60008060008060008060008060006101208a8c0312156200198c57600080fd5b89356200199981620017ac565b985060208a0135620019ab81620017ac565b975060408a0135620019bd81620017ac565b965060608a0135620019cf81620017ac565b955060808a0135620019e181620017ac565b945060a08a0135620019f381620017ac565b935060c08a013562001a0581620017ac565b925060e08a013562001a1781620017ac565b91506101008a013562001a2a81620017ac565b809150509295985092959850929598565b600181811c9082168062001a5057607f821691505b60208210810362001a7157634e487b7160e01b600052602260045260246000fd5b50919050565b6001600160a01b038316815260406020820181905260009062001a9d9083018462001748565b949350505050565b6000808335601e1984360301811262001abd57600080fd5b8301803591506001600160401b0382111562001ad857600080fd5b60200191503681900382131562001aee57600080fd5b9250929050565b6001600160a01b03841681526040602082018190528101829052818360608301376000818301606090810191909152601f909201601f1916010192915050565b60006020828403121562001b4857600080fd5b5051919050565b6001600160a01b0391909116815260200190565b60006020828403121562001b7657600080fd5b8151620017a581620017ac565b60006020828403121562001b9657600080fd5b813560ff81168114620017a557600080fd5b60208152600060018060a01b0380845116602084015280602085015116604084015250604083015160a0606084015262001be660c084018262001748565b90506060840151601f1984830301608085015262001c05828262001748565b91505060ff60808501511660a08401528091505092915050565b60006020828403121562001c3257600080fd5b813563ffffffff81168114620017a557600080fd5b6020815262001c5b602082018351620017e5565b6000602083015161014080604085015262001c7b61016085018362001748565b91506040850151601f1985840301606086015262001c9a838262001748565b925050606085015162001cb16080860182620017e5565b50608085015162001cc660a0860182620017e5565b5060a085015160c085015260c085015162001ce560e0860182620017e5565b5060e085015161010062001cfc81870183620017e5565b860151905061012062001d168682018363ffffffff169052565b86015163ffffffff8116838701529050620018a7565b60208152600060018060a01b03808451166020840152806020850151166040840152604084015160a0606085015262001d6960c085018262001748565b90508160608601511660808501528160808601511660a0850152809250505092915050565b60208152600060018060a01b03808451166020840152806020850151166040840152806040850151166060840152606084015160c0608085015262001dd760e085018262001748565b90506080850151601f198583030160a086015262001df6828262001748565b9150508160a08601511660c0850152809250505092915050565b634e487b7160e01b600052604160045260246000fd5b601f82111562001e76576000816000526020600020601f850160051c8101602086101562001e515750805b601f850160051c820191505b8181101562001e725782815560010162001e5d565b5050505b505050565b81516001600160401b0381111562001e975762001e9762001e10565b62001eaf8162001ea8845462001a3b565b8462001e26565b602080601f83116001811462001ee7576000841562001ece5750858301515b600019600386901b1c1916600185901b17855562001e72565b600085815260208120601f198616915b8281101562001f185788860151825594840194600190910190840162001ef7565b508582101562001f375787850151600019600388901b60f8161c191681555b5050505050600190811b0190555056fe60a06040526040516105bf3803806105bf83398101604081905261002291610387565b61002c828261003e565b506001600160a01b031660805261047e565b610047826100fe565b6040516001600160a01b038316907f1cf3b03a6cf19fa2baba4df148e9dcabedea7f8a5c07840e207e5c089be95d3e90600090a28051156100f2576100ed826001600160a01b0316635c60da1b6040518163ffffffff1660e01b8152600401602060405180830381865afa1580156100c3573d6000803e3d6000fd5b505050506040513d601f19601f820116820180604052508101906100e79190610447565b82610211565b505050565b6100fa610288565b5050565b806001600160a01b03163b60000361013957604051631933b43b60e21b81526001600160a01b03821660048201526024015b60405180910390fd5b807fa3f0ad74e5423aebfd80d3ef4346578335a9a72aeaee59ff6cb3582b35133d5080546001600160a01b0319166001600160a01b0392831617905560408051635c60da1b60e01b81529051600092841691635c60da1b9160048083019260209291908290030181865afa1580156101b5573d6000803e3d6000fd5b505050506040513d601f19601f820116820180604052508101906101d99190610447565b9050806001600160a01b03163b6000036100fa57604051634c9c8ce360e01b81526001600160a01b0382166004820152602401610130565b6060600080846001600160a01b03168460405161022e9190610462565b600060405180830381855af49150503d8060008114610269576040519150601f19603f3d011682016040523d82523d6000602084013e61026e565b606091505b50909250905061027f8583836102a9565b95945050505050565b34156102a75760405163b398979f60e01b815260040160405180910390fd5b565b6060826102be576102b982610308565b610301565b81511580156102d557506001600160a01b0384163b155b156102fe57604051639996b31560e01b81526001600160a01b0385166004820152602401610130565b50805b9392505050565b8051156103185780518082602001fd5b604051630a12f52160e11b815260040160405180910390fd5b80516001600160a01b038116811461034857600080fd5b919050565b634e487b7160e01b600052604160045260246000fd5b60005b8381101561037e578181015183820152602001610366565b50506000910152565b6000806040838503121561039a57600080fd5b6103a383610331565b60208401519092506001600160401b03808211156103c057600080fd5b818501915085601f8301126103d457600080fd5b8151818111156103e6576103e661034d565b604051601f8201601f19908116603f0116810190838211818310171561040e5761040e61034d565b8160405282815288602084870101111561042757600080fd5b610438836020830160208801610363565b80955050505050509250929050565b60006020828403121561045957600080fd5b61030182610331565b60008251610474818460208701610363565b9190910192915050565b6080516101276104986000396000601e01526101276000f3fe6080604052600a600c565b005b60186014601a565b60a0565b565b60007f00000000000000000000000000000000000000000000000000000000000000006001600160a01b0316635c60da1b6040518163ffffffff1660e01b8152600401602060405180830381865afa1580156079573d6000803e3d6000fd5b505050506040513d601f19601f82011682018060405250810190609b919060c3565b905090565b3660008037600080366000845af43d6000803e80801560be573d6000f35b3d6000fd5b60006020828403121560d457600080fd5b81516001600160a01b038116811460ea57600080fd5b939250505056fea26469706673582212205c8a2fcdc6f79c1d43b849e2b03f494652cee222b2ec86046b7caaa1405f985f64736f6c63430008180033a2646970667358221220e14a47d31ba002e624279c018b375ba11bbe7e2de50361c955812e5534bd91c964736f6c63430008180033",
  "linkReferences": {
    "contracts/buildings/library/BuildingAutoCompounder.sol": {
      "BuildingAutoCompounderLib": [
        {
          "length": 20,
          "start": 3536
        }
      ]
    },
    "contracts/buildings/library/BuildingGovernance.sol": {
      "BuildingGovernanceLib": [
        {
          "length": 20,
          "start": 3247
        }
      ]
    },
    "contracts/buildings/library/BuildingToken.sol": {
      "BuildingTokenLib": [
        {
          "length": 20,
          "start": 2152
        }
      ]
    },
    "contracts/buildings/library/BuildingTreasury.sol": {
      "BuildingTreasuryLib": [
        {
          "length": 20,
          "start": 2626
        }
      ]
    },
    "contracts/buildings/library/BuildingVault.sol": {
      "BuildingVaultLib": [
        {
          "length": 20,
          "start": 2763
        }
      ]
    }
  },
  "deployedLinkReferences": {
    "contracts/buildings/library/BuildingAutoCompounder.sol": {
      "BuildingAutoCompounderLib": [
        {
          "length": 20,
          "start": 3312
        }
      ]
    },
    "contracts/buildings/library/BuildingGovernance.sol": {
      "BuildingGovernanceLib": [
        {
          "length": 20,
          "start": 3023
        }
      ]
    },
    "contracts/buildings/library/BuildingToken.sol": {
      "BuildingTokenLib": [
        {
          "length": 20,
          "start": 1928
        }
      ]
    },
    "contracts/buildings/library/BuildingTreasury.sol": {
      "BuildingTreasuryLib": [
        {
          "length": 20,
          "start": 2402
        }
      ]
    },
    "contracts/buildings/library/BuildingVault.sol": {
      "BuildingVaultLib": [
        {
          "length": 20,
          "start": 2539
        }
      ]
    }
  }
}