{
  "_format": "hh-sol-artifact-1",
  "contractName": "Building",
  "sourceName": "contracts/buildings/Building.sol",
  "abi": [
    {
      "inputs": [],
      "stateMutability": "nonpayable",
      "type": "constructor"
    },
    {
      "inputs": [],
      "name": "InvalidInitialization",
      "type": "error"
    },
    {
      "inputs": [],
      "name": "NotInitializing",
      "type": "error"
    },
    {
      "inputs": [
        {
          "internalType": "address",
          "name": "owner",
          "type": "address"
        }
      ],
      "name": "OwnableInvalidOwner",
      "type": "error"
    },
    {
      "inputs": [
        {
          "internalType": "address",
          "name": "account",
          "type": "address"
        }
      ],
      "name": "OwnableUnauthorizedAccount",
      "type": "error"
    },
    {
      "anonymous": false,
      "inputs": [
        {
          "indexed": false,
          "internalType": "uint64",
          "name": "version",
          "type": "uint64"
        }
      ],
      "name": "Initialized",
      "type": "event"
    },
    {
      "anonymous": false,
      "inputs": [
        {
          "indexed": false,
          "internalType": "address",
          "name": "addr",
          "type": "address"
        }
      ],
      "name": "NewAuditRegistry",
      "type": "event"
    },
    {
      "anonymous": false,
      "inputs": [
        {
          "indexed": true,
          "internalType": "address",
          "name": "previousOwner",
          "type": "address"
        },
        {
          "indexed": true,
          "internalType": "address",
          "name": "newOwner",
          "type": "address"
        }
      ],
      "name": "OwnershipTransferred",
      "type": "event"
    },
    {
      "inputs": [
        {
          "internalType": "address",
          "name": "tokenA",
          "type": "address"
        },
        {
          "internalType": "uint256",
          "name": "tokenAAmount",
          "type": "uint256"
        },
        {
          "internalType": "address",
          "name": "tokenB",
          "type": "address"
        },
        {
          "internalType": "uint256",
          "name": "tokenBAmount",
          "type": "uint256"
        }
      ],
      "name": "addLiquidity",
      "outputs": [
        {
          "internalType": "uint256",
          "name": "amountA",
          "type": "uint256"
        },
        {
          "internalType": "uint256",
          "name": "amountB",
          "type": "uint256"
        },
        {
          "internalType": "uint256",
          "name": "liquidity",
          "type": "uint256"
        },
        {
          "internalType": "address",
          "name": "pair",
          "type": "address"
        }
      ],
      "stateMutability": "payable",
      "type": "function"
    },
    {
      "inputs": [
        {
          "internalType": "address",
          "name": "callableContract",
          "type": "address"
        },
        {
          "internalType": "bytes",
          "name": "data",
          "type": "bytes"
        }
      ],
      "name": "callContract",
      "outputs": [
        {
          "internalType": "bytes",
          "name": "",
          "type": "bytes"
        }
      ],
      "stateMutability": "payable",
      "type": "function"
    },
    {
      "inputs": [],
      "name": "getAuditRegistry",
      "outputs": [
        {
          "internalType": "address",
          "name": "",
          "type": "address"
        }
      ],
      "stateMutability": "view",
      "type": "function"
    },
    {
      "inputs": [],
      "name": "getUniswapFactory",
      "outputs": [
        {
          "internalType": "address",
          "name": "",
          "type": "address"
        }
      ],
      "stateMutability": "view",
      "type": "function"
    },
    {
      "inputs": [],
      "name": "getUniswapRouter",
      "outputs": [
        {
          "internalType": "address",
          "name": "",
          "type": "address"
        }
      ],
      "stateMutability": "view",
      "type": "function"
    },
    {
      "inputs": [
        {
          "internalType": "address",
          "name": "_uniswapRouter",
          "type": "address"
        },
        {
          "internalType": "address",
          "name": "_uniswapFactory",
          "type": "address"
        },
        {
          "internalType": "address",
          "name": "_nftAddress",
          "type": "address"
        }
      ],
      "name": "initialize",
      "outputs": [],
      "stateMutability": "nonpayable",
      "type": "function"
    },
    {
      "inputs": [
        {
          "internalType": "address",
          "name": "",
          "type": "address"
        },
        {
          "internalType": "address",
          "name": "",
          "type": "address"
        },
        {
          "internalType": "uint256",
          "name": "",
          "type": "uint256"
        },
        {
          "internalType": "bytes",
          "name": "",
          "type": "bytes"
        }
      ],
      "name": "onERC721Received",
      "outputs": [
        {
          "internalType": "bytes4",
          "name": "",
          "type": "bytes4"
        }
      ],
      "stateMutability": "pure",
      "type": "function"
    },
    {
      "inputs": [],
      "name": "owner",
      "outputs": [
        {
          "internalType": "address",
          "name": "",
          "type": "address"
        }
      ],
      "stateMutability": "view",
      "type": "function"
    },
    {
      "inputs": [],
      "name": "renounceOwnership",
      "outputs": [],
      "stateMutability": "nonpayable",
      "type": "function"
    },
    {
      "inputs": [
        {
          "internalType": "address",
          "name": "newOwner",
          "type": "address"
        }
      ],
      "name": "transferOwnership",
      "outputs": [],
      "stateMutability": "nonpayable",
      "type": "function"
    }
  ],
  "bytecode": "0x608060405234801561001057600080fd5b5061001961001e565b6100d0565b7ff0c57e16840df040f15088dc2f81fe391c3923bec73e23a9662efc9c229c6a00805468010000000000000000900460ff161561006e5760405163f92ee8a960e01b815260040160405180910390fd5b80546001600160401b03908116146100cd5780546001600160401b0319166001600160401b0390811782556040519081527fc7f505b2f371ae2175ee4913f4499e1f2633a7b5936321eed1cdaeb6115181d29060200160405180910390a15b50565b6124ab806100df6000396000f3fe6080604052600436106200009d5760003560e01c8063715018a61162000060578063715018a6146200019b5780638da5cb5b14620001b5578063bb6e15dc14620001cd578063c0c53b8b14620001e5578063f2fde38b146200020a57600080fd5b80630371066814620000a2578063150b7a0214620000d1578063376d3d5d146200011b5780633e6dfa36146200015c578063524900b51462000183575b600080fd5b620000b9620000b336600462000bdd565b6200022f565b604051620000c8919062000cd3565b60405180910390f35b348015620000de57600080fd5b5062000101620000f036600462000d08565b630a85bd0160e11b95945050505050565b6040516001600160e01b03199091168152602001620000c8565b620001326200012c36600462000db0565b62000250565b604080519485526020850193909352918301526001600160a01b03166060820152608001620000c8565b3480156200016957600080fd5b506200017462000367565b604051620000c8919062000dfd565b3480156200019057600080fd5b506200017462000387565b348015620001a857600080fd5b50620001b3620003a4565b005b348015620001c257600080fd5b5062000174620003bc565b348015620001da57600080fd5b5062000174620003e6565b348015620001f257600080fd5b50620001b36200020436600462000e11565b62000410565b3480156200021757600080fd5b50620001b36200022936600462000e63565b6200054b565b60606200023b62000599565b620002478383620005d0565b90505b92915050565b60008080806001600160a01b0388166323b872dd33308a6040518463ffffffff1660e01b8152600401620002879392919062000e8a565b6020604051808303816000875af1158015620002a7573d6000803e3d6000fd5b505050506040513d601f19601f82011682018060405250810190620002cd919062000eae565b506040516323b872dd60e01b81526001600160a01b038716906323b872dd906200030090339030908a9060040162000e8a565b6020604051808303816000875af115801562000320573d6000803e3d6000fd5b505050506040513d601f19601f8201168201806040525081019062000346919062000eae565b50620003558887898862000688565b929b919a509850909650945050505050565b6000806200037462000978565b600101546001600160a01b031692915050565b6000806200039462000978565b546001600160a01b031692915050565b620003ae62000599565b620003ba60006200099c565b565b6000807f9016d09d72d40fdae2fd8ceac6b6234c7706214fd39c1cd1e609a0528c19930062000394565b6000807f1398114c786fd2d5dbcf29c302f594800c3b9ea470c98dbb34a8fb40a97e710062000394565b7ff0c57e16840df040f15088dc2f81fe391c3923bec73e23a9662efc9c229c6a008054600160401b810460ff16159067ffffffffffffffff16600081158015620004575750825b905060008267ffffffffffffffff166001148015620004755750303b155b90508115801562000484575080155b15620004a35760405163f92ee8a960e01b815260040160405180910390fd5b845467ffffffffffffffff191660011785558315620004ce57845460ff60401b1916600160401b1785555b620004d93362000a0d565b620004e362000a22565b620004ef888862000a37565b620004fa8662000a80565b83156200054157845460ff60401b19168555604051600181527fc7f505b2f371ae2175ee4913f4499e1f2633a7b5936321eed1cdaeb6115181d29060200160405180910390a15b5050505050505050565b6200055562000599565b6001600160a01b0381166200058b576000604051631e4fbdf760e01b815260040162000582919062000dfd565b60405180910390fd5b62000596816200099c565b50565b33620005a4620003bc565b6001600160a01b031614620003ba573360405163118cdaa760e01b815260040162000582919062000dfd565b6060600080846001600160a01b03163485604051620005f0919062000ed2565b60006040518083038185875af1925050503d80600081146200062f576040519150601f19603f3d011682016040523d82523d6000602084013e62000634565b606091505b509150915081620006805760405162461bcd60e51b8152602060048201526015602482015274109d5a5b191a5b99ce8818d85b1b0819985a5b1959605a1b604482015260640162000582565b949350505050565b60008060008060006200069a62000978565b600181015460405163e6a4390560e01b81526001600160a01b038c811660048301528b8116602483015292935091169063e6a4390590604401602060405180830381865afa158015620006f1573d6000803e3d6000fd5b505050506040513d601f19601f8201168201806040525081019062000717919062000ef0565b91506001600160a01b038216620007a85760018101546040516364e329cb60e11b81526001600160a01b038b811660048301528a811660248301529091169063c9c65396906044016020604051808303816000875af11580156200077f573d6000803e3d6000fd5b505050506040513d601f19601f82011682018060405250810190620007a5919062000ef0565b91505b805460405163095ea7b360e01b81526001600160a01b03918216600482015260248101899052908a169063095ea7b3906044016020604051808303816000875af1158015620007fb573d6000803e3d6000fd5b505050506040513d601f19601f8201168201806040525081019062000821919062000eae565b50805460405163095ea7b360e01b81526001600160a01b039182166004820152602481018890529089169063095ea7b3906044016020604051808303816000875af115801562000875573d6000803e3d6000fd5b505050506040513d601f19601f820116820180604052508101906200089b919062000eae565b5080546001600160a01b031663e8e337008a8a8a8a818130620008c14261012c62000f10565b60405160e08a901b6001600160e01b03191681526001600160a01b039889166004820152968816602488015260448701959095526064860193909352608485019190915260a484015290921660c482015260e4810191909152610104016060604051808303816000875af11580156200093e573d6000803e3d6000fd5b505050506040513d601f19601f8201168201806040525081019062000964919062000f32565b919b909a5090985091965090945050505050565b7f75fd97eeafae39525b32773f2af3e4b201521c02695ece8bd2fe94e4c5024f0090565b7f9016d09d72d40fdae2fd8ceac6b6234c7706214fd39c1cd1e609a0528c19930080546001600160a01b031981166001600160a01b03848116918217845560405192169182907f8be0079c531659141344cd1fd0a4f28419497f9722a3daafe3b4186f6b6457e090600090a3505050565b62000a1762000ad4565b620005968162000b1e565b62000a2c62000ad4565b620003ba3362000a0d565b62000a4162000ad4565b600062000a4d62000978565b80546001600160a01b039485166001600160a01b0319918216178255600190910180549390941692169190911790915550565b62000a8a62000ad4565b7f1398114c786fd2d5dbcf29c302f594800c3b9ea470c98dbb34a8fb40a97e710062000ab68262000b28565b81546001600160a01b0319166001600160a01b039190911617905550565b7ff0c57e16840df040f15088dc2f81fe391c3923bec73e23a9662efc9c229c6a0054600160401b900460ff16620003ba57604051631afcd79f60e31b815260040160405180910390fd5b6200055562000ad4565b60008160405162000b399062000ba3565b62000b45919062000dfd565b604051809103906000f08015801562000b62573d6000803e3d6000fd5b5090507f86391fba409e44e3af18aa6478dfccdb9b93ae68a497e6bbe24ff16b75196f188160405162000b96919062000dfd565b60405180910390a1919050565b6115148062000f6283390190565b6001600160a01b03811681146200059657600080fd5b634e487b7160e01b600052604160045260246000fd5b6000806040838503121562000bf157600080fd5b823562000bfe8162000bb1565b9150602083013567ffffffffffffffff8082111562000c1c57600080fd5b818501915085601f83011262000c3157600080fd5b81358181111562000c465762000c4662000bc7565b604051601f8201601f19908116603f0116810190838211818310171562000c715762000c7162000bc7565b8160405282815288602084870101111562000c8b57600080fd5b8260208601602083013760006020848301015280955050505050509250929050565b60005b8381101562000cca57818101518382015260200162000cb0565b50506000910152565b602081526000825180602084015262000cf481604085016020870162000cad565b601f01601f19169190910160400192915050565b60008060008060006080868803121562000d2157600080fd5b853562000d2e8162000bb1565b9450602086013562000d408162000bb1565b935060408601359250606086013567ffffffffffffffff8082111562000d6557600080fd5b818801915088601f83011262000d7a57600080fd5b81358181111562000d8a57600080fd5b89602082850101111562000d9d57600080fd5b9699959850939650602001949392505050565b6000806000806080858703121562000dc757600080fd5b843562000dd48162000bb1565b935060208501359250604085013562000ded8162000bb1565b9396929550929360600135925050565b6001600160a01b0391909116815260200190565b60008060006060848603121562000e2757600080fd5b833562000e348162000bb1565b9250602084013562000e468162000bb1565b9150604084013562000e588162000bb1565b809150509250925092565b60006020828403121562000e7657600080fd5b813562000e838162000bb1565b9392505050565b6001600160a01b039384168152919092166020820152604081019190915260600190565b60006020828403121562000ec157600080fd5b8151801515811462000e8357600080fd5b6000825162000ee681846020870162000cad565b9190910192915050565b60006020828403121562000f0357600080fd5b815162000e838162000bb1565b808201808211156200024a57634e487b7160e01b600052601160045260246000fd5b60008060006060848603121562000f4857600080fd5b835192506020840151915060408401519050925092509256fe6080604052600060035534801561001557600080fd5b50604051620015143803806200151483398101604081905261003691610169565b6001600160a01b0381166100905760405162461bcd60e51b815260206004820152601c60248201527f496e76616c6964204e465420636f6e7472616374206164647265737300000000604482015260640160405180910390fd5b600480546001600160a01b0319166001600160a01b0383161790556100b66000336100bd565b5050610199565b6000828152602081815260408083206001600160a01b038516845290915281205460ff1661015f576000838152602081815260408083206001600160a01b03861684529091529020805460ff191660011790556101173390565b6001600160a01b0316826001600160a01b0316847f2f8788117e7eff1d82e926ec794901d17c78024a50270940304540a733656f0d60405160405180910390a4506001610163565b5060005b92915050565b60006020828403121561017b57600080fd5b81516001600160a01b038116811461019257600080fd5b9392505050565b61136b80620001a96000396000f3fe608060405234801561001057600080fd5b50600436106101115760003560e01c80638579229f116100ad578063c9e3984411610071578063c9e3984414610274578063d547741f14610287578063e429cef11461029a578063e6116cfd146102ad578063e74e786d146102c057600080fd5b80638579229f146101fb57806391d148541461020e578063a217fddf14610221578063ba5ed88a14610229578063c36109af1461025457600080fd5b806301ffc9a714610116578063248a9ca31461013e5780632f2ff15d1461016f57806336568abe146101845780633f76730f146101975780634afb29c6146101b75780635949ea69146101c05780636e1d616e146101d35780637574ad32146101e8575b600080fd5b610129610124366004610d72565b6102e4565b60405190151581526020015b60405180910390f35b61016161014c366004610da3565b60009081526020819052604090206001015490565b604051908152602001610135565b61018261017d366004610dd1565b61031b565b005b610182610192366004610dd1565b610346565b6101aa6101a5366004610da3565b61037e565b6040516101359190610e47565b61016160035481565b6101826101ce366004610ea1565b6104a6565b61016160008051602061131683398151915281565b6101616101f6366004610f1d565b6105e7565b610182610209366004610ea1565b610618565b61012961021c366004610dd1565b610812565b610161600081565b60045461023c906001600160a01b031681565b6040516001600160a01b039091168152602001610135565b610267610262366004610da3565b61083b565b6040516101359190610f3f565b610182610282366004610da3565b61089d565b610182610295366004610dd1565b6109a4565b6101826102a8366004610f83565b6109c9565b6101826102bb366004610f83565b610a89565b6102d36102ce366004610da3565b610ae4565b604051610135959493929190610fa0565b60006001600160e01b03198216637965db0b60e01b148061031557506301ffc9a760e01b6001600160e01b03198316145b92915050565b60008281526020819052604090206001015461033681610baa565b6103408383610bb7565b50505050565b6001600160a01b038116331461036f5760405163334bd91960e11b815260040160405180910390fd5b6103798282610c49565b505050565b6103bb6040518060a001604052806000815260200160006001600160a01b0316815260200160608152602001600081526020016000151581525090565b600082815260016020818152604092839020835160a08101855281548152928101546001600160a01b031691830191909152600281018054929391929184019161040490610fe3565b80601f016020809104026020016040519081016040528092919081815260200182805461043090610fe3565b801561047d5780601f106104525761010080835404028352916020019161047d565b820191906000526020600020905b81548152906001019060200180831161046057829003601f168201915b50505091835250506003820154602082015260049091015460ff16151560409091015292915050565b6000805160206113168339815191526104be81610baa565b816104e45760405162461bcd60e51b81526004016104db9061101d565b60405180910390fd5b6000848152600160208190526040909120908101546001600160a01b031633146105205760405162461bcd60e51b81526004016104db90611061565b600481015460ff161561058b5760405162461bcd60e51b815260206004820152602d60248201527f417564697452656769737472793a2043616e6e6f74207570646174652061207260448201526c195d9bdad959081c9958dbdc99609a1b60648201526084016104db565b6002810161059a848683611123565b50428160030181905550847f7d88a6413bdea2f765837b2027d150e8d9eff6811a00e7b32ce22566577ae3218585426040516105d8939291906111de565b60405180910390a25050505050565b6002602052816000526040600020818154811061060357600080fd5b90600052602060002001600091509150505481565b60008051602061131683398151915261063081610baa565b8361063a81610cb4565b6106955760405162461bcd60e51b815260206004820152602660248201527f417564697452656769737472793a204275696c64696e6720646f6573206e6f7460448201526508195e1a5cdd60d21b60648201526084016104db565b826106b25760405162461bcd60e51b81526004016104db9061101d565b600380549060006106c283611217565b91905055506040518060a00160405280868152602001336001600160a01b0316815260200185858080601f016020809104026020016040519081016040528093929190818152602001838380828437600092018290525093855250504260208085019190915260409384018390526003548352600180825292849020855181559085015192810180546001600160a01b0319166001600160a01b03909416939093179092555090820151600282019061077b908261123e565b5060608201516003828101919091556080909201516004909101805460ff1916911515919091179055600086815260026020908152604080832084548154600181018355918552929093209092015590549051339187917f92a0387dc7c67d734c77ccfb7ffb948823976ffc08e374f17223ceab2abfa8e490610803908990899042906111de565b60405180910390a45050505050565b6000918252602082815260408084206001600160a01b0393909316845291905290205460ff1690565b60008181526002602090815260409182902080548351818402810184019094528084526060939283018282801561089157602002820191906000526020600020905b81548152602001906001019080831161087d575b50505050509050919050565b6000805160206113168339815191526108b581610baa565b6000828152600160208190526040909120908101546001600160a01b031633146108f15760405162461bcd60e51b81526004016104db90611061565b600481015460ff16156109545760405162461bcd60e51b815260206004820152602560248201527f417564697452656769737472793a205265636f726420616c72656164792072656044820152641d9bdad95960da1b60648201526084016104db565b60048101805460ff1916600117905560405183907fe4839e81aa65ee9120ee35c9291915fa224f6ae0bfab747215ee7f0b5368a193906109979042815260200190565b60405180910390a2505050565b6000828152602081905260409020600101546109bf81610baa565b6103408383610c49565b60006109d481610baa565b6001600160a01b038216610a395760405162461bcd60e51b815260206004820152602660248201527f417564697452656769737472793a20496e76616c69642061756469746f72206160448201526564647265737360d01b60648201526084016104db565b610a516000805160206113168339815191528361031b565b6040516001600160a01b038316907f2c31044378cc14466459f09320dd4057d7ad6e99b194c0800c78227383a2529690600090a25050565b6000610a9481610baa565b610aac600080516020611316833981519152836109a4565b6040516001600160a01b038316907fd3e803f2dfdacd206b7d19aa46d847206386d84e3dc6b8de0926e54affa6fddc90600090a25050565b60016020819052600091825260409091208054918101546002820180546001600160a01b039092169291610b1790610fe3565b80601f0160208091040260200160405190810160405280929190818152602001828054610b4390610fe3565b8015610b905780601f10610b6557610100808354040283529160200191610b90565b820191906000526020600020905b815481529060010190602001808311610b7357829003601f168201915b50505050600383015460049093015491929160ff16905085565b610bb48133610d35565b50565b6000610bc38383610812565b610c41576000838152602081815260408083206001600160a01b03861684529091529020805460ff19166001179055610bf93390565b6001600160a01b0316826001600160a01b0316847f2f8788117e7eff1d82e926ec794901d17c78024a50270940304540a733656f0d60405160405180910390a4506001610315565b506000610315565b6000610c558383610812565b15610c41576000838152602081815260408083206001600160a01b0386168085529252808320805460ff1916905551339286917ff6391f5c32d9c69d2a47ea670b442974b53935d1edc7fd64eb21e047a839171b9190a4506001610315565b600480546040516331a9108f60e11b815291820183905260009182916001600160a01b031690636352211e90602401602060405180830381865afa158015610d00573d6000803e3d6000fd5b505050506040513d601f19601f82011682018060405250810190610d2491906112f8565b6001600160a01b0316141592915050565b610d3f8282610812565b610d6e5760405163e2517d3f60e01b81526001600160a01b0382166004820152602481018390526044016104db565b5050565b600060208284031215610d8457600080fd5b81356001600160e01b031981168114610d9c57600080fd5b9392505050565b600060208284031215610db557600080fd5b5035919050565b6001600160a01b0381168114610bb457600080fd5b60008060408385031215610de457600080fd5b823591506020830135610df681610dbc565b809150509250929050565b6000815180845260005b81811015610e2757602081850181015186830182015201610e0b565b506000602082860101526020601f19601f83011685010191505092915050565b602081528151602082015260018060a01b0360208301511660408201526000604083015160a06060840152610e7f60c0840182610e01565b9050606084015160808401526080840151151560a08401528091505092915050565b600080600060408486031215610eb657600080fd5b83359250602084013567ffffffffffffffff80821115610ed557600080fd5b818601915086601f830112610ee957600080fd5b813581811115610ef857600080fd5b876020828501011115610f0a57600080fd5b6020830194508093505050509250925092565b60008060408385031215610f3057600080fd5b50508035926020909101359150565b6020808252825182820181905260009190848201906040850190845b81811015610f7757835183529284019291840191600101610f5b565b50909695505050505050565b600060208284031215610f9557600080fd5b8135610d9c81610dbc565b8581526001600160a01b038516602082015260a060408201819052600090610fca90830186610e01565b6060830194909452509015156080909101529392505050565b600181811c90821680610ff757607f821691505b60208210810361101757634e487b7160e01b600052602260045260246000fd5b50919050565b60208082526024908201527f417564697452656769737472793a2049504653206861736820697320726571756040820152631a5c995960e21b606082015260800190565b60208082526027908201527f417564697452656769737472793a204e6f7420746865206f726967696e616c2060408201526630bab234ba37b960c91b606082015260800190565b634e487b7160e01b600052604160045260246000fd5b601f821115610379576000816000526020600020601f850160051c810160208610156110e75750805b601f850160051c820191505b81811015611106578281556001016110f3565b505050505050565b600019600383901b1c191660019190911b1790565b67ffffffffffffffff83111561113b5761113b6110a8565b61114f836111498354610fe3565b836110be565b6000601f84116001811461117d576000851561116b5750838201355b611175868261110e565b8455506111d7565b600083815260209020601f19861690835b828110156111ae578685013582556020948501946001909201910161118e565b50868210156111cb5760001960f88860031b161c19848701351681555b505060018560011b0183555b5050505050565b604081528260408201528284606083013760006060848301015260006060601f19601f8601168301019050826020830152949350505050565b60006001820161123757634e487b7160e01b600052601160045260246000fd5b5060010190565b815167ffffffffffffffff811115611258576112586110a8565b61126c816112668454610fe3565b846110be565b602080601f83116001811461129b57600084156112895750858301515b611293858261110e565b865550611106565b600085815260208120601f198616915b828110156112ca578886015182559484019460019091019084016112ab565b50858210156112e85787850151600019600388901b60f8161c191681555b5050505050600190811b01905550565b60006020828403121561130a57600080fd5b8151610d9c81610dbc56fe59a1c48e5837ad7a7f3dcedcbe129bf3249ec4fbf651fd4f5e2600ead39fe2f5a2646970667358221220a155bdb1c8a0165e424a843e49fac40b3024ecb814eaaf51cf2c8ef3c3aa97a764736f6c63430008180033a2646970667358221220f5896bf98f2edb7a93f766c29f98a5d1287b25254a74f6ebbf62afe645ebc05564736f6c63430008180033",
  "linkReferences": {},
  "deployedLinkReferences": {}
}