{
  "_format": "hh-sol-artifact-1",
  "contractName": "BuildingGovernance",
  "sourceName": "contracts/buildings/governance/BuildingGovernance.sol",
  "abi": [
    {
      "inputs": [],
      "stateMutability": "nonpayable",
      "type": "constructor"
    },
    {
      "inputs": [
        {
          "internalType": "address",
          "name": "target",
          "type": "address"
        }
      ],
      "name": "AddressEmptyCode",
      "type": "error"
    },
    {
      "inputs": [],
      "name": "CheckpointUnorderedInsertion",
      "type": "error"
    },
    {
      "inputs": [
        {
          "internalType": "address",
          "name": "implementation",
          "type": "address"
        }
      ],
      "name": "ERC1967InvalidImplementation",
      "type": "error"
    },
    {
      "inputs": [],
      "name": "ERC1967NonPayable",
      "type": "error"
    },
    {
      "inputs": [],
      "name": "FailedInnerCall",
      "type": "error"
    },
    {
      "inputs": [
        {
          "internalType": "address",
          "name": "voter",
          "type": "address"
        }
      ],
      "name": "GovernorAlreadyCastVote",
      "type": "error"
    },
    {
      "inputs": [
        {
          "internalType": "uint256",
          "name": "proposalId",
          "type": "uint256"
        }
      ],
      "name": "GovernorAlreadyQueuedProposal",
      "type": "error"
    },
    {
      "inputs": [],
      "name": "GovernorDisabledDeposit",
      "type": "error"
    },
    {
      "inputs": [
        {
          "internalType": "address",
          "name": "proposer",
          "type": "address"
        },
        {
          "internalType": "uint256",
          "name": "votes",
          "type": "uint256"
        },
        {
          "internalType": "uint256",
          "name": "threshold",
          "type": "uint256"
        }
      ],
      "name": "GovernorInsufficientProposerVotes",
      "type": "error"
    },
    {
      "inputs": [
        {
          "internalType": "uint256",
          "name": "targets",
          "type": "uint256"
        },
        {
          "internalType": "uint256",
          "name": "calldatas",
          "type": "uint256"
        },
        {
          "internalType": "uint256",
          "name": "values",
          "type": "uint256"
        }
      ],
      "name": "GovernorInvalidProposalLength",
      "type": "error"
    },
    {
      "inputs": [
        {
          "internalType": "uint256",
          "name": "quorumNumerator",
          "type": "uint256"
        },
        {
          "internalType": "uint256",
          "name": "quorumDenominator",
          "type": "uint256"
        }
      ],
      "name": "GovernorInvalidQuorumFraction",
      "type": "error"
    },
    {
      "inputs": [
        {
          "internalType": "address",
          "name": "voter",
          "type": "address"
        }
      ],
      "name": "GovernorInvalidSignature",
      "type": "error"
    },
    {
      "inputs": [],
      "name": "GovernorInvalidVoteType",
      "type": "error"
    },
    {
      "inputs": [
        {
          "internalType": "uint256",
          "name": "votingPeriod",
          "type": "uint256"
        }
      ],
      "name": "GovernorInvalidVotingPeriod",
      "type": "error"
    },
    {
      "inputs": [
        {
          "internalType": "uint256",
          "name": "proposalId",
          "type": "uint256"
        }
      ],
      "name": "GovernorNonexistentProposal",
      "type": "error"
    },
    {
      "inputs": [
        {
          "internalType": "uint256",
          "name": "proposalId",
          "type": "uint256"
        }
      ],
      "name": "GovernorNotQueuedProposal",
      "type": "error"
    },
    {
      "inputs": [
        {
          "internalType": "address",
          "name": "account",
          "type": "address"
        }
      ],
      "name": "GovernorOnlyExecutor",
      "type": "error"
    },
    {
      "inputs": [
        {
          "internalType": "address",
          "name": "account",
          "type": "address"
        }
      ],
      "name": "GovernorOnlyProposer",
      "type": "error"
    },
    {
      "inputs": [],
      "name": "GovernorQueueNotImplemented",
      "type": "error"
    },
    {
      "inputs": [
        {
          "internalType": "address",
          "name": "proposer",
          "type": "address"
        }
      ],
      "name": "GovernorRestrictedProposer",
      "type": "error"
    },
    {
      "inputs": [
        {
          "internalType": "uint256",
          "name": "proposalId",
          "type": "uint256"
        },
        {
          "internalType": "enum IGovernor.ProposalState",
          "name": "current",
          "type": "uint8"
        },
        {
          "internalType": "bytes32",
          "name": "expectedStates",
          "type": "bytes32"
        }
      ],
      "name": "GovernorUnexpectedProposalState",
      "type": "error"
    },
    {
      "inputs": [
        {
          "internalType": "address",
          "name": "account",
          "type": "address"
        },
        {
          "internalType": "uint256",
          "name": "currentNonce",
          "type": "uint256"
        }
      ],
      "name": "InvalidAccountNonce",
      "type": "error"
    },
    {
      "inputs": [],
      "name": "InvalidInitialization",
      "type": "error"
    },
    {
      "inputs": [],
      "name": "NotInitializing",
      "type": "error"
    },
    {
      "inputs": [
        {
          "internalType": "address",
          "name": "owner",
          "type": "address"
        }
      ],
      "name": "OwnableInvalidOwner",
      "type": "error"
    },
    {
      "inputs": [
        {
          "internalType": "address",
          "name": "account",
          "type": "address"
        }
      ],
      "name": "OwnableUnauthorizedAccount",
      "type": "error"
    },
    {
      "inputs": [],
      "name": "QueueEmpty",
      "type": "error"
    },
    {
      "inputs": [],
      "name": "QueueFull",
      "type": "error"
    },
    {
      "inputs": [
        {
          "internalType": "uint8",
          "name": "bits",
          "type": "uint8"
        },
        {
          "internalType": "uint256",
          "name": "value",
          "type": "uint256"
        }
      ],
      "name": "SafeCastOverflowedUintDowncast",
      "type": "error"
    },
    {
      "inputs": [],
      "name": "UUPSUnauthorizedCallContext",
      "type": "error"
    },
    {
      "inputs": [
        {
          "internalType": "bytes32",
          "name": "slot",
          "type": "bytes32"
        }
      ],
      "name": "UUPSUnsupportedProxiableUUID",
      "type": "error"
    },
    {
      "anonymous": false,
      "inputs": [],
      "name": "EIP712DomainChanged",
      "type": "event"
    },
    {
      "anonymous": false,
      "inputs": [
        {
          "indexed": false,
          "internalType": "uint64",
          "name": "version",
          "type": "uint64"
        }
      ],
      "name": "Initialized",
      "type": "event"
    },
    {
      "anonymous": false,
      "inputs": [
        {
          "indexed": true,
          "internalType": "address",
          "name": "previousOwner",
          "type": "address"
        },
        {
          "indexed": true,
          "internalType": "address",
          "name": "newOwner",
          "type": "address"
        }
      ],
      "name": "OwnershipTransferred",
      "type": "event"
    },
    {
      "anonymous": false,
      "inputs": [
        {
          "indexed": false,
          "internalType": "uint256",
          "name": "proposalId",
          "type": "uint256"
        }
      ],
      "name": "ProposalCanceled",
      "type": "event"
    },
    {
      "anonymous": false,
      "inputs": [
        {
          "indexed": false,
          "internalType": "uint256",
          "name": "proposalId",
          "type": "uint256"
        },
        {
          "indexed": false,
          "internalType": "address",
          "name": "proposer",
          "type": "address"
        },
        {
          "indexed": false,
          "internalType": "address[]",
          "name": "targets",
          "type": "address[]"
        },
        {
          "indexed": false,
          "internalType": "uint256[]",
          "name": "values",
          "type": "uint256[]"
        },
        {
          "indexed": false,
          "internalType": "string[]",
          "name": "signatures",
          "type": "string[]"
        },
        {
          "indexed": false,
          "internalType": "bytes[]",
          "name": "calldatas",
          "type": "bytes[]"
        },
        {
          "indexed": false,
          "internalType": "uint256",
          "name": "voteStart",
          "type": "uint256"
        },
        {
          "indexed": false,
          "internalType": "uint256",
          "name": "voteEnd",
          "type": "uint256"
        },
        {
          "indexed": false,
          "internalType": "string",
          "name": "description",
          "type": "string"
        }
      ],
      "name": "ProposalCreated",
      "type": "event"
    },
    {
      "anonymous": false,
      "inputs": [
        {
          "indexed": false,
          "internalType": "uint256",
          "name": "id",
          "type": "uint256"
        },
        {
          "indexed": false,
          "internalType": "enum BuildingGovernanceStorage.ProposalType",
          "name": "proposalType",
          "type": "uint8"
        },
        {
          "indexed": false,
          "internalType": "address",
          "name": "proposer",
          "type": "address"
        },
        {
          "indexed": false,
          "internalType": "address",
          "name": "receiver",
          "type": "address"
        },
        {
          "indexed": false,
          "internalType": "uint256",
          "name": "amount",
          "type": "uint256"
        }
      ],
      "name": "ProposalDefined",
      "type": "event"
    },
    {
      "anonymous": false,
      "inputs": [
        {
          "indexed": false,
          "internalType": "uint256",
          "name": "proposalId",
          "type": "uint256"
        }
      ],
      "name": "ProposalExecuted",
      "type": "event"
    },
    {
      "anonymous": false,
      "inputs": [
        {
          "indexed": false,
          "internalType": "uint256",
          "name": "proposalId",
          "type": "uint256"
        },
        {
          "indexed": false,
          "internalType": "uint256",
          "name": "etaSeconds",
          "type": "uint256"
        }
      ],
      "name": "ProposalQueued",
      "type": "event"
    },
    {
      "anonymous": false,
      "inputs": [
        {
          "indexed": false,
          "internalType": "uint256",
          "name": "oldQuorumNumerator",
          "type": "uint256"
        },
        {
          "indexed": false,
          "internalType": "uint256",
          "name": "newQuorumNumerator",
          "type": "uint256"
        }
      ],
      "name": "QuorumNumeratorUpdated",
      "type": "event"
    },
    {
      "anonymous": false,
      "inputs": [
        {
          "indexed": true,
          "internalType": "address",
          "name": "implementation",
          "type": "address"
        }
      ],
      "name": "Upgraded",
      "type": "event"
    },
    {
      "anonymous": false,
      "inputs": [
        {
          "indexed": true,
          "internalType": "address",
          "name": "voter",
          "type": "address"
        },
        {
          "indexed": false,
          "internalType": "uint256",
          "name": "proposalId",
          "type": "uint256"
        },
        {
          "indexed": false,
          "internalType": "uint8",
          "name": "support",
          "type": "uint8"
        },
        {
          "indexed": false,
          "internalType": "uint256",
          "name": "weight",
          "type": "uint256"
        },
        {
          "indexed": false,
          "internalType": "string",
          "name": "reason",
          "type": "string"
        }
      ],
      "name": "VoteCast",
      "type": "event"
    },
    {
      "anonymous": false,
      "inputs": [
        {
          "indexed": true,
          "internalType": "address",
          "name": "voter",
          "type": "address"
        },
        {
          "indexed": false,
          "internalType": "uint256",
          "name": "proposalId",
          "type": "uint256"
        },
        {
          "indexed": false,
          "internalType": "uint8",
          "name": "support",
          "type": "uint8"
        },
        {
          "indexed": false,
          "internalType": "uint256",
          "name": "weight",
          "type": "uint256"
        },
        {
          "indexed": false,
          "internalType": "string",
          "name": "reason",
          "type": "string"
        },
        {
          "indexed": false,
          "internalType": "bytes",
          "name": "params",
          "type": "bytes"
        }
      ],
      "name": "VoteCastWithParams",
      "type": "event"
    },
    {
      "inputs": [],
      "name": "BALLOT_TYPEHASH",
      "outputs": [
        {
          "internalType": "bytes32",
          "name": "",
          "type": "bytes32"
        }
      ],
      "stateMutability": "view",
      "type": "function"
    },
    {
      "inputs": [],
      "name": "CLOCK_MODE",
      "outputs": [
        {
          "internalType": "string",
          "name": "",
          "type": "string"
        }
      ],
      "stateMutability": "pure",
      "type": "function"
    },
    {
      "inputs": [],
      "name": "COUNTING_MODE",
      "outputs": [
        {
          "internalType": "string",
          "name": "",
          "type": "string"
        }
      ],
      "stateMutability": "pure",
      "type": "function"
    },
    {
      "inputs": [],
      "name": "EXTENDED_BALLOT_TYPEHASH",
      "outputs": [
        {
          "internalType": "bytes32",
          "name": "",
          "type": "bytes32"
        }
      ],
      "stateMutability": "view",
      "type": "function"
    },
    {
      "inputs": [],
      "name": "UPGRADE_INTERFACE_VERSION",
      "outputs": [
        {
          "internalType": "string",
          "name": "",
          "type": "string"
        }
      ],
      "stateMutability": "view",
      "type": "function"
    },
    {
      "inputs": [
        {
          "internalType": "address[]",
          "name": "targets",
          "type": "address[]"
        },
        {
          "internalType": "uint256[]",
          "name": "values",
          "type": "uint256[]"
        },
        {
          "internalType": "bytes[]",
          "name": "calldatas",
          "type": "bytes[]"
        },
        {
          "internalType": "bytes32",
          "name": "descriptionHash",
          "type": "bytes32"
        }
      ],
      "name": "cancel",
      "outputs": [
        {
          "internalType": "uint256",
          "name": "",
          "type": "uint256"
        }
      ],
      "stateMutability": "nonpayable",
      "type": "function"
    },
    {
      "inputs": [
        {
          "internalType": "uint256",
          "name": "proposalId",
          "type": "uint256"
        },
        {
          "internalType": "uint8",
          "name": "support",
          "type": "uint8"
        }
      ],
      "name": "castVote",
      "outputs": [
        {
          "internalType": "uint256",
          "name": "",
          "type": "uint256"
        }
      ],
      "stateMutability": "nonpayable",
      "type": "function"
    },
    {
      "inputs": [
        {
          "internalType": "uint256",
          "name": "proposalId",
          "type": "uint256"
        },
        {
          "internalType": "uint8",
          "name": "support",
          "type": "uint8"
        },
        {
          "internalType": "address",
          "name": "voter",
          "type": "address"
        },
        {
          "internalType": "bytes",
          "name": "signature",
          "type": "bytes"
        }
      ],
      "name": "castVoteBySig",
      "outputs": [
        {
          "internalType": "uint256",
          "name": "",
          "type": "uint256"
        }
      ],
      "stateMutability": "nonpayable",
      "type": "function"
    },
    {
      "inputs": [
        {
          "internalType": "uint256",
          "name": "proposalId",
          "type": "uint256"
        },
        {
          "internalType": "uint8",
          "name": "support",
          "type": "uint8"
        },
        {
          "internalType": "string",
          "name": "reason",
          "type": "string"
        }
      ],
      "name": "castVoteWithReason",
      "outputs": [
        {
          "internalType": "uint256",
          "name": "",
          "type": "uint256"
        }
      ],
      "stateMutability": "nonpayable",
      "type": "function"
    },
    {
      "inputs": [
        {
          "internalType": "uint256",
          "name": "proposalId",
          "type": "uint256"
        },
        {
          "internalType": "uint8",
          "name": "support",
          "type": "uint8"
        },
        {
          "internalType": "string",
          "name": "reason",
          "type": "string"
        },
        {
          "internalType": "bytes",
          "name": "params",
          "type": "bytes"
        }
      ],
      "name": "castVoteWithReasonAndParams",
      "outputs": [
        {
          "internalType": "uint256",
          "name": "",
          "type": "uint256"
        }
      ],
      "stateMutability": "nonpayable",
      "type": "function"
    },
    {
      "inputs": [
        {
          "internalType": "uint256",
          "name": "proposalId",
          "type": "uint256"
        },
        {
          "internalType": "uint8",
          "name": "support",
          "type": "uint8"
        },
        {
          "internalType": "address",
          "name": "voter",
          "type": "address"
        },
        {
          "internalType": "string",
          "name": "reason",
          "type": "string"
        },
        {
          "internalType": "bytes",
          "name": "params",
          "type": "bytes"
        },
        {
          "internalType": "bytes",
          "name": "signature",
          "type": "bytes"
        }
      ],
      "name": "castVoteWithReasonAndParamsBySig",
      "outputs": [
        {
          "internalType": "uint256",
          "name": "",
          "type": "uint256"
        }
      ],
      "stateMutability": "nonpayable",
      "type": "function"
    },
    {
      "inputs": [],
      "name": "clock",
      "outputs": [
        {
          "internalType": "uint48",
          "name": "",
          "type": "uint48"
        }
      ],
      "stateMutability": "view",
      "type": "function"
    },
    {
      "inputs": [
        {
          "internalType": "uint256",
          "name": "amount",
          "type": "uint256"
        },
        {
          "internalType": "string",
          "name": "description",
          "type": "string"
        }
      ],
      "name": "createChangeReserveProposal",
      "outputs": [
        {
          "internalType": "uint256",
          "name": "proposalId",
          "type": "uint256"
        }
      ],
      "stateMutability": "nonpayable",
      "type": "function"
    },
    {
      "inputs": [
        {
          "internalType": "uint256",
          "name": "amount",
          "type": "uint256"
        },
        {
          "internalType": "address",
          "name": "to",
          "type": "address"
        },
        {
          "internalType": "string",
          "name": "description",
          "type": "string"
        }
      ],
      "name": "createPaymentProposal",
      "outputs": [
        {
          "internalType": "uint256",
          "name": "proposalId",
          "type": "uint256"
        }
      ],
      "stateMutability": "nonpayable",
      "type": "function"
    },
    {
      "inputs": [
        {
          "internalType": "enum BuildingGovernanceStorage.ProposalLevel",
          "name": "",
          "type": "uint8"
        },
        {
          "internalType": "string",
          "name": "description",
          "type": "string"
        }
      ],
      "name": "createTextProposal",
      "outputs": [
        {
          "internalType": "uint256",
          "name": "proposalId",
          "type": "uint256"
        }
      ],
      "stateMutability": "nonpayable",
      "type": "function"
    },
    {
      "inputs": [],
      "name": "eip712Domain",
      "outputs": [
        {
          "internalType": "bytes1",
          "name": "fields",
          "type": "bytes1"
        },
        {
          "internalType": "string",
          "name": "name",
          "type": "string"
        },
        {
          "internalType": "string",
          "name": "version",
          "type": "string"
        },
        {
          "internalType": "uint256",
          "name": "chainId",
          "type": "uint256"
        },
        {
          "internalType": "address",
          "name": "verifyingContract",
          "type": "address"
        },
        {
          "internalType": "bytes32",
          "name": "salt",
          "type": "bytes32"
        },
        {
          "internalType": "uint256[]",
          "name": "extensions",
          "type": "uint256[]"
        }
      ],
      "stateMutability": "view",
      "type": "function"
    },
    {
      "inputs": [
        {
          "internalType": "address[]",
          "name": "targets",
          "type": "address[]"
        },
        {
          "internalType": "uint256[]",
          "name": "values",
          "type": "uint256[]"
        },
        {
          "internalType": "bytes[]",
          "name": "calldatas",
          "type": "bytes[]"
        },
        {
          "internalType": "bytes32",
          "name": "descriptionHash",
          "type": "bytes32"
        }
      ],
      "name": "execute",
      "outputs": [
        {
          "internalType": "uint256",
          "name": "",
          "type": "uint256"
        }
      ],
      "stateMutability": "payable",
      "type": "function"
    },
    {
      "inputs": [
        {
          "internalType": "uint256",
          "name": "proposalId",
          "type": "uint256"
        }
      ],
      "name": "executeChangeReserveProposal",
      "outputs": [],
      "stateMutability": "nonpayable",
      "type": "function"
    },
    {
      "inputs": [
        {
          "internalType": "uint256",
          "name": "proposalId",
          "type": "uint256"
        }
      ],
      "name": "executePaymentProposal",
      "outputs": [],
      "stateMutability": "nonpayable",
      "type": "function"
    },
    {
      "inputs": [
        {
          "internalType": "uint256",
          "name": "proposalId",
          "type": "uint256"
        }
      ],
      "name": "executeTextProposal",
      "outputs": [],
      "stateMutability": "nonpayable",
      "type": "function"
    },
    {
      "inputs": [
        {
          "internalType": "address",
          "name": "account",
          "type": "address"
        },
        {
          "internalType": "uint256",
          "name": "timepoint",
          "type": "uint256"
        }
      ],
      "name": "getVotes",
      "outputs": [
        {
          "internalType": "uint256",
          "name": "",
          "type": "uint256"
        }
      ],
      "stateMutability": "view",
      "type": "function"
    },
    {
      "inputs": [
        {
          "internalType": "address",
          "name": "account",
          "type": "address"
        },
        {
          "internalType": "uint256",
          "name": "timepoint",
          "type": "uint256"
        },
        {
          "internalType": "bytes",
          "name": "params",
          "type": "bytes"
        }
      ],
      "name": "getVotesWithParams",
      "outputs": [
        {
          "internalType": "uint256",
          "name": "",
          "type": "uint256"
        }
      ],
      "stateMutability": "view",
      "type": "function"
    },
    {
      "inputs": [
        {
          "internalType": "uint256",
          "name": "proposalId",
          "type": "uint256"
        },
        {
          "internalType": "address",
          "name": "account",
          "type": "address"
        }
      ],
      "name": "hasVoted",
      "outputs": [
        {
          "internalType": "bool",
          "name": "",
          "type": "bool"
        }
      ],
      "stateMutability": "view",
      "type": "function"
    },
    {
      "inputs": [
        {
          "internalType": "address[]",
          "name": "targets",
          "type": "address[]"
        },
        {
          "internalType": "uint256[]",
          "name": "values",
          "type": "uint256[]"
        },
        {
          "internalType": "bytes[]",
          "name": "calldatas",
          "type": "bytes[]"
        },
        {
          "internalType": "bytes32",
          "name": "descriptionHash",
          "type": "bytes32"
        }
      ],
      "name": "hashProposal",
      "outputs": [
        {
          "internalType": "uint256",
          "name": "",
          "type": "uint256"
        }
      ],
      "stateMutability": "pure",
      "type": "function"
    },
    {
      "inputs": [
        {
          "internalType": "contract IVotes",
          "name": "_token",
          "type": "address"
        },
        {
          "internalType": "string",
          "name": "name",
          "type": "string"
        },
        {
          "internalType": "address",
          "name": "initialOwner",
          "type": "address"
        },
        {
          "internalType": "address",
          "name": "treasury",
          "type": "address"
        }
      ],
      "name": "initialize",
      "outputs": [],
      "stateMutability": "nonpayable",
      "type": "function"
    },
    {
      "inputs": [],
      "name": "name",
      "outputs": [
        {
          "internalType": "string",
          "name": "",
          "type": "string"
        }
      ],
      "stateMutability": "view",
      "type": "function"
    },
    {
      "inputs": [
        {
          "internalType": "address",
          "name": "owner",
          "type": "address"
        }
      ],
      "name": "nonces",
      "outputs": [
        {
          "internalType": "uint256",
          "name": "",
          "type": "uint256"
        }
      ],
      "stateMutability": "view",
      "type": "function"
    },
    {
      "inputs": [
        {
          "internalType": "address",
          "name": "",
          "type": "address"
        },
        {
          "internalType": "address",
          "name": "",
          "type": "address"
        },
        {
          "internalType": "uint256[]",
          "name": "",
          "type": "uint256[]"
        },
        {
          "internalType": "uint256[]",
          "name": "",
          "type": "uint256[]"
        },
        {
          "internalType": "bytes",
          "name": "",
          "type": "bytes"
        }
      ],
      "name": "onERC1155BatchReceived",
      "outputs": [
        {
          "internalType": "bytes4",
          "name": "",
          "type": "bytes4"
        }
      ],
      "stateMutability": "nonpayable",
      "type": "function"
    },
    {
      "inputs": [
        {
          "internalType": "address",
          "name": "",
          "type": "address"
        },
        {
          "internalType": "address",
          "name": "",
          "type": "address"
        },
        {
          "internalType": "uint256",
          "name": "",
          "type": "uint256"
        },
        {
          "internalType": "uint256",
          "name": "",
          "type": "uint256"
        },
        {
          "internalType": "bytes",
          "name": "",
          "type": "bytes"
        }
      ],
      "name": "onERC1155Received",
      "outputs": [
        {
          "internalType": "bytes4",
          "name": "",
          "type": "bytes4"
        }
      ],
      "stateMutability": "nonpayable",
      "type": "function"
    },
    {
      "inputs": [
        {
          "internalType": "address",
          "name": "",
          "type": "address"
        },
        {
          "internalType": "address",
          "name": "",
          "type": "address"
        },
        {
          "internalType": "uint256",
          "name": "",
          "type": "uint256"
        },
        {
          "internalType": "bytes",
          "name": "",
          "type": "bytes"
        }
      ],
      "name": "onERC721Received",
      "outputs": [
        {
          "internalType": "bytes4",
          "name": "",
          "type": "bytes4"
        }
      ],
      "stateMutability": "nonpayable",
      "type": "function"
    },
    {
      "inputs": [],
      "name": "owner",
      "outputs": [
        {
          "internalType": "address",
          "name": "",
          "type": "address"
        }
      ],
      "stateMutability": "view",
      "type": "function"
    },
    {
      "inputs": [
        {
          "internalType": "uint256",
          "name": "proposalId",
          "type": "uint256"
        }
      ],
      "name": "proposalDeadline",
      "outputs": [
        {
          "internalType": "uint256",
          "name": "",
          "type": "uint256"
        }
      ],
      "stateMutability": "view",
      "type": "function"
    },
    {
      "inputs": [
        {
          "internalType": "uint256",
          "name": "proposalId",
          "type": "uint256"
        }
      ],
      "name": "proposalEta",
      "outputs": [
        {
          "internalType": "uint256",
          "name": "",
          "type": "uint256"
        }
      ],
      "stateMutability": "view",
      "type": "function"
    },
    {
      "inputs": [
        {
          "internalType": "uint256",
          "name": "",
          "type": "uint256"
        }
      ],
      "name": "proposalNeedsQueuing",
      "outputs": [
        {
          "internalType": "bool",
          "name": "",
          "type": "bool"
        }
      ],
      "stateMutability": "view",
      "type": "function"
    },
    {
      "inputs": [
        {
          "internalType": "uint256",
          "name": "proposalId",
          "type": "uint256"
        }
      ],
      "name": "proposalProposer",
      "outputs": [
        {
          "internalType": "address",
          "name": "",
          "type": "address"
        }
      ],
      "stateMutability": "view",
      "type": "function"
    },
    {
      "inputs": [
        {
          "internalType": "uint256",
          "name": "proposalId",
          "type": "uint256"
        }
      ],
      "name": "proposalSnapshot",
      "outputs": [
        {
          "internalType": "uint256",
          "name": "",
          "type": "uint256"
        }
      ],
      "stateMutability": "view",
      "type": "function"
    },
    {
      "inputs": [],
      "name": "proposalThreshold",
      "outputs": [
        {
          "internalType": "uint256",
          "name": "",
          "type": "uint256"
        }
      ],
      "stateMutability": "view",
      "type": "function"
    },
    {
      "inputs": [
        {
          "internalType": "uint256",
          "name": "proposalId",
          "type": "uint256"
        }
      ],
      "name": "proposalVotes",
      "outputs": [
        {
          "internalType": "uint256",
          "name": "againstVotes",
          "type": "uint256"
        },
        {
          "internalType": "uint256",
          "name": "forVotes",
          "type": "uint256"
        },
        {
          "internalType": "uint256",
          "name": "abstainVotes",
          "type": "uint256"
        }
      ],
      "stateMutability": "view",
      "type": "function"
    },
    {
      "inputs": [
        {
          "internalType": "address[]",
          "name": "targets",
          "type": "address[]"
        },
        {
          "internalType": "uint256[]",
          "name": "values",
          "type": "uint256[]"
        },
        {
          "internalType": "bytes[]",
          "name": "calldatas",
          "type": "bytes[]"
        },
        {
          "internalType": "string",
          "name": "description",
          "type": "string"
        }
      ],
      "name": "propose",
      "outputs": [
        {
          "internalType": "uint256",
          "name": "",
          "type": "uint256"
        }
      ],
      "stateMutability": "nonpayable",
      "type": "function"
    },
    {
      "inputs": [],
      "name": "proxiableUUID",
      "outputs": [
        {
          "internalType": "bytes32",
          "name": "",
          "type": "bytes32"
        }
      ],
      "stateMutability": "view",
      "type": "function"
    },
    {
      "inputs": [
        {
          "internalType": "address[]",
          "name": "targets",
          "type": "address[]"
        },
        {
          "internalType": "uint256[]",
          "name": "values",
          "type": "uint256[]"
        },
        {
          "internalType": "bytes[]",
          "name": "calldatas",
          "type": "bytes[]"
        },
        {
          "internalType": "bytes32",
          "name": "descriptionHash",
          "type": "bytes32"
        }
      ],
      "name": "queue",
      "outputs": [
        {
          "internalType": "uint256",
          "name": "",
          "type": "uint256"
        }
      ],
      "stateMutability": "nonpayable",
      "type": "function"
    },
    {
      "inputs": [
        {
          "internalType": "uint256",
          "name": "blockNumber",
          "type": "uint256"
        }
      ],
      "name": "quorum",
      "outputs": [
        {
          "internalType": "uint256",
          "name": "",
          "type": "uint256"
        }
      ],
      "stateMutability": "view",
      "type": "function"
    },
    {
      "inputs": [],
      "name": "quorumDenominator",
      "outputs": [
        {
          "internalType": "uint256",
          "name": "",
          "type": "uint256"
        }
      ],
      "stateMutability": "view",
      "type": "function"
    },
    {
      "inputs": [
        {
          "internalType": "uint256",
          "name": "timepoint",
          "type": "uint256"
        }
      ],
      "name": "quorumNumerator",
      "outputs": [
        {
          "internalType": "uint256",
          "name": "",
          "type": "uint256"
        }
      ],
      "stateMutability": "view",
      "type": "function"
    },
    {
      "inputs": [],
      "name": "quorumNumerator",
      "outputs": [
        {
          "internalType": "uint256",
          "name": "",
          "type": "uint256"
        }
      ],
      "stateMutability": "view",
      "type": "function"
    },
    {
      "inputs": [
        {
          "internalType": "address",
          "name": "target",
          "type": "address"
        },
        {
          "internalType": "uint256",
          "name": "value",
          "type": "uint256"
        },
        {
          "internalType": "bytes",
          "name": "data",
          "type": "bytes"
        }
      ],
      "name": "relay",
      "outputs": [],
      "stateMutability": "payable",
      "type": "function"
    },
    {
      "inputs": [],
      "name": "renounceOwnership",
      "outputs": [],
      "stateMutability": "nonpayable",
      "type": "function"
    },
    {
      "inputs": [
        {
          "internalType": "uint256",
          "name": "proposalId",
          "type": "uint256"
        }
      ],
      "name": "state",
      "outputs": [
        {
          "internalType": "enum IGovernor.ProposalState",
          "name": "",
          "type": "uint8"
        }
      ],
      "stateMutability": "view",
      "type": "function"
    },
    {
      "inputs": [
        {
          "internalType": "bytes4",
          "name": "interfaceId",
          "type": "bytes4"
        }
      ],
      "name": "supportsInterface",
      "outputs": [
        {
          "internalType": "bool",
          "name": "",
          "type": "bool"
        }
      ],
      "stateMutability": "view",
      "type": "function"
    },
    {
      "inputs": [],
      "name": "token",
      "outputs": [
        {
          "internalType": "contract IERC5805",
          "name": "",
          "type": "address"
        }
      ],
      "stateMutability": "view",
      "type": "function"
    },
    {
      "inputs": [
        {
          "internalType": "address",
          "name": "newOwner",
          "type": "address"
        }
      ],
      "name": "transferOwnership",
      "outputs": [],
      "stateMutability": "nonpayable",
      "type": "function"
    },
    {
      "inputs": [
        {
          "internalType": "uint256",
          "name": "newQuorumNumerator",
          "type": "uint256"
        }
      ],
      "name": "updateQuorumNumerator",
      "outputs": [],
      "stateMutability": "nonpayable",
      "type": "function"
    },
    {
      "inputs": [
        {
          "internalType": "address",
          "name": "newImplementation",
          "type": "address"
        },
        {
          "internalType": "bytes",
          "name": "data",
          "type": "bytes"
        }
      ],
      "name": "upgradeToAndCall",
      "outputs": [],
      "stateMutability": "payable",
      "type": "function"
    },
    {
      "inputs": [],
      "name": "version",
      "outputs": [
        {
          "internalType": "string",
          "name": "",
          "type": "string"
        }
      ],
      "stateMutability": "view",
      "type": "function"
    },
    {
      "inputs": [],
      "name": "votingDelay",
      "outputs": [
        {
          "internalType": "uint256",
          "name": "",
          "type": "uint256"
        }
      ],
      "stateMutability": "pure",
      "type": "function"
    },
    {
      "inputs": [],
      "name": "votingPeriod",
      "outputs": [
        {
          "internalType": "uint256",
          "name": "",
          "type": "uint256"
        }
      ],
      "stateMutability": "pure",
      "type": "function"
    },
    {
      "stateMutability": "payable",
      "type": "receive"
    }
  ],
  "bytecode": "0x60a0604052306080523480156200001557600080fd5b506200002062000026565b620000da565b7ff0c57e16840df040f15088dc2f81fe391c3923bec73e23a9662efc9c229c6a00805468010000000000000000900460ff1615620000775760405163f92ee8a960e01b815260040160405180910390fd5b80546001600160401b0390811614620000d75780546001600160401b0319166001600160401b0390811782556040519081527fc7f505b2f371ae2175ee4913f4499e1f2633a7b5936321eed1cdaeb6115181d29060200160405180910390a15b50565b608051614ecc620001046000396000818161263901528181612662015261279f0152614ecc6000f3fe6080604052600436106102ef5760003560e01c806384b0196e11610186578063bc197c81116100d7578063ec58278011610085578063ec582780146109cd578063f0a75c63146109ed578063f23a6e6114610a0d578063f2fde38b14610a39578063f8486c9714610a59578063f8ce560a14610a79578063fc0c546a14610a9957600080fd5b8063bc197c81146108b4578063c01f9e37146108e0578063c28bc2fa14610900578063c59057e414610913578063dd4e2ba514610933578063deaaa7cc14610979578063eb9019d4146109ad57600080fd5b8063a277136e11610134578063a277136e146107d9578063a7713a70146107f9578063a9a952941461080e578063ab58fb8e1461082f578063ad3cb1cc1461084f578063b58131b014610880578063b8f88d641461089457600080fd5b806384b0196e146107055780638da5cb5b1461072d5780638ff262e31461074257806391ddadf41461076257806397c3d334146107855780639a34a2bd146107995780639a802a6d146107b957600080fd5b8063452115d6116102405780635b8d0e0d116101ee5780635b8d0e0d146105fb5780635f398a141461061b57806360c4247f1461063b578063715018a61461065b5780637b3c71d3146106705780637d5e81e2146106905780637ecebe00146106b057600080fd5b8063452115d61461050c5780634bf5d7e91461052c5780634f1ef2861461056357806352d1902d14610576578063544ffc9c1461058b57806354fd4d50146105c657806356781388146105db57600080fd5b8063250dcd4d1161029d578063250dcd4d146104245780632656227d146104445780632d63f693146104575780632fe3e261146104775780633932abb1146104ab5780633e4f49e6146104bf57806343859632146104ec57600080fd5b806301ffc9a7146102fd57806302a251a31461033257806306f3f9e61461035157806306fdde0314610371578063143489d014610393578063150b7a02146103c0578063160cbed71461040457600080fd5b366102f857005b005b600080fd5b34801561030957600080fd5b5061031d610318366004613c4f565b610aae565b60405190151581526020015b60405180910390f35b34801561033e57600080fd5b50610e105b604051908152602001610329565b34801561035d57600080fd5b506102f661036c366004613c79565b610b00565b34801561037d57600080fd5b50610386610b14565b6040516103299190613ce2565b34801561039f57600080fd5b506103b36103ae366004613c79565b610bb5565b6040516103299190613cf5565b3480156103cc57600080fd5b506103eb6103db366004613dd3565b630a85bd0160e11b949350505050565b6040516001600160e01b03199091168152602001610329565b34801561041057600080fd5b5061034361041f366004613fac565b610bde565b34801561043057600080fd5b506102f661043f366004613c79565b610c35565b610343610452366004613fac565b610e3d565b34801561046357600080fd5b50610343610472366004613c79565b610f79565b34801561048357600080fd5b506103437f3e83946653575f9a39005e1545185629e92736b7528ab20ca3816f315424a81181565b3480156104b757600080fd5b50603c610343565b3480156104cb57600080fd5b506104df6104da366004613c79565b610fa8565b6040516103299190614065565b3480156104f857600080fd5b5061031d610507366004614073565b6110d0565b34801561051857600080fd5b50610343610527366004613fac565b61110a565b34801561053857600080fd5b5060408051808201909152600e81526d06d6f64653d74696d657374616d760941b6020820152610386565b6102f66105713660046140a3565b61117c565b34801561058257600080fd5b5061034361119b565b34801561059757600080fd5b506105ab6105a6366004613c79565b6111b8565b60408051938452602084019290925290820152606001610329565b3480156105d257600080fd5b506103866111eb565b3480156105e757600080fd5b506103436105f6366004614108565b611206565b34801561060757600080fd5b5061034361061636600461417c565b61122f565b34801561062757600080fd5b50610343610636366004614236565b611367565b34801561064757600080fd5b50610343610656366004613c79565b6113bc565b34801561066757600080fd5b506102f6611455565b34801561067c57600080fd5b5061034361068b3660046142b9565b611469565b34801561069c57600080fd5b506103436106ab366004614312565b6114b1565b3480156106bc57600080fd5b506103436106cb3660046143b2565b6001600160a01b031660009081527f5ab42ced628888259c08ac98db1eb0cf702fc1501344311d8b100cd1bfe4bb00602052604090205490565b34801561071157600080fd5b5061071a611518565b604051610329979695949392919061440b565b34801561073957600080fd5b506103b36115c1565b34801561074e57600080fd5b5061034361075d36600461447b565b6115f6565b34801561076e57600080fd5b5060405165ffffffffffff42168152602001610329565b34801561079157600080fd5b506064610343565b3480156107a557600080fd5b506102f66107b4366004613c79565b6116a1565b3480156107c557600080fd5b506103436107d43660046144cc565b611817565b3480156107e557600080fd5b506103436107f4366004614524565b61182e565b34801561080557600080fd5b506103436119f7565b34801561081a57600080fd5b5061031d610829366004613c79565b50600090565b34801561083b57600080fd5b5061034361084a366004613c79565b611a1c565b34801561085b57600080fd5b50610386604051806040016040528060058152602001640352e302e360dc1b81525081565b34801561088c57600080fd5b506000610343565b3480156108a057600080fd5b506102f66108af366004614566565b611a4b565b3480156108c057600080fd5b506103eb6108cf3660046145da565b63bc197c8160e01b95945050505050565b3480156108ec57600080fd5b506103436108fb366004613c79565b611bac565b6102f661090e36600461466d565b611c00565b34801561091f57600080fd5b5061034361092e366004613fac565b611c80565b34801561093f57600080fd5b506040805180820190915260208082527f737570706f72743d627261766f2671756f72756d3d666f722c6162737461696e90820152610386565b34801561098557600080fd5b506103437ff2aad550cf55f045cb27e9c559f9889fdfb6e6cdaa032301d6ea397784ae51d781565b3480156109b957600080fd5b506103436109c83660046146b0565b611cba565b3480156109d957600080fd5b506103436109e83660046146dc565b611cdb565b3480156109f957600080fd5b50610343610a083660046146fe565b611e5b565b348015610a1957600080fd5b506103eb610a2836600461472e565b63f23a6e6160e01b95945050505050565b348015610a4557600080fd5b506102f6610a543660046143b2565b611ff2565b348015610a6557600080fd5b506102f6610a74366004613c79565b61202d565b348015610a8557600080fd5b50610343610a94366004613c79565b6121de565b348015610aa557600080fd5b506103b36121e9565b60006001600160e01b031982166332a2ad4360e11b1480610adf57506001600160e01b03198216630271189760e51b145b80610afa57506301ffc9a760e01b6001600160e01b03198316145b92915050565b610b08612212565b610b1181612256565b50565b60606000610b206122f1565b9050806000018054610b3190614796565b80601f0160208091040260200160405190810160405280929190818152602001828054610b5d90614796565b8015610baa5780601f10610b7f57610100808354040283529160200191610baa565b820191906000526020600020905b815481529060010190602001808311610b8d57829003601f168201915b505050505091505090565b600080610bc06122f1565b6000938452600101602052505060409020546001600160a01b031690565b600080610be96122f1565b90506000610bf987878787611c80565b9050610c0e81610c096004612315565b612338565b506000604051634844252360e11b815260040160405180910390fd5b509695505050505050565b6000610c3f612377565b600083815260018201602052604090205490915060ff16610c7b5760405162461bcd60e51b8152600401610c72906147d0565b60405180910390fd5b60016000838152600183016020526040902054610100900460ff166002811115610ca757610ca761403b565b14610cc45760405162461bcd60e51b8152600401610c7290614817565b604080516001808252818301909252600091602080830190803683375050835482519293506001600160a01b031691839150600090610d0557610d05614860565b6001600160a01b039290921660209283029190910190910152604080516001808252818301909252600091816020016020820280368337019050509050600081600081518110610d5757610d57614860565b6020908102919091010152604080516001808252818301909252600091816020015b6060815260200190600190039081610d79579050506000868152600186810160205260409182902080549101549151929350610dc992620100009091046001600160a01b03169190602401614876565b60408051601f198184030181529190526020810180516001600160e01b0316633e633c1f60e21b17905281518290600090610e0657610e06614860565b6020026020010181905250610e358383838760010160008a815260200190815260200160002060020154610e3d565b505050505050565b600080610e486122f1565b90506000610e5887878787611c80565b9050610e7881610e686005612315565b610e726004612315565b17612338565b5060008181526001830160205260409020805460ff60f01b1916600160f01b17905530610ea23090565b6001600160a01b031614610f2e5760005b8751811015610f2c57306001600160a01b0316888281518110610ed857610ed8614860565b60200260200101516001600160a01b031603610f2457610f24868281518110610f0357610f03614860565b6020026020010151805190602001208460020161239b90919063ffffffff16565b600101610eb3565b505b610f3b818888888861240c565b6040518181527f712ae1383f79ac853f8d882153778e0260ef8f03b504e2866e0593e04d2b291f906020015b60405180910390a19695505050505050565b600080610f846122f1565b600093845260010160205250506040902054600160a01b900465ffffffffffff1690565b600080610fb36122f1565b6000848152600182016020526040902080549192509060ff600160f01b8204811691600160f81b9004168115610fef5750600795945050505050565b80156110015750600295945050505050565b600061100c87610f79565b90508060000361103257604051636ad0607560e01b815260048101889052602401610c72565b65ffffffffffff421680821061105057506000979650505050505050565b600061105b89611bac565b90508181106110735750600198975050505050505050565b61107c896124de565b158061108e575061108c89612526565b155b156110a25750600398975050505050505050565b6110ab89611a1c565b6000036110c15750600498975050505050505050565b50600598975050505050505050565b6000806110db61254b565b6000858152602091825260408082206001600160a01b0387168352600301909252205460ff1691505092915050565b60008061111986868686611c80565b905061112981610c096000612315565b5061113381610bb5565b6001600160a01b0316336001600160a01b031614611166573360405163233d98e360e01b8152600401610c729190613cf5565b6111728686868661256f565b9695505050505050565b61118461262e565b61118d826126d3565b61119782826126db565b5050565b60006111a5612794565b50600080516020614e5783398151915290565b6000806000806111c661254b565b6000958652602052505060409092208054600182015460029092015490949193509150565b6040805180820190915260018152603160f81b602082015290565b600080339050611227848285604051806020016040528060008152506127dd565b949350505050565b6000806112f4876112ee7f3e83946653575f9a39005e1545185629e92736b7528ab20ca3816f315424a8118c8c8c6112668e612809565b8d8d60405161127692919061488f565b60405180910390208c805190602001206040516020016112d39796959493929190968752602087019590955260ff9390931660408601526001600160a01b03919091166060850152608084015260a083015260c082015260e00190565b6040516020818303038152906040528051906020012061284b565b85612878565b90508061131657866040516394ab6c0760e01b8152600401610c729190613cf5565b61135a89888a89898080601f0160208091040260200160405190810160405280939291908181526020018383808284376000920191909152508b92506128d0915050565b9998505050505050505050565b6000803390506113b187828888888080601f0160208091040260200160405190810160405280939291908181526020018383808284376000920191909152508a92506128d0915050565b979650505050505050565b6000806113c76129ad565b80549091506000826113da6001846148b5565b815481106113ea576113ea614860565b6000918252602090912001805490915065ffffffffffff811690600160301b90046001600160d01b031686821161142e576001600160d01b03169695505050505050565b61144161143a886129d1565b8690612a08565b6001600160d01b0316979650505050505050565b61145d612abd565b6114676000612aef565b565b60008033905061117286828787878080601f0160208091040260200160405190810160405280939291908181526020018383808284376000920191909152506127dd92505050565b6000336114be8184612b60565b6114dd578060405163d9b3955760e01b8152600401610c729190613cf5565b60006114fb826114ee6001426148c8565b65ffffffffffff16611cba565b9050600061150c8888888887612c4b565b98975050505050505050565b600060608060008060006060600061152e612e50565b805490915015801561154257506001810154155b6115865760405162461bcd60e51b81526020600482015260156024820152741152540dcc4c8e88155b9a5b9a5d1a585b1a5e9959605a1b6044820152606401610c72565b61158e612e74565b611596612e91565b60408051600080825260208201909252600f60f81b9c939b5091995046985030975095509350915050565b6000807f9016d09d72d40fdae2fd8ceac6b6234c7706214fd39c1cd1e609a0528c1993005b546001600160a01b031692915050565b600080611664846112ee7ff2aad550cf55f045cb27e9c559f9889fdfb6e6cdaa032301d6ea397784ae51d789898961162d8b612809565b60408051602081019690965285019390935260ff90911660608401526001600160a01b0316608083015260a082015260c0016112d3565b90508061168657836040516394ab6c0760e01b8152600401610c729190613cf5565b611172868587604051806020016040528060008152506127dd565b60006116ab612377565b600083815260018201602052604090205490915060ff166116de5760405162461bcd60e51b8152600401610c72906147d0565b600080838152600183016020526040902054610100900460ff1660028111156117095761170961403b565b146117265760405162461bcd60e51b8152600401610c7290614817565b60408051600180825281830190925260009160208083019080368337505060408051600180825281830190925292935060009291506020808301908036833750506040805160018082528183019092529293506000929150602082015b60608152602001906001900390816117835790505090506000836000815181106117af576117af614860565b60200260200101906001600160a01b031690816001600160a01b0316815250506000826000815181106117e4576117e4614860565b602090810291909101810191909152604080516000808252928101909152905081600081518110610e0657610e06614860565b6000611824848484612eae565b90505b9392505050565b600080611839612377565b60408051600180825281830190925291925060009190602080830190803683375050835482519293506001600160a01b03169183915060009061187e5761187e614860565b6001600160a01b0392909216602092830291909101909101526040805160018082528183019092526000918160200160208202803683370190505090506000816000815181106118d0576118d0614860565b6020908102919091010152604080516001808252818301909252600091816020015b60608152602001906001900390816118f2579050509050868860405160240161191c929190614876565b60408051601f198184030181529190526020810180516001600160e01b0316633e633c1f60e21b1790528151829060009061195957611959614860565b6020026020010181905250611970838383896114b1565b60008181526001868101602090815260409283902080546001600160a01b038d1662010000026001600160b01b0319909116176101011781558083018d90558a51918b01919091206002909101559051919650600080516020614e77833981519152916119e491889133908c908e906148fe565b60405180910390a1505050509392505050565b600080611a026129ad565b9050611a0d81612f26565b6001600160d01b031691505090565b600080611a276122f1565b6000938452600190810160205260409093209092015465ffffffffffff1692915050565b7ff0c57e16840df040f15088dc2f81fe391c3923bec73e23a9662efc9c229c6a008054600160401b810460ff1615906001600160401b0316600081158015611a905750825b90506000826001600160401b03166001148015611aac5750303b155b905081158015611aba575080155b15611ad85760405163f92ee8a960e01b815260040160405180910390fd5b845467ffffffffffffffff191660011785558315611b0257845460ff60401b1916600160401b1785555b611b0b88612f5f565b611b13612f81565b611b1c89612f89565b611b266001612f9a565b611b2f87612fab565b611b37612f81565b6000611b41612377565b80546001600160a01b0319166001600160a01b038916179055508315611ba157845460ff60401b19168555604051600181527fc7f505b2f371ae2175ee4913f4499e1f2633a7b5936321eed1cdaeb6115181d29060200160405180910390a15b505050505050505050565b600080611bb76122f1565b6000848152600182016020526040902054909150611bf190600160d01b810463ffffffff1690600160a01b900465ffffffffffff1661493a565b65ffffffffffff169392505050565b611c08612212565b600080856001600160a01b0316858585604051611c2692919061488f565b60006040518083038185875af1925050503d8060008114611c63576040519150601f19603f3d011682016040523d82523d6000602084013e611c68565b606091505b5091509150611c778282612fbc565b50505050505050565b600084848484604051602001611c9994939291906149ed565b60408051601f19818403018152919052805160209091012095945050505050565b60006118278383611cd660408051602081019091526000815290565b612eae565b600080611ce6612377565b6040805160018082528183019092529192506000919060208083019080368337505060408051600180825281830190925292935060009291506020808301908036833750506040805160018082528183019092529293506000929150602082015b6060815260200190600190039081611d47579050509050600083600081518110611d7357611d73614860565b60200260200101906001600160a01b031690816001600160a01b031681525050600082600081518110611da857611da8614860565b602090810291909101810191909152604080516000808252928101909152905081600081518110611ddb57611ddb614860565b6020026020010181905250611df2838383896114b1565b6000818152600186810160209081526040808420805461ffff191690931783558a51918b019190912060029092019190915551919650600080516020614e7783398151915291611e499188913390829081906148fe565b60405180910390a15050505092915050565b600080611e66612377565b60408051600180825281830190925291925060009190602080830190803683375050835482519293506001600160a01b031691839150600090611eab57611eab614860565b6001600160a01b039290921660209283029190910190910152604080516001808252818301909252600091816020016020820280368337019050509050600081600081518110611efd57611efd614860565b6020908102919091010152604080516001808252818301909252600091816020015b6060815260200190600190039081611f1f5750506040516024810189905290915060440160408051601f198184030181529190526020810180516001600160e01b0316638c4a381560e01b17905281518290600090611f8057611f80614860565b6020026020010181905250611f97838383896114b1565b6000818152600186810160209081526040808420805461ffff19166102011781559283018c90558a51918b019190912060029283015551929750600080516020614e7783398151915292611e49928992913391908d906148fe565b611ffa612abd565b6001600160a01b038116612024576000604051631e4fbdf760e01b8152600401610c729190613cf5565b610b1181612aef565b6000612037612377565b600083815260018201602052604090205490915060ff1661206a5760405162461bcd60e51b8152600401610c72906147d0565b60026000838152600183016020526040902054610100900460ff1660028111156120965761209661403b565b146120b35760405162461bcd60e51b8152600401610c7290614817565b604080516001808252818301909252600091602080830190803683375050835482519293506001600160a01b0316918391506000906120f4576120f4614860565b6001600160a01b03929092166020928302919091019091015260408051600180825281830190925260009181602001602082028036833701905050905060008160008151811061214657612146614860565b6020908102919091010152604080516001808252818301909252600091816020015b60608152602001906001900390816121685750506000868152600186810160205260409182902001549051602481019190915290915060440160408051601f198184030181529190526020810180516001600160e01b0316638c4a381560e01b17905281518290600090610e0657610e06614860565b6000610afa82612fd8565b6000807f3ba4977254e415696610a40ebf2258dbfa0ec6a2ff64e84bfe715ff16977cc006115e6565b600061221c6122f1565b9050303314610b1157336040516347096e4760e01b8152600401610c729190613cf5565b8061224d8360020161306f565b03612240575050565b60006122606129ad565b905060648083111561228f5760405163243e544560e01b81526004810184905260248101829052604401610c72565b60006122996119f7565b90506122b0426122a8866130e4565b859190613118565b505060408051828152602081018690527f0553476bf02ef2726e8ce5ced78d63e26e602e4a2257b1f559418e24b4633997910160405180910390a150505050565b7f7c712897014dbe49c045ef1299aa2d5f9e67e48eea4403efa21f1e0f3ac0cb0090565b60008160078111156123295761232961403b565b600160ff919091161b92915050565b60008061234484610fa8565b905060008361235283612315565b1603611827578381846040516331b75e4d60e01b8152600401610c7293929190614a38565b7f72a4ccd47996c0aa9e54efd606e03b13bee57794bd0974b6dda8fcd457f3770090565b81546001600160801b03600160801b8204811691811660018301909116036123d657604051638acb5f2760e01b815260040160405180910390fd5b6001600160801b03808216600090815260018086016020526040909120939093558354919092018216600160801b029116179055565b60005b8451811015610e355760008086838151811061242d5761242d614860565b60200260200101516001600160a01b031686848151811061245057612450614860565b602002602001015186858151811061246a5761246a614860565b602002602001015160405161247f9190614a5a565b60006040518083038185875af1925050503d80600081146124bc576040519150601f19603f3d011682016040523d82523d6000602084013e6124c1565b606091505b50915091506124d08282612fbc565b50505080600101905061240f565b6000806124e961254b565b60008481526020829052604090206002810154600182015492935090916125109190614a76565b61251c610a9486610f79565b1115949350505050565b60008061253161254b565b600093845260205250506040902080546001909101541190565b7fa1cefa0f43667ef127a258e673c94202a79b656e62899531c4376d87a7f3980090565b60008061257a6122f1565b9050600061258a87878787611c80565b90506125d88161259a6007612315565b6125a46006612315565b6125ae6002612315565b60016125bb600782614a89565b6125c6906002614b86565b6125d091906148b5565b181818612338565b5060008181526001830160205260409081902080546001600160f81b0316600160f81b179055517f789cf55be980739dad1d0699b93b58e806b51c9d96619bfa8fe0a28abaa7b30c90610f679083815260200190565b306001600160a01b037f00000000000000000000000000000000000000000000000000000000000000001614806126b557507f00000000000000000000000000000000000000000000000000000000000000006001600160a01b03166126a9600080516020614e57833981519152546001600160a01b031690565b6001600160a01b031614155b156114675760405163703e46dd60e11b815260040160405180910390fd5b610b11612abd565b816001600160a01b03166352d1902d6040518163ffffffff1660e01b8152600401602060405180830381865afa925050508015612735575060408051601f3d908101601f1916820190925261273291810190614b95565b60015b6127545781604051634c9c8ce360e01b8152600401610c729190613cf5565b600080516020614e57833981519152811461278557604051632a87526960e21b815260048101829052602401610c72565b61278f8383613133565b505050565b306001600160a01b037f000000000000000000000000000000000000000000000000000000000000000016146114675760405163703e46dd60e11b815260040160405180910390fd5b6000612800858585856127fb60408051602081019091526000815290565b6128d0565b95945050505050565b6001600160a01b031660009081527f5ab42ced628888259c08ac98db1eb0cf702fc1501344311d8b100cd1bfe4bb006020526040902080546001810190915590565b6000610afa612858613189565b8360405161190160f01b8152600281019290925260228201526042902090565b60008060006128878585613198565b50909250905060008160038111156128a1576128a161403b565b1480156128bf5750856001600160a01b0316826001600160a01b0316145b8061117257506111728686866131e5565b60006128e086610c096001612315565b5060006128f6866128f089610f79565b85612eae565b905061290587878784876132c0565b825160000361295a57856001600160a01b03167fb8e138887d0aa13bab447e82de9d5c1777041ecd21ca36ba824ff1e6c07ddda48887848860405161294d9493929190614bae565b60405180910390a2611172565b856001600160a01b03167fe2babfbac5889a709b63bb7f598b324e08bc5a4fb9ec647fb3cbc9ec07eb8712888784888860405161299b959493929190614bd6565b60405180910390a29695505050505050565b7fe770710421fd2cad75ad828c61aa98f2d77d423a440b67872d0f65554148e00090565b600065ffffffffffff821115612a04576040516306dfcc6560e41b81526030600482015260248101839052604401610c72565b5090565b815460009081816005811115612a67576000612a23846133bc565b612a2d90856148b5565b60008881526020902090915081015465ffffffffffff9081169087161015612a5757809150612a65565b612a62816001614a76565b92505b505b6000612a75878785856134a4565b90508015612ab057612a9a87612a8c6001846148b5565b600091825260209091200190565b54600160301b90046001600160d01b03166113b1565b6000979650505050505050565b33612ac66115c1565b6001600160a01b031614611467573360405163118cdaa760e01b8152600401610c729190613cf5565b7f9016d09d72d40fdae2fd8ceac6b6234c7706214fd39c1cd1e609a0528c19930080546001600160a01b031981166001600160a01b03848116918217845560405192169182907f8be0079c531659141344cd1fd0a4f28419497f9722a3daafe3b4186f6b6457e090600090a3505050565b80516000906034811015612b78576001915050610afa565b82810160131901516001600160a01b031981166b046e0e4dee0dee6cae47a60f60a31b14612bab57600192505050610afa565b600080612bb96028856148b5565b90505b83811015612c2a57600080612bf0888481518110612bdc57612bdc614860565b01602001516001600160f81b031916613506565b9150915081612c085760019650505050505050610afa565b8060ff166004856001600160a01b0316901b1793505050806001019050612bbc565b50856001600160a01b0316816001600160a01b031614935050505092915050565b600080612c566122f1565b9050612c6b8787878780519060200120611c80565b915085518751141580612c8057508451875114155b80612c8a57508651155b15612cbf57865185518751604051630447b05d60e41b8152600481019390935260248301919091526044820152606401610c72565b6000828152600182016020526040902054600160a01b900465ffffffffffff1615612d0c5781612cee83610fa8565b6040516331b75e4d60e01b8152610c72929190600090600401614a38565b6000612d19603c42614a76565b90506000610e106000858152600185016020526040902080546001600160a01b0319166001600160a01b038816178155909150612d55836129d1565b815465ffffffffffff91909116600160a01b0265ffffffffffff60a01b19909116178155612d8282613598565b815463ffffffff91909116600160d01b0263ffffffff60d01b1990911617815589517f7d84a6263ae0d98d3329bd7b46bb4e8d6f98cd35a7adb45c274c8b7fd5ebd5e090869088908d908d906001600160401b03811115612de557612de5613d1e565b604051908082528060200260200182016040528015612e1857816020015b6060815260200190600190039081612e035790505b508d89612e258a82614a76565b8f604051612e3b99989796959493929190614c10565b60405180910390a15050505095945050505050565b7fa16a46d94261c7517cc8ff89f61c0ce93598e3c849801011dee649a6a557d10090565b60606000612e80612e50565b9050806002018054610b3190614796565b60606000612e9d612e50565b9050806003018054610b3190614796565b6000612eb86121e9565b6001600160a01b0316633a46b1a885856040518363ffffffff1660e01b8152600401612ee5929190614876565b602060405180830381865afa158015612f02573d6000803e3d6000fd5b505050506040513d601f19601f820116820180604052508101906118249190614b95565b80546000908015612f5657612f4083612a8c6001846148b5565b54600160301b90046001600160d01b0316611827565b60009392505050565b612f676135c9565b612f7881612f736111eb565b613612565b610b1181613653565b6114676135c9565b612f916135c9565b610b1181613672565b612fa26135c9565b610b11816136bb565b612fb36135c9565b610b11816136c3565b606082612fd157612fcc826136cb565b610afa565b5080610afa565b60006064612fe5836113bc565b612fed6121e9565b6001600160a01b0316638e539e8c856040518263ffffffff1660e01b815260040161301a91815260200190565b602060405180830381865afa158015613037573d6000803e3d6000fd5b505050506040513d601f19601f8201168201806040525081019061305b9190614b95565b6130659190614ce7565b610afa9190614d14565b80546000906001600160801b0380821691600160801b90041681036130a7576040516375e52f4f60e01b815260040160405180910390fd5b6001600160801b038181166000908152600185810160205260408220805492905585546001600160801b0319169301909116919091179092555090565b60006001600160d01b03821115612a04576040516306dfcc6560e41b815260d0600482015260248101839052604401610c72565b6000806131268585856136f4565b915091505b935093915050565b61313c8261386e565b6040516001600160a01b038316907fbc7cd75a20ee27fd9adebab32041f755214dbc6bffa90cc0225b39da2e5c2d3b90600090a28051156131815761278f82826138ca565b611197613937565b6000613193613956565b905090565b600080600083516041036131d25760208401516040850151606086015160001a6131c4888285856139ca565b9550955095505050506131de565b50508151600091506002905b9250925092565b6000806000856001600160a01b03168585604051602401613207929190614d36565b60408051601f198184030181529181526020820180516001600160e01b0316630b135d3f60e11b1790525161323c9190614a5a565b600060405180830381855afa9150503d8060008114613277576040519150601f19603f3d011682016040523d82523d6000602084013e61327c565b606091505b509150915081801561329057506020815110155b801561117257508051630b135d3f60e11b906132b59083016020908101908401614b95565b149695505050505050565b60006132ca61254b565b6000878152602082815260408083206001600160a01b038a16845260038101909252909120549192509060ff161561331757856040516371c6af4960e01b8152600401610c729190613cf5565b6001600160a01b03861660009081526003820160205260409020805460ff1916600117905560ff851661336357838160000160008282546133589190614a76565b90915550611c779050565b60001960ff86160161338357838160010160008282546133589190614a76565b60011960ff8616016133a357838160020160008282546133589190614a76565b6040516303599be160e11b815260040160405180910390fd5b6000816000036133ce57506000919050565b600060016133db84613a8f565b901c6001901b905060018184816133f4576133f4614cfe565b048201901c9050600181848161340c5761340c614cfe565b048201901c9050600181848161342457613424614cfe565b048201901c9050600181848161343c5761343c614cfe565b048201901c9050600181848161345457613454614cfe565b048201901c9050600181848161346c5761346c614cfe565b048201901c9050600181848161348457613484614cfe565b048201901c90506118278182858161349e5761349e614cfe565b04613b23565b60005b818310156134fe5760006134bb8484613b39565b60008781526020902090915065ffffffffffff86169082015465ffffffffffff1611156134ea578092506134f8565b6134f5816001614a76565b93505b506134a7565b509392505050565b60008060f883901c602f811180156135215750603a8160ff16105b1561353657600194602f199091019350915050565b8060ff16604010801561354c575060478160ff16105b15613561576001946036199091019350915050565b8060ff166060108015613577575060678160ff16105b1561358c576001946056199091019350915050565b50600093849350915050565b600063ffffffff821115612a04576040516306dfcc6560e41b81526020600482015260248101839052604401610c72565b7ff0c57e16840df040f15088dc2f81fe391c3923bec73e23a9662efc9c229c6a0054600160401b900460ff1661146757604051631afcd79f60e31b815260040160405180910390fd5b61361a6135c9565b6000613624612e50565b9050600281016136348482614d97565b50600381016136438382614d97565b5060008082556001909101555050565b61365b6135c9565b60006136656122f1565b90508061278f8382614d97565b61367a6135c9565b7f3ba4977254e415696610a40ebf2258dbfa0ec6a2ff64e84bfe715ff16977cc0080546001600160a01b0319166001600160a01b0392909216919091179055565b610b086135c9565b611ffa6135c9565b8051156136db5780518082602001fd5b604051630a12f52160e11b815260040160405180910390fd5b82546000908190801561381357600061371287612a8c6001856148b5565b60408051808201909152905465ffffffffffff808216808452600160301b9092046001600160d01b03166020840152919250908716101561376657604051632520601d60e01b815260040160405180910390fd5b805165ffffffffffff8088169116036137b2578461378988612a8c6001866148b5565b80546001600160d01b0392909216600160301b0265ffffffffffff909216919091179055613803565b6040805180820190915265ffffffffffff80881682526001600160d01b0380881660208085019182528b54600181018d5560008d81529190912094519151909216600160301b029216919091179101555b60200151925083915061312b9050565b50506040805180820190915265ffffffffffff80851682526001600160d01b0380851660208085019182528854600181018a5560008a815291822095519251909316600160301b02919093161792019190915590508161312b565b806001600160a01b03163b60000361389b5780604051634c9c8ce360e01b8152600401610c729190613cf5565b600080516020614e5783398151915280546001600160a01b0319166001600160a01b0392909216919091179055565b6060600080846001600160a01b0316846040516138e79190614a5a565b600060405180830381855af49150503d8060008114613922576040519150601f19603f3d011682016040523d82523d6000602084013e613927565b606091505b5091509150612800858383613b54565b34156114675760405163b398979f60e01b815260040160405180910390fd5b60007f8b73c3c69bb8fe3d512ecc4cf759cc79239f7b179b0ffacaa9a75d522b39400f613981613ba7565b613989613c0e565b60408051602081019490945283019190915260608201524660808201523060a082015260c00160405160208183030381529060405280519060200120905090565b600080806fa2a8918ca85bafe22016d0b997e4df60600160ff1b038411156139fb5750600091506003905082613a85565b604080516000808252602082018084528a905260ff891692820192909252606081018790526080810186905260019060a0016020604051602081039080840390855afa158015613a4f573d6000803e3d6000fd5b5050604051601f1901519150506001600160a01b038116613a7b57506000925060019150829050613a85565b9250600091508190505b9450945094915050565b600080608083901c15613aa457608092831c92015b604083901c15613ab657604092831c92015b602083901c15613ac857602092831c92015b601083901c15613ada57601092831c92015b600883901c15613aec57600892831c92015b600483901c15613afe57600492831c92015b600283901c15613b1057600292831c92015b600183901c15610afa5760010192915050565b6000818310613b325781611827565b5090919050565b6000613b486002848418614d14565b61182790848416614a76565b606082613b6957613b64826136cb565b611827565b8151158015613b8057506001600160a01b0384163b155b15613ba05783604051639996b31560e01b8152600401610c729190613cf5565b5080611827565b600080613bb2612e50565b90506000613bbe612e74565b805190915015613bd657805160209091012092915050565b81548015613be5579392505050565b7fc5d2460186f7233c927e7db2dcc703c0e500b653ca82273b7bfad8045d85a470935050505090565b600080613c19612e50565b90506000613c25612e91565b805190915015613c3d57805160209091012092915050565b60018201548015613be5579392505050565b600060208284031215613c6157600080fd5b81356001600160e01b03198116811461182757600080fd5b600060208284031215613c8b57600080fd5b5035919050565b60005b83811015613cad578181015183820152602001613c95565b50506000910152565b60008151808452613cce816020860160208601613c92565b601f01601f19169290920160200192915050565b6020815260006118276020830184613cb6565b6001600160a01b0391909116815260200190565b6001600160a01b0381168114610b1157600080fd5b634e487b7160e01b600052604160045260246000fd5b604051601f8201601f191681016001600160401b0381118282101715613d5c57613d5c613d1e565b604052919050565b600082601f830112613d7557600080fd5b81356001600160401b03811115613d8e57613d8e613d1e565b613da1601f8201601f1916602001613d34565b818152846020838601011115613db657600080fd5b816020850160208301376000918101602001919091529392505050565b60008060008060808587031215613de957600080fd5b8435613df481613d09565b93506020850135613e0481613d09565b92506040850135915060608501356001600160401b03811115613e2657600080fd5b613e3287828801613d64565b91505092959194509250565b60006001600160401b03821115613e5757613e57613d1e565b5060051b60200190565b600082601f830112613e7257600080fd5b81356020613e87613e8283613e3e565b613d34565b8083825260208201915060208460051b870101935086841115613ea957600080fd5b602086015b84811015610c2a578035613ec181613d09565b8352918301918301613eae565b600082601f830112613edf57600080fd5b81356020613eef613e8283613e3e565b8083825260208201915060208460051b870101935086841115613f1157600080fd5b602086015b84811015610c2a5780358352918301918301613f16565b600082601f830112613f3e57600080fd5b81356020613f4e613e8283613e3e565b82815260059290921b84018101918181019086841115613f6d57600080fd5b8286015b84811015610c2a5780356001600160401b03811115613f905760008081fd5b613f9e8986838b0101613d64565b845250918301918301613f71565b60008060008060808587031215613fc257600080fd5b84356001600160401b0380821115613fd957600080fd5b613fe588838901613e61565b95506020870135915080821115613ffb57600080fd5b61400788838901613ece565b9450604087013591508082111561401d57600080fd5b5061402a87828801613f2d565b949793965093946060013593505050565b634e487b7160e01b600052602160045260246000fd5b600881106140615761406161403b565b9052565b60208101610afa8284614051565b6000806040838503121561408657600080fd5b82359150602083013561409881613d09565b809150509250929050565b600080604083850312156140b657600080fd5b82356140c181613d09565b915060208301356001600160401b038111156140dc57600080fd5b6140e885828601613d64565b9150509250929050565b803560ff8116811461410357600080fd5b919050565b6000806040838503121561411b57600080fd5b8235915061412b602084016140f2565b90509250929050565b60008083601f84011261414657600080fd5b5081356001600160401b0381111561415d57600080fd5b60208301915083602082850101111561417557600080fd5b9250929050565b600080600080600080600060c0888a03121561419757600080fd5b873596506141a7602089016140f2565b955060408801356141b781613d09565b945060608801356001600160401b03808211156141d357600080fd5b6141df8b838c01614134565b909650945060808a01359150808211156141f857600080fd5b6142048b838c01613d64565b935060a08a013591508082111561421a57600080fd5b506142278a828b01613d64565b91505092959891949750929550565b60008060008060006080868803121561424e57600080fd5b8535945061425e602087016140f2565b935060408601356001600160401b038082111561427a57600080fd5b61428689838a01614134565b9095509350606088013591508082111561429f57600080fd5b506142ac88828901613d64565b9150509295509295909350565b600080600080606085870312156142cf57600080fd5b843593506142df602086016140f2565b925060408501356001600160401b038111156142fa57600080fd5b61430687828801614134565b95989497509550505050565b6000806000806080858703121561432857600080fd5b84356001600160401b038082111561433f57600080fd5b61434b88838901613e61565b9550602087013591508082111561436157600080fd5b61436d88838901613ece565b9450604087013591508082111561438357600080fd5b61438f88838901613f2d565b935060608701359150808211156143a557600080fd5b50613e3287828801613d64565b6000602082840312156143c457600080fd5b813561182781613d09565b60008151808452602080850194506020840160005b83811015614400578151875295820195908201906001016143e4565b509495945050505050565b60ff60f81b8816815260e06020820152600061442a60e0830189613cb6565b828103604084015261443c8189613cb6565b606084018890526001600160a01b038716608085015260a0840186905283810360c0850152905061446d81856143cf565b9a9950505050505050505050565b6000806000806080858703121561449157600080fd5b843593506144a1602086016140f2565b925060408501356144b181613d09565b915060608501356001600160401b03811115613e2657600080fd5b6000806000606084860312156144e157600080fd5b83356144ec81613d09565b92506020840135915060408401356001600160401b0381111561450e57600080fd5b61451a86828701613d64565b9150509250925092565b60008060006060848603121561453957600080fd5b83359250602084013561454b81613d09565b915060408401356001600160401b0381111561450e57600080fd5b6000806000806080858703121561457c57600080fd5b843561458781613d09565b935060208501356001600160401b038111156145a257600080fd5b6145ae87828801613d64565b93505060408501356145bf81613d09565b915060608501356145cf81613d09565b939692955090935050565b600080600080600060a086880312156145f257600080fd5b85356145fd81613d09565b9450602086013561460d81613d09565b935060408601356001600160401b038082111561462957600080fd5b61463589838a01613ece565b9450606088013591508082111561464b57600080fd5b61465789838a01613ece565b9350608088013591508082111561429f57600080fd5b6000806000806060858703121561468357600080fd5b843561468e81613d09565b93506020850135925060408501356001600160401b038111156142fa57600080fd5b600080604083850312156146c357600080fd5b82356146ce81613d09565b946020939093013593505050565b600080604083850312156146ef57600080fd5b8235600181106140c157600080fd5b6000806040838503121561471157600080fd5b8235915060208301356001600160401b038111156140dc57600080fd5b600080600080600060a0868803121561474657600080fd5b853561475181613d09565b9450602086013561476181613d09565b9350604086013592506060860135915060808601356001600160401b0381111561478a57600080fd5b6142ac88828901613d64565b600181811c908216806147aa57607f821691505b6020821081036147ca57634e487b7160e01b600052602260045260246000fd5b50919050565b60208082526027908201527f4275696c64696e67476f7665726e616e63653a20696e76616c69642070726f706040820152661bdcd85b08125160ca1b606082015260800190565b60208082526029908201527f4275696c64696e67476f7665726e616e63653a20696e76616c69642070726f706040820152686f73616c207479706560b81b606082015260800190565b634e487b7160e01b600052603260045260246000fd5b6001600160a01b03929092168252602082015260400190565b8183823760009101908152919050565b634e487b7160e01b600052601160045260246000fd5b81810381811115610afa57610afa61489f565b65ffffffffffff8281168282160390808211156148e7576148e761489f565b5092915050565b600381106140615761406161403b565b85815260a0810161491260208301876148ee565b6001600160a01b03948516604083015292909316606084015260809092019190915292915050565b65ffffffffffff8181168382160190808211156148e7576148e761489f565b60008151808452602080850194506020840160005b838110156144005781516001600160a01b03168752958201959082019060010161496e565b60008282518085526020808601955060208260051b8401016020860160005b848110156149e057601f198684030189526149ce838351613cb6565b988401989250908301906001016149b2565b5090979650505050505050565b608081526000614a006080830187614959565b8281036020840152614a1281876143cf565b90508281036040840152614a268186614993565b91505082606083015295945050505050565b83815260608101614a4c6020830185614051565b826040830152949350505050565b60008251614a6c818460208701613c92565b9190910192915050565b80820180821115610afa57610afa61489f565b60ff8181168382160190811115610afa57610afa61489f565b600181815b80851115614add578160001904821115614ac357614ac361489f565b80851615614ad057918102915b93841c9390800290614aa7565b509250929050565b600082614af457506001610afa565b81614b0157506000610afa565b8160018114614b175760028114614b2157614b3d565b6001915050610afa565b60ff841115614b3257614b3261489f565b50506001821b610afa565b5060208310610133831016604e8410600b8410161715614b60575081810a610afa565b614b6a8383614aa2565b8060001904821115614b7e57614b7e61489f565b029392505050565b600061182760ff841683614ae5565b600060208284031215614ba757600080fd5b5051919050565b84815260ff841660208201528260408201526080606082015260006111726080830184613cb6565b85815260ff8516602082015283604082015260a060608201526000614bfe60a0830185613cb6565b828103608084015261150c8185613cb6565b60006101208b8352602060018060a01b038c1681850152816040850152614c398285018c614959565b91508382036060850152614c4d828b6143cf565b915083820360808501528189518084528284019150828160051b850101838c0160005b83811015614c9e57601f19878403018552614c8c838351613cb6565b94860194925090850190600101614c70565b505086810360a0880152614cb2818c614993565b9450505050508560c08401528460e0840152828103610100840152614cd78185613cb6565b9c9b505050505050505050505050565b8082028115828204841417610afa57610afa61489f565b634e487b7160e01b600052601260045260246000fd5b600082614d3157634e487b7160e01b600052601260045260246000fd5b500490565b8281526040602082015260006118246040830184613cb6565b601f82111561278f576000816000526020600020601f850160051c81016020861015614d785750805b601f850160051c820191505b81811015610e3557828155600101614d84565b81516001600160401b03811115614db057614db0613d1e565b614dc481614dbe8454614796565b84614d4f565b602080601f831160018114614df95760008415614de15750858301515b600019600386901b1c1916600185901b178555610e35565b600085815260208120601f198616915b82811015614e2857888601518255948401946001909101908401614e09565b5085821015614e465787850151600019600388901b60f8161c191681555b5050505050600190811b0190555056fe360894a13ba1a3210667c828492db98dca3e2076cc3735a920a3ca505d382bbca10c63e075db64b7ba9307d5a86ed168b50b42d1f4228392e575c41b030d180aa2646970667358221220a5c738478a886eeeb439f0a05dea71fae7f52845e6e257d88560355ab17c54b564736f6c63430008180033",
  "linkReferences": {},
  "deployedLinkReferences": {}
}