{
  "_format": "hh-sol-artifact-1",
  "contractName": "BuildingFactory",
  "sourceName": "contracts/buildings/BuildingFactory.sol",
  "abi": [
    {
      "inputs": [],
      "stateMutability": "nonpayable",
      "type": "constructor"
    },
    {
      "inputs": [],
      "name": "InvalidInitialization",
      "type": "error"
    },
    {
      "inputs": [],
      "name": "NotInitializing",
      "type": "error"
    },
    {
      "anonymous": false,
      "inputs": [
        {
          "indexed": false,
          "internalType": "uint64",
          "name": "version",
          "type": "uint64"
        }
      ],
      "name": "Initialized",
      "type": "event"
    },
    {
      "anonymous": false,
      "inputs": [
        {
          "indexed": false,
          "internalType": "address",
          "name": "addr",
          "type": "address"
        }
      ],
      "name": "NewAuditRegistry",
      "type": "event"
    },
    {
      "anonymous": false,
      "inputs": [
        {
          "indexed": false,
          "internalType": "address",
          "name": "addr",
          "type": "address"
        },
        {
          "indexed": false,
          "internalType": "address",
          "name": "initialOwner",
          "type": "address"
        }
      ],
      "name": "NewBuilding",
      "type": "event"
    },
    {
      "anonymous": false,
      "inputs": [
        {
          "indexed": false,
          "internalType": "address",
          "name": "token",
          "type": "address"
        },
        {
          "indexed": false,
          "internalType": "address",
          "name": "building",
          "type": "address"
        },
        {
          "indexed": false,
          "internalType": "address",
          "name": "initialOwner",
          "type": "address"
        }
      ],
      "name": "NewERC3643Token",
      "type": "event"
    },
    {
      "anonymous": false,
      "inputs": [
        {
          "indexed": false,
          "internalType": "address",
          "name": "governance",
          "type": "address"
        },
        {
          "indexed": false,
          "internalType": "address",
          "name": "building",
          "type": "address"
        },
        {
          "indexed": false,
          "internalType": "address",
          "name": "initialOwner",
          "type": "address"
        }
      ],
      "name": "NewGovernance",
      "type": "event"
    },
    {
      "anonymous": false,
      "inputs": [
        {
          "indexed": false,
          "internalType": "address",
          "name": "treasury",
          "type": "address"
        },
        {
          "indexed": false,
          "internalType": "address",
          "name": "building",
          "type": "address"
        },
        {
          "indexed": false,
          "internalType": "address",
          "name": "initialOwner",
          "type": "address"
        }
      ],
      "name": "NewTreasury",
      "type": "event"
    },
    {
      "inputs": [
        {
          "internalType": "address",
          "name": "buildingAddress",
          "type": "address"
        }
      ],
      "name": "getBuildingDetails",
      "outputs": [
        {
          "components": [
            {
              "internalType": "address",
              "name": "addr",
              "type": "address"
            },
            {
              "internalType": "uint256",
              "name": "nftId",
              "type": "uint256"
            },
            {
              "internalType": "string",
              "name": "tokenURI",
              "type": "string"
            },
            {
              "internalType": "address",
              "name": "identity",
              "type": "address"
            },
            {
              "internalType": "address",
              "name": "erc3643Token",
              "type": "address"
            },
            {
              "internalType": "address",
              "name": "treasury",
              "type": "address"
            },
            {
              "internalType": "address",
              "name": "governance",
              "type": "address"
            },
            {
              "internalType": "address",
              "name": "vault",
              "type": "address"
            }
          ],
          "internalType": "struct BuildingFactoryStorage.BuildingInfo",
          "name": "",
          "type": "tuple"
        }
      ],
      "stateMutability": "view",
      "type": "function"
    },
    {
      "inputs": [],
      "name": "getBuildingList",
      "outputs": [
        {
          "components": [
            {
              "internalType": "address",
              "name": "addr",
              "type": "address"
            },
            {
              "internalType": "uint256",
              "name": "nftId",
              "type": "uint256"
            },
            {
              "internalType": "string",
              "name": "tokenURI",
              "type": "string"
            },
            {
              "internalType": "address",
              "name": "identity",
              "type": "address"
            },
            {
              "internalType": "address",
              "name": "erc3643Token",
              "type": "address"
            },
            {
              "internalType": "address",
              "name": "treasury",
              "type": "address"
            },
            {
              "internalType": "address",
              "name": "governance",
              "type": "address"
            },
            {
              "internalType": "address",
              "name": "vault",
              "type": "address"
            }
          ],
          "internalType": "struct BuildingFactoryStorage.BuildingInfo[]",
          "name": "",
          "type": "tuple[]"
        }
      ],
      "stateMutability": "view",
      "type": "function"
    },
    {
      "inputs": [
        {
          "internalType": "address",
          "name": "_nft",
          "type": "address"
        },
        {
          "internalType": "address",
          "name": "_uniswapRouter",
          "type": "address"
        },
        {
          "internalType": "address",
          "name": "_uniswapFactory",
          "type": "address"
        },
        {
          "internalType": "address",
          "name": "_onchainIdGateway",
          "type": "address"
        },
        {
          "internalType": "address",
          "name": "_trexGateway",
          "type": "address"
        },
        {
          "internalType": "address",
          "name": "_usdc",
          "type": "address"
        },
        {
          "internalType": "address",
          "name": "_buildingBeacon",
          "type": "address"
        },
        {
          "internalType": "address",
          "name": "_vaultFactory",
          "type": "address"
        },
        {
          "internalType": "address",
          "name": "_treasuryBeacon",
          "type": "address"
        },
        {
          "internalType": "address",
          "name": "_governanceBeacon",
          "type": "address"
        }
      ],
      "name": "initialize",
      "outputs": [],
      "stateMutability": "nonpayable",
      "type": "function"
    },
    {
      "inputs": [
        {
          "internalType": "string",
          "name": "tokenURI",
          "type": "string"
        }
      ],
      "name": "newBuilding",
      "outputs": [],
      "stateMutability": "nonpayable",
      "type": "function"
    },
    {
      "inputs": [
        {
          "internalType": "address",
          "name": "building",
          "type": "address"
        },
        {
          "internalType": "string",
          "name": "name",
          "type": "string"
        },
        {
          "internalType": "string",
          "name": "symbol",
          "type": "string"
        },
        {
          "internalType": "uint8",
          "name": "decimals",
          "type": "uint8"
        }
      ],
      "name": "newERC3643Token",
      "outputs": [],
      "stateMutability": "nonpayable",
      "type": "function"
    },
    {
      "inputs": [
        {
          "internalType": "address",
          "name": "building",
          "type": "address"
        },
        {
          "internalType": "string",
          "name": "name",
          "type": "string"
        },
        {
          "internalType": "address",
          "name": "token",
          "type": "address"
        },
        {
          "internalType": "address",
          "name": "treasury",
          "type": "address"
        }
      ],
      "name": "newGovernance",
      "outputs": [],
      "stateMutability": "nonpayable",
      "type": "function"
    },
    {
      "inputs": [
        {
          "internalType": "address",
          "name": "building",
          "type": "address"
        },
        {
          "internalType": "address",
          "name": "token",
          "type": "address"
        },
        {
          "internalType": "uint256",
          "name": "reserveAmount",
          "type": "uint256"
        },
        {
          "internalType": "uint256",
          "name": "nPercentage",
          "type": "uint256"
        }
      ],
      "name": "newTreasury",
      "outputs": [],
      "stateMutability": "nonpayable",
      "type": "function"
    }
  ],
  "bytecode": "0x608060405234801561001057600080fd5b5061001961001e565b6100d0565b7ff0c57e16840df040f15088dc2f81fe391c3923bec73e23a9662efc9c229c6a00805468010000000000000000900460ff161561006e5760405163f92ee8a960e01b815260040160405180910390fd5b80546001600160401b03908116146100cd5780546001600160401b0319166001600160401b0390811782556040519081527fc7f505b2f371ae2175ee4913f4499e1f2633a7b5936321eed1cdaeb6115181d29060200160405180910390a15b50565b614d8e80620000e06000396000f3fe60806040523480156200001157600080fd5b5060043610620000765760003560e01c806304ae1393146200007b578063665fa4a114620000945780636cefd2e514620000c35780638090fc7a14620000da578063baff7ae714620000f1578063c306b3781462000108578063db652ec8146200011f575b600080fd5b620000926200008c36600462001876565b62000138565b005b620000ab620000a5366004620018f4565b62000419565b604051620000ba9190620019fb565b60405180910390f35b62000092620000d436600462001a10565b62000593565b62000092620000eb36600462001a5b565b62000807565b620000926200010236600462001ae8565b62000adc565b620000926200011936600462001b20565b62000ec1565b6200012962001188565b604051620000ba919062001c05565b83600062000145620012fb565b90506001600160a01b038216158015906200017b57506001600160a01b038281166000908152600c830160205260409020541615155b620001a35760405162461bcd60e51b81526004016200019a9062001c6d565b60405180910390fd5b336001600160a01b0316826001600160a01b0316638da5cb5b6040518163ffffffff1660e01b8152600401602060405180830381865afa158015620001ec573d6000803e3d6000fd5b505050506040513d601f19601f8201168201806040525081019062000212919062001cb6565b6001600160a01b0316146200023b5760405162461bcd60e51b81526004016200019a9062001cd6565b600062000247620012fb565b90506001600160a01b038516158015906200028057506001600160a01b038781166000908152600c830160205260409020600401541615155b6200029f5760405162461bcd60e51b81526004016200019a9062001d19565b6001600160a01b03841615801590620002d657506001600160a01b038781166000908152600c830160205260409020600501541615155b620003365760405162461bcd60e51b815260206004820152602960248201527f4275696c64696e67466163746f72793a20496e76616c6964207472656173757260448201526879206164647265737360b81b60648201526084016200019a565b600062000346868887336200131f565b6001600160a01b038981166000908152600c850160205260409081902060060180546001600160a01b031916848416179055516260360760e81b81529192508616906360360700906200039e90849060040162001d5f565b600060405180830381600087803b158015620003b957600080fd5b505af1158015620003ce573d6000803e3d6000fd5b505050507f1d1f9bb8967d6cc0afb743c179484d36a49436606ce55b2f5dbf3218aa6bcece818933604051620004079392919062001d73565b60405180910390a15050505050505050565b604080516101008101825260008082526020820181905260609282018390529181018290526080810182905260a0810182905260c0810182905260e081018290529062000465620012fb565b6001600160a01b038085166000908152600c8301602090815260409182902082516101008101845281549094168452600181015491840191909152600281018054949550929390929184019190620004bd9062001d96565b80601f0160208091040260200160405190810160405280929190818152602001828054620004eb9062001d96565b80156200053c5780601f1062000510576101008083540402835291602001916200053c565b820191906000526020600020905b8154815290600101906020018083116200051e57829003601f168201915b505050918352505060038201546001600160a01b03908116602083015260048301548116604083015260058301548116606083015260068301548116608083015260079092015490911660a0909101529392505050565b836000620005a0620012fb565b90506001600160a01b03821615801590620005d657506001600160a01b038281166000908152600c830160205260409020541615155b620005f55760405162461bcd60e51b81526004016200019a9062001c6d565b336001600160a01b0316826001600160a01b0316638da5cb5b6040518163ffffffff1660e01b8152600401602060405180830381865afa1580156200063e573d6000803e3d6000fd5b505050506040513d601f19601f8201168201806040525081019062000664919062001cb6565b6001600160a01b0316146200068d5760405162461bcd60e51b81526004016200019a9062001cd6565b600062000699620012fb565b90506001600160a01b03861615801590620006d257506001600160a01b038781166000908152600c830160205260409020600401541615155b620006f15760405162461bcd60e51b81526004016200019a9062001d19565b600062000700868633620013dc565b9050600062000711883384620014a9565b6040516312b5ad0160e11b81529091506001600160a01b0383169063256b5a02906200074290849060040162001d5f565b600060405180830381600087803b1580156200075d57600080fd5b505af115801562000772573d6000803e3d6000fd5b505050506001600160a01b038981166000908152600c85016020526040908190206005810180546001600160a01b0319908116878616179091556007909101805490911692841692909217909155517fb0adc7a7c8e39008849c6df3e694846e12ab706c573632f252265fa26944923690620007f49084908c90339062001d73565b60405180910390a1505050505050505050565b83600062000814620012fb565b90506001600160a01b038216158015906200084a57506001600160a01b038281166000908152600c830160205260409020541615155b620008695760405162461bcd60e51b81526004016200019a9062001c6d565b336001600160a01b0316826001600160a01b0316638da5cb5b6040518163ffffffff1660e01b8152600401602060405180830381865afa158015620008b2573d6000803e3d6000fd5b505050506040513d601f19601f82011682018060405250810190620008d8919062001cb6565b6001600160a01b031614620009015760405162461bcd60e51b81526004016200019a9062001cd6565b60006200090d620012fb565b90506001600160a01b038716158015906200094357506001600160a01b038781166000908152600c830160205260409020541615155b620009625760405162461bcd60e51b81526004016200019a9062001c6d565b6001600160a01b038781166000908152600c830160205260409020600401541615620009ed5760405162461bcd60e51b815260206004820152603360248201527f4275696c64696e67466163746f72793a20746f6b656e20616c7265616479206360448201527272656174656420666f72206275696c64696e6760681b60648201526084016200019a565b600581015460009062000a0d906001600160a01b03168989898962001729565b60405163f2fde38b60e01b81529091506001600160a01b0382169063f2fde38b9062000a3e90339060040162001d5f565b600060405180830381600087803b15801562000a5957600080fd5b505af115801562000a6e573d6000803e3d6000fd5b505050506001600160a01b038881166000908152600c840160205260409081902060040180546001600160a01b03191692841692909217909155517fd760e45dc84b0e0af2e851e2faeb76570dc35712d88342d0830f504022183b9590620004079083908b90339062001d73565b600062000ae8620012fb565b6003810154600182015460028301546040519394506000936001600160a01b039384169363c0c53b8b60e01b9362000b2c9390821692911690339060240162001d73565b60408051601f198184030181529181526020820180516001600160e01b03166001600160e01b031990941693909317909252905162000b6b9062001772565b62000b7892919062001dd2565b604051809103906000f08015801562000b95573d6000803e3d6000fd5b50825460405163d0def52160e01b81529192506000916001600160a01b039091169063d0def5219062000bcf908590889060040162001dd2565b6020604051808303816000875af115801562000bef573d6000803e3d6000fd5b505050506040513d601f19601f8201168201806040525081019062000c15919062001df8565b600480850154604051633e8e6e8b60e01b81529293506000926001600160a01b0390911691633e8e6e8b9162000c4e9187910162001d5f565b6020604051808303816000875af115801562000c6e573d6000803e3d6000fd5b505050506040513d601f19601f8201168201806040525081019062000c94919062001cb6565b60408051610100810182526001600160a01b0386811680835260208084018881528486018c8152878516606087015260006080870181905260a0870181905260c0870181905260e08701819052938452600c8c0190925294909120835181546001600160a01b031916931692909217825592516001820155915192935091600282019062000d23908262001e7c565b5060608201516003820180546001600160a01b03199081166001600160a01b03938416179091556080840151600484018054831691841691909117905560a0840151600584018054831691841691909117905560c0840151600684018054831691841691909117905560e090930151600790920180548416928216929092179091558481166000908152600c8701602090815260408220600b890180546001818101835591855292909320815460089093020180549290941691909416178255828101549082015560028082019062000dff9084018262001f44565b5060038281015490820180546001600160a01b03199081166001600160a01b03938416179091556004808501549084018054831691841691909117905560058085015490840180548316918416919091179055600680850154908401805483169184169190911790556007938401549390920180549092169281169290921790556040805191851682523360208301527f959085eb68ffa09abaec4dfe857741f20f41ead0b8f7a04c76e8555a78c597a2910160405180910390a15050505050565b7ff0c57e16840df040f15088dc2f81fe391c3923bec73e23a9662efc9c229c6a008054600160401b810460ff1615906001600160401b031660008115801562000f075750825b90506000826001600160401b0316600114801562000f245750303b155b90508115801562000f33575080155b1562000f525760405163f92ee8a960e01b815260040160405180910390fd5b845467ffffffffffffffff19166001178555831562000f7d57845460ff60401b1916600160401b1785555b600062000f89620012fb565b90508f8160000160006101000a8154816001600160a01b0302191690836001600160a01b031602179055508e8160010160006101000a8154816001600160a01b0302191690836001600160a01b031602179055508d8160020160006101000a8154816001600160a01b0302191690836001600160a01b03160217905550898160030160006101000a8154816001600160a01b0302191690836001600160a01b031602179055508c8160040160006101000a8154816001600160a01b0302191690836001600160a01b031602179055508b8160050160006101000a8154816001600160a01b0302191690836001600160a01b03160217905550878160060160006101000a8154816001600160a01b0302191690836001600160a01b031602179055508a8160070160006101000a8154816001600160a01b0302191690836001600160a01b03160217905550868160080160006101000a8154816001600160a01b0302191690836001600160a01b03160217905550888160090160006101000a8154816001600160a01b0302191690836001600160a01b03160217905550600081600a01819055505083156200117757845460ff60401b19168555604051600181527fc7f505b2f371ae2175ee4913f4499e1f2633a7b5936321eed1cdaeb6115181d29060200160405180910390a15b505050505050505050505050505050565b6060600062001196620012fb565b600b810180546040805160208084028201810190925282815293945060009084015b82821015620012f157600084815260209081902060408051610100810182526008860290920180546001600160a01b03168352600181015493830193909352600283018054929392918401916200120f9062001d96565b80601f01602080910402602001604051908101604052809291908181526020018280546200123d9062001d96565b80156200128e5780601f1062001262576101008083540402835291602001916200128e565b820191906000526020600020905b8154815290600101906020018083116200127057829003601f168201915b505050918352505060038201546001600160a01b039081166020808401919091526004840154821660408401526005840154821660608401526006840154821660808401526007909301541660a0909101529082526001929092019101620011b8565b5050505091505090565b7f0f40dde8b99b0722537b774c6ef775b5e5a0af035d95bf9802cd87411f806f0090565b6000806200132c620012fb565b60088101546040519192506000916001600160a01b0390911690632e3e235960e21b9062001365908a908a9089908b9060240162002029565b60408051601f198184030181529181526020820180516001600160e01b03166001600160e01b0319909416939093179092529051620013a49062001772565b620013b192919062001dd2565b604051809103906000f080158015620013ce573d6000803e3d6000fd5b50925050505b949350505050565b600080620013e9620012fb565b60068101546007820154604080516001600160a01b039283166024820152604481018a9052606481018990528783166084820181905260a48201523060c4808301919091528251808303909101815260e490910182526020810180516001600160e01b03166311917b1d60e01b179052905193945086936000939290921691620014739062001772565b6200148092919062001dd2565b604051809103906000f0801580156200149d573d6000803e3d6000fd5b50979650505050505050565b600080620014b6620012fb565b600a810180549192506000620014cc8362002066565b90915550506009810154600a8201546040516350b35f8360e11b81526001600160a01b03878116600483015288811660248301526044820192909252600092919091169063a166bf0690606401600060405180830381865afa15801562001537573d6000803e3d6000fd5b505050506040513d6000823e601f3d908101601f191682016040526200156191908101906200208e565b90506000866001600160a01b03166306fdde036040518163ffffffff1660e01b8152600401600060405180830381865afa158015620015a4573d6000803e3d6000fd5b505050506040513d6000823e601f3d908101601f19168201604052620015ce91908101906200208e565b90506000876001600160a01b03166395d89b416040518163ffffffff1660e01b8152600401600060405180830381865afa15801562001611573d6000803e3d6000fd5b505050506040513d6000823e601f3d908101601f191682016040526200163b91908101906200208e565b6040805160e0810182526001600160a01b03808c16825260208083018790528284018590528a82166060808501919091528c83166080850152600060a0850181905260c085018190528551918201865280825291810182905280850182905260098a015494516326f927db60e01b815295965090948594919291909116906326f927db90620016d3908a90869086906004016200210d565b6020604051808303816000875af1158015620016f3573d6000803e3d6000fd5b505050506040513d601f19601f8201168201806040525081019062001719919062001cb6565b9c9b505050505050505050505050565b60008383836040516200173c9062001780565b6200174a93929190620021f1565b604051809103906000f08015801562001767573d6000803e3d6000fd5b509695505050505050565b6105bf806200222f83390190565b61256b80620027ee83390190565b6001600160a01b0381168114620017a457600080fd5b50565b634e487b7160e01b600052604160045260246000fd5b604051601f8201601f191681016001600160401b0381118282101715620017e857620017e8620017a7565b604052919050565b60006001600160401b038211156200180c576200180c620017a7565b50601f01601f191660200190565b600082601f8301126200182c57600080fd5b8135620018436200183d82620017f0565b620017bd565b8181528460208386010111156200185957600080fd5b816020850160208301376000918101602001919091529392505050565b600080600080608085870312156200188d57600080fd5b84356200189a816200178e565b935060208501356001600160401b03811115620018b657600080fd5b620018c4878288016200181a565b9350506040850135620018d7816200178e565b91506060850135620018e9816200178e565b939692955090935050565b6000602082840312156200190757600080fd5b813562001914816200178e565b9392505050565b60005b83811015620019385781810151838201526020016200191e565b50506000910152565b600081518084526200195b8160208601602086016200191b565b601f01601f19169290920160200192915050565b600061010060018060a01b03808451168552602084015160208601526040840151826040870152620019a48387018262001941565b9250508060608501511660608601528060808501511660808601528060a08501511660a08601528060c08501511660c08601525060e0830151620019f360e08601826001600160a01b03169052565b509392505050565b6020815260006200191460208301846200196f565b6000806000806080858703121562001a2757600080fd5b843562001a34816200178e565b9350602085013562001a46816200178e565b93969395505050506040820135916060013590565b6000806000806080858703121562001a7257600080fd5b843562001a7f816200178e565b935060208501356001600160401b038082111562001a9c57600080fd5b62001aaa888389016200181a565b9450604087013591508082111562001ac157600080fd5b5062001ad0878288016200181a565b925050606085013560ff81168114620018e957600080fd5b60006020828403121562001afb57600080fd5b81356001600160401b0381111562001b1257600080fd5b620013d4848285016200181a565b6000806000806000806000806000806101408b8d03121562001b4157600080fd5b8a3562001b4e816200178e565b995060208b013562001b60816200178e565b985060408b013562001b72816200178e565b975060608b013562001b84816200178e565b965060808b013562001b96816200178e565b955060a08b013562001ba8816200178e565b945060c08b013562001bba816200178e565b935060e08b013562001bcc816200178e565b92506101008b013562001bdf816200178e565b91506101208b013562001bf2816200178e565b809150509295989b9194979a5092959850565b600060208083016020845280855180835260408601915060408160051b87010192506020870160005b8281101562001c6057603f1988860301845262001c4d8583516200196f565b9450928501929085019060010162001c2e565b5092979650505050505050565b60208082526029908201527f4275696c64696e67466163746f72793a20496e76616c6964206275696c64696e60408201526867206164647265737360b81b606082015260800190565b60006020828403121562001cc957600080fd5b815162001914816200178e565b60208082526023908201527f4275696c64696e67466163746f72793a204e6f74206275696c64696e67206f776040820152623732b960e91b606082015260800190565b60208082526026908201527f4275696c64696e67466163746f72793a20496e76616c696420746f6b656e206160408201526564647265737360d01b606082015260800190565b6001600160a01b0391909116815260200190565b6001600160a01b0393841681529183166020830152909116604082015260600190565b600181811c9082168062001dab57607f821691505b60208210810362001dcc57634e487b7160e01b600052602260045260246000fd5b50919050565b6001600160a01b0383168152604060208201819052600090620013d49083018462001941565b60006020828403121562001e0b57600080fd5b5051919050565b601f82111562001e62576000816000526020600020601f850160051c8101602086101562001e3d5750805b601f850160051c820191505b8181101562001e5e5782815560010162001e49565b5050505b505050565b600019600383901b1c191660019190911b1790565b81516001600160401b0381111562001e985762001e98620017a7565b62001eb08162001ea9845462001d96565b8462001e12565b602080601f83116001811462001ee4576000841562001ecf5750858301515b62001edb858262001e67565b86555062001e5e565b600085815260208120601f198616915b8281101562001f155788860151825594840194600190910190840162001ef4565b508582101562001f345787850151600019600388901b60f8161c191681555b5050505050600190811b01905550565b81810362001f50575050565b62001f5c825462001d96565b6001600160401b0381111562001f765762001f76620017a7565b62001f878162001ea9845462001d96565b6000601f82116001811462001fba576000831562001fa55750848201545b62001fb1848262001e67565b85555062002022565b600085815260209020601f19841690600086815260209020845b8381101562001ff6578286015482556001958601959091019060200162001fd4565b5085831015620020155781850154600019600388901b60f8161c191681555b50505060018360011b0184555b5050505050565b600060018060a01b038087168352608060208401526200204d608084018762001941565b9481166040840152929092166060909101525092915050565b6000600182016200208757634e487b7160e01b600052601160045260246000fd5b5060010190565b600060208284031215620020a157600080fd5b81516001600160401b03811115620020b857600080fd5b8201601f81018413620020ca57600080fd5b8051620020db6200183d82620017f0565b818152856020838501011115620020f157600080fd5b620021048260208301602086016200191b565b95945050505050565b60a0815260006200212260a083018662001941565b828103602084015260018060a01b03808651168252602086015160e060208401526200215260e084018262001941565b9050604087015183820360408501526200216d828262001941565b91505081606088015116606084015281608088015116608084015260a08701519150620021a260a084018363ffffffff169052565b60c08701519150620021bc60c084018363ffffffff169052565b9250620013d4915050604083018480516001600160a01b03908116835260208083015190911690830152604090810151910152565b60608152600062002206606083018662001941565b82810360208401526200221a818662001941565b91505060ff8316604083015294935050505056fe60a06040526040516105bf3803806105bf83398101604081905261002291610387565b61002c828261003e565b506001600160a01b031660805261047e565b610047826100fe565b6040516001600160a01b038316907f1cf3b03a6cf19fa2baba4df148e9dcabedea7f8a5c07840e207e5c089be95d3e90600090a28051156100f2576100ed826001600160a01b0316635c60da1b6040518163ffffffff1660e01b8152600401602060405180830381865afa1580156100c3573d6000803e3d6000fd5b505050506040513d601f19601f820116820180604052508101906100e79190610447565b82610211565b505050565b6100fa610288565b5050565b806001600160a01b03163b60000361013957604051631933b43b60e21b81526001600160a01b03821660048201526024015b60405180910390fd5b807fa3f0ad74e5423aebfd80d3ef4346578335a9a72aeaee59ff6cb3582b35133d5080546001600160a01b0319166001600160a01b0392831617905560408051635c60da1b60e01b81529051600092841691635c60da1b9160048083019260209291908290030181865afa1580156101b5573d6000803e3d6000fd5b505050506040513d601f19601f820116820180604052508101906101d99190610447565b9050806001600160a01b03163b6000036100fa57604051634c9c8ce360e01b81526001600160a01b0382166004820152602401610130565b6060600080846001600160a01b03168460405161022e9190610462565b600060405180830381855af49150503d8060008114610269576040519150601f19603f3d011682016040523d82523d6000602084013e61026e565b606091505b50909250905061027f8583836102a9565b95945050505050565b34156102a75760405163b398979f60e01b815260040160405180910390fd5b565b6060826102be576102b982610308565b610301565b81511580156102d557506001600160a01b0384163b155b156102fe57604051639996b31560e01b81526001600160a01b0385166004820152602401610130565b50805b9392505050565b8051156103185780518082602001fd5b604051630a12f52160e11b815260040160405180910390fd5b80516001600160a01b038116811461034857600080fd5b919050565b634e487b7160e01b600052604160045260246000fd5b60005b8381101561037e578181015183820152602001610366565b50506000910152565b6000806040838503121561039a57600080fd5b6103a383610331565b60208401519092506001600160401b03808211156103c057600080fd5b818501915085601f8301126103d457600080fd5b8151818111156103e6576103e661034d565b604051601f8201601f19908116603f0116810190838211818310171561040e5761040e61034d565b8160405282815288602084870101111561042757600080fd5b610438836020830160208801610363565b80955050505050509250929050565b60006020828403121561045957600080fd5b61030182610331565b60008251610474818460208701610363565b9190910192915050565b6080516101276104986000396000601e01526101276000f3fe6080604052600a600c565b005b60186014601a565b60a0565b565b60007f00000000000000000000000000000000000000000000000000000000000000006001600160a01b0316635c60da1b6040518163ffffffff1660e01b8152600401602060405180830381865afa1580156079573d6000803e3d6000fd5b505050506040513d601f19601f82011682018060405250810190609b919060c3565b905090565b3660008037600080366000845af43d6000803e80801560be573d6000f35b3d6000fd5b60006020828403121560d457600080fd5b81516001600160a01b038116811460ea57600080fd5b939250505056fea26469706673582212205c8a2fcdc6f79c1d43b849e2b03f494652cee222b2ec86046b7caaa1405f985f64736f6c634300081800336101606040523480156200001257600080fd5b506040516200256b3803806200256b83398101604081905262000035916200032d565b338280604051806040016040528060018152602001603160f81b8152508686816003908162000065919062000443565b50600462000074828262000443565b50620000869150839050600562000192565b610120526200009781600662000192565b61014052815160208084019190912060e052815190820120610100524660a0526200012560e05161010051604080517f8b73c3c69bb8fe3d512ecc4cf759cc79239f7b179b0ffacaa9a75d522b39400f60208201529081019290925260608201524660808201523060a082015260009060c00160405160208183030381529060405280519060200120905090565b60805250503060c052506001600160a01b0381166200015f57604051631e4fbdf760e01b8152600060048201526024015b60405180910390fd5b6200016a81620001cb565b50600b805460ff909216600160a01b0260ff60a01b1990921691909117905550620005699050565b6000602083511015620001b257620001aa836200021d565b9050620001c5565b81620001bf848262000443565b5060ff90505b92915050565b600b80546001600160a01b038381166001600160a01b0319831681179093556040519116919082907f8be0079c531659141344cd1fd0a4f28419497f9722a3daafe3b4186f6b6457e090600090a35050565b600080829050601f815111156200024b578260405163305a27a960e01b81526004016200015691906200050f565b8051620002588262000544565b179392505050565b634e487b7160e01b600052604160045260246000fd5b60005b838110156200029357818101518382015260200162000279565b50506000910152565b600082601f830112620002ae57600080fd5b81516001600160401b0380821115620002cb57620002cb62000260565b604051601f8301601f19908116603f01168101908282118183101715620002f657620002f662000260565b816040528381528660208588010111156200031057600080fd5b6200032384602083016020890162000276565b9695505050505050565b6000806000606084860312156200034357600080fd5b83516001600160401b03808211156200035b57600080fd5b62000369878388016200029c565b945060208601519150808211156200038057600080fd5b506200038f868287016200029c565b925050604084015160ff81168114620003a757600080fd5b809150509250925092565b600181811c90821680620003c757607f821691505b602082108103620003e857634e487b7160e01b600052602260045260246000fd5b50919050565b601f8211156200043e576000816000526020600020601f850160051c81016020861015620004195750805b601f850160051c820191505b818110156200043a5782815560010162000425565b5050505b505050565b81516001600160401b038111156200045f576200045f62000260565b6200047781620004708454620003b2565b84620003ee565b602080601f831160018114620004af5760008415620004965750858301515b600019600386901b1c1916600185901b1785556200043a565b600085815260208120601f198616915b82811015620004e057888601518255948401946001909101908401620004bf565b5085821015620004ff5787850151600019600388901b60f8161c191681555b5050505050600190811b01905550565b60208152600082518060208401526200053081604085016020870162000276565b601f01601f19169190910160400192915050565b80516020808301519190811015620003e85760001960209190910360031b1b16919050565b60805160a05160c05160e051610100516101205161014051611fa7620005c46000396000610e4e01526000610e2101526000610b6c01526000610b4401526000610a9f01526000610ac901526000610af30152611fa76000f3fe608060405234801561001057600080fd5b50600436106101795760003560e01c8063715018a6116100d95780639ab24eb0116100875780639ab24eb014610359578063a9059cbb1461036c578063c3cda5201461037f578063d505accf14610392578063dd62ed3e146103a5578063f1127ed8146103b8578063f2fde38b146103f757600080fd5b8063715018a6146102e15780637ecebe00146102e957806384b0196e146102fc5780638da5cb5b146103175780638e539e8c1461032857806391ddadf41461033b57806395d89b411461035157600080fd5b80633a46b1a8116101365780633a46b1a81461020b57806340c10f191461021e5780634bf5d7e914610233578063587cde1e1461025d5780635c19a95c1461027d5780636fcfff451461029057806370a08231146102b857600080fd5b806306fdde031461017e578063095ea7b31461019c57806318160ddd146101bf57806323b872dd146101d1578063313ce567146101e45780633644e51514610203575b600080fd5b61018661040a565b6040516101939190611b73565b60405180910390f35b6101af6101aa366004611ba2565b61049c565b6040519015158152602001610193565b6002545b604051908152602001610193565b6101af6101df366004611bcc565b6104b6565b600b54600160a01b900460ff1660405160ff9091168152602001610193565b6101c36104da565b6101c3610219366004611ba2565b6104e9565b61023161022c366004611ba2565b610565565b005b60408051808201909152600e81526d06d6f64653d74696d657374616d760941b6020820152610186565b61027061026b366004611c08565b610621565b6040516101939190611c23565b61023161028b366004611c08565b61063f565b6102a361029e366004611c08565b61064a565b60405163ffffffff9091168152602001610193565b6101c36102c6366004611c08565b6001600160a01b031660009081526020819052604090205490565b610231610655565b6101c36102f7366004611c08565b610669565b610304610674565b6040516101939796959493929190611c37565b600b546001600160a01b0316610270565b6101c3610336366004611cd0565b6106ba565b60405165ffffffffffff42168152602001610193565b61018661071a565b6101c3610367366004611c08565b610729565b6101af61037a366004611ba2565b610759565b61023161038d366004611cfa565b610767565b6102316103a0366004611d52565b610824565b6101c36103b3366004611dbc565b610940565b6103cb6103c6366004611def565b61096b565b60408051825165ffffffffffff1681526020928301516001600160d01b03169281019290925201610193565b610231610405366004611c08565b610990565b60606003805461041990611e2f565b80601f016020809104026020016040519081016040528092919081815260200182805461044590611e2f565b80156104925780601f1061046757610100808354040283529160200191610492565b820191906000526020600020905b81548152906001019060200180831161047557829003601f168201915b5050505050905090565b6000336104aa8185856109ce565b60019150505b92915050565b6000336104c48582856109e0565b6104cf858585610a33565b506001949350505050565b60006104e4610a92565b905090565b60004265ffffffffffff8116831061052a57604051637669fc0f60e11b81526004810184905265ffffffffffff821660248201526044015b60405180910390fd5b61055461053684610bbd565b6001600160a01b038616600090815260096020526040902090610bf4565b6001600160d01b0316949350505050565b61056d610caa565b6001600160a01b0382166105c35760405162461bcd60e51b815260206004820152601e60248201527f4275696c64696e6745524332303a20496e76616c6964206164647265737300006044820152606401610521565b600081116106135760405162461bcd60e51b815260206004820152601d60248201527f4275696c64696e6745524332303a20496e76616c696420616d6f756e740000006044820152606401610521565b61061d8282610cd7565b5050565b6001600160a01b039081166000908152600860205260409020541690565b3361061d8183610d0d565b60006104b082610d88565b61065d610caa565b6106676000610daa565b565b60006104b082610dfc565b600060608060008060006060610688610e1a565b610690610e47565b60408051600080825260208201909252600f60f81b9b939a50919850469750309650945092509050565b60004265ffffffffffff811683106106f657604051637669fc0f60e11b81526004810184905265ffffffffffff82166024820152604401610521565b61070a61070284610bbd565b600a90610bf4565b6001600160d01b03169392505050565b60606004805461041990611e2f565b6001600160a01b038116600090815260096020526040812061074a90610e74565b6001600160d01b031692915050565b6000336104aa818585610a33565b8342111561078b57604051632341d78760e11b815260048101859052602401610521565b604080517fe48329057bfd03d55e49b547132e39cffd9c1820ad7b9d4c5307691425d15adf60208201526001600160a01b038816918101919091526060810186905260808101859052600090610805906107fd9060a00160405160208183030381529060405280519060200120610ead565b858585610eda565b90506108118187610f08565b61081b8188610d0d565b50505050505050565b834211156108485760405163313c898160e11b815260048101859052602401610521565b60007f6e71edae12b1b97f4d1f60370fef10105fa2faae0126114a169c64845d6126c98888886108778c610f47565b6040805160208101969096526001600160a01b0394851690860152929091166060840152608083015260a082015260c0810186905260e00160405160208183030381529060405280519060200120905060006108d282610ead565b905060006108e282878787610eda565b9050896001600160a01b0316816001600160a01b031614610929576040516325c0072360e11b81526001600160a01b0380831660048301528b166024820152604401610521565b6109348a8a8a6109ce565b50505050505050505050565b6001600160a01b03918216600090815260016020908152604080832093909416825291909152205490565b60408051808201909152600080825260208201526109898383610f6a565b9392505050565b610998610caa565b6001600160a01b0381166109c2576000604051631e4fbdf760e01b81526004016105219190611c23565b6109cb81610daa565b50565b6109db8383836001610fa0565b505050565b60006109ec8484610940565b90506000198114610a2d5781811015610a1e57828183604051637dc7a0d960e11b815260040161052193929190611e69565b610a2d84848484036000610fa0565b50505050565b6001600160a01b038316610a5d576000604051634b637e8f60e11b81526004016105219190611c23565b6001600160a01b038216610a8757600060405163ec442f0560e01b81526004016105219190611c23565b6109db838383611075565b6000306001600160a01b037f000000000000000000000000000000000000000000000000000000000000000016148015610aeb57507f000000000000000000000000000000000000000000000000000000000000000046145b15610b1557507f000000000000000000000000000000000000000000000000000000000000000090565b6104e4604080517f8b73c3c69bb8fe3d512ecc4cf759cc79239f7b179b0ffacaa9a75d522b39400f60208201527f0000000000000000000000000000000000000000000000000000000000000000918101919091527f000000000000000000000000000000000000000000000000000000000000000060608201524660808201523060a082015260009060c00160405160208183030381529060405280519060200120905090565b600065ffffffffffff821115610bf0576040516306dfcc6560e41b81526030600482015260248101839052604401610521565b5090565b815460009081816005811115610c53576000610c0f84611080565b610c199085611ea0565b60008881526020902090915081015465ffffffffffff9081169087161015610c4357809150610c51565b610c4e816001611eb3565b92505b505b6000610c6187878585611168565b90508015610c9c57610c8687610c78600184611ea0565b600091825260209091200190565b54600160301b90046001600160d01b0316610c9f565b60005b979650505050505050565b600b546001600160a01b03163314610667573360405163118cdaa760e01b81526004016105219190611c23565b6001600160a01b038216610d0157600060405163ec442f0560e01b81526004016105219190611c23565b61061d60008383611075565b6000610d1883610621565b6001600160a01b0384811660008181526008602052604080822080546001600160a01b031916888616908117909155905194955093928516927f3134e8a2e6d97e929a7e54011ea5485d7d196dd5f0ba4d4ef95803e8e3fc257f9190a46109db8183610d83866111ca565b6111e8565b6001600160a01b0381166000908152600960205260408120546104b090611354565b600b80546001600160a01b038381166001600160a01b0319831681179093556040519116919082907f8be0079c531659141344cd1fd0a4f28419497f9722a3daafe3b4186f6b6457e090600090a35050565b6001600160a01b0381166000908152600760205260408120546104b0565b60606104e47f00000000000000000000000000000000000000000000000000000000000000006005611385565b60606104e47f00000000000000000000000000000000000000000000000000000000000000006006611385565b80546000908015610ea457610e8e83610c78600184611ea0565b54600160301b90046001600160d01b0316610989565b60009392505050565b60006104b0610eba610a92565b8360405161190160f01b8152600281019290925260228201526042902090565b600080600080610eec88888888611430565b925092509250610efc82826114f5565b50909695505050505050565b6000610f1383610f47565b90508082146109db576040516301d4b62360e61b81526001600160a01b038416600482015260248101829052604401610521565b6001600160a01b0316600090815260076020526040902080546001810190915590565b60408051808201909152600080825260208201526001600160a01b038316600090815260096020526040902061098990836115ae565b6001600160a01b038416610fca57600060405163e602df0560e01b81526004016105219190611c23565b6001600160a01b038316610ff4576000604051634a1406b160e11b81526004016105219190611c23565b6001600160a01b0380851660009081526001602090815260408083209387168352929052208290558015610a2d57826001600160a01b0316846001600160a01b03167f8c5be1e5ebec7d5bd14f71427d1e84f3dd0314c0f7b2291e5b200ac8c7c3b9258460405161106791815260200190565b60405180910390a350505050565b6109db83838361161e565b60008160000361109257506000919050565b6000600161109f84611685565b901c6001901b905060018184816110b8576110b8611ec6565b048201901c905060018184816110d0576110d0611ec6565b048201901c905060018184816110e8576110e8611ec6565b048201901c9050600181848161110057611100611ec6565b048201901c9050600181848161111857611118611ec6565b048201901c9050600181848161113057611130611ec6565b048201901c9050600181848161114857611148611ec6565b048201901c90506109898182858161116257611162611ec6565b04611719565b60005b818310156111c257600061117f848461172f565b60008781526020902090915065ffffffffffff86169082015465ffffffffffff1611156111ae578092506111bc565b6111b9816001611eb3565b93505b5061116b565b509392505050565b6001600160a01b0381166000908152602081905260408120546104b0565b816001600160a01b0316836001600160a01b03161415801561120a5750600081115b156109db576001600160a01b038316156112b2576001600160a01b0383166000908152600960205260408120819061124d9061174a61124886611756565b61178a565b6001600160d01b031691506001600160d01b03169150846001600160a01b03167fdec2bacdd2f05b59de34da9b523dff8be42e5e38e818c82fdb0bae774387a72483836040516112a7929190918252602082015260400190565b60405180910390a250505b6001600160a01b038216156109db576001600160a01b038216600090815260096020526040812081906112eb906117bc61124886611756565b6001600160d01b031691506001600160d01b03169150836001600160a01b03167fdec2bacdd2f05b59de34da9b523dff8be42e5e38e818c82fdb0bae774387a7248383604051611345929190918252602082015260400190565b60405180910390a25050505050565b600063ffffffff821115610bf0576040516306dfcc6560e41b81526020600482015260248101839052604401610521565b606060ff831461139f57611398836117c8565b90506104b0565b8180546113ab90611e2f565b80601f01602080910402602001604051908101604052809291908181526020018280546113d790611e2f565b80156114245780601f106113f957610100808354040283529160200191611424565b820191906000526020600020905b81548152906001019060200180831161140757829003601f168201915b505050505090506104b0565b600080806fa2a8918ca85bafe22016d0b997e4df60600160ff1b0384111561146157506000915060039050826114eb565b604080516000808252602082018084528a905260ff891692820192909252606081018790526080810186905260019060a0016020604051602081039080840390855afa1580156114b5573d6000803e3d6000fd5b5050604051601f1901519150506001600160a01b0381166114e1575060009250600191508290506114eb565b9250600091508190505b9450945094915050565b600082600381111561150957611509611edc565b03611512575050565b600182600381111561152657611526611edc565b036115445760405163f645eedf60e01b815260040160405180910390fd5b600282600381111561155857611558611edc565b036115795760405163fce698f760e01b815260048101829052602401610521565b600382600381111561158d5761158d611edc565b0361061d576040516335e2f38360e21b815260048101829052602401610521565b6040805180820190915260008082526020820152826000018263ffffffff16815481106115dd576115dd611ef2565b60009182526020918290206040805180820190915291015465ffffffffffff81168252600160301b90046001600160d01b0316918101919091529392505050565b611629838383611807565b6001600160a01b03831661167a57600061164260025490565b90506001600160d01b038082111561167757604051630e58ae9360e11b81526004810183905260248101829052604401610521565b50505b6109db83838361191e565b600080608083901c1561169a57608092831c92015b604083901c156116ac57604092831c92015b602083901c156116be57602092831c92015b601083901c156116d057601092831c92015b600883901c156116e257600892831c92015b600483901c156116f457600492831c92015b600283901c1561170657600292831c92015b600183901c156104b05760010192915050565b60008183106117285781610989565b5090919050565b600061173e6002848418611f08565b61098990848416611eb3565b60006109898284611f2a565b60006001600160d01b03821115610bf0576040516306dfcc6560e41b815260d0600482015260248101839052604401610521565b6000806117af426117a761179d88610e74565b868863ffffffff16565b87919061197d565b915091505b935093915050565b60006109898284611f51565b606060006117d58361198b565b604080516020808252818301909252919250600091906020820181803683375050509182525060208101929092525090565b6001600160a01b0383166118325780600260008282546118279190611eb3565b909155506118919050565b6001600160a01b038316600090815260208190526040902054818110156118725783818360405163391434e360e21b815260040161052193929190611e69565b6001600160a01b03841660009081526020819052604090209082900390555b6001600160a01b0382166118ad576002805482900390556118cc565b6001600160a01b03821660009081526020819052604090208054820190555b816001600160a01b0316836001600160a01b03167fddf252ad1be2c89b69c2b068fc378daa952ba7f163c4a11628f55a4df523b3ef8360405161191191815260200190565b60405180910390a3505050565b6001600160a01b0383166119405761193d600a6117bc61124884611756565b50505b6001600160a01b0382166119625761195f600a61174a61124884611756565b50505b6109db61196e84610621565b61197784610621565b836111e8565b6000806117af8585856119b3565b600060ff8216601f8111156104b057604051632cd44ac360e21b815260040160405180910390fd5b825460009081908015611ad25760006119d187610c78600185611ea0565b60408051808201909152905465ffffffffffff808216808452600160301b9092046001600160d01b031660208401529192509087161015611a2557604051632520601d60e01b815260040160405180910390fd5b805165ffffffffffff808816911603611a715784611a4888610c78600186611ea0565b80546001600160d01b0392909216600160301b0265ffffffffffff909216919091179055611ac2565b6040805180820190915265ffffffffffff80881682526001600160d01b0380881660208085019182528b54600181018d5560008d81529190912094519151909216600160301b029216919091179101555b6020015192508391506117b49050565b50506040805180820190915265ffffffffffff80851682526001600160d01b0380851660208085019182528854600181018a5560008a815291822095519251909316600160301b0291909316179201919091559050816117b4565b6000815180845260005b81811015611b5357602081850181015186830182015201611b37565b506000602082860101526020601f19601f83011685010191505092915050565b6020815260006109896020830184611b2d565b80356001600160a01b0381168114611b9d57600080fd5b919050565b60008060408385031215611bb557600080fd5b611bbe83611b86565b946020939093013593505050565b600080600060608486031215611be157600080fd5b611bea84611b86565b9250611bf860208501611b86565b9150604084013590509250925092565b600060208284031215611c1a57600080fd5b61098982611b86565b6001600160a01b0391909116815260200190565b60ff60f81b881681526000602060e06020840152611c5860e084018a611b2d565b8381036040850152611c6a818a611b2d565b606085018990526001600160a01b038816608086015260a0850187905284810360c08601528551808252602080880193509091019060005b81811015611cbe57835183529284019291840191600101611ca2565b50909c9b505050505050505050505050565b600060208284031215611ce257600080fd5b5035919050565b803560ff81168114611b9d57600080fd5b60008060008060008060c08789031215611d1357600080fd5b611d1c87611b86565b95506020870135945060408701359350611d3860608801611ce9565b92506080870135915060a087013590509295509295509295565b600080600080600080600060e0888a031215611d6d57600080fd5b611d7688611b86565b9650611d8460208901611b86565b95506040880135945060608801359350611da060808901611ce9565b925060a0880135915060c0880135905092959891949750929550565b60008060408385031215611dcf57600080fd5b611dd883611b86565b9150611de660208401611b86565b90509250929050565b60008060408385031215611e0257600080fd5b611e0b83611b86565b9150602083013563ffffffff81168114611e2457600080fd5b809150509250929050565b600181811c90821680611e4357607f821691505b602082108103611e6357634e487b7160e01b600052602260045260246000fd5b50919050565b6001600160a01b039390931683526020830191909152604082015260600190565b634e487b7160e01b600052601160045260246000fd5b818103818111156104b0576104b0611e8a565b808201808211156104b0576104b0611e8a565b634e487b7160e01b600052601260045260246000fd5b634e487b7160e01b600052602160045260246000fd5b634e487b7160e01b600052603260045260246000fd5b600082611f2557634e487b7160e01b600052601260045260246000fd5b500490565b6001600160d01b03828116828216039080821115611f4a57611f4a611e8a565b5092915050565b6001600160d01b03818116838216019080821115611f4a57611f4a611e8a56fea264697066735822122052142c2da94f2201e548ea57c516eb1615f17a9473d60896a5920e19771715bf64736f6c63430008180033a2646970667358221220d4882bd1c0a8bcae5d57b003a26737e5d91f65f9fe4ce52803f817c9e9918c9364736f6c63430008180033",
  "linkReferences": {},
  "deployedLinkReferences": {}
}