{
  "_format": "hh-sol-artifact-1",
  "contractName": "BuildingFactoryMock",
  "sourceName": "contracts/buildings/mock/BuildingFactoryMock.sol",
  "abi": [
    {
      "inputs": [],
      "name": "InvalidInitialization",
      "type": "error"
    },
    {
      "inputs": [],
      "name": "NotInitializing",
      "type": "error"
    },
    {
      "inputs": [
        {
          "internalType": "address",
          "name": "owner",
          "type": "address"
        }
      ],
      "name": "OwnableInvalidOwner",
      "type": "error"
    },
    {
      "inputs": [
        {
          "internalType": "address",
          "name": "account",
          "type": "address"
        }
      ],
      "name": "OwnableUnauthorizedAccount",
      "type": "error"
    },
    {
      "anonymous": false,
      "inputs": [
        {
          "indexed": false,
          "internalType": "uint64",
          "name": "version",
          "type": "uint64"
        }
      ],
      "name": "Initialized",
      "type": "event"
    },
    {
      "anonymous": false,
      "inputs": [
        {
          "indexed": false,
          "internalType": "address",
          "name": "addr",
          "type": "address"
        }
      ],
      "name": "NewAuditRegistry",
      "type": "event"
    },
    {
      "anonymous": false,
      "inputs": [
        {
          "indexed": false,
          "internalType": "address",
          "name": "addr",
          "type": "address"
        }
      ],
      "name": "NewBuilding",
      "type": "event"
    },
    {
      "anonymous": false,
      "inputs": [
        {
          "indexed": true,
          "internalType": "address",
          "name": "previousOwner",
          "type": "address"
        },
        {
          "indexed": true,
          "internalType": "address",
          "name": "newOwner",
          "type": "address"
        }
      ],
      "name": "OwnershipTransferred",
      "type": "event"
    },
    {
      "inputs": [
        {
          "internalType": "address",
          "name": "buildingAddress",
          "type": "address"
        }
      ],
      "name": "getBuildingDetails",
      "outputs": [
        {
          "components": [
            {
              "internalType": "address",
              "name": "addr",
              "type": "address"
            },
            {
              "internalType": "uint256",
              "name": "nftId",
              "type": "uint256"
            },
            {
              "internalType": "string",
              "name": "tokenURI",
              "type": "string"
            }
          ],
          "internalType": "struct BuildingFactory.BuildingInfo",
          "name": "",
          "type": "tuple"
        }
      ],
      "stateMutability": "view",
      "type": "function"
    },
    {
      "inputs": [],
      "name": "getBuildingList",
      "outputs": [
        {
          "components": [
            {
              "internalType": "address",
              "name": "addr",
              "type": "address"
            },
            {
              "internalType": "uint256",
              "name": "nftId",
              "type": "uint256"
            },
            {
              "internalType": "string",
              "name": "tokenURI",
              "type": "string"
            }
          ],
          "internalType": "struct BuildingFactory.BuildingInfo[]",
          "name": "",
          "type": "tuple[]"
        }
      ],
      "stateMutability": "view",
      "type": "function"
    },
    {
      "inputs": [
        {
          "internalType": "address",
          "name": "_nft",
          "type": "address"
        },
        {
          "internalType": "address",
          "name": "_uniswapRouter",
          "type": "address"
        },
        {
          "internalType": "address",
          "name": "_uniswapFactory",
          "type": "address"
        },
        {
          "internalType": "address",
          "name": "_beacon",
          "type": "address"
        }
      ],
      "name": "initialize",
      "outputs": [],
      "stateMutability": "nonpayable",
      "type": "function"
    },
    {
      "inputs": [
        {
          "internalType": "string",
          "name": "tokenURI",
          "type": "string"
        }
      ],
      "name": "newBuilding",
      "outputs": [],
      "stateMutability": "nonpayable",
      "type": "function"
    },
    {
      "inputs": [],
      "name": "owner",
      "outputs": [
        {
          "internalType": "address",
          "name": "",
          "type": "address"
        }
      ],
      "stateMutability": "view",
      "type": "function"
    },
    {
      "inputs": [],
      "name": "renounceOwnership",
      "outputs": [],
      "stateMutability": "nonpayable",
      "type": "function"
    },
    {
      "inputs": [
        {
          "internalType": "address",
          "name": "newOwner",
          "type": "address"
        }
      ],
      "name": "transferOwnership",
      "outputs": [],
      "stateMutability": "nonpayable",
      "type": "function"
    },
    {
      "inputs": [],
      "name": "version",
      "outputs": [
        {
          "internalType": "string",
          "name": "",
          "type": "string"
        }
      ],
      "stateMutability": "pure",
      "type": "function"
    }
  ],
  "bytecode": "0x608060405234801561001057600080fd5b50611579806100206000396000f3fe60806040523480156200001157600080fd5b5060043610620000825760003560e01c806354fd4d501462000087578063665fa4a114620000b7578063715018a614620000dd5780638da5cb5b14620000e9578063baff7ae71462000102578063db652ec81462000119578063f2fde38b1462000132578063f8c8765e1462000149575b600080fd5b60408051808201825260038152620322e360ec1b60208201529051620000ae919062000aa1565b60405180910390f35b620000ce620000c836600462000ada565b62000160565b604051620000ae919062000b33565b620000e76200026d565b005b620000f362000285565b604051620000ae919062000b48565b620000e76200011336600462000b72565b620002b3565b62000123620002cb565b604051620000ae919062000c2c565b620000e76200014336600462000ada565b620003f3565b620000e76200015a36600462000c94565b6200043e565b604080516060808201835260008083526020830181905292820152906200018662000549565b6001600160a01b038085166000908152600583016020908152604091829020825160608101845281549094168452600181015491840191909152600281018054949550929390929184019190620001dd9062000cf1565b80601f01602080910402602001604051908101604052809291908181526020018280546200020b9062000cf1565b80156200025c5780601f1062000230576101008083540402835291602001916200025c565b820191906000526020600020905b8154815290600101906020018083116200023e57829003601f168201915b505050505081525050915050919050565b620002776200056d565b620002836000620005a4565b565b7f9016d09d72d40fdae2fd8ceac6b6234c7706214fd39c1cd1e609a0528c199300546001600160a01b031690565b620002bd6200056d565b620002c88162000615565b50565b60606000620002d962000549565b6004810180546040805160208084028201810190925282815293945060009084015b82821015620003e9576000848152602090819020604080516060810182526003860290920180546001600160a01b0316835260018101549383019390935260028301805492939291840191620003519062000cf1565b80601f01602080910402602001604051908101604052809291908181526020018280546200037f9062000cf1565b8015620003d05780601f10620003a457610100808354040283529160200191620003d0565b820191906000526020600020905b815481529060010190602001808311620003b257829003601f168201915b50505050508152505081526020019060010190620002fb565b5050505091505090565b620003fd6200056d565b6001600160a01b03811662000433576000604051631e4fbdf760e01b81526004016200042a919062000b48565b60405180910390fd5b620002c881620005a4565b60006200044a62000870565b805490915060ff600160401b82041615906001600160401b0316600081158015620004725750825b90506000826001600160401b031660011480156200048f5750303b155b9050811580156200049e575080155b15620004bd5760405163f92ee8a960e01b815260040160405180910390fd5b845467ffffffffffffffff191660011785558315620004e857845460ff60401b1916600160401b1785555b620004f68989898962000894565b83156200053e57845460ff60401b19168555604051600181527fc7f505b2f371ae2175ee4913f4499e1f2633a7b5936321eed1cdaeb6115181d2906020015b60405180910390a15b505050505050505050565b7f0f40dde8b99b0722537b774c6ef775b5e5a0af035d95bf9802cd87411f806f0090565b336200057862000285565b6001600160a01b03161462000283573360405163118cdaa760e01b81526004016200042a919062000b48565b7f9016d09d72d40fdae2fd8ceac6b6234c7706214fd39c1cd1e609a0528c19930080546001600160a01b031981166001600160a01b03848116918217845560405192169182907f8be0079c531659141344cd1fd0a4f28419497f9722a3daafe3b4186f6b6457e090600090a3505050565b60006200062162000549565b60038101546001820154600283015483546040516001600160a01b03938416602482015291831660448301528216606482015292935060009291169063c0c53b8b60e01b9060840160408051601f198184030181529181526020820180516001600160e01b03166001600160e01b0319909416939093179092529051620006a89062000a4b565b620006b592919062000d2d565b604051809103906000f080158015620006d2573d6000803e3d6000fd5b50825460405163d0def52160e01b81529192506000916001600160a01b039091169063d0def521906200070c908590889060040162000d2d565b6020604051808303816000875af11580156200072c573d6000803e3d6000fd5b505050506040513d601f19601f8201168201806040525081019062000752919062000d53565b604080516060810182526001600160a01b0385811680835260208084018681528486018b8152600093845260058b0190925294909120835181546001600160a01b0319169316929092178255925160018201559151929350916002820190620007bc908262000dd7565b5050506001600160a01b038083166000908152600585016020908152604082206004870180546001818101835591855292909320815460039093020180546001600160a01b031916929094169190911783558181015491830191909155906002808201906200082e9084018262000e9f565b5050507f02eb67024749e9ed4b0bebae49012408b7466ee9ebbf5a0310811dc2c059d9cd8260405162000862919062000b48565b60405180910390a150505050565b7ff0c57e16840df040f15088dc2f81fe391c3923bec73e23a9662efc9c229c6a0090565b6000620008a062000870565b805490915060ff600160401b82041615906001600160401b0316600081158015620008c85750825b90506000826001600160401b03166001148015620008e55750303b155b905081158015620008f4575080155b15620009135760405163f92ee8a960e01b815260040160405180910390fd5b845467ffffffffffffffff1916600117855583156200093e57845460ff60401b1916600160401b1785555b6200094933620009e8565b60006200095562000549565b80546001600160a01b03808d166001600160a01b03199283161783556001830180548d83169084161790556002830180548c831690841617905560039092018054928a16929091169190911790555083156200053e57845460ff60401b19168555604051600181527fc7f505b2f371ae2175ee4913f4499e1f2633a7b5936321eed1cdaeb6115181d29060200162000535565b620009f2620009fd565b620002c88162000a25565b62000a0762000a2f565b6200028357604051631afcd79f60e31b815260040160405180910390fd5b620003fd620009fd565b600062000a3b62000870565b54600160401b900460ff16919050565b6105bf8062000f8583390190565b6000815180845260005b8181101562000a815760208185018101518683018201520162000a63565b506000602082860101526020601f19601f83011685010191505092915050565b60208152600062000ab6602083018462000a59565b9392505050565b80356001600160a01b038116811462000ad557600080fd5b919050565b60006020828403121562000aed57600080fd5b62000ab68262000abd565b60018060a01b03815116825260208101516020830152600060408201516060604085015262000b2b606085018262000a59565b949350505050565b60208152600062000ab6602083018462000af8565b6001600160a01b0391909116815260200190565b634e487b7160e01b600052604160045260246000fd5b60006020828403121562000b8557600080fd5b81356001600160401b038082111562000b9d57600080fd5b818401915084601f83011262000bb257600080fd5b81358181111562000bc75762000bc762000b5c565b604051601f8201601f19908116603f0116810190838211818310171562000bf25762000bf262000b5c565b8160405282815287602084870101111562000c0c57600080fd5b826020860160208301376000928101602001929092525095945050505050565b600060208083016020845280855180835260408601915060408160051b87010192506020870160005b8281101562000c8757603f1988860301845262000c7485835162000af8565b9450928501929085019060010162000c55565b5092979650505050505050565b6000806000806080858703121562000cab57600080fd5b62000cb68562000abd565b935062000cc66020860162000abd565b925062000cd66040860162000abd565b915062000ce66060860162000abd565b905092959194509250565b600181811c9082168062000d0657607f821691505b60208210810362000d2757634e487b7160e01b600052602260045260246000fd5b50919050565b6001600160a01b038316815260406020820181905260009062000b2b9083018462000a59565b60006020828403121562000d6657600080fd5b5051919050565b601f82111562000dbd576000816000526020600020601f850160051c8101602086101562000d985750805b601f850160051c820191505b8181101562000db95782815560010162000da4565b5050505b505050565b600019600383901b1c191660019190911b1790565b81516001600160401b0381111562000df35762000df362000b5c565b62000e0b8162000e04845462000cf1565b8462000d6d565b602080601f83116001811462000e3f576000841562000e2a5750858301515b62000e36858262000dc2565b86555062000db9565b600085815260208120601f198616915b8281101562000e705788860151825594840194600190910190840162000e4f565b508582101562000e8f5787850151600019600388901b60f8161c191681555b5050505050600190811b01905550565b81810362000eab575050565b62000eb7825462000cf1565b6001600160401b0381111562000ed15762000ed162000b5c565b62000ee28162000e04845462000cf1565b6000601f82116001811462000f15576000831562000f005750848201545b62000f0c848262000dc2565b85555062000f7d565b600085815260209020601f19841690600086815260209020845b8381101562000f51578286015482556001958601959091019060200162000f2f565b508583101562000f705781850154600019600388901b60f8161c191681555b50505060018360011b0184555b505050505056fe60a06040526040516105bf3803806105bf83398101604081905261002291610387565b61002c828261003e565b506001600160a01b031660805261047e565b610047826100fe565b6040516001600160a01b038316907f1cf3b03a6cf19fa2baba4df148e9dcabedea7f8a5c07840e207e5c089be95d3e90600090a28051156100f2576100ed826001600160a01b0316635c60da1b6040518163ffffffff1660e01b8152600401602060405180830381865afa1580156100c3573d6000803e3d6000fd5b505050506040513d601f19601f820116820180604052508101906100e79190610447565b82610211565b505050565b6100fa610288565b5050565b806001600160a01b03163b60000361013957604051631933b43b60e21b81526001600160a01b03821660048201526024015b60405180910390fd5b807fa3f0ad74e5423aebfd80d3ef4346578335a9a72aeaee59ff6cb3582b35133d5080546001600160a01b0319166001600160a01b0392831617905560408051635c60da1b60e01b81529051600092841691635c60da1b9160048083019260209291908290030181865afa1580156101b5573d6000803e3d6000fd5b505050506040513d601f19601f820116820180604052508101906101d99190610447565b9050806001600160a01b03163b6000036100fa57604051634c9c8ce360e01b81526001600160a01b0382166004820152602401610130565b6060600080846001600160a01b03168460405161022e9190610462565b600060405180830381855af49150503d8060008114610269576040519150601f19603f3d011682016040523d82523d6000602084013e61026e565b606091505b50909250905061027f8583836102a9565b95945050505050565b34156102a75760405163b398979f60e01b815260040160405180910390fd5b565b6060826102be576102b982610308565b610301565b81511580156102d557506001600160a01b0384163b155b156102fe57604051639996b31560e01b81526001600160a01b0385166004820152602401610130565b50805b9392505050565b8051156103185780518082602001fd5b604051630a12f52160e11b815260040160405180910390fd5b80516001600160a01b038116811461034857600080fd5b919050565b634e487b7160e01b600052604160045260246000fd5b60005b8381101561037e578181015183820152602001610366565b50506000910152565b6000806040838503121561039a57600080fd5b6103a383610331565b60208401519092506001600160401b03808211156103c057600080fd5b818501915085601f8301126103d457600080fd5b8151818111156103e6576103e661034d565b604051601f8201601f19908116603f0116810190838211818310171561040e5761040e61034d565b8160405282815288602084870101111561042757600080fd5b610438836020830160208801610363565b80955050505050509250929050565b60006020828403121561045957600080fd5b61030182610331565b60008251610474818460208701610363565b9190910192915050565b6080516101276104986000396000601e01526101276000f3fe6080604052600a600c565b005b60186014601a565b60a0565b565b60007f00000000000000000000000000000000000000000000000000000000000000006001600160a01b0316635c60da1b6040518163ffffffff1660e01b8152600401602060405180830381865afa1580156079573d6000803e3d6000fd5b505050506040513d601f19601f82011682018060405250810190609b919060c3565b905090565b3660008037600080366000845af43d6000803e80801560be573d6000f35b3d6000fd5b60006020828403121560d457600080fd5b81516001600160a01b038116811460ea57600080fd5b939250505056fea26469706673582212205c8a2fcdc6f79c1d43b849e2b03f494652cee222b2ec86046b7caaa1405f985f64736f6c63430008180033a264697066735822122027b97c299ec633d29a10cf5591df728dad9e51f0b752a3a2da466395997a494264736f6c63430008180033",
  "linkReferences": {},
  "deployedLinkReferences": {}
}