{
  "_format": "hh-sol-artifact-1",
  "contractName": "BuildingGovernanceMock",
  "sourceName": "contracts/buildings/governance/mock/BuildingGovernanceMock.sol",
  "abi": [
    {
      "inputs": [
        {
          "internalType": "address",
          "name": "target",
          "type": "address"
        }
      ],
      "name": "AddressEmptyCode",
      "type": "error"
    },
    {
      "inputs": [],
      "name": "CheckpointUnorderedInsertion",
      "type": "error"
    },
    {
      "inputs": [
        {
          "internalType": "address",
          "name": "implementation",
          "type": "address"
        }
      ],
      "name": "ERC1967InvalidImplementation",
      "type": "error"
    },
    {
      "inputs": [],
      "name": "ERC1967NonPayable",
      "type": "error"
    },
    {
      "inputs": [],
      "name": "FailedInnerCall",
      "type": "error"
    },
    {
      "inputs": [
        {
          "internalType": "address",
          "name": "voter",
          "type": "address"
        }
      ],
      "name": "GovernorAlreadyCastVote",
      "type": "error"
    },
    {
      "inputs": [
        {
          "internalType": "uint256",
          "name": "proposalId",
          "type": "uint256"
        }
      ],
      "name": "GovernorAlreadyQueuedProposal",
      "type": "error"
    },
    {
      "inputs": [],
      "name": "GovernorDisabledDeposit",
      "type": "error"
    },
    {
      "inputs": [
        {
          "internalType": "address",
          "name": "proposer",
          "type": "address"
        },
        {
          "internalType": "uint256",
          "name": "votes",
          "type": "uint256"
        },
        {
          "internalType": "uint256",
          "name": "threshold",
          "type": "uint256"
        }
      ],
      "name": "GovernorInsufficientProposerVotes",
      "type": "error"
    },
    {
      "inputs": [
        {
          "internalType": "uint256",
          "name": "targets",
          "type": "uint256"
        },
        {
          "internalType": "uint256",
          "name": "calldatas",
          "type": "uint256"
        },
        {
          "internalType": "uint256",
          "name": "values",
          "type": "uint256"
        }
      ],
      "name": "GovernorInvalidProposalLength",
      "type": "error"
    },
    {
      "inputs": [
        {
          "internalType": "uint256",
          "name": "quorumNumerator",
          "type": "uint256"
        },
        {
          "internalType": "uint256",
          "name": "quorumDenominator",
          "type": "uint256"
        }
      ],
      "name": "GovernorInvalidQuorumFraction",
      "type": "error"
    },
    {
      "inputs": [
        {
          "internalType": "address",
          "name": "voter",
          "type": "address"
        }
      ],
      "name": "GovernorInvalidSignature",
      "type": "error"
    },
    {
      "inputs": [],
      "name": "GovernorInvalidVoteType",
      "type": "error"
    },
    {
      "inputs": [
        {
          "internalType": "uint256",
          "name": "votingPeriod",
          "type": "uint256"
        }
      ],
      "name": "GovernorInvalidVotingPeriod",
      "type": "error"
    },
    {
      "inputs": [
        {
          "internalType": "uint256",
          "name": "proposalId",
          "type": "uint256"
        }
      ],
      "name": "GovernorNonexistentProposal",
      "type": "error"
    },
    {
      "inputs": [
        {
          "internalType": "uint256",
          "name": "proposalId",
          "type": "uint256"
        }
      ],
      "name": "GovernorNotQueuedProposal",
      "type": "error"
    },
    {
      "inputs": [
        {
          "internalType": "address",
          "name": "account",
          "type": "address"
        }
      ],
      "name": "GovernorOnlyExecutor",
      "type": "error"
    },
    {
      "inputs": [
        {
          "internalType": "address",
          "name": "account",
          "type": "address"
        }
      ],
      "name": "GovernorOnlyProposer",
      "type": "error"
    },
    {
      "inputs": [],
      "name": "GovernorQueueNotImplemented",
      "type": "error"
    },
    {
      "inputs": [
        {
          "internalType": "address",
          "name": "proposer",
          "type": "address"
        }
      ],
      "name": "GovernorRestrictedProposer",
      "type": "error"
    },
    {
      "inputs": [
        {
          "internalType": "uint256",
          "name": "proposalId",
          "type": "uint256"
        },
        {
          "internalType": "enum IGovernor.ProposalState",
          "name": "current",
          "type": "uint8"
        },
        {
          "internalType": "bytes32",
          "name": "expectedStates",
          "type": "bytes32"
        }
      ],
      "name": "GovernorUnexpectedProposalState",
      "type": "error"
    },
    {
      "inputs": [
        {
          "internalType": "address",
          "name": "account",
          "type": "address"
        },
        {
          "internalType": "uint256",
          "name": "currentNonce",
          "type": "uint256"
        }
      ],
      "name": "InvalidAccountNonce",
      "type": "error"
    },
    {
      "inputs": [],
      "name": "InvalidInitialization",
      "type": "error"
    },
    {
      "inputs": [],
      "name": "NotInitializing",
      "type": "error"
    },
    {
      "inputs": [
        {
          "internalType": "address",
          "name": "owner",
          "type": "address"
        }
      ],
      "name": "OwnableInvalidOwner",
      "type": "error"
    },
    {
      "inputs": [
        {
          "internalType": "address",
          "name": "account",
          "type": "address"
        }
      ],
      "name": "OwnableUnauthorizedAccount",
      "type": "error"
    },
    {
      "inputs": [],
      "name": "QueueEmpty",
      "type": "error"
    },
    {
      "inputs": [],
      "name": "QueueFull",
      "type": "error"
    },
    {
      "inputs": [
        {
          "internalType": "uint8",
          "name": "bits",
          "type": "uint8"
        },
        {
          "internalType": "uint256",
          "name": "value",
          "type": "uint256"
        }
      ],
      "name": "SafeCastOverflowedUintDowncast",
      "type": "error"
    },
    {
      "inputs": [],
      "name": "UUPSUnauthorizedCallContext",
      "type": "error"
    },
    {
      "inputs": [
        {
          "internalType": "bytes32",
          "name": "slot",
          "type": "bytes32"
        }
      ],
      "name": "UUPSUnsupportedProxiableUUID",
      "type": "error"
    },
    {
      "anonymous": false,
      "inputs": [],
      "name": "EIP712DomainChanged",
      "type": "event"
    },
    {
      "anonymous": false,
      "inputs": [
        {
          "indexed": false,
          "internalType": "uint64",
          "name": "version",
          "type": "uint64"
        }
      ],
      "name": "Initialized",
      "type": "event"
    },
    {
      "anonymous": false,
      "inputs": [
        {
          "indexed": true,
          "internalType": "address",
          "name": "previousOwner",
          "type": "address"
        },
        {
          "indexed": true,
          "internalType": "address",
          "name": "newOwner",
          "type": "address"
        }
      ],
      "name": "OwnershipTransferred",
      "type": "event"
    },
    {
      "anonymous": false,
      "inputs": [
        {
          "indexed": false,
          "internalType": "uint256",
          "name": "proposalId",
          "type": "uint256"
        }
      ],
      "name": "ProposalCanceled",
      "type": "event"
    },
    {
      "anonymous": false,
      "inputs": [
        {
          "indexed": false,
          "internalType": "uint256",
          "name": "proposalId",
          "type": "uint256"
        },
        {
          "indexed": false,
          "internalType": "address",
          "name": "proposer",
          "type": "address"
        },
        {
          "indexed": false,
          "internalType": "address[]",
          "name": "targets",
          "type": "address[]"
        },
        {
          "indexed": false,
          "internalType": "uint256[]",
          "name": "values",
          "type": "uint256[]"
        },
        {
          "indexed": false,
          "internalType": "string[]",
          "name": "signatures",
          "type": "string[]"
        },
        {
          "indexed": false,
          "internalType": "bytes[]",
          "name": "calldatas",
          "type": "bytes[]"
        },
        {
          "indexed": false,
          "internalType": "uint256",
          "name": "voteStart",
          "type": "uint256"
        },
        {
          "indexed": false,
          "internalType": "uint256",
          "name": "voteEnd",
          "type": "uint256"
        },
        {
          "indexed": false,
          "internalType": "string",
          "name": "description",
          "type": "string"
        }
      ],
      "name": "ProposalCreated",
      "type": "event"
    },
    {
      "anonymous": false,
      "inputs": [
        {
          "indexed": false,
          "internalType": "uint256",
          "name": "id",
          "type": "uint256"
        },
        {
          "indexed": false,
          "internalType": "enum BuildingGovernanceStorage.ProposalType",
          "name": "proposalType",
          "type": "uint8"
        },
        {
          "indexed": false,
          "internalType": "address",
          "name": "proposer",
          "type": "address"
        },
        {
          "indexed": false,
          "internalType": "address",
          "name": "receiver",
          "type": "address"
        },
        {
          "indexed": false,
          "internalType": "uint256",
          "name": "amount",
          "type": "uint256"
        }
      ],
      "name": "ProposalDefined",
      "type": "event"
    },
    {
      "anonymous": false,
      "inputs": [
        {
          "indexed": false,
          "internalType": "uint256",
          "name": "proposalId",
          "type": "uint256"
        }
      ],
      "name": "ProposalExecuted",
      "type": "event"
    },
    {
      "anonymous": false,
      "inputs": [
        {
          "indexed": false,
          "internalType": "uint256",
          "name": "proposalId",
          "type": "uint256"
        },
        {
          "indexed": false,
          "internalType": "uint256",
          "name": "etaSeconds",
          "type": "uint256"
        }
      ],
      "name": "ProposalQueued",
      "type": "event"
    },
    {
      "anonymous": false,
      "inputs": [
        {
          "indexed": false,
          "internalType": "uint256",
          "name": "oldQuorumNumerator",
          "type": "uint256"
        },
        {
          "indexed": false,
          "internalType": "uint256",
          "name": "newQuorumNumerator",
          "type": "uint256"
        }
      ],
      "name": "QuorumNumeratorUpdated",
      "type": "event"
    },
    {
      "anonymous": false,
      "inputs": [
        {
          "indexed": true,
          "internalType": "address",
          "name": "implementation",
          "type": "address"
        }
      ],
      "name": "Upgraded",
      "type": "event"
    },
    {
      "anonymous": false,
      "inputs": [
        {
          "indexed": true,
          "internalType": "address",
          "name": "voter",
          "type": "address"
        },
        {
          "indexed": false,
          "internalType": "uint256",
          "name": "proposalId",
          "type": "uint256"
        },
        {
          "indexed": false,
          "internalType": "uint8",
          "name": "support",
          "type": "uint8"
        },
        {
          "indexed": false,
          "internalType": "uint256",
          "name": "weight",
          "type": "uint256"
        },
        {
          "indexed": false,
          "internalType": "string",
          "name": "reason",
          "type": "string"
        }
      ],
      "name": "VoteCast",
      "type": "event"
    },
    {
      "anonymous": false,
      "inputs": [
        {
          "indexed": true,
          "internalType": "address",
          "name": "voter",
          "type": "address"
        },
        {
          "indexed": false,
          "internalType": "uint256",
          "name": "proposalId",
          "type": "uint256"
        },
        {
          "indexed": false,
          "internalType": "uint8",
          "name": "support",
          "type": "uint8"
        },
        {
          "indexed": false,
          "internalType": "uint256",
          "name": "weight",
          "type": "uint256"
        },
        {
          "indexed": false,
          "internalType": "string",
          "name": "reason",
          "type": "string"
        },
        {
          "indexed": false,
          "internalType": "bytes",
          "name": "params",
          "type": "bytes"
        }
      ],
      "name": "VoteCastWithParams",
      "type": "event"
    },
    {
      "inputs": [],
      "name": "BALLOT_TYPEHASH",
      "outputs": [
        {
          "internalType": "bytes32",
          "name": "",
          "type": "bytes32"
        }
      ],
      "stateMutability": "view",
      "type": "function"
    },
    {
      "inputs": [],
      "name": "CLOCK_MODE",
      "outputs": [
        {
          "internalType": "string",
          "name": "",
          "type": "string"
        }
      ],
      "stateMutability": "pure",
      "type": "function"
    },
    {
      "inputs": [],
      "name": "COUNTING_MODE",
      "outputs": [
        {
          "internalType": "string",
          "name": "",
          "type": "string"
        }
      ],
      "stateMutability": "pure",
      "type": "function"
    },
    {
      "inputs": [],
      "name": "EXTENDED_BALLOT_TYPEHASH",
      "outputs": [
        {
          "internalType": "bytes32",
          "name": "",
          "type": "bytes32"
        }
      ],
      "stateMutability": "view",
      "type": "function"
    },
    {
      "inputs": [],
      "name": "UPGRADE_INTERFACE_VERSION",
      "outputs": [
        {
          "internalType": "string",
          "name": "",
          "type": "string"
        }
      ],
      "stateMutability": "view",
      "type": "function"
    },
    {
      "inputs": [
        {
          "internalType": "address[]",
          "name": "targets",
          "type": "address[]"
        },
        {
          "internalType": "uint256[]",
          "name": "values",
          "type": "uint256[]"
        },
        {
          "internalType": "bytes[]",
          "name": "calldatas",
          "type": "bytes[]"
        },
        {
          "internalType": "bytes32",
          "name": "descriptionHash",
          "type": "bytes32"
        }
      ],
      "name": "cancel",
      "outputs": [
        {
          "internalType": "uint256",
          "name": "",
          "type": "uint256"
        }
      ],
      "stateMutability": "nonpayable",
      "type": "function"
    },
    {
      "inputs": [
        {
          "internalType": "uint256",
          "name": "proposalId",
          "type": "uint256"
        },
        {
          "internalType": "uint8",
          "name": "support",
          "type": "uint8"
        }
      ],
      "name": "castVote",
      "outputs": [
        {
          "internalType": "uint256",
          "name": "",
          "type": "uint256"
        }
      ],
      "stateMutability": "nonpayable",
      "type": "function"
    },
    {
      "inputs": [
        {
          "internalType": "uint256",
          "name": "proposalId",
          "type": "uint256"
        },
        {
          "internalType": "uint8",
          "name": "support",
          "type": "uint8"
        },
        {
          "internalType": "address",
          "name": "voter",
          "type": "address"
        },
        {
          "internalType": "bytes",
          "name": "signature",
          "type": "bytes"
        }
      ],
      "name": "castVoteBySig",
      "outputs": [
        {
          "internalType": "uint256",
          "name": "",
          "type": "uint256"
        }
      ],
      "stateMutability": "nonpayable",
      "type": "function"
    },
    {
      "inputs": [
        {
          "internalType": "uint256",
          "name": "proposalId",
          "type": "uint256"
        },
        {
          "internalType": "uint8",
          "name": "support",
          "type": "uint8"
        },
        {
          "internalType": "string",
          "name": "reason",
          "type": "string"
        }
      ],
      "name": "castVoteWithReason",
      "outputs": [
        {
          "internalType": "uint256",
          "name": "",
          "type": "uint256"
        }
      ],
      "stateMutability": "nonpayable",
      "type": "function"
    },
    {
      "inputs": [
        {
          "internalType": "uint256",
          "name": "proposalId",
          "type": "uint256"
        },
        {
          "internalType": "uint8",
          "name": "support",
          "type": "uint8"
        },
        {
          "internalType": "string",
          "name": "reason",
          "type": "string"
        },
        {
          "internalType": "bytes",
          "name": "params",
          "type": "bytes"
        }
      ],
      "name": "castVoteWithReasonAndParams",
      "outputs": [
        {
          "internalType": "uint256",
          "name": "",
          "type": "uint256"
        }
      ],
      "stateMutability": "nonpayable",
      "type": "function"
    },
    {
      "inputs": [
        {
          "internalType": "uint256",
          "name": "proposalId",
          "type": "uint256"
        },
        {
          "internalType": "uint8",
          "name": "support",
          "type": "uint8"
        },
        {
          "internalType": "address",
          "name": "voter",
          "type": "address"
        },
        {
          "internalType": "string",
          "name": "reason",
          "type": "string"
        },
        {
          "internalType": "bytes",
          "name": "params",
          "type": "bytes"
        },
        {
          "internalType": "bytes",
          "name": "signature",
          "type": "bytes"
        }
      ],
      "name": "castVoteWithReasonAndParamsBySig",
      "outputs": [
        {
          "internalType": "uint256",
          "name": "",
          "type": "uint256"
        }
      ],
      "stateMutability": "nonpayable",
      "type": "function"
    },
    {
      "inputs": [],
      "name": "clock",
      "outputs": [
        {
          "internalType": "uint48",
          "name": "",
          "type": "uint48"
        }
      ],
      "stateMutability": "view",
      "type": "function"
    },
    {
      "inputs": [
        {
          "internalType": "uint256",
          "name": "amount",
          "type": "uint256"
        },
        {
          "internalType": "string",
          "name": "description",
          "type": "string"
        }
      ],
      "name": "createChangeReserveProposal",
      "outputs": [
        {
          "internalType": "uint256",
          "name": "proposalId",
          "type": "uint256"
        }
      ],
      "stateMutability": "nonpayable",
      "type": "function"
    },
    {
      "inputs": [
        {
          "internalType": "uint256",
          "name": "amount",
          "type": "uint256"
        },
        {
          "internalType": "address",
          "name": "to",
          "type": "address"
        },
        {
          "internalType": "string",
          "name": "description",
          "type": "string"
        }
      ],
      "name": "createPaymentProposal",
      "outputs": [
        {
          "internalType": "uint256",
          "name": "proposalId",
          "type": "uint256"
        }
      ],
      "stateMutability": "nonpayable",
      "type": "function"
    },
    {
      "inputs": [
        {
          "internalType": "enum BuildingGovernanceStorage.ProposalLevel",
          "name": "",
          "type": "uint8"
        },
        {
          "internalType": "string",
          "name": "description",
          "type": "string"
        }
      ],
      "name": "createTextProposal",
      "outputs": [
        {
          "internalType": "uint256",
          "name": "proposalId",
          "type": "uint256"
        }
      ],
      "stateMutability": "nonpayable",
      "type": "function"
    },
    {
      "inputs": [],
      "name": "eip712Domain",
      "outputs": [
        {
          "internalType": "bytes1",
          "name": "fields",
          "type": "bytes1"
        },
        {
          "internalType": "string",
          "name": "name",
          "type": "string"
        },
        {
          "internalType": "string",
          "name": "version",
          "type": "string"
        },
        {
          "internalType": "uint256",
          "name": "chainId",
          "type": "uint256"
        },
        {
          "internalType": "address",
          "name": "verifyingContract",
          "type": "address"
        },
        {
          "internalType": "bytes32",
          "name": "salt",
          "type": "bytes32"
        },
        {
          "internalType": "uint256[]",
          "name": "extensions",
          "type": "uint256[]"
        }
      ],
      "stateMutability": "view",
      "type": "function"
    },
    {
      "inputs": [
        {
          "internalType": "address[]",
          "name": "targets",
          "type": "address[]"
        },
        {
          "internalType": "uint256[]",
          "name": "values",
          "type": "uint256[]"
        },
        {
          "internalType": "bytes[]",
          "name": "calldatas",
          "type": "bytes[]"
        },
        {
          "internalType": "bytes32",
          "name": "descriptionHash",
          "type": "bytes32"
        }
      ],
      "name": "execute",
      "outputs": [
        {
          "internalType": "uint256",
          "name": "",
          "type": "uint256"
        }
      ],
      "stateMutability": "payable",
      "type": "function"
    },
    {
      "inputs": [
        {
          "internalType": "uint256",
          "name": "proposalId",
          "type": "uint256"
        }
      ],
      "name": "executeChangeReserveProposal",
      "outputs": [],
      "stateMutability": "nonpayable",
      "type": "function"
    },
    {
      "inputs": [
        {
          "internalType": "uint256",
          "name": "proposalId",
          "type": "uint256"
        }
      ],
      "name": "executePaymentProposal",
      "outputs": [],
      "stateMutability": "nonpayable",
      "type": "function"
    },
    {
      "inputs": [
        {
          "internalType": "uint256",
          "name": "proposalId",
          "type": "uint256"
        }
      ],
      "name": "executeTextProposal",
      "outputs": [],
      "stateMutability": "nonpayable",
      "type": "function"
    },
    {
      "inputs": [
        {
          "internalType": "address",
          "name": "account",
          "type": "address"
        },
        {
          "internalType": "uint256",
          "name": "timepoint",
          "type": "uint256"
        }
      ],
      "name": "getVotes",
      "outputs": [
        {
          "internalType": "uint256",
          "name": "",
          "type": "uint256"
        }
      ],
      "stateMutability": "view",
      "type": "function"
    },
    {
      "inputs": [
        {
          "internalType": "address",
          "name": "account",
          "type": "address"
        },
        {
          "internalType": "uint256",
          "name": "timepoint",
          "type": "uint256"
        },
        {
          "internalType": "bytes",
          "name": "params",
          "type": "bytes"
        }
      ],
      "name": "getVotesWithParams",
      "outputs": [
        {
          "internalType": "uint256",
          "name": "",
          "type": "uint256"
        }
      ],
      "stateMutability": "view",
      "type": "function"
    },
    {
      "inputs": [
        {
          "internalType": "uint256",
          "name": "proposalId",
          "type": "uint256"
        },
        {
          "internalType": "address",
          "name": "account",
          "type": "address"
        }
      ],
      "name": "hasVoted",
      "outputs": [
        {
          "internalType": "bool",
          "name": "",
          "type": "bool"
        }
      ],
      "stateMutability": "view",
      "type": "function"
    },
    {
      "inputs": [
        {
          "internalType": "address[]",
          "name": "targets",
          "type": "address[]"
        },
        {
          "internalType": "uint256[]",
          "name": "values",
          "type": "uint256[]"
        },
        {
          "internalType": "bytes[]",
          "name": "calldatas",
          "type": "bytes[]"
        },
        {
          "internalType": "bytes32",
          "name": "descriptionHash",
          "type": "bytes32"
        }
      ],
      "name": "hashProposal",
      "outputs": [
        {
          "internalType": "uint256",
          "name": "",
          "type": "uint256"
        }
      ],
      "stateMutability": "pure",
      "type": "function"
    },
    {
      "inputs": [
        {
          "internalType": "contract IVotes",
          "name": "_token",
          "type": "address"
        },
        {
          "internalType": "string",
          "name": "name",
          "type": "string"
        },
        {
          "internalType": "address",
          "name": "initialOwner",
          "type": "address"
        },
        {
          "internalType": "address",
          "name": "treasury",
          "type": "address"
        }
      ],
      "name": "initialize",
      "outputs": [],
      "stateMutability": "nonpayable",
      "type": "function"
    },
    {
      "inputs": [],
      "name": "name",
      "outputs": [
        {
          "internalType": "string",
          "name": "",
          "type": "string"
        }
      ],
      "stateMutability": "view",
      "type": "function"
    },
    {
      "inputs": [
        {
          "internalType": "address",
          "name": "owner",
          "type": "address"
        }
      ],
      "name": "nonces",
      "outputs": [
        {
          "internalType": "uint256",
          "name": "",
          "type": "uint256"
        }
      ],
      "stateMutability": "view",
      "type": "function"
    },
    {
      "inputs": [
        {
          "internalType": "address",
          "name": "",
          "type": "address"
        },
        {
          "internalType": "address",
          "name": "",
          "type": "address"
        },
        {
          "internalType": "uint256[]",
          "name": "",
          "type": "uint256[]"
        },
        {
          "internalType": "uint256[]",
          "name": "",
          "type": "uint256[]"
        },
        {
          "internalType": "bytes",
          "name": "",
          "type": "bytes"
        }
      ],
      "name": "onERC1155BatchReceived",
      "outputs": [
        {
          "internalType": "bytes4",
          "name": "",
          "type": "bytes4"
        }
      ],
      "stateMutability": "nonpayable",
      "type": "function"
    },
    {
      "inputs": [
        {
          "internalType": "address",
          "name": "",
          "type": "address"
        },
        {
          "internalType": "address",
          "name": "",
          "type": "address"
        },
        {
          "internalType": "uint256",
          "name": "",
          "type": "uint256"
        },
        {
          "internalType": "uint256",
          "name": "",
          "type": "uint256"
        },
        {
          "internalType": "bytes",
          "name": "",
          "type": "bytes"
        }
      ],
      "name": "onERC1155Received",
      "outputs": [
        {
          "internalType": "bytes4",
          "name": "",
          "type": "bytes4"
        }
      ],
      "stateMutability": "nonpayable",
      "type": "function"
    },
    {
      "inputs": [
        {
          "internalType": "address",
          "name": "",
          "type": "address"
        },
        {
          "internalType": "address",
          "name": "",
          "type": "address"
        },
        {
          "internalType": "uint256",
          "name": "",
          "type": "uint256"
        },
        {
          "internalType": "bytes",
          "name": "",
          "type": "bytes"
        }
      ],
      "name": "onERC721Received",
      "outputs": [
        {
          "internalType": "bytes4",
          "name": "",
          "type": "bytes4"
        }
      ],
      "stateMutability": "nonpayable",
      "type": "function"
    },
    {
      "inputs": [],
      "name": "owner",
      "outputs": [
        {
          "internalType": "address",
          "name": "",
          "type": "address"
        }
      ],
      "stateMutability": "view",
      "type": "function"
    },
    {
      "inputs": [
        {
          "internalType": "uint256",
          "name": "proposalId",
          "type": "uint256"
        }
      ],
      "name": "proposalDeadline",
      "outputs": [
        {
          "internalType": "uint256",
          "name": "",
          "type": "uint256"
        }
      ],
      "stateMutability": "view",
      "type": "function"
    },
    {
      "inputs": [
        {
          "internalType": "uint256",
          "name": "proposalId",
          "type": "uint256"
        }
      ],
      "name": "proposalEta",
      "outputs": [
        {
          "internalType": "uint256",
          "name": "",
          "type": "uint256"
        }
      ],
      "stateMutability": "view",
      "type": "function"
    },
    {
      "inputs": [
        {
          "internalType": "uint256",
          "name": "",
          "type": "uint256"
        }
      ],
      "name": "proposalNeedsQueuing",
      "outputs": [
        {
          "internalType": "bool",
          "name": "",
          "type": "bool"
        }
      ],
      "stateMutability": "view",
      "type": "function"
    },
    {
      "inputs": [
        {
          "internalType": "uint256",
          "name": "proposalId",
          "type": "uint256"
        }
      ],
      "name": "proposalProposer",
      "outputs": [
        {
          "internalType": "address",
          "name": "",
          "type": "address"
        }
      ],
      "stateMutability": "view",
      "type": "function"
    },
    {
      "inputs": [
        {
          "internalType": "uint256",
          "name": "proposalId",
          "type": "uint256"
        }
      ],
      "name": "proposalSnapshot",
      "outputs": [
        {
          "internalType": "uint256",
          "name": "",
          "type": "uint256"
        }
      ],
      "stateMutability": "view",
      "type": "function"
    },
    {
      "inputs": [],
      "name": "proposalThreshold",
      "outputs": [
        {
          "internalType": "uint256",
          "name": "",
          "type": "uint256"
        }
      ],
      "stateMutability": "view",
      "type": "function"
    },
    {
      "inputs": [
        {
          "internalType": "uint256",
          "name": "proposalId",
          "type": "uint256"
        }
      ],
      "name": "proposalVotes",
      "outputs": [
        {
          "internalType": "uint256",
          "name": "againstVotes",
          "type": "uint256"
        },
        {
          "internalType": "uint256",
          "name": "forVotes",
          "type": "uint256"
        },
        {
          "internalType": "uint256",
          "name": "abstainVotes",
          "type": "uint256"
        }
      ],
      "stateMutability": "view",
      "type": "function"
    },
    {
      "inputs": [
        {
          "internalType": "address[]",
          "name": "targets",
          "type": "address[]"
        },
        {
          "internalType": "uint256[]",
          "name": "values",
          "type": "uint256[]"
        },
        {
          "internalType": "bytes[]",
          "name": "calldatas",
          "type": "bytes[]"
        },
        {
          "internalType": "string",
          "name": "description",
          "type": "string"
        }
      ],
      "name": "propose",
      "outputs": [
        {
          "internalType": "uint256",
          "name": "",
          "type": "uint256"
        }
      ],
      "stateMutability": "nonpayable",
      "type": "function"
    },
    {
      "inputs": [],
      "name": "proxiableUUID",
      "outputs": [
        {
          "internalType": "bytes32",
          "name": "",
          "type": "bytes32"
        }
      ],
      "stateMutability": "view",
      "type": "function"
    },
    {
      "inputs": [
        {
          "internalType": "address[]",
          "name": "targets",
          "type": "address[]"
        },
        {
          "internalType": "uint256[]",
          "name": "values",
          "type": "uint256[]"
        },
        {
          "internalType": "bytes[]",
          "name": "calldatas",
          "type": "bytes[]"
        },
        {
          "internalType": "bytes32",
          "name": "descriptionHash",
          "type": "bytes32"
        }
      ],
      "name": "queue",
      "outputs": [
        {
          "internalType": "uint256",
          "name": "",
          "type": "uint256"
        }
      ],
      "stateMutability": "nonpayable",
      "type": "function"
    },
    {
      "inputs": [
        {
          "internalType": "uint256",
          "name": "blockNumber",
          "type": "uint256"
        }
      ],
      "name": "quorum",
      "outputs": [
        {
          "internalType": "uint256",
          "name": "",
          "type": "uint256"
        }
      ],
      "stateMutability": "view",
      "type": "function"
    },
    {
      "inputs": [],
      "name": "quorumDenominator",
      "outputs": [
        {
          "internalType": "uint256",
          "name": "",
          "type": "uint256"
        }
      ],
      "stateMutability": "view",
      "type": "function"
    },
    {
      "inputs": [
        {
          "internalType": "uint256",
          "name": "timepoint",
          "type": "uint256"
        }
      ],
      "name": "quorumNumerator",
      "outputs": [
        {
          "internalType": "uint256",
          "name": "",
          "type": "uint256"
        }
      ],
      "stateMutability": "view",
      "type": "function"
    },
    {
      "inputs": [],
      "name": "quorumNumerator",
      "outputs": [
        {
          "internalType": "uint256",
          "name": "",
          "type": "uint256"
        }
      ],
      "stateMutability": "view",
      "type": "function"
    },
    {
      "inputs": [
        {
          "internalType": "address",
          "name": "target",
          "type": "address"
        },
        {
          "internalType": "uint256",
          "name": "value",
          "type": "uint256"
        },
        {
          "internalType": "bytes",
          "name": "data",
          "type": "bytes"
        }
      ],
      "name": "relay",
      "outputs": [],
      "stateMutability": "payable",
      "type": "function"
    },
    {
      "inputs": [],
      "name": "renounceOwnership",
      "outputs": [],
      "stateMutability": "nonpayable",
      "type": "function"
    },
    {
      "inputs": [
        {
          "internalType": "uint256",
          "name": "proposalId",
          "type": "uint256"
        }
      ],
      "name": "state",
      "outputs": [
        {
          "internalType": "enum IGovernor.ProposalState",
          "name": "",
          "type": "uint8"
        }
      ],
      "stateMutability": "view",
      "type": "function"
    },
    {
      "inputs": [
        {
          "internalType": "bytes4",
          "name": "interfaceId",
          "type": "bytes4"
        }
      ],
      "name": "supportsInterface",
      "outputs": [
        {
          "internalType": "bool",
          "name": "",
          "type": "bool"
        }
      ],
      "stateMutability": "view",
      "type": "function"
    },
    {
      "inputs": [],
      "name": "token",
      "outputs": [
        {
          "internalType": "contract IERC5805",
          "name": "",
          "type": "address"
        }
      ],
      "stateMutability": "view",
      "type": "function"
    },
    {
      "inputs": [
        {
          "internalType": "address",
          "name": "newOwner",
          "type": "address"
        }
      ],
      "name": "transferOwnership",
      "outputs": [],
      "stateMutability": "nonpayable",
      "type": "function"
    },
    {
      "inputs": [
        {
          "internalType": "uint256",
          "name": "newQuorumNumerator",
          "type": "uint256"
        }
      ],
      "name": "updateQuorumNumerator",
      "outputs": [],
      "stateMutability": "nonpayable",
      "type": "function"
    },
    {
      "inputs": [
        {
          "internalType": "address",
          "name": "newImplementation",
          "type": "address"
        },
        {
          "internalType": "bytes",
          "name": "data",
          "type": "bytes"
        }
      ],
      "name": "upgradeToAndCall",
      "outputs": [],
      "stateMutability": "payable",
      "type": "function"
    },
    {
      "inputs": [],
      "name": "version",
      "outputs": [
        {
          "internalType": "string",
          "name": "",
          "type": "string"
        }
      ],
      "stateMutability": "pure",
      "type": "function"
    },
    {
      "inputs": [],
      "name": "votingDelay",
      "outputs": [
        {
          "internalType": "uint256",
          "name": "",
          "type": "uint256"
        }
      ],
      "stateMutability": "pure",
      "type": "function"
    },
    {
      "inputs": [],
      "name": "votingPeriod",
      "outputs": [
        {
          "internalType": "uint256",
          "name": "",
          "type": "uint256"
        }
      ],
      "stateMutability": "pure",
      "type": "function"
    },
    {
      "stateMutability": "payable",
      "type": "receive"
    }
  ],
  "bytecode": "0x60a0604052306080523480156200001557600080fd5b506200002062000026565b620000da565b7ff0c57e16840df040f15088dc2f81fe391c3923bec73e23a9662efc9c229c6a00805468010000000000000000900460ff1615620000775760405163f92ee8a960e01b815260040160405180910390fd5b80546001600160401b0390811614620000d75780546001600160401b0319166001600160401b0390811782556040519081527fc7f505b2f371ae2175ee4913f4499e1f2633a7b5936321eed1cdaeb6115181d29060200160405180910390a15b50565b608051614fef62000104600039600081816126e10152818161270a01526128470152614fef6000f3fe6080604052600436106102ef5760003560e01c806384b0196e11610186578063bc197c81116100d7578063ec58278011610085578063ec5827801461099f578063f0a75c63146109bf578063f23a6e61146109df578063f2fde38b14610a0b578063f8486c9714610a2b578063f8ce560a14610a4b578063fc0c546a14610a6b57600080fd5b8063bc197c8114610886578063c01f9e37146108b2578063c28bc2fa146108d2578063c59057e4146108e5578063dd4e2ba514610905578063deaaa7cc1461094b578063eb9019d41461097f57600080fd5b8063a277136e11610134578063a277136e146107bf578063a7713a70146107df578063a9a95294146107f4578063ab58fb8e14610815578063ad3cb1cc14610835578063b58131b0146104aa578063b8f88d641461086657600080fd5b806384b0196e146106e25780638da5cb5b1461070a5780638ff262e31461071f57806391ddadf41461073f57806397c3d3341461076b5780639a34a2bd1461077f5780639a802a6d1461079f57600080fd5b8063452115d6116102405780635b8d0e0d116101ee5780635b8d0e0d146105d85780635f398a14146105f857806360c4247f14610618578063715018a6146106385780637b3c71d31461064d5780637d5e81e21461066d5780637ecebe001461068d57600080fd5b8063452115d61461050b5780634bf5d7e91461052b5780634f1ef2861461054057806352d1902d14610553578063544ffc9c1461056857806354fd4d50146105a357806356781388146105b857600080fd5b8063250dcd4d1161029d578063250dcd4d146104235780632656227d146104435780632d63f693146104565780632fe3e261146104765780633932abb1146104aa5780633e4f49e6146104be57806343859632146104eb57600080fd5b806301ffc9a7146102fd57806302a251a31461033257806306f3f9e61461035057806306fdde0314610370578063143489d014610392578063150b7a02146103bf578063160cbed71461040357600080fd5b366102f857005b005b600080fd5b34801561030957600080fd5b5061031d610318366004613d01565b610a80565b60405190151581526020015b60405180910390f35b34801561033e57600080fd5b5060965b604051908152602001610329565b34801561035c57600080fd5b506102f661036b366004613d2b565b610ad2565b34801561037c57600080fd5b50610385610ae6565b6040516103299190613d94565b34801561039e57600080fd5b506103b26103ad366004613d2b565b610b87565b6040516103299190613da7565b3480156103cb57600080fd5b506103ea6103da366004613e93565b630a85bd0160e11b949350505050565b6040516001600160e01b03199091168152602001610329565b34801561040f57600080fd5b5061034261041e366004614067565b610bb0565b34801561042f57600080fd5b506102f661043e366004613d2b565b610c07565b610342610451366004614067565b610e0f565b34801561046257600080fd5b50610342610471366004613d2b565b610f4b565b34801561048257600080fd5b506103427f3e83946653575f9a39005e1545185629e92736b7528ab20ca3816f315424a81181565b3480156104b657600080fd5b506000610342565b3480156104ca57600080fd5b506104de6104d9366004613d2b565b610f7a565b6040516103299190614120565b3480156104f757600080fd5b5061031d61050636600461412e565b6110ad565b34801561051757600080fd5b50610342610526366004614067565b6110e7565b34801561053757600080fd5b50610385611159565b6102f661054e36600461415e565b611202565b34801561055f57600080fd5b50610342611221565b34801561057457600080fd5b50610588610583366004613d2b565b61123e565b60408051938452602084019290925290820152606001610329565b3480156105af57600080fd5b50610385611271565b3480156105c457600080fd5b506103426105d33660046141be565b61128e565b3480156105e457600080fd5b506103426105f3366004614232565b6112b7565b34801561060457600080fd5b506103426106133660046142ec565b6113ef565b34801561062457600080fd5b50610342610633366004613d2b565b611444565b34801561064457600080fd5b506102f66114dd565b34801561065957600080fd5b5061034261066836600461436f565b6114f1565b34801561067957600080fd5b506103426106883660046143c8565b611539565b34801561069957600080fd5b506103426106a8366004614468565b6001600160a01b031660009081527f5ab42ced628888259c08ac98db1eb0cf702fc1501344311d8b100cd1bfe4bb00602052604090205490565b3480156106ee57600080fd5b506106f76115a9565b60405161032997969594939291906144c1565b34801561071657600080fd5b506103b2611652565b34801561072b57600080fd5b5061034261073a366004614531565b611687565b34801561074b57600080fd5b50610754611732565b60405165ffffffffffff9091168152602001610329565b34801561077757600080fd5b506064610342565b34801561078b57600080fd5b506102f661079a366004613d2b565b611742565b3480156107ab57600080fd5b506103426107ba366004614582565b6118b8565b3480156107cb57600080fd5b506103426107da3660046145da565b6118cf565b3480156107eb57600080fd5b50610342611a98565b34801561080057600080fd5b5061031d61080f366004613d2b565b50600090565b34801561082157600080fd5b50610342610830366004613d2b565b611abd565b34801561084157600080fd5b50610385604051806040016040528060058152602001640352e302e360dc1b81525081565b34801561087257600080fd5b506102f661088136600461461c565b611aec565b34801561089257600080fd5b506103ea6108a1366004614690565b63bc197c8160e01b95945050505050565b3480156108be57600080fd5b506103426108cd366004613d2b565b611c4d565b6102f66108e0366004614723565b611ca1565b3480156108f157600080fd5b50610342610900366004614067565b611d21565b34801561091157600080fd5b506040805180820190915260208082527f737570706f72743d627261766f2671756f72756d3d666f722c6162737461696e90820152610385565b34801561095757600080fd5b506103427ff2aad550cf55f045cb27e9c559f9889fdfb6e6cdaa032301d6ea397784ae51d781565b34801561098b57600080fd5b5061034261099a366004614766565b611d5b565b3480156109ab57600080fd5b506103426109ba366004614792565b611d7c565b3480156109cb57600080fd5b506103426109da3660046147b4565b611efc565b3480156109eb57600080fd5b506103ea6109fa3660046147e4565b63f23a6e6160e01b95945050505050565b348015610a1757600080fd5b506102f6610a26366004614468565b612093565b348015610a3757600080fd5b506102f6610a46366004613d2b565b6120ce565b348015610a5757600080fd5b50610342610a66366004613d2b565b61227f565b348015610a7757600080fd5b506103b261228a565b60006001600160e01b031982166332a2ad4360e11b1480610ab157506001600160e01b03198216630271189760e51b145b80610acc57506301ffc9a760e01b6001600160e01b03198316145b92915050565b610ada6122b3565b610ae3816122f7565b50565b60606000610af2612399565b9050806000018054610b039061484c565b80601f0160208091040260200160405190810160405280929190818152602001828054610b2f9061484c565b8015610b7c5780601f10610b5157610100808354040283529160200191610b7c565b820191906000526020600020905b815481529060010190602001808311610b5f57829003601f168201915b505050505091505090565b600080610b92612399565b6000938452600101602052505060409020546001600160a01b031690565b600080610bbb612399565b90506000610bcb87878787611d21565b9050610be081610bdb60046123bd565b6123e0565b506000604051634844252360e11b815260040160405180910390fd5b509695505050505050565b6000610c1161241f565b600083815260018201602052604090205490915060ff16610c4d5760405162461bcd60e51b8152600401610c4490614886565b60405180910390fd5b60016000838152600183016020526040902054610100900460ff166002811115610c7957610c796140f6565b14610c965760405162461bcd60e51b8152600401610c44906148cd565b604080516001808252818301909252600091602080830190803683375050835482519293506001600160a01b031691839150600090610cd757610cd7614916565b6001600160a01b039290921660209283029190910190910152604080516001808252818301909252600091816020016020820280368337019050509050600081600081518110610d2957610d29614916565b6020908102919091010152604080516001808252818301909252600091816020015b6060815260200190600190039081610d4b579050506000868152600186810160205260409182902080549101549151929350610d9b92620100009091046001600160a01b0316919060240161492c565b60408051601f198184030181529190526020810180516001600160e01b0316633e633c1f60e21b17905281518290600090610dd857610dd8614916565b6020026020010181905250610e078383838760010160008a815260200190815260200160002060020154610e0f565b505050505050565b600080610e1a612399565b90506000610e2a87878787611d21565b9050610e4a81610e3a60056123bd565b610e4460046123bd565b176123e0565b5060008181526001830160205260409020805460ff60f01b1916600160f01b17905530610e743090565b6001600160a01b031614610f005760005b8751811015610efe57306001600160a01b0316888281518110610eaa57610eaa614916565b60200260200101516001600160a01b031603610ef657610ef6868281518110610ed557610ed5614916565b6020026020010151805190602001208460020161244390919063ffffffff16565b600101610e85565b505b610f0d81888888886124b4565b6040518181527f712ae1383f79ac853f8d882153778e0260ef8f03b504e2866e0593e04d2b291f906020015b60405180910390a19695505050505050565b600080610f56612399565b600093845260010160205250506040902054600160a01b900465ffffffffffff1690565b600080610f85612399565b6000848152600182016020526040902080549192509060ff600160f01b8204811691600160f81b9004168115610fc15750600795945050505050565b8015610fd35750600295945050505050565b6000610fde87610f4b565b90508060000361100457604051636ad0607560e01b815260048101889052602401610c44565b600061100e611732565b65ffffffffffff16905080821061102d57506000979650505050505050565b600061103889611c4d565b90508181106110505750600198975050505050505050565b61105989612586565b158061106b5750611069896125ce565b155b1561107f5750600398975050505050505050565b61108889611abd565b60000361109e5750600498975050505050505050565b50600598975050505050505050565b6000806110b86125f3565b6000858152602091825260408082206001600160a01b0387168352600301909252205460ff1691505092915050565b6000806110f686868686611d21565b905061110681610bdb60006123bd565b5061111081610b87565b6001600160a01b0316336001600160a01b031614611143573360405163233d98e360e01b8152600401610c449190613da7565b61114f86868686612617565b9695505050505050565b606061116361228a565b6001600160a01b0316634bf5d7e96040518163ffffffff1660e01b8152600401600060405180830381865afa9250505080156111c157506040513d6000823e601f3d908101601f191682016040526111be9190810190614945565b60015b6111fd575060408051808201909152601d81527f6d6f64653d626c6f636b6e756d6265722666726f6d3d64656661756c74000000602082015290565b919050565b61120a6126d6565b6112138261277b565b61121d8282612783565b5050565b600061122b61283c565b50600080516020614f7a83398151915290565b60008060008061124c6125f3565b6000958652602052505060409092208054600182015460029092015490949193509150565b6040805180820190915260038152620322e360ec1b602082015290565b6000803390506112af84828560405180602001604052806000815250612885565b949350505050565b60008061137c876113767f3e83946653575f9a39005e1545185629e92736b7528ab20ca3816f315424a8118c8c8c6112ee8e6128b1565b8d8d6040516112fe9291906149b2565b60405180910390208c8051906020012060405160200161135b9796959493929190968752602087019590955260ff9390931660408601526001600160a01b03919091166060850152608084015260a083015260c082015260e00190565b604051602081830303815290604052805190602001206128f3565b85612920565b90508061139e57866040516394ab6c0760e01b8152600401610c449190613da7565b6113e289888a89898080601f0160208091040260200160405190810160405280939291908181526020018383808284376000920191909152508b9250612978915050565b9998505050505050505050565b60008033905061143987828888888080601f0160208091040260200160405190810160405280939291908181526020018383808284376000920191909152508a9250612978915050565b979650505050505050565b60008061144f612a55565b80549091506000826114626001846149d8565b8154811061147257611472614916565b6000918252602090912001805490915065ffffffffffff811690600160301b90046001600160d01b03168682116114b6576001600160d01b03169695505050505050565b6114c96114c288612a79565b8690612ab0565b6001600160d01b0316979650505050505050565b6114e5612b65565b6114ef6000612b97565b565b60008033905061114f86828787878080601f01602080910402602001604051908101604052809392919081815260200183838082843760009201919091525061288592505050565b6000336115468184612c08565b611565578060405163d9b3955760e01b8152600401610c449190613da7565b600061158c826001611575611732565b61157f91906149eb565b65ffffffffffff16611d5b565b9050600061159d8888888887612cf3565b98975050505050505050565b60006060806000806000606060006115bf612f07565b80549091501580156115d357506001810154155b6116175760405162461bcd60e51b81526020600482015260156024820152741152540dcc4c8e88155b9a5b9a5d1a585b1a5e9959605a1b6044820152606401610c44565b61161f612f2b565b611627612f48565b60408051600080825260208201909252600f60f81b9c939b5091995046985030975095509350915050565b6000807f9016d09d72d40fdae2fd8ceac6b6234c7706214fd39c1cd1e609a0528c1993005b546001600160a01b031692915050565b6000806116f5846113767ff2aad550cf55f045cb27e9c559f9889fdfb6e6cdaa032301d6ea397784ae51d78989896116be8b6128b1565b60408051602081019690965285019390935260ff90911660608401526001600160a01b0316608083015260a082015260c00161135b565b90508061171757836040516394ab6c0760e01b8152600401610c449190613da7565b61114f86858760405180602001604052806000815250612885565b600061173d43612a79565b905090565b600061174c61241f565b600083815260018201602052604090205490915060ff1661177f5760405162461bcd60e51b8152600401610c4490614886565b600080838152600183016020526040902054610100900460ff1660028111156117aa576117aa6140f6565b146117c75760405162461bcd60e51b8152600401610c44906148cd565b60408051600180825281830190925260009160208083019080368337505060408051600180825281830190925292935060009291506020808301908036833750506040805160018082528183019092529293506000929150602082015b606081526020019060019003908161182457905050905060008360008151811061185057611850614916565b60200260200101906001600160a01b031690816001600160a01b03168152505060008260008151811061188557611885614916565b602090810291909101810191909152604080516000808252928101909152905081600081518110610dd857610dd8614916565b60006118c5848484612f65565b90505b9392505050565b6000806118da61241f565b60408051600180825281830190925291925060009190602080830190803683375050835482519293506001600160a01b03169183915060009061191f5761191f614916565b6001600160a01b03929092166020928302919091019091015260408051600180825281830190925260009181602001602082028036833701905050905060008160008151811061197157611971614916565b6020908102919091010152604080516001808252818301909252600091816020015b606081526020019060019003908161199357905050905086886040516024016119bd92919061492c565b60408051601f198184030181529190526020810180516001600160e01b0316633e633c1f60e21b179052815182906000906119fa576119fa614916565b6020026020010181905250611a1183838389611539565b60008181526001868101602090815260409283902080546001600160a01b038d1662010000026001600160b01b0319909116176101011781558083018d90558a51918b01919091206002909101559051919650600080516020614f9a83398151915291611a8591889133908c908e90614a21565b60405180910390a1505050509392505050565b600080611aa3612a55565b9050611aae81612fdd565b6001600160d01b031691505090565b600080611ac8612399565b6000938452600190810160205260409093209092015465ffffffffffff1692915050565b7ff0c57e16840df040f15088dc2f81fe391c3923bec73e23a9662efc9c229c6a008054600160401b810460ff1615906001600160401b0316600081158015611b315750825b90506000826001600160401b03166001148015611b4d5750303b155b905081158015611b5b575080155b15611b795760405163f92ee8a960e01b815260040160405180910390fd5b845467ffffffffffffffff191660011785558315611ba357845460ff60401b1916600160401b1785555b611bac88613016565b611bb4613038565b611bbd89613040565b611bc76001613051565b611bd087613062565b611bd8613038565b6000611be261241f565b80546001600160a01b0319166001600160a01b038916179055508315611c4257845460ff60401b19168555604051600181527fc7f505b2f371ae2175ee4913f4499e1f2633a7b5936321eed1cdaeb6115181d29060200160405180910390a15b505050505050505050565b600080611c58612399565b6000848152600182016020526040902054909150611c9290600160d01b810463ffffffff1690600160a01b900465ffffffffffff16614a5d565b65ffffffffffff169392505050565b611ca96122b3565b600080856001600160a01b0316858585604051611cc79291906149b2565b60006040518083038185875af1925050503d8060008114611d04576040519150601f19603f3d011682016040523d82523d6000602084013e611d09565b606091505b5091509150611d188282613073565b50505050505050565b600084848484604051602001611d3a9493929190614b10565b60408051601f19818403018152919052805160209091012095945050505050565b60006118c88383611d7760408051602081019091526000815290565b612f65565b600080611d8761241f565b6040805160018082528183019092529192506000919060208083019080368337505060408051600180825281830190925292935060009291506020808301908036833750506040805160018082528183019092529293506000929150602082015b6060815260200190600190039081611de8579050509050600083600081518110611e1457611e14614916565b60200260200101906001600160a01b031690816001600160a01b031681525050600082600081518110611e4957611e49614916565b602090810291909101810191909152604080516000808252928101909152905081600081518110611e7c57611e7c614916565b6020026020010181905250611e9383838389611539565b6000818152600186810160209081526040808420805461ffff191690931783558a51918b019190912060029092019190915551919650600080516020614f9a83398151915291611eea918891339082908190614a21565b60405180910390a15050505092915050565b600080611f0761241f565b60408051600180825281830190925291925060009190602080830190803683375050835482519293506001600160a01b031691839150600090611f4c57611f4c614916565b6001600160a01b039290921660209283029190910190910152604080516001808252818301909252600091816020016020820280368337019050509050600081600081518110611f9e57611f9e614916565b6020908102919091010152604080516001808252818301909252600091816020015b6060815260200190600190039081611fc05750506040516024810189905290915060440160408051601f198184030181529190526020810180516001600160e01b0316638c4a381560e01b1790528151829060009061202157612021614916565b602002602001018190525061203883838389611539565b6000818152600186810160209081526040808420805461ffff19166102011781559283018c90558a51918b019190912060029283015551929750600080516020614f9a83398151915292611eea928992913391908d90614a21565b61209b612b65565b6001600160a01b0381166120c5576000604051631e4fbdf760e01b8152600401610c449190613da7565b610ae381612b97565b60006120d861241f565b600083815260018201602052604090205490915060ff1661210b5760405162461bcd60e51b8152600401610c4490614886565b60026000838152600183016020526040902054610100900460ff166002811115612137576121376140f6565b146121545760405162461bcd60e51b8152600401610c44906148cd565b604080516001808252818301909252600091602080830190803683375050835482519293506001600160a01b03169183915060009061219557612195614916565b6001600160a01b0392909216602092830291909101909101526040805160018082528183019092526000918160200160208202803683370190505090506000816000815181106121e7576121e7614916565b6020908102919091010152604080516001808252818301909252600091816020015b60608152602001906001900390816122095750506000868152600186810160205260409182902001549051602481019190915290915060440160408051601f198184030181529190526020810180516001600160e01b0316638c4a381560e01b17905281518290600090610dd857610dd8614916565b6000610acc8261308f565b6000807f3ba4977254e415696610a40ebf2258dbfa0ec6a2ff64e84bfe715ff16977cc00611677565b60006122bd612399565b9050303314610ae357336040516347096e4760e01b8152600401610c449190613da7565b806122ee83600201613126565b036122e1575050565b6000612301612a55565b90506064808311156123305760405163243e544560e01b81526004810184905260248101829052604401610c44565b600061233a611a98565b9050612358612347611732565b6123508661319b565b8591906131cf565b505060408051828152602081018690527f0553476bf02ef2726e8ce5ced78d63e26e602e4a2257b1f559418e24b4633997910160405180910390a150505050565b7f7c712897014dbe49c045ef1299aa2d5f9e67e48eea4403efa21f1e0f3ac0cb0090565b60008160078111156123d1576123d16140f6565b600160ff919091161b92915050565b6000806123ec84610f7a565b90506000836123fa836123bd565b16036118c8578381846040516331b75e4d60e01b8152600401610c4493929190614b5b565b7f72a4ccd47996c0aa9e54efd606e03b13bee57794bd0974b6dda8fcd457f3770090565b81546001600160801b03600160801b82048116918116600183019091160361247e57604051638acb5f2760e01b815260040160405180910390fd5b6001600160801b03808216600090815260018086016020526040909120939093558354919092018216600160801b029116179055565b60005b8451811015610e07576000808683815181106124d5576124d5614916565b60200260200101516001600160a01b03168684815181106124f8576124f8614916565b602002602001015186858151811061251257612512614916565b60200260200101516040516125279190614b7d565b60006040518083038185875af1925050503d8060008114612564576040519150601f19603f3d011682016040523d82523d6000602084013e612569565b606091505b50915091506125788282613073565b5050508060010190506124b7565b6000806125916125f3565b60008481526020829052604090206002810154600182015492935090916125b89190614b99565b6125c4610a6686610f4b565b1115949350505050565b6000806125d96125f3565b600093845260205250506040902080546001909101541190565b7fa1cefa0f43667ef127a258e673c94202a79b656e62899531c4376d87a7f3980090565b600080612622612399565b9050600061263287878787611d21565b90506126808161264260076123bd565b61264c60066123bd565b61265660026123bd565b6001612663600782614bac565b61266e906002614ca9565b61267891906149d8565b1818186123e0565b5060008181526001830160205260409081902080546001600160f81b0316600160f81b179055517f789cf55be980739dad1d0699b93b58e806b51c9d96619bfa8fe0a28abaa7b30c90610f399083815260200190565b306001600160a01b037f000000000000000000000000000000000000000000000000000000000000000016148061275d57507f00000000000000000000000000000000000000000000000000000000000000006001600160a01b0316612751600080516020614f7a833981519152546001600160a01b031690565b6001600160a01b031614155b156114ef5760405163703e46dd60e11b815260040160405180910390fd5b610ae3612b65565b816001600160a01b03166352d1902d6040518163ffffffff1660e01b8152600401602060405180830381865afa9250505080156127dd575060408051601f3d908101601f191682019092526127da91810190614cb8565b60015b6127fc5781604051634c9c8ce360e01b8152600401610c449190613da7565b600080516020614f7a833981519152811461282d57604051632a87526960e21b815260048101829052602401610c44565b61283783836131ea565b505050565b306001600160a01b037f000000000000000000000000000000000000000000000000000000000000000016146114ef5760405163703e46dd60e11b815260040160405180910390fd5b60006128a8858585856128a360408051602081019091526000815290565b612978565b95945050505050565b6001600160a01b031660009081527f5ab42ced628888259c08ac98db1eb0cf702fc1501344311d8b100cd1bfe4bb006020526040902080546001810190915590565b6000610acc612900613240565b8360405161190160f01b8152600281019290925260228201526042902090565b600080600061292f858561324a565b5090925090506000816003811115612949576129496140f6565b1480156129675750856001600160a01b0316826001600160a01b0316145b8061114f575061114f868686613297565b600061298886610bdb60016123bd565b50600061299e8661299889610f4b565b85612f65565b90506129ad8787878487613372565b8251600003612a0257856001600160a01b03167fb8e138887d0aa13bab447e82de9d5c1777041ecd21ca36ba824ff1e6c07ddda4888784886040516129f59493929190614cd1565b60405180910390a261114f565b856001600160a01b03167fe2babfbac5889a709b63bb7f598b324e08bc5a4fb9ec647fb3cbc9ec07eb87128887848888604051612a43959493929190614cf9565b60405180910390a29695505050505050565b7fe770710421fd2cad75ad828c61aa98f2d77d423a440b67872d0f65554148e00090565b600065ffffffffffff821115612aac576040516306dfcc6560e41b81526030600482015260248101839052604401610c44565b5090565b815460009081816005811115612b0f576000612acb8461346e565b612ad590856149d8565b60008881526020902090915081015465ffffffffffff9081169087161015612aff57809150612b0d565b612b0a816001614b99565b92505b505b6000612b1d87878585613556565b90508015612b5857612b4287612b346001846149d8565b600091825260209091200190565b54600160301b90046001600160d01b0316611439565b6000979650505050505050565b33612b6e611652565b6001600160a01b0316146114ef573360405163118cdaa760e01b8152600401610c449190613da7565b7f9016d09d72d40fdae2fd8ceac6b6234c7706214fd39c1cd1e609a0528c19930080546001600160a01b031981166001600160a01b03848116918217845560405192169182907f8be0079c531659141344cd1fd0a4f28419497f9722a3daafe3b4186f6b6457e090600090a3505050565b80516000906034811015612c20576001915050610acc565b82810160131901516001600160a01b031981166b046e0e4dee0dee6cae47a60f60a31b14612c5357600192505050610acc565b600080612c616028856149d8565b90505b83811015612cd257600080612c98888481518110612c8457612c84614916565b01602001516001600160f81b0319166135b8565b9150915081612cb05760019650505050505050610acc565b8060ff166004856001600160a01b0316901b1793505050806001019050612c64565b50856001600160a01b0316816001600160a01b031614935050505092915050565b600080612cfe612399565b9050612d138787878780519060200120611d21565b915085518751141580612d2857508451875114155b80612d3257508651155b15612d6757865185518751604051630447b05d60e41b8152600481019390935260248301919091526044820152606401610c44565b6000828152600182016020526040902054600160a01b900465ffffffffffff1615612db45781612d9683610f7a565b6040516331b75e4d60e01b8152610c44929190600090600401614b5b565b600080612dbf611732565b65ffffffffffff16612dd19190614b99565b9050600060966000858152600185016020526040902080546001600160a01b0319166001600160a01b038816178155909150612e0c83612a79565b815465ffffffffffff91909116600160a01b0265ffffffffffff60a01b19909116178155612e398261364a565b815463ffffffff91909116600160d01b0263ffffffff60d01b1990911617815589517f7d84a6263ae0d98d3329bd7b46bb4e8d6f98cd35a7adb45c274c8b7fd5ebd5e090869088908d908d906001600160401b03811115612e9c57612e9c613dd0565b604051908082528060200260200182016040528015612ecf57816020015b6060815260200190600190039081612eba5790505b508d89612edc8a82614b99565b8f604051612ef299989796959493929190614d33565b60405180910390a15050505095945050505050565b7fa16a46d94261c7517cc8ff89f61c0ce93598e3c849801011dee649a6a557d10090565b60606000612f37612f07565b9050806002018054610b039061484c565b60606000612f54612f07565b9050806003018054610b039061484c565b6000612f6f61228a565b6001600160a01b0316633a46b1a885856040518363ffffffff1660e01b8152600401612f9c92919061492c565b602060405180830381865afa158015612fb9573d6000803e3d6000fd5b505050506040513d601f19601f820116820180604052508101906118c59190614cb8565b8054600090801561300d57612ff783612b346001846149d8565b54600160301b90046001600160d01b03166118c8565b60009392505050565b61301e61367b565b61302f8161302a611271565b6136c4565b610ae381613705565b6114ef61367b565b61304861367b565b610ae381613724565b61305961367b565b610ae38161376d565b61306a61367b565b610ae381613775565b606082613088576130838261377d565b610acc565b5080610acc565b6000606461309c83611444565b6130a461228a565b6001600160a01b0316638e539e8c856040518263ffffffff1660e01b81526004016130d191815260200190565b602060405180830381865afa1580156130ee573d6000803e3d6000fd5b505050506040513d601f19601f820116820180604052508101906131129190614cb8565b61311c9190614e0a565b610acc9190614e37565b80546000906001600160801b0380821691600160801b900416810361315e576040516375e52f4f60e01b815260040160405180910390fd5b6001600160801b038181166000908152600185810160205260408220805492905585546001600160801b0319169301909116919091179092555090565b60006001600160d01b03821115612aac576040516306dfcc6560e41b815260d0600482015260248101839052604401610c44565b6000806131dd8585856137a6565b915091505b935093915050565b6131f382613920565b6040516001600160a01b038316907fbc7cd75a20ee27fd9adebab32041f755214dbc6bffa90cc0225b39da2e5c2d3b90600090a280511561323857612837828261397c565b61121d6139e9565b600061173d613a08565b600080600083516041036132845760208401516040850151606086015160001a61327688828585613a7c565b955095509550505050613290565b50508151600091506002905b9250925092565b6000806000856001600160a01b031685856040516024016132b9929190614e59565b60408051601f198184030181529181526020820180516001600160e01b0316630b135d3f60e11b179052516132ee9190614b7d565b600060405180830381855afa9150503d8060008114613329576040519150601f19603f3d011682016040523d82523d6000602084013e61332e565b606091505b509150915081801561334257506020815110155b801561114f57508051630b135d3f60e11b906133679083016020908101908401614cb8565b149695505050505050565b600061337c6125f3565b6000878152602082815260408083206001600160a01b038a16845260038101909252909120549192509060ff16156133c957856040516371c6af4960e01b8152600401610c449190613da7565b6001600160a01b03861660009081526003820160205260409020805460ff1916600117905560ff8516613415578381600001600082825461340a9190614b99565b90915550611d189050565b60001960ff861601613435578381600101600082825461340a9190614b99565b60011960ff861601613455578381600201600082825461340a9190614b99565b6040516303599be160e11b815260040160405180910390fd5b60008160000361348057506000919050565b6000600161348d84613b41565b901c6001901b905060018184816134a6576134a6614e21565b048201901c905060018184816134be576134be614e21565b048201901c905060018184816134d6576134d6614e21565b048201901c905060018184816134ee576134ee614e21565b048201901c9050600181848161350657613506614e21565b048201901c9050600181848161351e5761351e614e21565b048201901c9050600181848161353657613536614e21565b048201901c90506118c88182858161355057613550614e21565b04613bd5565b60005b818310156135b057600061356d8484613beb565b60008781526020902090915065ffffffffffff86169082015465ffffffffffff16111561359c578092506135aa565b6135a7816001614b99565b93505b50613559565b509392505050565b60008060f883901c602f811180156135d35750603a8160ff16105b156135e857600194602f199091019350915050565b8060ff1660401080156135fe575060478160ff16105b15613613576001946036199091019350915050565b8060ff166060108015613629575060678160ff16105b1561363e576001946056199091019350915050565b50600093849350915050565b600063ffffffff821115612aac576040516306dfcc6560e41b81526020600482015260248101839052604401610c44565b7ff0c57e16840df040f15088dc2f81fe391c3923bec73e23a9662efc9c229c6a0054600160401b900460ff166114ef57604051631afcd79f60e31b815260040160405180910390fd5b6136cc61367b565b60006136d6612f07565b9050600281016136e68482614eba565b50600381016136f58382614eba565b5060008082556001909101555050565b61370d61367b565b6000613717612399565b9050806128378382614eba565b61372c61367b565b7f3ba4977254e415696610a40ebf2258dbfa0ec6a2ff64e84bfe715ff16977cc0080546001600160a01b0319166001600160a01b0392909216919091179055565b610ada61367b565b61209b61367b565b80511561378d5780518082602001fd5b604051630a12f52160e11b815260040160405180910390fd5b8254600090819080156138c55760006137c487612b346001856149d8565b60408051808201909152905465ffffffffffff808216808452600160301b9092046001600160d01b03166020840152919250908716101561381857604051632520601d60e01b815260040160405180910390fd5b805165ffffffffffff808816911603613864578461383b88612b346001866149d8565b80546001600160d01b0392909216600160301b0265ffffffffffff9092169190911790556138b5565b6040805180820190915265ffffffffffff80881682526001600160d01b0380881660208085019182528b54600181018d5560008d81529190912094519151909216600160301b029216919091179101555b6020015192508391506131e29050565b50506040805180820190915265ffffffffffff80851682526001600160d01b0380851660208085019182528854600181018a5560008a815291822095519251909316600160301b0291909316179201919091559050816131e2565b806001600160a01b03163b60000361394d5780604051634c9c8ce360e01b8152600401610c449190613da7565b600080516020614f7a83398151915280546001600160a01b0319166001600160a01b0392909216919091179055565b6060600080846001600160a01b0316846040516139999190614b7d565b600060405180830381855af49150503d80600081146139d4576040519150601f19603f3d011682016040523d82523d6000602084013e6139d9565b606091505b50915091506128a8858383613c06565b34156114ef5760405163b398979f60e01b815260040160405180910390fd5b60007f8b73c3c69bb8fe3d512ecc4cf759cc79239f7b179b0ffacaa9a75d522b39400f613a33613c59565b613a3b613cc0565b60408051602081019490945283019190915260608201524660808201523060a082015260c00160405160208183030381529060405280519060200120905090565b600080806fa2a8918ca85bafe22016d0b997e4df60600160ff1b03841115613aad5750600091506003905082613b37565b604080516000808252602082018084528a905260ff891692820192909252606081018790526080810186905260019060a0016020604051602081039080840390855afa158015613b01573d6000803e3d6000fd5b5050604051601f1901519150506001600160a01b038116613b2d57506000925060019150829050613b37565b9250600091508190505b9450945094915050565b600080608083901c15613b5657608092831c92015b604083901c15613b6857604092831c92015b602083901c15613b7a57602092831c92015b601083901c15613b8c57601092831c92015b600883901c15613b9e57600892831c92015b600483901c15613bb057600492831c92015b600283901c15613bc257600292831c92015b600183901c15610acc5760010192915050565b6000818310613be457816118c8565b5090919050565b6000613bfa6002848418614e37565b6118c890848416614b99565b606082613c1b57613c168261377d565b6118c8565b8151158015613c3257506001600160a01b0384163b155b15613c525783604051639996b31560e01b8152600401610c449190613da7565b50806118c8565b600080613c64612f07565b90506000613c70612f2b565b805190915015613c8857805160209091012092915050565b81548015613c97579392505050565b7fc5d2460186f7233c927e7db2dcc703c0e500b653ca82273b7bfad8045d85a470935050505090565b600080613ccb612f07565b90506000613cd7612f48565b805190915015613cef57805160209091012092915050565b60018201548015613c97579392505050565b600060208284031215613d1357600080fd5b81356001600160e01b0319811681146118c857600080fd5b600060208284031215613d3d57600080fd5b5035919050565b60005b83811015613d5f578181015183820152602001613d47565b50506000910152565b60008151808452613d80816020860160208601613d44565b601f01601f19169290920160200192915050565b6020815260006118c86020830184613d68565b6001600160a01b0391909116815260200190565b6001600160a01b0381168114610ae357600080fd5b634e487b7160e01b600052604160045260246000fd5b604051601f8201601f191681016001600160401b0381118282101715613e0e57613e0e613dd0565b604052919050565b60006001600160401b03821115613e2f57613e2f613dd0565b50601f01601f191660200190565b600082601f830112613e4e57600080fd5b8135613e61613e5c82613e16565b613de6565b818152846020838601011115613e7657600080fd5b816020850160208301376000918101602001919091529392505050565b60008060008060808587031215613ea957600080fd5b8435613eb481613dbb565b93506020850135613ec481613dbb565b92506040850135915060608501356001600160401b03811115613ee657600080fd5b613ef287828801613e3d565b91505092959194509250565b60006001600160401b03821115613f1757613f17613dd0565b5060051b60200190565b600082601f830112613f3257600080fd5b81356020613f42613e5c83613efe565b8083825260208201915060208460051b870101935086841115613f6457600080fd5b602086015b84811015610bfc578035613f7c81613dbb565b8352918301918301613f69565b600082601f830112613f9a57600080fd5b81356020613faa613e5c83613efe565b8083825260208201915060208460051b870101935086841115613fcc57600080fd5b602086015b84811015610bfc5780358352918301918301613fd1565b600082601f830112613ff957600080fd5b81356020614009613e5c83613efe565b82815260059290921b8401810191818101908684111561402857600080fd5b8286015b84811015610bfc5780356001600160401b0381111561404b5760008081fd5b6140598986838b0101613e3d565b84525091830191830161402c565b6000806000806080858703121561407d57600080fd5b84356001600160401b038082111561409457600080fd5b6140a088838901613f21565b955060208701359150808211156140b657600080fd5b6140c288838901613f89565b945060408701359150808211156140d857600080fd5b506140e587828801613fe8565b949793965093946060013593505050565b634e487b7160e01b600052602160045260246000fd5b6008811061411c5761411c6140f6565b9052565b60208101610acc828461410c565b6000806040838503121561414157600080fd5b82359150602083013561415381613dbb565b809150509250929050565b6000806040838503121561417157600080fd5b823561417c81613dbb565b915060208301356001600160401b0381111561419757600080fd5b6141a385828601613e3d565b9150509250929050565b803560ff811681146111fd57600080fd5b600080604083850312156141d157600080fd5b823591506141e1602084016141ad565b90509250929050565b60008083601f8401126141fc57600080fd5b5081356001600160401b0381111561421357600080fd5b60208301915083602082850101111561422b57600080fd5b9250929050565b600080600080600080600060c0888a03121561424d57600080fd5b8735965061425d602089016141ad565b9550604088013561426d81613dbb565b945060608801356001600160401b038082111561428957600080fd5b6142958b838c016141ea565b909650945060808a01359150808211156142ae57600080fd5b6142ba8b838c01613e3d565b935060a08a01359150808211156142d057600080fd5b506142dd8a828b01613e3d565b91505092959891949750929550565b60008060008060006080868803121561430457600080fd5b85359450614314602087016141ad565b935060408601356001600160401b038082111561433057600080fd5b61433c89838a016141ea565b9095509350606088013591508082111561435557600080fd5b5061436288828901613e3d565b9150509295509295909350565b6000806000806060858703121561438557600080fd5b84359350614395602086016141ad565b925060408501356001600160401b038111156143b057600080fd5b6143bc878288016141ea565b95989497509550505050565b600080600080608085870312156143de57600080fd5b84356001600160401b03808211156143f557600080fd5b61440188838901613f21565b9550602087013591508082111561441757600080fd5b61442388838901613f89565b9450604087013591508082111561443957600080fd5b61444588838901613fe8565b9350606087013591508082111561445b57600080fd5b50613ef287828801613e3d565b60006020828403121561447a57600080fd5b81356118c881613dbb565b60008151808452602080850194506020840160005b838110156144b65781518752958201959082019060010161449a565b509495945050505050565b60ff60f81b8816815260e0602082015260006144e060e0830189613d68565b82810360408401526144f28189613d68565b606084018890526001600160a01b038716608085015260a0840186905283810360c085015290506145238185614485565b9a9950505050505050505050565b6000806000806080858703121561454757600080fd5b84359350614557602086016141ad565b9250604085013561456781613dbb565b915060608501356001600160401b03811115613ee657600080fd5b60008060006060848603121561459757600080fd5b83356145a281613dbb565b92506020840135915060408401356001600160401b038111156145c457600080fd5b6145d086828701613e3d565b9150509250925092565b6000806000606084860312156145ef57600080fd5b83359250602084013561460181613dbb565b915060408401356001600160401b038111156145c457600080fd5b6000806000806080858703121561463257600080fd5b843561463d81613dbb565b935060208501356001600160401b0381111561465857600080fd5b61466487828801613e3d565b935050604085013561467581613dbb565b9150606085013561468581613dbb565b939692955090935050565b600080600080600060a086880312156146a857600080fd5b85356146b381613dbb565b945060208601356146c381613dbb565b935060408601356001600160401b03808211156146df57600080fd5b6146eb89838a01613f89565b9450606088013591508082111561470157600080fd5b61470d89838a01613f89565b9350608088013591508082111561435557600080fd5b6000806000806060858703121561473957600080fd5b843561474481613dbb565b93506020850135925060408501356001600160401b038111156143b057600080fd5b6000806040838503121561477957600080fd5b823561478481613dbb565b946020939093013593505050565b600080604083850312156147a557600080fd5b82356001811061417c57600080fd5b600080604083850312156147c757600080fd5b8235915060208301356001600160401b0381111561419757600080fd5b600080600080600060a086880312156147fc57600080fd5b853561480781613dbb565b9450602086013561481781613dbb565b9350604086013592506060860135915060808601356001600160401b0381111561484057600080fd5b61436288828901613e3d565b600181811c9082168061486057607f821691505b60208210810361488057634e487b7160e01b600052602260045260246000fd5b50919050565b60208082526027908201527f4275696c64696e67476f7665726e616e63653a20696e76616c69642070726f706040820152661bdcd85b08125160ca1b606082015260800190565b60208082526029908201527f4275696c64696e67476f7665726e616e63653a20696e76616c69642070726f706040820152686f73616c207479706560b81b606082015260800190565b634e487b7160e01b600052603260045260246000fd5b6001600160a01b03929092168252602082015260400190565b60006020828403121561495757600080fd5b81516001600160401b0381111561496d57600080fd5b8201601f8101841361497e57600080fd5b805161498c613e5c82613e16565b8181528560208385010111156149a157600080fd5b6128a8826020830160208601613d44565b8183823760009101908152919050565b634e487b7160e01b600052601160045260246000fd5b81810381811115610acc57610acc6149c2565b65ffffffffffff828116828216039080821115614a0a57614a0a6149c2565b5092915050565b6003811061411c5761411c6140f6565b85815260a08101614a356020830187614a11565b6001600160a01b03948516604083015292909316606084015260809092019190915292915050565b65ffffffffffff818116838216019080821115614a0a57614a0a6149c2565b60008151808452602080850194506020840160005b838110156144b65781516001600160a01b031687529582019590820190600101614a91565b60008282518085526020808601955060208260051b8401016020860160005b84811015614b0357601f19868403018952614af1838351613d68565b98840198925090830190600101614ad5565b5090979650505050505050565b608081526000614b236080830187614a7c565b8281036020840152614b358187614485565b90508281036040840152614b498186614ab6565b91505082606083015295945050505050565b83815260608101614b6f602083018561410c565b826040830152949350505050565b60008251614b8f818460208701613d44565b9190910192915050565b80820180821115610acc57610acc6149c2565b60ff8181168382160190811115610acc57610acc6149c2565b600181815b80851115614c00578160001904821115614be657614be66149c2565b80851615614bf357918102915b93841c9390800290614bca565b509250929050565b600082614c1757506001610acc565b81614c2457506000610acc565b8160018114614c3a5760028114614c4457614c60565b6001915050610acc565b60ff841115614c5557614c556149c2565b50506001821b610acc565b5060208310610133831016604e8410600b8410161715614c83575081810a610acc565b614c8d8383614bc5565b8060001904821115614ca157614ca16149c2565b029392505050565b60006118c860ff841683614c08565b600060208284031215614cca57600080fd5b5051919050565b84815260ff8416602082015282604082015260806060820152600061114f6080830184613d68565b85815260ff8516602082015283604082015260a060608201526000614d2160a0830185613d68565b828103608084015261159d8185613d68565b60006101208b8352602060018060a01b038c1681850152816040850152614d5c8285018c614a7c565b91508382036060850152614d70828b614485565b915083820360808501528189518084528284019150828160051b850101838c0160005b83811015614dc157601f19878403018552614daf838351613d68565b94860194925090850190600101614d93565b505086810360a0880152614dd5818c614ab6565b9450505050508560c08401528460e0840152828103610100840152614dfa8185613d68565b9c9b505050505050505050505050565b8082028115828204841417610acc57610acc6149c2565b634e487b7160e01b600052601260045260246000fd5b600082614e5457634e487b7160e01b600052601260045260246000fd5b500490565b8281526040602082015260006118c56040830184613d68565b601f821115612837576000816000526020600020601f850160051c81016020861015614e9b5750805b601f850160051c820191505b81811015610e0757828155600101614ea7565b81516001600160401b03811115614ed357614ed3613dd0565b614ee781614ee1845461484c565b84614e72565b602080601f831160018114614f1c5760008415614f045750858301515b600019600386901b1c1916600185901b178555610e07565b600085815260208120601f198616915b82811015614f4b57888601518255948401946001909101908401614f2c565b5085821015614f695787850151600019600388901b60f8161c191681555b5050505050600190811b0190555056fe360894a13ba1a3210667c828492db98dca3e2076cc3735a920a3ca505d382bbca10c63e075db64b7ba9307d5a86ed168b50b42d1f4228392e575c41b030d180aa264697066735822122052b4985e9c6c4473b2073ab94b205630238ea20c81f4ab1437101016f67154c464736f6c63430008180033",
  "linkReferences": {},
  "deployedLinkReferences": {}
}