{
  "_format": "hh-sol-artifact-1",
  "contractName": "ClaimTopicsRegistry",
  "sourceName": "contracts/erc3643/registry/implementation/ClaimTopicsRegistry.sol",
  "abi": [
    {
      "inputs": [],
      "name": "InvalidInitialization",
      "type": "error"
    },
    {
      "inputs": [],
      "name": "NotInitializing",
      "type": "error"
    },
    {
      "inputs": [
        {
          "internalType": "address",
          "name": "owner",
          "type": "address"
        }
      ],
      "name": "OwnableInvalidOwner",
      "type": "error"
    },
    {
      "inputs": [
        {
          "internalType": "address",
          "name": "account",
          "type": "address"
        }
      ],
      "name": "OwnableUnauthorizedAccount",
      "type": "error"
    },
    {
      "anonymous": false,
      "inputs": [
        {
          "indexed": true,
          "internalType": "uint256",
          "name": "claimTopic",
          "type": "uint256"
        }
      ],
      "name": "ClaimTopicAdded",
      "type": "event"
    },
    {
      "anonymous": false,
      "inputs": [
        {
          "indexed": true,
          "internalType": "uint256",
          "name": "claimTopic",
          "type": "uint256"
        }
      ],
      "name": "ClaimTopicRemoved",
      "type": "event"
    },
    {
      "anonymous": false,
      "inputs": [
        {
          "indexed": false,
          "internalType": "uint64",
          "name": "version",
          "type": "uint64"
        }
      ],
      "name": "Initialized",
      "type": "event"
    },
    {
      "anonymous": false,
      "inputs": [
        {
          "indexed": true,
          "internalType": "address",
          "name": "previousOwner",
          "type": "address"
        },
        {
          "indexed": true,
          "internalType": "address",
          "name": "newOwner",
          "type": "address"
        }
      ],
      "name": "OwnershipTransferred",
      "type": "event"
    },
    {
      "inputs": [
        {
          "internalType": "uint256",
          "name": "_claimTopic",
          "type": "uint256"
        }
      ],
      "name": "addClaimTopic",
      "outputs": [],
      "stateMutability": "nonpayable",
      "type": "function"
    },
    {
      "inputs": [],
      "name": "getClaimTopics",
      "outputs": [
        {
          "internalType": "uint256[]",
          "name": "",
          "type": "uint256[]"
        }
      ],
      "stateMutability": "view",
      "type": "function"
    },
    {
      "inputs": [],
      "name": "init",
      "outputs": [],
      "stateMutability": "nonpayable",
      "type": "function"
    },
    {
      "inputs": [],
      "name": "owner",
      "outputs": [
        {
          "internalType": "address",
          "name": "",
          "type": "address"
        }
      ],
      "stateMutability": "view",
      "type": "function"
    },
    {
      "inputs": [
        {
          "internalType": "uint256",
          "name": "_claimTopic",
          "type": "uint256"
        }
      ],
      "name": "removeClaimTopic",
      "outputs": [],
      "stateMutability": "nonpayable",
      "type": "function"
    },
    {
      "inputs": [],
      "name": "renounceOwnership",
      "outputs": [],
      "stateMutability": "nonpayable",
      "type": "function"
    },
    {
      "inputs": [
        {
          "internalType": "address",
          "name": "newOwner",
          "type": "address"
        }
      ],
      "name": "transferOwnership",
      "outputs": [],
      "stateMutability": "nonpayable",
      "type": "function"
    }
  ],
  "bytecode": "0x608060405234801561001057600080fd5b50610734806100206000396000f3fe608060405234801561001057600080fd5b506004361061006d5760003560e01c80630829784614610072578063715018a6146100875780638da5cb5b1461008f578063c7b22551146100ad578063df09d604146100c0578063e1c7392a146100d5578063f2fde38b146100dd575b600080fd5b61008561008036600461060a565b6100f0565b005b6100856101d9565b6100976101ed565b6040516100a49190610623565b60405180910390f35b6100856100bb36600461060a565b61021b565b6100c8610360565b6040516100a49190610637565b6100856103b8565b6100856100eb36600461067b565b6104c7565b6100f8610505565b60008054905b818110156101d457826000828154811061011a5761011a6106ab565b9060005260206000200154036101cc5760006101376001846106c1565b81548110610147576101476106ab565b906000526020600020015460008281548110610165576101656106ab565b90600052602060002001819055506000805480610184576101846106e8565b60019003818190600052602060002001600090559055827f0b1381093c776453c1bbe54fd68be1b235c65db61d099cb50d194b2991e0eec560405160405180910390a2505050565b6001016100fe565b505050565b6101e1610505565b6101eb6000610537565b565b7f9016d09d72d40fdae2fd8ceac6b6234c7706214fd39c1cd1e609a0528c199300546001600160a01b031690565b610223610505565b600054600f81106102865760405162461bcd60e51b815260206004820152602260248201527f63616e6e6f742072657175697265206d6f7265207468616e20313520746f7069604482015261637360f01b60648201526084015b60405180910390fd5b60005b818110156103015782600082815481106102a5576102a56106ab565b9060005260206000200154036102f95760405162461bcd60e51b8152602060048201526019602482015278636c61696d546f70696320616c72656164792065786973747360381b604482015260640161027d565b600101610289565b50600080546001810182558180527f290decd9548b62a8d60345a988386fc84ba6bc95484008f6362f93160ef3e5630183905560405183917f01c928b7f7ade2949e92366aa9454dbef3a416b731cf6ec786ba9595bbd814d691a25050565b606060008054806020026020016040519081016040528092919081815260200182805480156103ae57602002820191906000526020600020905b81548152602001906001019080831161039a575b5050505050905090565b7ff0c57e16840df040f15088dc2f81fe391c3923bec73e23a9662efc9c229c6a008054600160401b810460ff16159067ffffffffffffffff166000811580156103fe5750825b905060008267ffffffffffffffff16600114801561041b5750303b155b905081158015610429575080155b156104475760405163f92ee8a960e01b815260040160405180910390fd5b845467ffffffffffffffff19166001178555831561047157845460ff60401b1916600160401b1785555b61047a336105a8565b83156104c057845460ff60401b19168555604051600181527fc7f505b2f371ae2175ee4913f4499e1f2633a7b5936321eed1cdaeb6115181d29060200160405180910390a15b5050505050565b6104cf610505565b6001600160a01b0381166104f9576000604051631e4fbdf760e01b815260040161027d9190610623565b61050281610537565b50565b3361050e6101ed565b6001600160a01b0316146101eb573360405163118cdaa760e01b815260040161027d9190610623565b7f9016d09d72d40fdae2fd8ceac6b6234c7706214fd39c1cd1e609a0528c19930080546001600160a01b031981166001600160a01b03848116918217845560405192169182907f8be0079c531659141344cd1fd0a4f28419497f9722a3daafe3b4186f6b6457e090600090a3505050565b6105b06105b9565b61050281610602565b7ff0c57e16840df040f15088dc2f81fe391c3923bec73e23a9662efc9c229c6a0054600160401b900460ff166101eb57604051631afcd79f60e31b815260040160405180910390fd5b6104cf6105b9565b60006020828403121561061c57600080fd5b5035919050565b6001600160a01b0391909116815260200190565b6020808252825182820181905260009190848201906040850190845b8181101561066f57835183529284019291840191600101610653565b50909695505050505050565b60006020828403121561068d57600080fd5b81356001600160a01b03811681146106a457600080fd5b9392505050565b634e487b7160e01b600052603260045260246000fd5b818103818111156106e257634e487b7160e01b600052601160045260246000fd5b92915050565b634e487b7160e01b600052603160045260246000fdfea2646970667358221220b1b4b09e9df0c8317e72946faac58817a26c561cd1c2e6ad3395ea4409b3d79864736f6c63430008180033",
  "linkReferences": {},
  "deployedLinkReferences": {}
}