{
  "_format": "hh-sol-artifact-1",
  "contractName": "ClaimIssuer",
  "sourceName": "contracts/onchainid/ClaimIssuer.sol",
  "abi": [
    {
      "inputs": [
        {
          "internalType": "address",
          "name": "initialManagementKey",
          "type": "address"
        }
      ],
      "stateMutability": "nonpayable",
      "type": "constructor"
    },
    {
      "anonymous": false,
      "inputs": [
        {
          "indexed": true,
          "internalType": "uint256",
          "name": "executionId",
          "type": "uint256"
        },
        {
          "indexed": false,
          "internalType": "bool",
          "name": "approved",
          "type": "bool"
        }
      ],
      "name": "Approved",
      "type": "event"
    },
    {
      "anonymous": false,
      "inputs": [
        {
          "indexed": true,
          "internalType": "bytes32",
          "name": "claimId",
          "type": "bytes32"
        },
        {
          "indexed": true,
          "internalType": "uint256",
          "name": "topic",
          "type": "uint256"
        },
        {
          "indexed": false,
          "internalType": "uint256",
          "name": "scheme",
          "type": "uint256"
        },
        {
          "indexed": true,
          "internalType": "address",
          "name": "issuer",
          "type": "address"
        },
        {
          "indexed": false,
          "internalType": "bytes",
          "name": "signature",
          "type": "bytes"
        },
        {
          "indexed": false,
          "internalType": "bytes",
          "name": "data",
          "type": "bytes"
        },
        {
          "indexed": false,
          "internalType": "string",
          "name": "uri",
          "type": "string"
        }
      ],
      "name": "ClaimAdded",
      "type": "event"
    },
    {
      "anonymous": false,
      "inputs": [
        {
          "indexed": true,
          "internalType": "bytes32",
          "name": "claimId",
          "type": "bytes32"
        },
        {
          "indexed": true,
          "internalType": "uint256",
          "name": "topic",
          "type": "uint256"
        },
        {
          "indexed": false,
          "internalType": "uint256",
          "name": "scheme",
          "type": "uint256"
        },
        {
          "indexed": true,
          "internalType": "address",
          "name": "issuer",
          "type": "address"
        },
        {
          "indexed": false,
          "internalType": "bytes",
          "name": "signature",
          "type": "bytes"
        },
        {
          "indexed": false,
          "internalType": "bytes",
          "name": "data",
          "type": "bytes"
        },
        {
          "indexed": false,
          "internalType": "string",
          "name": "uri",
          "type": "string"
        }
      ],
      "name": "ClaimChanged",
      "type": "event"
    },
    {
      "anonymous": false,
      "inputs": [
        {
          "indexed": true,
          "internalType": "bytes32",
          "name": "claimId",
          "type": "bytes32"
        },
        {
          "indexed": true,
          "internalType": "uint256",
          "name": "topic",
          "type": "uint256"
        },
        {
          "indexed": false,
          "internalType": "uint256",
          "name": "scheme",
          "type": "uint256"
        },
        {
          "indexed": true,
          "internalType": "address",
          "name": "issuer",
          "type": "address"
        },
        {
          "indexed": false,
          "internalType": "bytes",
          "name": "signature",
          "type": "bytes"
        },
        {
          "indexed": false,
          "internalType": "bytes",
          "name": "data",
          "type": "bytes"
        },
        {
          "indexed": false,
          "internalType": "string",
          "name": "uri",
          "type": "string"
        }
      ],
      "name": "ClaimRemoved",
      "type": "event"
    },
    {
      "anonymous": false,
      "inputs": [
        {
          "indexed": true,
          "internalType": "bytes",
          "name": "signature",
          "type": "bytes"
        }
      ],
      "name": "ClaimRevoked",
      "type": "event"
    },
    {
      "anonymous": false,
      "inputs": [
        {
          "indexed": true,
          "internalType": "uint256",
          "name": "executionId",
          "type": "uint256"
        },
        {
          "indexed": true,
          "internalType": "address",
          "name": "to",
          "type": "address"
        },
        {
          "indexed": true,
          "internalType": "uint256",
          "name": "value",
          "type": "uint256"
        },
        {
          "indexed": false,
          "internalType": "bytes",
          "name": "data",
          "type": "bytes"
        }
      ],
      "name": "Executed",
      "type": "event"
    },
    {
      "anonymous": false,
      "inputs": [
        {
          "indexed": true,
          "internalType": "uint256",
          "name": "executionId",
          "type": "uint256"
        },
        {
          "indexed": true,
          "internalType": "address",
          "name": "to",
          "type": "address"
        },
        {
          "indexed": true,
          "internalType": "uint256",
          "name": "value",
          "type": "uint256"
        },
        {
          "indexed": false,
          "internalType": "bytes",
          "name": "data",
          "type": "bytes"
        }
      ],
      "name": "ExecutionFailed",
      "type": "event"
    },
    {
      "anonymous": false,
      "inputs": [
        {
          "indexed": true,
          "internalType": "uint256",
          "name": "executionId",
          "type": "uint256"
        },
        {
          "indexed": true,
          "internalType": "address",
          "name": "to",
          "type": "address"
        },
        {
          "indexed": true,
          "internalType": "uint256",
          "name": "value",
          "type": "uint256"
        },
        {
          "indexed": false,
          "internalType": "bytes",
          "name": "data",
          "type": "bytes"
        }
      ],
      "name": "ExecutionRequested",
      "type": "event"
    },
    {
      "anonymous": false,
      "inputs": [
        {
          "indexed": true,
          "internalType": "bytes32",
          "name": "key",
          "type": "bytes32"
        },
        {
          "indexed": true,
          "internalType": "uint256",
          "name": "purpose",
          "type": "uint256"
        },
        {
          "indexed": true,
          "internalType": "uint256",
          "name": "keyType",
          "type": "uint256"
        }
      ],
      "name": "KeyAdded",
      "type": "event"
    },
    {
      "anonymous": false,
      "inputs": [
        {
          "indexed": true,
          "internalType": "bytes32",
          "name": "key",
          "type": "bytes32"
        },
        {
          "indexed": true,
          "internalType": "uint256",
          "name": "purpose",
          "type": "uint256"
        },
        {
          "indexed": true,
          "internalType": "uint256",
          "name": "keyType",
          "type": "uint256"
        }
      ],
      "name": "KeyRemoved",
      "type": "event"
    },
    {
      "inputs": [
        {
          "internalType": "uint256",
          "name": "_topic",
          "type": "uint256"
        },
        {
          "internalType": "uint256",
          "name": "_scheme",
          "type": "uint256"
        },
        {
          "internalType": "address",
          "name": "_issuer",
          "type": "address"
        },
        {
          "internalType": "bytes",
          "name": "_signature",
          "type": "bytes"
        },
        {
          "internalType": "bytes",
          "name": "_data",
          "type": "bytes"
        },
        {
          "internalType": "string",
          "name": "_uri",
          "type": "string"
        }
      ],
      "name": "addClaim",
      "outputs": [
        {
          "internalType": "bytes32",
          "name": "claimRequestId",
          "type": "bytes32"
        }
      ],
      "stateMutability": "nonpayable",
      "type": "function"
    },
    {
      "inputs": [
        {
          "internalType": "bytes32",
          "name": "_key",
          "type": "bytes32"
        },
        {
          "internalType": "uint256",
          "name": "_purpose",
          "type": "uint256"
        },
        {
          "internalType": "uint256",
          "name": "_type",
          "type": "uint256"
        }
      ],
      "name": "addKey",
      "outputs": [
        {
          "internalType": "bool",
          "name": "success",
          "type": "bool"
        }
      ],
      "stateMutability": "nonpayable",
      "type": "function"
    },
    {
      "inputs": [
        {
          "internalType": "uint256",
          "name": "_id",
          "type": "uint256"
        },
        {
          "internalType": "bool",
          "name": "_approve",
          "type": "bool"
        }
      ],
      "name": "approve",
      "outputs": [
        {
          "internalType": "bool",
          "name": "success",
          "type": "bool"
        }
      ],
      "stateMutability": "nonpayable",
      "type": "function"
    },
    {
      "inputs": [
        {
          "internalType": "address",
          "name": "_to",
          "type": "address"
        },
        {
          "internalType": "uint256",
          "name": "_value",
          "type": "uint256"
        },
        {
          "internalType": "bytes",
          "name": "_data",
          "type": "bytes"
        }
      ],
      "name": "execute",
      "outputs": [
        {
          "internalType": "uint256",
          "name": "executionId",
          "type": "uint256"
        }
      ],
      "stateMutability": "payable",
      "type": "function"
    },
    {
      "inputs": [
        {
          "internalType": "bytes32",
          "name": "_claimId",
          "type": "bytes32"
        }
      ],
      "name": "getClaim",
      "outputs": [
        {
          "internalType": "uint256",
          "name": "topic",
          "type": "uint256"
        },
        {
          "internalType": "uint256",
          "name": "scheme",
          "type": "uint256"
        },
        {
          "internalType": "address",
          "name": "issuer",
          "type": "address"
        },
        {
          "internalType": "bytes",
          "name": "signature",
          "type": "bytes"
        },
        {
          "internalType": "bytes",
          "name": "data",
          "type": "bytes"
        },
        {
          "internalType": "string",
          "name": "uri",
          "type": "string"
        }
      ],
      "stateMutability": "view",
      "type": "function"
    },
    {
      "inputs": [
        {
          "internalType": "uint256",
          "name": "_topic",
          "type": "uint256"
        }
      ],
      "name": "getClaimIdsByTopic",
      "outputs": [
        {
          "internalType": "bytes32[]",
          "name": "claimIds",
          "type": "bytes32[]"
        }
      ],
      "stateMutability": "view",
      "type": "function"
    },
    {
      "inputs": [
        {
          "internalType": "bytes32",
          "name": "_key",
          "type": "bytes32"
        }
      ],
      "name": "getKey",
      "outputs": [
        {
          "internalType": "uint256[]",
          "name": "purposes",
          "type": "uint256[]"
        },
        {
          "internalType": "uint256",
          "name": "keyType",
          "type": "uint256"
        },
        {
          "internalType": "bytes32",
          "name": "key",
          "type": "bytes32"
        }
      ],
      "stateMutability": "view",
      "type": "function"
    },
    {
      "inputs": [
        {
          "internalType": "bytes32",
          "name": "_key",
          "type": "bytes32"
        }
      ],
      "name": "getKeyPurposes",
      "outputs": [
        {
          "internalType": "uint256[]",
          "name": "_purposes",
          "type": "uint256[]"
        }
      ],
      "stateMutability": "view",
      "type": "function"
    },
    {
      "inputs": [
        {
          "internalType": "uint256",
          "name": "_purpose",
          "type": "uint256"
        }
      ],
      "name": "getKeysByPurpose",
      "outputs": [
        {
          "internalType": "bytes32[]",
          "name": "keys",
          "type": "bytes32[]"
        }
      ],
      "stateMutability": "view",
      "type": "function"
    },
    {
      "inputs": [
        {
          "internalType": "bytes",
          "name": "sig",
          "type": "bytes"
        },
        {
          "internalType": "bytes32",
          "name": "dataHash",
          "type": "bytes32"
        }
      ],
      "name": "getRecoveredAddress",
      "outputs": [
        {
          "internalType": "address",
          "name": "addr",
          "type": "address"
        }
      ],
      "stateMutability": "pure",
      "type": "function"
    },
    {
      "inputs": [
        {
          "internalType": "address",
          "name": "initialManagementKey",
          "type": "address"
        }
      ],
      "name": "initialize",
      "outputs": [],
      "stateMutability": "nonpayable",
      "type": "function"
    },
    {
      "inputs": [
        {
          "internalType": "bytes",
          "name": "_sig",
          "type": "bytes"
        }
      ],
      "name": "isClaimRevoked",
      "outputs": [
        {
          "internalType": "bool",
          "name": "",
          "type": "bool"
        }
      ],
      "stateMutability": "view",
      "type": "function"
    },
    {
      "inputs": [
        {
          "internalType": "contract IIdentity",
          "name": "_identity",
          "type": "address"
        },
        {
          "internalType": "uint256",
          "name": "claimTopic",
          "type": "uint256"
        },
        {
          "internalType": "bytes",
          "name": "sig",
          "type": "bytes"
        },
        {
          "internalType": "bytes",
          "name": "data",
          "type": "bytes"
        }
      ],
      "name": "isClaimValid",
      "outputs": [
        {
          "internalType": "bool",
          "name": "claimValid",
          "type": "bool"
        }
      ],
      "stateMutability": "view",
      "type": "function"
    },
    {
      "inputs": [
        {
          "internalType": "bytes32",
          "name": "_key",
          "type": "bytes32"
        },
        {
          "internalType": "uint256",
          "name": "_purpose",
          "type": "uint256"
        }
      ],
      "name": "keyHasPurpose",
      "outputs": [
        {
          "internalType": "bool",
          "name": "result",
          "type": "bool"
        }
      ],
      "stateMutability": "view",
      "type": "function"
    },
    {
      "inputs": [
        {
          "internalType": "bytes32",
          "name": "_claimId",
          "type": "bytes32"
        }
      ],
      "name": "removeClaim",
      "outputs": [
        {
          "internalType": "bool",
          "name": "success",
          "type": "bool"
        }
      ],
      "stateMutability": "nonpayable",
      "type": "function"
    },
    {
      "inputs": [
        {
          "internalType": "bytes32",
          "name": "_key",
          "type": "bytes32"
        },
        {
          "internalType": "uint256",
          "name": "_purpose",
          "type": "uint256"
        }
      ],
      "name": "removeKey",
      "outputs": [
        {
          "internalType": "bool",
          "name": "success",
          "type": "bool"
        }
      ],
      "stateMutability": "nonpayable",
      "type": "function"
    },
    {
      "inputs": [
        {
          "internalType": "bytes32",
          "name": "_claimId",
          "type": "bytes32"
        },
        {
          "internalType": "address",
          "name": "_identity",
          "type": "address"
        }
      ],
      "name": "revokeClaim",
      "outputs": [
        {
          "internalType": "bool",
          "name": "",
          "type": "bool"
        }
      ],
      "stateMutability": "nonpayable",
      "type": "function"
    },
    {
      "inputs": [
        {
          "internalType": "bytes",
          "name": "signature",
          "type": "bytes"
        }
      ],
      "name": "revokeClaimBySignature",
      "outputs": [],
      "stateMutability": "nonpayable",
      "type": "function"
    },
    {
      "inputs": [
        {
          "internalType": "bytes",
          "name": "",
          "type": "bytes"
        }
      ],
      "name": "revokedClaims",
      "outputs": [
        {
          "internalType": "bool",
          "name": "",
          "type": "bool"
        }
      ],
      "stateMutability": "view",
      "type": "function"
    },
    {
      "inputs": [],
      "name": "version",
      "outputs": [
        {
          "internalType": "string",
          "name": "",
          "type": "string"
        }
      ],
      "stateMutability": "pure",
      "type": "function"
    }
  ],
  "bytecode": "0x60806040526006805461ffff191690553480156200001c57600080fd5b5060405162003050380380620030508339810160408190526200003f91620002a3565b8060006001600160a01b0382166200009e5760405162461bcd60e51b815260206004820152601f60248201527f696e76616c696420617267756d656e74202d207a65726f20616464726573730060448201526064015b60405180910390fd5b80620000b557620000af82620000cc565b620000c3565b6006805460ff191660011790555b505050620002d5565b60065460ff161580620000de5750303b155b6200012c5760405162461bcd60e51b815260206004820152601e60248201527f496e697469616c206b65792077617320616c72656164792073657475702e0000604482015260640162000095565b6006805461ffff1916610101179055604080516001600160a01b03831660208201526000910160408051601f1981840301815282825280516020918201206000818152600180845284822060028101849055868501909552808652908290529182905293506200019d929062000237565b506000818152600160208181526040808420830183905560029091527fe90b7bceb6e7df5418fb78d8ee546e97c83a08bbccc01a0644d599ccd2a7c2e0805480840182559084527f7fef4bf8f63cf9dd467136c679c02b5c17fcf6322d9562512bf5eb952cf7cc5301849055519091829184917f480000bb1edad8ca1470381cc334b1917fbd51c6531f3a623ea8e0ec7e38a6e991a45050565b8280548282559060005260206000209081019282156200027a579160200282015b828111156200027a578251829060ff1690559160200191906001019062000258565b50620002889291506200028c565b5090565b5b808211156200028857600081556001016200028d565b600060208284031215620002b657600080fd5b81516001600160a01b0381168114620002ce57600080fd5b9392505050565b612d6b80620002e56000396000f3fe60806040526004361061011f5760003560e01c80639f7f9edd116100a0578063c4d66de811610064578063c4d66de81461035d578063c9100bcb1461037d578063d202158d146103af578063d2345249146103cf578063fb307b341461040a57600080fd5b80639f7f9edd146102ad578063b1a34e0d146102cf578063b61d27f6146102fd578063c0969a6e14610310578063c3b129e31461033057600080fd5b806354fd4d50116100e757806354fd4d50146101ec57806373c3370814610220578063747442d31461024057806380e9e9e1146102605780639010f7261461028d57600080fd5b806312aaac70146101245780631d3812401461015c5780632646b2641461018c5780634eee424a146101ac57806353d413c5146101cc575b600080fd5b34801561013057600080fd5b5061014461013f366004612128565b610437565b6040516101539392919061217d565b60405180910390f35b34801561016857600080fd5b5061017c6101773660046121a2565b6104b0565b6040519015158152602001610153565b34801561019857600080fd5b5061017c6101a7366004612299565b61070e565b3480156101b857600080fd5b5061017c6101c7366004612128565b610748565b3480156101d857600080fd5b5061017c6101e73660046122cd565b610a0b565b3480156101f857600080fd5b506040805180820182526005815264322e322e3160d81b60208201529051610153919061233f565b34801561022c57600080fd5b5061017c61023b366004612367565b610dfb565b34801561024c57600080fd5b5061017c61025b3660046123a5565b610faa565b34801561026c57600080fd5b5061028061027b366004612128565b611386565b60405161015391906123ca565b34801561029957600080fd5b506102806102a8366004612128565b6113e8565b3480156102b957600080fd5b506102cd6102c836600461240e565b611448565b005b3480156102db57600080fd5b506102ef6102ea36600461247f565b611566565b604051908152602001610153565b6102ef61030b36600461253f565b611832565b34801561031c57600080fd5b5061017c61032b366004612597565b611964565b34801561033c57600080fd5b5061035061034b366004612616565b611a62565b604051610153919061265a565b34801561036957600080fd5b506102cd61037836600461266e565b611b13565b34801561038957600080fd5b5061039d610398366004612128565b611b75565b6040516101539695949392919061268b565b3480156103bb57600080fd5b5061017c6103ca3660046122cd565b611d76565b3480156103db57600080fd5b5061017c6103ea366004612299565b805160208183018101805160388252928201919093012091525460ff1681565b34801561041657600080fd5b5061042a610425366004612128565b611e6d565b60405161015391906126eb565b60008181526001602081815260408084209283015460028401548454835181860281018601909452808452606096958695909491859183018282801561049c57602002820191906000526020600020905b815481526020019060010190808311610488575b505050505092509250925092509193909250565b60065460009060ff6101009091041615156001146104e95760405162461bcd60e51b81526004016104e0906126fe565b60405180910390fd5b33301480610523575061052333604051602001610506919061265a565b604051602081830303815290604052805190602001206001611d76565b61053f5760405162461bcd60e51b81526004016104e090612751565b600084815260016020526040902060020154849003610668576000848152600160209081526040808320805482518185028101850190935280835291929091908301828280156105ae57602002820191906000526020600020905b81548152602001906001019080831161059a575b5050505050905060005b81518110156106415760008282815181106105d5576105d56127a1565b602002602001015190508581036106385760405162461bcd60e51b815260206004820152602160248201527f436f6e666c6963743a204b657920616c72656164792068617320707572706f736044820152606560f81b60648201526084016104e0565b506001016105b8565b505060008481526001602081815260408320805492830181558352909120018390556106b4565b6000848152600160208181526040808420600281018990558151808401909252878252938890529082905261069d9291612030565b506000848152600160208190526040909120018290555b60008381526002602090815260408083208054600181018255908452918320909101869055518391859187917f480000bb1edad8ca1470381cc334b1917fbd51c6531f3a623ea8e0ec7e38a6e991a45060015b9392505050565b600060388260405161072091906127b7565b9081526040519081900360200190205460ff161561074057506001919050565b506000919050565b60065460009060ff6101009091041615156001146107785760405162461bcd60e51b81526004016104e0906126fe565b333014806107b257506107b233604051602001610795919061265a565b604051602081830303815290604052805190602001206003611d76565b6107ce5760405162461bcd60e51b81526004016104e0906127d3565b600082815260046020526040812054908190036108415760405162461bcd60e51b815260206004820152602b60248201527f4e6f6e4578697374696e673a205468657265206973206e6f20636c61696d207760448201526a1a5d1a081d1a1a5cc8125160aa1b60648201526084016104e0565b6000818152600560205260408120545b6000838152600560205260409020805486919084908110610874576108746127a1565b906000526020600020015414610899578161088e8161283b565b925050808210610851575b60008381526005602052604090206108b2600183612854565b815481106108c2576108c26127a1565b90600052602060002001546005600085815260200190815260200160002083815481106108f1576108f16127a1565b90600052602060002001819055506005600084815260200190815260200160002080548061092157610921612867565b6000828152602080822083016000199081018390559092019092558682526004908190526040918290206002810154600182015493516001600160a01b039091169387938a937f3cf57863a89432c61c4a27073c6ee39e8a764bff5a05aebfbcdcdc80b2e6130a936109a29392600383019290810191600590910190612934565b60405180910390a46000858152600460205260408120818155600181018290556002810180546001600160a01b0319169055906109e2600383018261207b565b6109f060048301600061207b565b6109fe60058301600061207b565b5060019695505050505050565b60065460009060ff610100909104161515600114610a3b5760405162461bcd60e51b81526004016104e0906126fe565b33301480610a585750610a5833604051602001610506919061265a565b610a745760405162461bcd60e51b81526004016104e090612751565b6000838152600160205260409020600201548314610ade5760405162461bcd60e51b815260206004820152602160248201527f4e6f6e4578697374696e673a204b65792069736e2774207265676973746572656044820152601960fa1b60648201526084016104e0565b600083815260016020908152604080832080548251818502810185019093528083529192909190830182828015610b3457602002820191906000526020600020905b815481526020019060010190808311610b20575b5050505050905060005b83828281518110610b5157610b516127a1565b602002602001015114610bd35780610b688161283b565b91505081518103610bce5760405162461bcd60e51b815260206004820152602a60248201527f4e6f6e4578697374696e673a204b657920646f65736e27742068617665207375604482015269636820707572706f736560b01b60648201526084016104e0565b610b3e565b8160018351610be29190612854565b81518110610bf257610bf26127a1565b6020026020010151828281518110610c0c57610c0c6127a1565b602090810291909101810191909152600086815260018252604090208351610c3692850190612030565b506000858152600160205260409020805480610c5457610c54612867565b6000828152602080822083016000199081018390559092019092558582526002905260408120545b6000868152600260205260409020805488919084908110610c9f57610c9f6127a1565b906000526020600020015414610cc45781610cb98161283b565b925050808210610c7c575b6000868152600260205260409020610cdd600183612854565b81548110610ced57610ced6127a1565b9060005260206000200154600260008881526020019081526020016000208381548110610d1c57610d1c6127a1565b906000526020600020018190555060026000878152602001908152602001600020805480610d4c57610d4c612867565b6001900381819060005260206000200160009055905560006001600089815260200190815260200160002060010154905060018551610d8b9190612854565b600003610dbc57600088815260016020526040812090610dab82826120b5565b506000600182018190556002909101555b8087897f585a4aef50f8267a92b32412b331b20f7f8b96f2245b253b9cc50dcc621d339760405160405180910390a46001955050505050505b92915050565b60065460009060ff610100909104161515600114610e2b5760405162461bcd60e51b81526004016104e0906126fe565b33301480610e485750610e4833604051602001610506919061265a565b610e645760405162461bcd60e51b81526004016104e090612751565b6000806000606080866001600160a01b031663c9100bcb896040518263ffffffff1660e01b8152600401610e9a91815260200190565b600060405180830381865afa158015610eb7573d6000803e3d6000fd5b505050506040513d6000823e601f3d908101601f19168201604052610edf91908101906129c3565b5060405194995092975090955093509150603890610efe9084906127b7565b9081526040519081900360200190205460ff1615610f2e5760405162461bcd60e51b81526004016104e090612a77565b6001603883604051610f4091906127b7565b908152604051908190036020018120805492151560ff1990931692909217909155610f6c9083906127b7565b604051908190038120907f7f484e37f24c0a92f81dd74afa3027b3ea31f2e9fb6b9fa29fe9865f81ac556990600090a2506001979650505050505050565b60065460009060ff610100909104161515600114610fda5760405162461bcd60e51b81526004016104e0906126fe565b600054831061103b5760405162461bcd60e51b815260206004820152602760248201527f43616e6e6f7420617070726f76652061206e6f6e2d6578697374696e6720657860448201526632b1baba34b7b760c91b60648201526084016104e0565b60008381526003602081905260409091200154610100900460ff161561109e5760405162461bcd60e51b815260206004820152601860248201527714995c5d595cdd08185b1c9958591e48195e1958dd5d195960421b60448201526064016104e0565b600083815260036020526040902054306001600160a01b039091160361112f576110d233604051602001610506919061265a565b61112a5760405162461bcd60e51b815260206004820152602360248201527f53656e64657220646f6573206e6f742068617665206d616e6167656d656e74206044820152626b657960e81b60648201526084016104e0565b6111ac565b61116033604051602001611143919061265a565b604051602081830303815290604052805190602001206002611d76565b6111ac5760405162461bcd60e51b815260206004820152601f60248201527f53656e64657220646f6573206e6f74206861766520616374696f6e206b65790060448201526064016104e0565b827fb3932da477fe5d6c8ff2eafef050c0f3a1af18fc07121001482600f36f3715d8836040516111e0911515815260200190565b60405180910390a281151560010361136857600083815260036020819052604091829020908101805460ff1916600190811790915581549082015492516001600160a01b03909116929161123991600290910190612aae565b60006040518083038185875af1925050503d8060008114611276576040519150601f19603f3d011682016040523d82523d6000602084013e61127b565b606091505b5090915050801561130057600083815260036020819052604091829020908101805461ff00191661010017905560018101548154925190926001600160a01b03169186917f1f920dbda597d7bf95035464170fa58d0a4b57f13a1c315ace6793b9f63688b8916112f091600290910190612b24565b60405180910390a4506001610df5565b6000838152600360205260409081902060018101548154925190926001600160a01b03169186917fe10c49d9f7c71da23262367013434763cfdb2332267641728d25cd712c5c6a689161135891600290910190612b24565b60405180910390a4506000610df5565b50506000908152600360208190526040822001805460ff1916905590565b6000818152600560209081526040918290208054835181840281018401909452808452606093928301828280156113dc57602002820191906000526020600020905b8154815260200190600101908083116113c8575b50505050509050919050565b6000818152600260209081526040918290208054835181840281018401909452808452606093928301828280156113dc57602002820191906000526020600020908154815260200190600101908083116113c85750505050509050919050565b60065460ff6101009091041615156001146114755760405162461bcd60e51b81526004016104e0906126fe565b33301480611492575061149233604051602001610506919061265a565b6114ae5760405162461bcd60e51b81526004016104e090612751565b603882826040516114c0929190612b37565b9081526040519081900360200190205460ff16156114f05760405162461bcd60e51b81526004016104e090612a77565b600160388383604051611504929190612b37565b908152604051908190036020018120805492151560ff19909316929092179091556115329083908390612b37565b604051908190038120907f7f484e37f24c0a92f81dd74afa3027b3ea31f2e9fb6b9fa29fe9865f81ac556990600090a25050565b60065460009060ff6101009091041615156001146115965760405162461bcd60e51b81526004016104e0906126fe565b333014806115b357506115b333604051602001610795919061265a565b6115cf5760405162461bcd60e51b81526004016104e0906127d3565b6001600160a01b038516301461168e5760405163604b4d3760e11b81526001600160a01b0386169063c0969a6e906116119030908b9089908990600401612b47565b602060405180830381865afa15801561162e573d6000803e3d6000fd5b505050506040513d601f19601f820116820180604052508101906116529190612b80565b61168e5760405162461bcd60e51b815260206004820152600d60248201526c696e76616c696420636c61696d60981b60448201526064016104e0565b604080516001600160a01b038716602082015290810188905260009060600160408051601f198184030181529181528151602092830120600081815260049093529120898155600181018990559091506003016116eb8682612bee565b506000818152600460208190526040909120016117088582612bee565b5060008181526004602052604090206005016117248482612bee565b506000818152600460205260409020600201546001600160a01b038781169116146117dd57600088815260056020908152604080832080546001810182559084528284200184905583835260049091529081902060020180546001600160a01b0319166001600160a01b0389169081179091559051899083907f46149b18aa084502c3f12bc75e19eda8bda8d102b82cce8474677a6d0d5f43c5906117d0908c908b908b908b90612cad565b60405180910390a4611827565b856001600160a01b031688827f3bab293fc00db832d7619a9299914251b8747c036867ec056cbd506f60135b138a89898960405161181e9493929190612cad565b60405180910390a45b979650505050505050565b60065460009060ff6101009091041615156001146118625760405162461bcd60e51b81526004016104e0906126fe565b600080548082526003602052604090912080546001600160a01b0319166001600160a01b038716178155600181018590556002016118a08482612bee565b506000805490806118b08361283b565b919050555083856001600160a01b0316827f8afcfabcb00e47a53a8fc3e9f23ff47ee1926194bb1350dd007c50b412a6cee8866040516118f0919061233f565b60405180910390a461190c33604051602001610506919061265a565b156119225761191c816001610faa565b5061195c565b6001600160a01b038516301480159061194a575061194a33604051602001611143919061265a565b1561195c5761195a816001610faa565b505b949350505050565b60008085858460405160200161197c93929190612cec565b6040516020818303038152906040528051906020012090506000816040516020016119d391907f19457468657265756d205369676e6564204d6573736167653a0a3332000000008152601c810191909152603c0190565b60405160208183030381529060405280519060200120905060006119f78683611a62565b9050600081604051602001611a0c919061265a565b604051602081830303815290604052805190602001209050611a2f816003611d76565b8015611a415750611a3f8761070e565b155b15611a5357600194505050505061195c565b50600098975050505050505050565b6000806000808551604114611a7d5760009350505050610df5565b50505060208301516040840151606085015160001a601b811015611aa957611aa6601b82612d1c565b90505b6040805160008082526020820180845288905260ff841692820192909252606081018590526080810184905260019060a0016020604051602081039080840390855afa158015611afd573d6000803e3d6000fd5b5050604051601f19015198975050505050505050565b6001600160a01b038116611b695760405162461bcd60e51b815260206004820152601f60248201527f696e76616c696420617267756d656e74202d207a65726f20616464726573730060448201526064016104e0565b611b7281611ecd565b50565b600081815260046020819052604082208054600182015460028301546003840180548796879660609687968796919590946001600160a01b03909216939092908101916005909101908390611bc99061287d565b80601f0160208091040260200160405190810160405280929190818152602001828054611bf59061287d565b8015611c425780601f10611c1757610100808354040283529160200191611c42565b820191906000526020600020905b815481529060010190602001808311611c2557829003601f168201915b50505050509250818054611c559061287d565b80601f0160208091040260200160405190810160405280929190818152602001828054611c819061287d565b8015611cce5780601f10611ca357610100808354040283529160200191611cce565b820191906000526020600020905b815481529060010190602001808311611cb157829003601f168201915b50505050509150808054611ce19061287d565b80601f0160208091040260200160405190810160405280929190818152602001828054611d0d9061287d565b8015611d5a5780601f10611d2f57610100808354040283529160200191611d5a565b820191906000526020600020905b815481529060010190602001808311611d3d57829003601f168201915b5050505050905095509550955095509550955091939550919395565b60008281526001602090815260408083208151815460809481028201850190935260608101838152859491938492849190840182828015611dd657602002820191906000526020600020905b815481526020019060010190808311611dc2575b505050918352505060018201546020820152600290910154604091820152810151909150600003611e0b576000915050610df5565b60005b815151811015611e6257600082600001518281518110611e3057611e306127a1565b602002602001015190508060011480611e4857508481145b15611e595760019350505050610df5565b50600101611e0e565b506000949350505050565b6000818152600160209081526040918290208054835181840281018401909452808452606093928301828280156113dc57602002820191906000526020600020908154815260200190600101908083116113c85750505050509050919050565b60065460ff161580611ede5750303b155b611f2a5760405162461bcd60e51b815260206004820152601e60248201527f496e697469616c206b65792077617320616c72656164792073657475702e000060448201526064016104e0565b6006805461ffff1916610101179055604051600090611f4d90839060200161265a565b60408051601f198184030181528282528051602091820120600081815260018084528482206002810184905586850190955280865290829052918290529350611f9692906120d3565b506000818152600160208181526040808420830183905560029091527fe90b7bceb6e7df5418fb78d8ee546e97c83a08bbccc01a0644d599ccd2a7c2e0805480840182559084527f7fef4bf8f63cf9dd467136c679c02b5c17fcf6322d9562512bf5eb952cf7cc5301849055519091829184917f480000bb1edad8ca1470381cc334b1917fbd51c6531f3a623ea8e0ec7e38a6e991a45050565b82805482825590600052602060002090810192821561206b579160200282015b8281111561206b578251825591602001919060010190612050565b50612077929150612113565b5090565b5080546120879061287d565b6000825580601f10612097575050565b601f016020900490600052602060002090810190611b729190612113565b5080546000825590600052602060002090810190611b729190612113565b82805482825590600052602060002090810192821561206b579160200282015b8281111561206b578251829060ff169055916020019190600101906120f3565b5b808211156120775760008155600101612114565b60006020828403121561213a57600080fd5b5035919050565b60008151808452602080850194506020840160005b8381101561217257815187529582019590820190600101612156565b509495945050505050565b6060815260006121906060830186612141565b60208301949094525060400152919050565b6000806000606084860312156121b757600080fd5b505081359360208301359350604090920135919050565b634e487b7160e01b600052604160045260246000fd5b604051601f8201601f191681016001600160401b038111828210171561220c5761220c6121ce565b604052919050565b60006001600160401b0382111561222d5761222d6121ce565b50601f01601f191660200190565b600061224e61224984612214565b6121e4565b905082815283838301111561226257600080fd5b828260208301376000602084830101529392505050565b600082601f83011261228a57600080fd5b6107078383356020850161223b565b6000602082840312156122ab57600080fd5b81356001600160401b038111156122c157600080fd5b61195c84828501612279565b600080604083850312156122e057600080fd5b50508035926020909101359150565b60005b8381101561230a5781810151838201526020016122f2565b50506000910152565b6000815180845261232b8160208601602086016122ef565b601f01601f19169290920160200192915050565b6020815260006107076020830184612313565b6001600160a01b0381168114611b7257600080fd5b6000806040838503121561237a57600080fd5b82359150602083013561238c81612352565b809150509250929050565b8015158114611b7257600080fd5b600080604083850312156123b857600080fd5b82359150602083013561238c81612397565b6020808252825182820181905260009190848201906040850190845b81811015612402578351835292840192918401916001016123e6565b50909695505050505050565b6000806020838503121561242157600080fd5b82356001600160401b038082111561243857600080fd5b818501915085601f83011261244c57600080fd5b81358181111561245b57600080fd5b86602082850101111561246d57600080fd5b60209290920196919550909350505050565b60008060008060008060c0878903121561249857600080fd5b863595506020870135945060408701356124b181612352565b935060608701356001600160401b03808211156124cd57600080fd5b6124d98a838b01612279565b945060808901359150808211156124ef57600080fd5b6124fb8a838b01612279565b935060a089013591508082111561251157600080fd5b508701601f8101891361252357600080fd5b6125328982356020840161223b565b9150509295509295509295565b60008060006060848603121561255457600080fd5b833561255f81612352565b92506020840135915060408401356001600160401b0381111561258157600080fd5b61258d86828701612279565b9150509250925092565b600080600080608085870312156125ad57600080fd5b84356125b881612352565b93506020850135925060408501356001600160401b03808211156125db57600080fd5b6125e788838901612279565b935060608701359150808211156125fd57600080fd5b5061260a87828801612279565b91505092959194509250565b6000806040838503121561262957600080fd5b82356001600160401b0381111561263f57600080fd5b61264b85828601612279565b95602094909401359450505050565b6001600160a01b0391909116815260200190565b60006020828403121561268057600080fd5b813561070781612352565b86815285602082015260018060a01b038516604082015260c0606082015260006126b860c0830186612313565b82810360808401526126ca8186612313565b905082810360a08401526126de8185612313565b9998505050505050505050565b6020815260006107076020830184612141565b60208082526033908201527f496e746572616374696e67207769746820746865206c69627261727920636f6e6040820152723a3930b1ba1034b9903337b93134b23232b71760691b606082015260800190565b60208082526030908201527f5065726d697373696f6e733a2053656e64657220646f6573206e6f742068617660408201526f65206d616e6167656d656e74206b657960801b606082015260800190565b634e487b7160e01b600052603260045260246000fd5b600082516127c98184602087016122ef565b9190910192915050565b60208082526032908201527f5065726d697373696f6e733a2053656e64657220646f6573206e6f74206861766040820152716520636c61696d207369676e6572206b657960701b606082015260800190565b634e487b7160e01b600052601160045260246000fd5b60006001820161284d5761284d612825565b5060010190565b81810381811115610df557610df5612825565b634e487b7160e01b600052603160045260246000fd5b600181811c9082168061289157607f821691505b6020821081036128b157634e487b7160e01b600052602260045260246000fd5b50919050565b600081546128c48161287d565b8085526020600183811680156128e157600181146128fb57612929565b60ff1985168884015283151560051b880183019550612929565b866000528260002060005b858110156129215781548a8201860152908301908401612906565b890184019650505b505050505092915050565b84815260806020820152600061294d60808301866128b7565b828103604084015261295f81866128b7565b9050828103606084015261182781856128b7565b600061298161224984612214565b905082815283838301111561299557600080fd5b6107078360208301846122ef565b600082601f8301126129b457600080fd5b61070783835160208501612973565b60008060008060008060c087890312156129dc57600080fd5b865195506020870151945060408701516129f581612352565b60608801519094506001600160401b0380821115612a1257600080fd5b612a1e8a838b016129a3565b94506080890151915080821115612a3457600080fd5b612a408a838b016129a3565b935060a0890151915080821115612a5657600080fd5b508701601f81018913612a6857600080fd5b61253289825160208401612973565b6020808252601f908201527f436f6e666c6963743a20436c61696d20616c7265616479207265766f6b656400604082015260600190565b6000808354612abc8161287d565b60018281168015612ad45760018114612ae957612b18565b60ff1984168752821515830287019450612b18565b8760005260208060002060005b85811015612b0f5781548a820152908401908201612af6565b50505082870194505b50929695505050505050565b60208152600061070760208301846128b7565b8183823760009101908152919050565b60018060a01b0385168152836020820152608060408201526000612b6e6080830185612313565b82810360608401526118278185612313565b600060208284031215612b9257600080fd5b815161070781612397565b601f821115612be9576000816000526020600020601f850160051c81016020861015612bc65750805b601f850160051c820191505b81811015612be557828155600101612bd2565b5050505b505050565b81516001600160401b03811115612c0757612c076121ce565b612c1b81612c15845461287d565b84612b9d565b602080601f831160018114612c505760008415612c385750858301515b600019600386901b1c1916600185901b178555612be5565b600085815260208120601f198616915b82811015612c7f57888601518255948401946001909101908401612c60565b5085821015612c9d5787850151600019600388901b60f8161c191681555b5050505050600190811b01905550565b848152608060208201526000612cc66080830186612313565b8281036040840152612cd88186612313565b905082810360608401526118278185612313565b60018060a01b0384168152826020820152606060408201526000612d136060830184612313565b95945050505050565b60ff8181168382160190811115610df557610df561282556fea2646970667358221220cc1bbbf541fb006ba12686750fd6381b96d2eba17bd1ea2748dd55f19994797764736f6c63430008180033",
  "linkReferences": {},
  "deployedLinkReferences": {}
}