{
  "_format": "hh-sol-artifact-1",
  "contractName": "ConditionalTransferModule",
  "sourceName": "contracts/erc3643/compliance/modular/modules/ConditionalTransferModule.sol",
  "abi": [
    {
      "anonymous": false,
      "inputs": [
        {
          "indexed": false,
          "internalType": "address",
          "name": "_from",
          "type": "address"
        },
        {
          "indexed": false,
          "internalType": "address",
          "name": "_to",
          "type": "address"
        },
        {
          "indexed": false,
          "internalType": "uint256",
          "name": "_amount",
          "type": "uint256"
        },
        {
          "indexed": false,
          "internalType": "address",
          "name": "_token",
          "type": "address"
        }
      ],
      "name": "ApprovalRemoved",
      "type": "event"
    },
    {
      "anonymous": false,
      "inputs": [
        {
          "indexed": true,
          "internalType": "address",
          "name": "_compliance",
          "type": "address"
        }
      ],
      "name": "ComplianceBound",
      "type": "event"
    },
    {
      "anonymous": false,
      "inputs": [
        {
          "indexed": true,
          "internalType": "address",
          "name": "_compliance",
          "type": "address"
        }
      ],
      "name": "ComplianceUnbound",
      "type": "event"
    },
    {
      "anonymous": false,
      "inputs": [
        {
          "indexed": false,
          "internalType": "address",
          "name": "_from",
          "type": "address"
        },
        {
          "indexed": false,
          "internalType": "address",
          "name": "_to",
          "type": "address"
        },
        {
          "indexed": false,
          "internalType": "uint256",
          "name": "_amount",
          "type": "uint256"
        },
        {
          "indexed": false,
          "internalType": "address",
          "name": "_token",
          "type": "address"
        }
      ],
      "name": "TransferApproved",
      "type": "event"
    },
    {
      "inputs": [
        {
          "internalType": "address",
          "name": "_from",
          "type": "address"
        },
        {
          "internalType": "address",
          "name": "_to",
          "type": "address"
        },
        {
          "internalType": "uint256",
          "name": "_amount",
          "type": "uint256"
        }
      ],
      "name": "approveTransfer",
      "outputs": [],
      "stateMutability": "nonpayable",
      "type": "function"
    },
    {
      "inputs": [
        {
          "internalType": "address[]",
          "name": "_from",
          "type": "address[]"
        },
        {
          "internalType": "address[]",
          "name": "_to",
          "type": "address[]"
        },
        {
          "internalType": "uint256[]",
          "name": "_amount",
          "type": "uint256[]"
        }
      ],
      "name": "batchApproveTransfers",
      "outputs": [],
      "stateMutability": "nonpayable",
      "type": "function"
    },
    {
      "inputs": [
        {
          "internalType": "address[]",
          "name": "_from",
          "type": "address[]"
        },
        {
          "internalType": "address[]",
          "name": "_to",
          "type": "address[]"
        },
        {
          "internalType": "uint256[]",
          "name": "_amount",
          "type": "uint256[]"
        }
      ],
      "name": "batchUnApproveTransfers",
      "outputs": [],
      "stateMutability": "nonpayable",
      "type": "function"
    },
    {
      "inputs": [
        {
          "internalType": "address",
          "name": "_compliance",
          "type": "address"
        }
      ],
      "name": "bindCompliance",
      "outputs": [],
      "stateMutability": "nonpayable",
      "type": "function"
    },
    {
      "inputs": [
        {
          "internalType": "address",
          "name": "_from",
          "type": "address"
        },
        {
          "internalType": "address",
          "name": "_to",
          "type": "address"
        },
        {
          "internalType": "uint256",
          "name": "_amount",
          "type": "uint256"
        },
        {
          "internalType": "address",
          "name": "_token",
          "type": "address"
        }
      ],
      "name": "calculateTransferHash",
      "outputs": [
        {
          "internalType": "bytes32",
          "name": "",
          "type": "bytes32"
        }
      ],
      "stateMutability": "pure",
      "type": "function"
    },
    {
      "inputs": [
        {
          "internalType": "address",
          "name": "",
          "type": "address"
        }
      ],
      "name": "canComplianceBind",
      "outputs": [
        {
          "internalType": "bool",
          "name": "",
          "type": "bool"
        }
      ],
      "stateMutability": "view",
      "type": "function"
    },
    {
      "inputs": [
        {
          "internalType": "address",
          "name": "_compliance",
          "type": "address"
        },
        {
          "internalType": "bytes32",
          "name": "_transferHash",
          "type": "bytes32"
        }
      ],
      "name": "getTransferApprovals",
      "outputs": [
        {
          "internalType": "uint256",
          "name": "",
          "type": "uint256"
        }
      ],
      "stateMutability": "view",
      "type": "function"
    },
    {
      "inputs": [
        {
          "internalType": "address",
          "name": "_compliance",
          "type": "address"
        }
      ],
      "name": "isComplianceBound",
      "outputs": [
        {
          "internalType": "bool",
          "name": "",
          "type": "bool"
        }
      ],
      "stateMutability": "view",
      "type": "function"
    },
    {
      "inputs": [],
      "name": "isPlugAndPlay",
      "outputs": [
        {
          "internalType": "bool",
          "name": "",
          "type": "bool"
        }
      ],
      "stateMutability": "pure",
      "type": "function"
    },
    {
      "inputs": [
        {
          "internalType": "address",
          "name": "_compliance",
          "type": "address"
        },
        {
          "internalType": "bytes32",
          "name": "_transferHash",
          "type": "bytes32"
        }
      ],
      "name": "isTransferApproved",
      "outputs": [
        {
          "internalType": "bool",
          "name": "",
          "type": "bool"
        }
      ],
      "stateMutability": "view",
      "type": "function"
    },
    {
      "inputs": [
        {
          "internalType": "address",
          "name": "_from",
          "type": "address"
        },
        {
          "internalType": "uint256",
          "name": "_value",
          "type": "uint256"
        }
      ],
      "name": "moduleBurnAction",
      "outputs": [],
      "stateMutability": "nonpayable",
      "type": "function"
    },
    {
      "inputs": [
        {
          "internalType": "address",
          "name": "_from",
          "type": "address"
        },
        {
          "internalType": "address",
          "name": "_to",
          "type": "address"
        },
        {
          "internalType": "uint256",
          "name": "_value",
          "type": "uint256"
        },
        {
          "internalType": "address",
          "name": "_compliance",
          "type": "address"
        }
      ],
      "name": "moduleCheck",
      "outputs": [
        {
          "internalType": "bool",
          "name": "",
          "type": "bool"
        }
      ],
      "stateMutability": "view",
      "type": "function"
    },
    {
      "inputs": [
        {
          "internalType": "address",
          "name": "_to",
          "type": "address"
        },
        {
          "internalType": "uint256",
          "name": "_value",
          "type": "uint256"
        }
      ],
      "name": "moduleMintAction",
      "outputs": [],
      "stateMutability": "nonpayable",
      "type": "function"
    },
    {
      "inputs": [
        {
          "internalType": "address",
          "name": "_from",
          "type": "address"
        },
        {
          "internalType": "address",
          "name": "_to",
          "type": "address"
        },
        {
          "internalType": "uint256",
          "name": "_value",
          "type": "uint256"
        }
      ],
      "name": "moduleTransferAction",
      "outputs": [],
      "stateMutability": "nonpayable",
      "type": "function"
    },
    {
      "inputs": [],
      "name": "name",
      "outputs": [
        {
          "internalType": "string",
          "name": "_name",
          "type": "string"
        }
      ],
      "stateMutability": "pure",
      "type": "function"
    },
    {
      "inputs": [
        {
          "internalType": "address",
          "name": "_from",
          "type": "address"
        },
        {
          "internalType": "address",
          "name": "_to",
          "type": "address"
        },
        {
          "internalType": "uint256",
          "name": "_amount",
          "type": "uint256"
        }
      ],
      "name": "unApproveTransfer",
      "outputs": [],
      "stateMutability": "nonpayable",
      "type": "function"
    },
    {
      "inputs": [
        {
          "internalType": "address",
          "name": "_compliance",
          "type": "address"
        }
      ],
      "name": "unbindCompliance",
      "outputs": [],
      "stateMutability": "nonpayable",
      "type": "function"
    }
  ],
  "bytecode": "0x608060405234801561001057600080fd5b50610e21806100206000396000f3fe608060405234801561001057600080fd5b50600436106100eb5760003560e01c80634cf4d295116100925780634cf4d295146101d557806382580805146102015780639338651914610214578063bcc2105314610227578063bdf5a4151461023b578063e2cb5c3414610271578063e6f5e80714610284578063f104a8c9146101af578063f3850dbf1461028b57600080fd5b8063013b7ce4146100f05780630694a5fb1461011857806306fdde031461012d5780631c7a179314610168578063202a63761461017b5780632cb7e1ec1461019c578063372491a2146101af5780634a932544146101c2575b600080fd5b6101036100fe366004610a7f565b61029e565b60405190151581526020015b60405180910390f35b61012b610126366004610ad2565b61031f565b005b6040805180820182526019815278436f6e646974696f6e616c5472616e736665724d6f64756c6560381b6020820152905161010f9190610af6565b61012b610176366004610b45565b6103ee565b61018e610189366004610a7f565b61058b565b60405190815260200161010f565b61012b6101aa366004610b45565b6105c7565b61012b6101bd366004610b86565b61068b565b61012b6101d0366004610ad2565b6106be565b6101036101e3366004610ad2565b6001600160a01b031660009081526020819052604090205460ff1690565b61012b61020f366004610b45565b6107bc565b610103610222366004610b86565b6108c1565b610103610235366004610ad2565b50600190565b61018e610249366004610b86565b6001600160a01b03919091166000908152600160209081526040808320938352929052205490565b61012b61027f366004610bfe565b6108fc565b6001610103565b61012b610299366004610bfe565b6109b6565b600080610309868686866001600160a01b0316636a3edf286040518163ffffffff1660e01b8152600401602060405180830381865afa1580156102e5573d6000803e3d6000fd5b505050506040513d601f19601f820116820180604052508101906101899190610c98565b905061031583826108c1565b9695505050505050565b3360009081526020819052604090205460ff166103575760405162461bcd60e51b815260040161034e90610cb5565b60405180910390fd5b6001600160a01b03811661037d5760405162461bcd60e51b815260040161034e90610cec565b336001600160a01b038216146103a55760405162461bcd60e51b815260040161034e90610d23565b6001600160a01b038116600081815260208190526040808220805460ff19169055517f408b49d9be1c914c52a0227e18a077e5a892dddf32a26cfa94a5d9708fad77189190a250565b3360009081526020819052604090205460ff1661041d5760405162461bcd60e51b815260040161034e90610cb5565b6000610463848484336001600160a01b0316636a3edf286040518163ffffffff1660e01b8152600401602060405180830381865afa1580156102e5573d6000803e3d6000fd5b3360009081526001602090815260408083208484529091529020549091506104bc5760405162461bcd60e51b815260206004820152600c60248201526b1b9bdd08185c1c1c9bdd995960a21b604482015260640161034e565b33600090815260016020908152604080832084845290915281208054916104e283610d7a565b91905055507f611476e33c1d844d9fa71ba7de6e7130e18b22971d28580fd76321e4af696356848484336001600160a01b0316636a3edf286040518163ffffffff1660e01b8152600401602060405180830381865afa158015610549573d6000803e3d6000fd5b505050506040513d601f19601f8201168201806040525081019061056d9190610c98565b60405161057d9493929190610d91565b60405180910390a150505050565b600080858585856040516020016105a59493929190610d91565b60408051808303601f1901815291905280516020909101209695505050505050565b3360009081526020819052604090205460ff166105f65760405162461bcd60e51b815260040161034e90610cb5565b600061063c848484336001600160a01b0316636a3edf286040518163ffffffff1660e01b8152600401602060405180830381865afa1580156102e5573d6000803e3d6000fd5b336000908152600160209081526040808320848452909152902054909150156106855733600090815260016020908152604080832084845290915281208054916104e283610d7a565b50505050565b3360009081526020819052604090205460ff166106ba5760405162461bcd60e51b815260040161034e90610cb5565b5050565b6001600160a01b0381166106e45760405162461bcd60e51b815260040161034e90610cec565b6001600160a01b03811660009081526020819052604090205460ff16156107485760405162461bcd60e51b815260206004820152601860248201527718dbdb5c1b1a585b98d948185b1c9958591e48189bdd5b9960421b604482015260640161034e565b336001600160a01b038216146107705760405162461bcd60e51b815260040161034e90610d23565b6001600160a01b038116600081815260208190526040808220805460ff19166001179055517f1f7b76c58fb697eb53c6c7c1becb96911516a136e24d7ced386b2355358b75a39190a250565b3360009081526020819052604090205460ff166107eb5760405162461bcd60e51b815260040161034e90610cb5565b6000610831848484336001600160a01b0316636a3edf286040518163ffffffff1660e01b8152600401602060405180830381865afa1580156102e5573d6000803e3d6000fd5b336000908152600160209081526040808320848452909152812080549293509061085a83610dbc565b91905055507f776c895685d60b5ac3aa2c3381ed2b021825c000fbb0d8ff1359636700aa1651848484336001600160a01b0316636a3edf286040518163ffffffff1660e01b8152600401602060405180830381865afa158015610549573d6000803e3d6000fd5b6001600160a01b0382166000908152600160209081526040808320848452909152812054156108f2575060016108f6565b5060005b92915050565b3360009081526020819052604090205460ff1661092b5760405162461bcd60e51b815260040161034e90610cb5565b60005b858110156109ad576109a587878381811061094b5761094b610dd5565b90506020020160208101906109609190610ad2565b86868481811061097257610972610dd5565b90506020020160208101906109879190610ad2565b85858581811061099957610999610dd5565b905060200201356103ee565b60010161092e565b50505050505050565b3360009081526020819052604090205460ff166109e55760405162461bcd60e51b815260040161034e90610cb5565b60005b858110156109ad57610a5f878783818110610a0557610a05610dd5565b9050602002016020810190610a1a9190610ad2565b868684818110610a2c57610a2c610dd5565b9050602002016020810190610a419190610ad2565b858585818110610a5357610a53610dd5565b905060200201356107bc565b6001016109e8565b6001600160a01b0381168114610a7c57600080fd5b50565b60008060008060808587031215610a9557600080fd5b8435610aa081610a67565b93506020850135610ab081610a67565b9250604085013591506060850135610ac781610a67565b939692955090935050565b600060208284031215610ae457600080fd5b8135610aef81610a67565b9392505050565b60006020808352835180602085015260005b81811015610b2457858101830151858201604001528201610b08565b506000604082860101526040601f19601f8301168501019250505092915050565b600080600060608486031215610b5a57600080fd5b8335610b6581610a67565b92506020840135610b7581610a67565b929592945050506040919091013590565b60008060408385031215610b9957600080fd5b8235610ba481610a67565b946020939093013593505050565b60008083601f840112610bc457600080fd5b50813567ffffffffffffffff811115610bdc57600080fd5b6020830191508360208260051b8501011115610bf757600080fd5b9250929050565b60008060008060008060608789031215610c1757600080fd5b863567ffffffffffffffff80821115610c2f57600080fd5b610c3b8a838b01610bb2565b90985096506020890135915080821115610c5457600080fd5b610c608a838b01610bb2565b90965094506040890135915080821115610c7957600080fd5b50610c8689828a01610bb2565b979a9699509497509295939492505050565b600060208284031215610caa57600080fd5b8151610aef81610a67565b6020808252601e908201527f6f6e6c7920626f756e6420636f6d706c69616e63652063616e2063616c6c0000604082015260600190565b6020808252601f908201527f696e76616c696420617267756d656e74202d207a65726f206164647265737300604082015260600190565b60208082526021908201527f6f6e6c7920636f6d706c69616e636520636f6e74726163742063616e2063616c6040820152601b60fa1b606082015260800190565b634e487b7160e01b600052601160045260246000fd5b600081610d8957610d89610d64565b506000190190565b6001600160a01b03948516815292841660208401526040830191909152909116606082015260800190565b600060018201610dce57610dce610d64565b5060010190565b634e487b7160e01b600052603260045260246000fdfea2646970667358221220f760f2ef0c1d94ce5c161b11301631937c7c0e19e50fe6be7e45d228a42648e464736f6c63430008180033",
  "linkReferences": {},
  "deployedLinkReferences": {}
}