{
  "_format": "hh-sol-artifact-1",
  "contractName": "CountryRestrictModule",
  "sourceName": "contracts/erc3643/compliance/modular/modules/CountryRestrictModule.sol",
  "abi": [
    {
      "anonymous": false,
      "inputs": [
        {
          "indexed": true,
          "internalType": "address",
          "name": "_compliance",
          "type": "address"
        },
        {
          "indexed": false,
          "internalType": "uint16",
          "name": "_country",
          "type": "uint16"
        }
      ],
      "name": "AddedRestrictedCountry",
      "type": "event"
    },
    {
      "anonymous": false,
      "inputs": [
        {
          "indexed": true,
          "internalType": "address",
          "name": "_compliance",
          "type": "address"
        }
      ],
      "name": "ComplianceBound",
      "type": "event"
    },
    {
      "anonymous": false,
      "inputs": [
        {
          "indexed": true,
          "internalType": "address",
          "name": "_compliance",
          "type": "address"
        }
      ],
      "name": "ComplianceUnbound",
      "type": "event"
    },
    {
      "anonymous": false,
      "inputs": [
        {
          "indexed": true,
          "internalType": "address",
          "name": "_compliance",
          "type": "address"
        },
        {
          "indexed": false,
          "internalType": "uint16",
          "name": "_country",
          "type": "uint16"
        }
      ],
      "name": "RemovedRestrictedCountry",
      "type": "event"
    },
    {
      "inputs": [
        {
          "internalType": "uint16",
          "name": "_country",
          "type": "uint16"
        }
      ],
      "name": "addCountryRestriction",
      "outputs": [],
      "stateMutability": "nonpayable",
      "type": "function"
    },
    {
      "inputs": [
        {
          "internalType": "uint16[]",
          "name": "_countries",
          "type": "uint16[]"
        }
      ],
      "name": "batchRestrictCountries",
      "outputs": [],
      "stateMutability": "nonpayable",
      "type": "function"
    },
    {
      "inputs": [
        {
          "internalType": "uint16[]",
          "name": "_countries",
          "type": "uint16[]"
        }
      ],
      "name": "batchUnrestrictCountries",
      "outputs": [],
      "stateMutability": "nonpayable",
      "type": "function"
    },
    {
      "inputs": [
        {
          "internalType": "address",
          "name": "_compliance",
          "type": "address"
        }
      ],
      "name": "bindCompliance",
      "outputs": [],
      "stateMutability": "nonpayable",
      "type": "function"
    },
    {
      "inputs": [
        {
          "internalType": "address",
          "name": "",
          "type": "address"
        }
      ],
      "name": "canComplianceBind",
      "outputs": [
        {
          "internalType": "bool",
          "name": "",
          "type": "bool"
        }
      ],
      "stateMutability": "view",
      "type": "function"
    },
    {
      "inputs": [
        {
          "internalType": "address",
          "name": "_compliance",
          "type": "address"
        }
      ],
      "name": "isComplianceBound",
      "outputs": [
        {
          "internalType": "bool",
          "name": "",
          "type": "bool"
        }
      ],
      "stateMutability": "view",
      "type": "function"
    },
    {
      "inputs": [
        {
          "internalType": "address",
          "name": "_compliance",
          "type": "address"
        },
        {
          "internalType": "uint16",
          "name": "_country",
          "type": "uint16"
        }
      ],
      "name": "isCountryRestricted",
      "outputs": [
        {
          "internalType": "bool",
          "name": "",
          "type": "bool"
        }
      ],
      "stateMutability": "view",
      "type": "function"
    },
    {
      "inputs": [],
      "name": "isPlugAndPlay",
      "outputs": [
        {
          "internalType": "bool",
          "name": "",
          "type": "bool"
        }
      ],
      "stateMutability": "pure",
      "type": "function"
    },
    {
      "inputs": [
        {
          "internalType": "address",
          "name": "_from",
          "type": "address"
        },
        {
          "internalType": "uint256",
          "name": "_value",
          "type": "uint256"
        }
      ],
      "name": "moduleBurnAction",
      "outputs": [],
      "stateMutability": "nonpayable",
      "type": "function"
    },
    {
      "inputs": [
        {
          "internalType": "address",
          "name": "",
          "type": "address"
        },
        {
          "internalType": "address",
          "name": "_to",
          "type": "address"
        },
        {
          "internalType": "uint256",
          "name": "",
          "type": "uint256"
        },
        {
          "internalType": "address",
          "name": "_compliance",
          "type": "address"
        }
      ],
      "name": "moduleCheck",
      "outputs": [
        {
          "internalType": "bool",
          "name": "",
          "type": "bool"
        }
      ],
      "stateMutability": "view",
      "type": "function"
    },
    {
      "inputs": [
        {
          "internalType": "address",
          "name": "_to",
          "type": "address"
        },
        {
          "internalType": "uint256",
          "name": "_value",
          "type": "uint256"
        }
      ],
      "name": "moduleMintAction",
      "outputs": [],
      "stateMutability": "nonpayable",
      "type": "function"
    },
    {
      "inputs": [
        {
          "internalType": "address",
          "name": "_from",
          "type": "address"
        },
        {
          "internalType": "address",
          "name": "_to",
          "type": "address"
        },
        {
          "internalType": "uint256",
          "name": "_value",
          "type": "uint256"
        }
      ],
      "name": "moduleTransferAction",
      "outputs": [],
      "stateMutability": "nonpayable",
      "type": "function"
    },
    {
      "inputs": [],
      "name": "name",
      "outputs": [
        {
          "internalType": "string",
          "name": "_name",
          "type": "string"
        }
      ],
      "stateMutability": "pure",
      "type": "function"
    },
    {
      "inputs": [
        {
          "internalType": "uint16",
          "name": "_country",
          "type": "uint16"
        }
      ],
      "name": "removeCountryRestriction",
      "outputs": [],
      "stateMutability": "nonpayable",
      "type": "function"
    },
    {
      "inputs": [
        {
          "internalType": "address",
          "name": "_compliance",
          "type": "address"
        }
      ],
      "name": "unbindCompliance",
      "outputs": [],
      "stateMutability": "nonpayable",
      "type": "function"
    }
  ],
  "bytecode": "0x608060405234801561001057600080fd5b50610eed806100206000396000f3fe608060405234801561001057600080fd5b50600436106100d55760003560e01c8063372491a211610087578063372491a21461019a5780634a932544146101ad5780634cf4d295146101c05780636aae7b26146101ec578063bcc21053146101ff578063bdf9a07e14610213578063e6f5e80714610226578063f104a8c91461019a57600080fd5b8063013b7ce4146100da5780630333ce24146101025780630694a5fb1461011757806306fdde031461012a578063249c981d146101615780632cb7e1ec1461017457806330236f4a14610187575b600080fd5b6100ed6100e8366004610b4a565b61022d565b60405190151581526020015b60405180910390f35b610115610110366004610bad565b610263565b005b610115610125366004610bca565b61033b565b6040805180820182526015815274436f756e74727952657374726963744d6f64756c6560581b602082015290516100f99190610be7565b61011561016f366004610c36565b610401565b610115610182366004610cab565b6105d6565b6100ed610195366004610cec565b610605565b6101156101a8366004610d25565b610636565b6101156101bb366004610bca565b610669565b6100ed6101ce366004610bca565b6001600160a01b031660009081526020819052604090205460ff1690565b6101156101fa366004610bad565b610767565b6100ed61020d366004610bca565b50600190565b610115610221366004610c36565b61082d565b60016100ed565b60008061023a83866109fa565b90506102468382610605565b1561025557600091505061025b565b60019150505b949350505050565b3360009081526020819052604090205460ff1661029b5760405162461bcd60e51b815260040161029290610d51565b60405180910390fd5b33600090815260016020908152604080832061ffff8516845290915290205460ff16156102da5760405162461bcd60e51b815260040161029290610d88565b33600081815260016020818152604080842061ffff871680865290835293819020805460ff191690931790925590519182527f5e0addf626d7d7091ab7aebf34682c3203384648734760b24921e31ddcec0bb591015b60405180910390a250565b3360009081526020819052604090205460ff1661036a5760405162461bcd60e51b815260040161029290610d51565b6001600160a01b0381166103905760405162461bcd60e51b815260040161029290610dbf565b336001600160a01b038216146103b85760405162461bcd60e51b815260040161029290610df6565b6001600160a01b038116600081815260208190526040808220805460ff19169055517f408b49d9be1c914c52a0227e18a077e5a892dddf32a26cfa94a5d9708fad77189190a250565b3360009081526020819052604090205460ff166104305760405162461bcd60e51b815260040161029290610d51565b60c381106104955760405162461bcd60e51b815260206004820152602c60248201527f6d6178696d756d203139352063616e20626520756e726573747269637465642060448201526b0d2dc40dedcca40c4c2e8c6d60a31b6064820152608401610292565b60005b818110156105d157336000908152600160205260408120908484848181106104c2576104c2610e37565b90506020020160208101906104d79190610bad565b61ffff16815260208101919091526040016000205460ff1615156001146105105760405162461bcd60e51b815260040161029290610e4d565b3360009081526001602052604081208185858581811061053257610532610e37565b90506020020160208101906105479190610bad565b61ffff1681526020810191909152604001600020805460ff1916911515919091179055337ffb8bb575200aa114265a31c7d8ebeb4e395bd3cd9d0914c4bfa2a511d2011a7a84848481811061059e5761059e610e37565b90506020020160208101906105b39190610bad565b60405161ffff909116815260200160405180910390a2600101610498565b505050565b3360009081526020819052604090205460ff166105d15760405162461bcd60e51b815260040161029290610d51565b6001600160a01b038216600090815260016020908152604080832061ffff8516845290915290205460ff1692915050565b3360009081526020819052604090205460ff166106655760405162461bcd60e51b815260040161029290610d51565b5050565b6001600160a01b03811661068f5760405162461bcd60e51b815260040161029290610dbf565b6001600160a01b03811660009081526020819052604090205460ff16156106f35760405162461bcd60e51b815260206004820152601860248201527718dbdb5c1b1a585b98d948185b1c9958591e48189bdd5b9960421b6044820152606401610292565b336001600160a01b0382161461071b5760405162461bcd60e51b815260040161029290610df6565b6001600160a01b038116600081815260208190526040808220805460ff19166001179055517f1f7b76c58fb697eb53c6c7c1becb96911516a136e24d7ced386b2355358b75a39190a250565b3360009081526020819052604090205460ff166107965760405162461bcd60e51b815260040161029290610d51565b33600090815260016020818152604080842061ffff861685529091529091205460ff161515146107d85760405162461bcd60e51b815260040161029290610e4d565b33600081815260016020908152604080832061ffff861680855290835292819020805460ff19169055519182527ffb8bb575200aa114265a31c7d8ebeb4e395bd3cd9d0914c4bfa2a511d2011a7a9101610330565b3360009081526020819052604090205460ff1661085c5760405162461bcd60e51b815260040161029290610d51565b60c381106108bf5760405162461bcd60e51b815260206004820152602a60248201527f6d6178696d756d203139352063616e206265207265737472696374656420696e604482015269040dedcca40c4c2e8c6d60b31b6064820152608401610292565b60005b818110156105d157336000908152600160205260408120908484848181106108ec576108ec610e37565b90506020020160208101906109019190610bad565b61ffff16815260208101919091526040016000205460ff16156109365760405162461bcd60e51b815260040161029290610d88565b3360009081526001602081905260408220909185858581811061095b5761095b610e37565b90506020020160208101906109709190610bad565b61ffff1681526020810191909152604001600020805460ff1916911515919091179055337f5e0addf626d7d7091ab7aebf34682c3203384648734760b24921e31ddcec0bb58484848181106109c7576109c7610e37565b90506020020160208101906109dc9190610bad565b60405161ffff909116815260200160405180910390a26001016108c2565b6000826001600160a01b0316636a3edf286040518163ffffffff1660e01b8152600401602060405180830381865afa158015610a3a573d6000803e3d6000fd5b505050506040513d601f19601f82011682018060405250810190610a5e9190610e7d565b6001600160a01b031663134e18f46040518163ffffffff1660e01b8152600401602060405180830381865afa158015610a9b573d6000803e3d6000fd5b505050506040513d601f19601f82011682018060405250810190610abf9190610e7d565b604051637e42683b60e01b81526001600160a01b0384811660048301529190911690637e42683b90602401602060405180830381865afa158015610b07573d6000803e3d6000fd5b505050506040513d601f19601f82011682018060405250810190610b2b9190610e9a565b9392505050565b6001600160a01b0381168114610b4757600080fd5b50565b60008060008060808587031215610b6057600080fd5b8435610b6b81610b32565b93506020850135610b7b81610b32565b9250604085013591506060850135610b9281610b32565b939692955090935050565b61ffff81168114610b4757600080fd5b600060208284031215610bbf57600080fd5b8135610b2b81610b9d565b600060208284031215610bdc57600080fd5b8135610b2b81610b32565b60006020808352835180602085015260005b81811015610c1557858101830151858201604001528201610bf9565b506000604082860101526040601f19601f8301168501019250505092915050565b60008060208385031215610c4957600080fd5b823567ffffffffffffffff80821115610c6157600080fd5b818501915085601f830112610c7557600080fd5b813581811115610c8457600080fd5b8660208260051b8501011115610c9957600080fd5b60209290920196919550909350505050565b600080600060608486031215610cc057600080fd5b8335610ccb81610b32565b92506020840135610cdb81610b32565b929592945050506040919091013590565b60008060408385031215610cff57600080fd5b8235610d0a81610b32565b91506020830135610d1a81610b9d565b809150509250929050565b60008060408385031215610d3857600080fd5b8235610d4381610b32565b946020939093013593505050565b6020808252601e908201527f6f6e6c7920626f756e6420636f6d706c69616e63652063616e2063616c6c0000604082015260600190565b6020808252601a908201527f636f756e74727920616c72656164792072657374726963746564000000000000604082015260600190565b6020808252601f908201527f696e76616c696420617267756d656e74202d207a65726f206164647265737300604082015260600190565b60208082526021908201527f6f6e6c7920636f6d706c69616e636520636f6e74726163742063616e2063616c6040820152601b60fa1b606082015260800190565b634e487b7160e01b600052603260045260246000fd5b60208082526016908201527518dbdd5b9d1c9e481b9bdd081c995cdd1c9a58dd195960521b604082015260600190565b600060208284031215610e8f57600080fd5b8151610b2b81610b32565b600060208284031215610eac57600080fd5b8151610b2b81610b9d56fea26469706673582212203569640f5a263be45158fbfdee7008ee9b31395cbf2f20e79a41e5f9563ee78264736f6c63430008180033",
  "linkReferences": {},
  "deployedLinkReferences": {}
}