{
  "_format": "hh-sol-artifact-1",
  "contractName": "CountryWhitelistingTest",
  "sourceName": "contracts/erc3643/compliance/legacy/test/CountryWhitelistingTest.sol",
  "abi": [
    {
      "inputs": [
        {
          "internalType": "address",
          "name": "owner",
          "type": "address"
        }
      ],
      "name": "OwnableInvalidOwner",
      "type": "error"
    },
    {
      "inputs": [
        {
          "internalType": "address",
          "name": "account",
          "type": "address"
        }
      ],
      "name": "OwnableUnauthorizedAccount",
      "type": "error"
    },
    {
      "anonymous": false,
      "inputs": [
        {
          "indexed": true,
          "internalType": "address",
          "name": "_agent",
          "type": "address"
        }
      ],
      "name": "AgentAdded",
      "type": "event"
    },
    {
      "anonymous": false,
      "inputs": [
        {
          "indexed": true,
          "internalType": "address",
          "name": "_agent",
          "type": "address"
        }
      ],
      "name": "AgentRemoved",
      "type": "event"
    },
    {
      "anonymous": false,
      "inputs": [
        {
          "indexed": true,
          "internalType": "address",
          "name": "previousOwner",
          "type": "address"
        },
        {
          "indexed": true,
          "internalType": "address",
          "name": "newOwner",
          "type": "address"
        }
      ],
      "name": "OwnershipTransferred",
      "type": "event"
    },
    {
      "anonymous": false,
      "inputs": [
        {
          "indexed": false,
          "internalType": "address",
          "name": "_agentAddress",
          "type": "address"
        }
      ],
      "name": "TokenAgentAdded",
      "type": "event"
    },
    {
      "anonymous": false,
      "inputs": [
        {
          "indexed": false,
          "internalType": "address",
          "name": "_agentAddress",
          "type": "address"
        }
      ],
      "name": "TokenAgentRemoved",
      "type": "event"
    },
    {
      "anonymous": false,
      "inputs": [
        {
          "indexed": false,
          "internalType": "address",
          "name": "_token",
          "type": "address"
        }
      ],
      "name": "TokenBound",
      "type": "event"
    },
    {
      "anonymous": false,
      "inputs": [
        {
          "indexed": false,
          "internalType": "address",
          "name": "_token",
          "type": "address"
        }
      ],
      "name": "TokenUnbound",
      "type": "event"
    },
    {
      "anonymous": false,
      "inputs": [
        {
          "indexed": false,
          "internalType": "uint16",
          "name": "_country",
          "type": "uint16"
        }
      ],
      "name": "UnWhitelistedCountry",
      "type": "event"
    },
    {
      "anonymous": false,
      "inputs": [
        {
          "indexed": false,
          "internalType": "uint16",
          "name": "_country",
          "type": "uint16"
        }
      ],
      "name": "WhitelistedCountry",
      "type": "event"
    },
    {
      "inputs": [
        {
          "internalType": "address",
          "name": "_agent",
          "type": "address"
        }
      ],
      "name": "addAgent",
      "outputs": [],
      "stateMutability": "nonpayable",
      "type": "function"
    },
    {
      "inputs": [
        {
          "internalType": "address",
          "name": "_agentAddress",
          "type": "address"
        }
      ],
      "name": "addTokenAgent",
      "outputs": [],
      "stateMutability": "nonpayable",
      "type": "function"
    },
    {
      "inputs": [
        {
          "internalType": "uint16[]",
          "name": "_countries",
          "type": "uint16[]"
        }
      ],
      "name": "batchUnWhitelistCountries",
      "outputs": [],
      "stateMutability": "nonpayable",
      "type": "function"
    },
    {
      "inputs": [
        {
          "internalType": "uint16[]",
          "name": "_countries",
          "type": "uint16[]"
        }
      ],
      "name": "batchWhitelistCountries",
      "outputs": [],
      "stateMutability": "nonpayable",
      "type": "function"
    },
    {
      "inputs": [
        {
          "internalType": "address",
          "name": "_token",
          "type": "address"
        }
      ],
      "name": "bindToken",
      "outputs": [],
      "stateMutability": "nonpayable",
      "type": "function"
    },
    {
      "inputs": [
        {
          "internalType": "address",
          "name": "_from",
          "type": "address"
        },
        {
          "internalType": "address",
          "name": "_to",
          "type": "address"
        },
        {
          "internalType": "uint256",
          "name": "_value",
          "type": "uint256"
        }
      ],
      "name": "canTransfer",
      "outputs": [
        {
          "internalType": "bool",
          "name": "",
          "type": "bool"
        }
      ],
      "stateMutability": "view",
      "type": "function"
    },
    {
      "inputs": [
        {
          "internalType": "address",
          "name": "",
          "type": "address"
        },
        {
          "internalType": "address",
          "name": "_to",
          "type": "address"
        },
        {
          "internalType": "uint256",
          "name": "",
          "type": "uint256"
        }
      ],
      "name": "complianceCheckOnCountryWhitelisting",
      "outputs": [
        {
          "internalType": "bool",
          "name": "",
          "type": "bool"
        }
      ],
      "stateMutability": "view",
      "type": "function"
    },
    {
      "inputs": [
        {
          "internalType": "address",
          "name": "_to",
          "type": "address"
        },
        {
          "internalType": "uint256",
          "name": "_value",
          "type": "uint256"
        }
      ],
      "name": "created",
      "outputs": [],
      "stateMutability": "nonpayable",
      "type": "function"
    },
    {
      "inputs": [
        {
          "internalType": "address",
          "name": "_from",
          "type": "address"
        },
        {
          "internalType": "uint256",
          "name": "_value",
          "type": "uint256"
        }
      ],
      "name": "destroyed",
      "outputs": [],
      "stateMutability": "nonpayable",
      "type": "function"
    },
    {
      "inputs": [
        {
          "internalType": "address",
          "name": "_agent",
          "type": "address"
        }
      ],
      "name": "isAgent",
      "outputs": [
        {
          "internalType": "bool",
          "name": "",
          "type": "bool"
        }
      ],
      "stateMutability": "view",
      "type": "function"
    },
    {
      "inputs": [
        {
          "internalType": "uint16",
          "name": "_country",
          "type": "uint16"
        }
      ],
      "name": "isCountryWhitelisted",
      "outputs": [
        {
          "internalType": "bool",
          "name": "",
          "type": "bool"
        }
      ],
      "stateMutability": "view",
      "type": "function"
    },
    {
      "inputs": [
        {
          "internalType": "address",
          "name": "_agentAddress",
          "type": "address"
        }
      ],
      "name": "isTokenAgent",
      "outputs": [
        {
          "internalType": "bool",
          "name": "",
          "type": "bool"
        }
      ],
      "stateMutability": "view",
      "type": "function"
    },
    {
      "inputs": [
        {
          "internalType": "address",
          "name": "_token",
          "type": "address"
        }
      ],
      "name": "isTokenBound",
      "outputs": [
        {
          "internalType": "bool",
          "name": "",
          "type": "bool"
        }
      ],
      "stateMutability": "view",
      "type": "function"
    },
    {
      "inputs": [],
      "name": "owner",
      "outputs": [
        {
          "internalType": "address",
          "name": "",
          "type": "address"
        }
      ],
      "stateMutability": "view",
      "type": "function"
    },
    {
      "inputs": [
        {
          "internalType": "address",
          "name": "_agent",
          "type": "address"
        }
      ],
      "name": "removeAgent",
      "outputs": [],
      "stateMutability": "nonpayable",
      "type": "function"
    },
    {
      "inputs": [
        {
          "internalType": "address",
          "name": "_agentAddress",
          "type": "address"
        }
      ],
      "name": "removeTokenAgent",
      "outputs": [],
      "stateMutability": "nonpayable",
      "type": "function"
    },
    {
      "inputs": [],
      "name": "renounceOwnership",
      "outputs": [],
      "stateMutability": "nonpayable",
      "type": "function"
    },
    {
      "inputs": [],
      "name": "tokenBound",
      "outputs": [
        {
          "internalType": "contract IToken",
          "name": "",
          "type": "address"
        }
      ],
      "stateMutability": "view",
      "type": "function"
    },
    {
      "inputs": [
        {
          "internalType": "address",
          "name": "newOwner",
          "type": "address"
        }
      ],
      "name": "transferOwnership",
      "outputs": [],
      "stateMutability": "nonpayable",
      "type": "function"
    },
    {
      "inputs": [
        {
          "internalType": "address",
          "name": "_from",
          "type": "address"
        },
        {
          "internalType": "address",
          "name": "_to",
          "type": "address"
        },
        {
          "internalType": "uint256",
          "name": "_value",
          "type": "uint256"
        }
      ],
      "name": "transferred",
      "outputs": [],
      "stateMutability": "nonpayable",
      "type": "function"
    },
    {
      "inputs": [
        {
          "internalType": "uint16",
          "name": "_country",
          "type": "uint16"
        }
      ],
      "name": "unWhitelistCountry",
      "outputs": [],
      "stateMutability": "nonpayable",
      "type": "function"
    },
    {
      "inputs": [
        {
          "internalType": "address",
          "name": "_token",
          "type": "address"
        }
      ],
      "name": "unbindToken",
      "outputs": [],
      "stateMutability": "nonpayable",
      "type": "function"
    },
    {
      "inputs": [
        {
          "internalType": "uint16",
          "name": "_country",
          "type": "uint16"
        }
      ],
      "name": "whitelistCountry",
      "outputs": [],
      "stateMutability": "nonpayable",
      "type": "function"
    }
  ],
  "bytecode": "0x608060405234801561001057600080fd5b50338061003757604051631e4fbdf760e01b81526000600482015260240160405180910390fd5b61004081610046565b50610096565b600080546001600160a01b038381166001600160a01b0319831681178455604051919092169283917f8be0079c531659141344cd1fd0a4f28419497f9722a3daafe3b4186f6b6457e09190a35050565b611118806100a56000396000f3fe608060405234801561001057600080fd5b506004361061014d5760003560e01c80638da5cb5b116100c3578063aee250af1161007c578063aee250af146102a9578063cdde2932146102bc578063e46638e6146102cf578063f2fde38b146102e2578063f393cbc2146102f5578063ff3e69541461030857600080fd5b80638da5cb5b1461021c57806393e62f071461023657806397a6278e1461024957806397eab82b1461025c578063993e8b9514610283578063a1b01b4f1461029657600080fd5b806340db3b501161011557806340db3b50146101c85780635f8dead3146101db578063715018a6146101ee57806384e79842146101f65780638baf29b4146102095780638d2ea772146101db57600080fd5b806307e8e344146101525780631ffbb06414610167578063346531fa1461018f5780633b0b83c0146101a25780633ff5aa02146101b5575b600080fd5b610165610160366004610e03565b61031b565b005b61017a610175366004610edd565b610355565b60405190151581526020015b60405180910390f35b61017a61019d366004610edd565b610368565b61017a6101b0366004610efa565b610414565b6101656101c3366004610edd565b61045b565b6101656101d6366004610edd565b61051a565b6101656101e9366004610f3b565b6105fd565b610165610621565b610165610204366004610edd565b610635565b610165610217366004610efa565b6106a5565b6000546001600160a01b03165b6040516101869190610f67565b600354610229906001600160a01b031681565b610165610257366004610edd565b6106ce565b61017a61026a366004610f7b565b61ffff1660009081526004602052604090205460ff1690565b61017a610291366004610edd565b61073e565b6101656102a4366004610f7b565b61075e565b6101656102b7366004610e03565b61080f565b6101656102ca366004610edd565b610845565b61017a6102dd366004610efa565b610905565b6101656102f0366004610edd565b610928565b610165610303366004610f7b565b610966565b610165610316366004610edd565b610a21565b60005b81518110156103515761034982828151811061033c5761033c610f98565b602002602001015161075e565b60010161031e565b5050565b6000610362600183610ae5565b92915050565b6001600160a01b03811660009081526002602052604081205460ff161580156103ff57506003546040516307feec1960e21b81526001600160a01b0390911690631ffbb064906103bc908590600401610f67565b602060405180830381865afa1580156103d9573d6000803e3d6000fd5b505050506040513d601f19601f820116820180604052508101906103fd9190610fae565b155b1561040c57506000919050565b506001919050565b60008061042084610b68565b905061043f8161ffff1660009081526004602052604090205460ff1690565b1561044e576001915050610454565b60009150505b9392505050565b3361046e6000546001600160a01b031690565b6001600160a01b0316148061049f57506003546001600160a01b031615801561049f5750336001600160a01b038216145b6104c45760405162461bcd60e51b81526004016104bb90610fd0565b60405180910390fd5b600380546001600160a01b0319166001600160a01b0383161790556040517f2de35142b19ed5a07796cf30791959c592018f70b1d2d7c460eef8ffe713692b9061050f908390610f67565b60405180910390a150565b3361052d6000546001600160a01b031690565b6001600160a01b0316148061054a5750336001600160a01b038216145b6105665760405162461bcd60e51b81526004016104bb90610fd0565b6003546001600160a01b038281169116146105bd5760405162461bcd60e51b8152602060048201526017602482015276151a1a5cc81d1bdad95b881a5cc81b9bdd08189bdd5b99604a1b60448201526064016104bb565b600380546001600160a01b03191690556040517f28a4ca7134a3b3f9aff286e79ad3daadb4a06d1b43d037a3a98bdc074edd9b7a9061050f908390610f67565b610605610c42565b6103515760405162461bcd60e51b81526004016104bb90611007565b610629610c52565b6106336000610c7f565b565b61063d610c52565b6001600160a01b0381166106635760405162461bcd60e51b81526004016104bb90611071565b61066e600182610ccf565b6040516001600160a01b038216907ff68e73cec97f2d70aa641fb26e87a4383686e2efacb648f2165aeb02ac562ec590600090a250565b6106ad610c42565b6106c95760405162461bcd60e51b81526004016104bb90611007565b505050565b6106d6610c52565b6001600160a01b0381166106fc5760405162461bcd60e51b81526004016104bb90611071565b610707600182610d4b565b6040516001600160a01b038216907fed9c8ad8d5a0a66898ea49d2956929c93ae2e8bd50281b2ed897c5d1a6737e0b90600090a250565b6003546000906001600160a01b0383811691161461040c57506000919050565b610766610c52565b61ffff811660009081526004602052604090205460ff166107c35760405162461bcd60e51b815260206004820152601760248201527618dbdd5b9d1c9e481b9bdd081dda1a5d195b1a5cdd1959604a1b60448201526064016104bb565b61ffff8116600081815260046020908152604091829020805460ff1916905590519182527f77bf94f96c0e8d724e02e1c5c7a219b0b078de66c992608a55e755a6384d1ee3910161050f565b60005b81518110156103515761083d82828151811061083057610830610f98565b6020026020010151610966565b600101610812565b61084d610c52565b6001600160a01b03811660009081526002602052604090205460ff166108b55760405162461bcd60e51b815260206004820181905260248201527f54686973204167656e74206973206e6f7420726567697374657265642079657460448201526064016104bb565b6001600160a01b03811660009081526002602052604090819020805460ff19169055517f6a659bb87bb23efbdc295f8eed8ae8c4379bfb77660ced2ef0f3d7d26b05c6a69061050f908390610f67565b6000610912848484610414565b61091e57506000610454565b5060019392505050565b610930610c52565b6001600160a01b03811661095a576000604051631e4fbdf760e01b81526004016104bb9190610f67565b61096381610c7f565b50565b61096e610c52565b61ffff811660009081526004602052604090205460ff16156109d25760405162461bcd60e51b815260206004820152601b60248201527f636f756e74727920616c72656164792077686974656c6973746564000000000060448201526064016104bb565b61ffff8116600081815260046020908152604091829020805460ff1916600117905590519182527fd20535bfd780673cc88887ad4af967343e4e8e088062aa936fea2de79d10de28910161050f565b610a29610c52565b6001600160a01b03811660009081526002602052604090205460ff1615610a925760405162461bcd60e51b815260206004820181905260248201527f54686973204167656e7420697320616c7265616479207265676973746572656460448201526064016104bb565b6001600160a01b03811660009081526002602052604090819020805460ff19166001179055517fd62c45e13ac30396aceb3ad37c89bd1ba9048032fe61679000e92eb93dbfd67d9061050f908390610f67565b60006001600160a01b038216610b485760405162461bcd60e51b815260206004820152602260248201527f526f6c65733a206163636f756e7420697320746865207a65726f206164647265604482015261737360f01b60648201526084016104bb565b506001600160a01b03166000908152602091909152604090205460ff1690565b600354604080516304d3863d60e21b815290516000926001600160a01b03169163134e18f49160048083019260209291908290030181865afa158015610bb2573d6000803e3d6000fd5b505050506040513d601f19601f82011682018060405250810190610bd691906110a8565b6001600160a01b0316637e42683b836040518263ffffffff1660e01b8152600401610c019190610f67565b602060405180830381865afa158015610c1e573d6000803e3d6000fd5b505050506040513d601f19601f8201168201806040525081019061036291906110c5565b6000610c4d3361073e565b905090565b6000546001600160a01b03163314610633573360405163118cdaa760e01b81526004016104bb9190610f67565b600080546001600160a01b038381166001600160a01b0319831681178455604051919092169283917f8be0079c531659141344cd1fd0a4f28419497f9722a3daafe3b4186f6b6457e09190a35050565b610cd98282610ae5565b15610d265760405162461bcd60e51b815260206004820152601f60248201527f526f6c65733a206163636f756e7420616c72656164792068617320726f6c650060448201526064016104bb565b6001600160a01b0316600090815260209190915260409020805460ff19166001179055565b610d558282610ae5565b610dab5760405162461bcd60e51b815260206004820152602160248201527f526f6c65733a206163636f756e7420646f6573206e6f74206861766520726f6c6044820152606560f81b60648201526084016104bb565b6001600160a01b0316600090815260209190915260409020805460ff19169055565b634e487b7160e01b600052604160045260246000fd5b61ffff8116811461096357600080fd5b8035610dfe81610de3565b919050565b60006020808385031215610e1657600080fd5b823567ffffffffffffffff80821115610e2e57600080fd5b818501915085601f830112610e4257600080fd5b813581811115610e5457610e54610dcd565b8060051b604051601f19603f83011681018181108582111715610e7957610e79610dcd565b604052918252848201925083810185019188831115610e9757600080fd5b938501935b82851015610ebc57610ead85610df3565b84529385019392850192610e9c565b98975050505050505050565b6001600160a01b038116811461096357600080fd5b600060208284031215610eef57600080fd5b813561045481610ec8565b600080600060608486031215610f0f57600080fd5b8335610f1a81610ec8565b92506020840135610f2a81610ec8565b929592945050506040919091013590565b60008060408385031215610f4e57600080fd5b8235610f5981610ec8565b946020939093013593505050565b6001600160a01b0391909116815260200190565b600060208284031215610f8d57600080fd5b813561045481610de3565b634e487b7160e01b600052603260045260246000fd5b600060208284031215610fc057600080fd5b8151801515811461045457600080fd5b6020808252601c908201527f6f6e6c79206f776e6572206f7220746f6b656e2063616e2063616c6c00000000604082015260600190565b60208082526044908201527f6572726f72203a20746869732061646472657373206973206e6f74206120746f60408201527f6b656e20626f756e6420746f2074686520636f6d706c69616e636520636f6e746060820152631c9858dd60e21b608082015260a00190565b6020808252601f908201527f696e76616c696420617267756d656e74202d207a65726f206164647265737300604082015260600190565b6000602082840312156110ba57600080fd5b815161045481610ec8565b6000602082840312156110d757600080fd5b815161045481610de356fea26469706673582212203de7622bb23a8f4e53d8d3c655520511b77a5512693abe81dc89cabbae40200f64736f6c63430008180033",
  "linkReferences": {},
  "deployedLinkReferences": {}
}