{
  "_format": "hh-sol-artifact-1",
  "contractName": "CountryAllowModule",
  "sourceName": "contracts/erc3643/compliance/modular/modules/CountryAllowModule.sol",
  "abi": [
    {
      "inputs": [
        {
          "internalType": "address",
          "name": "_compliance",
          "type": "address"
        },
        {
          "internalType": "uint16",
          "name": "_country",
          "type": "uint16"
        }
      ],
      "name": "CountryAlreadyAllowed",
      "type": "error"
    },
    {
      "inputs": [
        {
          "internalType": "address",
          "name": "_compliance",
          "type": "address"
        },
        {
          "internalType": "uint16",
          "name": "_country",
          "type": "uint16"
        }
      ],
      "name": "CountryNotAllowed",
      "type": "error"
    },
    {
      "anonymous": false,
      "inputs": [
        {
          "indexed": true,
          "internalType": "address",
          "name": "_compliance",
          "type": "address"
        }
      ],
      "name": "ComplianceBound",
      "type": "event"
    },
    {
      "anonymous": false,
      "inputs": [
        {
          "indexed": true,
          "internalType": "address",
          "name": "_compliance",
          "type": "address"
        }
      ],
      "name": "ComplianceUnbound",
      "type": "event"
    },
    {
      "anonymous": false,
      "inputs": [
        {
          "indexed": false,
          "internalType": "address",
          "name": "_compliance",
          "type": "address"
        },
        {
          "indexed": false,
          "internalType": "uint16",
          "name": "_country",
          "type": "uint16"
        }
      ],
      "name": "CountryAllowed",
      "type": "event"
    },
    {
      "anonymous": false,
      "inputs": [
        {
          "indexed": false,
          "internalType": "address",
          "name": "_compliance",
          "type": "address"
        },
        {
          "indexed": false,
          "internalType": "uint16",
          "name": "_country",
          "type": "uint16"
        }
      ],
      "name": "CountryUnallowed",
      "type": "event"
    },
    {
      "inputs": [
        {
          "internalType": "uint16",
          "name": "_country",
          "type": "uint16"
        }
      ],
      "name": "addAllowedCountry",
      "outputs": [],
      "stateMutability": "nonpayable",
      "type": "function"
    },
    {
      "inputs": [
        {
          "internalType": "uint16[]",
          "name": "_countries",
          "type": "uint16[]"
        }
      ],
      "name": "batchAllowCountries",
      "outputs": [],
      "stateMutability": "nonpayable",
      "type": "function"
    },
    {
      "inputs": [
        {
          "internalType": "uint16[]",
          "name": "_countries",
          "type": "uint16[]"
        }
      ],
      "name": "batchDisallowCountries",
      "outputs": [],
      "stateMutability": "nonpayable",
      "type": "function"
    },
    {
      "inputs": [
        {
          "internalType": "address",
          "name": "_compliance",
          "type": "address"
        }
      ],
      "name": "bindCompliance",
      "outputs": [],
      "stateMutability": "nonpayable",
      "type": "function"
    },
    {
      "inputs": [
        {
          "internalType": "address",
          "name": "",
          "type": "address"
        }
      ],
      "name": "canComplianceBind",
      "outputs": [
        {
          "internalType": "bool",
          "name": "",
          "type": "bool"
        }
      ],
      "stateMutability": "view",
      "type": "function"
    },
    {
      "inputs": [
        {
          "internalType": "address",
          "name": "_compliance",
          "type": "address"
        }
      ],
      "name": "isComplianceBound",
      "outputs": [
        {
          "internalType": "bool",
          "name": "",
          "type": "bool"
        }
      ],
      "stateMutability": "view",
      "type": "function"
    },
    {
      "inputs": [
        {
          "internalType": "address",
          "name": "_compliance",
          "type": "address"
        },
        {
          "internalType": "uint16",
          "name": "_country",
          "type": "uint16"
        }
      ],
      "name": "isCountryAllowed",
      "outputs": [
        {
          "internalType": "bool",
          "name": "",
          "type": "bool"
        }
      ],
      "stateMutability": "view",
      "type": "function"
    },
    {
      "inputs": [],
      "name": "isPlugAndPlay",
      "outputs": [
        {
          "internalType": "bool",
          "name": "",
          "type": "bool"
        }
      ],
      "stateMutability": "pure",
      "type": "function"
    },
    {
      "inputs": [
        {
          "internalType": "address",
          "name": "_from",
          "type": "address"
        },
        {
          "internalType": "uint256",
          "name": "_value",
          "type": "uint256"
        }
      ],
      "name": "moduleBurnAction",
      "outputs": [],
      "stateMutability": "nonpayable",
      "type": "function"
    },
    {
      "inputs": [
        {
          "internalType": "address",
          "name": "",
          "type": "address"
        },
        {
          "internalType": "address",
          "name": "_to",
          "type": "address"
        },
        {
          "internalType": "uint256",
          "name": "",
          "type": "uint256"
        },
        {
          "internalType": "address",
          "name": "_compliance",
          "type": "address"
        }
      ],
      "name": "moduleCheck",
      "outputs": [
        {
          "internalType": "bool",
          "name": "",
          "type": "bool"
        }
      ],
      "stateMutability": "view",
      "type": "function"
    },
    {
      "inputs": [
        {
          "internalType": "address",
          "name": "_to",
          "type": "address"
        },
        {
          "internalType": "uint256",
          "name": "_value",
          "type": "uint256"
        }
      ],
      "name": "moduleMintAction",
      "outputs": [],
      "stateMutability": "nonpayable",
      "type": "function"
    },
    {
      "inputs": [
        {
          "internalType": "address",
          "name": "_from",
          "type": "address"
        },
        {
          "internalType": "address",
          "name": "_to",
          "type": "address"
        },
        {
          "internalType": "uint256",
          "name": "_value",
          "type": "uint256"
        }
      ],
      "name": "moduleTransferAction",
      "outputs": [],
      "stateMutability": "nonpayable",
      "type": "function"
    },
    {
      "inputs": [],
      "name": "name",
      "outputs": [
        {
          "internalType": "string",
          "name": "_name",
          "type": "string"
        }
      ],
      "stateMutability": "pure",
      "type": "function"
    },
    {
      "inputs": [
        {
          "internalType": "uint16",
          "name": "_country",
          "type": "uint16"
        }
      ],
      "name": "removeAllowedCountry",
      "outputs": [],
      "stateMutability": "nonpayable",
      "type": "function"
    },
    {
      "inputs": [
        {
          "internalType": "address",
          "name": "_compliance",
          "type": "address"
        }
      ],
      "name": "unbindCompliance",
      "outputs": [],
      "stateMutability": "nonpayable",
      "type": "function"
    }
  ],
  "bytecode": "0x608060405234801561001057600080fd5b50610cfb806100206000396000f3fe608060405234801561001057600080fd5b50600436106100d55760003560e01c80634cf4d295116100875780634cf4d295146101975780634f44425e146101c3578063771c5281146101d6578063817544c3146101e9578063bcc21053146101fc578063c08e150214610210578063e6f5e80714610223578063f104a8c91461017157600080fd5b8063013b7ce4146100da5780630694a5fb1461010257806306fdde03146101175780630f4f09041461014b5780632cb7e1ec1461015e578063372491a2146101715780634a93254414610184575b600080fd5b6100ed6100e83660046109a2565b61022a565b60405190151581526020015b60405180910390f35b6101156101103660046109f5565b61024d565b005b6040805180820182526012815271436f756e747279416c6c6f774d6f64756c6560701b602082015290516100f99190610a12565b6100ed610159366004610a71565b61031c565b61011561016c366004610aaa565b61034d565b61011561017f366004610aeb565b610381565b6101156101923660046109f5565b6103b4565b6100ed6101a53660046109f5565b6001600160a01b031660009081526020819052604090205460ff1690565b6101156101d1366004610b17565b6104b2565b6101156101e4366004610b34565b61058d565b6101156101f7366004610b17565b61068b565b6100ed61020a3660046109f5565b50600190565b61011561021e366004610b34565b610757565b60016100ed565b6000806102378386610852565b9050610243838261031c565b9695505050505050565b3360009081526020819052604090205460ff166102855760405162461bcd60e51b815260040161027c90610ba9565b60405180910390fd5b6001600160a01b0381166102ab5760405162461bcd60e51b815260040161027c90610be0565b336001600160a01b038216146102d35760405162461bcd60e51b815260040161027c90610c17565b6001600160a01b038116600081815260208190526040808220805460ff19169055517f408b49d9be1c914c52a0227e18a077e5a892dddf32a26cfa94a5d9708fad77189190a250565b6001600160a01b038216600090815260016020908152604080832061ffff8516845290915290205460ff1692915050565b3360009081526020819052604090205460ff1661037c5760405162461bcd60e51b815260040161027c90610ba9565b505050565b3360009081526020819052604090205460ff166103b05760405162461bcd60e51b815260040161027c90610ba9565b5050565b6001600160a01b0381166103da5760405162461bcd60e51b815260040161027c90610be0565b6001600160a01b03811660009081526020819052604090205460ff161561043e5760405162461bcd60e51b815260206004820152601860248201527718dbdb5c1b1a585b98d948185b1c9958591e48189bdd5b9960421b604482015260640161027c565b336001600160a01b038216146104665760405162461bcd60e51b815260040161027c90610c17565b6001600160a01b038116600081815260208190526040808220805460ff19166001179055517f1f7b76c58fb697eb53c6c7c1becb96911516a136e24d7ced386b2355358b75a39190a250565b3360009081526020819052604090205460ff166104e15760405162461bcd60e51b815260040161027c90610ba9565b33600090815260016020818152604080842061ffff861685529091529091205460ff161515900361052957338160405163af6d613560e01b815260040161027c929190610c58565b33600081815260016020818152604080842061ffff8716855290915291829020805460ff19169091179055517f48c279381632bf87fca2680865a7384b6eb20716fd96b882b305a2198930a07491610582918490610c58565b60405180910390a150565b3360009081526020819052604090205460ff166105bc5760405162461bcd60e51b815260040161027c90610ba9565b60005b8181101561037c57336000908152600160208190526040822090918585858181106105ec576105ec610c75565b90506020020160208101906106019190610b17565b61ffff1681526020810191909152604001600020805460ff19169115159190911790557f48c279381632bf87fca2680865a7384b6eb20716fd96b882b305a2198930a0743384848481811061065857610658610c75565b905060200201602081019061066d9190610b17565b60405161067b929190610c58565b60405180910390a16001016105bf565b3360009081526020819052604090205460ff166106ba5760405162461bcd60e51b815260040161027c90610ba9565b33600090815260016020908152604080832061ffff8516845290915281205460ff161515900361070157338160405163236a687560e11b815260040161027c929190610c58565b33600081815260016020908152604080832061ffff8616845290915290819020805460ff19169055517f35c7374bcb82f2355cb703c8ab6162f87fe83b99618bdb78c6d19b07ddf060a291610582918490610c58565b3360009081526020819052604090205460ff166107865760405162461bcd60e51b815260040161027c90610ba9565b60005b8181101561037c57336000908152600160205260408120818585858181106107b3576107b3610c75565b90506020020160208101906107c89190610b17565b61ffff1681526020810191909152604001600020805460ff19169115159190911790557f35c7374bcb82f2355cb703c8ab6162f87fe83b99618bdb78c6d19b07ddf060a23384848481811061081f5761081f610c75565b90506020020160208101906108349190610b17565b604051610842929190610c58565b60405180910390a1600101610789565b6000826001600160a01b0316636a3edf286040518163ffffffff1660e01b8152600401602060405180830381865afa158015610892573d6000803e3d6000fd5b505050506040513d601f19601f820116820180604052508101906108b69190610c8b565b6001600160a01b031663134e18f46040518163ffffffff1660e01b8152600401602060405180830381865afa1580156108f3573d6000803e3d6000fd5b505050506040513d601f19601f820116820180604052508101906109179190610c8b565b604051637e42683b60e01b81526001600160a01b0384811660048301529190911690637e42683b90602401602060405180830381865afa15801561095f573d6000803e3d6000fd5b505050506040513d601f19601f820116820180604052508101906109839190610ca8565b9392505050565b6001600160a01b038116811461099f57600080fd5b50565b600080600080608085870312156109b857600080fd5b84356109c38161098a565b935060208501356109d38161098a565b92506040850135915060608501356109ea8161098a565b939692955090935050565b600060208284031215610a0757600080fd5b81356109838161098a565b60006020808352835180602085015260005b81811015610a4057858101830151858201604001528201610a24565b506000604082860101526040601f19601f8301168501019250505092915050565b61ffff8116811461099f57600080fd5b60008060408385031215610a8457600080fd5b8235610a8f8161098a565b91506020830135610a9f81610a61565b809150509250929050565b600080600060608486031215610abf57600080fd5b8335610aca8161098a565b92506020840135610ada8161098a565b929592945050506040919091013590565b60008060408385031215610afe57600080fd5b8235610b098161098a565b946020939093013593505050565b600060208284031215610b2957600080fd5b813561098381610a61565b60008060208385031215610b4757600080fd5b823567ffffffffffffffff80821115610b5f57600080fd5b818501915085601f830112610b7357600080fd5b813581811115610b8257600080fd5b8660208260051b8501011115610b9757600080fd5b60209290920196919550909350505050565b6020808252601e908201527f6f6e6c7920626f756e6420636f6d706c69616e63652063616e2063616c6c0000604082015260600190565b6020808252601f908201527f696e76616c696420617267756d656e74202d207a65726f206164647265737300604082015260600190565b60208082526021908201527f6f6e6c7920636f6d706c69616e636520636f6e74726163742063616e2063616c6040820152601b60fa1b606082015260800190565b6001600160a01b0392909216825261ffff16602082015260400190565b634e487b7160e01b600052603260045260246000fd5b600060208284031215610c9d57600080fd5b81516109838161098a565b600060208284031215610cba57600080fd5b815161098381610a6156fea26469706673582212201feabe977c0256048f6487d621f2630501c60f5d1332b3dbc46d666699d0b2ed64736f6c63430008180033",
  "linkReferences": {},
  "deployedLinkReferences": {}
}