{
  "_format": "hh-sol-artifact-1",
  "contractName": "CountryRestrictionsTest",
  "sourceName": "contracts/erc3643/compliance/legacy/test/CountryRestrictionsTest.sol",
  "abi": [
    {
      "inputs": [
        {
          "internalType": "address",
          "name": "owner",
          "type": "address"
        }
      ],
      "name": "OwnableInvalidOwner",
      "type": "error"
    },
    {
      "inputs": [
        {
          "internalType": "address",
          "name": "account",
          "type": "address"
        }
      ],
      "name": "OwnableUnauthorizedAccount",
      "type": "error"
    },
    {
      "anonymous": false,
      "inputs": [
        {
          "indexed": false,
          "internalType": "uint16",
          "name": "_country",
          "type": "uint16"
        }
      ],
      "name": "AddedRestrictedCountry",
      "type": "event"
    },
    {
      "anonymous": false,
      "inputs": [
        {
          "indexed": true,
          "internalType": "address",
          "name": "_agent",
          "type": "address"
        }
      ],
      "name": "AgentAdded",
      "type": "event"
    },
    {
      "anonymous": false,
      "inputs": [
        {
          "indexed": true,
          "internalType": "address",
          "name": "_agent",
          "type": "address"
        }
      ],
      "name": "AgentRemoved",
      "type": "event"
    },
    {
      "anonymous": false,
      "inputs": [
        {
          "indexed": true,
          "internalType": "address",
          "name": "previousOwner",
          "type": "address"
        },
        {
          "indexed": true,
          "internalType": "address",
          "name": "newOwner",
          "type": "address"
        }
      ],
      "name": "OwnershipTransferred",
      "type": "event"
    },
    {
      "anonymous": false,
      "inputs": [
        {
          "indexed": false,
          "internalType": "uint16",
          "name": "_country",
          "type": "uint16"
        }
      ],
      "name": "RemovedRestrictedCountry",
      "type": "event"
    },
    {
      "anonymous": false,
      "inputs": [
        {
          "indexed": false,
          "internalType": "address",
          "name": "_agentAddress",
          "type": "address"
        }
      ],
      "name": "TokenAgentAdded",
      "type": "event"
    },
    {
      "anonymous": false,
      "inputs": [
        {
          "indexed": false,
          "internalType": "address",
          "name": "_agentAddress",
          "type": "address"
        }
      ],
      "name": "TokenAgentRemoved",
      "type": "event"
    },
    {
      "anonymous": false,
      "inputs": [
        {
          "indexed": false,
          "internalType": "address",
          "name": "_token",
          "type": "address"
        }
      ],
      "name": "TokenBound",
      "type": "event"
    },
    {
      "anonymous": false,
      "inputs": [
        {
          "indexed": false,
          "internalType": "address",
          "name": "_token",
          "type": "address"
        }
      ],
      "name": "TokenUnbound",
      "type": "event"
    },
    {
      "inputs": [
        {
          "internalType": "address",
          "name": "_agent",
          "type": "address"
        }
      ],
      "name": "addAgent",
      "outputs": [],
      "stateMutability": "nonpayable",
      "type": "function"
    },
    {
      "inputs": [
        {
          "internalType": "uint16",
          "name": "_country",
          "type": "uint16"
        }
      ],
      "name": "addCountryRestriction",
      "outputs": [],
      "stateMutability": "nonpayable",
      "type": "function"
    },
    {
      "inputs": [
        {
          "internalType": "address",
          "name": "_agentAddress",
          "type": "address"
        }
      ],
      "name": "addTokenAgent",
      "outputs": [],
      "stateMutability": "nonpayable",
      "type": "function"
    },
    {
      "inputs": [
        {
          "internalType": "uint16[]",
          "name": "_countries",
          "type": "uint16[]"
        }
      ],
      "name": "batchRestrictCountries",
      "outputs": [],
      "stateMutability": "nonpayable",
      "type": "function"
    },
    {
      "inputs": [
        {
          "internalType": "uint16[]",
          "name": "_countries",
          "type": "uint16[]"
        }
      ],
      "name": "batchUnrestrictCountries",
      "outputs": [],
      "stateMutability": "nonpayable",
      "type": "function"
    },
    {
      "inputs": [
        {
          "internalType": "address",
          "name": "_token",
          "type": "address"
        }
      ],
      "name": "bindToken",
      "outputs": [],
      "stateMutability": "nonpayable",
      "type": "function"
    },
    {
      "inputs": [
        {
          "internalType": "address",
          "name": "_from",
          "type": "address"
        },
        {
          "internalType": "address",
          "name": "_to",
          "type": "address"
        },
        {
          "internalType": "uint256",
          "name": "_value",
          "type": "uint256"
        }
      ],
      "name": "canTransfer",
      "outputs": [
        {
          "internalType": "bool",
          "name": "",
          "type": "bool"
        }
      ],
      "stateMutability": "view",
      "type": "function"
    },
    {
      "inputs": [
        {
          "internalType": "address",
          "name": "",
          "type": "address"
        },
        {
          "internalType": "address",
          "name": "_to",
          "type": "address"
        },
        {
          "internalType": "uint256",
          "name": "",
          "type": "uint256"
        }
      ],
      "name": "complianceCheckOnCountryRestrictions",
      "outputs": [
        {
          "internalType": "bool",
          "name": "",
          "type": "bool"
        }
      ],
      "stateMutability": "view",
      "type": "function"
    },
    {
      "inputs": [
        {
          "internalType": "address",
          "name": "_to",
          "type": "address"
        },
        {
          "internalType": "uint256",
          "name": "_value",
          "type": "uint256"
        }
      ],
      "name": "created",
      "outputs": [],
      "stateMutability": "nonpayable",
      "type": "function"
    },
    {
      "inputs": [
        {
          "internalType": "address",
          "name": "_from",
          "type": "address"
        },
        {
          "internalType": "uint256",
          "name": "_value",
          "type": "uint256"
        }
      ],
      "name": "destroyed",
      "outputs": [],
      "stateMutability": "nonpayable",
      "type": "function"
    },
    {
      "inputs": [
        {
          "internalType": "address",
          "name": "_agent",
          "type": "address"
        }
      ],
      "name": "isAgent",
      "outputs": [
        {
          "internalType": "bool",
          "name": "",
          "type": "bool"
        }
      ],
      "stateMutability": "view",
      "type": "function"
    },
    {
      "inputs": [
        {
          "internalType": "uint16",
          "name": "_country",
          "type": "uint16"
        }
      ],
      "name": "isCountryRestricted",
      "outputs": [
        {
          "internalType": "bool",
          "name": "",
          "type": "bool"
        }
      ],
      "stateMutability": "view",
      "type": "function"
    },
    {
      "inputs": [
        {
          "internalType": "address",
          "name": "_agentAddress",
          "type": "address"
        }
      ],
      "name": "isTokenAgent",
      "outputs": [
        {
          "internalType": "bool",
          "name": "",
          "type": "bool"
        }
      ],
      "stateMutability": "view",
      "type": "function"
    },
    {
      "inputs": [
        {
          "internalType": "address",
          "name": "_token",
          "type": "address"
        }
      ],
      "name": "isTokenBound",
      "outputs": [
        {
          "internalType": "bool",
          "name": "",
          "type": "bool"
        }
      ],
      "stateMutability": "view",
      "type": "function"
    },
    {
      "inputs": [],
      "name": "owner",
      "outputs": [
        {
          "internalType": "address",
          "name": "",
          "type": "address"
        }
      ],
      "stateMutability": "view",
      "type": "function"
    },
    {
      "inputs": [
        {
          "internalType": "address",
          "name": "_agent",
          "type": "address"
        }
      ],
      "name": "removeAgent",
      "outputs": [],
      "stateMutability": "nonpayable",
      "type": "function"
    },
    {
      "inputs": [
        {
          "internalType": "uint16",
          "name": "_country",
          "type": "uint16"
        }
      ],
      "name": "removeCountryRestriction",
      "outputs": [],
      "stateMutability": "nonpayable",
      "type": "function"
    },
    {
      "inputs": [
        {
          "internalType": "address",
          "name": "_agentAddress",
          "type": "address"
        }
      ],
      "name": "removeTokenAgent",
      "outputs": [],
      "stateMutability": "nonpayable",
      "type": "function"
    },
    {
      "inputs": [],
      "name": "renounceOwnership",
      "outputs": [],
      "stateMutability": "nonpayable",
      "type": "function"
    },
    {
      "inputs": [],
      "name": "tokenBound",
      "outputs": [
        {
          "internalType": "contract IToken",
          "name": "",
          "type": "address"
        }
      ],
      "stateMutability": "view",
      "type": "function"
    },
    {
      "inputs": [
        {
          "internalType": "address",
          "name": "newOwner",
          "type": "address"
        }
      ],
      "name": "transferOwnership",
      "outputs": [],
      "stateMutability": "nonpayable",
      "type": "function"
    },
    {
      "inputs": [
        {
          "internalType": "address",
          "name": "_from",
          "type": "address"
        },
        {
          "internalType": "address",
          "name": "_to",
          "type": "address"
        },
        {
          "internalType": "uint256",
          "name": "_value",
          "type": "uint256"
        }
      ],
      "name": "transferred",
      "outputs": [],
      "stateMutability": "nonpayable",
      "type": "function"
    },
    {
      "inputs": [
        {
          "internalType": "address",
          "name": "_token",
          "type": "address"
        }
      ],
      "name": "unbindToken",
      "outputs": [],
      "stateMutability": "nonpayable",
      "type": "function"
    }
  ],
  "bytecode": "0x608060405234801561001057600080fd5b50338061003757604051631e4fbdf760e01b81526000600482015260240160405180910390fd5b61004081610046565b50610096565b600080546001600160a01b038381166001600160a01b0319831681178455604051919092169283917f8be0079c531659141344cd1fd0a4f28419497f9722a3daafe3b4186f6b6457e09190a35050565b6110a7806100a56000396000f3fe608060405234801561001057600080fd5b506004361061014d5760003560e01c80638d2ea772116100c3578063bdf9a07e1161007c578063bdf9a07e146102a9578063c7a4ecf8146102bc578063cdde2932146102cf578063e46638e6146102e2578063f2fde38b146102f5578063ff3e69541461030857600080fd5b80638d2ea772146101db5780638da5cb5b1461022f57806393e62f071461024957806397a6278e1461025c578063993e8b951461026f578063bc4c85521461028257600080fd5b806340db3b501161011557806340db3b50146101c85780635f8dead3146101db5780636aae7b26146101ee578063715018a61461020157806384e79842146102095780638baf29b41461021c57600080fd5b80630333ce24146101525780631ffbb06414610167578063249c981d1461018f578063346531fa146101a25780633ff5aa02146101b5575b600080fd5b610165610160366004610de2565b61031b565b005b61017a610175366004610e14565b6103e2565b60405190151581526020015b60405180910390f35b61016561019d366004610e31565b6103f5565b61017a6101b0366004610e14565b610437565b6101656101c3366004610e14565b6104e3565b6101656101d6366004610e14565b61058e565b6101656101e9366004610ea6565b610671565b6101656101fc366004610de2565b610699565b610165610749565b610165610217366004610e14565b61075d565b61016561022a366004610ed2565b6107cd565b6000546001600160a01b03165b6040516101869190610f13565b60035461023c906001600160a01b031681565b61016561026a366004610e14565b6107f1565b61017a61027d366004610e14565b610861565b61017a610290366004610de2565b61ffff1660009081526004602052604090205460ff1690565b6101656102b7366004610e31565b610881565b61017a6102ca366004610ed2565b6108be565b6101656102dd366004610e14565b610905565b61017a6102f0366004610ed2565b6109c5565b610165610303366004610e14565b6109e8565b610165610316366004610e14565b610a26565b610323610aea565b61ffff811660009081526004602052604090205460ff161561038c5760405162461bcd60e51b815260206004820152601a60248201527f636f756e74727920616c7265616479207265737472696374656400000000000060448201526064015b60405180910390fd5b61ffff8116600081815260046020908152604091829020805460ff1916600117905590519182527f686ddf4acaa296f02dade9efd41d8a09a2eba14d730f9117404e6ffe6b96a01891015b60405180910390a150565b60006103ef600183610b17565b92915050565b60005b818110156104325761042a83838381811061041557610415610f27565b90506020020160208101906101fc9190610de2565b6001016103f8565b505050565b6001600160a01b03811660009081526002602052604081205460ff161580156104ce57506003546040516307feec1960e21b81526001600160a01b0390911690631ffbb0649061048b908590600401610f13565b602060405180830381865afa1580156104a8573d6000803e3d6000fd5b505050506040513d601f19601f820116820180604052508101906104cc9190610f3d565b155b156104db57506000919050565b506001919050565b336104f66000546001600160a01b031690565b6001600160a01b0316148061052757506003546001600160a01b03161580156105275750336001600160a01b038216145b6105435760405162461bcd60e51b815260040161038390610f5f565b600380546001600160a01b0319166001600160a01b0383161790556040517f2de35142b19ed5a07796cf30791959c592018f70b1d2d7c460eef8ffe713692b906103d7908390610f13565b336105a16000546001600160a01b031690565b6001600160a01b031614806105be5750336001600160a01b038216145b6105da5760405162461bcd60e51b815260040161038390610f5f565b6003546001600160a01b038281169116146106315760405162461bcd60e51b8152602060048201526017602482015276151a1a5cc81d1bdad95b881a5cc81b9bdd08189bdd5b99604a1b6044820152606401610383565b600380546001600160a01b03191690556040517f28a4ca7134a3b3f9aff286e79ad3daadb4a06d1b43d037a3a98bdc074edd9b7a906103d7908390610f13565b610679610b9a565b6106955760405162461bcd60e51b815260040161038390610f96565b5050565b6106a1610aea565b61ffff811660009081526004602052604090205460ff166106fd5760405162461bcd60e51b815260206004820152601660248201527518dbdd5b9d1c9e481b9bdd081c995cdd1c9a58dd195960521b6044820152606401610383565b61ffff8116600081815260046020908152604091829020805460ff1916905590519182527f7dad2e3bc77f5830a7421a19a06cee2e76fcd4bdbe0793f240b3cf094cebcceb91016103d7565b610751610aea565b61075b6000610baa565b565b610765610aea565b6001600160a01b03811661078b5760405162461bcd60e51b815260040161038390611000565b610796600182610bfa565b6040516001600160a01b038216907ff68e73cec97f2d70aa641fb26e87a4383686e2efacb648f2165aeb02ac562ec590600090a250565b6107d5610b9a565b6104325760405162461bcd60e51b815260040161038390610f96565b6107f9610aea565b6001600160a01b03811661081f5760405162461bcd60e51b815260040161038390611000565b61082a600182610c76565b6040516001600160a01b038216907fed9c8ad8d5a0a66898ea49d2956929c93ae2e8bd50281b2ed897c5d1a6737e0b90600090a250565b6003546000906001600160a01b038381169116146104db57506000919050565b60005b81811015610432576108b68383838181106108a1576108a1610f27565b90506020020160208101906101609190610de2565b600101610884565b6000806108ca84610cf8565b90506108e98161ffff1660009081526004602052604090205460ff1690565b156108f85760009150506108fe565b60019150505b9392505050565b61090d610aea565b6001600160a01b03811660009081526002602052604090205460ff166109755760405162461bcd60e51b815260206004820181905260248201527f54686973204167656e74206973206e6f742072656769737465726564207965746044820152606401610383565b6001600160a01b03811660009081526002602052604090819020805460ff19169055517f6a659bb87bb23efbdc295f8eed8ae8c4379bfb77660ced2ef0f3d7d26b05c6a6906103d7908390610f13565b60006109d28484846108be565b6109de575060006108fe565b5060019392505050565b6109f0610aea565b6001600160a01b038116610a1a576000604051631e4fbdf760e01b81526004016103839190610f13565b610a2381610baa565b50565b610a2e610aea565b6001600160a01b03811660009081526002602052604090205460ff1615610a975760405162461bcd60e51b815260206004820181905260248201527f54686973204167656e7420697320616c726561647920726567697374657265646044820152606401610383565b6001600160a01b03811660009081526002602052604090819020805460ff19166001179055517fd62c45e13ac30396aceb3ad37c89bd1ba9048032fe61679000e92eb93dbfd67d906103d7908390610f13565b6000546001600160a01b0316331461075b573360405163118cdaa760e01b81526004016103839190610f13565b60006001600160a01b038216610b7a5760405162461bcd60e51b815260206004820152602260248201527f526f6c65733a206163636f756e7420697320746865207a65726f206164647265604482015261737360f01b6064820152608401610383565b506001600160a01b03166000908152602091909152604090205460ff1690565b6000610ba533610861565b905090565b600080546001600160a01b038381166001600160a01b0319831681178455604051919092169283917f8be0079c531659141344cd1fd0a4f28419497f9722a3daafe3b4186f6b6457e09190a35050565b610c048282610b17565b15610c515760405162461bcd60e51b815260206004820152601f60248201527f526f6c65733a206163636f756e7420616c72656164792068617320726f6c65006044820152606401610383565b6001600160a01b0316600090815260209190915260409020805460ff19166001179055565b610c808282610b17565b610cd65760405162461bcd60e51b815260206004820152602160248201527f526f6c65733a206163636f756e7420646f6573206e6f74206861766520726f6c6044820152606560f81b6064820152608401610383565b6001600160a01b0316600090815260209190915260409020805460ff19169055565b600354604080516304d3863d60e21b815290516000926001600160a01b03169163134e18f49160048083019260209291908290030181865afa158015610d42573d6000803e3d6000fd5b505050506040513d601f19601f82011682018060405250810190610d669190611037565b6001600160a01b0316637e42683b836040518263ffffffff1660e01b8152600401610d919190610f13565b602060405180830381865afa158015610dae573d6000803e3d6000fd5b505050506040513d601f19601f820116820180604052508101906103ef9190611054565b61ffff81168114610a2357600080fd5b600060208284031215610df457600080fd5b81356108fe81610dd2565b6001600160a01b0381168114610a2357600080fd5b600060208284031215610e2657600080fd5b81356108fe81610dff565b60008060208385031215610e4457600080fd5b823567ffffffffffffffff80821115610e5c57600080fd5b818501915085601f830112610e7057600080fd5b813581811115610e7f57600080fd5b8660208260051b8501011115610e9457600080fd5b60209290920196919550909350505050565b60008060408385031215610eb957600080fd5b8235610ec481610dff565b946020939093013593505050565b600080600060608486031215610ee757600080fd5b8335610ef281610dff565b92506020840135610f0281610dff565b929592945050506040919091013590565b6001600160a01b0391909116815260200190565b634e487b7160e01b600052603260045260246000fd5b600060208284031215610f4f57600080fd5b815180151581146108fe57600080fd5b6020808252601c908201527f6f6e6c79206f776e6572206f7220746f6b656e2063616e2063616c6c00000000604082015260600190565b60208082526044908201527f6572726f72203a20746869732061646472657373206973206e6f74206120746f60408201527f6b656e20626f756e6420746f2074686520636f6d706c69616e636520636f6e746060820152631c9858dd60e21b608082015260a00190565b6020808252601f908201527f696e76616c696420617267756d656e74202d207a65726f206164647265737300604082015260600190565b60006020828403121561104957600080fd5b81516108fe81610dff565b60006020828403121561106657600080fd5b81516108fe81610dd256fea2646970667358221220b17eba49747a15c55b1ce5ceaf649aab566c754503742db5d35ee258540ee5f464736f6c63430008180033",
  "linkReferences": {},
  "deployedLinkReferences": {}
}