{
  "_format": "hh-sol-artifact-1",
  "contractName": "DayMonthLimitsTest",
  "sourceName": "contracts/erc3643/compliance/legacy/test/DayMonthLimitsTest.sol",
  "abi": [
    {
      "inputs": [
        {
          "internalType": "address",
          "name": "owner",
          "type": "address"
        }
      ],
      "name": "OwnableInvalidOwner",
      "type": "error"
    },
    {
      "inputs": [
        {
          "internalType": "address",
          "name": "account",
          "type": "address"
        }
      ],
      "name": "OwnableUnauthorizedAccount",
      "type": "error"
    },
    {
      "anonymous": false,
      "inputs": [
        {
          "indexed": true,
          "internalType": "address",
          "name": "_agent",
          "type": "address"
        }
      ],
      "name": "AgentAdded",
      "type": "event"
    },
    {
      "anonymous": false,
      "inputs": [
        {
          "indexed": true,
          "internalType": "address",
          "name": "_agent",
          "type": "address"
        }
      ],
      "name": "AgentRemoved",
      "type": "event"
    },
    {
      "anonymous": false,
      "inputs": [
        {
          "indexed": false,
          "internalType": "uint256",
          "name": "_newDailyLimit",
          "type": "uint256"
        }
      ],
      "name": "DailyLimitUpdated",
      "type": "event"
    },
    {
      "anonymous": false,
      "inputs": [
        {
          "indexed": false,
          "internalType": "uint256",
          "name": "_newMonthlyLimit",
          "type": "uint256"
        }
      ],
      "name": "MonthlyLimitUpdated",
      "type": "event"
    },
    {
      "anonymous": false,
      "inputs": [
        {
          "indexed": true,
          "internalType": "address",
          "name": "previousOwner",
          "type": "address"
        },
        {
          "indexed": true,
          "internalType": "address",
          "name": "newOwner",
          "type": "address"
        }
      ],
      "name": "OwnershipTransferred",
      "type": "event"
    },
    {
      "anonymous": false,
      "inputs": [
        {
          "indexed": false,
          "internalType": "address",
          "name": "_agentAddress",
          "type": "address"
        }
      ],
      "name": "TokenAgentAdded",
      "type": "event"
    },
    {
      "anonymous": false,
      "inputs": [
        {
          "indexed": false,
          "internalType": "address",
          "name": "_agentAddress",
          "type": "address"
        }
      ],
      "name": "TokenAgentRemoved",
      "type": "event"
    },
    {
      "anonymous": false,
      "inputs": [
        {
          "indexed": false,
          "internalType": "address",
          "name": "_token",
          "type": "address"
        }
      ],
      "name": "TokenBound",
      "type": "event"
    },
    {
      "anonymous": false,
      "inputs": [
        {
          "indexed": false,
          "internalType": "address",
          "name": "_token",
          "type": "address"
        }
      ],
      "name": "TokenUnbound",
      "type": "event"
    },
    {
      "inputs": [
        {
          "internalType": "address",
          "name": "_agent",
          "type": "address"
        }
      ],
      "name": "addAgent",
      "outputs": [],
      "stateMutability": "nonpayable",
      "type": "function"
    },
    {
      "inputs": [
        {
          "internalType": "address",
          "name": "_agentAddress",
          "type": "address"
        }
      ],
      "name": "addTokenAgent",
      "outputs": [],
      "stateMutability": "nonpayable",
      "type": "function"
    },
    {
      "inputs": [
        {
          "internalType": "address",
          "name": "_token",
          "type": "address"
        }
      ],
      "name": "bindToken",
      "outputs": [],
      "stateMutability": "nonpayable",
      "type": "function"
    },
    {
      "inputs": [
        {
          "internalType": "address",
          "name": "_from",
          "type": "address"
        },
        {
          "internalType": "address",
          "name": "_to",
          "type": "address"
        },
        {
          "internalType": "uint256",
          "name": "_value",
          "type": "uint256"
        }
      ],
      "name": "canTransfer",
      "outputs": [
        {
          "internalType": "bool",
          "name": "",
          "type": "bool"
        }
      ],
      "stateMutability": "view",
      "type": "function"
    },
    {
      "inputs": [
        {
          "internalType": "address",
          "name": "_from",
          "type": "address"
        },
        {
          "internalType": "address",
          "name": "",
          "type": "address"
        },
        {
          "internalType": "uint256",
          "name": "_value",
          "type": "uint256"
        }
      ],
      "name": "complianceCheckOnDayMonthLimits",
      "outputs": [
        {
          "internalType": "bool",
          "name": "",
          "type": "bool"
        }
      ],
      "stateMutability": "view",
      "type": "function"
    },
    {
      "inputs": [
        {
          "internalType": "address",
          "name": "_to",
          "type": "address"
        },
        {
          "internalType": "uint256",
          "name": "_value",
          "type": "uint256"
        }
      ],
      "name": "created",
      "outputs": [],
      "stateMutability": "nonpayable",
      "type": "function"
    },
    {
      "inputs": [],
      "name": "dailyLimit",
      "outputs": [
        {
          "internalType": "uint256",
          "name": "",
          "type": "uint256"
        }
      ],
      "stateMutability": "view",
      "type": "function"
    },
    {
      "inputs": [
        {
          "internalType": "address",
          "name": "_from",
          "type": "address"
        },
        {
          "internalType": "uint256",
          "name": "_value",
          "type": "uint256"
        }
      ],
      "name": "destroyed",
      "outputs": [],
      "stateMutability": "nonpayable",
      "type": "function"
    },
    {
      "inputs": [
        {
          "internalType": "address",
          "name": "_agent",
          "type": "address"
        }
      ],
      "name": "isAgent",
      "outputs": [
        {
          "internalType": "bool",
          "name": "",
          "type": "bool"
        }
      ],
      "stateMutability": "view",
      "type": "function"
    },
    {
      "inputs": [
        {
          "internalType": "address",
          "name": "_agentAddress",
          "type": "address"
        }
      ],
      "name": "isTokenAgent",
      "outputs": [
        {
          "internalType": "bool",
          "name": "",
          "type": "bool"
        }
      ],
      "stateMutability": "view",
      "type": "function"
    },
    {
      "inputs": [
        {
          "internalType": "address",
          "name": "_token",
          "type": "address"
        }
      ],
      "name": "isTokenBound",
      "outputs": [
        {
          "internalType": "bool",
          "name": "",
          "type": "bool"
        }
      ],
      "stateMutability": "view",
      "type": "function"
    },
    {
      "inputs": [],
      "name": "monthlyLimit",
      "outputs": [
        {
          "internalType": "uint256",
          "name": "",
          "type": "uint256"
        }
      ],
      "stateMutability": "view",
      "type": "function"
    },
    {
      "inputs": [],
      "name": "owner",
      "outputs": [
        {
          "internalType": "address",
          "name": "",
          "type": "address"
        }
      ],
      "stateMutability": "view",
      "type": "function"
    },
    {
      "inputs": [
        {
          "internalType": "address",
          "name": "_agent",
          "type": "address"
        }
      ],
      "name": "removeAgent",
      "outputs": [],
      "stateMutability": "nonpayable",
      "type": "function"
    },
    {
      "inputs": [
        {
          "internalType": "address",
          "name": "_agentAddress",
          "type": "address"
        }
      ],
      "name": "removeTokenAgent",
      "outputs": [],
      "stateMutability": "nonpayable",
      "type": "function"
    },
    {
      "inputs": [],
      "name": "renounceOwnership",
      "outputs": [],
      "stateMutability": "nonpayable",
      "type": "function"
    },
    {
      "inputs": [
        {
          "internalType": "uint256",
          "name": "_newDailyLimit",
          "type": "uint256"
        }
      ],
      "name": "setDailyLimit",
      "outputs": [],
      "stateMutability": "nonpayable",
      "type": "function"
    },
    {
      "inputs": [
        {
          "internalType": "uint256",
          "name": "_newMonthlyLimit",
          "type": "uint256"
        }
      ],
      "name": "setMonthlyLimit",
      "outputs": [],
      "stateMutability": "nonpayable",
      "type": "function"
    },
    {
      "inputs": [],
      "name": "tokenBound",
      "outputs": [
        {
          "internalType": "contract IToken",
          "name": "",
          "type": "address"
        }
      ],
      "stateMutability": "view",
      "type": "function"
    },
    {
      "inputs": [
        {
          "internalType": "address",
          "name": "newOwner",
          "type": "address"
        }
      ],
      "name": "transferOwnership",
      "outputs": [],
      "stateMutability": "nonpayable",
      "type": "function"
    },
    {
      "inputs": [
        {
          "internalType": "address",
          "name": "_from",
          "type": "address"
        },
        {
          "internalType": "address",
          "name": "_to",
          "type": "address"
        },
        {
          "internalType": "uint256",
          "name": "_value",
          "type": "uint256"
        }
      ],
      "name": "transferred",
      "outputs": [],
      "stateMutability": "nonpayable",
      "type": "function"
    },
    {
      "inputs": [
        {
          "internalType": "address",
          "name": "_token",
          "type": "address"
        }
      ],
      "name": "unbindToken",
      "outputs": [],
      "stateMutability": "nonpayable",
      "type": "function"
    },
    {
      "inputs": [
        {
          "internalType": "address",
          "name": "",
          "type": "address"
        }
      ],
      "name": "usersCounters",
      "outputs": [
        {
          "internalType": "uint256",
          "name": "dailyCount",
          "type": "uint256"
        },
        {
          "internalType": "uint256",
          "name": "monthlyCount",
          "type": "uint256"
        },
        {
          "internalType": "uint256",
          "name": "dailyTimer",
          "type": "uint256"
        },
        {
          "internalType": "uint256",
          "name": "monthlyTimer",
          "type": "uint256"
        }
      ],
      "stateMutability": "view",
      "type": "function"
    }
  ],
  "bytecode": "0x608060405234801561001057600080fd5b50338061003757604051631e4fbdf760e01b81526000600482015260240160405180910390fd5b61004081610046565b50610096565b600080546001600160a01b038381166001600160a01b0319831681178455604051919092169283917f8be0079c531659141344cd1fd0a4f28419497f9722a3daafe3b4186f6b6457e09190a35050565b611149806100a56000396000f3fe608060405234801561001057600080fd5b506004361061014d5760003560e01c80638baf29b4116100c3578063b20d30a91161007c578063b20d30a9146102d1578063cdde2932146102e4578063e46638e6146102f7578063f2fde38b1461030a578063f3533c351461031d578063ff3e69541461033057600080fd5b80638baf29b41461026b5780638d2ea772146102345780638da5cb5b1461027e57806393e62f071461029857806397a6278e146102ab578063993e8b95146102be57600080fd5b806340db3b501161011557806340db3b501461020e5780635786cdd1146102215780635f8dead31461023457806367eeba0c14610247578063715018a61461025057806384e798421461025857600080fd5b80630a6005da146101525780631ffbb0641461016e578063346531fa146101915780633eb33f18146101a45780633ff5aa02146101f9575b600080fd5b61015b60055481565b6040519081526020015b60405180910390f35b61018161017c366004610f24565b610343565b6040519015158152602001610165565b61018161019f366004610f24565b610356565b6101d96101b2366004610f24565b60066020526000908152604090208054600182015460028301546003909301549192909184565b604080519485526020850193909352918301526060820152608001610165565b61020c610207366004610f24565b610402565b005b61020c61021c366004610f24565b6104c1565b61018161022f366004610f41565b6105a4565b61020c610242366004610f82565b6106ab565b61015b60045481565b61020c6106d3565b61020c610266366004610f24565b6106e7565b61020c610279366004610f41565b610757565b6000546001600160a01b03165b6040516101659190610fae565b60035461028b906001600160a01b031681565b61020c6102b9366004610f24565b61078b565b6101816102cc366004610f24565b6107fb565b61020c6102df366004610fc2565b61081b565b61020c6102f2366004610f24565b610858565b610181610305366004610f41565b610918565b61020c610318366004610f24565b61093b565b61020c61032b366004610fc2565b610979565b61020c61033e366004610f24565b6109b6565b6000610350600183610a7a565b92915050565b6001600160a01b03811660009081526002602052604081205460ff161580156103ed57506003546040516307feec1960e21b81526001600160a01b0390911690631ffbb064906103aa908590600401610fae565b602060405180830381865afa1580156103c7573d6000803e3d6000fd5b505050506040513d601f19601f820116820180604052508101906103eb9190610fdb565b155b156103fa57506000919050565b506001919050565b336104156000546001600160a01b031690565b6001600160a01b0316148061044657506003546001600160a01b03161580156104465750336001600160a01b038216145b61046b5760405162461bcd60e51b815260040161046290610ffd565b60405180910390fd5b600380546001600160a01b0319166001600160a01b0383161790556040517f2de35142b19ed5a07796cf30791959c592018f70b1d2d7c460eef8ffe713692b906104b6908390610fae565b60405180910390a150565b336104d46000546001600160a01b031690565b6001600160a01b031614806104f15750336001600160a01b038216145b61050d5760405162461bcd60e51b815260040161046290610ffd565b6003546001600160a01b038281169116146105645760405162461bcd60e51b8152602060048201526017602482015276151a1a5cc81d1bdad95b881a5cc81b9bdd08189bdd5b99604a1b6044820152606401610462565b600380546001600160a01b03191690556040517f28a4ca7134a3b3f9aff286e79ad3daadb4a06d1b43d037a3a98bdc074edd9b7a906104b6908390610fae565b6000806105b085610afd565b90506105bb85610356565b61069e576004548311156105d35760009150506106a4565b6105dc81610bd7565b15801561063e57506004546001600160a01b03821660009081526006602052604090205461060b908590611034565b118061063e57506005546001600160a01b03821660009081526006602052604090206001015461063c908590611034565b115b1561064d5760009150506106a4565b61065681610bd7565b801561068857506005546001600160a01b0382166000908152600660205260409020600101546106869085611034565b115b1561069e5761069681610bf8565b9150506106a4565b60019150505b9392505050565b6106b3610c19565b6106cf5760405162461bcd60e51b815260040161046290611055565b5050565b6106db610c29565b6106e56000610c56565b565b6106ef610c29565b6001600160a01b0381166107155760405162461bcd60e51b8152600401610462906110bf565b610720600182610ca6565b6040516001600160a01b038216907ff68e73cec97f2d70aa641fb26e87a4383686e2efacb648f2165aeb02ac562ec590600090a250565b61075f610c19565b61077b5760405162461bcd60e51b815260040161046290611055565b610786838383610d22565b505050565b610793610c29565b6001600160a01b0381166107b95760405162461bcd60e51b8152600401610462906110bf565b6107c4600182610d2c565b6040516001600160a01b038216907fed9c8ad8d5a0a66898ea49d2956929c93ae2e8bd50281b2ed897c5d1a6737e0b90600090a250565b6003546000906001600160a01b038381169116146103fa57506000919050565b610823610c29565b60048190556040518181527f6cd8635c4285386b9de2e59a4c1eaf32ad41f28ae64c308280217d7af51464e0906020016104b6565b610860610c29565b6001600160a01b03811660009081526002602052604090205460ff166108c85760405162461bcd60e51b815260206004820181905260248201527f54686973204167656e74206973206e6f742072656769737465726564207965746044820152606401610462565b6001600160a01b03811660009081526002602052604090819020805460ff19169055517f6a659bb87bb23efbdc295f8eed8ae8c4379bfb77660ced2ef0f3d7d26b05c6a6906104b6908390610fae565b60006109258484846105a4565b610931575060006106a4565b5060019392505050565b610943610c29565b6001600160a01b03811661096d576000604051631e4fbdf760e01b81526004016104629190610fae565b61097681610c56565b50565b610981610c29565b60058190556040518181527fa07146b9a6c51d225299132338965ae84effc4d198b875827574655eb59eb2a8906020016104b6565b6109be610c29565b6001600160a01b03811660009081526002602052604090205460ff1615610a275760405162461bcd60e51b815260206004820181905260248201527f54686973204167656e7420697320616c726561647920726567697374657265646044820152606401610462565b6001600160a01b03811660009081526002602052604090819020805460ff19166001179055517fd62c45e13ac30396aceb3ad37c89bd1ba9048032fe61679000e92eb93dbfd67d906104b6908390610fae565b60006001600160a01b038216610add5760405162461bcd60e51b815260206004820152602260248201527f526f6c65733a206163636f756e7420697320746865207a65726f206164647265604482015261737360f01b6064820152608401610462565b506001600160a01b03166000908152602091909152604090205460ff1690565b600354604080516304d3863d60e21b815290516000926001600160a01b03169163134e18f49160048083019260209291908290030181865afa158015610b47573d6000803e3d6000fd5b505050506040513d601f19601f82011682018060405250810190610b6b91906110f6565b6001600160a01b031663f0eb5e54836040518263ffffffff1660e01b8152600401610b969190610fae565b602060405180830381865afa158015610bb3573d6000803e3d6000fd5b505050506040513d601f19601f8201168201806040525081019061035091906110f6565b6001600160a01b031660009081526006602052604090206002015442101590565b6001600160a01b031660009081526006602052604090206003015442101590565b6000610c24336107fb565b905090565b6000546001600160a01b031633146106e5573360405163118cdaa760e01b81526004016104629190610fae565b600080546001600160a01b038381166001600160a01b0319831681178455604051919092169283917f8be0079c531659141344cd1fd0a4f28419497f9722a3daafe3b4186f6b6457e09190a35050565b610cb08282610a7a565b15610cfd5760405162461bcd60e51b815260206004820152601f60248201527f526f6c65733a206163636f756e7420616c72656164792068617320726f6c65006044820152606401610462565b6001600160a01b0316600090815260209190915260409020805460ff19166001179055565b6107868382610dae565b610d368282610a7a565b610d8c5760405162461bcd60e51b815260206004820152602160248201527f526f6c65733a206163636f756e7420646f6573206e6f74206861766520726f6c6044820152606560f81b6064820152608401610462565b6001600160a01b0316600090815260209190915260409020805460ff19169055565b6000610db983610afd565b9050610dc481610e8b565b610dcd81610ecb565b6004546001600160a01b038216600090815260066020526040902054610df4908490611034565b11610e27576001600160a01b03811660009081526006602052604081208054849290610e21908490611034565b90915550505b6005546001600160a01b038216600090815260066020526040902060010154610e51908490611034565b11610786576001600160a01b03811660009081526006602052604081206001018054849290610e81908490611034565b9091555050505050565b610e9481610bd7565b1561097657610ea64262015180611034565b6001600160a01b03821660009081526006602052604081206002810192909255905550565b610ed481610bf8565b1561097657610ee64262278d00611034565b6001600160a01b0382166000908152600660205260408120600381019290925560019091015550565b6001600160a01b038116811461097657600080fd5b600060208284031215610f3657600080fd5b81356106a481610f0f565b600080600060608486031215610f5657600080fd5b8335610f6181610f0f565b92506020840135610f7181610f0f565b929592945050506040919091013590565b60008060408385031215610f9557600080fd5b8235610fa081610f0f565b946020939093013593505050565b6001600160a01b0391909116815260200190565b600060208284031215610fd457600080fd5b5035919050565b600060208284031215610fed57600080fd5b815180151581146106a457600080fd5b6020808252601c908201527f6f6e6c79206f776e6572206f7220746f6b656e2063616e2063616c6c00000000604082015260600190565b8082018082111561035057634e487b7160e01b600052601160045260246000fd5b60208082526044908201527f6572726f72203a20746869732061646472657373206973206e6f74206120746f60408201527f6b656e20626f756e6420746f2074686520636f6d706c69616e636520636f6e746060820152631c9858dd60e21b608082015260a00190565b6020808252601f908201527f696e76616c696420617267756d656e74202d207a65726f206164647265737300604082015260600190565b60006020828403121561110857600080fd5b81516106a481610f0f56fea26469706673582212206458ccb55121f9b5b6d2daa4178b993a72f9826ade1f6fac31b751c5e38dbb6c64736f6c63430008180033",
  "linkReferences": {},
  "deployedLinkReferences": {}
}