{
  "_format": "hh-sol-artifact-1",
  "contractName": "DefaultCompliance",
  "sourceName": "contracts/erc3643/compliance/legacy/DefaultCompliance.sol",
  "abi": [
    {
      "inputs": [
        {
          "internalType": "address",
          "name": "owner",
          "type": "address"
        }
      ],
      "name": "OwnableInvalidOwner",
      "type": "error"
    },
    {
      "inputs": [
        {
          "internalType": "address",
          "name": "account",
          "type": "address"
        }
      ],
      "name": "OwnableUnauthorizedAccount",
      "type": "error"
    },
    {
      "anonymous": false,
      "inputs": [
        {
          "indexed": true,
          "internalType": "address",
          "name": "_agent",
          "type": "address"
        }
      ],
      "name": "AgentAdded",
      "type": "event"
    },
    {
      "anonymous": false,
      "inputs": [
        {
          "indexed": true,
          "internalType": "address",
          "name": "_agent",
          "type": "address"
        }
      ],
      "name": "AgentRemoved",
      "type": "event"
    },
    {
      "anonymous": false,
      "inputs": [
        {
          "indexed": true,
          "internalType": "address",
          "name": "previousOwner",
          "type": "address"
        },
        {
          "indexed": true,
          "internalType": "address",
          "name": "newOwner",
          "type": "address"
        }
      ],
      "name": "OwnershipTransferred",
      "type": "event"
    },
    {
      "anonymous": false,
      "inputs": [
        {
          "indexed": false,
          "internalType": "address",
          "name": "_agentAddress",
          "type": "address"
        }
      ],
      "name": "TokenAgentAdded",
      "type": "event"
    },
    {
      "anonymous": false,
      "inputs": [
        {
          "indexed": false,
          "internalType": "address",
          "name": "_agentAddress",
          "type": "address"
        }
      ],
      "name": "TokenAgentRemoved",
      "type": "event"
    },
    {
      "anonymous": false,
      "inputs": [
        {
          "indexed": false,
          "internalType": "address",
          "name": "_token",
          "type": "address"
        }
      ],
      "name": "TokenBound",
      "type": "event"
    },
    {
      "anonymous": false,
      "inputs": [
        {
          "indexed": false,
          "internalType": "address",
          "name": "_token",
          "type": "address"
        }
      ],
      "name": "TokenUnbound",
      "type": "event"
    },
    {
      "inputs": [
        {
          "internalType": "address",
          "name": "_agent",
          "type": "address"
        }
      ],
      "name": "addAgent",
      "outputs": [],
      "stateMutability": "nonpayable",
      "type": "function"
    },
    {
      "inputs": [
        {
          "internalType": "address",
          "name": "_agentAddress",
          "type": "address"
        }
      ],
      "name": "addTokenAgent",
      "outputs": [],
      "stateMutability": "nonpayable",
      "type": "function"
    },
    {
      "inputs": [
        {
          "internalType": "address",
          "name": "_token",
          "type": "address"
        }
      ],
      "name": "bindToken",
      "outputs": [],
      "stateMutability": "nonpayable",
      "type": "function"
    },
    {
      "inputs": [
        {
          "internalType": "address",
          "name": "",
          "type": "address"
        },
        {
          "internalType": "address",
          "name": "",
          "type": "address"
        },
        {
          "internalType": "uint256",
          "name": "",
          "type": "uint256"
        }
      ],
      "name": "canTransfer",
      "outputs": [
        {
          "internalType": "bool",
          "name": "",
          "type": "bool"
        }
      ],
      "stateMutability": "view",
      "type": "function"
    },
    {
      "inputs": [
        {
          "internalType": "address",
          "name": "_to",
          "type": "address"
        },
        {
          "internalType": "uint256",
          "name": "_value",
          "type": "uint256"
        }
      ],
      "name": "created",
      "outputs": [],
      "stateMutability": "nonpayable",
      "type": "function"
    },
    {
      "inputs": [
        {
          "internalType": "address",
          "name": "_from",
          "type": "address"
        },
        {
          "internalType": "uint256",
          "name": "_value",
          "type": "uint256"
        }
      ],
      "name": "destroyed",
      "outputs": [],
      "stateMutability": "nonpayable",
      "type": "function"
    },
    {
      "inputs": [
        {
          "internalType": "address",
          "name": "_agent",
          "type": "address"
        }
      ],
      "name": "isAgent",
      "outputs": [
        {
          "internalType": "bool",
          "name": "",
          "type": "bool"
        }
      ],
      "stateMutability": "view",
      "type": "function"
    },
    {
      "inputs": [
        {
          "internalType": "address",
          "name": "_agentAddress",
          "type": "address"
        }
      ],
      "name": "isTokenAgent",
      "outputs": [
        {
          "internalType": "bool",
          "name": "",
          "type": "bool"
        }
      ],
      "stateMutability": "view",
      "type": "function"
    },
    {
      "inputs": [
        {
          "internalType": "address",
          "name": "_token",
          "type": "address"
        }
      ],
      "name": "isTokenBound",
      "outputs": [
        {
          "internalType": "bool",
          "name": "",
          "type": "bool"
        }
      ],
      "stateMutability": "view",
      "type": "function"
    },
    {
      "inputs": [],
      "name": "owner",
      "outputs": [
        {
          "internalType": "address",
          "name": "",
          "type": "address"
        }
      ],
      "stateMutability": "view",
      "type": "function"
    },
    {
      "inputs": [
        {
          "internalType": "address",
          "name": "_agent",
          "type": "address"
        }
      ],
      "name": "removeAgent",
      "outputs": [],
      "stateMutability": "nonpayable",
      "type": "function"
    },
    {
      "inputs": [
        {
          "internalType": "address",
          "name": "_agentAddress",
          "type": "address"
        }
      ],
      "name": "removeTokenAgent",
      "outputs": [],
      "stateMutability": "nonpayable",
      "type": "function"
    },
    {
      "inputs": [],
      "name": "renounceOwnership",
      "outputs": [],
      "stateMutability": "nonpayable",
      "type": "function"
    },
    {
      "inputs": [],
      "name": "tokenBound",
      "outputs": [
        {
          "internalType": "contract IToken",
          "name": "",
          "type": "address"
        }
      ],
      "stateMutability": "view",
      "type": "function"
    },
    {
      "inputs": [
        {
          "internalType": "address",
          "name": "newOwner",
          "type": "address"
        }
      ],
      "name": "transferOwnership",
      "outputs": [],
      "stateMutability": "nonpayable",
      "type": "function"
    },
    {
      "inputs": [
        {
          "internalType": "address",
          "name": "_from",
          "type": "address"
        },
        {
          "internalType": "address",
          "name": "_to",
          "type": "address"
        },
        {
          "internalType": "uint256",
          "name": "_value",
          "type": "uint256"
        }
      ],
      "name": "transferred",
      "outputs": [],
      "stateMutability": "nonpayable",
      "type": "function"
    },
    {
      "inputs": [
        {
          "internalType": "address",
          "name": "_token",
          "type": "address"
        }
      ],
      "name": "unbindToken",
      "outputs": [],
      "stateMutability": "nonpayable",
      "type": "function"
    }
  ],
  "bytecode": "0x608060405234801561001057600080fd5b50338061003757604051631e4fbdf760e01b81526000600482015260240160405180910390fd5b61004081610046565b50610096565b600080546001600160a01b038381166001600160a01b0319831681178455604051919092169283917f8be0079c531659141344cd1fd0a4f28419497f9722a3daafe3b4186f6b6457e09190a35050565b610ae9806100a56000396000f3fe608060405234801561001057600080fd5b50600436106100eb5760003560e01c80638d2ea772116100925780638d2ea772146101535780638da5cb5b1461019357806393e62f07146101ad57806397a6278e146101c0578063993e8b95146101d3578063cdde2932146101e6578063e46638e6146101f9578063f2fde38b14610210578063ff3e69541461022357600080fd5b80631ffbb064146100f0578063346531fa146101185780633ff5aa021461012b57806340db3b50146101405780635f8dead314610153578063715018a61461016557806384e798421461016d5780638baf29b414610180575b600080fd5b6101036100fe366004610987565b610236565b60405190151581526020015b60405180910390f35b610103610126366004610987565b610249565b61013e610139366004610987565b6102f5565b005b61013e61014e366004610987565b6103b4565b61013e6101613660046109a9565b5050565b61013e610497565b61013e61017b366004610987565b6104ab565b61013e61018e3660046109d3565b505050565b6000546001600160a01b03165b60405161010f9190610a0f565b6003546101a0906001600160a01b031681565b61013e6101ce366004610987565b61051b565b6101036101e1366004610987565b61058b565b61013e6101f4366004610987565b6105ab565b6101036102073660046109d3565b60019392505050565b61013e61021e366004610987565b61066b565b61013e610231366004610987565b6106a9565b600061024360018361076d565b92915050565b6001600160a01b03811660009081526002602052604081205460ff161580156102e057506003546040516307feec1960e21b81526001600160a01b0390911690631ffbb0649061029d908590600401610a0f565b602060405180830381865afa1580156102ba573d6000803e3d6000fd5b505050506040513d601f19601f820116820180604052508101906102de9190610a23565b155b156102ed57506000919050565b506001919050565b336103086000546001600160a01b031690565b6001600160a01b0316148061033957506003546001600160a01b03161580156103395750336001600160a01b038216145b61035e5760405162461bcd60e51b815260040161035590610a45565b60405180910390fd5b600380546001600160a01b0319166001600160a01b0383161790556040517f2de35142b19ed5a07796cf30791959c592018f70b1d2d7c460eef8ffe713692b906103a9908390610a0f565b60405180910390a150565b336103c76000546001600160a01b031690565b6001600160a01b031614806103e45750336001600160a01b038216145b6104005760405162461bcd60e51b815260040161035590610a45565b6003546001600160a01b038281169116146104575760405162461bcd60e51b8152602060048201526017602482015276151a1a5cc81d1bdad95b881a5cc81b9bdd08189bdd5b99604a1b6044820152606401610355565b600380546001600160a01b03191690556040517f28a4ca7134a3b3f9aff286e79ad3daadb4a06d1b43d037a3a98bdc074edd9b7a906103a9908390610a0f565b61049f6107f0565b6104a9600061081d565b565b6104b36107f0565b6001600160a01b0381166104d95760405162461bcd60e51b815260040161035590610a7c565b6104e460018261086d565b6040516001600160a01b038216907ff68e73cec97f2d70aa641fb26e87a4383686e2efacb648f2165aeb02ac562ec590600090a250565b6105236107f0565b6001600160a01b0381166105495760405162461bcd60e51b815260040161035590610a7c565b6105546001826108e9565b6040516001600160a01b038216907fed9c8ad8d5a0a66898ea49d2956929c93ae2e8bd50281b2ed897c5d1a6737e0b90600090a250565b6003546000906001600160a01b038381169116146102ed57506000919050565b6105b36107f0565b6001600160a01b03811660009081526002602052604090205460ff1661061b5760405162461bcd60e51b815260206004820181905260248201527f54686973204167656e74206973206e6f742072656769737465726564207965746044820152606401610355565b6001600160a01b03811660009081526002602052604090819020805460ff19169055517f6a659bb87bb23efbdc295f8eed8ae8c4379bfb77660ced2ef0f3d7d26b05c6a6906103a9908390610a0f565b6106736107f0565b6001600160a01b03811661069d576000604051631e4fbdf760e01b81526004016103559190610a0f565b6106a68161081d565b50565b6106b16107f0565b6001600160a01b03811660009081526002602052604090205460ff161561071a5760405162461bcd60e51b815260206004820181905260248201527f54686973204167656e7420697320616c726561647920726567697374657265646044820152606401610355565b6001600160a01b03811660009081526002602052604090819020805460ff19166001179055517fd62c45e13ac30396aceb3ad37c89bd1ba9048032fe61679000e92eb93dbfd67d906103a9908390610a0f565b60006001600160a01b0382166107d05760405162461bcd60e51b815260206004820152602260248201527f526f6c65733a206163636f756e7420697320746865207a65726f206164647265604482015261737360f01b6064820152608401610355565b506001600160a01b03166000908152602091909152604090205460ff1690565b6000546001600160a01b031633146104a9573360405163118cdaa760e01b81526004016103559190610a0f565b600080546001600160a01b038381166001600160a01b0319831681178455604051919092169283917f8be0079c531659141344cd1fd0a4f28419497f9722a3daafe3b4186f6b6457e09190a35050565b610877828261076d565b156108c45760405162461bcd60e51b815260206004820152601f60248201527f526f6c65733a206163636f756e7420616c72656164792068617320726f6c65006044820152606401610355565b6001600160a01b0316600090815260209190915260409020805460ff19166001179055565b6108f3828261076d565b6109495760405162461bcd60e51b815260206004820152602160248201527f526f6c65733a206163636f756e7420646f6573206e6f74206861766520726f6c6044820152606560f81b6064820152608401610355565b6001600160a01b0316600090815260209190915260409020805460ff19169055565b80356001600160a01b038116811461098257600080fd5b919050565b60006020828403121561099957600080fd5b6109a28261096b565b9392505050565b600080604083850312156109bc57600080fd5b6109c58361096b565b946020939093013593505050565b6000806000606084860312156109e857600080fd5b6109f18461096b565b92506109ff6020850161096b565b9150604084013590509250925092565b6001600160a01b0391909116815260200190565b600060208284031215610a3557600080fd5b815180151581146109a257600080fd5b6020808252601c908201527f6f6e6c79206f776e6572206f7220746f6b656e2063616e2063616c6c00000000604082015260600190565b6020808252601f908201527f696e76616c696420617267756d656e74202d207a65726f20616464726573730060408201526060019056fea2646970667358221220d242325dc0d32d696d31f73a7d7960ee6b556afc43bd5ad5e749426a2b56108064736f6c63430008180033",
  "linkReferences": {},
  "deployedLinkReferences": {}
}