{
  "_format": "hh-sol-artifact-1",
  "contractName": "DLT",
  "sourceName": "contracts/erc3643/token-dlt/dlt/DLT.sol",
  "abi": [
    {
      "anonymous": false,
      "inputs": [
        {
          "indexed": true,
          "internalType": "address",
          "name": "owner",
          "type": "address"
        },
        {
          "indexed": true,
          "internalType": "address",
          "name": "spender",
          "type": "address"
        },
        {
          "indexed": false,
          "internalType": "int64",
          "name": "mainId",
          "type": "int64"
        },
        {
          "indexed": false,
          "internalType": "int64",
          "name": "subId",
          "type": "int64"
        },
        {
          "indexed": false,
          "internalType": "uint256",
          "name": "amount",
          "type": "uint256"
        }
      ],
      "name": "Approval",
      "type": "event"
    },
    {
      "anonymous": false,
      "inputs": [
        {
          "indexed": true,
          "internalType": "address",
          "name": "spender",
          "type": "address"
        },
        {
          "indexed": true,
          "internalType": "address",
          "name": "operator",
          "type": "address"
        },
        {
          "indexed": false,
          "internalType": "bool",
          "name": "approved",
          "type": "bool"
        }
      ],
      "name": "ApprovalForAll",
      "type": "event"
    },
    {
      "anonymous": false,
      "inputs": [
        {
          "indexed": true,
          "internalType": "address",
          "name": "sender",
          "type": "address"
        },
        {
          "indexed": true,
          "internalType": "address",
          "name": "recipient",
          "type": "address"
        },
        {
          "indexed": true,
          "internalType": "int64",
          "name": "mainId",
          "type": "int64"
        },
        {
          "indexed": false,
          "internalType": "int64",
          "name": "subId",
          "type": "int64"
        },
        {
          "indexed": false,
          "internalType": "uint256",
          "name": "amount",
          "type": "uint256"
        }
      ],
      "name": "Transfer",
      "type": "event"
    },
    {
      "anonymous": false,
      "inputs": [
        {
          "indexed": true,
          "internalType": "address",
          "name": "spender",
          "type": "address"
        },
        {
          "indexed": true,
          "internalType": "address",
          "name": "sender",
          "type": "address"
        },
        {
          "indexed": true,
          "internalType": "address",
          "name": "recipient",
          "type": "address"
        },
        {
          "indexed": false,
          "internalType": "int64[]",
          "name": "mainIds",
          "type": "int64[]"
        },
        {
          "indexed": false,
          "internalType": "int64[]",
          "name": "subIds",
          "type": "int64[]"
        },
        {
          "indexed": false,
          "internalType": "uint256[]",
          "name": "amounts",
          "type": "uint256[]"
        }
      ],
      "name": "TransferBatch",
      "type": "event"
    },
    {
      "anonymous": false,
      "inputs": [
        {
          "indexed": false,
          "internalType": "string",
          "name": "oldValue",
          "type": "string"
        },
        {
          "indexed": false,
          "internalType": "string",
          "name": "newValue",
          "type": "string"
        },
        {
          "indexed": true,
          "internalType": "int64",
          "name": "mainId",
          "type": "int64"
        }
      ],
      "name": "URI",
      "type": "event"
    },
    {
      "inputs": [
        {
          "internalType": "address",
          "name": "owner",
          "type": "address"
        },
        {
          "internalType": "address",
          "name": "spender",
          "type": "address"
        },
        {
          "internalType": "int64",
          "name": "mainId",
          "type": "int64"
        },
        {
          "internalType": "int64",
          "name": "subId",
          "type": "int64"
        }
      ],
      "name": "allowance",
      "outputs": [
        {
          "internalType": "uint256",
          "name": "",
          "type": "uint256"
        }
      ],
      "stateMutability": "view",
      "type": "function"
    },
    {
      "inputs": [
        {
          "internalType": "address",
          "name": "spender",
          "type": "address"
        },
        {
          "internalType": "int64",
          "name": "mainId",
          "type": "int64"
        },
        {
          "internalType": "int64",
          "name": "subId",
          "type": "int64"
        },
        {
          "internalType": "uint256",
          "name": "amount",
          "type": "uint256"
        }
      ],
      "name": "approve",
      "outputs": [
        {
          "internalType": "bool",
          "name": "",
          "type": "bool"
        }
      ],
      "stateMutability": "nonpayable",
      "type": "function"
    },
    {
      "inputs": [
        {
          "internalType": "address[]",
          "name": "accounts",
          "type": "address[]"
        },
        {
          "internalType": "int64[]",
          "name": "mainIds",
          "type": "int64[]"
        },
        {
          "internalType": "int64[]",
          "name": "subIds",
          "type": "int64[]"
        }
      ],
      "name": "balanceOfBatch",
      "outputs": [
        {
          "internalType": "uint256[]",
          "name": "",
          "type": "uint256[]"
        }
      ],
      "stateMutability": "view",
      "type": "function"
    },
    {
      "inputs": [
        {
          "internalType": "address",
          "name": "owner",
          "type": "address"
        },
        {
          "internalType": "address",
          "name": "operator",
          "type": "address"
        }
      ],
      "name": "isApprovedForAll",
      "outputs": [
        {
          "internalType": "bool",
          "name": "",
          "type": "bool"
        }
      ],
      "stateMutability": "view",
      "type": "function"
    },
    {
      "inputs": [
        {
          "internalType": "address",
          "name": "sender",
          "type": "address"
        },
        {
          "internalType": "address",
          "name": "recipient",
          "type": "address"
        },
        {
          "internalType": "int64[]",
          "name": "mainIds",
          "type": "int64[]"
        },
        {
          "internalType": "int64[]",
          "name": "subIds",
          "type": "int64[]"
        },
        {
          "internalType": "uint256[]",
          "name": "amounts",
          "type": "uint256[]"
        },
        {
          "internalType": "bytes",
          "name": "data",
          "type": "bytes"
        }
      ],
      "name": "safeBatchTransferFrom",
      "outputs": [
        {
          "internalType": "bool",
          "name": "",
          "type": "bool"
        }
      ],
      "stateMutability": "nonpayable",
      "type": "function"
    },
    {
      "inputs": [
        {
          "internalType": "address",
          "name": "sender",
          "type": "address"
        },
        {
          "internalType": "address",
          "name": "recipient",
          "type": "address"
        },
        {
          "internalType": "int64",
          "name": "mainId",
          "type": "int64"
        },
        {
          "internalType": "int64",
          "name": "subId",
          "type": "int64"
        },
        {
          "internalType": "uint256",
          "name": "amount",
          "type": "uint256"
        }
      ],
      "name": "safeTransferFrom",
      "outputs": [
        {
          "internalType": "bool",
          "name": "",
          "type": "bool"
        }
      ],
      "stateMutability": "nonpayable",
      "type": "function"
    },
    {
      "inputs": [
        {
          "internalType": "address",
          "name": "sender",
          "type": "address"
        },
        {
          "internalType": "address",
          "name": "recipient",
          "type": "address"
        },
        {
          "internalType": "int64",
          "name": "mainId",
          "type": "int64"
        },
        {
          "internalType": "int64",
          "name": "subId",
          "type": "int64"
        },
        {
          "internalType": "uint256",
          "name": "amount",
          "type": "uint256"
        },
        {
          "internalType": "bytes",
          "name": "data",
          "type": "bytes"
        }
      ],
      "name": "safeTransferFrom",
      "outputs": [
        {
          "internalType": "bool",
          "name": "",
          "type": "bool"
        }
      ],
      "stateMutability": "nonpayable",
      "type": "function"
    },
    {
      "inputs": [
        {
          "internalType": "address",
          "name": "operator",
          "type": "address"
        },
        {
          "internalType": "bool",
          "name": "approved",
          "type": "bool"
        }
      ],
      "name": "setApprovalForAll",
      "outputs": [],
      "stateMutability": "nonpayable",
      "type": "function"
    },
    {
      "inputs": [
        {
          "internalType": "address",
          "name": "account",
          "type": "address"
        },
        {
          "internalType": "int64",
          "name": "mainId",
          "type": "int64"
        },
        {
          "internalType": "int64",
          "name": "subId",
          "type": "int64"
        }
      ],
      "name": "subBalanceOf",
      "outputs": [
        {
          "internalType": "uint256",
          "name": "",
          "type": "uint256"
        }
      ],
      "stateMutability": "view",
      "type": "function"
    },
    {
      "inputs": [
        {
          "internalType": "address",
          "name": "sender",
          "type": "address"
        },
        {
          "internalType": "address",
          "name": "recipient",
          "type": "address"
        },
        {
          "internalType": "int64",
          "name": "mainId",
          "type": "int64"
        },
        {
          "internalType": "int64",
          "name": "subId",
          "type": "int64"
        },
        {
          "internalType": "uint256",
          "name": "amount",
          "type": "uint256"
        }
      ],
      "name": "transferFrom",
      "outputs": [
        {
          "internalType": "bool",
          "name": "",
          "type": "bool"
        }
      ],
      "stateMutability": "nonpayable",
      "type": "function"
    }
  ],
  "bytecode": "0x6080604052600a805460ff1916905534801561001a57600080fd5b506118248061002a6000396000f3fe608060405234801561001057600080fd5b506004361061009e5760003560e01c80639040fb13116100665780639040fb1314610157578063965e2e121461016a578063a22cb4651461018a578063e43bdfe11461019f578063e985e9c5146101b257600080fd5b806305ecb790146100a357806312849f01146100fb5780633523dc6c1461011e5780635f3d67741461013157806383eddad014610144575b600080fd5b6100e86100b1366004610fef565b600791820b60009081526003602090815260408083206001600160a01b039690961683529481528482209290930b81529152205490565b6040519081526020015b60405180910390f35b61010e6101093660046110c0565b6101c5565b60405190151581526020016100f2565b61010e61012c3660046111a8565b610335565b61010e61013f366004611204565b610360565b61010e6101523660046111a8565b6103c9565b61010e610165366004611265565b6103d8565b61017d610178366004611361565b6103f6565b6040516100f29190611437565b61019d61019836600461144a565b610564565b005b6100e86101ad366004611486565b610573565b61010e6101c03660046114da565b61058a565b6000336101d28c826105ba565b61023e5760405162461bcd60e51b815260206004820152603260248201527f444c543a2063616c6c6572206973206e6f7420746f6b656e206f776e6572206f6044820152711c88185c1c1c9bdd995908199bdc88185b1b60721b60648201526084015b60405180910390fd5b6103238c8c8c8c80806020026020016040519081016040528093929190818152602001838360200280828437600081840152601f19601f820116905080830192505050505050508b8b8080602002602001604051908101604052809392919081815260200183836020028082843760009201919091525050604080516020808f0282810182019093528e82529093508e92508d91829185019084908082843760009201919091525050604080516020601f8e018190048102820181019092528c815292508c91508b90819084018382808284376000920191909152506105e892505050565b5060019b9a5050505050505050505050565b60006103548686868686604051806020016040528060008152506108f1565b50600195945050505050565b6000336001600160a01b0386168190036103bc5760405162461bcd60e51b815260206004820152601e60248201527f444c543a20617070726f76616c20746f2063757272656e74206f776e657200006044820152606401610235565b610354818787878761091b565b60006103548686868686610a5f565b60006103e88787878787876108f1565b5060015b9695505050505050565b6060858414801561040657508582145b6104695760405162461bcd60e51b815260206004820152602e60248201527f444c543a206163636f756e74732c206d61696e49647320616e6420696473206c60448201526d0cadccee8d040dad2e6dac2e8c6d60931b6064820152608401610235565b60008667ffffffffffffffff8111156104845761048461124f565b6040519080825280602002602001820160405280156104ad578160200160208202803683370190505b50905060005b87811015610558576105338989838181106104d0576104d061150d565b90506020020160208101906104e59190611523565b8888848181106104f7576104f761150d565b905060200201602081019061050c919061153e565b87878581811061051e5761051e61150d565b90506020020160208101906100b1919061153e565b8282815181106105455761054561150d565b60209081029190910101526001016104b3565b50979650505050505050565b61056f338383610a90565b5050565b600061058185858585610b57565b95945050505050565b6001600160a01b0380831660009081526002602090815260408083209385168352929052205460ff165b92915050565b6000816001600160a01b0316836001600160a01b031614806105e157506105e1838361058a565b9392505050565b825184511480156105fa575081518451145b61065f5760405162461bcd60e51b815260206004820152603060248201527f444c543a206d61696e4964732c2073756249647320616e6420616d6f756e747360448201526f040d8cadccee8d040dad2e6dac2e8c6d60831b6064820152608401610235565b6001600160a01b0385166106855760405162461bcd60e51b815260040161023590611559565b3360005b85518110156108645760008682815181106106a6576106a661150d565b6020026020010151905060008683815181106106c4576106c461150d565b6020026020010151905060008684815181106106e2576106e261150d565b602002602001015190506000600360008560070b60070b815260200190815260200160002060008d6001600160a01b03166001600160a01b0316815260200190815260200160002060008460070b60070b81526020019081526020016000205490506107648c8c86868660405180602001604052806000815250505050505050565b818110156107845760405162461bcd60e51b81526004016102359061159a565b818103600360008660070b60070b815260200190815260200160002060008e6001600160a01b03166001600160a01b0316815260200190815260200160002060008560070b60070b81526020019081526020016000208190555081600360008660070b60070b815260200190815260200160002060008d6001600160a01b03166001600160a01b0316815260200190815260200160002060008560070b60070b8152602001908152602001600020600082825461084191906115e0565b909155505060408051602081019091526000905250505050806001019050610689565b50856001600160a01b0316876001600160a01b0316826001600160a01b03167f3d3612aedbab64ec845a17d1508b936b04c073ee96a02b84c355a7eb025a18d28888886040516108b693929190611635565b60405180910390a46108cc878787878787610b99565b6108e85760405162461bcd60e51b81526004016102359061166e565b50505050505050565b336108fc87826105ba565b61090d5761090d8782878787610c9b565b6108e8878787878787610d13565b6001600160a01b03851661097c5760405162461bcd60e51b815260206004820152602260248201527f444c543a20617070726f76652066726f6d20746865207a65726f206164647265604482015261737360f01b6064820152608401610235565b6001600160a01b0384166109d25760405162461bcd60e51b815260206004820181905260248201527f444c543a20617070726f766520746f20746865207a65726f20616464726573736044820152606401610235565b6001600160a01b038581166000818152600460209081526040808320948916808452948252808320600789810b8086529184528285209089900b808652908452938290208790558151908152918201929092529081018490527f20228d921cee20e1bee39b210de025b31c291c9a9eb96925595c91db3db75c329060600160405180910390a35050505050565b33610a6a86826105ba565b610a7b57610a7b8682868686610c9b565b610a888686868686610d4a565b505050505050565b816001600160a01b0316836001600160a01b031603610aea5760405162461bcd60e51b815260206004820152601660248201527522262a1d1030b8383937bb32903a379031b0b63632b960511b6044820152606401610235565b6001600160a01b03838116600081815260026020908152604080832094871680845294825291829020805460ff191686151590811790915591519182527f17307eab39ab6107e8899845ad3d59bd9653f200f220920489ca2b5937696c31910160405180910390a3505050565b6001600160a01b039384166000908152600460209081526040808320959096168252938452848120600793840b825284528481209190920b8252909152205490565b60006001600160a01b0386163b15610c93576040516383fbceb960e01b81526001600160a01b038716906383fbceb990610be19033908b908a908a908a908a90600401611700565b6020604051808303816000875af1925050508015610c1c575060408051601f3d908101601f19168201909252610c1991810190611773565b60015b610c79573d808015610c4a576040519150601f19603f3d011682016040523d82523d6000602084013e610c4f565b606091505b508051600003610c715760405162461bcd60e51b81526004016102359061166e565b805181602001fd5b6001600160e01b0319166383fbceb960e01b1490506103ec565b5060016103ec565b6000610ca986868686610b57565b90506000198114610a885781811015610d045760405162461bcd60e51b815260206004820152601b60248201527f444c543a20696e73756666696369656e7420616c6c6f77616e636500000000006044820152606401610235565b610a888686868686860361091b565b610d208686868686610d4a565b610d2e868686868686610ef6565b610a885760405162461bcd60e51b81526004016102359061166e565b6001600160a01b038516610dac5760405162461bcd60e51b815260206004820152602360248201527f444c543a207472616e736665722066726f6d20746865207a65726f206164647260448201526265737360e81b6064820152608401610235565b6001600160a01b038416610dd25760405162461bcd60e51b815260040161023590611559565b6040805160208082018352600091829052600786810b8352600382528383206001600160a01b038a16845282528383209086900b835290522054811115610e2b5760405162461bcd60e51b81526004016102359061159a565b600783810b60009081526003602090815260408083206001600160a01b03808b1685528184528285209588900b808652958452828520805488900390558916845282528083209383529290529081208054839290610e8a9084906115e0565b909155505060408051600784810b82526020820184905285900b916001600160a01b0380881692908916917fd3f5ba918fcf5f0ed2a6add09f440b150c54a8eba5a07bbba0695eea7bbf1efa910160405180910390a46040805160208101909152600090525050505050565b60006001600160a01b0386163b15610c9357604051630f18968560e01b81526001600160a01b03871690630f18968590610f3e9033908b908a908a908a908a9060040161179d565b6020604051808303816000875af1925050508015610f79575060408051601f3d908101601f19168201909252610f7691810190611773565b60015b610fa7573d808015610c4a576040519150601f19603f3d011682016040523d82523d6000602084013e610c4f565b6001600160e01b031916630f18968560e01b1490506103ec565b80356001600160a01b0381168114610fd857600080fd5b919050565b8035600781900b8114610fd857600080fd5b60008060006060848603121561100457600080fd5b61100d84610fc1565b925061101b60208501610fdd565b915061102960408501610fdd565b90509250925092565b60008083601f84011261104457600080fd5b50813567ffffffffffffffff81111561105c57600080fd5b6020830191508360208260051b850101111561107757600080fd5b9250929050565b60008083601f84011261109057600080fd5b50813567ffffffffffffffff8111156110a857600080fd5b60208301915083602082850101111561107757600080fd5b60008060008060008060008060008060c08b8d0312156110df57600080fd5b6110e88b610fc1565b99506110f660208c01610fc1565b985060408b013567ffffffffffffffff8082111561111357600080fd5b61111f8e838f01611032565b909a50985060608d013591508082111561113857600080fd5b6111448e838f01611032565b909850965060808d013591508082111561115d57600080fd5b6111698e838f01611032565b909650945060a08d013591508082111561118257600080fd5b5061118f8d828e0161107e565b915080935050809150509295989b9194979a5092959850565b600080600080600060a086880312156111c057600080fd5b6111c986610fc1565b94506111d760208701610fc1565b93506111e560408701610fdd565b92506111f360608701610fdd565b949793965091946080013592915050565b6000806000806080858703121561121a57600080fd5b61122385610fc1565b935061123160208601610fdd565b925061123f60408601610fdd565b9396929550929360600135925050565b634e487b7160e01b600052604160045260246000fd5b60008060008060008060c0878903121561127e57600080fd5b61128787610fc1565b955061129560208801610fc1565b94506112a360408801610fdd565b93506112b160608801610fdd565b92506080870135915060a087013567ffffffffffffffff808211156112d557600080fd5b818901915089601f8301126112e957600080fd5b8135818111156112fb576112fb61124f565b604051601f8201601f19908116603f011681019083821181831017156113235761132361124f565b816040528281528c602084870101111561133c57600080fd5b8260208601602083013760006020848301015280955050505050509295509295509295565b6000806000806000806060878903121561137a57600080fd5b863567ffffffffffffffff8082111561139257600080fd5b61139e8a838b01611032565b909850965060208901359150808211156113b757600080fd5b6113c38a838b01611032565b909650945060408901359150808211156113dc57600080fd5b506113e989828a01611032565b979a9699509497509295939492505050565b60008151808452602080850194506020840160005b8381101561142c57815187529582019590820190600101611410565b509495945050505050565b6020815260006105e160208301846113fb565b6000806040838503121561145d57600080fd5b61146683610fc1565b91506020830135801515811461147b57600080fd5b809150509250929050565b6000806000806080858703121561149c57600080fd5b6114a585610fc1565b93506114b360208601610fc1565b92506114c160408601610fdd565b91506114cf60608601610fdd565b905092959194509250565b600080604083850312156114ed57600080fd5b6114f683610fc1565b915061150460208401610fc1565b90509250929050565b634e487b7160e01b600052603260045260246000fd5b60006020828403121561153557600080fd5b6105e182610fc1565b60006020828403121561155057600080fd5b6105e182610fdd565b60208082526021908201527f444c543a207472616e7366657220746f20746865207a65726f206164647265736040820152607360f81b606082015260800190565b60208082526026908201527f444c543a20696e73756666696369656e742062616c616e636520666f7220747260408201526530b739b332b960d11b606082015260800190565b808201808211156105b457634e487b7160e01b600052601160045260246000fd5b60008151808452602080850194506020840160005b8381101561142c57815160070b87529582019590820190600101611616565b6060815260006116486060830186611601565b828103602084015261165a8186611601565b905082810360408401526103ec81856113fb565b6020808252602c908201527f444c543a207472616e7366657220746f206e6f6e20444c54526563656976657260408201526b1034b6b83632b6b2b73a32b960a11b606082015260800190565b6000815180845260005b818110156116e0576020818501810151868301820152016116c4565b506000602082860101526020601f19601f83011685010191505092915050565b6001600160a01b0387811682528616602082015260c06040820181905260009061172c90830187611601565b828103606084015261173e8187611601565b9050828103608084015261175281866113fb565b905082810360a084015261176681856116ba565b9998505050505050505050565b60006020828403121561178557600080fd5b81516001600160e01b0319811681146105e157600080fd5b6001600160a01b03878116825286166020820152600785810b604083015284900b60608201526080810183905260c060a082018190526000906117e2908301846116ba565b9897505050505050505056fea2646970667358221220747f4c732ac4f9d1755c22106d1be5be0d123a468ad4b895412f34bf3719aa6364736f6c63430008180033",
  "linkReferences": {},
  "deployedLinkReferences": {}
}