{
  "_format": "hh-sol-artifact-1",
  "contractName": "DLTReceiver",
  "sourceName": "contracts/erc6960/utils/DLTReceiver.sol",
  "abi": [
    {
      "inputs": [
        {
          "internalType": "address",
          "name": "",
          "type": "address"
        },
        {
          "internalType": "address",
          "name": "",
          "type": "address"
        },
        {
          "internalType": "int64[]",
          "name": "",
          "type": "int64[]"
        },
        {
          "internalType": "int64[]",
          "name": "",
          "type": "int64[]"
        },
        {
          "internalType": "uint256[]",
          "name": "",
          "type": "uint256[]"
        },
        {
          "internalType": "bytes",
          "name": "data",
          "type": "bytes"
        }
      ],
      "name": "onDLTBatchReceived",
      "outputs": [
        {
          "internalType": "bytes4",
          "name": "",
          "type": "bytes4"
        }
      ],
      "stateMutability": "nonpayable",
      "type": "function"
    },
    {
      "inputs": [
        {
          "internalType": "address",
          "name": "operator",
          "type": "address"
        },
        {
          "internalType": "address",
          "name": "from",
          "type": "address"
        },
        {
          "internalType": "int64",
          "name": "mainId",
          "type": "int64"
        },
        {
          "internalType": "int64",
          "name": "subId",
          "type": "int64"
        },
        {
          "internalType": "uint256",
          "name": "amount",
          "type": "uint256"
        },
        {
          "internalType": "bytes",
          "name": "data",
          "type": "bytes"
        }
      ],
      "name": "onDLTReceived",
      "outputs": [
        {
          "internalType": "bytes4",
          "name": "",
          "type": "bytes4"
        }
      ],
      "stateMutability": "nonpayable",
      "type": "function"
    }
  ],
  "bytecode": "0x608060405234801561001057600080fd5b506103d9806100206000396000f3fe608060405234801561001057600080fd5b50600436106100365760003560e01c80630f1896851461003b57806383fbceb914610079575b600080fd5b61005c610049366004610111565b630f18968560e01b979650505050505050565b6040516001600160e01b0319909116815260200160405180910390f35b61005c6100873660046102e1565b6383fbceb960e01b979650505050505050565b80356001600160a01b03811681146100b157600080fd5b919050565b8035600781900b81146100b157600080fd5b60008083601f8401126100da57600080fd5b50813567ffffffffffffffff8111156100f257600080fd5b60208301915083602082850101111561010a57600080fd5b9250929050565b600080600080600080600060c0888a03121561012c57600080fd5b6101358861009a565b96506101436020890161009a565b9550610151604089016100b6565b945061015f606089016100b6565b93506080880135925060a088013567ffffffffffffffff81111561018257600080fd5b61018e8a828b016100c8565b989b979a50959850939692959293505050565b634e487b7160e01b600052604160045260246000fd5b604051601f8201601f1916810167ffffffffffffffff811182821017156101e0576101e06101a1565b604052919050565b600067ffffffffffffffff821115610202576102026101a1565b5060051b60200190565b600082601f83011261021d57600080fd5b8135602061023261022d836101e8565b6101b7565b8083825260208201915060208460051b87010193508684111561025457600080fd5b602086015b848110156102775761026a816100b6565b8352918301918301610259565b509695505050505050565b600082601f83011261029357600080fd5b813560206102a361022d836101e8565b8083825260208201915060208460051b8701019350868411156102c557600080fd5b602086015b8481101561027757803583529183019183016102ca565b600080600080600080600060c0888a0312156102fc57600080fd5b6103058861009a565b96506103136020890161009a565b9550604088013567ffffffffffffffff8082111561033057600080fd5b61033c8b838c0161020c565b965060608a013591508082111561035257600080fd5b61035e8b838c0161020c565b955060808a013591508082111561037457600080fd5b6103808b838c01610282565b945060a08a013591508082111561039657600080fd5b5061018e8a828b016100c856fea2646970667358221220389468d745a6d1d83cb1c436ca69622f2494092edec8333b94b4859d9a1822c464736f6c63430008180033",
  "linkReferences": {},
  "deployedLinkReferences": {}
}