{
  "_format": "hh-sol-artifact-1",
  "contractName": "DLTReceiverRevertable",
  "sourceName": "contracts/erc6960/utils/DLTReceiverRevertable.sol",
  "abi": [
    {
      "inputs": [],
      "stateMutability": "nonpayable",
      "type": "constructor"
    },
    {
      "inputs": [
        {
          "internalType": "address",
          "name": "",
          "type": "address"
        },
        {
          "internalType": "address",
          "name": "",
          "type": "address"
        },
        {
          "internalType": "int64[]",
          "name": "",
          "type": "int64[]"
        },
        {
          "internalType": "int64[]",
          "name": "",
          "type": "int64[]"
        },
        {
          "internalType": "uint256[]",
          "name": "",
          "type": "uint256[]"
        },
        {
          "internalType": "bytes",
          "name": "data",
          "type": "bytes"
        }
      ],
      "name": "onDLTBatchReceived",
      "outputs": [
        {
          "internalType": "bytes4",
          "name": "",
          "type": "bytes4"
        }
      ],
      "stateMutability": "nonpayable",
      "type": "function"
    },
    {
      "inputs": [
        {
          "internalType": "address",
          "name": "operator",
          "type": "address"
        },
        {
          "internalType": "address",
          "name": "from",
          "type": "address"
        },
        {
          "internalType": "int64",
          "name": "mainId",
          "type": "int64"
        },
        {
          "internalType": "int64",
          "name": "subId",
          "type": "int64"
        },
        {
          "internalType": "uint256",
          "name": "amount",
          "type": "uint256"
        },
        {
          "internalType": "bytes",
          "name": "data",
          "type": "bytes"
        }
      ],
      "name": "onDLTReceived",
      "outputs": [
        {
          "internalType": "bytes4",
          "name": "",
          "type": "bytes4"
        }
      ],
      "stateMutability": "nonpayable",
      "type": "function"
    }
  ],
  "bytecode": "0x608060405234801561001057600080fd5b506103ff806100206000396000f3fe608060405234801561001057600080fd5b50600436106100365760003560e01c80630f1896851461003b57806383fbceb91461006b575b600080fd5b61004e610049366004610137565b610079565b6040516001600160e01b0319909116815260200160405180910390f35b61004e610049366004610307565b60405162461bcd60e51b8152602060048201526015602482015274444c54526563656976657252657665727461626c6560581b604482015260009060640160405180910390fd5b80356001600160a01b03811681146100d757600080fd5b919050565b8035600781900b81146100d757600080fd5b60008083601f84011261010057600080fd5b50813567ffffffffffffffff81111561011857600080fd5b60208301915083602082850101111561013057600080fd5b9250929050565b600080600080600080600060c0888a03121561015257600080fd5b61015b886100c0565b9650610169602089016100c0565b9550610177604089016100dc565b9450610185606089016100dc565b93506080880135925060a088013567ffffffffffffffff8111156101a857600080fd5b6101b48a828b016100ee565b989b979a50959850939692959293505050565b634e487b7160e01b600052604160045260246000fd5b604051601f8201601f1916810167ffffffffffffffff81118282101715610206576102066101c7565b604052919050565b600067ffffffffffffffff821115610228576102286101c7565b5060051b60200190565b600082601f83011261024357600080fd5b813560206102586102538361020e565b6101dd565b8083825260208201915060208460051b87010193508684111561027a57600080fd5b602086015b8481101561029d57610290816100dc565b835291830191830161027f565b509695505050505050565b600082601f8301126102b957600080fd5b813560206102c96102538361020e565b8083825260208201915060208460051b8701019350868411156102eb57600080fd5b602086015b8481101561029d57803583529183019183016102f0565b600080600080600080600060c0888a03121561032257600080fd5b61032b886100c0565b9650610339602089016100c0565b9550604088013567ffffffffffffffff8082111561035657600080fd5b6103628b838c01610232565b965060608a013591508082111561037857600080fd5b6103848b838c01610232565b955060808a013591508082111561039a57600080fd5b6103a68b838c016102a8565b945060a08a01359150808211156103bc57600080fd5b506101b48a828b016100ee56fea26469706673582212204efd5965ae498b57e4e430f6619ee636b142dc2ffe7d6612e63734c7c62a8ee764736f6c63430008180033",
  "linkReferences": {},
  "deployedLinkReferences": {}
}