{
  "_format": "hh-sol-artifact-1",
  "contractName": "DVATransferManager",
  "sourceName": "contracts/erc3643/DVA/DVATransferManager.sol",
  "abi": [
    {
      "inputs": [],
      "stateMutability": "nonpayable",
      "type": "constructor"
    },
    {
      "inputs": [
        {
          "internalType": "bytes32",
          "name": "_transferID",
          "type": "bytes32"
        }
      ],
      "name": "ApprovalsMustBeSequential",
      "type": "error"
    },
    {
      "inputs": [
        {
          "internalType": "bytes32",
          "name": "_transferID",
          "type": "bytes32"
        },
        {
          "internalType": "address",
          "name": "_approver",
          "type": "address"
        }
      ],
      "name": "ApproverNotFound",
      "type": "error"
    },
    {
      "inputs": [
        {
          "internalType": "address",
          "name": "_tokenAddress",
          "type": "address"
        }
      ],
      "name": "DVAManagerIsNotVerifiedForTheToken",
      "type": "error"
    },
    {
      "inputs": [
        {
          "internalType": "bytes32",
          "name": "_transferID",
          "type": "bytes32"
        }
      ],
      "name": "InvalidTransferID",
      "type": "error"
    },
    {
      "inputs": [
        {
          "internalType": "address",
          "name": "_tokenAddress",
          "type": "address"
        }
      ],
      "name": "OnlyTokenAgentCanCall",
      "type": "error"
    },
    {
      "inputs": [
        {
          "internalType": "bytes32",
          "name": "_transferID",
          "type": "bytes32"
        }
      ],
      "name": "OnlyTransferSenderCanCall",
      "type": "error"
    },
    {
      "inputs": [
        {
          "internalType": "address",
          "name": "_tokenAddress",
          "type": "address"
        },
        {
          "internalType": "address",
          "name": "_recipient",
          "type": "address"
        }
      ],
      "name": "RecipientIsNotVerified",
      "type": "error"
    },
    {
      "inputs": [
        {
          "internalType": "bytes32",
          "name": "_transferID",
          "type": "bytes32"
        }
      ],
      "name": "SignaturesCanNotBeEmpty",
      "type": "error"
    },
    {
      "inputs": [
        {
          "internalType": "address",
          "name": "_tokenAddress",
          "type": "address"
        }
      ],
      "name": "TokenIsNotRegistered",
      "type": "error"
    },
    {
      "inputs": [
        {
          "internalType": "bytes32",
          "name": "_transferID",
          "type": "bytes32"
        }
      ],
      "name": "TransferIsNotInPendingStatus",
      "type": "error"
    },
    {
      "anonymous": false,
      "inputs": [
        {
          "indexed": false,
          "internalType": "address",
          "name": "tokenAddress",
          "type": "address"
        },
        {
          "indexed": false,
          "internalType": "bool",
          "name": "includeRecipientApprover",
          "type": "bool"
        },
        {
          "indexed": false,
          "internalType": "bool",
          "name": "includeAgentApprover",
          "type": "bool"
        },
        {
          "indexed": false,
          "internalType": "bool",
          "name": "sequentialApproval",
          "type": "bool"
        },
        {
          "indexed": false,
          "internalType": "address[]",
          "name": "additionalApprovers",
          "type": "address[]"
        },
        {
          "indexed": false,
          "internalType": "bytes32",
          "name": "hash",
          "type": "bytes32"
        }
      ],
      "name": "ApprovalCriteriaSet",
      "type": "event"
    },
    {
      "anonymous": false,
      "inputs": [
        {
          "indexed": false,
          "internalType": "bytes32",
          "name": "transferID",
          "type": "bytes32"
        },
        {
          "indexed": false,
          "internalType": "bytes32",
          "name": "approvalCriteriaHash",
          "type": "bytes32"
        }
      ],
      "name": "TransferApprovalStateReset",
      "type": "event"
    },
    {
      "anonymous": false,
      "inputs": [
        {
          "indexed": false,
          "internalType": "bytes32",
          "name": "transferID",
          "type": "bytes32"
        },
        {
          "indexed": false,
          "internalType": "address",
          "name": "approver",
          "type": "address"
        }
      ],
      "name": "TransferApproved",
      "type": "event"
    },
    {
      "anonymous": false,
      "inputs": [
        {
          "indexed": false,
          "internalType": "bytes32",
          "name": "transferID",
          "type": "bytes32"
        }
      ],
      "name": "TransferCancelled",
      "type": "event"
    },
    {
      "anonymous": false,
      "inputs": [
        {
          "indexed": false,
          "internalType": "bytes32",
          "name": "transferID",
          "type": "bytes32"
        },
        {
          "indexed": false,
          "internalType": "address",
          "name": "tokenAddress",
          "type": "address"
        },
        {
          "indexed": false,
          "internalType": "address",
          "name": "sender",
          "type": "address"
        },
        {
          "indexed": false,
          "internalType": "address",
          "name": "recipient",
          "type": "address"
        },
        {
          "indexed": false,
          "internalType": "uint256",
          "name": "amount",
          "type": "uint256"
        }
      ],
      "name": "TransferCompleted",
      "type": "event"
    },
    {
      "anonymous": false,
      "inputs": [
        {
          "indexed": false,
          "internalType": "bytes32",
          "name": "transferID",
          "type": "bytes32"
        },
        {
          "indexed": false,
          "internalType": "address",
          "name": "tokenAddress",
          "type": "address"
        },
        {
          "indexed": false,
          "internalType": "address",
          "name": "sender",
          "type": "address"
        },
        {
          "indexed": false,
          "internalType": "address",
          "name": "recipient",
          "type": "address"
        },
        {
          "indexed": false,
          "internalType": "uint256",
          "name": "amount",
          "type": "uint256"
        },
        {
          "indexed": false,
          "internalType": "bytes32",
          "name": "approvalCriteriaHash",
          "type": "bytes32"
        }
      ],
      "name": "TransferInitiated",
      "type": "event"
    },
    {
      "anonymous": false,
      "inputs": [
        {
          "indexed": false,
          "internalType": "bytes32",
          "name": "transferID",
          "type": "bytes32"
        },
        {
          "indexed": false,
          "internalType": "address",
          "name": "rejectedBy",
          "type": "address"
        }
      ],
      "name": "TransferRejected",
      "type": "event"
    },
    {
      "inputs": [
        {
          "internalType": "bytes32",
          "name": "transferID",
          "type": "bytes32"
        }
      ],
      "name": "approveTransfer",
      "outputs": [],
      "stateMutability": "nonpayable",
      "type": "function"
    },
    {
      "inputs": [
        {
          "internalType": "uint256",
          "name": "_nonce",
          "type": "uint256"
        },
        {
          "internalType": "address",
          "name": "_sender",
          "type": "address"
        },
        {
          "internalType": "address",
          "name": "_recipient",
          "type": "address"
        },
        {
          "internalType": "uint256",
          "name": "_amount",
          "type": "uint256"
        }
      ],
      "name": "calculateTransferID",
      "outputs": [
        {
          "internalType": "bytes32",
          "name": "",
          "type": "bytes32"
        }
      ],
      "stateMutability": "pure",
      "type": "function"
    },
    {
      "inputs": [
        {
          "internalType": "bytes32",
          "name": "transferID",
          "type": "bytes32"
        }
      ],
      "name": "cancelTransfer",
      "outputs": [],
      "stateMutability": "nonpayable",
      "type": "function"
    },
    {
      "inputs": [
        {
          "internalType": "bytes32",
          "name": "transferID",
          "type": "bytes32"
        },
        {
          "components": [
            {
              "internalType": "uint8",
              "name": "v",
              "type": "uint8"
            },
            {
              "internalType": "bytes32",
              "name": "r",
              "type": "bytes32"
            },
            {
              "internalType": "bytes32",
              "name": "s",
              "type": "bytes32"
            }
          ],
          "internalType": "struct IDVATransferManager.Signature[]",
          "name": "signatures",
          "type": "tuple[]"
        }
      ],
      "name": "delegateApproveTransfer",
      "outputs": [],
      "stateMutability": "nonpayable",
      "type": "function"
    },
    {
      "inputs": [
        {
          "internalType": "address",
          "name": "tokenAddress",
          "type": "address"
        }
      ],
      "name": "getApprovalCriteria",
      "outputs": [
        {
          "components": [
            {
              "internalType": "bool",
              "name": "includeRecipientApprover",
              "type": "bool"
            },
            {
              "internalType": "bool",
              "name": "includeAgentApprover",
              "type": "bool"
            },
            {
              "internalType": "bool",
              "name": "sequentialApproval",
              "type": "bool"
            },
            {
              "internalType": "address[]",
              "name": "additionalApprovers",
              "type": "address[]"
            },
            {
              "internalType": "bytes32",
              "name": "hash",
              "type": "bytes32"
            }
          ],
          "internalType": "struct IDVATransferManager.ApprovalCriteria",
          "name": "",
          "type": "tuple"
        }
      ],
      "stateMutability": "view",
      "type": "function"
    },
    {
      "inputs": [
        {
          "internalType": "bytes32",
          "name": "transferID",
          "type": "bytes32"
        }
      ],
      "name": "getNextApprover",
      "outputs": [
        {
          "internalType": "address",
          "name": "nextApprover",
          "type": "address"
        },
        {
          "internalType": "bool",
          "name": "anyTokenAgent",
          "type": "bool"
        }
      ],
      "stateMutability": "view",
      "type": "function"
    },
    {
      "inputs": [],
      "name": "getNextTxNonce",
      "outputs": [
        {
          "internalType": "uint256",
          "name": "",
          "type": "uint256"
        }
      ],
      "stateMutability": "view",
      "type": "function"
    },
    {
      "inputs": [
        {
          "internalType": "bytes32",
          "name": "transferID",
          "type": "bytes32"
        }
      ],
      "name": "getTransfer",
      "outputs": [
        {
          "components": [
            {
              "internalType": "address",
              "name": "tokenAddress",
              "type": "address"
            },
            {
              "internalType": "address",
              "name": "sender",
              "type": "address"
            },
            {
              "internalType": "address",
              "name": "recipient",
              "type": "address"
            },
            {
              "internalType": "uint256",
              "name": "amount",
              "type": "uint256"
            },
            {
              "internalType": "enum IDVATransferManager.TransferStatus",
              "name": "status",
              "type": "uint8"
            },
            {
              "components": [
                {
                  "internalType": "address",
                  "name": "wallet",
                  "type": "address"
                },
                {
                  "internalType": "bool",
                  "name": "anyTokenAgent",
                  "type": "bool"
                },
                {
                  "internalType": "bool",
                  "name": "approved",
                  "type": "bool"
                }
              ],
              "internalType": "struct IDVATransferManager.Approver[]",
              "name": "approvers",
              "type": "tuple[]"
            },
            {
              "internalType": "bytes32",
              "name": "approvalCriteriaHash",
              "type": "bytes32"
            }
          ],
          "internalType": "struct IDVATransferManager.Transfer",
          "name": "",
          "type": "tuple"
        }
      ],
      "stateMutability": "view",
      "type": "function"
    },
    {
      "inputs": [
        {
          "internalType": "address",
          "name": "tokenAddress",
          "type": "address"
        },
        {
          "internalType": "address",
          "name": "recipient",
          "type": "address"
        },
        {
          "internalType": "uint256",
          "name": "amount",
          "type": "uint256"
        }
      ],
      "name": "initiateTransfer",
      "outputs": [],
      "stateMutability": "nonpayable",
      "type": "function"
    },
    {
      "inputs": [],
      "name": "name",
      "outputs": [
        {
          "internalType": "string",
          "name": "_name",
          "type": "string"
        }
      ],
      "stateMutability": "pure",
      "type": "function"
    },
    {
      "inputs": [
        {
          "internalType": "bytes32",
          "name": "transferID",
          "type": "bytes32"
        }
      ],
      "name": "rejectTransfer",
      "outputs": [],
      "stateMutability": "nonpayable",
      "type": "function"
    },
    {
      "inputs": [
        {
          "internalType": "address",
          "name": "tokenAddress",
          "type": "address"
        },
        {
          "internalType": "bool",
          "name": "includeRecipientApprover",
          "type": "bool"
        },
        {
          "internalType": "bool",
          "name": "includeAgentApprover",
          "type": "bool"
        },
        {
          "internalType": "bool",
          "name": "sequentialApproval",
          "type": "bool"
        },
        {
          "internalType": "address[]",
          "name": "additionalApprovers",
          "type": "address[]"
        }
      ],
      "name": "setApprovalCriteria",
      "outputs": [],
      "stateMutability": "nonpayable",
      "type": "function"
    }
  ],
  "bytecode": "0x608060405234801561001057600080fd5b5060006002556123a1806100256000396000f3fe608060405234801561001057600080fd5b50600436106100b45760003560e01c8063b329bf5c11610071578063b329bf5c14610170578063ba33984a14610183578063bc0755e114610196578063c341a1c2146101a9578063c38756cc146101bc578063dd1db9cf146101ee57600080fd5b806306fdde03146100b9578063260958a5146100f65780636e710bf3146101165780637087dbf91461012b5780637fbeb89c1461013d57806390906f9d14610150575b600080fd5b6040805180820182526012815271222b20aa3930b739b332b926b0b730b3b2b960711b602082015290516100ed9190611d12565b60405180910390f35b610109610104366004611d61565b610201565b6040516100ed9190611def565b610129610124366004611f39565b610389565b005b6002545b6040519081526020016100ed565b61012961014b366004611d61565b61061f565b61016361015e366004612025565b610a34565b6040516100ed9190612083565b61012961017e366004611d61565b610b3b565b610129610191366004611d61565b610cb4565b6101296101a43660046120d9565b610cf8565b61012f6101b736600461211a565b611057565b6101cf6101ca366004611d61565b6110b3565b604080516001600160a01b0390931683529015156020830152016100ed565b6101296101fc366004612162565b611172565b6040805160e08101825260008082526020820181905291810182905260608082018390526080820183905260a082015260c08101919091526000828152600160208181526040808420815160e08101835281546001600160a01b0390811682529482015485169381019390935260028101549093169082015260038083015460608301526004830154919291608084019160ff909116908111156102a7576102a7611d7a565b60038111156102b8576102b8611d7a565b815260200160058201805480602002602001604051908101604052809291908181526020016000905b8282101561033c57600084815260209081902060408051606081018252918501546001600160a01b038116835260ff600160a01b82048116151584860152600160a81b909104161515908201528252600190920191016102e1565b505050908252506006919091015460209091015280519091506001600160a01b03166103835760405163026c8dbb60e11b8152600481018490526024015b60405180910390fd5b92915050565b6040516307feec1960e21b81526001600160a01b03861690631ffbb064906103b590339060040161223c565b602060405180830381865afa1580156103d2573d6000803e3d6000fd5b505050506040513d601f19601f820116820180604052508101906103f69190612250565b6104155784604051636d0fd92960e01b815260040161037a919061223c565b846001600160a01b031663134e18f46040518163ffffffff1660e01b8152600401602060405180830381865afa158015610453573d6000803e3d6000fd5b505050506040513d601f19601f82011682018060405250810190610477919061226d565b6001600160a01b031663b9209e33306040518263ffffffff1660e01b81526004016104a2919061223c565b602060405180830381865afa1580156104bf573d6000803e3d6000fd5b505050506040513d601f19601f820116820180604052508101906104e39190612250565b61050257846040516379a7abb760e01b815260040161037a919061223c565b60008585858460405160200161051b949392919061228a565b60408051601f19818403018152828252805160209182012060a084018352881515845287151584830190815287151585850190815260608601888152608087018490526001600160a01b038d1660009081528086529590952086518154935192511515620100000262ff0000199315156101000261ff00199215159290921661ffff19909516949094171791909116919091178155925180519195506105c8926001850192910190611c58565b50608082015181600201559050507f690b0e7ac1907911c2428d54c3bdcaccd20f5c78b030cb2f008a75e590e99ac286868686868660405161060f969594939291906122c8565b60405180910390a1505050505050565b600061062a826112f0565b90506106368282611365565b1561063f575050565b80546001600160a01b0316600090815260208181526040808320815160a081018352815460ff80821615158352610100820481161515838701526201000090910416151581840152600182018054845181870281018701909552808552869592946060860193909291908301828280156106e257602002820191906000526020600020905b81546001600160a01b031681526001909101906020018083116106c4575b50505050508152602001600282015481525050905060005b60058401548110156108cf57600084600501828154811061071d5761071d612317565b60009182526020909120018054909150600160a81b900460ff161561074257506108c7565b6040805160e08101825286546001600160a01b039081168252600188015481166020830152600288015416918101919091526003808701546060830152600487015461089092918891608084019160ff909116908111156107a5576107a5611d7a565b60038111156107b6576107b6611d7a565b815260200160058201805480602002602001604051908101604052809291908181526020016000905b8282101561083a57600084815260209081902060408051606081018252918501546001600160a01b038116835260ff600160a01b82048116151584860152600160a81b909104161515908201528252600190920191016107df565b50505090825250600691909101546020918201526040805160608101825285546001600160a01b038116825260ff600160a01b82048116151594830194909452600160a81b90049092161515908201523361149e565b1561089f5760019350506108cf565b8260400151156108c55760405163112e219560e31b81526004810187905260240161037a565b505b6001016106fa565b50816108f2578333604051635788a87b60e01b815260040161037a92919061232d565b60048301805460ff191660039081179091556040805160e08101825285546001600160a01b039081168252600187015481166020830152600287015416918101919091528185015460608201526109f59185906080830190815260200160058201805480602002602001604051908101604052809291908181526020016000905b828210156109ce57600084815260209081902060408051606081018252918501546001600160a01b038116835260ff600160a01b82048116151584860152600160a81b90910416151590820152825260019092019101610973565b505050908252506006919091015460209091015260018501546001600160a01b0316611557565b7fa42ddc86614a20e359b00eb1ed42b716b911ca4c69b6af8044306d7de36b35e48433604051610a2692919061232d565b60405180910390a150505050565b6040805160a08101825260008082526020820181905291810182905260608082015260808101919091526001600160a01b038216600090815260208181526040808320815160a081018352815460ff80821615158352610100820481161515838701526201000090910416151581840152600182018054845181870281018701909552808552919492936060860193909290830182828015610aff57602002820191906000526020600020905b81546001600160a01b03168152600190910190602001808311610ae1575b50505091835250506002919091015460209091015260808101519091506103835782604051635c1b86b760e11b815260040161037a919061223c565b6000610b46826112f0565b60018101549091506001600160a01b03163314610b795760405163a859598f60e01b81526004810183905260240161037a565b60048101805460ff191660029081179091556040805160e08101825283546001600160a01b03908116825260018501548116602083015283850154169181019190915260038301546060820152610c7c9183906080830190815260200160058201805480602002602001604051908101604052809291908181526020016000905b82821015610c5557600084815260209081902060408051606081018252918501546001600160a01b038116835260ff600160a01b82048116151584860152600160a81b90910416151590820152825260019092019101610bfa565b505050908252506006919091015460209091015260018301546001600160a01b0316611557565b6040518281527f2e936050b1807500251bb54605979b74ee4e0e31a0fcba9f12b51d99496c20fa906020015b60405180910390a15050565b6000610cbf826112f0565b9050610ccb8282611365565b15610cd4575050565b6000610ce18383336115d2565b90508015610cf357610cf3838361192c565b505050565b6001600160a01b038316600090815260208181526040808320815160a081018352815460ff80821615158352610100820481161515838701526201000090910416151581840152600182018054845181870281018701909552808552919492936060860193909290830182828015610d9957602002820191906000526020600020905b81546001600160a01b03168152600190910190602001808311610d7b575b5050509183525050600291909101546020909101526080810151909150610dd55783604051635c1b86b760e11b815260040161037a919061223c565b6000849050806001600160a01b031663134e18f46040518163ffffffff1660e01b8152600401602060405180830381865afa158015610e18573d6000803e3d6000fd5b505050506040513d601f19601f82011682018060405250810190610e3c919061226d565b6001600160a01b031663b9209e33856040518263ffffffff1660e01b8152600401610e67919061223c565b602060405180830381865afa158015610e84573d6000803e3d6000fd5b505050506040513d601f19601f82011682018060405250810190610ea89190612250565b610ed857604051636178e7e560e11b81526001600160a01b0380871660048301528516602482015260440161037a565b6040516323b872dd60e01b8152336004820152306024820152604481018490526001600160a01b038216906323b872dd906064016020604051808303816000875af1158015610f2b573d6000803e3d6000fd5b505050506040513d601f19601f82011682018060405250810190610f4f9190612250565b506002805460009182610f6183612344565b9190505590506000610f7582338888611057565b600081815260016020819052604090912080546001600160a01b038b81166001600160a01b03199283161783559282018054821633179055600282018054938b1693909116929092179091556003810187905560048101805460ff1916905560808601516006820155909150610feb8186611a97565b608085810151604080518581526001600160a01b038c8116602083015233828401528b16606082015292830189905260a0830191909152517f6bb4a01617c492fa626ed5665cf4a461d4c1c6eeb7f3d910b41b47667348882d9181900360c00190a15050505050505050565b6000808585858560405160200161109194939291909384526001600160a01b03928316602085015291166040830152606082015260800190565b60408051808303601f1901815291905280516020909101209695505050505050565b60008060006110c1846112f0565b905060005b600582015481101561116b578160050181815481106110e7576110e7612317565b600091825260209091200154600160a81b900460ff166111635781600501818154811061111657611116612317565b6000918252602090912001546005830180546001600160a01b039092169550908290811061114657611146612317565b600091825260209091200154600160a01b900460ff16925061116b565b6001016110c6565b5050915091565b805160000361119757604051631b53ee4d60e01b81526004810183905260240161037a565b60006111a2836112f0565b90506111ae8382611365565b156111b857505050565b6000611211846040517f19457468657265756d205369676e6564204d6573736167653a0a3332000000006020820152603c8101829052600090605c01604051602081830303815290604052805190602001209050919050565b905060005b83518110156112e957600084828151811061123357611233612317565b60200260200101519050600060018483600001518460200151856040015160405160008152602001604052604051611287949392919093845260ff9290921660208401526040830152606082015260800190565b6020604051602081039080840390855afa1580156112a9573d6000803e3d6000fd5b50505060206040510351905060006112c28887846115d2565b905080156112de576112d4888761192c565b5050505050505050565b505050600101611216565b5050505050565b600081815260016020526040812080546001600160a01b03166113295760405163026c8dbb60e11b81526004810184905260240161037a565b6000600482015460ff16600381111561134457611344611d7a565b146103835760405163aafa536960e01b81526004810184905260240161037a565b80546001600160a01b0316600090815260208181526040808320815160a081018352815460ff808216151583526101008204811615158387015262010000909104161515818401526001820180548451818702810187019095528085528695929460608601939092919083018282801561140857602002820191906000526020600020905b81546001600160a01b031681526001909101906020018083116113ea575b5050505050815260200160028201548152505090508060800151836006015403611436576000915050610383565b611444600584016000611cbd565b61144e8382611a97565b6080810151600684018190556040805186815260208101929092527fb96b527e72b94fc460a27b6679a9f99a936d3e470a8666177a51e5b7652428b3910160405180910390a15060019392505050565b6000816001600160a01b031683600001516001600160a01b0316148061154f5750826020015180156114d8575082516001600160a01b0316155b801561154f575083516040516307feec1960e21b81526001600160a01b0390911690631ffbb0649061150e90859060040161223c565b602060405180830381865afa15801561152b573d6000803e3d6000fd5b505050506040513d601f19601f8201168201806040525081019061154f9190612250565b949350505050565b8151606083015160405163a9059cbb60e01b81526001600160a01b038481166004830152602482019290925291169063a9059cbb906044016020604051808303816000875af11580156115ae573d6000803e3d6000fd5b505050506040513d601f19601f82011682018060405250810190610cf39190612250565b81546001600160a01b0316600090815260208181526040808320815160a081018352815460ff80821615158352610100820481161515838701526201000090910416151581840152600182018054845181870281018701909552808552869586958695936060860193919290919083018282801561167957602002820191906000526020600020905b81546001600160a01b0316815260019091019060200180831161165b575b50505050508152602001600282015481525050905060005b60058701548110156118fe5760008760050182815481106116b4576116b4612317565b60009182526020909120018054909150600160a81b900460ff16156116d957506118f6565b84156116f257836116e981612344565b945050506118fe565b6040805160e08101825289546001600160a01b03908116825260018b01548116602083015260028b015416918101919091526003808a0154606083015260048a015461184092918b91608084019160ff9091169081111561175557611755611d7a565b600381111561176657611766611d7a565b815260200160058201805480602002602001604051908101604052809291908181526020016000905b828210156117ea57600084815260209081902060408051606081018252918501546001600160a01b038116835260ff600160a01b82048116151584860152600160a81b9091041615159082015282526001909201910161178f565b50505090825250600691909101546020918201526040805160608101825285546001600160a01b038116825260ff600160a01b82048116151594830194909452600160a81b90049092161515908201528961149e565b156118c157805460ff60a81b198116600160a81b178255600195506001600160a01b03166118825780546001600160a01b0319166001600160a01b0388161781555b7fbe292cd4d4b5b62de3d9d1c3884be547205570b87a04717068601ba0c765eb7989886040516118b392919061232d565b60405180910390a1506118f6565b8260400151156118e75760405163112e219560e31b8152600481018a905260240161037a565b836118f181612344565b945050505b600101611691565b5082611921578685604051635788a87b60e01b815260040161037a92919061232d565b501595945050505050565b60048101805460ff191660019081179091556040805160e08101825283546001600160a01b03908116825283850154811660208301526002850154169181019190915260038301546060820152611a2f9183906080830190815260200160058201805480602002602001604051908101604052809291908181526020016000905b82821015611a0857600084815260209081902060408051606081018252918501546001600160a01b038116835260ff600160a01b82048116151584860152600160a81b909104161515908201528252600190920191016119ad565b505050908252506006919091015460209091015260028301546001600160a01b0316611557565b8054600182015460028301546003840154604080518781526001600160a01b039586166020820152938516908401529216606082015260808101919091527fede11861efc96225b5c38ea18f4f95678cd9a04edd36b31e24b257c5b91f3bed9060a001610ca8565b805115611b21576040805160608101825260028401546001600160a01b0390811682526000602080840182815294840182815260058801805460018101825590845291909220935193018054945191511515600160a81b0260ff60a81b19921515600160a01b026001600160a81b0319909616949093169390931793909317929092169190911790555b806020015115611b9f5760408051606081018252600080825260016020808401828152948401838152600588018054938401815584529220925192018054935191511515600160a81b0260ff60a81b19921515600160a01b026001600160a81b03199095166001600160a01b03949094169390931793909317161790555b60005b816060015151811015610cf35782600501604051806060016040528084606001518481518110611bd457611bd4612317565b6020908102919091018101516001600160a01b03908116835260008383018190526040938401819052855460018181018855968252908390208551910180549386015195909401511515600160a81b0260ff60a81b19951515600160a01b026001600160a81b03199094169190921617919091179290921691909117905501611ba2565b828054828255906000526020600020908101928215611cad579160200282015b82811115611cad57825182546001600160a01b0319166001600160a01b03909116178255602090920191600190910190611c78565b50611cb9929150611cde565b5090565b5080546000825590600052602060002090810190611cdb9190611cf3565b50565b5b80821115611cb95760008155600101611cdf565b5b80821115611cb95780546001600160b01b0319168155600101611cf4565b60006020808352835180602085015260005b81811015611d4057858101830151858201604001528201611d24565b506000604082860101526040601f19601f8301168501019250505092915050565b600060208284031215611d7357600080fd5b5035919050565b634e487b7160e01b600052602160045260246000fd5b60008151808452602080850194506020840160005b83811015611de457815180516001600160a01b031688528381015115158489015260409081015115159088015260609096019590820190600101611da5565b509495945050505050565b60208152600060018060a01b038084511660208401528060208501511660408401528060408501511660608401525060608301516080830152608083015160048110611e4b57634e487b7160e01b600052602160045260246000fd5b8060a08401525060a083015160e060c0840152611e6c610100840182611d90565b905060c084015160e08401528091505092915050565b6001600160a01b0381168114611cdb57600080fd5b8015158114611cdb57600080fd5b634e487b7160e01b600052604160045260246000fd5b6040516060810167ffffffffffffffff81118282101715611ede57611ede611ea5565b60405290565b604051601f8201601f1916810167ffffffffffffffff81118282101715611f0d57611f0d611ea5565b604052919050565b600067ffffffffffffffff821115611f2f57611f2f611ea5565b5060051b60200190565b600080600080600060a08688031215611f5157600080fd5b8535611f5c81611e82565b9450602086810135611f6d81611e97565b94506040870135611f7d81611e97565b93506060870135611f8d81611e97565b9250608087013567ffffffffffffffff811115611fa957600080fd5b8701601f81018913611fba57600080fd5b8035611fcd611fc882611f15565b611ee4565b81815260059190911b8201830190838101908b831115611fec57600080fd5b928401925b8284101561201357833561200481611e82565b82529284019290840190611ff1565b80955050505050509295509295909350565b60006020828403121561203757600080fd5b813561204281611e82565b9392505050565b60008151808452602080850194506020840160005b83811015611de45781516001600160a01b03168752958201959082019060010161205e565b602081528151151560208201526020820151151560408201526040820151151560608201526000606083015160a060808401526120c360c0840182612049565b9050608084015160a08401528091505092915050565b6000806000606084860312156120ee57600080fd5b83356120f981611e82565b9250602084013561210981611e82565b929592945050506040919091013590565b6000806000806080858703121561213057600080fd5b84359350602085013561214281611e82565b9250604085013561215281611e82565b9396929550929360600135925050565b600080604080848603121561217657600080fd5b8335925060208085013567ffffffffffffffff81111561219557600080fd5b8501601f810187136121a657600080fd5b80356121b4611fc882611f15565b8181526060918202830184019184820191908a8411156121d357600080fd5b938501935b8385101561222b5780858c0312156121f05760008081fd5b6121f8611ebb565b853560ff8116811461220a5760008081fd5b815285870135878201528786013588820152835293840193918501916121d8565b508096505050505050509250929050565b6001600160a01b0391909116815260200190565b60006020828403121561226257600080fd5b815161204281611e97565b60006020828403121561227f57600080fd5b815161204281611e82565b6001600160a01b0385168152831515602082015282151560408201526080606082018190526000906122be90830184612049565b9695505050505050565b6001600160a01b038716815285151560208201528415156040820152831515606082015260c06080820181905260009061230490830185612049565b90508260a0830152979650505050505050565b634e487b7160e01b600052603260045260246000fd5b9182526001600160a01b0316602082015260400190565b60006001820161236457634e487b7160e01b600052601160045260246000fd5b506001019056fea2646970667358221220d17745274f1a8a44352717a21006001a904e2da8614897d474e6d94f134dc5ad64736f6c63430008180033",
  "linkReferences": {},
  "deployedLinkReferences": {}
}