{
  "_format": "hh-sol-artifact-1",
  "contractName": "DVDTransferManager",
  "sourceName": "contracts/erc3643/DVD/DVDTransferManager.sol",
  "abi": [
    {
      "inputs": [],
      "stateMutability": "nonpayable",
      "type": "constructor"
    },
    {
      "inputs": [
        {
          "internalType": "address",
          "name": "owner",
          "type": "address"
        }
      ],
      "name": "OwnableInvalidOwner",
      "type": "error"
    },
    {
      "inputs": [
        {
          "internalType": "address",
          "name": "account",
          "type": "address"
        }
      ],
      "name": "OwnableUnauthorizedAccount",
      "type": "error"
    },
    {
      "anonymous": false,
      "inputs": [
        {
          "indexed": true,
          "internalType": "bytes32",
          "name": "transferID",
          "type": "bytes32"
        }
      ],
      "name": "DVDTransferCancelled",
      "type": "event"
    },
    {
      "anonymous": false,
      "inputs": [
        {
          "indexed": true,
          "internalType": "bytes32",
          "name": "transferID",
          "type": "bytes32"
        }
      ],
      "name": "DVDTransferExecuted",
      "type": "event"
    },
    {
      "anonymous": false,
      "inputs": [
        {
          "indexed": true,
          "internalType": "bytes32",
          "name": "transferID",
          "type": "bytes32"
        },
        {
          "indexed": false,
          "internalType": "address",
          "name": "maker",
          "type": "address"
        },
        {
          "indexed": true,
          "internalType": "address",
          "name": "token1",
          "type": "address"
        },
        {
          "indexed": false,
          "internalType": "uint256",
          "name": "token1Amount",
          "type": "uint256"
        },
        {
          "indexed": false,
          "internalType": "address",
          "name": "taker",
          "type": "address"
        },
        {
          "indexed": true,
          "internalType": "address",
          "name": "token2",
          "type": "address"
        },
        {
          "indexed": false,
          "internalType": "uint256",
          "name": "token2Amount",
          "type": "uint256"
        }
      ],
      "name": "DVDTransferInitiated",
      "type": "event"
    },
    {
      "anonymous": false,
      "inputs": [
        {
          "indexed": true,
          "internalType": "bytes32",
          "name": "parity",
          "type": "bytes32"
        },
        {
          "indexed": false,
          "internalType": "address",
          "name": "token1",
          "type": "address"
        },
        {
          "indexed": false,
          "internalType": "address",
          "name": "token2",
          "type": "address"
        },
        {
          "indexed": false,
          "internalType": "uint256",
          "name": "fee1",
          "type": "uint256"
        },
        {
          "indexed": false,
          "internalType": "uint256",
          "name": "fee2",
          "type": "uint256"
        },
        {
          "indexed": false,
          "internalType": "uint256",
          "name": "feeBase",
          "type": "uint256"
        },
        {
          "indexed": false,
          "internalType": "address",
          "name": "fee1Wallet",
          "type": "address"
        },
        {
          "indexed": false,
          "internalType": "address",
          "name": "fee2Wallet",
          "type": "address"
        }
      ],
      "name": "FeeModified",
      "type": "event"
    },
    {
      "anonymous": false,
      "inputs": [
        {
          "indexed": true,
          "internalType": "address",
          "name": "previousOwner",
          "type": "address"
        },
        {
          "indexed": true,
          "internalType": "address",
          "name": "newOwner",
          "type": "address"
        }
      ],
      "name": "OwnershipTransferred",
      "type": "event"
    },
    {
      "inputs": [
        {
          "internalType": "bytes32",
          "name": "_transferID",
          "type": "bytes32"
        }
      ],
      "name": "calculateFee",
      "outputs": [
        {
          "components": [
            {
              "internalType": "uint256",
              "name": "txFee1",
              "type": "uint256"
            },
            {
              "internalType": "uint256",
              "name": "txFee2",
              "type": "uint256"
            },
            {
              "internalType": "address",
              "name": "fee1Wallet",
              "type": "address"
            },
            {
              "internalType": "address",
              "name": "fee2Wallet",
              "type": "address"
            }
          ],
          "internalType": "struct DVDTransferManager.TxFees",
          "name": "",
          "type": "tuple"
        }
      ],
      "stateMutability": "view",
      "type": "function"
    },
    {
      "inputs": [
        {
          "internalType": "address",
          "name": "_token1",
          "type": "address"
        },
        {
          "internalType": "address",
          "name": "_token2",
          "type": "address"
        }
      ],
      "name": "calculateParity",
      "outputs": [
        {
          "internalType": "bytes32",
          "name": "",
          "type": "bytes32"
        }
      ],
      "stateMutability": "pure",
      "type": "function"
    },
    {
      "inputs": [
        {
          "internalType": "uint256",
          "name": "_nonce",
          "type": "uint256"
        },
        {
          "internalType": "address",
          "name": "_maker",
          "type": "address"
        },
        {
          "internalType": "address",
          "name": "_token1",
          "type": "address"
        },
        {
          "internalType": "uint256",
          "name": "_token1Amount",
          "type": "uint256"
        },
        {
          "internalType": "address",
          "name": "_taker",
          "type": "address"
        },
        {
          "internalType": "address",
          "name": "_token2",
          "type": "address"
        },
        {
          "internalType": "uint256",
          "name": "_token2Amount",
          "type": "uint256"
        }
      ],
      "name": "calculateTransferID",
      "outputs": [
        {
          "internalType": "bytes32",
          "name": "",
          "type": "bytes32"
        }
      ],
      "stateMutability": "pure",
      "type": "function"
    },
    {
      "inputs": [
        {
          "internalType": "bytes32",
          "name": "_transferID",
          "type": "bytes32"
        }
      ],
      "name": "cancelDVDTransfer",
      "outputs": [],
      "stateMutability": "nonpayable",
      "type": "function"
    },
    {
      "inputs": [
        {
          "internalType": "bytes32",
          "name": "",
          "type": "bytes32"
        }
      ],
      "name": "fee",
      "outputs": [
        {
          "internalType": "uint256",
          "name": "token1Fee",
          "type": "uint256"
        },
        {
          "internalType": "uint256",
          "name": "token2Fee",
          "type": "uint256"
        },
        {
          "internalType": "uint256",
          "name": "feeBase",
          "type": "uint256"
        },
        {
          "internalType": "address",
          "name": "fee1Wallet",
          "type": "address"
        },
        {
          "internalType": "address",
          "name": "fee2Wallet",
          "type": "address"
        }
      ],
      "stateMutability": "view",
      "type": "function"
    },
    {
      "inputs": [
        {
          "internalType": "address",
          "name": "_token1",
          "type": "address"
        },
        {
          "internalType": "uint256",
          "name": "_token1Amount",
          "type": "uint256"
        },
        {
          "internalType": "address",
          "name": "_counterpart",
          "type": "address"
        },
        {
          "internalType": "address",
          "name": "_token2",
          "type": "address"
        },
        {
          "internalType": "uint256",
          "name": "_token2Amount",
          "type": "uint256"
        }
      ],
      "name": "initiateDVDTransfer",
      "outputs": [],
      "stateMutability": "nonpayable",
      "type": "function"
    },
    {
      "inputs": [
        {
          "internalType": "address",
          "name": "_token",
          "type": "address"
        }
      ],
      "name": "isTREX",
      "outputs": [
        {
          "internalType": "bool",
          "name": "",
          "type": "bool"
        }
      ],
      "stateMutability": "view",
      "type": "function"
    },
    {
      "inputs": [
        {
          "internalType": "address",
          "name": "_token",
          "type": "address"
        },
        {
          "internalType": "address",
          "name": "_user",
          "type": "address"
        }
      ],
      "name": "isTREXAgent",
      "outputs": [
        {
          "internalType": "bool",
          "name": "",
          "type": "bool"
        }
      ],
      "stateMutability": "view",
      "type": "function"
    },
    {
      "inputs": [
        {
          "internalType": "address",
          "name": "_token",
          "type": "address"
        },
        {
          "internalType": "address",
          "name": "_user",
          "type": "address"
        }
      ],
      "name": "isTREXOwner",
      "outputs": [
        {
          "internalType": "bool",
          "name": "",
          "type": "bool"
        }
      ],
      "stateMutability": "view",
      "type": "function"
    },
    {
      "inputs": [
        {
          "internalType": "address",
          "name": "_token1",
          "type": "address"
        },
        {
          "internalType": "address",
          "name": "_token2",
          "type": "address"
        },
        {
          "internalType": "uint256",
          "name": "_fee1",
          "type": "uint256"
        },
        {
          "internalType": "uint256",
          "name": "_fee2",
          "type": "uint256"
        },
        {
          "internalType": "uint256",
          "name": "_feeBase",
          "type": "uint256"
        },
        {
          "internalType": "address",
          "name": "_fee1Wallet",
          "type": "address"
        },
        {
          "internalType": "address",
          "name": "_fee2Wallet",
          "type": "address"
        }
      ],
      "name": "modifyFee",
      "outputs": [],
      "stateMutability": "nonpayable",
      "type": "function"
    },
    {
      "inputs": [],
      "name": "owner",
      "outputs": [
        {
          "internalType": "address",
          "name": "",
          "type": "address"
        }
      ],
      "stateMutability": "view",
      "type": "function"
    },
    {
      "inputs": [],
      "name": "renounceOwnership",
      "outputs": [],
      "stateMutability": "nonpayable",
      "type": "function"
    },
    {
      "inputs": [
        {
          "internalType": "bytes32",
          "name": "_transferID",
          "type": "bytes32"
        }
      ],
      "name": "takeDVDTransfer",
      "outputs": [],
      "stateMutability": "nonpayable",
      "type": "function"
    },
    {
      "inputs": [
        {
          "internalType": "bytes32",
          "name": "",
          "type": "bytes32"
        }
      ],
      "name": "token1ToDeliver",
      "outputs": [
        {
          "internalType": "address",
          "name": "counterpart",
          "type": "address"
        },
        {
          "internalType": "address",
          "name": "token",
          "type": "address"
        },
        {
          "internalType": "uint256",
          "name": "amount",
          "type": "uint256"
        }
      ],
      "stateMutability": "view",
      "type": "function"
    },
    {
      "inputs": [
        {
          "internalType": "bytes32",
          "name": "",
          "type": "bytes32"
        }
      ],
      "name": "token2ToDeliver",
      "outputs": [
        {
          "internalType": "address",
          "name": "counterpart",
          "type": "address"
        },
        {
          "internalType": "address",
          "name": "token",
          "type": "address"
        },
        {
          "internalType": "uint256",
          "name": "amount",
          "type": "uint256"
        }
      ],
      "stateMutability": "view",
      "type": "function"
    },
    {
      "inputs": [
        {
          "internalType": "address",
          "name": "newOwner",
          "type": "address"
        }
      ],
      "name": "transferOwnership",
      "outputs": [],
      "stateMutability": "nonpayable",
      "type": "function"
    },
    {
      "inputs": [],
      "name": "txNonce",
      "outputs": [
        {
          "internalType": "uint256",
          "name": "",
          "type": "uint256"
        }
      ],
      "stateMutability": "view",
      "type": "function"
    }
  ],
  "bytecode": "0x608060405234801561001057600080fd5b50338061003757604051631e4fbdf760e01b81526000600482015260240160405180910390fd5b6100408161004b565b50600060045561009b565b600080546001600160a01b038381166001600160a01b0319831681178455604051919092169283917f8be0079c531659141344cd1fd0a4f28419497f9722a3daafe3b4186f6b6457e09190a35050565b611ea2806100aa6000396000f3fe608060405234801561001057600080fd5b50600436106100eb5760003560e01c8063715018a611610092578063715018a614610293578063777220751461029b5780638da5cb5b146102d9578063afc99141146102f2578063c66323e514610305578063e722e6031461030e578063eb08e26114610321578063f2fde38b14610334578063ff4ca3751461034757600080fd5b80630f7f6811146100f0578063158db45014610144578063233792511461015957806327cdab061461017c578063344ae659146101f95780634dc55ea31461021a5780634f8468641461022d5780636e4d26e414610280575b600080fd5b61012c6100fe366004611985565b6003602052600090815260409020805460018201546002909201546001600160a01b03918216929091169083565b60405161013b9392919061199e565b60405180910390f35b610157610152366004611985565b61035a565b005b61016c6101673660046119d7565b6109ca565b604051901515815260200161013b565b6101c561018a366004611985565b600160208190526000918252604090912080549181015460028201546003830154600490930154919290916001600160a01b03918216911685565b604080519586526020860194909452928401919091526001600160a01b03908116606084015216608082015260a00161013b565b61020c6102073660046119d7565b610a58565b60405190815260200161013b565b61020c610228366004611a10565b610a8e565b61024061023b366004611985565b610aed565b604080518251815260208084015190820152828201516001600160a01b03908116928201929092526060928301519091169181019190915260800161013b565b61015761028e366004611a8b565b610d2c565b6101576110c0565b61012c6102a9366004611985565b60026020819052600091825260409091208054600182015491909201546001600160a01b03928316929091169083565b6000546001600160a01b031660405161013b9190611ae6565b61016c6103003660046119d7565b6110d4565b61020c60045481565b61015761031c366004611afa565b611161565b61016c61032f366004611b75565b6115f3565b610157610342366004611b75565b611673565b610157610355366004611985565b6116b1565b600081815260026020818152604080842081516060808201845282546001600160a01b0390811683526001808501548216848801529387015483860152888852600386529684902084519182018552805488168252928301548716948101949094529301549082015281519192909116158015906103e1575080516001600160a01b031615155b6104065760405162461bcd60e51b81526004016103fd90611b99565b60405180910390fd5b6020828101519082015182516001600160a01b031633148061043157506104318460200151336109ca565b8061044557506104458360200151336109ca565b6104b05760405162461bcd60e51b815260206004820152603660248201527f7472616e736665722068617320746f20626520646f6e6520627920746865206360448201527537bab73a32b93830b93a1037b910313c9037bbb732b960511b60648201526084016103fd565b604080840151845191516370a0823160e01b815290916001600160a01b038416916370a08231916104e391600401611ae6565b602060405180830381865afa158015610500573d6000803e3d6000fd5b505050506040513d601f19601f820116820180604052508101906105249190611bd0565b10156105425760405162461bcd60e51b81526004016103fd90611be9565b60408084015184519151636eb1769f60e11b815290916001600160a01b0384169163dd62ed3e91610577913090600401611c20565b602060405180830381865afa158015610594573d6000803e3d6000fd5b505050506040513d601f19601f820116820180604052508101906105b89190611bd0565b10156106065760405162461bcd60e51b815260206004820181905260248201527f6e6f7420656e6f75676820616c6c6f77616e636520746f207472616e7366657260448201526064016103fd565b600061061186610aed565b80519091501561072457826001600160a01b03166323b872dd86600001518660000151846000015189604001516106489190611c50565b6040518463ffffffff1660e01b81526004016106669392919061199e565b6020604051808303816000875af1158015610685573d6000803e3d6000fd5b505050506040513d601f19601f820116820180604052508101906106a99190611c63565b508451604080830151835191516323b872dd60e01b81526001600160a01b038716936323b872dd936106df93919260040161199e565b6020604051808303816000875af11580156106fe573d6000803e3d6000fd5b505050506040513d601f19601f820116820180604052508101906107229190611c63565b505b80516000036107aa578451845160408088015190516323b872dd60e01b81526001600160a01b038716936323b872dd9361076593919290919060040161199e565b6020604051808303816000875af1158015610784573d6000803e3d6000fd5b505050506040513d601f19601f820116820180604052508101906107a89190611c63565b505b6020810151156108c357816001600160a01b03166323b872dd85600001518760000151846020015188604001516107e19190611c50565b6040518463ffffffff1660e01b81526004016107ff9392919061199e565b6020604051808303816000875af115801561081e573d6000803e3d6000fd5b505050506040513d601f19601f820116820180604052508101906108429190611c63565b508351606082015160208301516040516323b872dd60e01b81526001600160a01b038616936323b872dd9361087e93919290919060040161199e565b6020604051808303816000875af115801561089d573d6000803e3d6000fd5b505050506040513d601f19601f820116820180604052508101906108c19190611c63565b505b806020015160000361094c578351855160408087015190516323b872dd60e01b81526001600160a01b038616936323b872dd9361090793919290919060040161199e565b6020604051808303816000875af1158015610926573d6000803e3d6000fd5b505050506040513d601f19601f8201168201806040525081019061094a9190611c63565b505b600086815260026020818152604080842080546001600160a01b0319908116825560018083018054831690559185018690556003909352818520805484168155908101805490931690925591018290555187917f094682e7da443a5bb6ea2c900d20d36aaff04228fe22fc6dd65a58a37695be8b91a2505050505050565b60006109d5836115f3565b15610a4e576040516307feec1960e21b81526001600160a01b03841690631ffbb06490610a06908590600401611ae6565b602060405180830381865afa158015610a23573d6000803e3d6000fd5b505050506040513d601f19601f82011682018060405250810190610a479190611c63565b9050610a52565b5060005b92915050565b6000808383604051602001610a6e929190611c20565b60408051808303601f190181529190528051602090910120949350505050565b604080516020808201999099526001600160a01b03978816818301529587166060870152608086019490945291851660a085015290931660c083015260e080830193909352805180830390930183526101009091019052805191012090565b610af561190a565b610afd61190a565b600083815260026020818152604080842081516060808201845282546001600160a01b03908116835260018085015482168488015293870154838601528a885260038652968490208451918201855280548816825292830154871694810194909452930154908201528151919290911615801590610b84575080516001600160a01b031615155b610ba05760405162461bcd60e51b81526004016103fd90611b99565b6000610bb483602001518360200151610a58565b600081815260016020818152604092839020835160a0810185528154808252938201549281019290925260028101549382019390935260038301546001600160a01b039081166060830152600490930154909216608083015291925090151580610c215750602081015115155b15610d095760008160400151600a610c399190611d69565b60028360400151610c4a9190611c50565b610c5590600a611d69565b83516040880151610c669190611d75565b610c709190611d75565b610c7a9190611d8c565b905060008260400151600a610c8f9190611d69565b60028460400151610ca09190611c50565b610cab90600a611d69565b84602001518760400151610cbf9190611d75565b610cc99190611d75565b610cd39190611d8c565b9187525060208601526060808201516001600160a01b039081166040880152608090920151909116908501525091949350505050565b505060008084526020840181905260408401819052606084015250909392505050565b6040516370a0823160e01b815284906001600160a01b038716906370a0823190610d5a903390600401611ae6565b602060405180830381865afa158015610d77573d6000803e3d6000fd5b505050506040513d601f19601f82011682018060405250810190610d9b9190611bd0565b1015610db95760405162461bcd60e51b81526004016103fd90611be9565b604051636eb1769f60e11b815284906001600160a01b0387169063dd62ed3e90610de99033903090600401611c20565b602060405180830381865afa158015610e06573d6000803e3d6000fd5b505050506040513d601f19601f82011682018060405250810190610e2a9190611bd0565b1015610e8a5760405162461bcd60e51b815260206004820152602960248201527f6e6f7420656e6f75676820616c6c6f77616e636520746f20696e697469617465604482015268103a3930b739b332b960b91b60648201526084016103fd565b6001600160a01b038316610ee05760405162461bcd60e51b815260206004820152601a60248201527f636f756e746572706172742063616e6e6f74206265206e756c6c00000000000060448201526064016103fd565b816001600160a01b03166318160ddd6040518163ffffffff1660e01b8152600401602060405180830381865afa158015610f1e573d6000803e3d6000fd5b505050506040513d601f19601f82011682018060405250810190610f429190611bd0565b600003610f615760405162461bcd60e51b81526004016103fd90611dae565b60408051606080820183523382526001600160a01b0388811660208085019182528486018a81528651948501875289841680865293891691850182905295840187905260045485519251965195969495600095610fc4959294939092908a610a8e565b6000818152600260208181526040808420885181546001600160a01b039182166001600160a01b03199182161783558a8501805160018086018054928616928516929092179091558c860180519589019590955560038752978590208b518154908516908416811782558c88015199820180549a86169a9094168a179093558b8601519701879055518b51935185519484168552958401959095528284015260608201949094529051949550929391169184917f1eff5dd2c180a5889d45725b98546e9d8c28331caac1c279a0fdc3fe18eb29e59181900360800190a4600480549060006110b183611df7565b91905055505050505050505050565b6110c861188d565b6110d260006118ba565b565b60006110df836115f3565b15610a4e57816001600160a01b0316836001600160a01b0316638da5cb5b6040518163ffffffff1660e01b8152600401602060405180830381865afa15801561112c573d6000803e3d6000fd5b505050506040513d601f19601f820116820180604052508101906111509190611e10565b6001600160a01b0316149050610a52565b6000546001600160a01b031633148061117f575061117f87336110d4565b8061118f575061118f86336110d4565b6111db5760405162461bcd60e51b815260206004820152601c60248201527f4f776e61626c653a206f6e6c79206f776e65722063616e2063616c6c0000000060448201526064016103fd565b866001600160a01b03166318160ddd6040518163ffffffff1660e01b8152600401602060405180830381865afa158015611219573d6000803e3d6000fd5b505050506040513d601f19601f8201168201806040525081019061123d9190611bd0565b158015906112ab5750856001600160a01b03166318160ddd6040518163ffffffff1660e01b8152600401602060405180830381865afa158015611284573d6000803e3d6000fd5b505050506040513d601f19601f820116820180604052508101906112a89190611bd0565b15155b6112c75760405162461bcd60e51b81526004016103fd90611dae565b6112d283600a611d69565b85111580156112df575060015b80156112f557506112f183600a611d69565b8411155b80156112ff575060015b801561130c575060058311155b8015611319575060028310155b61135c5760405162461bcd60e51b8152602060048201526014602482015273696e76616c6964206665652073657474696e677360601b60448201526064016103fd565b84156113c4576001600160a01b0382166113c45760405162461bcd60e51b815260206004820152602360248201527f6665652077616c6c657420312063616e6e6f74206265207a65726f206164647260448201526265737360e81b60648201526084016103fd565b831561142c576001600160a01b03811661142c5760405162461bcd60e51b815260206004820152602360248201527f6665652077616c6c657420322063616e6e6f74206265207a65726f206164647260448201526265737360e81b60648201526084016103fd565b60006114388888610a58565b9050611442611944565b868152602080820187815260408084018881526001600160a01b0380891660608701908152888216608088019081526000898152600197889052859020885181559551968601969096559151600285015590516003840180549183166001600160a01b03199283161790559351600490930180549390911692909316919091179091555182907f2a53ccababe5ceadaebcbb25eb002de52dd1042821dee5cd6dd890c0651c535f90611501908c908c908c908c908c908c908c90611e2d565b60405180910390a26000611515898b610a58565b905061151f611944565b87815260208082018a815260408084018a81526001600160a01b03808a16606087019081528b8216608088019081526000898152600197889052859020885181559551968601969096559151600285015590516003840180549183166001600160a01b03199283161790559351600490930180549390911692909316919091179091555182907f2a53ccababe5ceadaebcbb25eb002de52dd1042821dee5cd6dd890c0651c535f906115de908d908f908d908f908e908d908f90611e2d565b60405180910390a25050505050505050505050565b6000816001600160a01b031663134e18f46040518163ffffffff1660e01b8152600401602060405180830381865afa92505050801561164f575060408051601f3d908101601f1916820190925261164c91810190611e10565b60015b61165b57506000919050565b6001600160a01b03811615610a4e5750600192915050565b61167b61188d565b6001600160a01b0381166116a5576000604051631e4fbdf760e01b81526004016103fd9190611ae6565b6116ae816118ba565b50565b600081815260026020818152604080842081516060808201845282546001600160a01b039081168352600180850154821684880152938701548386015288885260038652968490208451918201855280548816825292830154871694810194909452930154908201528151919290911615801590611738575080516001600160a01b031615155b6117545760405162461bcd60e51b81526004016103fd90611b99565b80516001600160a01b0316331480611775575081516001600160a01b031633145b8061178a57506000546001600160a01b031633145b8061179e575061179e8260200151336109ca565b806117b257506117b28160200151336109ca565b6118125760405162461bcd60e51b815260206004820152602b60248201527f796f7520617265206e6f7420616c6c6f77656420746f2063616e63656c20746860448201526a34b9903a3930b739b332b960a91b60648201526084016103fd565b600083815260026020818152604080842080546001600160a01b0319908116825560018083018054831690559185018690556003909352818520805484168155908101805490931690925591018290555184917fb34dd23f375e48f42dfe5fbb1f8945e706c80dbfaec32c6e978fcf70091306c991a2505050565b6000546001600160a01b031633146110d2573360405163118cdaa760e01b81526004016103fd9190611ae6565b600080546001600160a01b038381166001600160a01b0319831681178455604051919092169283917f8be0079c531659141344cd1fd0a4f28419497f9722a3daafe3b4186f6b6457e09190a35050565b6040518060800160405280600081526020016000815260200160006001600160a01b0316815260200160006001600160a01b031681525090565b6040518060a0016040528060008152602001600081526020016000815260200160006001600160a01b0316815260200160006001600160a01b031681525090565b60006020828403121561199757600080fd5b5035919050565b6001600160a01b039384168152919092166020820152604081019190915260600190565b6001600160a01b03811681146116ae57600080fd5b600080604083850312156119ea57600080fd5b82356119f5816119c2565b91506020830135611a05816119c2565b809150509250929050565b600080600080600080600060e0888a031215611a2b57600080fd5b873596506020880135611a3d816119c2565b95506040880135611a4d816119c2565b9450606088013593506080880135611a64816119c2565b925060a0880135611a74816119c2565b8092505060c0880135905092959891949750929550565b600080600080600060a08688031215611aa357600080fd5b8535611aae816119c2565b9450602086013593506040860135611ac5816119c2565b92506060860135611ad5816119c2565b949793965091946080013592915050565b6001600160a01b0391909116815260200190565b600080600080600080600060e0888a031215611b1557600080fd5b8735611b20816119c2565b96506020880135611b30816119c2565b955060408801359450606088013593506080880135925060a0880135611b55816119c2565b915060c0880135611b65816119c2565b8091505092959891949750929550565b600060208284031215611b8757600080fd5b8135611b92816119c2565b9392505050565b6020808252601a908201527f7472616e7366657220494420646f6573206e6f74206578697374000000000000604082015260600190565b600060208284031215611be257600080fd5b5051919050565b6020808252601c908201527f4e6f7420656e6f75676820746f6b656e7320696e2062616c616e636500000000604082015260600190565b6001600160a01b0392831681529116602082015260400190565b634e487b7160e01b600052601160045260246000fd5b81810381811115610a5257610a52611c3a565b600060208284031215611c7557600080fd5b81518015158114611b9257600080fd5b600181815b80851115611cc0578160001904821115611ca657611ca6611c3a565b80851615611cb357918102915b93841c9390800290611c8a565b509250929050565b600082611cd757506001610a52565b81611ce457506000610a52565b8160018114611cfa5760028114611d0457611d20565b6001915050610a52565b60ff841115611d1557611d15611c3a565b50506001821b610a52565b5060208310610133831016604e8410600b8410161715611d43575081810a610a52565b611d4d8383611c85565b8060001904821115611d6157611d61611c3a565b029392505050565b6000611b928383611cc8565b8082028115828204841417610a5257610a52611c3a565b600082611da957634e487b7160e01b600052601260045260246000fd5b500490565b60208082526029908201527f696e76616c69642061646472657373203a2061646472657373206973206e6f74604082015268020616e2045524332360bc1b606082015260800190565b600060018201611e0957611e09611c3a565b5060010190565b600060208284031215611e2257600080fd5b8151611b92816119c2565b6001600160a01b0397881681529587166020870152604086019490945260608501929092526080840152831660a083015290911660c082015260e0019056fea264697066735822122080b8d609985e3ce8fb27e20b593f6c3b8ab619a5d623ed89942bd00fffa662c664736f6c63430008180033",
  "linkReferences": {},
  "deployedLinkReferences": {}
}