{
  "_format": "hh-sol-artifact-1",
  "contractName": "ERC721Metadata",
  "sourceName": "contracts/erc721/ERC721Metadata.sol",
  "abi": [
    {
      "inputs": [
        {
          "internalType": "string",
          "name": "_name",
          "type": "string"
        },
        {
          "internalType": "string",
          "name": "_symbol",
          "type": "string"
        }
      ],
      "stateMutability": "nonpayable",
      "type": "constructor"
    },
    {
      "inputs": [
        {
          "internalType": "address",
          "name": "sender",
          "type": "address"
        },
        {
          "internalType": "uint256",
          "name": "tokenId",
          "type": "uint256"
        },
        {
          "internalType": "address",
          "name": "owner",
          "type": "address"
        }
      ],
      "name": "ERC721IncorrectOwner",
      "type": "error"
    },
    {
      "inputs": [
        {
          "internalType": "address",
          "name": "operator",
          "type": "address"
        },
        {
          "internalType": "uint256",
          "name": "tokenId",
          "type": "uint256"
        }
      ],
      "name": "ERC721InsufficientApproval",
      "type": "error"
    },
    {
      "inputs": [
        {
          "internalType": "address",
          "name": "approver",
          "type": "address"
        }
      ],
      "name": "ERC721InvalidApprover",
      "type": "error"
    },
    {
      "inputs": [
        {
          "internalType": "address",
          "name": "operator",
          "type": "address"
        }
      ],
      "name": "ERC721InvalidOperator",
      "type": "error"
    },
    {
      "inputs": [
        {
          "internalType": "address",
          "name": "owner",
          "type": "address"
        }
      ],
      "name": "ERC721InvalidOwner",
      "type": "error"
    },
    {
      "inputs": [
        {
          "internalType": "address",
          "name": "receiver",
          "type": "address"
        }
      ],
      "name": "ERC721InvalidReceiver",
      "type": "error"
    },
    {
      "inputs": [
        {
          "internalType": "address",
          "name": "sender",
          "type": "address"
        }
      ],
      "name": "ERC721InvalidSender",
      "type": "error"
    },
    {
      "inputs": [
        {
          "internalType": "uint256",
          "name": "tokenId",
          "type": "uint256"
        }
      ],
      "name": "ERC721NonexistentToken",
      "type": "error"
    },
    {
      "inputs": [
        {
          "internalType": "address",
          "name": "owner",
          "type": "address"
        }
      ],
      "name": "OwnableInvalidOwner",
      "type": "error"
    },
    {
      "inputs": [
        {
          "internalType": "address",
          "name": "account",
          "type": "address"
        }
      ],
      "name": "OwnableUnauthorizedAccount",
      "type": "error"
    },
    {
      "anonymous": false,
      "inputs": [
        {
          "indexed": true,
          "internalType": "address",
          "name": "owner",
          "type": "address"
        },
        {
          "indexed": true,
          "internalType": "address",
          "name": "approved",
          "type": "address"
        },
        {
          "indexed": true,
          "internalType": "uint256",
          "name": "tokenId",
          "type": "uint256"
        }
      ],
      "name": "Approval",
      "type": "event"
    },
    {
      "anonymous": false,
      "inputs": [
        {
          "indexed": true,
          "internalType": "address",
          "name": "owner",
          "type": "address"
        },
        {
          "indexed": true,
          "internalType": "address",
          "name": "operator",
          "type": "address"
        },
        {
          "indexed": false,
          "internalType": "bool",
          "name": "approved",
          "type": "bool"
        }
      ],
      "name": "ApprovalForAll",
      "type": "event"
    },
    {
      "anonymous": false,
      "inputs": [
        {
          "indexed": false,
          "internalType": "uint256",
          "name": "_fromTokenId",
          "type": "uint256"
        },
        {
          "indexed": false,
          "internalType": "uint256",
          "name": "_toTokenId",
          "type": "uint256"
        }
      ],
      "name": "BatchMetadataUpdate",
      "type": "event"
    },
    {
      "anonymous": false,
      "inputs": [
        {
          "indexed": false,
          "internalType": "uint256",
          "name": "_tokenId",
          "type": "uint256"
        }
      ],
      "name": "MetadataUpdate",
      "type": "event"
    },
    {
      "anonymous": false,
      "inputs": [
        {
          "indexed": true,
          "internalType": "address",
          "name": "previousOwner",
          "type": "address"
        },
        {
          "indexed": true,
          "internalType": "address",
          "name": "newOwner",
          "type": "address"
        }
      ],
      "name": "OwnershipTransferred",
      "type": "event"
    },
    {
      "anonymous": false,
      "inputs": [
        {
          "indexed": true,
          "internalType": "address",
          "name": "from",
          "type": "address"
        },
        {
          "indexed": true,
          "internalType": "address",
          "name": "to",
          "type": "address"
        },
        {
          "indexed": true,
          "internalType": "uint256",
          "name": "tokenId",
          "type": "uint256"
        }
      ],
      "name": "Transfer",
      "type": "event"
    },
    {
      "inputs": [
        {
          "internalType": "address",
          "name": "to",
          "type": "address"
        },
        {
          "internalType": "uint256",
          "name": "tokenId",
          "type": "uint256"
        }
      ],
      "name": "approve",
      "outputs": [],
      "stateMutability": "nonpayable",
      "type": "function"
    },
    {
      "inputs": [
        {
          "internalType": "address",
          "name": "owner",
          "type": "address"
        }
      ],
      "name": "balanceOf",
      "outputs": [
        {
          "internalType": "uint256",
          "name": "",
          "type": "uint256"
        }
      ],
      "stateMutability": "view",
      "type": "function"
    },
    {
      "inputs": [
        {
          "internalType": "string",
          "name": "_key",
          "type": "string"
        },
        {
          "internalType": "string",
          "name": "_value",
          "type": "string"
        }
      ],
      "name": "filterTokens",
      "outputs": [
        {
          "components": [
            {
              "internalType": "uint256",
              "name": "id",
              "type": "uint256"
            },
            {
              "internalType": "string",
              "name": "uri",
              "type": "string"
            },
            {
              "internalType": "address",
              "name": "owner",
              "type": "address"
            },
            {
              "components": [
                {
                  "internalType": "string",
                  "name": "key",
                  "type": "string"
                },
                {
                  "internalType": "string",
                  "name": "value",
                  "type": "string"
                },
                {
                  "internalType": "bool",
                  "name": "exists",
                  "type": "bool"
                }
              ],
              "internalType": "struct ERC721Metadata.KeyValue[]",
              "name": "metadata",
              "type": "tuple[]"
            }
          ],
          "internalType": "struct ERC721Metadata.TokenDetails[]",
          "name": "",
          "type": "tuple[]"
        }
      ],
      "stateMutability": "view",
      "type": "function"
    },
    {
      "inputs": [
        {
          "internalType": "string[]",
          "name": "_keys",
          "type": "string[]"
        },
        {
          "internalType": "string[]",
          "name": "_values",
          "type": "string[]"
        }
      ],
      "name": "filterTokens",
      "outputs": [
        {
          "components": [
            {
              "internalType": "uint256",
              "name": "id",
              "type": "uint256"
            },
            {
              "internalType": "string",
              "name": "uri",
              "type": "string"
            },
            {
              "internalType": "address",
              "name": "owner",
              "type": "address"
            },
            {
              "components": [
                {
                  "internalType": "string",
                  "name": "key",
                  "type": "string"
                },
                {
                  "internalType": "string",
                  "name": "value",
                  "type": "string"
                },
                {
                  "internalType": "bool",
                  "name": "exists",
                  "type": "bool"
                }
              ],
              "internalType": "struct ERC721Metadata.KeyValue[]",
              "name": "metadata",
              "type": "tuple[]"
            }
          ],
          "internalType": "struct ERC721Metadata.TokenDetails[]",
          "name": "",
          "type": "tuple[]"
        }
      ],
      "stateMutability": "view",
      "type": "function"
    },
    {
      "inputs": [
        {
          "internalType": "uint256",
          "name": "_tokenId",
          "type": "uint256"
        }
      ],
      "name": "freezeMetadata",
      "outputs": [],
      "stateMutability": "nonpayable",
      "type": "function"
    },
    {
      "inputs": [
        {
          "internalType": "uint256",
          "name": "tokenId",
          "type": "uint256"
        }
      ],
      "name": "getApproved",
      "outputs": [
        {
          "internalType": "address",
          "name": "",
          "type": "address"
        }
      ],
      "stateMutability": "view",
      "type": "function"
    },
    {
      "inputs": [],
      "name": "getCollectionMetadata",
      "outputs": [
        {
          "components": [
            {
              "internalType": "string",
              "name": "key",
              "type": "string"
            },
            {
              "internalType": "string",
              "name": "value",
              "type": "string"
            },
            {
              "internalType": "bool",
              "name": "exists",
              "type": "bool"
            }
          ],
          "internalType": "struct ERC721Metadata.KeyValue[]",
          "name": "",
          "type": "tuple[]"
        }
      ],
      "stateMutability": "view",
      "type": "function"
    },
    {
      "inputs": [
        {
          "internalType": "string",
          "name": "_key",
          "type": "string"
        }
      ],
      "name": "getCollectionMetadata",
      "outputs": [
        {
          "components": [
            {
              "internalType": "string",
              "name": "key",
              "type": "string"
            },
            {
              "internalType": "string",
              "name": "value",
              "type": "string"
            },
            {
              "internalType": "bool",
              "name": "exists",
              "type": "bool"
            }
          ],
          "internalType": "struct ERC721Metadata.KeyValue",
          "name": "",
          "type": "tuple"
        }
      ],
      "stateMutability": "view",
      "type": "function"
    },
    {
      "inputs": [
        {
          "internalType": "uint256",
          "name": "_tokenId",
          "type": "uint256"
        }
      ],
      "name": "getMetadata",
      "outputs": [
        {
          "components": [
            {
              "internalType": "string",
              "name": "key",
              "type": "string"
            },
            {
              "internalType": "string",
              "name": "value",
              "type": "string"
            },
            {
              "internalType": "bool",
              "name": "exists",
              "type": "bool"
            }
          ],
          "internalType": "struct ERC721Metadata.KeyValue[]",
          "name": "",
          "type": "tuple[]"
        }
      ],
      "stateMutability": "view",
      "type": "function"
    },
    {
      "inputs": [
        {
          "internalType": "uint256",
          "name": "_tokenId",
          "type": "uint256"
        },
        {
          "internalType": "string",
          "name": "_key",
          "type": "string"
        }
      ],
      "name": "getMetadata",
      "outputs": [
        {
          "components": [
            {
              "internalType": "string",
              "name": "key",
              "type": "string"
            },
            {
              "internalType": "string",
              "name": "value",
              "type": "string"
            },
            {
              "internalType": "bool",
              "name": "exists",
              "type": "bool"
            }
          ],
          "internalType": "struct ERC721Metadata.KeyValue",
          "name": "",
          "type": "tuple"
        }
      ],
      "stateMutability": "view",
      "type": "function"
    },
    {
      "inputs": [
        {
          "internalType": "address",
          "name": "owner",
          "type": "address"
        },
        {
          "internalType": "address",
          "name": "operator",
          "type": "address"
        }
      ],
      "name": "isApprovedForAll",
      "outputs": [
        {
          "internalType": "bool",
          "name": "",
          "type": "bool"
        }
      ],
      "stateMutability": "view",
      "type": "function"
    },
    {
      "inputs": [
        {
          "internalType": "address",
          "name": "_to",
          "type": "address"
        },
        {
          "internalType": "string",
          "name": "_uri",
          "type": "string"
        },
        {
          "internalType": "string[]",
          "name": "_keys",
          "type": "string[]"
        },
        {
          "internalType": "string[]",
          "name": "_values",
          "type": "string[]"
        }
      ],
      "name": "mint",
      "outputs": [
        {
          "internalType": "uint256",
          "name": "tokenId",
          "type": "uint256"
        }
      ],
      "stateMutability": "nonpayable",
      "type": "function"
    },
    {
      "inputs": [
        {
          "internalType": "address",
          "name": "_to",
          "type": "address"
        },
        {
          "internalType": "string",
          "name": "_uri",
          "type": "string"
        }
      ],
      "name": "mint",
      "outputs": [
        {
          "internalType": "uint256",
          "name": "tokenId",
          "type": "uint256"
        }
      ],
      "stateMutability": "nonpayable",
      "type": "function"
    },
    {
      "inputs": [],
      "name": "name",
      "outputs": [
        {
          "internalType": "string",
          "name": "",
          "type": "string"
        }
      ],
      "stateMutability": "view",
      "type": "function"
    },
    {
      "inputs": [],
      "name": "owner",
      "outputs": [
        {
          "internalType": "address",
          "name": "",
          "type": "address"
        }
      ],
      "stateMutability": "view",
      "type": "function"
    },
    {
      "inputs": [
        {
          "internalType": "uint256",
          "name": "tokenId",
          "type": "uint256"
        }
      ],
      "name": "ownerOf",
      "outputs": [
        {
          "internalType": "address",
          "name": "",
          "type": "address"
        }
      ],
      "stateMutability": "view",
      "type": "function"
    },
    {
      "inputs": [],
      "name": "renounceOwnership",
      "outputs": [],
      "stateMutability": "nonpayable",
      "type": "function"
    },
    {
      "inputs": [
        {
          "internalType": "address",
          "name": "from",
          "type": "address"
        },
        {
          "internalType": "address",
          "name": "to",
          "type": "address"
        },
        {
          "internalType": "uint256",
          "name": "tokenId",
          "type": "uint256"
        }
      ],
      "name": "safeTransferFrom",
      "outputs": [],
      "stateMutability": "nonpayable",
      "type": "function"
    },
    {
      "inputs": [
        {
          "internalType": "address",
          "name": "from",
          "type": "address"
        },
        {
          "internalType": "address",
          "name": "to",
          "type": "address"
        },
        {
          "internalType": "uint256",
          "name": "tokenId",
          "type": "uint256"
        },
        {
          "internalType": "bytes",
          "name": "data",
          "type": "bytes"
        }
      ],
      "name": "safeTransferFrom",
      "outputs": [],
      "stateMutability": "nonpayable",
      "type": "function"
    },
    {
      "inputs": [
        {
          "internalType": "address",
          "name": "operator",
          "type": "address"
        },
        {
          "internalType": "bool",
          "name": "approved",
          "type": "bool"
        }
      ],
      "name": "setApprovalForAll",
      "outputs": [],
      "stateMutability": "nonpayable",
      "type": "function"
    },
    {
      "inputs": [
        {
          "internalType": "string[]",
          "name": "_keys",
          "type": "string[]"
        },
        {
          "internalType": "string[]",
          "name": "_values",
          "type": "string[]"
        }
      ],
      "name": "setCollectionMetadata",
      "outputs": [],
      "stateMutability": "nonpayable",
      "type": "function"
    },
    {
      "inputs": [
        {
          "internalType": "uint256",
          "name": "_tokenId",
          "type": "uint256"
        },
        {
          "internalType": "string",
          "name": "_key",
          "type": "string"
        },
        {
          "internalType": "string",
          "name": "_newValue",
          "type": "string"
        }
      ],
      "name": "setMetadata",
      "outputs": [],
      "stateMutability": "nonpayable",
      "type": "function"
    },
    {
      "inputs": [
        {
          "internalType": "uint256",
          "name": "_tokenId",
          "type": "uint256"
        },
        {
          "internalType": "string[]",
          "name": "_keys",
          "type": "string[]"
        },
        {
          "internalType": "string[]",
          "name": "_values",
          "type": "string[]"
        }
      ],
      "name": "setMetadata",
      "outputs": [],
      "stateMutability": "nonpayable",
      "type": "function"
    },
    {
      "inputs": [
        {
          "internalType": "uint256",
          "name": "_tokenId",
          "type": "uint256"
        },
        {
          "internalType": "string",
          "name": "_newURI",
          "type": "string"
        }
      ],
      "name": "setTokenURI",
      "outputs": [],
      "stateMutability": "nonpayable",
      "type": "function"
    },
    {
      "inputs": [
        {
          "internalType": "bytes4",
          "name": "interfaceId",
          "type": "bytes4"
        }
      ],
      "name": "supportsInterface",
      "outputs": [
        {
          "internalType": "bool",
          "name": "",
          "type": "bool"
        }
      ],
      "stateMutability": "view",
      "type": "function"
    },
    {
      "inputs": [],
      "name": "symbol",
      "outputs": [
        {
          "internalType": "string",
          "name": "",
          "type": "string"
        }
      ],
      "stateMutability": "view",
      "type": "function"
    },
    {
      "inputs": [
        {
          "internalType": "uint256",
          "name": "tokenId",
          "type": "uint256"
        }
      ],
      "name": "tokenURI",
      "outputs": [
        {
          "internalType": "string",
          "name": "",
          "type": "string"
        }
      ],
      "stateMutability": "view",
      "type": "function"
    },
    {
      "inputs": [
        {
          "internalType": "address",
          "name": "from",
          "type": "address"
        },
        {
          "internalType": "address",
          "name": "to",
          "type": "address"
        },
        {
          "internalType": "uint256",
          "name": "tokenId",
          "type": "uint256"
        }
      ],
      "name": "transferFrom",
      "outputs": [],
      "stateMutability": "nonpayable",
      "type": "function"
    },
    {
      "inputs": [
        {
          "internalType": "address",
          "name": "newOwner",
          "type": "address"
        }
      ],
      "name": "transferOwnership",
      "outputs": [],
      "stateMutability": "nonpayable",
      "type": "function"
    }
  ],
  "bytecode": "0x60806040523480156200001157600080fd5b506040516200318f3803806200318f8339810160408190526200003491620001b4565b3382826000620000458382620002af565b506001620000548282620002af565b5050506001600160a01b0381166200008657604051631e4fbdf760e01b81526000600482015260240160405180910390fd5b62000091816200009a565b5050506200037b565b600780546001600160a01b038381166001600160a01b0319831681179093556040519116919082907f8be0079c531659141344cd1fd0a4f28419497f9722a3daafe3b4186f6b6457e090600090a35050565b634e487b7160e01b600052604160045260246000fd5b600082601f8301126200011457600080fd5b81516001600160401b0380821115620001315762000131620000ec565b604051601f8301601f19908116603f011681019082821181831017156200015c576200015c620000ec565b81604052838152602092508660208588010111156200017a57600080fd5b600091505b838210156200019e57858201830151818301840152908201906200017f565b6000602085830101528094505050505092915050565b60008060408385031215620001c857600080fd5b82516001600160401b0380821115620001e057600080fd5b620001ee8683870162000102565b935060208501519150808211156200020557600080fd5b50620002148582860162000102565b9150509250929050565b600181811c908216806200023357607f821691505b6020821081036200025457634e487b7160e01b600052602260045260246000fd5b50919050565b601f821115620002aa576000816000526020600020601f850160051c81016020861015620002855750805b601f850160051c820191505b81811015620002a65782815560010162000291565b5050505b505050565b81516001600160401b03811115620002cb57620002cb620000ec565b620002e381620002dc84546200021e565b846200025a565b602080601f8311600181146200031b5760008415620003025750858301515b600019600386901b1c1916600185901b178555620002a6565b600085815260208120601f198616915b828110156200034c578886015182559484019460019091019084016200032b565b50858210156200036b5787850151600019600388901b60f8161c191681555b5050505050600190811b01905550565b612e04806200038b6000396000f3fe608060405234801561001057600080fd5b50600436106101cf5760003560e01c8063934118fb11610104578063c9ff3a5b116100a2578063e9c2cf7111610071578063e9c2cf71146103f2578063ef10f25614610405578063f2fde38b14610418578063fdf1094c1461042b57600080fd5b8063c9ff3a5b1461038c578063cb4799f2146103ac578063d0def521146103cc578063e985e9c5146103df57600080fd5b8063a574cea4116100de578063a574cea414610340578063b74c24eb14610353578063b88d4fde14610366578063c87b56dd1461037957600080fd5b8063934118fb1461031057806395d89b4114610325578063a22cb4651461032d57600080fd5b806342842e0e116101715780636352211e1161014b5780636352211e146102c357806370a08231146102d6578063715018a6146102f75780638da5cb5b146102ff57600080fd5b806342842e0e1461028a5780634dcf6ad61461029d57806359f9f50f146102b057600080fd5b8063095ea7b3116101ad578063095ea7b31461023c578063162094c41461025157806320df2c5e1461026457806323b872dd1461027757600080fd5b806301ffc9a7146101d457806306fdde03146101fc578063081812fc14610211575b600080fd5b6101e76101e2366004612344565b61043e565b60405190151581526020015b60405180910390f35b61020461044f565b6040516101f391906123b1565b61022461021f3660046123c4565b6104e1565b6040516001600160a01b0390911681526020016101f3565b61024f61024a3660046123f9565b61050a565b005b61024f61025f3660046124e0565b610519565b61024f6102723660046125c4565b61056a565b61024f61028536600461261d565b61057c565b61024f61029836600461261d565b610607565b61024f6102ab3660046123c4565b610622565b61024f6102be366004612659565b610677565b6102246102d13660046123c4565b61071b565b6102e96102e43660046126c5565b610726565b6040519081526020016101f3565b61024f61076e565b6007546001600160a01b0316610224565b610318610782565b6040516101f39190612781565b610204610a35565b61024f61033b366004612794565b610a44565b61031861034e3660046123c4565b610a4f565b61024f6103613660046127d0565b610bce565b61024f610374366004612868565b610bef565b6102046103873660046123c4565b610c06565b61039f61039a3660046128d7565b610c11565b6040516101f39190612930565b6103bf6103ba3660046124e0565b610c93565b6040516101f391906129d8565b61024f6103da3660046129eb565b610e12565b6101e76103ed366004612a22565b610e24565b61024f610400366004612a55565b610e52565b61039f6104133660046125c4565b610eef565b61024f6104263660046126c5565b6110be565b6103bf610439366004612ab7565b6110fc565b600061044982611279565b92915050565b60606000805461045e90612aeb565b80601f016020809104026020016040519081016040528092919081815260200182805461048a90612aeb565b80156104d75780601f106104ac576101008083540402835291602001916104d7565b820191906000526020600020905b8154815290600101906020018083116104ba57829003601f168201915b5050505050905090565b60006104ec8261129e565b506000828152600460205260409020546001600160a01b0316610449565b6105158282336112d7565b5050565b6105216112e4565b6000828152600c6020526040902054829060ff161561055b5760405162461bcd60e51b815260040161055290612b1f565b60405180910390fd5b6105658383611311565b505050565b6105726112e4565b6105158282611361565b6001600160a01b0382166105a657604051633250574960e11b815260006004820152602401610552565b60006105b3838333611542565b9050836001600160a01b0316816001600160a01b031614610601576040516364283d7b60e01b81526001600160a01b0380861660048301526024820184905282166044820152606401610552565b50505050565b61056583838360405180602001604052806000815250610bef565b61062a6112e4565b6000818152600c6020526040902054819060ff161561065b5760405162461bcd60e51b815260040161055290612b1f565b506000908152600c60205260409020805460ff19166001179055565b82336106828261071b565b6001600160a01b0316146106d85760405162461bcd60e51b815260206004820152601f60248201527f4552433732314d657461646174613a206e6f7420746f6b656e206f776e6572006044820152606401610552565b6000848152600c6020526040902054849060ff16156107095760405162461bcd60e51b815260040161055290612b1f565b61071485858561163b565b5050505050565b60006104498261129e565b60006001600160a01b038216610752576040516322718ad960e21b815260006004820152602401610552565b506001600160a01b031660009081526003602052604090205490565b6107766112e4565b6107806000611714565b565b600e546060906000906001600160401b038111156107a2576107a2612423565b6040519080825280602002602001820160405280156107ef57816020015b604080516060808201835280825260208201526000918101919091528152602001906001900390816107c05790505b50905060005b600e54811015610a2f576000600e828154811061081457610814612b7c565b90600052602060002001805461082990612aeb565b80601f016020809104026020016040519081016040528092919081815260200182805461085590612aeb565b80156108a25780601f10610877576101008083540402835291602001916108a2565b820191906000526020600020905b81548152906001019060200180831161088557829003601f168201915b50505050509050600d816040516108b99190612b92565b90815260200160405180910390206040518060600160405290816000820180546108e290612aeb565b80601f016020809104026020016040519081016040528092919081815260200182805461090e90612aeb565b801561095b5780601f106109305761010080835404028352916020019161095b565b820191906000526020600020905b81548152906001019060200180831161093e57829003601f168201915b5050505050815260200160018201805461097490612aeb565b80601f01602080910402602001604051908101604052809291908181526020018280546109a090612aeb565b80156109ed5780601f106109c2576101008083540402835291602001916109ed565b820191906000526020600020905b8154815290600101906020018083116109d057829003601f168201915b50505091835250506002919091015460ff1615156020909101528351849084908110610a1b57610a1b612b7c565b6020908102919091010152506001016107f5565b50919050565b60606001805461045e90612aeb565b610515338383611766565b6000818152600b6020526040812054606091906001600160401b03811115610a7957610a79612423565b604051908082528060200260200182016040528015610ac657816020015b60408051606080820183528082526020820152600091810191909152815260200190600190039081610a975790505b50905060005b6000848152600b6020526040902054811015610bc7576000848152600b60205260408120805483908110610b0257610b02612b7c565b906000526020600020018054610b1790612aeb565b80601f0160208091040260200160405190810160405280929190818152602001828054610b4390612aeb565b8015610b905780601f10610b6557610100808354040283529160200191610b90565b820191906000526020600020905b815481529060010190602001808311610b7357829003601f168201915b50505050509050610ba18582610c93565b838381518110610bb357610bb3612b7c565b602090810291909101015250600101610acc565b5092915050565b610bd66112e4565b6000610be28585611805565b9050610714818484611830565b610bfa84848461057c565b610601848484846118a2565b6060610449826119c4565b60606000600a6000610c238686611acd565b8152602001908152602001600020805480602002602001604051908101604052809291908181526020018280548015610c7b57602002820191906000526020600020905b815481526020019060010190808311610c67575b50505050509050610c8b81611b00565b949350505050565b6040805160608082018352808252602082015260009181019190915260096000610cbd8585611bd8565b8152602001908152602001600020604051806060016040529081600082018054610ce690612aeb565b80601f0160208091040260200160405190810160405280929190818152602001828054610d1290612aeb565b8015610d5f5780601f10610d3457610100808354040283529160200191610d5f565b820191906000526020600020905b815481529060010190602001808311610d4257829003601f168201915b50505050508152602001600182018054610d7890612aeb565b80601f0160208091040260200160405190810160405280929190818152602001828054610da490612aeb565b8015610df15780601f10610dc657610100808354040283529160200191610df1565b820191906000526020600020905b815481529060010190602001808311610dd457829003601f168201915b50505091835250506002919091015460ff1615156020909101529392505050565b610e1a6112e4565b6105658282611805565b6001600160a01b03918216600090815260056020908152604080832093909416825291909152205460ff1690565b8233610e5d8261071b565b6001600160a01b031614610eb35760405162461bcd60e51b815260206004820152601f60248201527f4552433732314d657461646174613a206e6f7420746f6b656e206f776e6572006044820152606401610552565b6000848152600c6020526040902054849060ff1615610ee45760405162461bcd60e51b815260040161055290612b1f565b610714858585611830565b60608151835114610f5a5760405162461bcd60e51b815260206004820152602f60248201527f4552433732314d657461646174613a206b65797320616e642076616c7565732060448201526e0d8cadccee8d040dad2e6dac2e8c6d608b1b6064820152608401610552565b6000600a6000610f9e86600081518110610f7657610f76612b7c565b602002602001015186600081518110610f9157610f91612b7c565b6020026020010151611acd565b8152602001908152602001600020805480602002602001604051908101604052809291908181526020018280548015610ff657602002820191906000526020600020905b815481526020019060010190808311610fe2575b50939450600193505050505b84518110156110b4576000600a600061104088858151811061102657611026612b7c565b6020026020010151888681518110610f9157610f91612b7c565b815260200190815260200160002080548060200260200160405190810160405280929190818152602001828054801561109857602002820191906000526020600020905b815481526020019060010190808311611084575b505050505090506110a98382611bed565b925050600101611002565b50610c8b81611b00565b6110c66112e4565b6001600160a01b0381166110f057604051631e4fbdf760e01b815260006004820152602401610552565b6110f981611714565b50565b604080516060808201835280825260208201526000818301529051600d90611125908490612b92565b908152602001604051809103902060405180606001604052908160008201805461114e90612aeb565b80601f016020809104026020016040519081016040528092919081815260200182805461117a90612aeb565b80156111c75780601f1061119c576101008083540402835291602001916111c7565b820191906000526020600020905b8154815290600101906020018083116111aa57829003601f168201915b505050505081526020016001820180546111e090612aeb565b80601f016020809104026020016040519081016040528092919081815260200182805461120c90612aeb565b80156112595780601f1061122e57610100808354040283529160200191611259565b820191906000526020600020905b81548152906001019060200180831161123c57829003601f168201915b50505091835250506002919091015460ff16151560209091015292915050565b60006001600160e01b03198216632483248360e11b1480610449575061044982611d0d565b6000818152600260205260408120546001600160a01b03168061044957604051637e27328960e01b815260048101849052602401610552565b6105658383836001611d5d565b6007546001600160a01b031633146107805760405163118cdaa760e01b8152336004820152602401610552565b60008281526006602052604090206113298282612bfe565b506040518281527ff8e1a15aba9398e019f0b49df1a4fde98ee17ae345cb5f6b5e2c27f5033e8ce79060200160405180910390a15050565b60008251116113be5760405162461bcd60e51b8152602060048201526024808201527f4552433732314d657461646174613a20696e76616c6964206172726179206c656044820152630dccee8d60e31b6064820152608401610552565b80518251146113df5760405162461bcd60e51b815260040161055290612cbd565b60005b8251811015610565576000604051806060016040528085848151811061140a5761140a612b7c565b6020026020010151815260200184848151811061142957611429612b7c565b60200260200101518152602001600115158152509050600d84838151811061145357611453612b7c565b60200260200101516040516114689190612b92565b9081526040519081900360200190206002015460ff166114c157600e84838151811061149657611496612b7c565b602090810291909101810151825460018101845560009384529190922001906114bf9082612bfe565b505b80600d8584815181106114d6576114d6612b7c565b60200260200101516040516114eb9190612b92565b908152604051908190036020019020815181906115089082612bfe565b506020820151600182019061151d9082612bfe565b50604091909101516002909101805460ff1916911515919091179055506001016113e2565b6000828152600260205260408120546001600160a01b039081169083161561156f5761156f818486611e63565b6001600160a01b038116156115ad5761158c600085600080611d5d565b6001600160a01b038116600090815260036020526040902080546000190190555b6001600160a01b038516156115dc576001600160a01b0385166000908152600360205260409020805460010190555b60008481526002602052604080822080546001600160a01b0319166001600160a01b0389811691821790925591518793918516917fddf252ad1be2c89b69c2b068fc378daa952ba7f163c4a11628f55a4df523b3ef91a4949350505050565b6040805160608101825283815260208101839052600191810191909152600960006116668686611bd8565b815260208101919091526040016000206002015460ff166116ab576000848152600b60209081526040822080546001810182559083529120016116a98482612bfe565b505b80600960006116ba8787611bd8565b81526020810191909152604001600020815181906116d89082612bfe565b50602082015160018201906116ed9082612bfe565b50604091909101516002909101805460ff1916911515919091179055610601848484611ec7565b600780546001600160a01b038381166001600160a01b0319831681179093556040519116919082907f8be0079c531659141344cd1fd0a4f28419497f9722a3daafe3b4186f6b6457e090600090a35050565b6001600160a01b03821661179857604051630b61174360e31b81526001600160a01b0383166004820152602401610552565b6001600160a01b03838116600081815260056020908152604080832094871680845294825291829020805460ff191686151590811790915591519182527f17307eab39ab6107e8899845ad3d59bd9653f200f220920489ca2b5937696c31910160405180910390a3505050565b600880546000918261181683612d02565b9190505590506118268382611f41565b6104498183611311565b80518251146118515760405162461bcd60e51b815260040161055290612cbd565b60005b82518110156106015761189a8484838151811061187357611873612b7c565b602002602001015184848151811061188d5761188d612b7c565b602002602001015161163b565b600101611854565b6001600160a01b0383163b1561060157604051630a85bd0160e11b81526001600160a01b0384169063150b7a02906118e4903390889087908790600401612d29565b6020604051808303816000875af192505050801561191f575060408051601f3d908101601f1916820190925261191c91810190612d5c565b60015b611988573d80801561194d576040519150601f19603f3d011682016040523d82523d6000602084013e611952565b606091505b50805160000361198057604051633250574960e11b81526001600160a01b0385166004820152602401610552565b805181602001fd5b6001600160e01b03198116630a85bd0160e11b1461071457604051633250574960e11b81526001600160a01b0385166004820152602401610552565b60606119cf8261129e565b50600082815260066020526040812080546119e990612aeb565b80601f0160208091040260200160405190810160405280929190818152602001828054611a1590612aeb565b8015611a625780601f10611a3757610100808354040283529160200191611a62565b820191906000526020600020905b815481529060010190602001808311611a4557829003601f168201915b505050505090506000611a8060408051602081019091526000815290565b90508051600003611a92575092915050565b815115611ac4578082604051602001611aac929190612d79565b60405160208183030381529060405292505050919050565b610c8b84611f5b565b60008282604051602001611ae2929190612d79565b60405160208183030381529060405280519060200120905092915050565b6060600082516001600160401b03811115611b1d57611b1d612423565b604051908082528060200260200182016040528015611b8257816020015b611b6f6040518060800160405280600081526020016060815260200160006001600160a01b03168152602001606081525090565b815260200190600190039081611b3b5790505b50905060005b8351811015610bc757611bb3848281518110611ba657611ba6612b7c565b6020026020010151611fd0565b828281518110611bc557611bc5612b7c565b6020908102919091010152600101611b88565b60008282604051602001611ae2929190612da8565b606060008251845111611c01578351611c04565b82515b90506000816001600160401b03811115611c2057611c20612423565b604051908082528060200260200182016040528015611c49578160200160208202803683370190505b5090506000805b8651811015611cf85760005b8651811015611cef57868181518110611c7757611c77612b7c565b6020026020010151888381518110611c9157611c91612b7c565b602002602001015103611ce757878281518110611cb057611cb0612b7c565b6020026020010151848480611cc490612d02565b955081518110611cd657611cd6612b7c565b602002602001018181525050611cef565b600101611c5c565b50600101611c50565b50611d03828261204b565b9695505050505050565b60006001600160e01b031982166380ac58cd60e01b1480611d3e57506001600160e01b03198216635b5e139f60e01b145b8061044957506301ffc9a760e01b6001600160e01b0319831614610449565b8080611d7157506001600160a01b03821615155b15611e33576000611d818461129e565b90506001600160a01b03831615801590611dad5750826001600160a01b0316816001600160a01b031614155b8015611dc05750611dbe8184610e24565b155b15611de95760405163a9fbf51f60e01b81526001600160a01b0384166004820152602401610552565b8115611e315783856001600160a01b0316826001600160a01b03167f8c5be1e5ebec7d5bd14f71427d1e84f3dd0314c0f7b2291e5b200ac8c7c3b92560405160405180910390a45b505b5050600090815260046020526040902080546001600160a01b0319166001600160a01b0392909216919091179055565b611e6e8383836120e5565b610565576001600160a01b038316611e9c57604051637e27328960e01b815260048101829052602401610552565b60405163177e802f60e01b81526001600160a01b038316600482015260248101829052604401610552565b6000600a6000611ed78585611acd565b8152602001908152602001600020905060005b8154811015611f255784828281548110611f0657611f06612b7c565b906000526020600020015403611f1d575050505050565b600101611eea565b5080546001810182556000918252602090912001929092555050565b610515828260405180602001604052806000815250612148565b6060611f668261129e565b506000611f7e60408051602081019091526000815290565b90506000815111611f9e5760405180602001604052806000815250611fc9565b80611fa88461215f565b604051602001611fb9929190612d79565b6040516020818303038152906040525b9392505050565b6120046040518060800160405280600081526020016060815260200160006001600160a01b03168152602001606081525090565b604051806080016040528083815260200161201e84610c06565b815260200161202c8461071b565b6001600160a01b0316815260200161204384610a4f565b905292915050565b60606000826001600160401b0381111561206757612067612423565b604051908082528060200260200182016040528015612090578160200160208202803683370190505b50905060005b838110156120dd578481815181106120b0576120b0612b7c565b60200260200101518282815181106120ca576120ca612b7c565b6020908102919091010152600101612096565b509392505050565b60006001600160a01b03831615801590610c8b5750826001600160a01b0316846001600160a01b0316148061211f575061211f8484610e24565b80610c8b5750506000908152600460205260409020546001600160a01b03908116911614919050565b61215283836121f1565b61056560008484846118a2565b6060600061216c83612256565b60010190506000816001600160401b0381111561218b5761218b612423565b6040519080825280601f01601f1916602001820160405280156121b5576020820181803683370190505b5090508181016020015b600019016f181899199a1a9b1b9c1cb0b131b232b360811b600a86061a8153600a85049450846121bf57509392505050565b6001600160a01b03821661221b57604051633250574960e11b815260006004820152602401610552565b600061222983836000611542565b90506001600160a01b03811615610565576040516339e3563760e11b815260006004820152602401610552565b60008072184f03e93ff9f4daa797ed6e38ed64bf6a1f0160401b83106122955772184f03e93ff9f4daa797ed6e38ed64bf6a1f0160401b830492506040015b6d04ee2d6d415b85acef810000000083106122c1576d04ee2d6d415b85acef8100000000830492506020015b662386f26fc1000083106122df57662386f26fc10000830492506010015b6305f5e10083106122f7576305f5e100830492506008015b612710831061230b57612710830492506004015b6064831061231d576064830492506002015b600a83106104495760010192915050565b6001600160e01b0319811681146110f957600080fd5b60006020828403121561235657600080fd5b8135611fc98161232e565b60005b8381101561237c578181015183820152602001612364565b50506000910152565b6000815180845261239d816020860160208601612361565b601f01601f19169290920160200192915050565b602081526000611fc96020830184612385565b6000602082840312156123d657600080fd5b5035919050565b80356001600160a01b03811681146123f457600080fd5b919050565b6000806040838503121561240c57600080fd5b612415836123dd565b946020939093013593505050565b634e487b7160e01b600052604160045260246000fd5b604051601f8201601f191681016001600160401b038111828210171561246157612461612423565b604052919050565b60006001600160401b0383111561248257612482612423565b612495601f8401601f1916602001612439565b90508281528383830111156124a957600080fd5b828260208301376000602084830101529392505050565b600082601f8301126124d157600080fd5b611fc983833560208501612469565b600080604083850312156124f357600080fd5b8235915060208301356001600160401b0381111561251057600080fd5b61251c858286016124c0565b9150509250929050565b600082601f83011261253757600080fd5b813560206001600160401b038083111561255357612553612423565b8260051b612562838201612439565b938452858101830193838101908886111561257c57600080fd5b84880192505b858310156125b85782358481111561259a5760008081fd5b6125a88a87838c01016124c0565b8352509184019190840190612582565b98975050505050505050565b600080604083850312156125d757600080fd5b82356001600160401b03808211156125ee57600080fd5b6125fa86838701612526565b9350602085013591508082111561261057600080fd5b5061251c85828601612526565b60008060006060848603121561263257600080fd5b61263b846123dd565b9250612649602085016123dd565b9150604084013590509250925092565b60008060006060848603121561266e57600080fd5b8335925060208401356001600160401b038082111561268c57600080fd5b612698878388016124c0565b935060408601359150808211156126ae57600080fd5b506126bb868287016124c0565b9150509250925092565b6000602082840312156126d757600080fd5b611fc9826123dd565b60008151606084526126f56060850182612385565b90506020830151848203602086015261270e8282612385565b9150506040830151151560408501528091505092915050565b60008282518085526020808601955060208260051b8401016020860160005b8481101561277457601f198684030189526127628383516126e0565b98840198925090830190600101612746565b5090979650505050505050565b602081526000611fc96020830184612727565b600080604083850312156127a757600080fd5b6127b0836123dd565b9150602083013580151581146127c557600080fd5b809150509250929050565b600080600080608085870312156127e657600080fd5b6127ef856123dd565b935060208501356001600160401b038082111561280b57600080fd5b612817888389016124c0565b9450604087013591508082111561282d57600080fd5b61283988838901612526565b9350606087013591508082111561284f57600080fd5b5061285c87828801612526565b91505092959194509250565b6000806000806080858703121561287e57600080fd5b612887856123dd565b9350612895602086016123dd565b92506040850135915060608501356001600160401b038111156128b757600080fd5b8501601f810187136128c857600080fd5b61285c87823560208401612469565b600080604083850312156128ea57600080fd5b82356001600160401b038082111561290157600080fd5b61290d868387016124c0565b9350602085013591508082111561292357600080fd5b5061251c858286016124c0565b600060208083018184528085518083526040925060408601915060408160051b87010184880160005b838110156129ca57603f19898403018552815160808151855288820151818a87015261298782870182612385565b838a01516001600160a01b0316878b01526060938401518782039488019490945291506129b690508183612727565b968901969450505090860190600101612959565b509098975050505050505050565b602081526000611fc960208301846126e0565b600080604083850312156129fe57600080fd5b612a07836123dd565b915060208301356001600160401b0381111561251057600080fd5b60008060408385031215612a3557600080fd5b612a3e836123dd565b9150612a4c602084016123dd565b90509250929050565b600080600060608486031215612a6a57600080fd5b8335925060208401356001600160401b0380821115612a8857600080fd5b612a9487838801612526565b93506040860135915080821115612aaa57600080fd5b506126bb86828701612526565b600060208284031215612ac957600080fd5b81356001600160401b03811115612adf57600080fd5b610c8b848285016124c0565b600181811c90821680612aff57607f821691505b602082108103610a2f57634e487b7160e01b600052602260045260246000fd5b60208082526038908201527f4552433732314d657461646174613a20746f6b656e206d65746164617461206360408201527f616e206e6f206c6f6e676572206265206d6f6469666965640000000000000000606082015260800190565b634e487b7160e01b600052603260045260246000fd5b60008251612ba4818460208701612361565b9190910192915050565b601f821115610565576000816000526020600020601f850160051c81016020861015612bd75750805b601f850160051c820191505b81811015612bf657828155600101612be3565b505050505050565b81516001600160401b03811115612c1757612c17612423565b612c2b81612c258454612aeb565b84612bae565b602080601f831160018114612c605760008415612c485750858301515b600019600386901b1c1916600185901b178555612bf6565b600085815260208120601f198616915b82811015612c8f57888601518255948401946001909101908401612c70565b5085821015612cad5787850151600019600388901b60f8161c191681555b5050505050600190811b01905550565b60208082526025908201527f4552433732314d657461646174613a206172726179206c656e677468206d69736040820152640dac2e8c6d60db1b606082015260800190565b600060018201612d2257634e487b7160e01b600052601160045260246000fd5b5060010190565b6001600160a01b0385811682528416602082015260408101839052608060608201819052600090611d0390830184612385565b600060208284031215612d6e57600080fd5b8151611fc98161232e565b60008351612d8b818460208801612361565b835190830190612d9f818360208801612361565b01949350505050565b82815260008251612dc0816020850160208701612361565b91909101602001939250505056fea2646970667358221220455d16027130fdf4dac3f0f5e7da9bcb3f126b202084bad3d77776edd2a7269b64736f6c63430008180033",
  "linkReferences": {},
  "deployedLinkReferences": {}
}