{
  "_format": "hh-sol-artifact-1",
  "contractName": "ERC721MetadataHTS",
  "sourceName": "contracts/erc721/hts/ERC721MetadataHTS.sol",
  "abi": [
    {
      "inputs": [
        {
          "internalType": "string",
          "name": "_name",
          "type": "string"
        },
        {
          "internalType": "string",
          "name": "_symbol",
          "type": "string"
        }
      ],
      "stateMutability": "nonpayable",
      "type": "constructor"
    },
    {
      "inputs": [
        {
          "internalType": "address",
          "name": "sender",
          "type": "address"
        },
        {
          "internalType": "uint256",
          "name": "tokenId",
          "type": "uint256"
        },
        {
          "internalType": "address",
          "name": "owner",
          "type": "address"
        }
      ],
      "name": "ERC721IncorrectOwner",
      "type": "error"
    },
    {
      "inputs": [
        {
          "internalType": "address",
          "name": "operator",
          "type": "address"
        },
        {
          "internalType": "uint256",
          "name": "tokenId",
          "type": "uint256"
        }
      ],
      "name": "ERC721InsufficientApproval",
      "type": "error"
    },
    {
      "inputs": [
        {
          "internalType": "address",
          "name": "approver",
          "type": "address"
        }
      ],
      "name": "ERC721InvalidApprover",
      "type": "error"
    },
    {
      "inputs": [
        {
          "internalType": "address",
          "name": "operator",
          "type": "address"
        }
      ],
      "name": "ERC721InvalidOperator",
      "type": "error"
    },
    {
      "inputs": [
        {
          "internalType": "address",
          "name": "owner",
          "type": "address"
        }
      ],
      "name": "ERC721InvalidOwner",
      "type": "error"
    },
    {
      "inputs": [
        {
          "internalType": "address",
          "name": "receiver",
          "type": "address"
        }
      ],
      "name": "ERC721InvalidReceiver",
      "type": "error"
    },
    {
      "inputs": [
        {
          "internalType": "address",
          "name": "sender",
          "type": "address"
        }
      ],
      "name": "ERC721InvalidSender",
      "type": "error"
    },
    {
      "inputs": [
        {
          "internalType": "uint256",
          "name": "tokenId",
          "type": "uint256"
        }
      ],
      "name": "ERC721NonexistentToken",
      "type": "error"
    },
    {
      "inputs": [
        {
          "internalType": "address",
          "name": "owner",
          "type": "address"
        }
      ],
      "name": "OwnableInvalidOwner",
      "type": "error"
    },
    {
      "inputs": [
        {
          "internalType": "address",
          "name": "account",
          "type": "address"
        }
      ],
      "name": "OwnableUnauthorizedAccount",
      "type": "error"
    },
    {
      "anonymous": false,
      "inputs": [
        {
          "indexed": true,
          "internalType": "address",
          "name": "owner",
          "type": "address"
        },
        {
          "indexed": true,
          "internalType": "address",
          "name": "approved",
          "type": "address"
        },
        {
          "indexed": true,
          "internalType": "uint256",
          "name": "tokenId",
          "type": "uint256"
        }
      ],
      "name": "Approval",
      "type": "event"
    },
    {
      "anonymous": false,
      "inputs": [
        {
          "indexed": true,
          "internalType": "address",
          "name": "owner",
          "type": "address"
        },
        {
          "indexed": true,
          "internalType": "address",
          "name": "operator",
          "type": "address"
        },
        {
          "indexed": false,
          "internalType": "bool",
          "name": "approved",
          "type": "bool"
        }
      ],
      "name": "ApprovalForAll",
      "type": "event"
    },
    {
      "anonymous": false,
      "inputs": [
        {
          "indexed": false,
          "internalType": "address",
          "name": "tokenAddress",
          "type": "address"
        },
        {
          "indexed": false,
          "internalType": "address",
          "name": "userAddress",
          "type": "address"
        }
      ],
      "name": "AssociatedToken",
      "type": "event"
    },
    {
      "anonymous": false,
      "inputs": [
        {
          "indexed": false,
          "internalType": "uint256",
          "name": "_fromTokenId",
          "type": "uint256"
        },
        {
          "indexed": false,
          "internalType": "uint256",
          "name": "_toTokenId",
          "type": "uint256"
        }
      ],
      "name": "BatchMetadataUpdate",
      "type": "event"
    },
    {
      "anonymous": false,
      "inputs": [
        {
          "indexed": false,
          "internalType": "address",
          "name": "tokenAddress",
          "type": "address"
        },
        {
          "indexed": false,
          "internalType": "int64",
          "name": "amount",
          "type": "int64"
        },
        {
          "indexed": false,
          "internalType": "int64",
          "name": "newTotalSupply",
          "type": "int64"
        }
      ],
      "name": "BurnedToken",
      "type": "event"
    },
    {
      "anonymous": false,
      "inputs": [
        {
          "indexed": false,
          "internalType": "bool",
          "name": "",
          "type": "bool"
        },
        {
          "indexed": false,
          "internalType": "bytes",
          "name": "",
          "type": "bytes"
        }
      ],
      "name": "CallResponseEvent",
      "type": "event"
    },
    {
      "anonymous": false,
      "inputs": [
        {
          "indexed": false,
          "internalType": "address",
          "name": "tokenAddress",
          "type": "address"
        }
      ],
      "name": "CreatedToken",
      "type": "event"
    },
    {
      "anonymous": false,
      "inputs": [
        {
          "indexed": false,
          "internalType": "uint256",
          "name": "_tokenId",
          "type": "uint256"
        }
      ],
      "name": "MetadataUpdate",
      "type": "event"
    },
    {
      "anonymous": false,
      "inputs": [
        {
          "indexed": false,
          "internalType": "address",
          "name": "tokenAddress",
          "type": "address"
        },
        {
          "indexed": false,
          "internalType": "int64",
          "name": "amount",
          "type": "int64"
        },
        {
          "indexed": false,
          "internalType": "int64",
          "name": "newTotalSupply",
          "type": "int64"
        }
      ],
      "name": "MintedToken",
      "type": "event"
    },
    {
      "anonymous": false,
      "inputs": [
        {
          "indexed": true,
          "internalType": "address",
          "name": "previousOwner",
          "type": "address"
        },
        {
          "indexed": true,
          "internalType": "address",
          "name": "newOwner",
          "type": "address"
        }
      ],
      "name": "OwnershipTransferred",
      "type": "event"
    },
    {
      "anonymous": false,
      "inputs": [
        {
          "indexed": true,
          "internalType": "address",
          "name": "from",
          "type": "address"
        },
        {
          "indexed": true,
          "internalType": "address",
          "name": "to",
          "type": "address"
        },
        {
          "indexed": true,
          "internalType": "uint256",
          "name": "tokenId",
          "type": "uint256"
        }
      ],
      "name": "Transfer",
      "type": "event"
    },
    {
      "inputs": [
        {
          "internalType": "address",
          "name": "to",
          "type": "address"
        },
        {
          "internalType": "uint256",
          "name": "tokenId",
          "type": "uint256"
        }
      ],
      "name": "approve",
      "outputs": [],
      "stateMutability": "nonpayable",
      "type": "function"
    },
    {
      "inputs": [],
      "name": "associate",
      "outputs": [
        {
          "internalType": "uint256",
          "name": "responseCode",
          "type": "uint256"
        }
      ],
      "stateMutability": "nonpayable",
      "type": "function"
    },
    {
      "inputs": [
        {
          "internalType": "address",
          "name": "account",
          "type": "address"
        }
      ],
      "name": "associateAccount",
      "outputs": [
        {
          "internalType": "int256",
          "name": "responseCode",
          "type": "int256"
        }
      ],
      "stateMutability": "nonpayable",
      "type": "function"
    },
    {
      "inputs": [
        {
          "internalType": "address",
          "name": "owner",
          "type": "address"
        }
      ],
      "name": "balanceOf",
      "outputs": [
        {
          "internalType": "uint256",
          "name": "",
          "type": "uint256"
        }
      ],
      "stateMutability": "view",
      "type": "function"
    },
    {
      "inputs": [
        {
          "internalType": "string",
          "name": "_key",
          "type": "string"
        },
        {
          "internalType": "string",
          "name": "_value",
          "type": "string"
        }
      ],
      "name": "filterTokens",
      "outputs": [
        {
          "components": [
            {
              "internalType": "uint256",
              "name": "id",
              "type": "uint256"
            },
            {
              "internalType": "string",
              "name": "uri",
              "type": "string"
            },
            {
              "internalType": "address",
              "name": "owner",
              "type": "address"
            },
            {
              "components": [
                {
                  "internalType": "string",
                  "name": "key",
                  "type": "string"
                },
                {
                  "internalType": "string",
                  "name": "value",
                  "type": "string"
                },
                {
                  "internalType": "bool",
                  "name": "exists",
                  "type": "bool"
                }
              ],
              "internalType": "struct ERC721MetadataHTS.KeyValue[]",
              "name": "metadata",
              "type": "tuple[]"
            }
          ],
          "internalType": "struct ERC721MetadataHTS.TokenDetails[]",
          "name": "",
          "type": "tuple[]"
        }
      ],
      "stateMutability": "view",
      "type": "function"
    },
    {
      "inputs": [
        {
          "internalType": "string[]",
          "name": "_keys",
          "type": "string[]"
        },
        {
          "internalType": "string[]",
          "name": "_values",
          "type": "string[]"
        }
      ],
      "name": "filterTokens",
      "outputs": [
        {
          "components": [
            {
              "internalType": "uint256",
              "name": "id",
              "type": "uint256"
            },
            {
              "internalType": "string",
              "name": "uri",
              "type": "string"
            },
            {
              "internalType": "address",
              "name": "owner",
              "type": "address"
            },
            {
              "components": [
                {
                  "internalType": "string",
                  "name": "key",
                  "type": "string"
                },
                {
                  "internalType": "string",
                  "name": "value",
                  "type": "string"
                },
                {
                  "internalType": "bool",
                  "name": "exists",
                  "type": "bool"
                }
              ],
              "internalType": "struct ERC721MetadataHTS.KeyValue[]",
              "name": "metadata",
              "type": "tuple[]"
            }
          ],
          "internalType": "struct ERC721MetadataHTS.TokenDetails[]",
          "name": "",
          "type": "tuple[]"
        }
      ],
      "stateMutability": "view",
      "type": "function"
    },
    {
      "inputs": [
        {
          "internalType": "uint256",
          "name": "_tokenId",
          "type": "uint256"
        }
      ],
      "name": "freezeMetadata",
      "outputs": [],
      "stateMutability": "nonpayable",
      "type": "function"
    },
    {
      "inputs": [
        {
          "internalType": "uint256",
          "name": "tokenId",
          "type": "uint256"
        }
      ],
      "name": "getApproved",
      "outputs": [
        {
          "internalType": "address",
          "name": "",
          "type": "address"
        }
      ],
      "stateMutability": "view",
      "type": "function"
    },
    {
      "inputs": [],
      "name": "getCollectionMetadata",
      "outputs": [
        {
          "components": [
            {
              "internalType": "string",
              "name": "key",
              "type": "string"
            },
            {
              "internalType": "string",
              "name": "value",
              "type": "string"
            },
            {
              "internalType": "bool",
              "name": "exists",
              "type": "bool"
            }
          ],
          "internalType": "struct ERC721MetadataHTS.KeyValue[]",
          "name": "",
          "type": "tuple[]"
        }
      ],
      "stateMutability": "view",
      "type": "function"
    },
    {
      "inputs": [
        {
          "internalType": "string",
          "name": "_key",
          "type": "string"
        }
      ],
      "name": "getCollectionMetadata",
      "outputs": [
        {
          "components": [
            {
              "internalType": "string",
              "name": "key",
              "type": "string"
            },
            {
              "internalType": "string",
              "name": "value",
              "type": "string"
            },
            {
              "internalType": "bool",
              "name": "exists",
              "type": "bool"
            }
          ],
          "internalType": "struct ERC721MetadataHTS.KeyValue",
          "name": "",
          "type": "tuple"
        }
      ],
      "stateMutability": "view",
      "type": "function"
    },
    {
      "inputs": [
        {
          "internalType": "uint256",
          "name": "_tokenId",
          "type": "uint256"
        }
      ],
      "name": "getMetadata",
      "outputs": [
        {
          "components": [
            {
              "internalType": "string",
              "name": "key",
              "type": "string"
            },
            {
              "internalType": "string",
              "name": "value",
              "type": "string"
            },
            {
              "internalType": "bool",
              "name": "exists",
              "type": "bool"
            }
          ],
          "internalType": "struct ERC721MetadataHTS.KeyValue[]",
          "name": "",
          "type": "tuple[]"
        }
      ],
      "stateMutability": "view",
      "type": "function"
    },
    {
      "inputs": [
        {
          "internalType": "uint256",
          "name": "_tokenId",
          "type": "uint256"
        },
        {
          "internalType": "string",
          "name": "_key",
          "type": "string"
        }
      ],
      "name": "getMetadata",
      "outputs": [
        {
          "components": [
            {
              "internalType": "string",
              "name": "key",
              "type": "string"
            },
            {
              "internalType": "string",
              "name": "value",
              "type": "string"
            },
            {
              "internalType": "bool",
              "name": "exists",
              "type": "bool"
            }
          ],
          "internalType": "struct ERC721MetadataHTS.KeyValue",
          "name": "",
          "type": "tuple"
        }
      ],
      "stateMutability": "view",
      "type": "function"
    },
    {
      "inputs": [
        {
          "internalType": "address",
          "name": "owner",
          "type": "address"
        },
        {
          "internalType": "address",
          "name": "operator",
          "type": "address"
        }
      ],
      "name": "isApprovedForAll",
      "outputs": [
        {
          "internalType": "bool",
          "name": "",
          "type": "bool"
        }
      ],
      "stateMutability": "view",
      "type": "function"
    },
    {
      "inputs": [
        {
          "internalType": "address",
          "name": "_to",
          "type": "address"
        },
        {
          "internalType": "string",
          "name": "_uri",
          "type": "string"
        },
        {
          "internalType": "string[]",
          "name": "_keys",
          "type": "string[]"
        },
        {
          "internalType": "string[]",
          "name": "_values",
          "type": "string[]"
        }
      ],
      "name": "mint",
      "outputs": [],
      "stateMutability": "nonpayable",
      "type": "function"
    },
    {
      "inputs": [
        {
          "internalType": "address",
          "name": "_to",
          "type": "address"
        },
        {
          "internalType": "string",
          "name": "_uri",
          "type": "string"
        }
      ],
      "name": "mint",
      "outputs": [],
      "stateMutability": "nonpayable",
      "type": "function"
    },
    {
      "inputs": [],
      "name": "name",
      "outputs": [
        {
          "internalType": "string",
          "name": "",
          "type": "string"
        }
      ],
      "stateMutability": "view",
      "type": "function"
    },
    {
      "inputs": [],
      "name": "owner",
      "outputs": [
        {
          "internalType": "address",
          "name": "",
          "type": "address"
        }
      ],
      "stateMutability": "view",
      "type": "function"
    },
    {
      "inputs": [
        {
          "internalType": "uint256",
          "name": "tokenId",
          "type": "uint256"
        }
      ],
      "name": "ownerOf",
      "outputs": [
        {
          "internalType": "address",
          "name": "",
          "type": "address"
        }
      ],
      "stateMutability": "view",
      "type": "function"
    },
    {
      "inputs": [
        {
          "internalType": "address",
          "name": "token",
          "type": "address"
        },
        {
          "internalType": "bytes",
          "name": "encodedFunctionSelector",
          "type": "bytes"
        }
      ],
      "name": "redirectForToken",
      "outputs": [
        {
          "internalType": "int256",
          "name": "responseCode",
          "type": "int256"
        },
        {
          "internalType": "bytes",
          "name": "response",
          "type": "bytes"
        }
      ],
      "stateMutability": "nonpayable",
      "type": "function"
    },
    {
      "inputs": [],
      "name": "renounceOwnership",
      "outputs": [],
      "stateMutability": "nonpayable",
      "type": "function"
    },
    {
      "inputs": [
        {
          "internalType": "address",
          "name": "from",
          "type": "address"
        },
        {
          "internalType": "address",
          "name": "to",
          "type": "address"
        },
        {
          "internalType": "uint256",
          "name": "tokenId",
          "type": "uint256"
        }
      ],
      "name": "safeTransferFrom",
      "outputs": [],
      "stateMutability": "nonpayable",
      "type": "function"
    },
    {
      "inputs": [
        {
          "internalType": "address",
          "name": "from",
          "type": "address"
        },
        {
          "internalType": "address",
          "name": "to",
          "type": "address"
        },
        {
          "internalType": "uint256",
          "name": "tokenId",
          "type": "uint256"
        },
        {
          "internalType": "bytes",
          "name": "data",
          "type": "bytes"
        }
      ],
      "name": "safeTransferFrom",
      "outputs": [],
      "stateMutability": "nonpayable",
      "type": "function"
    },
    {
      "inputs": [
        {
          "internalType": "address",
          "name": "operator",
          "type": "address"
        },
        {
          "internalType": "bool",
          "name": "approved",
          "type": "bool"
        }
      ],
      "name": "setApprovalForAll",
      "outputs": [],
      "stateMutability": "nonpayable",
      "type": "function"
    },
    {
      "inputs": [
        {
          "internalType": "string[]",
          "name": "_keys",
          "type": "string[]"
        },
        {
          "internalType": "string[]",
          "name": "_values",
          "type": "string[]"
        }
      ],
      "name": "setCollectionMetadata",
      "outputs": [],
      "stateMutability": "nonpayable",
      "type": "function"
    },
    {
      "inputs": [
        {
          "internalType": "uint256",
          "name": "_tokenId",
          "type": "uint256"
        },
        {
          "internalType": "string",
          "name": "_key",
          "type": "string"
        },
        {
          "internalType": "string",
          "name": "_newValue",
          "type": "string"
        }
      ],
      "name": "setMetadata",
      "outputs": [],
      "stateMutability": "nonpayable",
      "type": "function"
    },
    {
      "inputs": [
        {
          "internalType": "uint256",
          "name": "_tokenId",
          "type": "uint256"
        },
        {
          "internalType": "string[]",
          "name": "_keys",
          "type": "string[]"
        },
        {
          "internalType": "string[]",
          "name": "_values",
          "type": "string[]"
        }
      ],
      "name": "setMetadata",
      "outputs": [],
      "stateMutability": "nonpayable",
      "type": "function"
    },
    {
      "inputs": [
        {
          "internalType": "uint256",
          "name": "_tokenId",
          "type": "uint256"
        },
        {
          "internalType": "string",
          "name": "_newURI",
          "type": "string"
        }
      ],
      "name": "setTokenURI",
      "outputs": [],
      "stateMutability": "nonpayable",
      "type": "function"
    },
    {
      "inputs": [
        {
          "internalType": "bytes4",
          "name": "interfaceId",
          "type": "bytes4"
        }
      ],
      "name": "supportsInterface",
      "outputs": [
        {
          "internalType": "bool",
          "name": "",
          "type": "bool"
        }
      ],
      "stateMutability": "view",
      "type": "function"
    },
    {
      "inputs": [],
      "name": "symbol",
      "outputs": [
        {
          "internalType": "string",
          "name": "",
          "type": "string"
        }
      ],
      "stateMutability": "view",
      "type": "function"
    },
    {
      "inputs": [
        {
          "internalType": "uint256",
          "name": "tokenId",
          "type": "uint256"
        }
      ],
      "name": "tokenURI",
      "outputs": [
        {
          "internalType": "string",
          "name": "",
          "type": "string"
        }
      ],
      "stateMutability": "view",
      "type": "function"
    },
    {
      "inputs": [
        {
          "internalType": "address",
          "name": "token",
          "type": "address"
        },
        {
          "internalType": "address",
          "name": "from",
          "type": "address"
        },
        {
          "internalType": "address",
          "name": "to",
          "type": "address"
        },
        {
          "internalType": "uint256",
          "name": "amount",
          "type": "uint256"
        }
      ],
      "name": "transferFrom",
      "outputs": [
        {
          "internalType": "int64",
          "name": "responseCode",
          "type": "int64"
        }
      ],
      "stateMutability": "nonpayable",
      "type": "function"
    },
    {
      "inputs": [
        {
          "internalType": "address",
          "name": "from",
          "type": "address"
        },
        {
          "internalType": "address",
          "name": "to",
          "type": "address"
        },
        {
          "internalType": "uint256",
          "name": "tokenId",
          "type": "uint256"
        }
      ],
      "name": "transferFrom",
      "outputs": [],
      "stateMutability": "nonpayable",
      "type": "function"
    },
    {
      "inputs": [
        {
          "internalType": "address",
          "name": "token",
          "type": "address"
        },
        {
          "internalType": "address",
          "name": "from",
          "type": "address"
        },
        {
          "internalType": "address",
          "name": "to",
          "type": "address"
        },
        {
          "internalType": "uint256",
          "name": "serialNumber",
          "type": "uint256"
        }
      ],
      "name": "transferFromNFT",
      "outputs": [
        {
          "internalType": "int64",
          "name": "responseCode",
          "type": "int64"
        }
      ],
      "stateMutability": "nonpayable",
      "type": "function"
    },
    {
      "inputs": [
        {
          "internalType": "address",
          "name": "newOwner",
          "type": "address"
        }
      ],
      "name": "transferOwnership",
      "outputs": [],
      "stateMutability": "nonpayable",
      "type": "function"
    }
  ],
  "bytecode": "0x60806040523480156200001157600080fd5b50604051620045a7380380620045a783398101604081905262000034916200092e565b8181338484600062000047838262000a29565b50600162000056828262000a29565b5050506001600160a01b0381166200008957604051631e4fbdf760e01b8152600060048201526024015b60405180910390fd5b620000948162000445565b506009602090815260017fec8156718a8372b1db44bb411437d0870f3e3790d4a08526d024ce1b0b668f6b5560027f92e85d02570a8092d09a6e3a57665bc3815a2699a4074001bf1ccabf660f5a365560047f6cde3cea4b3a3fb2488b2808bae7556f4a405e50f65e1794383bc026131b13c381905560087fc575c31fea594a6eb97c8e9d3f9caee4c16218c6ef37e923234c0fe9014a61e75560107f8dc18c4ccfd75f5c815b63770fa542fd953e8fef7e0e44bbdd4913470ce7e9cb557f74b05292d1d4b2b48b65261b07099d24244bcb069f138d9a6bfdcf776becac4c8290556006600090815260407fbb6daa0c283751197dfdc76590680f9005e97d6f23870deb1164ab60b28b9f5f81905580518085018252828152815184815260a08101909252309490936103e89392839290919082015b620001d462000803565b815260200190600190039081620001ca57905050905062000210600060066000604051806020016040528060008152506200049760201b60201c565b8160008151811062000226576200022662000b0b565b6020026020010181905250620002556002600060405180602001604052806000815250620004da60201b60201c565b816001815181106200026b576200026b62000b0b565b60200260200101819052506200029a6004600060405180602001604052806000815250620004da60201b60201c565b81600281518110620002b057620002b062000b0b565b6020026020010181905250620002df6003600060405180602001604052806000815250620004da60201b60201c565b81600381518110620002f557620002f562000b0b565b602090810291909101810191909152604080516060808201835260008083526001600160a01b038a16838601819052627a1200848601528451610120810186528d81529586018c905293850193909352830187905260016080840152600786900b60a084015284151560c084015260e08301849052610100830181905291908062000380836200051b565b909250905060168214620003e15760405162461bcd60e51b815260206004820152602160248201527f4572726f72206372656174696e67204e6f6e2046756e6769626c6520546f6b656044820152603760f91b606482015260840162000080565b600a80546001600160a01b0319166001600160a01b0383169081179091556040519081527f7bb17726df1f3adee8aa00ba8e8bc5d6f182af3bbf77604639cb7f008dd3b4ed9060200160405180910390a15050505050505050505050505062000dad565b600780546001600160a01b038381166001600160a01b0319831681179093556040519116919082907f8be0079c531659141344cd1fd0a4f28419497f9722a3daafe3b4186f6b6457e090600090a35050565b620004a162000803565b6040518060400160405280620004be87876200064960201b60201c565b8152602001620004cf858562000693565b905295945050505050565b620004e462000803565b60405180604001604052806200050086620007be60201b60201c565b815260200162000511858562000693565b9052949350505050565b600080828061010001516000015160070b60001480156200054657506101008101516040015160070b155b156200055d576101008101516276a7006040909101525b6000806101676001600160a01b03163463ea83f29360e01b8860405160240162000588919062000c20565b60408051601f198184030181529181526020820180516001600160e01b03166001600160e01b0319909416939093179092529051620005c8919062000d40565b60006040518083038185875af1925050503d806000811462000607576040519150601f19603f3d011682016040523d82523d6000602084013e6200060c565b606091505b50915091508162000621576015600062000637565b8080602001905181019062000637919062000d5e565b60039190910b97909650945050505050565b60006200067183600681111562000664576200066462000af5565b600160ff9091161b821790565b90506200068c82600681111562000664576200066462000af5565b9392505050565b620006da6040518060a0016040528060001515815260200160006001600160a01b03168152602001606081526020016060815260200160006001600160a01b031681525090565b6000836004811115620006f157620006f162000af5565b03620007015760018152620007b8565b600183600481111562000718576200071862000af5565b0362000735576008546001600160a01b03166020820152620007b8565b60028360048111156200074c576200074c62000af5565b036200075f5760408101829052620007b8565b600383600481111562000776576200077662000af5565b03620007895760608101829052620007b8565b6004836004811115620007a057620007a062000af5565b03620007b8576008546001600160a01b031660808201525b92915050565b600060096000836006811115620007d957620007d962000af5565b6006811115620007ed57620007ed62000af5565b8152602001908152602001600020549050919050565b6040518060400160405280600081526020016200085c6040518060a0016040528060001515815260200160006001600160a01b03168152602001606081526020016060815260200160006001600160a01b031681525090565b905290565b634e487b7160e01b600052604160045260246000fd5b60005b83811015620008945781810151838201526020016200087a565b50506000910152565b600082601f830112620008af57600080fd5b81516001600160401b0380821115620008cc57620008cc62000861565b604051601f8301601f19908116603f01168101908282118183101715620008f757620008f762000861565b816040528381528660208588010111156200091157600080fd5b6200092484602083016020890162000877565b9695505050505050565b600080604083850312156200094257600080fd5b82516001600160401b03808211156200095a57600080fd5b62000968868387016200089d565b935060208501519150808211156200097f57600080fd5b506200098e858286016200089d565b9150509250929050565b600181811c90821680620009ad57607f821691505b602082108103620009ce57634e487b7160e01b600052602260045260246000fd5b50919050565b601f82111562000a24576000816000526020600020601f850160051c81016020861015620009ff5750805b601f850160051c820191505b8181101562000a205782815560010162000a0b565b5050505b505050565b81516001600160401b0381111562000a455762000a4562000861565b62000a5d8162000a56845462000998565b84620009d4565b602080601f83116001811462000a95576000841562000a7c5750858301515b600019600386901b1c1916600185901b17855562000a20565b600085815260208120601f198616915b8281101562000ac65788860151825594840194600190910190840162000aa5565b508582101562000ae55787850151600019600388901b60f8161c191681555b5050505050600190811b01905550565b634e487b7160e01b600052602160045260246000fd5b634e487b7160e01b600052603260045260246000fd5b6000815180845262000b3b81602086016020860162000877565b601f01601f19169290920160200192915050565b600082825180855260208086019550808260051b84010181860160005b8481101562000c1357858303601f1901895281518051845284015160408585018190528151151581860152818601516001600160a01b039081166060808801919091529183015160a0608080890182905291939092909162000bd260e08a018662000b21565b92860151898403603f1901858b015292945062000bf0858462000b21565b9501511660c0979097019690965250509884019892509083019060010162000b6c565b5090979650505050505050565b6020815260008251610160602084015262000c4061018084018262000b21565b90506020840151601f198085840301604086015262000c60838362000b21565b92506040860151915062000c7f60608601836001600160a01b03169052565b606086015191508085840301608086015262000c9c838362000b21565b92506080860151915062000cb460a086018315159052565b60a0860151915062000ccb60c086018360070b9052565b60c086015180151560e0870152915060e0860151915061010081868503018187015262000cf9848462000b4f565b908701518051600790810b61012089015260208201516001600160a01b03166101408901526040820151900b610160880152909350915062000d389050565b509392505050565b6000825162000d5481846020870162000877565b9190910192915050565b6000806040838503121562000d7257600080fd5b82518060030b811462000d8457600080fd5b60208401519092506001600160a01b038116811462000da257600080fd5b809150509250929050565b6137ea8062000dbd6000396000f3fe608060405234801561001057600080fd5b50600436106102065760003560e01c80638da5cb5b1161011a578063c87b56dd116100ad578063e985e9c51161007c578063e985e9c51461048b578063e9c2cf711461049e578063ef10f256146104b1578063f2fde38b146104c4578063fdf1094c146104d757600080fd5b8063c87b56dd14610425578063c9ff3a5b14610438578063cb4799f214610458578063d0def5211461047857600080fd5b8063a22cb465116100e9578063a22cb465146103d9578063a574cea4146103ec578063b74c24eb146103ff578063b88d4fde1461041257600080fd5b80638da5cb5b14610398578063934118fb146103a957806395d89b41146103be5780639b23d3d9146103c657600080fd5b806320df2c5e1161019d57806359f9f50f1161016c57806359f9f50f14610336578063618dc65e146103495780636352211e1461036a57806370a082311461037d578063715018a61461039057600080fd5b806320df2c5e146102ea57806323b872dd146102fd57806342842e0e146103105780634dcf6ad61461032357600080fd5b8063095ea7b3116101d9578063095ea7b3146102945780630a754de6146102a957806315dacbea146102b1578063162094c4146102d757600080fd5b806301ffc9a71461020b5780630333ca9c1461023357806306fdde0314610254578063081812fc14610269575b600080fd5b61021e610219366004612aff565b6104ea565b60405190151581526020015b60405180910390f35b610246610241366004612b38565b6104fb565b60405190815260200161022a565b61025c610564565b60405161022a9190612ba3565b61027c610277366004612bb6565b6105f6565b6040516001600160a01b03909116815260200161022a565b6102a76102a2366004612bcf565b61061f565b005b61024661062e565b6102c46102bf366004612bf9565b6106e8565b60405160079190910b815260200161022a565b6102a76102e5366004612cf9565b6107dc565b6102a76102f8366004612df1565b61082d565b6102a761030b366004612e4a565b61083f565b6102a761031e366004612e4a565b6108ca565b6102a7610331366004612bb6565b6108e5565b6102a7610344366004612e86565b61093a565b61035c610357366004612ef2565b6109de565b60405161022a929190612f29565b61027c610378366004612bb6565b610afc565b61024661038b366004612b38565b610b07565b6102a7610b4f565b6007546001600160a01b031661027c565b6103b1610b63565b60405161022a9190612fe3565b61025c610e16565b6102c46103d4366004612bf9565b610e25565b6102a76103e7366004612ff6565b610e6a565b6103b16103fa366004612bb6565b610e75565b6102a761040d366004613032565b610ff4565b6102a76104203660046130ca565b611015565b61025c610433366004612bb6565b61102c565b61044b610446366004613125565b611037565b60405161022a919061317e565b61046b610466366004612cf9565b6110b9565b60405161022a9190613226565b6102a7610486366004612ef2565b611238565b61021e610499366004613239565b61124a565b6102a76104ac36600461326c565b611278565b61044b6104bf366004612df1565b611315565b6102a76104d2366004612b38565b6114e4565b61046b6104e53660046132ce565b611522565b60006104f58261169f565b92915050565b600a546000906105159083906001600160a01b03166116c4565b600a54604080516001600160a01b03928316815291851660208301529192507f486bcb01e604496e2a4caa3ae8178d59ffedc37c140f1d4ad838b06cb1286547910160405180910390a1919050565b60606000805461057390613302565b80601f016020809104026020016040519081016040528092919081815260200182805461059f90613302565b80156105ec5780601f106105c1576101008083540402835291602001916105ec565b820191906000526020600020905b8154815290600101906020018083116105cf57829003601f168201915b5050505050905090565b600061060182611798565b506000828152600460205260409020546001600160a01b03166104f5565b61062a8282336117d1565b5050565b600a546040805163053aa6f360e11b815290516000926001600160a01b031691630a754de6916004808301926020929190829003018187875af1158015610679573d6000803e3d6000fd5b505050506040513d601f19601f8201168201806040525081019061069d9190613336565b600a54604080516001600160a01b0390921682523360208301529192507f486bcb01e604496e2a4caa3ae8178d59ffedc37c140f1d4ad838b06cb1286547910160405180910390a190565b6040516001600160a01b038581166024830152848116604483015283166064820152608481018290526000908190819061016790630aed65f560e11b9060a4015b60408051601f198184030181529181526020820180516001600160e01b03166001600160e01b0319909416939093179092529051610767919061334f565b6000604051808303816000865af19150503d80600081146107a4576040519150601f19603f3d011682016040523d82523d6000602084013e6107a9565b606091505b5091509150816107ba5760156107ce565b808060200190518101906107ce919061337d565b60030b979650505050505050565b6107e46117de565b6000828152600f6020526040902054829060ff161561081e5760405162461bcd60e51b815260040161081590613398565b60405180910390fd5b610828838361180b565b505050565b6108356117de565b61062a828261185b565b6001600160a01b03821661086957604051633250574960e11b815260006004820152602401610815565b6000610876838333611a3c565b9050836001600160a01b0316816001600160a01b0316146108c4576040516364283d7b60e01b81526001600160a01b0380861660048301526024820184905282166044820152606401610815565b50505050565b61082883838360405180602001604052806000815250611015565b6108ed6117de565b6000818152600f6020526040902054819060ff161561091e5760405162461bcd60e51b815260040161081590613398565b506000908152600f60205260409020805460ff19166001179055565b823361094582610afc565b6001600160a01b03161461099b5760405162461bcd60e51b815260206004820152601f60248201527f4552433732314d657461646174613a206e6f7420746f6b656e206f776e6572006044820152606401610815565b6000848152600f6020526040902054849060ff16156109cc5760405162461bcd60e51b815260040161081590613398565b6109d7858585611b35565b5050505050565b600060606000806101676001600160a01b031663618dc65e60e01b8787604051602401610a0c9291906133f5565b60408051601f198184030181529181526020820180516001600160e01b03166001600160e01b0319909416939093179092529051610a4a919061334f565b6000604051808303816000865af19150503d8060008114610a87576040519150601f19603f3d011682016040523d82523d6000602084013e610a8c565b606091505b50915091507f4af4780e06fe8cb9df64b0794fa6f01399af979175bb988e35e0e57e594567bc8282604051610ac2929190613419565b60405180910390a181610ae657601560405180602001604052806000815250610aea565b6016815b60039190910b97909650945050505050565b60006104f582611798565b60006001600160a01b038216610b33576040516322718ad960e21b815260006004820152602401610815565b506001600160a01b031660009081526003602052604090205490565b610b576117de565b610b616000611c0e565b565b6011546060906000906001600160401b03811115610b8357610b83612c44565b604051908082528060200260200182016040528015610bd057816020015b60408051606080820183528082526020820152600091810191909152815260200190600190039081610ba15790505b50905060005b601154811015610e1057600060118281548110610bf557610bf5613434565b906000526020600020018054610c0a90613302565b80601f0160208091040260200160405190810160405280929190818152602001828054610c3690613302565b8015610c835780601f10610c5857610100808354040283529160200191610c83565b820191906000526020600020905b815481529060010190602001808311610c6657829003601f168201915b50505050509050601081604051610c9a919061334f565b9081526020016040518091039020604051806060016040529081600082018054610cc390613302565b80601f0160208091040260200160405190810160405280929190818152602001828054610cef90613302565b8015610d3c5780601f10610d1157610100808354040283529160200191610d3c565b820191906000526020600020905b815481529060010190602001808311610d1f57829003601f168201915b50505050508152602001600182018054610d5590613302565b80601f0160208091040260200160405190810160405280929190818152602001828054610d8190613302565b8015610dce5780601f10610da357610100808354040283529160200191610dce565b820191906000526020600020905b815481529060010190602001808311610db157829003601f168201915b50505091835250506002919091015460ff1615156020909101528351849084908110610dfc57610dfc613434565b602090810291909101015250600101610bd6565b50919050565b60606001805461057390613302565b6040516001600160a01b038581166024830152848116604483015283166064820152608481018290526000908190819061016790639b23d3d960e01b9060a401610729565b61062a338383611c60565b6000818152600e6020526040812054606091906001600160401b03811115610e9f57610e9f612c44565b604051908082528060200260200182016040528015610eec57816020015b60408051606080820183528082526020820152600091810191909152815260200190600190039081610ebd5790505b50905060005b6000848152600e6020526040902054811015610fed576000848152600e60205260408120805483908110610f2857610f28613434565b906000526020600020018054610f3d90613302565b80601f0160208091040260200160405190810160405280929190818152602001828054610f6990613302565b8015610fb65780601f10610f8b57610100808354040283529160200191610fb6565b820191906000526020600020905b815481529060010190602001808311610f9957829003601f168201915b50505050509050610fc785826110b9565b838381518110610fd957610fd9613434565b602090810291909101015250600101610ef2565b5092915050565b610ffc6117de565b60006110088585611cff565b90506109d7818484611d34565b61102084848461083f565b6108c484848484611da6565b60606104f582611ec8565b60606000600d60006110498686611fd1565b81526020019081526020016000208054806020026020016040519081016040528092919081815260200182805480156110a157602002820191906000526020600020905b81548152602001906001019080831161108d575b505050505090506110b181612004565b949350505050565b60408051606080820183528082526020820152600091810191909152600c60006110e385856120dc565b815260200190815260200160002060405180606001604052908160008201805461110c90613302565b80601f016020809104026020016040519081016040528092919081815260200182805461113890613302565b80156111855780601f1061115a57610100808354040283529160200191611185565b820191906000526020600020905b81548152906001019060200180831161116857829003601f168201915b5050505050815260200160018201805461119e90613302565b80601f01602080910402602001604051908101604052809291908181526020018280546111ca90613302565b80156112175780601f106111ec57610100808354040283529160200191611217565b820191906000526020600020905b8154815290600101906020018083116111fa57829003601f168201915b50505091835250506002919091015460ff1615156020909101529392505050565b6112406117de565b6108288282611cff565b6001600160a01b03918216600090815260056020908152604080832093909416825291909152205460ff1690565b823361128382610afc565b6001600160a01b0316146112d95760405162461bcd60e51b815260206004820152601f60248201527f4552433732314d657461646174613a206e6f7420746f6b656e206f776e6572006044820152606401610815565b6000848152600f6020526040902054849060ff161561130a5760405162461bcd60e51b815260040161081590613398565b6109d7858585611d34565b606081518351146113805760405162461bcd60e51b815260206004820152602f60248201527f4552433732314d657461646174613a206b65797320616e642076616c7565732060448201526e0d8cadccee8d040dad2e6dac2e8c6d608b1b6064820152608401610815565b6000600d60006113c48660008151811061139c5761139c613434565b6020026020010151866000815181106113b7576113b7613434565b6020026020010151611fd1565b815260200190815260200160002080548060200260200160405190810160405280929190818152602001828054801561141c57602002820191906000526020600020905b815481526020019060010190808311611408575b50939450600193505050505b84518110156114da576000600d600061146688858151811061144c5761144c613434565b60200260200101518886815181106113b7576113b7613434565b81526020019081526020016000208054806020026020016040519081016040528092919081815260200182805480156114be57602002820191906000526020600020905b8154815260200190600101908083116114aa575b505050505090506114cf83826120f1565b925050600101611428565b506110b181612004565b6114ec6117de565b6001600160a01b03811661151657604051631e4fbdf760e01b815260006004820152602401610815565b61151f81611c0e565b50565b60408051606080820183528082526020820152600081830152905160109061154b90849061334f565b908152602001604051809103902060405180606001604052908160008201805461157490613302565b80601f01602080910402602001604051908101604052809291908181526020018280546115a090613302565b80156115ed5780601f106115c2576101008083540402835291602001916115ed565b820191906000526020600020905b8154815290600101906020018083116115d057829003601f168201915b5050505050815260200160018201805461160690613302565b80601f016020809104026020016040519081016040528092919081815260200182805461163290613302565b801561167f5780601f106116545761010080835404028352916020019161167f565b820191906000526020600020905b81548152906001019060200180831161166257829003601f168201915b50505091835250506002919091015460ff16151560209091015292915050565b60006001600160e01b03198216632483248360e11b14806104f557506104f582612211565b604080516001600160a01b038481166024830152831660448083019190915282518083039091018152606490910182526020810180516001600160e01b031663248a35ef60e11b17905290516000918291829161016791611725919061334f565b6000604051808303816000865af19150503d8060008114611762576040519150601f19603f3d011682016040523d82523d6000602084013e611767565b606091505b50915091508161177857601561178c565b8080602001905181019061178c919061337d565b60030b95945050505050565b6000818152600260205260408120546001600160a01b0316806104f557604051637e27328960e01b815260048101849052602401610815565b6108288383836001612261565b6007546001600160a01b03163314610b615760405163118cdaa760e01b8152336004820152602401610815565b6000828152600660205260409020611823828261349a565b506040518281527ff8e1a15aba9398e019f0b49df1a4fde98ee17ae345cb5f6b5e2c27f5033e8ce79060200160405180910390a15050565b60008251116118b85760405162461bcd60e51b8152602060048201526024808201527f4552433732314d657461646174613a20696e76616c6964206172726179206c656044820152630dccee8d60e31b6064820152608401610815565b80518251146118d95760405162461bcd60e51b815260040161081590613559565b60005b8251811015610828576000604051806060016040528085848151811061190457611904613434565b6020026020010151815260200184848151811061192357611923613434565b60200260200101518152602001600115158152509050601084838151811061194d5761194d613434565b6020026020010151604051611962919061334f565b9081526040519081900360200190206002015460ff166119bb57601184838151811061199057611990613434565b602090810291909101810151825460018101845560009384529190922001906119b9908261349a565b505b8060108584815181106119d0576119d0613434565b60200260200101516040516119e5919061334f565b90815260405190819003602001902081518190611a02908261349a565b5060208201516001820190611a17908261349a565b50604091909101516002909101805460ff1916911515919091179055506001016118dc565b6000828152600260205260408120546001600160a01b0390811690831615611a6957611a69818486612367565b6001600160a01b03811615611aa757611a86600085600080612261565b6001600160a01b038116600090815260036020526040902080546000190190555b6001600160a01b03851615611ad6576001600160a01b0385166000908152600360205260409020805460010190555b60008481526002602052604080822080546001600160a01b0319166001600160a01b0389811691821790925591518793918516917fddf252ad1be2c89b69c2b068fc378daa952ba7f163c4a11628f55a4df523b3ef91a4949350505050565b6040805160608101825283815260208101839052600191810191909152600c6000611b6086866120dc565b815260208101919091526040016000206002015460ff16611ba5576000848152600e6020908152604082208054600181018255908352912001611ba3848261349a565b505b80600c6000611bb487876120dc565b8152602081019190915260400160002081518190611bd2908261349a565b5060208201516001820190611be7908261349a565b50604091909101516002909101805460ff19169115159190911790556108c48484846123cb565b600780546001600160a01b038381166001600160a01b0319831681179093556040519116919082907f8be0079c531659141344cd1fd0a4f28419497f9722a3daafe3b4186f6b6457e090600090a35050565b6001600160a01b038216611c9257604051630b61174360e31b81526001600160a01b0383166004820152602401610815565b6001600160a01b03838116600081815260056020908152604080832094871680845294825291829020805460ff191686151590811790915591519182527f17307eab39ab6107e8899845ad3d59bd9653f200f220920489ca2b5937696c31910160405180910390a3505050565b600b805460009182611d108361359e565b919050559050611d208382612445565b611d2a818361180b565b610fed838361245f565b8051825114611d555760405162461bcd60e51b815260040161081590613559565b60005b82518110156108c457611d9e84848381518110611d7757611d77613434565b6020026020010151848481518110611d9157611d91613434565b6020026020010151611b35565b600101611d58565b6001600160a01b0383163b156108c457604051630a85bd0160e11b81526001600160a01b0384169063150b7a0290611de89033908890879087906004016135c5565b6020604051808303816000875af1925050508015611e23575060408051601f3d908101601f19168201909252611e20918101906135f8565b60015b611e8c573d808015611e51576040519150601f19603f3d011682016040523d82523d6000602084013e611e56565b606091505b508051600003611e8457604051633250574960e11b81526001600160a01b0385166004820152602401610815565b805181602001fd5b6001600160e01b03198116630a85bd0160e11b146109d757604051633250574960e11b81526001600160a01b0385166004820152602401610815565b6060611ed382611798565b5060008281526006602052604081208054611eed90613302565b80601f0160208091040260200160405190810160405280929190818152602001828054611f1990613302565b8015611f665780601f10611f3b57610100808354040283529160200191611f66565b820191906000526020600020905b815481529060010190602001808311611f4957829003601f168201915b505050505090506000611f8460408051602081019091526000815290565b90508051600003611f96575092915050565b815115611fc8578082604051602001611fb0929190613615565b60405160208183030381529060405292505050919050565b6110b1846125d0565b60008282604051602001611fe6929190613615565b60405160208183030381529060405280519060200120905092915050565b6060600082516001600160401b0381111561202157612021612c44565b60405190808252806020026020018201604052801561208657816020015b6120736040518060800160405280600081526020016060815260200160006001600160a01b03168152602001606081525090565b81526020019060019003908161203f5790505b50905060005b8351811015610fed576120b78482815181106120aa576120aa613434565b6020026020010151612645565b8282815181106120c9576120c9613434565b602090810291909101015260010161208c565b60008282604051602001611fe6929190613644565b606060008251845111612105578351612108565b82515b90506000816001600160401b0381111561212457612124612c44565b60405190808252806020026020018201604052801561214d578160200160208202803683370190505b5090506000805b86518110156121fc5760005b86518110156121f35786818151811061217b5761217b613434565b602002602001015188838151811061219557612195613434565b6020026020010151036121eb578782815181106121b4576121b4613434565b60200260200101518484806121c89061359e565b9550815181106121da576121da613434565b6020026020010181815250506121f3565b600101612160565b50600101612154565b5061220782826126c0565b9695505050505050565b60006001600160e01b031982166380ac58cd60e01b148061224257506001600160e01b03198216635b5e139f60e01b145b806104f557506301ffc9a760e01b6001600160e01b03198316146104f5565b808061227557506001600160a01b03821615155b1561233757600061228584611798565b90506001600160a01b038316158015906122b15750826001600160a01b0316816001600160a01b031614155b80156122c457506122c2818461124a565b155b156122ed5760405163a9fbf51f60e01b81526001600160a01b0384166004820152602401610815565b81156123355783856001600160a01b0316826001600160a01b03167f8c5be1e5ebec7d5bd14f71427d1e84f3dd0314c0f7b2291e5b200ac8c7c3b92560405160405180910390a45b505b5050600090815260046020526040902080546001600160a01b0319166001600160a01b0392909216919091179055565b61237283838361275a565b610828576001600160a01b0383166123a057604051637e27328960e01b815260048101829052602401610815565b60405163177e802f60e01b81526001600160a01b038316600482015260248101829052604401610815565b6000600d60006123db8585611fd1565b8152602001908152602001600020905060005b8154811015612429578482828154811061240a5761240a613434565b906000526020600020015403612421575050505050565b6001016123ee565b5080546001810182556000918252602090912001929092555050565b61062a8282604051806020016040528060008152506127bd565b604080516001808252818301909252600091829190816020015b606081526020019060019003908161247957905050905082816000815181106124a4576124a4613434565b6020908102919091010152600a54600090819081906124cd906001600160a01b031682866127d4565b91945092509050601683146125245760405162461bcd60e51b815260206004820152601760248201527f4572726f72204d696e74696e67204e465420746f6b656e0000000000000000006044820152606401610815565b600a54604080516001600160a01b03909216825260016020830152600784900b82820152517f6c15495b81c1c2bd8a5a79faf952be7bdb9deceb303a554e2ec44d0736d6e0bf9181900360600190a1600a5481516125a8916001600160a01b03169030908a90859060009061259b5761259b613434565b60200260200101516128d2565b50806000815181106125bc576125bc613434565b602002602001015194505050505092915050565b60606125db82611798565b5060006125f360408051602081019091526000815290565b90506000815111612613576040518060200160405280600081525061263e565b8061261d8461291a565b60405160200161262e929190613615565b6040516020818303038152906040525b9392505050565b6126796040518060800160405280600081526020016060815260200160006001600160a01b03168152602001606081525090565b60405180608001604052808381526020016126938461102c565b81526020016126a184610afc565b6001600160a01b031681526020016126b884610e75565b905292915050565b60606000826001600160401b038111156126dc576126dc612c44565b604051908082528060200260200182016040528015612705578160200160208202803683370190505b50905060005b838110156127525784818151811061272557612725613434565b602002602001015182828151811061273f5761273f613434565b602090810291909101015260010161270b565b509392505050565b60006001600160a01b038316158015906110b15750826001600160a01b0316846001600160a01b031614806127945750612794848461124a565b806110b15750506000908152600460205260409020546001600160a01b03908116911614919050565b6127c783836129ac565b6108286000848484611da6565b60008060606000806101676001600160a01b031663e0f4059a60e01b8989896040516024016128059392919061366a565b60408051601f198184030181529181526020820180516001600160e01b03166001600160e01b0319909416939093179092529051612843919061334f565b6000604051808303816000865af19150503d8060008114612880576040519150601f19603f3d011682016040523d82523d6000602084013e612885565b606091505b5091509150816128a85760408051600080825260208201909252601591906128bc565b808060200190518101906128bc91906136fa565b60039290920b9a90995090975095505050505050565b6040516001600160a01b038581166024830152848116604483015283166064820152600782900b60848201526000908190819061016790635cfc901160e01b9060a401610729565b6060600061292783612a11565b60010190506000816001600160401b0381111561294657612946612c44565b6040519080825280601f01601f191660200182016040528015612970576020820181803683370190505b5090508181016020015b600019016f181899199a1a9b1b9c1cb0b131b232b360811b600a86061a8153600a850494508461297a57509392505050565b6001600160a01b0382166129d657604051633250574960e11b815260006004820152602401610815565b60006129e483836000611a3c565b90506001600160a01b03811615610828576040516339e3563760e11b815260006004820152602401610815565b60008072184f03e93ff9f4daa797ed6e38ed64bf6a1f0160401b8310612a505772184f03e93ff9f4daa797ed6e38ed64bf6a1f0160401b830492506040015b6d04ee2d6d415b85acef81000000008310612a7c576d04ee2d6d415b85acef8100000000830492506020015b662386f26fc100008310612a9a57662386f26fc10000830492506010015b6305f5e1008310612ab2576305f5e100830492506008015b6127108310612ac657612710830492506004015b60648310612ad8576064830492506002015b600a83106104f55760010192915050565b6001600160e01b03198116811461151f57600080fd5b600060208284031215612b1157600080fd5b813561263e81612ae9565b80356001600160a01b0381168114612b3357600080fd5b919050565b600060208284031215612b4a57600080fd5b61263e82612b1c565b60005b83811015612b6e578181015183820152602001612b56565b50506000910152565b60008151808452612b8f816020860160208601612b53565b601f01601f19169290920160200192915050565b60208152600061263e6020830184612b77565b600060208284031215612bc857600080fd5b5035919050565b60008060408385031215612be257600080fd5b612beb83612b1c565b946020939093013593505050565b60008060008060808587031215612c0f57600080fd5b612c1885612b1c565b9350612c2660208601612b1c565b9250612c3460408601612b1c565b9396929550929360600135925050565b634e487b7160e01b600052604160045260246000fd5b604051601f8201601f191681016001600160401b0381118282101715612c8257612c82612c44565b604052919050565b600082601f830112612c9b57600080fd5b81356001600160401b03811115612cb457612cb4612c44565b612cc7601f8201601f1916602001612c5a565b818152846020838601011115612cdc57600080fd5b816020850160208301376000918101602001919091529392505050565b60008060408385031215612d0c57600080fd5b8235915060208301356001600160401b03811115612d2957600080fd5b612d3585828601612c8a565b9150509250929050565b60006001600160401b03821115612d5857612d58612c44565b5060051b60200190565b600082601f830112612d7357600080fd5b81356020612d88612d8383612d3f565b612c5a565b82815260059290921b84018101918181019086841115612da757600080fd5b8286015b84811015612de65780356001600160401b03811115612dca5760008081fd5b612dd88986838b0101612c8a565b845250918301918301612dab565b509695505050505050565b60008060408385031215612e0457600080fd5b82356001600160401b0380821115612e1b57600080fd5b612e2786838701612d62565b93506020850135915080821115612e3d57600080fd5b50612d3585828601612d62565b600080600060608486031215612e5f57600080fd5b612e6884612b1c565b9250612e7660208501612b1c565b9150604084013590509250925092565b600080600060608486031215612e9b57600080fd5b8335925060208401356001600160401b0380821115612eb957600080fd5b612ec587838801612c8a565b93506040860135915080821115612edb57600080fd5b50612ee886828701612c8a565b9150509250925092565b60008060408385031215612f0557600080fd5b612f0e83612b1c565b915060208301356001600160401b03811115612d2957600080fd5b8281526040602082015260006110b16040830184612b77565b6000815160608452612f576060850182612b77565b905060208301518482036020860152612f708282612b77565b9150506040830151151560408501528091505092915050565b60008282518085526020808601955060208260051b8401016020860160005b84811015612fd657601f19868403018952612fc4838351612f42565b98840198925090830190600101612fa8565b5090979650505050505050565b60208152600061263e6020830184612f89565b6000806040838503121561300957600080fd5b61301283612b1c565b91506020830135801515811461302757600080fd5b809150509250929050565b6000806000806080858703121561304857600080fd5b61305185612b1c565b935060208501356001600160401b038082111561306d57600080fd5b61307988838901612c8a565b9450604087013591508082111561308f57600080fd5b61309b88838901612d62565b935060608701359150808211156130b157600080fd5b506130be87828801612d62565b91505092959194509250565b600080600080608085870312156130e057600080fd5b6130e985612b1c565b93506130f760208601612b1c565b92506040850135915060608501356001600160401b0381111561311957600080fd5b6130be87828801612c8a565b6000806040838503121561313857600080fd5b82356001600160401b038082111561314f57600080fd5b61315b86838701612c8a565b9350602085013591508082111561317157600080fd5b50612d3585828601612c8a565b600060208083018184528085518083526040925060408601915060408160051b87010184880160005b8381101561321857603f19898403018552815160808151855288820151818a8701526131d582870182612b77565b838a01516001600160a01b0316878b015260609384015187820394880194909452915061320490508183612f89565b9689019694505050908601906001016131a7565b509098975050505050505050565b60208152600061263e6020830184612f42565b6000806040838503121561324c57600080fd5b61325583612b1c565b915061326360208401612b1c565b90509250929050565b60008060006060848603121561328157600080fd5b8335925060208401356001600160401b038082111561329f57600080fd5b6132ab87838801612d62565b935060408601359150808211156132c157600080fd5b50612ee886828701612d62565b6000602082840312156132e057600080fd5b81356001600160401b038111156132f657600080fd5b6110b184828501612c8a565b600181811c9082168061331657607f821691505b602082108103610e1057634e487b7160e01b600052602260045260246000fd5b60006020828403121561334857600080fd5b5051919050565b60008251613361818460208701612b53565b9190910192915050565b8051600381900b8114612b3357600080fd5b60006020828403121561338f57600080fd5b61263e8261336b565b60208082526038908201527f4552433732314d657461646174613a20746f6b656e206d65746164617461206360408201527f616e206e6f206c6f6e676572206265206d6f6469666965640000000000000000606082015260800190565b6001600160a01b03831681526040602082018190526000906110b190830184612b77565b82151581526040602082015260006110b16040830184612b77565b634e487b7160e01b600052603260045260246000fd5b601f821115610828576000816000526020600020601f850160051c810160208610156134735750805b601f850160051c820191505b818110156134925782815560010161347f565b505050505050565b81516001600160401b038111156134b3576134b3612c44565b6134c7816134c18454613302565b8461344a565b602080601f8311600181146134fc57600084156134e45750858301515b600019600386901b1c1916600185901b178555613492565b600085815260208120601f198616915b8281101561352b5788860151825594840194600190910190840161350c565b50858210156135495787850151600019600388901b60f8161c191681555b5050505050600190811b01905550565b60208082526025908201527f4552433732314d657461646174613a206172726179206c656e677468206d69736040820152640dac2e8c6d60db1b606082015260800190565b6000600182016135be57634e487b7160e01b600052601160045260246000fd5b5060010190565b6001600160a01b038581168252841660208201526040810183905260806060820181905260009061220790830184612b77565b60006020828403121561360a57600080fd5b815161263e81612ae9565b60008351613627818460208801612b53565b83519083019061363b818360208801612b53565b01949350505050565b8281526000825161365c816020850160208701612b53565b919091016020019392505050565b60006060820160018060a01b038616835260208560070b60208501526060604085015281855180845260808601915060808160051b87010193506020870160005b828110156136d957607f198887030184526136c7868351612b77565b955092840192908401906001016136ab565b50939998505050505050505050565b8051600781900b8114612b3357600080fd5b60008060006060848603121561370f57600080fd5b6137188461336b565b925060206137278186016136e8565b925060408501516001600160401b0381111561374257600080fd5b8501601f8101871361375357600080fd5b8051613761612d8382612d3f565b81815260059190911b8201830190838101908983111561378057600080fd5b928401925b828410156137a557613796846136e8565b82529284019290840190613785565b8095505050505050925092509256fea26469706673582212207a9367135a480f873bda80dba9a39d446951fb2c2c1d2633341a068b5675ac0164736f6c63430008180033",
  "linkReferences": {},
  "deployedLinkReferences": {}
}