{
  "_format": "hh-sol-artifact-1",
  "contractName": "ERC721MetadataHTS",
  "sourceName": "contracts/erc721/hts/ERC721MetadataHTS.sol",
  "abi": [
    {
      "inputs": [
        {
          "internalType": "string",
          "name": "_name",
          "type": "string"
        },
        {
          "internalType": "string",
          "name": "_symbol",
          "type": "string"
        }
      ],
      "stateMutability": "nonpayable",
      "type": "constructor"
    },
    {
      "inputs": [
        {
          "internalType": "address",
          "name": "sender",
          "type": "address"
        },
        {
          "internalType": "uint256",
          "name": "tokenId",
          "type": "uint256"
        },
        {
          "internalType": "address",
          "name": "owner",
          "type": "address"
        }
      ],
      "name": "ERC721IncorrectOwner",
      "type": "error"
    },
    {
      "inputs": [
        {
          "internalType": "address",
          "name": "operator",
          "type": "address"
        },
        {
          "internalType": "uint256",
          "name": "tokenId",
          "type": "uint256"
        }
      ],
      "name": "ERC721InsufficientApproval",
      "type": "error"
    },
    {
      "inputs": [
        {
          "internalType": "address",
          "name": "approver",
          "type": "address"
        }
      ],
      "name": "ERC721InvalidApprover",
      "type": "error"
    },
    {
      "inputs": [
        {
          "internalType": "address",
          "name": "operator",
          "type": "address"
        }
      ],
      "name": "ERC721InvalidOperator",
      "type": "error"
    },
    {
      "inputs": [
        {
          "internalType": "address",
          "name": "owner",
          "type": "address"
        }
      ],
      "name": "ERC721InvalidOwner",
      "type": "error"
    },
    {
      "inputs": [
        {
          "internalType": "address",
          "name": "receiver",
          "type": "address"
        }
      ],
      "name": "ERC721InvalidReceiver",
      "type": "error"
    },
    {
      "inputs": [
        {
          "internalType": "address",
          "name": "sender",
          "type": "address"
        }
      ],
      "name": "ERC721InvalidSender",
      "type": "error"
    },
    {
      "inputs": [
        {
          "internalType": "uint256",
          "name": "tokenId",
          "type": "uint256"
        }
      ],
      "name": "ERC721NonexistentToken",
      "type": "error"
    },
    {
      "inputs": [
        {
          "internalType": "address",
          "name": "owner",
          "type": "address"
        }
      ],
      "name": "OwnableInvalidOwner",
      "type": "error"
    },
    {
      "inputs": [
        {
          "internalType": "address",
          "name": "account",
          "type": "address"
        }
      ],
      "name": "OwnableUnauthorizedAccount",
      "type": "error"
    },
    {
      "anonymous": false,
      "inputs": [
        {
          "indexed": true,
          "internalType": "address",
          "name": "owner",
          "type": "address"
        },
        {
          "indexed": true,
          "internalType": "address",
          "name": "approved",
          "type": "address"
        },
        {
          "indexed": true,
          "internalType": "uint256",
          "name": "tokenId",
          "type": "uint256"
        }
      ],
      "name": "Approval",
      "type": "event"
    },
    {
      "anonymous": false,
      "inputs": [
        {
          "indexed": true,
          "internalType": "address",
          "name": "owner",
          "type": "address"
        },
        {
          "indexed": true,
          "internalType": "address",
          "name": "operator",
          "type": "address"
        },
        {
          "indexed": false,
          "internalType": "bool",
          "name": "approved",
          "type": "bool"
        }
      ],
      "name": "ApprovalForAll",
      "type": "event"
    },
    {
      "anonymous": false,
      "inputs": [
        {
          "indexed": false,
          "internalType": "address",
          "name": "tokenAddress",
          "type": "address"
        },
        {
          "indexed": false,
          "internalType": "address",
          "name": "userAddress",
          "type": "address"
        }
      ],
      "name": "AssociatedToken",
      "type": "event"
    },
    {
      "anonymous": false,
      "inputs": [
        {
          "indexed": false,
          "internalType": "uint256",
          "name": "_fromTokenId",
          "type": "uint256"
        },
        {
          "indexed": false,
          "internalType": "uint256",
          "name": "_toTokenId",
          "type": "uint256"
        }
      ],
      "name": "BatchMetadataUpdate",
      "type": "event"
    },
    {
      "anonymous": false,
      "inputs": [
        {
          "indexed": false,
          "internalType": "address",
          "name": "tokenAddress",
          "type": "address"
        },
        {
          "indexed": false,
          "internalType": "int64",
          "name": "amount",
          "type": "int64"
        },
        {
          "indexed": false,
          "internalType": "int64",
          "name": "newTotalSupply",
          "type": "int64"
        }
      ],
      "name": "BurnedToken",
      "type": "event"
    },
    {
      "anonymous": false,
      "inputs": [
        {
          "indexed": false,
          "internalType": "bool",
          "name": "",
          "type": "bool"
        },
        {
          "indexed": false,
          "internalType": "bytes",
          "name": "",
          "type": "bytes"
        }
      ],
      "name": "CallResponseEvent",
      "type": "event"
    },
    {
      "anonymous": false,
      "inputs": [
        {
          "indexed": false,
          "internalType": "address",
          "name": "tokenAddress",
          "type": "address"
        }
      ],
      "name": "CreatedToken",
      "type": "event"
    },
    {
      "anonymous": false,
      "inputs": [
        {
          "indexed": false,
          "internalType": "uint256",
          "name": "_tokenId",
          "type": "uint256"
        }
      ],
      "name": "MetadataUpdate",
      "type": "event"
    },
    {
      "anonymous": false,
      "inputs": [
        {
          "indexed": false,
          "internalType": "address",
          "name": "tokenAddress",
          "type": "address"
        },
        {
          "indexed": false,
          "internalType": "int64",
          "name": "amount",
          "type": "int64"
        },
        {
          "indexed": false,
          "internalType": "int64",
          "name": "newTotalSupply",
          "type": "int64"
        }
      ],
      "name": "MintedToken",
      "type": "event"
    },
    {
      "anonymous": false,
      "inputs": [
        {
          "indexed": true,
          "internalType": "address",
          "name": "previousOwner",
          "type": "address"
        },
        {
          "indexed": true,
          "internalType": "address",
          "name": "newOwner",
          "type": "address"
        }
      ],
      "name": "OwnershipTransferred",
      "type": "event"
    },
    {
      "anonymous": false,
      "inputs": [
        {
          "indexed": true,
          "internalType": "address",
          "name": "from",
          "type": "address"
        },
        {
          "indexed": true,
          "internalType": "address",
          "name": "to",
          "type": "address"
        },
        {
          "indexed": true,
          "internalType": "uint256",
          "name": "tokenId",
          "type": "uint256"
        }
      ],
      "name": "Transfer",
      "type": "event"
    },
    {
      "inputs": [
        {
          "internalType": "address",
          "name": "to",
          "type": "address"
        },
        {
          "internalType": "uint256",
          "name": "tokenId",
          "type": "uint256"
        }
      ],
      "name": "approve",
      "outputs": [],
      "stateMutability": "nonpayable",
      "type": "function"
    },
    {
      "inputs": [],
      "name": "associate",
      "outputs": [
        {
          "internalType": "uint256",
          "name": "responseCode",
          "type": "uint256"
        }
      ],
      "stateMutability": "nonpayable",
      "type": "function"
    },
    {
      "inputs": [
        {
          "internalType": "address",
          "name": "account",
          "type": "address"
        }
      ],
      "name": "associateAccount",
      "outputs": [
        {
          "internalType": "int256",
          "name": "responseCode",
          "type": "int256"
        }
      ],
      "stateMutability": "nonpayable",
      "type": "function"
    },
    {
      "inputs": [
        {
          "internalType": "address",
          "name": "owner",
          "type": "address"
        }
      ],
      "name": "balanceOf",
      "outputs": [
        {
          "internalType": "uint256",
          "name": "",
          "type": "uint256"
        }
      ],
      "stateMutability": "view",
      "type": "function"
    },
    {
      "inputs": [
        {
          "internalType": "string",
          "name": "_key",
          "type": "string"
        },
        {
          "internalType": "string",
          "name": "_value",
          "type": "string"
        }
      ],
      "name": "filterTokens",
      "outputs": [
        {
          "components": [
            {
              "internalType": "uint256",
              "name": "id",
              "type": "uint256"
            },
            {
              "internalType": "string",
              "name": "uri",
              "type": "string"
            },
            {
              "internalType": "address",
              "name": "owner",
              "type": "address"
            },
            {
              "components": [
                {
                  "internalType": "string",
                  "name": "key",
                  "type": "string"
                },
                {
                  "internalType": "string",
                  "name": "value",
                  "type": "string"
                },
                {
                  "internalType": "bool",
                  "name": "exists",
                  "type": "bool"
                }
              ],
              "internalType": "struct ERC721MetadataHTS.KeyValue[]",
              "name": "metadata",
              "type": "tuple[]"
            }
          ],
          "internalType": "struct ERC721MetadataHTS.TokenDetails[]",
          "name": "",
          "type": "tuple[]"
        }
      ],
      "stateMutability": "view",
      "type": "function"
    },
    {
      "inputs": [
        {
          "internalType": "string[]",
          "name": "_keys",
          "type": "string[]"
        },
        {
          "internalType": "string[]",
          "name": "_values",
          "type": "string[]"
        }
      ],
      "name": "filterTokens",
      "outputs": [
        {
          "components": [
            {
              "internalType": "uint256",
              "name": "id",
              "type": "uint256"
            },
            {
              "internalType": "string",
              "name": "uri",
              "type": "string"
            },
            {
              "internalType": "address",
              "name": "owner",
              "type": "address"
            },
            {
              "components": [
                {
                  "internalType": "string",
                  "name": "key",
                  "type": "string"
                },
                {
                  "internalType": "string",
                  "name": "value",
                  "type": "string"
                },
                {
                  "internalType": "bool",
                  "name": "exists",
                  "type": "bool"
                }
              ],
              "internalType": "struct ERC721MetadataHTS.KeyValue[]",
              "name": "metadata",
              "type": "tuple[]"
            }
          ],
          "internalType": "struct ERC721MetadataHTS.TokenDetails[]",
          "name": "",
          "type": "tuple[]"
        }
      ],
      "stateMutability": "view",
      "type": "function"
    },
    {
      "inputs": [
        {
          "internalType": "uint256",
          "name": "_tokenId",
          "type": "uint256"
        }
      ],
      "name": "freezeMetadata",
      "outputs": [],
      "stateMutability": "nonpayable",
      "type": "function"
    },
    {
      "inputs": [
        {
          "internalType": "uint256",
          "name": "tokenId",
          "type": "uint256"
        }
      ],
      "name": "getApproved",
      "outputs": [
        {
          "internalType": "address",
          "name": "",
          "type": "address"
        }
      ],
      "stateMutability": "view",
      "type": "function"
    },
    {
      "inputs": [],
      "name": "getCollectionMetadata",
      "outputs": [
        {
          "components": [
            {
              "internalType": "string",
              "name": "key",
              "type": "string"
            },
            {
              "internalType": "string",
              "name": "value",
              "type": "string"
            },
            {
              "internalType": "bool",
              "name": "exists",
              "type": "bool"
            }
          ],
          "internalType": "struct ERC721MetadataHTS.KeyValue[]",
          "name": "",
          "type": "tuple[]"
        }
      ],
      "stateMutability": "view",
      "type": "function"
    },
    {
      "inputs": [
        {
          "internalType": "string",
          "name": "_key",
          "type": "string"
        }
      ],
      "name": "getCollectionMetadata",
      "outputs": [
        {
          "components": [
            {
              "internalType": "string",
              "name": "key",
              "type": "string"
            },
            {
              "internalType": "string",
              "name": "value",
              "type": "string"
            },
            {
              "internalType": "bool",
              "name": "exists",
              "type": "bool"
            }
          ],
          "internalType": "struct ERC721MetadataHTS.KeyValue",
          "name": "",
          "type": "tuple"
        }
      ],
      "stateMutability": "view",
      "type": "function"
    },
    {
      "inputs": [
        {
          "internalType": "uint256",
          "name": "_tokenId",
          "type": "uint256"
        }
      ],
      "name": "getMetadata",
      "outputs": [
        {
          "components": [
            {
              "internalType": "string",
              "name": "key",
              "type": "string"
            },
            {
              "internalType": "string",
              "name": "value",
              "type": "string"
            },
            {
              "internalType": "bool",
              "name": "exists",
              "type": "bool"
            }
          ],
          "internalType": "struct ERC721MetadataHTS.KeyValue[]",
          "name": "",
          "type": "tuple[]"
        }
      ],
      "stateMutability": "view",
      "type": "function"
    },
    {
      "inputs": [
        {
          "internalType": "uint256",
          "name": "_tokenId",
          "type": "uint256"
        },
        {
          "internalType": "string",
          "name": "_key",
          "type": "string"
        }
      ],
      "name": "getMetadata",
      "outputs": [
        {
          "components": [
            {
              "internalType": "string",
              "name": "key",
              "type": "string"
            },
            {
              "internalType": "string",
              "name": "value",
              "type": "string"
            },
            {
              "internalType": "bool",
              "name": "exists",
              "type": "bool"
            }
          ],
          "internalType": "struct ERC721MetadataHTS.KeyValue",
          "name": "",
          "type": "tuple"
        }
      ],
      "stateMutability": "view",
      "type": "function"
    },
    {
      "inputs": [
        {
          "internalType": "address",
          "name": "owner",
          "type": "address"
        },
        {
          "internalType": "address",
          "name": "operator",
          "type": "address"
        }
      ],
      "name": "isApprovedForAll",
      "outputs": [
        {
          "internalType": "bool",
          "name": "",
          "type": "bool"
        }
      ],
      "stateMutability": "view",
      "type": "function"
    },
    {
      "inputs": [
        {
          "internalType": "address",
          "name": "_to",
          "type": "address"
        },
        {
          "internalType": "string",
          "name": "_uri",
          "type": "string"
        },
        {
          "internalType": "string[]",
          "name": "_keys",
          "type": "string[]"
        },
        {
          "internalType": "string[]",
          "name": "_values",
          "type": "string[]"
        }
      ],
      "name": "mint",
      "outputs": [],
      "stateMutability": "nonpayable",
      "type": "function"
    },
    {
      "inputs": [
        {
          "internalType": "address",
          "name": "_to",
          "type": "address"
        },
        {
          "internalType": "string",
          "name": "_uri",
          "type": "string"
        }
      ],
      "name": "mint",
      "outputs": [],
      "stateMutability": "nonpayable",
      "type": "function"
    },
    {
      "inputs": [],
      "name": "name",
      "outputs": [
        {
          "internalType": "string",
          "name": "",
          "type": "string"
        }
      ],
      "stateMutability": "view",
      "type": "function"
    },
    {
      "inputs": [],
      "name": "owner",
      "outputs": [
        {
          "internalType": "address",
          "name": "",
          "type": "address"
        }
      ],
      "stateMutability": "view",
      "type": "function"
    },
    {
      "inputs": [
        {
          "internalType": "uint256",
          "name": "tokenId",
          "type": "uint256"
        }
      ],
      "name": "ownerOf",
      "outputs": [
        {
          "internalType": "address",
          "name": "",
          "type": "address"
        }
      ],
      "stateMutability": "view",
      "type": "function"
    },
    {
      "inputs": [
        {
          "internalType": "address",
          "name": "token",
          "type": "address"
        },
        {
          "internalType": "bytes",
          "name": "encodedFunctionSelector",
          "type": "bytes"
        }
      ],
      "name": "redirectForToken",
      "outputs": [
        {
          "internalType": "int256",
          "name": "responseCode",
          "type": "int256"
        },
        {
          "internalType": "bytes",
          "name": "response",
          "type": "bytes"
        }
      ],
      "stateMutability": "nonpayable",
      "type": "function"
    },
    {
      "inputs": [],
      "name": "renounceOwnership",
      "outputs": [],
      "stateMutability": "nonpayable",
      "type": "function"
    },
    {
      "inputs": [
        {
          "internalType": "address",
          "name": "from",
          "type": "address"
        },
        {
          "internalType": "address",
          "name": "to",
          "type": "address"
        },
        {
          "internalType": "uint256",
          "name": "tokenId",
          "type": "uint256"
        }
      ],
      "name": "safeTransferFrom",
      "outputs": [],
      "stateMutability": "nonpayable",
      "type": "function"
    },
    {
      "inputs": [
        {
          "internalType": "address",
          "name": "from",
          "type": "address"
        },
        {
          "internalType": "address",
          "name": "to",
          "type": "address"
        },
        {
          "internalType": "uint256",
          "name": "tokenId",
          "type": "uint256"
        },
        {
          "internalType": "bytes",
          "name": "data",
          "type": "bytes"
        }
      ],
      "name": "safeTransferFrom",
      "outputs": [],
      "stateMutability": "nonpayable",
      "type": "function"
    },
    {
      "inputs": [
        {
          "internalType": "address",
          "name": "operator",
          "type": "address"
        },
        {
          "internalType": "bool",
          "name": "approved",
          "type": "bool"
        }
      ],
      "name": "setApprovalForAll",
      "outputs": [],
      "stateMutability": "nonpayable",
      "type": "function"
    },
    {
      "inputs": [
        {
          "internalType": "string[]",
          "name": "_keys",
          "type": "string[]"
        },
        {
          "internalType": "string[]",
          "name": "_values",
          "type": "string[]"
        }
      ],
      "name": "setCollectionMetadata",
      "outputs": [],
      "stateMutability": "nonpayable",
      "type": "function"
    },
    {
      "inputs": [
        {
          "internalType": "uint256",
          "name": "_tokenId",
          "type": "uint256"
        },
        {
          "internalType": "string",
          "name": "_key",
          "type": "string"
        },
        {
          "internalType": "string",
          "name": "_newValue",
          "type": "string"
        }
      ],
      "name": "setMetadata",
      "outputs": [],
      "stateMutability": "nonpayable",
      "type": "function"
    },
    {
      "inputs": [
        {
          "internalType": "uint256",
          "name": "_tokenId",
          "type": "uint256"
        },
        {
          "internalType": "string[]",
          "name": "_keys",
          "type": "string[]"
        },
        {
          "internalType": "string[]",
          "name": "_values",
          "type": "string[]"
        }
      ],
      "name": "setMetadata",
      "outputs": [],
      "stateMutability": "nonpayable",
      "type": "function"
    },
    {
      "inputs": [
        {
          "internalType": "uint256",
          "name": "_tokenId",
          "type": "uint256"
        },
        {
          "internalType": "string",
          "name": "_newURI",
          "type": "string"
        }
      ],
      "name": "setTokenURI",
      "outputs": [],
      "stateMutability": "nonpayable",
      "type": "function"
    },
    {
      "inputs": [
        {
          "internalType": "bytes4",
          "name": "interfaceId",
          "type": "bytes4"
        }
      ],
      "name": "supportsInterface",
      "outputs": [
        {
          "internalType": "bool",
          "name": "",
          "type": "bool"
        }
      ],
      "stateMutability": "view",
      "type": "function"
    },
    {
      "inputs": [],
      "name": "symbol",
      "outputs": [
        {
          "internalType": "string",
          "name": "",
          "type": "string"
        }
      ],
      "stateMutability": "view",
      "type": "function"
    },
    {
      "inputs": [
        {
          "internalType": "uint256",
          "name": "tokenId",
          "type": "uint256"
        }
      ],
      "name": "tokenURI",
      "outputs": [
        {
          "internalType": "string",
          "name": "",
          "type": "string"
        }
      ],
      "stateMutability": "view",
      "type": "function"
    },
    {
      "inputs": [
        {
          "internalType": "address",
          "name": "token",
          "type": "address"
        },
        {
          "internalType": "address",
          "name": "from",
          "type": "address"
        },
        {
          "internalType": "address",
          "name": "to",
          "type": "address"
        },
        {
          "internalType": "uint256",
          "name": "amount",
          "type": "uint256"
        }
      ],
      "name": "transferFrom",
      "outputs": [
        {
          "internalType": "int64",
          "name": "responseCode",
          "type": "int64"
        }
      ],
      "stateMutability": "nonpayable",
      "type": "function"
    },
    {
      "inputs": [
        {
          "internalType": "address",
          "name": "from",
          "type": "address"
        },
        {
          "internalType": "address",
          "name": "to",
          "type": "address"
        },
        {
          "internalType": "uint256",
          "name": "tokenId",
          "type": "uint256"
        }
      ],
      "name": "transferFrom",
      "outputs": [],
      "stateMutability": "nonpayable",
      "type": "function"
    },
    {
      "inputs": [
        {
          "internalType": "address",
          "name": "token",
          "type": "address"
        },
        {
          "internalType": "address",
          "name": "from",
          "type": "address"
        },
        {
          "internalType": "address",
          "name": "to",
          "type": "address"
        },
        {
          "internalType": "uint256",
          "name": "serialNumber",
          "type": "uint256"
        }
      ],
      "name": "transferFromNFT",
      "outputs": [
        {
          "internalType": "int64",
          "name": "responseCode",
          "type": "int64"
        }
      ],
      "stateMutability": "nonpayable",
      "type": "function"
    },
    {
      "inputs": [
        {
          "internalType": "address",
          "name": "newOwner",
          "type": "address"
        }
      ],
      "name": "transferOwnership",
      "outputs": [],
      "stateMutability": "nonpayable",
      "type": "function"
    }
  ],
  "bytecode": "0x60806040523480156200001157600080fd5b50604051620044ec380380620044ec83398101604081905262000034916200092e565b8181338484600062000047838262000a29565b50600162000056828262000a29565b5050506001600160a01b0381166200008957604051631e4fbdf760e01b8152600060048201526024015b60405180910390fd5b620000948162000445565b506009602090815260017fec8156718a8372b1db44bb411437d0870f3e3790d4a08526d024ce1b0b668f6b5560027f92e85d02570a8092d09a6e3a57665bc3815a2699a4074001bf1ccabf660f5a365560047f6cde3cea4b3a3fb2488b2808bae7556f4a405e50f65e1794383bc026131b13c381905560087fc575c31fea594a6eb97c8e9d3f9caee4c16218c6ef37e923234c0fe9014a61e75560107f8dc18c4ccfd75f5c815b63770fa542fd953e8fef7e0e44bbdd4913470ce7e9cb557f74b05292d1d4b2b48b65261b07099d24244bcb069f138d9a6bfdcf776becac4c8290556006600090815260407fbb6daa0c283751197dfdc76590680f9005e97d6f23870deb1164ab60b28b9f5f81905580518085018252828152815184815260a08101909252309490936103e89392839290919082015b620001d462000803565b815260200190600190039081620001ca57905050905062000210600060066000604051806020016040528060008152506200049760201b60201c565b8160008151811062000226576200022662000b0b565b6020026020010181905250620002556002600060405180602001604052806000815250620004da60201b60201c565b816001815181106200026b576200026b62000b0b565b60200260200101819052506200029a6004600060405180602001604052806000815250620004da60201b60201c565b81600281518110620002b057620002b062000b0b565b6020026020010181905250620002df6003600060405180602001604052806000815250620004da60201b60201c565b81600381518110620002f557620002f562000b0b565b602090810291909101810191909152604080516060808201835260008083526001600160a01b038a16838601819052627a1200848601528451610120810186528d81529586018c905293850193909352830187905260016080840152600786900b60a084015284151560c084015260e08301849052610100830181905291908062000380836200051b565b909250905060168214620003e15760405162461bcd60e51b815260206004820152602160248201527f4572726f72206372656174696e67204e6f6e2046756e6769626c6520546f6b656044820152603760f91b606482015260840162000080565b600a80546001600160a01b0319166001600160a01b0383169081179091556040519081527f7bb17726df1f3adee8aa00ba8e8bc5d6f182af3bbf77604639cb7f008dd3b4ed9060200160405180910390a15050505050505050505050505062000dad565b600780546001600160a01b038381166001600160a01b0319831681179093556040519116919082907f8be0079c531659141344cd1fd0a4f28419497f9722a3daafe3b4186f6b6457e090600090a35050565b620004a162000803565b6040518060400160405280620004be87876200064960201b60201c565b8152602001620004cf858562000693565b905295945050505050565b620004e462000803565b60405180604001604052806200050086620007be60201b60201c565b815260200162000511858562000693565b9052949350505050565b600080828061010001516000015160070b60001480156200054657506101008101516040015160070b155b156200055d576101008101516276a7006040909101525b6000806101676001600160a01b03163463ea83f29360e01b8860405160240162000588919062000c20565b60408051601f198184030181529181526020820180516001600160e01b03166001600160e01b0319909416939093179092529051620005c8919062000d40565b60006040518083038185875af1925050503d806000811462000607576040519150601f19603f3d011682016040523d82523d6000602084013e6200060c565b606091505b50915091508162000621576015600062000637565b8080602001905181019062000637919062000d5e565b60039190910b97909650945050505050565b60006200067183600681111562000664576200066462000af5565b600160ff9091161b821790565b90506200068c82600681111562000664576200066462000af5565b9392505050565b620006da6040518060a0016040528060001515815260200160006001600160a01b03168152602001606081526020016060815260200160006001600160a01b031681525090565b6000836004811115620006f157620006f162000af5565b03620007015760018152620007b8565b600183600481111562000718576200071862000af5565b0362000735576008546001600160a01b03166020820152620007b8565b60028360048111156200074c576200074c62000af5565b036200075f5760408101829052620007b8565b600383600481111562000776576200077662000af5565b03620007895760608101829052620007b8565b6004836004811115620007a057620007a062000af5565b03620007b8576008546001600160a01b031660808201525b92915050565b600060096000836006811115620007d957620007d962000af5565b6006811115620007ed57620007ed62000af5565b8152602001908152602001600020549050919050565b6040518060400160405280600081526020016200085c6040518060a0016040528060001515815260200160006001600160a01b03168152602001606081526020016060815260200160006001600160a01b031681525090565b905290565b634e487b7160e01b600052604160045260246000fd5b60005b83811015620008945781810151838201526020016200087a565b50506000910152565b600082601f830112620008af57600080fd5b81516001600160401b0380821115620008cc57620008cc62000861565b604051601f8301601f19908116603f01168101908282118183101715620008f757620008f762000861565b816040528381528660208588010111156200091157600080fd5b6200092484602083016020890162000877565b9695505050505050565b600080604083850312156200094257600080fd5b82516001600160401b03808211156200095a57600080fd5b62000968868387016200089d565b935060208501519150808211156200097f57600080fd5b506200098e858286016200089d565b9150509250929050565b600181811c90821680620009ad57607f821691505b602082108103620009ce57634e487b7160e01b600052602260045260246000fd5b50919050565b601f82111562000a24576000816000526020600020601f850160051c81016020861015620009ff5750805b601f850160051c820191505b8181101562000a205782815560010162000a0b565b5050505b505050565b81516001600160401b0381111562000a455762000a4562000861565b62000a5d8162000a56845462000998565b84620009d4565b602080601f83116001811462000a95576000841562000a7c5750858301515b600019600386901b1c1916600185901b17855562000a20565b600085815260208120601f198616915b8281101562000ac65788860151825594840194600190910190840162000aa5565b508582101562000ae55787850151600019600388901b60f8161c191681555b5050505050600190811b01905550565b634e487b7160e01b600052602160045260246000fd5b634e487b7160e01b600052603260045260246000fd5b6000815180845262000b3b81602086016020860162000877565b601f01601f19169290920160200192915050565b600082825180855260208086019550808260051b84010181860160005b8481101562000c1357858303601f1901895281518051845284015160408585018190528151151581860152818601516001600160a01b039081166060808801919091529183015160a0608080890182905291939092909162000bd260e08a018662000b21565b92860151898403603f1901858b015292945062000bf0858462000b21565b9501511660c0979097019690965250509884019892509083019060010162000b6c565b5090979650505050505050565b6020815260008251610160602084015262000c4061018084018262000b21565b90506020840151601f198085840301604086015262000c60838362000b21565b92506040860151915062000c7f60608601836001600160a01b03169052565b606086015191508085840301608086015262000c9c838362000b21565b92506080860151915062000cb460a086018315159052565b60a0860151915062000ccb60c086018360070b9052565b60c086015180151560e0870152915060e0860151915061010081868503018187015262000cf9848462000b4f565b908701518051600790810b61012089015260208201516001600160a01b03166101408901526040820151900b610160880152909350915062000d389050565b509392505050565b6000825162000d5481846020870162000877565b9190910192915050565b6000806040838503121562000d7257600080fd5b82518060030b811462000d8457600080fd5b60208401519092506001600160a01b038116811462000da257600080fd5b809150509250929050565b61372f8062000dbd6000396000f3fe608060405234801561001057600080fd5b50600436106101c65760003560e01c80638da5cb5b116100fa578063c87b56dd1161009d578063c87b56dd146103da578063c9ff3a5b146103ed578063cb4799f21461040d578063d0def5211461042d578063e985e9c514610440578063e9c2cf7114610453578063ef10f25614610466578063f2fde38b14610479578063fdf1094c1461048c57600080fd5b80638da5cb5b1461034d578063934118fb1461035e57806395d89b41146103735780639b23d3d91461037b578063a22cb4651461038e578063a574cea4146103a1578063b74c24eb146103b4578063b88d4fde146103c757600080fd5b806320df2c5e1161016d57806320df2c5e1461029f57806323b872dd146102b257806342842e0e146102c55780634dcf6ad6146102d857806359f9f50f146102eb578063618dc65e146102fe5780636352211e1461031f57806370a0823114610332578063715018a61461034557600080fd5b806301ffc9a7146101cb5780630333ca9c146101f357806306fdde0314610214578063081812fc14610229578063095ea7b3146102495780630a754de61461025e57806315dacbea14610266578063162094c41461028c575b600080fd5b6101de6101d93660046129ba565b61049f565b60405190151581526020015b60405180910390f35b6102066102013660046129f3565b6104b0565b6040519081526020016101ea565b61021c610517565b6040516101ea9190612a5e565b61023c610237366004612a71565b6105a9565b6040516101ea9190612a8a565b61025c610257366004612a9e565b6105d2565b005b6102066105e1565b610279610274366004612ac8565b61069b565b60405160079190910b81526020016101ea565b61025c61029a366004612bc8565b61077e565b61025c6102ad366004612cc0565b6107cf565b61025c6102c0366004612d19565b6107e1565b61025c6102d3366004612d19565b61086c565b61025c6102e6366004612a71565b610887565b61025c6102f9366004612d55565b6108dc565b61031161030c366004612dc1565b610950565b6040516101ea929190612df8565b61023c61032d366004612a71565b610a6e565b6102066103403660046129f3565b610a79565b61025c610ac1565b6007546001600160a01b031661023c565b610366610ad5565b6040516101ea9190612eb2565b61021c610d74565b610279610389366004612ac8565b610d83565b61025c61039c366004612ec5565b610db3565b6103666103af366004612a71565b610dbe565b61025c6103c2366004612f01565b610f29565b61025c6103d5366004612f99565b610f4a565b61021c6103e8366004612a71565b610f61565b6104006103fb366004612ff4565b610f6c565b6040516101ea919061304d565b61042061041b366004612bc8565b610fee565b6040516101ea91906130f5565b61025c61043b366004612dc1565b611159565b6101de61044e366004613108565b61116b565b61025c61046136600461313b565b611199565b610400610474366004612cc0565b611206565b61025c6104873660046129f3565b6113d5565b61042061049a36600461319d565b611413565b60006104aa8261157f565b92915050565b600a546000906104ca9083906001600160a01b03166115a4565b600a546040519192507f486bcb01e604496e2a4caa3ae8178d59ffedc37c140f1d4ad838b06cb12865479161050a916001600160a01b03169085906131d1565b60405180910390a1919050565b606060008054610526906131eb565b80601f0160208091040260200160405190810160405280929190818152602001828054610552906131eb565b801561059f5780601f106105745761010080835404028352916020019161059f565b820191906000526020600020905b81548152906001019060200180831161058257829003601f168201915b5050505050905090565b60006105b482611681565b506000828152600460205260409020546001600160a01b03166104aa565b6105dd8282336116ba565b5050565b600a546040805163053aa6f360e11b815290516000926001600160a01b031691630a754de6916004808301926020929190829003018187875af115801561062c573d6000803e3d6000fd5b505050506040513d601f19601f82011682018060405250810190610650919061321f565b600a546040519192507f486bcb01e604496e2a4caa3ae8178d59ffedc37c140f1d4ad838b06cb128654791610690916001600160a01b03169033906131d1565b60405180910390a190565b60008060006101676001600160a01b03166315dacbea60e01b888888886040516024016106cb9493929190613238565b60408051601f198184030181529181526020820180516001600160e01b03166001600160e01b03199094169390931790925290516107099190613262565b6000604051808303816000865af19150503d8060008114610746576040519150601f19603f3d011682016040523d82523d6000602084013e61074b565b606091505b50915091508161075c576015610770565b808060200190518101906107709190613290565b60030b979650505050505050565b6107866116c7565b6000828152600f6020526040902054829060ff16156107c05760405162461bcd60e51b81526004016107b7906132ab565b60405180910390fd5b6107ca83836116f4565b505050565b6107d76116c7565b6105dd8282611744565b6001600160a01b03821661080b576000604051633250574960e11b81526004016107b79190612a8a565b6000610818838333611925565b9050836001600160a01b0316816001600160a01b031614610866576040516364283d7b60e01b81526001600160a01b03808616600483015260248201849052821660448201526064016107b7565b50505050565b6107ca83838360405180602001604052806000815250610f4a565b61088f6116c7565b6000818152600f6020526040902054819060ff16156108c05760405162461bcd60e51b81526004016107b7906132ab565b506000908152600f60205260409020805460ff19166001179055565b82336108e782610a6e565b6001600160a01b03161461090d5760405162461bcd60e51b81526004016107b790613303565b6000848152600f6020526040902054849060ff161561093e5760405162461bcd60e51b81526004016107b7906132ab565b610949858585611a1e565b5050505050565b600060606000806101676001600160a01b031663618dc65e60e01b878760405160240161097e92919061333a565b60408051601f198184030181529181526020820180516001600160e01b03166001600160e01b03199094169390931790925290516109bc9190613262565b6000604051808303816000865af19150503d80600081146109f9576040519150601f19603f3d011682016040523d82523d6000602084013e6109fe565b606091505b50915091507f4af4780e06fe8cb9df64b0794fa6f01399af979175bb988e35e0e57e594567bc8282604051610a3492919061335e565b60405180910390a181610a5857601560405180602001604052806000815250610a5c565b6016815b60039190910b97909650945050505050565b60006104aa82611681565b60006001600160a01b038216610aa55760006040516322718ad960e21b81526004016107b79190612a8a565b506001600160a01b031660009081526003602052604090205490565b610ac96116c7565b610ad36000611af7565b565b6011546060906000906001600160401b03811115610af557610af5612b13565b604051908082528060200260200182016040528015610b2e57816020015b610b1b612950565b815260200190600190039081610b135790505b50905060005b601154811015610d6e57600060118281548110610b5357610b53613379565b906000526020600020018054610b68906131eb565b80601f0160208091040260200160405190810160405280929190818152602001828054610b94906131eb565b8015610be15780601f10610bb657610100808354040283529160200191610be1565b820191906000526020600020905b815481529060010190602001808311610bc457829003601f168201915b50505050509050601081604051610bf89190613262565b9081526020016040518091039020604051806060016040529081600082018054610c21906131eb565b80601f0160208091040260200160405190810160405280929190818152602001828054610c4d906131eb565b8015610c9a5780601f10610c6f57610100808354040283529160200191610c9a565b820191906000526020600020905b815481529060010190602001808311610c7d57829003601f168201915b50505050508152602001600182018054610cb3906131eb565b80601f0160208091040260200160405190810160405280929190818152602001828054610cdf906131eb565b8015610d2c5780601f10610d0157610100808354040283529160200191610d2c565b820191906000526020600020905b815481529060010190602001808311610d0f57829003601f168201915b50505091835250506002919091015460ff1615156020909101528351849084908110610d5a57610d5a613379565b602090810291909101015250600101610b34565b50919050565b606060018054610526906131eb565b60008060006101676001600160a01b0316639b23d3d960e01b888888886040516024016106cb9493929190613238565b6105dd338383611b49565b6000818152600e6020526040812054606091906001600160401b03811115610de857610de8612b13565b604051908082528060200260200182016040528015610e2157816020015b610e0e612950565b815260200190600190039081610e065790505b50905060005b6000848152600e6020526040902054811015610f22576000848152600e60205260408120805483908110610e5d57610e5d613379565b906000526020600020018054610e72906131eb565b80601f0160208091040260200160405190810160405280929190818152602001828054610e9e906131eb565b8015610eeb5780601f10610ec057610100808354040283529160200191610eeb565b820191906000526020600020905b815481529060010190602001808311610ece57829003601f168201915b50505050509050610efc8582610fee565b838381518110610f0e57610f0e613379565b602090810291909101015250600101610e27565b5092915050565b610f316116c7565b6000610f3d8585611bdf565b9050610949818484611c14565b610f558484846107e1565b61086684848484611c86565b60606104aa82611d96565b60606000600d6000610f7e8686611e9f565b8152602001908152602001600020805480602002602001604051908101604052809291908181526020018280548015610fd657602002820191906000526020600020905b815481526020019060010190808311610fc2575b50505050509050610fe681611ed2565b949350505050565b610ff6612950565b600c60006110048585611f7e565b815260200190815260200160002060405180606001604052908160008201805461102d906131eb565b80601f0160208091040260200160405190810160405280929190818152602001828054611059906131eb565b80156110a65780601f1061107b576101008083540402835291602001916110a6565b820191906000526020600020905b81548152906001019060200180831161108957829003601f168201915b505050505081526020016001820180546110bf906131eb565b80601f01602080910402602001604051908101604052809291908181526020018280546110eb906131eb565b80156111385780601f1061110d57610100808354040283529160200191611138565b820191906000526020600020905b81548152906001019060200180831161111b57829003601f168201915b50505091835250506002919091015460ff1615156020909101529392505050565b6111616116c7565b6107ca8282611bdf565b6001600160a01b03918216600090815260056020908152604080832093909416825291909152205460ff1690565b82336111a482610a6e565b6001600160a01b0316146111ca5760405162461bcd60e51b81526004016107b790613303565b6000848152600f6020526040902054849060ff16156111fb5760405162461bcd60e51b81526004016107b7906132ab565b610949858585611c14565b606081518351146112715760405162461bcd60e51b815260206004820152602f60248201527f4552433732314d657461646174613a206b65797320616e642076616c7565732060448201526e0d8cadccee8d040dad2e6dac2e8c6d608b1b60648201526084016107b7565b6000600d60006112b58660008151811061128d5761128d613379565b6020026020010151866000815181106112a8576112a8613379565b6020026020010151611e9f565b815260200190815260200160002080548060200260200160405190810160405280929190818152602001828054801561130d57602002820191906000526020600020905b8154815260200190600101908083116112f9575b50939450600193505050505b84518110156113cb576000600d600061135788858151811061133d5761133d613379565b60200260200101518886815181106112a8576112a8613379565b81526020019081526020016000208054806020026020016040519081016040528092919081815260200182805480156113af57602002820191906000526020600020905b81548152602001906001019080831161139b575b505050505090506113c08382611f93565b925050600101611319565b50610fe681611ed2565b6113dd6116c7565b6001600160a01b038116611407576000604051631e4fbdf760e01b81526004016107b79190612a8a565b61141081611af7565b50565b61141b612950565b60108260405161142b9190613262565b9081526020016040518091039020604051806060016040529081600082018054611454906131eb565b80601f0160208091040260200160405190810160405280929190818152602001828054611480906131eb565b80156114cd5780601f106114a2576101008083540402835291602001916114cd565b820191906000526020600020905b8154815290600101906020018083116114b057829003601f168201915b505050505081526020016001820180546114e6906131eb565b80601f0160208091040260200160405190810160405280929190818152602001828054611512906131eb565b801561155f5780601f106115345761010080835404028352916020019161155f565b820191906000526020600020905b81548152906001019060200180831161154257829003601f168201915b50505091835250506002919091015460ff16151560209091015292915050565b60006001600160e01b03198216632483248360e11b14806104aa57506104aa826120b3565b60008060006101676001600160a01b03166349146bde60e01b86866040516024016115d09291906131d1565b60408051601f198184030181529181526020820180516001600160e01b03166001600160e01b031990941693909317909252905161160e9190613262565b6000604051808303816000865af19150503d806000811461164b576040519150601f19603f3d011682016040523d82523d6000602084013e611650565b606091505b509150915081611661576015611675565b808060200190518101906116759190613290565b60030b95945050505050565b6000818152600260205260408120546001600160a01b0316806104aa57604051637e27328960e01b8152600481018490526024016107b7565b6107ca8383836001612103565b6007546001600160a01b03163314610ad3573360405163118cdaa760e01b81526004016107b79190612a8a565b600082815260066020526040902061170c82826133df565b506040518281527ff8e1a15aba9398e019f0b49df1a4fde98ee17ae345cb5f6b5e2c27f5033e8ce79060200160405180910390a15050565b60008251116117a15760405162461bcd60e51b8152602060048201526024808201527f4552433732314d657461646174613a20696e76616c6964206172726179206c656044820152630dccee8d60e31b60648201526084016107b7565b80518251146117c25760405162461bcd60e51b81526004016107b79061349e565b60005b82518110156107ca57600060405180606001604052808584815181106117ed576117ed613379565b6020026020010151815260200184848151811061180c5761180c613379565b60200260200101518152602001600115158152509050601084838151811061183657611836613379565b602002602001015160405161184b9190613262565b9081526040519081900360200190206002015460ff166118a457601184838151811061187957611879613379565b602090810291909101810151825460018101845560009384529190922001906118a290826133df565b505b8060108584815181106118b9576118b9613379565b60200260200101516040516118ce9190613262565b908152604051908190036020019020815181906118eb90826133df565b506020820151600182019061190090826133df565b50604091909101516002909101805460ff1916911515919091179055506001016117c5565b6000828152600260205260408120546001600160a01b039081169083161561195257611952818486612200565b6001600160a01b038116156119905761196f600085600080612103565b6001600160a01b038116600090815260036020526040902080546000190190555b6001600160a01b038516156119bf576001600160a01b0385166000908152600360205260409020805460010190555b60008481526002602052604080822080546001600160a01b0319166001600160a01b0389811691821790925591518793918516917fddf252ad1be2c89b69c2b068fc378daa952ba7f163c4a11628f55a4df523b3ef91a4949350505050565b6040805160608101825283815260208101839052600191810191909152600c6000611a498686611f7e565b815260208101919091526040016000206002015460ff16611a8e576000848152600e6020908152604082208054600181018255908352912001611a8c84826133df565b505b80600c6000611a9d8787611f7e565b8152602081019190915260400160002081518190611abb90826133df565b5060208201516001820190611ad090826133df565b50604091909101516002909101805460ff1916911515919091179055610866848484612264565b600780546001600160a01b038381166001600160a01b0319831681179093556040519116919082907f8be0079c531659141344cd1fd0a4f28419497f9722a3daafe3b4186f6b6457e090600090a35050565b6001600160a01b038216611b725781604051630b61174360e31b81526004016107b79190612a8a565b6001600160a01b03838116600081815260056020908152604080832094871680845294825291829020805460ff191686151590811790915591519182527f17307eab39ab6107e8899845ad3d59bd9653f200f220920489ca2b5937696c31910160405180910390a3505050565b600b805460009182611bf0836134e3565b919050559050611c0083826122de565b611c0a81836116f4565b610f2283836122f8565b8051825114611c355760405162461bcd60e51b81526004016107b79061349e565b60005b825181101561086657611c7e84848381518110611c5757611c57613379565b6020026020010151848481518110611c7157611c71613379565b6020026020010151611a1e565b600101611c38565b6001600160a01b0383163b1561086657604051630a85bd0160e11b81526001600160a01b0384169063150b7a0290611cc890339088908790879060040161350a565b6020604051808303816000875af1925050508015611d03575060408051601f3d908101601f19168201909252611d009181019061353d565b60015b611d63573d808015611d31576040519150601f19603f3d011682016040523d82523d6000602084013e611d36565b606091505b508051600003611d5b5783604051633250574960e11b81526004016107b79190612a8a565b805181602001fd5b6001600160e01b03198116630a85bd0160e11b146109495783604051633250574960e11b81526004016107b79190612a8a565b6060611da182611681565b5060008281526006602052604081208054611dbb906131eb565b80601f0160208091040260200160405190810160405280929190818152602001828054611de7906131eb565b8015611e345780601f10611e0957610100808354040283529160200191611e34565b820191906000526020600020905b815481529060010190602001808311611e1757829003601f168201915b505050505090506000611e5260408051602081019091526000815290565b90508051600003611e64575092915050565b815115611e96578082604051602001611e7e92919061355a565b60405160208183030381529060405292505050919050565b610fe684612463565b60008282604051602001611eb492919061355a565b60405160208183030381529060405280519060200120905092915050565b6060600082516001600160401b03811115611eef57611eef612b13565b604051908082528060200260200182016040528015611f2857816020015b611f15612973565b815260200190600190039081611f0d5790505b50905060005b8351811015610f2257611f59848281518110611f4c57611f4c613379565b60200260200101516124d8565b828281518110611f6b57611f6b613379565b6020908102919091010152600101611f2e565b60008282604051602001611eb4929190613589565b606060008251845111611fa7578351611faa565b82515b90506000816001600160401b03811115611fc657611fc6612b13565b604051908082528060200260200182016040528015611fef578160200160208202803683370190505b5090506000805b865181101561209e5760005b86518110156120955786818151811061201d5761201d613379565b602002602001015188838151811061203757612037613379565b60200260200101510361208d5787828151811061205657612056613379565b602002602001015184848061206a906134e3565b95508151811061207c5761207c613379565b602002602001018181525050612095565b600101612002565b50600101611ff6565b506120a98282612527565b9695505050505050565b60006001600160e01b031982166380ac58cd60e01b14806120e457506001600160e01b03198216635b5e139f60e01b145b806104aa57506301ffc9a760e01b6001600160e01b03198316146104aa565b808061211757506001600160a01b03821615155b156121d057600061212784611681565b90506001600160a01b038316158015906121535750826001600160a01b0316816001600160a01b031614155b80156121665750612164818461116b565b155b15612186578260405163a9fbf51f60e01b81526004016107b79190612a8a565b81156121ce5783856001600160a01b0316826001600160a01b03167f8c5be1e5ebec7d5bd14f71427d1e84f3dd0314c0f7b2291e5b200ac8c7c3b92560405160405180910390a45b505b5050600090815260046020526040902080546001600160a01b0319166001600160a01b0392909216919091179055565b61220b8383836125c1565b6107ca576001600160a01b03831661223957604051637e27328960e01b8152600481018290526024016107b7565b60405163177e802f60e01b81526001600160a01b0383166004820152602481018290526044016107b7565b6000600d60006122748585611e9f565b8152602001908152602001600020905060005b81548110156122c257848282815481106122a3576122a3613379565b9060005260206000200154036122ba575050505050565b600101612287565b5080546001810182556000918252602090912001929092555050565b6105dd828260405180602001604052806000815250612624565b604080516001808252818301909252600091829190816020015b6060815260200190600190039081612312579050509050828160008151811061233d5761233d613379565b6020908102919091010152600a5460009081908190612366906001600160a01b0316828661263b565b91945092509050601683146123b75760405162461bcd60e51b815260206004820152601760248201527622b93937b91026b4b73a34b7339027232a103a37b5b2b760491b60448201526064016107b7565b600a54604080516001600160a01b03909216825260016020830152600784900b82820152517f6c15495b81c1c2bd8a5a79faf952be7bdb9deceb303a554e2ec44d0736d6e0bf9181900360600190a1600a54815161243b916001600160a01b03169030908a90859060009061242e5761242e613379565b6020026020010151612739565b508060008151811061244f5761244f613379565b602002602001015194505050505092915050565b606061246e82611681565b50600061248660408051602081019091526000815290565b905060008151116124a657604051806020016040528060008152506124d1565b806124b084612781565b6040516020016124c192919061355a565b6040516020818303038152906040525b9392505050565b6124e0612973565b60405180608001604052808381526020016124fa84610f61565b815260200161250884610a6e565b6001600160a01b0316815260200161251f84610dbe565b905292915050565b60606000826001600160401b0381111561254357612543612b13565b60405190808252806020026020018201604052801561256c578160200160208202803683370190505b50905060005b838110156125b95784818151811061258c5761258c613379565b60200260200101518282815181106125a6576125a6613379565b6020908102919091010152600101612572565b509392505050565b60006001600160a01b03831615801590610fe65750826001600160a01b0316846001600160a01b031614806125fb57506125fb848461116b565b80610fe65750506000908152600460205260409020546001600160a01b03908116911614919050565b61262e8383612813565b6107ca6000848484611c86565b60008060606000806101676001600160a01b031663e0f4059a60e01b89898960405160240161266c939291906135af565b60408051601f198184030181529181526020820180516001600160e01b03166001600160e01b03199094169390931790925290516126aa9190613262565b6000604051808303816000865af19150503d80600081146126e7576040519150601f19603f3d011682016040523d82523d6000602084013e6126ec565b606091505b50915091508161270f576040805160008082526020820190925260159190612723565b80806020019051810190612723919061363f565b60039290920b9a90995090975095505050505050565b6040516001600160a01b038581166024830152848116604483015283166064820152600782900b60848201526000908190819061016790635cfc901160e01b9060a4016106cb565b6060600061278e83612878565b60010190506000816001600160401b038111156127ad576127ad612b13565b6040519080825280601f01601f1916602001820160405280156127d7576020820181803683370190505b5090508181016020015b600019016f181899199a1a9b1b9c1cb0b131b232b360811b600a86061a8153600a85049450846127e157509392505050565b6001600160a01b03821661283d576000604051633250574960e11b81526004016107b79190612a8a565b600061284b83836000611925565b90506001600160a01b038116156107ca5760006040516339e3563760e11b81526004016107b79190612a8a565b60008072184f03e93ff9f4daa797ed6e38ed64bf6a1f0160401b83106128b75772184f03e93ff9f4daa797ed6e38ed64bf6a1f0160401b830492506040015b6d04ee2d6d415b85acef810000000083106128e3576d04ee2d6d415b85acef8100000000830492506020015b662386f26fc10000831061290157662386f26fc10000830492506010015b6305f5e1008310612919576305f5e100830492506008015b612710831061292d57612710830492506004015b6064831061293f576064830492506002015b600a83106104aa5760010192915050565b604051806060016040528060608152602001606081526020016000151581525090565b6040518060800160405280600081526020016060815260200160006001600160a01b03168152602001606081525090565b6001600160e01b03198116811461141057600080fd5b6000602082840312156129cc57600080fd5b81356124d1816129a4565b80356001600160a01b03811681146129ee57600080fd5b919050565b600060208284031215612a0557600080fd5b6124d1826129d7565b60005b83811015612a29578181015183820152602001612a11565b50506000910152565b60008151808452612a4a816020860160208601612a0e565b601f01601f19169290920160200192915050565b6020815260006124d16020830184612a32565b600060208284031215612a8357600080fd5b5035919050565b6001600160a01b0391909116815260200190565b60008060408385031215612ab157600080fd5b612aba836129d7565b946020939093013593505050565b60008060008060808587031215612ade57600080fd5b612ae7856129d7565b9350612af5602086016129d7565b9250612b03604086016129d7565b9396929550929360600135925050565b634e487b7160e01b600052604160045260246000fd5b604051601f8201601f191681016001600160401b0381118282101715612b5157612b51612b13565b604052919050565b600082601f830112612b6a57600080fd5b81356001600160401b03811115612b8357612b83612b13565b612b96601f8201601f1916602001612b29565b818152846020838601011115612bab57600080fd5b816020850160208301376000918101602001919091529392505050565b60008060408385031215612bdb57600080fd5b8235915060208301356001600160401b03811115612bf857600080fd5b612c0485828601612b59565b9150509250929050565b60006001600160401b03821115612c2757612c27612b13565b5060051b60200190565b600082601f830112612c4257600080fd5b81356020612c57612c5283612c0e565b612b29565b82815260059290921b84018101918181019086841115612c7657600080fd5b8286015b84811015612cb55780356001600160401b03811115612c995760008081fd5b612ca78986838b0101612b59565b845250918301918301612c7a565b509695505050505050565b60008060408385031215612cd357600080fd5b82356001600160401b0380821115612cea57600080fd5b612cf686838701612c31565b93506020850135915080821115612d0c57600080fd5b50612c0485828601612c31565b600080600060608486031215612d2e57600080fd5b612d37846129d7565b9250612d45602085016129d7565b9150604084013590509250925092565b600080600060608486031215612d6a57600080fd5b8335925060208401356001600160401b0380821115612d8857600080fd5b612d9487838801612b59565b93506040860135915080821115612daa57600080fd5b50612db786828701612b59565b9150509250925092565b60008060408385031215612dd457600080fd5b612ddd836129d7565b915060208301356001600160401b03811115612bf857600080fd5b828152604060208201526000610fe66040830184612a32565b6000815160608452612e266060850182612a32565b905060208301518482036020860152612e3f8282612a32565b9150506040830151151560408501528091505092915050565b60008282518085526020808601955060208260051b8401016020860160005b84811015612ea557601f19868403018952612e93838351612e11565b98840198925090830190600101612e77565b5090979650505050505050565b6020815260006124d16020830184612e58565b60008060408385031215612ed857600080fd5b612ee1836129d7565b915060208301358015158114612ef657600080fd5b809150509250929050565b60008060008060808587031215612f1757600080fd5b612f20856129d7565b935060208501356001600160401b0380821115612f3c57600080fd5b612f4888838901612b59565b94506040870135915080821115612f5e57600080fd5b612f6a88838901612c31565b93506060870135915080821115612f8057600080fd5b50612f8d87828801612c31565b91505092959194509250565b60008060008060808587031215612faf57600080fd5b612fb8856129d7565b9350612fc6602086016129d7565b92506040850135915060608501356001600160401b03811115612fe857600080fd5b612f8d87828801612b59565b6000806040838503121561300757600080fd5b82356001600160401b038082111561301e57600080fd5b61302a86838701612b59565b9350602085013591508082111561304057600080fd5b50612c0485828601612b59565b600060208083018184528085518083526040925060408601915060408160051b87010184880160005b838110156130e757603f19898403018552815160808151855288820151818a8701526130a482870182612a32565b838a01516001600160a01b0316878b01526060938401518782039488019490945291506130d390508183612e58565b968901969450505090860190600101613076565b509098975050505050505050565b6020815260006124d16020830184612e11565b6000806040838503121561311b57600080fd5b613124836129d7565b9150613132602084016129d7565b90509250929050565b60008060006060848603121561315057600080fd5b8335925060208401356001600160401b038082111561316e57600080fd5b61317a87838801612c31565b9350604086013591508082111561319057600080fd5b50612db786828701612c31565b6000602082840312156131af57600080fd5b81356001600160401b038111156131c557600080fd5b610fe684828501612b59565b6001600160a01b0392831681529116602082015260400190565b600181811c908216806131ff57607f821691505b602082108103610d6e57634e487b7160e01b600052602260045260246000fd5b60006020828403121561323157600080fd5b5051919050565b6001600160a01b039485168152928416602084015292166040820152606081019190915260800190565b60008251613274818460208701612a0e565b9190910192915050565b8051600381900b81146129ee57600080fd5b6000602082840312156132a257600080fd5b6124d18261327e565b60208082526038908201527f4552433732314d657461646174613a20746f6b656e206d657461646174612063604082015277185b881b9bc81b1bdb99d95c881899481b5bd91a599a595960421b606082015260800190565b6020808252601f908201527f4552433732314d657461646174613a206e6f7420746f6b656e206f776e657200604082015260600190565b6001600160a01b0383168152604060208201819052600090610fe690830184612a32565b8215158152604060208201526000610fe66040830184612a32565b634e487b7160e01b600052603260045260246000fd5b601f8211156107ca576000816000526020600020601f850160051c810160208610156133b85750805b601f850160051c820191505b818110156133d7578281556001016133c4565b505050505050565b81516001600160401b038111156133f8576133f8612b13565b61340c8161340684546131eb565b8461338f565b602080601f83116001811461344157600084156134295750858301515b600019600386901b1c1916600185901b1785556133d7565b600085815260208120601f198616915b8281101561347057888601518255948401946001909101908401613451565b508582101561348e5787850151600019600388901b60f8161c191681555b5050505050600190811b01905550565b60208082526025908201527f4552433732314d657461646174613a206172726179206c656e677468206d69736040820152640dac2e8c6d60db1b606082015260800190565b60006001820161350357634e487b7160e01b600052601160045260246000fd5b5060010190565b6001600160a01b03858116825284166020820152604081018390526080606082018190526000906120a990830184612a32565b60006020828403121561354f57600080fd5b81516124d1816129a4565b6000835161356c818460208801612a0e565b835190830190613580818360208801612a0e565b01949350505050565b828152600082516135a1816020850160208701612a0e565b919091016020019392505050565b60006060820160018060a01b038616835260208560070b60208501526060604085015281855180845260808601915060808160051b87010193506020870160005b8281101561361e57607f1988870301845261360c868351612a32565b955092840192908401906001016135f0565b50939998505050505050505050565b8051600781900b81146129ee57600080fd5b60008060006060848603121561365457600080fd5b61365d8461327e565b9250602061366c81860161362d565b925060408501516001600160401b0381111561368757600080fd5b8501601f8101871361369857600080fd5b80516136a6612c5282612c0e565b81815260059190911b820183019083810190898311156136c557600080fd5b928401925b828410156136ea576136db8461362d565b825292840192908401906136ca565b8095505050505050925092509256fea2646970667358221220e202a4f50594ba1f0172855f27616fc178524e002164ab2191fcb31039d965ce64736f6c63430008180033",
  "linkReferences": {},
  "deployedLinkReferences": {}
}