{
  "_format": "hh-sol-artifact-1",
  "contractName": "ERC721Metadata",
  "sourceName": "contracts/erc721/ERC721Metadata.sol",
  "abi": [
    {
      "inputs": [
        {
          "internalType": "string",
          "name": "_name",
          "type": "string"
        },
        {
          "internalType": "string",
          "name": "_symbol",
          "type": "string"
        }
      ],
      "stateMutability": "nonpayable",
      "type": "constructor"
    },
    {
      "inputs": [
        {
          "internalType": "address",
          "name": "sender",
          "type": "address"
        },
        {
          "internalType": "uint256",
          "name": "tokenId",
          "type": "uint256"
        },
        {
          "internalType": "address",
          "name": "owner",
          "type": "address"
        }
      ],
      "name": "ERC721IncorrectOwner",
      "type": "error"
    },
    {
      "inputs": [
        {
          "internalType": "address",
          "name": "operator",
          "type": "address"
        },
        {
          "internalType": "uint256",
          "name": "tokenId",
          "type": "uint256"
        }
      ],
      "name": "ERC721InsufficientApproval",
      "type": "error"
    },
    {
      "inputs": [
        {
          "internalType": "address",
          "name": "approver",
          "type": "address"
        }
      ],
      "name": "ERC721InvalidApprover",
      "type": "error"
    },
    {
      "inputs": [
        {
          "internalType": "address",
          "name": "operator",
          "type": "address"
        }
      ],
      "name": "ERC721InvalidOperator",
      "type": "error"
    },
    {
      "inputs": [
        {
          "internalType": "address",
          "name": "owner",
          "type": "address"
        }
      ],
      "name": "ERC721InvalidOwner",
      "type": "error"
    },
    {
      "inputs": [
        {
          "internalType": "address",
          "name": "receiver",
          "type": "address"
        }
      ],
      "name": "ERC721InvalidReceiver",
      "type": "error"
    },
    {
      "inputs": [
        {
          "internalType": "address",
          "name": "sender",
          "type": "address"
        }
      ],
      "name": "ERC721InvalidSender",
      "type": "error"
    },
    {
      "inputs": [
        {
          "internalType": "uint256",
          "name": "tokenId",
          "type": "uint256"
        }
      ],
      "name": "ERC721NonexistentToken",
      "type": "error"
    },
    {
      "inputs": [
        {
          "internalType": "address",
          "name": "owner",
          "type": "address"
        }
      ],
      "name": "OwnableInvalidOwner",
      "type": "error"
    },
    {
      "inputs": [
        {
          "internalType": "address",
          "name": "account",
          "type": "address"
        }
      ],
      "name": "OwnableUnauthorizedAccount",
      "type": "error"
    },
    {
      "anonymous": false,
      "inputs": [
        {
          "indexed": true,
          "internalType": "address",
          "name": "owner",
          "type": "address"
        },
        {
          "indexed": true,
          "internalType": "address",
          "name": "approved",
          "type": "address"
        },
        {
          "indexed": true,
          "internalType": "uint256",
          "name": "tokenId",
          "type": "uint256"
        }
      ],
      "name": "Approval",
      "type": "event"
    },
    {
      "anonymous": false,
      "inputs": [
        {
          "indexed": true,
          "internalType": "address",
          "name": "owner",
          "type": "address"
        },
        {
          "indexed": true,
          "internalType": "address",
          "name": "operator",
          "type": "address"
        },
        {
          "indexed": false,
          "internalType": "bool",
          "name": "approved",
          "type": "bool"
        }
      ],
      "name": "ApprovalForAll",
      "type": "event"
    },
    {
      "anonymous": false,
      "inputs": [
        {
          "indexed": false,
          "internalType": "uint256",
          "name": "_fromTokenId",
          "type": "uint256"
        },
        {
          "indexed": false,
          "internalType": "uint256",
          "name": "_toTokenId",
          "type": "uint256"
        }
      ],
      "name": "BatchMetadataUpdate",
      "type": "event"
    },
    {
      "anonymous": false,
      "inputs": [
        {
          "indexed": false,
          "internalType": "uint256",
          "name": "_tokenId",
          "type": "uint256"
        }
      ],
      "name": "MetadataUpdate",
      "type": "event"
    },
    {
      "anonymous": false,
      "inputs": [
        {
          "indexed": true,
          "internalType": "address",
          "name": "previousOwner",
          "type": "address"
        },
        {
          "indexed": true,
          "internalType": "address",
          "name": "newOwner",
          "type": "address"
        }
      ],
      "name": "OwnershipTransferred",
      "type": "event"
    },
    {
      "anonymous": false,
      "inputs": [
        {
          "indexed": true,
          "internalType": "address",
          "name": "from",
          "type": "address"
        },
        {
          "indexed": true,
          "internalType": "address",
          "name": "to",
          "type": "address"
        },
        {
          "indexed": true,
          "internalType": "uint256",
          "name": "tokenId",
          "type": "uint256"
        }
      ],
      "name": "Transfer",
      "type": "event"
    },
    {
      "inputs": [
        {
          "internalType": "address",
          "name": "to",
          "type": "address"
        },
        {
          "internalType": "uint256",
          "name": "tokenId",
          "type": "uint256"
        }
      ],
      "name": "approve",
      "outputs": [],
      "stateMutability": "nonpayable",
      "type": "function"
    },
    {
      "inputs": [
        {
          "internalType": "address",
          "name": "owner",
          "type": "address"
        }
      ],
      "name": "balanceOf",
      "outputs": [
        {
          "internalType": "uint256",
          "name": "",
          "type": "uint256"
        }
      ],
      "stateMutability": "view",
      "type": "function"
    },
    {
      "inputs": [
        {
          "internalType": "string",
          "name": "_key",
          "type": "string"
        },
        {
          "internalType": "string",
          "name": "_value",
          "type": "string"
        }
      ],
      "name": "filterTokens",
      "outputs": [
        {
          "components": [
            {
              "internalType": "uint256",
              "name": "id",
              "type": "uint256"
            },
            {
              "internalType": "string",
              "name": "uri",
              "type": "string"
            },
            {
              "internalType": "address",
              "name": "owner",
              "type": "address"
            },
            {
              "components": [
                {
                  "internalType": "string",
                  "name": "key",
                  "type": "string"
                },
                {
                  "internalType": "string",
                  "name": "value",
                  "type": "string"
                },
                {
                  "internalType": "bool",
                  "name": "exists",
                  "type": "bool"
                }
              ],
              "internalType": "struct ERC721Metadata.KeyValue[]",
              "name": "metadata",
              "type": "tuple[]"
            }
          ],
          "internalType": "struct ERC721Metadata.TokenDetails[]",
          "name": "",
          "type": "tuple[]"
        }
      ],
      "stateMutability": "view",
      "type": "function"
    },
    {
      "inputs": [
        {
          "internalType": "string[]",
          "name": "_keys",
          "type": "string[]"
        },
        {
          "internalType": "string[]",
          "name": "_values",
          "type": "string[]"
        }
      ],
      "name": "filterTokens",
      "outputs": [
        {
          "components": [
            {
              "internalType": "uint256",
              "name": "id",
              "type": "uint256"
            },
            {
              "internalType": "string",
              "name": "uri",
              "type": "string"
            },
            {
              "internalType": "address",
              "name": "owner",
              "type": "address"
            },
            {
              "components": [
                {
                  "internalType": "string",
                  "name": "key",
                  "type": "string"
                },
                {
                  "internalType": "string",
                  "name": "value",
                  "type": "string"
                },
                {
                  "internalType": "bool",
                  "name": "exists",
                  "type": "bool"
                }
              ],
              "internalType": "struct ERC721Metadata.KeyValue[]",
              "name": "metadata",
              "type": "tuple[]"
            }
          ],
          "internalType": "struct ERC721Metadata.TokenDetails[]",
          "name": "",
          "type": "tuple[]"
        }
      ],
      "stateMutability": "view",
      "type": "function"
    },
    {
      "inputs": [
        {
          "internalType": "uint256",
          "name": "_tokenId",
          "type": "uint256"
        }
      ],
      "name": "freezeMetadata",
      "outputs": [],
      "stateMutability": "nonpayable",
      "type": "function"
    },
    {
      "inputs": [
        {
          "internalType": "uint256",
          "name": "tokenId",
          "type": "uint256"
        }
      ],
      "name": "getApproved",
      "outputs": [
        {
          "internalType": "address",
          "name": "",
          "type": "address"
        }
      ],
      "stateMutability": "view",
      "type": "function"
    },
    {
      "inputs": [],
      "name": "getCollectionMetadata",
      "outputs": [
        {
          "components": [
            {
              "internalType": "string",
              "name": "key",
              "type": "string"
            },
            {
              "internalType": "string",
              "name": "value",
              "type": "string"
            },
            {
              "internalType": "bool",
              "name": "exists",
              "type": "bool"
            }
          ],
          "internalType": "struct ERC721Metadata.KeyValue[]",
          "name": "",
          "type": "tuple[]"
        }
      ],
      "stateMutability": "view",
      "type": "function"
    },
    {
      "inputs": [
        {
          "internalType": "string",
          "name": "_key",
          "type": "string"
        }
      ],
      "name": "getCollectionMetadata",
      "outputs": [
        {
          "components": [
            {
              "internalType": "string",
              "name": "key",
              "type": "string"
            },
            {
              "internalType": "string",
              "name": "value",
              "type": "string"
            },
            {
              "internalType": "bool",
              "name": "exists",
              "type": "bool"
            }
          ],
          "internalType": "struct ERC721Metadata.KeyValue",
          "name": "",
          "type": "tuple"
        }
      ],
      "stateMutability": "view",
      "type": "function"
    },
    {
      "inputs": [
        {
          "internalType": "uint256",
          "name": "_tokenId",
          "type": "uint256"
        }
      ],
      "name": "getMetadata",
      "outputs": [
        {
          "components": [
            {
              "internalType": "string",
              "name": "key",
              "type": "string"
            },
            {
              "internalType": "string",
              "name": "value",
              "type": "string"
            },
            {
              "internalType": "bool",
              "name": "exists",
              "type": "bool"
            }
          ],
          "internalType": "struct ERC721Metadata.KeyValue[]",
          "name": "",
          "type": "tuple[]"
        }
      ],
      "stateMutability": "view",
      "type": "function"
    },
    {
      "inputs": [
        {
          "internalType": "uint256",
          "name": "_tokenId",
          "type": "uint256"
        },
        {
          "internalType": "string",
          "name": "_key",
          "type": "string"
        }
      ],
      "name": "getMetadata",
      "outputs": [
        {
          "components": [
            {
              "internalType": "string",
              "name": "key",
              "type": "string"
            },
            {
              "internalType": "string",
              "name": "value",
              "type": "string"
            },
            {
              "internalType": "bool",
              "name": "exists",
              "type": "bool"
            }
          ],
          "internalType": "struct ERC721Metadata.KeyValue",
          "name": "",
          "type": "tuple"
        }
      ],
      "stateMutability": "view",
      "type": "function"
    },
    {
      "inputs": [
        {
          "internalType": "address",
          "name": "owner",
          "type": "address"
        },
        {
          "internalType": "address",
          "name": "operator",
          "type": "address"
        }
      ],
      "name": "isApprovedForAll",
      "outputs": [
        {
          "internalType": "bool",
          "name": "",
          "type": "bool"
        }
      ],
      "stateMutability": "view",
      "type": "function"
    },
    {
      "inputs": [
        {
          "internalType": "address",
          "name": "_to",
          "type": "address"
        },
        {
          "internalType": "string",
          "name": "_uri",
          "type": "string"
        },
        {
          "internalType": "string[]",
          "name": "_keys",
          "type": "string[]"
        },
        {
          "internalType": "string[]",
          "name": "_values",
          "type": "string[]"
        }
      ],
      "name": "mint",
      "outputs": [
        {
          "internalType": "uint256",
          "name": "tokenId",
          "type": "uint256"
        }
      ],
      "stateMutability": "nonpayable",
      "type": "function"
    },
    {
      "inputs": [
        {
          "internalType": "address",
          "name": "_to",
          "type": "address"
        },
        {
          "internalType": "string",
          "name": "_uri",
          "type": "string"
        }
      ],
      "name": "mint",
      "outputs": [
        {
          "internalType": "uint256",
          "name": "tokenId",
          "type": "uint256"
        }
      ],
      "stateMutability": "nonpayable",
      "type": "function"
    },
    {
      "inputs": [],
      "name": "name",
      "outputs": [
        {
          "internalType": "string",
          "name": "",
          "type": "string"
        }
      ],
      "stateMutability": "view",
      "type": "function"
    },
    {
      "inputs": [],
      "name": "owner",
      "outputs": [
        {
          "internalType": "address",
          "name": "",
          "type": "address"
        }
      ],
      "stateMutability": "view",
      "type": "function"
    },
    {
      "inputs": [
        {
          "internalType": "uint256",
          "name": "tokenId",
          "type": "uint256"
        }
      ],
      "name": "ownerOf",
      "outputs": [
        {
          "internalType": "address",
          "name": "",
          "type": "address"
        }
      ],
      "stateMutability": "view",
      "type": "function"
    },
    {
      "inputs": [],
      "name": "renounceOwnership",
      "outputs": [],
      "stateMutability": "nonpayable",
      "type": "function"
    },
    {
      "inputs": [
        {
          "internalType": "address",
          "name": "from",
          "type": "address"
        },
        {
          "internalType": "address",
          "name": "to",
          "type": "address"
        },
        {
          "internalType": "uint256",
          "name": "tokenId",
          "type": "uint256"
        }
      ],
      "name": "safeTransferFrom",
      "outputs": [],
      "stateMutability": "nonpayable",
      "type": "function"
    },
    {
      "inputs": [
        {
          "internalType": "address",
          "name": "from",
          "type": "address"
        },
        {
          "internalType": "address",
          "name": "to",
          "type": "address"
        },
        {
          "internalType": "uint256",
          "name": "tokenId",
          "type": "uint256"
        },
        {
          "internalType": "bytes",
          "name": "data",
          "type": "bytes"
        }
      ],
      "name": "safeTransferFrom",
      "outputs": [],
      "stateMutability": "nonpayable",
      "type": "function"
    },
    {
      "inputs": [
        {
          "internalType": "address",
          "name": "operator",
          "type": "address"
        },
        {
          "internalType": "bool",
          "name": "approved",
          "type": "bool"
        }
      ],
      "name": "setApprovalForAll",
      "outputs": [],
      "stateMutability": "nonpayable",
      "type": "function"
    },
    {
      "inputs": [
        {
          "internalType": "string[]",
          "name": "_keys",
          "type": "string[]"
        },
        {
          "internalType": "string[]",
          "name": "_values",
          "type": "string[]"
        }
      ],
      "name": "setCollectionMetadata",
      "outputs": [],
      "stateMutability": "nonpayable",
      "type": "function"
    },
    {
      "inputs": [
        {
          "internalType": "uint256",
          "name": "_tokenId",
          "type": "uint256"
        },
        {
          "internalType": "string",
          "name": "_key",
          "type": "string"
        },
        {
          "internalType": "string",
          "name": "_newValue",
          "type": "string"
        }
      ],
      "name": "setMetadata",
      "outputs": [],
      "stateMutability": "nonpayable",
      "type": "function"
    },
    {
      "inputs": [
        {
          "internalType": "uint256",
          "name": "_tokenId",
          "type": "uint256"
        },
        {
          "internalType": "string[]",
          "name": "_keys",
          "type": "string[]"
        },
        {
          "internalType": "string[]",
          "name": "_values",
          "type": "string[]"
        }
      ],
      "name": "setMetadata",
      "outputs": [],
      "stateMutability": "nonpayable",
      "type": "function"
    },
    {
      "inputs": [
        {
          "internalType": "uint256",
          "name": "_tokenId",
          "type": "uint256"
        },
        {
          "internalType": "string",
          "name": "_newURI",
          "type": "string"
        }
      ],
      "name": "setTokenURI",
      "outputs": [],
      "stateMutability": "nonpayable",
      "type": "function"
    },
    {
      "inputs": [
        {
          "internalType": "bytes4",
          "name": "interfaceId",
          "type": "bytes4"
        }
      ],
      "name": "supportsInterface",
      "outputs": [
        {
          "internalType": "bool",
          "name": "",
          "type": "bool"
        }
      ],
      "stateMutability": "view",
      "type": "function"
    },
    {
      "inputs": [],
      "name": "symbol",
      "outputs": [
        {
          "internalType": "string",
          "name": "",
          "type": "string"
        }
      ],
      "stateMutability": "view",
      "type": "function"
    },
    {
      "inputs": [
        {
          "internalType": "uint256",
          "name": "tokenId",
          "type": "uint256"
        }
      ],
      "name": "tokenURI",
      "outputs": [
        {
          "internalType": "string",
          "name": "",
          "type": "string"
        }
      ],
      "stateMutability": "view",
      "type": "function"
    },
    {
      "inputs": [
        {
          "internalType": "address",
          "name": "from",
          "type": "address"
        },
        {
          "internalType": "address",
          "name": "to",
          "type": "address"
        },
        {
          "internalType": "uint256",
          "name": "tokenId",
          "type": "uint256"
        }
      ],
      "name": "transferFrom",
      "outputs": [],
      "stateMutability": "nonpayable",
      "type": "function"
    },
    {
      "inputs": [
        {
          "internalType": "address",
          "name": "newOwner",
          "type": "address"
        }
      ],
      "name": "transferOwnership",
      "outputs": [],
      "stateMutability": "nonpayable",
      "type": "function"
    }
  ],
  "bytecode": "0x60806040523480156200001157600080fd5b50604051620030bd380380620030bd8339810160408190526200003491620001b4565b3382826000620000458382620002af565b506001620000548282620002af565b5050506001600160a01b0381166200008657604051631e4fbdf760e01b81526000600482015260240160405180910390fd5b62000091816200009a565b5050506200037b565b600780546001600160a01b038381166001600160a01b0319831681179093556040519116919082907f8be0079c531659141344cd1fd0a4f28419497f9722a3daafe3b4186f6b6457e090600090a35050565b634e487b7160e01b600052604160045260246000fd5b600082601f8301126200011457600080fd5b81516001600160401b0380821115620001315762000131620000ec565b604051601f8301601f19908116603f011681019082821181831017156200015c576200015c620000ec565b81604052838152602092508660208588010111156200017a57600080fd5b600091505b838210156200019e57858201830151818301840152908201906200017f565b6000602085830101528094505050505092915050565b60008060408385031215620001c857600080fd5b82516001600160401b0380821115620001e057600080fd5b620001ee8683870162000102565b935060208501519150808211156200020557600080fd5b50620002148582860162000102565b9150509250929050565b600181811c908216806200023357607f821691505b6020821081036200025457634e487b7160e01b600052602260045260246000fd5b50919050565b601f821115620002aa576000816000526020600020601f850160051c81016020861015620002855750805b601f850160051c820191505b81811015620002a65782815560010162000291565b5050505b505050565b81516001600160401b03811115620002cb57620002cb620000ec565b620002e381620002dc84546200021e565b846200025a565b602080601f8311600181146200031b5760008415620003025750858301515b600019600386901b1c1916600185901b178555620002a6565b600085815260208120601f198616915b828110156200034c578886015182559484019460019091019084016200032b565b50858210156200036b5787850151600019600388901b60f8161c191681555b5050505050600190811b01905550565b612d32806200038b6000396000f3fe608060405234801561001057600080fd5b506004361061018f5760003560e01c8063934118fb116100e4578063c9ff3a5b11610092578063c9ff3a5b14610341578063cb4799f214610361578063d0def52114610381578063e985e9c514610394578063e9c2cf71146103a7578063ef10f256146103ba578063f2fde38b146103cd578063fdf1094c146103e057600080fd5b8063934118fb146102c557806395d89b41146102da578063a22cb465146102e2578063a574cea4146102f5578063b74c24eb14610308578063b88d4fde1461031b578063c87b56dd1461032e57600080fd5b806342842e0e1161014157806342842e0e1461023f5780634dcf6ad61461025257806359f9f50f146102655780636352211e1461027857806370a082311461028b578063715018a6146102ac5780638da5cb5b146102b457600080fd5b806301ffc9a71461019457806306fdde03146101bc578063081812fc146101d1578063095ea7b3146101f1578063162094c41461020657806320df2c5e1461021957806323b872dd1461022c575b600080fd5b6101a76101a236600461222c565b6103f3565b60405190151581526020015b60405180910390f35b6101c4610404565b6040516101b39190612299565b6101e46101df3660046122ac565b610496565b6040516101b391906122c5565b6102046101ff3660046122f5565b6104bf565b005b6102046102143660046123dc565b6104ce565b6102046102273660046124c0565b61051f565b61020461023a366004612519565b610531565b61020461024d366004612519565b6105bc565b6102046102603660046122ac565b6105d7565b610204610273366004612555565b61062c565b6101e46102863660046122ac565b6106a0565b61029e6102993660046125c1565b6106ab565b6040519081526020016101b3565b6102046106f3565b6007546001600160a01b03166101e4565b6102cd610707565b6040516101b3919061267d565b6101c46109a6565b6102046102f0366004612690565b6109b5565b6102cd6103033660046122ac565b6109c0565b61029e6103163660046126cc565b610b2b565b610204610329366004612764565b610b54565b6101c461033c3660046122ac565b610b6b565b61035461034f3660046127d3565b610b76565b6040516101b3919061282c565b61037461036f3660046123dc565b610bf0565b6040516101b391906128d4565b61029e61038f3660046128e7565b610d5b565b6101a76103a236600461291e565b610d76565b6102046103b5366004612951565b610da4565b6103546103c83660046124c0565b610e11565b6102046103db3660046125c1565b610fe0565b6103746103ee3660046129b3565b61101e565b60006103fe8261118a565b92915050565b606060008054610413906129e7565b80601f016020809104026020016040519081016040528092919081815260200182805461043f906129e7565b801561048c5780601f106104615761010080835404028352916020019161048c565b820191906000526020600020905b81548152906001019060200180831161046f57829003601f168201915b5050505050905090565b60006104a1826111af565b506000828152600460205260409020546001600160a01b03166103fe565b6104ca8282336111e8565b5050565b6104d66111f5565b6000828152600c6020526040902054829060ff16156105105760405162461bcd60e51b815260040161050790612a1b565b60405180910390fd5b61051a8383611222565b505050565b6105276111f5565b6104ca8282611272565b6001600160a01b03821661055b576000604051633250574960e11b815260040161050791906122c5565b6000610568838333611453565b9050836001600160a01b0316816001600160a01b0316146105b6576040516364283d7b60e01b81526001600160a01b0380861660048301526024820184905282166044820152606401610507565b50505050565b61051a83838360405180602001604052806000815250610b54565b6105df6111f5565b6000818152600c6020526040902054819060ff16156106105760405162461bcd60e51b815260040161050790612a1b565b506000908152600c60205260409020805460ff19166001179055565b8233610637826106a0565b6001600160a01b03161461065d5760405162461bcd60e51b815260040161050790612a73565b6000848152600c6020526040902054849060ff161561068e5760405162461bcd60e51b815260040161050790612a1b565b61069985858561154c565b5050505050565b60006103fe826111af565b60006001600160a01b0382166106d75760006040516322718ad960e21b815260040161050791906122c5565b506001600160a01b031660009081526003602052604090205490565b6106fb6111f5565b6107056000611625565b565b600e546060906000906001600160401b038111156107275761072761231f565b60405190808252806020026020018201604052801561076057816020015b61074d6121c2565b8152602001906001900390816107455790505b50905060005b600e548110156109a0576000600e828154811061078557610785612aaa565b90600052602060002001805461079a906129e7565b80601f01602080910402602001604051908101604052809291908181526020018280546107c6906129e7565b80156108135780601f106107e857610100808354040283529160200191610813565b820191906000526020600020905b8154815290600101906020018083116107f657829003601f168201915b50505050509050600d8160405161082a9190612ac0565b9081526020016040518091039020604051806060016040529081600082018054610853906129e7565b80601f016020809104026020016040519081016040528092919081815260200182805461087f906129e7565b80156108cc5780601f106108a1576101008083540402835291602001916108cc565b820191906000526020600020905b8154815290600101906020018083116108af57829003601f168201915b505050505081526020016001820180546108e5906129e7565b80601f0160208091040260200160405190810160405280929190818152602001828054610911906129e7565b801561095e5780601f106109335761010080835404028352916020019161095e565b820191906000526020600020905b81548152906001019060200180831161094157829003601f168201915b50505091835250506002919091015460ff161515602090910152835184908490811061098c5761098c612aaa565b602090810291909101015250600101610766565b50919050565b606060018054610413906129e7565b6104ca338383611677565b6000818152600b6020526040812054606091906001600160401b038111156109ea576109ea61231f565b604051908082528060200260200182016040528015610a2357816020015b610a106121c2565b815260200190600190039081610a085790505b50905060005b6000848152600b6020526040902054811015610b24576000848152600b60205260408120805483908110610a5f57610a5f612aaa565b906000526020600020018054610a74906129e7565b80601f0160208091040260200160405190810160405280929190818152602001828054610aa0906129e7565b8015610aed5780601f10610ac257610100808354040283529160200191610aed565b820191906000526020600020905b815481529060010190602001808311610ad057829003601f168201915b50505050509050610afe8582610bf0565b838381518110610b1057610b10612aaa565b602090810291909101015250600101610a29565b5092915050565b6000610b356111f5565b610b3f858561170d565b9050610b4c818484611738565b949350505050565b610b5f848484610531565b6105b6848484846117aa565b60606103fe826118ba565b60606000600a6000610b8886866119c3565b8152602001908152602001600020805480602002602001604051908101604052809291908181526020018280548015610be057602002820191906000526020600020905b815481526020019060010190808311610bcc575b50505050509050610b4c816119f6565b610bf86121c2565b60096000610c068585611aa2565b8152602001908152602001600020604051806060016040529081600082018054610c2f906129e7565b80601f0160208091040260200160405190810160405280929190818152602001828054610c5b906129e7565b8015610ca85780601f10610c7d57610100808354040283529160200191610ca8565b820191906000526020600020905b815481529060010190602001808311610c8b57829003601f168201915b50505050508152602001600182018054610cc1906129e7565b80601f0160208091040260200160405190810160405280929190818152602001828054610ced906129e7565b8015610d3a5780601f10610d0f57610100808354040283529160200191610d3a565b820191906000526020600020905b815481529060010190602001808311610d1d57829003601f168201915b50505091835250506002919091015460ff1615156020909101529392505050565b6000610d656111f5565b610d6f838361170d565b9392505050565b6001600160a01b03918216600090815260056020908152604080832093909416825291909152205460ff1690565b8233610daf826106a0565b6001600160a01b031614610dd55760405162461bcd60e51b815260040161050790612a73565b6000848152600c6020526040902054849060ff1615610e065760405162461bcd60e51b815260040161050790612a1b565b610699858585611738565b60608151835114610e7c5760405162461bcd60e51b815260206004820152602f60248201527f4552433732314d657461646174613a206b65797320616e642076616c7565732060448201526e0d8cadccee8d040dad2e6dac2e8c6d608b1b6064820152608401610507565b6000600a6000610ec086600081518110610e9857610e98612aaa565b602002602001015186600081518110610eb357610eb3612aaa565b60200260200101516119c3565b8152602001908152602001600020805480602002602001604051908101604052809291908181526020018280548015610f1857602002820191906000526020600020905b815481526020019060010190808311610f04575b50939450600193505050505b8451811015610fd6576000600a6000610f62888581518110610f4857610f48612aaa565b6020026020010151888681518110610eb357610eb3612aaa565b8152602001908152602001600020805480602002602001604051908101604052809291908181526020018280548015610fba57602002820191906000526020600020905b815481526020019060010190808311610fa6575b50505050509050610fcb8382611ab7565b925050600101610f24565b50610b4c816119f6565b610fe86111f5565b6001600160a01b038116611012576000604051631e4fbdf760e01b815260040161050791906122c5565b61101b81611625565b50565b6110266121c2565b600d826040516110369190612ac0565b908152602001604051809103902060405180606001604052908160008201805461105f906129e7565b80601f016020809104026020016040519081016040528092919081815260200182805461108b906129e7565b80156110d85780601f106110ad576101008083540402835291602001916110d8565b820191906000526020600020905b8154815290600101906020018083116110bb57829003601f168201915b505050505081526020016001820180546110f1906129e7565b80601f016020809104026020016040519081016040528092919081815260200182805461111d906129e7565b801561116a5780601f1061113f5761010080835404028352916020019161116a565b820191906000526020600020905b81548152906001019060200180831161114d57829003601f168201915b50505091835250506002919091015460ff16151560209091015292915050565b60006001600160e01b03198216632483248360e11b14806103fe57506103fe82611bd7565b6000818152600260205260408120546001600160a01b0316806103fe57604051637e27328960e01b815260048101849052602401610507565b61051a8383836001611c27565b6007546001600160a01b03163314610705573360405163118cdaa760e01b815260040161050791906122c5565b600082815260066020526040902061123a8282612b2c565b506040518281527ff8e1a15aba9398e019f0b49df1a4fde98ee17ae345cb5f6b5e2c27f5033e8ce79060200160405180910390a15050565b60008251116112cf5760405162461bcd60e51b8152602060048201526024808201527f4552433732314d657461646174613a20696e76616c6964206172726179206c656044820152630dccee8d60e31b6064820152608401610507565b80518251146112f05760405162461bcd60e51b815260040161050790612beb565b60005b825181101561051a576000604051806060016040528085848151811061131b5761131b612aaa565b6020026020010151815260200184848151811061133a5761133a612aaa565b60200260200101518152602001600115158152509050600d84838151811061136457611364612aaa565b60200260200101516040516113799190612ac0565b9081526040519081900360200190206002015460ff166113d257600e8483815181106113a7576113a7612aaa565b602090810291909101810151825460018101845560009384529190922001906113d09082612b2c565b505b80600d8584815181106113e7576113e7612aaa565b60200260200101516040516113fc9190612ac0565b908152604051908190036020019020815181906114199082612b2c565b506020820151600182019061142e9082612b2c565b50604091909101516002909101805460ff1916911515919091179055506001016112f3565b6000828152600260205260408120546001600160a01b039081169083161561148057611480818486611d24565b6001600160a01b038116156114be5761149d600085600080611c27565b6001600160a01b038116600090815260036020526040902080546000190190555b6001600160a01b038516156114ed576001600160a01b0385166000908152600360205260409020805460010190555b60008481526002602052604080822080546001600160a01b0319166001600160a01b0389811691821790925591518793918516917fddf252ad1be2c89b69c2b068fc378daa952ba7f163c4a11628f55a4df523b3ef91a4949350505050565b6040805160608101825283815260208101839052600191810191909152600960006115778686611aa2565b815260208101919091526040016000206002015460ff166115bc576000848152600b60209081526040822080546001810182559083529120016115ba8482612b2c565b505b80600960006115cb8787611aa2565b81526020810191909152604001600020815181906115e99082612b2c565b50602082015160018201906115fe9082612b2c565b50604091909101516002909101805460ff19169115159190911790556105b6848484611d88565b600780546001600160a01b038381166001600160a01b0319831681179093556040519116919082907f8be0079c531659141344cd1fd0a4f28419497f9722a3daafe3b4186f6b6457e090600090a35050565b6001600160a01b0382166116a05781604051630b61174360e31b815260040161050791906122c5565b6001600160a01b03838116600081815260056020908152604080832094871680845294825291829020805460ff191686151590811790915591519182527f17307eab39ab6107e8899845ad3d59bd9653f200f220920489ca2b5937696c31910160405180910390a3505050565b600880546000918261171e83612c30565b91905055905061172e8382611e02565b6103fe8183611222565b80518251146117595760405162461bcd60e51b815260040161050790612beb565b60005b82518110156105b6576117a28484838151811061177b5761177b612aaa565b602002602001015184848151811061179557611795612aaa565b602002602001015161154c565b60010161175c565b6001600160a01b0383163b156105b657604051630a85bd0160e11b81526001600160a01b0384169063150b7a02906117ec903390889087908790600401612c57565b6020604051808303816000875af1925050508015611827575060408051601f3d908101601f1916820190925261182491810190612c8a565b60015b611887573d808015611855576040519150601f19603f3d011682016040523d82523d6000602084013e61185a565b606091505b50805160000361187f5783604051633250574960e11b815260040161050791906122c5565b805181602001fd5b6001600160e01b03198116630a85bd0160e11b146106995783604051633250574960e11b815260040161050791906122c5565b60606118c5826111af565b50600082815260066020526040812080546118df906129e7565b80601f016020809104026020016040519081016040528092919081815260200182805461190b906129e7565b80156119585780601f1061192d57610100808354040283529160200191611958565b820191906000526020600020905b81548152906001019060200180831161193b57829003601f168201915b50505050509050600061197660408051602081019091526000815290565b90508051600003611988575092915050565b8151156119ba5780826040516020016119a2929190612ca7565b60405160208183030381529060405292505050919050565b610b4c84611e1c565b600082826040516020016119d8929190612ca7565b60405160208183030381529060405280519060200120905092915050565b6060600082516001600160401b03811115611a1357611a1361231f565b604051908082528060200260200182016040528015611a4c57816020015b611a396121e5565b815260200190600190039081611a315790505b50905060005b8351811015610b2457611a7d848281518110611a7057611a70612aaa565b6020026020010151611e90565b828281518110611a8f57611a8f612aaa565b6020908102919091010152600101611a52565b600082826040516020016119d8929190612cd6565b606060008251845111611acb578351611ace565b82515b90506000816001600160401b03811115611aea57611aea61231f565b604051908082528060200260200182016040528015611b13578160200160208202803683370190505b5090506000805b8651811015611bc25760005b8651811015611bb957868181518110611b4157611b41612aaa565b6020026020010151888381518110611b5b57611b5b612aaa565b602002602001015103611bb157878281518110611b7a57611b7a612aaa565b6020026020010151848480611b8e90612c30565b955081518110611ba057611ba0612aaa565b602002602001018181525050611bb9565b600101611b26565b50600101611b1a565b50611bcd8282611edf565b9695505050505050565b60006001600160e01b031982166380ac58cd60e01b1480611c0857506001600160e01b03198216635b5e139f60e01b145b806103fe57506301ffc9a760e01b6001600160e01b03198316146103fe565b8080611c3b57506001600160a01b03821615155b15611cf4576000611c4b846111af565b90506001600160a01b03831615801590611c775750826001600160a01b0316816001600160a01b031614155b8015611c8a5750611c888184610d76565b155b15611caa578260405163a9fbf51f60e01b815260040161050791906122c5565b8115611cf25783856001600160a01b0316826001600160a01b03167f8c5be1e5ebec7d5bd14f71427d1e84f3dd0314c0f7b2291e5b200ac8c7c3b92560405160405180910390a45b505b5050600090815260046020526040902080546001600160a01b0319166001600160a01b0392909216919091179055565b611d2f838383611f79565b61051a576001600160a01b038316611d5d57604051637e27328960e01b815260048101829052602401610507565b60405163177e802f60e01b81526001600160a01b038316600482015260248101829052604401610507565b6000600a6000611d9885856119c3565b8152602001908152602001600020905060005b8154811015611de65784828281548110611dc757611dc7612aaa565b906000526020600020015403611dde575050505050565b600101611dab565b5080546001810182556000918252602090912001929092555050565b6104ca828260405180602001604052806000815250611fdc565b6060611e27826111af565b506000611e3f60408051602081019091526000815290565b90506000815111611e5f5760405180602001604052806000815250610d6f565b80611e6984611ff3565b604051602001611e7a929190612ca7565b6040516020818303038152906040529392505050565b611e986121e5565b6040518060800160405280838152602001611eb284610b6b565b8152602001611ec0846106a0565b6001600160a01b03168152602001611ed7846109c0565b905292915050565b60606000826001600160401b03811115611efb57611efb61231f565b604051908082528060200260200182016040528015611f24578160200160208202803683370190505b50905060005b83811015611f7157848181518110611f4457611f44612aaa565b6020026020010151828281518110611f5e57611f5e612aaa565b6020908102919091010152600101611f2a565b509392505050565b60006001600160a01b03831615801590610b4c5750826001600160a01b0316846001600160a01b03161480611fb35750611fb38484610d76565b80610b4c5750506000908152600460205260409020546001600160a01b03908116911614919050565b611fe68383612085565b61051a60008484846117aa565b60606000612000836120ea565b60010190506000816001600160401b0381111561201f5761201f61231f565b6040519080825280601f01601f191660200182016040528015612049576020820181803683370190505b5090508181016020015b600019016f181899199a1a9b1b9c1cb0b131b232b360811b600a86061a8153600a850494508461205357509392505050565b6001600160a01b0382166120af576000604051633250574960e11b815260040161050791906122c5565b60006120bd83836000611453565b90506001600160a01b0381161561051a5760006040516339e3563760e11b815260040161050791906122c5565b60008072184f03e93ff9f4daa797ed6e38ed64bf6a1f0160401b83106121295772184f03e93ff9f4daa797ed6e38ed64bf6a1f0160401b830492506040015b6d04ee2d6d415b85acef81000000008310612155576d04ee2d6d415b85acef8100000000830492506020015b662386f26fc10000831061217357662386f26fc10000830492506010015b6305f5e100831061218b576305f5e100830492506008015b612710831061219f57612710830492506004015b606483106121b1576064830492506002015b600a83106103fe5760010192915050565b604051806060016040528060608152602001606081526020016000151581525090565b6040518060800160405280600081526020016060815260200160006001600160a01b03168152602001606081525090565b6001600160e01b03198116811461101b57600080fd5b60006020828403121561223e57600080fd5b8135610d6f81612216565b60005b8381101561226457818101518382015260200161224c565b50506000910152565b60008151808452612285816020860160208601612249565b601f01601f19169290920160200192915050565b602081526000610d6f602083018461226d565b6000602082840312156122be57600080fd5b5035919050565b6001600160a01b0391909116815260200190565b80356001600160a01b03811681146122f057600080fd5b919050565b6000806040838503121561230857600080fd5b612311836122d9565b946020939093013593505050565b634e487b7160e01b600052604160045260246000fd5b604051601f8201601f191681016001600160401b038111828210171561235d5761235d61231f565b604052919050565b60006001600160401b0383111561237e5761237e61231f565b612391601f8401601f1916602001612335565b90508281528383830111156123a557600080fd5b828260208301376000602084830101529392505050565b600082601f8301126123cd57600080fd5b610d6f83833560208501612365565b600080604083850312156123ef57600080fd5b8235915060208301356001600160401b0381111561240c57600080fd5b612418858286016123bc565b9150509250929050565b600082601f83011261243357600080fd5b813560206001600160401b038083111561244f5761244f61231f565b8260051b61245e838201612335565b938452858101830193838101908886111561247857600080fd5b84880192505b858310156124b4578235848111156124965760008081fd5b6124a48a87838c01016123bc565b835250918401919084019061247e565b98975050505050505050565b600080604083850312156124d357600080fd5b82356001600160401b03808211156124ea57600080fd5b6124f686838701612422565b9350602085013591508082111561250c57600080fd5b5061241885828601612422565b60008060006060848603121561252e57600080fd5b612537846122d9565b9250612545602085016122d9565b9150604084013590509250925092565b60008060006060848603121561256a57600080fd5b8335925060208401356001600160401b038082111561258857600080fd5b612594878388016123bc565b935060408601359150808211156125aa57600080fd5b506125b7868287016123bc565b9150509250925092565b6000602082840312156125d357600080fd5b610d6f826122d9565b60008151606084526125f1606085018261226d565b90506020830151848203602086015261260a828261226d565b9150506040830151151560408501528091505092915050565b60008282518085526020808601955060208260051b8401016020860160005b8481101561267057601f1986840301895261265e8383516125dc565b98840198925090830190600101612642565b5090979650505050505050565b602081526000610d6f6020830184612623565b600080604083850312156126a357600080fd5b6126ac836122d9565b9150602083013580151581146126c157600080fd5b809150509250929050565b600080600080608085870312156126e257600080fd5b6126eb856122d9565b935060208501356001600160401b038082111561270757600080fd5b612713888389016123bc565b9450604087013591508082111561272957600080fd5b61273588838901612422565b9350606087013591508082111561274b57600080fd5b5061275887828801612422565b91505092959194509250565b6000806000806080858703121561277a57600080fd5b612783856122d9565b9350612791602086016122d9565b92506040850135915060608501356001600160401b038111156127b357600080fd5b8501601f810187136127c457600080fd5b61275887823560208401612365565b600080604083850312156127e657600080fd5b82356001600160401b03808211156127fd57600080fd5b612809868387016123bc565b9350602085013591508082111561281f57600080fd5b50612418858286016123bc565b600060208083018184528085518083526040925060408601915060408160051b87010184880160005b838110156128c657603f19898403018552815160808151855288820151818a8701526128838287018261226d565b838a01516001600160a01b0316878b01526060938401518782039488019490945291506128b290508183612623565b968901969450505090860190600101612855565b509098975050505050505050565b602081526000610d6f60208301846125dc565b600080604083850312156128fa57600080fd5b612903836122d9565b915060208301356001600160401b0381111561240c57600080fd5b6000806040838503121561293157600080fd5b61293a836122d9565b9150612948602084016122d9565b90509250929050565b60008060006060848603121561296657600080fd5b8335925060208401356001600160401b038082111561298457600080fd5b61299087838801612422565b935060408601359150808211156129a657600080fd5b506125b786828701612422565b6000602082840312156129c557600080fd5b81356001600160401b038111156129db57600080fd5b610b4c848285016123bc565b600181811c908216806129fb57607f821691505b6020821081036109a057634e487b7160e01b600052602260045260246000fd5b60208082526038908201527f4552433732314d657461646174613a20746f6b656e206d657461646174612063604082015277185b881b9bc81b1bdb99d95c881899481b5bd91a599a595960421b606082015260800190565b6020808252601f908201527f4552433732314d657461646174613a206e6f7420746f6b656e206f776e657200604082015260600190565b634e487b7160e01b600052603260045260246000fd5b60008251612ad2818460208701612249565b9190910192915050565b601f82111561051a576000816000526020600020601f850160051c81016020861015612b055750805b601f850160051c820191505b81811015612b2457828155600101612b11565b505050505050565b81516001600160401b03811115612b4557612b4561231f565b612b5981612b5384546129e7565b84612adc565b602080601f831160018114612b8e5760008415612b765750858301515b600019600386901b1c1916600185901b178555612b24565b600085815260208120601f198616915b82811015612bbd57888601518255948401946001909101908401612b9e565b5085821015612bdb5787850151600019600388901b60f8161c191681555b5050505050600190811b01905550565b60208082526025908201527f4552433732314d657461646174613a206172726179206c656e677468206d69736040820152640dac2e8c6d60db1b606082015260800190565b600060018201612c5057634e487b7160e01b600052601160045260246000fd5b5060010190565b6001600160a01b0385811682528416602082015260408101839052608060608201819052600090611bcd9083018461226d565b600060208284031215612c9c57600080fd5b8151610d6f81612216565b60008351612cb9818460208801612249565b835190830190612ccd818360208801612249565b01949350505050565b82815260008251612cee816020850160208701612249565b91909101602001939250505056fea2646970667358221220a9ade17cb600e6703ab1dbdf5a6e37bd254c78781c03a50b99dd026e6f58eb8464736f6c63430008180033",
  "linkReferences": {},
  "deployedLinkReferences": {}
}