{
  "_format": "hh-sol-artifact-1",
  "contractName": "ExchangeHTS",
  "sourceName": "contracts/orderbook/hts/ExchangeHTS.sol",
  "abi": [
    {
      "inputs": [
        {
          "internalType": "address",
          "name": "_tokenA",
          "type": "address"
        },
        {
          "internalType": "address",
          "name": "_tokenB",
          "type": "address"
        }
      ],
      "stateMutability": "nonpayable",
      "type": "constructor"
    },
    {
      "inputs": [],
      "name": "ReentrancyGuardReentrantCall",
      "type": "error"
    },
    {
      "anonymous": false,
      "inputs": [
        {
          "indexed": false,
          "internalType": "address",
          "name": "trader",
          "type": "address"
        },
        {
          "indexed": false,
          "internalType": "address",
          "name": "token",
          "type": "address"
        },
        {
          "indexed": false,
          "internalType": "int64",
          "name": "amount",
          "type": "int64"
        }
      ],
      "name": "Deposit",
      "type": "event"
    },
    {
      "anonymous": false,
      "inputs": [
        {
          "indexed": false,
          "internalType": "bool",
          "name": "isBuy",
          "type": "bool"
        },
        {
          "indexed": false,
          "internalType": "uint256",
          "name": "orderId",
          "type": "uint256"
        },
        {
          "indexed": false,
          "internalType": "address",
          "name": "trader",
          "type": "address"
        },
        {
          "indexed": false,
          "internalType": "int64",
          "name": "price",
          "type": "int64"
        },
        {
          "indexed": false,
          "internalType": "int64",
          "name": "volume",
          "type": "int64"
        }
      ],
      "name": "NewOrder",
      "type": "event"
    },
    {
      "anonymous": false,
      "inputs": [
        {
          "indexed": false,
          "internalType": "bool",
          "name": "isBuy",
          "type": "bool"
        },
        {
          "indexed": false,
          "internalType": "uint256",
          "name": "orderId",
          "type": "uint256"
        },
        {
          "indexed": false,
          "internalType": "address",
          "name": "trader",
          "type": "address"
        }
      ],
      "name": "OrderCanceled",
      "type": "event"
    },
    {
      "anonymous": false,
      "inputs": [
        {
          "indexed": false,
          "internalType": "int64",
          "name": "tradedVolume",
          "type": "int64"
        },
        {
          "indexed": false,
          "internalType": "int64",
          "name": "price",
          "type": "int64"
        },
        {
          "indexed": false,
          "internalType": "address",
          "name": "buyer",
          "type": "address"
        },
        {
          "indexed": false,
          "internalType": "address",
          "name": "seller",
          "type": "address"
        }
      ],
      "name": "Trade",
      "type": "event"
    },
    {
      "anonymous": false,
      "inputs": [
        {
          "indexed": false,
          "internalType": "address",
          "name": "trader",
          "type": "address"
        },
        {
          "indexed": false,
          "internalType": "address",
          "name": "token",
          "type": "address"
        },
        {
          "indexed": false,
          "internalType": "int64",
          "name": "amount",
          "type": "int64"
        }
      ],
      "name": "Withdraw",
      "type": "event"
    },
    {
      "inputs": [
        {
          "internalType": "address",
          "name": "",
          "type": "address"
        },
        {
          "internalType": "address",
          "name": "",
          "type": "address"
        }
      ],
      "name": "balanceOf",
      "outputs": [
        {
          "internalType": "int64",
          "name": "",
          "type": "int64"
        }
      ],
      "stateMutability": "view",
      "type": "function"
    },
    {
      "inputs": [
        {
          "internalType": "uint256",
          "name": "",
          "type": "uint256"
        }
      ],
      "name": "buyOrders",
      "outputs": [
        {
          "internalType": "uint256",
          "name": "id",
          "type": "uint256"
        },
        {
          "internalType": "int64",
          "name": "price",
          "type": "int64"
        },
        {
          "internalType": "int64",
          "name": "volume",
          "type": "int64"
        },
        {
          "internalType": "address",
          "name": "trader",
          "type": "address"
        },
        {
          "internalType": "uint256",
          "name": "next",
          "type": "uint256"
        }
      ],
      "stateMutability": "view",
      "type": "function"
    },
    {
      "inputs": [
        {
          "internalType": "uint256",
          "name": "orderId",
          "type": "uint256"
        },
        {
          "internalType": "bool",
          "name": "isBuyOrder",
          "type": "bool"
        }
      ],
      "name": "cancelOrder",
      "outputs": [],
      "stateMutability": "nonpayable",
      "type": "function"
    },
    {
      "inputs": [],
      "name": "currentOrderId",
      "outputs": [
        {
          "internalType": "uint256",
          "name": "",
          "type": "uint256"
        }
      ],
      "stateMutability": "view",
      "type": "function"
    },
    {
      "inputs": [
        {
          "internalType": "address",
          "name": "token",
          "type": "address"
        },
        {
          "internalType": "int64",
          "name": "amount",
          "type": "int64"
        }
      ],
      "name": "deposit",
      "outputs": [],
      "stateMutability": "nonpayable",
      "type": "function"
    },
    {
      "inputs": [],
      "name": "firstBuyOrderId",
      "outputs": [
        {
          "internalType": "uint256",
          "name": "",
          "type": "uint256"
        }
      ],
      "stateMutability": "view",
      "type": "function"
    },
    {
      "inputs": [],
      "name": "firstSellOrderId",
      "outputs": [
        {
          "internalType": "uint256",
          "name": "",
          "type": "uint256"
        }
      ],
      "stateMutability": "view",
      "type": "function"
    },
    {
      "inputs": [
        {
          "internalType": "int64",
          "name": "price",
          "type": "int64"
        },
        {
          "internalType": "int64",
          "name": "volume",
          "type": "int64"
        }
      ],
      "name": "placeBuyOrder",
      "outputs": [
        {
          "internalType": "uint256",
          "name": "",
          "type": "uint256"
        }
      ],
      "stateMutability": "nonpayable",
      "type": "function"
    },
    {
      "inputs": [
        {
          "internalType": "int64",
          "name": "price",
          "type": "int64"
        },
        {
          "internalType": "int64",
          "name": "volume",
          "type": "int64"
        }
      ],
      "name": "placeSellOrder",
      "outputs": [
        {
          "internalType": "uint256",
          "name": "",
          "type": "uint256"
        }
      ],
      "stateMutability": "nonpayable",
      "type": "function"
    },
    {
      "inputs": [
        {
          "internalType": "uint256",
          "name": "",
          "type": "uint256"
        }
      ],
      "name": "sellOrders",
      "outputs": [
        {
          "internalType": "uint256",
          "name": "id",
          "type": "uint256"
        },
        {
          "internalType": "int64",
          "name": "price",
          "type": "int64"
        },
        {
          "internalType": "int64",
          "name": "volume",
          "type": "int64"
        },
        {
          "internalType": "address",
          "name": "trader",
          "type": "address"
        },
        {
          "internalType": "uint256",
          "name": "next",
          "type": "uint256"
        }
      ],
      "stateMutability": "view",
      "type": "function"
    },
    {
      "inputs": [],
      "name": "tokenA",
      "outputs": [
        {
          "internalType": "address",
          "name": "",
          "type": "address"
        }
      ],
      "stateMutability": "view",
      "type": "function"
    },
    {
      "inputs": [],
      "name": "tokenB",
      "outputs": [
        {
          "internalType": "address",
          "name": "",
          "type": "address"
        }
      ],
      "stateMutability": "view",
      "type": "function"
    },
    {
      "inputs": [
        {
          "internalType": "address",
          "name": "token",
          "type": "address"
        },
        {
          "internalType": "int64",
          "name": "amount",
          "type": "int64"
        }
      ],
      "name": "withdraw",
      "outputs": [],
      "stateMutability": "nonpayable",
      "type": "function"
    }
  ],
  "bytecode": "0x60806040523480156200001157600080fd5b5060405162001cfd38038062001cfd8339810160408190526200003491620001e1565b60016008819055600080546001600160a01b038086166001600160a01b03199283168117909355835490851691161790915562000072903062000092565b6001546200008a906001600160a01b03163062000092565b505062000276565b604080516001600160a01b038381166024830152841660448083019190915282518083039091018152606490910182526020810180516001600160e01b031663248a35ef60e11b17905290516000918291829161016791620000f5919062000219565b6000604051808303816000865af19150503d806000811462000134576040519150601f19603f3d011682016040523d82523d6000602084013e62000139565b606091505b5091509150816200014c57601562000162565b808060200190518101906200016291906200024a565b9250600383900b601614620001bd5760405162461bcd60e51b815260206004820152601f60248201527f536166652073696e676c65206173736f63696174696f6e206661696c65642100604482015260640160405180910390fd5b5050505050565b80516001600160a01b0381168114620001dc57600080fd5b919050565b60008060408385031215620001f557600080fd5b6200020083620001c4565b91506200021060208401620001c4565b90509250929050565b6000825160005b818110156200023c576020818601810151858301520162000220565b506000920191825250919050565b6000602082840312156200025d57600080fd5b81518060030b81146200026f57600080fd5b9392505050565b611a7780620002866000396000f3fe608060405234801561001057600080fd5b50600436106100bf5760003560e01c806372fb07771161007c57806372fb077714610216578063925931fc1461021f57806392c0299114610228578063bb110bf91461023d578063dd5813ee14610246578063f7888aec14610259578063f88d20471461029a57600080fd5b806303c4c2e1146100c45780630fc63d10146100ea5780632ec2add71461011557806335cea288146101285780634a8393f3146101b15780635f64b55b14610203575b600080fd5b6100d76100d236600461166c565b6102ad565b6040519081526020015b60405180910390f35b6000546100fd906001600160a01b031681565b6040516001600160a01b0390911681526020016100e1565b6100d761012336600461166c565b6103a4565b61017a61013636600461169f565b600260208190526000918252604090912080546001820154928201546003909201549092600781810b93600160401b909204900b916001600160a01b039091169085565b60408051958652600794850b60208701529290930b918401919091526001600160a01b03166060830152608082015260a0016100e1565b61017a6101bf36600461169f565b600360208190526000918252604090912080546001820154600283015492909301549092600781810b93600160401b909204900b916001600160a01b039091169085565b6001546100fd906001600160a01b031681565b6100d760065481565b6100d760075481565b61023b6102363660046116cf565b610465565b005b6100d760055481565b61023b6102543660046116cf565b610538565b6102876102673660046116eb565b600460209081526000928352604080842090915290825290205460070b81565b60405160079190910b81526020016100e1565b61023b6102a8366004611715565b6105b3565b60006102b761073c565b60008360070b136102e35760405162461bcd60e51b81526004016102da9061174a565b60405180910390fd5b60008260070b136103065760405162461bcd60e51b81526004016102da90611771565b6103146305f5e100836117af565b61031e90846117fc565b3360009081526004602090815260408083206001546001600160a01b03168452909152902054600791820b910b12156103695760405162461bcd60e51b81526004016102da90611823565b6000610376338585610766565b905060008160070b131561038f5761038f338583610a7a565b505060075461039e6001600855565b92915050565b60006103ae61073c565b60008360070b136103d15760405162461bcd60e51b81526004016102da9061174a565b60008260070b136103f45760405162461bcd60e51b81526004016102da90611771565b33600090815260046020908152604080832083546001600160a01b03168452909152902054600783810b91900b121561043f5760405162461bcd60e51b81526004016102da90611823565b600061044c338585610c71565b905060008160070b131561038f5761038f338583610f5f565b61046d61073c565b6000546001600160a01b038381169116148061049657506001546001600160a01b038381169116145b6104b25760405162461bcd60e51b81526004016102da9061184f565b60008160070b136104d55760405162461bcd60e51b81526004016102da90611876565b3360009081526004602090815260408083206001600160a01b0386168452909152902054600782810b91900b121561051f5760405162461bcd60e51b81526004016102da90611823565b61052a33838361112b565b6105346001600855565b5050565b61054061073c565b6000546001600160a01b038381169116148061056957506001546001600160a01b038381169116145b6105855760405162461bcd60e51b81526004016102da9061184f565b60008160070b136105a85760405162461bcd60e51b81526004016102da90611876565b61052a3383836111d8565b6105bb61073c565b6000816105d55760008381526003602052604090206105e4565b60008381526002602052604090205b60028101549091506001600160a01b03166106385760405162461bcd60e51b815260206004820152601460248201527313dc99195c88191bd95cc81b9bdd08195e1a5cdd60621b60448201526064016102da565b60028101546001600160a01b031633146106a95760405162461bcd60e51b815260206004820152602c60248201527f4f6e6c7920746865206f726465722063726561746f722063616e2063616e636560448201526b36103a3434b99037b93232b960a11b60648201526084016102da565b60018101546000600160401b90910460070b136107145760405162461bcd60e51b8152602060048201526024808201527f4f7264657220616c72656164792063616e63656c6c6564206f722066756c66696044820152631b1b195960e21b60648201526084016102da565b81156107285761072381611278565b610731565b610731816113dd565b506105346001600855565b60026008540361075f57604051633ee5aeb560e01b815260040160405180910390fd5b6002600855565b600654600090600a825b8215801590610782575060008560070b135b801561078d57508181105b15610a6e5760008381526003602052604090206001810154600790810b9088900b12610a55576001810154600090600788810b600160401b909204900b126107d557866107e5565b6001820154600160401b900460070b5b600183015490915060070b6107fe6305f5e100836117af565b61080890826117fc565b6001600160a01b03808c1660009081526004602090815260408083206001549094168352929052908120805490919061084590849060070b61189e565b82546001600160401b039182166101009390930a9283029190920219909116179055506001600160a01b03808b1660009081526004602090815260408083208354909416835292905290812080548492906108a490849060070b6118cd565b92506101000a8154816001600160401b03021916908360070b6001600160401b031602179055506305f5e100826108db91906117af565b6108e590826117fc565b60028401546001600160a01b0390811660009081526004602090815260408083206001549094168352929052908120805490919061092790849060070b6118cd565b92506101000a8154816001600160401b03021916908360070b6001600160401b03160217905550818861095a919061189e565b600184018054919950839160089061097d908490600160401b900460070b61189e565b82546001600160401b039182166101009390930a928302919092021990911617905550600183015460028401546040517f3811c688c91a2195acbf84f4d5e7adc8d2f17ba048f1051955046e511411fd7d926109ed92869260079290920b918f916001600160a01b0316906118fc565b60405180910390a16001830154600160401b900460070b600003610a4e5760038084015460009788526020829052604088208881556001810180546001600160801b03191690556002810180546001600160a01b0319169055909101969096555b5050610a5b565b50610a6e565b81610a658161192a565b92505050610770565b50506006555092915050565b60078054906000610a8a8361192a565b909155505060055460005b8115801590610abb5750600082815260026020526040902060010154600785810b91900b135b15610ad9575060008181526002602052604090206003015490610a95565b6040805160a0810182526007805480835287820b60208085019182529288900b8486019081526001600160a01b03808c1660608701908152608087018a815260009586526002968790529790942095518655915160018601805492516001600160401b03908116600160401b026001600160801b031990941692169190911791909117905590519183018054929091166001600160a01b03199092169190911790559051600390910155610b916305f5e100846117af565b610b9b90856117fc565b6001600160a01b03808716600090815260046020908152604080832060015490941683529290529081208054909190610bd890849060070b61189e565b92506101000a8154816001600160401b03021916908360070b6001600160401b031602179055507fddca83c332d5b33951e90d550eefc003b7a1efae1cdf8c4d684d4ccdf2cd8d596001600754878787604051610c39959493929190611943565b60405180910390a180600003610c5457600754600555610c6a565b6007546000828152600260205260409020600301555b5050505050565b600554600090600a825b8215801590610c8d575060008560070b135b8015610c9857508181105b15610f535760008381526002602052604090206001810154600790810b9088900b13610f3a576001810154600090600788810b600160401b909204900b12610ce05786610cf0565b6001820154600160401b900460070b5b905087610d016305f5e100836117af565b610d0b90826117fc565b6001600160a01b03808c16600090815260046020908152604080832060015490941683529290529081208054909190610d4890849060070b6118cd565b82546001600160401b039182166101009390930a9283029190920219909116179055506001600160a01b03808b166000908152600460209081526040808320835490941683529290529081208054849290610da790849060070b61189e565b82546001600160401b039182166101009390930a92830291909202199091161790555060028301546001600160a01b039081166000908152600460209081526040808320835490941683529290529081208054849290610e0b90849060070b6118cd565b92506101000a8154816001600160401b03021916908360070b6001600160401b031602179055508188610e3e919061189e565b6001840180549199508391600890610e61908490600160401b900460070b61189e565b82546001600160401b039182166101009390930a928302919092021990911617905550600183015460028401546040517f3811c688c91a2195acbf84f4d5e7adc8d2f17ba048f1051955046e511411fd7d92610ed192869260079290920b918f916001600160a01b0316906118fc565b60405180910390a16001830154600160401b900460070b600003610f3357600380840154600097885260026020819052604089208981556001810180546001600160801b031916905590810180546001600160a01b0319169055909101969096555b5050610f40565b50610f53565b81610f4a8161192a565b92505050610c7b565b50506005555092915050565b60078054906000610f6f8361192a565b909155505060065460005b8115801590610fa05750600082815260036020526040902060010154600785810b91900b125b15610fbf57506000818152600360208190526040909120015490610f7a565b6040805160a0810182526007805480835287820b602080850191825288840b8587019081526001600160a01b03808d1660608801818152608089018c8152600097885260038087528b89209a518b55965160018b01805496516001600160401b03908116600160401b026001600160801b031990981692169190911795909517909455516002890180549184166001600160a01b0319909216919091179055915196909301959095559382526004845284822082549091168252909252918120805486939192916110929185910b61189e565b92506101000a8154816001600160401b03021916908360070b6001600160401b031602179055507fddca83c332d5b33951e90d550eefc003b7a1efae1cdf8c4d684d4ccdf2cd8d5960006007548787876040516110f3959493929190611943565b60405180910390a18060000361110e57600754600655610c6a565b600754600082815260036020819052604090912001555050505050565b6001600160a01b0380841660009081526004602090815260408083209386168352929052908120805483929061116590849060070b61189e565b92506101000a8154816001600160401b03021916908360070b6001600160401b031602179055506111988230858461151c565b7fd09be44e70d8a46d3b3b8da9701595dcaec29d75930065918923c7d9fd73eb588383836040516111cb93929190611977565b60405180910390a1505050565b6111e48284308461151c565b6001600160a01b0380841660009081526004602090815260408083209386168352929052908120805483929061121e90849060070b6118cd565b92506101000a8154816001600160401b03021916908360070b6001600160401b031602179055507f64e3b56a34ae45fe7d1f33e3d3da391a671e6043606ac9c811a6c1243023841d8383836040516111cb93929190611977565b60055481540361128f5760038101546005556112f2565b60055460009081526002602052604090205b81546003820154146112e85780600301546000036112d15760405162461bcd60e51b81526004016102da9061199e565b6003015460009081526002602052604090206112a1565b6003808301549101555b6001810154611310906305f5e10090600160401b900460070b6117af565b6001820154611322919060070b6117fc565b60028201546001600160a01b0390811660009081526004602090815260408083206001549094168352929052908120805490919061136490849060070b6118cd565b82546001600160401b039182166101009390930a9283029190920219909116179055506001818101805467ffffffffffffffff60401b1916905581546040517fcfa919375acf04933787aa7f7b25d71adf2e92839529dad777b47ff2cd0827a4926113d292909133906119c7565b60405180910390a150565b6006548154036113f457600381015460065561145a565b60065460009081526003602052604090205b81546003820154146114505780600301546000036114365760405162461bcd60e51b81526004016102da9061199e565b600390810154600090815260209190915260409020611406565b6003808301549101555b600181015460028201546001600160a01b039081166000908152600460209081526040808320835490941683529290529081208054600160401b909304600790810b939192916114ad918591900b6118cd565b82546001600160401b039182166101009390930a92830291909202199091161790555060018101805467ffffffffffffffff60401b1916905580546040517fcfa919375acf04933787aa7f7b25d71adf2e92839529dad777b47ff2cd0827a4916113d2916000919033906119c7565b604080516001600160a01b038681166024830152858116604483015284166064820152600783900b6084808301919091528251808303909101815260a490910182526020810180516001600160e01b031663eca3691760e01b1790529051600091829182916101679161158f91906119e8565b6000604051808303816000865af19150503d80600081146115cc576040519150601f19603f3d011682016040523d82523d6000602084013e6115d1565b606091505b5091509150816115e25760156115f6565b808060200190518101906115f69190611a17565b9250600383900b60161461164c5760405162461bcd60e51b815260206004820152601b60248201527f5361666520746f6b656e207472616e73666572206661696c656421000000000060448201526064016102da565b50505050505050565b8035600781900b811461166757600080fd5b919050565b6000806040838503121561167f57600080fd5b61168883611655565b915061169660208401611655565b90509250929050565b6000602082840312156116b157600080fd5b5035919050565b80356001600160a01b038116811461166757600080fd5b600080604083850312156116e257600080fd5b611688836116b8565b600080604083850312156116fe57600080fd5b611707836116b8565b9150611696602084016116b8565b6000806040838503121561172857600080fd5b823591506020830135801515811461173f57600080fd5b809150509250929050565b6020808252600d908201526c496e76616c696420507269636560981b604082015260600190565b6020808252600e908201526d496e76616c696420566f6c756d6560901b604082015260600190565b634e487b7160e01b600052601160045260246000fd5b60008160070b8360070b806117d457634e487b7160e01b600052601260045260246000fd5b677fffffffffffffff198214600019821416156117f3576117f3611799565b90059392505050565b60008260070b8260070b028060070b915080821461181c5761181c611799565b5092915050565b6020808252601290820152714e6f7420656e6f7567682062616c616e636560701b604082015260600190565b6020808252600d908201526c24b73b30b634b2103a37b5b2b760991b604082015260600190565b6020808252600e908201526d125b9d985b1a5908185b5bdd5b9d60921b604082015260600190565b600782810b9082900b03677fffffffffffffff198112677fffffffffffffff8213171561039e5761039e611799565b600781810b9083900b01677fffffffffffffff8113677fffffffffffffff198212171561039e5761039e611799565b600794850b81529290930b60208301526001600160a01b039081166040830152909116606082015260800190565b60006001820161193c5761193c611799565b5060010190565b941515855260208501939093526001600160a01b03919091166040840152600790810b60608401520b608082015260a00190565b6001600160a01b03938416815291909216602082015260079190910b604082015260600190565b6020808252600f908201526e13dc99195c881b9bdd08199bdd5b99608a1b604082015260600190565b921515835260208301919091526001600160a01b0316604082015260600190565b6000825160005b81811015611a0957602081860181015185830152016119ef565b506000920191825250919050565b600060208284031215611a2957600080fd5b81518060030b8114611a3a57600080fd5b939250505056fea2646970667358221220c9346c317dbb5c35610d2fa5ef02ac2ec8988f91100a440ce4669b598bcd843e64736f6c63430008180033",
  "linkReferences": {},
  "deployedLinkReferences": {}
}