{
  "_format": "hh-sol-artifact-1",
  "contractName": "ExchangeMonthlyLimitsModule",
  "sourceName": "contracts/erc3643/compliance/modular/modules/ExchangeMonthlyLimitsModule.sol",
  "abi": [
    {
      "inputs": [],
      "stateMutability": "nonpayable",
      "type": "constructor"
    },
    {
      "inputs": [
        {
          "internalType": "address",
          "name": "_exchangeID",
          "type": "address"
        }
      ],
      "name": "ONCHAINIDAlreadyTaggedAsExchange",
      "type": "error"
    },
    {
      "inputs": [
        {
          "internalType": "address",
          "name": "_exchangeID",
          "type": "address"
        }
      ],
      "name": "ONCHAINIDNotTaggedAsExchange",
      "type": "error"
    },
    {
      "inputs": [
        {
          "internalType": "address",
          "name": "owner",
          "type": "address"
        }
      ],
      "name": "OwnableInvalidOwner",
      "type": "error"
    },
    {
      "inputs": [
        {
          "internalType": "address",
          "name": "account",
          "type": "address"
        }
      ],
      "name": "OwnableUnauthorizedAccount",
      "type": "error"
    },
    {
      "anonymous": false,
      "inputs": [
        {
          "indexed": true,
          "internalType": "address",
          "name": "_compliance",
          "type": "address"
        }
      ],
      "name": "ComplianceBound",
      "type": "event"
    },
    {
      "anonymous": false,
      "inputs": [
        {
          "indexed": true,
          "internalType": "address",
          "name": "_compliance",
          "type": "address"
        }
      ],
      "name": "ComplianceUnbound",
      "type": "event"
    },
    {
      "anonymous": false,
      "inputs": [
        {
          "indexed": false,
          "internalType": "address",
          "name": "_newExchangeID",
          "type": "address"
        }
      ],
      "name": "ExchangeIDAdded",
      "type": "event"
    },
    {
      "anonymous": false,
      "inputs": [
        {
          "indexed": false,
          "internalType": "address",
          "name": "_exchangeID",
          "type": "address"
        }
      ],
      "name": "ExchangeIDRemoved",
      "type": "event"
    },
    {
      "anonymous": false,
      "inputs": [
        {
          "indexed": true,
          "internalType": "address",
          "name": "compliance",
          "type": "address"
        },
        {
          "indexed": false,
          "internalType": "address",
          "name": "_exchangeID",
          "type": "address"
        },
        {
          "indexed": false,
          "internalType": "uint256",
          "name": "_newExchangeMonthlyLimit",
          "type": "uint256"
        }
      ],
      "name": "ExchangeMonthlyLimitUpdated",
      "type": "event"
    },
    {
      "anonymous": false,
      "inputs": [
        {
          "indexed": true,
          "internalType": "address",
          "name": "previousOwner",
          "type": "address"
        },
        {
          "indexed": true,
          "internalType": "address",
          "name": "newOwner",
          "type": "address"
        }
      ],
      "name": "OwnershipTransferred",
      "type": "event"
    },
    {
      "inputs": [
        {
          "internalType": "address",
          "name": "_exchangeID",
          "type": "address"
        }
      ],
      "name": "addExchangeID",
      "outputs": [],
      "stateMutability": "nonpayable",
      "type": "function"
    },
    {
      "inputs": [
        {
          "internalType": "address",
          "name": "_compliance",
          "type": "address"
        }
      ],
      "name": "bindCompliance",
      "outputs": [],
      "stateMutability": "nonpayable",
      "type": "function"
    },
    {
      "inputs": [
        {
          "internalType": "address",
          "name": "",
          "type": "address"
        }
      ],
      "name": "canComplianceBind",
      "outputs": [
        {
          "internalType": "bool",
          "name": "",
          "type": "bool"
        }
      ],
      "stateMutability": "view",
      "type": "function"
    },
    {
      "inputs": [
        {
          "internalType": "address",
          "name": "compliance",
          "type": "address"
        },
        {
          "internalType": "address",
          "name": "_exchangeID",
          "type": "address"
        }
      ],
      "name": "getExchangeMonthlyLimit",
      "outputs": [
        {
          "internalType": "uint256",
          "name": "",
          "type": "uint256"
        }
      ],
      "stateMutability": "view",
      "type": "function"
    },
    {
      "inputs": [
        {
          "internalType": "address",
          "name": "compliance",
          "type": "address"
        },
        {
          "internalType": "address",
          "name": "_exchangeID",
          "type": "address"
        },
        {
          "internalType": "address",
          "name": "_investorID",
          "type": "address"
        }
      ],
      "name": "getMonthlyCounter",
      "outputs": [
        {
          "internalType": "uint256",
          "name": "",
          "type": "uint256"
        }
      ],
      "stateMutability": "view",
      "type": "function"
    },
    {
      "inputs": [
        {
          "internalType": "address",
          "name": "compliance",
          "type": "address"
        },
        {
          "internalType": "address",
          "name": "_exchangeID",
          "type": "address"
        },
        {
          "internalType": "address",
          "name": "_investorID",
          "type": "address"
        }
      ],
      "name": "getMonthlyTimer",
      "outputs": [
        {
          "internalType": "uint256",
          "name": "",
          "type": "uint256"
        }
      ],
      "stateMutability": "view",
      "type": "function"
    },
    {
      "inputs": [
        {
          "internalType": "address",
          "name": "_compliance",
          "type": "address"
        }
      ],
      "name": "isComplianceBound",
      "outputs": [
        {
          "internalType": "bool",
          "name": "",
          "type": "bool"
        }
      ],
      "stateMutability": "view",
      "type": "function"
    },
    {
      "inputs": [
        {
          "internalType": "address",
          "name": "_exchangeID",
          "type": "address"
        }
      ],
      "name": "isExchangeID",
      "outputs": [
        {
          "internalType": "bool",
          "name": "",
          "type": "bool"
        }
      ],
      "stateMutability": "view",
      "type": "function"
    },
    {
      "inputs": [],
      "name": "isPlugAndPlay",
      "outputs": [
        {
          "internalType": "bool",
          "name": "",
          "type": "bool"
        }
      ],
      "stateMutability": "pure",
      "type": "function"
    },
    {
      "inputs": [
        {
          "internalType": "address",
          "name": "",
          "type": "address"
        },
        {
          "internalType": "uint256",
          "name": "",
          "type": "uint256"
        }
      ],
      "name": "moduleBurnAction",
      "outputs": [],
      "stateMutability": "nonpayable",
      "type": "function"
    },
    {
      "inputs": [
        {
          "internalType": "address",
          "name": "_from",
          "type": "address"
        },
        {
          "internalType": "address",
          "name": "_to",
          "type": "address"
        },
        {
          "internalType": "uint256",
          "name": "_value",
          "type": "uint256"
        },
        {
          "internalType": "address",
          "name": "_compliance",
          "type": "address"
        }
      ],
      "name": "moduleCheck",
      "outputs": [
        {
          "internalType": "bool",
          "name": "",
          "type": "bool"
        }
      ],
      "stateMutability": "view",
      "type": "function"
    },
    {
      "inputs": [
        {
          "internalType": "address",
          "name": "",
          "type": "address"
        },
        {
          "internalType": "uint256",
          "name": "",
          "type": "uint256"
        }
      ],
      "name": "moduleMintAction",
      "outputs": [],
      "stateMutability": "nonpayable",
      "type": "function"
    },
    {
      "inputs": [
        {
          "internalType": "address",
          "name": "_from",
          "type": "address"
        },
        {
          "internalType": "address",
          "name": "_to",
          "type": "address"
        },
        {
          "internalType": "uint256",
          "name": "_value",
          "type": "uint256"
        }
      ],
      "name": "moduleTransferAction",
      "outputs": [],
      "stateMutability": "nonpayable",
      "type": "function"
    },
    {
      "inputs": [],
      "name": "name",
      "outputs": [
        {
          "internalType": "string",
          "name": "_name",
          "type": "string"
        }
      ],
      "stateMutability": "pure",
      "type": "function"
    },
    {
      "inputs": [],
      "name": "owner",
      "outputs": [
        {
          "internalType": "address",
          "name": "",
          "type": "address"
        }
      ],
      "stateMutability": "view",
      "type": "function"
    },
    {
      "inputs": [
        {
          "internalType": "address",
          "name": "_exchangeID",
          "type": "address"
        }
      ],
      "name": "removeExchangeID",
      "outputs": [],
      "stateMutability": "nonpayable",
      "type": "function"
    },
    {
      "inputs": [],
      "name": "renounceOwnership",
      "outputs": [],
      "stateMutability": "nonpayable",
      "type": "function"
    },
    {
      "inputs": [
        {
          "internalType": "address",
          "name": "_exchangeID",
          "type": "address"
        },
        {
          "internalType": "uint256",
          "name": "_newExchangeMonthlyLimit",
          "type": "uint256"
        }
      ],
      "name": "setExchangeMonthlyLimit",
      "outputs": [],
      "stateMutability": "nonpayable",
      "type": "function"
    },
    {
      "inputs": [
        {
          "internalType": "address",
          "name": "newOwner",
          "type": "address"
        }
      ],
      "name": "transferOwnership",
      "outputs": [],
      "stateMutability": "nonpayable",
      "type": "function"
    },
    {
      "inputs": [
        {
          "internalType": "address",
          "name": "_compliance",
          "type": "address"
        }
      ],
      "name": "unbindCompliance",
      "outputs": [],
      "stateMutability": "nonpayable",
      "type": "function"
    }
  ],
  "bytecode": "0x608060405234801561001057600080fd5b50338061003757604051631e4fbdf760e01b81526000600482015260240160405180910390fd5b61004081610046565b50610098565b600180546001600160a01b038381166001600160a01b0319831681179093556040519116919082907f8be0079c531659141344cd1fd0a4f28419497f9722a3daafe3b4186f6b6457e090600090a35050565b610fb2806100a76000396000f3fe608060405234801561001057600080fd5b506004361061012c5760003560e01c806374436d97116100ad578063cafa20d511610071578063cafa20d5146102b4578063d22579fb146102c7578063e6f5e807146102da578063f104a8c9146101d3578063f2fde38b146102e157600080fd5b806374436d971461024e5780638da5cb5b14610261578063a9336def1461027a578063bcc210531461028d578063c5b99969146102a157600080fd5b8063372491a2116100f4578063372491a2146101d35780634a932544146101e65780634cf4d295146101f9578063616c658914610225578063715018a61461024657600080fd5b8063013b7ce4146101315780630694a5fb1461015957806306fdde031461016e5780632bb5e721146101ad5780632cb7e1ec146101c0575b600080fd5b61014461013f366004610ca9565b6102f4565b60405190151581526020015b60405180910390f35b61016c610167366004610cfc565b610419565b005b604080518082018252601b81527f45786368616e67654d6f6e74686c794c696d6974734d6f64756c650000000000602082015290516101509190610d19565b61016c6101bb366004610cfc565b6104e8565b61016c6101ce366004610d68565b610577565b61016c6101e1366004610da9565b6105f6565b61016c6101f4366004610cfc565b610629565b610144610207366004610cfc565b6001600160a01b031660009081526020819052604090205460ff1690565b610238610233366004610dd5565b610727565b604051908152602001610150565b61016c61075f565b61016c61025c366004610cfc565b610773565b6001546001600160a01b03166040516101509190610e20565b61016c610288366004610da9565b6107f3565b61014461029b366004610cfc565b50600190565b6102386102af366004610e34565b610885565b6102386102c2366004610dd5565b6108b2565b6101446102d5366004610cfc565b6108e7565b6001610144565b61016c6102ef366004610cfc565b610905565b60006001600160a01b038516158061031157506103118286610943565b1561031e57506001610411565b600061032a8387610a1a565b9050610335816108e7565b15610344576001915050610411565b60006103508487610a1a565b905061035b816108e7565b61036a57600192505050610411565b6001600160a01b038085166000908152600260209081526040808320938516835292905220548511156103a257600092505050610411565b6103ad848284610b4b565b156103bd57600192505050610411565b6001600160a01b03808516600090815260026020908152604080832093851683529290522054856103ef8684866108b2565b6103f99190610e6d565b111561040a57600092505050610411565b6001925050505b949350505050565b3360009081526020819052604090205460ff166104515760405162461bcd60e51b815260040161044890610e8e565b60405180910390fd5b6001600160a01b0381166104775760405162461bcd60e51b815260040161044890610ec5565b336001600160a01b0382161461049f5760405162461bcd60e51b815260040161044890610efc565b6001600160a01b038116600081815260208190526040808220805460ff19169055517f408b49d9be1c914c52a0227e18a077e5a892dddf32a26cfa94a5d9708fad77189190a250565b6104f0610b63565b6104f9816108e7565b1561051957806040516345d1498b60e01b81526004016104489190610e20565b6001600160a01b03811660009081526004602052604090819020805460ff19166001179055517fca661533a567195376b79f20fcbcca20e62ceea1d43efacba5f8028329da8e6b9061056c908390610e20565b60405180910390a150565b3360009081526020819052604090205460ff166105a65760405162461bcd60e51b815260040161044890610e8e565b60006105b23385610a1a565b905060006105c03385610a1a565b90506105cb816108e7565b80156105de57506105dc3386610943565b155b156105ef576105ef33828486610b90565b5050505050565b3360009081526020819052604090205460ff166106255760405162461bcd60e51b815260040161044890610e8e565b5050565b6001600160a01b03811661064f5760405162461bcd60e51b815260040161044890610ec5565b6001600160a01b03811660009081526020819052604090205460ff16156106b35760405162461bcd60e51b815260206004820152601860248201527718dbdb5c1b1a585b98d948185b1c9958591e48189bdd5b9960421b6044820152606401610448565b336001600160a01b038216146106db5760405162461bcd60e51b815260040161044890610efc565b6001600160a01b038116600081815260208190526040808220805460ff19166001179055517f1f7b76c58fb697eb53c6c7c1becb96911516a136e24d7ced386b2355358b75a39190a250565b6001600160a01b0392831660009081526003602090815260408083209486168352938152838220929094168152925290206001015490565b610767610b63565b6107716000610be7565b565b61077b610b63565b610784816108e7565b6107a35780604051630120783160e61b81526004016104489190610e20565b6001600160a01b03811660009081526004602052604090819020805460ff19169055517fc59743ca46d36b7cf42c36211a2fbef12e10aec1bfc9d39eccf91b6976a260f59061056c908390610e20565b3360009081526020819052604090205460ff166108225760405162461bcd60e51b815260040161044890610e8e565b3360008181526002602090815260408083206001600160a01b0387168085529083529281902085905580519283529082018490527f14902018104a24b79253a1e29e979c8b957bc80c71b062ca985f879888e6ea1e910160405180910390a25050565b6001600160a01b038083166000908152600260209081526040808320938516835292905220545b92915050565b6001600160a01b0392831660009081526003602090815260408083209486168352938152838220929094168152925290205490565b6001600160a01b031660009081526004602052604090205460ff1690565b61090d610b63565b6001600160a01b038116610937576000604051631e4fbdf760e01b81526004016104489190610e20565b61094081610be7565b50565b6000826001600160a01b0316636a3edf286040518163ffffffff1660e01b8152600401602060405180830381865afa158015610983573d6000803e3d6000fd5b505050506040513d601f19601f820116820180604052508101906109a79190610f3d565b6001600160a01b0316631ffbb064836040518263ffffffff1660e01b81526004016109d29190610e20565b602060405180830381865afa1580156109ef573d6000803e3d6000fd5b505050506040513d601f19601f82011682018060405250810190610a139190610f5a565b9392505050565b6000826001600160a01b0316636a3edf286040518163ffffffff1660e01b8152600401602060405180830381865afa158015610a5a573d6000803e3d6000fd5b505050506040513d601f19601f82011682018060405250810190610a7e9190610f3d565b6001600160a01b031663134e18f46040518163ffffffff1660e01b8152600401602060405180830381865afa158015610abb573d6000803e3d6000fd5b505050506040513d601f19601f82011682018060405250810190610adf9190610f3d565b6001600160a01b031663f0eb5e54836040518263ffffffff1660e01b8152600401610b0a9190610e20565b602060405180830381865afa158015610b27573d6000803e3d6000fd5b505050506040513d601f19601f82011682018060405250810190610a139190610f3d565b600042610b59858585610727565b1115949350505050565b6001546001600160a01b03163314610771573360405163118cdaa760e01b81526004016104489190610e20565b610b9b848484610c39565b6001600160a01b0380851660009081526003602090815260408083208785168452825280832093861683529290529081208054839290610bdc908490610e6d565b909155505050505050565b600180546001600160a01b038381166001600160a01b0319831681179093556040519116919082907f8be0079c531659141344cd1fd0a4f28419497f9722a3daafe3b4186f6b6457e090600090a35050565b610c44838383610b4b565b15610c8f576001600160a01b03808416600090815260036020908152604080832086851684528252808320938516835292905220610c854262278d00610e6d565b6001820155600090555b505050565b6001600160a01b038116811461094057600080fd5b60008060008060808587031215610cbf57600080fd5b8435610cca81610c94565b93506020850135610cda81610c94565b9250604085013591506060850135610cf181610c94565b939692955090935050565b600060208284031215610d0e57600080fd5b8135610a1381610c94565b60006020808352835180602085015260005b81811015610d4757858101830151858201604001528201610d2b565b506000604082860101526040601f19601f8301168501019250505092915050565b600080600060608486031215610d7d57600080fd5b8335610d8881610c94565b92506020840135610d9881610c94565b929592945050506040919091013590565b60008060408385031215610dbc57600080fd5b8235610dc781610c94565b946020939093013593505050565b600080600060608486031215610dea57600080fd5b8335610df581610c94565b92506020840135610e0581610c94565b91506040840135610e1581610c94565b809150509250925092565b6001600160a01b0391909116815260200190565b60008060408385031215610e4757600080fd5b8235610e5281610c94565b91506020830135610e6281610c94565b809150509250929050565b808201808211156108ac57634e487b7160e01b600052601160045260246000fd5b6020808252601e908201527f6f6e6c7920626f756e6420636f6d706c69616e63652063616e2063616c6c0000604082015260600190565b6020808252601f908201527f696e76616c696420617267756d656e74202d207a65726f206164647265737300604082015260600190565b60208082526021908201527f6f6e6c7920636f6d706c69616e636520636f6e74726163742063616e2063616c6040820152601b60fa1b606082015260800190565b600060208284031215610f4f57600080fd5b8151610a1381610c94565b600060208284031215610f6c57600080fd5b81518015158114610a1357600080fdfea2646970667358221220edcd6b73799c377a4184f6db23e1fbcfb001960aa1c0ac254fd4af83c90c564f64736f6c63430008180033",
  "linkReferences": {},
  "deployedLinkReferences": {}
}