{
  "_format": "hh-sol-artifact-1",
  "contractName": "Exchange",
  "sourceName": "contracts/orderbook/Exchange.sol",
  "abi": [
    {
      "inputs": [
        {
          "internalType": "address",
          "name": "_tokenA",
          "type": "address"
        },
        {
          "internalType": "address",
          "name": "_tokenB",
          "type": "address"
        }
      ],
      "stateMutability": "nonpayable",
      "type": "constructor"
    },
    {
      "inputs": [],
      "name": "ReentrancyGuardReentrantCall",
      "type": "error"
    },
    {
      "anonymous": false,
      "inputs": [
        {
          "indexed": true,
          "internalType": "address",
          "name": "trader",
          "type": "address"
        },
        {
          "indexed": false,
          "internalType": "address",
          "name": "token",
          "type": "address"
        },
        {
          "indexed": false,
          "internalType": "uint256",
          "name": "amount",
          "type": "uint256"
        }
      ],
      "name": "Deposit",
      "type": "event"
    },
    {
      "anonymous": false,
      "inputs": [
        {
          "indexed": false,
          "internalType": "bool",
          "name": "isBuy",
          "type": "bool"
        },
        {
          "indexed": false,
          "internalType": "uint256",
          "name": "orderId",
          "type": "uint256"
        },
        {
          "indexed": false,
          "internalType": "address",
          "name": "trader",
          "type": "address"
        },
        {
          "indexed": false,
          "internalType": "uint256",
          "name": "price",
          "type": "uint256"
        },
        {
          "indexed": false,
          "internalType": "uint256",
          "name": "volume",
          "type": "uint256"
        }
      ],
      "name": "NewOrder",
      "type": "event"
    },
    {
      "anonymous": false,
      "inputs": [
        {
          "indexed": false,
          "internalType": "bool",
          "name": "isBuy",
          "type": "bool"
        },
        {
          "indexed": true,
          "internalType": "uint256",
          "name": "orderId",
          "type": "uint256"
        },
        {
          "indexed": true,
          "internalType": "address",
          "name": "trader",
          "type": "address"
        }
      ],
      "name": "OrderCanceled",
      "type": "event"
    },
    {
      "anonymous": false,
      "inputs": [
        {
          "indexed": false,
          "internalType": "uint256",
          "name": "tradedVolume",
          "type": "uint256"
        },
        {
          "indexed": false,
          "internalType": "uint256",
          "name": "price",
          "type": "uint256"
        },
        {
          "indexed": true,
          "internalType": "address",
          "name": "buyer",
          "type": "address"
        },
        {
          "indexed": false,
          "internalType": "address",
          "name": "seller",
          "type": "address"
        }
      ],
      "name": "Trade",
      "type": "event"
    },
    {
      "anonymous": false,
      "inputs": [
        {
          "indexed": true,
          "internalType": "address",
          "name": "trader",
          "type": "address"
        },
        {
          "indexed": false,
          "internalType": "address",
          "name": "token",
          "type": "address"
        },
        {
          "indexed": false,
          "internalType": "uint256",
          "name": "amount",
          "type": "uint256"
        }
      ],
      "name": "Withdraw",
      "type": "event"
    },
    {
      "inputs": [
        {
          "internalType": "address",
          "name": "",
          "type": "address"
        },
        {
          "internalType": "address",
          "name": "",
          "type": "address"
        }
      ],
      "name": "balanceOf",
      "outputs": [
        {
          "internalType": "uint256",
          "name": "",
          "type": "uint256"
        }
      ],
      "stateMutability": "view",
      "type": "function"
    },
    {
      "inputs": [
        {
          "internalType": "uint256",
          "name": "",
          "type": "uint256"
        }
      ],
      "name": "buyOrders",
      "outputs": [
        {
          "internalType": "uint256",
          "name": "id",
          "type": "uint256"
        },
        {
          "internalType": "uint256",
          "name": "price",
          "type": "uint256"
        },
        {
          "internalType": "uint256",
          "name": "volume",
          "type": "uint256"
        },
        {
          "internalType": "address",
          "name": "trader",
          "type": "address"
        },
        {
          "internalType": "uint256",
          "name": "next",
          "type": "uint256"
        }
      ],
      "stateMutability": "view",
      "type": "function"
    },
    {
      "inputs": [
        {
          "internalType": "uint256",
          "name": "orderId",
          "type": "uint256"
        },
        {
          "internalType": "bool",
          "name": "isBuyOrder",
          "type": "bool"
        }
      ],
      "name": "cancelOrder",
      "outputs": [],
      "stateMutability": "nonpayable",
      "type": "function"
    },
    {
      "inputs": [],
      "name": "currentOrderId",
      "outputs": [
        {
          "internalType": "uint256",
          "name": "",
          "type": "uint256"
        }
      ],
      "stateMutability": "view",
      "type": "function"
    },
    {
      "inputs": [
        {
          "internalType": "address",
          "name": "token",
          "type": "address"
        },
        {
          "internalType": "uint256",
          "name": "amount",
          "type": "uint256"
        }
      ],
      "name": "deposit",
      "outputs": [],
      "stateMutability": "nonpayable",
      "type": "function"
    },
    {
      "inputs": [],
      "name": "firstBuyOrderId",
      "outputs": [
        {
          "internalType": "uint256",
          "name": "",
          "type": "uint256"
        }
      ],
      "stateMutability": "view",
      "type": "function"
    },
    {
      "inputs": [],
      "name": "firstSellOrderId",
      "outputs": [
        {
          "internalType": "uint256",
          "name": "",
          "type": "uint256"
        }
      ],
      "stateMutability": "view",
      "type": "function"
    },
    {
      "inputs": [
        {
          "internalType": "uint256",
          "name": "price",
          "type": "uint256"
        },
        {
          "internalType": "uint256",
          "name": "volume",
          "type": "uint256"
        }
      ],
      "name": "placeBuyOrder",
      "outputs": [
        {
          "internalType": "uint256",
          "name": "",
          "type": "uint256"
        }
      ],
      "stateMutability": "nonpayable",
      "type": "function"
    },
    {
      "inputs": [
        {
          "internalType": "uint256",
          "name": "price",
          "type": "uint256"
        },
        {
          "internalType": "uint256",
          "name": "volume",
          "type": "uint256"
        }
      ],
      "name": "placeSellOrder",
      "outputs": [
        {
          "internalType": "uint256",
          "name": "",
          "type": "uint256"
        }
      ],
      "stateMutability": "nonpayable",
      "type": "function"
    },
    {
      "inputs": [
        {
          "internalType": "uint256",
          "name": "",
          "type": "uint256"
        }
      ],
      "name": "sellOrders",
      "outputs": [
        {
          "internalType": "uint256",
          "name": "id",
          "type": "uint256"
        },
        {
          "internalType": "uint256",
          "name": "price",
          "type": "uint256"
        },
        {
          "internalType": "uint256",
          "name": "volume",
          "type": "uint256"
        },
        {
          "internalType": "address",
          "name": "trader",
          "type": "address"
        },
        {
          "internalType": "uint256",
          "name": "next",
          "type": "uint256"
        }
      ],
      "stateMutability": "view",
      "type": "function"
    },
    {
      "inputs": [],
      "name": "tokenA",
      "outputs": [
        {
          "internalType": "address",
          "name": "",
          "type": "address"
        }
      ],
      "stateMutability": "view",
      "type": "function"
    },
    {
      "inputs": [],
      "name": "tokenB",
      "outputs": [
        {
          "internalType": "address",
          "name": "",
          "type": "address"
        }
      ],
      "stateMutability": "view",
      "type": "function"
    },
    {
      "inputs": [
        {
          "internalType": "address",
          "name": "token",
          "type": "address"
        },
        {
          "internalType": "uint256",
          "name": "amount",
          "type": "uint256"
        }
      ],
      "name": "withdraw",
      "outputs": [],
      "stateMutability": "nonpayable",
      "type": "function"
    }
  ],
  "bytecode": "0x60806040523480156200001157600080fd5b50604051620019be380380620019be833981016040819052620000349162000087565b60016008819055600080546001600160a01b03199081166001600160a01b039586161790915581541691909216179055620000bf565b80516001600160a01b03811681146200008257600080fd5b919050565b600080604083850312156200009b57600080fd5b620000a6836200006a565b9150620000b6602084016200006a565b90509250929050565b6118ef80620000cf6000396000f3fe608060405234801561001057600080fd5b50600436106100bf5760003560e01c8063925931fc1161007c578063925931fc146101f7578063a4406bcd14610200578063bb110bf914610213578063ee36d4ab1461021c578063f3fef3a31461022f578063f7888aec14610242578063f88d20471461026d57600080fd5b80630fc63d10146100c457806335cea288146100f457806347e7ef241461016e5780634a8393f3146101835780635f64b55b146101cd57806372fb0777146101e0575b600080fd5b6000546100d7906001600160a01b031681565b6040516001600160a01b0390911681526020015b60405180910390f35b61013d610102366004611497565b60026020819052600091825260409091208054600182015492820154600383015460049093015491939290916001600160a01b039091169085565b604080519586526020860194909452928401919091526001600160a01b03166060830152608082015260a0016100eb565b61018161017c3660046114cc565b610280565b005b61013d610191366004611497565b6003602081905260009182526040909120805460018201546002830154938301546004909301549193909290916001600160a01b039091169085565b6001546100d7906001600160a01b031681565b6101e960065481565b6040519081526020016100eb565b6101e960075481565b6101e961020e3660046114f6565b61030f565b6101e960055481565b6101e961022a3660046114f6565b6103d2565b61018161023d3660046114cc565b610514565b6101e9610250366004611518565b600460209081526000928352604080842090915290825290205481565b61018161027b36600461155c565b6105cf565b61028861074b565b6000546001600160a01b03838116911614806102b157506001546001600160a01b038381169116145b6102d65760405162461bcd60e51b81526004016102cd9061158c565b60405180910390fd5b600081116102f65760405162461bcd60e51b81526004016102cd906115b3565b610301338383610775565b61030b6001600855565b5050565b600061031961074b565b600083116103395760405162461bcd60e51b81526004016102cd906115db565b600082116103595760405162461bcd60e51b81526004016102cd90611602565b33600090815260046020908152604080832083546001600160a01b0316845290915290205482111561039d5760405162461bcd60e51b81526004016102cd9061162a565b60006103aa338585610875565b905080156103bd576103bd338583610af9565b50506007546103cc6001600855565b92915050565b60006103dc61074b565b600083116103fc5760405162461bcd60e51b81526004016102cd906115db565b6000821161041c5760405162461bcd60e51b81526004016102cd90611602565b60008054906101000a90046001600160a01b03166001600160a01b031663313ce5676040518163ffffffff1660e01b8152600401602060405180830381865afa15801561046d573d6000803e3d6000fd5b505050506040513d601f19601f820116820180604052508101906104919190611656565b61049c90600a61177a565b6104a69083611789565b6104b090846117ab565b3360009081526004602090815260408083206001546001600160a01b0316845290915290205410156104f45760405162461bcd60e51b81526004016102cd9061162a565b6000610501338585610c68565b905080156103bd576103bd338583610f12565b61051c61074b565b6000546001600160a01b038381169116148061054557506001546001600160a01b038381169116145b6105615760405162461bcd60e51b81526004016102cd9061158c565b600081116105815760405162461bcd60e51b81526004016102cd906115b3565b3360009081526004602090815260408083206001600160a01b03861684529091529020548111156105c45760405162461bcd60e51b81526004016102cd9061162a565b61030133838361110f565b6105d761074b565b6000816105f1576000838152600360205260409020610600565b60008381526002602052604090205b60038101549091506001600160a01b03166106535760405162461bcd60e51b81526020600482015260136024820152724f7264657220646f206e6f742065786973747360681b60448201526064016102cd565b60038101546001600160a01b031633146106c45760405162461bcd60e51b815260206004820152602c60248201527f4f6e6c7920746865206f726465722063726561746f722063616e2063616e636560448201526b36103a3434b99037b93232b960a11b60648201526084016102cd565b60008160020154116107245760405162461bcd60e51b8152602060048201526024808201527f4f7264657220616c72656164792063616e63656c6c6564206f722066756c66696044820152631b1b195960e21b60648201526084016102cd565b8161073757610732816111f8565b610740565b610740816112fe565b5061030b6001600855565b60026008540361076e57604051633ee5aeb560e01b815260040160405180910390fd5b6002600855565b6040516323b872dd60e01b81526001600160a01b038481166004830152306024830152604482018390528316906323b872dd906064016020604051808303816000875af11580156107ca573d6000803e3d6000fd5b505050506040513d601f19601f820116820180604052508101906107ee91906117c2565b506001600160a01b038084166000908152600460209081526040808320938616835292905290812080548392906108269084906117df565b92505081905550826001600160a01b03167f5548c837ab068cf56a2c2479df0882a4922fd203edb7517321831d95078c5f6283836040516108689291906117f2565b60405180910390a2505050565b600554600080546040805163313ce56760e01b8152905192939284926001600160a01b03169163313ce5679160048083019260209291908290030181865afa1580156108c5573d6000803e3d6000fd5b505050506040513d601f19601f820116820180604052508101906108e99190611656565b60ff1690505b81158015906108fe5750600084115b15610aee57600082815260026020526040902060018101548611610ae25760008582600201541061092f5785610935565b81600201545b90508661094384600a61180b565b61094d9083611789565b61095790826117ab565b6001600160a01b03808b166000908152600460209081526040808320600154909416835292905290812080549091906109919084906117df565b90915550506001600160a01b03808a1660009081526004602090815260408083208354909416835292905290812080548492906109cf908490611817565b909155505060038301546001600160a01b039081166000908152600460209081526040808320835490941683529290529081208054849290610a129084906117df565b90915550610a2290508288611817565b965081836002016000828254610a389190611817565b9091555050600183015460038401546040516001600160a01b038c8116937f83cc6330e30db670fe04b07b602bd9cba4da39e5037267131b5d60cecba29f6193610a879388939091169061182a565b60405180910390a28260020154600003610adb5760048084015460009687526002602081905260408820888155600181018990559081018890556003810180546001600160a01b0319169055909101959095555b5050610ae8565b50610aee565b506108ef565b506005555092915050565b60078054906000610b0983611849565b909155505060065460005b8115801590610b33575060008281526003602052604090206001015484115b15610b51575060008181526003602052604090206004015490610b14565b6040805160a08101825260075480825260208083018881528385018881526001600160a01b038b811660608701818152608088018b8152600097885260038088528a892099518a55955160018a0155935160028901555193870180546001600160a01b03191694831694909417909355905160049586015590835292815283822082549093168252919091529081208054859290610bf0908490611817565b90915550506007546040517f286a2d7a29403e4e0f090c310eeb9b565090f3731608308fe263443ca910e9d591610c309160009190899089908990611862565b60405180910390a180600003610c4b57600754600655610c61565b6007546000828152600360205260409020600401555b5050505050565b600654600080546040805163313ce56760e01b8152905192939284926001600160a01b03169163313ce5679160048083019260209291908290030181865afa158015610cb8573d6000803e3d6000fd5b505050506040513d601f19601f82011682018060405250810190610cdc9190611656565b60ff1690505b8115801590610cf15750600084115b15610f0757600082815260036020526040902060018101548610610efb57600085826002015410610d225785610d28565b81600201545b6001830154909150610d3b84600a61180b565b610d459083611789565b610d4f90826117ab565b6001600160a01b03808b16600090815260046020908152604080832060015490941683529290529081208054909190610d89908490611817565b90915550506001600160a01b03808a166000908152600460209081526040808320835490941683529290529081208054849290610dc79084906117df565b90915550610dd8905084600a61180b565b610de29083611789565b610dec90826117ab565b60038401546001600160a01b03908116600090815260046020908152604080832060015490941683529290529081208054909190610e2b9084906117df565b90915550610e3b90508288611817565b965081836002016000828254610e519190611817565b9091555050600183015460038401546040516001600160a01b038c8116937f83cc6330e30db670fe04b07b602bd9cba4da39e5037267131b5d60cecba29f6193610ea09388939091169061182a565b60405180910390a28260020154600003610ef45760048084015460009687526003602081905260408820888155600181018990556002810189905590810180546001600160a01b0319169055909101959095555b5050610f01565b50610f07565b50610ce2565b506006555092915050565b60078054906000610f2283611849565b909155505060055460005b8115801590610f4c575060008281526002602052604090206001015484105b15610f6a575060008181526002602052604090206004015490610f2d565b6040805160a08101825260075480825260208083018881528385018881526001600160a01b038b811660608701908152608087018a815260009687526002808752898820985189559451600189015592519387019390935591516003860180546001600160a01b031916918416919091179055516004948501559154845163313ce56760e01b8152945192169363313ce5679381810193918290030181865afa15801561101b573d6000803e3d6000fd5b505050506040513d601f19601f8201168201806040525081019061103f9190611656565b61104a90600a61177a565b6110549084611789565b61105e90856117ab565b6001600160a01b03808716600090815260046020908152604080832060015490941683529290529081208054909190611098908490611817565b90915550506007546040517f286a2d7a29403e4e0f090c310eeb9b565090f3731608308fe263443ca910e9d5916110d89160019190899089908990611862565b60405180910390a1806000036110f357600754600555610c61565b6007546000828152600260205260409020600401555050505050565b6001600160a01b03808416600090815260046020908152604080832093861683529290529081208054839290611146908490611817565b909155505060405163a9059cbb60e01b81526001600160a01b0383169063a9059cbb9061117990869085906004016117f2565b6020604051808303816000875af1158015611198573d6000803e3d6000fd5b505050506040513d601f19601f820116820180604052508101906111bc91906117c2565b50826001600160a01b03167f9b1bfa7fa9ee420a16e124f794c35ac9f90472acc99140eb2f6447c714cad8eb83836040516108689291906117f2565b60065481540361120f576004810154600655611272565b60065460009081526003602052604090205b81546004820154146112685780600401546000036112515760405162461bcd60e51b81526004016102cd90611890565b600401546000908152600360205260409020611221565b6004808301549101555b600281015460038201546001600160a01b0390811660009081526004602090815260408083208354909416835292905290812080549091906112b59084906117df565b9091555050600060028201819055815460405191825233917fcfa919375acf04933787aa7f7b25d71adf2e92839529dad777b47ff2cd0827a4906020015b60405180910390a350565b600554815403611315576004810154600555611378565b60055460009081526002602052604090205b815460048201541461136e5780600401546000036113575760405162461bcd60e51b81526004016102cd90611890565b600401546000908152600260205260409020611327565b6004808301549101555b60008054906101000a90046001600160a01b03166001600160a01b031663313ce5676040518163ffffffff1660e01b8152600401602060405180830381865afa1580156113c9573d6000803e3d6000fd5b505050506040513d601f19601f820116820180604052508101906113ed9190611656565b6113f890600a61177a565b81600201546114079190611789565b816001015461141691906117ab565b60038201546001600160a01b039081166000908152600460209081526040808320600154909416835292905290812080549091906114559084906117df565b9091555050600060028201558054604051600181523391907fcfa919375acf04933787aa7f7b25d71adf2e92839529dad777b47ff2cd0827a4906020016112f3565b6000602082840312156114a957600080fd5b5035919050565b80356001600160a01b03811681146114c757600080fd5b919050565b600080604083850312156114df57600080fd5b6114e8836114b0565b946020939093013593505050565b6000806040838503121561150957600080fd5b50508035926020909101359150565b6000806040838503121561152b57600080fd5b611534836114b0565b9150611542602084016114b0565b90509250929050565b801515811461155957600080fd5b50565b6000806040838503121561156f57600080fd5b8235915060208301356115818161154b565b809150509250929050565b6020808252600d908201526c24b73b30b634b2103a37b5b2b760991b604082015260600190565b6020808252600e908201526d125b9d985b1a5908185b5bdd5b9d60921b604082015260600190565b6020808252600d908201526c496e76616c696420507269636560981b604082015260600190565b6020808252600e908201526d496e76616c696420566f6c756d6560901b604082015260600190565b6020808252601290820152714e6f7420656e6f7567682062616c616e636560701b604082015260600190565b60006020828403121561166857600080fd5b815160ff8116811461167957600080fd5b9392505050565b634e487b7160e01b600052601160045260246000fd5b600181815b808511156116d15781600019048211156116b7576116b7611680565b808516156116c457918102915b93841c939080029061169b565b509250929050565b6000826116e8575060016103cc565b816116f5575060006103cc565b816001811461170b576002811461171557611731565b60019150506103cc565b60ff84111561172657611726611680565b50506001821b6103cc565b5060208310610133831016604e8410600b8410161715611754575081810a6103cc565b61175e8383611696565b806000190482111561177257611772611680565b029392505050565b600061167960ff8416836116d9565b6000826117a657634e487b7160e01b600052601260045260246000fd5b500490565b80820281158282048414176103cc576103cc611680565b6000602082840312156117d457600080fd5b81516116798161154b565b808201808211156103cc576103cc611680565b6001600160a01b03929092168252602082015260400190565b600061167983836116d9565b818103818111156103cc576103cc611680565b92835260208301919091526001600160a01b0316604082015260600190565b60006001820161185b5761185b611680565b5060010190565b941515855260208501939093526001600160a01b039190911660408401526060830152608082015260a00190565b6020808252600f908201526e13dc99195c881b9bdd08199bdd5b99608a1b60408201526060019056fea26469706673582212206cfe18aa650dd2243680047389f8b477fc4f38ee5b410429d5fd989ee87e88b264736f6c63430008180033",
  "linkReferences": {},
  "deployedLinkReferences": {}
}