{
  "_format": "hh-sol-artifact-1",
  "contractName": "ExchangeMonthlyLimitsTest",
  "sourceName": "contracts/erc3643/compliance/legacy/test/ExchangeMonthlyLimitsTest.sol",
  "abi": [
    {
      "inputs": [
        {
          "internalType": "address",
          "name": "owner",
          "type": "address"
        }
      ],
      "name": "OwnableInvalidOwner",
      "type": "error"
    },
    {
      "inputs": [
        {
          "internalType": "address",
          "name": "account",
          "type": "address"
        }
      ],
      "name": "OwnableUnauthorizedAccount",
      "type": "error"
    },
    {
      "anonymous": false,
      "inputs": [
        {
          "indexed": true,
          "internalType": "address",
          "name": "_agent",
          "type": "address"
        }
      ],
      "name": "AgentAdded",
      "type": "event"
    },
    {
      "anonymous": false,
      "inputs": [
        {
          "indexed": true,
          "internalType": "address",
          "name": "_agent",
          "type": "address"
        }
      ],
      "name": "AgentRemoved",
      "type": "event"
    },
    {
      "anonymous": false,
      "inputs": [
        {
          "indexed": false,
          "internalType": "address",
          "name": "_newExchangeID",
          "type": "address"
        }
      ],
      "name": "ExchangeIDAdded",
      "type": "event"
    },
    {
      "anonymous": false,
      "inputs": [
        {
          "indexed": false,
          "internalType": "address",
          "name": "_exchangeID",
          "type": "address"
        }
      ],
      "name": "ExchangeIDRemoved",
      "type": "event"
    },
    {
      "anonymous": false,
      "inputs": [
        {
          "indexed": false,
          "internalType": "address",
          "name": "_exchangeID",
          "type": "address"
        },
        {
          "indexed": false,
          "internalType": "uint256",
          "name": "_newExchangeMonthlyLimit",
          "type": "uint256"
        }
      ],
      "name": "ExchangeMonthlyLimitUpdated",
      "type": "event"
    },
    {
      "anonymous": false,
      "inputs": [
        {
          "indexed": true,
          "internalType": "address",
          "name": "previousOwner",
          "type": "address"
        },
        {
          "indexed": true,
          "internalType": "address",
          "name": "newOwner",
          "type": "address"
        }
      ],
      "name": "OwnershipTransferred",
      "type": "event"
    },
    {
      "anonymous": false,
      "inputs": [
        {
          "indexed": false,
          "internalType": "address",
          "name": "_agentAddress",
          "type": "address"
        }
      ],
      "name": "TokenAgentAdded",
      "type": "event"
    },
    {
      "anonymous": false,
      "inputs": [
        {
          "indexed": false,
          "internalType": "address",
          "name": "_agentAddress",
          "type": "address"
        }
      ],
      "name": "TokenAgentRemoved",
      "type": "event"
    },
    {
      "anonymous": false,
      "inputs": [
        {
          "indexed": false,
          "internalType": "address",
          "name": "_token",
          "type": "address"
        }
      ],
      "name": "TokenBound",
      "type": "event"
    },
    {
      "anonymous": false,
      "inputs": [
        {
          "indexed": false,
          "internalType": "address",
          "name": "_token",
          "type": "address"
        }
      ],
      "name": "TokenUnbound",
      "type": "event"
    },
    {
      "inputs": [
        {
          "internalType": "address",
          "name": "_agent",
          "type": "address"
        }
      ],
      "name": "addAgent",
      "outputs": [],
      "stateMutability": "nonpayable",
      "type": "function"
    },
    {
      "inputs": [
        {
          "internalType": "address",
          "name": "_exchangeID",
          "type": "address"
        }
      ],
      "name": "addExchangeID",
      "outputs": [],
      "stateMutability": "nonpayable",
      "type": "function"
    },
    {
      "inputs": [
        {
          "internalType": "address",
          "name": "_agentAddress",
          "type": "address"
        }
      ],
      "name": "addTokenAgent",
      "outputs": [],
      "stateMutability": "nonpayable",
      "type": "function"
    },
    {
      "inputs": [
        {
          "internalType": "address",
          "name": "_token",
          "type": "address"
        }
      ],
      "name": "bindToken",
      "outputs": [],
      "stateMutability": "nonpayable",
      "type": "function"
    },
    {
      "inputs": [
        {
          "internalType": "address",
          "name": "_from",
          "type": "address"
        },
        {
          "internalType": "address",
          "name": "_to",
          "type": "address"
        },
        {
          "internalType": "uint256",
          "name": "_value",
          "type": "uint256"
        }
      ],
      "name": "canTransfer",
      "outputs": [
        {
          "internalType": "bool",
          "name": "",
          "type": "bool"
        }
      ],
      "stateMutability": "view",
      "type": "function"
    },
    {
      "inputs": [
        {
          "internalType": "address",
          "name": "_from",
          "type": "address"
        },
        {
          "internalType": "address",
          "name": "_to",
          "type": "address"
        },
        {
          "internalType": "uint256",
          "name": "_value",
          "type": "uint256"
        }
      ],
      "name": "complianceCheckOnExchangeMonthlyLimits",
      "outputs": [
        {
          "internalType": "bool",
          "name": "",
          "type": "bool"
        }
      ],
      "stateMutability": "view",
      "type": "function"
    },
    {
      "inputs": [
        {
          "internalType": "address",
          "name": "_to",
          "type": "address"
        },
        {
          "internalType": "uint256",
          "name": "_value",
          "type": "uint256"
        }
      ],
      "name": "created",
      "outputs": [],
      "stateMutability": "nonpayable",
      "type": "function"
    },
    {
      "inputs": [
        {
          "internalType": "address",
          "name": "_from",
          "type": "address"
        },
        {
          "internalType": "uint256",
          "name": "_value",
          "type": "uint256"
        }
      ],
      "name": "destroyed",
      "outputs": [],
      "stateMutability": "nonpayable",
      "type": "function"
    },
    {
      "inputs": [
        {
          "internalType": "address",
          "name": "_exchangeID",
          "type": "address"
        }
      ],
      "name": "getExchangeMonthlyLimit",
      "outputs": [
        {
          "internalType": "uint256",
          "name": "",
          "type": "uint256"
        }
      ],
      "stateMutability": "view",
      "type": "function"
    },
    {
      "inputs": [
        {
          "internalType": "address",
          "name": "_exchangeID",
          "type": "address"
        },
        {
          "internalType": "address",
          "name": "_investorID",
          "type": "address"
        }
      ],
      "name": "getMonthlyCounter",
      "outputs": [
        {
          "internalType": "uint256",
          "name": "",
          "type": "uint256"
        }
      ],
      "stateMutability": "view",
      "type": "function"
    },
    {
      "inputs": [
        {
          "internalType": "address",
          "name": "_exchangeID",
          "type": "address"
        },
        {
          "internalType": "address",
          "name": "_investorID",
          "type": "address"
        }
      ],
      "name": "getMonthlyTimer",
      "outputs": [
        {
          "internalType": "uint256",
          "name": "",
          "type": "uint256"
        }
      ],
      "stateMutability": "view",
      "type": "function"
    },
    {
      "inputs": [
        {
          "internalType": "address",
          "name": "_agent",
          "type": "address"
        }
      ],
      "name": "isAgent",
      "outputs": [
        {
          "internalType": "bool",
          "name": "",
          "type": "bool"
        }
      ],
      "stateMutability": "view",
      "type": "function"
    },
    {
      "inputs": [
        {
          "internalType": "address",
          "name": "_exchangeID",
          "type": "address"
        }
      ],
      "name": "isExchangeID",
      "outputs": [
        {
          "internalType": "bool",
          "name": "",
          "type": "bool"
        }
      ],
      "stateMutability": "view",
      "type": "function"
    },
    {
      "inputs": [
        {
          "internalType": "address",
          "name": "_agentAddress",
          "type": "address"
        }
      ],
      "name": "isTokenAgent",
      "outputs": [
        {
          "internalType": "bool",
          "name": "",
          "type": "bool"
        }
      ],
      "stateMutability": "view",
      "type": "function"
    },
    {
      "inputs": [
        {
          "internalType": "address",
          "name": "_token",
          "type": "address"
        }
      ],
      "name": "isTokenBound",
      "outputs": [
        {
          "internalType": "bool",
          "name": "",
          "type": "bool"
        }
      ],
      "stateMutability": "view",
      "type": "function"
    },
    {
      "inputs": [],
      "name": "owner",
      "outputs": [
        {
          "internalType": "address",
          "name": "",
          "type": "address"
        }
      ],
      "stateMutability": "view",
      "type": "function"
    },
    {
      "inputs": [
        {
          "internalType": "address",
          "name": "_agent",
          "type": "address"
        }
      ],
      "name": "removeAgent",
      "outputs": [],
      "stateMutability": "nonpayable",
      "type": "function"
    },
    {
      "inputs": [
        {
          "internalType": "address",
          "name": "_exchangeID",
          "type": "address"
        }
      ],
      "name": "removeExchangeID",
      "outputs": [],
      "stateMutability": "nonpayable",
      "type": "function"
    },
    {
      "inputs": [
        {
          "internalType": "address",
          "name": "_agentAddress",
          "type": "address"
        }
      ],
      "name": "removeTokenAgent",
      "outputs": [],
      "stateMutability": "nonpayable",
      "type": "function"
    },
    {
      "inputs": [],
      "name": "renounceOwnership",
      "outputs": [],
      "stateMutability": "nonpayable",
      "type": "function"
    },
    {
      "inputs": [
        {
          "internalType": "address",
          "name": "_exchangeID",
          "type": "address"
        },
        {
          "internalType": "uint256",
          "name": "_newExchangeMonthlyLimit",
          "type": "uint256"
        }
      ],
      "name": "setExchangeMonthlyLimit",
      "outputs": [],
      "stateMutability": "nonpayable",
      "type": "function"
    },
    {
      "inputs": [],
      "name": "tokenBound",
      "outputs": [
        {
          "internalType": "contract IToken",
          "name": "",
          "type": "address"
        }
      ],
      "stateMutability": "view",
      "type": "function"
    },
    {
      "inputs": [
        {
          "internalType": "address",
          "name": "newOwner",
          "type": "address"
        }
      ],
      "name": "transferOwnership",
      "outputs": [],
      "stateMutability": "nonpayable",
      "type": "function"
    },
    {
      "inputs": [
        {
          "internalType": "address",
          "name": "_from",
          "type": "address"
        },
        {
          "internalType": "address",
          "name": "_to",
          "type": "address"
        },
        {
          "internalType": "uint256",
          "name": "_value",
          "type": "uint256"
        }
      ],
      "name": "transferred",
      "outputs": [],
      "stateMutability": "nonpayable",
      "type": "function"
    },
    {
      "inputs": [
        {
          "internalType": "address",
          "name": "_token",
          "type": "address"
        }
      ],
      "name": "unbindToken",
      "outputs": [],
      "stateMutability": "nonpayable",
      "type": "function"
    }
  ],
  "bytecode": "0x608060405234801561001057600080fd5b50338061003757604051631e4fbdf760e01b81526000600482015260240160405180910390fd5b61004081610046565b50610096565b600080546001600160a01b038381166001600160a01b0319831681178455604051919092169283917f8be0079c531659141344cd1fd0a4f28419497f9722a3daafe3b4186f6b6457e09190a35050565b6112a4806100a56000396000f3fe608060405234801561001057600080fd5b50600436106101635760003560e01c806393e62f07116100ce578063ca63968d11610087578063ca63968d146102e2578063cdde2932146102f5578063ce32926d14610308578063d22579fb1461031b578063e46638e61461032e578063f2fde38b14610341578063ff3e69541461035457600080fd5b806393e62f071461024c57806395c5dbfc1461025f57806397a6278e14610296578063993e8b95146102a9578063a9336def146102bc578063bba58c29146102cf57600080fd5b8063715018a611610120578063715018a6146101f157806374436d97146101f957806384e798421461020c5780638baf29b41461021f5780638d2ea772146101de5780638da5cb5b1461023257600080fd5b80631ffbb064146101685780632bb5e72114610190578063346531fa146101a55780633ff5aa02146101b857806340db3b50146101cb5780635f8dead3146101de575b600080fd5b61017b61017636600461105f565b610367565b60405190151581526020015b60405180910390f35b6101a361019e36600461105f565b61037a565b005b61017b6101b336600461105f565b610447565b6101a36101c636600461105f565b6104f3565b6101a36101d936600461105f565b61059e565b6101a36101ec36600461107c565b610681565b6101a36106a9565b6101a361020736600461105f565b6106bd565b6101a361021a36600461105f565b61076a565b6101a361022d3660046110a8565b6107da565b6000546001600160a01b03165b60405161018791906110e9565b60035461023f906001600160a01b031681565b61028861026d36600461105f565b6001600160a01b031660009081526004602052604090205490565b604051908152602001610187565b6101a36102a436600461105f565b61080e565b61017b6102b736600461105f565b61087e565b6101a36102ca36600461107c565b61089e565b61017b6102dd3660046110a8565b6108fe565b6102886102f03660046110fd565b6109d5565b6101a361030336600461105f565b610a00565b6102886103163660046110fd565b610ac0565b61017b61032936600461105f565b610aee565b61017b61033c3660046110a8565b610b0c565b6101a361034f36600461105f565b610b2f565b6101a361036236600461105f565b610b6d565b6000610374600183610c31565b92915050565b610382610cb4565b61038b81610aee565b156103e95760405162461bcd60e51b8152602060048201526024808201527f4f4e434841494e494420616c7265616479207461676765642061732065786368604482015263616e676560e01b60648201526084015b60405180910390fd5b6001600160a01b03811660009081526006602052604090819020805460ff19166001179055517fca661533a567195376b79f20fcbcca20e62ceea1d43efacba5f8028329da8e6b9061043c9083906110e9565b60405180910390a150565b6001600160a01b03811660009081526002602052604081205460ff161580156104de57506003546040516307feec1960e21b81526001600160a01b0390911690631ffbb0649061049b9085906004016110e9565b602060405180830381865afa1580156104b8573d6000803e3d6000fd5b505050506040513d601f19601f820116820180604052508101906104dc9190611136565b155b156104eb57506000919050565b506001919050565b336105066000546001600160a01b031690565b6001600160a01b0316148061053757506003546001600160a01b03161580156105375750336001600160a01b038216145b6105535760405162461bcd60e51b81526004016103e090611158565b600380546001600160a01b0319166001600160a01b0383161790556040517f2de35142b19ed5a07796cf30791959c592018f70b1d2d7c460eef8ffe713692b9061043c9083906110e9565b336105b16000546001600160a01b031690565b6001600160a01b031614806105ce5750336001600160a01b038216145b6105ea5760405162461bcd60e51b81526004016103e090611158565b6003546001600160a01b038281169116146106415760405162461bcd60e51b8152602060048201526017602482015276151a1a5cc81d1bdad95b881a5cc81b9bdd08189bdd5b99604a1b60448201526064016103e0565b600380546001600160a01b03191690556040517f28a4ca7134a3b3f9aff286e79ad3daadb4a06d1b43d037a3a98bdc074edd9b7a9061043c9083906110e9565b610689610ce1565b6106a55760405162461bcd60e51b81526004016103e09061118f565b5050565b6106b1610cb4565b6106bb6000610cf1565b565b6106c5610cb4565b6106ce81610aee565b61071a5760405162461bcd60e51b815260206004820181905260248201527f4f4e434841494e4944206e6f74207461676765642061732065786368616e676560448201526064016103e0565b6001600160a01b03811660009081526006602052604090819020805460ff19169055517fc59743ca46d36b7cf42c36211a2fbef12e10aec1bfc9d39eccf91b6976a260f59061043c9083906110e9565b610772610cb4565b6001600160a01b0381166107985760405162461bcd60e51b81526004016103e0906111f9565b6107a3600182610d41565b6040516001600160a01b038216907ff68e73cec97f2d70aa641fb26e87a4383686e2efacb648f2165aeb02ac562ec590600090a250565b6107e2610ce1565b6107fe5760405162461bcd60e51b81526004016103e09061118f565b610809838383610dbd565b505050565b610816610cb4565b6001600160a01b03811661083c5760405162461bcd60e51b81526004016103e0906111f9565b610847600182610e09565b6040516001600160a01b038216907fed9c8ad8d5a0a66898ea49d2956929c93ae2e8bd50281b2ed897c5d1a6737e0b90600090a250565b6003546000906001600160a01b038381169116146104eb57506000919050565b6108a6610cb4565b6001600160a01b038216600081815260046020908152604091829020849055815192835282018390527f046e8d44ac13395246a46d2f1065db8724b7c6aa2b9dd481327c2687c3ad9efd910160405180910390a15050565b60008061090a85610e8b565b9050600061091785610e8b565b905061092286610447565b15801561093757506001600160a01b03861615155b156109c75761094581610aee565b156109c7576001600160a01b038116600090815260046020526040902054841115610975576000925050506109ce565b61097f8183610f65565b1580156109b757506001600160a01b038116600090815260046020526040902054846109ab83856109d5565b6109b59190611230565b115b156109c7576000925050506109ce565b6001925050505b9392505050565b6001600160a01b03918216600090815260056020908152604080832093909416825291909152205490565b610a08610cb4565b6001600160a01b03811660009081526002602052604090205460ff16610a705760405162461bcd60e51b815260206004820181905260248201527f54686973204167656e74206973206e6f7420726567697374657265642079657460448201526064016103e0565b6001600160a01b03811660009081526002602052604090819020805460ff19169055517f6a659bb87bb23efbdc295f8eed8ae8c4379bfb77660ced2ef0f3d7d26b05c6a69061043c9083906110e9565b6001600160a01b03918216600090815260056020908152604080832093909416825291909152206001015490565b6001600160a01b031660009081526006602052604090205460ff1690565b6000610b198484846108fe565b610b25575060006109ce565b5060019392505050565b610b37610cb4565b6001600160a01b038116610b61576000604051631e4fbdf760e01b81526004016103e091906110e9565b610b6a81610cf1565b50565b610b75610cb4565b6001600160a01b03811660009081526002602052604090205460ff1615610bde5760405162461bcd60e51b815260206004820181905260248201527f54686973204167656e7420697320616c7265616479207265676973746572656460448201526064016103e0565b6001600160a01b03811660009081526002602052604090819020805460ff19166001179055517fd62c45e13ac30396aceb3ad37c89bd1ba9048032fe61679000e92eb93dbfd67d9061043c9083906110e9565b60006001600160a01b038216610c945760405162461bcd60e51b815260206004820152602260248201527f526f6c65733a206163636f756e7420697320746865207a65726f206164647265604482015261737360f01b60648201526084016103e0565b506001600160a01b03166000908152602091909152604090205460ff1690565b6000546001600160a01b031633146106bb573360405163118cdaa760e01b81526004016103e091906110e9565b6000610cec3361087e565b905090565b600080546001600160a01b038381166001600160a01b0319831681178455604051919092169283917f8be0079c531659141344cd1fd0a4f28419497f9722a3daafe3b4186f6b6457e09190a35050565b610d4b8282610c31565b15610d985760405162461bcd60e51b815260206004820152601f60248201527f526f6c65733a206163636f756e7420616c72656164792068617320726f6c650060448201526064016103e0565b6001600160a01b0316600090815260209190915260409020805460ff19166001179055565b6000610dc884610e8b565b90506000610dd584610e8b565b9050610de081610aee565b8015610df25750610df085610447565b155b15610e0257610e02828285610f7b565b5050505050565b610e138282610c31565b610e695760405162461bcd60e51b815260206004820152602160248201527f526f6c65733a206163636f756e7420646f6573206e6f74206861766520726f6c6044820152606560f81b60648201526084016103e0565b6001600160a01b0316600090815260209190915260409020805460ff19169055565b600354604080516304d3863d60e21b815290516000926001600160a01b03169163134e18f49160048083019260209291908290030181865afa158015610ed5573d6000803e3d6000fd5b505050506040513d601f19601f82011682018060405250810190610ef99190611251565b6001600160a01b031663f0eb5e54836040518263ffffffff1660e01b8152600401610f2491906110e9565b602060405180830381865afa158015610f41573d6000803e3d6000fd5b505050506040513d601f19601f820116820180604052508101906103749190611251565b600042610f728484610ac0565b11159392505050565b610f858383610ff9565b6001600160a01b03831660009081526004602052604090205481610fa985856109d5565b610fb39190611230565b11610809576001600160a01b03808416600090815260056020908152604080832093861683529290529081208054839290610fef908490611230565b9091555050505050565b6110038282610f65565b156106a5576110154262278d00611230565b6001600160a01b0392831660009081526005602090815260408083209490951682529290925291812060018101929092559055565b6001600160a01b0381168114610b6a57600080fd5b60006020828403121561107157600080fd5b81356109ce8161104a565b6000806040838503121561108f57600080fd5b823561109a8161104a565b946020939093013593505050565b6000806000606084860312156110bd57600080fd5b83356110c88161104a565b925060208401356110d88161104a565b929592945050506040919091013590565b6001600160a01b0391909116815260200190565b6000806040838503121561111057600080fd5b823561111b8161104a565b9150602083013561112b8161104a565b809150509250929050565b60006020828403121561114857600080fd5b815180151581146109ce57600080fd5b6020808252601c908201527f6f6e6c79206f776e6572206f7220746f6b656e2063616e2063616c6c00000000604082015260600190565b60208082526044908201527f6572726f72203a20746869732061646472657373206973206e6f74206120746f60408201527f6b656e20626f756e6420746f2074686520636f6d706c69616e636520636f6e746060820152631c9858dd60e21b608082015260a00190565b6020808252601f908201527f696e76616c696420617267756d656e74202d207a65726f206164647265737300604082015260600190565b8082018082111561037457634e487b7160e01b600052601160045260246000fd5b60006020828403121561126357600080fd5b81516109ce8161104a56fea2646970667358221220d00b92c4535803546c9faf8a7aeda553fcccab527ce157069bd3dd556d9469a364736f6c63430008180033",
  "linkReferences": {},
  "deployedLinkReferences": {}
}