{
  "_format": "hh-sol-artifact-1",
  "contractName": "HederaVault",
  "sourceName": "contracts/erc4626/HTSDeprecated/Vault.sol",
  "abi": [
    {
      "inputs": [
        {
          "internalType": "contract ERC20",
          "name": "_underlying",
          "type": "address"
        },
        {
          "internalType": "string",
          "name": "_name",
          "type": "string"
        },
        {
          "internalType": "string",
          "name": "_symbol",
          "type": "string"
        },
        {
          "components": [
            {
              "internalType": "address",
              "name": "receiver",
              "type": "address"
            },
            {
              "internalType": "address",
              "name": "token",
              "type": "address"
            },
            {
              "internalType": "uint256",
              "name": "feePercentage",
              "type": "uint256"
            }
          ],
          "internalType": "struct FeeConfiguration.FeeConfig",
          "name": "_feeConfig",
          "type": "tuple"
        },
        {
          "internalType": "address",
          "name": "_vaultRewardController",
          "type": "address"
        },
        {
          "internalType": "address",
          "name": "_feeConfigController",
          "type": "address"
        }
      ],
      "stateMutability": "payable",
      "type": "constructor"
    },
    {
      "inputs": [],
      "name": "AccessControlBadConfirmation",
      "type": "error"
    },
    {
      "inputs": [
        {
          "internalType": "address",
          "name": "account",
          "type": "address"
        },
        {
          "internalType": "bytes32",
          "name": "neededRole",
          "type": "bytes32"
        }
      ],
      "name": "AccessControlUnauthorizedAccount",
      "type": "error"
    },
    {
      "inputs": [
        {
          "internalType": "address",
          "name": "target",
          "type": "address"
        }
      ],
      "name": "AddressEmptyCode",
      "type": "error"
    },
    {
      "inputs": [
        {
          "internalType": "address",
          "name": "account",
          "type": "address"
        }
      ],
      "name": "AddressInsufficientBalance",
      "type": "error"
    },
    {
      "inputs": [],
      "name": "FailedInnerCall",
      "type": "error"
    },
    {
      "inputs": [],
      "name": "MaxRewardTokensAmount",
      "type": "error"
    },
    {
      "inputs": [
        {
          "internalType": "address",
          "name": "owner",
          "type": "address"
        }
      ],
      "name": "OwnableInvalidOwner",
      "type": "error"
    },
    {
      "inputs": [
        {
          "internalType": "address",
          "name": "account",
          "type": "address"
        }
      ],
      "name": "OwnableUnauthorizedAccount",
      "type": "error"
    },
    {
      "inputs": [],
      "name": "ReentrancyGuardReentrantCall",
      "type": "error"
    },
    {
      "inputs": [
        {
          "internalType": "address",
          "name": "token",
          "type": "address"
        }
      ],
      "name": "SafeERC20FailedOperation",
      "type": "error"
    },
    {
      "inputs": [
        {
          "internalType": "uint256",
          "name": "numberOfShares",
          "type": "uint256"
        }
      ],
      "name": "ZeroShares",
      "type": "error"
    },
    {
      "anonymous": false,
      "inputs": [
        {
          "indexed": true,
          "internalType": "address",
          "name": "owner",
          "type": "address"
        },
        {
          "indexed": true,
          "internalType": "address",
          "name": "spender",
          "type": "address"
        },
        {
          "indexed": false,
          "internalType": "uint256",
          "name": "amount",
          "type": "uint256"
        }
      ],
      "name": "Approval",
      "type": "event"
    },
    {
      "anonymous": false,
      "inputs": [
        {
          "indexed": true,
          "internalType": "address",
          "name": "createdToken",
          "type": "address"
        }
      ],
      "name": "CreatedToken",
      "type": "event"
    },
    {
      "anonymous": false,
      "inputs": [
        {
          "indexed": true,
          "internalType": "address",
          "name": "sender",
          "type": "address"
        },
        {
          "indexed": true,
          "internalType": "address",
          "name": "receiver",
          "type": "address"
        },
        {
          "indexed": false,
          "internalType": "uint256",
          "name": "assets",
          "type": "uint256"
        },
        {
          "indexed": false,
          "internalType": "uint256",
          "name": "shares",
          "type": "uint256"
        }
      ],
      "name": "Deposit",
      "type": "event"
    },
    {
      "anonymous": false,
      "inputs": [
        {
          "components": [
            {
              "internalType": "address",
              "name": "receiver",
              "type": "address"
            },
            {
              "internalType": "address",
              "name": "token",
              "type": "address"
            },
            {
              "internalType": "uint256",
              "name": "feePercentage",
              "type": "uint256"
            }
          ],
          "indexed": false,
          "internalType": "struct FeeConfiguration.FeeConfig",
          "name": "feeConfig",
          "type": "tuple"
        }
      ],
      "name": "FeeConfigUpdated",
      "type": "event"
    },
    {
      "anonymous": false,
      "inputs": [
        {
          "indexed": true,
          "internalType": "address",
          "name": "previousOwner",
          "type": "address"
        },
        {
          "indexed": true,
          "internalType": "address",
          "name": "newOwner",
          "type": "address"
        }
      ],
      "name": "OwnershipTransferred",
      "type": "event"
    },
    {
      "anonymous": false,
      "inputs": [
        {
          "indexed": true,
          "internalType": "address",
          "name": "rewardToken",
          "type": "address"
        },
        {
          "indexed": false,
          "internalType": "uint256",
          "name": "amount",
          "type": "uint256"
        }
      ],
      "name": "RewardAdded",
      "type": "event"
    },
    {
      "anonymous": false,
      "inputs": [
        {
          "indexed": true,
          "internalType": "bytes32",
          "name": "role",
          "type": "bytes32"
        },
        {
          "indexed": true,
          "internalType": "bytes32",
          "name": "previousAdminRole",
          "type": "bytes32"
        },
        {
          "indexed": true,
          "internalType": "bytes32",
          "name": "newAdminRole",
          "type": "bytes32"
        }
      ],
      "name": "RoleAdminChanged",
      "type": "event"
    },
    {
      "anonymous": false,
      "inputs": [
        {
          "indexed": true,
          "internalType": "bytes32",
          "name": "role",
          "type": "bytes32"
        },
        {
          "indexed": true,
          "internalType": "address",
          "name": "account",
          "type": "address"
        },
        {
          "indexed": true,
          "internalType": "address",
          "name": "sender",
          "type": "address"
        }
      ],
      "name": "RoleGranted",
      "type": "event"
    },
    {
      "anonymous": false,
      "inputs": [
        {
          "indexed": true,
          "internalType": "bytes32",
          "name": "role",
          "type": "bytes32"
        },
        {
          "indexed": true,
          "internalType": "address",
          "name": "account",
          "type": "address"
        },
        {
          "indexed": true,
          "internalType": "address",
          "name": "sender",
          "type": "address"
        }
      ],
      "name": "RoleRevoked",
      "type": "event"
    },
    {
      "anonymous": false,
      "inputs": [
        {
          "indexed": true,
          "internalType": "address",
          "name": "from",
          "type": "address"
        },
        {
          "indexed": true,
          "internalType": "address",
          "name": "to",
          "type": "address"
        },
        {
          "indexed": false,
          "internalType": "uint256",
          "name": "amount",
          "type": "uint256"
        }
      ],
      "name": "Transfer",
      "type": "event"
    },
    {
      "anonymous": false,
      "inputs": [
        {
          "indexed": true,
          "internalType": "address",
          "name": "sender",
          "type": "address"
        },
        {
          "indexed": true,
          "internalType": "address",
          "name": "receiver",
          "type": "address"
        },
        {
          "indexed": false,
          "internalType": "uint256",
          "name": "assets",
          "type": "uint256"
        },
        {
          "indexed": false,
          "internalType": "uint256",
          "name": "shares",
          "type": "uint256"
        }
      ],
      "name": "Withdraw",
      "type": "event"
    },
    {
      "inputs": [],
      "name": "DEFAULT_ADMIN_ROLE",
      "outputs": [
        {
          "internalType": "bytes32",
          "name": "",
          "type": "bytes32"
        }
      ],
      "stateMutability": "view",
      "type": "function"
    },
    {
      "inputs": [],
      "name": "DOMAIN_SEPARATOR",
      "outputs": [
        {
          "internalType": "bytes32",
          "name": "",
          "type": "bytes32"
        }
      ],
      "stateMutability": "view",
      "type": "function"
    },
    {
      "inputs": [],
      "name": "FEE_CONFIG_CONTROLLER_ROLE",
      "outputs": [
        {
          "internalType": "bytes32",
          "name": "",
          "type": "bytes32"
        }
      ],
      "stateMutability": "view",
      "type": "function"
    },
    {
      "inputs": [],
      "name": "VAULT_REWARD_CONTROLLER_ROLE",
      "outputs": [
        {
          "internalType": "bytes32",
          "name": "",
          "type": "bytes32"
        }
      ],
      "stateMutability": "view",
      "type": "function"
    },
    {
      "inputs": [
        {
          "internalType": "address",
          "name": "_token",
          "type": "address"
        },
        {
          "internalType": "uint256",
          "name": "_amount",
          "type": "uint256"
        }
      ],
      "name": "addReward",
      "outputs": [],
      "stateMutability": "payable",
      "type": "function"
    },
    {
      "inputs": [
        {
          "internalType": "address",
          "name": "",
          "type": "address"
        },
        {
          "internalType": "address",
          "name": "",
          "type": "address"
        }
      ],
      "name": "allowance",
      "outputs": [
        {
          "internalType": "uint256",
          "name": "",
          "type": "uint256"
        }
      ],
      "stateMutability": "view",
      "type": "function"
    },
    {
      "inputs": [
        {
          "internalType": "address",
          "name": "spender",
          "type": "address"
        },
        {
          "internalType": "uint256",
          "name": "amount",
          "type": "uint256"
        }
      ],
      "name": "approve",
      "outputs": [
        {
          "internalType": "bool",
          "name": "",
          "type": "bool"
        }
      ],
      "stateMutability": "nonpayable",
      "type": "function"
    },
    {
      "inputs": [],
      "name": "asset",
      "outputs": [
        {
          "internalType": "address",
          "name": "",
          "type": "address"
        }
      ],
      "stateMutability": "view",
      "type": "function"
    },
    {
      "inputs": [],
      "name": "assetTotalSupply",
      "outputs": [
        {
          "internalType": "uint256",
          "name": "",
          "type": "uint256"
        }
      ],
      "stateMutability": "view",
      "type": "function"
    },
    {
      "inputs": [
        {
          "internalType": "address",
          "name": "user",
          "type": "address"
        }
      ],
      "name": "assetsOf",
      "outputs": [
        {
          "internalType": "uint256",
          "name": "",
          "type": "uint256"
        }
      ],
      "stateMutability": "view",
      "type": "function"
    },
    {
      "inputs": [],
      "name": "assetsPerShare",
      "outputs": [
        {
          "internalType": "uint256",
          "name": "",
          "type": "uint256"
        }
      ],
      "stateMutability": "view",
      "type": "function"
    },
    {
      "inputs": [
        {
          "internalType": "address",
          "name": "",
          "type": "address"
        }
      ],
      "name": "balanceOf",
      "outputs": [
        {
          "internalType": "uint256",
          "name": "",
          "type": "uint256"
        }
      ],
      "stateMutability": "view",
      "type": "function"
    },
    {
      "inputs": [
        {
          "internalType": "uint256",
          "name": "_startPosition",
          "type": "uint256"
        }
      ],
      "name": "claimAllReward",
      "outputs": [
        {
          "internalType": "uint256",
          "name": "",
          "type": "uint256"
        },
        {
          "internalType": "uint256",
          "name": "",
          "type": "uint256"
        }
      ],
      "stateMutability": "payable",
      "type": "function"
    },
    {
      "inputs": [],
      "name": "decimals",
      "outputs": [
        {
          "internalType": "uint8",
          "name": "",
          "type": "uint8"
        }
      ],
      "stateMutability": "view",
      "type": "function"
    },
    {
      "inputs": [
        {
          "internalType": "uint256",
          "name": "assets",
          "type": "uint256"
        },
        {
          "internalType": "address",
          "name": "receiver",
          "type": "address"
        }
      ],
      "name": "deposit",
      "outputs": [
        {
          "internalType": "uint256",
          "name": "shares",
          "type": "uint256"
        }
      ],
      "stateMutability": "nonpayable",
      "type": "function"
    },
    {
      "inputs": [],
      "name": "feeConfig",
      "outputs": [
        {
          "internalType": "address",
          "name": "receiver",
          "type": "address"
        },
        {
          "internalType": "address",
          "name": "token",
          "type": "address"
        },
        {
          "internalType": "uint256",
          "name": "feePercentage",
          "type": "uint256"
        }
      ],
      "stateMutability": "view",
      "type": "function"
    },
    {
      "inputs": [
        {
          "internalType": "address",
          "name": "_user",
          "type": "address"
        }
      ],
      "name": "getAllRewards",
      "outputs": [
        {
          "internalType": "uint256[]",
          "name": "_rewards",
          "type": "uint256[]"
        }
      ],
      "stateMutability": "view",
      "type": "function"
    },
    {
      "inputs": [],
      "name": "getRewardTokens",
      "outputs": [
        {
          "internalType": "address[]",
          "name": "",
          "type": "address[]"
        }
      ],
      "stateMutability": "view",
      "type": "function"
    },
    {
      "inputs": [
        {
          "internalType": "bytes32",
          "name": "role",
          "type": "bytes32"
        }
      ],
      "name": "getRoleAdmin",
      "outputs": [
        {
          "internalType": "bytes32",
          "name": "",
          "type": "bytes32"
        }
      ],
      "stateMutability": "view",
      "type": "function"
    },
    {
      "inputs": [
        {
          "internalType": "address",
          "name": "_user",
          "type": "address"
        },
        {
          "internalType": "address",
          "name": "_rewardToken",
          "type": "address"
        }
      ],
      "name": "getUserReward",
      "outputs": [
        {
          "internalType": "uint256",
          "name": "unclaimedAmount",
          "type": "uint256"
        }
      ],
      "stateMutability": "view",
      "type": "function"
    },
    {
      "inputs": [
        {
          "internalType": "bytes32",
          "name": "role",
          "type": "bytes32"
        },
        {
          "internalType": "address",
          "name": "account",
          "type": "address"
        }
      ],
      "name": "grantRole",
      "outputs": [],
      "stateMutability": "nonpayable",
      "type": "function"
    },
    {
      "inputs": [
        {
          "internalType": "bytes32",
          "name": "role",
          "type": "bytes32"
        },
        {
          "internalType": "address",
          "name": "account",
          "type": "address"
        }
      ],
      "name": "hasRole",
      "outputs": [
        {
          "internalType": "bool",
          "name": "",
          "type": "bool"
        }
      ],
      "stateMutability": "view",
      "type": "function"
    },
    {
      "inputs": [
        {
          "internalType": "address",
          "name": "",
          "type": "address"
        }
      ],
      "name": "maxDeposit",
      "outputs": [
        {
          "internalType": "uint256",
          "name": "",
          "type": "uint256"
        }
      ],
      "stateMutability": "pure",
      "type": "function"
    },
    {
      "inputs": [
        {
          "internalType": "address",
          "name": "",
          "type": "address"
        }
      ],
      "name": "maxMint",
      "outputs": [
        {
          "internalType": "uint256",
          "name": "",
          "type": "uint256"
        }
      ],
      "stateMutability": "pure",
      "type": "function"
    },
    {
      "inputs": [
        {
          "internalType": "address",
          "name": "user",
          "type": "address"
        }
      ],
      "name": "maxRedeem",
      "outputs": [
        {
          "internalType": "uint256",
          "name": "",
          "type": "uint256"
        }
      ],
      "stateMutability": "view",
      "type": "function"
    },
    {
      "inputs": [
        {
          "internalType": "address",
          "name": "user",
          "type": "address"
        }
      ],
      "name": "maxWithdraw",
      "outputs": [
        {
          "internalType": "uint256",
          "name": "",
          "type": "uint256"
        }
      ],
      "stateMutability": "view",
      "type": "function"
    },
    {
      "inputs": [
        {
          "internalType": "uint256",
          "name": "shares",
          "type": "uint256"
        },
        {
          "internalType": "address",
          "name": "receiver",
          "type": "address"
        }
      ],
      "name": "mint",
      "outputs": [
        {
          "internalType": "uint256",
          "name": "amount",
          "type": "uint256"
        }
      ],
      "stateMutability": "nonpayable",
      "type": "function"
    },
    {
      "inputs": [],
      "name": "name",
      "outputs": [
        {
          "internalType": "string",
          "name": "",
          "type": "string"
        }
      ],
      "stateMutability": "view",
      "type": "function"
    },
    {
      "inputs": [
        {
          "internalType": "address",
          "name": "",
          "type": "address"
        }
      ],
      "name": "nonces",
      "outputs": [
        {
          "internalType": "uint256",
          "name": "",
          "type": "uint256"
        }
      ],
      "stateMutability": "view",
      "type": "function"
    },
    {
      "inputs": [],
      "name": "owner",
      "outputs": [
        {
          "internalType": "address",
          "name": "",
          "type": "address"
        }
      ],
      "stateMutability": "view",
      "type": "function"
    },
    {
      "inputs": [
        {
          "internalType": "address",
          "name": "owner",
          "type": "address"
        },
        {
          "internalType": "address",
          "name": "spender",
          "type": "address"
        },
        {
          "internalType": "uint256",
          "name": "value",
          "type": "uint256"
        },
        {
          "internalType": "uint256",
          "name": "deadline",
          "type": "uint256"
        },
        {
          "internalType": "uint8",
          "name": "v",
          "type": "uint8"
        },
        {
          "internalType": "bytes32",
          "name": "r",
          "type": "bytes32"
        },
        {
          "internalType": "bytes32",
          "name": "s",
          "type": "bytes32"
        }
      ],
      "name": "permit",
      "outputs": [],
      "stateMutability": "nonpayable",
      "type": "function"
    },
    {
      "inputs": [
        {
          "internalType": "uint256",
          "name": "amount",
          "type": "uint256"
        }
      ],
      "name": "previewDeposit",
      "outputs": [
        {
          "internalType": "uint256",
          "name": "shares",
          "type": "uint256"
        }
      ],
      "stateMutability": "view",
      "type": "function"
    },
    {
      "inputs": [
        {
          "internalType": "uint256",
          "name": "shares",
          "type": "uint256"
        }
      ],
      "name": "previewMint",
      "outputs": [
        {
          "internalType": "uint256",
          "name": "amount",
          "type": "uint256"
        }
      ],
      "stateMutability": "view",
      "type": "function"
    },
    {
      "inputs": [
        {
          "internalType": "uint256",
          "name": "shares",
          "type": "uint256"
        }
      ],
      "name": "previewRedeem",
      "outputs": [
        {
          "internalType": "uint256",
          "name": "amount",
          "type": "uint256"
        }
      ],
      "stateMutability": "view",
      "type": "function"
    },
    {
      "inputs": [
        {
          "internalType": "uint256",
          "name": "amount",
          "type": "uint256"
        }
      ],
      "name": "previewWithdraw",
      "outputs": [
        {
          "internalType": "uint256",
          "name": "shares",
          "type": "uint256"
        }
      ],
      "stateMutability": "view",
      "type": "function"
    },
    {
      "inputs": [
        {
          "internalType": "uint256",
          "name": "shares",
          "type": "uint256"
        },
        {
          "internalType": "address",
          "name": "receiver",
          "type": "address"
        },
        {
          "internalType": "address",
          "name": "from",
          "type": "address"
        }
      ],
      "name": "redeem",
      "outputs": [
        {
          "internalType": "uint256",
          "name": "amount",
          "type": "uint256"
        }
      ],
      "stateMutability": "nonpayable",
      "type": "function"
    },
    {
      "inputs": [],
      "name": "renounceOwnership",
      "outputs": [],
      "stateMutability": "nonpayable",
      "type": "function"
    },
    {
      "inputs": [
        {
          "internalType": "bytes32",
          "name": "role",
          "type": "bytes32"
        },
        {
          "internalType": "address",
          "name": "callerConfirmation",
          "type": "address"
        }
      ],
      "name": "renounceRole",
      "outputs": [],
      "stateMutability": "nonpayable",
      "type": "function"
    },
    {
      "inputs": [
        {
          "internalType": "bytes32",
          "name": "role",
          "type": "bytes32"
        },
        {
          "internalType": "address",
          "name": "account",
          "type": "address"
        }
      ],
      "name": "revokeRole",
      "outputs": [],
      "stateMutability": "nonpayable",
      "type": "function"
    },
    {
      "inputs": [
        {
          "internalType": "uint256",
          "name": "",
          "type": "uint256"
        }
      ],
      "name": "rewardTokens",
      "outputs": [
        {
          "internalType": "address",
          "name": "",
          "type": "address"
        }
      ],
      "stateMutability": "view",
      "type": "function"
    },
    {
      "inputs": [],
      "name": "share",
      "outputs": [
        {
          "internalType": "address",
          "name": "",
          "type": "address"
        }
      ],
      "stateMutability": "view",
      "type": "function"
    },
    {
      "inputs": [
        {
          "internalType": "bytes4",
          "name": "interfaceId",
          "type": "bytes4"
        }
      ],
      "name": "supportsInterface",
      "outputs": [
        {
          "internalType": "bool",
          "name": "",
          "type": "bool"
        }
      ],
      "stateMutability": "view",
      "type": "function"
    },
    {
      "inputs": [],
      "name": "symbol",
      "outputs": [
        {
          "internalType": "string",
          "name": "",
          "type": "string"
        }
      ],
      "stateMutability": "view",
      "type": "function"
    },
    {
      "inputs": [
        {
          "internalType": "address",
          "name": "",
          "type": "address"
        }
      ],
      "name": "tokensRewardInfo",
      "outputs": [
        {
          "internalType": "uint256",
          "name": "amount",
          "type": "uint256"
        },
        {
          "internalType": "bool",
          "name": "exist",
          "type": "bool"
        }
      ],
      "stateMutability": "view",
      "type": "function"
    },
    {
      "inputs": [],
      "name": "totalAssets",
      "outputs": [
        {
          "internalType": "uint256",
          "name": "",
          "type": "uint256"
        }
      ],
      "stateMutability": "view",
      "type": "function"
    },
    {
      "inputs": [],
      "name": "totalSupply",
      "outputs": [
        {
          "internalType": "uint256",
          "name": "",
          "type": "uint256"
        }
      ],
      "stateMutability": "view",
      "type": "function"
    },
    {
      "inputs": [
        {
          "internalType": "address",
          "name": "to",
          "type": "address"
        },
        {
          "internalType": "uint256",
          "name": "amount",
          "type": "uint256"
        }
      ],
      "name": "transfer",
      "outputs": [
        {
          "internalType": "bool",
          "name": "",
          "type": "bool"
        }
      ],
      "stateMutability": "nonpayable",
      "type": "function"
    },
    {
      "inputs": [
        {
          "internalType": "address",
          "name": "from",
          "type": "address"
        },
        {
          "internalType": "address",
          "name": "to",
          "type": "address"
        },
        {
          "internalType": "uint256",
          "name": "amount",
          "type": "uint256"
        }
      ],
      "name": "transferFrom",
      "outputs": [
        {
          "internalType": "bool",
          "name": "",
          "type": "bool"
        }
      ],
      "stateMutability": "nonpayable",
      "type": "function"
    },
    {
      "inputs": [
        {
          "internalType": "address",
          "name": "newOwner",
          "type": "address"
        }
      ],
      "name": "transferOwnership",
      "outputs": [],
      "stateMutability": "nonpayable",
      "type": "function"
    },
    {
      "inputs": [
        {
          "components": [
            {
              "internalType": "address",
              "name": "receiver",
              "type": "address"
            },
            {
              "internalType": "address",
              "name": "token",
              "type": "address"
            },
            {
              "internalType": "uint256",
              "name": "feePercentage",
              "type": "uint256"
            }
          ],
          "internalType": "struct FeeConfiguration.FeeConfig",
          "name": "_feeConfig",
          "type": "tuple"
        }
      ],
      "name": "updateFeeConfig",
      "outputs": [],
      "stateMutability": "nonpayable",
      "type": "function"
    },
    {
      "inputs": [
        {
          "internalType": "address",
          "name": "",
          "type": "address"
        }
      ],
      "name": "userContribution",
      "outputs": [
        {
          "internalType": "uint256",
          "name": "sharesAmount",
          "type": "uint256"
        },
        {
          "internalType": "uint256",
          "name": "lastLockedTime",
          "type": "uint256"
        },
        {
          "internalType": "bool",
          "name": "exist",
          "type": "bool"
        }
      ],
      "stateMutability": "view",
      "type": "function"
    },
    {
      "inputs": [
        {
          "internalType": "uint256",
          "name": "amount",
          "type": "uint256"
        },
        {
          "internalType": "address",
          "name": "receiver",
          "type": "address"
        },
        {
          "internalType": "address",
          "name": "from",
          "type": "address"
        }
      ],
      "name": "withdraw",
      "outputs": [
        {
          "internalType": "uint256",
          "name": "shares",
          "type": "uint256"
        }
      ],
      "stateMutability": "nonpayable",
      "type": "function"
    }
  ],
  "bytecode": "0x6101006040526040516200482038038062004820833981016040819052620000279162000b0a565b338585886001600160a01b031663313ce5676040518163ffffffff1660e01b8152600401602060405180830381865afa15801562000069573d6000803e3d6000fd5b505050506040513d601f19601f820116820180604052508101906200008f919062000c03565b60006200009d848262000cc0565b506001620000ac838262000cc0565b5060ff81166080524660a052620000c26200013c565b60c0525050506001600160a01b038116620000f857604051631e4fbdf760e01b8152600060048201526024015b60405180910390fd5b6200010381620001d8565b506001600b55620001168383836200022a565b6001600160a01b03861660e05262000130858588620002b0565b505050505050620010d7565b60007f8b73c3c69bb8fe3d512ecc4cf759cc79239f7b179b0ffacaa9a75d522b39400f600060405162000170919062000d8c565b6040805191829003822060208301939093528101919091527fc89efdaa54c0f20c7adf612882df0950f5a951637e0307cdcb4c672f298b8bc660608201524660808201523060a082015260c00160405160208183030381529060405280519060200120905090565b600a80546001600160a01b038381166001600160a01b0319831681179093556040519116919082907f8be0079c531659141344cd1fd0a4f28419497f9722a3daafe3b4186f6b6457e090600090a35050565b8251602084015160408501516200024392919062000553565b6200025060003362000613565b506200027d7f477fc23fb51bb5d5aa814872a393b0e4f35d0916c7503c0fd96584681070d4108362000613565b50620002aa7f74e458455daa935f28c556b43e0cc4ad001a8a090f5feee376681e97d4618f468262000613565b50505050565b620002bc8130620006c6565b6040805160a08082018352600080835260208084018290526060848601819052808501819052306080808701829052875195860188528486528584018590528588018390528583018390528501528551600280825291810190965260109560019594939290919082015b6200033062000989565b815260200190600190039081620003265790505090506040518060400160405280868152602001848152508160008151811062000371576200037162000e0a565b602002602001018190525060405180604001604052808581526020018381525081600181518110620003a757620003a762000e0a565b6020026020010181905250620003ec6040518060600160405280600063ffffffff16815260200160006001600160a01b03168152602001600063ffffffff1681525090565b306020820152627a120060408201526200046260408051610120810182526060808252602080830182905260008385018190528284018390526080840181905260a0840181905260c0840181905260e0840183905284519283018552808352908201819052928101929092529061010082015290565b89815260208082018a905230604080840191909152610100830184905260e08301859052805163313ce56760e01b81529051620004ff9284926000926001600160a01b038e169263313ce56792600480820193918290030181865afa158015620004d0573d6000803e3d6000fd5b505050506040513d601f19601f82011682018060405250810190620004f6919062000c03565b60ff16620007f5565b600c80546001600160a01b0319166001600160a01b039290921691821790556040517f7bb17726df1f3adee8aa00ba8e8bc5d6f182af3bbf77604639cb7f008dd3b4ed90600090a250505050505050505050565b6127108110620005985760405162461bcd60e51b815260206004820152600f60248201526e46433a20496e76616c69642066656560881b6044820152606401620000ef565b600780546001600160a01b038581166001600160a01b0319928316811790935560088054918616919092168117909155600983905560408051928352602083019190915281018290527febd34b2df88ea5c9f67c04b13b08e5e63c2d17e269aab73b866fe47a8736a2649060600160405180910390a1505050565b60008281526006602090815260408083206001600160a01b038516845290915281205460ff16620006bc5760008381526006602090815260408083206001600160a01b03861684529091529020805460ff19166001179055620006733390565b6001600160a01b0316826001600160a01b0316847f2f8788117e7eff1d82e926ec794901d17c78024a50270940304540a733656f0d60405160405180910390a4506001620006c0565b5060005b92915050565b604080516001600160a01b038381166024830152841660448083019190915282518083039091018152606490910182526020810180516001600160e01b031663248a35ef60e11b1790529051600091829182916101679162000729919062000e20565b6000604051808303816000865af19150503d806000811462000768576040519150601f19603f3d011682016040523d82523d6000602084013e6200076d565b606091505b5091509150816200078057601562000796565b8080602001905181019062000796919062000e51565b9250600383900b601614620007ee5760405162461bcd60e51b815260206004820152601f60248201527f536166652073696e676c65206173736f63696174696f6e206661696c656421006044820152606401620000ef565b5050505050565b61010083015151600090849063ffffffff161580156200082257506101008101516040015163ffffffff16155b1562000839576101008101516276a7006040909101525b60008060006101676001600160a01b031634637812a04b60e01b8a8a8a6040516024016200086a9392919062000f6e565b60408051601f198184030181529181526020820180516001600160e01b03166001600160e01b0319909416939093179092529051620008aa919062000e20565b60006040518083038185875af1925050503d8060008114620008e9576040519150601f19603f3d011682016040523d82523d6000602084013e620008ee565b606091505b50915091508162000903576015600062000919565b808060200190518101906200091991906200109b565b95509250600383900b6016146200097e5760405162461bcd60e51b815260206004820152602260248201527f53616665206372656174652066756e6769626c6520746f6b656e206661696c65604482015261642160f01b6064820152608401620000ef565b505050509392505050565b604051806040016040528060008152602001620009e26040518060a0016040528060001515815260200160006001600160a01b03168152602001606081526020016060815260200160006001600160a01b031681525090565b905290565b6001600160a01b0381168114620009fd57600080fd5b50565b634e487b7160e01b600052604160045260246000fd5b604051606081016001600160401b038111828210171562000a3b5762000a3b62000a00565b60405290565b60005b8381101562000a5e57818101518382015260200162000a44565b50506000910152565b600082601f83011262000a7957600080fd5b81516001600160401b038082111562000a965762000a9662000a00565b604051601f8301601f19908116603f0116810190828211818310171562000ac15762000ac162000a00565b8160405283815286602085880101111562000adb57600080fd5b62000aee84602083016020890162000a41565b9695505050505050565b805162000b0581620009e7565b919050565b60008060008060008086880361010081121562000b2657600080fd5b875162000b3381620009e7565b60208901519097506001600160401b038082111562000b5157600080fd5b62000b5f8b838c0162000a67565b975060408a015191508082111562000b7657600080fd5b5062000b858a828b0162000a67565b9550506060605f198201121562000b9b57600080fd5b5062000ba662000a16565b606088015162000bb681620009e7565b8152608088015162000bc881620009e7565b602082015260a08801516040820152925062000be760c0880162000af8565b915062000bf760e0880162000af8565b90509295509295509295565b60006020828403121562000c1657600080fd5b815160ff8116811462000c2857600080fd5b9392505050565b600181811c9082168062000c4457607f821691505b60208210810362000c6557634e487b7160e01b600052602260045260246000fd5b50919050565b601f82111562000cbb576000816000526020600020601f850160051c8101602086101562000c965750805b601f850160051c820191505b8181101562000cb75782815560010162000ca2565b5050505b505050565b81516001600160401b0381111562000cdc5762000cdc62000a00565b62000cf48162000ced845462000c2f565b8462000c6b565b602080601f83116001811462000d2c576000841562000d135750858301515b600019600386901b1c1916600185901b17855562000cb7565b600085815260208120601f198616915b8281101562000d5d5788860151825594840194600190910190840162000d3c565b508582101562000d7c5787850151600019600388901b60f8161c191681555b5050505050600190811b01905550565b600080835462000d9c8162000c2f565b6001828116801562000db7576001811462000dcd5762000dfe565b60ff198416875282151583028701945062000dfe565b8760005260208060002060005b8581101562000df55781548a82015290840190820162000dda565b50505082870194505b50929695505050505050565b634e487b7160e01b600052603260045260246000fd5b6000825162000e3481846020870162000a41565b9190910192915050565b8051600381900b811462000b0557600080fd5b60006020828403121562000e6457600080fd5b62000c288262000e3e565b6000815180845262000e8981602086016020860162000a41565b601f01601f19169290920160200192915050565b600082825180855260208086019550808260051b84010181860160005b8481101562000f6157858303601f1901895281518051845284015160408585018190528151151581860152818601516001600160a01b039081166060808801919091529183015160a0608080890182905291939092909162000f2060e08a018662000e6f565b92860151898403603f1901858b015292945062000f3e858462000e6f565b9501511660c0979097019690965250509884019892509083019060010162000eba565b5090979650505050505050565b606081526000845161016080606085015262000f8f6101c085018362000e6f565b91506020870151605f198086850301608087015262000faf848362000e6f565b93506040890151915062000fce60a08701836001600160a01b03169052565b60608901519150808685030160c087015262000feb848362000e6f565b9350608089015191506200100360e087018315159052565b60a089015191506101006200101f8188018463ffffffff169052565b60c08a0151151561012088015260e08a0151878603830161014089015292506200104a858462000e9d565b9450808a0151925050506200108782860182805163ffffffff90811683526020808301516001600160a01b03169084015260409182015116910152565b505060208301949094525060400152919050565b60008060408385031215620010af57600080fd5b620010ba8362000e3e565b91506020830151620010cc81620009e7565b809150509250929050565b60805160a05160c05160e0516136d762001149600039600081816105d301528181610a7201528181610c23015281816110af0152818161140b01528181611521015281816119710152611af801526000610f2d01526000610efd0152600081816105190152610e2101526136d76000f3fe6080604052600436106102bf5760003560e01c80637bb7bed111610170578063b4f6d613116100cc578063d505accf11610085578063d505accf1461094a578063d547741f1461096a578063d905777e1461098a578063dd62ed3e146109c0578063ef8b30f7146109f8578063efa6f42514610a18578063f2fde38b14610a3857600080fd5b8063b4f6d61314610868578063ba0876521461089c578063c4f59f9b146108bc578063c63d75b614610600578063cd9cdfda146108de578063ce96cb771461092a57600080fd5b806395d89b411161012957806395d89b41146107ad5780639feb8f50146107c2578063a217fddf146107d5578063a8d5fd65146107ea578063a9059cbb14610808578063b3d7f6b914610828578063b460af941461084857600080fd5b80637bb7bed1146106ec5780637ecebe001461070c5780638da5cb5b146107395780638f12c2f41461075757806391d148541461076d57806394bf804d1461078d57600080fd5b8063313ce5671161021f578063402d267d116101d8578063402d267d146106005780634cdad506146106225780635ab764ed146106425780636e553f651461066257806370a0823114610682578063715018a6146106af5780637a07bf3a146106c457600080fd5b8063313ce5671461050757806335d16e171461054d578063362a3fad146105625780633644e5151461058f57806336568abe146105a457806338d52e0f146105c457600080fd5b806316ad06721161027c57806316ad0672146103b257806318160ddd1461040e5780631e5eb1d01461042457806323b872dd14610475578063248a9ca3146104955780632c62fa10146104c55780632f2ff15d146104e557600080fd5b806301e1d114146102c457806301ffc9a7146102ec57806305fb2a511461031c57806306fdde0314610350578063095ea7b3146103725780630a28a47714610392575b600080fd5b3480156102d057600080fd5b506102d9610a58565b6040519081526020015b60405180910390f35b3480156102f857600080fd5b5061030c610307366004612d27565b610aed565b60405190151581526020016102e3565b34801561032857600080fd5b506102d97f74e458455daa935f28c556b43e0cc4ad001a8a090f5feee376681e97d4618f4681565b34801561035c57600080fd5b50610365610b24565b6040516102e39190612da1565b34801561037e57600080fd5b5061030c61038d366004612dd0565b610bb2565b34801561039e57600080fd5b506102d96103ad366004612dfa565b610c1e565b3480156103be57600080fd5b506103f16103cd366004612e13565b600f6020526000908152604090208054600182015460039092015490919060ff1683565b6040805193845260208401929092521515908201526060016102e3565b34801561041a57600080fd5b506102d960025481565b34801561043057600080fd5b5060075460085460095461044f926001600160a01b0390811692169083565b604080516001600160a01b039485168152939092166020840152908201526060016102e3565b34801561048157600080fd5b5061030c610490366004612e2e565b610cd8565b3480156104a157600080fd5b506102d96104b0366004612dfa565b60009081526006602052604090206001015490565b3480156104d157600080fd5b506102d96104e0366004612e13565b610dca565b3480156104f157600080fd5b50610505610500366004612e6a565b610dec565b005b34801561051357600080fd5b5061053b7f000000000000000000000000000000000000000000000000000000000000000081565b60405160ff90911681526020016102e3565b34801561055957600080fd5b506102d9610e17565b34801561056e57600080fd5b5061058261057d366004612e13565b610e47565b6040516102e39190612e96565b34801561059b57600080fd5b506102d9610ef9565b3480156105b057600080fd5b506105056105bf366004612e6a565b610f4f565b3480156105d057600080fd5b507f00000000000000000000000000000000000000000000000000000000000000005b6040516102e39190612eda565b34801561060c57600080fd5b506102d961061b366004612e13565b5060001990565b34801561062e57600080fd5b506102d961063d366004612dfa565b610f87565b34801561064e57600080fd5b506102d961065d366004612eee565b610fa9565b34801561066e57600080fd5b506102d961067d366004612e6a565b61103a565b34801561068e57600080fd5b506102d961069d366004612e13565b60036020526000908152604090205481565b3480156106bb57600080fd5b50610505611197565b6106d76106d2366004612dfa565b6111ab565b604080519283526020830191909152016102e3565b3480156106f857600080fd5b506105f3610707366004612dfa565b6112d2565b34801561071857600080fd5b506102d9610727366004612e13565b60056020526000908152604090205481565b34801561074557600080fd5b50600a546001600160a01b03166105f3565b34801561076357600080fd5b506102d9600d5481565b34801561077957600080fd5b5061030c610788366004612e6a565b6112fc565b34801561079957600080fd5b506102d96107a8366004612e6a565b611327565b3480156107b957600080fd5b5061036561143c565b6105056107d0366004612dd0565b611449565b3480156107e157600080fd5b506102d9600081565b3480156107f657600080fd5b50600c546001600160a01b03166105f3565b34801561081457600080fd5b5061030c610823366004612dd0565b6117ac565b34801561083457600080fd5b506102d9610843366004612dfa565b611824565b34801561085457600080fd5b506102d9610863366004612f18565b611846565b34801561087457600080fd5b506102d97f477fc23fb51bb5d5aa814872a393b0e4f35d0916c7503c0fd96584681070d41081565b3480156108a857600080fd5b506102d96108b7366004612f18565b6119f8565b3480156108c857600080fd5b506108d1611b6d565b6040516102e39190612f54565b3480156108ea57600080fd5b506109156108f9366004612e13565b6010602052600090815260409020805460019091015460ff1682565b604080519283529015156020830152016102e3565b34801561093657600080fd5b506102d9610945366004612e13565b611bcf565b34801561095657600080fd5b50610505610965366004612f95565b611bda565b34801561097657600080fd5b50610505610985366004612e6a565b611e18565b34801561099657600080fd5b506102d96109a5366004612e13565b6001600160a01b031660009081526003602052604090205490565b3480156109cc57600080fd5b506102d96109db366004612eee565b600460209081526000928352604080842090915290825290205481565b348015610a0457600080fd5b506102d9610a13366004612dfa565b611e3d565b348015610a2457600080fd5b50610505610a3336600461304e565b611e5e565b348015610a4457600080fd5b50610505610a53366004612e13565b611ea3565b6040516370a0823160e01b81526000906001600160a01b037f000000000000000000000000000000000000000000000000000000000000000016906370a0823190610aa7903090600401612eda565b602060405180830381865afa158015610ac4573d6000803e3d6000fd5b505050506040513d601f19601f82011682018060405250810190610ae891906130b5565b905090565b60006001600160e01b03198216637965db0b60e01b1480610b1e57506301ffc9a760e01b6001600160e01b03198316145b92915050565b60008054610b31906130ce565b80601f0160208091040260200160405190810160405280929190818152602001828054610b5d906130ce565b8015610baa5780601f10610b7f57610100808354040283529160200191610baa565b820191906000526020600020905b815481529060010190602001808311610b8d57829003601f168201915b505050505081565b3360008181526004602090815260408083206001600160a01b038716808552925280832085905551919290917f8c5be1e5ebec7d5bd14f71427d1e84f3dd0314c0f7b2291e5b200ac8c7c3b92590610c0d9086815260200190565b60405180910390a350600192915050565b6000807f00000000000000000000000000000000000000000000000000000000000000006001600160a01b03166370a08231306040518263ffffffff1660e01b8152600401610c6d9190612eda565b602060405180830381865afa158015610c8a573d6000803e3d6000fd5b505050506040513d601f19601f82011682018060405250810190610cae91906130b5565b90508015610ccf57610cca81610cc2610a58565b859190611ee1565b610cd1565b825b9392505050565b6001600160a01b03831660009081526004602090815260408083203384529091528120546000198114610d3457610d0f838261311e565b6001600160a01b03861660009081526004602090815260408083203384529091529020555b6001600160a01b03851660009081526003602052604081208054859290610d5c90849061311e565b90915550506001600160a01b03808516600081815260036020526040908190208054870190555190918716907fddf252ad1be2c89b69c2b068fc378daa952ba7f163c4a11628f55a4df523b3ef90610db79087815260200190565b60405180910390a3506001949350505050565b6001600160a01b038116600090815260036020526040812054610b1e90610f87565b600082815260066020526040902060010154610e0781611f07565b610e118383611f11565b50505050565b6000610ae861063d7f0000000000000000000000000000000000000000000000000000000000000000600a613215565b600e54606090806001600160401b03811115610e6557610e65613008565b604051908082528060200260200182016040528015610e8e578160200160208202803683370190505b50915060005b81811015610ef257610ecd84600e8381548110610eb357610eb3613224565b6000918252602090912001546001600160a01b0316610fa9565b838281518110610edf57610edf613224565b6020908102919091010152600101610e94565b5050919050565b60007f00000000000000000000000000000000000000000000000000000000000000004614610f2a57610ae8611fa5565b507f000000000000000000000000000000000000000000000000000000000000000090565b6001600160a01b0381163314610f785760405163334bd91960e11b815260040160405180910390fd5b610f82828261203f565b505050565b6002546000908015610ccf57610cca610f9e610a58565b6002548591906120ac565b6001600160a01b03808216600081815260106020908152604080832080549588168452600f83528184208054958552600281019093529083205492949093909285610ff4828661311e565b9050611002816001856120ac565b6009549097501561102e57600061101e886007600201546120ca565b905061102a818961311e565b9750505b50505050505092915050565b600061104461214a565b6001600160a01b0382166110735760405162461bcd60e51b815260040161106a9061323a565b60405180910390fd5b61107c83611e3d565b9050806000036110a257604051636e3699b760e11b81526004810184905260240161106a565b6110d76001600160a01b037f000000000000000000000000000000000000000000000000000000000000000016333086612174565b600c54611124906001600160a01b03168460005b60405190808252806020026020018201604052801561111e57816020015b60608152602001906001900390816111095790505b506121fe565b5050600c5461113e906001600160a01b0316308486612341565b60408051848152602081018390526001600160a01b0384169133917fdcbc1c05240f31ff3ad067ef1ee35ce4997762752e3a095284754544f4c709d7910160405180910390a361118d8361247a565b610b1e6001600b55565b61119f612605565b6111a96000612632565b565b600e5460085460009182916001600160a01b031681830361121a5760405162461bcd60e51b815260206004820152602360248201527f4865646572615661756c743a204e6f2072657761726420746f6b656e732065786044820152621a5cdd60ea1b606482015260840161106a565b600080865b848110156112c457600e818154811061123a5761123a613224565b6000918252602090912001546001600160a01b0316915061125b3383610fa9565b6001600160a01b03831660008181526010602090815260408083205433808552600f84528285209585526002909501909252909120559093506112a2908390309086612341565b6001600160a01b038416156112bc576112ba83612684565b505b60010161121f565b509596929550919350505050565b600e81815481106112e257600080fd5b6000918252602090912001546001600160a01b0316905081565b60009182526006602090815260408084206001600160a01b0393909316845291905290205460ff1690565b600061133161214a565b6001600160a01b0382166113575760405162461bcd60e51b815260040161106a9061323a565b61136083611824565b90508060000361138657604051636e3699b760e11b81526004810184905260240161106a565b600c5461139e906001600160a01b03168260006110eb565b5050600c546113b8906001600160a01b0316308484612341565b60408051828152602081018590526001600160a01b0384169133917fdcbc1c05240f31ff3ad067ef1ee35ce4997762752e3a095284754544f4c709d7910160405180910390a36114336001600160a01b037f000000000000000000000000000000000000000000000000000000000000000016333084612174565b61118d8161247a565b60018054610b31906130ce565b7f477fc23fb51bb5d5aa814872a393b0e4f35d0916c7503c0fd96584681070d41061147381611f07565b816000036114cd5760405162461bcd60e51b815260206004820152602160248201527f4865646572615661756c743a20416d6f756e742063616e2774206265207a65726044820152606f60f81b606482015260840161106a565b600d5460000361151f5760405162461bcd60e51b815260206004820181905260248201527f4865646572615661756c743a204e6f20746f6b656e207374616b656420796574604482015260640161106a565b7f00000000000000000000000000000000000000000000000000000000000000006001600160a01b0316836001600160a01b03161415801561156f5750600c546001600160a01b03848116911614155b6115d95760405162461bcd60e51b815260206004820152603560248201527f4865646572615661756c743a2052657761726420616e64205374616b696e6720604482015274746f6b656e732063616e6e6f742062652073616d6560581b606482015260840161106a565b6001600160a01b0383166116395760405162461bcd60e51b815260206004820152602160248201527f4865646572615661756c743a20496e76616c69642072657761726420746f6b656044820152603760f91b606482015260840161106a565b600e54600a0361165c57604051637561e0ab60e01b815260040160405180910390fd5b60006116766001600d54856120ac9092919063ffffffff16565b6001600160a01b038516600090815260106020526040902060018101549192509060ff1661171f57600e8054600180820183556000929092527fbb7b4a454dc3493923482f07822329ed19e8244eff582cc204f8554c3620c3fd0180546001600160a01b0319166001600160a01b038816179055818101805460ff19169091179055818155611705853061278e565b61171a6001600160a01b038616333087612174565b611762565b6001600160a01b0385166000908152601060205260408120805484929061174790849061327f565b9091555061176290506001600160a01b038616333087612174565b846001600160a01b03167fac24935fd910bc682b5ccb1a07b718cadf8cf2f6d1404c4f3ddc3662dae40e298560405161179d91815260200190565b60405180910390a25050505050565b336000908152600360205260408120805483919083906117cd90849061311e565b90915550506001600160a01b038316600081815260036020526040908190208054850190555133907fddf252ad1be2c89b69c2b068fc378daa952ba7f163c4a11628f55a4df523b3ef90610c0d9086815260200190565b6002546000908015610ccf57610cca61183b610a58565b600254859190611ee1565b600061185061214a565b6001600160a01b0383166118765760405162461bcd60e51b815260040161106a9061323a565b6001600160a01b03821661189c5760405162461bcd60e51b815260040161106a90613292565b6118a584610c1e565b9050806000036118c75760405162461bcd60e51b815260040161106a906132d3565b6001600160a01b0382166000908152600f60205260409020548111156118ff5760405162461bcd60e51b815260040161106a90613305565b611908846128ac565b600c54611920906001600160a01b0316833087612341565b600c54611963906001600160a01b03168560005b60405190808252806020026020018201604052801561195d578160200160208202803683370190505b506128f0565b506119986001600160a01b037f0000000000000000000000000000000000000000000000000000000000000000168486612a1c565b826001600160a01b0316826001600160a01b03167ff341246adaac6f497bc2a656f546ab9e182111d630394f0c57c710a59a2cb56786846040516119e6929190918252602082015260400190565b60405180910390a3610cd16001600b55565b6000611a0261214a565b6001600160a01b038316611a285760405162461bcd60e51b815260040161106a9061323a565b6001600160a01b038216611a4e5760405162461bcd60e51b815260040161106a90613292565b611a5784610f87565b905080600003611a795760405162461bcd60e51b815260040161106a906132d3565b6001600160a01b0382166000908152600f6020526040902054841115611ab15760405162461bcd60e51b815260040161106a90613305565b611aba816128ac565b600c54611ad2906001600160a01b0316833084612341565b600c54611aea906001600160a01b0316826000611934565b50611b1f6001600160a01b037f0000000000000000000000000000000000000000000000000000000000000000168483612a1c565b826001600160a01b0316826001600160a01b03167ff341246adaac6f497bc2a656f546ab9e182111d630394f0c57c710a59a2cb56783876040516119e6929190918252602082015260400190565b6060600e805480602002602001604051908101604052809291908181526020018280548015611bc557602002820191906000526020600020905b81546001600160a01b03168152600190910190602001808311611ba7575b5050505050905090565b6000610b1e82610dca565b42841015611c245760405162461bcd60e51b815260206004820152601760248201527614115493525517d11150511312539157d1561412549151604a1b604482015260640161106a565b60006001611c30610ef9565b6001600160a01b038a811660008181526005602090815260409182902080546001810190915582517f6e71edae12b1b97f4d1f60370fef10105fa2faae0126114a169c64845d6126c98184015280840194909452938d166060840152608083018c905260a083019390935260c08083018b90528151808403909101815260e08301909152805192019190912061190160f01b6101008301526101028201929092526101228101919091526101420160408051601f198184030181528282528051602091820120600084529083018083525260ff871690820152606081018590526080810184905260a0016020604051602081039080840390855afa158015611d3c573d6000803e3d6000fd5b5050604051601f1901519150506001600160a01b03811615801590611d725750876001600160a01b0316816001600160a01b0316145b611daf5760405162461bcd60e51b815260206004820152600e60248201526d24a72b20a624a22fa9a4a3a722a960911b604482015260640161106a565b6001600160a01b0390811660009081526004602090815260408083208a8516808552908352928190208990555188815291928a16917f8c5be1e5ebec7d5bd14f71427d1e84f3dd0314c0f7b2291e5b200ac8c7c3b925910160405180910390a350505050505050565b600082815260066020526040902060010154611e3381611f07565b610e11838361203f565b6002546000908015610ccf57610cca6001611e56610a58565b8591906120ac565b7f74e458455daa935f28c556b43e0cc4ad001a8a090f5feee376681e97d4618f46611e8881611f07565b611e9f826000015183602001518460400151612a94565b5050565b611eab612605565b6001600160a01b038116611ed5576000604051631e4fbdf760e01b815260040161106a9190612eda565b611ede81612632565b50565b6000826000190484118302158202611ef857600080fd5b50910281810615159190040190565b611ede8133612b52565b6000611f1d83836112fc565b611f9d5760008381526006602090815260408083206001600160a01b03861684529091529020805460ff19166001179055611f553390565b6001600160a01b0316826001600160a01b0316847f2f8788117e7eff1d82e926ec794901d17c78024a50270940304540a733656f0d60405160405180910390a4506001610b1e565b506000610b1e565b60007f8b73c3c69bb8fe3d512ecc4cf759cc79239f7b179b0ffacaa9a75d522b39400f6000604051611fd79190613351565b6040805191829003822060208301939093528101919091527fc89efdaa54c0f20c7adf612882df0950f5a951637e0307cdcb4c672f298b8bc660608201524660808201523060a082015260c00160405160208183030381529060405280519060200120905090565b600061204b83836112fc565b15611f9d5760008381526006602090815260408083206001600160a01b0386168085529252808320805460ff1916905551339286917ff6391f5c32d9c69d2a47ea670b442974b53935d1edc7fd64eb21e047a839171b9190a4506001610b1e565b60008260001904841183021582026120c357600080fd5b5091020490565b60006127106120d983856133f2565b10156121335760405162461bcd60e51b8152602060048201526024808201527f46433a20546f6f20736d616c6c20616d6f756e7420746f20636f6e73696465726044820152632066656560e01b606482015260840161106a565b61271061214083856133f2565b610cd19190613409565b6002600b540361216d57604051633ee5aeb560e01b815260040160405180910390fd5b6002600b55565b60006040516323b872dd60e01b81528460048201528360248201528260448201526020600060648360008a5af13d15601f3d11600160005114161716915050806121f75760405162461bcd60e51b81526020600482015260146024820152731514905394d1915497d19493d357d1905253115160621b604482015260640161106a565b5050505050565b6000606060008060006101676001600160a01b031663278e0b8860e01b8989896040516024016122309392919061342b565b60408051601f198184030181529181526020820180516001600160e01b03166001600160e01b031990941693909317909252905161226e91906134af565b6000604051808303816000865af19150503d80600081146122ab576040519150601f19603f3d011682016040523d82523d6000602084013e6122b0565b606091505b5091509150816122d35760408051600080825260208201909252601591906122e7565b808060200190518101906122e791906134f4565b90965094509250600383900b6016146123365760405162461bcd60e51b815260206004820152601160248201527053616665206d696e74206661696c65642160781b604482015260640161106a565b505050935093915050565b604080516001600160a01b038681166024830152858116604483015284166064820152600783900b6084808301919091528251808303909101815260a490910182526020810180516001600160e01b031663eca3691760e01b179052905160009182918291610167916123b491906134af565b6000604051808303816000865af19150503d80600081146123f1576040519150601f19603f3d011682016040523d82523d6000602084013e6123f6565b606091505b50915091508161240757601561241b565b8080602001905181019061241b91906135cf565b9250600383900b6016146124715760405162461bcd60e51b815260206004820152601b60248201527f5361666520746f6b656e207472616e73666572206661696c6564210000000000604482015260640161106a565b50505050505050565b336000908152600f602052604090206003015460ff166125a557600e5460005b8181101561255e576000600e82815481106124b7576124b7613224565b60009182526020808320909101546001600160a01b031680835260108252604080842054338552600f8452818520838652600201845281852055805163053aa6f360e11b815290519194508493630a754de693600480840194919391929183900301908290875af1158015612530573d6000803e3d6000fd5b505050506040513d601f19601f8201168201806040525081019061255491906130b5565b505060010161249a565b50336000908152600f6020526040812083815560038101805460ff1916600190811790915542910155600d805484929061259990849061327f565b90915550611ede915050565b6125af60006111ab565b5050336000908152600f6020526040812080548392906125d090849061327f565b9091555050336000908152600f6020526040812042600190910155600d80548392906125fd90849061327f565b909155505050565b600a546001600160a01b031633146111a9573360405163118cdaa760e01b815260040161106a9190612eda565b600a80546001600160a01b038381166001600160a01b0319831681179093556040519116919082907f8be0079c531659141344cd1fd0a4f28419497f9722a3daafe3b4186f6b6457e090600090a35050565b6008546009546000916001600160a01b03169082906126a49085906120ca565b905080826001600160a01b03166370a08231306040518263ffffffff1660e01b81526004016126d39190612eda565b602060405180830381865afa1580156126f0573d6000803e3d6000fd5b505050506040513d601f19601f8201168201806040525081019061271491906130b5565b10156127625760405162461bcd60e51b815260206004820152601e60248201527f46433a20496e73756666696369656e7420746f6b656e2062616c616e63650000604482015260640161106a565b60075461277c906001600160a01b03848116911683612b8b565b612786818561311e565b949350505050565b604080516001600160a01b038381166024830152841660448083019190915282518083039091018152606490910182526020810180516001600160e01b031663248a35ef60e11b179052905160009182918291610167916127ef91906134af565b6000604051808303816000865af19150503d806000811461282c576040519150601f19603f3d011682016040523d82523d6000602084013e612831565b606091505b509150915081612842576015612856565b8080602001905181019061285691906135cf565b9250600383900b6016146121f75760405162461bcd60e51b815260206004820152601f60248201527f536166652073696e676c65206173736f63696174696f6e206661696c65642100604482015260640161106a565b6128b660006111ab565b5050336000908152600f6020526040812080548392906128d790849061311e565b9250508190555080600d60008282546125fd919061311e565b6000806000806101676001600160a01b031663acb9cff960e01b88888860405160240161291f939291906135ea565b60408051601f198184030181529181526020820180516001600160e01b03166001600160e01b031990941693909317909252905161295d91906134af565b6000604051808303816000865af19150503d806000811461299a576040519150601f19603f3d011682016040523d82523d6000602084013e61299f565b606091505b5091509150816129b257601560006129c6565b808060200190518101906129c69190613655565b94509250600383900b601614612a125760405162461bcd60e51b815260206004820152601160248201527053616665206275726e206661696c65642160781b604482015260640161106a565b5050509392505050565b600060405163a9059cbb60e01b8152836004820152826024820152602060006044836000895af13d15601f3d1160016000511416171691505080610e115760405162461bcd60e51b815260206004820152600f60248201526e1514905394d1915497d19052531151608a1b604482015260640161106a565b6127108110612ad75760405162461bcd60e51b815260206004820152600f60248201526e46433a20496e76616c69642066656560881b604482015260640161106a565b600780546001600160a01b038581166001600160a01b0319928316811790935560088054918616919092168117909155600983905560408051928352602083019190915281018290527febd34b2df88ea5c9f67c04b13b08e5e63c2d17e269aab73b866fe47a8736a2649060600160405180910390a1505050565b612b5c82826112fc565b611e9f5760405163e2517d3f60e01b81526001600160a01b03821660048201526024810183905260440161106a565b604080516001600160a01b03848116602483015260448083018590528351808403909101815260649092019092526020810180516001600160e01b031663a9059cbb60e01b179052610f8291859190600090612be990841683612c2e565b90508051600014158015612c0e575080806020019051810190612c0c919061367f565b155b15610f825782604051635274afe760e01b815260040161106a9190612eda565b6060610cd18383600084600080856001600160a01b03168486604051612c5491906134af565b60006040518083038185875af1925050503d8060008114612c91576040519150601f19603f3d011682016040523d82523d6000602084013e612c96565b606091505b5091509150612ca6868383612cb0565b9695505050505050565b606082612cc057610cca82612cfe565b8151158015612cd757506001600160a01b0384163b155b15612cf75783604051639996b31560e01b815260040161106a9190612eda565b5080610cd1565b805115612d0e5780518082602001fd5b604051630a12f52160e11b815260040160405180910390fd5b600060208284031215612d3957600080fd5b81356001600160e01b031981168114610cd157600080fd5b60005b83811015612d6c578181015183820152602001612d54565b50506000910152565b60008151808452612d8d816020860160208601612d51565b601f01601f19169290920160200192915050565b602081526000610cd16020830184612d75565b80356001600160a01b0381168114612dcb57600080fd5b919050565b60008060408385031215612de357600080fd5b612dec83612db4565b946020939093013593505050565b600060208284031215612e0c57600080fd5b5035919050565b600060208284031215612e2557600080fd5b610cd182612db4565b600080600060608486031215612e4357600080fd5b612e4c84612db4565b9250612e5a60208501612db4565b9150604084013590509250925092565b60008060408385031215612e7d57600080fd5b82359150612e8d60208401612db4565b90509250929050565b6020808252825182820181905260009190848201906040850190845b81811015612ece57835183529284019291840191600101612eb2565b50909695505050505050565b6001600160a01b0391909116815260200190565b60008060408385031215612f0157600080fd5b612f0a83612db4565b9150612e8d60208401612db4565b600080600060608486031215612f2d57600080fd5b83359250612f3d60208501612db4565b9150612f4b60408501612db4565b90509250925092565b6020808252825182820181905260009190848201906040850190845b81811015612ece5783516001600160a01b031683529284019291840191600101612f70565b600080600080600080600060e0888a031215612fb057600080fd5b612fb988612db4565b9650612fc760208901612db4565b95506040880135945060608801359350608088013560ff81168114612feb57600080fd5b9699959850939692959460a0840135945060c09093013592915050565b634e487b7160e01b600052604160045260246000fd5b604051601f8201601f191681016001600160401b038111828210171561304657613046613008565b604052919050565b60006060828403121561306057600080fd5b604051606081018181106001600160401b038211171561308257613082613008565b60405261308e83612db4565b815261309c60208401612db4565b6020820152604083013560408201528091505092915050565b6000602082840312156130c757600080fd5b5051919050565b600181811c908216806130e257607f821691505b60208210810361310257634e487b7160e01b600052602260045260246000fd5b50919050565b634e487b7160e01b600052601160045260246000fd5b81810381811115610b1e57610b1e613108565b600181815b8085111561316c57816000190482111561315257613152613108565b8085161561315f57918102915b93841c9390800290613136565b509250929050565b60008261318357506001610b1e565b8161319057506000610b1e565b81600181146131a657600281146131b0576131cc565b6001915050610b1e565b60ff8411156131c1576131c1613108565b50506001821b610b1e565b5060208310610133831016604e8410600b84101617156131ef575081810a610b1e565b6131f98383613131565b806000190482111561320d5761320d613108565b029392505050565b6000610cd160ff841683613174565b634e487b7160e01b600052603260045260246000fd5b60208082526025908201527f4865646572615661756c743a20496e76616c6964207265636569766572206164604082015264647265737360d81b606082015260800190565b80820180821115610b1e57610b1e613108565b60208082526021908201527f4865646572615661756c743a20496e76616c69642066726f6d206164647265736040820152607360f81b606082015260800190565b6020808252601890820152774865646572615661756c743a205a65726f2061737365747360401b604082015260600190565b6020808252602c908201527f4865646572615661756c743a204e6f7420656e6f756768207368617265206f6e60408201526b207468652062616c616e636560a01b606082015260800190565b60008083548160018260011c9150600183168061336f57607f831692505b6020808410820361338e57634e487b7160e01b86526022600452602486fd5b8180156133a257600181146133b7576133e4565b60ff19861689528415158502890196506133e4565b60008a81526020902060005b868110156133dc5781548b8201529085019083016133c3565b505084890196505b509498975050505050505050565b8082028115828204841417610b1e57610b1e613108565b60008261342657634e487b7160e01b600052601260045260246000fd5b500490565b60006060820160018060a01b038616835260206001600160401b03861660208501526060604085015281855180845260808601915060808160051b87010193506020870160005b828110156134a057607f1988870301845261348e868351612d75565b95509284019290840190600101613472565b50939998505050505050505050565b600082516134c1818460208701612d51565b9190910192915050565b8051600381900b8114612dcb57600080fd5b80516001600160401b0381168114612dcb57600080fd5b60008060006060848603121561350957600080fd5b613512846134cb565b925060206135218186016134dd565b925060408501516001600160401b038082111561353d57600080fd5b818701915087601f83011261355157600080fd5b81518181111561356357613563613008565b8060051b915061357484830161301e565b818152918301840191848101908a84111561358e57600080fd5b938501935b838510156135bf57845192508260070b83146135af5760008081fd5b8282529385019390850190613593565b8096505050505050509250925092565b6000602082840312156135e157600080fd5b610cd1826134cb565b6001600160a01b03841681526001600160401b0383166020808301919091526060604083018190528351908301819052600091848101916080850190845b8181101561364757845160070b83529383019391830191600101613628565b509098975050505050505050565b6000806040838503121561366857600080fd5b613671836134cb565b9150612e8d602084016134dd565b60006020828403121561369157600080fd5b81518015158114610cd157600080fdfea2646970667358221220f9c6ed69bdba2c75db5f8ac78f0631c33ec1be072ee92157661c81eebb2ff18a64736f6c63430008180033",
  "linkReferences": {},
  "deployedLinkReferences": {}
}