{
  "_format": "hh-sol-artifact-1",
  "contractName": "HederaVault",
  "sourceName": "contracts/erc4626/Vault.sol",
  "abi": [
    {
      "inputs": [
        {
          "internalType": "contract ERC20",
          "name": "_underlying",
          "type": "address"
        },
        {
          "internalType": "string",
          "name": "_name",
          "type": "string"
        },
        {
          "internalType": "string",
          "name": "_symbol",
          "type": "string"
        },
        {
          "components": [
            {
              "internalType": "address",
              "name": "receiver",
              "type": "address"
            },
            {
              "internalType": "address",
              "name": "token",
              "type": "address"
            },
            {
              "internalType": "uint256",
              "name": "feePercentage",
              "type": "uint256"
            }
          ],
          "internalType": "struct FeeConfiguration.FeeConfig",
          "name": "_feeConfig",
          "type": "tuple"
        },
        {
          "internalType": "address",
          "name": "_vaultRewardController",
          "type": "address"
        },
        {
          "internalType": "address",
          "name": "_feeConfigController",
          "type": "address"
        }
      ],
      "stateMutability": "payable",
      "type": "constructor"
    },
    {
      "inputs": [],
      "name": "AccessControlBadConfirmation",
      "type": "error"
    },
    {
      "inputs": [
        {
          "internalType": "address",
          "name": "account",
          "type": "address"
        },
        {
          "internalType": "bytes32",
          "name": "neededRole",
          "type": "bytes32"
        }
      ],
      "name": "AccessControlUnauthorizedAccount",
      "type": "error"
    },
    {
      "inputs": [],
      "name": "MaxRewardTokensAmount",
      "type": "error"
    },
    {
      "inputs": [
        {
          "internalType": "address",
          "name": "owner",
          "type": "address"
        }
      ],
      "name": "OwnableInvalidOwner",
      "type": "error"
    },
    {
      "inputs": [
        {
          "internalType": "address",
          "name": "account",
          "type": "address"
        }
      ],
      "name": "OwnableUnauthorizedAccount",
      "type": "error"
    },
    {
      "inputs": [],
      "name": "ReentrancyGuardReentrantCall",
      "type": "error"
    },
    {
      "inputs": [
        {
          "internalType": "uint256",
          "name": "numberOfShares",
          "type": "uint256"
        }
      ],
      "name": "ZeroShares",
      "type": "error"
    },
    {
      "anonymous": false,
      "inputs": [
        {
          "indexed": true,
          "internalType": "address",
          "name": "owner",
          "type": "address"
        },
        {
          "indexed": true,
          "internalType": "address",
          "name": "spender",
          "type": "address"
        },
        {
          "indexed": false,
          "internalType": "uint256",
          "name": "amount",
          "type": "uint256"
        }
      ],
      "name": "Approval",
      "type": "event"
    },
    {
      "anonymous": false,
      "inputs": [
        {
          "indexed": true,
          "internalType": "address",
          "name": "createdToken",
          "type": "address"
        }
      ],
      "name": "CreatedToken",
      "type": "event"
    },
    {
      "anonymous": false,
      "inputs": [
        {
          "indexed": true,
          "internalType": "address",
          "name": "sender",
          "type": "address"
        },
        {
          "indexed": true,
          "internalType": "address",
          "name": "receiver",
          "type": "address"
        },
        {
          "indexed": false,
          "internalType": "uint256",
          "name": "assets",
          "type": "uint256"
        },
        {
          "indexed": false,
          "internalType": "uint256",
          "name": "shares",
          "type": "uint256"
        }
      ],
      "name": "Deposit",
      "type": "event"
    },
    {
      "anonymous": false,
      "inputs": [
        {
          "components": [
            {
              "internalType": "address",
              "name": "receiver",
              "type": "address"
            },
            {
              "internalType": "address",
              "name": "token",
              "type": "address"
            },
            {
              "internalType": "uint256",
              "name": "feePercentage",
              "type": "uint256"
            }
          ],
          "indexed": false,
          "internalType": "struct FeeConfiguration.FeeConfig",
          "name": "feeConfig",
          "type": "tuple"
        }
      ],
      "name": "FeeConfigUpdated",
      "type": "event"
    },
    {
      "anonymous": false,
      "inputs": [
        {
          "indexed": true,
          "internalType": "address",
          "name": "previousOwner",
          "type": "address"
        },
        {
          "indexed": true,
          "internalType": "address",
          "name": "newOwner",
          "type": "address"
        }
      ],
      "name": "OwnershipTransferred",
      "type": "event"
    },
    {
      "anonymous": false,
      "inputs": [
        {
          "indexed": true,
          "internalType": "address",
          "name": "rewardToken",
          "type": "address"
        },
        {
          "indexed": false,
          "internalType": "uint256",
          "name": "amount",
          "type": "uint256"
        }
      ],
      "name": "RewardAdded",
      "type": "event"
    },
    {
      "anonymous": false,
      "inputs": [
        {
          "indexed": true,
          "internalType": "bytes32",
          "name": "role",
          "type": "bytes32"
        },
        {
          "indexed": true,
          "internalType": "bytes32",
          "name": "previousAdminRole",
          "type": "bytes32"
        },
        {
          "indexed": true,
          "internalType": "bytes32",
          "name": "newAdminRole",
          "type": "bytes32"
        }
      ],
      "name": "RoleAdminChanged",
      "type": "event"
    },
    {
      "anonymous": false,
      "inputs": [
        {
          "indexed": true,
          "internalType": "bytes32",
          "name": "role",
          "type": "bytes32"
        },
        {
          "indexed": true,
          "internalType": "address",
          "name": "account",
          "type": "address"
        },
        {
          "indexed": true,
          "internalType": "address",
          "name": "sender",
          "type": "address"
        }
      ],
      "name": "RoleGranted",
      "type": "event"
    },
    {
      "anonymous": false,
      "inputs": [
        {
          "indexed": true,
          "internalType": "bytes32",
          "name": "role",
          "type": "bytes32"
        },
        {
          "indexed": true,
          "internalType": "address",
          "name": "account",
          "type": "address"
        },
        {
          "indexed": true,
          "internalType": "address",
          "name": "sender",
          "type": "address"
        }
      ],
      "name": "RoleRevoked",
      "type": "event"
    },
    {
      "anonymous": false,
      "inputs": [
        {
          "indexed": true,
          "internalType": "address",
          "name": "from",
          "type": "address"
        },
        {
          "indexed": true,
          "internalType": "address",
          "name": "to",
          "type": "address"
        },
        {
          "indexed": false,
          "internalType": "uint256",
          "name": "amount",
          "type": "uint256"
        }
      ],
      "name": "Transfer",
      "type": "event"
    },
    {
      "anonymous": false,
      "inputs": [
        {
          "indexed": true,
          "internalType": "address",
          "name": "sender",
          "type": "address"
        },
        {
          "indexed": true,
          "internalType": "address",
          "name": "receiver",
          "type": "address"
        },
        {
          "indexed": false,
          "internalType": "uint256",
          "name": "assets",
          "type": "uint256"
        },
        {
          "indexed": false,
          "internalType": "uint256",
          "name": "shares",
          "type": "uint256"
        }
      ],
      "name": "Withdraw",
      "type": "event"
    },
    {
      "inputs": [],
      "name": "DEFAULT_ADMIN_ROLE",
      "outputs": [
        {
          "internalType": "bytes32",
          "name": "",
          "type": "bytes32"
        }
      ],
      "stateMutability": "view",
      "type": "function"
    },
    {
      "inputs": [],
      "name": "DOMAIN_SEPARATOR",
      "outputs": [
        {
          "internalType": "bytes32",
          "name": "",
          "type": "bytes32"
        }
      ],
      "stateMutability": "view",
      "type": "function"
    },
    {
      "inputs": [],
      "name": "FEE_CONFIG_CONTROLLER_ROLE",
      "outputs": [
        {
          "internalType": "bytes32",
          "name": "",
          "type": "bytes32"
        }
      ],
      "stateMutability": "view",
      "type": "function"
    },
    {
      "inputs": [],
      "name": "VAULT_REWARD_CONTROLLER_ROLE",
      "outputs": [
        {
          "internalType": "bytes32",
          "name": "",
          "type": "bytes32"
        }
      ],
      "stateMutability": "view",
      "type": "function"
    },
    {
      "inputs": [],
      "name": "_asset",
      "outputs": [
        {
          "internalType": "contract ERC20",
          "name": "",
          "type": "address"
        }
      ],
      "stateMutability": "view",
      "type": "function"
    },
    {
      "inputs": [],
      "name": "_share",
      "outputs": [
        {
          "internalType": "address",
          "name": "",
          "type": "address"
        }
      ],
      "stateMutability": "view",
      "type": "function"
    },
    {
      "inputs": [
        {
          "internalType": "address",
          "name": "_token",
          "type": "address"
        },
        {
          "internalType": "uint256",
          "name": "_amount",
          "type": "uint256"
        }
      ],
      "name": "addReward",
      "outputs": [],
      "stateMutability": "payable",
      "type": "function"
    },
    {
      "inputs": [
        {
          "internalType": "address",
          "name": "",
          "type": "address"
        },
        {
          "internalType": "address",
          "name": "",
          "type": "address"
        }
      ],
      "name": "allowance",
      "outputs": [
        {
          "internalType": "uint256",
          "name": "",
          "type": "uint256"
        }
      ],
      "stateMutability": "view",
      "type": "function"
    },
    {
      "inputs": [
        {
          "internalType": "address",
          "name": "spender",
          "type": "address"
        },
        {
          "internalType": "uint256",
          "name": "amount",
          "type": "uint256"
        }
      ],
      "name": "approve",
      "outputs": [
        {
          "internalType": "bool",
          "name": "",
          "type": "bool"
        }
      ],
      "stateMutability": "nonpayable",
      "type": "function"
    },
    {
      "inputs": [],
      "name": "asset",
      "outputs": [
        {
          "internalType": "address",
          "name": "",
          "type": "address"
        }
      ],
      "stateMutability": "view",
      "type": "function"
    },
    {
      "inputs": [],
      "name": "assetTotalSupply",
      "outputs": [
        {
          "internalType": "uint256",
          "name": "",
          "type": "uint256"
        }
      ],
      "stateMutability": "view",
      "type": "function"
    },
    {
      "inputs": [
        {
          "internalType": "address",
          "name": "user",
          "type": "address"
        }
      ],
      "name": "assetsOf",
      "outputs": [
        {
          "internalType": "uint256",
          "name": "",
          "type": "uint256"
        }
      ],
      "stateMutability": "view",
      "type": "function"
    },
    {
      "inputs": [],
      "name": "assetsPerShare",
      "outputs": [
        {
          "internalType": "uint256",
          "name": "",
          "type": "uint256"
        }
      ],
      "stateMutability": "view",
      "type": "function"
    },
    {
      "inputs": [
        {
          "internalType": "address",
          "name": "",
          "type": "address"
        }
      ],
      "name": "balanceOf",
      "outputs": [
        {
          "internalType": "uint256",
          "name": "",
          "type": "uint256"
        }
      ],
      "stateMutability": "view",
      "type": "function"
    },
    {
      "inputs": [
        {
          "internalType": "uint256",
          "name": "_startPosition",
          "type": "uint256"
        }
      ],
      "name": "claimAllReward",
      "outputs": [
        {
          "internalType": "uint256",
          "name": "",
          "type": "uint256"
        },
        {
          "internalType": "uint256",
          "name": "",
          "type": "uint256"
        }
      ],
      "stateMutability": "payable",
      "type": "function"
    },
    {
      "inputs": [],
      "name": "decimals",
      "outputs": [
        {
          "internalType": "uint8",
          "name": "",
          "type": "uint8"
        }
      ],
      "stateMutability": "view",
      "type": "function"
    },
    {
      "inputs": [
        {
          "internalType": "uint256",
          "name": "assets",
          "type": "uint256"
        },
        {
          "internalType": "address",
          "name": "receiver",
          "type": "address"
        }
      ],
      "name": "deposit",
      "outputs": [
        {
          "internalType": "uint256",
          "name": "shares",
          "type": "uint256"
        }
      ],
      "stateMutability": "nonpayable",
      "type": "function"
    },
    {
      "inputs": [],
      "name": "feeConfig",
      "outputs": [
        {
          "internalType": "address",
          "name": "receiver",
          "type": "address"
        },
        {
          "internalType": "address",
          "name": "token",
          "type": "address"
        },
        {
          "internalType": "uint256",
          "name": "feePercentage",
          "type": "uint256"
        }
      ],
      "stateMutability": "view",
      "type": "function"
    },
    {
      "inputs": [
        {
          "internalType": "address",
          "name": "_user",
          "type": "address"
        }
      ],
      "name": "getAllRewards",
      "outputs": [
        {
          "internalType": "uint256[]",
          "name": "",
          "type": "uint256[]"
        }
      ],
      "stateMutability": "view",
      "type": "function"
    },
    {
      "inputs": [],
      "name": "getRewardTokens",
      "outputs": [
        {
          "internalType": "address[]",
          "name": "",
          "type": "address[]"
        }
      ],
      "stateMutability": "view",
      "type": "function"
    },
    {
      "inputs": [
        {
          "internalType": "bytes32",
          "name": "role",
          "type": "bytes32"
        }
      ],
      "name": "getRoleAdmin",
      "outputs": [
        {
          "internalType": "bytes32",
          "name": "",
          "type": "bytes32"
        }
      ],
      "stateMutability": "view",
      "type": "function"
    },
    {
      "inputs": [
        {
          "internalType": "address",
          "name": "_user",
          "type": "address"
        },
        {
          "internalType": "address",
          "name": "_rewardToken",
          "type": "address"
        }
      ],
      "name": "getUserReward",
      "outputs": [
        {
          "internalType": "uint256",
          "name": "unclaimedAmount",
          "type": "uint256"
        }
      ],
      "stateMutability": "view",
      "type": "function"
    },
    {
      "inputs": [
        {
          "internalType": "bytes32",
          "name": "role",
          "type": "bytes32"
        },
        {
          "internalType": "address",
          "name": "account",
          "type": "address"
        }
      ],
      "name": "grantRole",
      "outputs": [],
      "stateMutability": "nonpayable",
      "type": "function"
    },
    {
      "inputs": [
        {
          "internalType": "bytes32",
          "name": "role",
          "type": "bytes32"
        },
        {
          "internalType": "address",
          "name": "account",
          "type": "address"
        }
      ],
      "name": "hasRole",
      "outputs": [
        {
          "internalType": "bool",
          "name": "",
          "type": "bool"
        }
      ],
      "stateMutability": "view",
      "type": "function"
    },
    {
      "inputs": [
        {
          "internalType": "address",
          "name": "",
          "type": "address"
        }
      ],
      "name": "maxDeposit",
      "outputs": [
        {
          "internalType": "uint256",
          "name": "",
          "type": "uint256"
        }
      ],
      "stateMutability": "pure",
      "type": "function"
    },
    {
      "inputs": [
        {
          "internalType": "address",
          "name": "",
          "type": "address"
        }
      ],
      "name": "maxMint",
      "outputs": [
        {
          "internalType": "uint256",
          "name": "",
          "type": "uint256"
        }
      ],
      "stateMutability": "pure",
      "type": "function"
    },
    {
      "inputs": [
        {
          "internalType": "address",
          "name": "user",
          "type": "address"
        }
      ],
      "name": "maxRedeem",
      "outputs": [
        {
          "internalType": "uint256",
          "name": "",
          "type": "uint256"
        }
      ],
      "stateMutability": "view",
      "type": "function"
    },
    {
      "inputs": [
        {
          "internalType": "address",
          "name": "user",
          "type": "address"
        }
      ],
      "name": "maxWithdraw",
      "outputs": [
        {
          "internalType": "uint256",
          "name": "",
          "type": "uint256"
        }
      ],
      "stateMutability": "view",
      "type": "function"
    },
    {
      "inputs": [
        {
          "internalType": "uint256",
          "name": "shares",
          "type": "uint256"
        },
        {
          "internalType": "address",
          "name": "to",
          "type": "address"
        }
      ],
      "name": "mint",
      "outputs": [
        {
          "internalType": "uint256",
          "name": "amount",
          "type": "uint256"
        }
      ],
      "stateMutability": "nonpayable",
      "type": "function"
    },
    {
      "inputs": [],
      "name": "name",
      "outputs": [
        {
          "internalType": "string",
          "name": "",
          "type": "string"
        }
      ],
      "stateMutability": "view",
      "type": "function"
    },
    {
      "inputs": [
        {
          "internalType": "address",
          "name": "",
          "type": "address"
        }
      ],
      "name": "nonces",
      "outputs": [
        {
          "internalType": "uint256",
          "name": "",
          "type": "uint256"
        }
      ],
      "stateMutability": "view",
      "type": "function"
    },
    {
      "inputs": [],
      "name": "owner",
      "outputs": [
        {
          "internalType": "address",
          "name": "",
          "type": "address"
        }
      ],
      "stateMutability": "view",
      "type": "function"
    },
    {
      "inputs": [
        {
          "internalType": "address",
          "name": "owner",
          "type": "address"
        },
        {
          "internalType": "address",
          "name": "spender",
          "type": "address"
        },
        {
          "internalType": "uint256",
          "name": "value",
          "type": "uint256"
        },
        {
          "internalType": "uint256",
          "name": "deadline",
          "type": "uint256"
        },
        {
          "internalType": "uint8",
          "name": "v",
          "type": "uint8"
        },
        {
          "internalType": "bytes32",
          "name": "r",
          "type": "bytes32"
        },
        {
          "internalType": "bytes32",
          "name": "s",
          "type": "bytes32"
        }
      ],
      "name": "permit",
      "outputs": [],
      "stateMutability": "nonpayable",
      "type": "function"
    },
    {
      "inputs": [
        {
          "internalType": "uint256",
          "name": "amount",
          "type": "uint256"
        }
      ],
      "name": "previewDeposit",
      "outputs": [
        {
          "internalType": "uint256",
          "name": "shares",
          "type": "uint256"
        }
      ],
      "stateMutability": "view",
      "type": "function"
    },
    {
      "inputs": [
        {
          "internalType": "uint256",
          "name": "shares",
          "type": "uint256"
        }
      ],
      "name": "previewMint",
      "outputs": [
        {
          "internalType": "uint256",
          "name": "amount",
          "type": "uint256"
        }
      ],
      "stateMutability": "view",
      "type": "function"
    },
    {
      "inputs": [
        {
          "internalType": "uint256",
          "name": "shares",
          "type": "uint256"
        }
      ],
      "name": "previewRedeem",
      "outputs": [
        {
          "internalType": "uint256",
          "name": "amount",
          "type": "uint256"
        }
      ],
      "stateMutability": "view",
      "type": "function"
    },
    {
      "inputs": [
        {
          "internalType": "uint256",
          "name": "amount",
          "type": "uint256"
        }
      ],
      "name": "previewWithdraw",
      "outputs": [
        {
          "internalType": "uint256",
          "name": "shares",
          "type": "uint256"
        }
      ],
      "stateMutability": "view",
      "type": "function"
    },
    {
      "inputs": [
        {
          "internalType": "uint256",
          "name": "shares",
          "type": "uint256"
        },
        {
          "internalType": "address",
          "name": "receiver",
          "type": "address"
        },
        {
          "internalType": "address",
          "name": "from",
          "type": "address"
        }
      ],
      "name": "redeem",
      "outputs": [
        {
          "internalType": "uint256",
          "name": "amount",
          "type": "uint256"
        }
      ],
      "stateMutability": "nonpayable",
      "type": "function"
    },
    {
      "inputs": [],
      "name": "renounceOwnership",
      "outputs": [],
      "stateMutability": "nonpayable",
      "type": "function"
    },
    {
      "inputs": [
        {
          "internalType": "bytes32",
          "name": "role",
          "type": "bytes32"
        },
        {
          "internalType": "address",
          "name": "callerConfirmation",
          "type": "address"
        }
      ],
      "name": "renounceRole",
      "outputs": [],
      "stateMutability": "nonpayable",
      "type": "function"
    },
    {
      "inputs": [
        {
          "internalType": "bytes32",
          "name": "role",
          "type": "bytes32"
        },
        {
          "internalType": "address",
          "name": "account",
          "type": "address"
        }
      ],
      "name": "revokeRole",
      "outputs": [],
      "stateMutability": "nonpayable",
      "type": "function"
    },
    {
      "inputs": [
        {
          "internalType": "uint256",
          "name": "",
          "type": "uint256"
        }
      ],
      "name": "rewardTokens",
      "outputs": [
        {
          "internalType": "address",
          "name": "",
          "type": "address"
        }
      ],
      "stateMutability": "view",
      "type": "function"
    },
    {
      "inputs": [],
      "name": "share",
      "outputs": [
        {
          "internalType": "address",
          "name": "",
          "type": "address"
        }
      ],
      "stateMutability": "view",
      "type": "function"
    },
    {
      "inputs": [
        {
          "internalType": "bytes4",
          "name": "interfaceId",
          "type": "bytes4"
        }
      ],
      "name": "supportsInterface",
      "outputs": [
        {
          "internalType": "bool",
          "name": "",
          "type": "bool"
        }
      ],
      "stateMutability": "view",
      "type": "function"
    },
    {
      "inputs": [],
      "name": "symbol",
      "outputs": [
        {
          "internalType": "string",
          "name": "",
          "type": "string"
        }
      ],
      "stateMutability": "view",
      "type": "function"
    },
    {
      "inputs": [
        {
          "internalType": "address",
          "name": "",
          "type": "address"
        }
      ],
      "name": "tokensRewardInfo",
      "outputs": [
        {
          "internalType": "uint256",
          "name": "amount",
          "type": "uint256"
        },
        {
          "internalType": "bool",
          "name": "exist",
          "type": "bool"
        }
      ],
      "stateMutability": "view",
      "type": "function"
    },
    {
      "inputs": [],
      "name": "totalAssets",
      "outputs": [
        {
          "internalType": "uint256",
          "name": "",
          "type": "uint256"
        }
      ],
      "stateMutability": "view",
      "type": "function"
    },
    {
      "inputs": [],
      "name": "totalSupply",
      "outputs": [
        {
          "internalType": "uint256",
          "name": "",
          "type": "uint256"
        }
      ],
      "stateMutability": "view",
      "type": "function"
    },
    {
      "inputs": [
        {
          "internalType": "address",
          "name": "to",
          "type": "address"
        },
        {
          "internalType": "uint256",
          "name": "amount",
          "type": "uint256"
        }
      ],
      "name": "transfer",
      "outputs": [
        {
          "internalType": "bool",
          "name": "",
          "type": "bool"
        }
      ],
      "stateMutability": "nonpayable",
      "type": "function"
    },
    {
      "inputs": [
        {
          "internalType": "address",
          "name": "from",
          "type": "address"
        },
        {
          "internalType": "address",
          "name": "to",
          "type": "address"
        },
        {
          "internalType": "uint256",
          "name": "amount",
          "type": "uint256"
        }
      ],
      "name": "transferFrom",
      "outputs": [
        {
          "internalType": "bool",
          "name": "",
          "type": "bool"
        }
      ],
      "stateMutability": "nonpayable",
      "type": "function"
    },
    {
      "inputs": [
        {
          "internalType": "address",
          "name": "newOwner",
          "type": "address"
        }
      ],
      "name": "transferOwnership",
      "outputs": [],
      "stateMutability": "nonpayable",
      "type": "function"
    },
    {
      "inputs": [
        {
          "components": [
            {
              "internalType": "address",
              "name": "receiver",
              "type": "address"
            },
            {
              "internalType": "address",
              "name": "token",
              "type": "address"
            },
            {
              "internalType": "uint256",
              "name": "feePercentage",
              "type": "uint256"
            }
          ],
          "internalType": "struct FeeConfiguration.FeeConfig",
          "name": "_feeConfig",
          "type": "tuple"
        }
      ],
      "name": "updateFeeConfig",
      "outputs": [],
      "stateMutability": "nonpayable",
      "type": "function"
    },
    {
      "inputs": [
        {
          "internalType": "address",
          "name": "",
          "type": "address"
        }
      ],
      "name": "userContribution",
      "outputs": [
        {
          "internalType": "uint256",
          "name": "sharesAmount",
          "type": "uint256"
        },
        {
          "internalType": "uint256",
          "name": "lastLockedTime",
          "type": "uint256"
        },
        {
          "internalType": "bool",
          "name": "exist",
          "type": "bool"
        }
      ],
      "stateMutability": "view",
      "type": "function"
    },
    {
      "inputs": [
        {
          "internalType": "uint256",
          "name": "amount",
          "type": "uint256"
        },
        {
          "internalType": "address",
          "name": "receiver",
          "type": "address"
        },
        {
          "internalType": "address",
          "name": "from",
          "type": "address"
        }
      ],
      "name": "withdraw",
      "outputs": [
        {
          "internalType": "uint256",
          "name": "shares",
          "type": "uint256"
        }
      ],
      "stateMutability": "nonpayable",
      "type": "function"
    }
  ],
  "bytecode": "0x6101006040526040516200448738038062004487833981016040819052620000279162000b0a565b338585886001600160a01b031663313ce5676040518163ffffffff1660e01b8152600401602060405180830381865afa15801562000069573d6000803e3d6000fd5b505050506040513d601f19601f820116820180604052508101906200008f919062000c03565b60006200009d848262000cc0565b506001620000ac838262000cc0565b5060ff81166080524660a052620000c26200013c565b60c0525050506001600160a01b038116620000f857604051631e4fbdf760e01b8152600060048201526024015b60405180910390fd5b6200010381620001d8565b506001600b55620001168383836200022a565b6001600160a01b03861660e05262000130858588620002b0565b505050505050620010d7565b60007f8b73c3c69bb8fe3d512ecc4cf759cc79239f7b179b0ffacaa9a75d522b39400f600060405162000170919062000d8c565b6040805191829003822060208301939093528101919091527fc89efdaa54c0f20c7adf612882df0950f5a951637e0307cdcb4c672f298b8bc660608201524660808201523060a082015260c00160405160208183030381529060405280519060200120905090565b600a80546001600160a01b038381166001600160a01b0319831681179093556040519116919082907f8be0079c531659141344cd1fd0a4f28419497f9722a3daafe3b4186f6b6457e090600090a35050565b8251602084015160408501516200024392919062000553565b6200025060003362000613565b506200027d7f477fc23fb51bb5d5aa814872a393b0e4f35d0916c7503c0fd96584681070d4108362000613565b50620002aa7f74e458455daa935f28c556b43e0cc4ad001a8a090f5feee376681e97d4618f468262000613565b50505050565b620002bc8130620006c6565b6040805160a08082018352600080835260208084018290526060848601819052808501819052306080808701829052875195860188528486528584018590528588018390528583018390528501528551600280825291810190965260109560019594939290919082015b6200033062000989565b815260200190600190039081620003265790505090506040518060400160405280868152602001848152508160008151811062000371576200037162000e0a565b602002602001018190525060405180604001604052808581526020018381525081600181518110620003a757620003a762000e0a565b6020026020010181905250620003ec6040518060600160405280600063ffffffff16815260200160006001600160a01b03168152602001600063ffffffff1681525090565b306020820152627a120060408201526200046260408051610120810182526060808252602080830182905260008385018190528284018390526080840181905260a0840181905260c0840181905260e0840183905284519283018552808352908201819052928101929092529061010082015290565b89815260208082018a905230604080840191909152610100830184905260e08301859052805163313ce56760e01b81529051620004ff9284926000926001600160a01b038e169263313ce56792600480820193918290030181865afa158015620004d0573d6000803e3d6000fd5b505050506040513d601f19601f82011682018060405250810190620004f6919062000c03565b60ff16620007f5565b600c80546001600160a01b0319166001600160a01b039290921691821790556040517f7bb17726df1f3adee8aa00ba8e8bc5d6f182af3bbf77604639cb7f008dd3b4ed90600090a250505050505050505050565b6127108110620005985760405162461bcd60e51b815260206004820152600f60248201526e46433a20496e76616c69642066656560881b6044820152606401620000ef565b600780546001600160a01b038581166001600160a01b0319928316811790935560088054918616919092168117909155600983905560408051928352602083019190915281018290527febd34b2df88ea5c9f67c04b13b08e5e63c2d17e269aab73b866fe47a8736a2649060600160405180910390a1505050565b60008281526006602090815260408083206001600160a01b038516845290915281205460ff16620006bc5760008381526006602090815260408083206001600160a01b03861684529091529020805460ff19166001179055620006733390565b6001600160a01b0316826001600160a01b0316847f2f8788117e7eff1d82e926ec794901d17c78024a50270940304540a733656f0d60405160405180910390a4506001620006c0565b5060005b92915050565b604080516001600160a01b038381166024830152841660448083019190915282518083039091018152606490910182526020810180516001600160e01b031663248a35ef60e11b1790529051600091829182916101679162000729919062000e20565b6000604051808303816000865af19150503d806000811462000768576040519150601f19603f3d011682016040523d82523d6000602084013e6200076d565b606091505b5091509150816200078057601562000796565b8080602001905181019062000796919062000e51565b9250600383900b601614620007ee5760405162461bcd60e51b815260206004820152601f60248201527f536166652073696e676c65206173736f63696174696f6e206661696c656421006044820152606401620000ef565b5050505050565b61010083015151600090849063ffffffff161580156200082257506101008101516040015163ffffffff16155b1562000839576101008101516276a7006040909101525b60008060006101676001600160a01b031634637812a04b60e01b8a8a8a6040516024016200086a9392919062000f6e565b60408051601f198184030181529181526020820180516001600160e01b03166001600160e01b0319909416939093179092529051620008aa919062000e20565b60006040518083038185875af1925050503d8060008114620008e9576040519150601f19603f3d011682016040523d82523d6000602084013e620008ee565b606091505b50915091508162000903576015600062000919565b808060200190518101906200091991906200109b565b95509250600383900b6016146200097e5760405162461bcd60e51b815260206004820152602260248201527f53616665206372656174652066756e6769626c6520746f6b656e206661696c65604482015261642160f01b6064820152608401620000ef565b505050509392505050565b604051806040016040528060008152602001620009e26040518060a0016040528060001515815260200160006001600160a01b03168152602001606081526020016060815260200160006001600160a01b031681525090565b905290565b6001600160a01b0381168114620009fd57600080fd5b50565b634e487b7160e01b600052604160045260246000fd5b604051606081016001600160401b038111828210171562000a3b5762000a3b62000a00565b60405290565b60005b8381101562000a5e57818101518382015260200162000a44565b50506000910152565b600082601f83011262000a7957600080fd5b81516001600160401b038082111562000a965762000a9662000a00565b604051601f8301601f19908116603f0116810190828211818310171562000ac15762000ac162000a00565b8160405283815286602085880101111562000adb57600080fd5b62000aee84602083016020890162000a41565b9695505050505050565b805162000b0581620009e7565b919050565b60008060008060008086880361010081121562000b2657600080fd5b875162000b3381620009e7565b60208901519097506001600160401b038082111562000b5157600080fd5b62000b5f8b838c0162000a67565b975060408a015191508082111562000b7657600080fd5b5062000b858a828b0162000a67565b9550506060605f198201121562000b9b57600080fd5b5062000ba662000a16565b606088015162000bb681620009e7565b8152608088015162000bc881620009e7565b602082015260a08801516040820152925062000be760c0880162000af8565b915062000bf760e0880162000af8565b90509295509295509295565b60006020828403121562000c1657600080fd5b815160ff8116811462000c2857600080fd5b9392505050565b600181811c9082168062000c4457607f821691505b60208210810362000c6557634e487b7160e01b600052602260045260246000fd5b50919050565b601f82111562000cbb576000816000526020600020601f850160051c8101602086101562000c965750805b601f850160051c820191505b8181101562000cb75782815560010162000ca2565b5050505b505050565b81516001600160401b0381111562000cdc5762000cdc62000a00565b62000cf48162000ced845462000c2f565b8462000c6b565b602080601f83116001811462000d2c576000841562000d135750858301515b600019600386901b1c1916600185901b17855562000cb7565b600085815260208120601f198616915b8281101562000d5d5788860151825594840194600190910190840162000d3c565b508582101562000d7c5787850151600019600388901b60f8161c191681555b5050505050600190811b01905550565b600080835462000d9c8162000c2f565b6001828116801562000db7576001811462000dcd5762000dfe565b60ff198416875282151583028701945062000dfe565b8760005260208060002060005b8581101562000df55781548a82015290840190820162000dda565b50505082870194505b50929695505050505050565b634e487b7160e01b600052603260045260246000fd5b6000825162000e3481846020870162000a41565b9190910192915050565b8051600381900b811462000b0557600080fd5b60006020828403121562000e6457600080fd5b62000c288262000e3e565b6000815180845262000e8981602086016020860162000a41565b601f01601f19169290920160200192915050565b600082825180855260208086019550808260051b84010181860160005b8481101562000f6157858303601f1901895281518051845284015160408585018190528151151581860152818601516001600160a01b039081166060808801919091529183015160a0608080890182905291939092909162000f2060e08a018662000e6f565b92860151898403603f1901858b015292945062000f3e858462000e6f565b9501511660c0979097019690965250509884019892509083019060010162000eba565b5090979650505050505050565b606081526000845161016080606085015262000f8f6101c085018362000e6f565b91506020870151605f198086850301608087015262000faf848362000e6f565b93506040890151915062000fce60a08701836001600160a01b03169052565b60608901519150808685030160c087015262000feb848362000e6f565b9350608089015191506200100360e087018315159052565b60a089015191506101006200101f8188018463ffffffff169052565b60c08a0151151561012088015260e08a0151878603830161014089015292506200104a858462000e9d565b9450808a0151925050506200108782860182805163ffffffff90811683526020808301516001600160a01b03169084015260409182015116910152565b505060208301949094525060400152919050565b60008060408385031215620010af57600080fd5b620010ba8362000e3e565b91506020830151620010cc81620009e7565b809150509250929050565b60805160a05160c05160e051613337620011506000396000818161068101528181610b0f01528181610b4901528181610d14015281816110ff015281816114060152818161151201528181611836015261199201526000610fa701526000610f7701526000818161058f0152610ee001526133376000f3fe6080604052600436106103355760003560e01c80637bb7bed1116101ab578063b4f6d613116100f7578063d547741f11610095578063ef8b30f71161006f578063ef8b30f714610a9d578063efa6f42514610abd578063f2fde38b14610add578063fcea5e2914610afd57600080fd5b8063d547741f14610a0f578063d905777e14610a2f578063dd62ed3e14610a6557600080fd5b8063c63d75b6116100d1578063c63d75b6146106a5578063cd9cdfda14610983578063ce96cb77146109cf578063d505accf146109ef57600080fd5b8063b4f6d6131461090d578063ba08765214610941578063c4f59f9b1461096157600080fd5b806395d89b4111610164578063a8d5fd651161013e578063a8d5fd651461088f578063a9059cbb146108ad578063b3d7f6b9146108cd578063b460af94146108ed57600080fd5b806395d89b41146108525780639feb8f5014610867578063a217fddf1461087a57600080fd5b80637bb7bed1146107915780637ecebe00146107b15780638da5cb5b146107de5780638f12c2f4146107fc57806391d148541461081257806394bf804d1461083257600080fd5b8063313ce56711610285578063402d267d116102235780636e553f65116101fd5780636e553f651461070757806370a0823114610727578063715018a6146107545780637a07bf3a1461076957600080fd5b8063402d267d146106a55780634cdad506146106c75780635ab764ed146106e757600080fd5b8063362a3fad1161025f578063362a3fad146106105780633644e5151461063d57806336568abe1461065257806338d52e0f1461067257600080fd5b8063313ce5671461057d57806332b6d2d3146105c357806335d16e17146105fb57600080fd5b806316ad0672116102f257806323b872dd116102cc57806323b872dd146104eb578063248a9ca31461050b5780632c62fa101461053b5780632f2ff15d1461055b57600080fd5b806316ad06721461042857806318160ddd146104845780631e5eb1d01461049a57600080fd5b806301e1d1141461033a57806301ffc9a71461036257806305fb2a511461039257806306fdde03146103c6578063095ea7b3146103e85780630a28a47714610408575b600080fd5b34801561034657600080fd5b5061034f610b31565b6040519081526020015b60405180910390f35b34801561036e57600080fd5b5061038261037d366004612a82565b610bc1565b6040519015158152602001610359565b34801561039e57600080fd5b5061034f7f74e458455daa935f28c556b43e0cc4ad001a8a090f5feee376681e97d4618f4681565b3480156103d257600080fd5b506103db610bf8565b6040516103599190612afc565b3480156103f457600080fd5b50610382610403366004612b2b565b610c86565b34801561041457600080fd5b5061034f610423366004612b55565b610cf2565b34801561043457600080fd5b50610467610443366004612b6e565b600f6020526000908152604090208054600182015460039092015490919060ff1683565b604080519384526020840192909252151590820152606001610359565b34801561049057600080fd5b5061034f60025481565b3480156104a657600080fd5b506007546008546009546104c5926001600160a01b0390811692169083565b604080516001600160a01b03948516815293909216602084015290820152606001610359565b3480156104f757600080fd5b50610382610506366004612b89565b610da9565b34801561051757600080fd5b5061034f610526366004612b55565b60009081526006602052604090206001015490565b34801561054757600080fd5b5061034f610556366004612b6e565b610e89565b34801561056757600080fd5b5061057b610576366004612bc5565b610eab565b005b34801561058957600080fd5b506105b17f000000000000000000000000000000000000000000000000000000000000000081565b60405160ff9091168152602001610359565b3480156105cf57600080fd5b50600c546105e3906001600160a01b031681565b6040516001600160a01b039091168152602001610359565b34801561060757600080fd5b5061034f610ed6565b34801561061c57600080fd5b5061063061062b366004612b6e565b610f06565b6040516103599190612bf1565b34801561064957600080fd5b5061034f610f73565b34801561065e57600080fd5b5061057b61066d366004612bc5565b610fc9565b34801561067e57600080fd5b507f00000000000000000000000000000000000000000000000000000000000000006105e3565b3480156106b157600080fd5b5061034f6106c0366004612b6e565b5060001990565b3480156106d357600080fd5b5061034f6106e2366004612b55565b611001565b3480156106f357600080fd5b5061034f610702366004612c35565b611023565b34801561071357600080fd5b5061034f610722366004612bc5565b6110b4565b34801561073357600080fd5b5061034f610742366004612b6e565b60036020526000908152604090205481565b34801561076057600080fd5b5061057b6111f5565b61077c610777366004612b55565b611209565b60408051928352602083019190915201610359565b34801561079d57600080fd5b506105e36107ac366004612b55565b611328565b3480156107bd57600080fd5b5061034f6107cc366004612b6e565b60056020526000908152604090205481565b3480156107ea57600080fd5b50600a546001600160a01b03166105e3565b34801561080857600080fd5b5061034f600d5481565b34801561081e57600080fd5b5061038261082d366004612bc5565b611352565b34801561083e57600080fd5b5061034f61084d366004612bc5565b61137d565b34801561085e57600080fd5b506103db611437565b61057b610875366004612b2b565b611444565b34801561088657600080fd5b5061034f600081565b34801561089b57600080fd5b50600c546001600160a01b03166105e3565b3480156108b957600080fd5b506103826108c8366004612b2b565b611737565b3480156108d957600080fd5b5061034f6108e8366004612b55565b61179d565b3480156108f957600080fd5b5061034f610908366004612c5f565b6117bf565b34801561091957600080fd5b5061034f7f477fc23fb51bb5d5aa814872a393b0e4f35d0916c7503c0fd96584681070d41081565b34801561094d57600080fd5b5061034f61095c366004612c5f565b6118bd565b34801561096d57600080fd5b506109766119c3565b6040516103599190612c9b565b34801561098f57600080fd5b506109ba61099e366004612b6e565b6010602052600090815260409020805460019091015460ff1682565b60408051928352901515602083015201610359565b3480156109db57600080fd5b5061034f6109ea366004612b6e565b611a25565b3480156109fb57600080fd5b5061057b610a0a366004612cdc565b611a30565b348015610a1b57600080fd5b5061057b610a2a366004612bc5565b611c74565b348015610a3b57600080fd5b5061034f610a4a366004612b6e565b6001600160a01b031660009081526003602052604090205490565b348015610a7157600080fd5b5061034f610a80366004612c35565b600460209081526000928352604080842090915290825290205481565b348015610aa957600080fd5b5061034f610ab8366004612b55565b611c99565b348015610ac957600080fd5b5061057b610ad8366004612d96565b611cba565b348015610ae957600080fd5b5061057b610af8366004612b6e565b611cff565b348015610b0957600080fd5b506105e37f000000000000000000000000000000000000000000000000000000000000000081565b6040516370a0823160e01b81523060048201526000907f00000000000000000000000000000000000000000000000000000000000000006001600160a01b0316906370a0823190602401602060405180830381865afa158015610b98573d6000803e3d6000fd5b505050506040513d601f19601f82011682018060405250810190610bbc9190612dfe565b905090565b60006001600160e01b03198216637965db0b60e01b1480610bf257506301ffc9a760e01b6001600160e01b03198316145b92915050565b60008054610c0590612e17565b80601f0160208091040260200160405190810160405280929190818152602001828054610c3190612e17565b8015610c7e5780601f10610c5357610100808354040283529160200191610c7e565b820191906000526020600020905b815481529060010190602001808311610c6157829003601f168201915b505050505081565b3360008181526004602090815260408083206001600160a01b038716808552925280832085905551919290917f8c5be1e5ebec7d5bd14f71427d1e84f3dd0314c0f7b2291e5b200ac8c7c3b92590610ce19086815260200190565b60405180910390a350600192915050565b6040516370a0823160e01b815230600482015260009081906001600160a01b037f000000000000000000000000000000000000000000000000000000000000000016906370a0823190602401602060405180830381865afa158015610d5b573d6000803e3d6000fd5b505050506040513d601f19601f82011682018060405250810190610d7f9190612dfe565b90508015610da057610d9b81610d93610b31565b859190611d3d565b610da2565b825b9392505050565b6001600160a01b03831660009081526004602090815260408083203384529091528120546000198114610e0557610de08382612e67565b6001600160a01b03861660009081526004602090815260408083203384529091529020555b6001600160a01b03851660009081526003602052604081208054859290610e2d908490612e67565b90915550506001600160a01b03808516600081815260036020526040908190208054870190555190918716906000805160206132e283398151915290610e769087815260200190565b60405180910390a3506001949350505050565b6001600160a01b038116600090815260036020526040812054610bf290611001565b600082815260066020526040902060010154610ec681611d63565b610ed08383611d6d565b50505050565b6000610bbc6106e27f0000000000000000000000000000000000000000000000000000000000000000600a612f5e565b60608060005b600e54811015610f6c57610f4784600e8381548110610f2d57610f2d612f6d565b6000918252602090912001546001600160a01b0316611023565b828281518110610f5957610f59612f6d565b6020908102919091010152600101610f0c565b5092915050565b60007f00000000000000000000000000000000000000000000000000000000000000004614610fa457610bbc611e01565b507f000000000000000000000000000000000000000000000000000000000000000090565b6001600160a01b0381163314610ff25760405163334bd91960e11b815260040160405180910390fd5b610ffc8282611e9b565b505050565b6002546000908015610da057610d9b611018610b31565b600254859190611f08565b6001600160a01b03808216600081815260106020908152604080832080549588168452600f8352818420805495855260028101909352908320549294909390928561106e8286612e67565b905061107c81600185611f08565b600954909750156110a857600061109888600760020154611f26565b90506110a48189612e67565b9750505b50505050505092915050565b60006110be611fa6565b6110c783611c99565b9050806000036110f257604051636e3699b760e11b8152600481018490526024015b60405180910390fd5b6111276001600160a01b037f000000000000000000000000000000000000000000000000000000000000000016333086611fd0565b82600d60008282546111399190612f83565b9091555050600c5460408051600080825260208201909252611182926001600160a01b03169186919061117c565b60608152602001906001900390816111675790505b5061205a565b5050600c5461119c906001600160a01b031630338661219d565b60408051848152602081018390526001600160a01b0384169133917fdcbc1c05240f31ff3ad067ef1ee35ce4997762752e3a095284754544f4c709d7910160405180910390a36111eb836122d6565b610bf26001600b55565b6111fd612461565b611207600061248e565b565b600e5460085460009182916001600160a01b0316845b8281108015611237575061123486600a612f83565b81105b1561131d57600080600e838154811061125257611252612f6d565b6000918252602080832090910154338352600f8252604080842080546001600160a01b03909316808652600290910184528185205460109094529320549293506112a9926001926112a291612e67565b9190611f08565b6001600160a01b03821660008181526010602090815260408083205433808552600f84528285209585526002909501909252909120559092506112f090829030908561219d565b6001600160a01b0384161561130857611308826124e0565b5050808061131590612f96565b91505061121f565b509394909350915050565b600e818154811061133857600080fd5b6000918252602090912001546001600160a01b0316905081565b60009182526006602090815260408084206001600160a01b0393909316845291905290205460ff1690565b6000611387611fa6565b61139c826113948561179d565b9250826125d5565b80600d60008282546113ae9190612f83565b909155505060408051828152602081018590526001600160a01b0384169133917fdcbc1c05240f31ff3ad067ef1ee35ce4997762752e3a095284754544f4c709d7910160405180910390a361142e6001600160a01b037f000000000000000000000000000000000000000000000000000000000000000016333084611fd0565b6111eb816122d6565b60018054610c0590612e17565b7f477fc23fb51bb5d5aa814872a393b0e4f35d0916c7503c0fd96584681070d41061146e81611d63565b816000036114be5760405162461bcd60e51b815260206004820152601b60248201527f5661756c743a20416d6f756e742063616e2774206265207a65726f000000000060448201526064016110e9565b600d546000036115105760405162461bcd60e51b815260206004820152601a60248201527f5661756c743a204e6f20746f6b656e207374616b65642079657400000000000060448201526064016110e9565b7f00000000000000000000000000000000000000000000000000000000000000006001600160a01b0316836001600160a01b0316141580156115605750600c546001600160a01b03848116911614155b6115c45760405162461bcd60e51b815260206004820152602f60248201527f5661756c743a2052657761726420616e64205374616b696e6720746f6b656e7360448201526e2063616e6e6f742062652073616d6560881b60648201526084016110e9565b600e54600a036115e757604051637561e0ab60e01b815260040160405180910390fd5b60006116016001600d5485611f089092919063ffffffff16565b6001600160a01b038516600090815260106020526040902060018101549192509060ff166116aa57600e8054600180820183556000929092527fbb7b4a454dc3493923482f07822329ed19e8244eff582cc204f8554c3620c3fd0180546001600160a01b0319166001600160a01b038816179055818101805460ff19169091179055818155611690853061262f565b6116a56001600160a01b038616333087611fd0565b6116ed565b6001600160a01b038516600090815260106020526040812080548492906116d2908490612f83565b909155506116ed90506001600160a01b038616333087611fd0565b846001600160a01b03167fac24935fd910bc682b5ccb1a07b718cadf8cf2f6d1404c4f3ddc3662dae40e298560405161172891815260200190565b60405180910390a25050505050565b33600090815260036020526040812080548391908390611758908490612e67565b90915550506001600160a01b038316600081815260036020526040908190208054850190555133906000805160206132e283398151915290610ce19086815260200190565b6002546000908015610da057610d9b6117b4610b31565b600254859190611d3d565b60006117c9611fa6565b6117d28461274d565b83600d60008282546117e49190612e67565b9091555050600c54611801906001600160a01b031633308761219d565b600c54604080516000815260208101909152611828916001600160a01b0316908690612785565b5061185d6001600160a01b037f00000000000000000000000000000000000000000000000000000000000000001684866128b1565b826001600160a01b0316826001600160a01b03167ff341246adaac6f497bc2a656f546ab9e182111d630394f0c57c710a59a2cb56786846040516118ab929190918252602082015260400190565b60405180910390a3610da26001600b55565b60006118c7611fa6565b6118d084611001565b9050806000036119105760405162461bcd60e51b815260206004820152600b60248201526a5a45524f5f41535345545360a81b60448201526064016110e9565b61191984611001565b90506119258285612929565b80600d60008282546119379190612e67565b909155505060408051828152602081018690526001600160a01b0380861692908516917ff341246adaac6f497bc2a656f546ab9e182111d630394f0c57c710a59a2cb567910160405180910390a36119b96001600160a01b037f00000000000000000000000000000000000000000000000000000000000000001684836128b1565b610da26001600b55565b6060600e805480602002602001604051908101604052809291908181526020018280548015611a1b57602002820191906000526020600020905b81546001600160a01b031681526001909101906020018083116119fd575b5050505050905090565b6000610bf282610e89565b42841015611a805760405162461bcd60e51b815260206004820152601760248201527f5045524d49545f444541444c494e455f4558504952454400000000000000000060448201526064016110e9565b60006001611a8c610f73565b6001600160a01b038a811660008181526005602090815260409182902080546001810190915582517f6e71edae12b1b97f4d1f60370fef10105fa2faae0126114a169c64845d6126c98184015280840194909452938d166060840152608083018c905260a083019390935260c08083018b90528151808403909101815260e08301909152805192019190912061190160f01b6101008301526101028201929092526101228101919091526101420160408051601f198184030181528282528051602091820120600084529083018083525260ff871690820152606081018590526080810184905260a0016020604051602081039080840390855afa158015611b98573d6000803e3d6000fd5b5050604051601f1901519150506001600160a01b03811615801590611bce5750876001600160a01b0316816001600160a01b0316145b611c0b5760405162461bcd60e51b815260206004820152600e60248201526d24a72b20a624a22fa9a4a3a722a960911b60448201526064016110e9565b6001600160a01b0390811660009081526004602090815260408083208a8516808552908352928190208990555188815291928a16917f8c5be1e5ebec7d5bd14f71427d1e84f3dd0314c0f7b2291e5b200ac8c7c3b925910160405180910390a350505050505050565b600082815260066020526040902060010154611c8f81611d63565b610ed08383611e9b565b6002546000908015610da057610d9b6001611cb2610b31565b859190611f08565b7f74e458455daa935f28c556b43e0cc4ad001a8a090f5feee376681e97d4618f46611ce481611d63565b611cfb82600001518360200151846040015161298b565b5050565b611d07612461565b6001600160a01b038116611d3157604051631e4fbdf760e01b8152600060048201526024016110e9565b611d3a8161248e565b50565b6000826000190484118302158202611d5457600080fd5b50910281810615159190040190565b611d3a8133612a49565b6000611d798383611352565b611df95760008381526006602090815260408083206001600160a01b03861684529091529020805460ff19166001179055611db13390565b6001600160a01b0316826001600160a01b0316847f2f8788117e7eff1d82e926ec794901d17c78024a50270940304540a733656f0d60405160405180910390a4506001610bf2565b506000610bf2565b60007f8b73c3c69bb8fe3d512ecc4cf759cc79239f7b179b0ffacaa9a75d522b39400f6000604051611e339190612faf565b6040805191829003822060208301939093528101919091527fc89efdaa54c0f20c7adf612882df0950f5a951637e0307cdcb4c672f298b8bc660608201524660808201523060a082015260c00160405160208183030381529060405280519060200120905090565b6000611ea78383611352565b15611df95760008381526006602090815260408083206001600160a01b0386168085529252808320805460ff1916905551339286917ff6391f5c32d9c69d2a47ea670b442974b53935d1edc7fd64eb21e047a839171b9190a4506001610bf2565b6000826000190484118302158202611f1f57600080fd5b5091020490565b6000612710611f358385613050565b1015611f8f5760405162461bcd60e51b8152602060048201526024808201527f46433a20546f6f20736d616c6c20616d6f756e7420746f20636f6e73696465726044820152632066656560e01b60648201526084016110e9565b612710611f9c8385613050565b610da29190613067565b6002600b5403611fc957604051633ee5aeb560e01b815260040160405180910390fd5b6002600b55565b60006040516323b872dd60e01b81528460048201528360248201528260448201526020600060648360008a5af13d15601f3d11600160005114161716915050806120535760405162461bcd60e51b81526020600482015260146024820152731514905394d1915497d19493d357d1905253115160621b60448201526064016110e9565b5050505050565b6000606060008060006101676001600160a01b031663278e0b8860e01b89898960405160240161208c93929190613089565b60408051601f198184030181529181526020820180516001600160e01b03166001600160e01b03199094169390931790925290516120ca919061310e565b6000604051808303816000865af19150503d8060008114612107576040519150601f19603f3d011682016040523d82523d6000602084013e61210c565b606091505b50915091508161212f576040805160008082526020820190925260159190612143565b808060200190518101906121439190613154565b90965094509250600383900b6016146121925760405162461bcd60e51b815260206004820152601160248201527053616665206d696e74206661696c65642160781b60448201526064016110e9565b505050935093915050565b604080516001600160a01b038681166024830152858116604483015284166064820152600783900b6084808301919091528251808303909101815260a490910182526020810180516001600160e01b031663eca3691760e01b17905290516000918291829161016791612210919061310e565b6000604051808303816000865af19150503d806000811461224d576040519150601f19603f3d011682016040523d82523d6000602084013e612252565b606091505b509150915081612263576015612277565b808060200190518101906122779190613230565b9250600383900b6016146122cd5760405162461bcd60e51b815260206004820152601b60248201527f5361666520746f6b656e207472616e73666572206661696c656421000000000060448201526064016110e9565b50505050505050565b336000908152600f602052604090206003015460ff1661240157600e5460005b818110156123ba576000600e828154811061231357612313612f6d565b60009182526020808320909101546001600160a01b031680835260108252604080842054338552600f8452818520838652600201845281852055805163053aa6f360e11b815290519194508493630a754de693600480840194919391929183900301908290875af115801561238c573d6000803e3d6000fd5b505050506040513d601f19601f820116820180604052508101906123b09190612dfe565b50506001016122f6565b50336000908152600f6020526040812083815560038101805460ff1916600190811790915542910155600d80548492906123f5908490612f83565b90915550611d3a915050565b61240b6000611209565b5050336000908152600f60205260408120805483929061242c908490612f83565b9091555050336000908152600f6020526040812042600190910155600d8054839290612459908490612f83565b909155505050565b600a546001600160a01b031633146112075760405163118cdaa760e01b81523360048201526024016110e9565b600a80546001600160a01b038381166001600160a01b0319831681179093556040519116919082907f8be0079c531659141344cd1fd0a4f28419497f9722a3daafe3b4186f6b6457e090600090a35050565b6008546009546001600160a01b0390911690600090612500908490611f26565b6040516370a0823160e01b815233600482015290915081906001600160a01b038416906370a0823190602401602060405180830381865afa158015612549573d6000803e3d6000fd5b505050506040513d601f19601f8201168201806040525081019061256d9190612dfe565b10156125bb5760405162461bcd60e51b815260206004820152601e60248201527f46433a20496e73756666696369656e7420746f6b656e2062616c616e6365000060448201526064016110e9565b600754610ffc90839033906001600160a01b03168461219d565b80600260008282546125e79190612f83565b90915550506001600160a01b0382166000818152600360209081526040808320805486019055518481526000805160206132e283398151915291015b60405180910390a35050565b604080516001600160a01b038381166024830152841660448083019190915282518083039091018152606490910182526020810180516001600160e01b031663248a35ef60e11b17905290516000918291829161016791612690919061310e565b6000604051808303816000865af19150503d80600081146126cd576040519150601f19603f3d011682016040523d82523d6000602084013e6126d2565b606091505b5091509150816126e35760156126f7565b808060200190518101906126f79190613230565b9250600383900b6016146120535760405162461bcd60e51b815260206004820152601f60248201527f536166652073696e676c65206173736f63696174696f6e206661696c6564210060448201526064016110e9565b336000908152600f60205260408120805483929061276c908490612e67565b9250508190555080600d60008282546124599190612e67565b6000806000806101676001600160a01b031663acb9cff960e01b8888886040516024016127b49392919061324b565b60408051601f198184030181529181526020820180516001600160e01b03166001600160e01b03199094169390931790925290516127f2919061310e565b6000604051808303816000865af19150503d806000811461282f576040519150601f19603f3d011682016040523d82523d6000602084013e612834565b606091505b509150915081612847576015600061285b565b8080602001905181019061285b91906132b7565b94509250600383900b6016146128a75760405162461bcd60e51b815260206004820152601160248201527053616665206275726e206661696c65642160781b60448201526064016110e9565b5050509392505050565b600060405163a9059cbb60e01b8152836004820152826024820152602060006044836000895af13d15601f3d1160016000511416171691505080610ed05760405162461bcd60e51b815260206004820152600f60248201526e1514905394d1915497d19052531151608a1b60448201526064016110e9565b6001600160a01b03821660009081526003602052604081208054839290612951908490612e67565b90915550506002805482900390556040518181526000906001600160a01b038416906000805160206132e283398151915290602001612623565b61271081106129ce5760405162461bcd60e51b815260206004820152600f60248201526e46433a20496e76616c69642066656560881b60448201526064016110e9565b600780546001600160a01b038581166001600160a01b0319928316811790935560088054918616919092168117909155600983905560408051928352602083019190915281018290527febd34b2df88ea5c9f67c04b13b08e5e63c2d17e269aab73b866fe47a8736a2649060600160405180910390a1505050565b612a538282611352565b611cfb5760405163e2517d3f60e01b81526001600160a01b0382166004820152602481018390526044016110e9565b600060208284031215612a9457600080fd5b81356001600160e01b031981168114610da257600080fd5b60005b83811015612ac7578181015183820152602001612aaf565b50506000910152565b60008151808452612ae8816020860160208601612aac565b601f01601f19169290920160200192915050565b602081526000610da26020830184612ad0565b80356001600160a01b0381168114612b2657600080fd5b919050565b60008060408385031215612b3e57600080fd5b612b4783612b0f565b946020939093013593505050565b600060208284031215612b6757600080fd5b5035919050565b600060208284031215612b8057600080fd5b610da282612b0f565b600080600060608486031215612b9e57600080fd5b612ba784612b0f565b9250612bb560208501612b0f565b9150604084013590509250925092565b60008060408385031215612bd857600080fd5b82359150612be860208401612b0f565b90509250929050565b6020808252825182820181905260009190848201906040850190845b81811015612c2957835183529284019291840191600101612c0d565b50909695505050505050565b60008060408385031215612c4857600080fd5b612c5183612b0f565b9150612be860208401612b0f565b600080600060608486031215612c7457600080fd5b83359250612c8460208501612b0f565b9150612c9260408501612b0f565b90509250925092565b6020808252825182820181905260009190848201906040850190845b81811015612c295783516001600160a01b031683529284019291840191600101612cb7565b600080600080600080600060e0888a031215612cf757600080fd5b612d0088612b0f565b9650612d0e60208901612b0f565b95506040880135945060608801359350608088013560ff81168114612d3257600080fd5b9699959850939692959460a0840135945060c09093013592915050565b634e487b7160e01b600052604160045260246000fd5b604051601f8201601f1916810167ffffffffffffffff81118282101715612d8e57612d8e612d4f565b604052919050565b600060608284031215612da857600080fd5b6040516060810181811067ffffffffffffffff82111715612dcb57612dcb612d4f565b604052612dd783612b0f565b8152612de560208401612b0f565b6020820152604083013560408201528091505092915050565b600060208284031215612e1057600080fd5b5051919050565b600181811c90821680612e2b57607f821691505b602082108103612e4b57634e487b7160e01b600052602260045260246000fd5b50919050565b634e487b7160e01b600052601160045260246000fd5b81810381811115610bf257610bf2612e51565b600181815b80851115612eb5578160001904821115612e9b57612e9b612e51565b80851615612ea857918102915b93841c9390800290612e7f565b509250929050565b600082612ecc57506001610bf2565b81612ed957506000610bf2565b8160018114612eef5760028114612ef957612f15565b6001915050610bf2565b60ff841115612f0a57612f0a612e51565b50506001821b610bf2565b5060208310610133831016604e8410600b8410161715612f38575081810a610bf2565b612f428383612e7a565b8060001904821115612f5657612f56612e51565b029392505050565b6000610da260ff841683612ebd565b634e487b7160e01b600052603260045260246000fd5b80820180821115610bf257610bf2612e51565b600060018201612fa857612fa8612e51565b5060010190565b60008083548160018260011c91506001831680612fcd57607f831692505b60208084108203612fec57634e487b7160e01b86526022600452602486fd5b818015613000576001811461301557613042565b60ff1986168952841515850289019650613042565b60008a81526020902060005b8681101561303a5781548b820152908501908301613021565b505084890196505b509498975050505050505050565b8082028115828204841417610bf257610bf2612e51565b60008261308457634e487b7160e01b600052601260045260246000fd5b500490565b60006060820160018060a01b0386168352602067ffffffffffffffff861660208501526060604085015281855180845260808601915060808160051b87010193506020870160005b828110156130ff57607f198887030184526130ed868351612ad0565b955092840192908401906001016130d1565b50939998505050505050505050565b60008251613120818460208701612aac565b9190910192915050565b8051600381900b8114612b2657600080fd5b805167ffffffffffffffff81168114612b2657600080fd5b60008060006060848603121561316957600080fd5b6131728461312a565b9250602061318181860161313c565b9250604085015167ffffffffffffffff8082111561319e57600080fd5b818701915087601f8301126131b257600080fd5b8151818111156131c4576131c4612d4f565b8060051b91506131d5848301612d65565b818152918301840191848101908a8411156131ef57600080fd5b938501935b8385101561322057845192508260070b83146132105760008081fd5b82825293850193908501906131f4565b8096505050505050509250925092565b60006020828403121561324257600080fd5b610da28261312a565b6001600160a01b038416815267ffffffffffffffff83166020808301919091526060604083018190528351908301819052600091848101916080850190845b818110156132a957845160070b8352938301939183019160010161328a565b509098975050505050505050565b600080604083850312156132ca57600080fd5b6132d38361312a565b9150612be86020840161313c56feddf252ad1be2c89b69c2b068fc378daa952ba7f163c4a11628f55a4df523b3efa2646970667358221220d0200c5111a890e7b0e7fea6a18cff4a6e47235f884b480a7252499dcb35326664736f6c63430008180033",
  "linkReferences": {},
  "deployedLinkReferences": {}
}