{
  "_format": "hh-sol-artifact-1",
  "contractName": "HederaVault",
  "sourceName": "contracts/erc4626/Vault.sol",
  "abi": [
    {
      "inputs": [
        {
          "internalType": "contract ERC20",
          "name": "_underlying",
          "type": "address"
        },
        {
          "internalType": "string",
          "name": "_name",
          "type": "string"
        },
        {
          "internalType": "string",
          "name": "_symbol",
          "type": "string"
        },
        {
          "components": [
            {
              "internalType": "address",
              "name": "receiver",
              "type": "address"
            },
            {
              "internalType": "address",
              "name": "token",
              "type": "address"
            },
            {
              "internalType": "uint256",
              "name": "feePercentage",
              "type": "uint256"
            }
          ],
          "internalType": "struct FeeConfiguration.FeeConfig",
          "name": "_feeConfig",
          "type": "tuple"
        },
        {
          "internalType": "address",
          "name": "_vaultRewardController",
          "type": "address"
        },
        {
          "internalType": "address",
          "name": "_feeConfigController",
          "type": "address"
        },
        {
          "internalType": "address",
          "name": "_tokenBalancer",
          "type": "address"
        }
      ],
      "stateMutability": "payable",
      "type": "constructor"
    },
    {
      "inputs": [],
      "name": "AccessControlBadConfirmation",
      "type": "error"
    },
    {
      "inputs": [
        {
          "internalType": "address",
          "name": "account",
          "type": "address"
        },
        {
          "internalType": "bytes32",
          "name": "neededRole",
          "type": "bytes32"
        }
      ],
      "name": "AccessControlUnauthorizedAccount",
      "type": "error"
    },
    {
      "inputs": [],
      "name": "MaxRewardTokensAmount",
      "type": "error"
    },
    {
      "inputs": [
        {
          "internalType": "address",
          "name": "owner",
          "type": "address"
        }
      ],
      "name": "OwnableInvalidOwner",
      "type": "error"
    },
    {
      "inputs": [
        {
          "internalType": "address",
          "name": "account",
          "type": "address"
        }
      ],
      "name": "OwnableUnauthorizedAccount",
      "type": "error"
    },
    {
      "inputs": [],
      "name": "ReentrancyGuardReentrantCall",
      "type": "error"
    },
    {
      "inputs": [
        {
          "internalType": "uint256",
          "name": "numberOfShares",
          "type": "uint256"
        }
      ],
      "name": "ZeroShares",
      "type": "error"
    },
    {
      "anonymous": false,
      "inputs": [
        {
          "indexed": true,
          "internalType": "address",
          "name": "owner",
          "type": "address"
        },
        {
          "indexed": true,
          "internalType": "address",
          "name": "spender",
          "type": "address"
        },
        {
          "indexed": false,
          "internalType": "uint256",
          "name": "amount",
          "type": "uint256"
        }
      ],
      "name": "Approval",
      "type": "event"
    },
    {
      "anonymous": false,
      "inputs": [
        {
          "indexed": true,
          "internalType": "address",
          "name": "createdToken",
          "type": "address"
        }
      ],
      "name": "CreatedToken",
      "type": "event"
    },
    {
      "anonymous": false,
      "inputs": [
        {
          "indexed": true,
          "internalType": "address",
          "name": "sender",
          "type": "address"
        },
        {
          "indexed": true,
          "internalType": "address",
          "name": "receiver",
          "type": "address"
        },
        {
          "indexed": false,
          "internalType": "uint256",
          "name": "assets",
          "type": "uint256"
        },
        {
          "indexed": false,
          "internalType": "uint256",
          "name": "shares",
          "type": "uint256"
        }
      ],
      "name": "Deposit",
      "type": "event"
    },
    {
      "anonymous": false,
      "inputs": [
        {
          "components": [
            {
              "internalType": "address",
              "name": "receiver",
              "type": "address"
            },
            {
              "internalType": "address",
              "name": "token",
              "type": "address"
            },
            {
              "internalType": "uint256",
              "name": "feePercentage",
              "type": "uint256"
            }
          ],
          "indexed": false,
          "internalType": "struct FeeConfiguration.FeeConfig",
          "name": "feeConfig",
          "type": "tuple"
        }
      ],
      "name": "FeeConfigUpdated",
      "type": "event"
    },
    {
      "anonymous": false,
      "inputs": [
        {
          "indexed": true,
          "internalType": "address",
          "name": "previousOwner",
          "type": "address"
        },
        {
          "indexed": true,
          "internalType": "address",
          "name": "newOwner",
          "type": "address"
        }
      ],
      "name": "OwnershipTransferred",
      "type": "event"
    },
    {
      "anonymous": false,
      "inputs": [
        {
          "indexed": true,
          "internalType": "address",
          "name": "rewardToken",
          "type": "address"
        },
        {
          "indexed": false,
          "internalType": "uint256",
          "name": "amount",
          "type": "uint256"
        }
      ],
      "name": "RewardAdded",
      "type": "event"
    },
    {
      "anonymous": false,
      "inputs": [
        {
          "indexed": true,
          "internalType": "bytes32",
          "name": "role",
          "type": "bytes32"
        },
        {
          "indexed": true,
          "internalType": "bytes32",
          "name": "previousAdminRole",
          "type": "bytes32"
        },
        {
          "indexed": true,
          "internalType": "bytes32",
          "name": "newAdminRole",
          "type": "bytes32"
        }
      ],
      "name": "RoleAdminChanged",
      "type": "event"
    },
    {
      "anonymous": false,
      "inputs": [
        {
          "indexed": true,
          "internalType": "bytes32",
          "name": "role",
          "type": "bytes32"
        },
        {
          "indexed": true,
          "internalType": "address",
          "name": "account",
          "type": "address"
        },
        {
          "indexed": true,
          "internalType": "address",
          "name": "sender",
          "type": "address"
        }
      ],
      "name": "RoleGranted",
      "type": "event"
    },
    {
      "anonymous": false,
      "inputs": [
        {
          "indexed": true,
          "internalType": "bytes32",
          "name": "role",
          "type": "bytes32"
        },
        {
          "indexed": true,
          "internalType": "address",
          "name": "account",
          "type": "address"
        },
        {
          "indexed": true,
          "internalType": "address",
          "name": "sender",
          "type": "address"
        }
      ],
      "name": "RoleRevoked",
      "type": "event"
    },
    {
      "anonymous": false,
      "inputs": [
        {
          "indexed": true,
          "internalType": "address",
          "name": "from",
          "type": "address"
        },
        {
          "indexed": true,
          "internalType": "address",
          "name": "to",
          "type": "address"
        },
        {
          "indexed": false,
          "internalType": "uint256",
          "name": "amount",
          "type": "uint256"
        }
      ],
      "name": "Transfer",
      "type": "event"
    },
    {
      "anonymous": false,
      "inputs": [
        {
          "indexed": true,
          "internalType": "address",
          "name": "sender",
          "type": "address"
        },
        {
          "indexed": true,
          "internalType": "address",
          "name": "receiver",
          "type": "address"
        },
        {
          "indexed": false,
          "internalType": "uint256",
          "name": "assets",
          "type": "uint256"
        },
        {
          "indexed": false,
          "internalType": "uint256",
          "name": "shares",
          "type": "uint256"
        }
      ],
      "name": "Withdraw",
      "type": "event"
    },
    {
      "inputs": [],
      "name": "DEFAULT_ADMIN_ROLE",
      "outputs": [
        {
          "internalType": "bytes32",
          "name": "",
          "type": "bytes32"
        }
      ],
      "stateMutability": "view",
      "type": "function"
    },
    {
      "inputs": [],
      "name": "DOMAIN_SEPARATOR",
      "outputs": [
        {
          "internalType": "bytes32",
          "name": "",
          "type": "bytes32"
        }
      ],
      "stateMutability": "view",
      "type": "function"
    },
    {
      "inputs": [],
      "name": "FEE_CONFIG_CONTROLLER_ROLE",
      "outputs": [
        {
          "internalType": "bytes32",
          "name": "",
          "type": "bytes32"
        }
      ],
      "stateMutability": "view",
      "type": "function"
    },
    {
      "inputs": [],
      "name": "VAULT_REWARD_CONTROLLER_ROLE",
      "outputs": [
        {
          "internalType": "bytes32",
          "name": "",
          "type": "bytes32"
        }
      ],
      "stateMutability": "view",
      "type": "function"
    },
    {
      "inputs": [
        {
          "internalType": "address",
          "name": "_token",
          "type": "address"
        },
        {
          "internalType": "uint256",
          "name": "_amount",
          "type": "uint256"
        }
      ],
      "name": "addReward",
      "outputs": [],
      "stateMutability": "payable",
      "type": "function"
    },
    {
      "inputs": [
        {
          "internalType": "address",
          "name": "",
          "type": "address"
        },
        {
          "internalType": "address",
          "name": "",
          "type": "address"
        }
      ],
      "name": "allowance",
      "outputs": [
        {
          "internalType": "uint256",
          "name": "",
          "type": "uint256"
        }
      ],
      "stateMutability": "view",
      "type": "function"
    },
    {
      "inputs": [
        {
          "internalType": "address",
          "name": "spender",
          "type": "address"
        },
        {
          "internalType": "uint256",
          "name": "amount",
          "type": "uint256"
        }
      ],
      "name": "approve",
      "outputs": [
        {
          "internalType": "bool",
          "name": "",
          "type": "bool"
        }
      ],
      "stateMutability": "nonpayable",
      "type": "function"
    },
    {
      "inputs": [],
      "name": "asset",
      "outputs": [
        {
          "internalType": "contract ERC20",
          "name": "",
          "type": "address"
        }
      ],
      "stateMutability": "view",
      "type": "function"
    },
    {
      "inputs": [],
      "name": "assetTotalSupply",
      "outputs": [
        {
          "internalType": "uint256",
          "name": "",
          "type": "uint256"
        }
      ],
      "stateMutability": "view",
      "type": "function"
    },
    {
      "inputs": [
        {
          "internalType": "address",
          "name": "user",
          "type": "address"
        }
      ],
      "name": "assetsOf",
      "outputs": [
        {
          "internalType": "uint256",
          "name": "",
          "type": "uint256"
        }
      ],
      "stateMutability": "view",
      "type": "function"
    },
    {
      "inputs": [],
      "name": "assetsPerShare",
      "outputs": [
        {
          "internalType": "uint256",
          "name": "",
          "type": "uint256"
        }
      ],
      "stateMutability": "view",
      "type": "function"
    },
    {
      "inputs": [
        {
          "internalType": "address",
          "name": "",
          "type": "address"
        }
      ],
      "name": "balanceOf",
      "outputs": [
        {
          "internalType": "uint256",
          "name": "",
          "type": "uint256"
        }
      ],
      "stateMutability": "view",
      "type": "function"
    },
    {
      "inputs": [
        {
          "internalType": "uint256",
          "name": "_startPosition",
          "type": "uint256"
        }
      ],
      "name": "claimAllReward",
      "outputs": [
        {
          "internalType": "uint256",
          "name": "",
          "type": "uint256"
        },
        {
          "internalType": "uint256",
          "name": "",
          "type": "uint256"
        }
      ],
      "stateMutability": "payable",
      "type": "function"
    },
    {
      "inputs": [],
      "name": "decimals",
      "outputs": [
        {
          "internalType": "uint8",
          "name": "",
          "type": "uint8"
        }
      ],
      "stateMutability": "view",
      "type": "function"
    },
    {
      "inputs": [
        {
          "internalType": "uint256",
          "name": "assets",
          "type": "uint256"
        },
        {
          "internalType": "address",
          "name": "receiver",
          "type": "address"
        }
      ],
      "name": "deposit",
      "outputs": [
        {
          "internalType": "uint256",
          "name": "shares",
          "type": "uint256"
        }
      ],
      "stateMutability": "nonpayable",
      "type": "function"
    },
    {
      "inputs": [],
      "name": "feeConfig",
      "outputs": [
        {
          "internalType": "address",
          "name": "receiver",
          "type": "address"
        },
        {
          "internalType": "address",
          "name": "token",
          "type": "address"
        },
        {
          "internalType": "uint256",
          "name": "feePercentage",
          "type": "uint256"
        }
      ],
      "stateMutability": "view",
      "type": "function"
    },
    {
      "inputs": [
        {
          "internalType": "address",
          "name": "_user",
          "type": "address"
        }
      ],
      "name": "getAllRewards",
      "outputs": [
        {
          "internalType": "uint256[]",
          "name": "",
          "type": "uint256[]"
        }
      ],
      "stateMutability": "view",
      "type": "function"
    },
    {
      "inputs": [],
      "name": "getRewardTokens",
      "outputs": [
        {
          "internalType": "address[]",
          "name": "",
          "type": "address[]"
        }
      ],
      "stateMutability": "view",
      "type": "function"
    },
    {
      "inputs": [
        {
          "internalType": "bytes32",
          "name": "role",
          "type": "bytes32"
        }
      ],
      "name": "getRoleAdmin",
      "outputs": [
        {
          "internalType": "bytes32",
          "name": "",
          "type": "bytes32"
        }
      ],
      "stateMutability": "view",
      "type": "function"
    },
    {
      "inputs": [
        {
          "internalType": "address",
          "name": "_user",
          "type": "address"
        },
        {
          "internalType": "address",
          "name": "_rewardToken",
          "type": "address"
        }
      ],
      "name": "getUserReward",
      "outputs": [
        {
          "internalType": "uint256",
          "name": "unclaimedAmount",
          "type": "uint256"
        }
      ],
      "stateMutability": "view",
      "type": "function"
    },
    {
      "inputs": [
        {
          "internalType": "bytes32",
          "name": "role",
          "type": "bytes32"
        },
        {
          "internalType": "address",
          "name": "account",
          "type": "address"
        }
      ],
      "name": "grantRole",
      "outputs": [],
      "stateMutability": "nonpayable",
      "type": "function"
    },
    {
      "inputs": [
        {
          "internalType": "bytes32",
          "name": "role",
          "type": "bytes32"
        },
        {
          "internalType": "address",
          "name": "account",
          "type": "address"
        }
      ],
      "name": "hasRole",
      "outputs": [
        {
          "internalType": "bool",
          "name": "",
          "type": "bool"
        }
      ],
      "stateMutability": "view",
      "type": "function"
    },
    {
      "inputs": [
        {
          "internalType": "address",
          "name": "",
          "type": "address"
        }
      ],
      "name": "maxDeposit",
      "outputs": [
        {
          "internalType": "uint256",
          "name": "",
          "type": "uint256"
        }
      ],
      "stateMutability": "pure",
      "type": "function"
    },
    {
      "inputs": [
        {
          "internalType": "address",
          "name": "",
          "type": "address"
        }
      ],
      "name": "maxMint",
      "outputs": [
        {
          "internalType": "uint256",
          "name": "",
          "type": "uint256"
        }
      ],
      "stateMutability": "pure",
      "type": "function"
    },
    {
      "inputs": [
        {
          "internalType": "address",
          "name": "user",
          "type": "address"
        }
      ],
      "name": "maxRedeem",
      "outputs": [
        {
          "internalType": "uint256",
          "name": "",
          "type": "uint256"
        }
      ],
      "stateMutability": "view",
      "type": "function"
    },
    {
      "inputs": [
        {
          "internalType": "address",
          "name": "user",
          "type": "address"
        }
      ],
      "name": "maxWithdraw",
      "outputs": [
        {
          "internalType": "uint256",
          "name": "",
          "type": "uint256"
        }
      ],
      "stateMutability": "view",
      "type": "function"
    },
    {
      "inputs": [
        {
          "internalType": "uint256",
          "name": "shares",
          "type": "uint256"
        },
        {
          "internalType": "address",
          "name": "to",
          "type": "address"
        }
      ],
      "name": "mint",
      "outputs": [
        {
          "internalType": "uint256",
          "name": "amount",
          "type": "uint256"
        }
      ],
      "stateMutability": "nonpayable",
      "type": "function"
    },
    {
      "inputs": [],
      "name": "name",
      "outputs": [
        {
          "internalType": "string",
          "name": "",
          "type": "string"
        }
      ],
      "stateMutability": "view",
      "type": "function"
    },
    {
      "inputs": [
        {
          "internalType": "address",
          "name": "",
          "type": "address"
        }
      ],
      "name": "nonces",
      "outputs": [
        {
          "internalType": "uint256",
          "name": "",
          "type": "uint256"
        }
      ],
      "stateMutability": "view",
      "type": "function"
    },
    {
      "inputs": [],
      "name": "owner",
      "outputs": [
        {
          "internalType": "address",
          "name": "",
          "type": "address"
        }
      ],
      "stateMutability": "view",
      "type": "function"
    },
    {
      "inputs": [
        {
          "internalType": "address",
          "name": "owner",
          "type": "address"
        },
        {
          "internalType": "address",
          "name": "spender",
          "type": "address"
        },
        {
          "internalType": "uint256",
          "name": "value",
          "type": "uint256"
        },
        {
          "internalType": "uint256",
          "name": "deadline",
          "type": "uint256"
        },
        {
          "internalType": "uint8",
          "name": "v",
          "type": "uint8"
        },
        {
          "internalType": "bytes32",
          "name": "r",
          "type": "bytes32"
        },
        {
          "internalType": "bytes32",
          "name": "s",
          "type": "bytes32"
        }
      ],
      "name": "permit",
      "outputs": [],
      "stateMutability": "nonpayable",
      "type": "function"
    },
    {
      "inputs": [
        {
          "internalType": "uint256",
          "name": "amount",
          "type": "uint256"
        }
      ],
      "name": "previewDeposit",
      "outputs": [
        {
          "internalType": "uint256",
          "name": "shares",
          "type": "uint256"
        }
      ],
      "stateMutability": "view",
      "type": "function"
    },
    {
      "inputs": [
        {
          "internalType": "uint256",
          "name": "shares",
          "type": "uint256"
        }
      ],
      "name": "previewMint",
      "outputs": [
        {
          "internalType": "uint256",
          "name": "amount",
          "type": "uint256"
        }
      ],
      "stateMutability": "view",
      "type": "function"
    },
    {
      "inputs": [
        {
          "internalType": "uint256",
          "name": "shares",
          "type": "uint256"
        }
      ],
      "name": "previewRedeem",
      "outputs": [
        {
          "internalType": "uint256",
          "name": "amount",
          "type": "uint256"
        }
      ],
      "stateMutability": "view",
      "type": "function"
    },
    {
      "inputs": [
        {
          "internalType": "uint256",
          "name": "amount",
          "type": "uint256"
        }
      ],
      "name": "previewWithdraw",
      "outputs": [
        {
          "internalType": "uint256",
          "name": "shares",
          "type": "uint256"
        }
      ],
      "stateMutability": "view",
      "type": "function"
    },
    {
      "inputs": [],
      "name": "rebalance",
      "outputs": [],
      "stateMutability": "nonpayable",
      "type": "function"
    },
    {
      "inputs": [
        {
          "internalType": "uint256",
          "name": "shares",
          "type": "uint256"
        },
        {
          "internalType": "address",
          "name": "receiver",
          "type": "address"
        },
        {
          "internalType": "address",
          "name": "from",
          "type": "address"
        }
      ],
      "name": "redeem",
      "outputs": [
        {
          "internalType": "uint256",
          "name": "amount",
          "type": "uint256"
        }
      ],
      "stateMutability": "nonpayable",
      "type": "function"
    },
    {
      "inputs": [],
      "name": "renounceOwnership",
      "outputs": [],
      "stateMutability": "nonpayable",
      "type": "function"
    },
    {
      "inputs": [
        {
          "internalType": "bytes32",
          "name": "role",
          "type": "bytes32"
        },
        {
          "internalType": "address",
          "name": "callerConfirmation",
          "type": "address"
        }
      ],
      "name": "renounceRole",
      "outputs": [],
      "stateMutability": "nonpayable",
      "type": "function"
    },
    {
      "inputs": [
        {
          "internalType": "bytes32",
          "name": "role",
          "type": "bytes32"
        },
        {
          "internalType": "address",
          "name": "account",
          "type": "address"
        }
      ],
      "name": "revokeRole",
      "outputs": [],
      "stateMutability": "nonpayable",
      "type": "function"
    },
    {
      "inputs": [
        {
          "internalType": "uint256",
          "name": "",
          "type": "uint256"
        }
      ],
      "name": "rewardTokens",
      "outputs": [
        {
          "internalType": "address",
          "name": "",
          "type": "address"
        }
      ],
      "stateMutability": "view",
      "type": "function"
    },
    {
      "inputs": [],
      "name": "share",
      "outputs": [
        {
          "internalType": "address",
          "name": "",
          "type": "address"
        }
      ],
      "stateMutability": "view",
      "type": "function"
    },
    {
      "inputs": [
        {
          "internalType": "bytes4",
          "name": "interfaceId",
          "type": "bytes4"
        }
      ],
      "name": "supportsInterface",
      "outputs": [
        {
          "internalType": "bool",
          "name": "",
          "type": "bool"
        }
      ],
      "stateMutability": "view",
      "type": "function"
    },
    {
      "inputs": [],
      "name": "symbol",
      "outputs": [
        {
          "internalType": "string",
          "name": "",
          "type": "string"
        }
      ],
      "stateMutability": "view",
      "type": "function"
    },
    {
      "inputs": [],
      "name": "tokenBalancer",
      "outputs": [
        {
          "internalType": "contract ITokenBalancer",
          "name": "",
          "type": "address"
        }
      ],
      "stateMutability": "view",
      "type": "function"
    },
    {
      "inputs": [
        {
          "internalType": "address",
          "name": "",
          "type": "address"
        }
      ],
      "name": "tokensRewardInfo",
      "outputs": [
        {
          "internalType": "uint256",
          "name": "amount",
          "type": "uint256"
        },
        {
          "internalType": "bool",
          "name": "exist",
          "type": "bool"
        }
      ],
      "stateMutability": "view",
      "type": "function"
    },
    {
      "inputs": [],
      "name": "totalAssets",
      "outputs": [
        {
          "internalType": "uint256",
          "name": "",
          "type": "uint256"
        }
      ],
      "stateMutability": "view",
      "type": "function"
    },
    {
      "inputs": [],
      "name": "totalSupply",
      "outputs": [
        {
          "internalType": "uint256",
          "name": "",
          "type": "uint256"
        }
      ],
      "stateMutability": "view",
      "type": "function"
    },
    {
      "inputs": [
        {
          "internalType": "address",
          "name": "to",
          "type": "address"
        },
        {
          "internalType": "uint256",
          "name": "amount",
          "type": "uint256"
        }
      ],
      "name": "transfer",
      "outputs": [
        {
          "internalType": "bool",
          "name": "",
          "type": "bool"
        }
      ],
      "stateMutability": "nonpayable",
      "type": "function"
    },
    {
      "inputs": [
        {
          "internalType": "address",
          "name": "from",
          "type": "address"
        },
        {
          "internalType": "address",
          "name": "to",
          "type": "address"
        },
        {
          "internalType": "uint256",
          "name": "amount",
          "type": "uint256"
        }
      ],
      "name": "transferFrom",
      "outputs": [
        {
          "internalType": "bool",
          "name": "",
          "type": "bool"
        }
      ],
      "stateMutability": "nonpayable",
      "type": "function"
    },
    {
      "inputs": [
        {
          "internalType": "address",
          "name": "newOwner",
          "type": "address"
        }
      ],
      "name": "transferOwnership",
      "outputs": [],
      "stateMutability": "nonpayable",
      "type": "function"
    },
    {
      "inputs": [
        {
          "components": [
            {
              "internalType": "address",
              "name": "receiver",
              "type": "address"
            },
            {
              "internalType": "address",
              "name": "token",
              "type": "address"
            },
            {
              "internalType": "uint256",
              "name": "feePercentage",
              "type": "uint256"
            }
          ],
          "internalType": "struct FeeConfiguration.FeeConfig",
          "name": "_feeConfig",
          "type": "tuple"
        }
      ],
      "name": "updateFeeConfig",
      "outputs": [],
      "stateMutability": "nonpayable",
      "type": "function"
    },
    {
      "inputs": [
        {
          "internalType": "address",
          "name": "",
          "type": "address"
        }
      ],
      "name": "userContribution",
      "outputs": [
        {
          "internalType": "uint256",
          "name": "sharesAmount",
          "type": "uint256"
        },
        {
          "internalType": "uint256",
          "name": "lastLockedTime",
          "type": "uint256"
        },
        {
          "internalType": "bool",
          "name": "exist",
          "type": "bool"
        }
      ],
      "stateMutability": "view",
      "type": "function"
    },
    {
      "inputs": [
        {
          "internalType": "uint256",
          "name": "amount",
          "type": "uint256"
        },
        {
          "internalType": "address",
          "name": "receiver",
          "type": "address"
        },
        {
          "internalType": "address",
          "name": "from",
          "type": "address"
        }
      ],
      "name": "withdraw",
      "outputs": [
        {
          "internalType": "uint256",
          "name": "shares",
          "type": "uint256"
        }
      ],
      "stateMutability": "nonpayable",
      "type": "function"
    }
  ],
  "bytecode": "0x610120604052604051620045b8380380620045b8833981016040819052620000279162000b12565b338686896001600160a01b031663313ce5676040518163ffffffff1660e01b8152600401602060405180830381865afa15801562000069573d6000803e3d6000fd5b505050506040513d601f19601f820116820180604052508101906200008f919062000c20565b60006200009d848262000cdd565b506001620000ac838262000cdd565b5060ff81166080524660a052620000c262000144565b60c0525050506001600160a01b038116620000f857604051631e4fbdf760e01b8152600060048201526024015b60405180910390fd5b6200010381620001e0565b506001600b556200011684848462000232565b6001600160a01b0380821660e05287166101005262000137868689620002b8565b50505050505050620010f4565b60007f8b73c3c69bb8fe3d512ecc4cf759cc79239f7b179b0ffacaa9a75d522b39400f600060405162000178919062000da9565b6040805191829003822060208301939093528101919091527fc89efdaa54c0f20c7adf612882df0950f5a951637e0307cdcb4c672f298b8bc660608201524660808201523060a082015260c00160405160208183030381529060405280519060200120905090565b600a80546001600160a01b038381166001600160a01b0319831681179093556040519116919082907f8be0079c531659141344cd1fd0a4f28419497f9722a3daafe3b4186f6b6457e090600090a35050565b8251602084015160408501516200024b9291906200055b565b620002586000336200061b565b50620002857f477fc23fb51bb5d5aa814872a393b0e4f35d0916c7503c0fd96584681070d410836200061b565b50620002b27f74e458455daa935f28c556b43e0cc4ad001a8a090f5feee376681e97d4618f46826200061b565b50505050565b620002c48130620006ce565b6040805160a08082018352600080835260208084018290526060848601819052808501819052306080808701829052875195860188528486528584018590528588018390528583018390528501528551600280825291810190965260109560019594939290919082015b6200033862000991565b8152602001906001900390816200032e5790505090506040518060400160405280868152602001848152508160008151811062000379576200037962000e27565b602002602001018190525060405180604001604052808581526020018381525081600181518110620003af57620003af62000e27565b6020026020010181905250620003f46040518060600160405280600063ffffffff16815260200160006001600160a01b03168152602001600063ffffffff1681525090565b306020820152627a120060408201526200046a60408051610120810182526060808252602080830182905260008385018190528284018390526080840181905260a0840181905260c0840181905260e0840183905284519283018552808352908201819052928101929092529061010082015290565b89815260208082018a905230604080840191909152610100830184905260e08301859052805163313ce56760e01b81529051620005079284926000926001600160a01b038e169263313ce56792600480820193918290030181865afa158015620004d8573d6000803e3d6000fd5b505050506040513d601f19601f82011682018060405250810190620004fe919062000c20565b60ff16620007fd565b600c80546001600160a01b0319166001600160a01b039290921691821790556040517f7bb17726df1f3adee8aa00ba8e8bc5d6f182af3bbf77604639cb7f008dd3b4ed90600090a250505050505050505050565b6127108110620005a05760405162461bcd60e51b815260206004820152600f60248201526e46433a20496e76616c69642066656560881b6044820152606401620000ef565b600780546001600160a01b038581166001600160a01b0319928316811790935560088054918616919092168117909155600983905560408051928352602083019190915281018290527febd34b2df88ea5c9f67c04b13b08e5e63c2d17e269aab73b866fe47a8736a2649060600160405180910390a1505050565b60008281526006602090815260408083206001600160a01b038516845290915281205460ff16620006c45760008381526006602090815260408083206001600160a01b03861684529091529020805460ff191660011790556200067b3390565b6001600160a01b0316826001600160a01b0316847f2f8788117e7eff1d82e926ec794901d17c78024a50270940304540a733656f0d60405160405180910390a4506001620006c8565b5060005b92915050565b604080516001600160a01b038381166024830152841660448083019190915282518083039091018152606490910182526020810180516001600160e01b031663248a35ef60e11b1790529051600091829182916101679162000731919062000e3d565b6000604051808303816000865af19150503d806000811462000770576040519150601f19603f3d011682016040523d82523d6000602084013e62000775565b606091505b509150915081620007885760156200079e565b808060200190518101906200079e919062000e6e565b9250600383900b601614620007f65760405162461bcd60e51b815260206004820152601f60248201527f536166652073696e676c65206173736f63696174696f6e206661696c656421006044820152606401620000ef565b5050505050565b61010083015151600090849063ffffffff161580156200082a57506101008101516040015163ffffffff16155b1562000841576101008101516276a7006040909101525b60008060006101676001600160a01b031634637812a04b60e01b8a8a8a604051602401620008729392919062000f8b565b60408051601f198184030181529181526020820180516001600160e01b03166001600160e01b0319909416939093179092529051620008b2919062000e3d565b60006040518083038185875af1925050503d8060008114620008f1576040519150601f19603f3d011682016040523d82523d6000602084013e620008f6565b606091505b5091509150816200090b576015600062000921565b80806020019051810190620009219190620010b8565b95509250600383900b601614620009865760405162461bcd60e51b815260206004820152602260248201527f53616665206372656174652066756e6769626c6520746f6b656e206661696c65604482015261642160f01b6064820152608401620000ef565b505050509392505050565b604051806040016040528060008152602001620009ea6040518060a0016040528060001515815260200160006001600160a01b03168152602001606081526020016060815260200160006001600160a01b031681525090565b905290565b6001600160a01b038116811462000a0557600080fd5b50565b634e487b7160e01b600052604160045260246000fd5b604051606081016001600160401b038111828210171562000a435762000a4362000a08565b60405290565b60005b8381101562000a6657818101518382015260200162000a4c565b50506000910152565b600082601f83011262000a8157600080fd5b81516001600160401b038082111562000a9e5762000a9e62000a08565b604051601f8301601f19908116603f0116810190828211818310171562000ac95762000ac962000a08565b8160405283815286602085880101111562000ae357600080fd5b62000af684602083016020890162000a49565b9695505050505050565b805162000b0d81620009ef565b919050565b600080600080600080600087890361012081121562000b3057600080fd5b885162000b3d81620009ef565b60208a01519098506001600160401b038082111562000b5b57600080fd5b62000b698c838d0162000a6f565b985060408b015191508082111562000b8057600080fd5b5062000b8f8b828c0162000a6f565b9650506060605f198201121562000ba557600080fd5b5062000bb062000a1e565b606089015162000bc081620009ef565b8152608089015162000bd281620009ef565b602082015260a08901516040820152935062000bf160c0890162000b00565b925062000c0160e0890162000b00565b915062000c12610100890162000b00565b905092959891949750929550565b60006020828403121562000c3357600080fd5b815160ff8116811462000c4557600080fd5b9392505050565b600181811c9082168062000c6157607f821691505b60208210810362000c8257634e487b7160e01b600052602260045260246000fd5b50919050565b601f82111562000cd8576000816000526020600020601f850160051c8101602086101562000cb35750805b601f850160051c820191505b8181101562000cd45782815560010162000cbf565b5050505b505050565b81516001600160401b0381111562000cf95762000cf962000a08565b62000d118162000d0a845462000c4c565b8462000c88565b602080601f83116001811462000d49576000841562000d305750858301515b600019600386901b1c1916600185901b17855562000cd4565b600085815260208120601f198616915b8281101562000d7a5788860151825594840194600190910190840162000d59565b508582101562000d995787850151600019600388901b60f8161c191681555b5050505050600190811b01905550565b600080835462000db98162000c4c565b6001828116801562000dd4576001811462000dea5762000e1b565b60ff198416875282151583028701945062000e1b565b8760005260208060002060005b8581101562000e125781548a82015290840190820162000df7565b50505082870194505b50929695505050505050565b634e487b7160e01b600052603260045260246000fd5b6000825162000e5181846020870162000a49565b9190910192915050565b8051600381900b811462000b0d57600080fd5b60006020828403121562000e8157600080fd5b62000c458262000e5b565b6000815180845262000ea681602086016020860162000a49565b601f01601f19169290920160200192915050565b600082825180855260208086019550808260051b84010181860160005b8481101562000f7e57858303601f1901895281518051845284015160408585018190528151151581860152818601516001600160a01b039081166060808801919091529183015160a0608080890182905291939092909162000f3d60e08a018662000e8c565b92860151898403603f1901858b015292945062000f5b858462000e8c565b9501511660c0979097019690965250509884019892509083019060010162000ed7565b5090979650505050505050565b606081526000845161016080606085015262000fac6101c085018362000e8c565b91506020870151605f198086850301608087015262000fcc848362000e8c565b93506040890151915062000feb60a08701836001600160a01b03169052565b60608901519150808685030160c087015262001008848362000e8c565b9350608089015191506200102060e087018315159052565b60a089015191506101006200103c8188018463ffffffff169052565b60c08a0151151561012088015260e08a01518786038301610140890152925062001067858462000eba565b9450808a015192505050620010a482860182805163ffffffff90811683526020808301516001600160a01b03169084015260409182015116910152565b505060208301949094525060400152919050565b60008060408385031215620010cc57600080fd5b620010d78362000e5b565b91506020830151620010e981620009ef565b809150509250929050565b60805160a05160c05160e05161010051613440620011786000396000818161064c01528181610b4101528181610d0c015281816110f7015281816114cb015281816115d7015281816118fb0152611a5701526000818161086f01526113b301526000610f9f01526000610f6f01526000818161058f0152610ed801526134406000f3fe6080604052600436106103355760003560e01c80637d7c2a1c116101ab578063b460af94116100f7578063d505accf11610095578063dd62ed3e1161006f578063dd62ed3e14610a91578063ef8b30f714610ac9578063efa6f42514610ae9578063f2fde38b14610b0957600080fd5b8063d505accf14610a1b578063d547741f14610a3b578063d905777e14610a5b57600080fd5b8063c4f59f9b116100d1578063c4f59f9b1461098d578063c63d75b614610686578063cd9cdfda146109af578063ce96cb77146109fb57600080fd5b8063b460af9414610919578063b4f6d61314610939578063ba0876521461096d57600080fd5b806395d89b4111610164578063a217fddf1161013e578063a217fddf146108a4578063a8d5fd65146108b9578063a9059cbb146108d9578063b3d7f6b9146108f957600080fd5b806395d89b41146108485780639f0eeeb41461085d5780639feb8f501461089157600080fd5b80637d7c2a1c146107925780637ecebe00146107a75780638da5cb5b146107d45780638f12c2f4146107f257806391d148541461080857806394bf804d1461082857600080fd5b8063313ce567116102855780634cdad5061161022357806370a08231116101fd57806370a0823114610708578063715018a6146107355780637a07bf3a1461074a5780637bb7bed11461077257600080fd5b80634cdad506146106a85780635ab764ed146106c85780636e553f65146106e857600080fd5b80633644e5151161025f5780633644e5151461060557806336568abe1461061a57806338d52e0f1461063a578063402d267d1461068657600080fd5b8063313ce5671461057d57806335d16e17146105c3578063362a3fad146105d857600080fd5b806316ad0672116102f257806323b872dd116102cc57806323b872dd146104eb578063248a9ca31461050b5780632c62fa101461053b5780632f2ff15d1461055b57600080fd5b806316ad06721461042857806318160ddd146104845780631e5eb1d01461049a57600080fd5b806301e1d1141461033a57806301ffc9a71461036257806305fb2a511461039257806306fdde03146103c6578063095ea7b3146103e85780630a28a47714610408575b600080fd5b34801561034657600080fd5b5061034f610b29565b6040519081526020015b60405180910390f35b34801561036e57600080fd5b5061038261037d366004612b47565b610bb9565b6040519015158152602001610359565b34801561039e57600080fd5b5061034f7f74e458455daa935f28c556b43e0cc4ad001a8a090f5feee376681e97d4618f4681565b3480156103d257600080fd5b506103db610bf0565b6040516103599190612bc1565b3480156103f457600080fd5b50610382610403366004612bf0565b610c7e565b34801561041457600080fd5b5061034f610423366004612c1a565b610cea565b34801561043457600080fd5b50610467610443366004612c33565b600f6020526000908152604090208054600182015460039092015490919060ff1683565b604080519384526020840192909252151590820152606001610359565b34801561049057600080fd5b5061034f60025481565b3480156104a657600080fd5b506007546008546009546104c5926001600160a01b0390811692169083565b604080516001600160a01b03948516815293909216602084015290820152606001610359565b3480156104f757600080fd5b50610382610506366004612c4e565b610da1565b34801561051757600080fd5b5061034f610526366004612c1a565b60009081526006602052604090206001015490565b34801561054757600080fd5b5061034f610556366004612c33565b610e81565b34801561056757600080fd5b5061057b610576366004612c8a565b610ea3565b005b34801561058957600080fd5b506105b17f000000000000000000000000000000000000000000000000000000000000000081565b60405160ff9091168152602001610359565b3480156105cf57600080fd5b5061034f610ece565b3480156105e457600080fd5b506105f86105f3366004612c33565b610efe565b6040516103599190612cb6565b34801561061157600080fd5b5061034f610f6b565b34801561062657600080fd5b5061057b610635366004612c8a565b610fc1565b34801561064657600080fd5b5061066e7f000000000000000000000000000000000000000000000000000000000000000081565b6040516001600160a01b039091168152602001610359565b34801561069257600080fd5b5061034f6106a1366004612c33565b5060001990565b3480156106b457600080fd5b5061034f6106c3366004612c1a565b610ff9565b3480156106d457600080fd5b5061034f6106e3366004612cfa565b61101b565b3480156106f457600080fd5b5061034f610703366004612c8a565b6110ac565b34801561071457600080fd5b5061034f610723366004612c33565b60036020526000908152604090205481565b34801561074157600080fd5b5061057b6111ed565b61075d610758366004612c1a565b611201565b60408051928352602083019190915201610359565b34801561077e57600080fd5b5061066e61078d366004612c1a565b611320565b34801561079e57600080fd5b5061057b61134a565b3480156107b357600080fd5b5061034f6107c2366004612c33565b60056020526000908152604090205481565b3480156107e057600080fd5b50600a546001600160a01b031661066e565b3480156107fe57600080fd5b5061034f600d5481565b34801561081457600080fd5b50610382610823366004612c8a565b611417565b34801561083457600080fd5b5061034f610843366004612c8a565b611442565b34801561085457600080fd5b506103db6114fc565b34801561086957600080fd5b5061066e7f000000000000000000000000000000000000000000000000000000000000000081565b61057b61089f366004612bf0565b611509565b3480156108b057600080fd5b5061034f600081565b3480156108c557600080fd5b50600c5461066e906001600160a01b031681565b3480156108e557600080fd5b506103826108f4366004612bf0565b6117fc565b34801561090557600080fd5b5061034f610914366004612c1a565b611862565b34801561092557600080fd5b5061034f610934366004612d24565b611884565b34801561094557600080fd5b5061034f7f477fc23fb51bb5d5aa814872a393b0e4f35d0916c7503c0fd96584681070d41081565b34801561097957600080fd5b5061034f610988366004612d24565b611982565b34801561099957600080fd5b506109a2611a88565b6040516103599190612d60565b3480156109bb57600080fd5b506109e66109ca366004612c33565b6010602052600090815260409020805460019091015460ff1682565b60408051928352901515602083015201610359565b348015610a0757600080fd5b5061034f610a16366004612c33565b611aea565b348015610a2757600080fd5b5061057b610a36366004612da1565b611af5565b348015610a4757600080fd5b5061057b610a56366004612c8a565b611d39565b348015610a6757600080fd5b5061034f610a76366004612c33565b6001600160a01b031660009081526003602052604090205490565b348015610a9d57600080fd5b5061034f610aac366004612cfa565b600460209081526000928352604080842090915290825290205481565b348015610ad557600080fd5b5061034f610ae4366004612c1a565b611d5e565b348015610af557600080fd5b5061057b610b04366004612e5b565b611d7f565b348015610b1557600080fd5b5061057b610b24366004612c33565b611dc4565b6040516370a0823160e01b81523060048201526000907f00000000000000000000000000000000000000000000000000000000000000006001600160a01b0316906370a0823190602401602060405180830381865afa158015610b90573d6000803e3d6000fd5b505050506040513d601f19601f82011682018060405250810190610bb49190612ec3565b905090565b60006001600160e01b03198216637965db0b60e01b1480610bea57506301ffc9a760e01b6001600160e01b03198316145b92915050565b60008054610bfd90612edc565b80601f0160208091040260200160405190810160405280929190818152602001828054610c2990612edc565b8015610c765780601f10610c4b57610100808354040283529160200191610c76565b820191906000526020600020905b815481529060010190602001808311610c5957829003601f168201915b505050505081565b3360008181526004602090815260408083206001600160a01b038716808552925280832085905551919290917f8c5be1e5ebec7d5bd14f71427d1e84f3dd0314c0f7b2291e5b200ac8c7c3b92590610cd99086815260200190565b60405180910390a350600192915050565b6040516370a0823160e01b815230600482015260009081906001600160a01b037f000000000000000000000000000000000000000000000000000000000000000016906370a0823190602401602060405180830381865afa158015610d53573d6000803e3d6000fd5b505050506040513d601f19601f82011682018060405250810190610d779190612ec3565b90508015610d9857610d9381610d8b610b29565b859190611e02565b610d9a565b825b9392505050565b6001600160a01b03831660009081526004602090815260408083203384529091528120546000198114610dfd57610dd88382612f2c565b6001600160a01b03861660009081526004602090815260408083203384529091529020555b6001600160a01b03851660009081526003602052604081208054859290610e25908490612f2c565b90915550506001600160a01b03808516600081815260036020526040908190208054870190555190918716906000805160206133eb83398151915290610e6e9087815260200190565b60405180910390a3506001949350505050565b6001600160a01b038116600090815260036020526040812054610bea90610ff9565b600082815260066020526040902060010154610ebe81611e28565b610ec88383611e32565b50505050565b6000610bb46106c37f0000000000000000000000000000000000000000000000000000000000000000600a613023565b60608060005b600e54811015610f6457610f3f84600e8381548110610f2557610f25613032565b6000918252602090912001546001600160a01b031661101b565b828281518110610f5157610f51613032565b6020908102919091010152600101610f04565b5092915050565b60007f00000000000000000000000000000000000000000000000000000000000000004614610f9c57610bb4611ec6565b507f000000000000000000000000000000000000000000000000000000000000000090565b6001600160a01b0381163314610fea5760405163334bd91960e11b815260040160405180910390fd5b610ff48282611f60565b505050565b6002546000908015610d9857610d93611010610b29565b600254859190611fcd565b6001600160a01b03808216600081815260106020908152604080832080549588168452600f835281842080549585526002810190935290832054929490939092856110668286612f2c565b905061107481600185611fcd565b600954909750156110a057600061109088600760020154611feb565b905061109c8189612f2c565b9750505b50505050505092915050565b60006110b661206b565b6110bf83611d5e565b9050806000036110ea57604051636e3699b760e11b8152600481018490526024015b60405180910390fd5b61111f6001600160a01b037f000000000000000000000000000000000000000000000000000000000000000016333086612095565b82600d60008282546111319190613048565b9091555050600c546040805160008082526020820190925261117a926001600160a01b031691869190611174565b606081526020019060019003908161115f5790505b5061211f565b5050600c54611194906001600160a01b0316303386612262565b60408051848152602081018390526001600160a01b0384169133917fdcbc1c05240f31ff3ad067ef1ee35ce4997762752e3a095284754544f4c709d7910160405180910390a36111e38361239b565b610bea6001600b55565b6111f5612526565b6111ff6000612553565b565b600e5460085460009182916001600160a01b0316845b828110801561122f575061122c86600a613048565b81105b1561131557600080600e838154811061124a5761124a613032565b6000918252602080832090910154338352600f8252604080842080546001600160a01b03909316808652600290910184528185205460109094529320549293506112a19260019261129a91612f2c565b9190611fcd565b6001600160a01b03821660008181526010602090815260408083205433808552600f84528285209585526002909501909252909120559092506112e8908290309085612262565b6001600160a01b0384161561130057611300826125a5565b5050808061130d9061305b565b915050611217565b509394909350915050565b600e818154811061133057600080fd5b6000918252602090912001546001600160a01b0316905081565b600e5460000361139c5760405162461bcd60e51b815260206004820152601760248201527f4e6f207265776172647320746f20726562616c616e636500000000000000000060448201526064016110e1565b60405163bea9db6d60e01b81526001600160a01b037f0000000000000000000000000000000000000000000000000000000000000000169063bea9db6d906113e990600e90600401613074565b600060405180830381600087803b15801561140357600080fd5b505af1158015610ec8573d6000803e3d6000fd5b60009182526006602090815260408084206001600160a01b0393909316845291905290205460ff1690565b600061144c61206b565b6114618261145985611862565b92508261269a565b80600d60008282546114739190613048565b909155505060408051828152602081018590526001600160a01b0384169133917fdcbc1c05240f31ff3ad067ef1ee35ce4997762752e3a095284754544f4c709d7910160405180910390a36114f36001600160a01b037f000000000000000000000000000000000000000000000000000000000000000016333084612095565b6111e38161239b565b60018054610bfd90612edc565b7f477fc23fb51bb5d5aa814872a393b0e4f35d0916c7503c0fd96584681070d41061153381611e28565b816000036115835760405162461bcd60e51b815260206004820152601b60248201527f5661756c743a20416d6f756e742063616e2774206265207a65726f000000000060448201526064016110e1565b600d546000036115d55760405162461bcd60e51b815260206004820152601a60248201527f5661756c743a204e6f20746f6b656e207374616b65642079657400000000000060448201526064016110e1565b7f00000000000000000000000000000000000000000000000000000000000000006001600160a01b0316836001600160a01b0316141580156116255750600c546001600160a01b03848116911614155b6116895760405162461bcd60e51b815260206004820152602f60248201527f5661756c743a2052657761726420616e64205374616b696e6720746f6b656e7360448201526e2063616e6e6f742062652073616d6560881b60648201526084016110e1565b600e54600a036116ac57604051637561e0ab60e01b815260040160405180910390fd5b60006116c66001600d5485611fcd9092919063ffffffff16565b6001600160a01b038516600090815260106020526040902060018101549192509060ff1661176f57600e8054600180820183556000929092527fbb7b4a454dc3493923482f07822329ed19e8244eff582cc204f8554c3620c3fd0180546001600160a01b0319166001600160a01b038816179055818101805460ff1916909117905581815561175585306126f4565b61176a6001600160a01b038616333087612095565b6117b2565b6001600160a01b03851660009081526010602052604081208054849290611797908490613048565b909155506117b290506001600160a01b038616333087612095565b846001600160a01b03167fac24935fd910bc682b5ccb1a07b718cadf8cf2f6d1404c4f3ddc3662dae40e29856040516117ed91815260200190565b60405180910390a25050505050565b3360009081526003602052604081208054839190839061181d908490612f2c565b90915550506001600160a01b038316600081815260036020526040908190208054850190555133906000805160206133eb83398151915290610cd99086815260200190565b6002546000908015610d9857610d93611879610b29565b600254859190611e02565b600061188e61206b565b61189784612812565b83600d60008282546118a99190612f2c565b9091555050600c546118c6906001600160a01b0316333087612262565b600c546040805160008152602081019091526118ed916001600160a01b031690869061284a565b506119226001600160a01b037f0000000000000000000000000000000000000000000000000000000000000000168486612976565b826001600160a01b0316826001600160a01b03167ff341246adaac6f497bc2a656f546ab9e182111d630394f0c57c710a59a2cb5678684604051611970929190918252602082015260400190565b60405180910390a3610d9a6001600b55565b600061198c61206b565b61199584610ff9565b9050806000036119d55760405162461bcd60e51b815260206004820152600b60248201526a5a45524f5f41535345545360a81b60448201526064016110e1565b6119de84610ff9565b90506119ea82856129ee565b80600d60008282546119fc9190612f2c565b909155505060408051828152602081018690526001600160a01b0380861692908516917ff341246adaac6f497bc2a656f546ab9e182111d630394f0c57c710a59a2cb567910160405180910390a3611a7e6001600160a01b037f0000000000000000000000000000000000000000000000000000000000000000168483612976565b610d9a6001600b55565b6060600e805480602002602001604051908101604052809291908181526020018280548015611ae057602002820191906000526020600020905b81546001600160a01b03168152600190910190602001808311611ac2575b5050505050905090565b6000610bea82610e81565b42841015611b455760405162461bcd60e51b815260206004820152601760248201527f5045524d49545f444541444c494e455f4558504952454400000000000000000060448201526064016110e1565b60006001611b51610f6b565b6001600160a01b038a811660008181526005602090815260409182902080546001810190915582517f6e71edae12b1b97f4d1f60370fef10105fa2faae0126114a169c64845d6126c98184015280840194909452938d166060840152608083018c905260a083019390935260c08083018b90528151808403909101815260e08301909152805192019190912061190160f01b6101008301526101028201929092526101228101919091526101420160408051601f198184030181528282528051602091820120600084529083018083525260ff871690820152606081018590526080810184905260a0016020604051602081039080840390855afa158015611c5d573d6000803e3d6000fd5b5050604051601f1901519150506001600160a01b03811615801590611c935750876001600160a01b0316816001600160a01b0316145b611cd05760405162461bcd60e51b815260206004820152600e60248201526d24a72b20a624a22fa9a4a3a722a960911b60448201526064016110e1565b6001600160a01b0390811660009081526004602090815260408083208a8516808552908352928190208990555188815291928a16917f8c5be1e5ebec7d5bd14f71427d1e84f3dd0314c0f7b2291e5b200ac8c7c3b925910160405180910390a350505050505050565b600082815260066020526040902060010154611d5481611e28565b610ec88383611f60565b6002546000908015610d9857610d936001611d77610b29565b859190611fcd565b7f74e458455daa935f28c556b43e0cc4ad001a8a090f5feee376681e97d4618f46611da981611e28565b611dc0826000015183602001518460400151612a50565b5050565b611dcc612526565b6001600160a01b038116611df657604051631e4fbdf760e01b8152600060048201526024016110e1565b611dff81612553565b50565b6000826000190484118302158202611e1957600080fd5b50910281810615159190040190565b611dff8133612b0e565b6000611e3e8383611417565b611ebe5760008381526006602090815260408083206001600160a01b03861684529091529020805460ff19166001179055611e763390565b6001600160a01b0316826001600160a01b0316847f2f8788117e7eff1d82e926ec794901d17c78024a50270940304540a733656f0d60405160405180910390a4506001610bea565b506000610bea565b60007f8b73c3c69bb8fe3d512ecc4cf759cc79239f7b179b0ffacaa9a75d522b39400f6000604051611ef891906130b8565b6040805191829003822060208301939093528101919091527fc89efdaa54c0f20c7adf612882df0950f5a951637e0307cdcb4c672f298b8bc660608201524660808201523060a082015260c00160405160208183030381529060405280519060200120905090565b6000611f6c8383611417565b15611ebe5760008381526006602090815260408083206001600160a01b0386168085529252808320805460ff1916905551339286917ff6391f5c32d9c69d2a47ea670b442974b53935d1edc7fd64eb21e047a839171b9190a4506001610bea565b6000826000190484118302158202611fe457600080fd5b5091020490565b6000612710611ffa8385613159565b10156120545760405162461bcd60e51b8152602060048201526024808201527f46433a20546f6f20736d616c6c20616d6f756e7420746f20636f6e73696465726044820152632066656560e01b60648201526084016110e1565b6127106120618385613159565b610d9a9190613170565b6002600b540361208e57604051633ee5aeb560e01b815260040160405180910390fd5b6002600b55565b60006040516323b872dd60e01b81528460048201528360248201528260448201526020600060648360008a5af13d15601f3d11600160005114161716915050806121185760405162461bcd60e51b81526020600482015260146024820152731514905394d1915497d19493d357d1905253115160621b60448201526064016110e1565b5050505050565b6000606060008060006101676001600160a01b031663278e0b8860e01b89898960405160240161215193929190613192565b60408051601f198184030181529181526020820180516001600160e01b03166001600160e01b031990941693909317909252905161218f9190613217565b6000604051808303816000865af19150503d80600081146121cc576040519150601f19603f3d011682016040523d82523d6000602084013e6121d1565b606091505b5091509150816121f4576040805160008082526020820190925260159190612208565b80806020019051810190612208919061325d565b90965094509250600383900b6016146122575760405162461bcd60e51b815260206004820152601160248201527053616665206d696e74206661696c65642160781b60448201526064016110e1565b505050935093915050565b604080516001600160a01b038681166024830152858116604483015284166064820152600783900b6084808301919091528251808303909101815260a490910182526020810180516001600160e01b031663eca3691760e01b179052905160009182918291610167916122d59190613217565b6000604051808303816000865af19150503d8060008114612312576040519150601f19603f3d011682016040523d82523d6000602084013e612317565b606091505b50915091508161232857601561233c565b8080602001905181019061233c9190613339565b9250600383900b6016146123925760405162461bcd60e51b815260206004820152601b60248201527f5361666520746f6b656e207472616e73666572206661696c656421000000000060448201526064016110e1565b50505050505050565b336000908152600f602052604090206003015460ff166124c657600e5460005b8181101561247f576000600e82815481106123d8576123d8613032565b60009182526020808320909101546001600160a01b031680835260108252604080842054338552600f8452818520838652600201845281852055805163053aa6f360e11b815290519194508493630a754de693600480840194919391929183900301908290875af1158015612451573d6000803e3d6000fd5b505050506040513d601f19601f820116820180604052508101906124759190612ec3565b50506001016123bb565b50336000908152600f6020526040812083815560038101805460ff1916600190811790915542910155600d80548492906124ba908490613048565b90915550611dff915050565b6124d06000611201565b5050336000908152600f6020526040812080548392906124f1908490613048565b9091555050336000908152600f6020526040812042600190910155600d805483929061251e908490613048565b909155505050565b600a546001600160a01b031633146111ff5760405163118cdaa760e01b81523360048201526024016110e1565b600a80546001600160a01b038381166001600160a01b0319831681179093556040519116919082907f8be0079c531659141344cd1fd0a4f28419497f9722a3daafe3b4186f6b6457e090600090a35050565b6008546009546001600160a01b03909116906000906125c5908490611feb565b6040516370a0823160e01b815233600482015290915081906001600160a01b038416906370a0823190602401602060405180830381865afa15801561260e573d6000803e3d6000fd5b505050506040513d601f19601f820116820180604052508101906126329190612ec3565b10156126805760405162461bcd60e51b815260206004820152601e60248201527f46433a20496e73756666696369656e7420746f6b656e2062616c616e6365000060448201526064016110e1565b600754610ff490839033906001600160a01b031684612262565b80600260008282546126ac9190613048565b90915550506001600160a01b0382166000818152600360209081526040808320805486019055518481526000805160206133eb83398151915291015b60405180910390a35050565b604080516001600160a01b038381166024830152841660448083019190915282518083039091018152606490910182526020810180516001600160e01b031663248a35ef60e11b179052905160009182918291610167916127559190613217565b6000604051808303816000865af19150503d8060008114612792576040519150601f19603f3d011682016040523d82523d6000602084013e612797565b606091505b5091509150816127a85760156127bc565b808060200190518101906127bc9190613339565b9250600383900b6016146121185760405162461bcd60e51b815260206004820152601f60248201527f536166652073696e676c65206173736f63696174696f6e206661696c6564210060448201526064016110e1565b336000908152600f602052604081208054839290612831908490612f2c565b9250508190555080600d600082825461251e9190612f2c565b6000806000806101676001600160a01b031663acb9cff960e01b88888860405160240161287993929190613354565b60408051601f198184030181529181526020820180516001600160e01b03166001600160e01b03199094169390931790925290516128b79190613217565b6000604051808303816000865af19150503d80600081146128f4576040519150601f19603f3d011682016040523d82523d6000602084013e6128f9565b606091505b50915091508161290c5760156000612920565b8080602001905181019061292091906133c0565b94509250600383900b60161461296c5760405162461bcd60e51b815260206004820152601160248201527053616665206275726e206661696c65642160781b60448201526064016110e1565b5050509392505050565b600060405163a9059cbb60e01b8152836004820152826024820152602060006044836000895af13d15601f3d1160016000511416171691505080610ec85760405162461bcd60e51b815260206004820152600f60248201526e1514905394d1915497d19052531151608a1b60448201526064016110e1565b6001600160a01b03821660009081526003602052604081208054839290612a16908490612f2c565b90915550506002805482900390556040518181526000906001600160a01b038416906000805160206133eb833981519152906020016126e8565b6127108110612a935760405162461bcd60e51b815260206004820152600f60248201526e46433a20496e76616c69642066656560881b60448201526064016110e1565b600780546001600160a01b038581166001600160a01b0319928316811790935560088054918616919092168117909155600983905560408051928352602083019190915281018290527febd34b2df88ea5c9f67c04b13b08e5e63c2d17e269aab73b866fe47a8736a2649060600160405180910390a1505050565b612b188282611417565b611dc05760405163e2517d3f60e01b81526001600160a01b0382166004820152602481018390526044016110e1565b600060208284031215612b5957600080fd5b81356001600160e01b031981168114610d9a57600080fd5b60005b83811015612b8c578181015183820152602001612b74565b50506000910152565b60008151808452612bad816020860160208601612b71565b601f01601f19169290920160200192915050565b602081526000610d9a6020830184612b95565b80356001600160a01b0381168114612beb57600080fd5b919050565b60008060408385031215612c0357600080fd5b612c0c83612bd4565b946020939093013593505050565b600060208284031215612c2c57600080fd5b5035919050565b600060208284031215612c4557600080fd5b610d9a82612bd4565b600080600060608486031215612c6357600080fd5b612c6c84612bd4565b9250612c7a60208501612bd4565b9150604084013590509250925092565b60008060408385031215612c9d57600080fd5b82359150612cad60208401612bd4565b90509250929050565b6020808252825182820181905260009190848201906040850190845b81811015612cee57835183529284019291840191600101612cd2565b50909695505050505050565b60008060408385031215612d0d57600080fd5b612d1683612bd4565b9150612cad60208401612bd4565b600080600060608486031215612d3957600080fd5b83359250612d4960208501612bd4565b9150612d5760408501612bd4565b90509250925092565b6020808252825182820181905260009190848201906040850190845b81811015612cee5783516001600160a01b031683529284019291840191600101612d7c565b600080600080600080600060e0888a031215612dbc57600080fd5b612dc588612bd4565b9650612dd360208901612bd4565b95506040880135945060608801359350608088013560ff81168114612df757600080fd5b9699959850939692959460a0840135945060c09093013592915050565b634e487b7160e01b600052604160045260246000fd5b604051601f8201601f1916810167ffffffffffffffff81118282101715612e5357612e53612e14565b604052919050565b600060608284031215612e6d57600080fd5b6040516060810181811067ffffffffffffffff82111715612e9057612e90612e14565b604052612e9c83612bd4565b8152612eaa60208401612bd4565b6020820152604083013560408201528091505092915050565b600060208284031215612ed557600080fd5b5051919050565b600181811c90821680612ef057607f821691505b602082108103612f1057634e487b7160e01b600052602260045260246000fd5b50919050565b634e487b7160e01b600052601160045260246000fd5b81810381811115610bea57610bea612f16565b600181815b80851115612f7a578160001904821115612f6057612f60612f16565b80851615612f6d57918102915b93841c9390800290612f44565b509250929050565b600082612f9157506001610bea565b81612f9e57506000610bea565b8160018114612fb45760028114612fbe57612fda565b6001915050610bea565b60ff841115612fcf57612fcf612f16565b50506001821b610bea565b5060208310610133831016604e8410600b8410161715612ffd575081810a610bea565b6130078383612f3f565b806000190482111561301b5761301b612f16565b029392505050565b6000610d9a60ff841683612f82565b634e487b7160e01b600052603260045260246000fd5b80820180821115610bea57610bea612f16565b60006001820161306d5761306d612f16565b5060010190565b6020808252825482820181905260008481528281209092916040850190845b81811015612cee5783546001600160a01b031683526001938401939285019201613093565b60008083548160018260011c915060018316806130d657607f831692505b602080841082036130f557634e487b7160e01b86526022600452602486fd5b818015613109576001811461311e5761314b565b60ff198616895284151585028901965061314b565b60008a81526020902060005b868110156131435781548b82015290850190830161312a565b505084890196505b509498975050505050505050565b8082028115828204841417610bea57610bea612f16565b60008261318d57634e487b7160e01b600052601260045260246000fd5b500490565b60006060820160018060a01b0386168352602067ffffffffffffffff861660208501526060604085015281855180845260808601915060808160051b87010193506020870160005b8281101561320857607f198887030184526131f6868351612b95565b955092840192908401906001016131da565b50939998505050505050505050565b60008251613229818460208701612b71565b9190910192915050565b8051600381900b8114612beb57600080fd5b805167ffffffffffffffff81168114612beb57600080fd5b60008060006060848603121561327257600080fd5b61327b84613233565b9250602061328a818601613245565b9250604085015167ffffffffffffffff808211156132a757600080fd5b818701915087601f8301126132bb57600080fd5b8151818111156132cd576132cd612e14565b8060051b91506132de848301612e2a565b818152918301840191848101908a8411156132f857600080fd5b938501935b8385101561332957845192508260070b83146133195760008081fd5b82825293850193908501906132fd565b8096505050505050509250925092565b60006020828403121561334b57600080fd5b610d9a82613233565b6001600160a01b038416815267ffffffffffffffff83166020808301919091526060604083018190528351908301819052600091848101916080850190845b818110156133b257845160070b83529383019391830191600101613393565b509098975050505050505050565b600080604083850312156133d357600080fd5b6133dc83613233565b9150612cad6020840161324556feddf252ad1be2c89b69c2b068fc378daa952ba7f163c4a11628f55a4df523b3efa2646970667358221220b3e78d3f6cb8311e2f7dfb6ea0611d49106100fd35f00310db88ae7f398007a264736f6c63430008180033",
  "linkReferences": {},
  "deployedLinkReferences": {}
}