{
  "_format": "hh-sol-artifact-1",
  "contractName": "HederaVault",
  "sourceName": "contracts/erc4626/HTSDeprecated/Vault.sol",
  "abi": [
    {
      "inputs": [
        {
          "internalType": "contract ERC20",
          "name": "_underlying",
          "type": "address"
        },
        {
          "internalType": "string",
          "name": "_name",
          "type": "string"
        },
        {
          "internalType": "string",
          "name": "_symbol",
          "type": "string"
        },
        {
          "components": [
            {
              "internalType": "address",
              "name": "receiver",
              "type": "address"
            },
            {
              "internalType": "address",
              "name": "token",
              "type": "address"
            },
            {
              "internalType": "uint256",
              "name": "feePercentage",
              "type": "uint256"
            }
          ],
          "internalType": "struct FeeConfiguration.FeeConfig",
          "name": "_feeConfig",
          "type": "tuple"
        },
        {
          "internalType": "address",
          "name": "_vaultRewardController",
          "type": "address"
        },
        {
          "internalType": "address",
          "name": "_feeConfigController",
          "type": "address"
        }
      ],
      "stateMutability": "payable",
      "type": "constructor"
    },
    {
      "inputs": [],
      "name": "AccessControlBadConfirmation",
      "type": "error"
    },
    {
      "inputs": [
        {
          "internalType": "address",
          "name": "account",
          "type": "address"
        },
        {
          "internalType": "bytes32",
          "name": "neededRole",
          "type": "bytes32"
        }
      ],
      "name": "AccessControlUnauthorizedAccount",
      "type": "error"
    },
    {
      "inputs": [
        {
          "internalType": "address",
          "name": "target",
          "type": "address"
        }
      ],
      "name": "AddressEmptyCode",
      "type": "error"
    },
    {
      "inputs": [
        {
          "internalType": "address",
          "name": "account",
          "type": "address"
        }
      ],
      "name": "AddressInsufficientBalance",
      "type": "error"
    },
    {
      "inputs": [],
      "name": "FailedInnerCall",
      "type": "error"
    },
    {
      "inputs": [],
      "name": "MaxRewardTokensAmount",
      "type": "error"
    },
    {
      "inputs": [
        {
          "internalType": "address",
          "name": "owner",
          "type": "address"
        }
      ],
      "name": "OwnableInvalidOwner",
      "type": "error"
    },
    {
      "inputs": [
        {
          "internalType": "address",
          "name": "account",
          "type": "address"
        }
      ],
      "name": "OwnableUnauthorizedAccount",
      "type": "error"
    },
    {
      "inputs": [],
      "name": "ReentrancyGuardReentrantCall",
      "type": "error"
    },
    {
      "inputs": [
        {
          "internalType": "address",
          "name": "token",
          "type": "address"
        }
      ],
      "name": "SafeERC20FailedOperation",
      "type": "error"
    },
    {
      "inputs": [
        {
          "internalType": "uint256",
          "name": "numberOfShares",
          "type": "uint256"
        }
      ],
      "name": "ZeroShares",
      "type": "error"
    },
    {
      "anonymous": false,
      "inputs": [
        {
          "indexed": true,
          "internalType": "address",
          "name": "owner",
          "type": "address"
        },
        {
          "indexed": true,
          "internalType": "address",
          "name": "spender",
          "type": "address"
        },
        {
          "indexed": false,
          "internalType": "uint256",
          "name": "amount",
          "type": "uint256"
        }
      ],
      "name": "Approval",
      "type": "event"
    },
    {
      "anonymous": false,
      "inputs": [
        {
          "indexed": true,
          "internalType": "address",
          "name": "createdToken",
          "type": "address"
        }
      ],
      "name": "CreatedToken",
      "type": "event"
    },
    {
      "anonymous": false,
      "inputs": [
        {
          "indexed": true,
          "internalType": "address",
          "name": "sender",
          "type": "address"
        },
        {
          "indexed": true,
          "internalType": "address",
          "name": "receiver",
          "type": "address"
        },
        {
          "indexed": false,
          "internalType": "uint256",
          "name": "assets",
          "type": "uint256"
        },
        {
          "indexed": false,
          "internalType": "uint256",
          "name": "shares",
          "type": "uint256"
        }
      ],
      "name": "Deposit",
      "type": "event"
    },
    {
      "anonymous": false,
      "inputs": [
        {
          "components": [
            {
              "internalType": "address",
              "name": "receiver",
              "type": "address"
            },
            {
              "internalType": "address",
              "name": "token",
              "type": "address"
            },
            {
              "internalType": "uint256",
              "name": "feePercentage",
              "type": "uint256"
            }
          ],
          "indexed": false,
          "internalType": "struct FeeConfiguration.FeeConfig",
          "name": "feeConfig",
          "type": "tuple"
        }
      ],
      "name": "FeeConfigUpdated",
      "type": "event"
    },
    {
      "anonymous": false,
      "inputs": [
        {
          "indexed": true,
          "internalType": "address",
          "name": "previousOwner",
          "type": "address"
        },
        {
          "indexed": true,
          "internalType": "address",
          "name": "newOwner",
          "type": "address"
        }
      ],
      "name": "OwnershipTransferred",
      "type": "event"
    },
    {
      "anonymous": false,
      "inputs": [
        {
          "indexed": true,
          "internalType": "address",
          "name": "rewardToken",
          "type": "address"
        },
        {
          "indexed": false,
          "internalType": "uint256",
          "name": "amount",
          "type": "uint256"
        }
      ],
      "name": "RewardAdded",
      "type": "event"
    },
    {
      "anonymous": false,
      "inputs": [
        {
          "indexed": true,
          "internalType": "bytes32",
          "name": "role",
          "type": "bytes32"
        },
        {
          "indexed": true,
          "internalType": "bytes32",
          "name": "previousAdminRole",
          "type": "bytes32"
        },
        {
          "indexed": true,
          "internalType": "bytes32",
          "name": "newAdminRole",
          "type": "bytes32"
        }
      ],
      "name": "RoleAdminChanged",
      "type": "event"
    },
    {
      "anonymous": false,
      "inputs": [
        {
          "indexed": true,
          "internalType": "bytes32",
          "name": "role",
          "type": "bytes32"
        },
        {
          "indexed": true,
          "internalType": "address",
          "name": "account",
          "type": "address"
        },
        {
          "indexed": true,
          "internalType": "address",
          "name": "sender",
          "type": "address"
        }
      ],
      "name": "RoleGranted",
      "type": "event"
    },
    {
      "anonymous": false,
      "inputs": [
        {
          "indexed": true,
          "internalType": "bytes32",
          "name": "role",
          "type": "bytes32"
        },
        {
          "indexed": true,
          "internalType": "address",
          "name": "account",
          "type": "address"
        },
        {
          "indexed": true,
          "internalType": "address",
          "name": "sender",
          "type": "address"
        }
      ],
      "name": "RoleRevoked",
      "type": "event"
    },
    {
      "anonymous": false,
      "inputs": [
        {
          "indexed": true,
          "internalType": "address",
          "name": "from",
          "type": "address"
        },
        {
          "indexed": true,
          "internalType": "address",
          "name": "to",
          "type": "address"
        },
        {
          "indexed": false,
          "internalType": "uint256",
          "name": "amount",
          "type": "uint256"
        }
      ],
      "name": "Transfer",
      "type": "event"
    },
    {
      "anonymous": false,
      "inputs": [
        {
          "indexed": true,
          "internalType": "address",
          "name": "sender",
          "type": "address"
        },
        {
          "indexed": true,
          "internalType": "address",
          "name": "receiver",
          "type": "address"
        },
        {
          "indexed": false,
          "internalType": "uint256",
          "name": "assets",
          "type": "uint256"
        },
        {
          "indexed": false,
          "internalType": "uint256",
          "name": "shares",
          "type": "uint256"
        }
      ],
      "name": "Withdraw",
      "type": "event"
    },
    {
      "inputs": [],
      "name": "DEFAULT_ADMIN_ROLE",
      "outputs": [
        {
          "internalType": "bytes32",
          "name": "",
          "type": "bytes32"
        }
      ],
      "stateMutability": "view",
      "type": "function"
    },
    {
      "inputs": [],
      "name": "DOMAIN_SEPARATOR",
      "outputs": [
        {
          "internalType": "bytes32",
          "name": "",
          "type": "bytes32"
        }
      ],
      "stateMutability": "view",
      "type": "function"
    },
    {
      "inputs": [],
      "name": "FEE_CONFIG_CONTROLLER_ROLE",
      "outputs": [
        {
          "internalType": "bytes32",
          "name": "",
          "type": "bytes32"
        }
      ],
      "stateMutability": "view",
      "type": "function"
    },
    {
      "inputs": [],
      "name": "VAULT_REWARD_CONTROLLER_ROLE",
      "outputs": [
        {
          "internalType": "bytes32",
          "name": "",
          "type": "bytes32"
        }
      ],
      "stateMutability": "view",
      "type": "function"
    },
    {
      "inputs": [
        {
          "internalType": "address",
          "name": "_token",
          "type": "address"
        },
        {
          "internalType": "uint256",
          "name": "_amount",
          "type": "uint256"
        }
      ],
      "name": "addReward",
      "outputs": [],
      "stateMutability": "payable",
      "type": "function"
    },
    {
      "inputs": [
        {
          "internalType": "address",
          "name": "",
          "type": "address"
        },
        {
          "internalType": "address",
          "name": "",
          "type": "address"
        }
      ],
      "name": "allowance",
      "outputs": [
        {
          "internalType": "uint256",
          "name": "",
          "type": "uint256"
        }
      ],
      "stateMutability": "view",
      "type": "function"
    },
    {
      "inputs": [
        {
          "internalType": "address",
          "name": "spender",
          "type": "address"
        },
        {
          "internalType": "uint256",
          "name": "amount",
          "type": "uint256"
        }
      ],
      "name": "approve",
      "outputs": [
        {
          "internalType": "bool",
          "name": "",
          "type": "bool"
        }
      ],
      "stateMutability": "nonpayable",
      "type": "function"
    },
    {
      "inputs": [],
      "name": "asset",
      "outputs": [
        {
          "internalType": "address",
          "name": "",
          "type": "address"
        }
      ],
      "stateMutability": "view",
      "type": "function"
    },
    {
      "inputs": [],
      "name": "assetTotalSupply",
      "outputs": [
        {
          "internalType": "uint256",
          "name": "",
          "type": "uint256"
        }
      ],
      "stateMutability": "view",
      "type": "function"
    },
    {
      "inputs": [
        {
          "internalType": "address",
          "name": "user",
          "type": "address"
        }
      ],
      "name": "assetsOf",
      "outputs": [
        {
          "internalType": "uint256",
          "name": "",
          "type": "uint256"
        }
      ],
      "stateMutability": "view",
      "type": "function"
    },
    {
      "inputs": [],
      "name": "assetsPerShare",
      "outputs": [
        {
          "internalType": "uint256",
          "name": "",
          "type": "uint256"
        }
      ],
      "stateMutability": "view",
      "type": "function"
    },
    {
      "inputs": [
        {
          "internalType": "address",
          "name": "",
          "type": "address"
        }
      ],
      "name": "balanceOf",
      "outputs": [
        {
          "internalType": "uint256",
          "name": "",
          "type": "uint256"
        }
      ],
      "stateMutability": "view",
      "type": "function"
    },
    {
      "inputs": [
        {
          "internalType": "uint256",
          "name": "_startPosition",
          "type": "uint256"
        },
        {
          "internalType": "address",
          "name": "receiver",
          "type": "address"
        }
      ],
      "name": "claimAllReward",
      "outputs": [
        {
          "internalType": "uint256",
          "name": "",
          "type": "uint256"
        },
        {
          "internalType": "uint256",
          "name": "",
          "type": "uint256"
        }
      ],
      "stateMutability": "payable",
      "type": "function"
    },
    {
      "inputs": [],
      "name": "decimals",
      "outputs": [
        {
          "internalType": "uint8",
          "name": "",
          "type": "uint8"
        }
      ],
      "stateMutability": "view",
      "type": "function"
    },
    {
      "inputs": [
        {
          "internalType": "uint256",
          "name": "assets",
          "type": "uint256"
        },
        {
          "internalType": "address",
          "name": "receiver",
          "type": "address"
        }
      ],
      "name": "deposit",
      "outputs": [
        {
          "internalType": "uint256",
          "name": "shares",
          "type": "uint256"
        }
      ],
      "stateMutability": "nonpayable",
      "type": "function"
    },
    {
      "inputs": [],
      "name": "exchangeRate",
      "outputs": [
        {
          "internalType": "uint256",
          "name": "",
          "type": "uint256"
        }
      ],
      "stateMutability": "view",
      "type": "function"
    },
    {
      "inputs": [],
      "name": "feeConfig",
      "outputs": [
        {
          "internalType": "address",
          "name": "receiver",
          "type": "address"
        },
        {
          "internalType": "address",
          "name": "token",
          "type": "address"
        },
        {
          "internalType": "uint256",
          "name": "feePercentage",
          "type": "uint256"
        }
      ],
      "stateMutability": "view",
      "type": "function"
    },
    {
      "inputs": [
        {
          "internalType": "address",
          "name": "_user",
          "type": "address"
        }
      ],
      "name": "getAllRewards",
      "outputs": [
        {
          "internalType": "uint256[]",
          "name": "_rewards",
          "type": "uint256[]"
        }
      ],
      "stateMutability": "view",
      "type": "function"
    },
    {
      "inputs": [],
      "name": "getRewardTokens",
      "outputs": [
        {
          "internalType": "address[]",
          "name": "",
          "type": "address[]"
        }
      ],
      "stateMutability": "view",
      "type": "function"
    },
    {
      "inputs": [
        {
          "internalType": "bytes32",
          "name": "role",
          "type": "bytes32"
        }
      ],
      "name": "getRoleAdmin",
      "outputs": [
        {
          "internalType": "bytes32",
          "name": "",
          "type": "bytes32"
        }
      ],
      "stateMutability": "view",
      "type": "function"
    },
    {
      "inputs": [
        {
          "internalType": "address",
          "name": "_user",
          "type": "address"
        },
        {
          "internalType": "address",
          "name": "_rewardToken",
          "type": "address"
        }
      ],
      "name": "getUserReward",
      "outputs": [
        {
          "internalType": "uint256",
          "name": "unclaimedAmount",
          "type": "uint256"
        }
      ],
      "stateMutability": "view",
      "type": "function"
    },
    {
      "inputs": [
        {
          "internalType": "bytes32",
          "name": "role",
          "type": "bytes32"
        },
        {
          "internalType": "address",
          "name": "account",
          "type": "address"
        }
      ],
      "name": "grantRole",
      "outputs": [],
      "stateMutability": "nonpayable",
      "type": "function"
    },
    {
      "inputs": [
        {
          "internalType": "bytes32",
          "name": "role",
          "type": "bytes32"
        },
        {
          "internalType": "address",
          "name": "account",
          "type": "address"
        }
      ],
      "name": "hasRole",
      "outputs": [
        {
          "internalType": "bool",
          "name": "",
          "type": "bool"
        }
      ],
      "stateMutability": "view",
      "type": "function"
    },
    {
      "inputs": [
        {
          "internalType": "address",
          "name": "",
          "type": "address"
        }
      ],
      "name": "maxDeposit",
      "outputs": [
        {
          "internalType": "uint256",
          "name": "",
          "type": "uint256"
        }
      ],
      "stateMutability": "pure",
      "type": "function"
    },
    {
      "inputs": [
        {
          "internalType": "address",
          "name": "",
          "type": "address"
        }
      ],
      "name": "maxMint",
      "outputs": [
        {
          "internalType": "uint256",
          "name": "",
          "type": "uint256"
        }
      ],
      "stateMutability": "pure",
      "type": "function"
    },
    {
      "inputs": [
        {
          "internalType": "address",
          "name": "user",
          "type": "address"
        }
      ],
      "name": "maxRedeem",
      "outputs": [
        {
          "internalType": "uint256",
          "name": "",
          "type": "uint256"
        }
      ],
      "stateMutability": "view",
      "type": "function"
    },
    {
      "inputs": [
        {
          "internalType": "address",
          "name": "user",
          "type": "address"
        }
      ],
      "name": "maxWithdraw",
      "outputs": [
        {
          "internalType": "uint256",
          "name": "",
          "type": "uint256"
        }
      ],
      "stateMutability": "view",
      "type": "function"
    },
    {
      "inputs": [
        {
          "internalType": "uint256",
          "name": "shares",
          "type": "uint256"
        },
        {
          "internalType": "address",
          "name": "receiver",
          "type": "address"
        }
      ],
      "name": "mint",
      "outputs": [
        {
          "internalType": "uint256",
          "name": "amount",
          "type": "uint256"
        }
      ],
      "stateMutability": "nonpayable",
      "type": "function"
    },
    {
      "inputs": [],
      "name": "name",
      "outputs": [
        {
          "internalType": "string",
          "name": "",
          "type": "string"
        }
      ],
      "stateMutability": "view",
      "type": "function"
    },
    {
      "inputs": [
        {
          "internalType": "address",
          "name": "",
          "type": "address"
        }
      ],
      "name": "nonces",
      "outputs": [
        {
          "internalType": "uint256",
          "name": "",
          "type": "uint256"
        }
      ],
      "stateMutability": "view",
      "type": "function"
    },
    {
      "inputs": [],
      "name": "owner",
      "outputs": [
        {
          "internalType": "address",
          "name": "",
          "type": "address"
        }
      ],
      "stateMutability": "view",
      "type": "function"
    },
    {
      "inputs": [
        {
          "internalType": "address",
          "name": "owner",
          "type": "address"
        },
        {
          "internalType": "address",
          "name": "spender",
          "type": "address"
        },
        {
          "internalType": "uint256",
          "name": "value",
          "type": "uint256"
        },
        {
          "internalType": "uint256",
          "name": "deadline",
          "type": "uint256"
        },
        {
          "internalType": "uint8",
          "name": "v",
          "type": "uint8"
        },
        {
          "internalType": "bytes32",
          "name": "r",
          "type": "bytes32"
        },
        {
          "internalType": "bytes32",
          "name": "s",
          "type": "bytes32"
        }
      ],
      "name": "permit",
      "outputs": [],
      "stateMutability": "nonpayable",
      "type": "function"
    },
    {
      "inputs": [
        {
          "internalType": "uint256",
          "name": "amount",
          "type": "uint256"
        }
      ],
      "name": "previewDeposit",
      "outputs": [
        {
          "internalType": "uint256",
          "name": "shares",
          "type": "uint256"
        }
      ],
      "stateMutability": "view",
      "type": "function"
    },
    {
      "inputs": [
        {
          "internalType": "uint256",
          "name": "shares",
          "type": "uint256"
        }
      ],
      "name": "previewMint",
      "outputs": [
        {
          "internalType": "uint256",
          "name": "amount",
          "type": "uint256"
        }
      ],
      "stateMutability": "view",
      "type": "function"
    },
    {
      "inputs": [
        {
          "internalType": "uint256",
          "name": "shares",
          "type": "uint256"
        }
      ],
      "name": "previewRedeem",
      "outputs": [
        {
          "internalType": "uint256",
          "name": "amount",
          "type": "uint256"
        }
      ],
      "stateMutability": "view",
      "type": "function"
    },
    {
      "inputs": [
        {
          "internalType": "uint256",
          "name": "amount",
          "type": "uint256"
        }
      ],
      "name": "previewWithdraw",
      "outputs": [
        {
          "internalType": "uint256",
          "name": "shares",
          "type": "uint256"
        }
      ],
      "stateMutability": "view",
      "type": "function"
    },
    {
      "inputs": [
        {
          "internalType": "uint256",
          "name": "shares",
          "type": "uint256"
        },
        {
          "internalType": "address",
          "name": "receiver",
          "type": "address"
        },
        {
          "internalType": "address",
          "name": "from",
          "type": "address"
        }
      ],
      "name": "redeem",
      "outputs": [
        {
          "internalType": "uint256",
          "name": "amount",
          "type": "uint256"
        }
      ],
      "stateMutability": "nonpayable",
      "type": "function"
    },
    {
      "inputs": [],
      "name": "renounceOwnership",
      "outputs": [],
      "stateMutability": "nonpayable",
      "type": "function"
    },
    {
      "inputs": [
        {
          "internalType": "bytes32",
          "name": "role",
          "type": "bytes32"
        },
        {
          "internalType": "address",
          "name": "callerConfirmation",
          "type": "address"
        }
      ],
      "name": "renounceRole",
      "outputs": [],
      "stateMutability": "nonpayable",
      "type": "function"
    },
    {
      "inputs": [
        {
          "internalType": "bytes32",
          "name": "role",
          "type": "bytes32"
        },
        {
          "internalType": "address",
          "name": "account",
          "type": "address"
        }
      ],
      "name": "revokeRole",
      "outputs": [],
      "stateMutability": "nonpayable",
      "type": "function"
    },
    {
      "inputs": [
        {
          "internalType": "uint256",
          "name": "",
          "type": "uint256"
        }
      ],
      "name": "rewardTokens",
      "outputs": [
        {
          "internalType": "address",
          "name": "",
          "type": "address"
        }
      ],
      "stateMutability": "view",
      "type": "function"
    },
    {
      "inputs": [],
      "name": "share",
      "outputs": [
        {
          "internalType": "address",
          "name": "",
          "type": "address"
        }
      ],
      "stateMutability": "view",
      "type": "function"
    },
    {
      "inputs": [
        {
          "internalType": "bytes4",
          "name": "interfaceId",
          "type": "bytes4"
        }
      ],
      "name": "supportsInterface",
      "outputs": [
        {
          "internalType": "bool",
          "name": "",
          "type": "bool"
        }
      ],
      "stateMutability": "view",
      "type": "function"
    },
    {
      "inputs": [],
      "name": "symbol",
      "outputs": [
        {
          "internalType": "string",
          "name": "",
          "type": "string"
        }
      ],
      "stateMutability": "view",
      "type": "function"
    },
    {
      "inputs": [
        {
          "internalType": "address",
          "name": "",
          "type": "address"
        }
      ],
      "name": "tokensRewardInfo",
      "outputs": [
        {
          "internalType": "uint256",
          "name": "amount",
          "type": "uint256"
        },
        {
          "internalType": "bool",
          "name": "exist",
          "type": "bool"
        }
      ],
      "stateMutability": "view",
      "type": "function"
    },
    {
      "inputs": [],
      "name": "totalAssets",
      "outputs": [
        {
          "internalType": "uint256",
          "name": "",
          "type": "uint256"
        }
      ],
      "stateMutability": "view",
      "type": "function"
    },
    {
      "inputs": [],
      "name": "totalSupply",
      "outputs": [
        {
          "internalType": "uint256",
          "name": "",
          "type": "uint256"
        }
      ],
      "stateMutability": "view",
      "type": "function"
    },
    {
      "inputs": [
        {
          "internalType": "address",
          "name": "to",
          "type": "address"
        },
        {
          "internalType": "uint256",
          "name": "amount",
          "type": "uint256"
        }
      ],
      "name": "transfer",
      "outputs": [
        {
          "internalType": "bool",
          "name": "",
          "type": "bool"
        }
      ],
      "stateMutability": "nonpayable",
      "type": "function"
    },
    {
      "inputs": [
        {
          "internalType": "address",
          "name": "from",
          "type": "address"
        },
        {
          "internalType": "address",
          "name": "to",
          "type": "address"
        },
        {
          "internalType": "uint256",
          "name": "amount",
          "type": "uint256"
        }
      ],
      "name": "transferFrom",
      "outputs": [
        {
          "internalType": "bool",
          "name": "",
          "type": "bool"
        }
      ],
      "stateMutability": "nonpayable",
      "type": "function"
    },
    {
      "inputs": [
        {
          "internalType": "address",
          "name": "newOwner",
          "type": "address"
        }
      ],
      "name": "transferOwnership",
      "outputs": [],
      "stateMutability": "nonpayable",
      "type": "function"
    },
    {
      "inputs": [
        {
          "components": [
            {
              "internalType": "address",
              "name": "receiver",
              "type": "address"
            },
            {
              "internalType": "address",
              "name": "token",
              "type": "address"
            },
            {
              "internalType": "uint256",
              "name": "feePercentage",
              "type": "uint256"
            }
          ],
          "internalType": "struct FeeConfiguration.FeeConfig",
          "name": "_feeConfig",
          "type": "tuple"
        }
      ],
      "name": "updateFeeConfig",
      "outputs": [],
      "stateMutability": "nonpayable",
      "type": "function"
    },
    {
      "inputs": [
        {
          "internalType": "address",
          "name": "",
          "type": "address"
        }
      ],
      "name": "userContribution",
      "outputs": [
        {
          "internalType": "uint256",
          "name": "sharesAmount",
          "type": "uint256"
        },
        {
          "internalType": "uint256",
          "name": "lastLockedTime",
          "type": "uint256"
        },
        {
          "internalType": "bool",
          "name": "exist",
          "type": "bool"
        }
      ],
      "stateMutability": "view",
      "type": "function"
    },
    {
      "inputs": [
        {
          "internalType": "uint256",
          "name": "amount",
          "type": "uint256"
        },
        {
          "internalType": "address",
          "name": "receiver",
          "type": "address"
        },
        {
          "internalType": "address",
          "name": "from",
          "type": "address"
        }
      ],
      "name": "withdraw",
      "outputs": [
        {
          "internalType": "uint256",
          "name": "shares",
          "type": "uint256"
        }
      ],
      "stateMutability": "nonpayable",
      "type": "function"
    }
  ],
  "bytecode": "0x6101006040526040516200485438038062004854833981016040819052620000279162000b0a565b338585886001600160a01b031663313ce5676040518163ffffffff1660e01b8152600401602060405180830381865afa15801562000069573d6000803e3d6000fd5b505050506040513d601f19601f820116820180604052508101906200008f919062000c03565b60006200009d848262000cc0565b506001620000ac838262000cc0565b5060ff81166080524660a052620000c26200013c565b60c0525050506001600160a01b038116620000f857604051631e4fbdf760e01b8152600060048201526024015b60405180910390fd5b6200010381620001d8565b506001600b55620001168383836200022a565b6001600160a01b03861660e05262000130858588620002b0565b505050505050620010d7565b60007f8b73c3c69bb8fe3d512ecc4cf759cc79239f7b179b0ffacaa9a75d522b39400f600060405162000170919062000d8c565b6040805191829003822060208301939093528101919091527fc89efdaa54c0f20c7adf612882df0950f5a951637e0307cdcb4c672f298b8bc660608201524660808201523060a082015260c00160405160208183030381529060405280519060200120905090565b600a80546001600160a01b038381166001600160a01b0319831681179093556040519116919082907f8be0079c531659141344cd1fd0a4f28419497f9722a3daafe3b4186f6b6457e090600090a35050565b8251602084015160408501516200024392919062000553565b6200025060003362000613565b506200027d7f477fc23fb51bb5d5aa814872a393b0e4f35d0916c7503c0fd96584681070d4108362000613565b50620002aa7f74e458455daa935f28c556b43e0cc4ad001a8a090f5feee376681e97d4618f468262000613565b50505050565b620002bc8130620006c6565b6040805160a08082018352600080835260208084018290526060848601819052808501819052306080808701829052875195860188528486528584018590528588018390528583018390528501528551600280825291810190965260109560019594939290919082015b6200033062000989565b815260200190600190039081620003265790505090506040518060400160405280868152602001848152508160008151811062000371576200037162000e0a565b602002602001018190525060405180604001604052808581526020018381525081600181518110620003a757620003a762000e0a565b6020026020010181905250620003ec6040518060600160405280600063ffffffff16815260200160006001600160a01b03168152602001600063ffffffff1681525090565b306020820152627a120060408201526200046260408051610120810182526060808252602080830182905260008385018190528284018390526080840181905260a0840181905260c0840181905260e0840183905284519283018552808352908201819052928101929092529061010082015290565b89815260208082018a905230604080840191909152610100830184905260e08301859052805163313ce56760e01b81529051620004ff9284926000926001600160a01b038e169263313ce56792600480820193918290030181865afa158015620004d0573d6000803e3d6000fd5b505050506040513d601f19601f82011682018060405250810190620004f6919062000c03565b60ff16620007f5565b600c80546001600160a01b0319166001600160a01b039290921691821790556040517f7bb17726df1f3adee8aa00ba8e8bc5d6f182af3bbf77604639cb7f008dd3b4ed90600090a250505050505050505050565b6127108110620005985760405162461bcd60e51b815260206004820152600f60248201526e46433a20496e76616c69642066656560881b6044820152606401620000ef565b600780546001600160a01b038581166001600160a01b0319928316811790935560088054918616919092168117909155600983905560408051928352602083019190915281018290527febd34b2df88ea5c9f67c04b13b08e5e63c2d17e269aab73b866fe47a8736a2649060600160405180910390a1505050565b60008281526006602090815260408083206001600160a01b038516845290915281205460ff16620006bc5760008381526006602090815260408083206001600160a01b03861684529091529020805460ff19166001179055620006733390565b6001600160a01b0316826001600160a01b0316847f2f8788117e7eff1d82e926ec794901d17c78024a50270940304540a733656f0d60405160405180910390a4506001620006c0565b5060005b92915050565b604080516001600160a01b038381166024830152841660448083019190915282518083039091018152606490910182526020810180516001600160e01b031663248a35ef60e11b1790529051600091829182916101679162000729919062000e20565b6000604051808303816000865af19150503d806000811462000768576040519150601f19603f3d011682016040523d82523d6000602084013e6200076d565b606091505b5091509150816200078057601562000796565b8080602001905181019062000796919062000e51565b9250600383900b601614620007ee5760405162461bcd60e51b815260206004820152601f60248201527f536166652073696e676c65206173736f63696174696f6e206661696c656421006044820152606401620000ef565b5050505050565b61010083015151600090849063ffffffff161580156200082257506101008101516040015163ffffffff16155b1562000839576101008101516276a7006040909101525b60008060006101676001600160a01b031634637812a04b60e01b8a8a8a6040516024016200086a9392919062000f6e565b60408051601f198184030181529181526020820180516001600160e01b03166001600160e01b0319909416939093179092529051620008aa919062000e20565b60006040518083038185875af1925050503d8060008114620008e9576040519150601f19603f3d011682016040523d82523d6000602084013e620008ee565b606091505b50915091508162000903576015600062000919565b808060200190518101906200091991906200109b565b95509250600383900b6016146200097e5760405162461bcd60e51b815260206004820152602260248201527f53616665206372656174652066756e6769626c6520746f6b656e206661696c65604482015261642160f01b6064820152608401620000ef565b505050509392505050565b604051806040016040528060008152602001620009e26040518060a0016040528060001515815260200160006001600160a01b03168152602001606081526020016060815260200160006001600160a01b031681525090565b905290565b6001600160a01b0381168114620009fd57600080fd5b50565b634e487b7160e01b600052604160045260246000fd5b604051606081016001600160401b038111828210171562000a3b5762000a3b62000a00565b60405290565b60005b8381101562000a5e57818101518382015260200162000a44565b50506000910152565b600082601f83011262000a7957600080fd5b81516001600160401b038082111562000a965762000a9662000a00565b604051601f8301601f19908116603f0116810190828211818310171562000ac15762000ac162000a00565b8160405283815286602085880101111562000adb57600080fd5b62000aee84602083016020890162000a41565b9695505050505050565b805162000b0581620009e7565b919050565b60008060008060008086880361010081121562000b2657600080fd5b875162000b3381620009e7565b60208901519097506001600160401b038082111562000b5157600080fd5b62000b5f8b838c0162000a67565b975060408a015191508082111562000b7657600080fd5b5062000b858a828b0162000a67565b9550506060605f198201121562000b9b57600080fd5b5062000ba662000a16565b606088015162000bb681620009e7565b8152608088015162000bc881620009e7565b602082015260a08801516040820152925062000be760c0880162000af8565b915062000bf760e0880162000af8565b90509295509295509295565b60006020828403121562000c1657600080fd5b815160ff8116811462000c2857600080fd5b9392505050565b600181811c9082168062000c4457607f821691505b60208210810362000c6557634e487b7160e01b600052602260045260246000fd5b50919050565b601f82111562000cbb576000816000526020600020601f850160051c8101602086101562000c965750805b601f850160051c820191505b8181101562000cb75782815560010162000ca2565b5050505b505050565b81516001600160401b0381111562000cdc5762000cdc62000a00565b62000cf48162000ced845462000c2f565b8462000c6b565b602080601f83116001811462000d2c576000841562000d135750858301515b600019600386901b1c1916600185901b17855562000cb7565b600085815260208120601f198616915b8281101562000d5d5788860151825594840194600190910190840162000d3c565b508582101562000d7c5787850151600019600388901b60f8161c191681555b5050505050600190811b01905550565b600080835462000d9c8162000c2f565b6001828116801562000db7576001811462000dcd5762000dfe565b60ff198416875282151583028701945062000dfe565b8760005260208060002060005b8581101562000df55781548a82015290840190820162000dda565b50505082870194505b50929695505050505050565b634e487b7160e01b600052603260045260246000fd5b6000825162000e3481846020870162000a41565b9190910192915050565b8051600381900b811462000b0557600080fd5b60006020828403121562000e6457600080fd5b62000c288262000e3e565b6000815180845262000e8981602086016020860162000a41565b601f01601f19169290920160200192915050565b600082825180855260208086019550808260051b84010181860160005b8481101562000f6157858303601f1901895281518051845284015160408585018190528151151581860152818601516001600160a01b039081166060808801919091529183015160a0608080890182905291939092909162000f2060e08a018662000e6f565b92860151898403603f1901858b015292945062000f3e858462000e6f565b9501511660c0979097019690965250509884019892509083019060010162000eba565b5090979650505050505050565b606081526000845161016080606085015262000f8f6101c085018362000e6f565b91506020870151605f198086850301608087015262000faf848362000e6f565b93506040890151915062000fce60a08701836001600160a01b03169052565b60608901519150808685030160c087015262000feb848362000e6f565b9350608089015191506200100360e087018315159052565b60a089015191506101006200101f8188018463ffffffff169052565b60c08a0151151561012088015260e08a0151878603830161014089015292506200104a858462000e9d565b9450808a0151925050506200108782860182805163ffffffff90811683526020808301516001600160a01b03169084015260409182015116910152565b505060208301949094525060400152919050565b60008060408385031215620010af57600080fd5b620010ba8362000e3e565b91506020830151620010cc81620009e7565b809150509250929050565b60805160a05160c05160e05161370b62001149600039600081816105dd01528181610a9001528181610c41015281816110d60152818161130c01528181611423015281816118790152611a0101526000610f4b01526000610f1b0152600081816105230152610e3f015261370b6000f3fe6080604052600436106102ca5760003560e01c80637bb7bed11161017b578063b4f6d613116100d7578063d505accf11610085578063d505accf14610968578063d547741f14610988578063d905777e146109a8578063dd62ed3e146109de578063ef8b30f714610a16578063efa6f42514610a36578063f2fde38b14610a5657600080fd5b8063b4f6d6131461085e578063ba08765214610892578063c4f59f9b146108b2578063c63d75b61461061e578063cd26c0e6146108d4578063cd9cdfda146108fc578063ce96cb771461094857600080fd5b806395d89b411161013457806395d89b41146107a35780639feb8f50146107b8578063a217fddf146107cb578063a8d5fd65146107e0578063a9059cbb146107fe578063b3d7f6b91461081e578063b460af941461083e57600080fd5b80637bb7bed1146106e25780637ecebe00146107025780638da5cb5b1461072f5780638f12c2f41461074d57806391d148541461076357806394bf804d1461078357600080fd5b8063313ce5671161022a5780633ba0b9a9116101e35780633ba0b9a91461060a578063402d267d1461061e5780634cdad506146106405780635ab764ed146106605780636e553f651461068057806370a08231146106a0578063715018a6146106cd57600080fd5b8063313ce5671461051157806335d16e1714610557578063362a3fad1461056c5780633644e5151461059957806336568abe146105ae57806338d52e0f146105ce57600080fd5b806316ad06721161028757806316ad0672146103bd57806318160ddd146104195780631e5eb1d01461042e57806323b872dd1461047f578063248a9ca31461049f5780632c62fa10146104cf5780632f2ff15d146104ef57600080fd5b806301e1d114146102cf57806301ffc9a7146102f757806305fb2a511461032757806306fdde031461035b578063095ea7b31461037d5780630a28a4771461039d575b600080fd5b3480156102db57600080fd5b506102e4610a76565b6040519081526020015b60405180910390f35b34801561030357600080fd5b50610317610312366004612d5b565b610b0b565b60405190151581526020016102ee565b34801561033357600080fd5b506102e47f74e458455daa935f28c556b43e0cc4ad001a8a090f5feee376681e97d4618f4681565b34801561036757600080fd5b50610370610b42565b6040516102ee9190612dd5565b34801561038957600080fd5b50610317610398366004612e04565b610bd0565b3480156103a957600080fd5b506102e46103b8366004612e2e565b610c3c565b3480156103c957600080fd5b506103fc6103d8366004612e47565b600f6020526000908152604090208054600182015460039092015490919060ff1683565b6040805193845260208401929092521515908201526060016102ee565b34801561042557600080fd5b506002546102e4565b34801561043a57600080fd5b50600754600854600954610459926001600160a01b0390811692169083565b604080516001600160a01b039485168152939092166020840152908201526060016102ee565b34801561048b57600080fd5b5061031761049a366004612e62565b610cf6565b3480156104ab57600080fd5b506102e46104ba366004612e2e565b60009081526006602052604090206001015490565b3480156104db57600080fd5b506102e46104ea366004612e47565b610de8565b3480156104fb57600080fd5b5061050f61050a366004612e9e565b610e0a565b005b34801561051d57600080fd5b506105457f000000000000000000000000000000000000000000000000000000000000000081565b60405160ff90911681526020016102ee565b34801561056357600080fd5b506102e4610e35565b34801561057857600080fd5b5061058c610587366004612e47565b610e65565b6040516102ee9190612eca565b3480156105a557600080fd5b506102e4610f17565b3480156105ba57600080fd5b5061050f6105c9366004612e9e565b610f6d565b3480156105da57600080fd5b507f00000000000000000000000000000000000000000000000000000000000000005b6040516102ee9190612f0e565b34801561061657600080fd5b5060016102e4565b34801561062a57600080fd5b506102e4610639366004612e47565b5060001990565b34801561064c57600080fd5b506102e461065b366004612e2e565b610fa5565b34801561066c57600080fd5b506102e461067b366004612f22565b610fd0565b34801561068c57600080fd5b506102e461069b366004612e9e565b611061565b3480156106ac57600080fd5b506102e46106bb366004612e47565b60036020526000908152604090205481565b3480156106d957600080fd5b5061050f6111bf565b3480156106ee57600080fd5b506105fd6106fd366004612e2e565b6111d3565b34801561070e57600080fd5b506102e461071d366004612e47565b60056020526000908152604090205481565b34801561073b57600080fd5b50600a546001600160a01b03166105fd565b34801561075957600080fd5b506102e4600d5481565b34801561076f57600080fd5b5061031761077e366004612e9e565b6111fd565b34801561078f57600080fd5b506102e461079e366004612e9e565b611228565b3480156107af57600080fd5b5061037061133e565b61050f6107c6366004612e04565b61134b565b3480156107d757600080fd5b506102e4600081565b3480156107ec57600080fd5b50600c546001600160a01b03166105fd565b34801561080a57600080fd5b50610317610819366004612e04565b6116ae565b34801561082a57600080fd5b506102e4610839366004612e2e565b611726565b34801561084a57600080fd5b506102e4610859366004612f4c565b61174d565b34801561086a57600080fd5b506102e47f477fc23fb51bb5d5aa814872a393b0e4f35d0916c7503c0fd96584681070d41081565b34801561089e57600080fd5b506102e46108ad366004612f4c565b611900565b3480156108be57600080fd5b506108c7611a76565b6040516102ee9190612f88565b6108e76108e2366004612e9e565b611ad8565b604080519283526020830191909152016102ee565b34801561090857600080fd5b50610933610917366004612e47565b6010602052600090815260409020805460019091015460ff1682565b604080519283529015156020830152016102ee565b34801561095457600080fd5b506102e4610963366004612e47565b611c00565b34801561097457600080fd5b5061050f610983366004612fc9565b611c0b565b34801561099457600080fd5b5061050f6109a3366004612e9e565b611e49565b3480156109b457600080fd5b506102e46109c3366004612e47565b6001600160a01b031660009081526003602052604090205490565b3480156109ea57600080fd5b506102e46109f9366004612f22565b600460209081526000928352604080842090915290825290205481565b348015610a2257600080fd5b506102e4610a31366004612e2e565b611e6e565b348015610a4257600080fd5b5061050f610a51366004613082565b611e8f565b348015610a6257600080fd5b5061050f610a71366004612e47565b611ed4565b6040516370a0823160e01b81526000906001600160a01b037f000000000000000000000000000000000000000000000000000000000000000016906370a0823190610ac5903090600401612f0e565b602060405180830381865afa158015610ae2573d6000803e3d6000fd5b505050506040513d601f19601f82011682018060405250810190610b0691906130e9565b905090565b60006001600160e01b03198216637965db0b60e01b1480610b3c57506301ffc9a760e01b6001600160e01b03198316145b92915050565b60008054610b4f90613102565b80601f0160208091040260200160405190810160405280929190818152602001828054610b7b90613102565b8015610bc85780601f10610b9d57610100808354040283529160200191610bc8565b820191906000526020600020905b815481529060010190602001808311610bab57829003601f168201915b505050505081565b3360008181526004602090815260408083206001600160a01b038716808552925280832085905551919290917f8c5be1e5ebec7d5bd14f71427d1e84f3dd0314c0f7b2291e5b200ac8c7c3b92590610c2b9086815260200190565b60405180910390a350600192915050565b6000807f00000000000000000000000000000000000000000000000000000000000000006001600160a01b03166370a08231306040518263ffffffff1660e01b8152600401610c8b9190612f0e565b602060405180830381865afa158015610ca8573d6000803e3d6000fd5b505050506040513d601f19601f82011682018060405250810190610ccc91906130e9565b90508015610ced57610ce881610ce0610a76565b859190611f12565b610cef565b825b9392505050565b6001600160a01b03831660009081526004602090815260408083203384529091528120546000198114610d5257610d2d8382613152565b6001600160a01b03861660009081526004602090815260408083203384529091529020555b6001600160a01b03851660009081526003602052604081208054859290610d7a908490613152565b90915550506001600160a01b03808516600081815260036020526040908190208054870190555190918716907fddf252ad1be2c89b69c2b068fc378daa952ba7f163c4a11628f55a4df523b3ef90610dd59087815260200190565b60405180910390a3506001949350505050565b6001600160a01b038116600090815260036020526040812054610b3c90610fa5565b600082815260066020526040902060010154610e2581611f38565b610e2f8383611f42565b50505050565b6000610b0661065b7f0000000000000000000000000000000000000000000000000000000000000000600a613249565b600e54606090806001600160401b03811115610e8357610e8361303c565b604051908082528060200260200182016040528015610eac578160200160208202803683370190505b50915060005b81811015610f1057610eeb84600e8381548110610ed157610ed1613258565b6000918252602090912001546001600160a01b0316610fd0565b838281518110610efd57610efd613258565b6020908102919091010152600101610eb2565b5050919050565b60007f00000000000000000000000000000000000000000000000000000000000000004614610f4857610b06611fd6565b507f000000000000000000000000000000000000000000000000000000000000000090565b6001600160a01b0381163314610f965760405163334bd91960e11b815260040160405180910390fd5b610fa08282612070565b505050565b600080610fb160025490565b90508015610ced57610ce8610fc4610a76565b6002545b8591906120dd565b6001600160a01b03808216600081815260106020908152604080832080549588168452600f8352818420805495855260028101909352908320549294909390928561101b8286613152565b9050611029816001856120dd565b60095490975015611055576000611045886007600201546120fb565b90506110518189613152565b9750505b50505050505092915050565b600061106b61217b565b6001600160a01b03821661109a5760405162461bcd60e51b81526004016110919061326e565b60405180910390fd5b6110a383611e6e565b9050806000036110c957604051636e3699b760e11b815260048101849052602401611091565b6110fe6001600160a01b037f0000000000000000000000000000000000000000000000000000000000000000163330866121a5565b600c5461114b906001600160a01b03168460005b60405190808252806020026020018201604052801561114557816020015b60608152602001906001900390816111305790505b5061222f565b5050600c54611165906001600160a01b0316308486612372565b60408051848152602081018390526001600160a01b0384169133917fdcbc1c05240f31ff3ad067ef1ee35ce4997762752e3a095284754544f4c709d7910160405180910390a36111b583836124ab565b610b3c6001600b55565b6111c7612638565b6111d16000612665565b565b600e81815481106111e357600080fd5b6000918252602090912001546001600160a01b0316905081565b60009182526006602090815260408084206001600160a01b0393909316845291905290205460ff1690565b600061123261217b565b6001600160a01b0382166112585760405162461bcd60e51b81526004016110919061326e565b61126183611726565b90508060000361128757604051636e3699b760e11b815260048101849052602401611091565b600c5461129f906001600160a01b0316826000611112565b5050600c546112b9906001600160a01b0316308484612372565b60408051828152602081018590526001600160a01b0384169133917fdcbc1c05240f31ff3ad067ef1ee35ce4997762752e3a095284754544f4c709d7910160405180910390a36113346001600160a01b037f0000000000000000000000000000000000000000000000000000000000000000163330846121a5565b6111b581836124ab565b60018054610b4f90613102565b7f477fc23fb51bb5d5aa814872a393b0e4f35d0916c7503c0fd96584681070d41061137581611f38565b816000036113cf5760405162461bcd60e51b815260206004820152602160248201527f4865646572615661756c743a20416d6f756e742063616e2774206265207a65726044820152606f60f81b6064820152608401611091565b600d546000036114215760405162461bcd60e51b815260206004820181905260248201527f4865646572615661756c743a204e6f20746f6b656e207374616b6564207965746044820152606401611091565b7f00000000000000000000000000000000000000000000000000000000000000006001600160a01b0316836001600160a01b0316141580156114715750600c546001600160a01b03848116911614155b6114db5760405162461bcd60e51b815260206004820152603560248201527f4865646572615661756c743a2052657761726420616e64205374616b696e6720604482015274746f6b656e732063616e6e6f742062652073616d6560581b6064820152608401611091565b6001600160a01b03831661153b5760405162461bcd60e51b815260206004820152602160248201527f4865646572615661756c743a20496e76616c69642072657761726420746f6b656044820152603760f91b6064820152608401611091565b600e54600a0361155e57604051637561e0ab60e01b815260040160405180910390fd5b60006115786001600d54856120dd9092919063ffffffff16565b6001600160a01b038516600090815260106020526040902060018101549192509060ff1661162157600e8054600180820183556000929092527fbb7b4a454dc3493923482f07822329ed19e8244eff582cc204f8554c3620c3fd0180546001600160a01b0319166001600160a01b038816179055818101805460ff1916909117905581815561160785306126b7565b61161c6001600160a01b0386163330876121a5565b611664565b6001600160a01b038516600090815260106020526040812080548492906116499084906132b3565b9091555061166490506001600160a01b0386163330876121a5565b846001600160a01b03167fac24935fd910bc682b5ccb1a07b718cadf8cf2f6d1404c4f3ddc3662dae40e298560405161169f91815260200190565b60405180910390a25050505050565b336000908152600360205260408120805483919083906116cf908490613152565b90915550506001600160a01b038316600081815260036020526040908190208054850190555133907fddf252ad1be2c89b69c2b068fc378daa952ba7f163c4a11628f55a4df523b3ef90610c2b9086815260200190565b60008061173260025490565b90508015610ced57610ce8611745610a76565b600254610ce0565b600061175761217b565b6001600160a01b03831661177d5760405162461bcd60e51b81526004016110919061326e565b6001600160a01b0382166117a35760405162461bcd60e51b8152600401611091906132c6565b6117ac84610c3c565b9050806000036117ce5760405162461bcd60e51b815260040161109190613307565b6001600160a01b0382166000908152600f60205260409020548111156118065760405162461bcd60e51b815260040161109190613339565b61181084846127d5565b600c54611828906001600160a01b0316833087612372565b600c5461186b906001600160a01b03168560005b604051908082528060200260200182016040528015611865578160200160208202803683370190505b5061281a565b506118a06001600160a01b037f0000000000000000000000000000000000000000000000000000000000000000168486612946565b826001600160a01b0316826001600160a01b03167ff341246adaac6f497bc2a656f546ab9e182111d630394f0c57c710a59a2cb56786846040516118ee929190918252602082015260400190565b60405180910390a3610cef6001600b55565b600061190a61217b565b6001600160a01b0383166119305760405162461bcd60e51b81526004016110919061326e565b6001600160a01b0382166119565760405162461bcd60e51b8152600401611091906132c6565b61195f84610fa5565b9050806000036119815760405162461bcd60e51b815260040161109190613307565b6001600160a01b0382166000908152600f60205260409020548411156119b95760405162461bcd60e51b815260040161109190613339565b6119c381846127d5565b600c546119db906001600160a01b0316833084612372565b600c546119f3906001600160a01b031682600061183c565b50611a286001600160a01b037f0000000000000000000000000000000000000000000000000000000000000000168483612946565b826001600160a01b0316826001600160a01b03167ff341246adaac6f497bc2a656f546ab9e182111d630394f0c57c710a59a2cb56783876040516118ee929190918252602082015260400190565b6060600e805480602002602001604051908101604052809291908181526020018280548015611ace57602002820191906000526020600020905b81546001600160a01b03168152600190910190602001808311611ab0575b5050505050905090565b600e5460085460009182916001600160a01b0316818303611b475760405162461bcd60e51b815260206004820152602360248201527f4865646572615661756c743a204e6f2072657761726420746f6b656e732065786044820152621a5cdd60ea1b6064820152608401611091565b600080875b84811015611bf157600e8181548110611b6757611b67613258565b6000918252602090912001546001600160a01b03169150611b883383610fd0565b6001600160a01b03831660008181526010602090815260408083205433808552600f8452828520958552600290950190925290912055909350611bcf908390309086612372565b6001600160a01b03841615611be957611be7836129be565b505b600101611b4c565b50969792965091945050505050565b6000610b3c82610de8565b42841015611c555760405162461bcd60e51b815260206004820152601760248201527614115493525517d11150511312539157d1561412549151604a1b6044820152606401611091565b60006001611c61610f17565b6001600160a01b038a811660008181526005602090815260409182902080546001810190915582517f6e71edae12b1b97f4d1f60370fef10105fa2faae0126114a169c64845d6126c98184015280840194909452938d166060840152608083018c905260a083019390935260c08083018b90528151808403909101815260e08301909152805192019190912061190160f01b6101008301526101028201929092526101228101919091526101420160408051601f198184030181528282528051602091820120600084529083018083525260ff871690820152606081018590526080810184905260a0016020604051602081039080840390855afa158015611d6d573d6000803e3d6000fd5b5050604051601f1901519150506001600160a01b03811615801590611da35750876001600160a01b0316816001600160a01b0316145b611de05760405162461bcd60e51b815260206004820152600e60248201526d24a72b20a624a22fa9a4a3a722a960911b6044820152606401611091565b6001600160a01b0390811660009081526004602090815260408083208a8516808552908352928190208990555188815291928a16917f8c5be1e5ebec7d5bd14f71427d1e84f3dd0314c0f7b2291e5b200ac8c7c3b925910160405180910390a350505050505050565b600082815260066020526040902060010154611e6481611f38565b610e2f8383612070565b600080611e7a60025490565b90508015610ced57610ce86001610fc8610a76565b7f74e458455daa935f28c556b43e0cc4ad001a8a090f5feee376681e97d4618f46611eb981611f38565b611ed0826000015183602001518460400151612ac8565b5050565b611edc612638565b6001600160a01b038116611f06576000604051631e4fbdf760e01b81526004016110919190612f0e565b611f0f81612665565b50565b6000826000190484118302158202611f2957600080fd5b50910281810615159190040190565b611f0f8133612b86565b6000611f4e83836111fd565b611fce5760008381526006602090815260408083206001600160a01b03861684529091529020805460ff19166001179055611f863390565b6001600160a01b0316826001600160a01b0316847f2f8788117e7eff1d82e926ec794901d17c78024a50270940304540a733656f0d60405160405180910390a4506001610b3c565b506000610b3c565b60007f8b73c3c69bb8fe3d512ecc4cf759cc79239f7b179b0ffacaa9a75d522b39400f60006040516120089190613385565b6040805191829003822060208301939093528101919091527fc89efdaa54c0f20c7adf612882df0950f5a951637e0307cdcb4c672f298b8bc660608201524660808201523060a082015260c00160405160208183030381529060405280519060200120905090565b600061207c83836111fd565b15611fce5760008381526006602090815260408083206001600160a01b0386168085529252808320805460ff1916905551339286917ff6391f5c32d9c69d2a47ea670b442974b53935d1edc7fd64eb21e047a839171b9190a4506001610b3c565b60008260001904841183021582026120f457600080fd5b5091020490565b600061271061210a8385613426565b10156121645760405162461bcd60e51b8152602060048201526024808201527f46433a20546f6f20736d616c6c20616d6f756e7420746f20636f6e73696465726044820152632066656560e01b6064820152608401611091565b6127106121718385613426565b610cef919061343d565b6002600b540361219e57604051633ee5aeb560e01b815260040160405180910390fd5b6002600b55565b60006040516323b872dd60e01b81528460048201528360248201528260448201526020600060648360008a5af13d15601f3d11600160005114161716915050806122285760405162461bcd60e51b81526020600482015260146024820152731514905394d1915497d19493d357d1905253115160621b6044820152606401611091565b5050505050565b6000606060008060006101676001600160a01b031663278e0b8860e01b8989896040516024016122619392919061345f565b60408051601f198184030181529181526020820180516001600160e01b03166001600160e01b031990941693909317909252905161229f91906134e3565b6000604051808303816000865af19150503d80600081146122dc576040519150601f19603f3d011682016040523d82523d6000602084013e6122e1565b606091505b509150915081612304576040805160008082526020820190925260159190612318565b808060200190518101906123189190613528565b90965094509250600383900b6016146123675760405162461bcd60e51b815260206004820152601160248201527053616665206d696e74206661696c65642160781b6044820152606401611091565b505050935093915050565b604080516001600160a01b038681166024830152858116604483015284166064820152600783900b6084808301919091528251808303909101815260a490910182526020810180516001600160e01b031663eca3691760e01b179052905160009182918291610167916123e591906134e3565b6000604051808303816000865af19150503d8060008114612422576040519150601f19603f3d011682016040523d82523d6000602084013e612427565b606091505b50915091508161243857601561244c565b8080602001905181019061244c9190613603565b9250600383900b6016146124a25760405162461bcd60e51b815260206004820152601b60248201527f5361666520746f6b656e207472616e73666572206661696c65642100000000006044820152606401611091565b50505050505050565b336000908152600f602052604090206003015460ff166125d657600e5460005b8181101561258f576000600e82815481106124e8576124e8613258565b60009182526020808320909101546001600160a01b031680835260108252604080842054338552600f8452818520838652600201845281852055805163053aa6f360e11b815290519194508493630a754de693600480840194919391929183900301908290875af1158015612561573d6000803e3d6000fd5b505050506040513d601f19601f8201168201806040525081019061258591906130e9565b50506001016124cb565b50336000908152600f6020526040812084815560038101805460ff1916600190811790915542910155600d80548592906125ca9084906132b3565b90915550611ed0915050565b6125e1600082611ad8565b5050336000908152600f6020526040812080548492906126029084906132b3565b9091555050336000908152600f6020526040812042600190910155600d805484929061262f9084906132b3565b90915550505050565b600a546001600160a01b031633146111d1573360405163118cdaa760e01b81526004016110919190612f0e565b600a80546001600160a01b038381166001600160a01b0319831681179093556040519116919082907f8be0079c531659141344cd1fd0a4f28419497f9722a3daafe3b4186f6b6457e090600090a35050565b604080516001600160a01b038381166024830152841660448083019190915282518083039091018152606490910182526020810180516001600160e01b031663248a35ef60e11b1790529051600091829182916101679161271891906134e3565b6000604051808303816000865af19150503d8060008114612755576040519150601f19603f3d011682016040523d82523d6000602084013e61275a565b606091505b50915091508161276b57601561277f565b8080602001905181019061277f9190613603565b9250600383900b6016146122285760405162461bcd60e51b815260206004820152601f60248201527f536166652073696e676c65206173736f63696174696f6e206661696c656421006044820152606401611091565b6127e0600082611ad8565b5050336000908152600f602052604081208054849290612801908490613152565b9250508190555081600d600082825461262f9190613152565b6000806000806101676001600160a01b031663acb9cff960e01b8888886040516024016128499392919061361e565b60408051601f198184030181529181526020820180516001600160e01b03166001600160e01b031990941693909317909252905161288791906134e3565b6000604051808303816000865af19150503d80600081146128c4576040519150601f19603f3d011682016040523d82523d6000602084013e6128c9565b606091505b5091509150816128dc57601560006128f0565b808060200190518101906128f09190613689565b94509250600383900b60161461293c5760405162461bcd60e51b815260206004820152601160248201527053616665206275726e206661696c65642160781b6044820152606401611091565b5050509392505050565b600060405163a9059cbb60e01b8152836004820152826024820152602060006044836000895af13d15601f3d1160016000511416171691505080610e2f5760405162461bcd60e51b815260206004820152600f60248201526e1514905394d1915497d19052531151608a1b6044820152606401611091565b6008546009546000916001600160a01b03169082906129de9085906120fb565b905080826001600160a01b03166370a08231306040518263ffffffff1660e01b8152600401612a0d9190612f0e565b602060405180830381865afa158015612a2a573d6000803e3d6000fd5b505050506040513d601f19601f82011682018060405250810190612a4e91906130e9565b1015612a9c5760405162461bcd60e51b815260206004820152601e60248201527f46433a20496e73756666696369656e7420746f6b656e2062616c616e636500006044820152606401611091565b600754612ab6906001600160a01b03848116911683612bbf565b612ac08185613152565b949350505050565b6127108110612b0b5760405162461bcd60e51b815260206004820152600f60248201526e46433a20496e76616c69642066656560881b6044820152606401611091565b600780546001600160a01b038581166001600160a01b0319928316811790935560088054918616919092168117909155600983905560408051928352602083019190915281018290527febd34b2df88ea5c9f67c04b13b08e5e63c2d17e269aab73b866fe47a8736a2649060600160405180910390a1505050565b612b9082826111fd565b611ed05760405163e2517d3f60e01b81526001600160a01b038216600482015260248101839052604401611091565b604080516001600160a01b03848116602483015260448083018590528351808403909101815260649092019092526020810180516001600160e01b031663a9059cbb60e01b179052610fa091859190600090612c1d90841683612c62565b90508051600014158015612c42575080806020019051810190612c4091906136b3565b155b15610fa05782604051635274afe760e01b81526004016110919190612f0e565b6060610cef8383600084600080856001600160a01b03168486604051612c8891906134e3565b60006040518083038185875af1925050503d8060008114612cc5576040519150601f19603f3d011682016040523d82523d6000602084013e612cca565b606091505b5091509150612cda868383612ce4565b9695505050505050565b606082612cf457610ce882612d32565b8151158015612d0b57506001600160a01b0384163b155b15612d2b5783604051639996b31560e01b81526004016110919190612f0e565b5080610cef565b805115612d425780518082602001fd5b604051630a12f52160e11b815260040160405180910390fd5b600060208284031215612d6d57600080fd5b81356001600160e01b031981168114610cef57600080fd5b60005b83811015612da0578181015183820152602001612d88565b50506000910152565b60008151808452612dc1816020860160208601612d85565b601f01601f19169290920160200192915050565b602081526000610cef6020830184612da9565b80356001600160a01b0381168114612dff57600080fd5b919050565b60008060408385031215612e1757600080fd5b612e2083612de8565b946020939093013593505050565b600060208284031215612e4057600080fd5b5035919050565b600060208284031215612e5957600080fd5b610cef82612de8565b600080600060608486031215612e7757600080fd5b612e8084612de8565b9250612e8e60208501612de8565b9150604084013590509250925092565b60008060408385031215612eb157600080fd5b82359150612ec160208401612de8565b90509250929050565b6020808252825182820181905260009190848201906040850190845b81811015612f0257835183529284019291840191600101612ee6565b50909695505050505050565b6001600160a01b0391909116815260200190565b60008060408385031215612f3557600080fd5b612f3e83612de8565b9150612ec160208401612de8565b600080600060608486031215612f6157600080fd5b83359250612f7160208501612de8565b9150612f7f60408501612de8565b90509250925092565b6020808252825182820181905260009190848201906040850190845b81811015612f025783516001600160a01b031683529284019291840191600101612fa4565b600080600080600080600060e0888a031215612fe457600080fd5b612fed88612de8565b9650612ffb60208901612de8565b95506040880135945060608801359350608088013560ff8116811461301f57600080fd5b9699959850939692959460a0840135945060c09093013592915050565b634e487b7160e01b600052604160045260246000fd5b604051601f8201601f191681016001600160401b038111828210171561307a5761307a61303c565b604052919050565b60006060828403121561309457600080fd5b604051606081018181106001600160401b03821117156130b6576130b661303c565b6040526130c283612de8565b81526130d060208401612de8565b6020820152604083013560408201528091505092915050565b6000602082840312156130fb57600080fd5b5051919050565b600181811c9082168061311657607f821691505b60208210810361313657634e487b7160e01b600052602260045260246000fd5b50919050565b634e487b7160e01b600052601160045260246000fd5b81810381811115610b3c57610b3c61313c565b600181815b808511156131a05781600019048211156131865761318661313c565b8085161561319357918102915b93841c939080029061316a565b509250929050565b6000826131b757506001610b3c565b816131c457506000610b3c565b81600181146131da57600281146131e457613200565b6001915050610b3c565b60ff8411156131f5576131f561313c565b50506001821b610b3c565b5060208310610133831016604e8410600b8410161715613223575081810a610b3c565b61322d8383613165565b80600019048211156132415761324161313c565b029392505050565b6000610cef60ff8416836131a8565b634e487b7160e01b600052603260045260246000fd5b60208082526025908201527f4865646572615661756c743a20496e76616c6964207265636569766572206164604082015264647265737360d81b606082015260800190565b80820180821115610b3c57610b3c61313c565b60208082526021908201527f4865646572615661756c743a20496e76616c69642066726f6d206164647265736040820152607360f81b606082015260800190565b6020808252601890820152774865646572615661756c743a205a65726f2061737365747360401b604082015260600190565b6020808252602c908201527f4865646572615661756c743a204e6f7420656e6f756768207368617265206f6e60408201526b207468652062616c616e636560a01b606082015260800190565b60008083548160018260011c915060018316806133a357607f831692505b602080841082036133c257634e487b7160e01b86526022600452602486fd5b8180156133d657600181146133eb57613418565b60ff1986168952841515850289019650613418565b60008a81526020902060005b868110156134105781548b8201529085019083016133f7565b505084890196505b509498975050505050505050565b8082028115828204841417610b3c57610b3c61313c565b60008261345a57634e487b7160e01b600052601260045260246000fd5b500490565b60006060820160018060a01b038616835260206001600160401b03861660208501526060604085015281855180845260808601915060808160051b87010193506020870160005b828110156134d457607f198887030184526134c2868351612da9565b955092840192908401906001016134a6565b50939998505050505050505050565b600082516134f5818460208701612d85565b9190910192915050565b8051600381900b8114612dff57600080fd5b80516001600160401b0381168114612dff57600080fd5b60008060006060848603121561353d57600080fd5b613546846134ff565b92506020613555818601613511565b925060408501516001600160401b038082111561357157600080fd5b818701915087601f83011261358557600080fd5b8151818111156135975761359761303c565b8060051b91506135a8848301613052565b818152918301840191848101908a8411156135c257600080fd5b938501935b838510156135f357845192508260070b83146135e35760008081fd5b82825293850193908501906135c7565b8096505050505050509250925092565b60006020828403121561361557600080fd5b610cef826134ff565b6001600160a01b03841681526001600160401b0383166020808301919091526060604083018190528351908301819052600091848101916080850190845b8181101561367b57845160070b8352938301939183019160010161365c565b509098975050505050505050565b6000806040838503121561369c57600080fd5b6136a5836134ff565b9150612ec160208401613511565b6000602082840312156136c557600080fd5b81518015158114610cef57600080fdfea26469706673582212202ba1fdaa1df20bd42bf8062e2d5fc17ed2b2e8b7635b7c9bb133bd049036509a64736f6c63430008180033",
  "linkReferences": {},
  "deployedLinkReferences": {}
}