{
  "_format": "hh-sol-artifact-1",
  "contractName": "HederaVault",
  "sourceName": "contracts/erc4626/HTSDeprecated/Vault.sol",
  "abi": [
    {
      "inputs": [
        {
          "internalType": "contract ERC20",
          "name": "_underlying",
          "type": "address"
        },
        {
          "internalType": "string",
          "name": "_name",
          "type": "string"
        },
        {
          "internalType": "string",
          "name": "_symbol",
          "type": "string"
        },
        {
          "components": [
            {
              "internalType": "address",
              "name": "receiver",
              "type": "address"
            },
            {
              "internalType": "address",
              "name": "token",
              "type": "address"
            },
            {
              "internalType": "uint256",
              "name": "feePercentage",
              "type": "uint256"
            }
          ],
          "internalType": "struct FeeConfiguration.FeeConfig",
          "name": "_feeConfig",
          "type": "tuple"
        },
        {
          "internalType": "address",
          "name": "_vaultRewardController",
          "type": "address"
        },
        {
          "internalType": "address",
          "name": "_feeConfigController",
          "type": "address"
        }
      ],
      "stateMutability": "payable",
      "type": "constructor"
    },
    {
      "inputs": [],
      "name": "AccessControlBadConfirmation",
      "type": "error"
    },
    {
      "inputs": [
        {
          "internalType": "address",
          "name": "account",
          "type": "address"
        },
        {
          "internalType": "bytes32",
          "name": "neededRole",
          "type": "bytes32"
        }
      ],
      "name": "AccessControlUnauthorizedAccount",
      "type": "error"
    },
    {
      "inputs": [
        {
          "internalType": "address",
          "name": "target",
          "type": "address"
        }
      ],
      "name": "AddressEmptyCode",
      "type": "error"
    },
    {
      "inputs": [
        {
          "internalType": "address",
          "name": "account",
          "type": "address"
        }
      ],
      "name": "AddressInsufficientBalance",
      "type": "error"
    },
    {
      "inputs": [],
      "name": "FailedInnerCall",
      "type": "error"
    },
    {
      "inputs": [],
      "name": "MaxRewardTokensAmount",
      "type": "error"
    },
    {
      "inputs": [
        {
          "internalType": "address",
          "name": "owner",
          "type": "address"
        }
      ],
      "name": "OwnableInvalidOwner",
      "type": "error"
    },
    {
      "inputs": [
        {
          "internalType": "address",
          "name": "account",
          "type": "address"
        }
      ],
      "name": "OwnableUnauthorizedAccount",
      "type": "error"
    },
    {
      "inputs": [],
      "name": "ReentrancyGuardReentrantCall",
      "type": "error"
    },
    {
      "inputs": [
        {
          "internalType": "address",
          "name": "token",
          "type": "address"
        }
      ],
      "name": "SafeERC20FailedOperation",
      "type": "error"
    },
    {
      "inputs": [
        {
          "internalType": "uint256",
          "name": "numberOfShares",
          "type": "uint256"
        }
      ],
      "name": "ZeroShares",
      "type": "error"
    },
    {
      "anonymous": false,
      "inputs": [
        {
          "indexed": true,
          "internalType": "address",
          "name": "owner",
          "type": "address"
        },
        {
          "indexed": true,
          "internalType": "address",
          "name": "spender",
          "type": "address"
        },
        {
          "indexed": false,
          "internalType": "uint256",
          "name": "amount",
          "type": "uint256"
        }
      ],
      "name": "Approval",
      "type": "event"
    },
    {
      "anonymous": false,
      "inputs": [
        {
          "indexed": true,
          "internalType": "address",
          "name": "createdToken",
          "type": "address"
        }
      ],
      "name": "CreatedToken",
      "type": "event"
    },
    {
      "anonymous": false,
      "inputs": [
        {
          "indexed": true,
          "internalType": "address",
          "name": "sender",
          "type": "address"
        },
        {
          "indexed": true,
          "internalType": "address",
          "name": "receiver",
          "type": "address"
        },
        {
          "indexed": false,
          "internalType": "uint256",
          "name": "assets",
          "type": "uint256"
        },
        {
          "indexed": false,
          "internalType": "uint256",
          "name": "shares",
          "type": "uint256"
        }
      ],
      "name": "Deposit",
      "type": "event"
    },
    {
      "anonymous": false,
      "inputs": [
        {
          "components": [
            {
              "internalType": "address",
              "name": "receiver",
              "type": "address"
            },
            {
              "internalType": "address",
              "name": "token",
              "type": "address"
            },
            {
              "internalType": "uint256",
              "name": "feePercentage",
              "type": "uint256"
            }
          ],
          "indexed": false,
          "internalType": "struct FeeConfiguration.FeeConfig",
          "name": "feeConfig",
          "type": "tuple"
        }
      ],
      "name": "FeeConfigUpdated",
      "type": "event"
    },
    {
      "anonymous": false,
      "inputs": [
        {
          "indexed": true,
          "internalType": "address",
          "name": "previousOwner",
          "type": "address"
        },
        {
          "indexed": true,
          "internalType": "address",
          "name": "newOwner",
          "type": "address"
        }
      ],
      "name": "OwnershipTransferred",
      "type": "event"
    },
    {
      "anonymous": false,
      "inputs": [
        {
          "indexed": true,
          "internalType": "address",
          "name": "rewardToken",
          "type": "address"
        },
        {
          "indexed": false,
          "internalType": "uint256",
          "name": "amount",
          "type": "uint256"
        }
      ],
      "name": "RewardAdded",
      "type": "event"
    },
    {
      "anonymous": false,
      "inputs": [
        {
          "indexed": true,
          "internalType": "bytes32",
          "name": "role",
          "type": "bytes32"
        },
        {
          "indexed": true,
          "internalType": "bytes32",
          "name": "previousAdminRole",
          "type": "bytes32"
        },
        {
          "indexed": true,
          "internalType": "bytes32",
          "name": "newAdminRole",
          "type": "bytes32"
        }
      ],
      "name": "RoleAdminChanged",
      "type": "event"
    },
    {
      "anonymous": false,
      "inputs": [
        {
          "indexed": true,
          "internalType": "bytes32",
          "name": "role",
          "type": "bytes32"
        },
        {
          "indexed": true,
          "internalType": "address",
          "name": "account",
          "type": "address"
        },
        {
          "indexed": true,
          "internalType": "address",
          "name": "sender",
          "type": "address"
        }
      ],
      "name": "RoleGranted",
      "type": "event"
    },
    {
      "anonymous": false,
      "inputs": [
        {
          "indexed": true,
          "internalType": "bytes32",
          "name": "role",
          "type": "bytes32"
        },
        {
          "indexed": true,
          "internalType": "address",
          "name": "account",
          "type": "address"
        },
        {
          "indexed": true,
          "internalType": "address",
          "name": "sender",
          "type": "address"
        }
      ],
      "name": "RoleRevoked",
      "type": "event"
    },
    {
      "anonymous": false,
      "inputs": [
        {
          "indexed": true,
          "internalType": "address",
          "name": "from",
          "type": "address"
        },
        {
          "indexed": true,
          "internalType": "address",
          "name": "to",
          "type": "address"
        },
        {
          "indexed": false,
          "internalType": "uint256",
          "name": "amount",
          "type": "uint256"
        }
      ],
      "name": "Transfer",
      "type": "event"
    },
    {
      "anonymous": false,
      "inputs": [
        {
          "indexed": true,
          "internalType": "address",
          "name": "sender",
          "type": "address"
        },
        {
          "indexed": true,
          "internalType": "address",
          "name": "receiver",
          "type": "address"
        },
        {
          "indexed": false,
          "internalType": "uint256",
          "name": "assets",
          "type": "uint256"
        },
        {
          "indexed": false,
          "internalType": "uint256",
          "name": "shares",
          "type": "uint256"
        }
      ],
      "name": "Withdraw",
      "type": "event"
    },
    {
      "inputs": [],
      "name": "DEFAULT_ADMIN_ROLE",
      "outputs": [
        {
          "internalType": "bytes32",
          "name": "",
          "type": "bytes32"
        }
      ],
      "stateMutability": "view",
      "type": "function"
    },
    {
      "inputs": [],
      "name": "DOMAIN_SEPARATOR",
      "outputs": [
        {
          "internalType": "bytes32",
          "name": "",
          "type": "bytes32"
        }
      ],
      "stateMutability": "view",
      "type": "function"
    },
    {
      "inputs": [],
      "name": "FEE_CONFIG_CONTROLLER_ROLE",
      "outputs": [
        {
          "internalType": "bytes32",
          "name": "",
          "type": "bytes32"
        }
      ],
      "stateMutability": "view",
      "type": "function"
    },
    {
      "inputs": [],
      "name": "VAULT_REWARD_CONTROLLER_ROLE",
      "outputs": [
        {
          "internalType": "bytes32",
          "name": "",
          "type": "bytes32"
        }
      ],
      "stateMutability": "view",
      "type": "function"
    },
    {
      "inputs": [
        {
          "internalType": "address",
          "name": "_token",
          "type": "address"
        },
        {
          "internalType": "uint256",
          "name": "_amount",
          "type": "uint256"
        }
      ],
      "name": "addReward",
      "outputs": [],
      "stateMutability": "payable",
      "type": "function"
    },
    {
      "inputs": [
        {
          "internalType": "address",
          "name": "",
          "type": "address"
        },
        {
          "internalType": "address",
          "name": "",
          "type": "address"
        }
      ],
      "name": "allowance",
      "outputs": [
        {
          "internalType": "uint256",
          "name": "",
          "type": "uint256"
        }
      ],
      "stateMutability": "view",
      "type": "function"
    },
    {
      "inputs": [
        {
          "internalType": "address",
          "name": "spender",
          "type": "address"
        },
        {
          "internalType": "uint256",
          "name": "amount",
          "type": "uint256"
        }
      ],
      "name": "approve",
      "outputs": [
        {
          "internalType": "bool",
          "name": "",
          "type": "bool"
        }
      ],
      "stateMutability": "nonpayable",
      "type": "function"
    },
    {
      "inputs": [],
      "name": "asset",
      "outputs": [
        {
          "internalType": "address",
          "name": "",
          "type": "address"
        }
      ],
      "stateMutability": "view",
      "type": "function"
    },
    {
      "inputs": [],
      "name": "assetTotalSupply",
      "outputs": [
        {
          "internalType": "uint256",
          "name": "",
          "type": "uint256"
        }
      ],
      "stateMutability": "view",
      "type": "function"
    },
    {
      "inputs": [
        {
          "internalType": "address",
          "name": "user",
          "type": "address"
        }
      ],
      "name": "assetsOf",
      "outputs": [
        {
          "internalType": "uint256",
          "name": "",
          "type": "uint256"
        }
      ],
      "stateMutability": "view",
      "type": "function"
    },
    {
      "inputs": [],
      "name": "assetsPerShare",
      "outputs": [
        {
          "internalType": "uint256",
          "name": "",
          "type": "uint256"
        }
      ],
      "stateMutability": "view",
      "type": "function"
    },
    {
      "inputs": [
        {
          "internalType": "address",
          "name": "",
          "type": "address"
        }
      ],
      "name": "balanceOf",
      "outputs": [
        {
          "internalType": "uint256",
          "name": "",
          "type": "uint256"
        }
      ],
      "stateMutability": "view",
      "type": "function"
    },
    {
      "inputs": [
        {
          "internalType": "uint256",
          "name": "_startPosition",
          "type": "uint256"
        }
      ],
      "name": "claimAllReward",
      "outputs": [
        {
          "internalType": "uint256",
          "name": "",
          "type": "uint256"
        },
        {
          "internalType": "uint256",
          "name": "",
          "type": "uint256"
        }
      ],
      "stateMutability": "payable",
      "type": "function"
    },
    {
      "inputs": [],
      "name": "decimals",
      "outputs": [
        {
          "internalType": "uint8",
          "name": "",
          "type": "uint8"
        }
      ],
      "stateMutability": "view",
      "type": "function"
    },
    {
      "inputs": [
        {
          "internalType": "uint256",
          "name": "assets",
          "type": "uint256"
        },
        {
          "internalType": "address",
          "name": "receiver",
          "type": "address"
        }
      ],
      "name": "deposit",
      "outputs": [
        {
          "internalType": "uint256",
          "name": "shares",
          "type": "uint256"
        }
      ],
      "stateMutability": "nonpayable",
      "type": "function"
    },
    {
      "inputs": [],
      "name": "feeConfig",
      "outputs": [
        {
          "internalType": "address",
          "name": "receiver",
          "type": "address"
        },
        {
          "internalType": "address",
          "name": "token",
          "type": "address"
        },
        {
          "internalType": "uint256",
          "name": "feePercentage",
          "type": "uint256"
        }
      ],
      "stateMutability": "view",
      "type": "function"
    },
    {
      "inputs": [
        {
          "internalType": "address",
          "name": "_user",
          "type": "address"
        }
      ],
      "name": "getAllRewards",
      "outputs": [
        {
          "internalType": "uint256[]",
          "name": "_rewards",
          "type": "uint256[]"
        }
      ],
      "stateMutability": "view",
      "type": "function"
    },
    {
      "inputs": [],
      "name": "getRewardTokens",
      "outputs": [
        {
          "internalType": "address[]",
          "name": "",
          "type": "address[]"
        }
      ],
      "stateMutability": "view",
      "type": "function"
    },
    {
      "inputs": [
        {
          "internalType": "bytes32",
          "name": "role",
          "type": "bytes32"
        }
      ],
      "name": "getRoleAdmin",
      "outputs": [
        {
          "internalType": "bytes32",
          "name": "",
          "type": "bytes32"
        }
      ],
      "stateMutability": "view",
      "type": "function"
    },
    {
      "inputs": [
        {
          "internalType": "address",
          "name": "_user",
          "type": "address"
        },
        {
          "internalType": "address",
          "name": "_rewardToken",
          "type": "address"
        }
      ],
      "name": "getUserReward",
      "outputs": [
        {
          "internalType": "uint256",
          "name": "unclaimedAmount",
          "type": "uint256"
        }
      ],
      "stateMutability": "view",
      "type": "function"
    },
    {
      "inputs": [
        {
          "internalType": "bytes32",
          "name": "role",
          "type": "bytes32"
        },
        {
          "internalType": "address",
          "name": "account",
          "type": "address"
        }
      ],
      "name": "grantRole",
      "outputs": [],
      "stateMutability": "nonpayable",
      "type": "function"
    },
    {
      "inputs": [
        {
          "internalType": "bytes32",
          "name": "role",
          "type": "bytes32"
        },
        {
          "internalType": "address",
          "name": "account",
          "type": "address"
        }
      ],
      "name": "hasRole",
      "outputs": [
        {
          "internalType": "bool",
          "name": "",
          "type": "bool"
        }
      ],
      "stateMutability": "view",
      "type": "function"
    },
    {
      "inputs": [
        {
          "internalType": "address",
          "name": "",
          "type": "address"
        }
      ],
      "name": "maxDeposit",
      "outputs": [
        {
          "internalType": "uint256",
          "name": "",
          "type": "uint256"
        }
      ],
      "stateMutability": "pure",
      "type": "function"
    },
    {
      "inputs": [
        {
          "internalType": "address",
          "name": "",
          "type": "address"
        }
      ],
      "name": "maxMint",
      "outputs": [
        {
          "internalType": "uint256",
          "name": "",
          "type": "uint256"
        }
      ],
      "stateMutability": "pure",
      "type": "function"
    },
    {
      "inputs": [
        {
          "internalType": "address",
          "name": "user",
          "type": "address"
        }
      ],
      "name": "maxRedeem",
      "outputs": [
        {
          "internalType": "uint256",
          "name": "",
          "type": "uint256"
        }
      ],
      "stateMutability": "view",
      "type": "function"
    },
    {
      "inputs": [
        {
          "internalType": "address",
          "name": "user",
          "type": "address"
        }
      ],
      "name": "maxWithdraw",
      "outputs": [
        {
          "internalType": "uint256",
          "name": "",
          "type": "uint256"
        }
      ],
      "stateMutability": "view",
      "type": "function"
    },
    {
      "inputs": [
        {
          "internalType": "uint256",
          "name": "shares",
          "type": "uint256"
        },
        {
          "internalType": "address",
          "name": "receiver",
          "type": "address"
        }
      ],
      "name": "mint",
      "outputs": [
        {
          "internalType": "uint256",
          "name": "amount",
          "type": "uint256"
        }
      ],
      "stateMutability": "nonpayable",
      "type": "function"
    },
    {
      "inputs": [],
      "name": "name",
      "outputs": [
        {
          "internalType": "string",
          "name": "",
          "type": "string"
        }
      ],
      "stateMutability": "view",
      "type": "function"
    },
    {
      "inputs": [
        {
          "internalType": "address",
          "name": "",
          "type": "address"
        }
      ],
      "name": "nonces",
      "outputs": [
        {
          "internalType": "uint256",
          "name": "",
          "type": "uint256"
        }
      ],
      "stateMutability": "view",
      "type": "function"
    },
    {
      "inputs": [],
      "name": "owner",
      "outputs": [
        {
          "internalType": "address",
          "name": "",
          "type": "address"
        }
      ],
      "stateMutability": "view",
      "type": "function"
    },
    {
      "inputs": [
        {
          "internalType": "address",
          "name": "owner",
          "type": "address"
        },
        {
          "internalType": "address",
          "name": "spender",
          "type": "address"
        },
        {
          "internalType": "uint256",
          "name": "value",
          "type": "uint256"
        },
        {
          "internalType": "uint256",
          "name": "deadline",
          "type": "uint256"
        },
        {
          "internalType": "uint8",
          "name": "v",
          "type": "uint8"
        },
        {
          "internalType": "bytes32",
          "name": "r",
          "type": "bytes32"
        },
        {
          "internalType": "bytes32",
          "name": "s",
          "type": "bytes32"
        }
      ],
      "name": "permit",
      "outputs": [],
      "stateMutability": "nonpayable",
      "type": "function"
    },
    {
      "inputs": [
        {
          "internalType": "uint256",
          "name": "amount",
          "type": "uint256"
        }
      ],
      "name": "previewDeposit",
      "outputs": [
        {
          "internalType": "uint256",
          "name": "shares",
          "type": "uint256"
        }
      ],
      "stateMutability": "view",
      "type": "function"
    },
    {
      "inputs": [
        {
          "internalType": "uint256",
          "name": "shares",
          "type": "uint256"
        }
      ],
      "name": "previewMint",
      "outputs": [
        {
          "internalType": "uint256",
          "name": "amount",
          "type": "uint256"
        }
      ],
      "stateMutability": "view",
      "type": "function"
    },
    {
      "inputs": [
        {
          "internalType": "uint256",
          "name": "shares",
          "type": "uint256"
        }
      ],
      "name": "previewRedeem",
      "outputs": [
        {
          "internalType": "uint256",
          "name": "amount",
          "type": "uint256"
        }
      ],
      "stateMutability": "view",
      "type": "function"
    },
    {
      "inputs": [
        {
          "internalType": "uint256",
          "name": "amount",
          "type": "uint256"
        }
      ],
      "name": "previewWithdraw",
      "outputs": [
        {
          "internalType": "uint256",
          "name": "shares",
          "type": "uint256"
        }
      ],
      "stateMutability": "view",
      "type": "function"
    },
    {
      "inputs": [
        {
          "internalType": "uint256",
          "name": "shares",
          "type": "uint256"
        },
        {
          "internalType": "address",
          "name": "receiver",
          "type": "address"
        },
        {
          "internalType": "address",
          "name": "from",
          "type": "address"
        }
      ],
      "name": "redeem",
      "outputs": [
        {
          "internalType": "uint256",
          "name": "amount",
          "type": "uint256"
        }
      ],
      "stateMutability": "nonpayable",
      "type": "function"
    },
    {
      "inputs": [],
      "name": "renounceOwnership",
      "outputs": [],
      "stateMutability": "nonpayable",
      "type": "function"
    },
    {
      "inputs": [
        {
          "internalType": "bytes32",
          "name": "role",
          "type": "bytes32"
        },
        {
          "internalType": "address",
          "name": "callerConfirmation",
          "type": "address"
        }
      ],
      "name": "renounceRole",
      "outputs": [],
      "stateMutability": "nonpayable",
      "type": "function"
    },
    {
      "inputs": [
        {
          "internalType": "bytes32",
          "name": "role",
          "type": "bytes32"
        },
        {
          "internalType": "address",
          "name": "account",
          "type": "address"
        }
      ],
      "name": "revokeRole",
      "outputs": [],
      "stateMutability": "nonpayable",
      "type": "function"
    },
    {
      "inputs": [
        {
          "internalType": "uint256",
          "name": "",
          "type": "uint256"
        }
      ],
      "name": "rewardTokens",
      "outputs": [
        {
          "internalType": "address",
          "name": "",
          "type": "address"
        }
      ],
      "stateMutability": "view",
      "type": "function"
    },
    {
      "inputs": [],
      "name": "share",
      "outputs": [
        {
          "internalType": "address",
          "name": "",
          "type": "address"
        }
      ],
      "stateMutability": "view",
      "type": "function"
    },
    {
      "inputs": [
        {
          "internalType": "bytes4",
          "name": "interfaceId",
          "type": "bytes4"
        }
      ],
      "name": "supportsInterface",
      "outputs": [
        {
          "internalType": "bool",
          "name": "",
          "type": "bool"
        }
      ],
      "stateMutability": "view",
      "type": "function"
    },
    {
      "inputs": [],
      "name": "symbol",
      "outputs": [
        {
          "internalType": "string",
          "name": "",
          "type": "string"
        }
      ],
      "stateMutability": "view",
      "type": "function"
    },
    {
      "inputs": [
        {
          "internalType": "address",
          "name": "",
          "type": "address"
        }
      ],
      "name": "tokensRewardInfo",
      "outputs": [
        {
          "internalType": "uint256",
          "name": "amount",
          "type": "uint256"
        },
        {
          "internalType": "bool",
          "name": "exist",
          "type": "bool"
        }
      ],
      "stateMutability": "view",
      "type": "function"
    },
    {
      "inputs": [],
      "name": "totalAssets",
      "outputs": [
        {
          "internalType": "uint256",
          "name": "",
          "type": "uint256"
        }
      ],
      "stateMutability": "view",
      "type": "function"
    },
    {
      "inputs": [],
      "name": "totalSupply",
      "outputs": [
        {
          "internalType": "uint256",
          "name": "",
          "type": "uint256"
        }
      ],
      "stateMutability": "view",
      "type": "function"
    },
    {
      "inputs": [
        {
          "internalType": "address",
          "name": "to",
          "type": "address"
        },
        {
          "internalType": "uint256",
          "name": "amount",
          "type": "uint256"
        }
      ],
      "name": "transfer",
      "outputs": [
        {
          "internalType": "bool",
          "name": "",
          "type": "bool"
        }
      ],
      "stateMutability": "nonpayable",
      "type": "function"
    },
    {
      "inputs": [
        {
          "internalType": "address",
          "name": "from",
          "type": "address"
        },
        {
          "internalType": "address",
          "name": "to",
          "type": "address"
        },
        {
          "internalType": "uint256",
          "name": "amount",
          "type": "uint256"
        }
      ],
      "name": "transferFrom",
      "outputs": [
        {
          "internalType": "bool",
          "name": "",
          "type": "bool"
        }
      ],
      "stateMutability": "nonpayable",
      "type": "function"
    },
    {
      "inputs": [
        {
          "internalType": "address",
          "name": "newOwner",
          "type": "address"
        }
      ],
      "name": "transferOwnership",
      "outputs": [],
      "stateMutability": "nonpayable",
      "type": "function"
    },
    {
      "inputs": [
        {
          "components": [
            {
              "internalType": "address",
              "name": "receiver",
              "type": "address"
            },
            {
              "internalType": "address",
              "name": "token",
              "type": "address"
            },
            {
              "internalType": "uint256",
              "name": "feePercentage",
              "type": "uint256"
            }
          ],
          "internalType": "struct FeeConfiguration.FeeConfig",
          "name": "_feeConfig",
          "type": "tuple"
        }
      ],
      "name": "updateFeeConfig",
      "outputs": [],
      "stateMutability": "nonpayable",
      "type": "function"
    },
    {
      "inputs": [
        {
          "internalType": "address",
          "name": "",
          "type": "address"
        }
      ],
      "name": "userContribution",
      "outputs": [
        {
          "internalType": "uint256",
          "name": "sharesAmount",
          "type": "uint256"
        },
        {
          "internalType": "uint256",
          "name": "lastLockedTime",
          "type": "uint256"
        },
        {
          "internalType": "bool",
          "name": "exist",
          "type": "bool"
        }
      ],
      "stateMutability": "view",
      "type": "function"
    },
    {
      "inputs": [
        {
          "internalType": "uint256",
          "name": "amount",
          "type": "uint256"
        },
        {
          "internalType": "address",
          "name": "receiver",
          "type": "address"
        },
        {
          "internalType": "address",
          "name": "from",
          "type": "address"
        }
      ],
      "name": "withdraw",
      "outputs": [
        {
          "internalType": "uint256",
          "name": "shares",
          "type": "uint256"
        }
      ],
      "stateMutability": "nonpayable",
      "type": "function"
    }
  ],
  "bytecode": "0x6101006040526040516200488f3803806200488f833981016040819052620000279162000b0a565b338585886001600160a01b031663313ce5676040518163ffffffff1660e01b8152600401602060405180830381865afa15801562000069573d6000803e3d6000fd5b505050506040513d601f19601f820116820180604052508101906200008f919062000c03565b60006200009d848262000cc0565b506001620000ac838262000cc0565b5060ff81166080524660a052620000c26200013c565b60c0525050506001600160a01b038116620000f857604051631e4fbdf760e01b8152600060048201526024015b60405180910390fd5b6200010381620001d8565b506001600b55620001168383836200022a565b6001600160a01b03861660e05262000130858588620002b0565b505050505050620010d7565b60007f8b73c3c69bb8fe3d512ecc4cf759cc79239f7b179b0ffacaa9a75d522b39400f600060405162000170919062000d8c565b6040805191829003822060208301939093528101919091527fc89efdaa54c0f20c7adf612882df0950f5a951637e0307cdcb4c672f298b8bc660608201524660808201523060a082015260c00160405160208183030381529060405280519060200120905090565b600a80546001600160a01b038381166001600160a01b0319831681179093556040519116919082907f8be0079c531659141344cd1fd0a4f28419497f9722a3daafe3b4186f6b6457e090600090a35050565b8251602084015160408501516200024392919062000553565b6200025060003362000613565b506200027d7f477fc23fb51bb5d5aa814872a393b0e4f35d0916c7503c0fd96584681070d4108362000613565b50620002aa7f74e458455daa935f28c556b43e0cc4ad001a8a090f5feee376681e97d4618f468262000613565b50505050565b620002bc8130620006c6565b6040805160a08082018352600080835260208084018290526060848601819052808501819052306080808701829052875195860188528486528584018590528588018390528583018390528501528551600280825291810190965260109560019594939290919082015b6200033062000989565b815260200190600190039081620003265790505090506040518060400160405280868152602001848152508160008151811062000371576200037162000e0a565b602002602001018190525060405180604001604052808581526020018381525081600181518110620003a757620003a762000e0a565b6020026020010181905250620003ec6040518060600160405280600063ffffffff16815260200160006001600160a01b03168152602001600063ffffffff1681525090565b306020820152627a120060408201526200046260408051610120810182526060808252602080830182905260008385018190528284018390526080840181905260a0840181905260c0840181905260e0840183905284519283018552808352908201819052928101929092529061010082015290565b89815260208082018a905230604080840191909152610100830184905260e08301859052805163313ce56760e01b81529051620004ff9284926000926001600160a01b038e169263313ce56792600480820193918290030181865afa158015620004d0573d6000803e3d6000fd5b505050506040513d601f19601f82011682018060405250810190620004f6919062000c03565b60ff16620007f5565b600c80546001600160a01b0319166001600160a01b039290921691821790556040517f7bb17726df1f3adee8aa00ba8e8bc5d6f182af3bbf77604639cb7f008dd3b4ed90600090a250505050505050505050565b6127108110620005985760405162461bcd60e51b815260206004820152600f60248201526e46433a20496e76616c69642066656560881b6044820152606401620000ef565b600780546001600160a01b038581166001600160a01b0319928316811790935560088054918616919092168117909155600983905560408051928352602083019190915281018290527febd34b2df88ea5c9f67c04b13b08e5e63c2d17e269aab73b866fe47a8736a2649060600160405180910390a1505050565b60008281526006602090815260408083206001600160a01b038516845290915281205460ff16620006bc5760008381526006602090815260408083206001600160a01b03861684529091529020805460ff19166001179055620006733390565b6001600160a01b0316826001600160a01b0316847f2f8788117e7eff1d82e926ec794901d17c78024a50270940304540a733656f0d60405160405180910390a4506001620006c0565b5060005b92915050565b604080516001600160a01b038381166024830152841660448083019190915282518083039091018152606490910182526020810180516001600160e01b031663248a35ef60e11b1790529051600091829182916101679162000729919062000e20565b6000604051808303816000865af19150503d806000811462000768576040519150601f19603f3d011682016040523d82523d6000602084013e6200076d565b606091505b5091509150816200078057601562000796565b8080602001905181019062000796919062000e51565b9250600383900b601614620007ee5760405162461bcd60e51b815260206004820152601f60248201527f536166652073696e676c65206173736f63696174696f6e206661696c656421006044820152606401620000ef565b5050505050565b61010083015151600090849063ffffffff161580156200082257506101008101516040015163ffffffff16155b1562000839576101008101516276a7006040909101525b60008060006101676001600160a01b031634637812a04b60e01b8a8a8a6040516024016200086a9392919062000f6e565b60408051601f198184030181529181526020820180516001600160e01b03166001600160e01b0319909416939093179092529051620008aa919062000e20565b60006040518083038185875af1925050503d8060008114620008e9576040519150601f19603f3d011682016040523d82523d6000602084013e620008ee565b606091505b50915091508162000903576015600062000919565b808060200190518101906200091991906200109b565b95509250600383900b6016146200097e5760405162461bcd60e51b815260206004820152602260248201527f53616665206372656174652066756e6769626c6520746f6b656e206661696c65604482015261642160f01b6064820152608401620000ef565b505050509392505050565b604051806040016040528060008152602001620009e26040518060a0016040528060001515815260200160006001600160a01b03168152602001606081526020016060815260200160006001600160a01b031681525090565b905290565b6001600160a01b0381168114620009fd57600080fd5b50565b634e487b7160e01b600052604160045260246000fd5b604051606081016001600160401b038111828210171562000a3b5762000a3b62000a00565b60405290565b60005b8381101562000a5e57818101518382015260200162000a44565b50506000910152565b600082601f83011262000a7957600080fd5b81516001600160401b038082111562000a965762000a9662000a00565b604051601f8301601f19908116603f0116810190828211818310171562000ac15762000ac162000a00565b8160405283815286602085880101111562000adb57600080fd5b62000aee84602083016020890162000a41565b9695505050505050565b805162000b0581620009e7565b919050565b60008060008060008086880361010081121562000b2657600080fd5b875162000b3381620009e7565b60208901519097506001600160401b038082111562000b5157600080fd5b62000b5f8b838c0162000a67565b975060408a015191508082111562000b7657600080fd5b5062000b858a828b0162000a67565b9550506060605f198201121562000b9b57600080fd5b5062000ba662000a16565b606088015162000bb681620009e7565b8152608088015162000bc881620009e7565b602082015260a08801516040820152925062000be760c0880162000af8565b915062000bf760e0880162000af8565b90509295509295509295565b60006020828403121562000c1657600080fd5b815160ff8116811462000c2857600080fd5b9392505050565b600181811c9082168062000c4457607f821691505b60208210810362000c6557634e487b7160e01b600052602260045260246000fd5b50919050565b601f82111562000cbb576000816000526020600020601f850160051c8101602086101562000c965750805b601f850160051c820191505b8181101562000cb75782815560010162000ca2565b5050505b505050565b81516001600160401b0381111562000cdc5762000cdc62000a00565b62000cf48162000ced845462000c2f565b8462000c6b565b602080601f83116001811462000d2c576000841562000d135750858301515b600019600386901b1c1916600185901b17855562000cb7565b600085815260208120601f198616915b8281101562000d5d5788860151825594840194600190910190840162000d3c565b508582101562000d7c5787850151600019600388901b60f8161c191681555b5050505050600190811b01905550565b600080835462000d9c8162000c2f565b6001828116801562000db7576001811462000dcd5762000dfe565b60ff198416875282151583028701945062000dfe565b8760005260208060002060005b8581101562000df55781548a82015290840190820162000dda565b50505082870194505b50929695505050505050565b634e487b7160e01b600052603260045260246000fd5b6000825162000e3481846020870162000a41565b9190910192915050565b8051600381900b811462000b0557600080fd5b60006020828403121562000e6457600080fd5b62000c288262000e3e565b6000815180845262000e8981602086016020860162000a41565b601f01601f19169290920160200192915050565b600082825180855260208086019550808260051b84010181860160005b8481101562000f6157858303601f1901895281518051845284015160408585018190528151151581860152818601516001600160a01b039081166060808801919091529183015160a0608080890182905291939092909162000f2060e08a018662000e6f565b92860151898403603f1901858b015292945062000f3e858462000e6f565b9501511660c0979097019690965250509884019892509083019060010162000eba565b5090979650505050505050565b606081526000845161016080606085015262000f8f6101c085018362000e6f565b91506020870151605f198086850301608087015262000faf848362000e6f565b93506040890151915062000fce60a08701836001600160a01b03169052565b60608901519150808685030160c087015262000feb848362000e6f565b9350608089015191506200100360e087018315159052565b60a089015191506101006200101f8188018463ffffffff169052565b60c08a0151151561012088015260e08a0151878603830161014089015292506200104a858462000e9d565b9450808a0151925050506200108782860182805163ffffffff90811683526020808301516001600160a01b03169084015260409182015116910152565b505060208301949094525060400152919050565b60008060408385031215620010af57600080fd5b620010ba8362000e3e565b91506020830151620010cc81620009e7565b809150509250929050565b60805160a05160c05160e051613746620011496000396000818161061301528181610abb01528181610c86015281816110f30152818161144f01528181611565015281816119e00152611b9201526000610f7101526000610f410152600081816105590152610e6401526137466000f3fe6080604052600436106102ff5760003560e01c80637bb7bed111610190578063b4f6d613116100dc578063d505accf11610095578063dd62ed3e1161006f578063dd62ed3e14610a0b578063ef8b30f714610a43578063efa6f42514610a63578063f2fde38b14610a8357600080fd5b8063d505accf14610995578063d547741f146109b5578063d905777e146109d557600080fd5b8063b4f6d613146108b3578063ba087652146108e7578063c4f59f9b14610907578063c63d75b61461064b578063cd9cdfda14610929578063ce96cb771461097557600080fd5b806395d89b4111610149578063a8d5fd6511610123578063a8d5fd6514610835578063a9059cbb14610853578063b3d7f6b914610873578063b460af941461089357600080fd5b806395d89b41146107f85780639feb8f501461080d578063a217fddf1461082057600080fd5b80637bb7bed1146107375780637ecebe00146107575780638da5cb5b146107845780638f12c2f4146107a257806391d14854146107b857806394bf804d146107d857600080fd5b8063313ce5671161024f578063402d267d116102085780636e553f65116101e25780636e553f65146106ad57806370a08231146106cd578063715018a6146106fa5780637a07bf3a1461070f57600080fd5b8063402d267d1461064b5780634cdad5061461066d5780635ab764ed1461068d57600080fd5b8063313ce5671461054757806335d16e171461058d578063362a3fad146105a25780633644e515146105cf57806336568abe146105e457806338d52e0f1461060457600080fd5b806316ad0672116102bc57806323b872dd1161029657806323b872dd146104b5578063248a9ca3146104d55780632c62fa10146105055780632f2ff15d1461052557600080fd5b806316ad0672146103f257806318160ddd1461044e5780631e5eb1d01461046457600080fd5b806301e1d1141461030457806301ffc9a71461032c57806305fb2a511461035c57806306fdde0314610390578063095ea7b3146103b25780630a28a477146103d2575b600080fd5b34801561031057600080fd5b50610319610aa3565b6040519081526020015b60405180910390f35b34801561033857600080fd5b5061034c610347366004612dd6565b610b33565b6040519015158152602001610323565b34801561036857600080fd5b506103197f74e458455daa935f28c556b43e0cc4ad001a8a090f5feee376681e97d4618f4681565b34801561039c57600080fd5b506103a5610b6a565b6040516103239190612e50565b3480156103be57600080fd5b5061034c6103cd366004612e7f565b610bf8565b3480156103de57600080fd5b506103196103ed366004612ea9565b610c64565b3480156103fe57600080fd5b5061043161040d366004612ec2565b600f6020526000908152604090208054600182015460039092015490919060ff1683565b604080519384526020840192909252151590820152606001610323565b34801561045a57600080fd5b5061031960025481565b34801561047057600080fd5b5060075460085460095461048f926001600160a01b0390811692169083565b604080516001600160a01b03948516815293909216602084015290820152606001610323565b3480156104c157600080fd5b5061034c6104d0366004612edd565b610d1b565b3480156104e157600080fd5b506103196104f0366004612ea9565b60009081526006602052604090206001015490565b34801561051157600080fd5b50610319610520366004612ec2565b610e0d565b34801561053157600080fd5b50610545610540366004612f19565b610e2f565b005b34801561055357600080fd5b5061057b7f000000000000000000000000000000000000000000000000000000000000000081565b60405160ff9091168152602001610323565b34801561059957600080fd5b50610319610e5a565b3480156105ae57600080fd5b506105c26105bd366004612ec2565b610e8a565b6040516103239190612f45565b3480156105db57600080fd5b50610319610f3d565b3480156105f057600080fd5b506105456105ff366004612f19565b610f93565b34801561061057600080fd5b507f00000000000000000000000000000000000000000000000000000000000000005b6040516001600160a01b039091168152602001610323565b34801561065757600080fd5b50610319610666366004612ec2565b5060001990565b34801561067957600080fd5b50610319610688366004612ea9565b610fcb565b34801561069957600080fd5b506103196106a8366004612f89565b610fed565b3480156106b957600080fd5b506103196106c8366004612f19565b61107e565b3480156106d957600080fd5b506103196106e8366004612ec2565b60036020526000908152604090205481565b34801561070657600080fd5b506105456111db565b61072261071d366004612ea9565b6111ef565b60408051928352602083019190915201610323565b34801561074357600080fd5b50610633610752366004612ea9565b611316565b34801561076357600080fd5b50610319610772366004612ec2565b60056020526000908152604090205481565b34801561079057600080fd5b50600a546001600160a01b0316610633565b3480156107ae57600080fd5b50610319600d5481565b3480156107c457600080fd5b5061034c6107d3366004612f19565b611340565b3480156107e457600080fd5b506103196107f3366004612f19565b61136b565b34801561080457600080fd5b506103a5611480565b61054561081b366004612e7f565b61148d565b34801561082c57600080fd5b50610319600081565b34801561084157600080fd5b50600c546001600160a01b0316610633565b34801561085f57600080fd5b5061034c61086e366004612e7f565b6117f0565b34801561087f57600080fd5b5061031961088e366004612ea9565b611868565b34801561089f57600080fd5b506103196108ae366004612fb3565b61188a565b3480156108bf57600080fd5b506103197f477fc23fb51bb5d5aa814872a393b0e4f35d0916c7503c0fd96584681070d41081565b3480156108f357600080fd5b50610319610902366004612fb3565b611a67565b34801561091357600080fd5b5061091c611c07565b6040516103239190612fef565b34801561093557600080fd5b50610960610944366004612ec2565b6010602052600090815260409020805460019091015460ff1682565b60408051928352901515602083015201610323565b34801561098157600080fd5b50610319610990366004612ec2565b611c69565b3480156109a157600080fd5b506105456109b0366004613030565b611c74565b3480156109c157600080fd5b506105456109d0366004612f19565b611eb8565b3480156109e157600080fd5b506103196109f0366004612ec2565b6001600160a01b031660009081526003602052604090205490565b348015610a1757600080fd5b50610319610a26366004612f89565b600460209081526000928352604080842090915290825290205481565b348015610a4f57600080fd5b50610319610a5e366004612ea9565b611edd565b348015610a6f57600080fd5b50610545610a7e3660046130ea565b611efe565b348015610a8f57600080fd5b50610545610a9e366004612ec2565b611f43565b6040516370a0823160e01b81523060048201526000907f00000000000000000000000000000000000000000000000000000000000000006001600160a01b0316906370a0823190602401602060405180830381865afa158015610b0a573d6000803e3d6000fd5b505050506040513d601f19601f82011682018060405250810190610b2e9190613152565b905090565b60006001600160e01b03198216637965db0b60e01b1480610b6457506301ffc9a760e01b6001600160e01b03198316145b92915050565b60008054610b779061316b565b80601f0160208091040260200160405190810160405280929190818152602001828054610ba39061316b565b8015610bf05780601f10610bc557610100808354040283529160200191610bf0565b820191906000526020600020905b815481529060010190602001808311610bd357829003601f168201915b505050505081565b3360008181526004602090815260408083206001600160a01b038716808552925280832085905551919290917f8c5be1e5ebec7d5bd14f71427d1e84f3dd0314c0f7b2291e5b200ac8c7c3b92590610c539086815260200190565b60405180910390a350600192915050565b6040516370a0823160e01b815230600482015260009081906001600160a01b037f000000000000000000000000000000000000000000000000000000000000000016906370a0823190602401602060405180830381865afa158015610ccd573d6000803e3d6000fd5b505050506040513d601f19601f82011682018060405250810190610cf19190613152565b90508015610d1257610d0d81610d05610aa3565b859190611f81565b610d14565b825b9392505050565b6001600160a01b03831660009081526004602090815260408083203384529091528120546000198114610d7757610d5283826131bb565b6001600160a01b03861660009081526004602090815260408083203384529091529020555b6001600160a01b03851660009081526003602052604081208054859290610d9f9084906131bb565b90915550506001600160a01b03808516600081815260036020526040908190208054870190555190918716907fddf252ad1be2c89b69c2b068fc378daa952ba7f163c4a11628f55a4df523b3ef90610dfa9087815260200190565b60405180910390a3506001949350505050565b6001600160a01b038116600090815260036020526040812054610b6490610fcb565b600082815260066020526040902060010154610e4a81611fa7565b610e548383611fb1565b50505050565b6000610b2e6106887f0000000000000000000000000000000000000000000000000000000000000000600a6132b2565b600e546060908067ffffffffffffffff811115610ea957610ea96130a3565b604051908082528060200260200182016040528015610ed2578160200160208202803683370190505b50915060005b81811015610f3657610f1184600e8381548110610ef757610ef76132c1565b6000918252602090912001546001600160a01b0316610fed565b838281518110610f2357610f236132c1565b6020908102919091010152600101610ed8565b5050919050565b60007f00000000000000000000000000000000000000000000000000000000000000004614610f6e57610b2e612045565b507f000000000000000000000000000000000000000000000000000000000000000090565b6001600160a01b0381163314610fbc5760405163334bd91960e11b815260040160405180910390fd5b610fc682826120df565b505050565b6002546000908015610d1257610d0d610fe2610aa3565b60025485919061214c565b6001600160a01b03808216600081815260106020908152604080832080549588168452600f8352818420805495855260028101909352908320549294909390928561103882866131bb565b90506110468160018561214c565b600954909750156110725760006110628860076002015461216a565b905061106e81896131bb565b9750505b50505050505092915050565b60006110886121ea565b6001600160a01b0382166110b75760405162461bcd60e51b81526004016110ae906132d7565b60405180910390fd5b6110c083611edd565b9050806000036110e657604051636e3699b760e11b8152600481018490526024016110ae565b61111b6001600160a01b037f000000000000000000000000000000000000000000000000000000000000000016333086612214565b600c54611168906001600160a01b03168460005b60405190808252806020026020018201604052801561116257816020015b606081526020019060019003908161114d5790505b5061229e565b5050600c54611182906001600160a01b03163084866123e1565b60408051848152602081018390526001600160a01b0384169133917fdcbc1c05240f31ff3ad067ef1ee35ce4997762752e3a095284754544f4c709d7910160405180910390a36111d18361251a565b610b646001600b55565b6111e36126a5565b6111ed60006126d2565b565b600e5460085460009182916001600160a01b031681830361125e5760405162461bcd60e51b815260206004820152602360248201527f4865646572615661756c743a204e6f2072657761726420746f6b656e732065786044820152621a5cdd60ea1b60648201526084016110ae565b600080865b8481101561130857600e818154811061127e5761127e6132c1565b6000918252602090912001546001600160a01b0316915061129f3383610fed565b6001600160a01b03831660008181526010602090815260408083205433808552600f84528285209585526002909501909252909120559093506112e69083903090866123e1565b6001600160a01b03841615611300576112fe83612724565b505b600101611263565b509596929550919350505050565b600e818154811061132657600080fd5b6000918252602090912001546001600160a01b0316905081565b60009182526006602090815260408084206001600160a01b0393909316845291905290205460ff1690565b60006113756121ea565b6001600160a01b03821661139b5760405162461bcd60e51b81526004016110ae906132d7565b6113a483611868565b9050806000036113ca57604051636e3699b760e11b8152600481018490526024016110ae565b600c546113e2906001600160a01b031682600061112f565b5050600c546113fc906001600160a01b03163084846123e1565b60408051828152602081018590526001600160a01b0384169133917fdcbc1c05240f31ff3ad067ef1ee35ce4997762752e3a095284754544f4c709d7910160405180910390a36114776001600160a01b037f000000000000000000000000000000000000000000000000000000000000000016333084612214565b6111d18161251a565b60018054610b779061316b565b7f477fc23fb51bb5d5aa814872a393b0e4f35d0916c7503c0fd96584681070d4106114b781611fa7565b816000036115115760405162461bcd60e51b815260206004820152602160248201527f4865646572615661756c743a20416d6f756e742063616e2774206265207a65726044820152606f60f81b60648201526084016110ae565b600d546000036115635760405162461bcd60e51b815260206004820181905260248201527f4865646572615661756c743a204e6f20746f6b656e207374616b65642079657460448201526064016110ae565b7f00000000000000000000000000000000000000000000000000000000000000006001600160a01b0316836001600160a01b0316141580156115b35750600c546001600160a01b03848116911614155b61161d5760405162461bcd60e51b815260206004820152603560248201527f4865646572615661756c743a2052657761726420616e64205374616b696e6720604482015274746f6b656e732063616e6e6f742062652073616d6560581b60648201526084016110ae565b6001600160a01b03831661167d5760405162461bcd60e51b815260206004820152602160248201527f4865646572615661756c743a20496e76616c69642072657761726420746f6b656044820152603760f91b60648201526084016110ae565b600e54600a036116a057604051637561e0ab60e01b815260040160405180910390fd5b60006116ba6001600d548561214c9092919063ffffffff16565b6001600160a01b038516600090815260106020526040902060018101549192509060ff1661176357600e8054600180820183556000929092527fbb7b4a454dc3493923482f07822329ed19e8244eff582cc204f8554c3620c3fd0180546001600160a01b0319166001600160a01b038816179055818101805460ff19169091179055818155611749853061282b565b61175e6001600160a01b038616333087612214565b6117a6565b6001600160a01b0385166000908152601060205260408120805484929061178b90849061331c565b909155506117a690506001600160a01b038616333087612214565b846001600160a01b03167fac24935fd910bc682b5ccb1a07b718cadf8cf2f6d1404c4f3ddc3662dae40e29856040516117e191815260200190565b60405180910390a25050505050565b336000908152600360205260408120805483919083906118119084906131bb565b90915550506001600160a01b038316600081815260036020526040908190208054850190555133907fddf252ad1be2c89b69c2b068fc378daa952ba7f163c4a11628f55a4df523b3ef90610c539086815260200190565b6002546000908015610d1257610d0d61187f610aa3565b600254859190611f81565b60006118946121ea565b6001600160a01b0383166118ba5760405162461bcd60e51b81526004016110ae906132d7565b6001600160a01b0382166118e05760405162461bcd60e51b81526004016110ae9061332f565b6118e984610c64565b9050806000036119365760405162461bcd60e51b81526020600482015260186024820152774865646572615661756c743a205a65726f2061737365747360401b60448201526064016110ae565b6001600160a01b0382166000908152600f602052604090205481111561196e5760405162461bcd60e51b81526004016110ae90613370565b61197784612949565b600c5461198f906001600160a01b03168330876123e1565b600c546119d2906001600160a01b03168560005b6040519080825280602002602001820160405280156119cc578160200160208202803683370190505b5061298d565b50611a076001600160a01b037f0000000000000000000000000000000000000000000000000000000000000000168486612ab9565b826001600160a01b0316826001600160a01b03167ff341246adaac6f497bc2a656f546ab9e182111d630394f0c57c710a59a2cb5678684604051611a55929190918252602082015260400190565b60405180910390a3610d146001600b55565b6000611a716121ea565b6001600160a01b038316611a975760405162461bcd60e51b81526004016110ae906132d7565b6001600160a01b038216611abd5760405162461bcd60e51b81526004016110ae9061332f565b611ac684610fcb565b905080600003611b135760405162461bcd60e51b81526020600482015260186024820152774865646572615661756c743a205a65726f2061737365747360401b60448201526064016110ae565b6001600160a01b0382166000908152600f6020526040902054841115611b4b5760405162461bcd60e51b81526004016110ae90613370565b611b5481612949565b600c54611b6c906001600160a01b03168330846123e1565b600c54611b84906001600160a01b03168260006119a3565b50611bb96001600160a01b037f0000000000000000000000000000000000000000000000000000000000000000168483612ab9565b826001600160a01b0316826001600160a01b03167ff341246adaac6f497bc2a656f546ab9e182111d630394f0c57c710a59a2cb5678387604051611a55929190918252602082015260400190565b6060600e805480602002602001604051908101604052809291908181526020018280548015611c5f57602002820191906000526020600020905b81546001600160a01b03168152600190910190602001808311611c41575b5050505050905090565b6000610b6482610e0d565b42841015611cc45760405162461bcd60e51b815260206004820152601760248201527f5045524d49545f444541444c494e455f4558504952454400000000000000000060448201526064016110ae565b60006001611cd0610f3d565b6001600160a01b038a811660008181526005602090815260409182902080546001810190915582517f6e71edae12b1b97f4d1f60370fef10105fa2faae0126114a169c64845d6126c98184015280840194909452938d166060840152608083018c905260a083019390935260c08083018b90528151808403909101815260e08301909152805192019190912061190160f01b6101008301526101028201929092526101228101919091526101420160408051601f198184030181528282528051602091820120600084529083018083525260ff871690820152606081018590526080810184905260a0016020604051602081039080840390855afa158015611ddc573d6000803e3d6000fd5b5050604051601f1901519150506001600160a01b03811615801590611e125750876001600160a01b0316816001600160a01b0316145b611e4f5760405162461bcd60e51b815260206004820152600e60248201526d24a72b20a624a22fa9a4a3a722a960911b60448201526064016110ae565b6001600160a01b0390811660009081526004602090815260408083208a8516808552908352928190208990555188815291928a16917f8c5be1e5ebec7d5bd14f71427d1e84f3dd0314c0f7b2291e5b200ac8c7c3b925910160405180910390a350505050505050565b600082815260066020526040902060010154611ed381611fa7565b610e5483836120df565b6002546000908015610d1257610d0d6001611ef6610aa3565b85919061214c565b7f74e458455daa935f28c556b43e0cc4ad001a8a090f5feee376681e97d4618f46611f2881611fa7565b611f3f826000015183602001518460400151612b31565b5050565b611f4b6126a5565b6001600160a01b038116611f7557604051631e4fbdf760e01b8152600060048201526024016110ae565b611f7e816126d2565b50565b6000826000190484118302158202611f9857600080fd5b50910281810615159190040190565b611f7e8133612bef565b6000611fbd8383611340565b61203d5760008381526006602090815260408083206001600160a01b03861684529091529020805460ff19166001179055611ff53390565b6001600160a01b0316826001600160a01b0316847f2f8788117e7eff1d82e926ec794901d17c78024a50270940304540a733656f0d60405160405180910390a4506001610b64565b506000610b64565b60007f8b73c3c69bb8fe3d512ecc4cf759cc79239f7b179b0ffacaa9a75d522b39400f600060405161207791906133bc565b6040805191829003822060208301939093528101919091527fc89efdaa54c0f20c7adf612882df0950f5a951637e0307cdcb4c672f298b8bc660608201524660808201523060a082015260c00160405160208183030381529060405280519060200120905090565b60006120eb8383611340565b1561203d5760008381526006602090815260408083206001600160a01b0386168085529252808320805460ff1916905551339286917ff6391f5c32d9c69d2a47ea670b442974b53935d1edc7fd64eb21e047a839171b9190a4506001610b64565b600082600019048411830215820261216357600080fd5b5091020490565b6000612710612179838561345d565b10156121d35760405162461bcd60e51b8152602060048201526024808201527f46433a20546f6f20736d616c6c20616d6f756e7420746f20636f6e73696465726044820152632066656560e01b60648201526084016110ae565b6127106121e0838561345d565b610d149190613474565b6002600b540361220d57604051633ee5aeb560e01b815260040160405180910390fd5b6002600b55565b60006040516323b872dd60e01b81528460048201528360248201528260448201526020600060648360008a5af13d15601f3d11600160005114161716915050806122975760405162461bcd60e51b81526020600482015260146024820152731514905394d1915497d19493d357d1905253115160621b60448201526064016110ae565b5050505050565b6000606060008060006101676001600160a01b031663278e0b8860e01b8989896040516024016122d093929190613496565b60408051601f198184030181529181526020820180516001600160e01b03166001600160e01b031990941693909317909252905161230e919061351b565b6000604051808303816000865af19150503d806000811461234b576040519150601f19603f3d011682016040523d82523d6000602084013e612350565b606091505b509150915081612373576040805160008082526020820190925260159190612387565b808060200190518101906123879190613561565b90965094509250600383900b6016146123d65760405162461bcd60e51b815260206004820152601160248201527053616665206d696e74206661696c65642160781b60448201526064016110ae565b505050935093915050565b604080516001600160a01b038681166024830152858116604483015284166064820152600783900b6084808301919091528251808303909101815260a490910182526020810180516001600160e01b031663eca3691760e01b17905290516000918291829161016791612454919061351b565b6000604051808303816000865af19150503d8060008114612491576040519150601f19603f3d011682016040523d82523d6000602084013e612496565b606091505b5091509150816124a75760156124bb565b808060200190518101906124bb919061363d565b9250600383900b6016146125115760405162461bcd60e51b815260206004820152601b60248201527f5361666520746f6b656e207472616e73666572206661696c656421000000000060448201526064016110ae565b50505050505050565b336000908152600f602052604090206003015460ff1661264557600e5460005b818110156125fe576000600e8281548110612557576125576132c1565b60009182526020808320909101546001600160a01b031680835260108252604080842054338552600f8452818520838652600201845281852055805163053aa6f360e11b815290519194508493630a754de693600480840194919391929183900301908290875af11580156125d0573d6000803e3d6000fd5b505050506040513d601f19601f820116820180604052508101906125f49190613152565b505060010161253a565b50336000908152600f6020526040812083815560038101805460ff1916600190811790915542910155600d805484929061263990849061331c565b90915550611f7e915050565b61264f60006111ef565b5050336000908152600f60205260408120805483929061267090849061331c565b9091555050336000908152600f6020526040812042600190910155600d805483929061269d90849061331c565b909155505050565b600a546001600160a01b031633146111ed5760405163118cdaa760e01b81523360048201526024016110ae565b600a80546001600160a01b038381166001600160a01b0319831681179093556040519116919082907f8be0079c531659141344cd1fd0a4f28419497f9722a3daafe3b4186f6b6457e090600090a35050565b6008546009546000916001600160a01b031690829061274490859061216a565b6040516370a0823160e01b815230600482015290915081906001600160a01b038416906370a0823190602401602060405180830381865afa15801561278d573d6000803e3d6000fd5b505050506040513d601f19601f820116820180604052508101906127b19190613152565b10156127ff5760405162461bcd60e51b815260206004820152601e60248201527f46433a20496e73756666696369656e7420746f6b656e2062616c616e6365000060448201526064016110ae565b600754612819906001600160a01b03848116911683612c28565b61282381856131bb565b949350505050565b604080516001600160a01b038381166024830152841660448083019190915282518083039091018152606490910182526020810180516001600160e01b031663248a35ef60e11b1790529051600091829182916101679161288c919061351b565b6000604051808303816000865af19150503d80600081146128c9576040519150601f19603f3d011682016040523d82523d6000602084013e6128ce565b606091505b5091509150816128df5760156128f3565b808060200190518101906128f3919061363d565b9250600383900b6016146122975760405162461bcd60e51b815260206004820152601f60248201527f536166652073696e676c65206173736f63696174696f6e206661696c6564210060448201526064016110ae565b61295360006111ef565b5050336000908152600f6020526040812080548392906129749084906131bb565b9250508190555080600d600082825461269d91906131bb565b6000806000806101676001600160a01b031663acb9cff960e01b8888886040516024016129bc93929190613658565b60408051601f198184030181529181526020820180516001600160e01b03166001600160e01b03199094169390931790925290516129fa919061351b565b6000604051808303816000865af19150503d8060008114612a37576040519150601f19603f3d011682016040523d82523d6000602084013e612a3c565b606091505b509150915081612a4f5760156000612a63565b80806020019051810190612a6391906136c4565b94509250600383900b601614612aaf5760405162461bcd60e51b815260206004820152601160248201527053616665206275726e206661696c65642160781b60448201526064016110ae565b5050509392505050565b600060405163a9059cbb60e01b8152836004820152826024820152602060006044836000895af13d15601f3d1160016000511416171691505080610e545760405162461bcd60e51b815260206004820152600f60248201526e1514905394d1915497d19052531151608a1b60448201526064016110ae565b6127108110612b745760405162461bcd60e51b815260206004820152600f60248201526e46433a20496e76616c69642066656560881b60448201526064016110ae565b600780546001600160a01b038581166001600160a01b0319928316811790935560088054918616919092168117909155600983905560408051928352602083019190915281018290527febd34b2df88ea5c9f67c04b13b08e5e63c2d17e269aab73b866fe47a8736a2649060600160405180910390a1505050565b612bf98282611340565b611f3f5760405163e2517d3f60e01b81526001600160a01b0382166004820152602481018390526044016110ae565b604080516001600160a01b03848116602483015260448083018590528351808403909101815260649092019092526020810180516001600160e01b031663a9059cbb60e01b179052610fc691859190600090612c8690841683612cd4565b90508051600014158015612cab575080806020019051810190612ca991906136ee565b155b15610fc657604051635274afe760e01b81526001600160a01b03841660048201526024016110ae565b6060610d148383600084600080856001600160a01b03168486604051612cfa919061351b565b60006040518083038185875af1925050503d8060008114612d37576040519150601f19603f3d011682016040523d82523d6000602084013e612d3c565b606091505b5091509150612d4c868383612d56565b9695505050505050565b606082612d6657610d0d82612dad565b8151158015612d7d57506001600160a01b0384163b155b15612da657604051639996b31560e01b81526001600160a01b03851660048201526024016110ae565b5080610d14565b805115612dbd5780518082602001fd5b604051630a12f52160e11b815260040160405180910390fd5b600060208284031215612de857600080fd5b81356001600160e01b031981168114610d1457600080fd5b60005b83811015612e1b578181015183820152602001612e03565b50506000910152565b60008151808452612e3c816020860160208601612e00565b601f01601f19169290920160200192915050565b602081526000610d146020830184612e24565b80356001600160a01b0381168114612e7a57600080fd5b919050565b60008060408385031215612e9257600080fd5b612e9b83612e63565b946020939093013593505050565b600060208284031215612ebb57600080fd5b5035919050565b600060208284031215612ed457600080fd5b610d1482612e63565b600080600060608486031215612ef257600080fd5b612efb84612e63565b9250612f0960208501612e63565b9150604084013590509250925092565b60008060408385031215612f2c57600080fd5b82359150612f3c60208401612e63565b90509250929050565b6020808252825182820181905260009190848201906040850190845b81811015612f7d57835183529284019291840191600101612f61565b50909695505050505050565b60008060408385031215612f9c57600080fd5b612fa583612e63565b9150612f3c60208401612e63565b600080600060608486031215612fc857600080fd5b83359250612fd860208501612e63565b9150612fe660408501612e63565b90509250925092565b6020808252825182820181905260009190848201906040850190845b81811015612f7d5783516001600160a01b03168352928401929184019160010161300b565b600080600080600080600060e0888a03121561304b57600080fd5b61305488612e63565b965061306260208901612e63565b95506040880135945060608801359350608088013560ff8116811461308657600080fd5b9699959850939692959460a0840135945060c09093013592915050565b634e487b7160e01b600052604160045260246000fd5b604051601f8201601f1916810167ffffffffffffffff811182821017156130e2576130e26130a3565b604052919050565b6000606082840312156130fc57600080fd5b6040516060810181811067ffffffffffffffff8211171561311f5761311f6130a3565b60405261312b83612e63565b815261313960208401612e63565b6020820152604083013560408201528091505092915050565b60006020828403121561316457600080fd5b5051919050565b600181811c9082168061317f57607f821691505b60208210810361319f57634e487b7160e01b600052602260045260246000fd5b50919050565b634e487b7160e01b600052601160045260246000fd5b81810381811115610b6457610b646131a5565b600181815b808511156132095781600019048211156131ef576131ef6131a5565b808516156131fc57918102915b93841c93908002906131d3565b509250929050565b60008261322057506001610b64565b8161322d57506000610b64565b8160018114613243576002811461324d57613269565b6001915050610b64565b60ff84111561325e5761325e6131a5565b50506001821b610b64565b5060208310610133831016604e8410600b841016171561328c575081810a610b64565b61329683836131ce565b80600019048211156132aa576132aa6131a5565b029392505050565b6000610d1460ff841683613211565b634e487b7160e01b600052603260045260246000fd5b60208082526025908201527f4865646572615661756c743a20496e76616c6964207265636569766572206164604082015264647265737360d81b606082015260800190565b80820180821115610b6457610b646131a5565b60208082526021908201527f4865646572615661756c743a20496e76616c69642066726f6d206164647265736040820152607360f81b606082015260800190565b6020808252602c908201527f4865646572615661756c743a204e6f7420656e6f756768207368617265206f6e60408201526b207468652062616c616e636560a01b606082015260800190565b60008083548160018260011c915060018316806133da57607f831692505b602080841082036133f957634e487b7160e01b86526022600452602486fd5b81801561340d57600181146134225761344f565b60ff198616895284151585028901965061344f565b60008a81526020902060005b868110156134475781548b82015290850190830161342e565b505084890196505b509498975050505050505050565b8082028115828204841417610b6457610b646131a5565b60008261349157634e487b7160e01b600052601260045260246000fd5b500490565b60006060820160018060a01b0386168352602067ffffffffffffffff861660208501526060604085015281855180845260808601915060808160051b87010193506020870160005b8281101561350c57607f198887030184526134fa868351612e24565b955092840192908401906001016134de565b50939998505050505050505050565b6000825161352d818460208701612e00565b9190910192915050565b8051600381900b8114612e7a57600080fd5b805167ffffffffffffffff81168114612e7a57600080fd5b60008060006060848603121561357657600080fd5b61357f84613537565b9250602061358e818601613549565b9250604085015167ffffffffffffffff808211156135ab57600080fd5b818701915087601f8301126135bf57600080fd5b8151818111156135d1576135d16130a3565b8060051b91506135e28483016130b9565b818152918301840191848101908a8411156135fc57600080fd5b938501935b8385101561362d57845192508260070b831461361d5760008081fd5b8282529385019390850190613601565b8096505050505050509250925092565b60006020828403121561364f57600080fd5b610d1482613537565b6001600160a01b038416815267ffffffffffffffff83166020808301919091526060604083018190528351908301819052600091848101916080850190845b818110156136b657845160070b83529383019391830191600101613697565b509098975050505050505050565b600080604083850312156136d757600080fd5b6136e083613537565b9150612f3c60208401613549565b60006020828403121561370057600080fd5b81518015158114610d1457600080fdfea2646970667358221220ec925c053e58fc0cea5561c9567462e6bbc5d0540c1c439fd9c2960ea6b02a1c64736f6c63430008180033",
  "linkReferences": {},
  "deployedLinkReferences": {}
}