{
  "_format": "hh-sol-artifact-1",
  "contractName": "HTSNonFungibleToken",
  "sourceName": "contracts/erc721/hts/HTSNonFungibleToken.sol",
  "abi": [
    {
      "inputs": [
        {
          "internalType": "string",
          "name": "name",
          "type": "string"
        },
        {
          "internalType": "string",
          "name": "symbol",
          "type": "string"
        }
      ],
      "stateMutability": "payable",
      "type": "constructor"
    },
    {
      "anonymous": false,
      "inputs": [
        {
          "indexed": false,
          "internalType": "address",
          "name": "tokenAddress",
          "type": "address"
        },
        {
          "indexed": false,
          "internalType": "address",
          "name": "userAddress",
          "type": "address"
        }
      ],
      "name": "AssociatedToken",
      "type": "event"
    },
    {
      "anonymous": false,
      "inputs": [
        {
          "indexed": false,
          "internalType": "address",
          "name": "tokenAddress",
          "type": "address"
        },
        {
          "indexed": false,
          "internalType": "int64",
          "name": "amount",
          "type": "int64"
        },
        {
          "indexed": false,
          "internalType": "int64",
          "name": "newTotalSupply",
          "type": "int64"
        }
      ],
      "name": "BurnedToken",
      "type": "event"
    },
    {
      "anonymous": false,
      "inputs": [
        {
          "indexed": false,
          "internalType": "bool",
          "name": "",
          "type": "bool"
        },
        {
          "indexed": false,
          "internalType": "bytes",
          "name": "",
          "type": "bytes"
        }
      ],
      "name": "CallResponseEvent",
      "type": "event"
    },
    {
      "anonymous": false,
      "inputs": [
        {
          "indexed": false,
          "internalType": "address",
          "name": "tokenAddress",
          "type": "address"
        }
      ],
      "name": "CreatedToken",
      "type": "event"
    },
    {
      "anonymous": false,
      "inputs": [
        {
          "indexed": false,
          "internalType": "address",
          "name": "tokenAddress",
          "type": "address"
        },
        {
          "indexed": false,
          "internalType": "int64",
          "name": "amount",
          "type": "int64"
        },
        {
          "indexed": false,
          "internalType": "int64",
          "name": "newTotalSupply",
          "type": "int64"
        }
      ],
      "name": "MintedToken",
      "type": "event"
    },
    {
      "inputs": [],
      "name": "associate",
      "outputs": [
        {
          "internalType": "uint256",
          "name": "responseCode",
          "type": "uint256"
        }
      ],
      "stateMutability": "nonpayable",
      "type": "function"
    },
    {
      "inputs": [
        {
          "internalType": "address",
          "name": "account",
          "type": "address"
        }
      ],
      "name": "associateAccount",
      "outputs": [
        {
          "internalType": "int256",
          "name": "responseCode",
          "type": "int256"
        }
      ],
      "stateMutability": "nonpayable",
      "type": "function"
    },
    {
      "inputs": [
        {
          "internalType": "address",
          "name": "token",
          "type": "address"
        },
        {
          "internalType": "bytes",
          "name": "encodedFunctionSelector",
          "type": "bytes"
        }
      ],
      "name": "redirectForToken",
      "outputs": [
        {
          "internalType": "int256",
          "name": "responseCode",
          "type": "int256"
        },
        {
          "internalType": "bytes",
          "name": "response",
          "type": "bytes"
        }
      ],
      "stateMutability": "nonpayable",
      "type": "function"
    },
    {
      "inputs": [
        {
          "internalType": "address",
          "name": "token",
          "type": "address"
        },
        {
          "internalType": "address",
          "name": "from",
          "type": "address"
        },
        {
          "internalType": "address",
          "name": "to",
          "type": "address"
        },
        {
          "internalType": "uint256",
          "name": "amount",
          "type": "uint256"
        }
      ],
      "name": "transferFrom",
      "outputs": [
        {
          "internalType": "int64",
          "name": "responseCode",
          "type": "int64"
        }
      ],
      "stateMutability": "nonpayable",
      "type": "function"
    },
    {
      "inputs": [
        {
          "internalType": "address",
          "name": "token",
          "type": "address"
        },
        {
          "internalType": "address",
          "name": "from",
          "type": "address"
        },
        {
          "internalType": "address",
          "name": "to",
          "type": "address"
        },
        {
          "internalType": "uint256",
          "name": "serialNumber",
          "type": "uint256"
        }
      ],
      "name": "transferFromNFT",
      "outputs": [
        {
          "internalType": "int64",
          "name": "responseCode",
          "type": "int64"
        }
      ],
      "stateMutability": "nonpayable",
      "type": "function"
    }
  ],
  "bytecode": "0x6080604052604051620013973803806200139783398101604081905262000026916200086f565b600160208181527fa6eef7e35abe7026729641147f7915573c7e97b47efa546f5f6e3230263bcb499190915560027fcc69885fda6bcc1a4ace058b4a62bf5e179ea78fd58a1ccd71c22cc9b688792f5560047fd9d16d34ffb15ba3a3d852f0d403e2ce1d691fb54de27ac87cd2f993f3ec330f81905560087f7dfe757ecd65cbd7922a9c0161e935dd7fdbcc0e999689c7d31633896b1fc60b5560107fedc95719e9a3b28dd8e80877cb5880a9be7de1a13fc8b05e7999683b6b567643557fe2689cd4a84e23ad2f564004f1c9013e9589d260bde6380aba3ca7e09e4df40c8290556006600090815260407f8f331abe73332f95a25873e8b430885974c0409691f89d643119a11623a7924a81905580518085018252828152815184815260a08101909252309490936103e89392839290919082015b6200016662000744565b8152602001906001900390816200015c579050509050620001a260006006600060405180602001604052806000815250620003d860201b60201c565b81600081518110620001b857620001b8620008ef565b6020026020010181905250620001e760026000604051806020016040528060008152506200041b60201b60201c565b81600181518110620001fd57620001fd620008ef565b60200260200101819052506200022c60046000604051806020016040528060008152506200041b60201b60201c565b81600281518110620002425762000242620008ef565b60200260200101819052506200027160036000604051806020016040528060008152506200041b60201b60201c565b81600381518110620002875762000287620008ef565b602090810291909101810191909152604080516060808201835260008083526001600160a01b038a16838601819052627a1200848601528451610120810186528d81529586018c905293850193909352830187905260016080840152600786900b60a084015284151560c084015260e08301849052610100830181905291908062000312836200045c565b909250905060168214620003765760405162461bcd60e51b815260206004820152602160248201527f4572726f72206372656174696e67204e6f6e2046756e6769626c6520546f6b656044820152603760f91b606482015260840160405180910390fd5b600280546001600160a01b0319166001600160a01b0383169081179091556040519081527f7bb17726df1f3adee8aa00ba8e8bc5d6f182af3bbf77604639cb7f008dd3b4ed9060200160405180910390a1505050505050505050505062000b91565b620003e262000744565b6040518060400160405280620003ff87876200058a60201b60201c565b8152602001620004108585620005d4565b905295945050505050565b6200042562000744565b60405180604001604052806200044186620006ff60201b60201c565b8152602001620004528585620005d4565b9052949350505050565b600080828061010001516000015160070b60001480156200048757506101008101516040015160070b155b156200049e576101008101516276a7006040909101525b6000806101676001600160a01b03163463ea83f29360e01b88604051602401620004c9919062000a04565b60408051601f198184030181529181526020820180516001600160e01b03166001600160e01b031990941693909317909252905162000509919062000b24565b60006040518083038185875af1925050503d806000811462000548576040519150601f19603f3d011682016040523d82523d6000602084013e6200054d565b606091505b50915091508162000562576015600062000578565b8080602001905181019062000578919062000b42565b60039190910b97909650945050505050565b6000620005b2836006811115620005a557620005a5620008d9565b600160ff9091161b821790565b9050620005cd826006811115620005a557620005a5620008d9565b9392505050565b6200061b6040518060a0016040528060001515815260200160006001600160a01b03168152602001606081526020016060815260200160006001600160a01b031681525090565b6000836004811115620006325762000632620008d9565b03620006425760018152620006f9565b6001836004811115620006595762000659620008d9565b0362000676576000546001600160a01b03166020820152620006f9565b60028360048111156200068d576200068d620008d9565b03620006a05760408101829052620006f9565b6003836004811115620006b757620006b7620008d9565b03620006ca5760608101829052620006f9565b6004836004811115620006e157620006e1620008d9565b03620006f9576000546001600160a01b031660808201525b92915050565b6000600160008360068111156200071a576200071a620008d9565b60068111156200072e576200072e620008d9565b8152602001908152602001600020549050919050565b6040518060400160405280600081526020016200079d6040518060a0016040528060001515815260200160006001600160a01b03168152602001606081526020016060815260200160006001600160a01b031681525090565b905290565b634e487b7160e01b600052604160045260246000fd5b60005b83811015620007d5578181015183820152602001620007bb565b50506000910152565b600082601f830112620007f057600080fd5b81516001600160401b03808211156200080d576200080d620007a2565b604051601f8301601f19908116603f01168101908282118183101715620008385762000838620007a2565b816040528381528660208588010111156200085257600080fd5b62000865846020830160208901620007b8565b9695505050505050565b600080604083850312156200088357600080fd5b82516001600160401b03808211156200089b57600080fd5b620008a986838701620007de565b93506020850151915080821115620008c057600080fd5b50620008cf85828601620007de565b9150509250929050565b634e487b7160e01b600052602160045260246000fd5b634e487b7160e01b600052603260045260246000fd5b600081518084526200091f816020860160208601620007b8565b601f01601f19169290920160200192915050565b600082825180855260208086019550808260051b84010181860160005b84811015620009f757858303601f1901895281518051845284015160408585018190528151151581860152818601516001600160a01b039081166060808801919091529183015160a06080808901829052919390929091620009b660e08a018662000905565b92860151898403603f1901858b0152929450620009d4858462000905565b9501511660c0979097019690965250509884019892509083019060010162000950565b5090979650505050505050565b6020815260008251610160602084015262000a2461018084018262000905565b90506020840151601f198085840301604086015262000a44838362000905565b92506040860151915062000a6360608601836001600160a01b03169052565b606086015191508085840301608086015262000a80838362000905565b92506080860151915062000a9860a086018315159052565b60a0860151915062000aaf60c086018360070b9052565b60c086015180151560e0870152915060e0860151915061010081868503018187015262000add848462000933565b908701518051600790810b61012089015260208201516001600160a01b03166101408901526040820151900b610160880152909350915062000b1c9050565b509392505050565b6000825162000b38818460208701620007b8565b9190910192915050565b6000806040838503121562000b5657600080fd5b82518060030b811462000b6857600080fd5b60208401519092506001600160a01b038116811462000b8657600080fd5b809150509250929050565b6107f68062000ba16000396000f3fe608060405234801561001057600080fd5b50600436106100575760003560e01c80630333ca9c1461005c5780630a754de61461008257806315dacbea1461008a578063618dc65e146100b05780639b23d3d9146100d1575b600080fd5b61006f61006a36600461052f565b6100e4565b6040519081526020015b60405180910390f35b61006f61014b565b61009d610098366004610551565b610205565b60405160079190910b8152602001610079565b6100c36100be3660046105b2565b6102e8565b6040516100799291906106c4565b61009d6100df366004610551565b610406565b6002546000906100fe9083906001600160a01b0316610436565b6002546040519192507f486bcb01e604496e2a4caa3ae8178d59ffedc37c140f1d4ad838b06cb12865479161013e916001600160a01b03169085906106e5565b60405180910390a1919050565b6002546040805163053aa6f360e11b815290516000926001600160a01b031691630a754de6916004808301926020929190829003018187875af1158015610196573d6000803e3d6000fd5b505050506040513d601f19601f820116820180604052508101906101ba91906106ff565b6002546040519192507f486bcb01e604496e2a4caa3ae8178d59ffedc37c140f1d4ad838b06cb1286547916101fa916001600160a01b03169033906106e5565b60405180910390a190565b60008060006101676001600160a01b03166315dacbea60e01b888888886040516024016102359493929190610718565b60408051601f198184030181529181526020820180516001600160e01b03166001600160e01b03199094169390931790925290516102739190610742565b6000604051808303816000865af19150503d80600081146102b0576040519150601f19603f3d011682016040523d82523d6000602084013e6102b5565b606091505b5091509150816102c65760156102da565b808060200190518101906102da919061075e565b60030b979650505050505050565b600060606000806101676001600160a01b031663618dc65e60e01b8787604051602401610316929190610781565b60408051601f198184030181529181526020820180516001600160e01b03166001600160e01b03199094169390931790925290516103549190610742565b6000604051808303816000865af19150503d8060008114610391576040519150601f19603f3d011682016040523d82523d6000602084013e610396565b606091505b50915091507f4af4780e06fe8cb9df64b0794fa6f01399af979175bb988e35e0e57e594567bc82826040516103cc9291906107a5565b60405180910390a1816103f0576015604051806020016040528060008152506103f4565b6016815b60039190910b97909650945050505050565b60008060006101676001600160a01b0316639b23d3d960e01b888888886040516024016102359493929190610718565b60008060006101676001600160a01b03166349146bde60e01b86866040516024016104629291906106e5565b60408051601f198184030181529181526020820180516001600160e01b03166001600160e01b03199094169390931790925290516104a09190610742565b6000604051808303816000865af19150503d80600081146104dd576040519150601f19603f3d011682016040523d82523d6000602084013e6104e2565b606091505b5091509150816104f3576015610507565b80806020019051810190610507919061075e565b60030b95945050505050565b80356001600160a01b038116811461052a57600080fd5b919050565b60006020828403121561054157600080fd5b61054a82610513565b9392505050565b6000806000806080858703121561056757600080fd5b61057085610513565b935061057e60208601610513565b925061058c60408601610513565b9396929550929360600135925050565b634e487b7160e01b600052604160045260246000fd5b600080604083850312156105c557600080fd5b6105ce83610513565b9150602083013567ffffffffffffffff808211156105eb57600080fd5b818501915085601f8301126105ff57600080fd5b8135818111156106115761061161059c565b604051601f8201601f19908116603f011681019083821181831017156106395761063961059c565b8160405282815288602084870101111561065257600080fd5b8260208601602083013760006020848301015280955050505050509250929050565b60005b8381101561068f578181015183820152602001610677565b50506000910152565b600081518084526106b0816020860160208601610674565b601f01601f19169290920160200192915050565b8281526040602082015260006106dd6040830184610698565b949350505050565b6001600160a01b0392831681529116602082015260400190565b60006020828403121561071157600080fd5b5051919050565b6001600160a01b039485168152928416602084015292166040820152606081019190915260800190565b60008251610754818460208701610674565b9190910192915050565b60006020828403121561077057600080fd5b81518060030b811461054a57600080fd5b6001600160a01b03831681526040602082018190526000906106dd90830184610698565b82151581526040602082015260006106dd604083018461069856fea2646970667358221220bd4d838c2396ac14cecfa9f17fbdf28843516f43966184183f470c78e6ac553464736f6c63430008180033",
  "linkReferences": {},
  "deployedLinkReferences": {}
}