{
  "_format": "hh-sol-artifact-1",
  "contractName": "HTSToken",
  "sourceName": "contracts/common/HTSToken.sol",
  "abi": [
    {
      "inputs": [
        {
          "internalType": "string",
          "name": "tokenName",
          "type": "string"
        },
        {
          "internalType": "string",
          "name": "tokenSymbol",
          "type": "string"
        },
        {
          "internalType": "int32",
          "name": "decimals",
          "type": "int32"
        }
      ],
      "stateMutability": "payable",
      "type": "constructor"
    },
    {
      "anonymous": false,
      "inputs": [
        {
          "indexed": false,
          "internalType": "address",
          "name": "tokenAddress",
          "type": "address"
        },
        {
          "indexed": false,
          "internalType": "address",
          "name": "userAddress",
          "type": "address"
        }
      ],
      "name": "AssociatedToken",
      "type": "event"
    },
    {
      "anonymous": false,
      "inputs": [
        {
          "indexed": false,
          "internalType": "address",
          "name": "tokenAddress",
          "type": "address"
        }
      ],
      "name": "CreatedToken",
      "type": "event"
    },
    {
      "anonymous": false,
      "inputs": [
        {
          "indexed": false,
          "internalType": "address",
          "name": "tokenAddress",
          "type": "address"
        },
        {
          "indexed": false,
          "internalType": "int64",
          "name": "amount",
          "type": "int64"
        },
        {
          "indexed": false,
          "internalType": "int64",
          "name": "newTotalSupply",
          "type": "int64"
        }
      ],
      "name": "MintedToken",
      "type": "event"
    },
    {
      "inputs": [],
      "name": "associate",
      "outputs": [
        {
          "internalType": "uint256",
          "name": "responseCode",
          "type": "uint256"
        }
      ],
      "stateMutability": "nonpayable",
      "type": "function"
    },
    {
      "inputs": [
        {
          "internalType": "int64",
          "name": "amount",
          "type": "int64"
        }
      ],
      "name": "mint",
      "outputs": [
        {
          "internalType": "int256",
          "name": "responseCode",
          "type": "int256"
        },
        {
          "internalType": "int64",
          "name": "newTotalSupply",
          "type": "int64"
        },
        {
          "internalType": "int64[]",
          "name": "serialNumbers",
          "type": "int64[]"
        }
      ],
      "stateMutability": "nonpayable",
      "type": "function"
    },
    {
      "inputs": [],
      "name": "tokenAddress",
      "outputs": [
        {
          "internalType": "address",
          "name": "",
          "type": "address"
        }
      ],
      "stateMutability": "view",
      "type": "function"
    }
  ],
  "bytecode": "0x60806040819052600380546001600160a01b031916610167179055620012113881900390819083398101604081905262000039916200083a565b600160208181527fa6eef7e35abe7026729641147f7915573c7e97b47efa546f5f6e3230263bcb499190915560027fcc69885fda6bcc1a4ace058b4a62bf5e179ea78fd58a1ccd71c22cc9b688792f5560047fd9d16d34ffb15ba3a3d852f0d403e2ce1d691fb54de27ac87cd2f993f3ec330f5560087f7dfe757ecd65cbd7922a9c0161e935dd7fdbcc0e999689c7d31633896b1fc60b5560107fedc95719e9a3b28dd8e80877cb5880a9be7de1a13fc8b05e7999683b6b567643557fe2689cd4a84e23ad2f564004f1c9013e9589d260bde6380aba3ca7e09e4df40c8190556006600090815260407f8f331abe73332f95a25873e8b430885974c0409691f89d643119a11623a7924a819055805180840182528281528151600580825260c08201909352309491939283928392919082015b620001766200070f565b8152602001906001900390816200016c579050509050620001b260006006600060405180602001604052806000815250620004d160201b60201c565b81600081518110620001c857620001c8620008d5565b6020026020010181905250620001f760016000604051806020016040528060008152506200051460201b60201c565b816001815181106200020d576200020d620008d5565b60200260200101819052506200023c60026000604051806020016040528060008152506200051460201b60201c565b81600281518110620002525762000252620008d5565b60200260200101819052506200028160036000604051806020016040528060008152506200051460201b60201c565b81600381518110620002975762000297620008d5565b6020026020010181905250620002c660046000604051806020016040528060008152506200051460201b60201c565b81600481518110620002dc57620002dc620008d5565b602002602001018190525060006040518060600160405280600060070b8152602001876001600160a01b03168152602001627a120060070b815250905060006040518061012001604052808b81526020018a8152602001886001600160a01b03168152602001878152602001600015158152602001600060070b81526020018515158152602001848152602001838152509050600080600360009054906101000a90046001600160a01b03166001600160a01b0316630fb65bf334858a8e6040518563ffffffff1660e01b8152600401620003ba93929190620009ea565b604080518083038185885af1158015620003d8573d6000803e3d6000fd5b50505050506040513d601f19601f82011682018060405250810190620003ff919062000b24565b915060070b9150601660030b82146200046e5760405162461bcd60e51b815260206004820152602760248201527f485453546f6b656e3a204572726f72206372656174696e672066756e6769626c60448201526632903a37b5b2b760c91b606482015260840160405180910390fd5b600280546001600160a01b0319166001600160a01b0383169081179091556040519081527f7bb17726df1f3adee8aa00ba8e8bc5d6f182af3bbf77604639cb7f008dd3b4ed9060200160405180910390a150505050505050505050505062000b73565b620004db6200070f565b6040518060400160405280620004f887876200055560201b60201c565b81526020016200050985856200059f565b905295945050505050565b6200051e6200070f565b60405180604001604052806200053a86620006ca60201b60201c565b81526020016200054b85856200059f565b9052949350505050565b60006200057d836006811115620005705762000570620008bf565b600160ff9091161b821790565b905062000598826006811115620005705762000570620008bf565b9392505050565b620005e66040518060a0016040528060001515815260200160006001600160a01b03168152602001606081526020016060815260200160006001600160a01b031681525090565b6000836004811115620005fd57620005fd620008bf565b036200060d5760018152620006c4565b6001836004811115620006245762000624620008bf565b0362000641576000546001600160a01b03166020820152620006c4565b6002836004811115620006585762000658620008bf565b036200066b5760408101829052620006c4565b6003836004811115620006825762000682620008bf565b03620006955760608101829052620006c4565b6004836004811115620006ac57620006ac620008bf565b03620006c4576000546001600160a01b031660808201525b92915050565b600060016000836006811115620006e557620006e5620008bf565b6006811115620006f957620006f9620008bf565b8152602001908152602001600020549050919050565b604051806040016040528060008152602001620007686040518060a0016040528060001515815260200160006001600160a01b03168152602001606081526020016060815260200160006001600160a01b031681525090565b905290565b634e487b7160e01b600052604160045260246000fd5b60005b83811015620007a057818101518382015260200162000786565b50506000910152565b600082601f830112620007bb57600080fd5b81516001600160401b0380821115620007d857620007d86200076d565b604051601f8301601f19908116603f011681019082821181831017156200080357620008036200076d565b816040528381528660208588010111156200081d57600080fd5b6200083084602083016020890162000783565b9695505050505050565b6000806000606084860312156200085057600080fd5b83516001600160401b03808211156200086857600080fd5b6200087687838801620007a9565b945060208601519150808211156200088d57600080fd5b506200089c86828701620007a9565b92505060408401518060030b8114620008b457600080fd5b809150509250925092565b634e487b7160e01b600052602160045260246000fd5b634e487b7160e01b600052603260045260246000fd5b600081518084526200090581602086016020860162000783565b601f01601f19169290920160200192915050565b600082825180855260208086019550808260051b84010181860160005b84811015620009dd57858303601f1901895281518051845284015160408585018190528151151581860152818601516001600160a01b039081166060808801919091529183015160a060808089018290529193909290916200099c60e08a0186620008eb565b92860151898403603f1901858b0152929450620009ba8584620008eb565b9501511660c0979097019690965250509884019892509083019060010162000936565b5090979650505050505050565b606081526000845161016080606085015262000a0b6101c0850183620008eb565b91506020870151605f198086850301608087015262000a2b8483620008eb565b93506040890151915062000a4a60a08701836001600160a01b03169052565b60608901519150808685030160c087015262000a678483620008eb565b93506080890151915062000a7f60e087018315159052565b60a0890151915061010062000a988188018460070b9052565b60c08a0151151561012088015260e08a01518786038301610140890152925062000ac3858462000919565b9450808a01519250505062000afe828601828051600790810b83526020808301516001600160a01b031690840152604091820151900b910152565b5050600785900b6020840152905062000b1c604083018460030b9052565b949350505050565b6000806040838503121562000b3857600080fd5b82518060070b811462000b4a57600080fd5b60208401519092506001600160a01b038116811462000b6857600080fd5b809150509250929050565b61068e8062000b836000396000f3fe608060405234801561001057600080fd5b50600436106100415760003560e01c80630a754de6146100465780639d76ea5814610061578063fec156ff1461008c575b600080fd5b61004e6100ae565b6040519081526020015b60405180910390f35b600254610074906001600160a01b031681565b6040516001600160a01b039091168152602001610058565b61009f61009a3660046103de565b610168565b60405161005893929190610402565b6002546040805163053aa6f360e11b815290516000926001600160a01b031691630a754de6916004808301926020929190829003018187875af11580156100f9573d6000803e3d6000fd5b505050506040513d601f19601f8201168201806040525081019061011d9190610461565b600254604080516001600160a01b0390921682523360208301529192507f486bcb01e604496e2a4caa3ae8178d59ffedc37c140f1d4ad838b06cb1286547910160405180910390a190565b600354600254604051638f8d7f9960e01b81526001600160a01b0391821660048201523360248201526000928392606092911690638f8d7f99906044016020604051808303816000875af11580156101c4573d6000803e3d6000fd5b505050506040513d601f19601f820116820180604052508101906101e8919061048a565b50600354600254604080516000808252602082019092526001600160a01b039384169363e0f4059a931691889190610230565b606081526020019060019003908161021b5790505b506040518463ffffffff1660e01b815260040161024f939291906104bd565b6000604051808303816000875af115801561026e573d6000803e3d6000fd5b505050506040513d6000823e601f3d908101601f191682016040526102969190810190610569565b60079290920b945092509050601683146102ec5760405162461bcd60e51b815260206004820152601360248201527222b93937b91036b4b73a34b733903a37b5b2b760691b604482015260640160405180910390fd5b600254604080516001600160a01b039092168252600786810b602084015284900b82820152517f6c15495b81c1c2bd8a5a79faf952be7bdb9deceb303a554e2ec44d0736d6e0bf9181900360600190a160035460025460405163eca3691760e01b81526001600160a01b039182166004820152306024820152336044820152600787900b606482015291169063eca36917906084016020604051808303816000875af11580156103a0573d6000803e3d6000fd5b505050506040513d601f19601f820116820180604052508101906103c4919061048a565b509193909250565b8060070b81146103db57600080fd5b50565b6000602082840312156103f057600080fd5b81356103fb816103cc565b9392505050565b600060608201858352602060078660070b60208601526060604086015282865180855260808701915060208801945060005b81811015610452578551840b83529484019491840191600101610434565b50909998505050505050505050565b60006020828403121561047357600080fd5b5051919050565b8051610485816103cc565b919050565b60006020828403121561049c57600080fd5b81516103fb816103cc565b634e487b7160e01b600052604160045260246000fd5b60006060820160018060a01b038616835260208560070b818501526060604085015281855180845260808601915060808160051b87010193508287016000805b8381101561055957888703607f1901855282518051808952835b81811015610532578281018901518a82018a01528801610517565b508881018801849052601f01601f19169097018601965093850193918501916001016104fd565b50949a9950505050505050505050565b60008060006060848603121561057e57600080fd5b8351610589816103cc565b8093505060208085015161059c816103cc565b604086015190935067ffffffffffffffff808211156105ba57600080fd5b818701915087601f8301126105ce57600080fd5b8151818111156105e0576105e06104a7565b8060051b604051601f19603f83011681018181108582111715610605576106056104a7565b60405291825284820192508381018501918a83111561062357600080fd5b938501935b82851015610648576106398561047a565b84529385019392850192610628565b809650505050505050925092509256fea26469706673582212201b84af80756ac8a9ecff4d24d4e5362faf2aad347ff4ee2734fbb88d45905d7364736f6c63430008180033",
  "linkReferences": {},
  "deployedLinkReferences": {}
}