{
  "_format": "hh-sol-artifact-1",
  "contractName": "IdentityRegistry",
  "sourceName": "contracts/erc3643/registry/implementation/IdentityRegistry.sol",
  "abi": [
    {
      "inputs": [],
      "name": "InvalidInitialization",
      "type": "error"
    },
    {
      "inputs": [],
      "name": "NotInitializing",
      "type": "error"
    },
    {
      "inputs": [
        {
          "internalType": "address",
          "name": "owner",
          "type": "address"
        }
      ],
      "name": "OwnableInvalidOwner",
      "type": "error"
    },
    {
      "inputs": [
        {
          "internalType": "address",
          "name": "account",
          "type": "address"
        }
      ],
      "name": "OwnableUnauthorizedAccount",
      "type": "error"
    },
    {
      "anonymous": false,
      "inputs": [
        {
          "indexed": true,
          "internalType": "address",
          "name": "_agent",
          "type": "address"
        }
      ],
      "name": "AgentAdded",
      "type": "event"
    },
    {
      "anonymous": false,
      "inputs": [
        {
          "indexed": true,
          "internalType": "address",
          "name": "_agent",
          "type": "address"
        }
      ],
      "name": "AgentRemoved",
      "type": "event"
    },
    {
      "anonymous": false,
      "inputs": [
        {
          "indexed": true,
          "internalType": "address",
          "name": "claimTopicsRegistry",
          "type": "address"
        }
      ],
      "name": "ClaimTopicsRegistrySet",
      "type": "event"
    },
    {
      "anonymous": false,
      "inputs": [
        {
          "indexed": true,
          "internalType": "address",
          "name": "investorAddress",
          "type": "address"
        },
        {
          "indexed": true,
          "internalType": "uint16",
          "name": "country",
          "type": "uint16"
        }
      ],
      "name": "CountryUpdated",
      "type": "event"
    },
    {
      "anonymous": false,
      "inputs": [
        {
          "indexed": true,
          "internalType": "address",
          "name": "investorAddress",
          "type": "address"
        },
        {
          "indexed": true,
          "internalType": "contract IIdentity",
          "name": "identity",
          "type": "address"
        }
      ],
      "name": "IdentityRegistered",
      "type": "event"
    },
    {
      "anonymous": false,
      "inputs": [
        {
          "indexed": true,
          "internalType": "address",
          "name": "investorAddress",
          "type": "address"
        },
        {
          "indexed": true,
          "internalType": "contract IIdentity",
          "name": "identity",
          "type": "address"
        }
      ],
      "name": "IdentityRemoved",
      "type": "event"
    },
    {
      "anonymous": false,
      "inputs": [
        {
          "indexed": true,
          "internalType": "address",
          "name": "identityStorage",
          "type": "address"
        }
      ],
      "name": "IdentityStorageSet",
      "type": "event"
    },
    {
      "anonymous": false,
      "inputs": [
        {
          "indexed": true,
          "internalType": "contract IIdentity",
          "name": "oldIdentity",
          "type": "address"
        },
        {
          "indexed": true,
          "internalType": "contract IIdentity",
          "name": "newIdentity",
          "type": "address"
        }
      ],
      "name": "IdentityUpdated",
      "type": "event"
    },
    {
      "anonymous": false,
      "inputs": [
        {
          "indexed": false,
          "internalType": "uint64",
          "name": "version",
          "type": "uint64"
        }
      ],
      "name": "Initialized",
      "type": "event"
    },
    {
      "anonymous": false,
      "inputs": [
        {
          "indexed": true,
          "internalType": "address",
          "name": "previousOwner",
          "type": "address"
        },
        {
          "indexed": true,
          "internalType": "address",
          "name": "newOwner",
          "type": "address"
        }
      ],
      "name": "OwnershipTransferred",
      "type": "event"
    },
    {
      "anonymous": false,
      "inputs": [
        {
          "indexed": true,
          "internalType": "address",
          "name": "trustedIssuersRegistry",
          "type": "address"
        }
      ],
      "name": "TrustedIssuersRegistrySet",
      "type": "event"
    },
    {
      "inputs": [
        {
          "internalType": "address",
          "name": "_agent",
          "type": "address"
        }
      ],
      "name": "addAgent",
      "outputs": [],
      "stateMutability": "nonpayable",
      "type": "function"
    },
    {
      "inputs": [
        {
          "internalType": "address[]",
          "name": "_userAddresses",
          "type": "address[]"
        },
        {
          "internalType": "contract IIdentity[]",
          "name": "_identities",
          "type": "address[]"
        },
        {
          "internalType": "uint16[]",
          "name": "_countries",
          "type": "uint16[]"
        }
      ],
      "name": "batchRegisterIdentity",
      "outputs": [],
      "stateMutability": "nonpayable",
      "type": "function"
    },
    {
      "inputs": [
        {
          "internalType": "address",
          "name": "_userAddress",
          "type": "address"
        }
      ],
      "name": "contains",
      "outputs": [
        {
          "internalType": "bool",
          "name": "",
          "type": "bool"
        }
      ],
      "stateMutability": "view",
      "type": "function"
    },
    {
      "inputs": [
        {
          "internalType": "address",
          "name": "_userAddress",
          "type": "address"
        }
      ],
      "name": "deleteIdentity",
      "outputs": [],
      "stateMutability": "nonpayable",
      "type": "function"
    },
    {
      "inputs": [
        {
          "internalType": "address",
          "name": "_userAddress",
          "type": "address"
        }
      ],
      "name": "identity",
      "outputs": [
        {
          "internalType": "contract IIdentity",
          "name": "",
          "type": "address"
        }
      ],
      "stateMutability": "view",
      "type": "function"
    },
    {
      "inputs": [],
      "name": "identityStorage",
      "outputs": [
        {
          "internalType": "contract IIdentityRegistryStorage",
          "name": "",
          "type": "address"
        }
      ],
      "stateMutability": "view",
      "type": "function"
    },
    {
      "inputs": [
        {
          "internalType": "address",
          "name": "_trustedIssuersRegistry",
          "type": "address"
        },
        {
          "internalType": "address",
          "name": "_claimTopicsRegistry",
          "type": "address"
        },
        {
          "internalType": "address",
          "name": "_identityStorage",
          "type": "address"
        }
      ],
      "name": "init",
      "outputs": [],
      "stateMutability": "nonpayable",
      "type": "function"
    },
    {
      "inputs": [
        {
          "internalType": "address",
          "name": "_userAddress",
          "type": "address"
        }
      ],
      "name": "investorCountry",
      "outputs": [
        {
          "internalType": "uint16",
          "name": "",
          "type": "uint16"
        }
      ],
      "stateMutability": "view",
      "type": "function"
    },
    {
      "inputs": [
        {
          "internalType": "address",
          "name": "_agent",
          "type": "address"
        }
      ],
      "name": "isAgent",
      "outputs": [
        {
          "internalType": "bool",
          "name": "",
          "type": "bool"
        }
      ],
      "stateMutability": "view",
      "type": "function"
    },
    {
      "inputs": [
        {
          "internalType": "address",
          "name": "_userAddress",
          "type": "address"
        }
      ],
      "name": "isVerified",
      "outputs": [
        {
          "internalType": "bool",
          "name": "",
          "type": "bool"
        }
      ],
      "stateMutability": "view",
      "type": "function"
    },
    {
      "inputs": [],
      "name": "issuersRegistry",
      "outputs": [
        {
          "internalType": "contract ITrustedIssuersRegistry",
          "name": "",
          "type": "address"
        }
      ],
      "stateMutability": "view",
      "type": "function"
    },
    {
      "inputs": [],
      "name": "owner",
      "outputs": [
        {
          "internalType": "address",
          "name": "",
          "type": "address"
        }
      ],
      "stateMutability": "view",
      "type": "function"
    },
    {
      "inputs": [
        {
          "internalType": "address",
          "name": "_userAddress",
          "type": "address"
        },
        {
          "internalType": "contract IIdentity",
          "name": "_identity",
          "type": "address"
        },
        {
          "internalType": "uint16",
          "name": "_country",
          "type": "uint16"
        }
      ],
      "name": "registerIdentity",
      "outputs": [],
      "stateMutability": "nonpayable",
      "type": "function"
    },
    {
      "inputs": [
        {
          "internalType": "address",
          "name": "_agent",
          "type": "address"
        }
      ],
      "name": "removeAgent",
      "outputs": [],
      "stateMutability": "nonpayable",
      "type": "function"
    },
    {
      "inputs": [],
      "name": "renounceOwnership",
      "outputs": [],
      "stateMutability": "nonpayable",
      "type": "function"
    },
    {
      "inputs": [
        {
          "internalType": "address",
          "name": "_claimTopicsRegistry",
          "type": "address"
        }
      ],
      "name": "setClaimTopicsRegistry",
      "outputs": [],
      "stateMutability": "nonpayable",
      "type": "function"
    },
    {
      "inputs": [
        {
          "internalType": "address",
          "name": "_identityRegistryStorage",
          "type": "address"
        }
      ],
      "name": "setIdentityRegistryStorage",
      "outputs": [],
      "stateMutability": "nonpayable",
      "type": "function"
    },
    {
      "inputs": [
        {
          "internalType": "address",
          "name": "_trustedIssuersRegistry",
          "type": "address"
        }
      ],
      "name": "setTrustedIssuersRegistry",
      "outputs": [],
      "stateMutability": "nonpayable",
      "type": "function"
    },
    {
      "inputs": [],
      "name": "topicsRegistry",
      "outputs": [
        {
          "internalType": "contract IClaimTopicsRegistry",
          "name": "",
          "type": "address"
        }
      ],
      "stateMutability": "view",
      "type": "function"
    },
    {
      "inputs": [
        {
          "internalType": "address",
          "name": "newOwner",
          "type": "address"
        }
      ],
      "name": "transferOwnership",
      "outputs": [],
      "stateMutability": "nonpayable",
      "type": "function"
    },
    {
      "inputs": [
        {
          "internalType": "address",
          "name": "_userAddress",
          "type": "address"
        },
        {
          "internalType": "uint16",
          "name": "_country",
          "type": "uint16"
        }
      ],
      "name": "updateCountry",
      "outputs": [],
      "stateMutability": "nonpayable",
      "type": "function"
    },
    {
      "inputs": [
        {
          "internalType": "address",
          "name": "_userAddress",
          "type": "address"
        },
        {
          "internalType": "contract IIdentity",
          "name": "_identity",
          "type": "address"
        }
      ],
      "name": "updateIdentity",
      "outputs": [],
      "stateMutability": "nonpayable",
      "type": "function"
    }
  ],
  "bytecode": "0x608060405234801561001057600080fd5b50611a7f806100206000396000f3fe608060405234801561001057600080fd5b50600436106101425760003560e01c806384e79842116100b8578063b4f3fcb71161007c578063b4f3fcb714610292578063b9209e33146102a3578063e744d789146102b6578063f0eb5e54146102c9578063f11abfd8146102dc578063f2fde38b146102ed57600080fd5b806384e798421461023e5780638da5cb5b146102515780638e098ca11461025957806397a6278e1461026c578063a8d29d1d1461027f57600080fd5b8063454a03e01161010a578063454a03e0146101c45780635dbe47e8146101d7578063653dc9f1146101ea578063670af6a9146101fd578063715018a6146102105780637e42683b1461021857600080fd5b8063184b9559146101475780631ffbb0641461015c57806326d941ae146101845780633b239a7f146101975780633b3e12f4146101aa575b600080fd5b61015a610155366004611391565b610300565b005b61016f61016a3660046113dc565b610535565b60405190151581526020015b60405180910390f35b61015a6101923660046113dc565b610547565b61015a6101a5366004611410565b610599565b6001546001600160a01b03165b60405161017b9190611449565b61015a6101d236600461145d565b610665565b61016f6101e53660046113dc565b610738565b61015a6101f83660046114e8565b610762565b61015a61020b3660046113dc565b6107f6565b61015a610848565b61022b6102263660046113dc565b61085c565b60405161ffff909116815260200161017b565b61015a61024c3660046113dc565b6108ce565b6101b761093e565b61015a610267366004611581565b61096c565b61015a61027a3660046113dc565b610a42565b61015a61028d3660046113dc565b610ab2565b6002546001600160a01b03166101b7565b61016f6102b13660046113dc565b610b81565b61015a6102c43660046113dc565b610ff4565b6101b76102d73660046113dc565b611046565b6003546001600160a01b03166101b7565b61015a6102fb3660046113dc565b6110b8565b7ff0c57e16840df040f15088dc2f81fe391c3923bec73e23a9662efc9c229c6a008054600160401b810460ff1615906001600160401b03166000811580156103455750825b90506000826001600160401b031660011480156103615750303b155b90508115801561036f575080155b1561038d5760405163f92ee8a960e01b815260040160405180910390fd5b845467ffffffffffffffff1916600117855583156103b757845460ff60401b1916600160401b1785555b6001600160a01b038816158015906103d757506001600160a01b03871615155b80156103eb57506001600160a01b03861615155b6104105760405162461bcd60e51b8152600401610407906115af565b60405180910390fd5b600180546001600160a01b03808a166001600160a01b03199283168117909355600280548c831690841617905560038054918a16919092161790556040517f7170bf15b246e880b2369cd7c67d057760d8a35149e8c64dde91efa22bcc76d090600090a26040516001600160a01b038916907f1b98cb79e6f73020175fe87333f1b91ad6a881519c0afe30340c2599b2b4bde090600090a26040516001600160a01b038716907f2fa8b95c1db7afe99e3398f3792f008135cedc1fa26b0bb2ecd2352cd166d53c90600090a26104e5336110f6565b831561052b57845460ff60401b19168555604051600181527fc7f505b2f371ae2175ee4913f4499e1f2633a7b5936321eed1cdaeb6115181d29060200160405180910390a15b5050505050505050565b60006105418183611107565b92915050565b61054f61118a565b600380546001600160a01b0319166001600160a01b0383169081179091556040517f2fa8b95c1db7afe99e3398f3792f008135cedc1fa26b0bb2ecd2352cd166d53c90600090a250565b6105a233610535565b6105be5760405162461bcd60e51b8152600401610407906115e6565b600354604051639f3418d560e01b81526001600160a01b03848116600483015261ffff8416602483015290911690639f3418d590604401600060405180830381600087803b15801561060f57600080fd5b505af1158015610623573d6000803e3d6000fd5b505060405161ffff841692506001600160a01b03851691507f04ed3b726495c2dca1ff1215d9ca54e1a4030abb5e82b0f6ce55702416cee85390600090a35050565b61066e33610535565b61068a5760405162461bcd60e51b8152600401610407906115e6565b60035460405163a53410dd60e01b81526001600160a01b038581166004830152848116602483015261ffff841660448301529091169063a53410dd90606401600060405180830381600087803b1580156106e357600080fd5b505af11580156106f7573d6000803e3d6000fd5b50506040516001600160a01b038086169350861691507f6ae73635c50d24a45af6fbd5e016ac4bed179addbc8bf24e04ff0fcc6d33af1990600090a3505050565b60008061074483611046565b6001600160a01b03160361075a57506000919050565b506001919050565b60005b858110156107ed576107e587878381811061078257610782611634565b905060200201602081019061079791906113dc565b8686848181106107a9576107a9611634565b90506020020160208101906107be91906113dc565b8585858181106107d0576107d0611634565b90506020020160208101906101d2919061164a565b600101610765565b50505050505050565b6107fe61118a565b600180546001600160a01b0319166001600160a01b0383169081179091556040517f7170bf15b246e880b2369cd7c67d057760d8a35149e8c64dde91efa22bcc76d090600090a250565b61085061118a565b61085a60006111bc565b565b600354604051631c9f84ef60e21b81526000916001600160a01b03169063727e13bc9061088d908590600401611449565b602060405180830381865afa1580156108aa573d6000803e3d6000fd5b505050506040513d601f19601f820116820180604052508101906105419190611667565b6108d661118a565b6001600160a01b0381166108fc5760405162461bcd60e51b8152600401610407906115af565b61090760008261122d565b6040516001600160a01b038216907ff68e73cec97f2d70aa641fb26e87a4383686e2efacb648f2165aeb02ac562ec590600090a250565b7f9016d09d72d40fdae2fd8ceac6b6234c7706214fd39c1cd1e609a0528c199300546001600160a01b031690565b61097533610535565b6109915760405162461bcd60e51b8152600401610407906115e6565b600061099c83611046565b600354604051637402e7c360e11b81526001600160a01b038681166004830152858116602483015292935091169063e805cf8690604401600060405180830381600087803b1580156109ed57600080fd5b505af1158015610a01573d6000803e3d6000fd5b50506040516001600160a01b038086169350841691507fe98082932c8056a0f514da9104e4a66bc2cbaef102ad59d90c4b24220ebf601090600090a3505050565b610a4a61118a565b6001600160a01b038116610a705760405162461bcd60e51b8152600401610407906115af565b610a7b6000826112a9565b6040516001600160a01b038216907fed9c8ad8d5a0a66898ea49d2956929c93ae2e8bd50281b2ed897c5d1a6737e0b90600090a250565b610abb33610535565b610ad75760405162461bcd60e51b8152600401610407906115e6565b6000610ae282611046565b60035460405163cf191bcd60e01b81529192506001600160a01b03169063cf191bcd90610b13908590600401611449565b600060405180830381600087803b158015610b2d57600080fd5b505af1158015610b41573d6000803e3d6000fd5b50506040516001600160a01b038085169350851691507f59d6590e225b81befe259af056324092801080acbb7feab310eb34678871f32790600090a35050565b600080610b8d83611046565b6001600160a01b031603610ba357506000919050565b600154604080516337c2758160e21b815290516000926001600160a01b03169163df09d60491600480830192869291908290030181865afa158015610bec573d6000803e3d6000fd5b505050506040513d6000823e601f3d908101601f19168201604052610c1491908101906116ed565b90508051600003610c285750600192915050565b600080600060608060005b8651811015610fe55760025487516000916001600160a01b0316906352c111d1908a9085908110610c6657610c66611634565b60200260200101516040518263ffffffff1660e01b8152600401610c8c91815260200190565b600060405180830381865afa158015610ca9573d6000803e3d6000fd5b505050506040513d6000823e601f3d908101601f19168201604052610cd19190810190611782565b90508051600003610cec575060009998505050505050505050565b600081516001600160401b03811115610d0757610d07611684565b604051908082528060200260200182016040528015610d30578160200160208202803683370190505b50905060005b8251811015610dd357828181518110610d5157610d51611634565b60200260200101518a8581518110610d6b57610d6b611634565b6020026020010151604051602001610d989291906001600160a01b03929092168252602082015260400190565b60405160208183030381529060405280519060200120828281518110610dc057610dc0611634565b6020908102919091010152600101610d36565b5060005b8151811015610fda57610de98c611046565b6001600160a01b031663c9100bcb838381518110610e0957610e09611634565b60200260200101516040518263ffffffff1660e01b8152600401610e2f91815260200190565b600060405180830381865afa158015610e4c573d6000803e3d6000fd5b505050506040513d6000823e601f3d908101601f19168201604052610e7491908101906118a2565b508e51949d50929b50909950975095508a9085908110610e9657610e96611634565b60200260200101518903610fa257866001600160a01b031663c0969a6e610ebc8e611046565b8c8781518110610ece57610ece611634565b602002602001015189896040518563ffffffff1660e01b8152600401610ef7949392919061198f565b602060405180830381865afa925050508015610f30575060408051601f3d908101601f19168201909252610f2d918101906119c8565b60015b610f5f5760018251610f429190611a00565b8103610f5a575060009b9a5050505050505050505050565b610fc8565b8015610f6a57825191505b80158015610f84575060018351610f819190611a00565b82145b15610f9c575060009c9b505050505050505050505050565b50610fc8565b60018251610fb09190611a00565b8103610fc8575060009b9a5050505050505050505050565b80610fd281611a13565b915050610dd7565b505050600101610c33565b50600198975050505050505050565b610ffc61118a565b600280546001600160a01b0319166001600160a01b0383169081179091556040517f1b98cb79e6f73020175fe87333f1b91ad6a881519c0afe30340c2599b2b4bde090600090a250565b600354604051637988d3a560e01b81526000916001600160a01b031690637988d3a590611077908590600401611449565b602060405180830381865afa158015611094573d6000803e3d6000fd5b505050506040513d601f19601f820116820180604052508101906105419190611a2c565b6110c061118a565b6001600160a01b0381166110ea576000604051631e4fbdf760e01b81526004016104079190611449565b6110f3816111bc565b50565b6110fe61132b565b6110f381611374565b60006001600160a01b03821661116a5760405162461bcd60e51b815260206004820152602260248201527f526f6c65733a206163636f756e7420697320746865207a65726f206164647265604482015261737360f01b6064820152608401610407565b506001600160a01b03166000908152602091909152604090205460ff1690565b3361119361093e565b6001600160a01b03161461085a573360405163118cdaa760e01b81526004016104079190611449565b7f9016d09d72d40fdae2fd8ceac6b6234c7706214fd39c1cd1e609a0528c19930080546001600160a01b031981166001600160a01b03848116918217845560405192169182907f8be0079c531659141344cd1fd0a4f28419497f9722a3daafe3b4186f6b6457e090600090a3505050565b6112378282611107565b156112845760405162461bcd60e51b815260206004820152601f60248201527f526f6c65733a206163636f756e7420616c72656164792068617320726f6c65006044820152606401610407565b6001600160a01b0316600090815260209190915260409020805460ff19166001179055565b6112b38282611107565b6113095760405162461bcd60e51b815260206004820152602160248201527f526f6c65733a206163636f756e7420646f6573206e6f74206861766520726f6c6044820152606560f81b6064820152608401610407565b6001600160a01b0316600090815260209190915260409020805460ff19169055565b7ff0c57e16840df040f15088dc2f81fe391c3923bec73e23a9662efc9c229c6a0054600160401b900460ff1661085a57604051631afcd79f60e31b815260040160405180910390fd5b6110c061132b565b6001600160a01b03811681146110f357600080fd5b6000806000606084860312156113a657600080fd5b83356113b18161137c565b925060208401356113c18161137c565b915060408401356113d18161137c565b809150509250925092565b6000602082840312156113ee57600080fd5b81356113f98161137c565b9392505050565b61ffff811681146110f357600080fd5b6000806040838503121561142357600080fd5b823561142e8161137c565b9150602083013561143e81611400565b809150509250929050565b6001600160a01b0391909116815260200190565b60008060006060848603121561147257600080fd5b833561147d8161137c565b9250602084013561148d8161137c565b915060408401356113d181611400565b60008083601f8401126114af57600080fd5b5081356001600160401b038111156114c657600080fd5b6020830191508360208260051b85010111156114e157600080fd5b9250929050565b6000806000806000806060878903121561150157600080fd5b86356001600160401b038082111561151857600080fd5b6115248a838b0161149d565b9098509650602089013591508082111561153d57600080fd5b6115498a838b0161149d565b9096509450604089013591508082111561156257600080fd5b5061156f89828a0161149d565b979a9699509497509295939492505050565b6000806040838503121561159457600080fd5b823561159f8161137c565b9150602083013561143e8161137c565b6020808252601f908201527f696e76616c696420617267756d656e74202d207a65726f206164647265737300604082015260600190565b6020808252602e908201527f4167656e74526f6c653a2063616c6c657220646f6573206e6f7420686176652060408201526d746865204167656e7420726f6c6560901b606082015260800190565b634e487b7160e01b600052603260045260246000fd5b60006020828403121561165c57600080fd5b81356113f981611400565b60006020828403121561167957600080fd5b81516113f981611400565b634e487b7160e01b600052604160045260246000fd5b604051601f8201601f191681016001600160401b03811182821017156116c2576116c2611684565b604052919050565b60006001600160401b038211156116e3576116e3611684565b5060051b60200190565b6000602080838503121561170057600080fd5b82516001600160401b0381111561171657600080fd5b8301601f8101851361172757600080fd5b805161173a611735826116ca565b61169a565b81815260059190911b8201830190838101908783111561175957600080fd5b928401925b828410156117775783518252928401929084019061175e565b979650505050505050565b6000602080838503121561179557600080fd5b82516001600160401b038111156117ab57600080fd5b8301601f810185136117bc57600080fd5b80516117ca611735826116ca565b81815260059190911b820183019083810190878311156117e957600080fd5b928401925b828410156117775783516118018161137c565b825292840192908401906117ee565b60005b8381101561182b578181015183820152602001611813565b50506000910152565b60006001600160401b0383111561184d5761184d611684565b611860601f8401601f191660200161169a565b905082815283838301111561187457600080fd5b6113f9836020830184611810565b600082601f83011261189357600080fd5b6113f983835160208501611834565b60008060008060008060c087890312156118bb57600080fd5b865195506020870151945060408701516118d48161137c565b60608801519094506001600160401b03808211156118f157600080fd5b6118fd8a838b01611882565b9450608089015191508082111561191357600080fd5b61191f8a838b01611882565b935060a089015191508082111561193557600080fd5b508701601f8101891361194757600080fd5b61195689825160208401611834565b9150509295509295509295565b6000815180845261197b816020860160208601611810565b601f01601f19169290920160200192915050565b60018060a01b03851681528360208201526080604082015260006119b66080830185611963565b82810360608401526117778185611963565b6000602082840312156119da57600080fd5b815180151581146113f957600080fd5b634e487b7160e01b600052601160045260246000fd5b81810381811115610541576105416119ea565b600060018201611a2557611a256119ea565b5060010190565b600060208284031215611a3e57600080fd5b81516113f98161137c56fea2646970667358221220bb38288938abba9110532e03ae0978a099aad3da63f68b3101822ebff3ae844564736f6c63430008180033",
  "linkReferences": {},
  "deployedLinkReferences": {}
}