{
  "_format": "hh-sol-artifact-1",
  "contractName": "IdentityRegistryStorage",
  "sourceName": "contracts/erc3643/registry/implementation/IdentityRegistryStorage.sol",
  "abi": [
    {
      "inputs": [],
      "name": "InvalidInitialization",
      "type": "error"
    },
    {
      "inputs": [],
      "name": "NotInitializing",
      "type": "error"
    },
    {
      "inputs": [
        {
          "internalType": "address",
          "name": "owner",
          "type": "address"
        }
      ],
      "name": "OwnableInvalidOwner",
      "type": "error"
    },
    {
      "inputs": [
        {
          "internalType": "address",
          "name": "account",
          "type": "address"
        }
      ],
      "name": "OwnableUnauthorizedAccount",
      "type": "error"
    },
    {
      "anonymous": false,
      "inputs": [
        {
          "indexed": true,
          "internalType": "address",
          "name": "_agent",
          "type": "address"
        }
      ],
      "name": "AgentAdded",
      "type": "event"
    },
    {
      "anonymous": false,
      "inputs": [
        {
          "indexed": true,
          "internalType": "address",
          "name": "_agent",
          "type": "address"
        }
      ],
      "name": "AgentRemoved",
      "type": "event"
    },
    {
      "anonymous": false,
      "inputs": [
        {
          "indexed": true,
          "internalType": "address",
          "name": "investorAddress",
          "type": "address"
        },
        {
          "indexed": true,
          "internalType": "uint16",
          "name": "country",
          "type": "uint16"
        }
      ],
      "name": "CountryModified",
      "type": "event"
    },
    {
      "anonymous": false,
      "inputs": [
        {
          "indexed": true,
          "internalType": "contract IIdentity",
          "name": "oldIdentity",
          "type": "address"
        },
        {
          "indexed": true,
          "internalType": "contract IIdentity",
          "name": "newIdentity",
          "type": "address"
        }
      ],
      "name": "IdentityModified",
      "type": "event"
    },
    {
      "anonymous": false,
      "inputs": [
        {
          "indexed": true,
          "internalType": "address",
          "name": "identityRegistry",
          "type": "address"
        }
      ],
      "name": "IdentityRegistryBound",
      "type": "event"
    },
    {
      "anonymous": false,
      "inputs": [
        {
          "indexed": true,
          "internalType": "address",
          "name": "identityRegistry",
          "type": "address"
        }
      ],
      "name": "IdentityRegistryUnbound",
      "type": "event"
    },
    {
      "anonymous": false,
      "inputs": [
        {
          "indexed": true,
          "internalType": "address",
          "name": "investorAddress",
          "type": "address"
        },
        {
          "indexed": true,
          "internalType": "contract IIdentity",
          "name": "identity",
          "type": "address"
        }
      ],
      "name": "IdentityStored",
      "type": "event"
    },
    {
      "anonymous": false,
      "inputs": [
        {
          "indexed": true,
          "internalType": "address",
          "name": "investorAddress",
          "type": "address"
        },
        {
          "indexed": true,
          "internalType": "contract IIdentity",
          "name": "identity",
          "type": "address"
        }
      ],
      "name": "IdentityUnstored",
      "type": "event"
    },
    {
      "anonymous": false,
      "inputs": [
        {
          "indexed": false,
          "internalType": "uint64",
          "name": "version",
          "type": "uint64"
        }
      ],
      "name": "Initialized",
      "type": "event"
    },
    {
      "anonymous": false,
      "inputs": [
        {
          "indexed": true,
          "internalType": "address",
          "name": "previousOwner",
          "type": "address"
        },
        {
          "indexed": true,
          "internalType": "address",
          "name": "newOwner",
          "type": "address"
        }
      ],
      "name": "OwnershipTransferred",
      "type": "event"
    },
    {
      "inputs": [
        {
          "internalType": "address",
          "name": "_agent",
          "type": "address"
        }
      ],
      "name": "addAgent",
      "outputs": [],
      "stateMutability": "nonpayable",
      "type": "function"
    },
    {
      "inputs": [
        {
          "internalType": "address",
          "name": "_userAddress",
          "type": "address"
        },
        {
          "internalType": "contract IIdentity",
          "name": "_identity",
          "type": "address"
        },
        {
          "internalType": "uint16",
          "name": "_country",
          "type": "uint16"
        }
      ],
      "name": "addIdentityToStorage",
      "outputs": [],
      "stateMutability": "nonpayable",
      "type": "function"
    },
    {
      "inputs": [
        {
          "internalType": "address",
          "name": "_identityRegistry",
          "type": "address"
        }
      ],
      "name": "bindIdentityRegistry",
      "outputs": [],
      "stateMutability": "nonpayable",
      "type": "function"
    },
    {
      "inputs": [],
      "name": "init",
      "outputs": [],
      "stateMutability": "nonpayable",
      "type": "function"
    },
    {
      "inputs": [
        {
          "internalType": "address",
          "name": "_agent",
          "type": "address"
        }
      ],
      "name": "isAgent",
      "outputs": [
        {
          "internalType": "bool",
          "name": "",
          "type": "bool"
        }
      ],
      "stateMutability": "view",
      "type": "function"
    },
    {
      "inputs": [],
      "name": "linkedIdentityRegistries",
      "outputs": [
        {
          "internalType": "address[]",
          "name": "",
          "type": "address[]"
        }
      ],
      "stateMutability": "view",
      "type": "function"
    },
    {
      "inputs": [
        {
          "internalType": "address",
          "name": "_userAddress",
          "type": "address"
        },
        {
          "internalType": "contract IIdentity",
          "name": "_identity",
          "type": "address"
        }
      ],
      "name": "modifyStoredIdentity",
      "outputs": [],
      "stateMutability": "nonpayable",
      "type": "function"
    },
    {
      "inputs": [
        {
          "internalType": "address",
          "name": "_userAddress",
          "type": "address"
        },
        {
          "internalType": "uint16",
          "name": "_country",
          "type": "uint16"
        }
      ],
      "name": "modifyStoredInvestorCountry",
      "outputs": [],
      "stateMutability": "nonpayable",
      "type": "function"
    },
    {
      "inputs": [],
      "name": "owner",
      "outputs": [
        {
          "internalType": "address",
          "name": "",
          "type": "address"
        }
      ],
      "stateMutability": "view",
      "type": "function"
    },
    {
      "inputs": [
        {
          "internalType": "address",
          "name": "_agent",
          "type": "address"
        }
      ],
      "name": "removeAgent",
      "outputs": [],
      "stateMutability": "nonpayable",
      "type": "function"
    },
    {
      "inputs": [
        {
          "internalType": "address",
          "name": "_userAddress",
          "type": "address"
        }
      ],
      "name": "removeIdentityFromStorage",
      "outputs": [],
      "stateMutability": "nonpayable",
      "type": "function"
    },
    {
      "inputs": [],
      "name": "renounceOwnership",
      "outputs": [],
      "stateMutability": "nonpayable",
      "type": "function"
    },
    {
      "inputs": [
        {
          "internalType": "address",
          "name": "_userAddress",
          "type": "address"
        }
      ],
      "name": "storedIdentity",
      "outputs": [
        {
          "internalType": "contract IIdentity",
          "name": "",
          "type": "address"
        }
      ],
      "stateMutability": "view",
      "type": "function"
    },
    {
      "inputs": [
        {
          "internalType": "address",
          "name": "_userAddress",
          "type": "address"
        }
      ],
      "name": "storedInvestorCountry",
      "outputs": [
        {
          "internalType": "uint16",
          "name": "",
          "type": "uint16"
        }
      ],
      "stateMutability": "view",
      "type": "function"
    },
    {
      "inputs": [
        {
          "internalType": "address",
          "name": "newOwner",
          "type": "address"
        }
      ],
      "name": "transferOwnership",
      "outputs": [],
      "stateMutability": "nonpayable",
      "type": "function"
    },
    {
      "inputs": [
        {
          "internalType": "address",
          "name": "_identityRegistry",
          "type": "address"
        }
      ],
      "name": "unbindIdentityRegistry",
      "outputs": [],
      "stateMutability": "nonpayable",
      "type": "function"
    }
  ],
  "bytecode": "0x608060405234801561001057600080fd5b50611112806100206000396000f3fe608060405234801561001057600080fd5b50600436106100e05760003560e01c806397a6278e1161008757806397a6278e146101d85780639f3418d5146101eb578063a53410dd146101fe578063bf9eb95914610211578063cf191bcd14610226578063e1c7392a14610239578063e805cf8614610241578063f2fde38b1461025457600080fd5b80631ffbb064146100e5578063690a49f91461010d578063715018a614610122578063727e13bc1461012a5780637988d3a51461017157806384e79842146101aa5780638da5cb5b146101bd57806397a012f7146101c5575b600080fd5b6100f86100f3366004610e89565b610267565b60405190151581526020015b60405180910390f35b61012061011b366004610e89565b610279565b005b61012061038a565b61015e610138366004610e89565b6001600160a01b0316600090815260016020526040902054600160a01b900461ffff1690565b60405161ffff9091168152602001610104565b61019d61017f366004610e89565b6001600160a01b039081166000908152600160205260409020541690565b6040516101049190610ead565b6101206101b8366004610e89565b61039e565b61019d61040e565b6101206101d3366004610e89565b61043c565b6101206101e6366004610e89565b6105ef565b6101206101f9366004610ed8565b61065f565b61012061020c366004610f0d565b610744565b61021961086a565b6040516101049190610f54565b610120610234366004610e89565b6108cc565b6101206109a7565b61012061024f366004610fa1565b610ab6565b610120610262366004610e89565b610bb0565b60006102738183610bee565b92915050565b6001600160a01b0381166102a85760405162461bcd60e51b815260040161029f90610fda565b60405180910390fd5b60025461012c116103095760405162461bcd60e51b815260206004820152602560248201527f63616e6e6f742062696e64206d6f7265207468616e2033303020495220746f20604482015264312049525360d81b606482015260840161029f565b6103128161039e565b6002805460018101825560009182527f405787fa12a823e0f2b7631cc41b3ba8828b3321ca811111fa75cd3aa3bb5ace0180546001600160a01b0319166001600160a01b03841690811790915560405190917f500c250171aa20e861b680f93502547b9d436eda7d4c537fc360db6e0c6eedfb91a250565b610392610c71565b61039c6000610ca3565b565b6103a6610c71565b6001600160a01b0381166103cc5760405162461bcd60e51b815260040161029f90610fda565b6103d7600082610d14565b6040516001600160a01b038216907ff68e73cec97f2d70aa641fb26e87a4383686e2efacb648f2165aeb02ac562ec590600090a250565b7f9016d09d72d40fdae2fd8ceac6b6234c7706214fd39c1cd1e609a0528c199300546001600160a01b031690565b6001600160a01b0381166104625760405162461bcd60e51b815260040161029f90610fda565b6002546104b15760405162461bcd60e51b815260206004820152601f60248201527f6964656e74697479207265676973747279206973206e6f742073746f72656400604482015260640161029f565b60025460005b818110156105ad57826001600160a01b0316600282815481106104dc576104dc611011565b6000918252602090912001546001600160a01b0316036105a5576002610503600184611027565b8154811061051357610513611011565b600091825260209091200154600280546001600160a01b03909216918390811061053f5761053f611011565b9060005260206000200160006101000a8154816001600160a01b0302191690836001600160a01b03160217905550600280548061057e5761057e611048565b600082815260209020810160001990810180546001600160a01b03191690550190556105ad565b6001016104b7565b506105b7826105ef565b6040516001600160a01b038316907f51f353eb5801583fdf2706e43c045b62fdf6b1566820b349390616363ecf72c990600090a25050565b6105f7610c71565b6001600160a01b03811661061d5760405162461bcd60e51b815260040161029f90610fda565b610628600082610d90565b6040516001600160a01b038216907fed9c8ad8d5a0a66898ea49d2956929c93ae2e8bd50281b2ed897c5d1a6737e0b90600090a250565b61066833610267565b6106845760405162461bcd60e51b815260040161029f9061105e565b6001600160a01b0382166106aa5760405162461bcd60e51b815260040161029f90610fda565b6001600160a01b03828116600090815260016020526040902054166106e15760405162461bcd60e51b815260040161029f906110ac565b6001600160a01b038216600081815260016020526040808220805461ffff60a01b1916600160a01b61ffff87169081029190911790915590519092917f20965fcdc6eed7ae398065b40ece4e732ba667992ca819fc54e80e9f2047c4cf91a35050565b61074d33610267565b6107695760405162461bcd60e51b815260040161029f9061105e565b6001600160a01b0383161580159061078957506001600160a01b03821615155b6107a55760405162461bcd60e51b815260040161029f90610fda565b6001600160a01b0383811660009081526001602052604090205416156108065760405162461bcd60e51b8152602060048201526016602482015275616464726573732073746f72656420616c726561647960501b604482015260640161029f565b6001600160a01b0383811660008181526001602052604080822080549487166001600160b01b03199095168517600160a01b61ffff881602179055517e30dea7e9c9afaa2e3c9810f2fc9b5181f1bad74ca5a8db85f746a33585e7479190a3505050565b606060028054806020026020016040519081016040528092919081815260200182805480156108c257602002820191906000526020600020905b81546001600160a01b031681526001909101906020018083116108a4575b5050505050905090565b6108d533610267565b6108f15760405162461bcd60e51b815260040161029f9061105e565b6001600160a01b0381166109175760405162461bcd60e51b815260040161029f90610fda565b6001600160a01b038181166000908152600160205260409020541661094e5760405162461bcd60e51b815260040161029f906110ac565b6001600160a01b0380821660008181526001602052604080822080546001600160b01b0319811690915590519316928392917fca6a4c3370b859312246e7f086284076e557997e10d856b716c23ab67067790b91a35050565b7ff0c57e16840df040f15088dc2f81fe391c3923bec73e23a9662efc9c229c6a008054600160401b810460ff16159067ffffffffffffffff166000811580156109ed5750825b905060008267ffffffffffffffff166001148015610a0a5750303b155b905081158015610a18575080155b15610a365760405163f92ee8a960e01b815260040160405180910390fd5b845467ffffffffffffffff191660011785558315610a6057845460ff60401b1916600160401b1785555b610a6933610e12565b8315610aaf57845460ff60401b19168555604051600181527fc7f505b2f371ae2175ee4913f4499e1f2633a7b5936321eed1cdaeb6115181d29060200160405180910390a15b5050505050565b610abf33610267565b610adb5760405162461bcd60e51b815260040161029f9061105e565b6001600160a01b03821615801590610afb57506001600160a01b03811615155b610b175760405162461bcd60e51b815260040161029f90610fda565b6001600160a01b0382811660009081526001602052604090205416610b4e5760405162461bcd60e51b815260040161029f906110ac565b6001600160a01b0380831660009081526001602052604080822080548585166001600160a01b031982168117909255915191909316929183917f556ce885dfcea52155c773f1ed2e58781c51945c13030ab8f793c61f51d1b8089190a3505050565b610bb8610c71565b6001600160a01b038116610be2576000604051631e4fbdf760e01b815260040161029f9190610ead565b610beb81610ca3565b50565b60006001600160a01b038216610c515760405162461bcd60e51b815260206004820152602260248201527f526f6c65733a206163636f756e7420697320746865207a65726f206164647265604482015261737360f01b606482015260840161029f565b506001600160a01b03166000908152602091909152604090205460ff1690565b33610c7a61040e565b6001600160a01b03161461039c573360405163118cdaa760e01b815260040161029f9190610ead565b7f9016d09d72d40fdae2fd8ceac6b6234c7706214fd39c1cd1e609a0528c19930080546001600160a01b031981166001600160a01b03848116918217845560405192169182907f8be0079c531659141344cd1fd0a4f28419497f9722a3daafe3b4186f6b6457e090600090a3505050565b610d1e8282610bee565b15610d6b5760405162461bcd60e51b815260206004820152601f60248201527f526f6c65733a206163636f756e7420616c72656164792068617320726f6c6500604482015260640161029f565b6001600160a01b0316600090815260209190915260409020805460ff19166001179055565b610d9a8282610bee565b610df05760405162461bcd60e51b815260206004820152602160248201527f526f6c65733a206163636f756e7420646f6573206e6f74206861766520726f6c6044820152606560f81b606482015260840161029f565b6001600160a01b0316600090815260209190915260409020805460ff19169055565b610e1a610e23565b610beb81610e6c565b7ff0c57e16840df040f15088dc2f81fe391c3923bec73e23a9662efc9c229c6a0054600160401b900460ff1661039c57604051631afcd79f60e31b815260040160405180910390fd5b610bb8610e23565b6001600160a01b0381168114610beb57600080fd5b600060208284031215610e9b57600080fd5b8135610ea681610e74565b9392505050565b6001600160a01b0391909116815260200190565b803561ffff81168114610ed357600080fd5b919050565b60008060408385031215610eeb57600080fd5b8235610ef681610e74565b9150610f0460208401610ec1565b90509250929050565b600080600060608486031215610f2257600080fd5b8335610f2d81610e74565b92506020840135610f3d81610e74565b9150610f4b60408501610ec1565b90509250925092565b6020808252825182820181905260009190848201906040850190845b81811015610f955783516001600160a01b031683529284019291840191600101610f70565b50909695505050505050565b60008060408385031215610fb457600080fd5b8235610fbf81610e74565b91506020830135610fcf81610e74565b809150509250929050565b6020808252601f908201527f696e76616c696420617267756d656e74202d207a65726f206164647265737300604082015260600190565b634e487b7160e01b600052603260045260246000fd5b8181038181111561027357634e487b7160e01b600052601160045260246000fd5b634e487b7160e01b600052603160045260246000fd5b6020808252602e908201527f4167656e74526f6c653a2063616c6c657220646f6573206e6f7420686176652060408201526d746865204167656e7420726f6c6560901b606082015260800190565b6020808252601690820152751859191c995cdcc81b9bdd081cdd1bdc9959081e595d60521b60408201526060019056fea2646970667358221220739e7bfa96c81e36e2924eaf2b08a065c87757785bb4d09500c90f9668b9949a64736f6c63430008180033",
  "linkReferences": {},
  "deployedLinkReferences": {}
}