{
  "_format": "hh-sol-artifact-1",
  "contractName": "IdentityGateway",
  "sourceName": "contracts/onchainid/gateway/Gateway.sol",
  "abi": [
    {
      "inputs": [
        {
          "internalType": "address",
          "name": "idFactoryAddress",
          "type": "address"
        },
        {
          "internalType": "address[]",
          "name": "signersToApprove",
          "type": "address[]"
        }
      ],
      "stateMutability": "nonpayable",
      "type": "constructor"
    },
    {
      "inputs": [],
      "name": "ECDSAInvalidSignature",
      "type": "error"
    },
    {
      "inputs": [
        {
          "internalType": "uint256",
          "name": "length",
          "type": "uint256"
        }
      ],
      "name": "ECDSAInvalidSignatureLength",
      "type": "error"
    },
    {
      "inputs": [
        {
          "internalType": "bytes32",
          "name": "s",
          "type": "bytes32"
        }
      ],
      "name": "ECDSAInvalidSignatureS",
      "type": "error"
    },
    {
      "inputs": [
        {
          "internalType": "bytes",
          "name": "signature",
          "type": "bytes"
        }
      ],
      "name": "ExpiredSignature",
      "type": "error"
    },
    {
      "inputs": [
        {
          "internalType": "address",
          "name": "owner",
          "type": "address"
        }
      ],
      "name": "OwnableInvalidOwner",
      "type": "error"
    },
    {
      "inputs": [
        {
          "internalType": "address",
          "name": "account",
          "type": "address"
        }
      ],
      "name": "OwnableUnauthorizedAccount",
      "type": "error"
    },
    {
      "inputs": [
        {
          "internalType": "bytes",
          "name": "signature",
          "type": "bytes"
        }
      ],
      "name": "RevokedSignature",
      "type": "error"
    },
    {
      "inputs": [
        {
          "internalType": "bytes",
          "name": "signature",
          "type": "bytes"
        }
      ],
      "name": "SignatureAlreadyRevoked",
      "type": "error"
    },
    {
      "inputs": [
        {
          "internalType": "bytes",
          "name": "signature",
          "type": "bytes"
        }
      ],
      "name": "SignatureNotRevoked",
      "type": "error"
    },
    {
      "inputs": [
        {
          "internalType": "address",
          "name": "signer",
          "type": "address"
        }
      ],
      "name": "SignerAlreadyApproved",
      "type": "error"
    },
    {
      "inputs": [
        {
          "internalType": "address",
          "name": "signer",
          "type": "address"
        }
      ],
      "name": "SignerAlreadyNotApproved",
      "type": "error"
    },
    {
      "inputs": [
        {
          "internalType": "uint256",
          "name": "value",
          "type": "uint256"
        },
        {
          "internalType": "uint256",
          "name": "length",
          "type": "uint256"
        }
      ],
      "name": "StringsInsufficientHexLength",
      "type": "error"
    },
    {
      "inputs": [],
      "name": "TooManySigners",
      "type": "error"
    },
    {
      "inputs": [
        {
          "internalType": "address",
          "name": "signer",
          "type": "address"
        }
      ],
      "name": "UnapprovedSigner",
      "type": "error"
    },
    {
      "inputs": [],
      "name": "ZeroAddress",
      "type": "error"
    },
    {
      "anonymous": false,
      "inputs": [
        {
          "indexed": true,
          "internalType": "address",
          "name": "previousOwner",
          "type": "address"
        },
        {
          "indexed": true,
          "internalType": "address",
          "name": "newOwner",
          "type": "address"
        }
      ],
      "name": "OwnershipTransferred",
      "type": "event"
    },
    {
      "anonymous": false,
      "inputs": [
        {
          "indexed": true,
          "internalType": "bytes",
          "name": "signature",
          "type": "bytes"
        }
      ],
      "name": "SignatureApproved",
      "type": "event"
    },
    {
      "anonymous": false,
      "inputs": [
        {
          "indexed": true,
          "internalType": "bytes",
          "name": "signature",
          "type": "bytes"
        }
      ],
      "name": "SignatureRevoked",
      "type": "event"
    },
    {
      "anonymous": false,
      "inputs": [
        {
          "indexed": true,
          "internalType": "address",
          "name": "signer",
          "type": "address"
        }
      ],
      "name": "SignerApproved",
      "type": "event"
    },
    {
      "anonymous": false,
      "inputs": [
        {
          "indexed": true,
          "internalType": "address",
          "name": "signer",
          "type": "address"
        }
      ],
      "name": "SignerRevoked",
      "type": "event"
    },
    {
      "inputs": [
        {
          "internalType": "bytes",
          "name": "signature",
          "type": "bytes"
        }
      ],
      "name": "approveSignature",
      "outputs": [],
      "stateMutability": "nonpayable",
      "type": "function"
    },
    {
      "inputs": [
        {
          "internalType": "address",
          "name": "signer",
          "type": "address"
        }
      ],
      "name": "approveSigner",
      "outputs": [],
      "stateMutability": "nonpayable",
      "type": "function"
    },
    {
      "inputs": [
        {
          "internalType": "address",
          "name": "",
          "type": "address"
        }
      ],
      "name": "approvedSigners",
      "outputs": [
        {
          "internalType": "bool",
          "name": "",
          "type": "bool"
        }
      ],
      "stateMutability": "view",
      "type": "function"
    },
    {
      "inputs": [
        {
          "internalType": "bytes",
          "name": "data",
          "type": "bytes"
        }
      ],
      "name": "callFactory",
      "outputs": [],
      "stateMutability": "nonpayable",
      "type": "function"
    },
    {
      "inputs": [
        {
          "internalType": "address",
          "name": "identityOwner",
          "type": "address"
        }
      ],
      "name": "deployIdentityForWallet",
      "outputs": [
        {
          "internalType": "address",
          "name": "",
          "type": "address"
        }
      ],
      "stateMutability": "nonpayable",
      "type": "function"
    },
    {
      "inputs": [
        {
          "internalType": "address",
          "name": "identityOwner",
          "type": "address"
        },
        {
          "internalType": "string",
          "name": "salt",
          "type": "string"
        },
        {
          "internalType": "uint256",
          "name": "signatureExpiry",
          "type": "uint256"
        },
        {
          "internalType": "bytes",
          "name": "signature",
          "type": "bytes"
        }
      ],
      "name": "deployIdentityWithSalt",
      "outputs": [
        {
          "internalType": "address",
          "name": "",
          "type": "address"
        }
      ],
      "stateMutability": "nonpayable",
      "type": "function"
    },
    {
      "inputs": [
        {
          "internalType": "address",
          "name": "identityOwner",
          "type": "address"
        },
        {
          "internalType": "string",
          "name": "salt",
          "type": "string"
        },
        {
          "internalType": "bytes32[]",
          "name": "managementKeys",
          "type": "bytes32[]"
        },
        {
          "internalType": "uint256",
          "name": "signatureExpiry",
          "type": "uint256"
        },
        {
          "internalType": "bytes",
          "name": "signature",
          "type": "bytes"
        }
      ],
      "name": "deployIdentityWithSaltAndManagementKeys",
      "outputs": [
        {
          "internalType": "address",
          "name": "",
          "type": "address"
        }
      ],
      "stateMutability": "nonpayable",
      "type": "function"
    },
    {
      "inputs": [],
      "name": "idFactory",
      "outputs": [
        {
          "internalType": "contract IdFactory",
          "name": "",
          "type": "address"
        }
      ],
      "stateMutability": "view",
      "type": "function"
    },
    {
      "inputs": [],
      "name": "owner",
      "outputs": [
        {
          "internalType": "address",
          "name": "",
          "type": "address"
        }
      ],
      "stateMutability": "view",
      "type": "function"
    },
    {
      "inputs": [],
      "name": "renounceOwnership",
      "outputs": [],
      "stateMutability": "nonpayable",
      "type": "function"
    },
    {
      "inputs": [
        {
          "internalType": "bytes",
          "name": "signature",
          "type": "bytes"
        }
      ],
      "name": "revokeSignature",
      "outputs": [],
      "stateMutability": "nonpayable",
      "type": "function"
    },
    {
      "inputs": [
        {
          "internalType": "address",
          "name": "signer",
          "type": "address"
        }
      ],
      "name": "revokeSigner",
      "outputs": [],
      "stateMutability": "nonpayable",
      "type": "function"
    },
    {
      "inputs": [
        {
          "internalType": "bytes",
          "name": "",
          "type": "bytes"
        }
      ],
      "name": "revokedSignatures",
      "outputs": [
        {
          "internalType": "bool",
          "name": "",
          "type": "bool"
        }
      ],
      "stateMutability": "view",
      "type": "function"
    },
    {
      "inputs": [
        {
          "internalType": "address",
          "name": "newOwner",
          "type": "address"
        }
      ],
      "name": "transferFactoryOwnership",
      "outputs": [],
      "stateMutability": "nonpayable",
      "type": "function"
    },
    {
      "inputs": [
        {
          "internalType": "address",
          "name": "newOwner",
          "type": "address"
        }
      ],
      "name": "transferOwnership",
      "outputs": [],
      "stateMutability": "nonpayable",
      "type": "function"
    }
  ],
  "bytecode": "0x60806040523480156200001157600080fd5b50604051620017b8380380620017b88339810160408190526200003491620001c1565b33806200005b57604051631e4fbdf760e01b81526000600482015260240160405180910390fd5b62000066816200013e565b506001600160a01b0382166200008f5760405163d92e233d60e01b815260040160405180910390fd5b600a81511115620000b357604051630dc92ed360e11b815260040160405180910390fd5b60005b81518110156200011657600160026000848481518110620000db57620000db620002aa565b6020908102919091018101516001600160a01b03168252810191909152604001600020805460ff1916911515919091179055600101620000b6565b5050600180546001600160a01b0319166001600160a01b0392909216919091179055620002c0565b600080546001600160a01b038381166001600160a01b0319831681178455604051919092169283917f8be0079c531659141344cd1fd0a4f28419497f9722a3daafe3b4186f6b6457e09190a35050565b80516001600160a01b0381168114620001a657600080fd5b919050565b634e487b7160e01b600052604160045260246000fd5b60008060408385031215620001d557600080fd5b620001e0836200018e565b602084810151919350906001600160401b03808211156200020057600080fd5b818601915086601f8301126200021557600080fd5b8151818111156200022a576200022a620001ab565b8060051b604051601f19603f83011681018181108582111715620002525762000252620001ab565b6040529182528482019250838101850191898311156200027157600080fd5b938501935b828510156200029a576200028a856200018e565b8452938501939285019262000276565b8096505050505050509250929050565b634e487b7160e01b600052603260045260246000fd5b6114e880620002d06000396000f3fe608060405234801561001057600080fd5b50600436106100d55760003560e01c80638a875512116100875780638a875512146101975780638da5cb5b146101ba5780639c5c5ce7146101cb578063c34b44a0146101de578063ccbfc6ed146101f1578063d70aa0ee14610204578063e9ba236314610217578063f2fde38b1461022a57600080fd5b806309f29c09146100da57806317f67a15146100ef5780633e8e6e8b146101185780634e2984e41461012b578063715018a61461016957806378e751a6146101715780637d963e6f14610184575b600080fd5b6100ed6100e8366004610f66565b61023d565b005b6101026100fd366004611032565b6102ff565b60405161010f91906110b8565b60405180910390f35b6101026101263660046110cc565b6104ff565b610159610139366004610f66565b805160208183018101805160038252928201919093012091525460ff1681565b604051901515815260200161010f565b6100ed6105a9565b600154610102906001600160a01b031681565b6100ed6101923660046110e9565b6105bd565b6101596101a53660046110cc565b60026020526000908152604090205460ff1681565b6000546001600160a01b0316610102565b6100ed6101d93660046110cc565b610675565b6100ed6101ec3660046110cc565b6106e2565b6100ed6101ff3660046110e9565b610795565b6100ed6102123660046110cc565b61085a565b61010261022536600461112a565b610911565b6100ed6102383660046110cc565b610a96565b610245610ad4565b6001546040516000916001600160a01b03169061026390849061122f565b6000604051808303816000865af19150503d80600081146102a0576040519150601f19603f3d011682016040523d82523d6000602084013e6102a5565b606091505b50509050806102fb5760405162461bcd60e51b815260206004820152601f60248201527f476174657761793a2063616c6c20746f20666163746f7279206661696c65640060448201526064015b60405180910390fd5b5050565b60006001600160a01b0386166103285760405163d92e233d60e01b815260040160405180910390fd5b831580159061033657504284105b1561035857828260405163019fcfdb60e31b81526004016102f292919061124b565b60006103fa6103be888888604051602001610375939291906112d6565b604051602081830303815290604052805190602001207f19457468657265756d205369676e6564204d6573736167653a0a3332000000006000908152601c91909152603c902090565b85858080601f016020809104026020016040519081016040528093929190818152602001838380828437600092019190915250610b0192505050565b6001600160a01b03811660009081526002602052604090205490915060ff16610438578060405163579e40b960e11b81526004016102f291906110b8565b6003848460405161044a92919061131a565b9081526040519081900360200190205460ff161561047f5783836040516314dbff3f60e31b81526004016102f292919061124b565b60015460405163474a95ff60e11b81526001600160a01b0390911690638e952bfe906104b1908a908a9060040161132a565b6020604051808303816000875af11580156104d0573d6000803e3d6000fd5b505050506040513d601f19601f820116820180604052508101906104f4919061134e565b979650505050505050565b60006001600160a01b0382166105285760405163d92e233d60e01b815260040160405180910390fd5b6001546001600160a01b0316638e952bfe8361054381610b2b565b6040518363ffffffff1660e01b815260040161056092919061132a565b6020604051808303816000875af115801561057f573d6000803e3d6000fd5b505050506040513d601f19601f820116820180604052508101906105a3919061134e565b92915050565b6105b1610ad4565b6105bb6000610b41565b565b6105c5610ad4565b600382826040516105d792919061131a565b9081526040519081900360200190205460ff1661060b5781816040516337d70afd60e11b81526004016102f292919061124b565b6003828260405161061d92919061131a565b908152604051908190036020018120805460ff19169055610641908390839061131a565b604051908190038120907fb54b0481f674d73e0a7e0805771909ebd61fadc85286160239121febb142fabf90600090a25050565b61067d610ad4565b60015460405163f2fde38b60e01b81526001600160a01b039091169063f2fde38b906106ad9084906004016110b8565b600060405180830381600087803b1580156106c757600080fd5b505af11580156106db573d6000803e3d6000fd5b5050505050565b6106ea610ad4565b6001600160a01b0381166107115760405163d92e233d60e01b815260040160405180910390fd5b6001600160a01b03811660009081526002602052604090205460ff1661074c57806040516309d0bb2d60e21b81526004016102f291906110b8565b6001600160a01b038116600081815260026020526040808220805460ff19169055517f99a705a3c2c3339d0051f56b36a60fef91e30142c93353002617999f27aec4af9190a250565b61079d610ad4565b600382826040516107af92919061131a565b9081526040519081900360200190205460ff16156107e4578181604051638bf3b1f160e01b81526004016102f292919061124b565b6001600383836040516107f892919061131a565b908152604051908190036020018120805492151560ff1990931692909217909155610826908390839061131a565b604051908190038120907f2cb4d732f179a7333da89a4da3f3f9a9cbe3f6d7ac090ab062c69c303da32ff790600090a25050565b610862610ad4565b6001600160a01b0381166108895760405163d92e233d60e01b815260040160405180910390fd5b6001600160a01b03811660009081526002602052604090205460ff16156108c55780604051630912922160e11b81526004016102f291906110b8565b6001600160a01b038116600081815260026020526040808220805460ff19166001179055517fc031114b6ddff79d71c2554dbce316b1327bb3dad01c60b76d8e8b23ff27ea289190a250565b60006001600160a01b03881661093a5760405163d92e233d60e01b815260040160405180910390fd5b831580159061094857504284105b1561096a57828260405163019fcfdb60e31b81526004016102f292919061124b565b600061098b6103be8a8a8a8a8a60405160200161037595949392919061139d565b6001600160a01b03811660009081526002602052604090205490915060ff166109c9578060405163579e40b960e11b81526004016102f291906110b8565b600384846040516109db92919061131a565b9081526040519081900360200190205460ff1615610a105783836040516314dbff3f60e31b81526004016102f292919061124b565b600154604051637f2e6acd60e11b81526001600160a01b039091169063fe5cd59a90610a46908c908c908c908c906004016113f8565b6020604051808303816000875af1158015610a65573d6000803e3d6000fd5b505050506040513d601f19601f82011682018060405250810190610a89919061134e565b9998505050505050505050565b610a9e610ad4565b6001600160a01b038116610ac8576000604051631e4fbdf760e01b81526004016102f291906110b8565b610ad181610b41565b50565b6000546001600160a01b031633146105bb573360405163118cdaa760e01b81526004016102f291906110b8565b600080600080610b118686610b91565b925092509250610b218282610bde565b5090949350505050565b60606105a36001600160a01b0383166014610c97565b600080546001600160a01b038381166001600160a01b0319831681178455604051919092169283917f8be0079c531659141344cd1fd0a4f28419497f9722a3daafe3b4186f6b6457e09190a35050565b60008060008351604103610bcb5760208401516040850151606086015160001a610bbd88828585610e16565b955095509550505050610bd7565b50508151600091506002905b9250925092565b6000826003811115610bf257610bf261142f565b03610bfb575050565b6001826003811115610c0f57610c0f61142f565b03610c2d5760405163f645eedf60e01b815260040160405180910390fd5b6002826003811115610c4157610c4161142f565b03610c625760405163fce698f760e01b8152600481018290526024016102f2565b6003826003811115610c7657610c7661142f565b036102fb576040516335e2f38360e21b8152600481018290526024016102f2565b6060826000610ca784600261145b565b610cb2906002611472565b6001600160401b03811115610cc957610cc9610edb565b6040519080825280601f01601f191660200182016040528015610cf3576020820181803683370190505b509050600360fc1b81600081518110610d0e57610d0e611485565b60200101906001600160f81b031916908160001a905350600f60fb1b81600181518110610d3d57610d3d611485565b60200101906001600160f81b031916908160001a9053506000610d6185600261145b565b610d6c906001611472565b90505b6001811115610de4576f181899199a1a9b1b9c1cb0b131b232b360811b83600f1660108110610da057610da0611485565b1a60f81b828281518110610db657610db6611485565b60200101906001600160f81b031916908160001a90535060049290921c91610ddd8161149b565b9050610d6f565b508115610e0e5760405163e22e27eb60e01b815260048101869052602481018590526044016102f2565b949350505050565b600080806fa2a8918ca85bafe22016d0b997e4df60600160ff1b03841115610e475750600091506003905082610ed1565b604080516000808252602082018084528a905260ff891692820192909252606081018790526080810186905260019060a0016020604051602081039080840390855afa158015610e9b573d6000803e3d6000fd5b5050604051601f1901519150506001600160a01b038116610ec757506000925060019150829050610ed1565b9250600091508190505b9450945094915050565b634e487b7160e01b600052604160045260246000fd5b60006001600160401b0380841115610f0b57610f0b610edb565b604051601f8501601f19908116603f01168101908282118183101715610f3357610f33610edb565b81604052809350858152868686011115610f4c57600080fd5b858560208301376000602087830101525050509392505050565b600060208284031215610f7857600080fd5b81356001600160401b03811115610f8e57600080fd5b8201601f81018413610f9f57600080fd5b610e0e84823560208401610ef1565b6001600160a01b0381168114610ad157600080fd5b600082601f830112610fd457600080fd5b610fe383833560208501610ef1565b9392505050565b60008083601f840112610ffc57600080fd5b5081356001600160401b0381111561101357600080fd5b60208301915083602082850101111561102b57600080fd5b9250929050565b60008060008060006080868803121561104a57600080fd5b853561105581610fae565b945060208601356001600160401b038082111561107157600080fd5b61107d89838a01610fc3565b955060408801359450606088013591508082111561109a57600080fd5b506110a788828901610fea565b969995985093965092949392505050565b6001600160a01b0391909116815260200190565b6000602082840312156110de57600080fd5b8135610fe381610fae565b600080602083850312156110fc57600080fd5b82356001600160401b0381111561111257600080fd5b61111e85828601610fea565b90969095509350505050565b600080600080600080600060a0888a03121561114557600080fd5b873561115081610fae565b965060208801356001600160401b038082111561116c57600080fd5b6111788b838c01610fc3565b975060408a013591508082111561118e57600080fd5b818a0191508a601f8301126111a257600080fd5b8135818111156111b157600080fd5b8b60208260051b85010111156111c657600080fd5b6020830197508096505060608a0135945060808a01359150808211156111eb57600080fd5b506111f88a828b01610fea565b989b979a50959850939692959293505050565b60005b8381101561122657818101518382015260200161120e565b50506000910152565b6000825161124181846020870161120b565b9190910192915050565b60208152816020820152818360408301376000818301604090810191909152601f909201601f19160101919050565b601e81527f417574686f72697a65204f4e434841494e4944206465706c6f796d656e740000602082015260400190565b600081518084526112c281602086016020860161120b565b601f01601f19169290920160200192915050565b6080815260006112e86080830161127a565b6001600160a01b0386166020840152828103604084015261130981866112aa565b915050826060830152949350505050565b8183823760009101908152919050565b6001600160a01b0383168152604060208201819052600090610e0e908301846112aa565b60006020828403121561136057600080fd5b8151610fe381610fae565b81835260006001600160fb1b0383111561138457600080fd5b8260051b80836020870137939093016020019392505050565b60a0815260006113af60a0830161127a565b6001600160a01b038816602084015282810360408401526113d081886112aa565b905082810360608401526113e581868861136b565b9150508260808301529695505050505050565b6001600160a01b038516815260606020820181905260009061141c908301866112aa565b82810360408401526104f481858761136b565b634e487b7160e01b600052602160045260246000fd5b634e487b7160e01b600052601160045260246000fd5b80820281158282048414176105a3576105a3611445565b808201808211156105a3576105a3611445565b634e487b7160e01b600052603260045260246000fd5b6000816114aa576114aa611445565b50600019019056fea26469706673582212206129d32d6c7564b8fc3c686ad73688d6b2d23b7ac9de98283f881951ca83e4ea64736f6c63430008180033",
  "linkReferences": {},
  "deployedLinkReferences": {}
}