{
  "_format": "hh-sol-artifact-1",
  "contractName": "Identity",
  "sourceName": "contracts/onchainid/Identity.sol",
  "abi": [
    {
      "inputs": [
        {
          "internalType": "address",
          "name": "initialManagementKey",
          "type": "address"
        },
        {
          "internalType": "bool",
          "name": "_isLibrary",
          "type": "bool"
        }
      ],
      "stateMutability": "nonpayable",
      "type": "constructor"
    },
    {
      "anonymous": false,
      "inputs": [
        {
          "indexed": true,
          "internalType": "uint256",
          "name": "executionId",
          "type": "uint256"
        },
        {
          "indexed": false,
          "internalType": "bool",
          "name": "approved",
          "type": "bool"
        }
      ],
      "name": "Approved",
      "type": "event"
    },
    {
      "anonymous": false,
      "inputs": [
        {
          "indexed": true,
          "internalType": "bytes32",
          "name": "claimId",
          "type": "bytes32"
        },
        {
          "indexed": true,
          "internalType": "uint256",
          "name": "topic",
          "type": "uint256"
        },
        {
          "indexed": false,
          "internalType": "uint256",
          "name": "scheme",
          "type": "uint256"
        },
        {
          "indexed": true,
          "internalType": "address",
          "name": "issuer",
          "type": "address"
        },
        {
          "indexed": false,
          "internalType": "bytes",
          "name": "signature",
          "type": "bytes"
        },
        {
          "indexed": false,
          "internalType": "bytes",
          "name": "data",
          "type": "bytes"
        },
        {
          "indexed": false,
          "internalType": "string",
          "name": "uri",
          "type": "string"
        }
      ],
      "name": "ClaimAdded",
      "type": "event"
    },
    {
      "anonymous": false,
      "inputs": [
        {
          "indexed": true,
          "internalType": "bytes32",
          "name": "claimId",
          "type": "bytes32"
        },
        {
          "indexed": true,
          "internalType": "uint256",
          "name": "topic",
          "type": "uint256"
        },
        {
          "indexed": false,
          "internalType": "uint256",
          "name": "scheme",
          "type": "uint256"
        },
        {
          "indexed": true,
          "internalType": "address",
          "name": "issuer",
          "type": "address"
        },
        {
          "indexed": false,
          "internalType": "bytes",
          "name": "signature",
          "type": "bytes"
        },
        {
          "indexed": false,
          "internalType": "bytes",
          "name": "data",
          "type": "bytes"
        },
        {
          "indexed": false,
          "internalType": "string",
          "name": "uri",
          "type": "string"
        }
      ],
      "name": "ClaimChanged",
      "type": "event"
    },
    {
      "anonymous": false,
      "inputs": [
        {
          "indexed": true,
          "internalType": "bytes32",
          "name": "claimId",
          "type": "bytes32"
        },
        {
          "indexed": true,
          "internalType": "uint256",
          "name": "topic",
          "type": "uint256"
        },
        {
          "indexed": false,
          "internalType": "uint256",
          "name": "scheme",
          "type": "uint256"
        },
        {
          "indexed": true,
          "internalType": "address",
          "name": "issuer",
          "type": "address"
        },
        {
          "indexed": false,
          "internalType": "bytes",
          "name": "signature",
          "type": "bytes"
        },
        {
          "indexed": false,
          "internalType": "bytes",
          "name": "data",
          "type": "bytes"
        },
        {
          "indexed": false,
          "internalType": "string",
          "name": "uri",
          "type": "string"
        }
      ],
      "name": "ClaimRemoved",
      "type": "event"
    },
    {
      "anonymous": false,
      "inputs": [
        {
          "indexed": true,
          "internalType": "uint256",
          "name": "executionId",
          "type": "uint256"
        },
        {
          "indexed": true,
          "internalType": "address",
          "name": "to",
          "type": "address"
        },
        {
          "indexed": true,
          "internalType": "uint256",
          "name": "value",
          "type": "uint256"
        },
        {
          "indexed": false,
          "internalType": "bytes",
          "name": "data",
          "type": "bytes"
        }
      ],
      "name": "Executed",
      "type": "event"
    },
    {
      "anonymous": false,
      "inputs": [
        {
          "indexed": true,
          "internalType": "uint256",
          "name": "executionId",
          "type": "uint256"
        },
        {
          "indexed": true,
          "internalType": "address",
          "name": "to",
          "type": "address"
        },
        {
          "indexed": true,
          "internalType": "uint256",
          "name": "value",
          "type": "uint256"
        },
        {
          "indexed": false,
          "internalType": "bytes",
          "name": "data",
          "type": "bytes"
        }
      ],
      "name": "ExecutionFailed",
      "type": "event"
    },
    {
      "anonymous": false,
      "inputs": [
        {
          "indexed": true,
          "internalType": "uint256",
          "name": "executionId",
          "type": "uint256"
        },
        {
          "indexed": true,
          "internalType": "address",
          "name": "to",
          "type": "address"
        },
        {
          "indexed": true,
          "internalType": "uint256",
          "name": "value",
          "type": "uint256"
        },
        {
          "indexed": false,
          "internalType": "bytes",
          "name": "data",
          "type": "bytes"
        }
      ],
      "name": "ExecutionRequested",
      "type": "event"
    },
    {
      "anonymous": false,
      "inputs": [
        {
          "indexed": true,
          "internalType": "bytes32",
          "name": "key",
          "type": "bytes32"
        },
        {
          "indexed": true,
          "internalType": "uint256",
          "name": "purpose",
          "type": "uint256"
        },
        {
          "indexed": true,
          "internalType": "uint256",
          "name": "keyType",
          "type": "uint256"
        }
      ],
      "name": "KeyAdded",
      "type": "event"
    },
    {
      "anonymous": false,
      "inputs": [
        {
          "indexed": true,
          "internalType": "bytes32",
          "name": "key",
          "type": "bytes32"
        },
        {
          "indexed": true,
          "internalType": "uint256",
          "name": "purpose",
          "type": "uint256"
        },
        {
          "indexed": true,
          "internalType": "uint256",
          "name": "keyType",
          "type": "uint256"
        }
      ],
      "name": "KeyRemoved",
      "type": "event"
    },
    {
      "inputs": [
        {
          "internalType": "uint256",
          "name": "_topic",
          "type": "uint256"
        },
        {
          "internalType": "uint256",
          "name": "_scheme",
          "type": "uint256"
        },
        {
          "internalType": "address",
          "name": "_issuer",
          "type": "address"
        },
        {
          "internalType": "bytes",
          "name": "_signature",
          "type": "bytes"
        },
        {
          "internalType": "bytes",
          "name": "_data",
          "type": "bytes"
        },
        {
          "internalType": "string",
          "name": "_uri",
          "type": "string"
        }
      ],
      "name": "addClaim",
      "outputs": [
        {
          "internalType": "bytes32",
          "name": "claimRequestId",
          "type": "bytes32"
        }
      ],
      "stateMutability": "nonpayable",
      "type": "function"
    },
    {
      "inputs": [
        {
          "internalType": "bytes32",
          "name": "_key",
          "type": "bytes32"
        },
        {
          "internalType": "uint256",
          "name": "_purpose",
          "type": "uint256"
        },
        {
          "internalType": "uint256",
          "name": "_type",
          "type": "uint256"
        }
      ],
      "name": "addKey",
      "outputs": [
        {
          "internalType": "bool",
          "name": "success",
          "type": "bool"
        }
      ],
      "stateMutability": "nonpayable",
      "type": "function"
    },
    {
      "inputs": [
        {
          "internalType": "uint256",
          "name": "_id",
          "type": "uint256"
        },
        {
          "internalType": "bool",
          "name": "_approve",
          "type": "bool"
        }
      ],
      "name": "approve",
      "outputs": [
        {
          "internalType": "bool",
          "name": "success",
          "type": "bool"
        }
      ],
      "stateMutability": "nonpayable",
      "type": "function"
    },
    {
      "inputs": [
        {
          "internalType": "address",
          "name": "_to",
          "type": "address"
        },
        {
          "internalType": "uint256",
          "name": "_value",
          "type": "uint256"
        },
        {
          "internalType": "bytes",
          "name": "_data",
          "type": "bytes"
        }
      ],
      "name": "execute",
      "outputs": [
        {
          "internalType": "uint256",
          "name": "executionId",
          "type": "uint256"
        }
      ],
      "stateMutability": "payable",
      "type": "function"
    },
    {
      "inputs": [
        {
          "internalType": "bytes32",
          "name": "_claimId",
          "type": "bytes32"
        }
      ],
      "name": "getClaim",
      "outputs": [
        {
          "internalType": "uint256",
          "name": "topic",
          "type": "uint256"
        },
        {
          "internalType": "uint256",
          "name": "scheme",
          "type": "uint256"
        },
        {
          "internalType": "address",
          "name": "issuer",
          "type": "address"
        },
        {
          "internalType": "bytes",
          "name": "signature",
          "type": "bytes"
        },
        {
          "internalType": "bytes",
          "name": "data",
          "type": "bytes"
        },
        {
          "internalType": "string",
          "name": "uri",
          "type": "string"
        }
      ],
      "stateMutability": "view",
      "type": "function"
    },
    {
      "inputs": [
        {
          "internalType": "uint256",
          "name": "_topic",
          "type": "uint256"
        }
      ],
      "name": "getClaimIdsByTopic",
      "outputs": [
        {
          "internalType": "bytes32[]",
          "name": "claimIds",
          "type": "bytes32[]"
        }
      ],
      "stateMutability": "view",
      "type": "function"
    },
    {
      "inputs": [
        {
          "internalType": "bytes32",
          "name": "_key",
          "type": "bytes32"
        }
      ],
      "name": "getKey",
      "outputs": [
        {
          "internalType": "uint256[]",
          "name": "purposes",
          "type": "uint256[]"
        },
        {
          "internalType": "uint256",
          "name": "keyType",
          "type": "uint256"
        },
        {
          "internalType": "bytes32",
          "name": "key",
          "type": "bytes32"
        }
      ],
      "stateMutability": "view",
      "type": "function"
    },
    {
      "inputs": [
        {
          "internalType": "bytes32",
          "name": "_key",
          "type": "bytes32"
        }
      ],
      "name": "getKeyPurposes",
      "outputs": [
        {
          "internalType": "uint256[]",
          "name": "_purposes",
          "type": "uint256[]"
        }
      ],
      "stateMutability": "view",
      "type": "function"
    },
    {
      "inputs": [
        {
          "internalType": "uint256",
          "name": "_purpose",
          "type": "uint256"
        }
      ],
      "name": "getKeysByPurpose",
      "outputs": [
        {
          "internalType": "bytes32[]",
          "name": "keys",
          "type": "bytes32[]"
        }
      ],
      "stateMutability": "view",
      "type": "function"
    },
    {
      "inputs": [
        {
          "internalType": "bytes",
          "name": "sig",
          "type": "bytes"
        },
        {
          "internalType": "bytes32",
          "name": "dataHash",
          "type": "bytes32"
        }
      ],
      "name": "getRecoveredAddress",
      "outputs": [
        {
          "internalType": "address",
          "name": "addr",
          "type": "address"
        }
      ],
      "stateMutability": "pure",
      "type": "function"
    },
    {
      "inputs": [
        {
          "internalType": "address",
          "name": "initialManagementKey",
          "type": "address"
        }
      ],
      "name": "initialize",
      "outputs": [],
      "stateMutability": "nonpayable",
      "type": "function"
    },
    {
      "inputs": [
        {
          "internalType": "contract IIdentity",
          "name": "_identity",
          "type": "address"
        },
        {
          "internalType": "uint256",
          "name": "claimTopic",
          "type": "uint256"
        },
        {
          "internalType": "bytes",
          "name": "sig",
          "type": "bytes"
        },
        {
          "internalType": "bytes",
          "name": "data",
          "type": "bytes"
        }
      ],
      "name": "isClaimValid",
      "outputs": [
        {
          "internalType": "bool",
          "name": "claimValid",
          "type": "bool"
        }
      ],
      "stateMutability": "view",
      "type": "function"
    },
    {
      "inputs": [
        {
          "internalType": "bytes32",
          "name": "_key",
          "type": "bytes32"
        },
        {
          "internalType": "uint256",
          "name": "_purpose",
          "type": "uint256"
        }
      ],
      "name": "keyHasPurpose",
      "outputs": [
        {
          "internalType": "bool",
          "name": "result",
          "type": "bool"
        }
      ],
      "stateMutability": "view",
      "type": "function"
    },
    {
      "inputs": [
        {
          "internalType": "bytes32",
          "name": "_claimId",
          "type": "bytes32"
        }
      ],
      "name": "removeClaim",
      "outputs": [
        {
          "internalType": "bool",
          "name": "success",
          "type": "bool"
        }
      ],
      "stateMutability": "nonpayable",
      "type": "function"
    },
    {
      "inputs": [
        {
          "internalType": "bytes32",
          "name": "_key",
          "type": "bytes32"
        },
        {
          "internalType": "uint256",
          "name": "_purpose",
          "type": "uint256"
        }
      ],
      "name": "removeKey",
      "outputs": [
        {
          "internalType": "bool",
          "name": "success",
          "type": "bool"
        }
      ],
      "stateMutability": "nonpayable",
      "type": "function"
    },
    {
      "inputs": [],
      "name": "version",
      "outputs": [
        {
          "internalType": "string",
          "name": "",
          "type": "string"
        }
      ],
      "stateMutability": "pure",
      "type": "function"
    }
  ],
  "bytecode": "0x60806040526006805461ffff191690553480156200001c57600080fd5b5060405162002a1938038062002a198339810160408190526200003f916200029f565b6001600160a01b0382166200009b5760405162461bcd60e51b815260206004820152601f60248201527f696e76616c696420617267756d656e74202d207a65726f20616464726573730060448201526064015b60405180910390fd5b80620000b257620000ac82620000c8565b620000c0565b6006805460ff191660011790555b5050620002ed565b60065460ff161580620000da5750303b155b620001285760405162461bcd60e51b815260206004820152601e60248201527f496e697469616c206b65792077617320616c72656164792073657475702e0000604482015260640162000092565b6006805461ffff1916610101179055604080516001600160a01b03831660208201526000910160408051601f19818403018152828252805160209182012060008181526001808452848220600281018490558685019095528086529082905291829052935062000199929062000233565b506000818152600160208181526040808420830183905560029091527fe90b7bceb6e7df5418fb78d8ee546e97c83a08bbccc01a0644d599ccd2a7c2e0805480840182559084527f7fef4bf8f63cf9dd467136c679c02b5c17fcf6322d9562512bf5eb952cf7cc5301849055519091829184917f480000bb1edad8ca1470381cc334b1917fbd51c6531f3a623ea8e0ec7e38a6e991a45050565b82805482825590600052602060002090810192821562000276579160200282015b8281111562000276578251829060ff1690559160200191906001019062000254565b506200028492915062000288565b5090565b5b8082111562000284576000815560010162000289565b60008060408385031215620002b357600080fd5b82516001600160a01b0381168114620002cb57600080fd5b60208401519092508015158114620002e257600080fd5b809150509250929050565b61271c80620002fd6000396000f3fe6080604052600436106100d35760003560e01c8063b1a34e0d1161007a578063b1a34e0d14610221578063b61d27f61461024f578063c0969a6e14610262578063c3b129e314610282578063c4d66de8146102af578063c9100bcb146102d1578063d202158d14610303578063fb307b341461032357600080fd5b806312aaac70146100d85780631d381240146101105780634eee424a1461014057806353d413c51461016057806354fd4d5014610180578063747442d3146101b457806380e9e9e1146101d45780639010f72614610201575b600080fd5b3480156100e457600080fd5b506100f86100f3366004611d27565b610350565b60405161010793929190611d7c565b60405180910390f35b34801561011c57600080fd5b5061013061012b366004611da1565b6103c9565b6040519015158152602001610107565b34801561014c57600080fd5b5061013061015b366004611d27565b610626565b34801561016c57600080fd5b5061013061017b366004611dcd565b6108e9565b34801561018c57600080fd5b506040805180820182526005815264322e322e3160d81b602082015290516101079190611e35565b3480156101c057600080fd5b506101306101cf366004611e5d565b610cd9565b3480156101e057600080fd5b506101f46101ef366004611d27565b6110b5565b6040516101079190611e8d565b34801561020d57600080fd5b506101f461021c366004611d27565b611117565b34801561022d57600080fd5b5061024161023c366004611f92565b611177565b604051908152602001610107565b61024161025d366004612053565b611443565b34801561026e57600080fd5b5061013061027d3660046120ac565b611575565b34801561028e57600080fd5b506102a261029d36600461212c565b611661565b6040516101079190612171565b3480156102bb57600080fd5b506102cf6102ca366004612185565b611712565b005b3480156102dd57600080fd5b506102f16102ec366004611d27565b611774565b604051610107969594939291906121a2565b34801561030f57600080fd5b5061013061031e366004611dcd565b611975565b34801561032f57600080fd5b5061034361033e366004611d27565b611a6c565b6040516101079190612202565b6000818152600160208181526040808420928301546002840154845483518186028101860190945280845260609695869590949185918301828280156103b557602002820191906000526020600020905b8154815260200190600101908083116103a1575b505050505092509250925092509193909250565b60065460009060ff6101009091041615156001146104025760405162461bcd60e51b81526004016103f990612215565b60405180910390fd5b3330148061043c575061043c3360405160200161041f9190612171565b604051602081830303815290604052805190602001206001611975565b6104585760405162461bcd60e51b81526004016103f990612268565b600084815260016020526040902060020154849003610581576000848152600160209081526040808320805482518185028101850190935280835291929091908301828280156104c757602002820191906000526020600020905b8154815260200190600101908083116104b3575b5050505050905060005b815181101561055a5760008282815181106104ee576104ee6122b8565b602002602001015190508581036105515760405162461bcd60e51b815260206004820152602160248201527f436f6e666c6963743a204b657920616c72656164792068617320707572706f736044820152606560f81b60648201526084016103f9565b506001016104d1565b505060008481526001602081815260408320805492830181558352909120018390556105cd565b600084815260016020818152604080842060028101899055815180840190925287825293889052908290526105b69291611c2f565b506000848152600160208190526040909120018290555b60008381526002602090815260408083208054600181018255908452918320909101869055518391859187917f480000bb1edad8ca1470381cc334b1917fbd51c6531f3a623ea8e0ec7e38a6e991a45060019392505050565b60065460009060ff6101009091041615156001146106565760405162461bcd60e51b81526004016103f990612215565b333014806106905750610690336040516020016106739190612171565b604051602081830303815290604052805190602001206003611975565b6106ac5760405162461bcd60e51b81526004016103f9906122ce565b6000828152600460205260408120549081900361071f5760405162461bcd60e51b815260206004820152602b60248201527f4e6f6e4578697374696e673a205468657265206973206e6f20636c61696d207760448201526a1a5d1a081d1a1a5cc8125160aa1b60648201526084016103f9565b6000818152600560205260408120545b6000838152600560205260409020805486919084908110610752576107526122b8565b906000526020600020015414610777578161076c81612336565b92505080821061072f575b600083815260056020526040902061079060018361234f565b815481106107a0576107a06122b8565b90600052602060002001546005600085815260200190815260200160002083815481106107cf576107cf6122b8565b9060005260206000200181905550600560008481526020019081526020016000208054806107ff576107ff612362565b6000828152602080822083016000199081018390559092019092558682526004908190526040918290206002810154600182015493516001600160a01b039091169387938a937f3cf57863a89432c61c4a27073c6ee39e8a764bff5a05aebfbcdcdc80b2e6130a93610880939260038301929081019160059091019061242f565b60405180910390a46000858152600460205260408120818155600181018290556002810180546001600160a01b0319169055906108c06003830182611c7a565b6108ce600483016000611c7a565b6108dc600583016000611c7a565b5060019695505050505050565b60065460009060ff6101009091041615156001146109195760405162461bcd60e51b81526004016103f990612215565b3330148061093657506109363360405160200161041f9190612171565b6109525760405162461bcd60e51b81526004016103f990612268565b60008381526001602052604090206002015483146109bc5760405162461bcd60e51b815260206004820152602160248201527f4e6f6e4578697374696e673a204b65792069736e2774207265676973746572656044820152601960fa1b60648201526084016103f9565b600083815260016020908152604080832080548251818502810185019093528083529192909190830182828015610a1257602002820191906000526020600020905b8154815260200190600101908083116109fe575b5050505050905060005b83828281518110610a2f57610a2f6122b8565b602002602001015114610ab15780610a4681612336565b91505081518103610aac5760405162461bcd60e51b815260206004820152602a60248201527f4e6f6e4578697374696e673a204b657920646f65736e27742068617665207375604482015269636820707572706f736560b01b60648201526084016103f9565b610a1c565b8160018351610ac0919061234f565b81518110610ad057610ad06122b8565b6020026020010151828281518110610aea57610aea6122b8565b602090810291909101810191909152600086815260018252604090208351610b1492850190611c2f565b506000858152600160205260409020805480610b3257610b32612362565b6000828152602080822083016000199081018390559092019092558582526002905260408120545b6000868152600260205260409020805488919084908110610b7d57610b7d6122b8565b906000526020600020015414610ba25781610b9781612336565b925050808210610b5a575b6000868152600260205260409020610bbb60018361234f565b81548110610bcb57610bcb6122b8565b9060005260206000200154600260008881526020019081526020016000208381548110610bfa57610bfa6122b8565b906000526020600020018190555060026000878152602001908152602001600020805480610c2a57610c2a612362565b6001900381819060005260206000200160009055905560006001600089815260200190815260200160002060010154905060018551610c69919061234f565b600003610c9a57600088815260016020526040812090610c898282611cb4565b506000600182018190556002909101555b8087897f585a4aef50f8267a92b32412b331b20f7f8b96f2245b253b9cc50dcc621d339760405160405180910390a46001955050505050505b92915050565b60065460009060ff610100909104161515600114610d095760405162461bcd60e51b81526004016103f990612215565b6000548310610d6a5760405162461bcd60e51b815260206004820152602760248201527f43616e6e6f7420617070726f76652061206e6f6e2d6578697374696e6720657860448201526632b1baba34b7b760c91b60648201526084016103f9565b60008381526003602081905260409091200154610100900460ff1615610dcd5760405162461bcd60e51b815260206004820152601860248201527714995c5d595cdd08185b1c9958591e48195e1958dd5d195960421b60448201526064016103f9565b600083815260036020526040902054306001600160a01b0390911603610e5e57610e013360405160200161041f9190612171565b610e595760405162461bcd60e51b815260206004820152602360248201527f53656e64657220646f6573206e6f742068617665206d616e6167656d656e74206044820152626b657960e81b60648201526084016103f9565b610edb565b610e8f33604051602001610e729190612171565b604051602081830303815290604052805190602001206002611975565b610edb5760405162461bcd60e51b815260206004820152601f60248201527f53656e64657220646f6573206e6f74206861766520616374696f6e206b65790060448201526064016103f9565b827fb3932da477fe5d6c8ff2eafef050c0f3a1af18fc07121001482600f36f3715d883604051610f0f911515815260200190565b60405180910390a281151560010361109757600083815260036020819052604091829020908101805460ff1916600190811790915581549082015492516001600160a01b039091169291610f689160029091019061246e565b60006040518083038185875af1925050503d8060008114610fa5576040519150601f19603f3d011682016040523d82523d6000602084013e610faa565b606091505b5090915050801561102f57600083815260036020819052604091829020908101805461ff00191661010017905560018101548154925190926001600160a01b03169186917f1f920dbda597d7bf95035464170fa58d0a4b57f13a1c315ace6793b9f63688b89161101f916002909101906124e4565b60405180910390a4506001610cd3565b6000838152600360205260409081902060018101548154925190926001600160a01b03169186917fe10c49d9f7c71da23262367013434763cfdb2332267641728d25cd712c5c6a6891611087916002909101906124e4565b60405180910390a4506000610cd3565b50506000908152600360208190526040822001805460ff1916905590565b60008181526005602090815260409182902080548351818402810184019094528084526060939283018282801561110b57602002820191906000526020600020905b8154815260200190600101908083116110f7575b50505050509050919050565b60008181526002602090815260409182902080548351818402810184019094528084526060939283018282801561110b57602002820191906000526020600020908154815260200190600101908083116110f75750505050509050919050565b60065460009060ff6101009091041615156001146111a75760405162461bcd60e51b81526004016103f990612215565b333014806111c457506111c4336040516020016106739190612171565b6111e05760405162461bcd60e51b81526004016103f9906122ce565b6001600160a01b038516301461129f5760405163604b4d3760e11b81526001600160a01b0386169063c0969a6e906112229030908b90899089906004016124f7565b602060405180830381865afa15801561123f573d6000803e3d6000fd5b505050506040513d601f19601f820116820180604052508101906112639190612530565b61129f5760405162461bcd60e51b815260206004820152600d60248201526c696e76616c696420636c61696d60981b60448201526064016103f9565b604080516001600160a01b038716602082015290810188905260009060600160408051601f198184030181529181528151602092830120600081815260049093529120898155600181018990559091506003016112fc868261259e565b50600081815260046020819052604090912001611319858261259e565b506000818152600460205260409020600501611335848261259e565b506000818152600460205260409020600201546001600160a01b038781169116146113ee57600088815260056020908152604080832080546001810182559084528284200184905583835260049091529081902060020180546001600160a01b0319166001600160a01b0389169081179091559051899083907f46149b18aa084502c3f12bc75e19eda8bda8d102b82cce8474677a6d0d5f43c5906113e1908c908b908b908b9061265e565b60405180910390a4611438565b856001600160a01b031688827f3bab293fc00db832d7619a9299914251b8747c036867ec056cbd506f60135b138a89898960405161142f949392919061265e565b60405180910390a45b979650505050505050565b60065460009060ff6101009091041615156001146114735760405162461bcd60e51b81526004016103f990612215565b600080548082526003602052604090912080546001600160a01b0319166001600160a01b038716178155600181018590556002016114b1848261259e565b506000805490806114c183612336565b919050555083856001600160a01b0316827f8afcfabcb00e47a53a8fc3e9f23ff47ee1926194bb1350dd007c50b412a6cee8866040516115019190611e35565b60405180910390a461151d3360405160200161041f9190612171565b156115335761152d816001610cd9565b5061156d565b6001600160a01b038516301480159061155b575061155b33604051602001610e729190612171565b1561156d5761156b816001610cd9565b505b949350505050565b60008085858460405160200161158d9392919061269d565b6040516020818303038152906040528051906020012090506000816040516020016115e491907f19457468657265756d205369676e6564204d6573736167653a0a3332000000008152601c810191909152603c0190565b60405160208183030381529060405280519060200120905060006116088683611661565b905060008160405160200161161d9190612171565b604051602081830303815290604052805190602001209050611640816003611975565b1561165257600194505050505061156d565b50600098975050505050505050565b600080600080855160411461167c5760009350505050610cd3565b50505060208301516040840151606085015160001a601b8110156116a8576116a5601b826126cd565b90505b6040805160008082526020820180845288905260ff841692820192909252606081018590526080810184905260019060a0016020604051602081039080840390855afa1580156116fc573d6000803e3d6000fd5b5050604051601f19015198975050505050505050565b6001600160a01b0381166117685760405162461bcd60e51b815260206004820152601f60248201527f696e76616c696420617267756d656e74202d207a65726f20616464726573730060448201526064016103f9565b61177181611acc565b50565b600081815260046020819052604082208054600182015460028301546003840180548796879660609687968796919590946001600160a01b039092169390929081019160059091019083906117c890612378565b80601f01602080910402602001604051908101604052809291908181526020018280546117f490612378565b80156118415780601f1061181657610100808354040283529160200191611841565b820191906000526020600020905b81548152906001019060200180831161182457829003601f168201915b5050505050925081805461185490612378565b80601f016020809104026020016040519081016040528092919081815260200182805461188090612378565b80156118cd5780601f106118a2576101008083540402835291602001916118cd565b820191906000526020600020905b8154815290600101906020018083116118b057829003601f168201915b505050505091508080546118e090612378565b80601f016020809104026020016040519081016040528092919081815260200182805461190c90612378565b80156119595780601f1061192e57610100808354040283529160200191611959565b820191906000526020600020905b81548152906001019060200180831161193c57829003601f168201915b5050505050905095509550955095509550955091939550919395565b600082815260016020908152604080832081518154608094810282018501909352606081018381528594919384928491908401828280156119d557602002820191906000526020600020905b8154815260200190600101908083116119c1575b505050918352505060018201546020820152600290910154604091820152810151909150600003611a0a576000915050610cd3565b60005b815151811015611a6157600082600001518281518110611a2f57611a2f6122b8565b602002602001015190508060011480611a4757508481145b15611a585760019350505050610cd3565b50600101611a0d565b506000949350505050565b60008181526001602090815260409182902080548351818402810184019094528084526060939283018282801561110b57602002820191906000526020600020908154815260200190600101908083116110f75750505050509050919050565b60065460ff161580611add5750303b155b611b295760405162461bcd60e51b815260206004820152601e60248201527f496e697469616c206b65792077617320616c72656164792073657475702e000060448201526064016103f9565b6006805461ffff1916610101179055604051600090611b4c908390602001612171565b60408051601f198184030181528282528051602091820120600081815260018084528482206002810184905586850190955280865290829052918290529350611b959290611cd2565b506000818152600160208181526040808420830183905560029091527fe90b7bceb6e7df5418fb78d8ee546e97c83a08bbccc01a0644d599ccd2a7c2e0805480840182559084527f7fef4bf8f63cf9dd467136c679c02b5c17fcf6322d9562512bf5eb952cf7cc5301849055519091829184917f480000bb1edad8ca1470381cc334b1917fbd51c6531f3a623ea8e0ec7e38a6e991a45050565b828054828255906000526020600020908101928215611c6a579160200282015b82811115611c6a578251825591602001919060010190611c4f565b50611c76929150611d12565b5090565b508054611c8690612378565b6000825580601f10611c96575050565b601f0160209004906000526020600020908101906117719190611d12565b50805460008255906000526020600020908101906117719190611d12565b828054828255906000526020600020908101928215611c6a579160200282015b82811115611c6a578251829060ff16905591602001919060010190611cf2565b5b80821115611c765760008155600101611d13565b600060208284031215611d3957600080fd5b5035919050565b60008151808452602080850194506020840160005b83811015611d7157815187529582019590820190600101611d55565b509495945050505050565b606081526000611d8f6060830186611d40565b60208301949094525060400152919050565b600080600060608486031215611db657600080fd5b505081359360208301359350604090920135919050565b60008060408385031215611de057600080fd5b50508035926020909101359150565b6000815180845260005b81811015611e1557602081850181015186830182015201611df9565b506000602082860101526020601f19601f83011685010191505092915050565b602081526000611e486020830184611def565b9392505050565b801515811461177157600080fd5b60008060408385031215611e7057600080fd5b823591506020830135611e8281611e4f565b809150509250929050565b6020808252825182820181905260009190848201906040850190845b81811015611ec557835183529284019291840191600101611ea9565b50909695505050505050565b6001600160a01b038116811461177157600080fd5b634e487b7160e01b600052604160045260246000fd5b600067ffffffffffffffff80841115611f1757611f17611ee6565b604051601f8501601f19908116603f01168101908282118183101715611f3f57611f3f611ee6565b81604052809350858152868686011115611f5857600080fd5b858560208301376000602087830101525050509392505050565b600082601f830112611f8357600080fd5b611e4883833560208501611efc565b60008060008060008060c08789031215611fab57600080fd5b86359550602087013594506040870135611fc481611ed1565b9350606087013567ffffffffffffffff80821115611fe157600080fd5b611fed8a838b01611f72565b9450608089013591508082111561200357600080fd5b61200f8a838b01611f72565b935060a089013591508082111561202557600080fd5b508701601f8101891361203757600080fd5b61204689823560208401611efc565b9150509295509295509295565b60008060006060848603121561206857600080fd5b833561207381611ed1565b925060208401359150604084013567ffffffffffffffff81111561209657600080fd5b6120a286828701611f72565b9150509250925092565b600080600080608085870312156120c257600080fd5b84356120cd81611ed1565b935060208501359250604085013567ffffffffffffffff808211156120f157600080fd5b6120fd88838901611f72565b9350606087013591508082111561211357600080fd5b5061212087828801611f72565b91505092959194509250565b6000806040838503121561213f57600080fd5b823567ffffffffffffffff81111561215657600080fd5b61216285828601611f72565b95602094909401359450505050565b6001600160a01b0391909116815260200190565b60006020828403121561219757600080fd5b8135611e4881611ed1565b86815285602082015260018060a01b038516604082015260c0606082015260006121cf60c0830186611def565b82810360808401526121e18186611def565b905082810360a08401526121f58185611def565b9998505050505050505050565b602081526000611e486020830184611d40565b60208082526033908201527f496e746572616374696e67207769746820746865206c69627261727920636f6e6040820152723a3930b1ba1034b9903337b93134b23232b71760691b606082015260800190565b60208082526030908201527f5065726d697373696f6e733a2053656e64657220646f6573206e6f742068617660408201526f65206d616e6167656d656e74206b657960801b606082015260800190565b634e487b7160e01b600052603260045260246000fd5b60208082526032908201527f5065726d697373696f6e733a2053656e64657220646f6573206e6f74206861766040820152716520636c61696d207369676e6572206b657960701b606082015260800190565b634e487b7160e01b600052601160045260246000fd5b60006001820161234857612348612320565b5060010190565b81810381811115610cd357610cd3612320565b634e487b7160e01b600052603160045260246000fd5b600181811c9082168061238c57607f821691505b6020821081036123ac57634e487b7160e01b600052602260045260246000fd5b50919050565b600081546123bf81612378565b8085526020600183811680156123dc57600181146123f657612424565b60ff1985168884015283151560051b880183019550612424565b866000528260002060005b8581101561241c5781548a8201860152908301908401612401565b890184019650505b505050505092915050565b84815260806020820152600061244860808301866123b2565b828103604084015261245a81866123b2565b9050828103606084015261143881856123b2565b600080835461247c81612378565b6001828116801561249457600181146124a9576124d8565b60ff19841687528215158302870194506124d8565b8760005260208060002060005b858110156124cf5781548a8201529084019082016124b6565b50505082870194505b50929695505050505050565b602081526000611e4860208301846123b2565b60018060a01b038516815283602082015260806040820152600061251e6080830185611def565b82810360608401526114388185611def565b60006020828403121561254257600080fd5b8151611e4881611e4f565b601f821115612599576000816000526020600020601f850160051c810160208610156125765750805b601f850160051c820191505b8181101561259557828155600101612582565b5050505b505050565b815167ffffffffffffffff8111156125b8576125b8611ee6565b6125cc816125c68454612378565b8461254d565b602080601f83116001811461260157600084156125e95750858301515b600019600386901b1c1916600185901b178555612595565b600085815260208120601f198616915b8281101561263057888601518255948401946001909101908401612611565b508582101561264e5787850151600019600388901b60f8161c191681555b5050505050600190811b01905550565b8481526080602082015260006126776080830186611def565b82810360408401526126898186611def565b905082810360608401526114388185611def565b60018060a01b03841681528260208201526060604082015260006126c46060830184611def565b95945050505050565b60ff8181168382160190811115610cd357610cd361232056fea2646970667358221220a7078fe25703e912544fdd3fd3847a0c8daac96d1c9935dfc42cb2943dc4308964736f6c63430008180033",
  "linkReferences": {},
  "deployedLinkReferences": {}
}