{
  "_format": "hh-sol-artifact-1",
  "contractName": "IdFactory",
  "sourceName": "contracts/onchainid/factory/IdFactory.sol",
  "abi": [
    {
      "inputs": [
        {
          "internalType": "address",
          "name": "implementationAuthority",
          "type": "address"
        }
      ],
      "stateMutability": "nonpayable",
      "type": "constructor"
    },
    {
      "inputs": [
        {
          "internalType": "address",
          "name": "owner",
          "type": "address"
        }
      ],
      "name": "OwnableInvalidOwner",
      "type": "error"
    },
    {
      "inputs": [
        {
          "internalType": "address",
          "name": "account",
          "type": "address"
        }
      ],
      "name": "OwnableUnauthorizedAccount",
      "type": "error"
    },
    {
      "anonymous": false,
      "inputs": [
        {
          "indexed": true,
          "internalType": "address",
          "name": "_addr",
          "type": "address"
        }
      ],
      "name": "Deployed",
      "type": "event"
    },
    {
      "anonymous": false,
      "inputs": [
        {
          "indexed": true,
          "internalType": "address",
          "name": "previousOwner",
          "type": "address"
        },
        {
          "indexed": true,
          "internalType": "address",
          "name": "newOwner",
          "type": "address"
        }
      ],
      "name": "OwnershipTransferred",
      "type": "event"
    },
    {
      "anonymous": false,
      "inputs": [
        {
          "indexed": true,
          "internalType": "address",
          "name": "factory",
          "type": "address"
        }
      ],
      "name": "TokenFactoryAdded",
      "type": "event"
    },
    {
      "anonymous": false,
      "inputs": [
        {
          "indexed": true,
          "internalType": "address",
          "name": "factory",
          "type": "address"
        }
      ],
      "name": "TokenFactoryRemoved",
      "type": "event"
    },
    {
      "anonymous": false,
      "inputs": [
        {
          "indexed": true,
          "internalType": "address",
          "name": "token",
          "type": "address"
        },
        {
          "indexed": true,
          "internalType": "address",
          "name": "identity",
          "type": "address"
        }
      ],
      "name": "TokenLinked",
      "type": "event"
    },
    {
      "anonymous": false,
      "inputs": [
        {
          "indexed": true,
          "internalType": "address",
          "name": "wallet",
          "type": "address"
        },
        {
          "indexed": true,
          "internalType": "address",
          "name": "identity",
          "type": "address"
        }
      ],
      "name": "WalletLinked",
      "type": "event"
    },
    {
      "anonymous": false,
      "inputs": [
        {
          "indexed": true,
          "internalType": "address",
          "name": "wallet",
          "type": "address"
        },
        {
          "indexed": true,
          "internalType": "address",
          "name": "identity",
          "type": "address"
        }
      ],
      "name": "WalletUnlinked",
      "type": "event"
    },
    {
      "inputs": [
        {
          "internalType": "address",
          "name": "_factory",
          "type": "address"
        }
      ],
      "name": "addTokenFactory",
      "outputs": [],
      "stateMutability": "nonpayable",
      "type": "function"
    },
    {
      "inputs": [
        {
          "internalType": "address",
          "name": "_wallet",
          "type": "address"
        },
        {
          "internalType": "string",
          "name": "_salt",
          "type": "string"
        }
      ],
      "name": "createIdentity",
      "outputs": [
        {
          "internalType": "address",
          "name": "",
          "type": "address"
        }
      ],
      "stateMutability": "nonpayable",
      "type": "function"
    },
    {
      "inputs": [
        {
          "internalType": "address",
          "name": "_wallet",
          "type": "address"
        },
        {
          "internalType": "string",
          "name": "_salt",
          "type": "string"
        },
        {
          "internalType": "bytes32[]",
          "name": "_managementKeys",
          "type": "bytes32[]"
        }
      ],
      "name": "createIdentityWithManagementKeys",
      "outputs": [
        {
          "internalType": "address",
          "name": "",
          "type": "address"
        }
      ],
      "stateMutability": "nonpayable",
      "type": "function"
    },
    {
      "inputs": [
        {
          "internalType": "address",
          "name": "_token",
          "type": "address"
        },
        {
          "internalType": "address",
          "name": "_tokenOwner",
          "type": "address"
        },
        {
          "internalType": "string",
          "name": "_salt",
          "type": "string"
        }
      ],
      "name": "createTokenIdentity",
      "outputs": [
        {
          "internalType": "address",
          "name": "",
          "type": "address"
        }
      ],
      "stateMutability": "nonpayable",
      "type": "function"
    },
    {
      "inputs": [
        {
          "internalType": "address",
          "name": "_wallet",
          "type": "address"
        }
      ],
      "name": "getIdentity",
      "outputs": [
        {
          "internalType": "address",
          "name": "",
          "type": "address"
        }
      ],
      "stateMutability": "view",
      "type": "function"
    },
    {
      "inputs": [
        {
          "internalType": "address",
          "name": "_identity",
          "type": "address"
        }
      ],
      "name": "getToken",
      "outputs": [
        {
          "internalType": "address",
          "name": "",
          "type": "address"
        }
      ],
      "stateMutability": "view",
      "type": "function"
    },
    {
      "inputs": [
        {
          "internalType": "address",
          "name": "_identity",
          "type": "address"
        }
      ],
      "name": "getWallets",
      "outputs": [
        {
          "internalType": "address[]",
          "name": "",
          "type": "address[]"
        }
      ],
      "stateMutability": "view",
      "type": "function"
    },
    {
      "inputs": [],
      "name": "implementationAuthority",
      "outputs": [
        {
          "internalType": "address",
          "name": "",
          "type": "address"
        }
      ],
      "stateMutability": "view",
      "type": "function"
    },
    {
      "inputs": [
        {
          "internalType": "string",
          "name": "_salt",
          "type": "string"
        }
      ],
      "name": "isSaltTaken",
      "outputs": [
        {
          "internalType": "bool",
          "name": "",
          "type": "bool"
        }
      ],
      "stateMutability": "view",
      "type": "function"
    },
    {
      "inputs": [
        {
          "internalType": "address",
          "name": "_factory",
          "type": "address"
        }
      ],
      "name": "isTokenFactory",
      "outputs": [
        {
          "internalType": "bool",
          "name": "",
          "type": "bool"
        }
      ],
      "stateMutability": "view",
      "type": "function"
    },
    {
      "inputs": [
        {
          "internalType": "address",
          "name": "_newWallet",
          "type": "address"
        }
      ],
      "name": "linkWallet",
      "outputs": [],
      "stateMutability": "nonpayable",
      "type": "function"
    },
    {
      "inputs": [],
      "name": "owner",
      "outputs": [
        {
          "internalType": "address",
          "name": "",
          "type": "address"
        }
      ],
      "stateMutability": "view",
      "type": "function"
    },
    {
      "inputs": [
        {
          "internalType": "address",
          "name": "_factory",
          "type": "address"
        }
      ],
      "name": "removeTokenFactory",
      "outputs": [],
      "stateMutability": "nonpayable",
      "type": "function"
    },
    {
      "inputs": [],
      "name": "renounceOwnership",
      "outputs": [],
      "stateMutability": "nonpayable",
      "type": "function"
    },
    {
      "inputs": [
        {
          "internalType": "address",
          "name": "newOwner",
          "type": "address"
        }
      ],
      "name": "transferOwnership",
      "outputs": [],
      "stateMutability": "nonpayable",
      "type": "function"
    },
    {
      "inputs": [
        {
          "internalType": "address",
          "name": "_oldWallet",
          "type": "address"
        }
      ],
      "name": "unlinkWallet",
      "outputs": [],
      "stateMutability": "nonpayable",
      "type": "function"
    }
  ],
  "bytecode": "0x60a06040523480156200001157600080fd5b50604051620022c6380380620022c6833981016040819052620000349162000122565b33806200005c57604051631e4fbdf760e01b8152600060048201526024015b60405180910390fd5b6200006781620000d2565b506001600160a01b038116620000c05760405162461bcd60e51b815260206004820152601f60248201527f696e76616c696420617267756d656e74202d207a65726f206164647265737300604482015260640162000053565b6001600160a01b031660805262000154565b600080546001600160a01b038381166001600160a01b0319831681178455604051919092169283917f8be0079c531659141344cd1fd0a4f28419497f9722a3daafe3b4186f6b6457e09190a35050565b6000602082840312156200013557600080fd5b81516001600160a01b03811681146200014d57600080fd5b9392505050565b608051612142620001846000396000818160fa0152818161057701528181610b1e01526111ee01526121426000f3fe60806040523480156200001157600080fd5b5060043610620000f35760003560e01c8063715018a61162000092578063715018a6146200020d5780638da5cb5b14620002175780638e952bfe1462000229578063937529ef14620002405780639ce193651462000257578063b8bb8126146200026e578063f2fde38b1462000285578063fe5cd59a146200029c57600080fd5b80632307f88214620000f85780632fea7b8114620001325780633a50045114620001495780633d56ff6614620001715780633e3bc3d71462000188578063422c29a4146200019f5780635027dbe214620001c55780635977043814620001de575b600080fd5b7f00000000000000000000000000000000000000000000000000000000000000005b6040516200012991906200167c565b60405180910390f35b6200011a62000143366004620016a8565b620002b3565b620001606200015a366004620016cd565b62000319565b604051901515815260200162000129565b6200011a6200018236600462001805565b6200034b565b6200016062000199366004620016a8565b62000645565b620001b6620001b0366004620016a8565b62000663565b6040516200012991906200186b565b620001dc620001d6366004620016a8565b620006db565b005b6200011a620001ef366004620016a8565b6001600160a01b039081166000908152600660205260409020541690565b620001dc620009a7565b6000546001600160a01b03166200011a565b6200011a6200023a366004620018ba565b620009bf565b620001dc62000251366004620016a8565b62000beb565b620001dc62000268366004620016a8565b62000cb0565b620001dc6200027f366004620016a8565b62000d80565b620001dc62000296366004620016a8565b62000fe9565b6200011a620002ad3660046200190e565b6200102e565b6001600160a01b0381811660009081526005602052604081205490911615620002f557506001600160a01b039081166000908152600560205260409020541690565b506001600160a01b039081166000908152600360205260409020541690565b919050565b6000600283836040516200032f929190620019fb565b9081526040519081900360200190205460ff1690505b92915050565b6000620003583362000645565b806200036e57506000546001600160a01b031633145b620003c05760405162461bcd60e51b815260206004820152601e60248201527f6f6e6c7920466163746f7279206f72206f776e65722063616e2063616c6c000060448201526064015b60405180910390fd5b6001600160a01b038416620003e95760405162461bcd60e51b8152600401620003b79062001a0b565b6001600160a01b038316620004125760405162461bcd60e51b8152600401620003b79062001a0b565b6040516020016200042e90602080825260009082015260400190565b604051602081830303815290604052805190602001208260405160200162000457919062001a68565b60405160208183030381529060405280519060200120036200048d5760405162461bcd60e51b8152600401620003b79062001a9d565b600082604051602001620004a2919062001ad4565b6040516020818303038152906040529050600281604051620004c5919062001b03565b9081526040519081900360200190205460ff1615620004f85760405162461bcd60e51b8152600401620003b79062001b21565b6001600160a01b0385811660009081526005602052604090205416156200056e5760405162461bcd60e51b815260206004820152602360248201527f746f6b656e20616c7265616479206c696e6b656420746f20616e206964656e7460448201526269747960e81b6064820152608401620003b7565b60006200059d827f000000000000000000000000000000000000000000000000000000000000000087620014d6565b90506001600283604051620005b3919062001b03565b9081526040805160209281900383018120805460ff1916941515949094179093556001600160a01b0389811660008181526005855283812080546001600160a01b0319908116948916948517909155838252600690955292832080549094168117909355927fa8261d398ddc63db24cc53cd0c63c9464cabad1bc478ede2107b32c1c4010b7a9190a395945050505050565b6001600160a01b031660009081526001602052604090205460ff1690565b6001600160a01b038116600090815260046020908152604091829020805483518184028101840190945280845260609392830182828015620006cf57602002820191906000526020600020905b81546001600160a01b03168152600190910190602001808311620006b0575b50505050509050919050565b6001600160a01b038116620007045760405162461bcd60e51b8152600401620003b79062001a0b565b336001600160a01b03821603620007695760405162461bcd60e51b815260206004820152602260248201527f63616e6e6f742062652063616c6c6564206f6e2073656e646572206164647265604482015261737360f01b6064820152608401620003b7565b6001600160a01b03808216600090815260036020526040808220543383529120548216911614620007dd5760405162461bcd60e51b815260206004820152601f60248201527f6f6e6c792061206c696e6b65642077616c6c65742063616e20756e6c696e6b006044820152606401620003b7565b6001600160a01b03808216600090815260036020908152604080832080546001600160a01b03198116909155909316808352600490915291812054905b8181101562000961576001600160a01b0383811660009081526004602052604090208054918616918390811062000855576200085562001b4d565b6000918252602090912001546001600160a01b03160362000958576001600160a01b03831660009081526004602052604090206200089560018462001b63565b81548110620008a857620008a862001b4d565b60009182526020808320909101546001600160a01b03868116845260049092526040909220805491909216919083908110620008e857620008e862001b4d565b600091825260208083209190910180546001600160a01b0319166001600160a01b03948516179055918516815260049091526040902080548062000930576200093062001b85565b600082815260209020810160001990810180546001600160a01b031916905501905562000961565b6001016200081a565b50816001600160a01b0316836001600160a01b03167f35e6fc363a4bf723d53b26c1a751674aca9c3ead425f0591f84f5540ede86f1260405160405180910390a3505050565b620009b162001566565b620009bd600062001596565b565b6000620009cb62001566565b6001600160a01b038316620009f45760405162461bcd60e51b8152600401620003b79062001a0b565b60405160200162000a1090602080825260009082015260400190565b604051602081830303815290604052805190602001208260405160200162000a39919062001a68565b604051602081830303815290604052805190602001200362000a6f5760405162461bcd60e51b8152600401620003b79062001a9d565b60008260405160200162000a84919062001b9b565b604051602081830303815290604052905060028160405162000aa7919062001b03565b9081526040519081900360200190205460ff161562000ada5760405162461bcd60e51b8152600401620003b79062001b21565b6001600160a01b03848116600090815260036020526040902054161562000b155760405162461bcd60e51b8152600401620003b79062001bc8565b600062000b44827f000000000000000000000000000000000000000000000000000000000000000087620014d6565b9050600160028360405162000b5a919062001b03565b9081526040805160209281900383018120805460ff1916941515949094179093556001600160a01b0388811660008181526003855283812080546001600160a01b031990811694891694851790915583825260048652938120805460018101825590825294812090940180549093168117909255929091600080516020620020ed83398151915291a3949350505050565b62000bf562001566565b6001600160a01b03811662000c1e5760405162461bcd60e51b8152600401620003b79062001a0b565b62000c298162000645565b62000c675760405162461bcd60e51b815260206004820152600d60248201526c6e6f74206120666163746f727960981b6044820152606401620003b7565b6001600160a01b038116600081815260016020526040808220805460ff19169055517fd1fd5274f793d20291c0abfe42e1ef63213a11b34996d485f7afb8fe014248519190a250565b62000cba62001566565b6001600160a01b03811662000ce35760405162461bcd60e51b8152600401620003b79062001a0b565b62000cee8162000645565b1562000d315760405162461bcd60e51b8152602060048201526011602482015270616c7265616479206120666163746f727960781b6044820152606401620003b7565b6001600160a01b0381166000818152600160208190526040808320805460ff1916909217909155517f45eb8ac5344d2d3f306550fe6e969ca4190526313c512afed851d052bf2ab2fd9190a250565b6001600160a01b03811662000da95760405162461bcd60e51b8152600401620003b79062001a0b565b336000908152600360205260409020546001600160a01b031662000e225760405162461bcd60e51b815260206004820152602960248201527f77616c6c6574206e6f74206c696e6b656420746f20616e206964656e746974796044820152680818dbdb9d1c9858dd60ba1b6064820152608401620003b7565b6001600160a01b03818116600090815260036020526040902054161562000e885760405162461bcd60e51b81526020600482015260196024820152781b995dc81dd85b1b195d08185b1c9958591e481b1a5b9ad959603a1b6044820152606401620003b7565b6001600160a01b03818116600090815260056020526040902054161562000ef25760405162461bcd60e51b815260206004820181905260248201527f696e76616c696420617267756d656e74202d20746f6b656e20616464726573736044820152606401620003b7565b336000908152600360209081526040808320546001600160a01b031680845260049092529091205460651162000f795760405162461bcd60e51b815260206004820152602560248201527f6d617820616d6f756e74206f662077616c6c6574732070657220494420657863604482015264195959195960da1b6064820152608401620003b7565b6001600160a01b03808316600081815260036020908152604080832080549587166001600160a01b03199687168117909155808452600483528184208054600181018255908552928420909201805490951684179094559251600080516020620020ed8339815191529190a35050565b62000ff362001566565b6001600160a01b03811662001020576000604051631e4fbdf760e01b8152600401620003b791906200167c565b6200102b8162001596565b50565b60006200103a62001566565b6001600160a01b038416620010635760405162461bcd60e51b8152600401620003b79062001a0b565b6040516020016200107f90602080825260009082015260400190565b6040516020818303038152906040528051906020012083604051602001620010a8919062001a68565b6040516020818303038152906040528051906020012003620010de5760405162461bcd60e51b8152600401620003b79062001a9d565b600083604051602001620010f3919062001b9b565b604051602081830303815290604052905060028160405162001116919062001b03565b9081526040519081900360200190205460ff1615620011495760405162461bcd60e51b8152600401620003b79062001b21565b6001600160a01b038581166000908152600360205260409020541615620011845760405162461bcd60e51b8152600401620003b79062001bc8565b6000835111620011e55760405162461bcd60e51b815260206004820152602560248201527f696e76616c696420617267756d656e74202d20656d707479206c697374206f66604482015264206b65797360d81b6064820152608401620003b7565b600062001214827f000000000000000000000000000000000000000000000000000000000000000030620014d6565b905060005b84518110156200138d57866040516020016200123691906200167c565b6040516020818303038152906040528051906020012085828151811062001261576200126162001b4d565b602002602001015103620012de5760405162461bcd60e51b815260206004820152603b60248201527f696e76616c696420617267756d656e74202d2077616c6c657420697320616c7360448201527f6f206c697374656420696e206d616e6167656d656e74206b65797300000000006064820152608401620003b7565b816001600160a01b0316631d38124086838151811062001302576200130262001b4d565b60200260200101516001806040518463ffffffff1660e01b81526004016200133d939291909283526020830191909152604082015260600190565b6020604051808303816000875af11580156200135d573d6000803e3d6000fd5b505050506040513d601f19601f8201168201806040525081019062001383919062001c0c565b5060010162001219565b50806001600160a01b03166353d413c530604051602001620013b091906200167c565b60408051601f198184030181529082905280516020909101206001600160e01b031960e084901b1682526004820152600160248201526044016020604051808303816000875af115801562001409573d6000803e3d6000fd5b505050506040513d601f19601f820116820180604052508101906200142f919062001c0c565b50600160028360405162001444919062001b03565b9081526040805160209281900383018120805460ff1916941515949094179093556001600160a01b0389811660008181526003855283812080546001600160a01b031990811694891694851790915583825260048652938120805460018101825590825294812090940180549093168117909255929091600080516020620020ed83398151915291a395945050505050565b60008060405180602001620014eb906200166e565b601f1982820381018352601f9091011660408181526001600160a01b038781166020840152861681830152805180830382018152606083019091529192506000906200153e908490849060800162001c30565b60405160208183030381529060405290506200155b8782620015e6565b979650505050505050565b6000546001600160a01b03163314620009bd573360405163118cdaa760e01b8152600401620003b791906200167c565b600080546001600160a01b038381166001600160a01b0319831681178455604051919092169283917f8be0079c531659141344cd1fd0a4f28419497f9722a3daafe3b4186f6b6457e09190a35050565b60008083604051602001620015fc919062001b03565b60405160208183030381529060405280519060200120905060008360200184518381836000f592505050803b6200163257600080fd5b6040516001600160a01b038216907ff40fcec21964ffb566044d083b4073f29f7f7929110ea19e1b3ebe375d89055e90600090a2949350505050565b6104898062001c6483390190565b6001600160a01b0391909116815260200190565b80356001600160a01b03811681146200031457600080fd5b600060208284031215620016bb57600080fd5b620016c68262001690565b9392505050565b60008060208385031215620016e157600080fd5b823567ffffffffffffffff80821115620016fa57600080fd5b818501915085601f8301126200170f57600080fd5b8135818111156200171f57600080fd5b8660208285010111156200173257600080fd5b60209290920196919550909350505050565b634e487b7160e01b600052604160045260246000fd5b604051601f8201601f1916810167ffffffffffffffff8111828210171562001786576200178662001744565b604052919050565b600082601f830112620017a057600080fd5b813567ffffffffffffffff811115620017bd57620017bd62001744565b620017d2601f8201601f19166020016200175a565b818152846020838601011115620017e857600080fd5b816020850160208301376000918101602001919091529392505050565b6000806000606084860312156200181b57600080fd5b620018268462001690565b9250620018366020850162001690565b9150604084013567ffffffffffffffff8111156200185357600080fd5b62001861868287016200178e565b9150509250925092565b6020808252825182820181905260009190848201906040850190845b81811015620018ae5783516001600160a01b03168352928401929184019160010162001887565b50909695505050505050565b60008060408385031215620018ce57600080fd5b620018d98362001690565b9150602083013567ffffffffffffffff811115620018f657600080fd5b62001904858286016200178e565b9150509250929050565b6000806000606084860312156200192457600080fd5b6200192f8462001690565b925060208085013567ffffffffffffffff808211156200194e57600080fd5b6200195c888389016200178e565b945060408701359150808211156200197357600080fd5b818701915087601f8301126200198857600080fd5b8135818111156200199d576200199d62001744565b8060051b9150620019b08483016200175a565b818152918301840191848101908a841115620019cb57600080fd5b938501935b83851015620019eb57843582529385019390850190620019d0565b8096505050505050509250925092565b8183823760009101908152919050565b6020808252601f908201527f696e76616c696420617267756d656e74202d207a65726f206164647265737300604082015260600190565b60005b8381101562001a5f57818101518382015260200162001a45565b50506000910152565b602081526000825180602084015262001a8981604085016020870162001a42565b601f01601f19169190910160400192915050565b6020808252601f908201527f696e76616c696420617267756d656e74202d20656d70747920737472696e6700604082015260600190565b642a37b5b2b760d91b81526000825162001af681600585016020870162001a42565b9190910160050192915050565b6000825162001b1781846020870162001a42565b9190910192915050565b60208082526012908201527139b0b63a1030b63932b0b23c903a30b5b2b760711b604082015260600190565b634e487b7160e01b600052603260045260246000fd5b818103818111156200034557634e487b7160e01b600052601160045260246000fd5b634e487b7160e01b600052603160045260246000fd5b6213d25160ea1b81526000825162001bbb81600385016020870162001a42565b9190910160030192915050565b60208082526024908201527f77616c6c657420616c7265616479206c696e6b656420746f20616e206964656e6040820152637469747960e01b606082015260800190565b60006020828403121562001c1f57600080fd5b81518015158114620016c657600080fd5b6000835162001c4481846020880162001a42565b83519083019062001c5a81836020880162001a42565b0194935050505056fe608060405234801561001057600080fd5b5060405161048938038061048983398101604081905261002f91610271565b6001600160a01b03821661008a5760405162461bcd60e51b815260206004820152601f60248201527f696e76616c696420617267756d656e74202d207a65726f20616464726573730060448201526064015b60405180910390fd5b6001600160a01b0381166100e05760405162461bcd60e51b815260206004820152601f60248201527f696e76616c696420617267756d656e74202d207a65726f2061646472657373006044820152606401610081565b817f821f3e4d3d679f19eacc940c87acf846ea6eae24a63058ea750304437a62aafc556000826001600160a01b031663aaf10f426040518163ffffffff1660e01b8152600401602060405180830381865afa158015610143573d6000803e3d6000fd5b505050506040513d601f19601f8201168201806040525081019061016791906102a4565b6040516001600160a01b03848116602483015291925060009183169060440160408051601f198184030181529181526020820180516001600160e01b031663189acdbd60e31b179052516101bb91906102c6565b600060405180830381855af49150503d80600081146101f6576040519150601f19603f3d011682016040523d82523d6000602084013e6101fb565b606091505b505090508061024c5760405162461bcd60e51b815260206004820152601660248201527f496e697469616c697a6174696f6e206661696c65642e000000000000000000006044820152606401610081565b505050506102f5565b80516001600160a01b038116811461026c57600080fd5b919050565b6000806040838503121561028457600080fd5b61028d83610255565b915061029b60208401610255565b90509250929050565b6000602082840312156102b657600080fd5b6102bf82610255565b9392505050565b6000825160005b818110156102e757602081860181015185830152016102cd565b506000920191825250919050565b610185806103046000396000f3fe60806040526004361061001e5760003560e01c80632307f882146100d4575b60006100487f821f3e4d3d679f19eacc940c87acf846ea6eae24a63058ea750304437a62aafc5490565b6001600160a01b031663aaf10f426040518163ffffffff1660e01b8152600401602060405180830381865afa158015610085573d6000803e3d6000fd5b505050506040513d601f19601f820116820180604052508101906100a9919061011f565b90503660008037600080366000846127105a03f43d806000803e8180156100cf57816000f35b816000fd5b3480156100e057600080fd5b507f821f3e4d3d679f19eacc940c87acf846ea6eae24a63058ea750304437a62aafc546040516001600160a01b03909116815260200160405180910390f35b60006020828403121561013157600080fd5b81516001600160a01b038116811461014857600080fd5b939250505056fea2646970667358221220bccdab8e2cac0e2f022b6882be984b21b7c973bc3fb3bdb4bfd201b92cf0bbf564736f6c634300081800338e0c709111388f5480579514d86663489ab1f206fe6da1a0c4d03ac8c318b3c6a2646970667358221220e570cb7ef297e9e4c97a8418745abfe3420a01f0d1b249237bb9f4c6e87c2fbc64736f6c63430008180033",
  "linkReferences": {},
  "deployedLinkReferences": {}
}