{
  "_format": "hh-sol-artifact-1",
  "contractName": "LegacyToken_3_5_2",
  "sourceName": "contracts/erc3643/_testContracts/v_3_5_2/LegacyToken_3_5_2.sol",
  "abi": [
    {
      "anonymous": false,
      "inputs": [
        {
          "indexed": true,
          "internalType": "address",
          "name": "_userAddress",
          "type": "address"
        },
        {
          "indexed": true,
          "internalType": "bool",
          "name": "_isFrozen",
          "type": "bool"
        },
        {
          "indexed": true,
          "internalType": "address",
          "name": "_owner",
          "type": "address"
        }
      ],
      "name": "AddressFrozen",
      "type": "event"
    },
    {
      "anonymous": false,
      "inputs": [
        {
          "indexed": true,
          "internalType": "address",
          "name": "_agent",
          "type": "address"
        }
      ],
      "name": "AgentAdded",
      "type": "event"
    },
    {
      "anonymous": false,
      "inputs": [
        {
          "indexed": true,
          "internalType": "address",
          "name": "_agent",
          "type": "address"
        }
      ],
      "name": "AgentRemoved",
      "type": "event"
    },
    {
      "anonymous": false,
      "inputs": [
        {
          "indexed": true,
          "internalType": "address",
          "name": "owner",
          "type": "address"
        },
        {
          "indexed": true,
          "internalType": "address",
          "name": "spender",
          "type": "address"
        },
        {
          "indexed": false,
          "internalType": "uint256",
          "name": "value",
          "type": "uint256"
        }
      ],
      "name": "Approval",
      "type": "event"
    },
    {
      "anonymous": false,
      "inputs": [
        {
          "indexed": true,
          "internalType": "address",
          "name": "_compliance",
          "type": "address"
        }
      ],
      "name": "ComplianceAdded",
      "type": "event"
    },
    {
      "anonymous": false,
      "inputs": [
        {
          "indexed": true,
          "internalType": "address",
          "name": "_identityRegistry",
          "type": "address"
        }
      ],
      "name": "IdentityRegistryAdded",
      "type": "event"
    },
    {
      "anonymous": false,
      "inputs": [
        {
          "indexed": true,
          "internalType": "address",
          "name": "previousOwner",
          "type": "address"
        },
        {
          "indexed": true,
          "internalType": "address",
          "name": "newOwner",
          "type": "address"
        }
      ],
      "name": "OwnershipTransferred",
      "type": "event"
    },
    {
      "anonymous": false,
      "inputs": [
        {
          "indexed": false,
          "internalType": "address",
          "name": "_userAddress",
          "type": "address"
        }
      ],
      "name": "Paused",
      "type": "event"
    },
    {
      "anonymous": false,
      "inputs": [
        {
          "indexed": false,
          "internalType": "address",
          "name": "_lostWallet",
          "type": "address"
        },
        {
          "indexed": false,
          "internalType": "address",
          "name": "_newWallet",
          "type": "address"
        },
        {
          "indexed": false,
          "internalType": "address",
          "name": "_investorOnchainID",
          "type": "address"
        }
      ],
      "name": "RecoverySuccess",
      "type": "event"
    },
    {
      "anonymous": false,
      "inputs": [
        {
          "indexed": true,
          "internalType": "address",
          "name": "_userAddress",
          "type": "address"
        },
        {
          "indexed": false,
          "internalType": "uint256",
          "name": "_amount",
          "type": "uint256"
        }
      ],
      "name": "TokensFrozen",
      "type": "event"
    },
    {
      "anonymous": false,
      "inputs": [
        {
          "indexed": true,
          "internalType": "address",
          "name": "_userAddress",
          "type": "address"
        },
        {
          "indexed": false,
          "internalType": "uint256",
          "name": "_amount",
          "type": "uint256"
        }
      ],
      "name": "TokensUnfrozen",
      "type": "event"
    },
    {
      "anonymous": false,
      "inputs": [
        {
          "indexed": true,
          "internalType": "address",
          "name": "from",
          "type": "address"
        },
        {
          "indexed": true,
          "internalType": "address",
          "name": "to",
          "type": "address"
        },
        {
          "indexed": false,
          "internalType": "uint256",
          "name": "value",
          "type": "uint256"
        }
      ],
      "name": "Transfer",
      "type": "event"
    },
    {
      "anonymous": false,
      "inputs": [
        {
          "indexed": false,
          "internalType": "address",
          "name": "_userAddress",
          "type": "address"
        }
      ],
      "name": "Unpaused",
      "type": "event"
    },
    {
      "anonymous": false,
      "inputs": [
        {
          "indexed": false,
          "internalType": "string",
          "name": "_newName",
          "type": "string"
        },
        {
          "indexed": false,
          "internalType": "string",
          "name": "_newSymbol",
          "type": "string"
        },
        {
          "indexed": false,
          "internalType": "uint8",
          "name": "_newDecimals",
          "type": "uint8"
        },
        {
          "indexed": false,
          "internalType": "string",
          "name": "_newVersion",
          "type": "string"
        },
        {
          "indexed": false,
          "internalType": "address",
          "name": "_newOnchainID",
          "type": "address"
        }
      ],
      "name": "UpdatedTokenInformation",
      "type": "event"
    },
    {
      "inputs": [
        {
          "internalType": "address",
          "name": "_agent",
          "type": "address"
        }
      ],
      "name": "addAgent",
      "outputs": [],
      "stateMutability": "nonpayable",
      "type": "function"
    },
    {
      "inputs": [
        {
          "internalType": "address",
          "name": "_agent",
          "type": "address"
        }
      ],
      "name": "addAgentOnTokenContract",
      "outputs": [],
      "stateMutability": "nonpayable",
      "type": "function"
    },
    {
      "inputs": [
        {
          "internalType": "address",
          "name": "_owner",
          "type": "address"
        },
        {
          "internalType": "address",
          "name": "_spender",
          "type": "address"
        }
      ],
      "name": "allowance",
      "outputs": [
        {
          "internalType": "uint256",
          "name": "",
          "type": "uint256"
        }
      ],
      "stateMutability": "view",
      "type": "function"
    },
    {
      "inputs": [
        {
          "internalType": "address",
          "name": "_spender",
          "type": "address"
        },
        {
          "internalType": "uint256",
          "name": "_amount",
          "type": "uint256"
        }
      ],
      "name": "approve",
      "outputs": [
        {
          "internalType": "bool",
          "name": "",
          "type": "bool"
        }
      ],
      "stateMutability": "nonpayable",
      "type": "function"
    },
    {
      "inputs": [
        {
          "internalType": "address",
          "name": "_userAddress",
          "type": "address"
        }
      ],
      "name": "balanceOf",
      "outputs": [
        {
          "internalType": "uint256",
          "name": "",
          "type": "uint256"
        }
      ],
      "stateMutability": "view",
      "type": "function"
    },
    {
      "inputs": [
        {
          "internalType": "address[]",
          "name": "_userAddresses",
          "type": "address[]"
        },
        {
          "internalType": "uint256[]",
          "name": "_amounts",
          "type": "uint256[]"
        }
      ],
      "name": "batchBurn",
      "outputs": [],
      "stateMutability": "nonpayable",
      "type": "function"
    },
    {
      "inputs": [
        {
          "internalType": "address[]",
          "name": "_fromList",
          "type": "address[]"
        },
        {
          "internalType": "address[]",
          "name": "_toList",
          "type": "address[]"
        },
        {
          "internalType": "uint256[]",
          "name": "_amounts",
          "type": "uint256[]"
        }
      ],
      "name": "batchForcedTransfer",
      "outputs": [],
      "stateMutability": "nonpayable",
      "type": "function"
    },
    {
      "inputs": [
        {
          "internalType": "address[]",
          "name": "_userAddresses",
          "type": "address[]"
        },
        {
          "internalType": "uint256[]",
          "name": "_amounts",
          "type": "uint256[]"
        }
      ],
      "name": "batchFreezePartialTokens",
      "outputs": [],
      "stateMutability": "nonpayable",
      "type": "function"
    },
    {
      "inputs": [
        {
          "internalType": "address[]",
          "name": "_toList",
          "type": "address[]"
        },
        {
          "internalType": "uint256[]",
          "name": "_amounts",
          "type": "uint256[]"
        }
      ],
      "name": "batchMint",
      "outputs": [],
      "stateMutability": "nonpayable",
      "type": "function"
    },
    {
      "inputs": [
        {
          "internalType": "address[]",
          "name": "_userAddresses",
          "type": "address[]"
        },
        {
          "internalType": "bool[]",
          "name": "_freeze",
          "type": "bool[]"
        }
      ],
      "name": "batchSetAddressFrozen",
      "outputs": [],
      "stateMutability": "nonpayable",
      "type": "function"
    },
    {
      "inputs": [
        {
          "internalType": "address[]",
          "name": "_toList",
          "type": "address[]"
        },
        {
          "internalType": "uint256[]",
          "name": "_amounts",
          "type": "uint256[]"
        }
      ],
      "name": "batchTransfer",
      "outputs": [],
      "stateMutability": "nonpayable",
      "type": "function"
    },
    {
      "inputs": [
        {
          "internalType": "address[]",
          "name": "_userAddresses",
          "type": "address[]"
        },
        {
          "internalType": "uint256[]",
          "name": "_amounts",
          "type": "uint256[]"
        }
      ],
      "name": "batchUnfreezePartialTokens",
      "outputs": [],
      "stateMutability": "nonpayable",
      "type": "function"
    },
    {
      "inputs": [
        {
          "internalType": "address",
          "name": "_userAddress",
          "type": "address"
        },
        {
          "internalType": "uint256",
          "name": "_amount",
          "type": "uint256"
        }
      ],
      "name": "burn",
      "outputs": [],
      "stateMutability": "nonpayable",
      "type": "function"
    },
    {
      "inputs": [],
      "name": "compliance",
      "outputs": [
        {
          "internalType": "contract IComplianceLegacy",
          "name": "",
          "type": "address"
        }
      ],
      "stateMutability": "view",
      "type": "function"
    },
    {
      "inputs": [],
      "name": "decimals",
      "outputs": [
        {
          "internalType": "uint8",
          "name": "",
          "type": "uint8"
        }
      ],
      "stateMutability": "view",
      "type": "function"
    },
    {
      "inputs": [
        {
          "internalType": "address",
          "name": "_spender",
          "type": "address"
        },
        {
          "internalType": "uint256",
          "name": "_subtractedValue",
          "type": "uint256"
        }
      ],
      "name": "decreaseAllowance",
      "outputs": [
        {
          "internalType": "bool",
          "name": "",
          "type": "bool"
        }
      ],
      "stateMutability": "nonpayable",
      "type": "function"
    },
    {
      "inputs": [
        {
          "internalType": "address",
          "name": "_from",
          "type": "address"
        },
        {
          "internalType": "address",
          "name": "_to",
          "type": "address"
        },
        {
          "internalType": "uint256",
          "name": "_amount",
          "type": "uint256"
        }
      ],
      "name": "forcedTransfer",
      "outputs": [
        {
          "internalType": "bool",
          "name": "",
          "type": "bool"
        }
      ],
      "stateMutability": "nonpayable",
      "type": "function"
    },
    {
      "inputs": [
        {
          "internalType": "address",
          "name": "_userAddress",
          "type": "address"
        },
        {
          "internalType": "uint256",
          "name": "_amount",
          "type": "uint256"
        }
      ],
      "name": "freezePartialTokens",
      "outputs": [],
      "stateMutability": "nonpayable",
      "type": "function"
    },
    {
      "inputs": [
        {
          "internalType": "address",
          "name": "_userAddress",
          "type": "address"
        }
      ],
      "name": "getFrozenTokens",
      "outputs": [
        {
          "internalType": "uint256",
          "name": "",
          "type": "uint256"
        }
      ],
      "stateMutability": "view",
      "type": "function"
    },
    {
      "inputs": [],
      "name": "identityRegistry",
      "outputs": [
        {
          "internalType": "contract IIdentityRegistryLegacy",
          "name": "",
          "type": "address"
        }
      ],
      "stateMutability": "view",
      "type": "function"
    },
    {
      "inputs": [
        {
          "internalType": "address",
          "name": "_spender",
          "type": "address"
        },
        {
          "internalType": "uint256",
          "name": "_addedValue",
          "type": "uint256"
        }
      ],
      "name": "increaseAllowance",
      "outputs": [
        {
          "internalType": "bool",
          "name": "",
          "type": "bool"
        }
      ],
      "stateMutability": "nonpayable",
      "type": "function"
    },
    {
      "inputs": [
        {
          "internalType": "address",
          "name": "_identityRegistry",
          "type": "address"
        },
        {
          "internalType": "address",
          "name": "_compliance",
          "type": "address"
        },
        {
          "internalType": "string",
          "name": "_name",
          "type": "string"
        },
        {
          "internalType": "string",
          "name": "_symbol",
          "type": "string"
        },
        {
          "internalType": "uint8",
          "name": "_decimals",
          "type": "uint8"
        },
        {
          "internalType": "address",
          "name": "_onchainID",
          "type": "address"
        }
      ],
      "name": "init",
      "outputs": [],
      "stateMutability": "nonpayable",
      "type": "function"
    },
    {
      "inputs": [
        {
          "internalType": "address",
          "name": "_agent",
          "type": "address"
        }
      ],
      "name": "isAgent",
      "outputs": [
        {
          "internalType": "bool",
          "name": "",
          "type": "bool"
        }
      ],
      "stateMutability": "view",
      "type": "function"
    },
    {
      "inputs": [
        {
          "internalType": "address",
          "name": "_userAddress",
          "type": "address"
        }
      ],
      "name": "isFrozen",
      "outputs": [
        {
          "internalType": "bool",
          "name": "",
          "type": "bool"
        }
      ],
      "stateMutability": "view",
      "type": "function"
    },
    {
      "inputs": [
        {
          "internalType": "address",
          "name": "_to",
          "type": "address"
        },
        {
          "internalType": "uint256",
          "name": "_amount",
          "type": "uint256"
        }
      ],
      "name": "mint",
      "outputs": [],
      "stateMutability": "nonpayable",
      "type": "function"
    },
    {
      "inputs": [],
      "name": "name",
      "outputs": [
        {
          "internalType": "string",
          "name": "",
          "type": "string"
        }
      ],
      "stateMutability": "view",
      "type": "function"
    },
    {
      "inputs": [],
      "name": "onchainID",
      "outputs": [
        {
          "internalType": "address",
          "name": "",
          "type": "address"
        }
      ],
      "stateMutability": "view",
      "type": "function"
    },
    {
      "inputs": [],
      "name": "owner",
      "outputs": [
        {
          "internalType": "address",
          "name": "",
          "type": "address"
        }
      ],
      "stateMutability": "view",
      "type": "function"
    },
    {
      "inputs": [],
      "name": "pause",
      "outputs": [],
      "stateMutability": "nonpayable",
      "type": "function"
    },
    {
      "inputs": [],
      "name": "paused",
      "outputs": [
        {
          "internalType": "bool",
          "name": "",
          "type": "bool"
        }
      ],
      "stateMutability": "view",
      "type": "function"
    },
    {
      "inputs": [
        {
          "internalType": "address",
          "name": "_lostWallet",
          "type": "address"
        },
        {
          "internalType": "address",
          "name": "_newWallet",
          "type": "address"
        },
        {
          "internalType": "address",
          "name": "_investorOnchainID",
          "type": "address"
        }
      ],
      "name": "recoveryAddress",
      "outputs": [
        {
          "internalType": "bool",
          "name": "",
          "type": "bool"
        }
      ],
      "stateMutability": "nonpayable",
      "type": "function"
    },
    {
      "inputs": [
        {
          "internalType": "address",
          "name": "_agent",
          "type": "address"
        }
      ],
      "name": "removeAgent",
      "outputs": [],
      "stateMutability": "nonpayable",
      "type": "function"
    },
    {
      "inputs": [
        {
          "internalType": "address",
          "name": "_agent",
          "type": "address"
        }
      ],
      "name": "removeAgentOnTokenContract",
      "outputs": [],
      "stateMutability": "nonpayable",
      "type": "function"
    },
    {
      "inputs": [],
      "name": "renounceOwnership",
      "outputs": [],
      "stateMutability": "nonpayable",
      "type": "function"
    },
    {
      "inputs": [
        {
          "internalType": "address",
          "name": "_userAddress",
          "type": "address"
        },
        {
          "internalType": "bool",
          "name": "_freeze",
          "type": "bool"
        }
      ],
      "name": "setAddressFrozen",
      "outputs": [],
      "stateMutability": "nonpayable",
      "type": "function"
    },
    {
      "inputs": [
        {
          "internalType": "address",
          "name": "_compliance",
          "type": "address"
        }
      ],
      "name": "setCompliance",
      "outputs": [],
      "stateMutability": "nonpayable",
      "type": "function"
    },
    {
      "inputs": [
        {
          "internalType": "address",
          "name": "_identityRegistry",
          "type": "address"
        }
      ],
      "name": "setIdentityRegistry",
      "outputs": [],
      "stateMutability": "nonpayable",
      "type": "function"
    },
    {
      "inputs": [
        {
          "internalType": "string",
          "name": "_name",
          "type": "string"
        }
      ],
      "name": "setName",
      "outputs": [],
      "stateMutability": "nonpayable",
      "type": "function"
    },
    {
      "inputs": [
        {
          "internalType": "address",
          "name": "_onchainID",
          "type": "address"
        }
      ],
      "name": "setOnchainID",
      "outputs": [],
      "stateMutability": "nonpayable",
      "type": "function"
    },
    {
      "inputs": [
        {
          "internalType": "string",
          "name": "_symbol",
          "type": "string"
        }
      ],
      "name": "setSymbol",
      "outputs": [],
      "stateMutability": "nonpayable",
      "type": "function"
    },
    {
      "inputs": [],
      "name": "symbol",
      "outputs": [
        {
          "internalType": "string",
          "name": "",
          "type": "string"
        }
      ],
      "stateMutability": "view",
      "type": "function"
    },
    {
      "inputs": [],
      "name": "totalSupply",
      "outputs": [
        {
          "internalType": "uint256",
          "name": "",
          "type": "uint256"
        }
      ],
      "stateMutability": "view",
      "type": "function"
    },
    {
      "inputs": [
        {
          "internalType": "address",
          "name": "_to",
          "type": "address"
        },
        {
          "internalType": "uint256",
          "name": "_amount",
          "type": "uint256"
        }
      ],
      "name": "transfer",
      "outputs": [
        {
          "internalType": "bool",
          "name": "",
          "type": "bool"
        }
      ],
      "stateMutability": "nonpayable",
      "type": "function"
    },
    {
      "inputs": [
        {
          "internalType": "address",
          "name": "_from",
          "type": "address"
        },
        {
          "internalType": "address",
          "name": "_to",
          "type": "address"
        },
        {
          "internalType": "uint256",
          "name": "_amount",
          "type": "uint256"
        }
      ],
      "name": "transferFrom",
      "outputs": [
        {
          "internalType": "bool",
          "name": "",
          "type": "bool"
        }
      ],
      "stateMutability": "nonpayable",
      "type": "function"
    },
    {
      "inputs": [
        {
          "internalType": "address",
          "name": "newOwner",
          "type": "address"
        }
      ],
      "name": "transferOwnership",
      "outputs": [],
      "stateMutability": "nonpayable",
      "type": "function"
    },
    {
      "inputs": [
        {
          "internalType": "address",
          "name": "_newOwner",
          "type": "address"
        }
      ],
      "name": "transferOwnershipOnTokenContract",
      "outputs": [],
      "stateMutability": "nonpayable",
      "type": "function"
    },
    {
      "inputs": [
        {
          "internalType": "address",
          "name": "_userAddress",
          "type": "address"
        },
        {
          "internalType": "uint256",
          "name": "_amount",
          "type": "uint256"
        }
      ],
      "name": "unfreezePartialTokens",
      "outputs": [],
      "stateMutability": "nonpayable",
      "type": "function"
    },
    {
      "inputs": [],
      "name": "unpause",
      "outputs": [],
      "stateMutability": "nonpayable",
      "type": "function"
    },
    {
      "inputs": [],
      "name": "version",
      "outputs": [
        {
          "internalType": "string",
          "name": "",
          "type": "string"
        }
      ],
      "stateMutability": "view",
      "type": "function"
    }
  ],
  "bytecode": "0x6080604052606e805460ff1916905534801561001a57600080fd5b506134a58061002a6000396000f3fe608060405234801561001057600080fd5b50600436106102ab5760003560e01c806370a0823111610172578063a9059cbb116100d9578063cbf3f86111610092578063cbf3f861146105e2578063dd62ed3e146105f5578063e58398361461062e578063f2fde38b1461065a578063f89817891461066d578063f91b619c14610680578063fc7e5fa81461069357600080fd5b8063a9059cbb1461056d578063aba6370514610580578063b422d83014610596578063b84c8246146105a9578063c47f0027146105bc578063c69c09cf146105cf57600080fd5b80639285948a1161012b5780639285948a1461050657806395d89b411461051957806397a6278e146105215780639dc29fac146105345780639fc1d0e714610547578063a457c2d71461055a57600080fd5b806370a08231146104b5578063715018a6146104c85780638456cb59146104d057806384e79842146104d857806388d695b2146104eb5780638da5cb5b146104fe57600080fd5b80633d1ddc5b1161021657806351411b33116101cf57806351411b331461043f57806354fd4d50146104525780635c975abb146104735780635dc7a3cb1461047e5780636290865d1461049157806368573107146104a257600080fd5b80633d1ddc5b146103d85780633f4ba83a146103eb57806340c10f19146103f357806342a47abc146104065780634710362d146104195780634a6cc6771461042c57600080fd5b80631a7af379116102685780631a7af379146103645780631fe56f7d146103775780631ffbb0641461038a57806323b872dd1461039d578063313ce567146103b057806339509351146103c557600080fd5b806306fdde03146102b0578063095ea7b3146102ce578063125c4a33146102f1578063134e18f414610306578063158b1a571461032557806318160ddd1461035c575b600080fd5b6102b86106a6565b6040516102c59190612a52565b60405180910390f35b6102e16102dc366004612a81565b610738565b60405190151581526020016102c5565b6103046102ff366004612a81565b61074f565b005b606e5461010090046001600160a01b03165b6040516102c59190612aab565b61034e610333366004612abf565b6001600160a01b03166000908152606d602052604090205490565b6040519081526020016102c5565b60685461034e565b610304610372366004612b25565b61087e565b610304610385366004612a81565b6108e9565b6102e1610398366004612abf565b610a00565b6102e16103ab366004612b90565b610a0d565b606b5460405160ff90911681526020016102c5565b6102e16103d3366004612a81565b610ccd565b6103046103e6366004612abf565b610d04565b610304610db3565b610304610401366004612a81565b610e65565b610304610414366004612bcc565b611076565b610304610427366004612b25565b611102565b61030461043a366004612b25565b61115d565b61030461044d366004612abf565b6111b8565b604080518082019091526005815264332e352e3160d81b60208201526102b8565b606e5460ff166102e1565b61030461048c366004612abf565b6111f3565b606f546001600160a01b0316610318565b6103046104b0366004612b25565b6111fc565b61034e6104c3366004612abf565b611257565b610304611272565b6103046112d9565b6103046104e6366004612abf565b61135e565b6103046104f9366004612b25565b6113cf565b61031861142b565b6102e1610514366004612c65565b61143a565b6102b86117ad565b61030461052f366004612abf565b6117bc565b610304610542366004612a81565b61182d565b6102e1610555366004612b90565b61196e565b6102e1610568366004612a81565b611b3a565b6102e161057b366004612a81565b611b71565b606b5461010090046001600160a01b0316610318565b6103046105a4366004612abf565b611d9e565b6103046105b7366004612ca8565b611da7565b6103046105ca366004612ca8565b611e45565b6103046105dd366004612d27565b611e81565b6103046105f0366004612abf565b611efb565b61034e610603366004612d5e565b6001600160a01b03918216600090815260676020908152604080832093909416825291909152205490565b6102e161063c366004612abf565b6001600160a01b03166000908152606c602052604090205460ff1690565b610304610668366004612abf565b611f7c565b61030461067b366004612abf565b61205a565b61030461068e366004612e33565b6120d3565b6103046106a1366004612b25565b61225f565b6060606980546106b590612edf565b80601f01602080910402602001604051908101604052809291908181526020018280546106e190612edf565b801561072e5780601f106107035761010080835404028352916020019161072e565b820191906000526020600020905b81548152906001019060200180831161071157829003601f168201915b5050505050905090565b60006107453384846122ba565b5060015b92915050565b61075833610a00565b61077d5760405162461bcd60e51b815260040161077490612f19565b60405180910390fd5b600061078883611257565b6001600160a01b0384166000908152606d60205260409020549091506107af908390612f7d565b8110156107fe5760405162461bcd60e51b815260206004820181905260248201527f416d6f756e74206578636565647320617661696c61626c652062616c616e63656044820152606401610774565b6001600160a01b0383166000908152606d6020526040902054610822908390612f7d565b6001600160a01b0384166000818152606d6020526040908190209290925590517fa065e63c631c86f1b9f66a4a2f63f2093bf1c2168d23290259dbd969e0222a45906108719085815260200190565b60405180910390a2505050565b60005b838110156108e2576108da85858381811061089e5761089e612f90565b90506020020160208101906108b39190612abf565b8484848181106108c5576108c5612f90565b90506020020160208101906105dd9190612fa6565b600101610881565b5050505050565b6108f233610a00565b61090e5760405162461bcd60e51b815260040161077490612f19565b6001600160a01b0382166000908152606d60205260409020548111156109935760405162461bcd60e51b815260206004820152603460248201527f416d6f756e742073686f756c64206265206c657373207468616e206f7220657160448201527375616c20746f2066726f7a656e20746f6b656e7360601b6064820152608401610774565b6001600160a01b0382166000908152606d60205260409020546109b7908290612fc3565b6001600160a01b0383166000818152606d6020526040908190209290925590516000805160206133f0833981519152906109f49084815260200190565b60405180910390a25050565b60006107496065836123df565b606e5460009060ff1615610a335760405162461bcd60e51b815260040161077490612fd6565b6001600160a01b0383166000908152606c602052604090205460ff16158015610a7557506001600160a01b0384166000908152606c602052604090205460ff16155b610a915760405162461bcd60e51b815260040161077490613000565b6001600160a01b0384166000908152606d6020526040902054610ab385611257565b610abd9190612fc3565b821115610adc5760405162461bcd60e51b81526004016107749061302a565b606e5460405163b9209e3360e01b81526101009091046001600160a01b03169063b9209e3390610b10908690600401612aab565b602060405180830381865afa158015610b2d573d6000803e3d6000fd5b505050506040513d601f19601f82011682018060405250810190610b519190613058565b8015610bcd5750606f546040516372331c7360e11b81526001600160a01b039091169063e46638e690610b8c90879087908790600401613075565b602060405180830381865afa158015610ba9573d6000803e3d6000fd5b505050506040513d601f19601f82011682018060405250810190610bcd9190613058565b15610c8657606f546040516322ebca6d60e21b81526001600160a01b0390911690638baf29b490610c0690879087908790600401613075565b600060405180830381600087803b158015610c2057600080fd5b505af1158015610c34573d6000803e3d6000fd5b50505050610c43848484612468565b6001600160a01b038416600090815260676020908152604080832033808552925290912054610c7e918691610c79908690612fc3565b6122ba565b506001610cc6565b60405162461bcd60e51b81526020600482015260156024820152745472616e73666572206e6f7420706f737369626c6560581b6044820152606401610774565b9392505050565b3360008181526067602090815260408083206001600160a01b03871684529091528120549091610745918590610c79908690612f7d565b33610d0d61142b565b6001600160a01b031614610d335760405162461bcd60e51b815260040161077490613099565b606b80546001600160a01b03808416610100908102610100600160a81b031984168117948590556040805180820182526005815264332e352e3160d81b6020820152905160008051602061345083398151915296610da896606996606a9660ff9687169690921695909517949104169061314b565b60405180910390a150565b610dbc33610a00565b610dd85760405162461bcd60e51b815260040161077490612f19565b606e5460ff16610e215760405162461bcd60e51b815260206004820152601460248201527314185d5cd8589b194e881b9bdd081c185d5cd95960621b6044820152606401610774565b606e805460ff191690556040517f5db9ee0a495bf2e6ff9c91a7834c1ba4fdd244a5e8aa4e537bd38aeae4b073aa90610e5b903390612aab565b60405180910390a1565b610e6e33610a00565b610e8a5760405162461bcd60e51b815260040161077490612f19565b606e5460405163b9209e3360e01b81526101009091046001600160a01b03169063b9209e3390610ebe908590600401612aab565b602060405180830381865afa158015610edb573d6000803e3d6000fd5b505050506040513d601f19601f82011682018060405250810190610eff9190613058565b610f475760405162461bcd60e51b815260206004820152601960248201527824b232b73a34ba3c9034b9903737ba103b32b934b334b2b21760391b6044820152606401610774565b606f546040516372331c7360e11b81526001600160a01b039091169063e46638e690610f7b90339086908690600401613075565b602060405180830381865afa158015610f98573d6000803e3d6000fd5b505050506040513d601f19601f82011682018060405250810190610fbc9190613058565b6110025760405162461bcd60e51b815260206004820152601760248201527610dbdb5c1b1a585b98d9481b9bdd08199bdb1b1bddd959604a1b6044820152606401610774565b61100c82826125c4565b606f54604051635f8dead360e01b81526001600160a01b0384811660048301526024820184905290911690635f8dead390604401600060405180830381600087803b15801561105a57600080fd5b505af115801561106e573d6000803e3d6000fd5b505050505050565b60005b858110156110f9576110f087878381811061109657611096612f90565b90506020020160208101906110ab9190612abf565b8686848181106110bd576110bd612f90565b90506020020160208101906110d29190612abf565b8585858181106110e4576110e4612f90565b9050602002013561196e565b50600101611079565b50505050505050565b60005b838110156108e25761115585858381811061112257611122612f90565b90506020020160208101906111379190612abf565b84848481811061114957611149612f90565b905060200201356108e9565b600101611105565b60005b838110156108e2576111b085858381811061117d5761117d612f90565b90506020020160208101906111929190612abf565b8484848181106111a4576111a4612f90565b9050602002013561182d565b600101611160565b336111c161142b565b6001600160a01b0316146111e75760405162461bcd60e51b815260040161077490613099565b6111f081611f7c565b50565b6111f0816117bc565b60005b838110156108e25761124f85858381811061121c5761121c612f90565b90506020020160208101906112319190612abf565b84848481811061124357611243612f90565b90506020020135610e65565b6001016111ff565b6001600160a01b031660009081526066602052604090205490565b3361127b61142b565b6001600160a01b0316146112a15760405162461bcd60e51b815260040161077490613099565b6033546040516000916001600160a01b031690600080516020613410833981519152908390a3603380546001600160a01b0319169055565b6112e233610a00565b6112fe5760405162461bcd60e51b815260040161077490612f19565b606e5460ff16156113215760405162461bcd60e51b815260040161077490612fd6565b606e805460ff191660011790556040517f62e78cea01bee320cd4e420270b5ea74000d11b0c9f74754ebdbfc544b05a25890610e5b903390612aab565b3361136761142b565b6001600160a01b03161461138d5760405162461bcd60e51b815260040161077490613099565b61139860658261269a565b6040516001600160a01b038216907ff68e73cec97f2d70aa641fb26e87a4383686e2efacb648f2165aeb02ac562ec590600090a250565b60005b838110156108e2576114228585838181106113ef576113ef612f90565b90506020020160208101906114049190612abf565b84848481811061141657611416612f90565b90506020020135611b71565b506001016113d2565b6033546001600160a01b031690565b600061144533610a00565b6114615760405162461bcd60e51b815260040161077490612f19565b61146a84611257565b6000036114b05760405162461bcd60e51b81526020600482015260146024820152733737903a37b5b2b739903a37903932b1b7bb32b960611b6044820152606401610774565b60405182906000906114c6908690602001612aab565b60408051808303601f1901815290829052805160209091012063d202158d60e01b8252600482018190526001602483015291506001600160a01b0383169063d202158d90604401602060405180830381865afa15801561152a573d6000803e3d6000fd5b505050506040513d601f19601f8201168201806040525081019061154e9190613058565b1561176d57600061155e87611257565b6001600160a01b038089166000908152606d60205260409081902054606e549151637e42683b60e01b8152939450926101009091049091169063454a03e090899087908490637e42683b906115b7908f90600401612aab565b602060405180830381865afa1580156115d4573d6000803e3d6000fd5b505050506040513d601f19601f820116820180604052508101906115f891906131a8565b6040516001600160e01b031960e086901b1681526001600160a01b03938416600482015292909116602483015261ffff166044820152606401600060405180830381600087803b15801561164b57600080fd5b505af115801561165f573d6000803e3d6000fd5b5050606e5460405163a8d29d1d60e01b81526101009091046001600160a01b0316925063a8d29d1d9150611697908b90600401612aab565b600060405180830381600087803b1580156116b157600080fd5b505af11580156116c5573d6000803e3d6000fd5b505050506116d488888461196e565b5080156116e5576116e5878261074f565b6001600160a01b0388166000908152606c602052604090205460ff16151560010361171557611715876001611e81565b604080516001600160a01b038a81168252898116602083015288168183015290517ff0c9129a94f30f1caaceb63e44b9811d0a3edf1d6c23757f346093af5553fed09181900360600190a16001945050505050610cc6565b60405162461bcd60e51b81526020600482015260156024820152745265636f76657279206e6f7420706f737369626c6560581b6044820152606401610774565b6060606a80546106b590612edf565b336117c561142b565b6001600160a01b0316146117eb5760405162461bcd60e51b815260040161077490613099565b6117f6606582612724565b6040516001600160a01b038216907fed9c8ad8d5a0a66898ea49d2956929c93ae2e8bd50281b2ed897c5d1a6737e0b90600090a250565b61183633610a00565b6118525760405162461bcd60e51b815260040161077490612f19565b6001600160a01b0382166000908152606d602052604081205461187484611257565b61187e9190612fc3565b9050808211156119025760006118948284612fc3565b6001600160a01b0385166000908152606d60205260409020549091506118bb908290612fc3565b6001600160a01b0385166000818152606d6020526040908190209290925590516000805160206133f0833981519152906118f89084815260200190565b60405180910390a2505b61190c83836127ac565b606f5460405163469753b960e11b81526001600160a01b0385811660048301526024820185905290911690638d2ea77290604401600060405180830381600087803b15801561195a57600080fd5b505af11580156110f9573d6000803e3d6000fd5b600061197933610a00565b6119955760405162461bcd60e51b815260040161077490612f19565b6001600160a01b0384166000908152606d60205260408120546119b786611257565b6119c19190612fc3565b905080831115611a455760006119d78285612fc3565b6001600160a01b0387166000908152606d60205260409020549091506119fe908290612fc3565b6001600160a01b0387166000818152606d6020526040908190209290925590516000805160206133f083398151915290611a3b9084815260200190565b60405180910390a2505b606e5460405163b9209e3360e01b81526101009091046001600160a01b03169063b9209e3390611a79908790600401612aab565b602060405180830381865afa158015611a96573d6000803e3d6000fd5b505050506040513d601f19601f82011682018060405250810190611aba9190613058565b15610c8657606f546040516322ebca6d60e21b81526001600160a01b0390911690638baf29b490611af390889088908890600401613075565b600060405180830381600087803b158015611b0d57600080fd5b505af1158015611b21573d6000803e3d6000fd5b50505050611b30858585612468565b6001915050610cc6565b3360008181526067602090815260408083206001600160a01b03871684529091528120549091610745918590610c79908690612fc3565b606e5460009060ff1615611b975760405162461bcd60e51b815260040161077490612fd6565b6001600160a01b0383166000908152606c602052604090205460ff16158015611bd05750336000908152606c602052604090205460ff16155b611bec5760405162461bcd60e51b815260040161077490613000565b336000818152606d602052604090205490611c0690611257565b611c109190612fc3565b821115611c2f5760405162461bcd60e51b81526004016107749061302a565b606e5460405163b9209e3360e01b81526101009091046001600160a01b03169063b9209e3390611c63908690600401612aab565b602060405180830381865afa158015611c80573d6000803e3d6000fd5b505050506040513d601f19601f82011682018060405250810190611ca49190613058565b8015611d205750606f546040516372331c7360e11b81526001600160a01b039091169063e46638e690611cdf90339087908790600401613075565b602060405180830381865afa158015611cfc573d6000803e3d6000fd5b505050506040513d601f19601f82011682018060405250810190611d209190613058565b15610c8657606f546040516322ebca6d60e21b81526001600160a01b0390911690638baf29b490611d5990339087908790600401613075565b600060405180830381600087803b158015611d7357600080fd5b505af1158015611d87573d6000803e3d6000fd5b50505050611d96338484612468565b506001610749565b6111f08161135e565b33611db061142b565b6001600160a01b031614611dd65760405162461bcd60e51b815260040161077490613099565b606a611de3828483613229565b50606b546040805180820182526005815264332e352e3160d81b6020820152905160008051602061345083398151915292611e3992606992606a9260ff811692916101009091046001600160a01b03169061314b565b60405180910390a15050565b33611e4e61142b565b6001600160a01b031614611e745760405162461bcd60e51b815260040161077490613099565b6069611de3828483613229565b611e8a33610a00565b611ea65760405162461bcd60e51b815260040161077490612f19565b6001600160a01b0382166000818152606c6020526040808220805460ff19168515159081179091559051339391927f7fa523c84ab8d7fc5b72f08b9e46dbbf10c39e119a075b3e317002d14bc9f43691a45050565b33611f0461142b565b6001600160a01b031614611f2a5760405162461bcd60e51b815260040161077490613099565b606e8054610100600160a81b0319166101006001600160a01b038416908102919091179091556040517fd2be862d755bca7e0d39772b2cab3a5578da9c285f69199f4c063c2294a7f36c90600090a250565b33611f8561142b565b6001600160a01b031614611fab5760405162461bcd60e51b815260040161077490613099565b6001600160a01b0381166120105760405162461bcd60e51b815260206004820152602660248201527f4f776e61626c653a206e6577206f776e657220697320746865207a65726f206160448201526564647265737360d01b6064820152608401610774565b6033546040516001600160a01b0380841692169060008051602061341083398151915290600090a3603380546001600160a01b0319166001600160a01b0392909216919091179055565b3361206361142b565b6001600160a01b0316146120895760405162461bcd60e51b815260040161077490613099565b606f80546001600160a01b0319166001600160a01b0383169081179091556040517f7f3a888862559648ec01d97deb7b5012bff86dc91e654a1de397170db40e35b690600090a250565b60006120dd61142b565b6001600160a01b0316146121295760405162461bcd60e51b8152602060048201526013602482015272185b1c9958591e481a5b9a5d1a585b1a5e9959606a1b6044820152606401610774565b606961213585826132e2565b50606a61214284826132e2565b50606b805460ff84166001600160a81b0319909116176101006001600160a01b03848116820292909217909255606e8054610100600160a81b0319169189169283029190911790556040517fd2be862d755bca7e0d39772b2cab3a5578da9c285f69199f4c063c2294a7f36c90600090a2606f80546001600160a01b0319166001600160a01b0387169081179091556040517f7f3a888862559648ec01d97deb7b5012bff86dc91e654a1de397170db40e35b690600090a2606b546040805180820182526005815264332e352e3160d81b602082015290516000805160206134508339815191529261224f92606992606a9260ff811692916101009091046001600160a01b03169061314b565b60405180910390a161106e612886565b60005b838110156108e2576122b285858381811061227f5761227f612f90565b90506020020160208101906122949190612abf565b8484848181106122a6576122a6612f90565b9050602002013561074f565b600101612262565b6001600160a01b03831661231c5760405162461bcd60e51b8152602060048201526024808201527f45524332303a20617070726f76652066726f6d20746865207a65726f206164646044820152637265737360e01b6064820152608401610774565b6001600160a01b03821661237d5760405162461bcd60e51b815260206004820152602260248201527f45524332303a20617070726f766520746f20746865207a65726f206164647265604482015261737360f01b6064820152608401610774565b6001600160a01b0383811660008181526067602090815260408083209487168084529482529182902085905590518481527f8c5be1e5ebec7d5bd14f71427d1e84f3dd0314c0f7b2291e5b200ac8c7c3b92591015b60405180910390a3505050565b60006001600160a01b0382166124485760405162461bcd60e51b815260206004820152602860248201527f526f6c65734c65676163793a206163636f756e7420697320746865207a65726f604482015267206164647265737360c01b6064820152608401610774565b506001600160a01b03166000908152602091909152604090205460ff1690565b6001600160a01b0383166124cc5760405162461bcd60e51b815260206004820152602560248201527f45524332303a207472616e736665722066726f6d20746865207a65726f206164604482015264647265737360d81b6064820152608401610774565b6001600160a01b03821661252e5760405162461bcd60e51b815260206004820152602360248201527f45524332303a207472616e7366657220746f20746865207a65726f206164647260448201526265737360e81b6064820152608401610774565b6001600160a01b038316600090815260666020526040902054612552908290612fc3565b6001600160a01b038085166000908152606660205260408082209390935590841681522054612582908290612f7d565b6001600160a01b038084166000818152606660205260409081902093909355915190851690600080516020613430833981519152906123d29085815260200190565b6001600160a01b03821661261a5760405162461bcd60e51b815260206004820152601f60248201527f45524332303a206d696e7420746f20746865207a65726f2061646472657373006044820152606401610774565b806068546126289190612f7d565b6068556001600160a01b03821660009081526066602052604090205461264f908290612f7d565b6001600160a01b0383166000818152606660205260408082209390935591519091906000805160206134308339815191529061268e9085815260200190565b60405180910390a35050565b6126a482826123df565b156126ff5760405162461bcd60e51b815260206004820152602560248201527f526f6c65734c65676163793a206163636f756e7420616c72656164792068617360448201526420726f6c6560d81b6064820152608401610774565b6001600160a01b0316600090815260209190915260409020805460ff19166001179055565b61272e82826123df565b61278a5760405162461bcd60e51b815260206004820152602760248201527f526f6c65734c65676163793a206163636f756e7420646f6573206e6f74206861604482015266766520726f6c6560c81b6064820152608401610774565b6001600160a01b0316600090815260209190915260409020805460ff19169055565b6001600160a01b03821661280c5760405162461bcd60e51b815260206004820152602160248201527f45524332303a206275726e2066726f6d20746865207a65726f206164647265736044820152607360f81b6064820152608401610774565b6001600160a01b038216600090815260666020526040902054612830908290612fc3565b6001600160a01b038316600090815260666020526040902055606854612857908290612fc3565b6068556040518181526000906001600160a01b038416906000805160206134308339815191529060200161268e565b600054610100900460ff168061289f575060005460ff16155b6128bb5760405162461bcd60e51b81526004016107749061339b565b600054610100900460ff161580156128dd576000805461ffff19166101011790555b6128e5612906565b6128ed612970565b80156111f0576000805461ff001916905550565b505050565b600054610100900460ff168061291f575060005460ff16155b61293b5760405162461bcd60e51b81526004016107749061339b565b600054610100900460ff161580156128ed576000805461ffff191661010117905580156111f0576000805461ff001916905550565b600054610100900460ff1680612989575060005460ff16155b6129a55760405162461bcd60e51b81526004016107749061339b565b600054610100900460ff161580156129c7576000805461ffff19166101011790555b603380546001600160a01b031916339081179091556040518190600090600080516020613410833981519152908290a35080156111f0576000805461ff001916905550565b6000815180845260005b81811015612a3257602081850181015186830182015201612a16565b506000602082860101526020601f19601f83011685010191505092915050565b602081526000610cc66020830184612a0c565b80356001600160a01b0381168114612a7c57600080fd5b919050565b60008060408385031215612a9457600080fd5b612a9d83612a65565b946020939093013593505050565b6001600160a01b0391909116815260200190565b600060208284031215612ad157600080fd5b610cc682612a65565b60008083601f840112612aec57600080fd5b5081356001600160401b03811115612b0357600080fd5b6020830191508360208260051b8501011115612b1e57600080fd5b9250929050565b60008060008060408587031215612b3b57600080fd5b84356001600160401b0380821115612b5257600080fd5b612b5e88838901612ada565b90965094506020870135915080821115612b7757600080fd5b50612b8487828801612ada565b95989497509550505050565b600080600060608486031215612ba557600080fd5b612bae84612a65565b9250612bbc60208501612a65565b9150604084013590509250925092565b60008060008060008060608789031215612be557600080fd5b86356001600160401b0380821115612bfc57600080fd5b612c088a838b01612ada565b90985096506020890135915080821115612c2157600080fd5b612c2d8a838b01612ada565b90965094506040890135915080821115612c4657600080fd5b50612c5389828a01612ada565b979a9699509497509295939492505050565b600080600060608486031215612c7a57600080fd5b612c8384612a65565b9250612c9160208501612a65565b9150612c9f60408501612a65565b90509250925092565b60008060208385031215612cbb57600080fd5b82356001600160401b0380821115612cd257600080fd5b818501915085601f830112612ce657600080fd5b813581811115612cf557600080fd5b866020828501011115612d0757600080fd5b60209290920196919550909350505050565b80151581146111f057600080fd5b60008060408385031215612d3a57600080fd5b612d4383612a65565b91506020830135612d5381612d19565b809150509250929050565b60008060408385031215612d7157600080fd5b612d7a83612a65565b9150612d8860208401612a65565b90509250929050565b634e487b7160e01b600052604160045260246000fd5b600082601f830112612db857600080fd5b81356001600160401b0380821115612dd257612dd2612d91565b604051601f8301601f19908116603f01168101908282118183101715612dfa57612dfa612d91565b81604052838152866020858801011115612e1357600080fd5b836020870160208301376000602085830101528094505050505092915050565b60008060008060008060c08789031215612e4c57600080fd5b612e5587612a65565b9550612e6360208801612a65565b945060408701356001600160401b0380821115612e7f57600080fd5b612e8b8a838b01612da7565b95506060890135915080821115612ea157600080fd5b50612eae89828a01612da7565b935050608087013560ff81168114612ec557600080fd5b9150612ed360a08801612a65565b90509295509295509295565b600181811c90821680612ef357607f821691505b602082108103612f1357634e487b7160e01b600052602260045260246000fd5b50919050565b6020808252602e908201527f4167656e74526f6c653a2063616c6c657220646f6573206e6f7420686176652060408201526d746865204167656e7420726f6c6560901b606082015260800190565b634e487b7160e01b600052601160045260246000fd5b8082018082111561074957610749612f67565b634e487b7160e01b600052603260045260246000fd5b600060208284031215612fb857600080fd5b8135610cc681612d19565b8181038181111561074957610749612f67565b60208082526010908201526f14185d5cd8589b194e881c185d5cd95960821b604082015260600190565b60208082526010908201526f3bb0b63632ba1034b990333937bd32b760811b604082015260600190565b602080825260149082015273496e73756666696369656e742042616c616e636560601b604082015260600190565b60006020828403121561306a57600080fd5b8151610cc681612d19565b6001600160a01b039384168152919092166020820152604081019190915260600190565b6020808252818101527f4f776e61626c653a2063616c6c6572206973206e6f7420746865206f776e6572604082015260600190565b600081546130db81612edf565b8085526020600183811680156130f8576001811461311257613140565b60ff1985168884015283151560051b880183019550613140565b866000528260002060005b858110156131385781548a820186015290830190840161311d565b890184019650505b505050505092915050565b60a08152600061315e60a08301886130ce565b828103602084015261317081886130ce565b905060ff86166040840152828103606084015261318d8186612a0c565b91505060018060a01b03831660808301529695505050505050565b6000602082840312156131ba57600080fd5b815161ffff81168114610cc657600080fd5b601f821115612901576000816000526020600020601f850160051c810160208610156131f55750805b601f850160051c820191505b8181101561106e57828155600101613201565b600019600383901b1c191660019190911b1790565b6001600160401b0383111561324057613240612d91565b6132548361324e8354612edf565b836131cc565b6000601f84116001811461328257600085156132705750838201355b61327a8682613214565b8455506108e2565b600083815260209020601f19861690835b828110156132b35786850135825560209485019460019092019101613293565b50868210156132d05760001960f88860031b161c19848701351681555b505060018560011b0183555050505050565b81516001600160401b038111156132fb576132fb612d91565b61330f816133098454612edf565b846131cc565b602080601f83116001811461333e576000841561332c5750858301515b6133368582613214565b86555061106e565b600085815260208120601f198616915b8281101561336d5788860151825594840194600190910190840161334e565b508582101561338b5787850151600019600388901b60f8161c191681555b5050505050600190811b01905550565b60208082526034908201527f496e697469616c697a61626c654c65676163793a20636f6e747261637420697360408201527308185b1c9958591e481a5b9a5d1a585b1a5e995960621b60608201526080019056fe9bed35cb62ad0dba04f9d5bfee4b5bc91443e77da8a65c4c84834c51bb08b0d68be0079c531659141344cd1fd0a4f28419497f9722a3daafe3b4186f6b6457e0ddf252ad1be2c89b69c2b068fc378daa952ba7f163c4a11628f55a4df523b3ef6a1105ac8148a3c319adbc369f9072573e8a11d3a3d195e067e7c40767ec54d1a2646970667358221220ee93f8e5b867c0908bd31668d743aeb3b66643e8cd5c6b41e9dadfbcec935b8c64736f6c63430008180033",
  "linkReferences": {},
  "deployedLinkReferences": {}
}