{
  "_format": "hh-sol-artifact-1",
  "contractName": "Locker",
  "sourceName": "contracts/erc4626/HTSDeprecated/Locker.sol",
  "abi": [
    {
      "inputs": [
        {
          "internalType": "address",
          "name": "_stakingToken",
          "type": "address"
        },
        {
          "internalType": "address[]",
          "name": "_rewardTokens",
          "type": "address[]"
        },
        {
          "internalType": "uint256",
          "name": "_lockPeriod",
          "type": "uint256"
        }
      ],
      "stateMutability": "payable",
      "type": "constructor"
    },
    {
      "inputs": [
        {
          "internalType": "uint256",
          "name": "lockPeriodReachedAt",
          "type": "uint256"
        }
      ],
      "name": "LockPeriodNotReached",
      "type": "error"
    },
    {
      "inputs": [
        {
          "internalType": "address",
          "name": "owner",
          "type": "address"
        }
      ],
      "name": "OwnableInvalidOwner",
      "type": "error"
    },
    {
      "inputs": [
        {
          "internalType": "address",
          "name": "account",
          "type": "address"
        }
      ],
      "name": "OwnableUnauthorizedAccount",
      "type": "error"
    },
    {
      "inputs": [
        {
          "internalType": "uint8",
          "name": "bits",
          "type": "uint8"
        },
        {
          "internalType": "uint256",
          "name": "value",
          "type": "uint256"
        }
      ],
      "name": "SafeCastOverflowedUintDowncast",
      "type": "error"
    },
    {
      "inputs": [
        {
          "internalType": "address",
          "name": "_token",
          "type": "address"
        }
      ],
      "name": "TokenNotSupported",
      "type": "error"
    },
    {
      "anonymous": false,
      "inputs": [
        {
          "indexed": true,
          "internalType": "address",
          "name": "user",
          "type": "address"
        },
        {
          "indexed": true,
          "internalType": "address",
          "name": "token",
          "type": "address"
        },
        {
          "indexed": false,
          "internalType": "uint256",
          "name": "amount",
          "type": "uint256"
        }
      ],
      "name": "Claim",
      "type": "event"
    },
    {
      "anonymous": false,
      "inputs": [
        {
          "indexed": true,
          "internalType": "address",
          "name": "previousOwner",
          "type": "address"
        },
        {
          "indexed": true,
          "internalType": "address",
          "name": "newOwner",
          "type": "address"
        }
      ],
      "name": "OwnershipTransferred",
      "type": "event"
    },
    {
      "anonymous": false,
      "inputs": [
        {
          "indexed": true,
          "internalType": "address",
          "name": "token",
          "type": "address"
        },
        {
          "indexed": false,
          "internalType": "uint256",
          "name": "amount",
          "type": "uint256"
        }
      ],
      "name": "RewardAdded",
      "type": "event"
    },
    {
      "anonymous": false,
      "inputs": [
        {
          "indexed": true,
          "internalType": "address",
          "name": "user",
          "type": "address"
        },
        {
          "indexed": true,
          "internalType": "address",
          "name": "token",
          "type": "address"
        },
        {
          "indexed": false,
          "internalType": "uint256",
          "name": "amount",
          "type": "uint256"
        }
      ],
      "name": "Staked",
      "type": "event"
    },
    {
      "anonymous": false,
      "inputs": [
        {
          "indexed": true,
          "internalType": "address",
          "name": "user",
          "type": "address"
        },
        {
          "indexed": true,
          "internalType": "address",
          "name": "token",
          "type": "address"
        },
        {
          "indexed": false,
          "internalType": "uint256",
          "name": "amount",
          "type": "uint256"
        }
      ],
      "name": "Withdraw",
      "type": "event"
    },
    {
      "inputs": [
        {
          "internalType": "address",
          "name": "_token",
          "type": "address"
        },
        {
          "internalType": "uint256",
          "name": "_amount",
          "type": "uint256"
        }
      ],
      "name": "addReward",
      "outputs": [],
      "stateMutability": "nonpayable",
      "type": "function"
    },
    {
      "inputs": [
        {
          "internalType": "address",
          "name": "_token",
          "type": "address"
        }
      ],
      "name": "calculateReward",
      "outputs": [
        {
          "internalType": "uint256",
          "name": "",
          "type": "uint256"
        }
      ],
      "stateMutability": "view",
      "type": "function"
    },
    {
      "inputs": [],
      "name": "claimAllReward",
      "outputs": [],
      "stateMutability": "nonpayable",
      "type": "function"
    },
    {
      "inputs": [
        {
          "internalType": "address[]",
          "name": "_tokensToClaim",
          "type": "address[]"
        }
      ],
      "name": "claimSpecificsReward",
      "outputs": [],
      "stateMutability": "nonpayable",
      "type": "function"
    },
    {
      "inputs": [],
      "name": "getLockPeriod",
      "outputs": [
        {
          "internalType": "uint256",
          "name": "",
          "type": "uint256"
        }
      ],
      "stateMutability": "view",
      "type": "function"
    },
    {
      "inputs": [],
      "name": "getLockedAmount",
      "outputs": [
        {
          "internalType": "uint256",
          "name": "",
          "type": "uint256"
        }
      ],
      "stateMutability": "view",
      "type": "function"
    },
    {
      "inputs": [],
      "name": "getRewardTokens",
      "outputs": [
        {
          "internalType": "address[]",
          "name": "",
          "type": "address[]"
        }
      ],
      "stateMutability": "view",
      "type": "function"
    },
    {
      "inputs": [],
      "name": "getStakingToken",
      "outputs": [
        {
          "internalType": "address",
          "name": "",
          "type": "address"
        }
      ],
      "stateMutability": "view",
      "type": "function"
    },
    {
      "inputs": [],
      "name": "getTVL",
      "outputs": [
        {
          "internalType": "uint256",
          "name": "",
          "type": "uint256"
        }
      ],
      "stateMutability": "view",
      "type": "function"
    },
    {
      "inputs": [],
      "name": "owner",
      "outputs": [
        {
          "internalType": "address",
          "name": "",
          "type": "address"
        }
      ],
      "stateMutability": "view",
      "type": "function"
    },
    {
      "inputs": [],
      "name": "renounceOwnership",
      "outputs": [],
      "stateMutability": "nonpayable",
      "type": "function"
    },
    {
      "inputs": [
        {
          "internalType": "uint256",
          "name": "_amount",
          "type": "uint256"
        }
      ],
      "name": "stake",
      "outputs": [],
      "stateMutability": "nonpayable",
      "type": "function"
    },
    {
      "inputs": [
        {
          "internalType": "address",
          "name": "newOwner",
          "type": "address"
        }
      ],
      "name": "transferOwnership",
      "outputs": [],
      "stateMutability": "nonpayable",
      "type": "function"
    },
    {
      "inputs": [
        {
          "internalType": "address[]",
          "name": "_rewardsToClaim",
          "type": "address[]"
        },
        {
          "internalType": "uint256",
          "name": "_amount",
          "type": "uint256"
        }
      ],
      "name": "unlock",
      "outputs": [],
      "stateMutability": "nonpayable",
      "type": "function"
    }
  ],
  "bytecode": "0x608060405260405162001561380380620015618339810160408190526200002691620004ae565b33806200004e57604051631e4fbdf760e01b8152600060048201526024015b60405180910390fd5b620000598162000249565b506001600160a01b038316620000c75760405162461bcd60e51b815260206004820152602c60248201527f4c6f636b65723a207374616b696e6720746f6b656e2063616e6e6f742062652060448201526b7a65726f206164647265737360a01b606482015260840162000045565b80600003620001195760405162461bcd60e51b815260206004820152601d60248201527f4c6f636b65723a20746f6f2073686f7274206c6f636b20706572696f64000000604482015260640162000045565b600082511180156200012d57508151601410155b620001865760405162461bcd60e51b815260206004820152602260248201527f4c6f636b65723a20696e636f7272656374206e756d626572206f6620746f6b656044820152616e7360f01b606482015260840162000045565b600180546001600160a01b0319166001600160a01b038516179055620001ac8162000299565b600180546001600160401b0392909216600160a01b02600160a01b600160e01b03199092169190911790558151620001ec90600390602085019062000404565b50815160005b81811015620002325762000229848281518110620002145762000214620005a0565b602002602001015130620002d560201b60201c565b600101620001f2565b506200023f8430620002d5565b5050505062000613565b600080546001600160a01b038381166001600160a01b0319831681178455604051919092169283917f8be0079c531659141344cd1fd0a4f28419497f9722a3daafe3b4186f6b6457e09190a35050565b60006001600160401b03821115620002d157604080516306dfcc6560e41b815260048101919091526024810183905260440162000045565b5090565b604080516001600160a01b038381166024830152841660448083019190915282518083039091018152606490910182526020810180516001600160e01b031663248a35ef60e11b17905290516000918291829161016791620003389190620005b6565b6000604051808303816000865af19150503d806000811462000377576040519150601f19603f3d011682016040523d82523d6000602084013e6200037c565b606091505b5091509150816200038f576015620003a5565b80806020019051810190620003a59190620005e7565b9250600383900b601614620003fd5760405162461bcd60e51b815260206004820152601f60248201527f536166652073696e676c65206173736f63696174696f6e206661696c65642100604482015260640162000045565b5050505050565b8280548282559060005260206000209081019282156200045c579160200282015b828111156200045c57825182546001600160a01b0319166001600160a01b0390911617825560209092019160019091019062000425565b50620002d19291505b80821115620002d1576000815560010162000465565b80516001600160a01b03811681146200049357600080fd5b919050565b634e487b7160e01b600052604160045260246000fd5b600080600060608486031215620004c457600080fd5b620004cf846200047b565b602085810151919450906001600160401b0380821115620004ef57600080fd5b818701915087601f8301126200050457600080fd5b81518181111562000519576200051962000498565b8060051b604051601f19603f8301168101818110858211171562000541576200054162000498565b60405291825284820192508381018501918a8311156200056057600080fd5b938501935b82851015620005895762000579856200047b565b8452938501939285019262000565565b809750505050505050604084015190509250925092565b634e487b7160e01b600052603260045260246000fd5b6000825160005b81811015620005d95760208186018101518583015201620005bd565b506000920191825250919050565b600060208284031215620005fa57600080fd5b81518060030b81146200060c57600080fd5b9392505050565b610f3e80620006236000396000f3fe608060405234801561001057600080fd5b50600436106100ca5760003560e01c80639feb8f501161007c5780639feb8f501461014b578063a694fc3a1461015e578063c4f59f9b14610171578063d034442c14610186578063d82e396214610199578063e43db193146101ac578063f2fde38b146101c557600080fd5b8063252bc886146100cf57806357600c4a146100f3578063715018a6146101085780638a623d86146101105780638da5cb5b1461011857806397b3fcaa146101325780639f9106d11461013a575b600080fd5b336000908152600460205260409020545b6040519081526020015b60405180910390f35b610106610101366004610c8b565b6101d8565b005b6101066102e0565b6101066102f4565b6000546001600160a01b03165b6040516100ea9190610ccd565b6002546100e0565b6001546001600160a01b0316610125565b610106610159366004610cfd565b6103f4565b61010661016c366004610d27565b610608565b610179610829565b6040516100ea9190610d40565b610106610194366004610d8d565b61088b565b6100e06101a7366004610dd9565b610936565b600154600160a01b900467ffffffffffffffff166100e0565b6101066101d3366004610dd9565b610985565b80600080805b838110156102d8578585828181106101f8576101f8610dfb565b905060200201602081019061020d9190610dd9565b9150610218826109c0565b61024057816040516306439c6b60e01b81526004016102379190610ccd565b60405180910390fd5b61024982610936565b6001600160a01b03831660008181526005602090815260408083205433808552600484528285209585526001909501909252909120559093506102909083903090866109e1565b6040518381526001600160a01b0383169033907f70eb43c4a8ae8c40502dcf22436c509c28d6ff421cf07c491be56984bd9870689060200160405180910390a36001016101de565b505050505050565b6102e8610b1a565b6102f26000610b47565b565b600354600080805b838110156103ee576003818154811061031757610317610dfb565b6000918252602090912001546001600160a01b03169150610337826109c0565b61035657816040516306439c6b60e01b81526004016102379190610ccd565b61035f82610936565b6001600160a01b03831660008181526005602090815260408083205433808552600484528285209585526001909501909252909120559093506103a69083903090866109e1565b6040518381526001600160a01b0383169033907f70eb43c4a8ae8c40502dcf22436c509c28d6ff421cf07c491be56984bd9870689060200160405180910390a36001016102fc565b50505050565b6103fc610b1a565b6001600160a01b0382166104525760405162461bcd60e51b815260206004820152601d60248201527f4c6f636b65723a20696e76616c696420746f6b656e20616464726573730000006044820152606401610237565b806000036104725760405162461bcd60e51b815260040161023790610e11565b6002546000036104be5760405162461bcd60e51b81526020600482015260176024820152762637b1b5b2b91d1037379039ba30b5b2b2103a37b5b2b760491b6044820152606401610237565b6000600254826104ce9190610e57565b6001600160a01b03841660009081526005602052604090206001015490915060ff166105c4576003805460018181019092557fc2575a0e9e593c00f959f8c92f12db2869c3395a3b0502d05e2516446f71f85b0180546001600160a01b0386166001600160a01b031990911681179091556000908152600560205260409020808201805460ff191690921790915581905561057c836105756000546001600160a01b031690565b30856109e1565b826001600160a01b03167fac24935fd910bc682b5ccb1a07b718cadf8cf2f6d1404c4f3ddc3662dae40e29836040516105b791815260200190565b60405180910390a2505050565b6001600160a01b038316600090815260056020526040812080548392906105ec908490610e79565b9091555061057c9050836105756000546001600160a01b031690565b806000036106285760405162461bcd60e51b815260040161023790610e11565b3360009081526004602052604081206002015490036107715760035460005b818110156106e257600560006003838154811061066657610666610dfb565b60009182526020808320909101546001600160a01b031683528281019390935260409182018120543382526004909352908120600380546001929092019291859081106106b5576106b5610dfb565b60009182526020808320909101546001600160a01b03168352820192909252604001902055600101610647565b5033600090815260046020526040812083815542600291820155805484929061070c908490610e79565b9091555050600154610729906001600160a01b03163330856109e1565b6001546040518381526001600160a01b039091169033907f5dac0c1b1112564a045ba943c9d50270893e8e826c49be8e7073adc713ab7bd79060200160405180910390a35050565b3360009081526004602052604081208054839290610790908490610e79565b90915550503360009081526004602052604081204260029182015580548392906107bb908490610e79565b909155506107c990506102f4565b6001546107e1906001600160a01b03163330846109e1565b6001546040518281526001600160a01b039091169033907f5dac0c1b1112564a045ba943c9d50270893e8e826c49be8e7073adc713ab7bd79060200160405180910390a35b50565b6060600380548060200260200160405190810160405280929190818152602001828054801561088157602002820191906000526020600020905b81546001600160a01b03168152600190910190602001808311610863575b5050505050905090565b806000036108ab5760405162461bcd60e51b815260040161023790610e11565b60008290036108cc5760405162461bcd60e51b815260040161023790610e11565b60015433600090815260046020526040812060020154909161090091600160a01b90910467ffffffffffffffff1690610e79565b90504281101561091a57610915848484610b97565b6103ee565b604051635e6374c360e11b815260048101829052602401610237565b33600090815260046020908152604080832080546001600160a01b03861685526001909101835281842054600590935290832054909161097591610e8c565b61097f9190610e9f565b92915050565b61098d610b1a565b6001600160a01b0381166109b7576000604051631e4fbdf760e01b81526004016102379190610ccd565b61082681610b47565b6001600160a01b031660009081526005602052604090206001015460ff1690565b604080516001600160a01b038681166024830152858116604483015284166064820152600783900b6084808301919091528251808303909101815260a490910182526020810180516001600160e01b031663eca3691760e01b17905290516000918291829161016791610a549190610eb6565b6000604051808303816000865af19150503d8060008114610a91576040519150601f19603f3d011682016040523d82523d6000602084013e610a96565b606091505b509150915081610aa7576015610abb565b80806020019051810190610abb9190610ee5565b9250600383900b601614610b115760405162461bcd60e51b815260206004820152601b60248201527f5361666520746f6b656e207472616e73666572206661696c65642100000000006044820152606401610237565b50505050505050565b6000546001600160a01b031633146102f2573360405163118cdaa760e01b81526004016102379190610ccd565b600080546001600160a01b038381166001600160a01b0319831681178455604051919092169283917f8be0079c531659141344cd1fd0a4f28419497f9722a3daafe3b4186f6b6457e09190a35050565b610ba183836101d8565b600154610bb9906001600160a01b03163033846109e1565b3360009081526004602052604081208054839290610bd8908490610e8c565b925050819055508060026000828254610bf19190610e8c565b90915550506001546040518281526001600160a01b039091169033907f9b1bfa7fa9ee420a16e124f794c35ac9f90472acc99140eb2f6447c714cad8eb9060200160405180910390a3505050565b60008083601f840112610c5157600080fd5b50813567ffffffffffffffff811115610c6957600080fd5b6020830191508360208260051b8501011115610c8457600080fd5b9250929050565b60008060208385031215610c9e57600080fd5b823567ffffffffffffffff811115610cb557600080fd5b610cc185828601610c3f565b90969095509350505050565b6001600160a01b0391909116815260200190565b80356001600160a01b0381168114610cf857600080fd5b919050565b60008060408385031215610d1057600080fd5b610d1983610ce1565b946020939093013593505050565b600060208284031215610d3957600080fd5b5035919050565b6020808252825182820181905260009190848201906040850190845b81811015610d815783516001600160a01b031683529284019291840191600101610d5c565b50909695505050505050565b600080600060408486031215610da257600080fd5b833567ffffffffffffffff811115610db957600080fd5b610dc586828701610c3f565b909790965060209590950135949350505050565b600060208284031215610deb57600080fd5b610df482610ce1565b9392505050565b634e487b7160e01b600052603260045260246000fd5b602080825260169082015275131bd8dad95c8e881a5b9d985b1a5908185b5bdd5b9d60521b604082015260600190565b634e487b7160e01b600052601160045260246000fd5b600082610e7457634e487b7160e01b600052601260045260246000fd5b500490565b8082018082111561097f5761097f610e41565b8181038181111561097f5761097f610e41565b808202811582820484141761097f5761097f610e41565b6000825160005b81811015610ed75760208186018101518583015201610ebd565b506000920191825250919050565b600060208284031215610ef757600080fd5b81518060030b8114610df457600080fdfea2646970667358221220084ea2f6d0eb3dcf6dc1dd2ba72cfd929687aa2fcba8f6f56348cb13f3d19e3664736f6c63430008180033",
  "linkReferences": {},
  "deployedLinkReferences": {}
}