{
  "_format": "hh-sol-artifact-1",
  "contractName": "Locker",
  "sourceName": "contracts/erc4626/Locker.sol",
  "abi": [
    {
      "inputs": [
        {
          "internalType": "address",
          "name": "_stakingToken",
          "type": "address"
        },
        {
          "internalType": "address[]",
          "name": "_rewardTokens",
          "type": "address[]"
        },
        {
          "internalType": "uint256",
          "name": "_lockPeriod",
          "type": "uint256"
        }
      ],
      "stateMutability": "payable",
      "type": "constructor"
    },
    {
      "inputs": [
        {
          "internalType": "uint256",
          "name": "lockPeriodReachedAt",
          "type": "uint256"
        }
      ],
      "name": "LockPeriodNotReached",
      "type": "error"
    },
    {
      "inputs": [
        {
          "internalType": "address",
          "name": "owner",
          "type": "address"
        }
      ],
      "name": "OwnableInvalidOwner",
      "type": "error"
    },
    {
      "inputs": [
        {
          "internalType": "address",
          "name": "account",
          "type": "address"
        }
      ],
      "name": "OwnableUnauthorizedAccount",
      "type": "error"
    },
    {
      "inputs": [
        {
          "internalType": "uint8",
          "name": "bits",
          "type": "uint8"
        },
        {
          "internalType": "uint256",
          "name": "value",
          "type": "uint256"
        }
      ],
      "name": "SafeCastOverflowedUintDowncast",
      "type": "error"
    },
    {
      "inputs": [
        {
          "internalType": "address",
          "name": "_token",
          "type": "address"
        }
      ],
      "name": "TokenNotSupported",
      "type": "error"
    },
    {
      "anonymous": false,
      "inputs": [
        {
          "indexed": true,
          "internalType": "address",
          "name": "user",
          "type": "address"
        },
        {
          "indexed": true,
          "internalType": "address",
          "name": "token",
          "type": "address"
        },
        {
          "indexed": false,
          "internalType": "uint256",
          "name": "amount",
          "type": "uint256"
        }
      ],
      "name": "Claim",
      "type": "event"
    },
    {
      "anonymous": false,
      "inputs": [
        {
          "indexed": true,
          "internalType": "address",
          "name": "previousOwner",
          "type": "address"
        },
        {
          "indexed": true,
          "internalType": "address",
          "name": "newOwner",
          "type": "address"
        }
      ],
      "name": "OwnershipTransferred",
      "type": "event"
    },
    {
      "anonymous": false,
      "inputs": [
        {
          "indexed": true,
          "internalType": "address",
          "name": "token",
          "type": "address"
        },
        {
          "indexed": false,
          "internalType": "uint256",
          "name": "amount",
          "type": "uint256"
        }
      ],
      "name": "RewardAdded",
      "type": "event"
    },
    {
      "anonymous": false,
      "inputs": [
        {
          "indexed": true,
          "internalType": "address",
          "name": "user",
          "type": "address"
        },
        {
          "indexed": true,
          "internalType": "address",
          "name": "token",
          "type": "address"
        },
        {
          "indexed": false,
          "internalType": "uint256",
          "name": "amount",
          "type": "uint256"
        }
      ],
      "name": "Staked",
      "type": "event"
    },
    {
      "anonymous": false,
      "inputs": [
        {
          "indexed": true,
          "internalType": "address",
          "name": "user",
          "type": "address"
        },
        {
          "indexed": true,
          "internalType": "address",
          "name": "token",
          "type": "address"
        },
        {
          "indexed": false,
          "internalType": "uint256",
          "name": "amount",
          "type": "uint256"
        }
      ],
      "name": "Withdraw",
      "type": "event"
    },
    {
      "inputs": [
        {
          "internalType": "address",
          "name": "_token",
          "type": "address"
        },
        {
          "internalType": "uint256",
          "name": "_amount",
          "type": "uint256"
        }
      ],
      "name": "addReward",
      "outputs": [],
      "stateMutability": "nonpayable",
      "type": "function"
    },
    {
      "inputs": [
        {
          "internalType": "address",
          "name": "_token",
          "type": "address"
        }
      ],
      "name": "calculateReward",
      "outputs": [
        {
          "internalType": "uint256",
          "name": "",
          "type": "uint256"
        }
      ],
      "stateMutability": "view",
      "type": "function"
    },
    {
      "inputs": [],
      "name": "claimAllReward",
      "outputs": [],
      "stateMutability": "nonpayable",
      "type": "function"
    },
    {
      "inputs": [
        {
          "internalType": "address[]",
          "name": "_tokensToClaim",
          "type": "address[]"
        }
      ],
      "name": "claimSpecificsReward",
      "outputs": [],
      "stateMutability": "nonpayable",
      "type": "function"
    },
    {
      "inputs": [],
      "name": "getLockPeriod",
      "outputs": [
        {
          "internalType": "uint256",
          "name": "",
          "type": "uint256"
        }
      ],
      "stateMutability": "view",
      "type": "function"
    },
    {
      "inputs": [],
      "name": "getLockedAmount",
      "outputs": [
        {
          "internalType": "uint256",
          "name": "",
          "type": "uint256"
        }
      ],
      "stateMutability": "view",
      "type": "function"
    },
    {
      "inputs": [],
      "name": "getRewardTokens",
      "outputs": [
        {
          "internalType": "address[]",
          "name": "",
          "type": "address[]"
        }
      ],
      "stateMutability": "view",
      "type": "function"
    },
    {
      "inputs": [],
      "name": "getStakingToken",
      "outputs": [
        {
          "internalType": "address",
          "name": "",
          "type": "address"
        }
      ],
      "stateMutability": "view",
      "type": "function"
    },
    {
      "inputs": [],
      "name": "getTVL",
      "outputs": [
        {
          "internalType": "uint256",
          "name": "",
          "type": "uint256"
        }
      ],
      "stateMutability": "view",
      "type": "function"
    },
    {
      "inputs": [],
      "name": "owner",
      "outputs": [
        {
          "internalType": "address",
          "name": "",
          "type": "address"
        }
      ],
      "stateMutability": "view",
      "type": "function"
    },
    {
      "inputs": [],
      "name": "renounceOwnership",
      "outputs": [],
      "stateMutability": "nonpayable",
      "type": "function"
    },
    {
      "inputs": [
        {
          "internalType": "uint256",
          "name": "_amount",
          "type": "uint256"
        }
      ],
      "name": "stake",
      "outputs": [],
      "stateMutability": "nonpayable",
      "type": "function"
    },
    {
      "inputs": [
        {
          "internalType": "address",
          "name": "newOwner",
          "type": "address"
        }
      ],
      "name": "transferOwnership",
      "outputs": [],
      "stateMutability": "nonpayable",
      "type": "function"
    },
    {
      "inputs": [
        {
          "internalType": "address[]",
          "name": "_rewardsToClaim",
          "type": "address[]"
        },
        {
          "internalType": "uint256",
          "name": "_amount",
          "type": "uint256"
        }
      ],
      "name": "unlock",
      "outputs": [],
      "stateMutability": "nonpayable",
      "type": "function"
    }
  ],
  "bytecode": "0x6080604052604051620015a3380380620015a38339810160408190526200002691620004ae565b33806200004e57604051631e4fbdf760e01b8152600060048201526024015b60405180910390fd5b620000598162000249565b506001600160a01b038316620000c75760405162461bcd60e51b815260206004820152602c60248201527f4c6f636b65723a207374616b696e6720746f6b656e2063616e6e6f742062652060448201526b7a65726f206164647265737360a01b606482015260840162000045565b80600003620001195760405162461bcd60e51b815260206004820152601d60248201527f4c6f636b65723a20746f6f2073686f7274206c6f636b20706572696f64000000604482015260640162000045565b600082511180156200012d57508151601410155b620001865760405162461bcd60e51b815260206004820152602260248201527f4c6f636b65723a20696e636f7272656374206e756d626572206f6620746f6b656044820152616e7360f01b606482015260840162000045565b600180546001600160a01b0319166001600160a01b038516179055620001ac8162000299565b600180546001600160401b0392909216600160a01b02600160a01b600160e01b03199092169190911790558151620001ec90600390602085019062000404565b50815160005b81811015620002325762000229848281518110620002145762000214620005a0565b602002602001015130620002d560201b60201c565b600101620001f2565b506200023f8430620002d5565b5050505062000613565b600080546001600160a01b038381166001600160a01b0319831681178455604051919092169283917f8be0079c531659141344cd1fd0a4f28419497f9722a3daafe3b4186f6b6457e09190a35050565b60006001600160401b03821115620002d157604080516306dfcc6560e41b815260048101919091526024810183905260440162000045565b5090565b604080516001600160a01b038381166024830152841660448083019190915282518083039091018152606490910182526020810180516001600160e01b031663248a35ef60e11b17905290516000918291829161016791620003389190620005b6565b6000604051808303816000865af19150503d806000811462000377576040519150601f19603f3d011682016040523d82523d6000602084013e6200037c565b606091505b5091509150816200038f576015620003a5565b80806020019051810190620003a59190620005e7565b9250600383900b601614620003fd5760405162461bcd60e51b815260206004820152601f60248201527f536166652073696e676c65206173736f63696174696f6e206661696c65642100604482015260640162000045565b5050505050565b8280548282559060005260206000209081019282156200045c579160200282015b828111156200045c57825182546001600160a01b0319166001600160a01b0390911617825560209092019160019091019062000425565b50620002d19291505b80821115620002d1576000815560010162000465565b80516001600160a01b03811681146200049357600080fd5b919050565b634e487b7160e01b600052604160045260246000fd5b600080600060608486031215620004c457600080fd5b620004cf846200047b565b602085810151919450906001600160401b0380821115620004ef57600080fd5b818701915087601f8301126200050457600080fd5b81518181111562000519576200051962000498565b8060051b604051601f19603f8301168101818110858211171562000541576200054162000498565b60405291825284820192508381018501918a8311156200056057600080fd5b938501935b82851015620005895762000579856200047b565b8452938501939285019262000565565b809750505050505050604084015190509250925092565b634e487b7160e01b600052603260045260246000fd5b6000825160005b81811015620005d95760208186018101518583015201620005bd565b506000920191825250919050565b600060208284031215620005fa57600080fd5b81518060030b81146200060c57600080fd5b9392505050565b610f8080620006236000396000f3fe608060405234801561001057600080fd5b50600436106100ea5760003560e01c80639feb8f501161008c578063d034442c11610066578063d034442c146101b1578063d82e3962146101c4578063e43db193146101d7578063f2fde38b146101f057600080fd5b80639feb8f5014610176578063a694fc3a14610189578063c4f59f9b1461019c57600080fd5b80638a623d86116100c85780638a623d86146101305780638da5cb5b1461013857806397b3fcaa1461015d5780639f9106d11461016557600080fd5b8063252bc886146100ef57806357600c4a14610113578063715018a614610128575b600080fd5b336000908152600460205260409020545b6040519081526020015b60405180910390f35b610126610121366004610ce1565b610203565b005b61012661032c565b610126610340565b6000546001600160a01b03165b6040516001600160a01b03909116815260200161010a565b600254610100565b6001546001600160a01b0316610145565b610126610184366004610d3f565b610465565b610126610197366004610d69565b61067f565b6101a46108a0565b60405161010a9190610d82565b6101266101bf366004610dcf565b610902565b6101006101d2366004610e1b565b6109ad565b600154600160a01b900467ffffffffffffffff16610100565b6101266101fe366004610e1b565b6109fc565b80600080805b838110156103245785858281811061022357610223610e3d565b90506020020160208101906102389190610e1b565b915061025f826001600160a01b031660009081526005602052604090206001015460ff1690565b61028c576040516306439c6b60e01b81526001600160a01b03831660048201526024015b60405180910390fd5b610295826109ad565b6001600160a01b03831660008181526005602090815260408083205433808552600484528285209585526001909501909252909120559093506102dc908390309086610a37565b6040518381526001600160a01b0383169033907f70eb43c4a8ae8c40502dcf22436c509c28d6ff421cf07c491be56984bd9870689060200160405180910390a3600101610209565b505050505050565b610334610b70565b61033e6000610b9d565b565b600354600080805b8381101561045f576003818154811061036357610363610e3d565b6000918252602090912001546001600160a01b0316915061039f826001600160a01b031660009081526005602052604090206001015460ff1690565b6103c7576040516306439c6b60e01b81526001600160a01b0383166004820152602401610283565b6103d0826109ad565b6001600160a01b0383166000818152600560209081526040808320543380855260048452828520958552600190950190925290912055909350610417908390309086610a37565b6040518381526001600160a01b0383169033907f70eb43c4a8ae8c40502dcf22436c509c28d6ff421cf07c491be56984bd9870689060200160405180910390a3600101610348565b50505050565b61046d610b70565b6001600160a01b0382166104c35760405162461bcd60e51b815260206004820152601d60248201527f4c6f636b65723a20696e76616c696420746f6b656e20616464726573730000006044820152606401610283565b806000036104e35760405162461bcd60e51b815260040161028390610e53565b6002546000036105355760405162461bcd60e51b815260206004820152601760248201527f4c6f636b65723a206e6f207374616b656420746f6b656e0000000000000000006044820152606401610283565b6000600254826105459190610e99565b6001600160a01b03841660009081526005602052604090206001015490915060ff1661063b576003805460018181019092557fc2575a0e9e593c00f959f8c92f12db2869c3395a3b0502d05e2516446f71f85b0180546001600160a01b0386166001600160a01b031990911681179091556000908152600560205260409020808201805460ff19169092179091558190556105f3836105ec6000546001600160a01b031690565b3085610a37565b826001600160a01b03167fac24935fd910bc682b5ccb1a07b718cadf8cf2f6d1404c4f3ddc3662dae40e298360405161062e91815260200190565b60405180910390a2505050565b6001600160a01b03831660009081526005602052604081208054839290610663908490610ebb565b909155506105f39050836105ec6000546001600160a01b031690565b8060000361069f5760405162461bcd60e51b815260040161028390610e53565b3360009081526004602052604081206002015490036107e85760035460005b818110156107595760056000600383815481106106dd576106dd610e3d565b60009182526020808320909101546001600160a01b0316835282810193909352604091820181205433825260049093529081206003805460019290920192918590811061072c5761072c610e3d565b60009182526020808320909101546001600160a01b031683528201929092526040019020556001016106be565b50336000908152600460205260408120838155426002918201558054849290610783908490610ebb565b90915550506001546107a0906001600160a01b0316333085610a37565b6001546040518381526001600160a01b039091169033907f5dac0c1b1112564a045ba943c9d50270893e8e826c49be8e7073adc713ab7bd79060200160405180910390a35050565b3360009081526004602052604081208054839290610807908490610ebb565b9091555050336000908152600460205260408120426002918201558054839290610832908490610ebb565b909155506108409050610340565b600154610858906001600160a01b0316333084610a37565b6001546040518281526001600160a01b039091169033907f5dac0c1b1112564a045ba943c9d50270893e8e826c49be8e7073adc713ab7bd79060200160405180910390a35b50565b606060038054806020026020016040519081016040528092919081815260200182805480156108f857602002820191906000526020600020905b81546001600160a01b031681526001909101906020018083116108da575b5050505050905090565b806000036109225760405162461bcd60e51b815260040161028390610e53565b60008290036109435760405162461bcd60e51b815260040161028390610e53565b60015433600090815260046020526040812060020154909161097791600160a01b90910467ffffffffffffffff1690610ebb565b9050428110156109915761098c848484610bed565b61045f565b604051635e6374c360e11b815260048101829052602401610283565b33600090815260046020908152604080832080546001600160a01b0386168552600190910183528184205460059093529083205490916109ec91610ece565b6109f69190610ee1565b92915050565b610a04610b70565b6001600160a01b038116610a2e57604051631e4fbdf760e01b815260006004820152602401610283565b61089d81610b9d565b604080516001600160a01b038681166024830152858116604483015284166064820152600783900b6084808301919091528251808303909101815260a490910182526020810180516001600160e01b031663eca3691760e01b17905290516000918291829161016791610aaa9190610ef8565b6000604051808303816000865af19150503d8060008114610ae7576040519150601f19603f3d011682016040523d82523d6000602084013e610aec565b606091505b509150915081610afd576015610b11565b80806020019051810190610b119190610f27565b9250600383900b601614610b675760405162461bcd60e51b815260206004820152601b60248201527f5361666520746f6b656e207472616e73666572206661696c65642100000000006044820152606401610283565b50505050505050565b6000546001600160a01b0316331461033e5760405163118cdaa760e01b8152336004820152602401610283565b600080546001600160a01b038381166001600160a01b0319831681178455604051919092169283917f8be0079c531659141344cd1fd0a4f28419497f9722a3daafe3b4186f6b6457e09190a35050565b610bf78383610203565b600154610c0f906001600160a01b0316303384610a37565b3360009081526004602052604081208054839290610c2e908490610ece565b925050819055508060026000828254610c479190610ece565b90915550506001546040518281526001600160a01b039091169033907f9b1bfa7fa9ee420a16e124f794c35ac9f90472acc99140eb2f6447c714cad8eb9060200160405180910390a3505050565b60008083601f840112610ca757600080fd5b50813567ffffffffffffffff811115610cbf57600080fd5b6020830191508360208260051b8501011115610cda57600080fd5b9250929050565b60008060208385031215610cf457600080fd5b823567ffffffffffffffff811115610d0b57600080fd5b610d1785828601610c95565b90969095509350505050565b80356001600160a01b0381168114610d3a57600080fd5b919050565b60008060408385031215610d5257600080fd5b610d5b83610d23565b946020939093013593505050565b600060208284031215610d7b57600080fd5b5035919050565b6020808252825182820181905260009190848201906040850190845b81811015610dc35783516001600160a01b031683529284019291840191600101610d9e565b50909695505050505050565b600080600060408486031215610de457600080fd5b833567ffffffffffffffff811115610dfb57600080fd5b610e0786828701610c95565b909790965060209590950135949350505050565b600060208284031215610e2d57600080fd5b610e3682610d23565b9392505050565b634e487b7160e01b600052603260045260246000fd5b602080825260169082015275131bd8dad95c8e881a5b9d985b1a5908185b5bdd5b9d60521b604082015260600190565b634e487b7160e01b600052601160045260246000fd5b600082610eb657634e487b7160e01b600052601260045260246000fd5b500490565b808201808211156109f6576109f6610e83565b818103818111156109f6576109f6610e83565b80820281158282048414176109f6576109f6610e83565b6000825160005b81811015610f195760208186018101518583015201610eff565b506000920191825250919050565b600060208284031215610f3957600080fd5b81518060030b8114610e3657600080fdfea2646970667358221220010eb5413b5f51694137ba03087ddb5e35e7c05b5820e65d5d3084e2565ca4b264736f6c63430008180033",
  "linkReferences": {},
  "deployedLinkReferences": {}
}