{
  "_format": "hh-sol-artifact-1",
  "contractName": "MaxBalanceModule",
  "sourceName": "contracts/erc3643/compliance/modular/modules/MaxBalanceModule.sol",
  "abi": [
    {
      "inputs": [
        {
          "internalType": "address",
          "name": "_compliance",
          "type": "address"
        },
        {
          "internalType": "address[]",
          "name": "_id",
          "type": "address[]"
        },
        {
          "internalType": "uint256[]",
          "name": "_balance",
          "type": "uint256[]"
        }
      ],
      "name": "InvalidPresetValues",
      "type": "error"
    },
    {
      "inputs": [
        {
          "internalType": "address",
          "name": "_compliance",
          "type": "address"
        },
        {
          "internalType": "uint256",
          "name": "_value",
          "type": "uint256"
        }
      ],
      "name": "MaxBalanceExceeded",
      "type": "error"
    },
    {
      "inputs": [
        {
          "internalType": "address",
          "name": "_compliance",
          "type": "address"
        }
      ],
      "name": "OnlyComplianceOwnerCanCall",
      "type": "error"
    },
    {
      "inputs": [
        {
          "internalType": "address",
          "name": "_compliance",
          "type": "address"
        }
      ],
      "name": "TokenAlreadyBound",
      "type": "error"
    },
    {
      "anonymous": false,
      "inputs": [
        {
          "indexed": true,
          "internalType": "address",
          "name": "_compliance",
          "type": "address"
        }
      ],
      "name": "ComplianceBound",
      "type": "event"
    },
    {
      "anonymous": false,
      "inputs": [
        {
          "indexed": true,
          "internalType": "address",
          "name": "_compliance",
          "type": "address"
        }
      ],
      "name": "ComplianceUnbound",
      "type": "event"
    },
    {
      "anonymous": false,
      "inputs": [
        {
          "indexed": true,
          "internalType": "address",
          "name": "_compliance",
          "type": "address"
        },
        {
          "indexed": true,
          "internalType": "address",
          "name": "_id",
          "type": "address"
        },
        {
          "indexed": false,
          "internalType": "uint256",
          "name": "_balance",
          "type": "uint256"
        }
      ],
      "name": "IDBalancePreSet",
      "type": "event"
    },
    {
      "anonymous": false,
      "inputs": [
        {
          "indexed": true,
          "internalType": "address",
          "name": "_compliance",
          "type": "address"
        },
        {
          "indexed": true,
          "internalType": "uint256",
          "name": "_maxBalance",
          "type": "uint256"
        }
      ],
      "name": "MaxBalanceSet",
      "type": "event"
    },
    {
      "inputs": [
        {
          "internalType": "address",
          "name": "_compliance",
          "type": "address"
        },
        {
          "internalType": "address[]",
          "name": "_id",
          "type": "address[]"
        },
        {
          "internalType": "uint256[]",
          "name": "_balance",
          "type": "uint256[]"
        }
      ],
      "name": "batchPreSetModuleState",
      "outputs": [],
      "stateMutability": "nonpayable",
      "type": "function"
    },
    {
      "inputs": [
        {
          "internalType": "address",
          "name": "_compliance",
          "type": "address"
        }
      ],
      "name": "bindCompliance",
      "outputs": [],
      "stateMutability": "nonpayable",
      "type": "function"
    },
    {
      "inputs": [
        {
          "internalType": "address",
          "name": "_compliance",
          "type": "address"
        }
      ],
      "name": "canComplianceBind",
      "outputs": [
        {
          "internalType": "bool",
          "name": "",
          "type": "bool"
        }
      ],
      "stateMutability": "view",
      "type": "function"
    },
    {
      "inputs": [
        {
          "internalType": "address",
          "name": "_compliance",
          "type": "address"
        },
        {
          "internalType": "address",
          "name": "_identity",
          "type": "address"
        }
      ],
      "name": "getIDBalance",
      "outputs": [
        {
          "internalType": "uint256",
          "name": "",
          "type": "uint256"
        }
      ],
      "stateMutability": "view",
      "type": "function"
    },
    {
      "inputs": [
        {
          "internalType": "address",
          "name": "_compliance",
          "type": "address"
        }
      ],
      "name": "isComplianceBound",
      "outputs": [
        {
          "internalType": "bool",
          "name": "",
          "type": "bool"
        }
      ],
      "stateMutability": "view",
      "type": "function"
    },
    {
      "inputs": [],
      "name": "isPlugAndPlay",
      "outputs": [
        {
          "internalType": "bool",
          "name": "",
          "type": "bool"
        }
      ],
      "stateMutability": "pure",
      "type": "function"
    },
    {
      "inputs": [
        {
          "internalType": "address",
          "name": "_from",
          "type": "address"
        },
        {
          "internalType": "uint256",
          "name": "_value",
          "type": "uint256"
        }
      ],
      "name": "moduleBurnAction",
      "outputs": [],
      "stateMutability": "nonpayable",
      "type": "function"
    },
    {
      "inputs": [
        {
          "internalType": "address",
          "name": "",
          "type": "address"
        },
        {
          "internalType": "address",
          "name": "_to",
          "type": "address"
        },
        {
          "internalType": "uint256",
          "name": "_value",
          "type": "uint256"
        },
        {
          "internalType": "address",
          "name": "_compliance",
          "type": "address"
        }
      ],
      "name": "moduleCheck",
      "outputs": [
        {
          "internalType": "bool",
          "name": "",
          "type": "bool"
        }
      ],
      "stateMutability": "view",
      "type": "function"
    },
    {
      "inputs": [
        {
          "internalType": "address",
          "name": "_to",
          "type": "address"
        },
        {
          "internalType": "uint256",
          "name": "_value",
          "type": "uint256"
        }
      ],
      "name": "moduleMintAction",
      "outputs": [],
      "stateMutability": "nonpayable",
      "type": "function"
    },
    {
      "inputs": [
        {
          "internalType": "address",
          "name": "_from",
          "type": "address"
        },
        {
          "internalType": "address",
          "name": "_to",
          "type": "address"
        },
        {
          "internalType": "uint256",
          "name": "_value",
          "type": "uint256"
        }
      ],
      "name": "moduleTransferAction",
      "outputs": [],
      "stateMutability": "nonpayable",
      "type": "function"
    },
    {
      "inputs": [],
      "name": "name",
      "outputs": [
        {
          "internalType": "string",
          "name": "_name",
          "type": "string"
        }
      ],
      "stateMutability": "pure",
      "type": "function"
    },
    {
      "inputs": [
        {
          "internalType": "address",
          "name": "_compliance",
          "type": "address"
        },
        {
          "internalType": "address",
          "name": "_id",
          "type": "address"
        },
        {
          "internalType": "uint256",
          "name": "_balance",
          "type": "uint256"
        }
      ],
      "name": "preSetModuleState",
      "outputs": [],
      "stateMutability": "nonpayable",
      "type": "function"
    },
    {
      "inputs": [
        {
          "internalType": "address",
          "name": "_compliance",
          "type": "address"
        }
      ],
      "name": "presetCompleted",
      "outputs": [],
      "stateMutability": "nonpayable",
      "type": "function"
    },
    {
      "inputs": [
        {
          "internalType": "uint256",
          "name": "_max",
          "type": "uint256"
        }
      ],
      "name": "setMaxBalance",
      "outputs": [],
      "stateMutability": "nonpayable",
      "type": "function"
    },
    {
      "inputs": [
        {
          "internalType": "address",
          "name": "_compliance",
          "type": "address"
        }
      ],
      "name": "unbindCompliance",
      "outputs": [],
      "stateMutability": "nonpayable",
      "type": "function"
    }
  ],
  "bytecode": "0x608060405234801561001057600080fd5b50611301806100206000396000f3fe608060405234801561001057600080fd5b50600436106100d55760003560e01c80638f27c0eb116100875780638f27c0eb146101ae5780639d51d9b7146101c1578063bcc21053146101d4578063cc203f75146101e7578063dd50b74c14610208578063e6f5e8071461021b578063f104a8c914610222578063f7c4722c1461023557600080fd5b8063013b7ce4146100da5780630694a5fb1461010257806306fdde03146101175780632cb7e1ec14610149578063372491a21461015c5780634a9325441461016f5780634cf4d29514610182575b600080fd5b6100ed6100e8366004610e82565b610248565b60405190151581526020015b60405180910390f35b610115610110366004610ed5565b6102d9565b005b604080518082018252601081526f4d617842616c616e63654d6f64756c6560801b602082015290516100f99190610ef2565b610115610157366004610f41565b6103a8565b61011561016a366004610f82565b6104c2565b61011561017d366004610ed5565b61053f565b6100ed610190366004610ed5565b6001600160a01b031660009081526020819052604090205460ff1690565b6101156101bc366004610ffa565b61063d565b6101156101cf36600461107d565b61081e565b6100ed6101e2366004610ed5565b61088a565b6101fa6101f5366004611096565b61099b565b6040519081526020016100f9565b610115610216366004610ed5565b6109c8565b60006100ed565b610115610230366004610f82565b610a84565b610115610243366004610f41565b610b56565b6001600160a01b038116600090815260026020526040812054831115610270575060006102d1565b600061027c8386610c83565b6001600160a01b0380851660009081526002602090815260408083205460038352818420948616845293909152902054919250906102bb9086906110e5565b11156102cb5760009150506102d1565b60019150505b949350505050565b3360009081526020819052604090205460ff166103115760405162461bcd60e51b8152600401610308906110f8565b60405180910390fd5b6001600160a01b0381166103375760405162461bcd60e51b81526004016103089061112f565b336001600160a01b0382161461035f5760405162461bcd60e51b815260040161030890611166565b6001600160a01b038116600081815260208190526040808220805460ff19169055517f408b49d9be1c914c52a0227e18a077e5a892dddf32a26cfa94a5d9708fad77189190a250565b3360009081526020819052604090205460ff166103d75760405162461bcd60e51b8152600401610308906110f8565b60006103e33385610c83565b905060006103f13385610c83565b3360009081526003602090815260408083206001600160a01b03851684529091528120805492935085929091906104299084906110e5565b90915550503360009081526003602090815260408083206001600160a01b0386168452909152812080548592906104619084906111a7565b909155505033600090815260026020908152604080832054600383528184206001600160a01b03861685529092529091205411156104bb57604051630d9ada5960e21b815233600482015260248101849052604401610308565b5050505050565b3360009081526020819052604090205460ff166104f15760405162461bcd60e51b8152600401610308906110f8565b60006104fd3384610c83565b3360009081526003602090815260408083206001600160a01b03851684529091528120805492935084929091906105359084906111a7565b9091555050505050565b6001600160a01b0381166105655760405162461bcd60e51b81526004016103089061112f565b6001600160a01b03811660009081526020819052604090205460ff16156105c95760405162461bcd60e51b815260206004820152601860248201527718dbdb5c1b1a585b98d948185b1c9958591e48189bdd5b9960421b6044820152606401610308565b336001600160a01b038216146105f15760405162461bcd60e51b815260040161030890611166565b6001600160a01b038116600081815260208190526040808220805460ff19166001179055517f1f7b76c58fb697eb53c6c7c1becb96911516a136e24d7ced386b2355358b75a39190a250565b82158061064a5750828114155b1561067257848484848460405163355c2bfd60e11b81526004016103089594939291906111ba565b336001600160a01b0316856001600160a01b0316638da5cb5b6040518163ffffffff1660e01b8152600401602060405180830381865afa1580156106ba573d6000803e3d6000fd5b505050506040513d601f19601f820116820180604052508101906106de9190611249565b6001600160a01b031614610707578460405163e8649dab60e01b81526004016103089190611266565b60405163a446d49f60e01b81526001600160a01b0386169063a446d49f90610733903090600401611266565b602060405180830381865afa158015610750573d6000803e3d6000fd5b505050506040513d601f19601f82011682018060405250810190610774919061127a565b15610794578460405163346a0c0160e21b81526004016103089190611266565b60005b838110156107f0576107e8868686848181106107b5576107b561129c565b90506020020160208101906107ca9190610ed5565b8585858181106107dc576107dc61129c565b90506020020135610e09565b600101610797565b5050506001600160a01b039092166000908152600160208190526040909120805460ff191690911790555050565b3360009081526020819052604090205460ff1661084d5760405162461bcd60e51b8152600401610308906110f8565b33600081815260026020526040808220849055518392917f8bec153ee727d17f3f63aa27cbb6bd64eb978b88821b30002a4b5517aeb10cec91a350565b6001600160a01b03811660009081526001602052604081205460ff16156108b357506001919050565b6000826001600160a01b0316636a3edf286040518163ffffffff1660e01b8152600401602060405180830381865afa1580156108f3573d6000803e3d6000fd5b505050506040513d601f19601f820116820180604052508101906109179190611249565b90506000816001600160a01b03166318160ddd6040518163ffffffff1660e01b8152600401602060405180830381865afa158015610959573d6000803e3d6000fd5b505050506040513d601f19601f8201168201806040525081019061097d91906112b2565b905080600003610991575060019392505050565b5060009392505050565b6001600160a01b038083166000908152600360209081526040808320938516835292905220545b92915050565b336001600160a01b0316816001600160a01b0316638da5cb5b6040518163ffffffff1660e01b8152600401602060405180830381865afa158015610a10573d6000803e3d6000fd5b505050506040513d601f19601f82011682018060405250810190610a349190611249565b6001600160a01b031614610a5d578060405163e8649dab60e01b81526004016103089190611266565b6001600160a01b03166000908152600160208190526040909120805460ff19169091179055565b3360009081526020819052604090205460ff16610ab35760405162461bcd60e51b8152600401610308906110f8565b6000610abf3384610c83565b3360009081526003602090815260408083206001600160a01b0385168452909152812080549293508492909190610af79084906110e5565b909155505033600090815260026020908152604080832054600383528184206001600160a01b0386168552909252909120541115610b5157604051630d9ada5960e21b815233600482015260248101839052604401610308565b505050565b336001600160a01b0316836001600160a01b0316638da5cb5b6040518163ffffffff1660e01b8152600401602060405180830381865afa158015610b9e573d6000803e3d6000fd5b505050506040513d601f19601f82011682018060405250810190610bc29190611249565b6001600160a01b031614610beb578260405163e8649dab60e01b81526004016103089190611266565b60405163a446d49f60e01b81526001600160a01b0384169063a446d49f90610c17903090600401611266565b602060405180830381865afa158015610c34573d6000803e3d6000fd5b505050506040513d601f19601f82011682018060405250810190610c58919061127a565b15610c78578260405163346a0c0160e21b81526004016103089190611266565b610b51838383610e09565b600080836001600160a01b0316636a3edf286040518163ffffffff1660e01b8152600401602060405180830381865afa158015610cc4573d6000803e3d6000fd5b505050506040513d601f19601f82011682018060405250810190610ce89190611249565b6001600160a01b031663134e18f46040518163ffffffff1660e01b8152600401602060405180830381865afa158015610d25573d6000803e3d6000fd5b505050506040513d601f19601f82011682018060405250810190610d499190611249565b6001600160a01b031663f0eb5e54846040518263ffffffff1660e01b8152600401610d749190611266565b602060405180830381865afa158015610d91573d6000803e3d6000fd5b505050506040513d601f19601f82011682018060405250810190610db59190611249565b90506001600160a01b038116610e025760405162461bcd60e51b81526020600482015260126024820152711a59195b9d1a5d1e481b9bdd08199bdd5b9960721b6044820152606401610308565b9392505050565b6001600160a01b0383811660008181526003602090815260408083209487168084529482529182902085905590518481527f0a777417e1c0a4b24c5f556b0c3dd522c37b99b2c3ca4bf9fea2fa1293c660c9910160405180910390a3505050565b6001600160a01b0381168114610e7f57600080fd5b50565b60008060008060808587031215610e9857600080fd5b8435610ea381610e6a565b93506020850135610eb381610e6a565b9250604085013591506060850135610eca81610e6a565b939692955090935050565b600060208284031215610ee757600080fd5b8135610e0281610e6a565b60006020808352835180602085015260005b81811015610f2057858101830151858201604001528201610f04565b506000604082860101526040601f19601f8301168501019250505092915050565b600080600060608486031215610f5657600080fd5b8335610f6181610e6a565b92506020840135610f7181610e6a565b929592945050506040919091013590565b60008060408385031215610f9557600080fd5b8235610fa081610e6a565b946020939093013593505050565b60008083601f840112610fc057600080fd5b50813567ffffffffffffffff811115610fd857600080fd5b6020830191508360208260051b8501011115610ff357600080fd5b9250929050565b60008060008060006060868803121561101257600080fd5b853561101d81610e6a565b9450602086013567ffffffffffffffff8082111561103a57600080fd5b61104689838a01610fae565b9096509450604088013591508082111561105f57600080fd5b5061106c88828901610fae565b969995985093965092949392505050565b60006020828403121561108f57600080fd5b5035919050565b600080604083850312156110a957600080fd5b82356110b481610e6a565b915060208301356110c481610e6a565b809150509250929050565b634e487b7160e01b600052601160045260246000fd5b808201808211156109c2576109c26110cf565b6020808252601e908201527f6f6e6c7920626f756e6420636f6d706c69616e63652063616e2063616c6c0000604082015260600190565b6020808252601f908201527f696e76616c696420617267756d656e74202d207a65726f206164647265737300604082015260600190565b60208082526021908201527f6f6e6c7920636f6d706c69616e636520636f6e74726163742063616e2063616c6040820152601b60fa1b606082015260800190565b818103818111156109c2576109c26110cf565b6001600160a01b03868116825260606020808401829052908301869052600091879160808501845b898110156112095784356111f581610e6a565b8416825293820193908201906001016111e2565b5085810360408701528681526001600160fb1b0387111561122957600080fd5b8660051b9350838860208301379092016020019998505050505050505050565b60006020828403121561125b57600080fd5b8151610e0281610e6a565b6001600160a01b0391909116815260200190565b60006020828403121561128c57600080fd5b81518015158114610e0257600080fd5b634e487b7160e01b600052603260045260246000fd5b6000602082840312156112c457600080fd5b505191905056fea264697066735822122081c228b476f4edc7919ed22d82b79ea1af3dced7459142541437eeed3a9e448964736f6c63430008180033",
  "linkReferences": {},
  "deployedLinkReferences": {}
}