{
  "_format": "hh-sol-artifact-1",
  "contractName": "MaxBalanceTest",
  "sourceName": "contracts/erc3643/compliance/legacy/test/MaxBalanceTest.sol",
  "abi": [
    {
      "inputs": [
        {
          "internalType": "address",
          "name": "owner",
          "type": "address"
        }
      ],
      "name": "OwnableInvalidOwner",
      "type": "error"
    },
    {
      "inputs": [
        {
          "internalType": "address",
          "name": "account",
          "type": "address"
        }
      ],
      "name": "OwnableUnauthorizedAccount",
      "type": "error"
    },
    {
      "anonymous": false,
      "inputs": [
        {
          "indexed": true,
          "internalType": "address",
          "name": "_agent",
          "type": "address"
        }
      ],
      "name": "AgentAdded",
      "type": "event"
    },
    {
      "anonymous": false,
      "inputs": [
        {
          "indexed": true,
          "internalType": "address",
          "name": "_agent",
          "type": "address"
        }
      ],
      "name": "AgentRemoved",
      "type": "event"
    },
    {
      "anonymous": false,
      "inputs": [
        {
          "indexed": false,
          "internalType": "uint256",
          "name": "_maxBalance",
          "type": "uint256"
        }
      ],
      "name": "MaxBalanceSet",
      "type": "event"
    },
    {
      "anonymous": false,
      "inputs": [
        {
          "indexed": true,
          "internalType": "address",
          "name": "previousOwner",
          "type": "address"
        },
        {
          "indexed": true,
          "internalType": "address",
          "name": "newOwner",
          "type": "address"
        }
      ],
      "name": "OwnershipTransferred",
      "type": "event"
    },
    {
      "anonymous": false,
      "inputs": [
        {
          "indexed": false,
          "internalType": "address",
          "name": "_agentAddress",
          "type": "address"
        }
      ],
      "name": "TokenAgentAdded",
      "type": "event"
    },
    {
      "anonymous": false,
      "inputs": [
        {
          "indexed": false,
          "internalType": "address",
          "name": "_agentAddress",
          "type": "address"
        }
      ],
      "name": "TokenAgentRemoved",
      "type": "event"
    },
    {
      "anonymous": false,
      "inputs": [
        {
          "indexed": false,
          "internalType": "address",
          "name": "_token",
          "type": "address"
        }
      ],
      "name": "TokenBound",
      "type": "event"
    },
    {
      "anonymous": false,
      "inputs": [
        {
          "indexed": false,
          "internalType": "address",
          "name": "_token",
          "type": "address"
        }
      ],
      "name": "TokenUnbound",
      "type": "event"
    },
    {
      "inputs": [
        {
          "internalType": "address",
          "name": "",
          "type": "address"
        }
      ],
      "name": "IDBalance",
      "outputs": [
        {
          "internalType": "uint256",
          "name": "",
          "type": "uint256"
        }
      ],
      "stateMutability": "view",
      "type": "function"
    },
    {
      "inputs": [
        {
          "internalType": "address",
          "name": "_agent",
          "type": "address"
        }
      ],
      "name": "addAgent",
      "outputs": [],
      "stateMutability": "nonpayable",
      "type": "function"
    },
    {
      "inputs": [
        {
          "internalType": "address",
          "name": "_agentAddress",
          "type": "address"
        }
      ],
      "name": "addTokenAgent",
      "outputs": [],
      "stateMutability": "nonpayable",
      "type": "function"
    },
    {
      "inputs": [
        {
          "internalType": "address",
          "name": "_token",
          "type": "address"
        }
      ],
      "name": "bindToken",
      "outputs": [],
      "stateMutability": "nonpayable",
      "type": "function"
    },
    {
      "inputs": [
        {
          "internalType": "address",
          "name": "_from",
          "type": "address"
        },
        {
          "internalType": "address",
          "name": "_to",
          "type": "address"
        },
        {
          "internalType": "uint256",
          "name": "_value",
          "type": "uint256"
        }
      ],
      "name": "canTransfer",
      "outputs": [
        {
          "internalType": "bool",
          "name": "",
          "type": "bool"
        }
      ],
      "stateMutability": "view",
      "type": "function"
    },
    {
      "inputs": [
        {
          "internalType": "address",
          "name": "",
          "type": "address"
        },
        {
          "internalType": "address",
          "name": "_to",
          "type": "address"
        },
        {
          "internalType": "uint256",
          "name": "_value",
          "type": "uint256"
        }
      ],
      "name": "complianceCheckOnMaxBalance",
      "outputs": [
        {
          "internalType": "bool",
          "name": "",
          "type": "bool"
        }
      ],
      "stateMutability": "view",
      "type": "function"
    },
    {
      "inputs": [
        {
          "internalType": "address",
          "name": "_to",
          "type": "address"
        },
        {
          "internalType": "uint256",
          "name": "_value",
          "type": "uint256"
        }
      ],
      "name": "created",
      "outputs": [],
      "stateMutability": "nonpayable",
      "type": "function"
    },
    {
      "inputs": [
        {
          "internalType": "address",
          "name": "_from",
          "type": "address"
        },
        {
          "internalType": "uint256",
          "name": "_value",
          "type": "uint256"
        }
      ],
      "name": "destroyed",
      "outputs": [],
      "stateMutability": "nonpayable",
      "type": "function"
    },
    {
      "inputs": [
        {
          "internalType": "address",
          "name": "_agent",
          "type": "address"
        }
      ],
      "name": "isAgent",
      "outputs": [
        {
          "internalType": "bool",
          "name": "",
          "type": "bool"
        }
      ],
      "stateMutability": "view",
      "type": "function"
    },
    {
      "inputs": [
        {
          "internalType": "address",
          "name": "_agentAddress",
          "type": "address"
        }
      ],
      "name": "isTokenAgent",
      "outputs": [
        {
          "internalType": "bool",
          "name": "",
          "type": "bool"
        }
      ],
      "stateMutability": "view",
      "type": "function"
    },
    {
      "inputs": [
        {
          "internalType": "address",
          "name": "_token",
          "type": "address"
        }
      ],
      "name": "isTokenBound",
      "outputs": [
        {
          "internalType": "bool",
          "name": "",
          "type": "bool"
        }
      ],
      "stateMutability": "view",
      "type": "function"
    },
    {
      "inputs": [],
      "name": "maxBalance",
      "outputs": [
        {
          "internalType": "uint256",
          "name": "",
          "type": "uint256"
        }
      ],
      "stateMutability": "view",
      "type": "function"
    },
    {
      "inputs": [],
      "name": "owner",
      "outputs": [
        {
          "internalType": "address",
          "name": "",
          "type": "address"
        }
      ],
      "stateMutability": "view",
      "type": "function"
    },
    {
      "inputs": [
        {
          "internalType": "address",
          "name": "_agent",
          "type": "address"
        }
      ],
      "name": "removeAgent",
      "outputs": [],
      "stateMutability": "nonpayable",
      "type": "function"
    },
    {
      "inputs": [
        {
          "internalType": "address",
          "name": "_agentAddress",
          "type": "address"
        }
      ],
      "name": "removeTokenAgent",
      "outputs": [],
      "stateMutability": "nonpayable",
      "type": "function"
    },
    {
      "inputs": [],
      "name": "renounceOwnership",
      "outputs": [],
      "stateMutability": "nonpayable",
      "type": "function"
    },
    {
      "inputs": [
        {
          "internalType": "uint256",
          "name": "_max",
          "type": "uint256"
        }
      ],
      "name": "setMaxBalance",
      "outputs": [],
      "stateMutability": "nonpayable",
      "type": "function"
    },
    {
      "inputs": [],
      "name": "tokenBound",
      "outputs": [
        {
          "internalType": "contract IToken",
          "name": "",
          "type": "address"
        }
      ],
      "stateMutability": "view",
      "type": "function"
    },
    {
      "inputs": [
        {
          "internalType": "address",
          "name": "newOwner",
          "type": "address"
        }
      ],
      "name": "transferOwnership",
      "outputs": [],
      "stateMutability": "nonpayable",
      "type": "function"
    },
    {
      "inputs": [
        {
          "internalType": "address",
          "name": "_from",
          "type": "address"
        },
        {
          "internalType": "address",
          "name": "_to",
          "type": "address"
        },
        {
          "internalType": "uint256",
          "name": "_value",
          "type": "uint256"
        }
      ],
      "name": "transferred",
      "outputs": [],
      "stateMutability": "nonpayable",
      "type": "function"
    },
    {
      "inputs": [
        {
          "internalType": "address",
          "name": "_token",
          "type": "address"
        }
      ],
      "name": "unbindToken",
      "outputs": [],
      "stateMutability": "nonpayable",
      "type": "function"
    }
  ],
  "bytecode": "0x608060405234801561001057600080fd5b50338061003757604051631e4fbdf760e01b81526000600482015260240160405180910390fd5b61004081610046565b50610096565b600080546001600160a01b038381166001600160a01b0319831681178455604051919092169283917f8be0079c531659141344cd1fd0a4f28419497f9722a3daafe3b4186f6b6457e09190a35050565b61108f806100a56000396000f3fe608060405234801561001057600080fd5b50600436106101375760003560e01c80638d2ea772116100b85780639d51d9b71161007c5780639d51d9b714610270578063cdde293214610283578063e46638e614610296578063f2fde38b146102a9578063ff3e6954146102bc578063ff548267146102cf57600080fd5b80638d2ea7721461020a5780638da5cb5b1461021d57806393e62f071461023757806397a6278e1461024a578063993e8b951461025d57600080fd5b8063715018a6116100ff578063715018a6146101b257806373ad468a146101ba57806384d1fc40146101d157806384e79842146101e45780638baf29b4146101f757600080fd5b80631ffbb0641461013c578063346531fa146101645780633ff5aa021461017757806340db3b501461018c5780635f8dead31461019f575b600080fd5b61014f61014a366004610e4f565b6102ef565b60405190151581526020015b60405180910390f35b61014f610172366004610e4f565b610302565b61018a610185366004610e4f565b6103ae565b005b61018a61019a366004610e4f565b61046d565b61018a6101ad366004610e6c565b610550565b61018a610582565b6101c360045481565b60405190815260200161015b565b61014f6101df366004610e98565b610596565b61018a6101f2366004610e4f565b6105fd565b61018a610205366004610e98565b61066d565b61018a610218366004610e6c565b6106a1565b6000546001600160a01b03165b60405161015b9190610ed9565b60035461022a906001600160a01b031681565b61018a610258366004610e4f565b6106cf565b61014f61026b366004610e4f565b61073f565b61018a61027e366004610eed565b61075f565b61018a610291366004610e4f565b61079c565b61014f6102a4366004610e98565b61085c565b61018a6102b7366004610e4f565b61087f565b61018a6102ca366004610e4f565b6108bd565b6101c36102dd366004610e4f565b60056020526000908152604090205481565b60006102fc600183610981565b92915050565b6001600160a01b03811660009081526002602052604081205460ff1615801561039957506003546040516307feec1960e21b81526001600160a01b0390911690631ffbb06490610356908590600401610ed9565b602060405180830381865afa158015610373573d6000803e3d6000fd5b505050506040513d601f19601f820116820180604052508101906103979190610f06565b155b156103a657506000919050565b506001919050565b336103c16000546001600160a01b031690565b6001600160a01b031614806103f257506003546001600160a01b03161580156103f25750336001600160a01b038216145b6104175760405162461bcd60e51b815260040161040e90610f28565b60405180910390fd5b600380546001600160a01b0319166001600160a01b0383161790556040517f2de35142b19ed5a07796cf30791959c592018f70b1d2d7c460eef8ffe713692b90610462908390610ed9565b60405180910390a150565b336104806000546001600160a01b031690565b6001600160a01b0316148061049d5750336001600160a01b038216145b6104b95760405162461bcd60e51b815260040161040e90610f28565b6003546001600160a01b038281169116146105105760405162461bcd60e51b8152602060048201526017602482015276151a1a5cc81d1bdad95b881a5cc81b9bdd08189bdd5b99604a1b604482015260640161040e565b600380546001600160a01b03191690556040517f28a4ca7134a3b3f9aff286e79ad3daadb4a06d1b43d037a3a98bdc074edd9b7a90610462908390610ed9565b610558610a04565b6105745760405162461bcd60e51b815260040161040e90610f5f565b61057e8282610a14565b5050565b61058a610abb565b6105946000610ae8565b565b60006004548211156105aa575060006105f6565b60006105b584610b38565b6004546001600160a01b038216600090815260056020526040902054919250906105e0908590610fdf565b11156105f05760009150506105f6565b60019150505b9392505050565b610605610abb565b6001600160a01b03811661062b5760405162461bcd60e51b815260040161040e90610ff2565b610636600182610c12565b6040516001600160a01b038216907ff68e73cec97f2d70aa641fb26e87a4383686e2efacb648f2165aeb02ac562ec590600090a250565b610675610a04565b6106915760405162461bcd60e51b815260040161040e90610f5f565b61069c838383610c8e565b505050565b6106a9610a04565b6106c55760405162461bcd60e51b815260040161040e90610f5f565b61057e8282610d76565b6106d7610abb565b6001600160a01b0381166106fd5760405162461bcd60e51b815260040161040e90610ff2565b610708600182610db8565b6040516001600160a01b038216907fed9c8ad8d5a0a66898ea49d2956929c93ae2e8bd50281b2ed897c5d1a6737e0b90600090a250565b6003546000906001600160a01b038381169116146103a657506000919050565b610767610abb565b60048190556040518181527f82f9980487703d8db41f1ba63b2665566f7fb449fbc840a9e0c6ca932bed582c90602001610462565b6107a4610abb565b6001600160a01b03811660009081526002602052604090205460ff1661080c5760405162461bcd60e51b815260206004820181905260248201527f54686973204167656e74206973206e6f74207265676973746572656420796574604482015260640161040e565b6001600160a01b03811660009081526002602052604090819020805460ff19169055517f6a659bb87bb23efbdc295f8eed8ae8c4379bfb77660ced2ef0f3d7d26b05c6a690610462908390610ed9565b6000610869848484610596565b610875575060006105f6565b5060019392505050565b610887610abb565b6001600160a01b0381166108b1576000604051631e4fbdf760e01b815260040161040e9190610ed9565b6108ba81610ae8565b50565b6108c5610abb565b6001600160a01b03811660009081526002602052604090205460ff161561092e5760405162461bcd60e51b815260206004820181905260248201527f54686973204167656e7420697320616c72656164792072656769737465726564604482015260640161040e565b6001600160a01b03811660009081526002602052604090819020805460ff19166001179055517fd62c45e13ac30396aceb3ad37c89bd1ba9048032fe61679000e92eb93dbfd67d90610462908390610ed9565b60006001600160a01b0382166109e45760405162461bcd60e51b815260206004820152602260248201527f526f6c65733a206163636f756e7420697320746865207a65726f206164647265604482015261737360f01b606482015260840161040e565b506001600160a01b03166000908152602091909152604090205460ff1690565b6000610a0f3361073f565b905090565b6000610a1f83610b38565b6001600160a01b038116600090815260056020526040812080549293508492909190610a4c908490610fdf565b90915550506004546001600160a01b038216600090815260056020526040902054111561069c5760405162461bcd60e51b815260206004820152601d60248201527f706f73742d6d696e74696e672062616c616e636520746f6f2068696768000000604482015260640161040e565b6000546001600160a01b03163314610594573360405163118cdaa760e01b815260040161040e9190610ed9565b600080546001600160a01b038381166001600160a01b0319831681178455604051919092169283917f8be0079c531659141344cd1fd0a4f28419497f9722a3daafe3b4186f6b6457e09190a35050565b600354604080516304d3863d60e21b815290516000926001600160a01b03169163134e18f49160048083019260209291908290030181865afa158015610b82573d6000803e3d6000fd5b505050506040513d601f19601f82011682018060405250810190610ba69190611029565b6001600160a01b031663f0eb5e54836040518263ffffffff1660e01b8152600401610bd19190610ed9565b602060405180830381865afa158015610bee573d6000803e3d6000fd5b505050506040513d601f19601f820116820180604052508101906102fc9190611029565b610c1c8282610981565b15610c695760405162461bcd60e51b815260206004820152601f60248201527f526f6c65733a206163636f756e7420616c72656164792068617320726f6c6500604482015260640161040e565b6001600160a01b0316600090815260209190915260409020805460ff19166001179055565b6000610c9984610b38565b90506000610ca684610b38565b6001600160a01b038116600090815260056020526040812080549293508592909190610cd3908490610fdf565b90915550506001600160a01b03821660009081526005602052604081208054859290610d00908490611046565b90915550506004546001600160a01b0382166000908152600560205260409020541115610d6f5760405162461bcd60e51b815260206004820152601e60248201527f706f73742d7472616e736665722062616c616e636520746f6f20686967680000604482015260640161040e565b5050505050565b6000610d8183610b38565b6001600160a01b038116600090815260056020526040812080549293508492909190610dae908490611046565b9091555050505050565b610dc28282610981565b610e185760405162461bcd60e51b815260206004820152602160248201527f526f6c65733a206163636f756e7420646f6573206e6f74206861766520726f6c6044820152606560f81b606482015260840161040e565b6001600160a01b0316600090815260209190915260409020805460ff19169055565b6001600160a01b03811681146108ba57600080fd5b600060208284031215610e6157600080fd5b81356105f681610e3a565b60008060408385031215610e7f57600080fd5b8235610e8a81610e3a565b946020939093013593505050565b600080600060608486031215610ead57600080fd5b8335610eb881610e3a565b92506020840135610ec881610e3a565b929592945050506040919091013590565b6001600160a01b0391909116815260200190565b600060208284031215610eff57600080fd5b5035919050565b600060208284031215610f1857600080fd5b815180151581146105f657600080fd5b6020808252601c908201527f6f6e6c79206f776e6572206f7220746f6b656e2063616e2063616c6c00000000604082015260600190565b60208082526044908201527f6572726f72203a20746869732061646472657373206973206e6f74206120746f60408201527f6b656e20626f756e6420746f2074686520636f6d706c69616e636520636f6e746060820152631c9858dd60e21b608082015260a00190565b634e487b7160e01b600052601160045260246000fd5b808201808211156102fc576102fc610fc9565b6020808252601f908201527f696e76616c696420617267756d656e74202d207a65726f206164647265737300604082015260600190565b60006020828403121561103b57600080fd5b81516105f681610e3a565b818103818111156102fc576102fc610fc956fea2646970667358221220920949ac61ed42bf66c9deff2c64c376548a0ab68a703936b3773db1efbe50ac64736f6c63430008180033",
  "linkReferences": {},
  "deployedLinkReferences": {}
}