{
  "_format": "hh-sol-artifact-1",
  "contractName": "MaxOwnershipModule",
  "sourceName": "contracts/erc3643/compliance/modular/modules/MaxOwnershipModule.sol",
  "abi": [
    {
      "inputs": [
        {
          "internalType": "address",
          "name": "_compliance",
          "type": "address"
        },
        {
          "internalType": "address[]",
          "name": "_id",
          "type": "address[]"
        },
        {
          "internalType": "uint256[]",
          "name": "_balance",
          "type": "uint256[]"
        }
      ],
      "name": "InvalidPresetValues",
      "type": "error"
    },
    {
      "inputs": [],
      "name": "MathOverflowedMulDiv",
      "type": "error"
    },
    {
      "inputs": [
        {
          "internalType": "address",
          "name": "_compliance",
          "type": "address"
        },
        {
          "internalType": "uint256",
          "name": "_value",
          "type": "uint256"
        }
      ],
      "name": "MaxOwnershipExceeded",
      "type": "error"
    },
    {
      "inputs": [
        {
          "internalType": "address",
          "name": "_compliance",
          "type": "address"
        }
      ],
      "name": "OnlyComplianceOwnerCanCall",
      "type": "error"
    },
    {
      "inputs": [
        {
          "internalType": "address",
          "name": "_compliance",
          "type": "address"
        }
      ],
      "name": "TokenAlreadyBound",
      "type": "error"
    },
    {
      "anonymous": false,
      "inputs": [
        {
          "indexed": true,
          "internalType": "address",
          "name": "_compliance",
          "type": "address"
        }
      ],
      "name": "ComplianceBound",
      "type": "event"
    },
    {
      "anonymous": false,
      "inputs": [
        {
          "indexed": true,
          "internalType": "address",
          "name": "_compliance",
          "type": "address"
        }
      ],
      "name": "ComplianceUnbound",
      "type": "event"
    },
    {
      "anonymous": false,
      "inputs": [
        {
          "indexed": true,
          "internalType": "address",
          "name": "_compliance",
          "type": "address"
        },
        {
          "indexed": true,
          "internalType": "address",
          "name": "_id",
          "type": "address"
        },
        {
          "indexed": false,
          "internalType": "uint256",
          "name": "_balance",
          "type": "uint256"
        }
      ],
      "name": "IDBalancePreSet",
      "type": "event"
    },
    {
      "anonymous": false,
      "inputs": [
        {
          "indexed": true,
          "internalType": "address",
          "name": "_compliance",
          "type": "address"
        },
        {
          "indexed": true,
          "internalType": "uint256",
          "name": "_maxPercetage",
          "type": "uint256"
        }
      ],
      "name": "MaxPercentageSet",
      "type": "event"
    },
    {
      "inputs": [
        {
          "internalType": "address",
          "name": "_compliance",
          "type": "address"
        },
        {
          "internalType": "address[]",
          "name": "_id",
          "type": "address[]"
        },
        {
          "internalType": "uint256[]",
          "name": "_balance",
          "type": "uint256[]"
        }
      ],
      "name": "batchPreSetModuleState",
      "outputs": [],
      "stateMutability": "nonpayable",
      "type": "function"
    },
    {
      "inputs": [
        {
          "internalType": "address",
          "name": "_compliance",
          "type": "address"
        }
      ],
      "name": "bindCompliance",
      "outputs": [],
      "stateMutability": "nonpayable",
      "type": "function"
    },
    {
      "inputs": [
        {
          "internalType": "address",
          "name": "_compliance",
          "type": "address"
        }
      ],
      "name": "canComplianceBind",
      "outputs": [
        {
          "internalType": "bool",
          "name": "",
          "type": "bool"
        }
      ],
      "stateMutability": "view",
      "type": "function"
    },
    {
      "inputs": [
        {
          "internalType": "address",
          "name": "_compliance",
          "type": "address"
        },
        {
          "internalType": "address",
          "name": "_identity",
          "type": "address"
        }
      ],
      "name": "getIDBalance",
      "outputs": [
        {
          "internalType": "uint256",
          "name": "",
          "type": "uint256"
        }
      ],
      "stateMutability": "view",
      "type": "function"
    },
    {
      "inputs": [
        {
          "internalType": "address",
          "name": "_compliance",
          "type": "address"
        }
      ],
      "name": "isComplianceBound",
      "outputs": [
        {
          "internalType": "bool",
          "name": "",
          "type": "bool"
        }
      ],
      "stateMutability": "view",
      "type": "function"
    },
    {
      "inputs": [],
      "name": "isPlugAndPlay",
      "outputs": [
        {
          "internalType": "bool",
          "name": "",
          "type": "bool"
        }
      ],
      "stateMutability": "pure",
      "type": "function"
    },
    {
      "inputs": [
        {
          "internalType": "address",
          "name": "_from",
          "type": "address"
        },
        {
          "internalType": "uint256",
          "name": "_value",
          "type": "uint256"
        }
      ],
      "name": "moduleBurnAction",
      "outputs": [],
      "stateMutability": "nonpayable",
      "type": "function"
    },
    {
      "inputs": [
        {
          "internalType": "address",
          "name": "",
          "type": "address"
        },
        {
          "internalType": "address",
          "name": "",
          "type": "address"
        },
        {
          "internalType": "uint256",
          "name": "",
          "type": "uint256"
        },
        {
          "internalType": "address",
          "name": "",
          "type": "address"
        }
      ],
      "name": "moduleCheck",
      "outputs": [
        {
          "internalType": "bool",
          "name": "",
          "type": "bool"
        }
      ],
      "stateMutability": "pure",
      "type": "function"
    },
    {
      "inputs": [
        {
          "internalType": "address",
          "name": "_to",
          "type": "address"
        },
        {
          "internalType": "uint256",
          "name": "_value",
          "type": "uint256"
        }
      ],
      "name": "moduleMintAction",
      "outputs": [],
      "stateMutability": "nonpayable",
      "type": "function"
    },
    {
      "inputs": [
        {
          "internalType": "address",
          "name": "_from",
          "type": "address"
        },
        {
          "internalType": "address",
          "name": "_to",
          "type": "address"
        },
        {
          "internalType": "uint256",
          "name": "_value",
          "type": "uint256"
        }
      ],
      "name": "moduleTransferAction",
      "outputs": [],
      "stateMutability": "nonpayable",
      "type": "function"
    },
    {
      "inputs": [],
      "name": "name",
      "outputs": [
        {
          "internalType": "string",
          "name": "_name",
          "type": "string"
        }
      ],
      "stateMutability": "pure",
      "type": "function"
    },
    {
      "inputs": [
        {
          "internalType": "address",
          "name": "_compliance",
          "type": "address"
        },
        {
          "internalType": "address",
          "name": "_id",
          "type": "address"
        },
        {
          "internalType": "uint256",
          "name": "_balance",
          "type": "uint256"
        }
      ],
      "name": "preSetModuleState",
      "outputs": [],
      "stateMutability": "nonpayable",
      "type": "function"
    },
    {
      "inputs": [
        {
          "internalType": "address",
          "name": "_compliance",
          "type": "address"
        }
      ],
      "name": "presetCompleted",
      "outputs": [],
      "stateMutability": "nonpayable",
      "type": "function"
    },
    {
      "inputs": [
        {
          "internalType": "uint16",
          "name": "_max",
          "type": "uint16"
        }
      ],
      "name": "setMaxPercentage",
      "outputs": [],
      "stateMutability": "nonpayable",
      "type": "function"
    },
    {
      "inputs": [
        {
          "internalType": "address",
          "name": "_compliance",
          "type": "address"
        }
      ],
      "name": "unbindCompliance",
      "outputs": [],
      "stateMutability": "nonpayable",
      "type": "function"
    }
  ],
  "bytecode": "0x608060405234801561001057600080fd5b5061141b806100206000396000f3fe608060405234801561001057600080fd5b50600436106100d55760003560e01c80634cf4d295116100875780634cf4d2951461019c5780638f27c0eb146101c8578063bcc21053146101db578063cc203f75146101ee578063dd50b74c1461020f578063e6f5e80714610222578063f104a8c914610229578063f7c4722c1461023c57600080fd5b8063013b7ce4146100da5780630694a5fb1461010757806306fdde031461011c5780632c65cb0b146101505780632cb7e1ec14610163578063372491a2146101765780634a93254414610189575b600080fd5b6100f26100e8366004610f7b565b6001949350505050565b60405190151581526020015b60405180910390f35b61011a610115366004610fce565b61024f565b005b60408051808201825260128152714d61784f776e6572736869704d6f64756c6560701b602082015290516100fe9190610feb565b61011a61015e36600461103a565b61031e565b61011a61017136600461105e565b61039a565b61011a61018436600461109f565b6104c4565b61011a610197366004610fce565b610541565b6100f26101aa366004610fce565b6001600160a01b031660009081526020819052604090205460ff1690565b61011a6101d6366004611117565b61063f565b6100f26101e9366004610fce565b610822565b6102016101fc36600461119a565b610933565b6040519081526020016100fe565b61011a61021d366004610fce565b610960565b60006100f2565b61011a61023736600461109f565b610a1c565b61011a61024a36600461105e565b610a8f565b3360009081526020819052604090205460ff166102875760405162461bcd60e51b815260040161027e906111d3565b60405180910390fd5b6001600160a01b0381166102ad5760405162461bcd60e51b815260040161027e9061120a565b336001600160a01b038216146102d55760405162461bcd60e51b815260040161027e90611241565b6001600160a01b038116600081815260208190526040808220805460ff19169055517f408b49d9be1c914c52a0227e18a077e5a892dddf32a26cfa94a5d9708fad77189190a250565b3360009081526020819052604090205460ff1661034d5760405162461bcd60e51b815260040161027e906111d3565b33600081815260026020526040808220805461ffff191661ffff861690811790915590519092917f69d3f17a4d359a9ec124095039a7a29ced624e1c6cd5d4f6cbe7ddc0dc434beb91a350565b3360009081526020819052604090205460ff166103c95760405162461bcd60e51b815260040161027e906111d3565b60006103d53385610bc1565b905060006103e33385610bc1565b3360009081526003602090815260408083206001600160a01b038516845290915281208054929350859290919061041b908490611298565b90915550503360009081526003602090815260408083206001600160a01b0386168452909152812080548592906104539084906112ab565b909155505033600081815260026020908152604080832054600383528184206001600160a01b03871685529092529091205461ffff9091169161049591610d47565b11156104bd5760405163bc37982360e01b81523360048201526024810184905260440161027e565b5050505050565b3360009081526020819052604090205460ff166104f35760405162461bcd60e51b815260040161027e906111d3565b60006104ff3384610bc1565b3360009081526003602090815260408083206001600160a01b03851684529091528120805492935084929091906105379084906112ab565b9091555050505050565b6001600160a01b0381166105675760405162461bcd60e51b815260040161027e9061120a565b6001600160a01b03811660009081526020819052604090205460ff16156105cb5760405162461bcd60e51b815260206004820152601860248201527718dbdb5c1b1a585b98d948185b1c9958591e48189bdd5b9960421b604482015260640161027e565b336001600160a01b038216146105f35760405162461bcd60e51b815260040161027e90611241565b6001600160a01b038116600081815260208190526040808220805460ff19166001179055517f1f7b76c58fb697eb53c6c7c1becb96911516a136e24d7ced386b2355358b75a39190a250565b8280158061064d5750808214155b1561067557858585858560405163355c2bfd60e11b815260040161027e9594939291906112be565b336001600160a01b0316866001600160a01b0316638da5cb5b6040518163ffffffff1660e01b8152600401602060405180830381865afa1580156106bd573d6000803e3d6000fd5b505050506040513d601f19601f820116820180604052508101906106e1919061134d565b6001600160a01b03161461070a578560405163e8649dab60e01b815260040161027e919061136a565b60405163a446d49f60e01b81526001600160a01b0387169063a446d49f9061073690309060040161136a565b602060405180830381865afa158015610753573d6000803e3d6000fd5b505050506040513d601f19601f82011682018060405250810190610777919061137e565b15610797578560405163346a0c0160e21b815260040161027e919061136a565b60005b818110156107f3576107eb878787848181106107b8576107b86113a0565b90506020020160208101906107cd9190610fce565b8686858181106107df576107df6113a0565b90506020020135610e3e565b60010161079a565b5050506001600160a01b039093166000908152600160208190526040909120805460ff19169091179055505050565b6001600160a01b03811660009081526001602052604081205460ff161561084b57506001919050565b6000826001600160a01b0316636a3edf286040518163ffffffff1660e01b8152600401602060405180830381865afa15801561088b573d6000803e3d6000fd5b505050506040513d601f19601f820116820180604052508101906108af919061134d565b90506000816001600160a01b03166318160ddd6040518163ffffffff1660e01b8152600401602060405180830381865afa1580156108f1573d6000803e3d6000fd5b505050506040513d601f19601f8201168201806040525081019061091591906113b6565b905080600003610929575060019392505050565b5060009392505050565b6001600160a01b038083166000908152600360209081526040808320938516835292905220545b92915050565b336001600160a01b0316816001600160a01b0316638da5cb5b6040518163ffffffff1660e01b8152600401602060405180830381865afa1580156109a8573d6000803e3d6000fd5b505050506040513d601f19601f820116820180604052508101906109cc919061134d565b6001600160a01b0316146109f5578060405163e8649dab60e01b815260040161027e919061136a565b6001600160a01b03166000908152600160208190526040909120805460ff19169091179055565b3360009081526020819052604090205460ff16610a4b5760405162461bcd60e51b815260040161027e906111d3565b6000610a573384610bc1565b3360009081526003602090815260408083206001600160a01b0385168452909152812080549293508492909190610537908490611298565b336001600160a01b0316836001600160a01b0316638da5cb5b6040518163ffffffff1660e01b8152600401602060405180830381865afa158015610ad7573d6000803e3d6000fd5b505050506040513d601f19601f82011682018060405250810190610afb919061134d565b6001600160a01b031614610b24578260405163e8649dab60e01b815260040161027e919061136a565b60405163a446d49f60e01b81526001600160a01b0384169063a446d49f90610b5090309060040161136a565b602060405180830381865afa158015610b6d573d6000803e3d6000fd5b505050506040513d601f19601f82011682018060405250810190610b91919061137e565b15610bb1578260405163346a0c0160e21b815260040161027e919061136a565b610bbc838383610e3e565b505050565b600080836001600160a01b0316636a3edf286040518163ffffffff1660e01b8152600401602060405180830381865afa158015610c02573d6000803e3d6000fd5b505050506040513d601f19601f82011682018060405250810190610c26919061134d565b6001600160a01b031663134e18f46040518163ffffffff1660e01b8152600401602060405180830381865afa158015610c63573d6000803e3d6000fd5b505050506040513d601f19601f82011682018060405250810190610c87919061134d565b6001600160a01b031663f0eb5e54846040518263ffffffff1660e01b8152600401610cb2919061136a565b602060405180830381865afa158015610ccf573d6000803e3d6000fd5b505050506040513d601f19601f82011682018060405250810190610cf3919061134d565b90506001600160a01b038116610d405760405162461bcd60e51b81526020600482015260126024820152711a59195b9d1a5d1e481b9bdd08199bdd5b9960721b604482015260640161027e565b9392505050565b600080836001600160a01b0316636a3edf286040518163ffffffff1660e01b8152600401602060405180830381865afa158015610d88573d6000803e3d6000fd5b505050506040513d601f19601f82011682018060405250810190610dac919061134d565b90506000816001600160a01b03166318160ddd6040518163ffffffff1660e01b8152600401602060405180830381865afa158015610dee573d6000803e3d6000fd5b505050506040513d601f19601f82011682018060405250810190610e1291906113b6565b90506127108115610e3257610e28858284610e9f565b935050505061095a565b6000935050505061095a565b6001600160a01b0383811660008181526003602090815260408083209487168084529482529182902085905590518481527f0a777417e1c0a4b24c5f556b0c3dd522c37b99b2c3ca4bf9fea2fa1293c660c9910160405180910390a3505050565b6000838302816000198587098281108382030391505080600003610ed657838281610ecc57610ecc6113cf565b0492505050610d40565b808411610ef65760405163227bc15360e01b815260040160405180910390fd5b6000848688096000868103871696879004966002600389028118808a02820302808a02820302808a02820302808a02820302808a02820302808a02909103029181900381900460010186841190950394909402919094039290920491909117919091029150509392505050565b6001600160a01b0381168114610f7857600080fd5b50565b60008060008060808587031215610f9157600080fd5b8435610f9c81610f63565b93506020850135610fac81610f63565b9250604085013591506060850135610fc381610f63565b939692955090935050565b600060208284031215610fe057600080fd5b8135610d4081610f63565b60006020808352835180602085015260005b8181101561101957858101830151858201604001528201610ffd565b506000604082860101526040601f19601f8301168501019250505092915050565b60006020828403121561104c57600080fd5b813561ffff81168114610d4057600080fd5b60008060006060848603121561107357600080fd5b833561107e81610f63565b9250602084013561108e81610f63565b929592945050506040919091013590565b600080604083850312156110b257600080fd5b82356110bd81610f63565b946020939093013593505050565b60008083601f8401126110dd57600080fd5b50813567ffffffffffffffff8111156110f557600080fd5b6020830191508360208260051b850101111561111057600080fd5b9250929050565b60008060008060006060868803121561112f57600080fd5b853561113a81610f63565b9450602086013567ffffffffffffffff8082111561115757600080fd5b61116389838a016110cb565b9096509450604088013591508082111561117c57600080fd5b50611189888289016110cb565b969995985093965092949392505050565b600080604083850312156111ad57600080fd5b82356111b881610f63565b915060208301356111c881610f63565b809150509250929050565b6020808252601e908201527f6f6e6c7920626f756e6420636f6d706c69616e63652063616e2063616c6c0000604082015260600190565b6020808252601f908201527f696e76616c696420617267756d656e74202d207a65726f206164647265737300604082015260600190565b60208082526021908201527f6f6e6c7920636f6d706c69616e636520636f6e74726163742063616e2063616c6040820152601b60fa1b606082015260800190565b634e487b7160e01b600052601160045260246000fd5b8082018082111561095a5761095a611282565b8181038181111561095a5761095a611282565b6001600160a01b03868116825260606020808401829052908301869052600091879160808501845b8981101561130d5784356112f981610f63565b8416825293820193908201906001016112e6565b5085810360408701528681526001600160fb1b0387111561132d57600080fd5b8660051b9350838860208301379092016020019998505050505050505050565b60006020828403121561135f57600080fd5b8151610d4081610f63565b6001600160a01b0391909116815260200190565b60006020828403121561139057600080fd5b81518015158114610d4057600080fd5b634e487b7160e01b600052603260045260246000fd5b6000602082840312156113c857600080fd5b5051919050565b634e487b7160e01b600052601260045260246000fdfea26469706673582212206d39e3926764b0b24719bff7bd7dcbd5b48bc7ce5033ec886dcdb94d40b9448164736f6c63430008180033",
  "linkReferences": {},
  "deployedLinkReferences": {}
}