{
  "_format": "hh-sol-artifact-1",
  "contractName": "MaxOwnershipModule",
  "sourceName": "contracts/erc3643/compliance/modular/modules/MaxOwnershipModule.sol",
  "abi": [
    {
      "inputs": [
        {
          "internalType": "address",
          "name": "_compliance",
          "type": "address"
        },
        {
          "internalType": "address[]",
          "name": "_id",
          "type": "address[]"
        },
        {
          "internalType": "uint256[]",
          "name": "_balance",
          "type": "uint256[]"
        }
      ],
      "name": "InvalidPresetValues",
      "type": "error"
    },
    {
      "inputs": [],
      "name": "MathOverflowedMulDiv",
      "type": "error"
    },
    {
      "inputs": [
        {
          "internalType": "address",
          "name": "_compliance",
          "type": "address"
        },
        {
          "internalType": "uint256",
          "name": "_value",
          "type": "uint256"
        }
      ],
      "name": "MaxOwnershipExceeded",
      "type": "error"
    },
    {
      "inputs": [
        {
          "internalType": "address",
          "name": "_compliance",
          "type": "address"
        }
      ],
      "name": "OnlyComplianceOwnerCanCall",
      "type": "error"
    },
    {
      "inputs": [
        {
          "internalType": "address",
          "name": "_compliance",
          "type": "address"
        }
      ],
      "name": "TokenAlreadyBound",
      "type": "error"
    },
    {
      "anonymous": false,
      "inputs": [
        {
          "indexed": true,
          "internalType": "address",
          "name": "_compliance",
          "type": "address"
        }
      ],
      "name": "ComplianceBound",
      "type": "event"
    },
    {
      "anonymous": false,
      "inputs": [
        {
          "indexed": true,
          "internalType": "address",
          "name": "_compliance",
          "type": "address"
        }
      ],
      "name": "ComplianceUnbound",
      "type": "event"
    },
    {
      "anonymous": false,
      "inputs": [
        {
          "indexed": true,
          "internalType": "address",
          "name": "_compliance",
          "type": "address"
        },
        {
          "indexed": true,
          "internalType": "address",
          "name": "_id",
          "type": "address"
        },
        {
          "indexed": false,
          "internalType": "uint256",
          "name": "_balance",
          "type": "uint256"
        }
      ],
      "name": "IDBalancePreSet",
      "type": "event"
    },
    {
      "anonymous": false,
      "inputs": [
        {
          "indexed": true,
          "internalType": "address",
          "name": "_compliance",
          "type": "address"
        },
        {
          "indexed": true,
          "internalType": "uint256",
          "name": "_maxPercetage",
          "type": "uint256"
        }
      ],
      "name": "MaxPercentageSet",
      "type": "event"
    },
    {
      "inputs": [
        {
          "internalType": "address",
          "name": "_compliance",
          "type": "address"
        },
        {
          "internalType": "address[]",
          "name": "_id",
          "type": "address[]"
        },
        {
          "internalType": "uint256[]",
          "name": "_balance",
          "type": "uint256[]"
        }
      ],
      "name": "batchPreSetModuleState",
      "outputs": [],
      "stateMutability": "nonpayable",
      "type": "function"
    },
    {
      "inputs": [
        {
          "internalType": "address",
          "name": "_compliance",
          "type": "address"
        }
      ],
      "name": "bindCompliance",
      "outputs": [],
      "stateMutability": "nonpayable",
      "type": "function"
    },
    {
      "inputs": [
        {
          "internalType": "address",
          "name": "_compliance",
          "type": "address"
        }
      ],
      "name": "canComplianceBind",
      "outputs": [
        {
          "internalType": "bool",
          "name": "",
          "type": "bool"
        }
      ],
      "stateMutability": "view",
      "type": "function"
    },
    {
      "inputs": [
        {
          "internalType": "address",
          "name": "_compliance",
          "type": "address"
        },
        {
          "internalType": "address",
          "name": "_identity",
          "type": "address"
        }
      ],
      "name": "getIDBalance",
      "outputs": [
        {
          "internalType": "uint256",
          "name": "",
          "type": "uint256"
        }
      ],
      "stateMutability": "view",
      "type": "function"
    },
    {
      "inputs": [
        {
          "internalType": "address",
          "name": "_compliance",
          "type": "address"
        }
      ],
      "name": "isComplianceBound",
      "outputs": [
        {
          "internalType": "bool",
          "name": "",
          "type": "bool"
        }
      ],
      "stateMutability": "view",
      "type": "function"
    },
    {
      "inputs": [],
      "name": "isPlugAndPlay",
      "outputs": [
        {
          "internalType": "bool",
          "name": "",
          "type": "bool"
        }
      ],
      "stateMutability": "pure",
      "type": "function"
    },
    {
      "inputs": [
        {
          "internalType": "address",
          "name": "_from",
          "type": "address"
        },
        {
          "internalType": "uint256",
          "name": "_value",
          "type": "uint256"
        }
      ],
      "name": "moduleBurnAction",
      "outputs": [],
      "stateMutability": "nonpayable",
      "type": "function"
    },
    {
      "inputs": [
        {
          "internalType": "address",
          "name": "",
          "type": "address"
        },
        {
          "internalType": "address",
          "name": "",
          "type": "address"
        },
        {
          "internalType": "uint256",
          "name": "",
          "type": "uint256"
        },
        {
          "internalType": "address",
          "name": "",
          "type": "address"
        }
      ],
      "name": "moduleCheck",
      "outputs": [
        {
          "internalType": "bool",
          "name": "",
          "type": "bool"
        }
      ],
      "stateMutability": "pure",
      "type": "function"
    },
    {
      "inputs": [
        {
          "internalType": "address",
          "name": "_to",
          "type": "address"
        },
        {
          "internalType": "uint256",
          "name": "_value",
          "type": "uint256"
        }
      ],
      "name": "moduleMintAction",
      "outputs": [],
      "stateMutability": "nonpayable",
      "type": "function"
    },
    {
      "inputs": [
        {
          "internalType": "address",
          "name": "_from",
          "type": "address"
        },
        {
          "internalType": "address",
          "name": "_to",
          "type": "address"
        },
        {
          "internalType": "uint256",
          "name": "_value",
          "type": "uint256"
        }
      ],
      "name": "moduleTransferAction",
      "outputs": [],
      "stateMutability": "nonpayable",
      "type": "function"
    },
    {
      "inputs": [],
      "name": "name",
      "outputs": [
        {
          "internalType": "string",
          "name": "_name",
          "type": "string"
        }
      ],
      "stateMutability": "pure",
      "type": "function"
    },
    {
      "inputs": [
        {
          "internalType": "address",
          "name": "_compliance",
          "type": "address"
        },
        {
          "internalType": "address",
          "name": "_id",
          "type": "address"
        },
        {
          "internalType": "uint256",
          "name": "_balance",
          "type": "uint256"
        }
      ],
      "name": "preSetModuleState",
      "outputs": [],
      "stateMutability": "nonpayable",
      "type": "function"
    },
    {
      "inputs": [
        {
          "internalType": "address",
          "name": "_compliance",
          "type": "address"
        }
      ],
      "name": "presetCompleted",
      "outputs": [],
      "stateMutability": "nonpayable",
      "type": "function"
    },
    {
      "inputs": [
        {
          "internalType": "uint16",
          "name": "_max",
          "type": "uint16"
        }
      ],
      "name": "setMaxPercentage",
      "outputs": [],
      "stateMutability": "nonpayable",
      "type": "function"
    },
    {
      "inputs": [
        {
          "internalType": "address",
          "name": "_compliance",
          "type": "address"
        }
      ],
      "name": "unbindCompliance",
      "outputs": [],
      "stateMutability": "nonpayable",
      "type": "function"
    }
  ],
  "bytecode": "0x608060405234801561001057600080fd5b50611478806100206000396000f3fe608060405234801561001057600080fd5b50600436106100f55760003560e01c80634cf4d29511610097578063dd50b74c11610066578063dd50b74c1461022f578063e6f5e80714610242578063f104a8c914610249578063f7c4722c1461025c57600080fd5b80634cf4d295146101bc5780638f27c0eb146101e8578063bcc21053146101fb578063cc203f751461020e57600080fd5b80632c65cb0b116100d35780632c65cb0b146101705780632cb7e1ec14610183578063372491a2146101965780634a932544146101a957600080fd5b8063013b7ce4146100fa5780630694a5fb1461012757806306fdde031461013c575b600080fd5b610112610108366004611023565b6001949350505050565b60405190151581526020015b60405180910390f35b61013a610135366004611076565b61026f565b005b60408051808201825260128152714d61784f776e6572736869704d6f64756c6560701b6020820152905161011e9190611093565b61013a61017e3660046110e2565b61036e565b61013a610191366004611106565b6103ea565b61013a6101a4366004611147565b610514565b61013a6101b7366004611076565b610591565b6101126101ca366004611076565b6001600160a01b031660009081526020819052604090205460ff1690565b61013a6101f63660046111bf565b6106c4565b610112610209366004611076565b6108b4565b61022161021c366004611242565b6109c5565b60405190815260200161011e565b61013a61023d366004611076565b6109f2565b6000610112565b61013a610257366004611147565b610ab7565b61013a61026a366004611106565b610b2a565b3360009081526020819052604090205460ff166102a75760405162461bcd60e51b815260040161029e9061127b565b60405180910390fd5b6001600160a01b0381166102fd5760405162461bcd60e51b815260206004820152601f60248201527f696e76616c696420617267756d656e74202d207a65726f206164647265737300604482015260640161029e565b336001600160a01b038216146103255760405162461bcd60e51b815260040161029e906112b2565b6001600160a01b038116600081815260208190526040808220805460ff19169055517f408b49d9be1c914c52a0227e18a077e5a892dddf32a26cfa94a5d9708fad77189190a250565b3360009081526020819052604090205460ff1661039d5760405162461bcd60e51b815260040161029e9061127b565b33600081815260026020526040808220805461ffff191661ffff861690811790915590519092917f69d3f17a4d359a9ec124095039a7a29ced624e1c6cd5d4f6cbe7ddc0dc434beb91a350565b3360009081526020819052604090205460ff166104195760405162461bcd60e51b815260040161029e9061127b565b60006104253385610c69565b905060006104333385610c69565b3360009081526003602090815260408083206001600160a01b038516845290915281208054929350859290919061046b908490611309565b90915550503360009081526003602090815260408083206001600160a01b0386168452909152812080548592906104a390849061131c565b909155505033600081815260026020908152604080832054600383528184206001600160a01b03871685529092529091205461ffff909116916104e591610def565b111561050d5760405163bc37982360e01b81523360048201526024810184905260440161029e565b5050505050565b3360009081526020819052604090205460ff166105435760405162461bcd60e51b815260040161029e9061127b565b600061054f3384610c69565b3360009081526003602090815260408083206001600160a01b038516845290915281208054929350849290919061058790849061131c565b9091555050505050565b6001600160a01b0381166105e75760405162461bcd60e51b815260206004820152601f60248201527f696e76616c696420617267756d656e74202d207a65726f206164647265737300604482015260640161029e565b6001600160a01b03811660009081526020819052604090205460ff16156106505760405162461bcd60e51b815260206004820152601860248201527f636f6d706c69616e636520616c726561647920626f756e640000000000000000604482015260640161029e565b336001600160a01b038216146106785760405162461bcd60e51b815260040161029e906112b2565b6001600160a01b038116600081815260208190526040808220805460ff19166001179055517f1f7b76c58fb697eb53c6c7c1becb96911516a136e24d7ced386b2355358b75a39190a250565b828015806106d25750808214155b156106fa57858585858560405163355c2bfd60e11b815260040161029e95949392919061132f565b336001600160a01b0316866001600160a01b0316638da5cb5b6040518163ffffffff1660e01b8152600401602060405180830381865afa158015610742573d6000803e3d6000fd5b505050506040513d601f19601f8201168201806040525081019061076691906113be565b6001600160a01b0316146107985760405163e8649dab60e01b81526001600160a01b038716600482015260240161029e565b60405163a446d49f60e01b81523060048201526001600160a01b0387169063a446d49f90602401602060405180830381865afa1580156107dc573d6000803e3d6000fd5b505050506040513d601f19601f8201168201806040525081019061080091906113db565b156108295760405163346a0c0160e21b81526001600160a01b038716600482015260240161029e565b60005b818110156108855761087d8787878481811061084a5761084a6113fd565b905060200201602081019061085f9190611076565b868685818110610871576108716113fd565b90506020020135610ee6565b60010161082c565b5050506001600160a01b039093166000908152600160208190526040909120805460ff19169091179055505050565b6001600160a01b03811660009081526001602052604081205460ff16156108dd57506001919050565b6000826001600160a01b0316636a3edf286040518163ffffffff1660e01b8152600401602060405180830381865afa15801561091d573d6000803e3d6000fd5b505050506040513d601f19601f8201168201806040525081019061094191906113be565b90506000816001600160a01b03166318160ddd6040518163ffffffff1660e01b8152600401602060405180830381865afa158015610983573d6000803e3d6000fd5b505050506040513d601f19601f820116820180604052508101906109a79190611413565b9050806000036109bb575060019392505050565b5060009392505050565b6001600160a01b038083166000908152600360209081526040808320938516835292905220545b92915050565b336001600160a01b0316816001600160a01b0316638da5cb5b6040518163ffffffff1660e01b8152600401602060405180830381865afa158015610a3a573d6000803e3d6000fd5b505050506040513d601f19601f82011682018060405250810190610a5e91906113be565b6001600160a01b031614610a905760405163e8649dab60e01b81526001600160a01b038216600482015260240161029e565b6001600160a01b03166000908152600160208190526040909120805460ff19169091179055565b3360009081526020819052604090205460ff16610ae65760405162461bcd60e51b815260040161029e9061127b565b6000610af23384610c69565b3360009081526003602090815260408083206001600160a01b0385168452909152812080549293508492909190610587908490611309565b336001600160a01b0316836001600160a01b0316638da5cb5b6040518163ffffffff1660e01b8152600401602060405180830381865afa158015610b72573d6000803e3d6000fd5b505050506040513d601f19601f82011682018060405250810190610b9691906113be565b6001600160a01b031614610bc85760405163e8649dab60e01b81526001600160a01b038416600482015260240161029e565b60405163a446d49f60e01b81523060048201526001600160a01b0384169063a446d49f90602401602060405180830381865afa158015610c0c573d6000803e3d6000fd5b505050506040513d601f19601f82011682018060405250810190610c3091906113db565b15610c595760405163346a0c0160e21b81526001600160a01b038416600482015260240161029e565b610c64838383610ee6565b505050565b600080836001600160a01b0316636a3edf286040518163ffffffff1660e01b8152600401602060405180830381865afa158015610caa573d6000803e3d6000fd5b505050506040513d601f19601f82011682018060405250810190610cce91906113be565b6001600160a01b031663134e18f46040518163ffffffff1660e01b8152600401602060405180830381865afa158015610d0b573d6000803e3d6000fd5b505050506040513d601f19601f82011682018060405250810190610d2f91906113be565b604051633c3ad79560e21b81526001600160a01b038581166004830152919091169063f0eb5e5490602401602060405180830381865afa158015610d77573d6000803e3d6000fd5b505050506040513d601f19601f82011682018060405250810190610d9b91906113be565b90506001600160a01b038116610de85760405162461bcd60e51b81526020600482015260126024820152711a59195b9d1a5d1e481b9bdd08199bdd5b9960721b604482015260640161029e565b9392505050565b600080836001600160a01b0316636a3edf286040518163ffffffff1660e01b8152600401602060405180830381865afa158015610e30573d6000803e3d6000fd5b505050506040513d601f19601f82011682018060405250810190610e5491906113be565b90506000816001600160a01b03166318160ddd6040518163ffffffff1660e01b8152600401602060405180830381865afa158015610e96573d6000803e3d6000fd5b505050506040513d601f19601f82011682018060405250810190610eba9190611413565b90506127108115610eda57610ed0858284610f47565b93505050506109ec565b600093505050506109ec565b6001600160a01b0383811660008181526003602090815260408083209487168084529482529182902085905590518481527f0a777417e1c0a4b24c5f556b0c3dd522c37b99b2c3ca4bf9fea2fa1293c660c9910160405180910390a3505050565b6000838302816000198587098281108382030391505080600003610f7e57838281610f7457610f7461142c565b0492505050610de8565b808411610f9e5760405163227bc15360e01b815260040160405180910390fd5b6000848688096000868103871696879004966002600389028118808a02820302808a02820302808a02820302808a02820302808a02820302808a02909103029181900381900460010186841190950394909402919094039290920491909117919091029150509392505050565b6001600160a01b038116811461102057600080fd5b50565b6000806000806080858703121561103957600080fd5b84356110448161100b565b935060208501356110548161100b565b925060408501359150606085013561106b8161100b565b939692955090935050565b60006020828403121561108857600080fd5b8135610de88161100b565b60006020808352835180602085015260005b818110156110c1578581018301518582016040015282016110a5565b506000604082860101526040601f19601f8301168501019250505092915050565b6000602082840312156110f457600080fd5b813561ffff81168114610de857600080fd5b60008060006060848603121561111b57600080fd5b83356111268161100b565b925060208401356111368161100b565b929592945050506040919091013590565b6000806040838503121561115a57600080fd5b82356111658161100b565b946020939093013593505050565b60008083601f84011261118557600080fd5b50813567ffffffffffffffff81111561119d57600080fd5b6020830191508360208260051b85010111156111b857600080fd5b9250929050565b6000806000806000606086880312156111d757600080fd5b85356111e28161100b565b9450602086013567ffffffffffffffff808211156111ff57600080fd5b61120b89838a01611173565b9096509450604088013591508082111561122457600080fd5b5061123188828901611173565b969995985093965092949392505050565b6000806040838503121561125557600080fd5b82356112608161100b565b915060208301356112708161100b565b809150509250929050565b6020808252601e908201527f6f6e6c7920626f756e6420636f6d706c69616e63652063616e2063616c6c0000604082015260600190565b60208082526021908201527f6f6e6c7920636f6d706c69616e636520636f6e74726163742063616e2063616c6040820152601b60fa1b606082015260800190565b634e487b7160e01b600052601160045260246000fd5b808201808211156109ec576109ec6112f3565b818103818111156109ec576109ec6112f3565b6001600160a01b03868116825260606020808401829052908301869052600091879160808501845b8981101561137e57843561136a8161100b565b841682529382019390820190600101611357565b5085810360408701528681526001600160fb1b0387111561139e57600080fd5b8660051b9350838860208301379092016020019998505050505050505050565b6000602082840312156113d057600080fd5b8151610de88161100b565b6000602082840312156113ed57600080fd5b81518015158114610de857600080fd5b634e487b7160e01b600052603260045260246000fd5b60006020828403121561142557600080fd5b5051919050565b634e487b7160e01b600052601260045260246000fdfea2646970667358221220f5dc2fb08a68e59274f455e7b4c00075f229b5045ad74ddd76da0af81d9f21f964736f6c63430008180033",
  "linkReferences": {},
  "deployedLinkReferences": {}
}