{
  "_format": "hh-sol-artifact-1",
  "contractName": "MaxOwnershipByCountryModule",
  "sourceName": "contracts/erc3643/compliance/modular/modules/MaxOwnershipByCountryModule.sol",
  "abi": [
    {
      "inputs": [
        {
          "internalType": "address",
          "name": "_compliance",
          "type": "address"
        },
        {
          "internalType": "address[]",
          "name": "_id",
          "type": "address[]"
        },
        {
          "internalType": "uint256[]",
          "name": "_balance",
          "type": "uint256[]"
        }
      ],
      "name": "InvalidPresetValues",
      "type": "error"
    },
    {
      "inputs": [],
      "name": "MathOverflowedMulDiv",
      "type": "error"
    },
    {
      "inputs": [
        {
          "internalType": "address",
          "name": "_compliance",
          "type": "address"
        },
        {
          "internalType": "uint256",
          "name": "_value",
          "type": "uint256"
        }
      ],
      "name": "MaxOwnershipExceeded",
      "type": "error"
    },
    {
      "inputs": [
        {
          "internalType": "address",
          "name": "_compliance",
          "type": "address"
        }
      ],
      "name": "OnlyComplianceOwnerCanCall",
      "type": "error"
    },
    {
      "inputs": [
        {
          "internalType": "address",
          "name": "_compliance",
          "type": "address"
        }
      ],
      "name": "TokenAlreadyBound",
      "type": "error"
    },
    {
      "anonymous": false,
      "inputs": [
        {
          "indexed": true,
          "internalType": "address",
          "name": "_compliance",
          "type": "address"
        }
      ],
      "name": "ComplianceBound",
      "type": "event"
    },
    {
      "anonymous": false,
      "inputs": [
        {
          "indexed": true,
          "internalType": "address",
          "name": "_compliance",
          "type": "address"
        }
      ],
      "name": "ComplianceUnbound",
      "type": "event"
    },
    {
      "anonymous": false,
      "inputs": [
        {
          "indexed": true,
          "internalType": "address",
          "name": "_compliance",
          "type": "address"
        },
        {
          "indexed": true,
          "internalType": "address",
          "name": "_id",
          "type": "address"
        },
        {
          "indexed": false,
          "internalType": "uint256",
          "name": "_balance",
          "type": "uint256"
        }
      ],
      "name": "IDBalancePreSet",
      "type": "event"
    },
    {
      "anonymous": false,
      "inputs": [
        {
          "indexed": true,
          "internalType": "address",
          "name": "_compliance",
          "type": "address"
        },
        {
          "indexed": true,
          "internalType": "uint256",
          "name": "_maxPercetageLocal",
          "type": "uint256"
        },
        {
          "indexed": true,
          "internalType": "uint256",
          "name": "_maxPercetageNonlocal",
          "type": "uint256"
        }
      ],
      "name": "MaxPercentageSet",
      "type": "event"
    },
    {
      "inputs": [
        {
          "internalType": "address",
          "name": "_compliance",
          "type": "address"
        },
        {
          "internalType": "address[]",
          "name": "_id",
          "type": "address[]"
        },
        {
          "internalType": "uint256[]",
          "name": "_balance",
          "type": "uint256[]"
        }
      ],
      "name": "batchPreSetModuleState",
      "outputs": [],
      "stateMutability": "nonpayable",
      "type": "function"
    },
    {
      "inputs": [
        {
          "internalType": "address",
          "name": "_compliance",
          "type": "address"
        }
      ],
      "name": "bindCompliance",
      "outputs": [],
      "stateMutability": "nonpayable",
      "type": "function"
    },
    {
      "inputs": [
        {
          "internalType": "address",
          "name": "_compliance",
          "type": "address"
        }
      ],
      "name": "canComplianceBind",
      "outputs": [
        {
          "internalType": "bool",
          "name": "",
          "type": "bool"
        }
      ],
      "stateMutability": "view",
      "type": "function"
    },
    {
      "inputs": [
        {
          "internalType": "address",
          "name": "_compliance",
          "type": "address"
        },
        {
          "internalType": "address",
          "name": "_identity",
          "type": "address"
        }
      ],
      "name": "getIDBalance",
      "outputs": [
        {
          "internalType": "uint256",
          "name": "",
          "type": "uint256"
        }
      ],
      "stateMutability": "view",
      "type": "function"
    },
    {
      "inputs": [
        {
          "internalType": "address",
          "name": "_compliance",
          "type": "address"
        }
      ],
      "name": "isComplianceBound",
      "outputs": [
        {
          "internalType": "bool",
          "name": "",
          "type": "bool"
        }
      ],
      "stateMutability": "view",
      "type": "function"
    },
    {
      "inputs": [],
      "name": "isPlugAndPlay",
      "outputs": [
        {
          "internalType": "bool",
          "name": "",
          "type": "bool"
        }
      ],
      "stateMutability": "pure",
      "type": "function"
    },
    {
      "inputs": [
        {
          "internalType": "address",
          "name": "_from",
          "type": "address"
        },
        {
          "internalType": "uint256",
          "name": "_value",
          "type": "uint256"
        }
      ],
      "name": "moduleBurnAction",
      "outputs": [],
      "stateMutability": "nonpayable",
      "type": "function"
    },
    {
      "inputs": [
        {
          "internalType": "address",
          "name": "",
          "type": "address"
        },
        {
          "internalType": "address",
          "name": "",
          "type": "address"
        },
        {
          "internalType": "uint256",
          "name": "",
          "type": "uint256"
        },
        {
          "internalType": "address",
          "name": "",
          "type": "address"
        }
      ],
      "name": "moduleCheck",
      "outputs": [
        {
          "internalType": "bool",
          "name": "",
          "type": "bool"
        }
      ],
      "stateMutability": "pure",
      "type": "function"
    },
    {
      "inputs": [
        {
          "internalType": "address",
          "name": "_to",
          "type": "address"
        },
        {
          "internalType": "uint256",
          "name": "_value",
          "type": "uint256"
        }
      ],
      "name": "moduleMintAction",
      "outputs": [],
      "stateMutability": "nonpayable",
      "type": "function"
    },
    {
      "inputs": [
        {
          "internalType": "address",
          "name": "_from",
          "type": "address"
        },
        {
          "internalType": "address",
          "name": "_to",
          "type": "address"
        },
        {
          "internalType": "uint256",
          "name": "_value",
          "type": "uint256"
        }
      ],
      "name": "moduleTransferAction",
      "outputs": [],
      "stateMutability": "nonpayable",
      "type": "function"
    },
    {
      "inputs": [],
      "name": "name",
      "outputs": [
        {
          "internalType": "string",
          "name": "_name",
          "type": "string"
        }
      ],
      "stateMutability": "pure",
      "type": "function"
    },
    {
      "inputs": [
        {
          "internalType": "address",
          "name": "_compliance",
          "type": "address"
        },
        {
          "internalType": "address",
          "name": "_id",
          "type": "address"
        },
        {
          "internalType": "uint256",
          "name": "_balance",
          "type": "uint256"
        }
      ],
      "name": "preSetModuleState",
      "outputs": [],
      "stateMutability": "nonpayable",
      "type": "function"
    },
    {
      "inputs": [
        {
          "internalType": "address",
          "name": "_compliance",
          "type": "address"
        }
      ],
      "name": "presetCompleted",
      "outputs": [],
      "stateMutability": "nonpayable",
      "type": "function"
    },
    {
      "inputs": [
        {
          "internalType": "uint16",
          "name": "_country",
          "type": "uint16"
        },
        {
          "internalType": "uint16",
          "name": "_maxLocal",
          "type": "uint16"
        },
        {
          "internalType": "uint16",
          "name": "_maxNonlocal",
          "type": "uint16"
        }
      ],
      "name": "setMaxPercentage",
      "outputs": [],
      "stateMutability": "nonpayable",
      "type": "function"
    },
    {
      "inputs": [
        {
          "internalType": "address",
          "name": "_compliance",
          "type": "address"
        }
      ],
      "name": "unbindCompliance",
      "outputs": [],
      "stateMutability": "nonpayable",
      "type": "function"
    }
  ],
  "bytecode": "0x608060405234801561001057600080fd5b506116fe806100206000396000f3fe608060405234801561001057600080fd5b50600436106100f55760003560e01c80638f27c0eb11610097578063dd50b74c11610066578063dd50b74c1461023a578063e6f5e8071461024d578063f104a8c914610254578063f7c4722c1461026757600080fd5b80638f27c0eb146101e0578063bcc21053146101f3578063cc203f7514610206578063d5be92ad1461022757600080fd5b80632cb7e1ec116100d35780632cb7e1ec1461017b578063372491a21461018e5780634a932544146101a15780634cf4d295146101b457600080fd5b8063013b7ce4146100fa5780630694a5fb1461012757806306fdde031461013c575b600080fd5b610112610108366004611255565b6001949350505050565b60405190151581526020015b60405180910390f35b61013a6101353660046112a8565b61027a565b005b604080518082018252601b81527f4d61784f776e6572736869704279436f756e7472794d6f64756c6500000000006020820152905161011e91906112c5565b61013a610189366004611314565b610379565b61013a61019c366004611355565b6104c3565b61013a6101af3660046112a8565b610540565b6101126101c23660046112a8565b6001600160a01b031660009081526020819052604090205460ff1690565b61013a6101ee3660046113cd565b610673565b6101126102013660046112a8565b610863565b610219610214366004611450565b610974565b60405190815260200161011e565b61013a610235366004611499565b6109a1565b61013a6102483660046112a8565b610a56565b6000610112565b61013a610262366004611355565b610b1b565b61013a610275366004611314565b610b8e565b3360009081526020819052604090205460ff166102b25760405162461bcd60e51b81526004016102a9906114e4565b60405180910390fd5b6001600160a01b0381166103085760405162461bcd60e51b815260206004820152601f60248201527f696e76616c696420617267756d656e74202d207a65726f20616464726573730060448201526064016102a9565b336001600160a01b038216146103305760405162461bcd60e51b81526004016102a99061151b565b6001600160a01b038116600081815260208190526040808220805460ff19169055517f408b49d9be1c914c52a0227e18a077e5a892dddf32a26cfa94a5d9708fad77189190a250565b3360009081526020819052604090205460ff166103a85760405162461bcd60e51b81526004016102a9906114e4565b60006103b43385610ccd565b905060006103c23385610ccd565b905060006103d03386610e53565b3360009081526004602090815260408083206001600160a01b0387168452909152812080549293508692909190610408908490611572565b90915550503360009081526004602090815260408083206001600160a01b038716845290915281208054869290610440908490611585565b90915550503360008181526003602090815260408083208515158452825280832054848452600483528184206001600160a01b03881685529092529091205461ffff9091169161048f91611021565b61ffff1611156104bb5760405163bc37982360e01b8152336004820152602481018590526044016102a9565b505050505050565b3360009081526020819052604090205460ff166104f25760405162461bcd60e51b81526004016102a9906114e4565b60006104fe3384610ccd565b3360009081526004602090815260408083206001600160a01b0385168452909152812080549293508492909190610536908490611585565b9091555050505050565b6001600160a01b0381166105965760405162461bcd60e51b815260206004820152601f60248201527f696e76616c696420617267756d656e74202d207a65726f20616464726573730060448201526064016102a9565b6001600160a01b03811660009081526020819052604090205460ff16156105ff5760405162461bcd60e51b815260206004820152601860248201527f636f6d706c69616e636520616c726561647920626f756e64000000000000000060448201526064016102a9565b336001600160a01b038216146106275760405162461bcd60e51b81526004016102a99061151b565b6001600160a01b038116600081815260208190526040808220805460ff19166001179055517f1f7b76c58fb697eb53c6c7c1becb96911516a136e24d7ced386b2355358b75a39190a250565b828015806106815750808214155b156106a957858585858560405163355c2bfd60e11b81526004016102a9959493929190611598565b336001600160a01b0316866001600160a01b0316638da5cb5b6040518163ffffffff1660e01b8152600401602060405180830381865afa1580156106f1573d6000803e3d6000fd5b505050506040513d601f19601f820116820180604052508101906107159190611627565b6001600160a01b0316146107475760405163e8649dab60e01b81526001600160a01b03871660048201526024016102a9565b60405163a446d49f60e01b81523060048201526001600160a01b0387169063a446d49f90602401602060405180830381865afa15801561078b573d6000803e3d6000fd5b505050506040513d601f19601f820116820180604052508101906107af9190611644565b156107d85760405163346a0c0160e21b81526001600160a01b03871660048201526024016102a9565b60005b818110156108345761082c878787848181106107f9576107f9611666565b905060200201602081019061080e91906112a8565b86868581811061082057610820611666565b90506020020135611118565b6001016107db565b5050506001600160a01b039093166000908152600160208190526040909120805460ff19169091179055505050565b6001600160a01b03811660009081526001602052604081205460ff161561088c57506001919050565b6000826001600160a01b0316636a3edf286040518163ffffffff1660e01b8152600401602060405180830381865afa1580156108cc573d6000803e3d6000fd5b505050506040513d601f19601f820116820180604052508101906108f09190611627565b90506000816001600160a01b03166318160ddd6040518163ffffffff1660e01b8152600401602060405180830381865afa158015610932573d6000803e3d6000fd5b505050506040513d601f19601f82011682018060405250810190610956919061167c565b90508060000361096a575060019392505050565b5060009392505050565b6001600160a01b038083166000908152600460209081526040808320938516835292905220545b92915050565b3360009081526020819052604090205460ff166109d05760405162461bcd60e51b81526004016102a9906114e4565b336000818152600260209081526040808320805461ffff808a1661ffff1992831617909255600384528285206001865280855283862080548a851690841681179091558680529452828520805492881692909116821790559051909391927f28cb11a33332bc47c32fb9d625d79476808e022f515e43da3916a3c8b6b5557691a4505050565b336001600160a01b0316816001600160a01b0316638da5cb5b6040518163ffffffff1660e01b8152600401602060405180830381865afa158015610a9e573d6000803e3d6000fd5b505050506040513d601f19601f82011682018060405250810190610ac29190611627565b6001600160a01b031614610af45760405163e8649dab60e01b81526001600160a01b03821660048201526024016102a9565b6001600160a01b03166000908152600160208190526040909120805460ff19169091179055565b3360009081526020819052604090205460ff16610b4a5760405162461bcd60e51b81526004016102a9906114e4565b6000610b563384610ccd565b3360009081526004602090815260408083206001600160a01b0385168452909152812080549293508492909190610536908490611572565b336001600160a01b0316836001600160a01b0316638da5cb5b6040518163ffffffff1660e01b8152600401602060405180830381865afa158015610bd6573d6000803e3d6000fd5b505050506040513d601f19601f82011682018060405250810190610bfa9190611627565b6001600160a01b031614610c2c5760405163e8649dab60e01b81526001600160a01b03841660048201526024016102a9565b60405163a446d49f60e01b81523060048201526001600160a01b0384169063a446d49f90602401602060405180830381865afa158015610c70573d6000803e3d6000fd5b505050506040513d601f19601f82011682018060405250810190610c949190611644565b15610cbd5760405163346a0c0160e21b81526001600160a01b03841660048201526024016102a9565b610cc8838383611118565b505050565b600080836001600160a01b0316636a3edf286040518163ffffffff1660e01b8152600401602060405180830381865afa158015610d0e573d6000803e3d6000fd5b505050506040513d601f19601f82011682018060405250810190610d329190611627565b6001600160a01b031663134e18f46040518163ffffffff1660e01b8152600401602060405180830381865afa158015610d6f573d6000803e3d6000fd5b505050506040513d601f19601f82011682018060405250810190610d939190611627565b604051633c3ad79560e21b81526001600160a01b038581166004830152919091169063f0eb5e5490602401602060405180830381865afa158015610ddb573d6000803e3d6000fd5b505050506040513d601f19601f82011682018060405250810190610dff9190611627565b90506001600160a01b038116610e4c5760405162461bcd60e51b81526020600482015260126024820152711a59195b9d1a5d1e481b9bdd08199bdd5b9960721b60448201526064016102a9565b9392505050565b600080836001600160a01b0316636a3edf286040518163ffffffff1660e01b8152600401602060405180830381865afa158015610e94573d6000803e3d6000fd5b505050506040513d601f19601f82011682018060405250810190610eb89190611627565b6001600160a01b031663134e18f46040518163ffffffff1660e01b8152600401602060405180830381865afa158015610ef5573d6000803e3d6000fd5b505050506040513d601f19601f82011682018060405250810190610f199190611627565b604051637e42683b60e01b81526001600160a01b0385811660048301529190911690637e42683b90602401602060405180830381865afa158015610f61573d6000803e3d6000fd5b505050506040513d601f19601f82011682018060405250810190610f859190611695565b90508061ffff16600003610ff75760405162461bcd60e51b815260206004820152603360248201527f4d61784f776e6572736869704279436f756e7472794d6f64756c653a207573656044820152721c8818dbdd5b9d1c9e481b9bdd08199bdd5b99606a1b60648201526084016102a9565b6001600160a01b03841660009081526002602052604090205461ffff918216911614905092915050565b600080836001600160a01b0316636a3edf286040518163ffffffff1660e01b8152600401602060405180830381865afa158015611062573d6000803e3d6000fd5b505050506040513d601f19601f820116820180604052508101906110869190611627565b90506000816001600160a01b03166318160ddd6040518163ffffffff1660e01b8152600401602060405180830381865afa1580156110c8573d6000803e3d6000fd5b505050506040513d601f19601f820116820180604052508101906110ec919061167c565b9050612710811561110c57611102858284611179565b935050505061099b565b6000935050505061099b565b6001600160a01b0383811660008181526004602090815260408083209487168084529482529182902085905590518481527f0a777417e1c0a4b24c5f556b0c3dd522c37b99b2c3ca4bf9fea2fa1293c660c9910160405180910390a3505050565b60008383028160001985870982811083820303915050806000036111b0578382816111a6576111a66116b2565b0492505050610e4c565b8084116111d05760405163227bc15360e01b815260040160405180910390fd5b6000848688096000868103871696879004966002600389028118808a02820302808a02820302808a02820302808a02820302808a02820302808a02909103029181900381900460010186841190950394909402919094039290920491909117919091029150509392505050565b6001600160a01b038116811461125257600080fd5b50565b6000806000806080858703121561126b57600080fd5b84356112768161123d565b935060208501356112868161123d565b925060408501359150606085013561129d8161123d565b939692955090935050565b6000602082840312156112ba57600080fd5b8135610e4c8161123d565b60006020808352835180602085015260005b818110156112f3578581018301518582016040015282016112d7565b506000604082860101526040601f19601f8301168501019250505092915050565b60008060006060848603121561132957600080fd5b83356113348161123d565b925060208401356113448161123d565b929592945050506040919091013590565b6000806040838503121561136857600080fd5b82356113738161123d565b946020939093013593505050565b60008083601f84011261139357600080fd5b50813567ffffffffffffffff8111156113ab57600080fd5b6020830191508360208260051b85010111156113c657600080fd5b9250929050565b6000806000806000606086880312156113e557600080fd5b85356113f08161123d565b9450602086013567ffffffffffffffff8082111561140d57600080fd5b61141989838a01611381565b9096509450604088013591508082111561143257600080fd5b5061143f88828901611381565b969995985093965092949392505050565b6000806040838503121561146357600080fd5b823561146e8161123d565b9150602083013561147e8161123d565b809150509250929050565b61ffff8116811461125257600080fd5b6000806000606084860312156114ae57600080fd5b83356114b981611489565b925060208401356114c981611489565b915060408401356114d981611489565b809150509250925092565b6020808252601e908201527f6f6e6c7920626f756e6420636f6d706c69616e63652063616e2063616c6c0000604082015260600190565b60208082526021908201527f6f6e6c7920636f6d706c69616e636520636f6e74726163742063616e2063616c6040820152601b60fa1b606082015260800190565b634e487b7160e01b600052601160045260246000fd5b8082018082111561099b5761099b61155c565b8181038181111561099b5761099b61155c565b6001600160a01b03868116825260606020808401829052908301869052600091879160808501845b898110156115e75784356115d38161123d565b8416825293820193908201906001016115c0565b5085810360408701528681526001600160fb1b0387111561160757600080fd5b8660051b9350838860208301379092016020019998505050505050505050565b60006020828403121561163957600080fd5b8151610e4c8161123d565b60006020828403121561165657600080fd5b81518015158114610e4c57600080fd5b634e487b7160e01b600052603260045260246000fd5b60006020828403121561168e57600080fd5b5051919050565b6000602082840312156116a757600080fd5b8151610e4c81611489565b634e487b7160e01b600052601260045260246000fdfea2646970667358221220b81b30f85ce6e025dff9fbe40bf388fa4c4d15ec0f250686dbf88c21fa7ce8da64736f6c63430008180033",
  "linkReferences": {},
  "deployedLinkReferences": {}
}