{
  "_format": "hh-sol-artifact-1",
  "contractName": "MaxOwnershipByCountryModule",
  "sourceName": "contracts/erc3643/compliance/modular/modules/MaxOwnershipByCountryModule.sol",
  "abi": [
    {
      "inputs": [
        {
          "internalType": "address",
          "name": "_compliance",
          "type": "address"
        },
        {
          "internalType": "address[]",
          "name": "_id",
          "type": "address[]"
        },
        {
          "internalType": "uint256[]",
          "name": "_balance",
          "type": "uint256[]"
        }
      ],
      "name": "InvalidPresetValues",
      "type": "error"
    },
    {
      "inputs": [],
      "name": "MathOverflowedMulDiv",
      "type": "error"
    },
    {
      "inputs": [
        {
          "internalType": "address",
          "name": "_compliance",
          "type": "address"
        },
        {
          "internalType": "uint256",
          "name": "_value",
          "type": "uint256"
        }
      ],
      "name": "MaxOwnershipExceeded",
      "type": "error"
    },
    {
      "inputs": [
        {
          "internalType": "address",
          "name": "_compliance",
          "type": "address"
        }
      ],
      "name": "OnlyComplianceOwnerCanCall",
      "type": "error"
    },
    {
      "inputs": [
        {
          "internalType": "address",
          "name": "_compliance",
          "type": "address"
        }
      ],
      "name": "TokenAlreadyBound",
      "type": "error"
    },
    {
      "anonymous": false,
      "inputs": [
        {
          "indexed": true,
          "internalType": "address",
          "name": "_compliance",
          "type": "address"
        }
      ],
      "name": "ComplianceBound",
      "type": "event"
    },
    {
      "anonymous": false,
      "inputs": [
        {
          "indexed": true,
          "internalType": "address",
          "name": "_compliance",
          "type": "address"
        }
      ],
      "name": "ComplianceUnbound",
      "type": "event"
    },
    {
      "anonymous": false,
      "inputs": [
        {
          "indexed": true,
          "internalType": "address",
          "name": "_compliance",
          "type": "address"
        },
        {
          "indexed": true,
          "internalType": "address",
          "name": "_id",
          "type": "address"
        },
        {
          "indexed": false,
          "internalType": "uint256",
          "name": "_balance",
          "type": "uint256"
        }
      ],
      "name": "IDBalancePreSet",
      "type": "event"
    },
    {
      "anonymous": false,
      "inputs": [
        {
          "indexed": true,
          "internalType": "address",
          "name": "_compliance",
          "type": "address"
        },
        {
          "indexed": true,
          "internalType": "uint256",
          "name": "_maxPercetageLocal",
          "type": "uint256"
        },
        {
          "indexed": true,
          "internalType": "uint256",
          "name": "_maxPercetageNonlocal",
          "type": "uint256"
        }
      ],
      "name": "MaxPercentageSet",
      "type": "event"
    },
    {
      "inputs": [
        {
          "internalType": "address",
          "name": "_compliance",
          "type": "address"
        },
        {
          "internalType": "address[]",
          "name": "_id",
          "type": "address[]"
        },
        {
          "internalType": "uint256[]",
          "name": "_balance",
          "type": "uint256[]"
        }
      ],
      "name": "batchPreSetModuleState",
      "outputs": [],
      "stateMutability": "nonpayable",
      "type": "function"
    },
    {
      "inputs": [
        {
          "internalType": "address",
          "name": "_compliance",
          "type": "address"
        }
      ],
      "name": "bindCompliance",
      "outputs": [],
      "stateMutability": "nonpayable",
      "type": "function"
    },
    {
      "inputs": [
        {
          "internalType": "address",
          "name": "_compliance",
          "type": "address"
        }
      ],
      "name": "canComplianceBind",
      "outputs": [
        {
          "internalType": "bool",
          "name": "",
          "type": "bool"
        }
      ],
      "stateMutability": "view",
      "type": "function"
    },
    {
      "inputs": [
        {
          "internalType": "address",
          "name": "_compliance",
          "type": "address"
        },
        {
          "internalType": "address",
          "name": "_identity",
          "type": "address"
        }
      ],
      "name": "getIDBalance",
      "outputs": [
        {
          "internalType": "uint256",
          "name": "",
          "type": "uint256"
        }
      ],
      "stateMutability": "view",
      "type": "function"
    },
    {
      "inputs": [
        {
          "internalType": "address",
          "name": "_compliance",
          "type": "address"
        }
      ],
      "name": "isComplianceBound",
      "outputs": [
        {
          "internalType": "bool",
          "name": "",
          "type": "bool"
        }
      ],
      "stateMutability": "view",
      "type": "function"
    },
    {
      "inputs": [],
      "name": "isPlugAndPlay",
      "outputs": [
        {
          "internalType": "bool",
          "name": "",
          "type": "bool"
        }
      ],
      "stateMutability": "pure",
      "type": "function"
    },
    {
      "inputs": [
        {
          "internalType": "address",
          "name": "_from",
          "type": "address"
        },
        {
          "internalType": "uint256",
          "name": "_value",
          "type": "uint256"
        }
      ],
      "name": "moduleBurnAction",
      "outputs": [],
      "stateMutability": "nonpayable",
      "type": "function"
    },
    {
      "inputs": [
        {
          "internalType": "address",
          "name": "",
          "type": "address"
        },
        {
          "internalType": "address",
          "name": "",
          "type": "address"
        },
        {
          "internalType": "uint256",
          "name": "",
          "type": "uint256"
        },
        {
          "internalType": "address",
          "name": "",
          "type": "address"
        }
      ],
      "name": "moduleCheck",
      "outputs": [
        {
          "internalType": "bool",
          "name": "",
          "type": "bool"
        }
      ],
      "stateMutability": "pure",
      "type": "function"
    },
    {
      "inputs": [
        {
          "internalType": "address",
          "name": "_to",
          "type": "address"
        },
        {
          "internalType": "uint256",
          "name": "_value",
          "type": "uint256"
        }
      ],
      "name": "moduleMintAction",
      "outputs": [],
      "stateMutability": "nonpayable",
      "type": "function"
    },
    {
      "inputs": [
        {
          "internalType": "address",
          "name": "_from",
          "type": "address"
        },
        {
          "internalType": "address",
          "name": "_to",
          "type": "address"
        },
        {
          "internalType": "uint256",
          "name": "_value",
          "type": "uint256"
        }
      ],
      "name": "moduleTransferAction",
      "outputs": [],
      "stateMutability": "nonpayable",
      "type": "function"
    },
    {
      "inputs": [],
      "name": "name",
      "outputs": [
        {
          "internalType": "string",
          "name": "_name",
          "type": "string"
        }
      ],
      "stateMutability": "pure",
      "type": "function"
    },
    {
      "inputs": [
        {
          "internalType": "address",
          "name": "_compliance",
          "type": "address"
        },
        {
          "internalType": "address",
          "name": "_id",
          "type": "address"
        },
        {
          "internalType": "uint256",
          "name": "_balance",
          "type": "uint256"
        }
      ],
      "name": "preSetModuleState",
      "outputs": [],
      "stateMutability": "nonpayable",
      "type": "function"
    },
    {
      "inputs": [
        {
          "internalType": "address",
          "name": "_compliance",
          "type": "address"
        }
      ],
      "name": "presetCompleted",
      "outputs": [],
      "stateMutability": "nonpayable",
      "type": "function"
    },
    {
      "inputs": [
        {
          "internalType": "uint16",
          "name": "_country",
          "type": "uint16"
        },
        {
          "internalType": "uint16",
          "name": "_maxLocal",
          "type": "uint16"
        },
        {
          "internalType": "uint16",
          "name": "_maxNonlocal",
          "type": "uint16"
        }
      ],
      "name": "setMaxPercentage",
      "outputs": [],
      "stateMutability": "nonpayable",
      "type": "function"
    },
    {
      "inputs": [
        {
          "internalType": "address",
          "name": "_compliance",
          "type": "address"
        }
      ],
      "name": "unbindCompliance",
      "outputs": [],
      "stateMutability": "nonpayable",
      "type": "function"
    }
  ],
  "bytecode": "0x608060405234801561001057600080fd5b506116a1806100206000396000f3fe608060405234801561001057600080fd5b50600436106100d55760003560e01c80638f27c0eb116100875780638f27c0eb146101c0578063bcc21053146101d3578063cc203f75146101e6578063d5be92ad14610207578063dd50b74c1461021a578063e6f5e8071461022d578063f104a8c914610234578063f7c4722c1461024757600080fd5b8063013b7ce4146100da5780630694a5fb1461010757806306fdde031461011c5780632cb7e1ec1461015b578063372491a21461016e5780634a932544146101815780634cf4d29514610194575b600080fd5b6100f26100e83660046111ad565b6001949350505050565b60405190151581526020015b60405180910390f35b61011a610115366004611200565b61025a565b005b604080518082018252601b81527f4d61784f776e6572736869704279436f756e7472794d6f64756c650000000000602082015290516100fe919061121d565b61011a61016936600461126c565b610329565b61011a61017c3660046112ad565b610473565b61011a61018f366004611200565b6104f0565b6100f26101a2366004611200565b6001600160a01b031660009081526020819052604090205460ff1690565b61011a6101ce366004611325565b6105ee565b6100f26101e1366004611200565b6107d1565b6101f96101f43660046113a8565b6108e2565b6040519081526020016100fe565b61011a6102153660046113f1565b61090f565b61011a610228366004611200565b6109c4565b60006100f2565b61011a6102423660046112ad565b610a80565b61011a61025536600461126c565b610af3565b3360009081526020819052604090205460ff166102925760405162461bcd60e51b81526004016102899061143c565b60405180910390fd5b6001600160a01b0381166102b85760405162461bcd60e51b815260040161028990611473565b336001600160a01b038216146102e05760405162461bcd60e51b8152600401610289906114aa565b6001600160a01b038116600081815260208190526040808220805460ff19169055517f408b49d9be1c914c52a0227e18a077e5a892dddf32a26cfa94a5d9708fad77189190a250565b3360009081526020819052604090205460ff166103585760405162461bcd60e51b81526004016102899061143c565b60006103643385610c25565b905060006103723385610c25565b905060006103803386610dab565b3360009081526004602090815260408083206001600160a01b03871684529091528120805492935086929091906103b8908490611501565b90915550503360009081526004602090815260408083206001600160a01b0387168452909152812080548692906103f0908490611514565b90915550503360008181526003602090815260408083208515158452825280832054848452600483528184206001600160a01b03881685529092529091205461ffff9091169161043f91610f79565b61ffff16111561046b5760405163bc37982360e01b815233600482015260248101859052604401610289565b505050505050565b3360009081526020819052604090205460ff166104a25760405162461bcd60e51b81526004016102899061143c565b60006104ae3384610c25565b3360009081526004602090815260408083206001600160a01b03851684529091528120805492935084929091906104e6908490611514565b9091555050505050565b6001600160a01b0381166105165760405162461bcd60e51b815260040161028990611473565b6001600160a01b03811660009081526020819052604090205460ff161561057a5760405162461bcd60e51b815260206004820152601860248201527718dbdb5c1b1a585b98d948185b1c9958591e48189bdd5b9960421b6044820152606401610289565b336001600160a01b038216146105a25760405162461bcd60e51b8152600401610289906114aa565b6001600160a01b038116600081815260208190526040808220805460ff19166001179055517f1f7b76c58fb697eb53c6c7c1becb96911516a136e24d7ced386b2355358b75a39190a250565b828015806105fc5750808214155b1561062457858585858560405163355c2bfd60e11b8152600401610289959493929190611527565b336001600160a01b0316866001600160a01b0316638da5cb5b6040518163ffffffff1660e01b8152600401602060405180830381865afa15801561066c573d6000803e3d6000fd5b505050506040513d601f19601f8201168201806040525081019061069091906115b6565b6001600160a01b0316146106b9578560405163e8649dab60e01b815260040161028991906115d3565b60405163a446d49f60e01b81526001600160a01b0387169063a446d49f906106e59030906004016115d3565b602060405180830381865afa158015610702573d6000803e3d6000fd5b505050506040513d601f19601f8201168201806040525081019061072691906115e7565b15610746578560405163346a0c0160e21b815260040161028991906115d3565b60005b818110156107a25761079a8787878481811061076757610767611609565b905060200201602081019061077c9190611200565b86868581811061078e5761078e611609565b90506020020135611070565b600101610749565b5050506001600160a01b039093166000908152600160208190526040909120805460ff19169091179055505050565b6001600160a01b03811660009081526001602052604081205460ff16156107fa57506001919050565b6000826001600160a01b0316636a3edf286040518163ffffffff1660e01b8152600401602060405180830381865afa15801561083a573d6000803e3d6000fd5b505050506040513d601f19601f8201168201806040525081019061085e91906115b6565b90506000816001600160a01b03166318160ddd6040518163ffffffff1660e01b8152600401602060405180830381865afa1580156108a0573d6000803e3d6000fd5b505050506040513d601f19601f820116820180604052508101906108c4919061161f565b9050806000036108d8575060019392505050565b5060009392505050565b6001600160a01b038083166000908152600460209081526040808320938516835292905220545b92915050565b3360009081526020819052604090205460ff1661093e5760405162461bcd60e51b81526004016102899061143c565b336000818152600260209081526040808320805461ffff808a1661ffff1992831617909255600384528285206001865280855283862080548a851690841681179091558680529452828520805492881692909116821790559051909391927f28cb11a33332bc47c32fb9d625d79476808e022f515e43da3916a3c8b6b5557691a4505050565b336001600160a01b0316816001600160a01b0316638da5cb5b6040518163ffffffff1660e01b8152600401602060405180830381865afa158015610a0c573d6000803e3d6000fd5b505050506040513d601f19601f82011682018060405250810190610a3091906115b6565b6001600160a01b031614610a59578060405163e8649dab60e01b815260040161028991906115d3565b6001600160a01b03166000908152600160208190526040909120805460ff19169091179055565b3360009081526020819052604090205460ff16610aaf5760405162461bcd60e51b81526004016102899061143c565b6000610abb3384610c25565b3360009081526004602090815260408083206001600160a01b03851684529091528120805492935084929091906104e6908490611501565b336001600160a01b0316836001600160a01b0316638da5cb5b6040518163ffffffff1660e01b8152600401602060405180830381865afa158015610b3b573d6000803e3d6000fd5b505050506040513d601f19601f82011682018060405250810190610b5f91906115b6565b6001600160a01b031614610b88578260405163e8649dab60e01b815260040161028991906115d3565b60405163a446d49f60e01b81526001600160a01b0384169063a446d49f90610bb49030906004016115d3565b602060405180830381865afa158015610bd1573d6000803e3d6000fd5b505050506040513d601f19601f82011682018060405250810190610bf591906115e7565b15610c15578260405163346a0c0160e21b815260040161028991906115d3565b610c20838383611070565b505050565b600080836001600160a01b0316636a3edf286040518163ffffffff1660e01b8152600401602060405180830381865afa158015610c66573d6000803e3d6000fd5b505050506040513d601f19601f82011682018060405250810190610c8a91906115b6565b6001600160a01b031663134e18f46040518163ffffffff1660e01b8152600401602060405180830381865afa158015610cc7573d6000803e3d6000fd5b505050506040513d601f19601f82011682018060405250810190610ceb91906115b6565b6001600160a01b031663f0eb5e54846040518263ffffffff1660e01b8152600401610d1691906115d3565b602060405180830381865afa158015610d33573d6000803e3d6000fd5b505050506040513d601f19601f82011682018060405250810190610d5791906115b6565b90506001600160a01b038116610da45760405162461bcd60e51b81526020600482015260126024820152711a59195b9d1a5d1e481b9bdd08199bdd5b9960721b6044820152606401610289565b9392505050565b600080836001600160a01b0316636a3edf286040518163ffffffff1660e01b8152600401602060405180830381865afa158015610dec573d6000803e3d6000fd5b505050506040513d601f19601f82011682018060405250810190610e1091906115b6565b6001600160a01b031663134e18f46040518163ffffffff1660e01b8152600401602060405180830381865afa158015610e4d573d6000803e3d6000fd5b505050506040513d601f19601f82011682018060405250810190610e7191906115b6565b6001600160a01b0316637e42683b846040518263ffffffff1660e01b8152600401610e9c91906115d3565b602060405180830381865afa158015610eb9573d6000803e3d6000fd5b505050506040513d601f19601f82011682018060405250810190610edd9190611638565b90508061ffff16600003610f4f5760405162461bcd60e51b815260206004820152603360248201527f4d61784f776e6572736869704279436f756e7472794d6f64756c653a207573656044820152721c8818dbdd5b9d1c9e481b9bdd08199bdd5b99606a1b6064820152608401610289565b6001600160a01b03841660009081526002602052604090205461ffff918216911614905092915050565b600080836001600160a01b0316636a3edf286040518163ffffffff1660e01b8152600401602060405180830381865afa158015610fba573d6000803e3d6000fd5b505050506040513d601f19601f82011682018060405250810190610fde91906115b6565b90506000816001600160a01b03166318160ddd6040518163ffffffff1660e01b8152600401602060405180830381865afa158015611020573d6000803e3d6000fd5b505050506040513d601f19601f82011682018060405250810190611044919061161f565b905061271081156110645761105a8582846110d1565b9350505050610909565b60009350505050610909565b6001600160a01b0383811660008181526004602090815260408083209487168084529482529182902085905590518481527f0a777417e1c0a4b24c5f556b0c3dd522c37b99b2c3ca4bf9fea2fa1293c660c9910160405180910390a3505050565b6000838302816000198587098281108382030391505080600003611108578382816110fe576110fe611655565b0492505050610da4565b8084116111285760405163227bc15360e01b815260040160405180910390fd5b6000848688096000868103871696879004966002600389028118808a02820302808a02820302808a02820302808a02820302808a02820302808a02909103029181900381900460010186841190950394909402919094039290920491909117919091029150509392505050565b6001600160a01b03811681146111aa57600080fd5b50565b600080600080608085870312156111c357600080fd5b84356111ce81611195565b935060208501356111de81611195565b92506040850135915060608501356111f581611195565b939692955090935050565b60006020828403121561121257600080fd5b8135610da481611195565b60006020808352835180602085015260005b8181101561124b5785810183015185820160400152820161122f565b506000604082860101526040601f19601f8301168501019250505092915050565b60008060006060848603121561128157600080fd5b833561128c81611195565b9250602084013561129c81611195565b929592945050506040919091013590565b600080604083850312156112c057600080fd5b82356112cb81611195565b946020939093013593505050565b60008083601f8401126112eb57600080fd5b50813567ffffffffffffffff81111561130357600080fd5b6020830191508360208260051b850101111561131e57600080fd5b9250929050565b60008060008060006060868803121561133d57600080fd5b853561134881611195565b9450602086013567ffffffffffffffff8082111561136557600080fd5b61137189838a016112d9565b9096509450604088013591508082111561138a57600080fd5b50611397888289016112d9565b969995985093965092949392505050565b600080604083850312156113bb57600080fd5b82356113c681611195565b915060208301356113d681611195565b809150509250929050565b61ffff811681146111aa57600080fd5b60008060006060848603121561140657600080fd5b8335611411816113e1565b92506020840135611421816113e1565b91506040840135611431816113e1565b809150509250925092565b6020808252601e908201527f6f6e6c7920626f756e6420636f6d706c69616e63652063616e2063616c6c0000604082015260600190565b6020808252601f908201527f696e76616c696420617267756d656e74202d207a65726f206164647265737300604082015260600190565b60208082526021908201527f6f6e6c7920636f6d706c69616e636520636f6e74726163742063616e2063616c6040820152601b60fa1b606082015260800190565b634e487b7160e01b600052601160045260246000fd5b80820180821115610909576109096114eb565b81810381811115610909576109096114eb565b6001600160a01b03868116825260606020808401829052908301869052600091879160808501845b8981101561157657843561156281611195565b84168252938201939082019060010161154f565b5085810360408701528681526001600160fb1b0387111561159657600080fd5b8660051b9350838860208301379092016020019998505050505050505050565b6000602082840312156115c857600080fd5b8151610da481611195565b6001600160a01b0391909116815260200190565b6000602082840312156115f957600080fd5b81518015158114610da457600080fd5b634e487b7160e01b600052603260045260246000fd5b60006020828403121561163157600080fd5b5051919050565b60006020828403121561164a57600080fd5b8151610da4816113e1565b634e487b7160e01b600052601260045260246000fdfea26469706673582212208b10ba7b9b1f6f03004f03632a94005258818c1295e57d7d3af74134f09c43d664736f6c63430008180033",
  "linkReferences": {},
  "deployedLinkReferences": {}
}