{
  "_format": "hh-sol-artifact-1",
  "contractName": "MaxTenPercentOwnershipModule",
  "sourceName": "contracts/erc3643/compliance/modular/modules/MaxTenPercentOwnershipModule.sol",
  "abi": [
    {
      "inputs": [
        {
          "internalType": "address",
          "name": "_compliance",
          "type": "address"
        },
        {
          "internalType": "address[]",
          "name": "_id",
          "type": "address[]"
        },
        {
          "internalType": "uint256[]",
          "name": "_balance",
          "type": "uint256[]"
        }
      ],
      "name": "InvalidPresetValues",
      "type": "error"
    },
    {
      "inputs": [],
      "name": "MathOverflowedMulDiv",
      "type": "error"
    },
    {
      "inputs": [
        {
          "internalType": "address",
          "name": "_compliance",
          "type": "address"
        },
        {
          "internalType": "uint256",
          "name": "_value",
          "type": "uint256"
        }
      ],
      "name": "MaxOwnershipExceeded",
      "type": "error"
    },
    {
      "inputs": [
        {
          "internalType": "address",
          "name": "_compliance",
          "type": "address"
        }
      ],
      "name": "OnlyComplianceOwnerCanCall",
      "type": "error"
    },
    {
      "inputs": [
        {
          "internalType": "address",
          "name": "_compliance",
          "type": "address"
        }
      ],
      "name": "TokenAlreadyBound",
      "type": "error"
    },
    {
      "anonymous": false,
      "inputs": [
        {
          "indexed": true,
          "internalType": "address",
          "name": "_compliance",
          "type": "address"
        }
      ],
      "name": "ComplianceBound",
      "type": "event"
    },
    {
      "anonymous": false,
      "inputs": [
        {
          "indexed": true,
          "internalType": "address",
          "name": "_compliance",
          "type": "address"
        }
      ],
      "name": "ComplianceUnbound",
      "type": "event"
    },
    {
      "anonymous": false,
      "inputs": [
        {
          "indexed": true,
          "internalType": "address",
          "name": "_compliance",
          "type": "address"
        },
        {
          "indexed": true,
          "internalType": "address",
          "name": "_id",
          "type": "address"
        },
        {
          "indexed": false,
          "internalType": "uint256",
          "name": "_balance",
          "type": "uint256"
        }
      ],
      "name": "IDBalancePreSet",
      "type": "event"
    },
    {
      "anonymous": false,
      "inputs": [
        {
          "indexed": true,
          "internalType": "address",
          "name": "_compliance",
          "type": "address"
        },
        {
          "indexed": true,
          "internalType": "uint256",
          "name": "_maxPercetage",
          "type": "uint256"
        }
      ],
      "name": "MaxPercentageSet",
      "type": "event"
    },
    {
      "inputs": [
        {
          "internalType": "address",
          "name": "_compliance",
          "type": "address"
        },
        {
          "internalType": "address[]",
          "name": "_id",
          "type": "address[]"
        },
        {
          "internalType": "uint256[]",
          "name": "_balance",
          "type": "uint256[]"
        }
      ],
      "name": "batchPreSetModuleState",
      "outputs": [],
      "stateMutability": "nonpayable",
      "type": "function"
    },
    {
      "inputs": [
        {
          "internalType": "address",
          "name": "_compliance",
          "type": "address"
        }
      ],
      "name": "bindCompliance",
      "outputs": [],
      "stateMutability": "nonpayable",
      "type": "function"
    },
    {
      "inputs": [
        {
          "internalType": "address",
          "name": "_compliance",
          "type": "address"
        }
      ],
      "name": "canComplianceBind",
      "outputs": [
        {
          "internalType": "bool",
          "name": "",
          "type": "bool"
        }
      ],
      "stateMutability": "view",
      "type": "function"
    },
    {
      "inputs": [
        {
          "internalType": "address",
          "name": "_compliance",
          "type": "address"
        },
        {
          "internalType": "address",
          "name": "_identity",
          "type": "address"
        }
      ],
      "name": "getIDBalance",
      "outputs": [
        {
          "internalType": "uint256",
          "name": "",
          "type": "uint256"
        }
      ],
      "stateMutability": "view",
      "type": "function"
    },
    {
      "inputs": [
        {
          "internalType": "address",
          "name": "_compliance",
          "type": "address"
        }
      ],
      "name": "isComplianceBound",
      "outputs": [
        {
          "internalType": "bool",
          "name": "",
          "type": "bool"
        }
      ],
      "stateMutability": "view",
      "type": "function"
    },
    {
      "inputs": [],
      "name": "isPlugAndPlay",
      "outputs": [
        {
          "internalType": "bool",
          "name": "",
          "type": "bool"
        }
      ],
      "stateMutability": "pure",
      "type": "function"
    },
    {
      "inputs": [
        {
          "internalType": "address",
          "name": "_from",
          "type": "address"
        },
        {
          "internalType": "uint256",
          "name": "_value",
          "type": "uint256"
        }
      ],
      "name": "moduleBurnAction",
      "outputs": [],
      "stateMutability": "nonpayable",
      "type": "function"
    },
    {
      "inputs": [
        {
          "internalType": "address",
          "name": "",
          "type": "address"
        },
        {
          "internalType": "address",
          "name": "",
          "type": "address"
        },
        {
          "internalType": "uint256",
          "name": "",
          "type": "uint256"
        },
        {
          "internalType": "address",
          "name": "",
          "type": "address"
        }
      ],
      "name": "moduleCheck",
      "outputs": [
        {
          "internalType": "bool",
          "name": "",
          "type": "bool"
        }
      ],
      "stateMutability": "pure",
      "type": "function"
    },
    {
      "inputs": [
        {
          "internalType": "address",
          "name": "_to",
          "type": "address"
        },
        {
          "internalType": "uint256",
          "name": "_value",
          "type": "uint256"
        }
      ],
      "name": "moduleMintAction",
      "outputs": [],
      "stateMutability": "nonpayable",
      "type": "function"
    },
    {
      "inputs": [
        {
          "internalType": "address",
          "name": "_from",
          "type": "address"
        },
        {
          "internalType": "address",
          "name": "_to",
          "type": "address"
        },
        {
          "internalType": "uint256",
          "name": "_value",
          "type": "uint256"
        }
      ],
      "name": "moduleTransferAction",
      "outputs": [],
      "stateMutability": "nonpayable",
      "type": "function"
    },
    {
      "inputs": [],
      "name": "name",
      "outputs": [
        {
          "internalType": "string",
          "name": "_name",
          "type": "string"
        }
      ],
      "stateMutability": "pure",
      "type": "function"
    },
    {
      "inputs": [
        {
          "internalType": "address",
          "name": "_compliance",
          "type": "address"
        },
        {
          "internalType": "address",
          "name": "_id",
          "type": "address"
        },
        {
          "internalType": "uint256",
          "name": "_balance",
          "type": "uint256"
        }
      ],
      "name": "preSetModuleState",
      "outputs": [],
      "stateMutability": "nonpayable",
      "type": "function"
    },
    {
      "inputs": [
        {
          "internalType": "address",
          "name": "_compliance",
          "type": "address"
        }
      ],
      "name": "presetCompleted",
      "outputs": [],
      "stateMutability": "nonpayable",
      "type": "function"
    },
    {
      "inputs": [
        {
          "internalType": "address",
          "name": "_compliance",
          "type": "address"
        }
      ],
      "name": "unbindCompliance",
      "outputs": [],
      "stateMutability": "nonpayable",
      "type": "function"
    }
  ],
  "bytecode": "0x60806040526103e860025534801561001657600080fd5b5061135c806100266000396000f3fe608060405234801561001057600080fd5b50600436106100ca5760003560e01c80638f27c0eb1161007c5780638f27c0eb146101b5578063bcc21053146101c8578063cc203f75146101db578063dd50b74c146101fc578063e6f5e8071461020f578063f104a8c914610216578063f7c4722c1461022957600080fd5b8063013b7ce4146100cf5780630694a5fb146100fc57806306fdde03146101115780632cb7e1ec14610150578063372491a2146101635780634a932544146101765780634cf4d29514610189575b600080fd5b6100e76100dd366004610ee0565b6001949350505050565b60405190151581526020015b60405180910390f35b61010f61010a366004610f33565b61023c565b005b604080518082018252601c81527f4d617854656e50657263656e744f776e6572736869704d6f64756c6500000000602082015290516100f39190610f50565b61010f61015e366004610f9f565b61030b565b61010f610171366004610fe0565b610429565b61010f610184366004610f33565b6104a6565b6100e7610197366004610f33565b6001600160a01b031660009081526020819052604090205460ff1690565b61010f6101c3366004611058565b6105a4565b6100e76101d6366004610f33565b610787565b6101ee6101e93660046110db565b610898565b6040519081526020016100f3565b61010f61020a366004610f33565b6108c5565b60006100e7565b61010f610224366004610fe0565b610981565b61010f610237366004610f9f565b6109f4565b3360009081526020819052604090205460ff166102745760405162461bcd60e51b815260040161026b90611114565b60405180910390fd5b6001600160a01b03811661029a5760405162461bcd60e51b815260040161026b9061114b565b336001600160a01b038216146102c25760405162461bcd60e51b815260040161026b90611182565b6001600160a01b038116600081815260208190526040808220805460ff19169055517f408b49d9be1c914c52a0227e18a077e5a892dddf32a26cfa94a5d9708fad77189190a250565b3360009081526020819052604090205460ff1661033a5760405162461bcd60e51b815260040161026b90611114565b60006103463385610b26565b905060006103543385610b26565b3360009081526003602090815260408083206001600160a01b038516845290915281208054929350859290919061038c9084906111d9565b90915550503360009081526003602090815260408083206001600160a01b0386168452909152812080548592906103c49084906111ec565b90915550506002543360008181526003602090815260408083206001600160a01b03871684529091529020546103fa9190610cac565b11156104225760405163bc37982360e01b81523360048201526024810184905260440161026b565b5050505050565b3360009081526020819052604090205460ff166104585760405162461bcd60e51b815260040161026b90611114565b60006104643384610b26565b3360009081526003602090815260408083206001600160a01b038516845290915281208054929350849290919061049c9084906111ec565b9091555050505050565b6001600160a01b0381166104cc5760405162461bcd60e51b815260040161026b9061114b565b6001600160a01b03811660009081526020819052604090205460ff16156105305760405162461bcd60e51b815260206004820152601860248201527718dbdb5c1b1a585b98d948185b1c9958591e48189bdd5b9960421b604482015260640161026b565b336001600160a01b038216146105585760405162461bcd60e51b815260040161026b90611182565b6001600160a01b038116600081815260208190526040808220805460ff19166001179055517f1f7b76c58fb697eb53c6c7c1becb96911516a136e24d7ced386b2355358b75a39190a250565b828015806105b25750808214155b156105da57858585858560405163355c2bfd60e11b815260040161026b9594939291906111ff565b336001600160a01b0316866001600160a01b0316638da5cb5b6040518163ffffffff1660e01b8152600401602060405180830381865afa158015610622573d6000803e3d6000fd5b505050506040513d601f19601f82011682018060405250810190610646919061128e565b6001600160a01b03161461066f578560405163e8649dab60e01b815260040161026b91906112ab565b60405163a446d49f60e01b81526001600160a01b0387169063a446d49f9061069b9030906004016112ab565b602060405180830381865afa1580156106b8573d6000803e3d6000fd5b505050506040513d601f19601f820116820180604052508101906106dc91906112bf565b156106fc578560405163346a0c0160e21b815260040161026b91906112ab565b60005b81811015610758576107508787878481811061071d5761071d6112e1565b90506020020160208101906107329190610f33565b868685818110610744576107446112e1565b90506020020135610da3565b6001016106ff565b5050506001600160a01b039093166000908152600160208190526040909120805460ff19169091179055505050565b6001600160a01b03811660009081526001602052604081205460ff16156107b057506001919050565b6000826001600160a01b0316636a3edf286040518163ffffffff1660e01b8152600401602060405180830381865afa1580156107f0573d6000803e3d6000fd5b505050506040513d601f19601f82011682018060405250810190610814919061128e565b90506000816001600160a01b03166318160ddd6040518163ffffffff1660e01b8152600401602060405180830381865afa158015610856573d6000803e3d6000fd5b505050506040513d601f19601f8201168201806040525081019061087a91906112f7565b90508060000361088e575060019392505050565b5060009392505050565b6001600160a01b038083166000908152600360209081526040808320938516835292905220545b92915050565b336001600160a01b0316816001600160a01b0316638da5cb5b6040518163ffffffff1660e01b8152600401602060405180830381865afa15801561090d573d6000803e3d6000fd5b505050506040513d601f19601f82011682018060405250810190610931919061128e565b6001600160a01b03161461095a578060405163e8649dab60e01b815260040161026b91906112ab565b6001600160a01b03166000908152600160208190526040909120805460ff19169091179055565b3360009081526020819052604090205460ff166109b05760405162461bcd60e51b815260040161026b90611114565b60006109bc3384610b26565b3360009081526003602090815260408083206001600160a01b038516845290915281208054929350849290919061049c9084906111d9565b336001600160a01b0316836001600160a01b0316638da5cb5b6040518163ffffffff1660e01b8152600401602060405180830381865afa158015610a3c573d6000803e3d6000fd5b505050506040513d601f19601f82011682018060405250810190610a60919061128e565b6001600160a01b031614610a89578260405163e8649dab60e01b815260040161026b91906112ab565b60405163a446d49f60e01b81526001600160a01b0384169063a446d49f90610ab59030906004016112ab565b602060405180830381865afa158015610ad2573d6000803e3d6000fd5b505050506040513d601f19601f82011682018060405250810190610af691906112bf565b15610b16578260405163346a0c0160e21b815260040161026b91906112ab565b610b21838383610da3565b505050565b600080836001600160a01b0316636a3edf286040518163ffffffff1660e01b8152600401602060405180830381865afa158015610b67573d6000803e3d6000fd5b505050506040513d601f19601f82011682018060405250810190610b8b919061128e565b6001600160a01b031663134e18f46040518163ffffffff1660e01b8152600401602060405180830381865afa158015610bc8573d6000803e3d6000fd5b505050506040513d601f19601f82011682018060405250810190610bec919061128e565b6001600160a01b031663f0eb5e54846040518263ffffffff1660e01b8152600401610c1791906112ab565b602060405180830381865afa158015610c34573d6000803e3d6000fd5b505050506040513d601f19601f82011682018060405250810190610c58919061128e565b90506001600160a01b038116610ca55760405162461bcd60e51b81526020600482015260126024820152711a59195b9d1a5d1e481b9bdd08199bdd5b9960721b604482015260640161026b565b9392505050565b600080836001600160a01b0316636a3edf286040518163ffffffff1660e01b8152600401602060405180830381865afa158015610ced573d6000803e3d6000fd5b505050506040513d601f19601f82011682018060405250810190610d11919061128e565b90506000816001600160a01b03166318160ddd6040518163ffffffff1660e01b8152600401602060405180830381865afa158015610d53573d6000803e3d6000fd5b505050506040513d601f19601f82011682018060405250810190610d7791906112f7565b90506127108115610d9757610d8d858284610e04565b93505050506108bf565b600093505050506108bf565b6001600160a01b0383811660008181526003602090815260408083209487168084529482529182902085905590518481527f0a777417e1c0a4b24c5f556b0c3dd522c37b99b2c3ca4bf9fea2fa1293c660c9910160405180910390a3505050565b6000838302816000198587098281108382030391505080600003610e3b57838281610e3157610e31611310565b0492505050610ca5565b808411610e5b5760405163227bc15360e01b815260040160405180910390fd5b6000848688096000868103871696879004966002600389028118808a02820302808a02820302808a02820302808a02820302808a02820302808a02909103029181900381900460010186841190950394909402919094039290920491909117919091029150509392505050565b6001600160a01b0381168114610edd57600080fd5b50565b60008060008060808587031215610ef657600080fd5b8435610f0181610ec8565b93506020850135610f1181610ec8565b9250604085013591506060850135610f2881610ec8565b939692955090935050565b600060208284031215610f4557600080fd5b8135610ca581610ec8565b60006020808352835180602085015260005b81811015610f7e57858101830151858201604001528201610f62565b506000604082860101526040601f19601f8301168501019250505092915050565b600080600060608486031215610fb457600080fd5b8335610fbf81610ec8565b92506020840135610fcf81610ec8565b929592945050506040919091013590565b60008060408385031215610ff357600080fd5b8235610ffe81610ec8565b946020939093013593505050565b60008083601f84011261101e57600080fd5b50813567ffffffffffffffff81111561103657600080fd5b6020830191508360208260051b850101111561105157600080fd5b9250929050565b60008060008060006060868803121561107057600080fd5b853561107b81610ec8565b9450602086013567ffffffffffffffff8082111561109857600080fd5b6110a489838a0161100c565b909650945060408801359150808211156110bd57600080fd5b506110ca8882890161100c565b969995985093965092949392505050565b600080604083850312156110ee57600080fd5b82356110f981610ec8565b9150602083013561110981610ec8565b809150509250929050565b6020808252601e908201527f6f6e6c7920626f756e6420636f6d706c69616e63652063616e2063616c6c0000604082015260600190565b6020808252601f908201527f696e76616c696420617267756d656e74202d207a65726f206164647265737300604082015260600190565b60208082526021908201527f6f6e6c7920636f6d706c69616e636520636f6e74726163742063616e2063616c6040820152601b60fa1b606082015260800190565b634e487b7160e01b600052601160045260246000fd5b808201808211156108bf576108bf6111c3565b818103818111156108bf576108bf6111c3565b6001600160a01b03868116825260606020808401829052908301869052600091879160808501845b8981101561124e57843561123a81610ec8565b841682529382019390820190600101611227565b5085810360408701528681526001600160fb1b0387111561126e57600080fd5b8660051b9350838860208301379092016020019998505050505050505050565b6000602082840312156112a057600080fd5b8151610ca581610ec8565b6001600160a01b0391909116815260200190565b6000602082840312156112d157600080fd5b81518015158114610ca557600080fd5b634e487b7160e01b600052603260045260246000fd5b60006020828403121561130957600080fd5b5051919050565b634e487b7160e01b600052601260045260246000fdfea2646970667358221220a7fc822c543a575619f9c9339b01297f7f8d6d932643527d74dd38c7d5755ec164736f6c63430008180033",
  "linkReferences": {},
  "deployedLinkReferences": {}
}