{
  "_format": "hh-sol-artifact-1",
  "contractName": "MaxTenPercentOwnershipModule",
  "sourceName": "contracts/erc3643/compliance/modular/modules/MaxTenPercentOwnershipModule.sol",
  "abi": [
    {
      "inputs": [
        {
          "internalType": "address",
          "name": "_compliance",
          "type": "address"
        },
        {
          "internalType": "address[]",
          "name": "_id",
          "type": "address[]"
        },
        {
          "internalType": "uint256[]",
          "name": "_balance",
          "type": "uint256[]"
        }
      ],
      "name": "InvalidPresetValues",
      "type": "error"
    },
    {
      "inputs": [],
      "name": "MathOverflowedMulDiv",
      "type": "error"
    },
    {
      "inputs": [
        {
          "internalType": "address",
          "name": "_compliance",
          "type": "address"
        },
        {
          "internalType": "uint256",
          "name": "_value",
          "type": "uint256"
        }
      ],
      "name": "MaxOwnershipExceeded",
      "type": "error"
    },
    {
      "inputs": [
        {
          "internalType": "address",
          "name": "_compliance",
          "type": "address"
        }
      ],
      "name": "OnlyComplianceOwnerCanCall",
      "type": "error"
    },
    {
      "inputs": [
        {
          "internalType": "address",
          "name": "_compliance",
          "type": "address"
        }
      ],
      "name": "TokenAlreadyBound",
      "type": "error"
    },
    {
      "anonymous": false,
      "inputs": [
        {
          "indexed": true,
          "internalType": "address",
          "name": "_compliance",
          "type": "address"
        }
      ],
      "name": "ComplianceBound",
      "type": "event"
    },
    {
      "anonymous": false,
      "inputs": [
        {
          "indexed": true,
          "internalType": "address",
          "name": "_compliance",
          "type": "address"
        }
      ],
      "name": "ComplianceUnbound",
      "type": "event"
    },
    {
      "anonymous": false,
      "inputs": [
        {
          "indexed": true,
          "internalType": "address",
          "name": "_compliance",
          "type": "address"
        },
        {
          "indexed": true,
          "internalType": "address",
          "name": "_id",
          "type": "address"
        },
        {
          "indexed": false,
          "internalType": "uint256",
          "name": "_balance",
          "type": "uint256"
        }
      ],
      "name": "IDBalancePreSet",
      "type": "event"
    },
    {
      "anonymous": false,
      "inputs": [
        {
          "indexed": true,
          "internalType": "address",
          "name": "_compliance",
          "type": "address"
        },
        {
          "indexed": true,
          "internalType": "uint256",
          "name": "_maxPercetage",
          "type": "uint256"
        }
      ],
      "name": "MaxPercentageSet",
      "type": "event"
    },
    {
      "inputs": [
        {
          "internalType": "address",
          "name": "_compliance",
          "type": "address"
        },
        {
          "internalType": "address[]",
          "name": "_id",
          "type": "address[]"
        },
        {
          "internalType": "uint256[]",
          "name": "_balance",
          "type": "uint256[]"
        }
      ],
      "name": "batchPreSetModuleState",
      "outputs": [],
      "stateMutability": "nonpayable",
      "type": "function"
    },
    {
      "inputs": [
        {
          "internalType": "address",
          "name": "_compliance",
          "type": "address"
        }
      ],
      "name": "bindCompliance",
      "outputs": [],
      "stateMutability": "nonpayable",
      "type": "function"
    },
    {
      "inputs": [
        {
          "internalType": "address",
          "name": "_compliance",
          "type": "address"
        }
      ],
      "name": "canComplianceBind",
      "outputs": [
        {
          "internalType": "bool",
          "name": "",
          "type": "bool"
        }
      ],
      "stateMutability": "view",
      "type": "function"
    },
    {
      "inputs": [
        {
          "internalType": "address",
          "name": "_compliance",
          "type": "address"
        },
        {
          "internalType": "address",
          "name": "_identity",
          "type": "address"
        }
      ],
      "name": "getIDBalance",
      "outputs": [
        {
          "internalType": "uint256",
          "name": "",
          "type": "uint256"
        }
      ],
      "stateMutability": "view",
      "type": "function"
    },
    {
      "inputs": [
        {
          "internalType": "address",
          "name": "_compliance",
          "type": "address"
        }
      ],
      "name": "isComplianceBound",
      "outputs": [
        {
          "internalType": "bool",
          "name": "",
          "type": "bool"
        }
      ],
      "stateMutability": "view",
      "type": "function"
    },
    {
      "inputs": [],
      "name": "isPlugAndPlay",
      "outputs": [
        {
          "internalType": "bool",
          "name": "",
          "type": "bool"
        }
      ],
      "stateMutability": "pure",
      "type": "function"
    },
    {
      "inputs": [
        {
          "internalType": "address",
          "name": "_from",
          "type": "address"
        },
        {
          "internalType": "uint256",
          "name": "_value",
          "type": "uint256"
        }
      ],
      "name": "moduleBurnAction",
      "outputs": [],
      "stateMutability": "nonpayable",
      "type": "function"
    },
    {
      "inputs": [
        {
          "internalType": "address",
          "name": "",
          "type": "address"
        },
        {
          "internalType": "address",
          "name": "",
          "type": "address"
        },
        {
          "internalType": "uint256",
          "name": "",
          "type": "uint256"
        },
        {
          "internalType": "address",
          "name": "",
          "type": "address"
        }
      ],
      "name": "moduleCheck",
      "outputs": [
        {
          "internalType": "bool",
          "name": "",
          "type": "bool"
        }
      ],
      "stateMutability": "pure",
      "type": "function"
    },
    {
      "inputs": [
        {
          "internalType": "address",
          "name": "_to",
          "type": "address"
        },
        {
          "internalType": "uint256",
          "name": "_value",
          "type": "uint256"
        }
      ],
      "name": "moduleMintAction",
      "outputs": [],
      "stateMutability": "nonpayable",
      "type": "function"
    },
    {
      "inputs": [
        {
          "internalType": "address",
          "name": "_from",
          "type": "address"
        },
        {
          "internalType": "address",
          "name": "_to",
          "type": "address"
        },
        {
          "internalType": "uint256",
          "name": "_value",
          "type": "uint256"
        }
      ],
      "name": "moduleTransferAction",
      "outputs": [],
      "stateMutability": "nonpayable",
      "type": "function"
    },
    {
      "inputs": [],
      "name": "name",
      "outputs": [
        {
          "internalType": "string",
          "name": "_name",
          "type": "string"
        }
      ],
      "stateMutability": "pure",
      "type": "function"
    },
    {
      "inputs": [
        {
          "internalType": "address",
          "name": "_compliance",
          "type": "address"
        },
        {
          "internalType": "address",
          "name": "_id",
          "type": "address"
        },
        {
          "internalType": "uint256",
          "name": "_balance",
          "type": "uint256"
        }
      ],
      "name": "preSetModuleState",
      "outputs": [],
      "stateMutability": "nonpayable",
      "type": "function"
    },
    {
      "inputs": [
        {
          "internalType": "address",
          "name": "_compliance",
          "type": "address"
        }
      ],
      "name": "presetCompleted",
      "outputs": [],
      "stateMutability": "nonpayable",
      "type": "function"
    },
    {
      "inputs": [
        {
          "internalType": "address",
          "name": "_compliance",
          "type": "address"
        }
      ],
      "name": "unbindCompliance",
      "outputs": [],
      "stateMutability": "nonpayable",
      "type": "function"
    }
  ],
  "bytecode": "0x60806040526103e860025534801561001657600080fd5b506113b9806100266000396000f3fe608060405234801561001057600080fd5b50600436106100ea5760003560e01c80638f27c0eb1161008c578063dd50b74c11610066578063dd50b74c1461021c578063e6f5e8071461022f578063f104a8c914610236578063f7c4722c1461024957600080fd5b80638f27c0eb146101d5578063bcc21053146101e8578063cc203f75146101fb57600080fd5b80632cb7e1ec116100c85780632cb7e1ec14610170578063372491a2146101835780634a932544146101965780634cf4d295146101a957600080fd5b8063013b7ce4146100ef5780630694a5fb1461011c57806306fdde0314610131575b600080fd5b6101076100fd366004610f88565b6001949350505050565b60405190151581526020015b60405180910390f35b61012f61012a366004610fdb565b61025c565b005b604080518082018252601c81527f4d617854656e50657263656e744f776e6572736869704d6f64756c6500000000602082015290516101139190610ff8565b61012f61017e366004611047565b61035b565b61012f610191366004611088565b610479565b61012f6101a4366004610fdb565b6104f6565b6101076101b7366004610fdb565b6001600160a01b031660009081526020819052604090205460ff1690565b61012f6101e3366004611100565b610629565b6101076101f6366004610fdb565b610819565b61020e610209366004611183565b61092a565b604051908152602001610113565b61012f61022a366004610fdb565b610957565b6000610107565b61012f610244366004611088565b610a1c565b61012f610257366004611047565b610a8f565b3360009081526020819052604090205460ff166102945760405162461bcd60e51b815260040161028b906111bc565b60405180910390fd5b6001600160a01b0381166102ea5760405162461bcd60e51b815260206004820152601f60248201527f696e76616c696420617267756d656e74202d207a65726f206164647265737300604482015260640161028b565b336001600160a01b038216146103125760405162461bcd60e51b815260040161028b906111f3565b6001600160a01b038116600081815260208190526040808220805460ff19169055517f408b49d9be1c914c52a0227e18a077e5a892dddf32a26cfa94a5d9708fad77189190a250565b3360009081526020819052604090205460ff1661038a5760405162461bcd60e51b815260040161028b906111bc565b60006103963385610bce565b905060006103a43385610bce565b3360009081526003602090815260408083206001600160a01b03851684529091528120805492935085929091906103dc90849061124a565b90915550503360009081526003602090815260408083206001600160a01b03861684529091528120805485929061041490849061125d565b90915550506002543360008181526003602090815260408083206001600160a01b038716845290915290205461044a9190610d54565b11156104725760405163bc37982360e01b81523360048201526024810184905260440161028b565b5050505050565b3360009081526020819052604090205460ff166104a85760405162461bcd60e51b815260040161028b906111bc565b60006104b43384610bce565b3360009081526003602090815260408083206001600160a01b03851684529091528120805492935084929091906104ec90849061125d565b9091555050505050565b6001600160a01b03811661054c5760405162461bcd60e51b815260206004820152601f60248201527f696e76616c696420617267756d656e74202d207a65726f206164647265737300604482015260640161028b565b6001600160a01b03811660009081526020819052604090205460ff16156105b55760405162461bcd60e51b815260206004820152601860248201527f636f6d706c69616e636520616c726561647920626f756e640000000000000000604482015260640161028b565b336001600160a01b038216146105dd5760405162461bcd60e51b815260040161028b906111f3565b6001600160a01b038116600081815260208190526040808220805460ff19166001179055517f1f7b76c58fb697eb53c6c7c1becb96911516a136e24d7ced386b2355358b75a39190a250565b828015806106375750808214155b1561065f57858585858560405163355c2bfd60e11b815260040161028b959493929190611270565b336001600160a01b0316866001600160a01b0316638da5cb5b6040518163ffffffff1660e01b8152600401602060405180830381865afa1580156106a7573d6000803e3d6000fd5b505050506040513d601f19601f820116820180604052508101906106cb91906112ff565b6001600160a01b0316146106fd5760405163e8649dab60e01b81526001600160a01b038716600482015260240161028b565b60405163a446d49f60e01b81523060048201526001600160a01b0387169063a446d49f90602401602060405180830381865afa158015610741573d6000803e3d6000fd5b505050506040513d601f19601f82011682018060405250810190610765919061131c565b1561078e5760405163346a0c0160e21b81526001600160a01b038716600482015260240161028b565b60005b818110156107ea576107e2878787848181106107af576107af61133e565b90506020020160208101906107c49190610fdb565b8686858181106107d6576107d661133e565b90506020020135610e4b565b600101610791565b5050506001600160a01b039093166000908152600160208190526040909120805460ff19169091179055505050565b6001600160a01b03811660009081526001602052604081205460ff161561084257506001919050565b6000826001600160a01b0316636a3edf286040518163ffffffff1660e01b8152600401602060405180830381865afa158015610882573d6000803e3d6000fd5b505050506040513d601f19601f820116820180604052508101906108a691906112ff565b90506000816001600160a01b03166318160ddd6040518163ffffffff1660e01b8152600401602060405180830381865afa1580156108e8573d6000803e3d6000fd5b505050506040513d601f19601f8201168201806040525081019061090c9190611354565b905080600003610920575060019392505050565b5060009392505050565b6001600160a01b038083166000908152600360209081526040808320938516835292905220545b92915050565b336001600160a01b0316816001600160a01b0316638da5cb5b6040518163ffffffff1660e01b8152600401602060405180830381865afa15801561099f573d6000803e3d6000fd5b505050506040513d601f19601f820116820180604052508101906109c391906112ff565b6001600160a01b0316146109f55760405163e8649dab60e01b81526001600160a01b038216600482015260240161028b565b6001600160a01b03166000908152600160208190526040909120805460ff19169091179055565b3360009081526020819052604090205460ff16610a4b5760405162461bcd60e51b815260040161028b906111bc565b6000610a573384610bce565b3360009081526003602090815260408083206001600160a01b03851684529091528120805492935084929091906104ec90849061124a565b336001600160a01b0316836001600160a01b0316638da5cb5b6040518163ffffffff1660e01b8152600401602060405180830381865afa158015610ad7573d6000803e3d6000fd5b505050506040513d601f19601f82011682018060405250810190610afb91906112ff565b6001600160a01b031614610b2d5760405163e8649dab60e01b81526001600160a01b038416600482015260240161028b565b60405163a446d49f60e01b81523060048201526001600160a01b0384169063a446d49f90602401602060405180830381865afa158015610b71573d6000803e3d6000fd5b505050506040513d601f19601f82011682018060405250810190610b95919061131c565b15610bbe5760405163346a0c0160e21b81526001600160a01b038416600482015260240161028b565b610bc9838383610e4b565b505050565b600080836001600160a01b0316636a3edf286040518163ffffffff1660e01b8152600401602060405180830381865afa158015610c0f573d6000803e3d6000fd5b505050506040513d601f19601f82011682018060405250810190610c3391906112ff565b6001600160a01b031663134e18f46040518163ffffffff1660e01b8152600401602060405180830381865afa158015610c70573d6000803e3d6000fd5b505050506040513d601f19601f82011682018060405250810190610c9491906112ff565b604051633c3ad79560e21b81526001600160a01b038581166004830152919091169063f0eb5e5490602401602060405180830381865afa158015610cdc573d6000803e3d6000fd5b505050506040513d601f19601f82011682018060405250810190610d0091906112ff565b90506001600160a01b038116610d4d5760405162461bcd60e51b81526020600482015260126024820152711a59195b9d1a5d1e481b9bdd08199bdd5b9960721b604482015260640161028b565b9392505050565b600080836001600160a01b0316636a3edf286040518163ffffffff1660e01b8152600401602060405180830381865afa158015610d95573d6000803e3d6000fd5b505050506040513d601f19601f82011682018060405250810190610db991906112ff565b90506000816001600160a01b03166318160ddd6040518163ffffffff1660e01b8152600401602060405180830381865afa158015610dfb573d6000803e3d6000fd5b505050506040513d601f19601f82011682018060405250810190610e1f9190611354565b90506127108115610e3f57610e35858284610eac565b9350505050610951565b60009350505050610951565b6001600160a01b0383811660008181526003602090815260408083209487168084529482529182902085905590518481527f0a777417e1c0a4b24c5f556b0c3dd522c37b99b2c3ca4bf9fea2fa1293c660c9910160405180910390a3505050565b6000838302816000198587098281108382030391505080600003610ee357838281610ed957610ed961136d565b0492505050610d4d565b808411610f035760405163227bc15360e01b815260040160405180910390fd5b6000848688096000868103871696879004966002600389028118808a02820302808a02820302808a02820302808a02820302808a02820302808a02909103029181900381900460010186841190950394909402919094039290920491909117919091029150509392505050565b6001600160a01b0381168114610f8557600080fd5b50565b60008060008060808587031215610f9e57600080fd5b8435610fa981610f70565b93506020850135610fb981610f70565b9250604085013591506060850135610fd081610f70565b939692955090935050565b600060208284031215610fed57600080fd5b8135610d4d81610f70565b60006020808352835180602085015260005b818110156110265785810183015185820160400152820161100a565b506000604082860101526040601f19601f8301168501019250505092915050565b60008060006060848603121561105c57600080fd5b833561106781610f70565b9250602084013561107781610f70565b929592945050506040919091013590565b6000806040838503121561109b57600080fd5b82356110a681610f70565b946020939093013593505050565b60008083601f8401126110c657600080fd5b50813567ffffffffffffffff8111156110de57600080fd5b6020830191508360208260051b85010111156110f957600080fd5b9250929050565b60008060008060006060868803121561111857600080fd5b853561112381610f70565b9450602086013567ffffffffffffffff8082111561114057600080fd5b61114c89838a016110b4565b9096509450604088013591508082111561116557600080fd5b50611172888289016110b4565b969995985093965092949392505050565b6000806040838503121561119657600080fd5b82356111a181610f70565b915060208301356111b181610f70565b809150509250929050565b6020808252601e908201527f6f6e6c7920626f756e6420636f6d706c69616e63652063616e2063616c6c0000604082015260600190565b60208082526021908201527f6f6e6c7920636f6d706c69616e636520636f6e74726163742063616e2063616c6040820152601b60fa1b606082015260800190565b634e487b7160e01b600052601160045260246000fd5b8082018082111561095157610951611234565b8181038181111561095157610951611234565b6001600160a01b03868116825260606020808401829052908301869052600091879160808501845b898110156112bf5784356112ab81610f70565b841682529382019390820190600101611298565b5085810360408701528681526001600160fb1b038711156112df57600080fd5b8660051b9350838860208301379092016020019998505050505050505050565b60006020828403121561131157600080fd5b8151610d4d81610f70565b60006020828403121561132e57600080fd5b81518015158114610d4d57600080fd5b634e487b7160e01b600052603260045260246000fd5b60006020828403121561136657600080fd5b5051919050565b634e487b7160e01b600052601260045260246000fdfea264697066735822122065544b592eb4f533e882eba8a1745d70cf366ccb2390e539ff96344e8889280064736f6c63430008180033",
  "linkReferences": {},
  "deployedLinkReferences": {}
}