{
  "_format": "hh-sol-artifact-1",
  "contractName": "ModularCompliance",
  "sourceName": "contracts/erc3643/compliance/modular/ModularCompliance.sol",
  "abi": [
    {
      "inputs": [],
      "name": "InvalidInitialization",
      "type": "error"
    },
    {
      "inputs": [],
      "name": "NotInitializing",
      "type": "error"
    },
    {
      "inputs": [
        {
          "internalType": "address",
          "name": "owner",
          "type": "address"
        }
      ],
      "name": "OwnableInvalidOwner",
      "type": "error"
    },
    {
      "inputs": [
        {
          "internalType": "address",
          "name": "account",
          "type": "address"
        }
      ],
      "name": "OwnableUnauthorizedAccount",
      "type": "error"
    },
    {
      "anonymous": false,
      "inputs": [
        {
          "indexed": false,
          "internalType": "uint64",
          "name": "version",
          "type": "uint64"
        }
      ],
      "name": "Initialized",
      "type": "event"
    },
    {
      "anonymous": false,
      "inputs": [
        {
          "indexed": true,
          "internalType": "address",
          "name": "_module",
          "type": "address"
        }
      ],
      "name": "ModuleAdded",
      "type": "event"
    },
    {
      "anonymous": false,
      "inputs": [
        {
          "indexed": true,
          "internalType": "address",
          "name": "target",
          "type": "address"
        },
        {
          "indexed": false,
          "internalType": "bytes4",
          "name": "selector",
          "type": "bytes4"
        }
      ],
      "name": "ModuleInteraction",
      "type": "event"
    },
    {
      "anonymous": false,
      "inputs": [
        {
          "indexed": true,
          "internalType": "address",
          "name": "_module",
          "type": "address"
        }
      ],
      "name": "ModuleRemoved",
      "type": "event"
    },
    {
      "anonymous": false,
      "inputs": [
        {
          "indexed": true,
          "internalType": "address",
          "name": "previousOwner",
          "type": "address"
        },
        {
          "indexed": true,
          "internalType": "address",
          "name": "newOwner",
          "type": "address"
        }
      ],
      "name": "OwnershipTransferred",
      "type": "event"
    },
    {
      "anonymous": false,
      "inputs": [
        {
          "indexed": false,
          "internalType": "address",
          "name": "_token",
          "type": "address"
        }
      ],
      "name": "TokenBound",
      "type": "event"
    },
    {
      "anonymous": false,
      "inputs": [
        {
          "indexed": false,
          "internalType": "address",
          "name": "_token",
          "type": "address"
        }
      ],
      "name": "TokenUnbound",
      "type": "event"
    },
    {
      "inputs": [
        {
          "internalType": "address",
          "name": "_module",
          "type": "address"
        }
      ],
      "name": "addModule",
      "outputs": [],
      "stateMutability": "nonpayable",
      "type": "function"
    },
    {
      "inputs": [
        {
          "internalType": "address",
          "name": "_token",
          "type": "address"
        }
      ],
      "name": "bindToken",
      "outputs": [],
      "stateMutability": "nonpayable",
      "type": "function"
    },
    {
      "inputs": [
        {
          "internalType": "bytes",
          "name": "callData",
          "type": "bytes"
        },
        {
          "internalType": "address",
          "name": "_module",
          "type": "address"
        }
      ],
      "name": "callModuleFunction",
      "outputs": [],
      "stateMutability": "nonpayable",
      "type": "function"
    },
    {
      "inputs": [
        {
          "internalType": "address",
          "name": "_from",
          "type": "address"
        },
        {
          "internalType": "address",
          "name": "_to",
          "type": "address"
        },
        {
          "internalType": "uint256",
          "name": "_value",
          "type": "uint256"
        }
      ],
      "name": "canTransfer",
      "outputs": [
        {
          "internalType": "bool",
          "name": "",
          "type": "bool"
        }
      ],
      "stateMutability": "view",
      "type": "function"
    },
    {
      "inputs": [
        {
          "internalType": "address",
          "name": "_to",
          "type": "address"
        },
        {
          "internalType": "uint256",
          "name": "_value",
          "type": "uint256"
        }
      ],
      "name": "created",
      "outputs": [],
      "stateMutability": "nonpayable",
      "type": "function"
    },
    {
      "inputs": [
        {
          "internalType": "address",
          "name": "_from",
          "type": "address"
        },
        {
          "internalType": "uint256",
          "name": "_value",
          "type": "uint256"
        }
      ],
      "name": "destroyed",
      "outputs": [],
      "stateMutability": "nonpayable",
      "type": "function"
    },
    {
      "inputs": [],
      "name": "getModules",
      "outputs": [
        {
          "internalType": "address[]",
          "name": "",
          "type": "address[]"
        }
      ],
      "stateMutability": "view",
      "type": "function"
    },
    {
      "inputs": [],
      "name": "getTokenBound",
      "outputs": [
        {
          "internalType": "address",
          "name": "",
          "type": "address"
        }
      ],
      "stateMutability": "view",
      "type": "function"
    },
    {
      "inputs": [],
      "name": "init",
      "outputs": [],
      "stateMutability": "nonpayable",
      "type": "function"
    },
    {
      "inputs": [
        {
          "internalType": "address",
          "name": "_module",
          "type": "address"
        }
      ],
      "name": "isModuleBound",
      "outputs": [
        {
          "internalType": "bool",
          "name": "",
          "type": "bool"
        }
      ],
      "stateMutability": "view",
      "type": "function"
    },
    {
      "inputs": [],
      "name": "owner",
      "outputs": [
        {
          "internalType": "address",
          "name": "",
          "type": "address"
        }
      ],
      "stateMutability": "view",
      "type": "function"
    },
    {
      "inputs": [
        {
          "internalType": "address",
          "name": "_module",
          "type": "address"
        }
      ],
      "name": "removeModule",
      "outputs": [],
      "stateMutability": "nonpayable",
      "type": "function"
    },
    {
      "inputs": [],
      "name": "renounceOwnership",
      "outputs": [],
      "stateMutability": "nonpayable",
      "type": "function"
    },
    {
      "inputs": [
        {
          "internalType": "address",
          "name": "newOwner",
          "type": "address"
        }
      ],
      "name": "transferOwnership",
      "outputs": [],
      "stateMutability": "nonpayable",
      "type": "function"
    },
    {
      "inputs": [
        {
          "internalType": "address",
          "name": "_from",
          "type": "address"
        },
        {
          "internalType": "address",
          "name": "_to",
          "type": "address"
        },
        {
          "internalType": "uint256",
          "name": "_value",
          "type": "uint256"
        }
      ],
      "name": "transferred",
      "outputs": [],
      "stateMutability": "nonpayable",
      "type": "function"
    },
    {
      "inputs": [
        {
          "internalType": "address",
          "name": "_token",
          "type": "address"
        }
      ],
      "name": "unbindToken",
      "outputs": [],
      "stateMutability": "nonpayable",
      "type": "function"
    }
  ],
  "bytecode": "0x608060405234801561001057600080fd5b506114ef806100206000396000f3fe608060405234801561001057600080fd5b50600436106100e05760003560e01c80638da5cb5b116100875780638da5cb5b14610184578063a06324611461018c578063a446d49f1461019f578063b2494df3146101db578063e1c7392a146101f0578063e46638e6146101f8578063efb22d331461020b578063f2fde38b1461021e57600080fd5b80631ed86f19146100e55780633ff5aa02146100fa57806340db3b501461010d5780635f8dead3146101205780636a3edf2814610133578063715018a6146101565780638baf29b41461015e5780638d2ea77214610171575b600080fd5b6100f86100f336600461120f565b610231565b005b6100f861010836600461120f565b610547565b6100f861011b36600461120f565b610619565b6100f861012e36600461122a565b610718565b6000546001600160a01b03165b60405161014d9190611254565b60405180910390f35b6100f861085a565b6100f861016c366004611268565b61086e565b6100f861017f36600461122a565b6109db565b610140610b17565b6100f861019a36600461120f565b610b45565b6101cb6101ad36600461120f565b6001600160a01b031660009081526002602052604090205460ff1690565b604051901515815260200161014d565b6101e3610d77565b60405161014d91906112a4565b6100f8610dd9565b6101cb610206366004611268565b610ee7565b6100f86102193660046112f1565b610fba565b6100f861022c36600461120f565b61109c565b6102396110da565b6001600160a01b0381166102685760405162461bcd60e51b815260040161025f90611372565b60405180910390fd5b6001600160a01b03811660009081526002602052604090205460ff16156102c85760405162461bcd60e51b81526020600482015260146024820152731b5bd91d5b1948185b1c9958591e48189bdd5b9960621b604482015260640161025f565b6001546018101561031b5760405162461bcd60e51b815260206004820152601f60248201527f63616e6e6f7420616464206d6f7265207468616e203235206d6f64756c657300604482015260640161025f565b6000819050806001600160a01b031663e6f5e8076040518163ffffffff1660e01b8152600401602060405180830381865afa15801561035e573d6000803e3d6000fd5b505050506040513d601f19601f8201168201806040525081019061038291906113a9565b61045c5760405163bcc2105360e01b81526001600160a01b0382169063bcc21053906103b2903090600401611254565b602060405180830381865afa1580156103cf573d6000803e3d6000fd5b505050506040513d601f19601f820116820180604052508101906103f391906113a9565b61045c5760405162461bcd60e51b815260206004820152603460248201527f636f6d706c69616e6365206973206e6f74207375697461626c6520666f722062604482015273696e64696e6720746f20746865206d6f64756c6560601b606482015260840161025f565b6040516312a4c95160e21b81526001600160a01b03821690634a93254490610488903090600401611254565b600060405180830381600087803b1580156104a257600080fd5b505af11580156104b6573d6000803e3d6000fd5b50506001805480820182557fb10e2d527612073b26eecdfd717e6a320cf44b4afac2b0732d9fcbe2b7fa0cf60180546001600160a01b0319166001600160a01b038716908117909155600081815260026020526040808220805460ff191690941790935591519093507fead6a006345da1073a106d5f32372d2d2204f46cb0b4bca8f5ebafcbbed12b8a9250a25050565b33610550610b17565b6001600160a01b0316148061058157506000546001600160a01b03161580156105815750336001600160a01b038216145b61059d5760405162461bcd60e51b815260040161025f906113cb565b6001600160a01b0381166105c35760405162461bcd60e51b815260040161025f90611372565b600080546001600160a01b0319166001600160a01b0383161790556040517f2de35142b19ed5a07796cf30791959c592018f70b1d2d7c460eef8ffe713692b9061060e908390611254565b60405180910390a150565b33610622610b17565b6001600160a01b0316148061063f5750336001600160a01b038216145b61065b5760405162461bcd60e51b815260040161025f906113cb565b6000546001600160a01b038281169116146106b25760405162461bcd60e51b8152602060048201526017602482015276151a1a5cc81d1bdad95b881a5cc81b9bdd08189bdd5b99604a1b604482015260640161025f565b6001600160a01b0381166106d85760405162461bcd60e51b815260040161025f90611372565b600080546001600160a01b03191690556040517f28a4ca7134a3b3f9aff286e79ad3daadb4a06d1b43d037a3a98bdc074edd9b7a9061060e908390611254565b6000546001600160a01b031633146107425760405162461bcd60e51b815260040161025f90611402565b6001600160a01b0382166107685760405162461bcd60e51b815260040161025f90611372565b600081116107b85760405162461bcd60e51b815260206004820181905260248201527f696e76616c696420617267756d656e74202d206e6f2076616c7565206d696e74604482015260640161025f565b60015460005b8181101561085457600181815481106107d9576107d961146c565b60009182526020909120015460405163f104a8c960e01b81526001600160a01b038681166004830152602482018690529091169063f104a8c990604401600060405180830381600087803b15801561083057600080fd5b505af1158015610844573d6000803e3d6000fd5b5050600190920191506107be9050565b50505050565b6108626110da565b61086c600061110c565b565b6000546001600160a01b031633146108985760405162461bcd60e51b815260040161025f90611402565b6001600160a01b038316158015906108b857506001600160a01b03821615155b6108d45760405162461bcd60e51b815260040161025f90611372565b600081116109305760405162461bcd60e51b8152602060048201526024808201527f696e76616c696420617267756d656e74202d206e6f2076616c7565207472616e60448201526339b332b960e11b606482015260840161025f565b60015460005b818110156109d457600181815481106109515761095161146c565b600091825260209091200154604051630b2df87b60e21b81526001600160a01b03878116600483015286811660248301526044820186905290911690632cb7e1ec90606401600060405180830381600087803b1580156109b057600080fd5b505af11580156109c4573d6000803e3d6000fd5b5050600190920191506109369050565b5050505050565b6000546001600160a01b03163314610a055760405162461bcd60e51b815260040161025f90611402565b6001600160a01b038216610a2b5760405162461bcd60e51b815260040161025f90611372565b60008111610a7b5760405162461bcd60e51b815260206004820181905260248201527f696e76616c696420617267756d656e74202d206e6f2076616c7565206275726e604482015260640161025f565b60015460005b818110156108545760018181548110610a9c57610a9c61146c565b600091825260209091200154604051631b9248d160e11b81526001600160a01b038681166004830152602482018690529091169063372491a290604401600060405180830381600087803b158015610af357600080fd5b505af1158015610b07573d6000803e3d6000fd5b505060019092019150610a819050565b7f9016d09d72d40fdae2fd8ceac6b6234c7706214fd39c1cd1e609a0528c199300546001600160a01b031690565b610b4d6110da565b6001600160a01b038116610b735760405162461bcd60e51b815260040161025f90611372565b6001600160a01b03811660009081526002602052604090205460ff16610bce5760405162461bcd60e51b815260206004820152601060248201526f1b5bd91d5b19481b9bdd08189bdd5b9960821b604482015260640161025f565b60015460005b81811015610d7257826001600160a01b031660018281548110610bf957610bf961146c565b6000918252602090912001546001600160a01b031603610d6a57604051630694a5fb60e01b81526001600160a01b03841690630694a5fb90610c3f903090600401611254565b600060405180830381600087803b158015610c5957600080fd5b505af1158015610c6d573d6000803e3d6000fd5b5050505060018083610c7f9190611482565b81548110610c8f57610c8f61146c565b600091825260209091200154600180546001600160a01b039092169183908110610cbb57610cbb61146c565b9060005260206000200160006101000a8154816001600160a01b0302191690836001600160a01b031602179055506001805480610cfa57610cfa6114a3565b60008281526020808220830160001990810180546001600160a01b03191690559092019092556001600160a01b03851680835260029091526040808320805460ff191690555190917f0a1ee69f55c33d8467c69ca59ce2007a737a88603d75392972520bf67cb513b891a2505050565b600101610bd4565b505050565b60606001805480602002602001604051908101604052809291908181526020018280548015610dcf57602002820191906000526020600020905b81546001600160a01b03168152600190910190602001808311610db1575b5050505050905090565b7ff0c57e16840df040f15088dc2f81fe391c3923bec73e23a9662efc9c229c6a008054600160401b810460ff16159067ffffffffffffffff16600081158015610e1f5750825b905060008267ffffffffffffffff166001148015610e3c5750303b155b905081158015610e4a575080155b15610e685760405163f92ee8a960e01b815260040160405180910390fd5b845467ffffffffffffffff191660011785558315610e9257845460ff60401b1916600160401b1785555b610e9b3361117d565b83156109d457845460ff60401b19168555604051600181527fc7f505b2f371ae2175ee4913f4499e1f2633a7b5936321eed1cdaeb6115181d29060200160405180910390a15050505050565b600154600090815b81811015610fac5760018181548110610f0a57610f0a61146c565b600091825260209091200154604051624edf3960e21b81526001600160a01b0388811660048301528781166024830152604482018790523060648301529091169063013b7ce490608401602060405180830381865afa158015610f71573d6000803e3d6000fd5b505050506040513d601f19601f82011682018060405250810190610f9591906113a9565b610fa457600092505050610fb3565b600101610eef565b5060019150505b9392505050565b610fc26110da565b6001600160a01b03811660009081526002602052604090205460ff166110265760405162461bcd60e51b815260206004820152601960248201527863616c6c206f6e6c79206f6e20626f756e64206d6f64756c6560381b604482015260640161025f565b6040518284823760008084836000865af1611045573d6000803e3d6000fd5b50806001600160a01b03167f20d79de70adcc6e9353d8a9a5646b46dc352710d0a310b1ad1f67faeca7ef89161107b858561118e565b6040516001600160e01b0319909116815260200160405180910390a2505050565b6110a46110da565b6001600160a01b0381166110ce576000604051631e4fbdf760e01b815260040161025f9190611254565b6110d78161110c565b50565b336110e3610b17565b6001600160a01b03161461086c573360405163118cdaa760e01b815260040161025f9190611254565b7f9016d09d72d40fdae2fd8ceac6b6234c7706214fd39c1cd1e609a0528c19930080546001600160a01b031981166001600160a01b03848116918217845560405192169182907f8be0079c531659141344cd1fd0a4f28419497f9722a3daafe3b4186f6b6457e090600090a3505050565b6111856111a2565b6110d7816111eb565b60006004821061119c575081355b92915050565b7ff0c57e16840df040f15088dc2f81fe391c3923bec73e23a9662efc9c229c6a0054600160401b900460ff1661086c57604051631afcd79f60e31b815260040160405180910390fd5b6110a46111a2565b80356001600160a01b038116811461120a57600080fd5b919050565b60006020828403121561122157600080fd5b610fb3826111f3565b6000806040838503121561123d57600080fd5b611246836111f3565b946020939093013593505050565b6001600160a01b0391909116815260200190565b60008060006060848603121561127d57600080fd5b611286846111f3565b9250611294602085016111f3565b9150604084013590509250925092565b6020808252825182820181905260009190848201906040850190845b818110156112e55783516001600160a01b0316835292840192918401916001016112c0565b50909695505050505050565b60008060006040848603121561130657600080fd5b833567ffffffffffffffff8082111561131e57600080fd5b818601915086601f83011261133257600080fd5b81358181111561134157600080fd5b87602082850101111561135357600080fd5b60209283019550935061136991860190506111f3565b90509250925092565b6020808252601f908201527f696e76616c696420617267756d656e74202d207a65726f206164647265737300604082015260600190565b6000602082840312156113bb57600080fd5b81518015158114610fb357600080fd5b6020808252601c908201527f6f6e6c79206f776e6572206f7220746f6b656e2063616e2063616c6c00000000604082015260600190565b60208082526044908201527f6572726f72203a20746869732061646472657373206973206e6f74206120746f60408201527f6b656e20626f756e6420746f2074686520636f6d706c69616e636520636f6e746060820152631c9858dd60e21b608082015260a00190565b634e487b7160e01b600052603260045260246000fd5b8181038181111561119c57634e487b7160e01b600052601160045260246000fd5b634e487b7160e01b600052603160045260246000fdfea264697066735822122023a3e2538ff5935267b4377004f1e2cf8c7e97e161d273c246473215d13b451464736f6c63430008180033",
  "linkReferences": {},
  "deployedLinkReferences": {}
}