{
  "_format": "hh-sol-artifact-1",
  "contractName": "OneSidedExchange",
  "sourceName": "contracts/exchange/OneSidedExchange.sol",
  "abi": [
    {
      "inputs": [],
      "stateMutability": "nonpayable",
      "type": "constructor"
    },
    {
      "inputs": [
        {
          "internalType": "address",
          "name": "target",
          "type": "address"
        }
      ],
      "name": "AddressEmptyCode",
      "type": "error"
    },
    {
      "inputs": [
        {
          "internalType": "address",
          "name": "account",
          "type": "address"
        }
      ],
      "name": "AddressInsufficientBalance",
      "type": "error"
    },
    {
      "inputs": [],
      "name": "FailedInnerCall",
      "type": "error"
    },
    {
      "inputs": [
        {
          "internalType": "string",
          "name": "message",
          "type": "string"
        }
      ],
      "name": "InvalidAddress",
      "type": "error"
    },
    {
      "inputs": [
        {
          "internalType": "string",
          "name": "message",
          "type": "string"
        },
        {
          "internalType": "uint256",
          "name": "amount",
          "type": "uint256"
        }
      ],
      "name": "InvalidAmount",
      "type": "error"
    },
    {
      "inputs": [
        {
          "internalType": "string",
          "name": "message",
          "type": "string"
        }
      ],
      "name": "NoPriceExists",
      "type": "error"
    },
    {
      "inputs": [
        {
          "internalType": "address",
          "name": "owner",
          "type": "address"
        }
      ],
      "name": "OwnableInvalidOwner",
      "type": "error"
    },
    {
      "inputs": [
        {
          "internalType": "address",
          "name": "account",
          "type": "address"
        }
      ],
      "name": "OwnableUnauthorizedAccount",
      "type": "error"
    },
    {
      "inputs": [],
      "name": "ReentrancyGuardReentrantCall",
      "type": "error"
    },
    {
      "inputs": [
        {
          "internalType": "address",
          "name": "token",
          "type": "address"
        }
      ],
      "name": "SafeERC20FailedOperation",
      "type": "error"
    },
    {
      "anonymous": false,
      "inputs": [
        {
          "indexed": false,
          "internalType": "address",
          "name": "token",
          "type": "address"
        },
        {
          "indexed": false,
          "internalType": "uint256",
          "name": "amount",
          "type": "uint256"
        }
      ],
      "name": "Deposit",
      "type": "event"
    },
    {
      "anonymous": false,
      "inputs": [
        {
          "indexed": true,
          "internalType": "address",
          "name": "previousOwner",
          "type": "address"
        },
        {
          "indexed": true,
          "internalType": "address",
          "name": "newOwner",
          "type": "address"
        }
      ],
      "name": "OwnershipTransferred",
      "type": "event"
    },
    {
      "anonymous": false,
      "inputs": [
        {
          "indexed": true,
          "internalType": "address",
          "name": "trader",
          "type": "address"
        },
        {
          "indexed": false,
          "internalType": "address",
          "name": "tokenA",
          "type": "address"
        },
        {
          "indexed": false,
          "internalType": "address",
          "name": "tokenB",
          "type": "address"
        },
        {
          "indexed": false,
          "internalType": "uint256",
          "name": "tokenAAmount",
          "type": "uint256"
        },
        {
          "indexed": false,
          "internalType": "uint256",
          "name": "tokenBAmount",
          "type": "uint256"
        }
      ],
      "name": "SwapSuccess",
      "type": "event"
    },
    {
      "anonymous": false,
      "inputs": [
        {
          "indexed": false,
          "internalType": "address",
          "name": "token",
          "type": "address"
        },
        {
          "indexed": false,
          "internalType": "uint256",
          "name": "amount",
          "type": "uint256"
        }
      ],
      "name": "Withdraw",
      "type": "event"
    },
    {
      "inputs": [
        {
          "internalType": "address",
          "name": "token",
          "type": "address"
        },
        {
          "internalType": "uint256",
          "name": "amount",
          "type": "uint256"
        }
      ],
      "name": "deposit",
      "outputs": [],
      "stateMutability": "nonpayable",
      "type": "function"
    },
    {
      "inputs": [
        {
          "internalType": "address",
          "name": "tokenA",
          "type": "address"
        },
        {
          "internalType": "address",
          "name": "tokenB",
          "type": "address"
        },
        {
          "internalType": "uint256",
          "name": "amount",
          "type": "uint256"
        }
      ],
      "name": "estimateTokenReturns",
      "outputs": [
        {
          "internalType": "uint256",
          "name": "tokenAAmount",
          "type": "uint256"
        },
        {
          "internalType": "uint256",
          "name": "tokenBAmount",
          "type": "uint256"
        }
      ],
      "stateMutability": "view",
      "type": "function"
    },
    {
      "inputs": [],
      "name": "owner",
      "outputs": [
        {
          "internalType": "address",
          "name": "",
          "type": "address"
        }
      ],
      "stateMutability": "view",
      "type": "function"
    },
    {
      "inputs": [],
      "name": "renounceOwnership",
      "outputs": [],
      "stateMutability": "nonpayable",
      "type": "function"
    },
    {
      "inputs": [
        {
          "internalType": "address",
          "name": "token",
          "type": "address"
        },
        {
          "internalType": "uint256",
          "name": "amount",
          "type": "uint256"
        },
        {
          "internalType": "uint256",
          "name": "interval",
          "type": "uint256"
        }
      ],
      "name": "setBuyPrice",
      "outputs": [],
      "stateMutability": "nonpayable",
      "type": "function"
    },
    {
      "inputs": [
        {
          "internalType": "address",
          "name": "token",
          "type": "address"
        },
        {
          "internalType": "uint256",
          "name": "amount",
          "type": "uint256"
        },
        {
          "internalType": "uint256",
          "name": "interval",
          "type": "uint256"
        }
      ],
      "name": "setSellPrice",
      "outputs": [],
      "stateMutability": "nonpayable",
      "type": "function"
    },
    {
      "inputs": [
        {
          "internalType": "address",
          "name": "token",
          "type": "address"
        },
        {
          "internalType": "uint256",
          "name": "maxSellAmount",
          "type": "uint256"
        },
        {
          "internalType": "uint256",
          "name": "maxBuyAmount",
          "type": "uint256"
        },
        {
          "internalType": "uint256",
          "name": "interval",
          "type": "uint256"
        }
      ],
      "name": "setThreshold",
      "outputs": [],
      "stateMutability": "nonpayable",
      "type": "function"
    },
    {
      "inputs": [
        {
          "internalType": "address",
          "name": "tokenA",
          "type": "address"
        },
        {
          "internalType": "address",
          "name": "tokenB",
          "type": "address"
        },
        {
          "internalType": "uint256",
          "name": "amount",
          "type": "uint256"
        }
      ],
      "name": "swap",
      "outputs": [],
      "stateMutability": "nonpayable",
      "type": "function"
    },
    {
      "inputs": [
        {
          "internalType": "address",
          "name": "newOwner",
          "type": "address"
        }
      ],
      "name": "transferOwnership",
      "outputs": [],
      "stateMutability": "nonpayable",
      "type": "function"
    },
    {
      "inputs": [
        {
          "internalType": "address",
          "name": "token",
          "type": "address"
        },
        {
          "internalType": "uint256",
          "name": "amount",
          "type": "uint256"
        }
      ],
      "name": "withdraw",
      "outputs": [],
      "stateMutability": "nonpayable",
      "type": "function"
    }
  ],
  "bytecode": "0x608060405234801561001057600080fd5b506001600055338061003c57604051631e4fbdf760e01b81526000600482015260240160405180910390fd5b6100458161004b565b5061009d565b600180546001600160a01b038381166001600160a01b0319831681179093556040519116919082907f8be0079c531659141344cd1fd0a4f28419497f9722a3daafe3b4186f6b6457e090600090a35050565b61164a806100ac6000396000f3fe608060405234801561001057600080fd5b506004361061009e5760003560e01c8063798bac8d11610066578063798bac8d146101135780638da5cb5b14610126578063df791e501461013f578063f2fde38b14610152578063f3fef3a31461016557600080fd5b80631d6a054e146100a35780632c0163a9146100b857806332647920146100e557806347e7ef24146100f8578063715018a61461010b575b600080fd5b6100b66100b1366004611292565b610178565b005b6100cb6100c63660046112cb565b6102e6565b604080519283526020830191909152015b60405180910390f35b6100b66100f3366004611307565b61064a565b6100b661010636600461133a565b6106da565b6100b661079c565b6100b6610121366004611307565b6107b0565b6001546001600160a01b03166040516100dc9190611364565b6100b661014d3660046112cb565b610840565b6100b6610160366004611378565b6108da565b6100b661017336600461133a565b610918565b610180610a54565b836001600160a01b0381166101b157604051630b0f5aa160e11b81526004016101a890611393565b60405180910390fd5b83806000036101d55780604051631533de4360e01b81526004016101a891906113ca565b83806000036101f95780604051631533de4360e01b81526004016101a891906113ca565b6000876001600160a01b031663313ce5676040518163ffffffff1660e01b8152600401602060405180830381865afa158015610239573d6000803e3d6000fd5b505050506040513d601f19601f8201168201806040525081019061025d9190611409565b60ff169050604051806060016040528082600a61027a9190611526565b610284908a611532565b815260200161029483600a611526565b61029e9089611532565b81526020908101969096526001600160a01b03909816600090815260048652604090819020895181559589015160018701559790970151600290940193909355505050505050565b600080846001600160a01b03811661031157604051630b0f5aa160e11b81526004016101a890611393565b846001600160a01b03811661033957604051630b0f5aa160e11b81526004016101a890611393565b848060000361035d5780604051631533de4360e01b81526004016101a891906113ca565b6001600160a01b038716600090815260026020526040902060010154158061039e57506001600160a01b038816600090815260036020526040902060010154155b156103f85760405163ae07426d60e01b8152602060048201526024808201527f53656c6c206f722062757920707269636520666f722070616972206e6f7420666044820152631bdd5b9960e21b60648201526084016101a8565b6001600160a01b03871660009081526002602052604090206001015442108061043b57506001600160a01b03881660009081526003602052604090206001015442105b156104995760405163ae07426d60e01b815260206004820152602760248201527f53656c6c206f722062757920707269636520666f722070616972206973206e6f6044820152661d081d985b1a5960ca1b60648201526084016101a8565b6001600160a01b0388166000908152600360205260408120546104bc9088611532565b6001600160a01b03808a16600090815260026020908152604080832054938e1683526003909152812054929350916104f49084611532565b6104fe9190611549565b905060008a6001600160a01b031663313ce5676040518163ffffffff1660e01b8152600401602060405180830381865afa158015610540573d6000803e3d6000fd5b505050506040513d601f19601f820116820180604052508101906105649190611409565b60ff16905060008a6001600160a01b031663313ce5676040518163ffffffff1660e01b8152600401602060405180830381865afa1580156105a9573d6000803e3d6000fd5b505050506040513d601f19601f820116820180604052508101906105cd9190611409565b60ff16905080821461063757818111156106135760006105ed838361156b565b9050846105fb82600a611526565b6106059086611532565b99509950505050505061063f565b600061061f828461156b565b90508461062d82600a611526565b6106059086611549565b509196509450505b505050935093915050565b610652610a54565b826001600160a01b03811661067a57604051630b0f5aa160e11b81526004016101a890611393565b828060000361069e5780604051631533de4360e01b81526004016101a891906113ca565b505060408051808201825292835260208084019283526001600160a01b0390941660009081526003909452909220905181559051600190910155565b6106e2610a81565b6106ea610a54565b816001600160a01b03811661071257604051630b0f5aa160e11b81526004016101a890611393565b81806000036107365780604051631533de4360e01b81526004016101a891906113ca565b826000036107815760408051631533de4360e01b81526004810191909152600e60448201526d125b9d985b1a5908185b5bdd5b9d60921b6064820152602481018490526084016101a8565b61078c338585610aab565b50506107986001600055565b5050565b6107a4610a54565b6107ae6000610afe565b565b6107b8610a54565b826001600160a01b0381166107e057604051630b0f5aa160e11b81526004016101a890611393565b82806000036108045780604051631533de4360e01b81526004016101a891906113ca565b505060408051808201825292835260208084019283526001600160a01b0390941660009081526002909452909220905181559051600190910155565b610848610a81565b826001600160a01b03811661087057604051630b0f5aa160e11b81526004016101a890611393565b826001600160a01b03811661089857604051630b0f5aa160e11b81526004016101a890611393565b82806000036108bc5780604051631533de4360e01b81526004016101a891906113ca565b6108c833878787610b50565b5050506108d56001600055565b505050565b6108e2610a54565b6001600160a01b03811661090c576000604051631e4fbdf760e01b81526004016101a89190611364565b61091581610afe565b50565b610920610a81565b610928610a54565b816001600160a01b03811661095057604051630b0f5aa160e11b81526004016101a890611393565b81806000036109745780604051631533de4360e01b81526004016101a891906113ca565b6040516370a0823160e01b815283906001600160a01b038616906370a08231906109a2903090600401611364565b602060405180830381865afa1580156109bf573d6000803e3d6000fd5b505050506040513d601f19601f820116820180604052508101906109e3919061157e565b1015610a4a5760408051631533de4360e01b81526004810191909152602660448201527f4e6f7420656e6f7567687420746f6b656e732062616c616e636520746f20776960648201526574686472617760d01b60848201526024810184905260a4016101a8565b61078c8484610c46565b6001546001600160a01b031633146107ae573360405163118cdaa760e01b81526004016101a89190611364565b600260005403610aa457604051633ee5aeb560e01b815260040160405180910390fd5b6002600055565b610ac06001600160a01b038316843084610ca9565b7fe1fffcc4923d04b559f4d29a8bfc6cda04eb5b0d3c460751c2402c5c5cc9109c8282604051610af1929190611597565b60405180910390a1505050565b600180546001600160a01b038381166001600160a01b0319831681179093556040519116919082907f8be0079c531659141344cd1fd0a4f28419497f9722a3daafe3b4186f6b6457e090600090a35050565b600080610b5f85858589610d16565b9092509050610b796001600160a01b038616873085610ca9565b610b8d6001600160a01b03851687836110c4565b6001600160a01b03851660009081526006602052604081208054849290610bb59084906115b0565b90915550506001600160a01b03841660009081526005602052604081208054839290610be29084906115b0565b9091555050604080516001600160a01b038781168252868116602083015291810184905260608101839052908716907fa735fb6bfc88d40598b51c9b5d88dd545bcfc7404c6825d5cde5e1a82379394e9060800160405180910390a2505050505050565b610c6c610c5b6001546001600160a01b031690565b6001600160a01b03841690836110c4565b7f884edad9ce6fa2440d8a54cc123490eb96d2768479d49ff9c7366125a94243648282604051610c9d929190611597565b60405180910390a15050565b6040516001600160a01b038481166024830152838116604483015260648201839052610d109186918216906323b872dd906084015b604051602081830303815290604052915060e01b6020820180516001600160e01b0383818316178352505050506110ea565b50505050565b6001600160a01b038085166000908152600460208181526040808420815160608082018452825482526001808401548387015260029384015483860152978b16875294845282862083519586018452805486529687015493850193909352949094015493820193909352909182918280610d918a8a8a6102e6565b9150915060008a6001600160a01b03166370a08231896040518263ffffffff1660e01b8152600401610dc39190611364565b602060405180830381865afa158015610de0573d6000803e3d6000fd5b505050506040513d601f19601f82011682018060405250810190610e04919061157e565b905060008a6001600160a01b03166370a08231306040518263ffffffff1660e01b8152600401610e349190611364565b602060405180830381865afa158015610e51573d6000803e3d6000fd5b505050506040513d601f19601f82011682018060405250810190610e75919061157e565b905081841115610ecc5760408051631533de4360e01b815260048101919091526018604482015277139bc8195b9bdd59da081d1bdad95b9cc81d1bc81cd95b1b60421b6064820152602481018590526084016101a8565b80831115610f205760408051631533de4360e01b8152600481019190915260176044820152764e6f20656e6f75676820746f6b656e7320746f2062757960481b6064820152602481018490526084016101a8565b855115801590610f335750428660400151105b15610fe65785516001600160a01b038d16600090815260066020526040902054610f5e9086906115b0565b1115610fe6576001600160a01b038c16600090815260066020526040902054610f889085906115b0565b60408051631533de4360e01b81526004810191909152602260448201527f4d61782073656c6c20616d6f756e74206f6620746f6b656e7320657863656564606482015261195960f21b6084820152602481019190915260a4016101a8565b602085015115801590610ffc5750428560400151105b156110b3576020808601516001600160a01b038d166000908152600590925260409091205461102c9085906115b0565b11156110b3576001600160a01b038b166000908152600560205260409020546110569084906115b0565b60408051631533de4360e01b81526004810191909152602160448201527f4d61782062757920616d6f756e74206f6620746f6b656e7320657863656564656064820152601960fa1b6084820152602481019190915260a4016101a8565b50919a909950975050505050505050565b6108d583846001600160a01b031663a9059cbb8585604051602401610cde929190611597565b60006110ff6001600160a01b03841683611144565b9050805160001415801561112457508080602001905181019061112291906115c3565b155b156108d55782604051635274afe760e01b81526004016101a89190611364565b60606111528383600061115b565b90505b92915050565b606081471015611180573060405163cd78605960e01b81526004016101a89190611364565b600080856001600160a01b0316848660405161119c91906115e5565b60006040518083038185875af1925050503d80600081146111d9576040519150601f19603f3d011682016040523d82523d6000602084013e6111de565b606091505b50915091506111ee8683836111fa565b925050505b9392505050565b60608261120f5761120a8261124d565b6111f3565b815115801561122657506001600160a01b0384163b155b156112465783604051639996b31560e01b81526004016101a89190611364565b50806111f3565b80511561125d5780518082602001fd5b604051630a12f52160e11b815260040160405180910390fd5b80356001600160a01b038116811461128d57600080fd5b919050565b600080600080608085870312156112a857600080fd5b6112b185611276565b966020860135965060408601359560600135945092505050565b6000806000606084860312156112e057600080fd5b6112e984611276565b92506112f760208501611276565b9150604084013590509250925092565b60008060006060848603121561131c57600080fd5b61132584611276565b95602085013595506040909401359392505050565b6000806040838503121561134d57600080fd5b61135683611276565b946020939093013593505050565b6001600160a01b0391909116815260200190565b60006020828403121561138a57600080fd5b61115282611276565b6020808252601a908201527f4e6f207a65726f206164647265737320697320616c6c6f776564000000000000604082015260600190565b6040808252601a908201527f5a65726f20616d6f756e74206973206e6f7420616c6c6f7765640000000000006060820152602081019190915260800190565b60006020828403121561141b57600080fd5b815160ff811681146111f357600080fd5b634e487b7160e01b600052601160045260246000fd5b600181815b8085111561147d5781600019048211156114635761146361142c565b8085161561147057918102915b93841c9390800290611447565b509250929050565b60008261149457506001611155565b816114a157506000611155565b81600181146114b757600281146114c1576114dd565b6001915050611155565b60ff8411156114d2576114d261142c565b50506001821b611155565b5060208310610133831016604e8410600b8410161715611500575081810a611155565b61150a8383611442565b806000190482111561151e5761151e61142c565b029392505050565b60006111528383611485565b80820281158282048414176111555761115561142c565b60008261156657634e487b7160e01b600052601260045260246000fd5b500490565b818103818111156111555761115561142c565b60006020828403121561159057600080fd5b5051919050565b6001600160a01b03929092168252602082015260400190565b808201808211156111555761115561142c565b6000602082840312156115d557600080fd5b815180151581146111f357600080fd5b6000825160005b8181101561160657602081860181015185830152016115ec565b50600092019182525091905056fea2646970667358221220b1122fc030da81a4b55c9b4a90e0b70f984b14043cf3a97090cfff616721441764736f6c63430008180033",
  "linkReferences": {},
  "deployedLinkReferences": {}
}