{
  "_format": "hh-sol-artifact-1",
  "contractName": "OnlyUsaModule",
  "sourceName": "contracts/erc3643/compliance/modular/modules/OnlyUSAModule.sol",
  "abi": [
    {
      "inputs": [
        {
          "internalType": "address",
          "name": "_compliance",
          "type": "address"
        },
        {
          "internalType": "uint16",
          "name": "_country",
          "type": "uint16"
        }
      ],
      "name": "CountryNotAllowed",
      "type": "error"
    },
    {
      "anonymous": false,
      "inputs": [
        {
          "indexed": true,
          "internalType": "address",
          "name": "_compliance",
          "type": "address"
        }
      ],
      "name": "ComplianceBound",
      "type": "event"
    },
    {
      "anonymous": false,
      "inputs": [
        {
          "indexed": true,
          "internalType": "address",
          "name": "_compliance",
          "type": "address"
        }
      ],
      "name": "ComplianceUnbound",
      "type": "event"
    },
    {
      "inputs": [
        {
          "internalType": "address",
          "name": "_compliance",
          "type": "address"
        }
      ],
      "name": "bindCompliance",
      "outputs": [],
      "stateMutability": "nonpayable",
      "type": "function"
    },
    {
      "inputs": [
        {
          "internalType": "address",
          "name": "",
          "type": "address"
        }
      ],
      "name": "canComplianceBind",
      "outputs": [
        {
          "internalType": "bool",
          "name": "",
          "type": "bool"
        }
      ],
      "stateMutability": "view",
      "type": "function"
    },
    {
      "inputs": [
        {
          "internalType": "address",
          "name": "_compliance",
          "type": "address"
        }
      ],
      "name": "isComplianceBound",
      "outputs": [
        {
          "internalType": "bool",
          "name": "",
          "type": "bool"
        }
      ],
      "stateMutability": "view",
      "type": "function"
    },
    {
      "inputs": [
        {
          "internalType": "uint16",
          "name": "_country",
          "type": "uint16"
        }
      ],
      "name": "isCountryAllowed",
      "outputs": [
        {
          "internalType": "bool",
          "name": "",
          "type": "bool"
        }
      ],
      "stateMutability": "pure",
      "type": "function"
    },
    {
      "inputs": [],
      "name": "isPlugAndPlay",
      "outputs": [
        {
          "internalType": "bool",
          "name": "",
          "type": "bool"
        }
      ],
      "stateMutability": "pure",
      "type": "function"
    },
    {
      "inputs": [
        {
          "internalType": "address",
          "name": "_from",
          "type": "address"
        },
        {
          "internalType": "uint256",
          "name": "_value",
          "type": "uint256"
        }
      ],
      "name": "moduleBurnAction",
      "outputs": [],
      "stateMutability": "nonpayable",
      "type": "function"
    },
    {
      "inputs": [
        {
          "internalType": "address",
          "name": "",
          "type": "address"
        },
        {
          "internalType": "address",
          "name": "_to",
          "type": "address"
        },
        {
          "internalType": "uint256",
          "name": "",
          "type": "uint256"
        },
        {
          "internalType": "address",
          "name": "_compliance",
          "type": "address"
        }
      ],
      "name": "moduleCheck",
      "outputs": [
        {
          "internalType": "bool",
          "name": "",
          "type": "bool"
        }
      ],
      "stateMutability": "view",
      "type": "function"
    },
    {
      "inputs": [
        {
          "internalType": "address",
          "name": "_to",
          "type": "address"
        },
        {
          "internalType": "uint256",
          "name": "_value",
          "type": "uint256"
        }
      ],
      "name": "moduleMintAction",
      "outputs": [],
      "stateMutability": "nonpayable",
      "type": "function"
    },
    {
      "inputs": [
        {
          "internalType": "address",
          "name": "_from",
          "type": "address"
        },
        {
          "internalType": "address",
          "name": "_to",
          "type": "address"
        },
        {
          "internalType": "uint256",
          "name": "_value",
          "type": "uint256"
        }
      ],
      "name": "moduleTransferAction",
      "outputs": [],
      "stateMutability": "nonpayable",
      "type": "function"
    },
    {
      "inputs": [],
      "name": "name",
      "outputs": [
        {
          "internalType": "string",
          "name": "_name",
          "type": "string"
        }
      ],
      "stateMutability": "pure",
      "type": "function"
    },
    {
      "inputs": [
        {
          "internalType": "address",
          "name": "_compliance",
          "type": "address"
        }
      ],
      "name": "unbindCompliance",
      "outputs": [],
      "stateMutability": "nonpayable",
      "type": "function"
    }
  ],
  "bytecode": "0x608060405234801561001057600080fd5b506107ce806100206000396000f3fe608060405234801561001057600080fd5b50600436106100a95760003560e01c80634a932544116100715780634a932544146101405780634cf4d2951461015357806399f644f61461017f578063bcc2105314610198578063e6f5e807146101ac578063f104a8c91461012d57600080fd5b8063013b7ce4146100ae5780630694a5fb146100d657806306fdde03146100eb5780632cb7e1ec1461011a578063372491a21461012d575b600080fd5b6100c16100bc366004610556565b6101b3565b60405190151581526020015b60405180910390f35b6100e96100e43660046105a9565b6101d2565b005b604080518082018252600d81526c4f6e6c795573614d6f64756c6560981b602082015290516100cd91906105c6565b6100e9610128366004610615565b6102a1565b6100e961013b366004610656565b6102d5565b6100e961014e3660046105a9565b610308565b6100c16101613660046105a9565b6001600160a01b031660009081526020819052604090205460ff1690565b6100c161018d366004610692565b61ffff166103481490565b6100c16101a63660046105a9565b50600190565b60016100c1565b6000806101c08386610406565b61ffff16610348149695505050505050565b3360009081526020819052604090205460ff1661020a5760405162461bcd60e51b8152600401610201906106af565b60405180910390fd5b6001600160a01b0381166102305760405162461bcd60e51b8152600401610201906106e6565b336001600160a01b038216146102585760405162461bcd60e51b81526004016102019061071d565b6001600160a01b038116600081815260208190526040808220805460ff19169055517f408b49d9be1c914c52a0227e18a077e5a892dddf32a26cfa94a5d9708fad77189190a250565b3360009081526020819052604090205460ff166102d05760405162461bcd60e51b8152600401610201906106af565b505050565b3360009081526020819052604090205460ff166103045760405162461bcd60e51b8152600401610201906106af565b5050565b6001600160a01b03811661032e5760405162461bcd60e51b8152600401610201906106e6565b6001600160a01b03811660009081526020819052604090205460ff16156103925760405162461bcd60e51b815260206004820152601860248201527718dbdb5c1b1a585b98d948185b1c9958591e48189bdd5b9960421b6044820152606401610201565b336001600160a01b038216146103ba5760405162461bcd60e51b81526004016102019061071d565b6001600160a01b038116600081815260208190526040808220805460ff19166001179055517f1f7b76c58fb697eb53c6c7c1becb96911516a136e24d7ced386b2355358b75a39190a250565b6000826001600160a01b0316636a3edf286040518163ffffffff1660e01b8152600401602060405180830381865afa158015610446573d6000803e3d6000fd5b505050506040513d601f19601f8201168201806040525081019061046a919061075e565b6001600160a01b031663134e18f46040518163ffffffff1660e01b8152600401602060405180830381865afa1580156104a7573d6000803e3d6000fd5b505050506040513d601f19601f820116820180604052508101906104cb919061075e565b604051637e42683b60e01b81526001600160a01b0384811660048301529190911690637e42683b90602401602060405180830381865afa158015610513573d6000803e3d6000fd5b505050506040513d601f19601f82011682018060405250810190610537919061077b565b9392505050565b6001600160a01b038116811461055357600080fd5b50565b6000806000806080858703121561056c57600080fd5b84356105778161053e565b935060208501356105878161053e565b925060408501359150606085013561059e8161053e565b939692955090935050565b6000602082840312156105bb57600080fd5b81356105378161053e565b60006020808352835180602085015260005b818110156105f4578581018301518582016040015282016105d8565b506000604082860101526040601f19601f8301168501019250505092915050565b60008060006060848603121561062a57600080fd5b83356106358161053e565b925060208401356106458161053e565b929592945050506040919091013590565b6000806040838503121561066957600080fd5b82356106748161053e565b946020939093013593505050565b61ffff8116811461055357600080fd5b6000602082840312156106a457600080fd5b813561053781610682565b6020808252601e908201527f6f6e6c7920626f756e6420636f6d706c69616e63652063616e2063616c6c0000604082015260600190565b6020808252601f908201527f696e76616c696420617267756d656e74202d207a65726f206164647265737300604082015260600190565b60208082526021908201527f6f6e6c7920636f6d706c69616e636520636f6e74726163742063616e2063616c6040820152601b60fa1b606082015260800190565b60006020828403121561077057600080fd5b81516105378161053e565b60006020828403121561078d57600080fd5b81516105378161068256fea26469706673582212208adf72026ddb2a9b54ae2b29c7c2bc04a77d683ebeb2575a07df69e677bea96364736f6c63430008180033",
  "linkReferences": {},
  "deployedLinkReferences": {}
}