{
  "_format": "hh-sol-artifact-1",
  "contractName": "OwnerManager",
  "sourceName": "contracts/erc3643/roles/permissioning/owner/OwnerManager.sol",
  "abi": [
    {
      "inputs": [
        {
          "internalType": "address",
          "name": "_token",
          "type": "address"
        }
      ],
      "stateMutability": "nonpayable",
      "type": "constructor"
    },
    {
      "inputs": [
        {
          "internalType": "address",
          "name": "owner",
          "type": "address"
        }
      ],
      "name": "OwnableInvalidOwner",
      "type": "error"
    },
    {
      "inputs": [
        {
          "internalType": "address",
          "name": "account",
          "type": "address"
        }
      ],
      "name": "OwnableUnauthorizedAccount",
      "type": "error"
    },
    {
      "anonymous": false,
      "inputs": [
        {
          "indexed": true,
          "internalType": "address",
          "name": "target",
          "type": "address"
        },
        {
          "indexed": false,
          "internalType": "bytes4",
          "name": "selector",
          "type": "bytes4"
        }
      ],
      "name": "ComplianceInteraction",
      "type": "event"
    },
    {
      "anonymous": false,
      "inputs": [
        {
          "indexed": true,
          "internalType": "address",
          "name": "previousOwner",
          "type": "address"
        },
        {
          "indexed": true,
          "internalType": "address",
          "name": "newOwner",
          "type": "address"
        }
      ],
      "name": "OwnershipTransferred",
      "type": "event"
    },
    {
      "anonymous": false,
      "inputs": [
        {
          "indexed": true,
          "internalType": "address",
          "name": "_owner",
          "type": "address"
        },
        {
          "indexed": false,
          "internalType": "string",
          "name": "_role",
          "type": "string"
        }
      ],
      "name": "RoleAdded",
      "type": "event"
    },
    {
      "anonymous": false,
      "inputs": [
        {
          "indexed": true,
          "internalType": "address",
          "name": "_owner",
          "type": "address"
        },
        {
          "indexed": false,
          "internalType": "string",
          "name": "_role",
          "type": "string"
        }
      ],
      "name": "RoleRemoved",
      "type": "event"
    },
    {
      "inputs": [
        {
          "internalType": "address",
          "name": "_owner",
          "type": "address"
        }
      ],
      "name": "addClaimRegistryManager",
      "outputs": [],
      "stateMutability": "nonpayable",
      "type": "function"
    },
    {
      "inputs": [
        {
          "internalType": "address",
          "name": "_owner",
          "type": "address"
        }
      ],
      "name": "addComplianceManager",
      "outputs": [],
      "stateMutability": "nonpayable",
      "type": "function"
    },
    {
      "inputs": [
        {
          "internalType": "address",
          "name": "_owner",
          "type": "address"
        }
      ],
      "name": "addComplianceSetter",
      "outputs": [],
      "stateMutability": "nonpayable",
      "type": "function"
    },
    {
      "inputs": [
        {
          "internalType": "address",
          "name": "_owner",
          "type": "address"
        }
      ],
      "name": "addIssuersRegistryManager",
      "outputs": [],
      "stateMutability": "nonpayable",
      "type": "function"
    },
    {
      "inputs": [
        {
          "internalType": "address",
          "name": "_owner",
          "type": "address"
        }
      ],
      "name": "addOwnerAdmin",
      "outputs": [],
      "stateMutability": "nonpayable",
      "type": "function"
    },
    {
      "inputs": [
        {
          "internalType": "address",
          "name": "_owner",
          "type": "address"
        }
      ],
      "name": "addRegistryAddressSetter",
      "outputs": [],
      "stateMutability": "nonpayable",
      "type": "function"
    },
    {
      "inputs": [
        {
          "internalType": "address",
          "name": "_owner",
          "type": "address"
        }
      ],
      "name": "addTokenInfoManager",
      "outputs": [],
      "stateMutability": "nonpayable",
      "type": "function"
    },
    {
      "inputs": [
        {
          "internalType": "address",
          "name": "_agent",
          "type": "address"
        }
      ],
      "name": "callAddAgentOnIdentityRegistryContract",
      "outputs": [],
      "stateMutability": "nonpayable",
      "type": "function"
    },
    {
      "inputs": [
        {
          "internalType": "address",
          "name": "_agent",
          "type": "address"
        }
      ],
      "name": "callAddAgentOnTokenContract",
      "outputs": [],
      "stateMutability": "nonpayable",
      "type": "function"
    },
    {
      "inputs": [
        {
          "internalType": "uint256",
          "name": "_claimTopic",
          "type": "uint256"
        },
        {
          "internalType": "contract IIdentity",
          "name": "_onchainID",
          "type": "address"
        }
      ],
      "name": "callAddClaimTopic",
      "outputs": [],
      "stateMutability": "nonpayable",
      "type": "function"
    },
    {
      "inputs": [
        {
          "internalType": "contract IClaimIssuer",
          "name": "_trustedIssuer",
          "type": "address"
        },
        {
          "internalType": "uint256[]",
          "name": "_claimTopics",
          "type": "uint256[]"
        },
        {
          "internalType": "contract IIdentity",
          "name": "_onchainID",
          "type": "address"
        }
      ],
      "name": "callAddTrustedIssuer",
      "outputs": [],
      "stateMutability": "nonpayable",
      "type": "function"
    },
    {
      "inputs": [
        {
          "internalType": "bytes",
          "name": "callData",
          "type": "bytes"
        },
        {
          "internalType": "contract IIdentity",
          "name": "_onchainID",
          "type": "address"
        }
      ],
      "name": "callComplianceFunction",
      "outputs": [],
      "stateMutability": "nonpayable",
      "type": "function"
    },
    {
      "inputs": [
        {
          "internalType": "address",
          "name": "_agent",
          "type": "address"
        }
      ],
      "name": "callRemoveAgentOnIdentityRegistryContract",
      "outputs": [],
      "stateMutability": "nonpayable",
      "type": "function"
    },
    {
      "inputs": [
        {
          "internalType": "address",
          "name": "_agent",
          "type": "address"
        }
      ],
      "name": "callRemoveAgentOnTokenContract",
      "outputs": [],
      "stateMutability": "nonpayable",
      "type": "function"
    },
    {
      "inputs": [
        {
          "internalType": "uint256",
          "name": "_claimTopic",
          "type": "uint256"
        },
        {
          "internalType": "contract IIdentity",
          "name": "_onchainID",
          "type": "address"
        }
      ],
      "name": "callRemoveClaimTopic",
      "outputs": [],
      "stateMutability": "nonpayable",
      "type": "function"
    },
    {
      "inputs": [
        {
          "internalType": "contract IClaimIssuer",
          "name": "_trustedIssuer",
          "type": "address"
        },
        {
          "internalType": "contract IIdentity",
          "name": "_onchainID",
          "type": "address"
        }
      ],
      "name": "callRemoveTrustedIssuer",
      "outputs": [],
      "stateMutability": "nonpayable",
      "type": "function"
    },
    {
      "inputs": [
        {
          "internalType": "address",
          "name": "_claimTopicsRegistry",
          "type": "address"
        },
        {
          "internalType": "contract IIdentity",
          "name": "_onchainID",
          "type": "address"
        }
      ],
      "name": "callSetClaimTopicsRegistry",
      "outputs": [],
      "stateMutability": "nonpayable",
      "type": "function"
    },
    {
      "inputs": [
        {
          "internalType": "address",
          "name": "_compliance",
          "type": "address"
        },
        {
          "internalType": "contract IIdentity",
          "name": "_onchainID",
          "type": "address"
        }
      ],
      "name": "callSetCompliance",
      "outputs": [],
      "stateMutability": "nonpayable",
      "type": "function"
    },
    {
      "inputs": [
        {
          "internalType": "address",
          "name": "_identityRegistry",
          "type": "address"
        },
        {
          "internalType": "contract IIdentity",
          "name": "_onchainID",
          "type": "address"
        }
      ],
      "name": "callSetIdentityRegistry",
      "outputs": [],
      "stateMutability": "nonpayable",
      "type": "function"
    },
    {
      "inputs": [
        {
          "internalType": "string",
          "name": "_name",
          "type": "string"
        },
        {
          "internalType": "contract IIdentity",
          "name": "_onchainID",
          "type": "address"
        }
      ],
      "name": "callSetTokenName",
      "outputs": [],
      "stateMutability": "nonpayable",
      "type": "function"
    },
    {
      "inputs": [
        {
          "internalType": "address",
          "name": "_tokenOnchainID",
          "type": "address"
        },
        {
          "internalType": "contract IIdentity",
          "name": "_onchainID",
          "type": "address"
        }
      ],
      "name": "callSetTokenOnchainID",
      "outputs": [],
      "stateMutability": "nonpayable",
      "type": "function"
    },
    {
      "inputs": [
        {
          "internalType": "string",
          "name": "_symbol",
          "type": "string"
        },
        {
          "internalType": "contract IIdentity",
          "name": "_onchainID",
          "type": "address"
        }
      ],
      "name": "callSetTokenSymbol",
      "outputs": [],
      "stateMutability": "nonpayable",
      "type": "function"
    },
    {
      "inputs": [
        {
          "internalType": "address",
          "name": "_trustedIssuersRegistry",
          "type": "address"
        },
        {
          "internalType": "contract IIdentity",
          "name": "_onchainID",
          "type": "address"
        }
      ],
      "name": "callSetTrustedIssuersRegistry",
      "outputs": [],
      "stateMutability": "nonpayable",
      "type": "function"
    },
    {
      "inputs": [
        {
          "internalType": "address",
          "name": "_newOwner",
          "type": "address"
        }
      ],
      "name": "callTransferOwnershipOnClaimTopicsRegistryContract",
      "outputs": [],
      "stateMutability": "nonpayable",
      "type": "function"
    },
    {
      "inputs": [
        {
          "internalType": "address",
          "name": "_newOwner",
          "type": "address"
        }
      ],
      "name": "callTransferOwnershipOnComplianceContract",
      "outputs": [],
      "stateMutability": "nonpayable",
      "type": "function"
    },
    {
      "inputs": [
        {
          "internalType": "address",
          "name": "_newOwner",
          "type": "address"
        }
      ],
      "name": "callTransferOwnershipOnIdentityRegistryContract",
      "outputs": [],
      "stateMutability": "nonpayable",
      "type": "function"
    },
    {
      "inputs": [
        {
          "internalType": "address",
          "name": "_newOwner",
          "type": "address"
        }
      ],
      "name": "callTransferOwnershipOnIssuersRegistryContract",
      "outputs": [],
      "stateMutability": "nonpayable",
      "type": "function"
    },
    {
      "inputs": [
        {
          "internalType": "address",
          "name": "_newOwner",
          "type": "address"
        }
      ],
      "name": "callTransferOwnershipOnTokenContract",
      "outputs": [],
      "stateMutability": "nonpayable",
      "type": "function"
    },
    {
      "inputs": [
        {
          "internalType": "contract IClaimIssuer",
          "name": "_trustedIssuer",
          "type": "address"
        },
        {
          "internalType": "uint256[]",
          "name": "_claimTopics",
          "type": "uint256[]"
        },
        {
          "internalType": "contract IIdentity",
          "name": "_onchainID",
          "type": "address"
        }
      ],
      "name": "callUpdateIssuerClaimTopics",
      "outputs": [],
      "stateMutability": "nonpayable",
      "type": "function"
    },
    {
      "inputs": [
        {
          "internalType": "address",
          "name": "_owner",
          "type": "address"
        }
      ],
      "name": "isClaimRegistryManager",
      "outputs": [
        {
          "internalType": "bool",
          "name": "",
          "type": "bool"
        }
      ],
      "stateMutability": "view",
      "type": "function"
    },
    {
      "inputs": [
        {
          "internalType": "address",
          "name": "_owner",
          "type": "address"
        }
      ],
      "name": "isComplianceManager",
      "outputs": [
        {
          "internalType": "bool",
          "name": "",
          "type": "bool"
        }
      ],
      "stateMutability": "view",
      "type": "function"
    },
    {
      "inputs": [
        {
          "internalType": "address",
          "name": "_owner",
          "type": "address"
        }
      ],
      "name": "isComplianceSetter",
      "outputs": [
        {
          "internalType": "bool",
          "name": "",
          "type": "bool"
        }
      ],
      "stateMutability": "view",
      "type": "function"
    },
    {
      "inputs": [
        {
          "internalType": "address",
          "name": "_owner",
          "type": "address"
        }
      ],
      "name": "isIssuersRegistryManager",
      "outputs": [
        {
          "internalType": "bool",
          "name": "",
          "type": "bool"
        }
      ],
      "stateMutability": "view",
      "type": "function"
    },
    {
      "inputs": [
        {
          "internalType": "address",
          "name": "_owner",
          "type": "address"
        }
      ],
      "name": "isOwnerAdmin",
      "outputs": [
        {
          "internalType": "bool",
          "name": "",
          "type": "bool"
        }
      ],
      "stateMutability": "view",
      "type": "function"
    },
    {
      "inputs": [
        {
          "internalType": "address",
          "name": "_owner",
          "type": "address"
        }
      ],
      "name": "isRegistryAddressSetter",
      "outputs": [
        {
          "internalType": "bool",
          "name": "",
          "type": "bool"
        }
      ],
      "stateMutability": "view",
      "type": "function"
    },
    {
      "inputs": [
        {
          "internalType": "address",
          "name": "_owner",
          "type": "address"
        }
      ],
      "name": "isTokenInfoManager",
      "outputs": [
        {
          "internalType": "bool",
          "name": "",
          "type": "bool"
        }
      ],
      "stateMutability": "view",
      "type": "function"
    },
    {
      "inputs": [],
      "name": "owner",
      "outputs": [
        {
          "internalType": "address",
          "name": "",
          "type": "address"
        }
      ],
      "stateMutability": "view",
      "type": "function"
    },
    {
      "inputs": [
        {
          "internalType": "address",
          "name": "_owner",
          "type": "address"
        }
      ],
      "name": "removeClaimRegistryManager",
      "outputs": [],
      "stateMutability": "nonpayable",
      "type": "function"
    },
    {
      "inputs": [
        {
          "internalType": "address",
          "name": "_owner",
          "type": "address"
        }
      ],
      "name": "removeComplianceManager",
      "outputs": [],
      "stateMutability": "nonpayable",
      "type": "function"
    },
    {
      "inputs": [
        {
          "internalType": "address",
          "name": "_owner",
          "type": "address"
        }
      ],
      "name": "removeComplianceSetter",
      "outputs": [],
      "stateMutability": "nonpayable",
      "type": "function"
    },
    {
      "inputs": [
        {
          "internalType": "address",
          "name": "_owner",
          "type": "address"
        }
      ],
      "name": "removeIssuersRegistryManager",
      "outputs": [],
      "stateMutability": "nonpayable",
      "type": "function"
    },
    {
      "inputs": [
        {
          "internalType": "address",
          "name": "_owner",
          "type": "address"
        }
      ],
      "name": "removeOwnerAdmin",
      "outputs": [],
      "stateMutability": "nonpayable",
      "type": "function"
    },
    {
      "inputs": [
        {
          "internalType": "address",
          "name": "_owner",
          "type": "address"
        }
      ],
      "name": "removeRegistryAddressSetter",
      "outputs": [],
      "stateMutability": "nonpayable",
      "type": "function"
    },
    {
      "inputs": [
        {
          "internalType": "address",
          "name": "_owner",
          "type": "address"
        }
      ],
      "name": "removeTokenInfoManager",
      "outputs": [],
      "stateMutability": "nonpayable",
      "type": "function"
    },
    {
      "inputs": [],
      "name": "renounceOwnership",
      "outputs": [],
      "stateMutability": "nonpayable",
      "type": "function"
    },
    {
      "inputs": [],
      "name": "token",
      "outputs": [
        {
          "internalType": "contract IToken",
          "name": "",
          "type": "address"
        }
      ],
      "stateMutability": "view",
      "type": "function"
    },
    {
      "inputs": [
        {
          "internalType": "address",
          "name": "newOwner",
          "type": "address"
        }
      ],
      "name": "transferOwnership",
      "outputs": [],
      "stateMutability": "nonpayable",
      "type": "function"
    }
  ],
  "bytecode": "0x60806040523480156200001157600080fd5b5060405162003142380380620031428339810160408190526200003491620000dd565b33806200005b57604051631e4fbdf760e01b81526000600482015260240160405180910390fd5b62000066816200008d565b50600880546001600160a01b0319166001600160a01b03929092169190911790556200010f565b600080546001600160a01b038381166001600160a01b0319831681178455604051919092169283917f8be0079c531659141344cd1fd0a4f28419497f9722a3daafe3b4186f6b6457e09190a35050565b600060208284031215620000f057600080fd5b81516001600160a01b03811681146200010857600080fd5b9392505050565b613023806200011f6000396000f3fe608060405234801561001057600080fd5b50600436106102955760003560e01c806387cc060c11610167578063ae5aaa3b116100ce578063f087249c11610087578063f087249c146105b3578063f2fde38b146105c6578063faed696a146105d9578063fc0c546a146105ec578063fc6de4b5146105ff578063ff8063111461061257600080fd5b8063ae5aaa3b14610541578063ce4bdac714610554578063dd39042b14610567578063e110255b1461057a578063e38123181461058d578063eeac6fe6146105a057600080fd5b806399884aab1161012057806399884aab146104cf5780639ce2d88e146104e25780639d6de3bc146104f5578063a66bcc1c14610508578063aa1cef561461051b578063ac95fc911461052e57600080fd5b806387cc060c1461045b578063882fc6ca1461046e5780638da5cb5b14610481578063934b2da41461049657806394e69f1b146104a9578063951af88d146104bc57600080fd5b8063405225541161020b5780636ff7bff7116101c45780636ff7bff7146103f4578063715018a614610407578063757d467f1461040f578063818ab8bd14610422578063828709371461043557806385cef6081461044857600080fd5b8063405225541461038257806346b686f8146103955780634837b797146103a857806354b9797f146103bb5780635c5f2047146103ce57806362cdd482146103e157600080fd5b806328d7be341161025d57806328d7be34146103105780632af70c30146103235780632f56d91b14610336578063309ff3d1146103495780633ba7c75e1461035c5780633c734ce81461036f57600080fd5b8063039ec2cd1461029a57806303ff5014146102af5780631096a7ec146102d75780632447e50b146102ea578063256ccc07146102fd575b600080fd5b6102ad6102a8366004612b78565b610625565b005b6102c26102bd366004612b78565b6106d6565b60405190151581526020015b60405180910390f35b6102ad6102e5366004612b78565b6106e9565b6102c26102f8366004612b78565b6107fe565b6102ad61030b366004612b78565b61080b565b6102ad61031e366004612b78565b610879565b6102ad610331366004612be5565b6108e7565b6102ad610344366004612c3c565b610a16565b6102ad610357366004612be5565b610c17565b6102c261036a366004612b78565b610d0f565b6102c261037d366004612b78565b610d1c565b6102ad610390366004612b78565b610d29565b6102ad6103a3366004612b78565b610dc0565b6102ad6103b6366004612c6c565b610e58565b6102ad6103c9366004612b78565b61105d565b6102ad6103dc366004612be5565b6110ee565b6102c26103ef366004612b78565b6112da565b6102ad610402366004612b78565b6112e7565b6102ad611384565b6102ad61041d366004612b78565b611398565b6102ad610430366004612b78565b611478565b6102c2610443366004612b78565b61156a565b6102ad610456366004612b78565b611577565b6102ad610469366004612d07565b611657565b6102ad61047c366004612b78565b61174d565b6104896117e4565b6040516102ce9190612d35565b6102ad6104a4366004612b78565b6117f3565b6102ad6104b7366004612b78565b611884565b6102ad6104ca366004612d07565b61191b565b6102ad6104dd366004612b78565b611a4f565b6102ad6104f0366004612d07565b611b41565b6102ad610503366004612d07565b611d0a565b6102ad610516366004612b78565b611e00565b6102ad610529366004612b78565b611e98565b6102ad61053c366004612b78565b611f06565b6102ad61054f366004612b78565b611fa3565b6102ad610562366004612b78565b61203f565b6102ad610575366004612c3c565b6120d6565b6102ad610588366004612b78565b6122a1565b6102ad61059b366004612b78565b61233c565b6102ad6105ae366004612d07565b6123cd565b6102ad6105c1366004612d07565b612535565b6102ad6105d4366004612b78565b61269d565b6102ad6105e7366004612b78565b6126db565b600854610489906001600160a01b031681565b6102ad61060d366004612c6c565b612776565b6102c2610620366004612b78565b612943565b3361062e6117e4565b6001600160a01b031614806106475750610647336112da565b61066c5760405162461bcd60e51b815260040161066390612d49565b60405180910390fd5b610677600282612950565b60408051808201825260158152742932b3b4b9ba393ca0b2323932b9b9a9b2ba3a32b960591b602082015290516001600160a01b03831690600080516020612fae833981519152906106ca908490612d7c565b60405180910390a25050565b60006106e36004836129d2565b92915050565b336106f26117e4565b6001600160a01b0316148061070b575061070b336112da565b6107275760405162461bcd60e51b815260040161066390612d49565b600860009054906101000a90046001600160a01b03166001600160a01b0316636290865d6040518163ffffffff1660e01b8152600401602060405180830381865afa15801561077a573d6000803e3d6000fd5b505050506040513d601f19601f8201168201806040525081019061079e9190612dcb565b6001600160a01b031663f2fde38b826040518263ffffffff1660e01b81526004016107c99190612d35565b600060405180830381600087803b1580156107e357600080fd5b505af11580156107f7573d6000803e3d6000fd5b5050505050565b60006106e36007836129d2565b336108146117e4565b6001600160a01b0316148061082d575061082d336112da565b6108495760405162461bcd60e51b815260040161066390612d49565b600854604051634273cc2160e11b81526001600160a01b03909116906384e79842906107c9908490600401612d35565b336108826117e4565b6001600160a01b0316148061089b575061089b336112da565b6108b75760405162461bcd60e51b815260040161066390612d49565b600854604051634bd313c760e11b81526001600160a01b03909116906397a6278e906107c9908490600401612d35565b6108f0816107fe565b80156109915750806001600160a01b031663d202158d336040516020016109179190612d35565b60408051601f198184030181529082905280516020909101206001600160e01b031960e084901b168252600482015260026024820152604401602060405180830381865afa15801561096d573d6000803e3d6000fd5b505050506040513d601f19601f820116820180604052508101906109919190612de8565b6109ad5760405162461bcd60e51b815260040161066390612e0a565b600854604051635c26412360e11b81526001600160a01b039091169063b84c8246906109df9086908690600401612e57565b600060405180830381600087803b1580156109f957600080fd5b505af1158015610a0d573d6000803e3d6000fd5b50505050505050565b610a1f81610d1c565b8015610ac05750806001600160a01b031663d202158d33604051602001610a469190612d35565b60408051601f198184030181529082905280516020909101206001600160e01b031960e084901b168252600482015260026024820152604401602060405180830381865afa158015610a9c573d6000803e3d6000fd5b505050506040513d601f19601f82011682018060405250810190610ac09190612de8565b610adc5760405162461bcd60e51b815260040161066390612e86565b600860009054906101000a90046001600160a01b03166001600160a01b031663134e18f46040518163ffffffff1660e01b8152600401602060405180830381865afa158015610b2f573d6000803e3d6000fd5b505050506040513d601f19601f82011682018060405250810190610b539190612dcb565b6001600160a01b0316633b3e12f46040518163ffffffff1660e01b8152600401602060405180830381865afa158015610b90573d6000803e3d6000fd5b505050506040513d601f19601f82011682018060405250810190610bb49190612dcb565b6001600160a01b03166308297846836040518263ffffffff1660e01b8152600401610be191815260200190565b600060405180830381600087803b158015610bfb57600080fd5b505af1158015610c0f573d6000803e3d6000fd5b505050505050565b610c20816107fe565b8015610cc15750806001600160a01b031663d202158d33604051602001610c479190612d35565b60408051601f198184030181529082905280516020909101206001600160e01b031960e084901b168252600482015260026024820152604401602060405180830381865afa158015610c9d573d6000803e3d6000fd5b505050506040513d601f19601f82011682018060405250810190610cc19190612de8565b610cdd5760405162461bcd60e51b815260040161066390612e0a565b60085460405163c47f002760e01b81526001600160a01b039091169063c47f0027906109df9086908690600401612e57565b60006106e36003836129d2565b60006106e36005836129d2565b33610d326117e4565b6001600160a01b03161480610d4b5750610d4b336112da565b610d675760405162461bcd60e51b815260040161066390612d49565b610d72600382612950565b604080518082018252601081526f21b7b6b83634b0b731b2a9b2ba3a32b960811b602082015290516001600160a01b03831690600080516020612fae833981519152906106ca908490612d7c565b33610dc96117e4565b6001600160a01b03161480610de25750610de2336112da565b610dfe5760405162461bcd60e51b815260040161066390612d49565b610e09600482612950565b604080518082018252601181527021b7b6b83634b0b731b2a6b0b730b3b2b960791b602082015290516001600160a01b03831690600080516020612fae833981519152906106ca908490612d7c565b610e6181612943565b8015610f025750806001600160a01b031663d202158d33604051602001610e889190612d35565b60408051601f198184030181529082905280516020909101206001600160e01b031960e084901b168252600482015260026024820152604401602060405180830381865afa158015610ede573d6000803e3d6000fd5b505050506040513d601f19601f82011682018060405250810190610f029190612de8565b610f1e5760405162461bcd60e51b815260040161066390612ece565b600860009054906101000a90046001600160a01b03166001600160a01b031663134e18f46040518163ffffffff1660e01b8152600401602060405180830381865afa158015610f71573d6000803e3d6000fd5b505050506040513d601f19601f82011682018060405250810190610f959190612dcb565b6001600160a01b031663b4f3fcb76040518163ffffffff1660e01b8152600401602060405180830381865afa158015610fd2573d6000803e3d6000fd5b505050506040513d601f19601f82011682018060405250810190610ff69190612dcb565b6001600160a01b03166304bc7e848585856040518463ffffffff1660e01b815260040161102593929190612f18565b600060405180830381600087803b15801561103f57600080fd5b505af1158015611053573d6000803e3d6000fd5b5050505050505050565b336110666117e4565b6001600160a01b0316148061107f575061107f336112da565b61109b5760405162461bcd60e51b815260040161066390612d49565b6110a6600182612950565b604080518082018252600a81526927bbb732b920b236b4b760b11b602082015290516001600160a01b03831690600080516020612fae833981519152906106ca908490612d7c565b6110f7816106d6565b80156111985750806001600160a01b031663d202158d3360405160200161111e9190612d35565b60408051601f198184030181529082905280516020909101206001600160e01b031960e084901b168252600482015260026024820152604401602060405180830381865afa158015611174573d6000803e3d6000fd5b505050506040513d601f19601f820116820180604052508101906111989190612de8565b6111f35760405162461bcd60e51b815260206004820152602660248201527f526f6c653a2053656e646572206973204e4f5420436f6d706c69616e6365204d60448201526530b730b3b2b960d11b6064820152608401610663565b60085460408051636290865d60e01b815290516000926001600160a01b031691636290865d9160048083019260209291908290030181865afa15801561123d573d6000803e3d6000fd5b505050506040513d601f19601f820116820180604052508101906112619190612dcb565b90506040518385823760008085836000865af1611282573d6000803e3d6000fd5b50806001600160a01b03167f5779a24d18a4639b1d59461e68c00fb0cd02533a4c5a6ff3ca6363e23e2fff566112b88686612a55565b6040516001600160e01b0319909116815260200160405180910390a250505050565b60006106e36001836129d2565b336112f06117e4565b6001600160a01b031614806113095750611309336112da565b6113255760405162461bcd60e51b815260040161066390612d49565b611330600682612950565b604080518082018252601681527524b9b9bab2b939a932b3b4b9ba393ca6b0b730b3b2b960511b602082015290516001600160a01b03831690600080516020612fae833981519152906106ca908490612d7c565b61138c612a65565b6113966000612a97565b565b336113a16117e4565b6001600160a01b031614806113ba57506113ba336112da565b6113d65760405162461bcd60e51b815260040161066390612d49565b600860009054906101000a90046001600160a01b03166001600160a01b031663134e18f46040518163ffffffff1660e01b8152600401602060405180830381865afa158015611429573d6000803e3d6000fd5b505050506040513d601f19601f8201168201806040525081019061144d9190612dcb565b6001600160a01b03166397a6278e826040518263ffffffff1660e01b81526004016107c99190612d35565b336114816117e4565b6001600160a01b0316148061149a575061149a336112da565b6114b65760405162461bcd60e51b815260040161066390612d49565b600860009054906101000a90046001600160a01b03166001600160a01b031663134e18f46040518163ffffffff1660e01b8152600401602060405180830381865afa158015611509573d6000803e3d6000fd5b505050506040513d601f19601f8201168201806040525081019061152d9190612dcb565b6001600160a01b0316633b3e12f46040518163ffffffff1660e01b8152600401602060405180830381865afa15801561077a573d6000803e3d6000fd5b60006106e36002836129d2565b336115806117e4565b6001600160a01b031614806115995750611599336112da565b6115b55760405162461bcd60e51b815260040161066390612d49565b600860009054906101000a90046001600160a01b03166001600160a01b031663134e18f46040518163ffffffff1660e01b8152600401602060405180830381865afa158015611608573d6000803e3d6000fd5b505050506040513d601f19601f8201168201806040525081019061162c9190612dcb565b6001600160a01b03166384e79842826040518263ffffffff1660e01b81526004016107c99190612d35565b611660816107fe565b80156117015750806001600160a01b031663d202158d336040516020016116879190612d35565b60408051601f198184030181529082905280516020909101206001600160e01b031960e084901b168252600482015260026024820152604401602060405180830381865afa1580156116dd573d6000803e3d6000fd5b505050506040513d601f19601f820116820180604052508101906117019190612de8565b61171d5760405162461bcd60e51b815260040161066390612e0a565b600854604051633d1ddc5b60e01b81526001600160a01b0390911690633d1ddc5b90610be1908590600401612d35565b336117566117e4565b6001600160a01b0316148061176f575061176f336112da565b61178b5760405162461bcd60e51b815260040161066390612d49565b611796600782612950565b604080518082018252601081526f2a37b5b2b724b73337a6b0b730b3b2b960811b602082015290516001600160a01b03831690600080516020612fae833981519152906106ca908490612d7c565b6000546001600160a01b031690565b336117fc6117e4565b6001600160a01b031614806118155750611815336112da565b6118315760405162461bcd60e51b815260040161066390612d49565b61183c600182612ae7565b604080518082018252600a81526927bbb732b920b236b4b760b11b602082015290516001600160a01b03831690600080516020612fce833981519152906106ca908490612d7c565b3361188d6117e4565b6001600160a01b031614806118a657506118a6336112da565b6118c25760405162461bcd60e51b815260040161066390612d49565b6118cd600782612ae7565b604080518082018252601081526f2a37b5b2b724b73337a6b0b730b3b2b960811b602082015290516001600160a01b03831690600080516020612fce833981519152906106ca908490612d7c565b61192481610d0f565b80156119c55750806001600160a01b031663d202158d3360405160200161194b9190612d35565b60408051601f198184030181529082905280516020909101206001600160e01b031960e084901b168252600482015260026024820152604401602060405180830381865afa1580156119a1573d6000803e3d6000fd5b505050506040513d601f19601f820116820180604052508101906119c59190612de8565b611a1f5760405162461bcd60e51b815260206004820152602560248201527f526f6c653a2053656e646572206973204e4f5420436f6d706c69616e6365205360448201526432ba3a32b960d91b6064820152608401610663565b60085460405163f898178960e01b81526001600160a01b039091169063f898178990610be1908590600401612d35565b33611a586117e4565b6001600160a01b03161480611a715750611a71336112da565b611a8d5760405162461bcd60e51b815260040161066390612d49565b600860009054906101000a90046001600160a01b03166001600160a01b031663134e18f46040518163ffffffff1660e01b8152600401602060405180830381865afa158015611ae0573d6000803e3d6000fd5b505050506040513d601f19601f82011682018060405250810190611b049190612dcb565b6001600160a01b031663b4f3fcb76040518163ffffffff1660e01b8152600401602060405180830381865afa15801561077a573d6000803e3d6000fd5b611b4a81612943565b8015611beb5750806001600160a01b031663d202158d33604051602001611b719190612d35565b60408051601f198184030181529082905280516020909101206001600160e01b031960e084901b168252600482015260026024820152604401602060405180830381865afa158015611bc7573d6000803e3d6000fd5b505050506040513d601f19601f82011682018060405250810190611beb9190612de8565b611c075760405162461bcd60e51b815260040161066390612ece565b600860009054906101000a90046001600160a01b03166001600160a01b031663134e18f46040518163ffffffff1660e01b8152600401602060405180830381865afa158015611c5a573d6000803e3d6000fd5b505050506040513d601f19601f82011682018060405250810190611c7e9190612dcb565b6001600160a01b031663b4f3fcb76040518163ffffffff1660e01b8152600401602060405180830381865afa158015611cbb573d6000803e3d6000fd5b505050506040513d601f19601f82011682018060405250810190611cdf9190612dcb565b6001600160a01b031663b93d28eb836040518263ffffffff1660e01b8152600401610be19190612d35565b611d138161156a565b8015611db45750806001600160a01b031663d202158d33604051602001611d3a9190612d35565b60408051601f198184030181529082905280516020909101206001600160e01b031960e084901b168252600482015260026024820152604401602060405180830381865afa158015611d90573d6000803e3d6000fd5b505050506040513d601f19601f82011682018060405250810190611db49190612de8565b611dd05760405162461bcd60e51b815260040161066390612f62565b60085460405163cbf3f86160e01b81526001600160a01b039091169063cbf3f86190610be1908590600401612d35565b33611e096117e4565b6001600160a01b03161480611e225750611e22336112da565b611e3e5760405162461bcd60e51b815260040161066390612d49565b611e49600482612ae7565b604080518082018252601181527021b7b6b83634b0b731b2a6b0b730b3b2b960791b602082015290516001600160a01b03831690600080516020612fce833981519152906106ca908490612d7c565b33611ea16117e4565b6001600160a01b03161480611eba5750611eba336112da565b611ed65760405162461bcd60e51b815260040161066390612d49565b60085460405163f2fde38b60e01b81526001600160a01b039091169063f2fde38b906107c9908490600401612d35565b33611f0f6117e4565b6001600160a01b03161480611f285750611f28336112da565b611f445760405162461bcd60e51b815260040161066390612d49565b611f4f600682612ae7565b604080518082018252601681527524b9b9bab2b939a932b3b4b9ba393ca6b0b730b3b2b960511b602082015290516001600160a01b03831690600080516020612fce833981519152906106ca908490612d7c565b33611fac6117e4565b6001600160a01b03161480611fc55750611fc5336112da565b611fe15760405162461bcd60e51b815260040161066390612d49565b611fec600282612ae7565b60408051808201825260158152742932b3b4b9ba393ca0b2323932b9b9a9b2ba3a32b960591b602082015290516001600160a01b03831690600080516020612fce833981519152906106ca908490612d7c565b336120486117e4565b6001600160a01b031614806120615750612061336112da565b61207d5760405162461bcd60e51b815260040161066390612d49565b612088600382612ae7565b604080518082018252601081526f21b7b6b83634b0b731b2a9b2ba3a32b960811b602082015290516001600160a01b03831690600080516020612fce833981519152906106ca908490612d7c565b6120df81610d1c565b80156121805750806001600160a01b031663d202158d336040516020016121069190612d35565b60408051601f198184030181529082905280516020909101206001600160e01b031960e084901b168252600482015260026024820152604401602060405180830381865afa15801561215c573d6000803e3d6000fd5b505050506040513d601f19601f820116820180604052508101906121809190612de8565b61219c5760405162461bcd60e51b815260040161066390612e86565b600860009054906101000a90046001600160a01b03166001600160a01b031663134e18f46040518163ffffffff1660e01b8152600401602060405180830381865afa1580156121ef573d6000803e3d6000fd5b505050506040513d601f19601f820116820180604052508101906122139190612dcb565b6001600160a01b0316633b3e12f46040518163ffffffff1660e01b8152600401602060405180830381865afa158015612250573d6000803e3d6000fd5b505050506040513d601f19601f820116820180604052508101906122749190612dcb565b6001600160a01b031663c7b22551836040518263ffffffff1660e01b8152600401610be191815260200190565b336122aa6117e4565b6001600160a01b031614806122c357506122c3336112da565b6122df5760405162461bcd60e51b815260040161066390612d49565b6122ea600582612950565b604080518082018252601481527321b630b4b6a932b3b4b9ba393ca6b0b730b3b2b960611b602082015290516001600160a01b03831690600080516020612fae833981519152906106ca908490612d7c565b336123456117e4565b6001600160a01b0316148061235e575061235e336112da565b61237a5760405162461bcd60e51b815260040161066390612d49565b600860009054906101000a90046001600160a01b03166001600160a01b031663134e18f46040518163ffffffff1660e01b8152600401602060405180830381865afa15801561077a573d6000803e3d6000fd5b6123d68161156a565b80156124775750806001600160a01b031663d202158d336040516020016123fd9190612d35565b60408051601f198184030181529082905280516020909101206001600160e01b031960e084901b168252600482015260026024820152604401602060405180830381865afa158015612453573d6000803e3d6000fd5b505050506040513d601f19601f820116820180604052508101906124779190612de8565b6124935760405162461bcd60e51b815260040161066390612f62565b600860009054906101000a90046001600160a01b03166001600160a01b031663134e18f46040518163ffffffff1660e01b8152600401602060405180830381865afa1580156124e6573d6000803e3d6000fd5b505050506040513d601f19601f8201168201806040525081019061250a9190612dcb565b6001600160a01b031663670af6a9836040518263ffffffff1660e01b8152600401610be19190612d35565b61253e8161156a565b80156125df5750806001600160a01b031663d202158d336040516020016125659190612d35565b60408051601f198184030181529082905280516020909101206001600160e01b031960e084901b168252600482015260026024820152604401602060405180830381865afa1580156125bb573d6000803e3d6000fd5b505050506040513d601f19601f820116820180604052508101906125df9190612de8565b6125fb5760405162461bcd60e51b815260040161066390612f62565b600860009054906101000a90046001600160a01b03166001600160a01b031663134e18f46040518163ffffffff1660e01b8152600401602060405180830381865afa15801561264e573d6000803e3d6000fd5b505050506040513d601f19601f820116820180604052508101906126729190612dcb565b6001600160a01b031663e744d789836040518263ffffffff1660e01b8152600401610be19190612d35565b6126a5612a65565b6001600160a01b0381166126cf576000604051631e4fbdf760e01b81526004016106639190612d35565b6126d881612a97565b50565b336126e46117e4565b6001600160a01b031614806126fd57506126fd336112da565b6127195760405162461bcd60e51b815260040161066390612d49565b612724600582612ae7565b604080518082018252601481527321b630b4b6a932b3b4b9ba393ca6b0b730b3b2b960611b602082015290516001600160a01b03831690600080516020612fce833981519152906106ca908490612d7c565b61277f81612943565b80156128205750806001600160a01b031663d202158d336040516020016127a69190612d35565b60408051601f198184030181529082905280516020909101206001600160e01b031960e084901b168252600482015260026024820152604401602060405180830381865afa1580156127fc573d6000803e3d6000fd5b505050506040513d601f19601f820116820180604052508101906128209190612de8565b61283c5760405162461bcd60e51b815260040161066390612ece565b600860009054906101000a90046001600160a01b03166001600160a01b031663134e18f46040518163ffffffff1660e01b8152600401602060405180830381865afa15801561288f573d6000803e3d6000fd5b505050506040513d601f19601f820116820180604052508101906128b39190612dcb565b6001600160a01b031663b4f3fcb76040518163ffffffff1660e01b8152600401602060405180830381865afa1580156128f0573d6000803e3d6000fd5b505050506040513d601f19601f820116820180604052508101906129149190612dcb565b6001600160a01b0316639f63ea988585856040518463ffffffff1660e01b815260040161102593929190612f18565b60006106e36006836129d2565b61295a82826129d2565b6129b05760405162461bcd60e51b815260206004820152602160248201527f526f6c65733a206163636f756e7420646f6573206e6f74206861766520726f6c6044820152606560f81b6064820152608401610663565b6001600160a01b0316600090815260209190915260409020805460ff19169055565b60006001600160a01b038216612a355760405162461bcd60e51b815260206004820152602260248201527f526f6c65733a206163636f756e7420697320746865207a65726f206164647265604482015261737360f01b6064820152608401610663565b506001600160a01b03166000908152602091909152604090205460ff1690565b6000600482106106e35750503590565b33612a6e6117e4565b6001600160a01b031614611396573360405163118cdaa760e01b81526004016106639190612d35565b600080546001600160a01b038381166001600160a01b0319831681178455604051919092169283917f8be0079c531659141344cd1fd0a4f28419497f9722a3daafe3b4186f6b6457e09190a35050565b612af182826129d2565b15612b3e5760405162461bcd60e51b815260206004820152601f60248201527f526f6c65733a206163636f756e7420616c72656164792068617320726f6c65006044820152606401610663565b6001600160a01b0316600090815260209190915260409020805460ff19166001179055565b6001600160a01b03811681146126d857600080fd5b600060208284031215612b8a57600080fd5b8135612b9581612b63565b9392505050565b60008083601f840112612bae57600080fd5b50813567ffffffffffffffff811115612bc657600080fd5b602083019150836020828501011115612bde57600080fd5b9250929050565b600080600060408486031215612bfa57600080fd5b833567ffffffffffffffff811115612c1157600080fd5b612c1d86828701612b9c565b9094509250506020840135612c3181612b63565b809150509250925092565b60008060408385031215612c4f57600080fd5b823591506020830135612c6181612b63565b809150509250929050565b60008060008060608587031215612c8257600080fd5b8435612c8d81612b63565b9350602085013567ffffffffffffffff80821115612caa57600080fd5b818701915087601f830112612cbe57600080fd5b813581811115612ccd57600080fd5b8860208260051b8501011115612ce257600080fd5b6020830195508094505050506040850135612cfc81612b63565b939692955090935050565b60008060408385031215612d1a57600080fd5b8235612d2581612b63565b91506020830135612c6181612b63565b6001600160a01b0391909116815260200190565b6020808252601990820152782937b6329d1029b2b73232b91034b9902727aa1020b236b4b760391b604082015260600190565b60006020808352835180602085015260005b81811015612daa57858101830151858201604001528201612d8e565b506000604082860101526040601f19601f8301168501019250505092915050565b600060208284031215612ddd57600080fd5b8151612b9581612b63565b600060208284031215612dfa57600080fd5b81518015158114612b9557600080fd5b6020808252602d908201527f526f6c653a2053656e646572206973204e4f5420546f6b656e20496e666f726d60408201526c30ba34b7b71026b0b730b3b2b960991b606082015260800190565b60208152816020820152818360408301376000818301604090810191909152601f909201601f19160101919050565b60208082526028908201527f526f6c653a2053656e646572206973204e4f5420436c61696d526567697374726040820152673ca6b0b730b3b2b960c11b606082015260800190565b6020808252602a908201527f526f6c653a2053656e646572206973204e4f54204973737565727352656769736040820152693a393ca6b0b730b3b2b960b11b606082015260800190565b6001600160a01b0384168152604060208201819052810182905260006001600160fb1b03831115612f4857600080fd5b8260051b8085606085013791909101606001949350505050565b6020808252602b908201527f526f6c653a2053656e646572206973204e4f542052656769737472792041646460408201526a3932b9b99029b2ba3a32b960a91b60608201526080019056fed211483f91fc6eff862467f8de606587a30c8fc9981056f051b897a418df803abfec83d64eaa953f2708271a023ab9ee82057f8f3578d548c1a4ba0b5b700489a26469706673582212202dc1252289de1c234be5ce19a867bd02fa797cb8e58082be1bd9817a3a8c982d64736f6c63430008180033",
  "linkReferences": {},
  "deployedLinkReferences": {}
}