{
  "_format": "hh-sol-artifact-1",
  "contractName": "OwnerRoles",
  "sourceName": "contracts/erc3643/roles/permissioning/owner/OwnerRoles.sol",
  "abi": [
    {
      "inputs": [],
      "stateMutability": "nonpayable",
      "type": "constructor"
    },
    {
      "inputs": [
        {
          "internalType": "address",
          "name": "owner",
          "type": "address"
        }
      ],
      "name": "OwnableInvalidOwner",
      "type": "error"
    },
    {
      "inputs": [
        {
          "internalType": "address",
          "name": "account",
          "type": "address"
        }
      ],
      "name": "OwnableUnauthorizedAccount",
      "type": "error"
    },
    {
      "anonymous": false,
      "inputs": [
        {
          "indexed": true,
          "internalType": "address",
          "name": "previousOwner",
          "type": "address"
        },
        {
          "indexed": true,
          "internalType": "address",
          "name": "newOwner",
          "type": "address"
        }
      ],
      "name": "OwnershipTransferred",
      "type": "event"
    },
    {
      "anonymous": false,
      "inputs": [
        {
          "indexed": true,
          "internalType": "address",
          "name": "_owner",
          "type": "address"
        },
        {
          "indexed": false,
          "internalType": "string",
          "name": "_role",
          "type": "string"
        }
      ],
      "name": "RoleAdded",
      "type": "event"
    },
    {
      "anonymous": false,
      "inputs": [
        {
          "indexed": true,
          "internalType": "address",
          "name": "_owner",
          "type": "address"
        },
        {
          "indexed": false,
          "internalType": "string",
          "name": "_role",
          "type": "string"
        }
      ],
      "name": "RoleRemoved",
      "type": "event"
    },
    {
      "inputs": [
        {
          "internalType": "address",
          "name": "_owner",
          "type": "address"
        }
      ],
      "name": "addClaimRegistryManager",
      "outputs": [],
      "stateMutability": "nonpayable",
      "type": "function"
    },
    {
      "inputs": [
        {
          "internalType": "address",
          "name": "_owner",
          "type": "address"
        }
      ],
      "name": "addComplianceManager",
      "outputs": [],
      "stateMutability": "nonpayable",
      "type": "function"
    },
    {
      "inputs": [
        {
          "internalType": "address",
          "name": "_owner",
          "type": "address"
        }
      ],
      "name": "addComplianceSetter",
      "outputs": [],
      "stateMutability": "nonpayable",
      "type": "function"
    },
    {
      "inputs": [
        {
          "internalType": "address",
          "name": "_owner",
          "type": "address"
        }
      ],
      "name": "addIssuersRegistryManager",
      "outputs": [],
      "stateMutability": "nonpayable",
      "type": "function"
    },
    {
      "inputs": [
        {
          "internalType": "address",
          "name": "_owner",
          "type": "address"
        }
      ],
      "name": "addOwnerAdmin",
      "outputs": [],
      "stateMutability": "nonpayable",
      "type": "function"
    },
    {
      "inputs": [
        {
          "internalType": "address",
          "name": "_owner",
          "type": "address"
        }
      ],
      "name": "addRegistryAddressSetter",
      "outputs": [],
      "stateMutability": "nonpayable",
      "type": "function"
    },
    {
      "inputs": [
        {
          "internalType": "address",
          "name": "_owner",
          "type": "address"
        }
      ],
      "name": "addTokenInfoManager",
      "outputs": [],
      "stateMutability": "nonpayable",
      "type": "function"
    },
    {
      "inputs": [
        {
          "internalType": "address",
          "name": "_owner",
          "type": "address"
        }
      ],
      "name": "isClaimRegistryManager",
      "outputs": [
        {
          "internalType": "bool",
          "name": "",
          "type": "bool"
        }
      ],
      "stateMutability": "view",
      "type": "function"
    },
    {
      "inputs": [
        {
          "internalType": "address",
          "name": "_owner",
          "type": "address"
        }
      ],
      "name": "isComplianceManager",
      "outputs": [
        {
          "internalType": "bool",
          "name": "",
          "type": "bool"
        }
      ],
      "stateMutability": "view",
      "type": "function"
    },
    {
      "inputs": [
        {
          "internalType": "address",
          "name": "_owner",
          "type": "address"
        }
      ],
      "name": "isComplianceSetter",
      "outputs": [
        {
          "internalType": "bool",
          "name": "",
          "type": "bool"
        }
      ],
      "stateMutability": "view",
      "type": "function"
    },
    {
      "inputs": [
        {
          "internalType": "address",
          "name": "_owner",
          "type": "address"
        }
      ],
      "name": "isIssuersRegistryManager",
      "outputs": [
        {
          "internalType": "bool",
          "name": "",
          "type": "bool"
        }
      ],
      "stateMutability": "view",
      "type": "function"
    },
    {
      "inputs": [
        {
          "internalType": "address",
          "name": "_owner",
          "type": "address"
        }
      ],
      "name": "isOwnerAdmin",
      "outputs": [
        {
          "internalType": "bool",
          "name": "",
          "type": "bool"
        }
      ],
      "stateMutability": "view",
      "type": "function"
    },
    {
      "inputs": [
        {
          "internalType": "address",
          "name": "_owner",
          "type": "address"
        }
      ],
      "name": "isRegistryAddressSetter",
      "outputs": [
        {
          "internalType": "bool",
          "name": "",
          "type": "bool"
        }
      ],
      "stateMutability": "view",
      "type": "function"
    },
    {
      "inputs": [
        {
          "internalType": "address",
          "name": "_owner",
          "type": "address"
        }
      ],
      "name": "isTokenInfoManager",
      "outputs": [
        {
          "internalType": "bool",
          "name": "",
          "type": "bool"
        }
      ],
      "stateMutability": "view",
      "type": "function"
    },
    {
      "inputs": [],
      "name": "owner",
      "outputs": [
        {
          "internalType": "address",
          "name": "",
          "type": "address"
        }
      ],
      "stateMutability": "view",
      "type": "function"
    },
    {
      "inputs": [
        {
          "internalType": "address",
          "name": "_owner",
          "type": "address"
        }
      ],
      "name": "removeClaimRegistryManager",
      "outputs": [],
      "stateMutability": "nonpayable",
      "type": "function"
    },
    {
      "inputs": [
        {
          "internalType": "address",
          "name": "_owner",
          "type": "address"
        }
      ],
      "name": "removeComplianceManager",
      "outputs": [],
      "stateMutability": "nonpayable",
      "type": "function"
    },
    {
      "inputs": [
        {
          "internalType": "address",
          "name": "_owner",
          "type": "address"
        }
      ],
      "name": "removeComplianceSetter",
      "outputs": [],
      "stateMutability": "nonpayable",
      "type": "function"
    },
    {
      "inputs": [
        {
          "internalType": "address",
          "name": "_owner",
          "type": "address"
        }
      ],
      "name": "removeIssuersRegistryManager",
      "outputs": [],
      "stateMutability": "nonpayable",
      "type": "function"
    },
    {
      "inputs": [
        {
          "internalType": "address",
          "name": "_owner",
          "type": "address"
        }
      ],
      "name": "removeOwnerAdmin",
      "outputs": [],
      "stateMutability": "nonpayable",
      "type": "function"
    },
    {
      "inputs": [
        {
          "internalType": "address",
          "name": "_owner",
          "type": "address"
        }
      ],
      "name": "removeRegistryAddressSetter",
      "outputs": [],
      "stateMutability": "nonpayable",
      "type": "function"
    },
    {
      "inputs": [
        {
          "internalType": "address",
          "name": "_owner",
          "type": "address"
        }
      ],
      "name": "removeTokenInfoManager",
      "outputs": [],
      "stateMutability": "nonpayable",
      "type": "function"
    },
    {
      "inputs": [],
      "name": "renounceOwnership",
      "outputs": [],
      "stateMutability": "nonpayable",
      "type": "function"
    },
    {
      "inputs": [
        {
          "internalType": "address",
          "name": "newOwner",
          "type": "address"
        }
      ],
      "name": "transferOwnership",
      "outputs": [],
      "stateMutability": "nonpayable",
      "type": "function"
    }
  ],
  "bytecode": "0x608060405234801561001057600080fd5b50338061003757604051631e4fbdf760e01b81526000600482015260240160405180910390fd5b61004081610046565b50610096565b600080546001600160a01b038381166001600160a01b0319831681178455604051919092169283917f8be0079c531659141344cd1fd0a4f28419497f9722a3daafe3b4186f6b6457e09190a35050565b610f9f806100a56000396000f3fe608060405234801561001057600080fd5b50600436106101585760003560e01c8063882fc6ca116100c3578063ae5aaa3b1161007c578063ae5aaa3b146102c1578063ce4bdac7146102d4578063e110255b146102e7578063f2fde38b146102fa578063faed696a1461030d578063ff8063111461032057600080fd5b8063882fc6ca1461024d5780638da5cb5b14610260578063934b2da41461027557806394e69f1b14610288578063a66bcc1c1461029b578063ac95fc91146102ae57600080fd5b806346b686f81161011557806346b686f8146101e657806354b9797f146101f957806362cdd4821461020c5780636ff7bff71461021f578063715018a614610232578063828709371461023a57600080fd5b8063039ec2cd1461015d57806303ff5014146101725780632447e50b1461019a5780633ba7c75e146101ad5780633c734ce8146101c057806340522554146101d3575b600080fd5b61017061016b366004610e63565b610333565b005b610185610180366004610e63565b6103e4565b60405190151581526020015b60405180910390f35b6101856101a8366004610e63565b6103f7565b6101856101bb366004610e63565b610404565b6101856101ce366004610e63565b610411565b6101706101e1366004610e63565b61041e565b6101706101f4366004610e63565b6104b5565b610170610207366004610e63565b61054d565b61018561021a366004610e63565b6105de565b61017061022d366004610e63565b6105eb565b610170610688565b610185610248366004610e63565b61069c565b61017061025b366004610e63565b6106a9565b610268610740565b6040516101919190610e93565b610170610283366004610e63565b61074f565b610170610296366004610e63565b6107e0565b6101706102a9366004610e63565b610877565b6101706102bc366004610e63565b61090f565b6101706102cf366004610e63565b6109ac565b6101706102e2366004610e63565b610a48565b6101706102f5366004610e63565b610adf565b610170610308366004610e63565b610b7a565b61017061031b366004610e63565b610bb8565b61018561032e366004610e63565b610c53565b3361033c610740565b6001600160a01b031614806103555750610355336105de565b61037a5760405162461bcd60e51b815260040161037190610ea7565b60405180910390fd5b610385600282610c60565b60408051808201825260158152742932b3b4b9ba393ca0b2323932b9b9a9b2ba3a32b960591b602082015290516001600160a01b03831690600080516020610f2a833981519152906103d8908490610eda565b60405180910390a25050565b60006103f1600483610ce2565b92915050565b60006103f1600783610ce2565b60006103f1600383610ce2565b60006103f1600583610ce2565b33610427610740565b6001600160a01b031614806104405750610440336105de565b61045c5760405162461bcd60e51b815260040161037190610ea7565b610467600382610c60565b604080518082018252601081526f21b7b6b83634b0b731b2a9b2ba3a32b960811b602082015290516001600160a01b03831690600080516020610f2a833981519152906103d8908490610eda565b336104be610740565b6001600160a01b031614806104d757506104d7336105de565b6104f35760405162461bcd60e51b815260040161037190610ea7565b6104fe600482610c60565b604080518082018252601181527021b7b6b83634b0b731b2a6b0b730b3b2b960791b602082015290516001600160a01b03831690600080516020610f2a833981519152906103d8908490610eda565b33610556610740565b6001600160a01b0316148061056f575061056f336105de565b61058b5760405162461bcd60e51b815260040161037190610ea7565b610596600182610c60565b604080518082018252600a81526927bbb732b920b236b4b760b11b602082015290516001600160a01b03831690600080516020610f2a833981519152906103d8908490610eda565b60006103f1600183610ce2565b336105f4610740565b6001600160a01b0316148061060d575061060d336105de565b6106295760405162461bcd60e51b815260040161037190610ea7565b610634600682610c60565b604080518082018252601681527524b9b9bab2b939a932b3b4b9ba393ca6b0b730b3b2b960511b602082015290516001600160a01b03831690600080516020610f2a833981519152906103d8908490610eda565b610690610d65565b61069a6000610d97565b565b60006103f1600283610ce2565b336106b2610740565b6001600160a01b031614806106cb57506106cb336105de565b6106e75760405162461bcd60e51b815260040161037190610ea7565b6106f2600782610c60565b604080518082018252601081526f2a37b5b2b724b73337a6b0b730b3b2b960811b602082015290516001600160a01b03831690600080516020610f2a833981519152906103d8908490610eda565b6000546001600160a01b031690565b33610758610740565b6001600160a01b031614806107715750610771336105de565b61078d5760405162461bcd60e51b815260040161037190610ea7565b610798600182610de7565b604080518082018252600a81526927bbb732b920b236b4b760b11b602082015290516001600160a01b03831690600080516020610f4a833981519152906103d8908490610eda565b336107e9610740565b6001600160a01b031614806108025750610802336105de565b61081e5760405162461bcd60e51b815260040161037190610ea7565b610829600782610de7565b604080518082018252601081526f2a37b5b2b724b73337a6b0b730b3b2b960811b602082015290516001600160a01b03831690600080516020610f4a833981519152906103d8908490610eda565b33610880610740565b6001600160a01b031614806108995750610899336105de565b6108b55760405162461bcd60e51b815260040161037190610ea7565b6108c0600482610de7565b604080518082018252601181527021b7b6b83634b0b731b2a6b0b730b3b2b960791b602082015290516001600160a01b03831690600080516020610f4a833981519152906103d8908490610eda565b33610918610740565b6001600160a01b031614806109315750610931336105de565b61094d5760405162461bcd60e51b815260040161037190610ea7565b610958600682610de7565b604080518082018252601681527524b9b9bab2b939a932b3b4b9ba393ca6b0b730b3b2b960511b602082015290516001600160a01b03831690600080516020610f4a833981519152906103d8908490610eda565b336109b5610740565b6001600160a01b031614806109ce57506109ce336105de565b6109ea5760405162461bcd60e51b815260040161037190610ea7565b6109f5600282610de7565b60408051808201825260158152742932b3b4b9ba393ca0b2323932b9b9a9b2ba3a32b960591b602082015290516001600160a01b03831690600080516020610f4a833981519152906103d8908490610eda565b33610a51610740565b6001600160a01b03161480610a6a5750610a6a336105de565b610a865760405162461bcd60e51b815260040161037190610ea7565b610a91600382610de7565b604080518082018252601081526f21b7b6b83634b0b731b2a9b2ba3a32b960811b602082015290516001600160a01b03831690600080516020610f4a833981519152906103d8908490610eda565b33610ae8610740565b6001600160a01b03161480610b015750610b01336105de565b610b1d5760405162461bcd60e51b815260040161037190610ea7565b610b28600582610c60565b604080518082018252601481527321b630b4b6a932b3b4b9ba393ca6b0b730b3b2b960611b602082015290516001600160a01b03831690600080516020610f2a833981519152906103d8908490610eda565b610b82610d65565b6001600160a01b038116610bac576000604051631e4fbdf760e01b81526004016103719190610e93565b610bb581610d97565b50565b33610bc1610740565b6001600160a01b03161480610bda5750610bda336105de565b610bf65760405162461bcd60e51b815260040161037190610ea7565b610c01600582610de7565b604080518082018252601481527321b630b4b6a932b3b4b9ba393ca6b0b730b3b2b960611b602082015290516001600160a01b03831690600080516020610f4a833981519152906103d8908490610eda565b60006103f1600683610ce2565b610c6a8282610ce2565b610cc05760405162461bcd60e51b815260206004820152602160248201527f526f6c65733a206163636f756e7420646f6573206e6f74206861766520726f6c6044820152606560f81b6064820152608401610371565b6001600160a01b0316600090815260209190915260409020805460ff19169055565b60006001600160a01b038216610d455760405162461bcd60e51b815260206004820152602260248201527f526f6c65733a206163636f756e7420697320746865207a65726f206164647265604482015261737360f01b6064820152608401610371565b506001600160a01b03166000908152602091909152604090205460ff1690565b33610d6e610740565b6001600160a01b03161461069a573360405163118cdaa760e01b81526004016103719190610e93565b600080546001600160a01b038381166001600160a01b0319831681178455604051919092169283917f8be0079c531659141344cd1fd0a4f28419497f9722a3daafe3b4186f6b6457e09190a35050565b610df18282610ce2565b15610e3e5760405162461bcd60e51b815260206004820152601f60248201527f526f6c65733a206163636f756e7420616c72656164792068617320726f6c65006044820152606401610371565b6001600160a01b0316600090815260209190915260409020805460ff19166001179055565b600060208284031215610e7557600080fd5b81356001600160a01b0381168114610e8c57600080fd5b9392505050565b6001600160a01b0391909116815260200190565b6020808252601990820152782937b6329d1029b2b73232b91034b9902727aa1020b236b4b760391b604082015260600190565b60006020808352835180602085015260005b81811015610f0857858101830151858201604001528201610eec565b506000604082860101526040601f19601f830116850101925050509291505056fed211483f91fc6eff862467f8de606587a30c8fc9981056f051b897a418df803abfec83d64eaa953f2708271a023ab9ee82057f8f3578d548c1a4ba0b5b700489a2646970667358221220ef7d937a09573b5ae7a3bb66a19d54ddde250cc67fadefcd6c67661ae9fb76d964736f6c63430008180033",
  "linkReferences": {},
  "deployedLinkReferences": {}
}