{
  "_format": "hh-sol-artifact-1",
  "contractName": "OwnerRolesUpgradeable",
  "sourceName": "contracts/erc3643/roles/permissioning/owner/OwnerRolesUpgradeable.sol",
  "abi": [
    {
      "inputs": [],
      "name": "InvalidInitialization",
      "type": "error"
    },
    {
      "inputs": [],
      "name": "NotInitializing",
      "type": "error"
    },
    {
      "inputs": [
        {
          "internalType": "address",
          "name": "owner",
          "type": "address"
        }
      ],
      "name": "OwnableInvalidOwner",
      "type": "error"
    },
    {
      "inputs": [
        {
          "internalType": "address",
          "name": "account",
          "type": "address"
        }
      ],
      "name": "OwnableUnauthorizedAccount",
      "type": "error"
    },
    {
      "anonymous": false,
      "inputs": [
        {
          "indexed": false,
          "internalType": "uint64",
          "name": "version",
          "type": "uint64"
        }
      ],
      "name": "Initialized",
      "type": "event"
    },
    {
      "anonymous": false,
      "inputs": [
        {
          "indexed": true,
          "internalType": "address",
          "name": "previousOwner",
          "type": "address"
        },
        {
          "indexed": true,
          "internalType": "address",
          "name": "newOwner",
          "type": "address"
        }
      ],
      "name": "OwnershipTransferred",
      "type": "event"
    },
    {
      "anonymous": false,
      "inputs": [
        {
          "indexed": true,
          "internalType": "address",
          "name": "_owner",
          "type": "address"
        },
        {
          "indexed": false,
          "internalType": "string",
          "name": "_role",
          "type": "string"
        }
      ],
      "name": "RoleAdded",
      "type": "event"
    },
    {
      "anonymous": false,
      "inputs": [
        {
          "indexed": true,
          "internalType": "address",
          "name": "_owner",
          "type": "address"
        },
        {
          "indexed": false,
          "internalType": "string",
          "name": "_role",
          "type": "string"
        }
      ],
      "name": "RoleRemoved",
      "type": "event"
    },
    {
      "inputs": [
        {
          "internalType": "address",
          "name": "_owner",
          "type": "address"
        }
      ],
      "name": "addClaimRegistryManager",
      "outputs": [],
      "stateMutability": "nonpayable",
      "type": "function"
    },
    {
      "inputs": [
        {
          "internalType": "address",
          "name": "_owner",
          "type": "address"
        }
      ],
      "name": "addComplianceManager",
      "outputs": [],
      "stateMutability": "nonpayable",
      "type": "function"
    },
    {
      "inputs": [
        {
          "internalType": "address",
          "name": "_owner",
          "type": "address"
        }
      ],
      "name": "addComplianceSetter",
      "outputs": [],
      "stateMutability": "nonpayable",
      "type": "function"
    },
    {
      "inputs": [
        {
          "internalType": "address",
          "name": "_owner",
          "type": "address"
        }
      ],
      "name": "addIssuersRegistryManager",
      "outputs": [],
      "stateMutability": "nonpayable",
      "type": "function"
    },
    {
      "inputs": [
        {
          "internalType": "address",
          "name": "_owner",
          "type": "address"
        }
      ],
      "name": "addOwnerAdmin",
      "outputs": [],
      "stateMutability": "nonpayable",
      "type": "function"
    },
    {
      "inputs": [
        {
          "internalType": "address",
          "name": "_owner",
          "type": "address"
        }
      ],
      "name": "addRegistryAddressSetter",
      "outputs": [],
      "stateMutability": "nonpayable",
      "type": "function"
    },
    {
      "inputs": [
        {
          "internalType": "address",
          "name": "_owner",
          "type": "address"
        }
      ],
      "name": "addTokenInfoManager",
      "outputs": [],
      "stateMutability": "nonpayable",
      "type": "function"
    },
    {
      "inputs": [
        {
          "internalType": "address",
          "name": "_owner",
          "type": "address"
        }
      ],
      "name": "isClaimRegistryManager",
      "outputs": [
        {
          "internalType": "bool",
          "name": "",
          "type": "bool"
        }
      ],
      "stateMutability": "view",
      "type": "function"
    },
    {
      "inputs": [
        {
          "internalType": "address",
          "name": "_owner",
          "type": "address"
        }
      ],
      "name": "isComplianceManager",
      "outputs": [
        {
          "internalType": "bool",
          "name": "",
          "type": "bool"
        }
      ],
      "stateMutability": "view",
      "type": "function"
    },
    {
      "inputs": [
        {
          "internalType": "address",
          "name": "_owner",
          "type": "address"
        }
      ],
      "name": "isComplianceSetter",
      "outputs": [
        {
          "internalType": "bool",
          "name": "",
          "type": "bool"
        }
      ],
      "stateMutability": "view",
      "type": "function"
    },
    {
      "inputs": [
        {
          "internalType": "address",
          "name": "_owner",
          "type": "address"
        }
      ],
      "name": "isIssuersRegistryManager",
      "outputs": [
        {
          "internalType": "bool",
          "name": "",
          "type": "bool"
        }
      ],
      "stateMutability": "view",
      "type": "function"
    },
    {
      "inputs": [
        {
          "internalType": "address",
          "name": "_owner",
          "type": "address"
        }
      ],
      "name": "isOwnerAdmin",
      "outputs": [
        {
          "internalType": "bool",
          "name": "",
          "type": "bool"
        }
      ],
      "stateMutability": "view",
      "type": "function"
    },
    {
      "inputs": [
        {
          "internalType": "address",
          "name": "_owner",
          "type": "address"
        }
      ],
      "name": "isRegistryAddressSetter",
      "outputs": [
        {
          "internalType": "bool",
          "name": "",
          "type": "bool"
        }
      ],
      "stateMutability": "view",
      "type": "function"
    },
    {
      "inputs": [
        {
          "internalType": "address",
          "name": "_owner",
          "type": "address"
        }
      ],
      "name": "isTokenInfoManager",
      "outputs": [
        {
          "internalType": "bool",
          "name": "",
          "type": "bool"
        }
      ],
      "stateMutability": "view",
      "type": "function"
    },
    {
      "inputs": [],
      "name": "owner",
      "outputs": [
        {
          "internalType": "address",
          "name": "",
          "type": "address"
        }
      ],
      "stateMutability": "view",
      "type": "function"
    },
    {
      "inputs": [
        {
          "internalType": "address",
          "name": "_owner",
          "type": "address"
        }
      ],
      "name": "removeClaimRegistryManager",
      "outputs": [],
      "stateMutability": "nonpayable",
      "type": "function"
    },
    {
      "inputs": [
        {
          "internalType": "address",
          "name": "_owner",
          "type": "address"
        }
      ],
      "name": "removeComplianceManager",
      "outputs": [],
      "stateMutability": "nonpayable",
      "type": "function"
    },
    {
      "inputs": [
        {
          "internalType": "address",
          "name": "_owner",
          "type": "address"
        }
      ],
      "name": "removeComplianceSetter",
      "outputs": [],
      "stateMutability": "nonpayable",
      "type": "function"
    },
    {
      "inputs": [
        {
          "internalType": "address",
          "name": "_owner",
          "type": "address"
        }
      ],
      "name": "removeIssuersRegistryManager",
      "outputs": [],
      "stateMutability": "nonpayable",
      "type": "function"
    },
    {
      "inputs": [
        {
          "internalType": "address",
          "name": "_owner",
          "type": "address"
        }
      ],
      "name": "removeOwnerAdmin",
      "outputs": [],
      "stateMutability": "nonpayable",
      "type": "function"
    },
    {
      "inputs": [
        {
          "internalType": "address",
          "name": "_owner",
          "type": "address"
        }
      ],
      "name": "removeRegistryAddressSetter",
      "outputs": [],
      "stateMutability": "nonpayable",
      "type": "function"
    },
    {
      "inputs": [
        {
          "internalType": "address",
          "name": "_owner",
          "type": "address"
        }
      ],
      "name": "removeTokenInfoManager",
      "outputs": [],
      "stateMutability": "nonpayable",
      "type": "function"
    },
    {
      "inputs": [],
      "name": "renounceOwnership",
      "outputs": [],
      "stateMutability": "nonpayable",
      "type": "function"
    },
    {
      "inputs": [
        {
          "internalType": "address",
          "name": "newOwner",
          "type": "address"
        }
      ],
      "name": "transferOwnership",
      "outputs": [],
      "stateMutability": "nonpayable",
      "type": "function"
    }
  ],
  "bytecode": "0x608060405234801561001057600080fd5b50610fde806100206000396000f3fe608060405234801561001057600080fd5b50600436106101585760003560e01c8063882fc6ca116100c3578063ae5aaa3b1161007c578063ae5aaa3b146102c1578063ce4bdac7146102d4578063e110255b146102e7578063f2fde38b146102fa578063faed696a1461030d578063ff8063111461032057600080fd5b8063882fc6ca1461024d5780638da5cb5b14610260578063934b2da41461027557806394e69f1b14610288578063a66bcc1c1461029b578063ac95fc91146102ae57600080fd5b806346b686f81161011557806346b686f8146101e657806354b9797f146101f957806362cdd4821461020c5780636ff7bff71461021f578063715018a614610232578063828709371461023a57600080fd5b8063039ec2cd1461015d57806303ff5014146101725780632447e50b1461019a5780633ba7c75e146101ad5780633c734ce8146101c057806340522554146101d3575b600080fd5b61017061016b366004610ea2565b610333565b005b610185610180366004610ea2565b6103e4565b60405190151581526020015b60405180910390f35b6101856101a8366004610ea2565b6103f7565b6101856101bb366004610ea2565b610404565b6101856101ce366004610ea2565b610411565b6101706101e1366004610ea2565b61041e565b6101706101f4366004610ea2565b6104b5565b610170610207366004610ea2565b61054d565b61018561021a366004610ea2565b6105de565b61017061022d366004610ea2565b6105ea565b610170610687565b610185610248366004610ea2565b61069b565b61017061025b366004610ea2565b6106a8565b61026861073f565b6040516101919190610ed2565b610170610283366004610ea2565b61076d565b610170610296366004610ea2565b6107fe565b6101706102a9366004610ea2565b610895565b6101706102bc366004610ea2565b61092d565b6101706102cf366004610ea2565b6109ca565b6101706102e2366004610ea2565b610a66565b6101706102f5366004610ea2565b610afd565b610170610308366004610ea2565b610b98565b61017061031b366004610ea2565b610bd6565b61018561032e366004610ea2565b610c71565b3361033c61073f565b6001600160a01b031614806103555750610355336105de565b61037a5760405162461bcd60e51b815260040161037190610ee6565b60405180910390fd5b610385600182610c7e565b60408051808201825260158152742932b3b4b9ba393ca0b2323932b9b9a9b2ba3a32b960591b602082015290516001600160a01b03831690600080516020610f69833981519152906103d8908490610f19565b60405180910390a25050565b60006103f1600383610d00565b92915050565b60006103f1600683610d00565b60006103f1600283610d00565b60006103f1600483610d00565b3361042761073f565b6001600160a01b031614806104405750610440336105de565b61045c5760405162461bcd60e51b815260040161037190610ee6565b610467600282610c7e565b604080518082018252601081526f21b7b6b83634b0b731b2a9b2ba3a32b960811b602082015290516001600160a01b03831690600080516020610f69833981519152906103d8908490610f19565b336104be61073f565b6001600160a01b031614806104d757506104d7336105de565b6104f35760405162461bcd60e51b815260040161037190610ee6565b6104fe600382610c7e565b604080518082018252601181527021b7b6b83634b0b731b2a6b0b730b3b2b960791b602082015290516001600160a01b03831690600080516020610f69833981519152906103d8908490610f19565b3361055661073f565b6001600160a01b0316148061056f575061056f336105de565b61058b5760405162461bcd60e51b815260040161037190610ee6565b610596600082610c7e565b604080518082018252600a81526927bbb732b920b236b4b760b11b602082015290516001600160a01b03831690600080516020610f69833981519152906103d8908490610f19565b60006103f18183610d00565b336105f361073f565b6001600160a01b0316148061060c575061060c336105de565b6106285760405162461bcd60e51b815260040161037190610ee6565b610633600582610c7e565b604080518082018252601681527524b9b9bab2b939a932b3b4b9ba393ca6b0b730b3b2b960511b602082015290516001600160a01b03831690600080516020610f69833981519152906103d8908490610f19565b61068f610d83565b6106996000610db5565b565b60006103f1600183610d00565b336106b161073f565b6001600160a01b031614806106ca57506106ca336105de565b6106e65760405162461bcd60e51b815260040161037190610ee6565b6106f1600682610c7e565b604080518082018252601081526f2a37b5b2b724b73337a6b0b730b3b2b960811b602082015290516001600160a01b03831690600080516020610f69833981519152906103d8908490610f19565b7f9016d09d72d40fdae2fd8ceac6b6234c7706214fd39c1cd1e609a0528c199300546001600160a01b031690565b3361077661073f565b6001600160a01b0316148061078f575061078f336105de565b6107ab5760405162461bcd60e51b815260040161037190610ee6565b6107b6600082610e26565b604080518082018252600a81526927bbb732b920b236b4b760b11b602082015290516001600160a01b03831690600080516020610f89833981519152906103d8908490610f19565b3361080761073f565b6001600160a01b031614806108205750610820336105de565b61083c5760405162461bcd60e51b815260040161037190610ee6565b610847600682610e26565b604080518082018252601081526f2a37b5b2b724b73337a6b0b730b3b2b960811b602082015290516001600160a01b03831690600080516020610f89833981519152906103d8908490610f19565b3361089e61073f565b6001600160a01b031614806108b757506108b7336105de565b6108d35760405162461bcd60e51b815260040161037190610ee6565b6108de600382610e26565b604080518082018252601181527021b7b6b83634b0b731b2a6b0b730b3b2b960791b602082015290516001600160a01b03831690600080516020610f89833981519152906103d8908490610f19565b3361093661073f565b6001600160a01b0316148061094f575061094f336105de565b61096b5760405162461bcd60e51b815260040161037190610ee6565b610976600582610e26565b604080518082018252601681527524b9b9bab2b939a932b3b4b9ba393ca6b0b730b3b2b960511b602082015290516001600160a01b03831690600080516020610f89833981519152906103d8908490610f19565b336109d361073f565b6001600160a01b031614806109ec57506109ec336105de565b610a085760405162461bcd60e51b815260040161037190610ee6565b610a13600182610e26565b60408051808201825260158152742932b3b4b9ba393ca0b2323932b9b9a9b2ba3a32b960591b602082015290516001600160a01b03831690600080516020610f89833981519152906103d8908490610f19565b33610a6f61073f565b6001600160a01b03161480610a885750610a88336105de565b610aa45760405162461bcd60e51b815260040161037190610ee6565b610aaf600282610e26565b604080518082018252601081526f21b7b6b83634b0b731b2a9b2ba3a32b960811b602082015290516001600160a01b03831690600080516020610f89833981519152906103d8908490610f19565b33610b0661073f565b6001600160a01b03161480610b1f5750610b1f336105de565b610b3b5760405162461bcd60e51b815260040161037190610ee6565b610b46600482610c7e565b604080518082018252601481527321b630b4b6a932b3b4b9ba393ca6b0b730b3b2b960611b602082015290516001600160a01b03831690600080516020610f69833981519152906103d8908490610f19565b610ba0610d83565b6001600160a01b038116610bca576000604051631e4fbdf760e01b81526004016103719190610ed2565b610bd381610db5565b50565b33610bdf61073f565b6001600160a01b03161480610bf85750610bf8336105de565b610c145760405162461bcd60e51b815260040161037190610ee6565b610c1f600482610e26565b604080518082018252601481527321b630b4b6a932b3b4b9ba393ca6b0b730b3b2b960611b602082015290516001600160a01b03831690600080516020610f89833981519152906103d8908490610f19565b60006103f1600583610d00565b610c888282610d00565b610cde5760405162461bcd60e51b815260206004820152602160248201527f526f6c65733a206163636f756e7420646f6573206e6f74206861766520726f6c6044820152606560f81b6064820152608401610371565b6001600160a01b0316600090815260209190915260409020805460ff19169055565b60006001600160a01b038216610d635760405162461bcd60e51b815260206004820152602260248201527f526f6c65733a206163636f756e7420697320746865207a65726f206164647265604482015261737360f01b6064820152608401610371565b506001600160a01b03166000908152602091909152604090205460ff1690565b33610d8c61073f565b6001600160a01b031614610699573360405163118cdaa760e01b81526004016103719190610ed2565b7f9016d09d72d40fdae2fd8ceac6b6234c7706214fd39c1cd1e609a0528c19930080546001600160a01b031981166001600160a01b03848116918217845560405192169182907f8be0079c531659141344cd1fd0a4f28419497f9722a3daafe3b4186f6b6457e090600090a3505050565b610e308282610d00565b15610e7d5760405162461bcd60e51b815260206004820152601f60248201527f526f6c65733a206163636f756e7420616c72656164792068617320726f6c65006044820152606401610371565b6001600160a01b0316600090815260209190915260409020805460ff19166001179055565b600060208284031215610eb457600080fd5b81356001600160a01b0381168114610ecb57600080fd5b9392505050565b6001600160a01b0391909116815260200190565b6020808252601990820152782937b6329d1029b2b73232b91034b9902727aa1020b236b4b760391b604082015260600190565b60006020808352835180602085015260005b81811015610f4757858101830151858201604001528201610f2b565b506000604082860101526040601f19601f830116850101925050509291505056fed211483f91fc6eff862467f8de606587a30c8fc9981056f051b897a418df803abfec83d64eaa953f2708271a023ab9ee82057f8f3578d548c1a4ba0b5b700489a26469706673582212208e6574e3cf64869cc01e660d5e977339058b4c1a1478d74b57788383d1bc695664736f6c63430008180033",
  "linkReferences": {},
  "deployedLinkReferences": {}
}