{
  "_format": "hh-sol-artifact-1",
  "contractName": "SliceFactory",
  "sourceName": "contracts/slice/factory/SliceFactory.sol",
  "abi": [
    {
      "inputs": [],
      "stateMutability": "nonpayable",
      "type": "constructor"
    },
    {
      "inputs": [
        {
          "internalType": "address",
          "name": "owner",
          "type": "address"
        }
      ],
      "name": "OwnableInvalidOwner",
      "type": "error"
    },
    {
      "inputs": [
        {
          "internalType": "address",
          "name": "account",
          "type": "address"
        }
      ],
      "name": "OwnableUnauthorizedAccount",
      "type": "error"
    },
    {
      "anonymous": false,
      "inputs": [
        {
          "indexed": true,
          "internalType": "address",
          "name": "previousOwner",
          "type": "address"
        },
        {
          "indexed": true,
          "internalType": "address",
          "name": "newOwner",
          "type": "address"
        }
      ],
      "name": "OwnershipTransferred",
      "type": "event"
    },
    {
      "anonymous": false,
      "inputs": [
        {
          "indexed": true,
          "internalType": "address",
          "name": "slice",
          "type": "address"
        },
        {
          "indexed": false,
          "internalType": "address",
          "name": "uniswapRouter",
          "type": "address"
        },
        {
          "indexed": false,
          "internalType": "address",
          "name": "usdc",
          "type": "address"
        }
      ],
      "name": "SliceDeployed",
      "type": "event"
    },
    {
      "inputs": [
        {
          "internalType": "string",
          "name": "salt",
          "type": "string"
        },
        {
          "components": [
            {
              "internalType": "address",
              "name": "uniswapRouter",
              "type": "address"
            },
            {
              "internalType": "address",
              "name": "usdc",
              "type": "address"
            },
            {
              "internalType": "string",
              "name": "name",
              "type": "string"
            },
            {
              "internalType": "string",
              "name": "symbol",
              "type": "string"
            },
            {
              "internalType": "string",
              "name": "metadataUri",
              "type": "string"
            }
          ],
          "internalType": "struct ISliceFactory.SliceDetails",
          "name": "sliceDetails",
          "type": "tuple"
        }
      ],
      "name": "deploySlice",
      "outputs": [
        {
          "internalType": "address",
          "name": "slice",
          "type": "address"
        }
      ],
      "stateMutability": "nonpayable",
      "type": "function"
    },
    {
      "inputs": [],
      "name": "owner",
      "outputs": [
        {
          "internalType": "address",
          "name": "",
          "type": "address"
        }
      ],
      "stateMutability": "view",
      "type": "function"
    },
    {
      "inputs": [],
      "name": "renounceOwnership",
      "outputs": [],
      "stateMutability": "nonpayable",
      "type": "function"
    },
    {
      "inputs": [
        {
          "internalType": "bytes4",
          "name": "interfaceId",
          "type": "bytes4"
        }
      ],
      "name": "supportsInterface",
      "outputs": [
        {
          "internalType": "bool",
          "name": "",
          "type": "bool"
        }
      ],
      "stateMutability": "view",
      "type": "function"
    },
    {
      "inputs": [
        {
          "internalType": "address",
          "name": "newOwner",
          "type": "address"
        }
      ],
      "name": "transferOwnership",
      "outputs": [],
      "stateMutability": "nonpayable",
      "type": "function"
    }
  ],
  "bytecode": "0x608060405234801561001057600080fd5b50338061003757604051631e4fbdf760e01b81526000600482015260240160405180910390fd5b61004081610046565b50610096565b600080546001600160a01b038381166001600160a01b0319831681178455604051919092169283917f8be0079c531659141344cd1fd0a4f28419497f9722a3daafe3b4186f6b6457e09190a35050565b613dc2806100a56000396000f3fe60806040523480156200001157600080fd5b50600436106200005e5760003560e01c806301ffc9a714620000635780636bcaa0ee146200008f578063715018a614620000b55780638da5cb5b14620000c1578063f2fde38b14620000d3575b600080fd5b6200007a620000743660046200065f565b620000ea565b60405190151581526020015b60405180910390f35b620000a6620000a036600462000692565b62000122565b60405162000086919062000734565b620000bf6200043a565b005b6000546001600160a01b0316620000a6565b620000bf620000e436600462000748565b62000452565b60006001600160e01b031982166335e5507760e11b14806200011c57506301ffc9a760e01b6001600160e01b03198316145b92915050565b6000806001600160a01b0316600185856040516200014292919062000773565b908152604051908190036020019020546001600160a01b031614620001ba5760405162461bcd60e51b8152602060048201526024808201527f536c696365466163746f72793a20536c69636520616c7265616479206465706c6044820152631bde595960e21b60648201526084015b60405180910390fd5b6000620001cb602084018462000748565b6001600160a01b031603620002385760405162461bcd60e51b815260206004820152602c60248201527f536c696365466163746f72793a20496e76616c696420556e697377617020526f60448201526b75746572206164647265737360a01b6064820152608401620001b1565b60006200024c604084016020850162000748565b6001600160a01b031603620002af5760405162461bcd60e51b815260206004820152602260248201527f536c696365466163746f72793a20496e76616c69642055534443206164647265604482015261737360f01b6064820152608401620001b1565b620002be608083018362000783565b90506000036200031c5760405162461bcd60e51b815260206004820152602260248201527f536c696365466163746f72793a20496e76616c6964206d657461646174612055604482015261524960f01b6064820152608401620001b1565b6200032984848462000497565b905080600185856040516200034092919062000773565b90815260405190819003602001812080546001600160a01b039384166001600160a01b031990911617905563f2fde38b60e01b81529082169063f2fde38b906200038f90339060040162000734565b600060405180830381600087803b158015620003aa57600080fd5b505af1158015620003bf573d6000803e3d6000fd5b5050506001600160a01b03821690507f161ecf73e3bfe9baee592d61843de85e606e927fa437c4355182cde715d72a92620003fe602085018562000748565b62000410604086016020870162000748565b604080516001600160a01b0393841681529290911660208301520160405180910390a29392505050565b620004446200057b565b620004506000620005ab565b565b6200045c6200057b565b6001600160a01b03811662000489576000604051631e4fbdf760e01b8152600401620001b1919062000734565b6200049481620005ab565b50565b60008060405180602001620004ac9062000651565b601f1982820381018352601f9091011660405290506000620004d2602085018562000748565b620004e4604086016020870162000748565b620004f3604087018762000783565b62000502606089018962000783565b6200051160808b018b62000783565b6040516020016200052a989796959493929190620007fd565b6040516020818303038152906040529050600082826040516020016200055292919062000899565b604051602081830303815290604052905062000570878783620005fb565b979650505050505050565b6000546001600160a01b0316331462000450573360405163118cdaa760e01b8152600401620001b1919062000734565b600080546001600160a01b038381166001600160a01b0319831681178455604051919092169283917f8be0079c531659141344cd1fd0a4f28419497f9722a3daafe3b4186f6b6457e09190a35050565b60008084846040516020016200061392919062000773565b604051602081830303815290604052805190602001209050600083602001845183818334f592505050803b6200064857600080fd5b95945050505050565b6134d280620008bb83390190565b6000602082840312156200067257600080fd5b81356001600160e01b0319811681146200068b57600080fd5b9392505050565b600080600060408486031215620006a857600080fd5b833567ffffffffffffffff80821115620006c157600080fd5b818601915086601f830112620006d657600080fd5b813581811115620006e657600080fd5b876020828501011115620006f957600080fd5b6020928301955093509085013590808211156200071557600080fd5b50840160a081870312156200072957600080fd5b809150509250925092565b6001600160a01b0391909116815260200190565b6000602082840312156200075b57600080fd5b81356001600160a01b03811681146200068b57600080fd5b8183823760009101908152919050565b6000808335601e198436030181126200079b57600080fd5b83018035915067ffffffffffffffff821115620007b757600080fd5b602001915036819003821315620007cd57600080fd5b9250929050565b81835281816020850137506000828201602090810191909152601f909101601f19169091010190565b6001600160a01b0389811682528816602082015260a0604082018190526000906200082c908301888a620007d4565b828103606084015262000841818789620007d4565b9050828103608084015262000858818587620007d4565b9b9a5050505050505050505050565b6000815160005b818110156200088a57602081850181015186830152016200086e565b50600093019283525090919050565b6000620008b2620008ab838662000867565b8462000867565b94935050505056fe60806040523480156200001157600080fd5b50604051620034d2380380620034d283398101604081905262000034916200032f565b338383600362000045838262000478565b50600462000054828262000478565b5050506001600160a01b0381166200008757604051631e4fbdf760e01b8152600060048201526024015b60405180910390fd5b6200009281620001f8565b506001600160a01b038516620000f95760405162461bcd60e51b815260206004820152602560248201527f536c6963653a20496e76616c696420556e697377617020726f75746572206164604482015264647265737360d81b60648201526084016200007e565b6001600160a01b0384166200015b5760405162461bcd60e51b815260206004820152602160248201527f536c6963653a20496e76616c6964205553444320746f6b656e206164647265736044820152607360f81b60648201526084016200007e565b8051600003620001ae5760405162461bcd60e51b815260206004820152601b60248201527f536c6963653a20496e76616c6964206d6574616461746120555249000000000060448201526064016200007e565b600880546001600160a01b038088166001600160a01b03199283161790925560098054928716929091169190911790556006620001ec828262000478565b50505050505062000544565b600580546001600160a01b038381166001600160a01b0319831681179093556040519116919082907f8be0079c531659141344cd1fd0a4f28419497f9722a3daafe3b4186f6b6457e090600090a35050565b80516001600160a01b03811681146200026257600080fd5b919050565b634e487b7160e01b600052604160045260246000fd5b600082601f8301126200028f57600080fd5b81516001600160401b0380821115620002ac57620002ac62000267565b604051601f8301601f19908116603f01168101908282118183101715620002d757620002d762000267565b8160405283815260209250866020858801011115620002f557600080fd5b600091505b83821015620003195785820183015181830184015290820190620002fa565b6000602085830101528094505050505092915050565b600080600080600060a086880312156200034857600080fd5b62000353866200024a565b945062000363602087016200024a565b60408701519094506001600160401b03808211156200038157600080fd5b6200038f89838a016200027d565b94506060880151915080821115620003a657600080fd5b620003b489838a016200027d565b93506080880151915080821115620003cb57600080fd5b50620003da888289016200027d565b9150509295509295909350565b600181811c90821680620003fc57607f821691505b6020821081036200041d57634e487b7160e01b600052602260045260246000fd5b50919050565b601f82111562000473576000816000526020600020601f850160051c810160208610156200044e5750805b601f850160051c820191505b818110156200046f578281556001016200045a565b5050505b505050565b81516001600160401b0381111562000494576200049462000267565b620004ac81620004a58454620003e7565b8462000423565b602080601f831160018114620004e45760008415620004cb5750858301515b600019600386901b1c1916600185901b1785556200046f565b600085815260208120601f198616915b828110156200051557888601518255948401946001909101908401620004f4565b5085821015620005345787850151600019600388901b60f8161c191681555b5050505050600190811b01905550565b612f7e80620005546000396000f3fe608060405234801561001057600080fd5b506004361061016e5760003560e01c806377a4d559116100ce578063a9059cbb11610087578063a9059cbb14610312578063c358234b14610325578063c55dae631461033a578063d9cde4a314610342578063dd62ed3e14610355578063e7078f9214610368578063f2fde38b1461037b57600080fd5b806377a4d559146102b65780637d7c2a1c146102be5780638d0fac76146102c65780638da5cb5b146102e657806395d89b41146102f7578063a1c3d3de146102ff57600080fd5b80631fd48b9a1161012b5780631fd48b9a1461020457806323b872dd146102305780632e1a7d4d14610243578063313ce5671461026357806347e7ef241461027257806370a0823114610285578063715018a6146102ae57600080fd5b806301ffc9a71461017357806306fdde031461019b578063095ea7b3146101b05780630cd950fd146101c35780631694505e146101d857806318160ddd146101f2575b600080fd5b61018661018136600461275b565b61038e565b60405190151581526020015b60405180910390f35b6101a36103c5565b60405161019291906127a9565b6101866101be3660046127f1565b610457565b6101d66101d1366004612834565b61046f565b005b6008546001600160a01b03165b604051610192919061287b565b6002545b604051908152602001610192565b6101e561021236600461288f565b6001600160a01b039081166000908152600a60205260409020541690565b61018661023e3660046128ac565b610800565b6102566102513660046128ed565b610826565b6040516101929190612906565b60405160128152602001610192565b6101f66102803660046127f1565b6109fa565b6101f661029336600461288f565b6001600160a01b031660009081526020819052604090205490565b6101d6610bdf565b6101a3610bf3565b6101d6610c02565b6102d96102d436600461288f565b610fff565b6040516101929190612975565b6005546001600160a01b03166101e5565b6101a36110db565b6101d661030d366004612983565b6110ea565b6101866103203660046127f1565b61127d565b61032d61128b565b60405161019291906129b8565b6101e5611317565b6101f66103503660046129fa565b611326565b6101f6610363366004612a2f565b611576565b6101f661037636600461288f565b6115a1565b6101d661038936600461288f565b61162b565b60006001600160e01b031982166301a4a4b960e51b14806103bf57506301ffc9a760e01b6001600160e01b03198316145b92915050565b6060600380546103d490612a68565b80601f016020809104026020016040519081016040528092919081815260200182805461040090612a68565b801561044d5780601f106104225761010080835404028352916020019161044d565b820191906000526020600020905b81548152906001019060200180831161043057829003601f168201915b5050505050905090565b600033610465818585611669565b5060019392505050565b6001600160a01b03831661049e5760405162461bcd60e51b815260040161049590612a9c565b60405180910390fd5b6001600160a01b0382166104fe5760405162461bcd60e51b815260206004820152602160248201527f536c6963653a20496e76616c69642070726963652066656564206164647265736044820152607360f81b6064820152608401610495565b61ffff811615801590610517575061ffff811661271014155b61056f5760405162461bcd60e51b8152602060048201526024808201527f536c6963653a20496e76616c696420616c6c6f636174696f6e2070657263656e6044820152637461676560e01b6064820152608401610495565b600061057a84610fff565b516001600160a01b0316146105e75760405162461bcd60e51b815260206004820152602d60248201527f536c6963653a20416c6c6f636174696f6e20666f72207468652070617373656460448201526c20746f6b656e2065786973747360981b6064820152608401610495565b60006105f284610fff565b516001600160a01b03161461061c57826040516363ec8ef160e11b8152600401610495919061287b565b61062d8363d85c12ef60e01b61167b565b61064c5782604051633624dfe160e21b8152600401610495919061287b565b6007546009190161067057604051635050982560e11b815260040160405180910390fd5b6000836001600160a01b03166338d52e0f6040518163ffffffff1660e01b8152600401602060405180830381865afa1580156106b0573d6000803e3d6000fd5b505050506040513d601f19601f820116820180604052508101906106d49190612ad3565b604080516060810182526001600160a01b03808816808352818516602080850182815261ffff808b16878901908152600780546001810182556000918252985160029099027fa66cc928b5edb82af9bd49922954155ab7b0942694bea4ce44661d9a8736c688810180549a8a166001600160a01b03199b8c1617905593517fa66cc928b5edb82af9bd49922954155ab7b0942694bea4ce44661d9a8736c68990940180549251909316600160a01b026001600160b01b031990921693881693909317179055828152600a9091528590208054938a169390941683179093559251939450929091907fe1e620d79ee4604d298670ecab767901fa18358e431dc956a66abfa6899d5264906107f290879061ffff91909116815260200190565b60405180910390a450505050565b60003361080e858285611697565b6108198585856116ea565b60019150505b9392505050565b6060600082116108485760405162461bcd60e51b815260040161049590612af0565b336108538184611749565b60075467ffffffffffffffff81111561086e5761086e612b1f565b604051908082528060200260200182016040528015610897578160200160208202803683370190505b50915060008060006108a860025490565b6108b3601288612b4b565b6108bd9190612b62565b905060005b6007548110156109f057600781815481106108df576108df612b84565b600091825260208083206002909202909101546001600160a01b0316808352600b9091526040909120549094509250610916601290565b60ff166109238385612b4b565b61092d9190612b62565b86828151811061093f5761093f612b84565b6020026020010181815250506109828587838151811061096157610961612b84565b6020026020010151866001600160a01b03166117839092919063ffffffff16565b846001600160a01b0316846001600160a01b03167f9b1bfa7fa9ee420a16e124f794c35ac9f90472acc99140eb2f6447c714cad8eb8884815181106109c9576109c9612b84565b60200260200101516040516109e091815260200190565b60405180910390a36001016108c2565b5050505050919050565b6000808211610a1b5760405162461bcd60e51b815260040161049590612af0565b6000610a2684610fff565b6020015190506001600160a01b038116610a54578360405162746ce760e21b8152600401610495919061287b565b33610a6a6001600160a01b0383168230876117db565b60405163095ea7b360e01b81526001600160a01b0383169063095ea7b390610a989088908890600401612b9a565b6020604051808303816000875af1158015610ab7573d6000803e3d6000fd5b505050506040513d601f19601f82011682018060405250810190610adb9190612bb3565b50604051636e553f6560e01b81526001600160a01b03861690636e553f6590610b0a9087903090600401612bd5565b6020604051808303816000875af1158015610b29573d6000803e3d6000fd5b505050506040513d601f19601f82011682018060405250810190610b4d9190612bec565b6001600160a01b0386166000908152600b6020526040812080549295508592909190610b7a908490612c05565b90915550610b8a90508184611814565b806001600160a01b0316856001600160a01b03167f5548c837ab068cf56a2c2479df0882a4922fd203edb7517321831d95078c5f6286604051610bcf91815260200190565b60405180910390a3505092915050565b610be761184a565b610bf16000611877565b565b6060600680546103d490612a68565b6000610c0c6118c9565b905060008060008060008060008060008060008060005b8d51811015610fef578d8181518110610c3e57610c3e612b84565b6020026020010151600001519c508d8181518110610c5e57610c5e612b84565b6020026020010151602001519b508d8181518110610c7e57610c7e612b84565b6020026020010151606001519a508d8181518110610c9e57610c9e612b84565b60200260200101516080015199508d8181518110610cbe57610cbe612b84565b602002602001015160a0015198508a8a1015610fe7578c6001600160a01b0316633ba0b9a96040518163ffffffff1660e01b8152600401602060405180830381865afa158015610d12573d6000803e3d6000fd5b505050506040513d601f19601f82011682018060405250810190610d369190612bec565b9650610d428a8c612c18565b9750610d4e8789612b62565b95508815610d8157898811610d7057610d688d8989611326565b945084610d7f565b610d7b8d8b89611326565b9450845b505b8415610fe757610d998c610d93611317565b87611ed4565b610db4610da68688612c05565b610dae611317565b8e612081565b9350610dbe611317565b6001600160a01b03166370a08231306040518263ffffffff1660e01b8152600401610de9919061287b565b602060405180830381865afa158015610e06573d6000803e3d6000fd5b505050506040513d601f19601f82011682018060405250810190610e2a9190612bec565b925083831015610e5057600954610e4b906001600160a01b03168d85611ed4565b610e67565b600954610e67906001600160a01b03168d86611ed4565b6040516370a0823160e01b81526001600160a01b038d16906370a0823190610e9390309060040161287b565b602060405180830381865afa158015610eb0573d6000803e3d6000fd5b505050506040513d601f19601f82011682018060405250810190610ed49190612bec565b91508b6001600160a01b031663095ea7b38e846040518363ffffffff1660e01b8152600401610f04929190612b9a565b6020604051808303816000875af1158015610f23573d6000803e3d6000fd5b505050506040513d601f19601f82011682018060405250810190610f479190612bb3565b50604051636e553f6560e01b81526001600160a01b038e1690636e553f6590610f769085903090600401612bd5565b6020604051808303816000875af1158015610f95573d6000803e3d6000fd5b505050506040513d601f19601f82011682018060405250810190610fb99190612bec565b6001600160a01b038e166000908152600b602052604081208054909190610fe1908490612c05565b90915550505b600101610c23565b5050505050505050505050505050565b60408051606081018252600080825260208201819052918101829052905b6007548110156110d557826001600160a01b03166007828154811061104457611044612b84565b60009182526020909120600290910201546001600160a01b0316036110cd576007818154811061107657611076612b84565b60009182526020918290206040805160608101825260029390930290910180546001600160a01b03908116845260019091015490811693830193909352600160a01b90920461ffff16918101919091529392505050565b60010161101d565b50919050565b6060600480546103d490612a68565b6001600160a01b0382166111105760405162461bcd60e51b815260040161049590612a9c565b61ffff811615801590611129575061ffff811661271014155b6111715760405162461bcd60e51b8152602060048201526019602482015278536c6963653a20496e76616c69642070657263656e7461676560381b6044820152606401610495565b600061117c83610fff565b516001600160a01b0316036111a5578160405162746ce760e21b8152600401610495919061287b565b60005b60075481101561123657826001600160a01b0316600782815481106111cf576111cf612b84565b60009182526020909120600290910201546001600160a01b03160361122e57816007828154811061120257611202612b84565b906000526020600020906002020160010160146101000a81548161ffff021916908361ffff1602179055505b6001016111a8565b5060405161ffff821681526001600160a01b038316907f961820b4651ecef2378d97b066e501ada836f59c275237b770421b1f46e33dd59060200160405180910390a25050565b6000336104658185856116ea565b60606007805480602002602001604051908101604052809291908181526020016000905b8282101561130e576000848152602090819020604080516060810182526002860290920180546001600160a01b03908116845260019182015490811684860152600160a01b900461ffff169183019190915290835290920191016112af565b50505050905090565b6009546001600160a01b031690565b600080846001600160a01b031663fbfa77cf6040518163ffffffff1660e01b8152600401602060405180830381865afa158015611367573d6000803e3d6000fd5b505050506040513d601f19601f8201168201806040525081019061138b9190612ad3565b90506000816001600160a01b031663ce96cb77876040518263ffffffff1660e01b81526004016113bb919061287b565b602060405180830381865afa1580156113d8573d6000803e3d6000fd5b505050506040513d601f19601f820116820180604052508101906113fc9190612bec565b9050600061140a8587612b62565b905081600003611420576000935050505061081f565b61143183631ee878f360e11b61167b565b1561155657604051633ea0e43760e11b8152600481018290526001600160a01b03888116602483018190526044830152841690637d41c86e90606401600060405180830381600087803b15801561148757600080fd5b505af115801561149b573d6000803e3d6000fd5b505050508082101561152a576001600160a01b03871662f714ce6114bf8785612b4b565b306040518363ffffffff1660e01b81526004016114dd929190612bd5565b6020604051808303816000875af11580156114fc573d6000803e3d6000fd5b505050506040513d601f19601f820116820180604052508101906115209190612bec565b935050505061081f565b604051627b8a6760e11b81526001600160a01b0388169062f714ce906114dd9089903090600401612bd5565b8082101561152a576001600160a01b03871662f714ce6114bf8785612b4b565b6001600160a01b03918216600090815260016020908152604080832093909416825291909152205490565b6001600160a01b038082166000908152600a6020526040808220548151633fabe5a360e21b815291519293849391169163feaf968c9160048083019260a09291908290030181865afa1580156115fb573d6000803e3d6000fd5b505050506040513d601f19601f8201168201806040525081019061161f9190612c45565b50919695505050505050565b61163361184a565b6001600160a01b03811661165d576000604051631e4fbdf760e01b8152600401610495919061287b565b61166681611877565b50565b611676838383600161219f565b505050565b600061168683612274565b801561081f575061081f83836122a7565b60006116a38484611576565b905060001981146116e457818110156116d557828183604051637dc7a0d960e11b815260040161049593929190612c95565b6116e48484848403600061219f565b50505050565b6001600160a01b038316611714576000604051634b637e8f60e11b8152600401610495919061287b565b6001600160a01b03821661173e57600060405163ec442f0560e01b8152600401610495919061287b565b611676838383612331565b6001600160a01b038216611773576000604051634b637e8f60e11b8152600401610495919061287b565b61177f82600083612331565b5050565b61167683846001600160a01b031663a9059cbb85856040516024016117a9929190612b9a565b604051602081830303815290604052915060e01b6020820180516001600160e01b038381831617835250505050612448565b6040516001600160a01b0384811660248301528381166044830152606482018390526116e49186918216906323b872dd906084016117a9565b6001600160a01b03821661183e57600060405163ec442f0560e01b8152600401610495919061287b565b61177f60008383612331565b6005546001600160a01b03163314610bf1573360405163118cdaa760e01b8152600401610495919061287b565b600580546001600160a01b038381166001600160a01b0319831681179093556040519116919082907f8be0079c531659141344cd1fd0a4f28419497f9722a3daafe3b4186f6b6457e090600090a35050565b606060006118d56124a2565b905060008060008060008060008060078054905067ffffffffffffffff81111561190157611901612b1f565b60405190808252806020026020018201604052801561197d57816020015b61196a6040518060c0016040528060006001600160a01b0316815260200160006001600160a01b03168152602001600081526020016000815260200160008152602001600081525090565b81526020019060019003908161191f5790505b50995060005b600754811015611ec757600781815481106119a0576119a0612b84565b6000918252602090912060029091020154600780546001600160a01b039092169a5090829081106119d3576119d3612b84565b600091825260208220600160029092020101546001600160a01b03169850806119fc8b8b61253b565b93509350505061271061ffff1660078481548110611a1c57611a1c612b84565b6000918252602090912060029091020160010154611a4590600160a01b900461ffff168e612b4b565b611a4f9190612b62565b9850818a6001600160a01b031663313ce5676040518163ffffffff1660e01b8152600401602060405180830381865afa158015611a90573d6000803e3d6000fd5b505050506040513d601f19601f82011682018060405250810190611ab49190612cb6565b611abf90600a612dbd565b611ac9908b612b4b565b611ad39190612b62565b9750611adf8189612b4b565b6001600160a01b038c166000908152600b6020526040902054909750935086841115611d7957611b0f8785612c18565b9550611b1c8b8783611326565b94508415611c4157611b308a610d93611317565b611b38611317565b6001600160a01b03166370a08231306040518263ffffffff1660e01b8152600401611b63919061287b565b602060405180830381865afa158015611b80573d6000803e3d6000fd5b505050506040513d601f19601f82011682018060405250810190611ba49190612bec565b600b6000611bb0611317565b6001600160a01b03166001600160a01b03168152602001908152602001600020819055506040518060c001604052808c6001600160a01b031681526020018b6001600160a01b031681526020018981526020018881526020018786611c159190612c18565b815260200160008152508d8481518110611c3157611c31612b84565b6020026020010181905250611ebd565b6040518060c001604052808c6001600160a01b031681526020018b6001600160a01b031681526020018981526020018881526020018581526020018c6001600160a01b031663fbfa77cf6040518163ffffffff1660e01b8152600401602060405180830381865afa158015611cba573d6000803e3d6000fd5b505050506040513d601f19601f82011682018060405250810190611cde9190612ad3565b6001600160a01b0316635ab764ed8e611cf5611317565b6040516001600160e01b031960e085901b1681526001600160a01b03928316600482015291166024820152604401602060405180830381865afa158015611d40573d6000803e3d6000fd5b505050506040513d601f19601f82011682018060405250810190611d649190612bec565b8152508d8481518110611c3157611c31612b84565b6040518060c001604052808c6001600160a01b031681526020018b6001600160a01b031681526020018981526020018881526020018581526020018c6001600160a01b031663fbfa77cf6040518163ffffffff1660e01b8152600401602060405180830381865afa158015611df2573d6000803e3d6000fd5b505050506040513d601f19601f82011682018060405250810190611e169190612ad3565b6001600160a01b0316635ab764ed8e611e2d611317565b6040516001600160e01b031960e085901b1681526001600160a01b03928316600482015291166024820152604401602060405180830381865afa158015611e78573d6000803e3d6000fd5b505050506040513d601f19601f82011682018060405250810190611e9c9190612bec565b8152508d8481518110611eb157611eb1612b84565b60200260200101819052505b5050600101611983565b5050505050505050505090565b6040805160028082526060820183526000926020830190803683370190505090508381600081518110611f0957611f09612b84565b60200260200101906001600160a01b031690816001600160a01b0316815250508281600181518110611f3d57611f3d612b84565b60200260200101906001600160a01b031690816001600160a01b03168152505080600081518110611f7057611f70612b84565b60200260200101516001600160a01b031663095ea7b3611f986008546001600160a01b031690565b846040518363ffffffff1660e01b8152600401611fb6929190612b9a565b6020604051808303816000875af1158015611fd5573d6000803e3d6000fd5b505050506040513d601f19601f82011682018060405250810190611ff99190612bb3565b506008546040516338ed173960e01b81526001600160a01b03909116906338ed173990612033908590600090869030904290600401612e11565b6000604051808303816000875af1158015612052573d6000803e3d6000fd5b505050506040513d6000823e601f3d908101601f1916820160405261207a9190810190612e4d565b5050505050565b6040805160028082526060820183526000928392919060208301908036833701905050905083816000815181106120ba576120ba612b84565b60200260200101906001600160a01b031690816001600160a01b03168152505082816001815181106120ee576120ee612b84565b6001600160a01b0392831660209182029290920101526008546040516307c0329d60e21b81526000929190911690631f00ca74906121329089908690600401612f0b565b600060405180830381865afa15801561214f573d6000803e3d6000fd5b505050506040513d6000823e601f3d908101601f191682016040526121779190810190612e4d565b90508060008151811061218c5761218c612b84565b6020026020010151925050509392505050565b6001600160a01b0384166121c957600060405163e602df0560e01b8152600401610495919061287b565b6001600160a01b0383166121f3576000604051634a1406b160e11b8152600401610495919061287b565b6001600160a01b03808516600090815260016020908152604080832093871683529290522082905580156116e457826001600160a01b0316846001600160a01b03167f8c5be1e5ebec7d5bd14f71427d1e84f3dd0314c0f7b2291e5b200ac8c7c3b9258460405161226691815260200190565b60405180910390a350505050565b6000612287826301ffc9a760e01b6122a7565b80156103bf57506122a0826001600160e01b03196122a7565b1592915050565b6040516001600160e01b031982166024820152600090819060440160408051601f19818403018152919052602080820180516001600160e01b03166301ffc9a760e01b178152825192935060009283928392909183918a617530fa92503d9150600051905082801561231a575060208210155b80156123265750600081115b979650505050505050565b6001600160a01b03831661235c5780600260008282546123519190612c05565b909155506123bb9050565b6001600160a01b0383166000908152602081905260409020548181101561239c5783818360405163391434e360e21b815260040161049593929190612c95565b6001600160a01b03841660009081526020819052604090209082900390555b6001600160a01b0382166123d7576002805482900390556123f6565b6001600160a01b03821660009081526020819052604090208054820190555b816001600160a01b0316836001600160a01b03167fddf252ad1be2c89b69c2b068fc378daa952ba7f163c4a11628f55a4df523b3ef8360405161243b91815260200190565b60405180910390a3505050565b600061245d6001600160a01b0384168361265d565b905080516000141580156124825750808060200190518101906124809190612bb3565b155b156116765782604051635274afe760e01b8152600401610495919061287b565b6000805b60075481101561253757600061251b600783815481106124c8576124c8612b84565b6000918252602090912060029091020154600780546001600160a01b0390921691859081106124f9576124f9612b84565b60009182526020909120600160029092020101546001600160a01b031661253b565b5050509050808361252c9190612c05565b9250506001016124a6565b5090565b6001600160a01b0382166000818152600b60209081526040808320548151633ba0b9a960e01b815291519394859485948594633ba0b9a992600480830193928290030181865afa158015612593573d6000803e3d6000fd5b505050506040513d601f19601f820116820180604052508101906125b79190612bec565b91506125c2866115a1565b92506125ce8282612b4b565b9350866001600160a01b031663313ce5676040518163ffffffff1660e01b8152600401602060405180830381865afa15801561260e573d6000803e3d6000fd5b505050506040513d601f19601f820116820180604052508101906126329190612cb6565b61263d90600a612dbd565b6126478486612b4b565b6126519190612b62565b94505092959194509250565b606061081f8383600084600080856001600160a01b031684866040516126839190612f2c565b60006040518083038185875af1925050503d80600081146126c0576040519150601f19603f3d011682016040523d82523d6000602084013e6126c5565b606091505b50915091506126d58683836126df565b9695505050505050565b6060826126f4576126ef82612732565b61081f565b815115801561270b57506001600160a01b0384163b155b1561272b5783604051639996b31560e01b8152600401610495919061287b565b508061081f565b8051156127425780518082602001fd5b604051630a12f52160e11b815260040160405180910390fd5b60006020828403121561276d57600080fd5b81356001600160e01b03198116811461081f57600080fd5b60005b838110156127a0578181015183820152602001612788565b50506000910152565b60208152600082518060208401526127c8816040850160208701612785565b601f01601f19169190910160400192915050565b6001600160a01b038116811461166657600080fd5b6000806040838503121561280457600080fd5b823561280f816127dc565b946020939093013593505050565b803561ffff8116811461282f57600080fd5b919050565b60008060006060848603121561284957600080fd5b8335612854816127dc565b92506020840135612864816127dc565b91506128726040850161281d565b90509250925092565b6001600160a01b0391909116815260200190565b6000602082840312156128a157600080fd5b813561081f816127dc565b6000806000606084860312156128c157600080fd5b83356128cc816127dc565b925060208401356128dc816127dc565b929592945050506040919091013590565b6000602082840312156128ff57600080fd5b5035919050565b6020808252825182820181905260009190848201906040850190845b8181101561293e57835183529284019291840191600101612922565b50909695505050505050565b80516001600160a01b0390811683526020808301519091169083015260409081015161ffff16910152565b606081016103bf828461294a565b6000806040838503121561299657600080fd5b82356129a1816127dc565b91506129af6020840161281d565b90509250929050565b6020808252825182820181905260009190848201906040850190845b8181101561293e576129e783855161294a565b92840192606092909201916001016129d4565b600080600060608486031215612a0f57600080fd5b8335612a1a816127dc565b95602085013595506040909401359392505050565b60008060408385031215612a4257600080fd5b8235612a4d816127dc565b91506020830135612a5d816127dc565b809150509250929050565b600181811c90821680612a7c57607f821691505b6020821081036110d557634e487b7160e01b600052602260045260246000fd5b6020808252601d908201527f536c6963653a20496e76616c69642061546f6b656e2061646472657373000000604082015260600190565b600060208284031215612ae557600080fd5b815161081f816127dc565b60208082526015908201527414db1a58d94e88125b9d985b1a5908185b5bdd5b9d605a1b604082015260600190565b634e487b7160e01b600052604160045260246000fd5b634e487b7160e01b600052601160045260246000fd5b80820281158282048414176103bf576103bf612b35565b600082612b7f57634e487b7160e01b600052601260045260246000fd5b500490565b634e487b7160e01b600052603260045260246000fd5b6001600160a01b03929092168252602082015260400190565b600060208284031215612bc557600080fd5b8151801515811461081f57600080fd5b9182526001600160a01b0316602082015260400190565b600060208284031215612bfe57600080fd5b5051919050565b808201808211156103bf576103bf612b35565b818103818111156103bf576103bf612b35565b805169ffffffffffffffffffff8116811461282f57600080fd5b600080600080600060a08688031215612c5d57600080fd5b612c6686612c2b565b9450602086015193506040860151925060608601519150612c8960808701612c2b565b90509295509295909350565b6001600160a01b039390931683526020830191909152604082015260600190565b600060208284031215612cc857600080fd5b815160ff8116811461081f57600080fd5b600181815b80851115612d14578160001904821115612cfa57612cfa612b35565b80851615612d0757918102915b93841c9390800290612cde565b509250929050565b600082612d2b575060016103bf565b81612d38575060006103bf565b8160018114612d4e5760028114612d5857612d74565b60019150506103bf565b60ff841115612d6957612d69612b35565b50506001821b6103bf565b5060208310610133831016604e8410600b8410161715612d97575081810a6103bf565b612da18383612cd9565b8060001904821115612db557612db5612b35565b029392505050565b600061081f60ff841683612d1c565b60008151808452602080850194506020840160005b83811015612e065781516001600160a01b031687529582019590820190600101612de1565b509495945050505050565b85815284602082015260a060408201526000612e3060a0830186612dcc565b6001600160a01b0394909416606083015250608001529392505050565b60006020808385031215612e6057600080fd5b825167ffffffffffffffff80821115612e7857600080fd5b818501915085601f830112612e8c57600080fd5b815181811115612e9e57612e9e612b1f565b8060051b604051601f19603f83011681018181108582111715612ec357612ec3612b1f565b604052918252848201925083810185019188831115612ee157600080fd5b938501935b82851015612eff57845184529385019392850192612ee6565b98975050505050505050565b828152604060208201526000612f246040830184612dcc565b949350505050565b60008251612f3e818460208701612785565b919091019291505056fea2646970667358221220f9ea9938c1952f096e5b9be45cef3bdf1ac39428fb3824c0be866475f84a8ebe64736f6c63430008180033a2646970667358221220cfe161f0016c9db6dde1af9caa3b7fe0a7c2f229323ab3735ae378a0dd436ccd64736f6c63430008180033",
  "linkReferences": {},
  "deployedLinkReferences": {}
}