{
  "_format": "hh-sol-artifact-1",
  "contractName": "Slice",
  "sourceName": "contracts/erc4626/Slice.sol",
  "abi": [
    {
      "inputs": [
        {
          "internalType": "address",
          "name": "_pyth",
          "type": "address"
        },
        {
          "internalType": "address",
          "name": "_uniswapV2Router",
          "type": "address"
        },
        {
          "internalType": "address",
          "name": "_usdc",
          "type": "address"
        }
      ],
      "stateMutability": "nonpayable",
      "type": "constructor"
    },
    {
      "inputs": [
        {
          "internalType": "address",
          "name": "owner",
          "type": "address"
        }
      ],
      "name": "OwnableInvalidOwner",
      "type": "error"
    },
    {
      "inputs": [
        {
          "internalType": "address",
          "name": "account",
          "type": "address"
        }
      ],
      "name": "OwnableUnauthorizedAccount",
      "type": "error"
    },
    {
      "anonymous": false,
      "inputs": [
        {
          "indexed": true,
          "internalType": "address",
          "name": "createdToken",
          "type": "address"
        }
      ],
      "name": "CreatedToken",
      "type": "event"
    },
    {
      "anonymous": false,
      "inputs": [
        {
          "indexed": true,
          "internalType": "address",
          "name": "token",
          "type": "address"
        },
        {
          "indexed": true,
          "internalType": "address",
          "name": "sender",
          "type": "address"
        },
        {
          "indexed": false,
          "internalType": "uint256",
          "name": "amount",
          "type": "uint256"
        }
      ],
      "name": "Deposit",
      "type": "event"
    },
    {
      "anonymous": false,
      "inputs": [
        {
          "indexed": true,
          "internalType": "address",
          "name": "previousOwner",
          "type": "address"
        },
        {
          "indexed": true,
          "internalType": "address",
          "name": "newOwner",
          "type": "address"
        }
      ],
      "name": "OwnershipTransferred",
      "type": "event"
    },
    {
      "anonymous": false,
      "inputs": [
        {
          "indexed": true,
          "internalType": "address",
          "name": "token",
          "type": "address"
        },
        {
          "indexed": false,
          "internalType": "uint256",
          "name": "allocationPercentage",
          "type": "uint256"
        }
      ],
      "name": "TargetAllocationPercentageChanged",
      "type": "event"
    },
    {
      "anonymous": false,
      "inputs": [
        {
          "indexed": true,
          "internalType": "address",
          "name": "token",
          "type": "address"
        },
        {
          "indexed": false,
          "internalType": "bytes32",
          "name": "priceId",
          "type": "bytes32"
        },
        {
          "indexed": false,
          "internalType": "uint256",
          "name": "allocationPercentage",
          "type": "uint256"
        }
      ],
      "name": "TokenAdded",
      "type": "event"
    },
    {
      "anonymous": false,
      "inputs": [
        {
          "indexed": true,
          "internalType": "address",
          "name": "token",
          "type": "address"
        },
        {
          "indexed": true,
          "internalType": "address",
          "name": "receiver",
          "type": "address"
        },
        {
          "indexed": false,
          "internalType": "uint256",
          "name": "amount",
          "type": "uint256"
        }
      ],
      "name": "Withdraw",
      "type": "event"
    },
    {
      "inputs": [],
      "name": "_calculateAmountsToTrade",
      "outputs": [
        {
          "components": [
            {
              "internalType": "address",
              "name": "token",
              "type": "address"
            },
            {
              "internalType": "uint256",
              "name": "amountToTrade",
              "type": "uint256"
            }
          ],
          "internalType": "struct Slice.TradeAmount[]",
          "name": "amounts",
          "type": "tuple[]"
        },
        {
          "internalType": "uint256",
          "name": "totalValue",
          "type": "uint256"
        }
      ],
      "stateMutability": "view",
      "type": "function"
    },
    {
      "inputs": [
        {
          "internalType": "address",
          "name": "token",
          "type": "address"
        },
        {
          "internalType": "bytes32",
          "name": "priceId",
          "type": "bytes32"
        }
      ],
      "name": "_getPrice",
      "outputs": [
        {
          "internalType": "uint256",
          "name": "oneDollarInToken",
          "type": "uint256"
        }
      ],
      "stateMutability": "view",
      "type": "function"
    },
    {
      "inputs": [
        {
          "internalType": "address",
          "name": "aToken",
          "type": "address"
        },
        {
          "internalType": "bytes32",
          "name": "priceId",
          "type": "bytes32"
        },
        {
          "internalType": "uint256",
          "name": "percentage",
          "type": "uint256"
        },
        {
          "internalType": "bool",
          "name": "isAutoCompounder",
          "type": "bool"
        }
      ],
      "name": "addTrackingToken",
      "outputs": [],
      "stateMutability": "nonpayable",
      "type": "function"
    },
    {
      "inputs": [
        {
          "internalType": "address",
          "name": "token",
          "type": "address"
        }
      ],
      "name": "balances",
      "outputs": [
        {
          "internalType": "uint256",
          "name": "balance",
          "type": "uint256"
        }
      ],
      "stateMutability": "view",
      "type": "function"
    },
    {
      "inputs": [
        {
          "internalType": "address",
          "name": "token",
          "type": "address"
        },
        {
          "internalType": "uint256",
          "name": "amount",
          "type": "uint256"
        }
      ],
      "name": "deposit",
      "outputs": [],
      "stateMutability": "nonpayable",
      "type": "function"
    },
    {
      "inputs": [
        {
          "internalType": "address",
          "name": "_aToken",
          "type": "address"
        }
      ],
      "name": "getTokenValueInUSDC",
      "outputs": [
        {
          "components": [
            {
              "internalType": "address",
              "name": "token",
              "type": "address"
            },
            {
              "internalType": "uint256",
              "name": "value",
              "type": "uint256"
            },
            {
              "internalType": "uint256",
              "name": "balance",
              "type": "uint256"
            },
            {
              "internalType": "uint256",
              "name": "price",
              "type": "uint256"
            },
            {
              "internalType": "uint256",
              "name": "targetPercentage",
              "type": "uint256"
            }
          ],
          "internalType": "struct Slice.TokenValuePayload",
          "name": "",
          "type": "tuple"
        }
      ],
      "stateMutability": "view",
      "type": "function"
    },
    {
      "inputs": [],
      "name": "owner",
      "outputs": [
        {
          "internalType": "address",
          "name": "",
          "type": "address"
        }
      ],
      "stateMutability": "view",
      "type": "function"
    },
    {
      "inputs": [],
      "name": "pyth",
      "outputs": [
        {
          "internalType": "contract IPyth",
          "name": "",
          "type": "address"
        }
      ],
      "stateMutability": "view",
      "type": "function"
    },
    {
      "inputs": [],
      "name": "rebalance",
      "outputs": [],
      "stateMutability": "nonpayable",
      "type": "function"
    },
    {
      "inputs": [],
      "name": "renounceOwnership",
      "outputs": [],
      "stateMutability": "nonpayable",
      "type": "function"
    },
    {
      "inputs": [
        {
          "internalType": "address",
          "name": "token",
          "type": "address"
        },
        {
          "internalType": "uint256",
          "name": "percentage",
          "type": "uint256"
        }
      ],
      "name": "setAllocationPercentage",
      "outputs": [],
      "stateMutability": "nonpayable",
      "type": "function"
    },
    {
      "inputs": [
        {
          "internalType": "address",
          "name": "token",
          "type": "address"
        }
      ],
      "name": "tokenInfo",
      "outputs": [
        {
          "internalType": "address",
          "name": "aToken",
          "type": "address"
        },
        {
          "internalType": "address",
          "name": "token",
          "type": "address"
        },
        {
          "internalType": "bytes32",
          "name": "priceId",
          "type": "bytes32"
        },
        {
          "internalType": "uint256",
          "name": "targetPercentage",
          "type": "uint256"
        },
        {
          "internalType": "bool",
          "name": "isAutoCompounder",
          "type": "bool"
        }
      ],
      "stateMutability": "view",
      "type": "function"
    },
    {
      "inputs": [
        {
          "internalType": "uint256",
          "name": "",
          "type": "uint256"
        }
      ],
      "name": "tokens",
      "outputs": [
        {
          "internalType": "address",
          "name": "",
          "type": "address"
        }
      ],
      "stateMutability": "view",
      "type": "function"
    },
    {
      "inputs": [
        {
          "internalType": "address",
          "name": "newOwner",
          "type": "address"
        }
      ],
      "name": "transferOwnership",
      "outputs": [],
      "stateMutability": "nonpayable",
      "type": "function"
    },
    {
      "inputs": [
        {
          "internalType": "uint256",
          "name": "",
          "type": "uint256"
        }
      ],
      "name": "underlyingTokens",
      "outputs": [
        {
          "internalType": "address",
          "name": "",
          "type": "address"
        }
      ],
      "stateMutability": "view",
      "type": "function"
    },
    {
      "inputs": [],
      "name": "uniswapV2Router",
      "outputs": [
        {
          "internalType": "contract IUniswapV2Router02",
          "name": "",
          "type": "address"
        }
      ],
      "stateMutability": "view",
      "type": "function"
    },
    {
      "inputs": [
        {
          "internalType": "bytes[]",
          "name": "pythPriceUpdate",
          "type": "bytes[]"
        }
      ],
      "name": "update",
      "outputs": [],
      "stateMutability": "payable",
      "type": "function"
    },
    {
      "inputs": [],
      "name": "usdc",
      "outputs": [
        {
          "internalType": "address",
          "name": "",
          "type": "address"
        }
      ],
      "stateMutability": "view",
      "type": "function"
    }
  ],
  "bytecode": "0x60806040523480156200001157600080fd5b5060405162001d6d38038062001d6d833981016040819052620000349162000252565b33806200005c57604051631e4fbdf760e01b8152600060048201526024015b60405180910390fd5b6200006781620001e5565b506001600160a01b038316620000cc5760405162461bcd60e51b815260206004820152602360248201527f546f6b656e42616c616e6365723a20496e76616c69642050797468206164647260448201526265737360e81b606482015260840162000053565b6001600160a01b0382166200013a5760405162461bcd60e51b815260206004820152602d60248201527f546f6b656e42616c616e6365723a20496e76616c696420556e6973776170205260448201526c6f75746572206164647265737360981b606482015260840162000053565b6001600160a01b038116620001a45760405162461bcd60e51b815260206004820152602960248201527f546f6b656e42616c616e6365723a20496e76616c6964205553444320746f6b656044820152686e206164647265737360b81b606482015260840162000053565b600180546001600160a01b03199081166001600160a01b0394851617909155600280548216948416949094179093556003805490931691161790556200029c565b600080546001600160a01b038381166001600160a01b0319831681178455604051919092169283917f8be0079c531659141344cd1fd0a4f28419497f9722a3daafe3b4186f6b6457e09190a35050565b80516001600160a01b03811681146200024d57600080fd5b919050565b6000806000606084860312156200026857600080fd5b620002738462000235565b9250620002836020850162000235565b9150620002936040850162000235565b90509250925092565b611ac180620002ac6000396000f3fe6080604052600436106100e95760003560e01c80638da5cb5b116100855780638da5cb5b1461022b578063a3bf224b14610249578063ba99962b14610269578063c1783843146102cf578063dd926964146102f2578063f2fde38b14610312578063f52a346814610332578063f5dab71114610345578063f98d06f0146103d457600080fd5b80630d8ebb3b146100ee5780631694505e1461011057806327e235e3146101465780633e413bee1461018157806347e7ef24146101a15780634f64b2be146101c157806358f5bb7a146101e1578063715018a6146102015780637d7c2a1c14610216575b600080fd5b3480156100fa57600080fd5b5061010e610109366004611548565b6103f4565b005b34801561011c57600080fd5b50600154610130906001600160a01b031681565b60405161013d9190611574565b60405180910390f35b34801561015257600080fd5b50610173610161366004611588565b60076020526000908152604090205481565b60405190815260200161013d565b34801561018d57600080fd5b50600354610130906001600160a01b031681565b3480156101ad57600080fd5b5061010e6101bc366004611548565b610530565b3480156101cd57600080fd5b506101306101dc3660046115ac565b610675565b3480156101ed57600080fd5b506101736101fc366004611548565b61069f565b34801561020d57600080fd5b5061010e61081e565b34801561022257600080fd5b5061010e610832565b34801561023757600080fd5b506000546001600160a01b0316610130565b34801561025557600080fd5b506101306102643660046115ac565b610b64565b34801561027557600080fd5b50610289610284366004611588565b610b74565b60405161013d919081516001600160a01b031681526020808301519082015260408083015190820152606080830151908201526080918201519181019190915260a00190565b3480156102db57600080fd5b506102e4610e71565b60405161013d9291906115c5565b3480156102fe57600080fd5b5061010e61030d366004611627565b610f5e565b34801561031e57600080fd5b5061010e61032d366004611588565b611285565b61010e610340366004611676565b6112c3565b34801561035157600080fd5b5061039f610360366004611588565b6004602081905260009182526040909120805460018201546002830154600384015493909401546001600160a01b039283169492909116929060ff1685565b604080516001600160a01b0396871681529590941660208601529284019190915260608301521515608082015260a00161013d565b3480156103e057600080fd5b50600254610130906001600160a01b031681565b6127108110801561040457508015155b61045f5760405162461bcd60e51b815260206004820152602160248201527f546f6b656e42616c616e6365723a20496e76616c69642070657263656e7461676044820152606560f81b60648201526084015b60405180910390fd5b6001600160a01b03821660009081526004602052604081206003015490036104d45760405162461bcd60e51b815260206004820152602260248201527f546f6b656e42616c616e6365723a20546f6b656e20646f65736e2774206578696044820152611cdd60f21b6064820152608401610456565b6001600160a01b03821660008181526004602052604090819020600301839055517f06a65dde886f983f3a8b38fa2410465911b7403ee18b9b3e2b35740684a1b84d906105249084815260200190565b60405180910390a25050565b6001600160a01b0382166000526004602052806000036105925760405162461bcd60e51b815260206004820152601d60248201527f546f6b656e42616c616e6365723a20496e76616c696420616d6f756e740000006044820152606401610456565b6001600160a01b038216600090815260076020526040812080548392906105ba908490611701565b9091555050604051636e553f6560e01b8152600481018290523360248201526001600160a01b03831690636e553f65906044016020604051808303816000875af115801561060c573d6000803e3d6000fd5b505050506040513d601f19601f820116820180604052508101906106309190611714565b5060405181815233906001600160a01b038416907f5548c837ab068cf56a2c2479df0882a4922fd203edb7517321831d95078c5f629060200160405180910390a35050565b6005818154811061068557600080fd5b6000918252602090912001546001600160a01b0316905081565b6002546040516331d98b3f60e01b81526004810183905260009182916001600160a01b03909116906331d98b3f90602401608060405180830381865afa1580156106ed573d6000803e3d6000fd5b505050506040513d601f19601f820116820180604052508101906107119190611774565b9050806000015160070b73__$2f7d61c278077ad9ff6dabaf3cf2055321$__63b55522b290918360400151876001600160a01b031663313ce5676040518163ffffffff1660e01b8152600401602060405180830381865afa15801561077a573d6000803e3d6000fd5b505050506040513d601f19601f8201168201806040525081019061079e919061180b565b6040516001600160e01b031960e086901b16815260079390930b600484015260039190910b602483015260ff166044820152606401602060405180830381865af41580156107f0573d6000803e3d6000fd5b505050506040513d601f19601f820116820180604052508101906108149190611714565b9150505b92915050565b6108266113a3565b61083060006113d0565b565b60008061083d610e71565b9150915060005b8251811015610a84576000600460008584815181106108655761086561182e565b602090810291909101810151516001600160a01b03168252810191909152604001600020600481015490915060ff161561094a578382815181106108ab576108ab61182e565b6020026020010151600001516001600160a01b0316632e1a7d4d8584815181106108d7576108d761182e565b6020026020010151602001516040518263ffffffff1660e01b815260040161090191815260200190565b6020604051808303816000875af1158015610920573d6000803e3d6000fd5b505050506040513d601f19601f820116820180604052508101906109449190611714565b50610a07565b83828151811061095c5761095c61182e565b6020026020010151600001516001600160a01b031663b460af948584815181106109885761098861182e565b60209081029190910181015101516040516001600160e01b031960e084901b1681526004810191909152306024820181905260448201526064016020604051808303816000875af11580156109e1573d6000803e3d6000fd5b505050506040513d601f19601f82011682018060405250810190610a059190611714565b505b838281518110610a1957610a1961182e565b60200260200101516020015160076000868581518110610a3b57610a3b61182e565b6020026020010151600001516001600160a01b03166001600160a01b031681526020019081526020016000206000828254610a769190611844565b909155505050600101610844565b5060005b600654811015610b5f57610b066007600060068481548110610aac57610aac61182e565b60009182526020808320909101546001600160a01b031683528201929092526040019020546006805484908110610ae557610ae561182e565b6000918252602090912001546003546001600160a01b039182169116611420565b506003546001600160a01b031660008181526007602052604090205460068054610b5693919085908110610b3c57610b3c61182e565b6000918252602090912001546001600160a01b0316611420565b50600101610a88565b505050565b6006818154811061068557600080fd5b610baf6040518060a0016040528060006001600160a01b03168152602001600081526020016000815260200160008152602001600081525090565b6001600160a01b0380831660009081526004602052604090208054909116610c285760405162461bcd60e51b815260206004820152602660248201527f546f6b656e42616c616e6365723a2054686520746f6b656e20646f65736e277460448201526508195e1a5cdd60d21b6064820152608401610456565b600481015460ff1615610d93576040516370a0823160e01b81526000906001600160a01b038516906370a0823190610c64903090600401611574565b602060405180830381865afa158015610c81573d6000803e3d6000fd5b505050506040513d601f19601f82011682018060405250810190610ca59190611714565b90506000846001600160a01b0316633ba0b9a96040518163ffffffff1660e01b8152600401602060405180830381865afa158015610ce7573d6000803e3d6000fd5b505050506040513d601f19601f82011682018060405250810190610d0b9190611714565b60018401546002850154919250600091610d2e916001600160a01b03169061069f565b90506000670de0b6b3a764000082610d468587611857565b610d509190611857565b610d5a919061186e565b6040805160a0810182526001600160a01b0390991689526020890191909152870193909352606086015250506003015460808301525090565b6040516370a0823160e01b81526000906001600160a01b038516906370a0823190610dc2903090600401611574565b602060405180830381865afa158015610ddf573d6000803e3d6000fd5b505050506040513d601f19601f82011682018060405250810190610e039190611714565b60018301546002840154919250600091610e26916001600160a01b03169061069f565b90506040518060a00160405280866001600160a01b031681526020018284610e4e9190611857565b815260200183815260200182815260200184600301548152509350505050919050565b600554606090600090815b81811015610f58576000610eb660058381548110610e9c57610e9c61182e565b6000918252602090912001546001600160a01b0316610b74565b9050806020015184610ec89190611701565b93506000612710826080015186610edf9190611857565b610ee9919061186e565b90506000826060015182610efd919061186e565b9050604051806040016040528084600001516001600160a01b03168152602001846040015183610f2d9190611844565b815250878581518110610f4257610f4261182e565b6020908102919091010152505050600101610e7c565b50509091565b6001600160a01b038416610fc05760405162461bcd60e51b8152602060048201526024808201527f546f6b656e42616c616e6365723a20496e76616c696420746f6b656e206164646044820152637265737360e01b6064820152608401610456565b61271082108015610fd15750600082115b6110325760405162461bcd60e51b815260206004820152602c60248201527f546f6b656e42616c616e6365723a20496e76616c696420616c6c6f636174696f60448201526b6e2070657263656e7461676560a01b6064820152608401610456565b6001600160a01b038416600090815260046020526040902060020154156110a75760405162461bcd60e51b815260206004820152602360248201527f546f6b656e42616c616e6365723a20546f6b656e20616c72656164792065786960448201526273747360e81b6064820152608401610456565b600554600a101561110e5760405162461bcd60e51b815260206004820152602b60248201527f546f6b656e42616c616e6365723a204d617820616d6f756e74206f6620746f6b60448201526a195b9cc81c995858da195960aa1b6064820152608401610456565b6000846001600160a01b03166338d52e0f6040518163ffffffff1660e01b8152600401602060405180830381865afa15801561114e573d6000803e3d6000fd5b505050506040513d601f19601f820116820180604052508101906111729190611890565b6040805160a0810182526001600160a01b0388811680835284821660208085019182528486018b8152606086018b81528a151560808801908152600086815260048086528a822099518a546001600160a01b0319908116918b16919091178b5596516001808c0180548a1692909b1691909117909955935160028a0155915160038901555196909101805460ff1916961515969096179095556005805494850181559094527f036b6384b5eca791c62761152d0c79bb0604c104a5fb6f4eb0703f3154bb3db09092018054909216811790915582518881529182018790529293507fefa7a2b3fd9548d74d3e0c430cdba8b6e72f7ba3aa752385250c646eecd96584910160405180910390a25050505050565b61128d6113a3565b6001600160a01b0381166112b7576000604051631e4fbdf760e01b81526004016104569190611574565b6112c0816113d0565b50565b60025460405163d47eed4560e01b81526000916001600160a01b03169063d47eed45906112f690869086906004016118d6565b602060405180830381865afa158015611313573d6000803e3d6000fd5b505050506040513d601f19601f820116820180604052508101906113379190611714565b600254604051631df3cbc560e31b81529192506001600160a01b03169063ef9e5e2890839061136c90879087906004016118d6565b6000604051808303818588803b15801561138557600080fd5b505af1158015611399573d6000803e3d6000fd5b5050505050505050565b6000546001600160a01b03163314610830573360405163118cdaa760e01b81526004016104569190611574565b600080546001600160a01b038381166001600160a01b0319831681178455604051919092169283917f8be0079c531659141344cd1fd0a4f28419497f9722a3daafe3b4186f6b6457e09190a35050565b6040805160028082526060820183526000928392919060208301908036833701905050905083838260008151811061145a5761145a61182e565b60200260200101836001815181106114745761147461182e565b6001600160a01b0393841660209182029290920101529181169091526001546040516338ed173960e01b815260009291909116906338ed1739906114c49089908590879030904290600401611972565b6000604051808303816000875af11580156114e3573d6000803e3d6000fd5b505050506040513d6000823e601f3d908101601f1916820160405261150b91908101906119e5565b9050806001815181106115205761152061182e565b6020026020010151925050509392505050565b6001600160a01b03811681146112c057600080fd5b6000806040838503121561155b57600080fd5b823561156681611533565b946020939093013593505050565b6001600160a01b0391909116815260200190565b60006020828403121561159a57600080fd5b81356115a581611533565b9392505050565b6000602082840312156115be57600080fd5b5035919050565b60408082528351828201819052600091906020906060850190828801855b8281101561161157815180516001600160a01b031685528501518585015292850192908401906001016115e3565b5050508093505050508260208301529392505050565b6000806000806080858703121561163d57600080fd5b843561164881611533565b935060208501359250604085013591506060850135801515811461166b57600080fd5b939692955090935050565b6000806020838503121561168957600080fd5b823567ffffffffffffffff808211156116a157600080fd5b818501915085601f8301126116b557600080fd5b8135818111156116c457600080fd5b8660208260051b85010111156116d957600080fd5b60209290920196919550909350505050565b634e487b7160e01b600052601160045260246000fd5b80820180821115610818576108186116eb565b60006020828403121561172657600080fd5b5051919050565b634e487b7160e01b600052604160045260246000fd5b604051601f8201601f1916810167ffffffffffffffff8111828210171561176c5761176c61172d565b604052919050565b60006080828403121561178657600080fd5b6040516080810167ffffffffffffffff82821081831117156117aa576117aa61172d565b81604052845191508160070b82146117c157600080fd5b90825260208401519080821682146117d857600080fd5b5060208201526040830151600381900b81146117f357600080fd5b60408201526060928301519281019290925250919050565b60006020828403121561181d57600080fd5b815160ff811681146115a557600080fd5b634e487b7160e01b600052603260045260246000fd5b81810381811115610818576108186116eb565b8082028115828204841417610818576108186116eb565b60008261188b57634e487b7160e01b600052601260045260246000fd5b500490565b6000602082840312156118a257600080fd5b81516115a581611533565b81835281816020850137506000828201602090810191909152601f909101601f19169091010190565b60208082528181018390526000906040600585901b8401810190840186845b8781101561196557868403603f190183528135368a9003601e1901811261191b57600080fd5b8901858101903567ffffffffffffffff81111561193757600080fd5b80360382131561194657600080fd5b6119518682846118ad565b9550505091840191908401906001016118f5565b5091979650505050505050565b600060a08201878352602087602085015260a0604085015281875180845260c08601915060208901935060005b818110156119c45784516001600160a01b03168352938301939183019160010161199f565b50506001600160a01b03969096166060850152505050608001529392505050565b600060208083850312156119f857600080fd5b825167ffffffffffffffff80821115611a1057600080fd5b818501915085601f830112611a2457600080fd5b815181811115611a3657611a3661172d565b8060051b9150611a47848301611743565b8181529183018401918481019088841115611a6157600080fd5b938501935b83851015611a7f57845182529385019390850190611a66565b9897505050505050505056fea2646970667358221220c9b627ca2444664981e82ac28d1679cd6640e7bc50be7cd511fd2c4f00f33dd264736f6c63430008180033",
  "linkReferences": {
    "@pythnetwork/pyth-sdk-solidity/PythUtils.sol": {
      "PythUtils": [
        {
          "length": 20,
          "start": 2505
        }
      ]
    }
  },
  "deployedLinkReferences": {
    "@pythnetwork/pyth-sdk-solidity/PythUtils.sol": {
      "PythUtils": [
        {
          "length": 20,
          "start": 1821
        }
      ]
    }
  }
}