{
  "_format": "hh-sol-artifact-1",
  "contractName": "Slice",
  "sourceName": "contracts/slice/Slice.sol",
  "abi": [
    {
      "inputs": [
        {
          "internalType": "address",
          "name": "uniswapRouter_",
          "type": "address"
        },
        {
          "internalType": "address",
          "name": "baseToken_",
          "type": "address"
        },
        {
          "internalType": "string",
          "name": "name_",
          "type": "string"
        },
        {
          "internalType": "string",
          "name": "symbol_",
          "type": "string"
        },
        {
          "internalType": "string",
          "name": "metadataUri_",
          "type": "string"
        }
      ],
      "stateMutability": "nonpayable",
      "type": "constructor"
    },
    {
      "inputs": [
        {
          "internalType": "address",
          "name": "target",
          "type": "address"
        }
      ],
      "name": "AddressEmptyCode",
      "type": "error"
    },
    {
      "inputs": [
        {
          "internalType": "address",
          "name": "account",
          "type": "address"
        }
      ],
      "name": "AddressInsufficientBalance",
      "type": "error"
    },
    {
      "inputs": [
        {
          "internalType": "address",
          "name": "aToken",
          "type": "address"
        }
      ],
      "name": "AllocationNotFound",
      "type": "error"
    },
    {
      "inputs": [],
      "name": "AllocationsLimitReached",
      "type": "error"
    },
    {
      "inputs": [
        {
          "internalType": "address",
          "name": "aToken",
          "type": "address"
        }
      ],
      "name": "AssociatedAllocationExists",
      "type": "error"
    },
    {
      "inputs": [
        {
          "internalType": "address",
          "name": "spender",
          "type": "address"
        },
        {
          "internalType": "uint256",
          "name": "allowance",
          "type": "uint256"
        },
        {
          "internalType": "uint256",
          "name": "needed",
          "type": "uint256"
        }
      ],
      "name": "ERC20InsufficientAllowance",
      "type": "error"
    },
    {
      "inputs": [
        {
          "internalType": "address",
          "name": "sender",
          "type": "address"
        },
        {
          "internalType": "uint256",
          "name": "balance",
          "type": "uint256"
        },
        {
          "internalType": "uint256",
          "name": "needed",
          "type": "uint256"
        }
      ],
      "name": "ERC20InsufficientBalance",
      "type": "error"
    },
    {
      "inputs": [
        {
          "internalType": "address",
          "name": "approver",
          "type": "address"
        }
      ],
      "name": "ERC20InvalidApprover",
      "type": "error"
    },
    {
      "inputs": [
        {
          "internalType": "address",
          "name": "receiver",
          "type": "address"
        }
      ],
      "name": "ERC20InvalidReceiver",
      "type": "error"
    },
    {
      "inputs": [
        {
          "internalType": "address",
          "name": "sender",
          "type": "address"
        }
      ],
      "name": "ERC20InvalidSender",
      "type": "error"
    },
    {
      "inputs": [
        {
          "internalType": "address",
          "name": "spender",
          "type": "address"
        }
      ],
      "name": "ERC20InvalidSpender",
      "type": "error"
    },
    {
      "inputs": [],
      "name": "FailedInnerCall",
      "type": "error"
    },
    {
      "inputs": [
        {
          "internalType": "address",
          "name": "owner",
          "type": "address"
        }
      ],
      "name": "OwnableInvalidOwner",
      "type": "error"
    },
    {
      "inputs": [
        {
          "internalType": "address",
          "name": "account",
          "type": "address"
        }
      ],
      "name": "OwnableUnauthorizedAccount",
      "type": "error"
    },
    {
      "inputs": [
        {
          "internalType": "address",
          "name": "token",
          "type": "address"
        }
      ],
      "name": "SafeERC20FailedOperation",
      "type": "error"
    },
    {
      "inputs": [
        {
          "internalType": "address",
          "name": "aToken",
          "type": "address"
        }
      ],
      "name": "UnsupportedAToken",
      "type": "error"
    },
    {
      "anonymous": false,
      "inputs": [
        {
          "indexed": true,
          "internalType": "address",
          "name": "token",
          "type": "address"
        },
        {
          "indexed": true,
          "internalType": "address",
          "name": "asset",
          "type": "address"
        },
        {
          "indexed": true,
          "internalType": "address",
          "name": "priceFeed",
          "type": "address"
        },
        {
          "indexed": false,
          "internalType": "uint16",
          "name": "allocationPercentage",
          "type": "uint16"
        }
      ],
      "name": "AllocationAdded",
      "type": "event"
    },
    {
      "anonymous": false,
      "inputs": [
        {
          "indexed": true,
          "internalType": "address",
          "name": "token",
          "type": "address"
        },
        {
          "indexed": false,
          "internalType": "uint16",
          "name": "allocationPercentage",
          "type": "uint16"
        }
      ],
      "name": "AllocationPercentageChanged",
      "type": "event"
    },
    {
      "anonymous": false,
      "inputs": [
        {
          "indexed": true,
          "internalType": "address",
          "name": "owner",
          "type": "address"
        },
        {
          "indexed": true,
          "internalType": "address",
          "name": "spender",
          "type": "address"
        },
        {
          "indexed": false,
          "internalType": "uint256",
          "name": "value",
          "type": "uint256"
        }
      ],
      "name": "Approval",
      "type": "event"
    },
    {
      "anonymous": false,
      "inputs": [
        {
          "indexed": true,
          "internalType": "address",
          "name": "token",
          "type": "address"
        },
        {
          "indexed": true,
          "internalType": "address",
          "name": "sender",
          "type": "address"
        },
        {
          "indexed": false,
          "internalType": "uint256",
          "name": "amount",
          "type": "uint256"
        }
      ],
      "name": "Deposit",
      "type": "event"
    },
    {
      "anonymous": false,
      "inputs": [
        {
          "indexed": true,
          "internalType": "address",
          "name": "previousOwner",
          "type": "address"
        },
        {
          "indexed": true,
          "internalType": "address",
          "name": "newOwner",
          "type": "address"
        }
      ],
      "name": "OwnershipTransferred",
      "type": "event"
    },
    {
      "anonymous": false,
      "inputs": [
        {
          "indexed": true,
          "internalType": "address",
          "name": "from",
          "type": "address"
        },
        {
          "indexed": true,
          "internalType": "address",
          "name": "to",
          "type": "address"
        },
        {
          "indexed": false,
          "internalType": "uint256",
          "name": "value",
          "type": "uint256"
        }
      ],
      "name": "Transfer",
      "type": "event"
    },
    {
      "anonymous": false,
      "inputs": [
        {
          "indexed": true,
          "internalType": "address",
          "name": "token",
          "type": "address"
        },
        {
          "indexed": true,
          "internalType": "address",
          "name": "receiver",
          "type": "address"
        },
        {
          "indexed": false,
          "internalType": "uint256",
          "name": "amount",
          "type": "uint256"
        }
      ],
      "name": "Withdraw",
      "type": "event"
    },
    {
      "inputs": [
        {
          "internalType": "address",
          "name": "aToken",
          "type": "address"
        },
        {
          "internalType": "uint256",
          "name": "amountToWithdraw",
          "type": "uint256"
        },
        {
          "internalType": "uint256",
          "name": "exchangeRate",
          "type": "uint256"
        }
      ],
      "name": "_handleWithdraw",
      "outputs": [
        {
          "internalType": "uint256",
          "name": "withdrawnAmount",
          "type": "uint256"
        }
      ],
      "stateMutability": "nonpayable",
      "type": "function"
    },
    {
      "inputs": [
        {
          "internalType": "address",
          "name": "aToken",
          "type": "address"
        },
        {
          "internalType": "address",
          "name": "priceFeed",
          "type": "address"
        },
        {
          "internalType": "uint16",
          "name": "percentage",
          "type": "uint16"
        }
      ],
      "name": "addAllocation",
      "outputs": [],
      "stateMutability": "nonpayable",
      "type": "function"
    },
    {
      "inputs": [],
      "name": "allocations",
      "outputs": [
        {
          "components": [
            {
              "internalType": "address",
              "name": "aToken",
              "type": "address"
            },
            {
              "internalType": "address",
              "name": "asset",
              "type": "address"
            },
            {
              "internalType": "uint16",
              "name": "targetPercentage",
              "type": "uint16"
            }
          ],
          "internalType": "struct ISlice.Allocation[]",
          "name": "",
          "type": "tuple[]"
        }
      ],
      "stateMutability": "view",
      "type": "function"
    },
    {
      "inputs": [
        {
          "internalType": "address",
          "name": "owner",
          "type": "address"
        },
        {
          "internalType": "address",
          "name": "spender",
          "type": "address"
        }
      ],
      "name": "allowance",
      "outputs": [
        {
          "internalType": "uint256",
          "name": "",
          "type": "uint256"
        }
      ],
      "stateMutability": "view",
      "type": "function"
    },
    {
      "inputs": [
        {
          "internalType": "address",
          "name": "spender",
          "type": "address"
        },
        {
          "internalType": "uint256",
          "name": "value",
          "type": "uint256"
        }
      ],
      "name": "approve",
      "outputs": [
        {
          "internalType": "bool",
          "name": "",
          "type": "bool"
        }
      ],
      "stateMutability": "nonpayable",
      "type": "function"
    },
    {
      "inputs": [
        {
          "internalType": "address",
          "name": "account",
          "type": "address"
        }
      ],
      "name": "balanceOf",
      "outputs": [
        {
          "internalType": "uint256",
          "name": "",
          "type": "uint256"
        }
      ],
      "stateMutability": "view",
      "type": "function"
    },
    {
      "inputs": [],
      "name": "baseToken",
      "outputs": [
        {
          "internalType": "address",
          "name": "",
          "type": "address"
        }
      ],
      "stateMutability": "view",
      "type": "function"
    },
    {
      "inputs": [],
      "name": "decimals",
      "outputs": [
        {
          "internalType": "uint8",
          "name": "",
          "type": "uint8"
        }
      ],
      "stateMutability": "view",
      "type": "function"
    },
    {
      "inputs": [
        {
          "internalType": "address",
          "name": "aToken",
          "type": "address"
        },
        {
          "internalType": "uint256",
          "name": "amount",
          "type": "uint256"
        }
      ],
      "name": "deposit",
      "outputs": [
        {
          "internalType": "uint256",
          "name": "aTokenAmount",
          "type": "uint256"
        }
      ],
      "stateMutability": "nonpayable",
      "type": "function"
    },
    {
      "inputs": [
        {
          "internalType": "address",
          "name": "token",
          "type": "address"
        }
      ],
      "name": "getChainlinkDataFeedLatestAnswer",
      "outputs": [
        {
          "internalType": "int256",
          "name": "",
          "type": "int256"
        }
      ],
      "stateMutability": "view",
      "type": "function"
    },
    {
      "inputs": [
        {
          "internalType": "address",
          "name": "aToken",
          "type": "address"
        }
      ],
      "name": "getTokenAllocation",
      "outputs": [
        {
          "components": [
            {
              "internalType": "address",
              "name": "aToken",
              "type": "address"
            },
            {
              "internalType": "address",
              "name": "asset",
              "type": "address"
            },
            {
              "internalType": "uint16",
              "name": "targetPercentage",
              "type": "uint16"
            }
          ],
          "internalType": "struct ISlice.Allocation",
          "name": "",
          "type": "tuple"
        }
      ],
      "stateMutability": "view",
      "type": "function"
    },
    {
      "inputs": [],
      "name": "metadataUri",
      "outputs": [
        {
          "internalType": "string",
          "name": "",
          "type": "string"
        }
      ],
      "stateMutability": "view",
      "type": "function"
    },
    {
      "inputs": [],
      "name": "name",
      "outputs": [
        {
          "internalType": "string",
          "name": "",
          "type": "string"
        }
      ],
      "stateMutability": "view",
      "type": "function"
    },
    {
      "inputs": [],
      "name": "owner",
      "outputs": [
        {
          "internalType": "address",
          "name": "",
          "type": "address"
        }
      ],
      "stateMutability": "view",
      "type": "function"
    },
    {
      "inputs": [
        {
          "internalType": "address",
          "name": "token",
          "type": "address"
        }
      ],
      "name": "priceFeed",
      "outputs": [
        {
          "internalType": "address",
          "name": "",
          "type": "address"
        }
      ],
      "stateMutability": "view",
      "type": "function"
    },
    {
      "inputs": [],
      "name": "rebalance",
      "outputs": [],
      "stateMutability": "nonpayable",
      "type": "function"
    },
    {
      "inputs": [],
      "name": "renounceOwnership",
      "outputs": [],
      "stateMutability": "nonpayable",
      "type": "function"
    },
    {
      "inputs": [
        {
          "internalType": "address",
          "name": "aToken",
          "type": "address"
        },
        {
          "internalType": "uint16",
          "name": "newPercentage",
          "type": "uint16"
        }
      ],
      "name": "setAllocationPercentage",
      "outputs": [],
      "stateMutability": "nonpayable",
      "type": "function"
    },
    {
      "inputs": [
        {
          "internalType": "bytes4",
          "name": "interfaceId",
          "type": "bytes4"
        }
      ],
      "name": "supportsInterface",
      "outputs": [
        {
          "internalType": "bool",
          "name": "",
          "type": "bool"
        }
      ],
      "stateMutability": "view",
      "type": "function"
    },
    {
      "inputs": [],
      "name": "symbol",
      "outputs": [
        {
          "internalType": "string",
          "name": "",
          "type": "string"
        }
      ],
      "stateMutability": "view",
      "type": "function"
    },
    {
      "inputs": [],
      "name": "totalSupply",
      "outputs": [
        {
          "internalType": "uint256",
          "name": "",
          "type": "uint256"
        }
      ],
      "stateMutability": "view",
      "type": "function"
    },
    {
      "inputs": [
        {
          "internalType": "address",
          "name": "to",
          "type": "address"
        },
        {
          "internalType": "uint256",
          "name": "value",
          "type": "uint256"
        }
      ],
      "name": "transfer",
      "outputs": [
        {
          "internalType": "bool",
          "name": "",
          "type": "bool"
        }
      ],
      "stateMutability": "nonpayable",
      "type": "function"
    },
    {
      "inputs": [
        {
          "internalType": "address",
          "name": "from",
          "type": "address"
        },
        {
          "internalType": "address",
          "name": "to",
          "type": "address"
        },
        {
          "internalType": "uint256",
          "name": "value",
          "type": "uint256"
        }
      ],
      "name": "transferFrom",
      "outputs": [
        {
          "internalType": "bool",
          "name": "",
          "type": "bool"
        }
      ],
      "stateMutability": "nonpayable",
      "type": "function"
    },
    {
      "inputs": [
        {
          "internalType": "address",
          "name": "newOwner",
          "type": "address"
        }
      ],
      "name": "transferOwnership",
      "outputs": [],
      "stateMutability": "nonpayable",
      "type": "function"
    },
    {
      "inputs": [],
      "name": "uniswapV2Router",
      "outputs": [
        {
          "internalType": "address",
          "name": "",
          "type": "address"
        }
      ],
      "stateMutability": "view",
      "type": "function"
    },
    {
      "inputs": [
        {
          "internalType": "uint256",
          "name": "sTokenAmount",
          "type": "uint256"
        }
      ],
      "name": "withdraw",
      "outputs": [
        {
          "internalType": "uint256[]",
          "name": "amounts",
          "type": "uint256[]"
        }
      ],
      "stateMutability": "nonpayable",
      "type": "function"
    }
  ],
  "bytecode": "0x60806040523480156200001157600080fd5b506040516200345a3803806200345a83398101604081905262000034916200032f565b338383600362000045838262000478565b50600462000054828262000478565b5050506001600160a01b0381166200008757604051631e4fbdf760e01b8152600060048201526024015b60405180910390fd5b6200009281620001f8565b506001600160a01b038516620000f95760405162461bcd60e51b815260206004820152602560248201527f536c6963653a20496e76616c696420556e697377617020726f75746572206164604482015264647265737360d81b60648201526084016200007e565b6001600160a01b0384166200015b5760405162461bcd60e51b815260206004820152602160248201527f536c6963653a20496e76616c6964205553444320746f6b656e206164647265736044820152607360f81b60648201526084016200007e565b8051600003620001ae5760405162461bcd60e51b815260206004820152601b60248201527f536c6963653a20496e76616c6964206d6574616461746120555249000000000060448201526064016200007e565b600880546001600160a01b038088166001600160a01b03199283161790925560098054928716929091169190911790556006620001ec828262000478565b50505050505062000544565b600580546001600160a01b038381166001600160a01b0319831681179093556040519116919082907f8be0079c531659141344cd1fd0a4f28419497f9722a3daafe3b4186f6b6457e090600090a35050565b80516001600160a01b03811681146200026257600080fd5b919050565b634e487b7160e01b600052604160045260246000fd5b600082601f8301126200028f57600080fd5b81516001600160401b0380821115620002ac57620002ac62000267565b604051601f8301601f19908116603f01168101908282118183101715620002d757620002d762000267565b8160405283815260209250866020858801011115620002f557600080fd5b600091505b83821015620003195785820183015181830184015290820190620002fa565b6000602085830101528094505050505092915050565b600080600080600060a086880312156200034857600080fd5b62000353866200024a565b945062000363602087016200024a565b60408701519094506001600160401b03808211156200038157600080fd5b6200038f89838a016200027d565b94506060880151915080821115620003a657600080fd5b620003b489838a016200027d565b93506080880151915080821115620003cb57600080fd5b50620003da888289016200027d565b9150509295509295909350565b600181811c90821680620003fc57607f821691505b6020821081036200041d57634e487b7160e01b600052602260045260246000fd5b50919050565b601f82111562000473576000816000526020600020601f850160051c810160208610156200044e5750805b601f850160051c820191505b818110156200046f578281556001016200045a565b5050505b505050565b81516001600160401b0381111562000494576200049462000267565b620004ac81620004a58454620003e7565b8462000423565b602080601f831160018114620004e45760008415620004cb5750858301515b600019600386901b1c1916600185901b1785556200046f565b600085815260208120601f198616915b828110156200051557888601518255948401946001909101908401620004f4565b5085821015620005345787850151600019600388901b60f8161c191681555b5050505050600190811b01905550565b612f0680620005546000396000f3fe608060405234801561001057600080fd5b506004361061016e5760003560e01c806377a4d559116100ce578063a9059cbb11610087578063a9059cbb14610312578063c358234b14610325578063c55dae631461033a578063d9cde4a314610342578063dd62ed3e14610355578063e7078f9214610368578063f2fde38b1461037b57600080fd5b806377a4d559146102b65780637d7c2a1c146102be5780638d0fac76146102c65780638da5cb5b146102e657806395d89b41146102f7578063a1c3d3de146102ff57600080fd5b80631fd48b9a1161012b5780631fd48b9a1461020457806323b872dd146102305780632e1a7d4d14610243578063313ce5671461026357806347e7ef241461027257806370a0823114610285578063715018a6146102ae57600080fd5b806301ffc9a71461017357806306fdde031461019b578063095ea7b3146101b05780630cd950fd146101c35780631694505e146101d857806318160ddd146101f2575b600080fd5b6101866101813660046126e3565b61038e565b60405190151581526020015b60405180910390f35b6101a36103c5565b6040516101929190612731565b6101866101be366004612779565b610457565b6101d66101d13660046127bc565b61046f565b005b6008546001600160a01b03165b6040516101929190612803565b6002545b604051908152602001610192565b6101e5610212366004612817565b6001600160a01b039081166000908152600a60205260409020541690565b61018661023e366004612834565b610788565b610256610251366004612875565b6107ae565b604051610192919061288e565b60405160128152602001610192565b6101f6610280366004612779565b610982565b6101f6610293366004612817565b6001600160a01b031660009081526020819052604090205490565b6101d6610b67565b6101a3610b7b565b6101d6610b8a565b6102d96102d4366004612817565b610f87565b60405161019291906128fd565b6005546001600160a01b03166101e5565b6101a3611063565b6101d661030d36600461290b565b611072565b610186610320366004612779565b611205565b61032d611213565b6040516101929190612940565b6101e561129f565b6101f6610350366004612982565b6112ae565b6101f66103633660046129b7565b6114fe565b6101f6610376366004612817565b611529565b6101d6610389366004612817565b6115b3565b60006001600160e01b031982166301a4a4b960e51b14806103bf57506301ffc9a760e01b6001600160e01b03198316145b92915050565b6060600380546103d4906129f0565b80601f0160208091040260200160405190810160405280929190818152602001828054610400906129f0565b801561044d5780601f106104225761010080835404028352916020019161044d565b820191906000526020600020905b81548152906001019060200180831161043057829003601f168201915b5050505050905090565b6000336104658185856115f1565b5060019392505050565b6001600160a01b03831661049e5760405162461bcd60e51b815260040161049590612a24565b60405180910390fd5b6001600160a01b0382166104fe5760405162461bcd60e51b815260206004820152602160248201527f536c6963653a20496e76616c69642070726963652066656564206164647265736044820152607360f81b6064820152608401610495565b61ffff811615801590610517575061ffff811661271014155b61056f5760405162461bcd60e51b8152602060048201526024808201527f536c6963653a20496e76616c696420616c6c6f636174696f6e2070657263656e6044820152637461676560e01b6064820152608401610495565b600061057a84610f87565b516001600160a01b0316146105a457826040516363ec8ef160e11b81526004016104959190612803565b6105b58363d85c12ef60e01b611603565b6105d45782604051633624dfe160e21b81526004016104959190612803565b600754600919016105f857604051635050982560e11b815260040160405180910390fd5b6000836001600160a01b03166338d52e0f6040518163ffffffff1660e01b8152600401602060405180830381865afa158015610638573d6000803e3d6000fd5b505050506040513d601f19601f8201168201806040525081019061065c9190612a5b565b604080516060810182526001600160a01b03808816808352818516602080850182815261ffff808b16878901908152600780546001810182556000918252985160029099027fa66cc928b5edb82af9bd49922954155ab7b0942694bea4ce44661d9a8736c688810180549a8a166001600160a01b03199b8c1617905593517fa66cc928b5edb82af9bd49922954155ab7b0942694bea4ce44661d9a8736c68990940180549251909316600160a01b026001600160b01b031990921693881693909317179055828152600a9091528590208054938a169390941683179093559251939450929091907fe1e620d79ee4604d298670ecab767901fa18358e431dc956a66abfa6899d52649061077a90879061ffff91909116815260200190565b60405180910390a450505050565b60003361079685828561161f565b6107a1858585611672565b60019150505b9392505050565b6060600082116107d05760405162461bcd60e51b815260040161049590612a78565b336107db81846116d1565b60075467ffffffffffffffff8111156107f6576107f6612aa7565b60405190808252806020026020018201604052801561081f578160200160208202803683370190505b509150600080600061083060025490565b61083b601288612ad3565b6108459190612aea565b905060005b600754811015610978576007818154811061086757610867612b0c565b600091825260208083206002909202909101546001600160a01b0316808352600b909152604090912054909450925061089e601290565b60ff166108ab8385612ad3565b6108b59190612aea565b8682815181106108c7576108c7612b0c565b60200260200101818152505061090a858783815181106108e9576108e9612b0c565b6020026020010151866001600160a01b031661170b9092919063ffffffff16565b846001600160a01b0316846001600160a01b03167f9b1bfa7fa9ee420a16e124f794c35ac9f90472acc99140eb2f6447c714cad8eb88848151811061095157610951612b0c565b602002602001015160405161096891815260200190565b60405180910390a360010161084a565b5050505050919050565b60008082116109a35760405162461bcd60e51b815260040161049590612a78565b60006109ae84610f87565b6020015190506001600160a01b0381166109dc578360405162746ce760e21b81526004016104959190612803565b336109f26001600160a01b038316823087611763565b60405163095ea7b360e01b81526001600160a01b0383169063095ea7b390610a209088908890600401612b22565b6020604051808303816000875af1158015610a3f573d6000803e3d6000fd5b505050506040513d601f19601f82011682018060405250810190610a639190612b3b565b50604051636e553f6560e01b81526001600160a01b03861690636e553f6590610a929087903090600401612b5d565b6020604051808303816000875af1158015610ab1573d6000803e3d6000fd5b505050506040513d601f19601f82011682018060405250810190610ad59190612b74565b6001600160a01b0386166000908152600b6020526040812080549295508592909190610b02908490612b8d565b90915550610b129050818461179c565b806001600160a01b0316856001600160a01b03167f5548c837ab068cf56a2c2479df0882a4922fd203edb7517321831d95078c5f6286604051610b5791815260200190565b60405180910390a3505092915050565b610b6f6117d2565b610b7960006117ff565b565b6060600680546103d4906129f0565b6000610b94611851565b905060008060008060008060008060008060008060005b8d51811015610f77578d8181518110610bc657610bc6612b0c565b6020026020010151600001519c508d8181518110610be657610be6612b0c565b6020026020010151602001519b508d8181518110610c0657610c06612b0c565b6020026020010151606001519a508d8181518110610c2657610c26612b0c565b60200260200101516080015199508d8181518110610c4657610c46612b0c565b602002602001015160a0015198508a8a1015610f6f578c6001600160a01b0316633ba0b9a96040518163ffffffff1660e01b8152600401602060405180830381865afa158015610c9a573d6000803e3d6000fd5b505050506040513d601f19601f82011682018060405250810190610cbe9190612b74565b9650610cca8a8c612ba0565b9750610cd68789612aea565b95508815610d0957898811610cf857610cf08d89896112ae565b945084610d07565b610d038d8b896112ae565b9450845b505b8415610f6f57610d218c610d1b61129f565b87611e5c565b610d3c610d2e8688612b8d565b610d3661129f565b8e612009565b9350610d4661129f565b6001600160a01b03166370a08231306040518263ffffffff1660e01b8152600401610d719190612803565b602060405180830381865afa158015610d8e573d6000803e3d6000fd5b505050506040513d601f19601f82011682018060405250810190610db29190612b74565b925083831015610dd857600954610dd3906001600160a01b03168d85611e5c565b610def565b600954610def906001600160a01b03168d86611e5c565b6040516370a0823160e01b81526001600160a01b038d16906370a0823190610e1b903090600401612803565b602060405180830381865afa158015610e38573d6000803e3d6000fd5b505050506040513d601f19601f82011682018060405250810190610e5c9190612b74565b91508b6001600160a01b031663095ea7b38e846040518363ffffffff1660e01b8152600401610e8c929190612b22565b6020604051808303816000875af1158015610eab573d6000803e3d6000fd5b505050506040513d601f19601f82011682018060405250810190610ecf9190612b3b565b50604051636e553f6560e01b81526001600160a01b038e1690636e553f6590610efe9085903090600401612b5d565b6020604051808303816000875af1158015610f1d573d6000803e3d6000fd5b505050506040513d601f19601f82011682018060405250810190610f419190612b74565b6001600160a01b038e166000908152600b602052604081208054909190610f69908490612b8d565b90915550505b600101610bab565b5050505050505050505050505050565b60408051606081018252600080825260208201819052918101829052905b60075481101561105d57826001600160a01b031660078281548110610fcc57610fcc612b0c565b60009182526020909120600290910201546001600160a01b0316036110555760078181548110610ffe57610ffe612b0c565b60009182526020918290206040805160608101825260029390930290910180546001600160a01b03908116845260019091015490811693830193909352600160a01b90920461ffff16918101919091529392505050565b600101610fa5565b50919050565b6060600480546103d4906129f0565b6001600160a01b0382166110985760405162461bcd60e51b815260040161049590612a24565b61ffff8116158015906110b1575061ffff811661271014155b6110f95760405162461bcd60e51b8152602060048201526019602482015278536c6963653a20496e76616c69642070657263656e7461676560381b6044820152606401610495565b600061110483610f87565b516001600160a01b03160361112d578160405162746ce760e21b81526004016104959190612803565b60005b6007548110156111be57826001600160a01b03166007828154811061115757611157612b0c565b60009182526020909120600290910201546001600160a01b0316036111b657816007828154811061118a5761118a612b0c565b906000526020600020906002020160010160146101000a81548161ffff021916908361ffff1602179055505b600101611130565b5060405161ffff821681526001600160a01b038316907f961820b4651ecef2378d97b066e501ada836f59c275237b770421b1f46e33dd59060200160405180910390a25050565b600033610465818585611672565b60606007805480602002602001604051908101604052809291908181526020016000905b82821015611296576000848152602090819020604080516060810182526002860290920180546001600160a01b03908116845260019182015490811684860152600160a01b900461ffff16918301919091529083529092019101611237565b50505050905090565b6009546001600160a01b031690565b600080846001600160a01b031663fbfa77cf6040518163ffffffff1660e01b8152600401602060405180830381865afa1580156112ef573d6000803e3d6000fd5b505050506040513d601f19601f820116820180604052508101906113139190612a5b565b90506000816001600160a01b031663ce96cb77876040518263ffffffff1660e01b81526004016113439190612803565b602060405180830381865afa158015611360573d6000803e3d6000fd5b505050506040513d601f19601f820116820180604052508101906113849190612b74565b905060006113928587612aea565b9050816000036113a857600093505050506107a7565b6113b983631ee878f360e11b611603565b156114de57604051633ea0e43760e11b8152600481018290526001600160a01b03888116602483018190526044830152841690637d41c86e90606401600060405180830381600087803b15801561140f57600080fd5b505af1158015611423573d6000803e3d6000fd5b50505050808210156114b2576001600160a01b03871662f714ce6114478785612ad3565b306040518363ffffffff1660e01b8152600401611465929190612b5d565b6020604051808303816000875af1158015611484573d6000803e3d6000fd5b505050506040513d601f19601f820116820180604052508101906114a89190612b74565b93505050506107a7565b604051627b8a6760e11b81526001600160a01b0388169062f714ce906114659089903090600401612b5d565b808210156114b2576001600160a01b03871662f714ce6114478785612ad3565b6001600160a01b03918216600090815260016020908152604080832093909416825291909152205490565b6001600160a01b038082166000908152600a6020526040808220548151633fabe5a360e21b815291519293849391169163feaf968c9160048083019260a09291908290030181865afa158015611583573d6000803e3d6000fd5b505050506040513d601f19601f820116820180604052508101906115a79190612bcd565b50919695505050505050565b6115bb6117d2565b6001600160a01b0381166115e5576000604051631e4fbdf760e01b81526004016104959190612803565b6115ee816117ff565b50565b6115fe8383836001612127565b505050565b600061160e836121fc565b80156107a757506107a7838361222f565b600061162b84846114fe565b9050600019811461166c578181101561165d57828183604051637dc7a0d960e11b815260040161049593929190612c1d565b61166c84848484036000612127565b50505050565b6001600160a01b03831661169c576000604051634b637e8f60e11b81526004016104959190612803565b6001600160a01b0382166116c657600060405163ec442f0560e01b81526004016104959190612803565b6115fe8383836122b9565b6001600160a01b0382166116fb576000604051634b637e8f60e11b81526004016104959190612803565b611707826000836122b9565b5050565b6115fe83846001600160a01b031663a9059cbb8585604051602401611731929190612b22565b604051602081830303815290604052915060e01b6020820180516001600160e01b0383818316178352505050506123d0565b6040516001600160a01b03848116602483015283811660448301526064820183905261166c9186918216906323b872dd90608401611731565b6001600160a01b0382166117c657600060405163ec442f0560e01b81526004016104959190612803565b611707600083836122b9565b6005546001600160a01b03163314610b79573360405163118cdaa760e01b81526004016104959190612803565b600580546001600160a01b038381166001600160a01b0319831681179093556040519116919082907f8be0079c531659141344cd1fd0a4f28419497f9722a3daafe3b4186f6b6457e090600090a35050565b6060600061185d61242a565b905060008060008060008060008060078054905067ffffffffffffffff81111561188957611889612aa7565b60405190808252806020026020018201604052801561190557816020015b6118f26040518060c0016040528060006001600160a01b0316815260200160006001600160a01b03168152602001600081526020016000815260200160008152602001600081525090565b8152602001906001900390816118a75790505b50995060005b600754811015611e4f576007818154811061192857611928612b0c565b6000918252602090912060029091020154600780546001600160a01b039092169a50908290811061195b5761195b612b0c565b600091825260208220600160029092020101546001600160a01b03169850806119848b8b6124c3565b93509350505061271061ffff16600784815481106119a4576119a4612b0c565b60009182526020909120600290910201600101546119cd90600160a01b900461ffff168e612ad3565b6119d79190612aea565b9850818a6001600160a01b031663313ce5676040518163ffffffff1660e01b8152600401602060405180830381865afa158015611a18573d6000803e3d6000fd5b505050506040513d601f19601f82011682018060405250810190611a3c9190612c3e565b611a4790600a612d45565b611a51908b612ad3565b611a5b9190612aea565b9750611a678189612ad3565b6001600160a01b038c166000908152600b6020526040902054909750935086841115611d0157611a978785612ba0565b9550611aa48b87836112ae565b94508415611bc957611ab88a610d1b61129f565b611ac061129f565b6001600160a01b03166370a08231306040518263ffffffff1660e01b8152600401611aeb9190612803565b602060405180830381865afa158015611b08573d6000803e3d6000fd5b505050506040513d601f19601f82011682018060405250810190611b2c9190612b74565b600b6000611b3861129f565b6001600160a01b03166001600160a01b03168152602001908152602001600020819055506040518060c001604052808c6001600160a01b031681526020018b6001600160a01b031681526020018981526020018881526020018786611b9d9190612ba0565b815260200160008152508d8481518110611bb957611bb9612b0c565b6020026020010181905250611e45565b6040518060c001604052808c6001600160a01b031681526020018b6001600160a01b031681526020018981526020018881526020018581526020018c6001600160a01b031663fbfa77cf6040518163ffffffff1660e01b8152600401602060405180830381865afa158015611c42573d6000803e3d6000fd5b505050506040513d601f19601f82011682018060405250810190611c669190612a5b565b6001600160a01b0316635ab764ed8e611c7d61129f565b6040516001600160e01b031960e085901b1681526001600160a01b03928316600482015291166024820152604401602060405180830381865afa158015611cc8573d6000803e3d6000fd5b505050506040513d601f19601f82011682018060405250810190611cec9190612b74565b8152508d8481518110611bb957611bb9612b0c565b6040518060c001604052808c6001600160a01b031681526020018b6001600160a01b031681526020018981526020018881526020018581526020018c6001600160a01b031663fbfa77cf6040518163ffffffff1660e01b8152600401602060405180830381865afa158015611d7a573d6000803e3d6000fd5b505050506040513d601f19601f82011682018060405250810190611d9e9190612a5b565b6001600160a01b0316635ab764ed8e611db561129f565b6040516001600160e01b031960e085901b1681526001600160a01b03928316600482015291166024820152604401602060405180830381865afa158015611e00573d6000803e3d6000fd5b505050506040513d601f19601f82011682018060405250810190611e249190612b74565b8152508d8481518110611e3957611e39612b0c565b60200260200101819052505b505060010161190b565b5050505050505050505090565b6040805160028082526060820183526000926020830190803683370190505090508381600081518110611e9157611e91612b0c565b60200260200101906001600160a01b031690816001600160a01b0316815250508281600181518110611ec557611ec5612b0c565b60200260200101906001600160a01b031690816001600160a01b03168152505080600081518110611ef857611ef8612b0c565b60200260200101516001600160a01b031663095ea7b3611f206008546001600160a01b031690565b846040518363ffffffff1660e01b8152600401611f3e929190612b22565b6020604051808303816000875af1158015611f5d573d6000803e3d6000fd5b505050506040513d601f19601f82011682018060405250810190611f819190612b3b565b506008546040516338ed173960e01b81526001600160a01b03909116906338ed173990611fbb908590600090869030904290600401612d99565b6000604051808303816000875af1158015611fda573d6000803e3d6000fd5b505050506040513d6000823e601f3d908101601f191682016040526120029190810190612dd5565b5050505050565b60408051600280825260608201835260009283929190602083019080368337019050509050838160008151811061204257612042612b0c565b60200260200101906001600160a01b031690816001600160a01b031681525050828160018151811061207657612076612b0c565b6001600160a01b0392831660209182029290920101526008546040516307c0329d60e21b81526000929190911690631f00ca74906120ba9089908690600401612e93565b600060405180830381865afa1580156120d7573d6000803e3d6000fd5b505050506040513d6000823e601f3d908101601f191682016040526120ff9190810190612dd5565b90508060008151811061211457612114612b0c565b6020026020010151925050509392505050565b6001600160a01b03841661215157600060405163e602df0560e01b81526004016104959190612803565b6001600160a01b03831661217b576000604051634a1406b160e11b81526004016104959190612803565b6001600160a01b038085166000908152600160209081526040808320938716835292905220829055801561166c57826001600160a01b0316846001600160a01b03167f8c5be1e5ebec7d5bd14f71427d1e84f3dd0314c0f7b2291e5b200ac8c7c3b925846040516121ee91815260200190565b60405180910390a350505050565b600061220f826301ffc9a760e01b61222f565b80156103bf5750612228826001600160e01b031961222f565b1592915050565b6040516001600160e01b031982166024820152600090819060440160408051601f19818403018152919052602080820180516001600160e01b03166301ffc9a760e01b178152825192935060009283928392909183918a617530fa92503d915060005190508280156122a2575060208210155b80156122ae5750600081115b979650505050505050565b6001600160a01b0383166122e45780600260008282546122d99190612b8d565b909155506123439050565b6001600160a01b038316600090815260208190526040902054818110156123245783818360405163391434e360e21b815260040161049593929190612c1d565b6001600160a01b03841660009081526020819052604090209082900390555b6001600160a01b03821661235f5760028054829003905561237e565b6001600160a01b03821660009081526020819052604090208054820190555b816001600160a01b0316836001600160a01b03167fddf252ad1be2c89b69c2b068fc378daa952ba7f163c4a11628f55a4df523b3ef836040516123c391815260200190565b60405180910390a3505050565b60006123e56001600160a01b038416836125e5565b9050805160001415801561240a5750808060200190518101906124089190612b3b565b155b156115fe5782604051635274afe760e01b81526004016104959190612803565b6000805b6007548110156124bf5760006124a36007838154811061245057612450612b0c565b6000918252602090912060029091020154600780546001600160a01b03909216918590811061248157612481612b0c565b60009182526020909120600160029092020101546001600160a01b03166124c3565b505050905080836124b49190612b8d565b92505060010161242e565b5090565b6001600160a01b0382166000818152600b60209081526040808320548151633ba0b9a960e01b815291519394859485948594633ba0b9a992600480830193928290030181865afa15801561251b573d6000803e3d6000fd5b505050506040513d601f19601f8201168201806040525081019061253f9190612b74565b915061254a86611529565b92506125568282612ad3565b9350866001600160a01b031663313ce5676040518163ffffffff1660e01b8152600401602060405180830381865afa158015612596573d6000803e3d6000fd5b505050506040513d601f19601f820116820180604052508101906125ba9190612c3e565b6125c590600a612d45565b6125cf8486612ad3565b6125d99190612aea565b94505092959194509250565b60606107a78383600084600080856001600160a01b0316848660405161260b9190612eb4565b60006040518083038185875af1925050503d8060008114612648576040519150601f19603f3d011682016040523d82523d6000602084013e61264d565b606091505b509150915061265d868383612667565b9695505050505050565b60608261267c57612677826126ba565b6107a7565b815115801561269357506001600160a01b0384163b155b156126b35783604051639996b31560e01b81526004016104959190612803565b50806107a7565b8051156126ca5780518082602001fd5b604051630a12f52160e11b815260040160405180910390fd5b6000602082840312156126f557600080fd5b81356001600160e01b0319811681146107a757600080fd5b60005b83811015612728578181015183820152602001612710565b50506000910152565b602081526000825180602084015261275081604085016020870161270d565b601f01601f19169190910160400192915050565b6001600160a01b03811681146115ee57600080fd5b6000806040838503121561278c57600080fd5b823561279781612764565b946020939093013593505050565b803561ffff811681146127b757600080fd5b919050565b6000806000606084860312156127d157600080fd5b83356127dc81612764565b925060208401356127ec81612764565b91506127fa604085016127a5565b90509250925092565b6001600160a01b0391909116815260200190565b60006020828403121561282957600080fd5b81356107a781612764565b60008060006060848603121561284957600080fd5b833561285481612764565b9250602084013561286481612764565b929592945050506040919091013590565b60006020828403121561288757600080fd5b5035919050565b6020808252825182820181905260009190848201906040850190845b818110156128c6578351835292840192918401916001016128aa565b50909695505050505050565b80516001600160a01b0390811683526020808301519091169083015260409081015161ffff16910152565b606081016103bf82846128d2565b6000806040838503121561291e57600080fd5b823561292981612764565b9150612937602084016127a5565b90509250929050565b6020808252825182820181905260009190848201906040850190845b818110156128c65761296f8385516128d2565b928401926060929092019160010161295c565b60008060006060848603121561299757600080fd5b83356129a281612764565b95602085013595506040909401359392505050565b600080604083850312156129ca57600080fd5b82356129d581612764565b915060208301356129e581612764565b809150509250929050565b600181811c90821680612a0457607f821691505b60208210810361105d57634e487b7160e01b600052602260045260246000fd5b6020808252601d908201527f536c6963653a20496e76616c69642061546f6b656e2061646472657373000000604082015260600190565b600060208284031215612a6d57600080fd5b81516107a781612764565b60208082526015908201527414db1a58d94e88125b9d985b1a5908185b5bdd5b9d605a1b604082015260600190565b634e487b7160e01b600052604160045260246000fd5b634e487b7160e01b600052601160045260246000fd5b80820281158282048414176103bf576103bf612abd565b600082612b0757634e487b7160e01b600052601260045260246000fd5b500490565b634e487b7160e01b600052603260045260246000fd5b6001600160a01b03929092168252602082015260400190565b600060208284031215612b4d57600080fd5b815180151581146107a757600080fd5b9182526001600160a01b0316602082015260400190565b600060208284031215612b8657600080fd5b5051919050565b808201808211156103bf576103bf612abd565b818103818111156103bf576103bf612abd565b805169ffffffffffffffffffff811681146127b757600080fd5b600080600080600060a08688031215612be557600080fd5b612bee86612bb3565b9450602086015193506040860151925060608601519150612c1160808701612bb3565b90509295509295909350565b6001600160a01b039390931683526020830191909152604082015260600190565b600060208284031215612c5057600080fd5b815160ff811681146107a757600080fd5b600181815b80851115612c9c578160001904821115612c8257612c82612abd565b80851615612c8f57918102915b93841c9390800290612c66565b509250929050565b600082612cb3575060016103bf565b81612cc0575060006103bf565b8160018114612cd65760028114612ce057612cfc565b60019150506103bf565b60ff841115612cf157612cf1612abd565b50506001821b6103bf565b5060208310610133831016604e8410600b8410161715612d1f575081810a6103bf565b612d298383612c61565b8060001904821115612d3d57612d3d612abd565b029392505050565b60006107a760ff841683612ca4565b60008151808452602080850194506020840160005b83811015612d8e5781516001600160a01b031687529582019590820190600101612d69565b509495945050505050565b85815284602082015260a060408201526000612db860a0830186612d54565b6001600160a01b0394909416606083015250608001529392505050565b60006020808385031215612de857600080fd5b825167ffffffffffffffff80821115612e0057600080fd5b818501915085601f830112612e1457600080fd5b815181811115612e2657612e26612aa7565b8060051b604051601f19603f83011681018181108582111715612e4b57612e4b612aa7565b604052918252848201925083810185019188831115612e6957600080fd5b938501935b82851015612e8757845184529385019392850192612e6e565b98975050505050505050565b828152604060208201526000612eac6040830184612d54565b949350505050565b60008251612ec681846020870161270d565b919091019291505056fea2646970667358221220bb33026b67d25b2189f92da44088167fece020d40d3128be3457ff122c2826d664736f6c63430008180033",
  "linkReferences": {},
  "deployedLinkReferences": {}
}