{
  "_format": "hh-sol-artifact-1",
  "contractName": "SliceFactory",
  "sourceName": "contracts/erc4626/factory/SliceFactory.sol",
  "abi": [
    {
      "inputs": [],
      "stateMutability": "nonpayable",
      "type": "constructor"
    },
    {
      "inputs": [
        {
          "internalType": "address",
          "name": "owner",
          "type": "address"
        }
      ],
      "name": "OwnableInvalidOwner",
      "type": "error"
    },
    {
      "inputs": [
        {
          "internalType": "address",
          "name": "account",
          "type": "address"
        }
      ],
      "name": "OwnableUnauthorizedAccount",
      "type": "error"
    },
    {
      "anonymous": false,
      "inputs": [
        {
          "indexed": true,
          "internalType": "address",
          "name": "previousOwner",
          "type": "address"
        },
        {
          "indexed": true,
          "internalType": "address",
          "name": "newOwner",
          "type": "address"
        }
      ],
      "name": "OwnershipTransferred",
      "type": "event"
    },
    {
      "anonymous": false,
      "inputs": [
        {
          "indexed": true,
          "internalType": "address",
          "name": "slice",
          "type": "address"
        },
        {
          "indexed": true,
          "internalType": "address",
          "name": "pyth",
          "type": "address"
        },
        {
          "indexed": false,
          "internalType": "address",
          "name": "uniswapRouter",
          "type": "address"
        },
        {
          "indexed": false,
          "internalType": "address",
          "name": "usdc",
          "type": "address"
        }
      ],
      "name": "SliceDeployed",
      "type": "event"
    },
    {
      "inputs": [
        {
          "internalType": "string",
          "name": "salt",
          "type": "string"
        },
        {
          "components": [
            {
              "internalType": "address",
              "name": "pyth",
              "type": "address"
            },
            {
              "internalType": "address",
              "name": "uniswapRouter",
              "type": "address"
            },
            {
              "internalType": "address",
              "name": "usdc",
              "type": "address"
            },
            {
              "internalType": "string",
              "name": "name",
              "type": "string"
            },
            {
              "internalType": "string",
              "name": "symbol",
              "type": "string"
            },
            {
              "internalType": "bytes32",
              "name": "group",
              "type": "bytes32"
            },
            {
              "internalType": "bytes32",
              "name": "description",
              "type": "bytes32"
            },
            {
              "internalType": "uint8",
              "name": "decimals",
              "type": "uint8"
            }
          ],
          "internalType": "struct ISliceFactory.SliceDetails",
          "name": "sliceDetails",
          "type": "tuple"
        }
      ],
      "name": "deploySlice",
      "outputs": [
        {
          "internalType": "address",
          "name": "slice",
          "type": "address"
        }
      ],
      "stateMutability": "nonpayable",
      "type": "function"
    },
    {
      "inputs": [
        {
          "internalType": "bytes32",
          "name": "group",
          "type": "bytes32"
        }
      ],
      "name": "getSlicesByGroup",
      "outputs": [
        {
          "internalType": "address[]",
          "name": "",
          "type": "address[]"
        }
      ],
      "stateMutability": "view",
      "type": "function"
    },
    {
      "inputs": [],
      "name": "owner",
      "outputs": [
        {
          "internalType": "address",
          "name": "",
          "type": "address"
        }
      ],
      "stateMutability": "view",
      "type": "function"
    },
    {
      "inputs": [],
      "name": "renounceOwnership",
      "outputs": [],
      "stateMutability": "nonpayable",
      "type": "function"
    },
    {
      "inputs": [
        {
          "internalType": "bytes4",
          "name": "interfaceId",
          "type": "bytes4"
        }
      ],
      "name": "supportsInterface",
      "outputs": [
        {
          "internalType": "bool",
          "name": "",
          "type": "bool"
        }
      ],
      "stateMutability": "view",
      "type": "function"
    },
    {
      "inputs": [
        {
          "internalType": "address",
          "name": "newOwner",
          "type": "address"
        }
      ],
      "name": "transferOwnership",
      "outputs": [],
      "stateMutability": "nonpayable",
      "type": "function"
    }
  ],
  "bytecode": "0x608060405234801561001057600080fd5b50338061003757604051631e4fbdf760e01b81526000600482015260240160405180910390fd5b61004081610046565b50610096565b600080546001600160a01b038381166001600160a01b0319831681178455604051919092169283917f8be0079c531659141344cd1fd0a4f28419497f9722a3daafe3b4186f6b6457e09190a35050565b614a24806100a56000396000f3fe60806040523480156200001157600080fd5b50600436106200006a5760003560e01c806301ffc9a7146200006f578063715018a6146200009b5780638da5cb5b14620000a7578063c91d163014620000c3578063efdc090714620000e9578063f2fde38b1462000100575b600080fd5b6200008662000080366004620007c4565b62000117565b60405190151581526020015b60405180910390f35b620000a56200014f565b005b6000546001600160a01b03165b604051620000929190620007f7565b620000da620000d43660046200080b565b62000167565b60405162000092919062000825565b620000b4620000fa36600462000874565b620001d5565b620000a56200011136600462000917565b62000595565b60006001600160e01b031982166326c11f3760e01b14806200014957506301ffc9a760e01b6001600160e01b03198316145b92915050565b62000159620005da565b6200016560006200060a565b565b600081815260026020908152604091829020805483518184028101840190945280845260609392830182828015620001c957602002820191906000526020600020905b81546001600160a01b03168152600190910190602001808311620001aa575b50505050509050919050565b6000806001600160a01b031660018585604051620001f592919062000942565b908152604051908190036020019020546001600160a01b0316146200026d5760405162461bcd60e51b8152602060048201526024808201527f536c696365466163746f72793a20536c69636520616c7265616479206465706c6044820152631bde595960e21b60648201526084015b60405180910390fd5b60006200027e602084018462000917565b6001600160a01b031603620002e85760405162461bcd60e51b815260206004820152602960248201527f536c696365466163746f72793a20496e76616c69642050797468206f7261636c60448201526865206164647265737360b81b606482015260840162000264565b6000620002fc604084016020850162000917565b6001600160a01b031603620003695760405162461bcd60e51b815260206004820152602c60248201527f536c696365466163746f72793a20496e76616c696420556e697377617020526f60448201526b75746572206164647265737360a01b606482015260840162000264565b60006200037d606084016040850162000917565b6001600160a01b031603620003e05760405162461bcd60e51b815260206004820152602260248201527f536c696365466163746f72793a20496e76616c69642055534443206164647265604482015261737360f01b606482015260840162000264565b60a0820135620004335760405162461bcd60e51b815260206004820152601b60248201527f536c696365466163746f72793a20496e76616c69642067726f75700000000000604482015260640162000264565b620004408484846200065a565b905080600185856040516200045792919062000942565b90815260408051918290036020908101832080546001600160a01b039586166001600160a01b03199182161790915560a0870135600090815260028352928320805460018101825590845291909220018054938516939091168317905563f2fde38b60e01b815263f2fde38b90620004d4903390600401620007f7565b600060405180830381600087803b158015620004ef57600080fd5b505af115801562000504573d6000803e3d6000fd5b506200051892505050602083018362000917565b6001600160a01b039081169082167ff82383a5068a65f186a822a9e073214d84232ce9848db6dcf6a65bc8755b65c462000559604086016020870162000917565b6200056b606087016040880162000917565b604080516001600160a01b0393841681529290911660208301520160405180910390a39392505050565b6200059f620005da565b6001600160a01b038116620005cc576000604051631e4fbdf760e01b8152600401620002649190620007f7565b620005d7816200060a565b50565b6000546001600160a01b0316331462000165573360405163118cdaa760e01b8152600401620002649190620007f7565b600080546001600160a01b038381166001600160a01b0319831681178455604051919092169283917f8be0079c531659141344cd1fd0a4f28419497f9722a3daafe3b4186f6b6457e09190a35050565b600080604051806020016200066f90620007b6565b601f1982820381018352601f909101166040529050600062000695602085018562000917565b620006a7604086016020870162000917565b620006b9606087016040880162000917565b620006c8606088018862000952565b620006d760808a018a62000952565b60a08b013560c08c0135620006f46101008e0160e08f01620009a3565b6040516020016200070f9a99989796959493929190620009f1565b6040516020818303038152906040529050600082826040516020016200073792919062000a98565b60405160208183030381529060405290506200075587878362000760565b979650505050505050565b60008084846040516020016200077892919062000942565b604051602081830303815290604052805190602001209050600083602001845183818334f592505050803b620007ad57600080fd5b95945050505050565b613f358062000aba83390190565b600060208284031215620007d757600080fd5b81356001600160e01b031981168114620007f057600080fd5b9392505050565b6001600160a01b0391909116815260200190565b6000602082840312156200081e57600080fd5b5035919050565b6020808252825182820181905260009190848201906040850190845b81811015620008685783516001600160a01b03168352928401929184019160010162000841565b50909695505050505050565b6000806000604084860312156200088a57600080fd5b833567ffffffffffffffff80821115620008a357600080fd5b818601915086601f830112620008b857600080fd5b813581811115620008c857600080fd5b876020828501011115620008db57600080fd5b602092830195509350908501359080821115620008f757600080fd5b50840161010081870312156200090c57600080fd5b809150509250925092565b6000602082840312156200092a57600080fd5b81356001600160a01b0381168114620007f057600080fd5b8183823760009101908152919050565b6000808335601e198436030181126200096a57600080fd5b83018035915067ffffffffffffffff8211156200098657600080fd5b6020019150368190038213156200099c57600080fd5b9250929050565b600060208284031215620009b657600080fd5b813560ff81168114620007f057600080fd5b81835281816020850137506000828201602090810191909152601f909101601f19169091010190565b6001600160a01b038b811682528a81166020830152891660408201526101006060820181905260009062000a298382018a8c620009c8565b9050828103608084015262000a4081888a620009c8565b60a0840196909652505060c081019290925260ff1660e090910152979650505050505050565b6000815160005b8181101562000a89576020818501810151868301520162000a6d565b50600093019283525090919050565b600062000ab162000aaa838662000a66565b8462000a66565b94935050505056fe6101206040523480156200001257600080fd5b5060405162003f3538038062003f3583398101604081905262000035916200049c565b338585836000620000478482620005ff565b506001620000568382620005ff565b5060ff81166080524660a0526200006c620002c9565b60c0525050506001600160a01b038116620000a257604051631e4fbdf760e01b8152600060048201526024015b60405180910390fd5b620000ad8162000365565b506001600160a01b038816620001145760405162461bcd60e51b815260206004820152602560248201527f536c6963653a20496e76616c696420556e697377617020726f75746572206164604482015264647265737360d81b606482015260840162000099565b6001600160a01b038716620001785760405162461bcd60e51b815260206004820152602360248201527f536c6963653a20496e76616c6964207072696365206f72616c6365206164647260448201526265737360e81b606482015260840162000099565b6001600160a01b038616620001da5760405162461bcd60e51b815260206004820152602160248201527f536c6963653a20496e76616c6964205553444320746f6b656e206164647265736044820152607360f81b606482015260840162000099565b82620002295760405162461bcd60e51b815260206004820152601460248201527f536c6963653a20496e76616c69642067726f7570000000000000000000000000604482015260640162000099565b81620002785760405162461bcd60e51b815260206004820152601a60248201527f536c6963653a20496e76616c6964206465736372697074696f6e000000000000604482015260640162000099565b50600980546001600160a01b03199081166001600160a01b03998a161790915560088054821697891697909717909655600a805490961694909616939093179093555060e052506101005262000749565b60007f8b73c3c69bb8fe3d512ecc4cf759cc79239f7b179b0ffacaa9a75d522b39400f6000604051620002fd9190620006cb565b6040805191829003822060208301939093528101919091527fc89efdaa54c0f20c7adf612882df0950f5a951637e0307cdcb4c672f298b8bc660608201524660808201523060a082015260c00160405160208183030381529060405280519060200120905090565b600680546001600160a01b038381166001600160a01b0319831681179093556040519116919082907f8be0079c531659141344cd1fd0a4f28419497f9722a3daafe3b4186f6b6457e090600090a35050565b80516001600160a01b0381168114620003cf57600080fd5b919050565b634e487b7160e01b600052604160045260246000fd5b600082601f830112620003fc57600080fd5b81516001600160401b0380821115620004195762000419620003d4565b604051601f8301601f19908116603f01168101908282118183101715620004445762000444620003d4565b81604052838152602092508660208588010111156200046257600080fd5b600091505b8382101562000486578582018301518183018401529082019062000467565b6000602085830101528094505050505092915050565b600080600080600080600080610100898b031215620004ba57600080fd5b620004c589620003b7565b9750620004d560208a01620003b7565b9650620004e560408a01620003b7565b60608a01519096506001600160401b03808211156200050357600080fd5b620005118c838d01620003ea565b965060808b01519150808211156200052857600080fd5b50620005378b828c01620003ea565b94505060a0890151925060c0890151915060e089015160ff811681146200055d57600080fd5b809150509295985092959890939650565b600181811c908216806200058357607f821691505b602082108103620005a457634e487b7160e01b600052602260045260246000fd5b50919050565b601f821115620005fa576000816000526020600020601f850160051c81016020861015620005d55750805b601f850160051c820191505b81811015620005f657828155600101620005e1565b5050505b505050565b81516001600160401b038111156200061b576200061b620003d4565b62000633816200062c84546200056e565b84620005aa565b602080601f8311600181146200066b5760008415620006525750858301515b600019600386901b1c1916600185901b178555620005f6565b600085815260208120601f198616915b828110156200069c578886015182559484019460019091019084016200067b565b5085821015620006bb5787850151600019600388901b60f8161c191681555b5050505050600190811b01905550565b6000808354620006db816200056e565b60018281168015620006f657600181146200070c576200073d565b60ff19841687528215158302870194506200073d565b8760005260208060002060005b85811015620007345781548a82015290840190820162000719565b50505082870194505b50929695505050505050565b60805160a05160c05160e051610100516137996200079c60003960006103b90152600061027901526000610b9401526000610b5f0152600081816102dc015281816109d60152610a5b01526137996000f3fe6080604052600436106101825760003560e01c80637284e416116100d7578063a9059cbb11610085578063a9059cbb1461049f578063c358234b146104bf578063c55dae63146104e1578063d505accf146104ff578063dd62ed3e1461051f578063f2fde38b14610557578063f52a346814610577578063f98d06f01461058a57600080fd5b80637284e416146103aa5780637d7c2a1c146103dd5780637ecebe00146103f25780638085f97d1461041f5780638d0fac761461043f5780638da5cb5b1461046c57806395d89b411461048a57600080fd5b80632e1a7d4d116101345780632e1a7d4d1461029d578063313ce567146102ca5780633644e5151461031057806341b9db541461032557806347e7ef241461034857806370a0823114610368578063715018a61461039557600080fd5b806306fdde0314610187578063095ea7b3146101b25780630d8ebb3b146101e25780631694505e1461020457806318160ddd1461022b57806323b872dd1461024a57806329e7ef2d1461026a575b600080fd5b34801561019357600080fd5b5061019c6105a8565b6040516101a99190612e48565b60405180910390f35b3480156101be57600080fd5b506101d26101cd366004612e90565b610636565b60405190151581526020016101a9565b3480156101ee57600080fd5b506102026101fd366004612e90565b6106a3565b005b34801561021057600080fd5b506009546001600160a01b03165b6040516101a99190612ebc565b34801561023757600080fd5b506002545b6040519081526020016101a9565b34801561025657600080fd5b506101d2610265366004612ed0565b61086d565b34801561027657600080fd5b507f000000000000000000000000000000000000000000000000000000000000000061023c565b3480156102a957600080fd5b506102bd6102b8366004612f11565b61094f565b6040516101a99190612f2a565b3480156102d657600080fd5b506102fe7f000000000000000000000000000000000000000000000000000000000000000081565b60405160ff90911681526020016101a9565b34801561031c57600080fd5b5061023c610b5b565b34801561033157600080fd5b5061033a610bb6565b6040516101a9929190612f6e565b34801561035457600080fd5b5061023c610363366004612e90565b610fbf565b34801561037457600080fd5b5061023c610383366004612fe4565b60036020526000908152604090205481565b3480156103a157600080fd5b50610202611298565b3480156103b657600080fd5b507f000000000000000000000000000000000000000000000000000000000000000061023c565b3480156103e957600080fd5b506102026112ac565b3480156103fe57600080fd5b5061023c61040d366004612fe4565b60056020526000908152604090205481565b34801561042b57600080fd5b5061020261043a366004613001565b611bdb565b34801561044b57600080fd5b5061045f61045a366004612fe4565b611e7c565b6040516101a99190613058565b34801561047857600080fd5b506006546001600160a01b031661021e565b34801561049657600080fd5b5061019c611f4b565b3480156104ab57600080fd5b506101d26104ba366004612e90565b611f58565b3480156104cb57600080fd5b506104d4611fbe565b6040516101a99190613066565b3480156104ed57600080fd5b50600a546001600160a01b031661021e565b34801561050b57600080fd5b5061020261051a3660046130b7565b612040565b34801561052b57600080fd5b5061023c61053a366004613128565b600460209081526000928352604080842090915290825290205481565b34801561056357600080fd5b50610202610572366004612fe4565b61227e565b610202610585366004613161565b6122bc565b34801561059657600080fd5b506008546001600160a01b031661021e565b600080546105b5906131d5565b80601f01602080910402602001604051908101604052809291908181526020018280546105e1906131d5565b801561062e5780601f106106035761010080835404028352916020019161062e565b820191906000526020600020905b81548152906001019060200180831161061157829003601f168201915b505050505081565b3360008181526004602090815260408083206001600160a01b038716808552925280832085905551919290917f8c5be1e5ebec7d5bd14f71427d1e84f3dd0314c0f7b2291e5b200ac8c7c3b925906106919086815260200190565b60405180910390a35060015b92915050565b6001600160a01b0382166106d25760405162461bcd60e51b81526004016106c990613209565b60405180910390fd5b80158015906106e357506127108114155b61072b5760405162461bcd60e51b8152602060048201526019602482015278536c6963653a20496e76616c69642070657263656e7461676560381b60448201526064016106c9565b600061073683611e7c565b516001600160a01b0316036107aa5760405162461bcd60e51b815260206004820152603460248201527f536c6963653a20416c6c6f636174696f6e20666f722074686520706173736564604482015273081d1bdad95b88191bd95cdb89dd08195e1a5cdd60621b60648201526084016106c9565b60005b60075481101561082557826001600160a01b0316600782815481106107d4576107d4613240565b60009182526020909120600390910201546001600160a01b03160361081d57816007828154811061080757610807613240565b9060005260206000209060030201600201819055505b6001016107ad565b50816001600160a01b03167f1e2967d4c5a9ac981ff9038de4df288b5268f5a93e30bf576011deb9ebf792598260405161086191815260200190565b60405180910390a25050565b6001600160a01b038316600090815260046020908152604080832033845290915281205460001981146108c9576108a4838261326c565b6001600160a01b03861660009081526004602090815260408083203384529091529020555b6001600160a01b038516600090815260036020526040812080548592906108f190849061326c565b90915550506001600160a01b03808516600081815260036020526040908190208054870190555190918716906000805160206137448339815191529061093a9087815260200190565b60405180910390a360019150505b9392505050565b6060600082116109715760405162461bcd60e51b81526004016106c99061327f565b61097b338361239c565b6007546001600160401b03811115610995576109956132ae565b6040519080825280602002602001820160405280156109be578160200160208202803683370190505b50905060008060006109cf60025490565b6109fc60ff7f000000000000000000000000000000000000000000000000000000000000000016876132c4565b610a0691906132db565b905060005b600754811015610b525760078181548110610a2857610a28613240565b600091825260208083206003909202909101546001600160a01b0316808352600b909152604090912054909450925060ff7f000000000000000000000000000000000000000000000000000000000000000016610a8583856132c4565b610a8f91906132db565b858281518110610aa157610aa1613240565b602002602001018181525050610ae433868381518110610ac357610ac3613240565b6020026020010151866001600160a01b03166124069092919063ffffffff16565b336001600160a01b0316846001600160a01b03167f9b1bfa7fa9ee420a16e124f794c35ac9f90472acc99140eb2f6447c714cad8eb878481518110610b2b57610b2b613240565b6020026020010151604051610b4291815260200190565b60405180910390a3600101610a0b565b50505050919050565b60007f00000000000000000000000000000000000000000000000000000000000000004614610b9157610b8c612463565b905090565b507f000000000000000000000000000000000000000000000000000000000000000090565b6060600080610bc36124fd565b905060008060008060008060006007805490506001600160401b03811115610bed57610bed6132ae565b604051908082528060200260200182016040528015610c5257816020015b610c3f604051806080016040528060006001600160a01b031681526020016000815260200160008152602001600081525090565b815260200190600190039081610c0b5790505b50995060005b600754811015610fb25760078181548110610c7557610c75613240565b6000918252602090912060039091020154600780546001600160a01b0390921699509082908110610ca857610ca8613240565b9060005260206000209060030201600101549650600080610cc98a8a61258b565b93509350505061271061ffff1660078481548110610ce957610ce9613240565b9060005260206000209060030201600201548c610d0691906132c4565b610d1091906132db565b9750610d1c82896132db565b9650896001600160a01b031663313ce5676040518163ffffffff1660e01b8152600401602060405180830381865afa158015610d5c573d6000803e3d6000fd5b505050506040513d601f19601f82011682018060405250810190610d8091906132fd565b60ff16610d8d82896132c4565b610d9791906132db565b6040516370a0823160e01b81529096506001600160a01b038b16906370a0823190610dc6903090600401612ebc565b602060405180830381865afa158015610de3573d6000803e3d6000fd5b505050506040513d601f19601f82011682018060405250810190610e07919061331a565b935085841115610f60576000610e1d878661326c565b604051627b8a6760e11b81529091506001600160a01b038c169062f714ce90610e4c9084903090600401613333565b6020604051808303816000875af1158015610e6b573d6000803e3d6000fd5b505050506040513d601f19601f82011682018060405250810190610e8f919061331a565b9550610f088b6001600160a01b03166338d52e0f6040518163ffffffff1660e01b8152600401602060405180830381865afa158015610ed2573d6000803e3d6000fd5b505050506040513d601f19601f82011682018060405250810190610ef6919061334a565b600a546001600160a01b031688612770565b60405180608001604052808c6001600160a01b031681526020018981526020018881526020018287610f3a919061326c565b8152508e8581518110610f4f57610f4f613240565b602002602001018190525050610fa8565b60405180608001604052808b6001600160a01b03168152602001888152602001878152602001858152508d8481518110610f9c57610f9c613240565b60200260200101819052505b5050600101610c58565b5050505050505050509091565b6000808211610fe05760405162461bcd60e51b81526004016106c99061327f565b6000610feb84611e7c565b516001600160a01b0316036110585760405162461bcd60e51b815260206004820152602d60248201527f536c6963653a20416c6c6f636174696f6e20666f722074686520746f6b656e2060448201526c191bd95cdb89dd08195e1a5cdd609a1b60648201526084016106c9565b6110d1333084866001600160a01b03166338d52e0f6040518163ffffffff1660e01b8152600401602060405180830381865afa15801561109c573d6000803e3d6000fd5b505050506040513d601f19601f820116820180604052508101906110c0919061334a565b6001600160a01b031692919061291d565b826001600160a01b03166338d52e0f6040518163ffffffff1660e01b8152600401602060405180830381865afa15801561110f573d6000803e3d6000fd5b505050506040513d601f19601f82011682018060405250810190611133919061334a565b6001600160a01b031663095ea7b384846040518363ffffffff1660e01b8152600401611160929190613367565b6020604051808303816000875af115801561117f573d6000803e3d6000fd5b505050506040513d601f19601f820116820180604052508101906111a39190613380565b50604051636e553f6560e01b81526001600160a01b03841690636e553f65906111d29085903090600401613333565b6020604051808303816000875af11580156111f1573d6000803e3d6000fd5b505050506040513d601f19601f82011682018060405250810190611215919061331a565b6001600160a01b0384166000908152600b60205260408120805492935083929091906112429084906133a2565b9091555061125290503382612956565b60405182815233906001600160a01b038516907f5548c837ab068cf56a2c2479df0882a4922fd203edb7517321831d95078c5f629060200160405180910390a392915050565b6112a06129a8565b6112aa60006129d5565b565b6000806112b7610bb6565b90925090506000805b8351811015611bd55760008482815181106112dd576112dd613240565b602002602001015160000151905060008583815181106112ff576112ff613240565b6020026020010151604001519050600086848151811061132157611321613240565b602002602001015160600151905080820361133e57505050611bcd565b60405163dc3b7c8b60e01b81526001600160a01b0384169063dc3b7c8b9061136a908690600401612ebc565b602060405180830381865afa158015611387573d6000803e3d6000fd5b505050506040513d601f19601f820116820180604052508101906113ab919061331a565b955060006113b9828461326c565b905060006113c788836132db565b90508282111561144757604051627b8a6760e11b81526001600160a01b0386169062f714ce906113fd9086903090600401613333565b6020604051808303816000875af115801561141c573d6000803e3d6000fd5b505050506040513d601f19601f82011682018060405250810190611440919061331a565b96506114b9565b604051627b8a6760e11b81526001600160a01b0386169062f714ce906114739085903090600401613333565b6020604051808303816000875af1158015611492573d6000803e3d6000fd5b505050506040513d601f19601f820116820180604052508101906114b6919061331a565b96505b611530856001600160a01b03166338d52e0f6040518163ffffffff1660e01b8152600401602060405180830381865afa1580156114fa573d6000803e3d6000fd5b505050506040513d601f19601f8201168201806040525081019061151e919061334a565b600a546001600160a01b031689612770565b60006115b382600a60009054906101000a90046001600160a01b0316886001600160a01b03166338d52e0f6040518163ffffffff1660e01b8152600401602060405180830381865afa15801561158a573d6000803e3d6000fd5b505050506040513d601f19601f820116820180604052508101906115ae919061334a565b612a27565b600a546040516370a0823160e01b81529192506000916001600160a01b03909116906370a08231906115e9903090600401612ebc565b602060405180830381865afa158015611606573d6000803e3d6000fd5b505050506040513d601f19601f8201168201806040525081019061162a919061331a565b9050818110156118ff576116b5600a60009054906101000a90046001600160a01b0316886001600160a01b03166338d52e0f6040518163ffffffff1660e01b8152600401602060405180830381865afa15801561168b573d6000803e3d6000fd5b505050506040513d601f19601f820116820180604052508101906116af919061334a565b83612770565b6000876001600160a01b03166338d52e0f6040518163ffffffff1660e01b8152600401602060405180830381865afa1580156116f5573d6000803e3d6000fd5b505050506040513d601f19601f82011682018060405250810190611719919061334a565b6001600160a01b03166370a08231306040518263ffffffff1660e01b81526004016117449190612ebc565b602060405180830381865afa158015611761573d6000803e3d6000fd5b505050506040513d601f19601f82011682018060405250810190611785919061331a565b9050876001600160a01b03166338d52e0f6040518163ffffffff1660e01b8152600401602060405180830381865afa1580156117c5573d6000803e3d6000fd5b505050506040513d601f19601f820116820180604052508101906117e9919061334a565b6001600160a01b031663095ea7b389836040518363ffffffff1660e01b8152600401611816929190613367565b6020604051808303816000875af1158015611835573d6000803e3d6000fd5b505050506040513d601f19601f820116820180604052508101906118599190613380565b50604051636e553f6560e01b81526001600160a01b03891690636e553f65906118889084903090600401613333565b6020604051808303816000875af11580156118a7573d6000803e3d6000fd5b505050506040513d601f19601f820116820180604052508101906118cb919061331a565b6001600160a01b0389166000908152600b6020526040812080549091906118f39084906133a2565b90915550611bc5915050565b611980600a60009054906101000a90046001600160a01b0316886001600160a01b03166338d52e0f6040518163ffffffff1660e01b8152600401602060405180830381865afa158015611956573d6000803e3d6000fd5b505050506040513d601f19601f8201168201806040525081019061197a919061334a565b84612770565b6000876001600160a01b03166338d52e0f6040518163ffffffff1660e01b8152600401602060405180830381865afa1580156119c0573d6000803e3d6000fd5b505050506040513d601f19601f820116820180604052508101906119e4919061334a565b6001600160a01b03166370a08231306040518263ffffffff1660e01b8152600401611a0f9190612ebc565b602060405180830381865afa158015611a2c573d6000803e3d6000fd5b505050506040513d601f19601f82011682018060405250810190611a50919061331a565b9050876001600160a01b03166338d52e0f6040518163ffffffff1660e01b8152600401602060405180830381865afa158015611a90573d6000803e3d6000fd5b505050506040513d601f19601f82011682018060405250810190611ab4919061334a565b6001600160a01b031663095ea7b389836040518363ffffffff1660e01b8152600401611ae1929190613367565b6020604051808303816000875af1158015611b00573d6000803e3d6000fd5b505050506040513d601f19601f82011682018060405250810190611b249190613380565b50604051636e553f6560e01b81526001600160a01b03891690636e553f6590611b539084903090600401613333565b6020604051808303816000875af1158015611b72573d6000803e3d6000fd5b505050506040513d601f19601f82011682018060405250810190611b96919061331a565b6001600160a01b0389166000908152600b602052604081208054909190611bbe9084906133a2565b9091555050505b505050505050505b6001016112c0565b50505050565b6001600160a01b038316611c015760405162461bcd60e51b81526004016106c990613209565b81611c485760405162461bcd60e51b815260206004820152601760248201527614db1a58d94e88125b9d985b1a59081c1c9a58d9481a59604a1b60448201526064016106c9565b8015801590611c5957506127108114155b611cb15760405162461bcd60e51b8152602060048201526024808201527f536c6963653a20496e76616c696420616c6c6f636174696f6e2070657263656e6044820152637461676560e01b60648201526084016106c9565b6000611cbc84611e7c565b516001600160a01b031614611d295760405162461bcd60e51b815260206004820152602d60248201527f536c6963653a20416c6c6f636174696f6e20666f72207468652070617373656460448201526c20746f6b656e2065786973747360981b60648201526084016106c9565b600754600a11611d7b5760405162461bcd60e51b815260206004820152601f60248201527f536c6963653a20416c6c6f636174696f6e206c696d697420657863656564730060448201526064016106c9565b604080516060810182526001600160a01b0385811680835260208084018781528486018781526007805460018101825560009190915295517fa66cc928b5edb82af9bd49922954155ab7b0942694bea4ce44661d9a8736c688600390970296870180546001600160a01b0319169190961617909455517fa66cc928b5edb82af9bd49922954155ab7b0942694bea4ce44661d9a8736c68985015591517fa66cc928b5edb82af9bd49922954155ab7b0942694bea4ce44661d9a8736c68a90930192909255825185815290810184905290917f24fc0067766464a719e663f3c3e2e78040765e6bd53ab2c25ae4123c9771dd5d910160405180910390a2505050565b60408051606081018252600080825260208201819052918101829052905b600754811015611f4557826001600160a01b031660078281548110611ec157611ec1613240565b60009182526020909120600390910201546001600160a01b031603611f3d5760078181548110611ef357611ef3613240565b600091825260209182902060408051606081018252600390930290910180546001600160a01b03168352600181015493830193909352600290920154918101919091529392505050565b600101611e9a565b50919050565b600180546105b5906131d5565b33600090815260036020526040812080548391908390611f7990849061326c565b90915550506001600160a01b03831660008181526003602052604090819020805485019055513390600080516020613744833981519152906106919086815260200190565b60606007805480602002602001604051908101604052809291908181526020016000905b82821015612037576000848152602090819020604080516060810182526003860290920180546001600160a01b0316835260018082015484860152600290910154918301919091529083529092019101611fe2565b50505050905090565b4284101561208a5760405162461bcd60e51b815260206004820152601760248201527614115493525517d11150511312539157d1561412549151604a1b60448201526064016106c9565b60006001612096610b5b565b6001600160a01b038a811660008181526005602090815260409182902080546001810190915582517f6e71edae12b1b97f4d1f60370fef10105fa2faae0126114a169c64845d6126c98184015280840194909452938d166060840152608083018c905260a083019390935260c08083018b90528151808403909101815260e08301909152805192019190912061190160f01b6101008301526101028201929092526101228101919091526101420160408051601f198184030181528282528051602091820120600084529083018083525260ff871690820152606081018590526080810184905260a0016020604051602081039080840390855afa1580156121a2573d6000803e3d6000fd5b5050604051601f1901519150506001600160a01b038116158015906121d85750876001600160a01b0316816001600160a01b0316145b6122155760405162461bcd60e51b815260206004820152600e60248201526d24a72b20a624a22fa9a4a3a722a960911b60448201526064016106c9565b6001600160a01b0390811660009081526004602090815260408083208a8516808552908352928190208990555188815291928a16917f8c5be1e5ebec7d5bd14f71427d1e84f3dd0314c0f7b2291e5b200ac8c7c3b925910160405180910390a350505050505050565b6122866129a8565b6001600160a01b0381166122b0576000604051631e4fbdf760e01b81526004016106c99190612ebc565b6122b9816129d5565b50565b60085460405163d47eed4560e01b81526000916001600160a01b03169063d47eed45906122ef90869086906004016133de565b602060405180830381865afa15801561230c573d6000803e3d6000fd5b505050506040513d601f19601f82011682018060405250810190612330919061331a565b600854604051631df3cbc560e31b81529192506001600160a01b03169063ef9e5e2890839061236590879087906004016133de565b6000604051808303818588803b15801561237e57600080fd5b505af1158015612392573d6000803e3d6000fd5b5050505050505050565b6001600160a01b038216600090815260036020526040812080548392906123c490849061326c565b90915550506002805482900390556040518181526000906001600160a01b03841690600080516020613744833981519152906020015b60405180910390a35050565b61245e83846001600160a01b031663a9059cbb858560405160240161242c929190613367565b604051602081830303815290604052915060e01b6020820180516001600160e01b038381831617835250505050612b45565b505050565b60007f8b73c3c69bb8fe3d512ecc4cf759cc79239f7b179b0ffacaa9a75d522b39400f60006040516124959190613479565b6040805191829003822060208301939093528101919091527fc89efdaa54c0f20c7adf612882df0950f5a951637e0307cdcb4c672f298b8bc660608201524660808201523060a082015260c00160405160208183030381529060405280519060200120905090565b6000805b60075481101561258757600061256b6007838154811061252357612523613240565b6000918252602090912060039091020154600780546001600160a01b03909216918590811061255457612554613240565b90600052602060002090600302016001015461258b565b5050509050808361257c91906133a2565b925050600101612501565b5090565b6000806000806000866001600160a01b03166370a08231306040518263ffffffff1660e01b81526004016125bf9190612ebc565b602060405180830381865afa1580156125dc573d6000803e3d6000fd5b505050506040513d601f19601f82011682018060405250810190612600919061331a565b60405163dc3b7c8b60e01b81529091506001600160a01b0388169063dc3b7c8b9061262f908a90600401612ebc565b602060405180830381865afa15801561264c573d6000803e3d6000fd5b505050506040513d601f19601f82011682018060405250810190612670919061331a565b91506126dd876001600160a01b03166338d52e0f6040518163ffffffff1660e01b8152600401602060405180830381865afa1580156126b3573d6000803e3d6000fd5b505050506040513d601f19601f820116820180604052508101906126d7919061334a565b87612b9f565b92506126e982826132c4565b9350866001600160a01b031663313ce5676040518163ffffffff1660e01b8152600401602060405180830381865afa158015612729573d6000803e3d6000fd5b505050506040513d601f19601f8201168201806040525081019061274d91906132fd565b60ff1661275a84866132c4565b61276491906132db565b94505092959194509250565b60408051600280825260608201835260009260208301908036833701905050905083816000815181106127a5576127a5613240565b60200260200101906001600160a01b031690816001600160a01b03168152505082816001815181106127d9576127d9613240565b60200260200101906001600160a01b031690816001600160a01b0316815250508060008151811061280c5761280c613240565b60200260200101516001600160a01b031663095ea7b36128346009546001600160a01b031690565b846040518363ffffffff1660e01b8152600401612852929190613367565b6020604051808303816000875af1158015612871573d6000803e3d6000fd5b505050506040513d601f19601f820116820180604052508101906128959190613380565b506009546040516338ed173960e01b81526001600160a01b03909116906338ed1739906128cf90859060009086903090429060040161355f565b6000604051808303816000875af11580156128ee573d6000803e3d6000fd5b505050506040513d6000823e601f3d908101601f1916820160405261291691908101906135cb565b5050505050565b6040516001600160a01b038481166024830152838116604483015260648201839052611bd59186918216906323b872dd9060840161242c565b806002600082825461296891906133a2565b90915550506001600160a01b03821660008181526003602090815260408083208054860190555184815260008051602061374483398151915291016123fa565b6006546001600160a01b031633146112aa573360405163118cdaa760e01b81526004016106c99190612ebc565b600680546001600160a01b038381166001600160a01b0319831681179093556040519116919082907f8be0079c531659141344cd1fd0a4f28419497f9722a3daafe3b4186f6b6457e090600090a35050565b604080516002808252606082018352600092839291906020830190803683370190505090508381600081518110612a6057612a60613240565b60200260200101906001600160a01b031690816001600160a01b0316815250508281600181518110612a9457612a94613240565b6001600160a01b0392831660209182029290920101526009546040516307c0329d60e21b81526000929190911690631f00ca7490612ad89089908690600401613670565b600060405180830381865afa158015612af5573d6000803e3d6000fd5b505050506040513d6000823e601f3d908101601f19168201604052612b1d91908101906135cb565b905080600081518110612b3257612b32613240565b6020026020010151925050509392505050565b6000612b5a6001600160a01b03841683612d26565b90508051600014158015612b7f575080806020019051810190612b7d9190613380565b155b1561245e5782604051635274afe760e01b81526004016106c99190612ebc565b6008546040516331d98b3f60e01b81526004810183905260009182916001600160a01b03909116906331d98b3f90602401608060405180830381865afa158015612bed573d6000803e3d6000fd5b505050506040513d601f19601f82011682018060405250810190612c119190613691565b9050806000015160070b73__$2f7d61c278077ad9ff6dabaf3cf2055321$__63b55522b290918360400151876001600160a01b031663313ce5676040518163ffffffff1660e01b8152600401602060405180830381865afa158015612c7a573d6000803e3d6000fd5b505050506040513d601f19601f82011682018060405250810190612c9e91906132fd565b6040516001600160e01b031960e086901b16815260079390930b600484015260039190910b602483015260ff166044820152606401602060405180830381865af4158015612cf0573d6000803e3d6000fd5b505050506040513d601f19601f82011682018060405250810190612d14919061331a565b50678ac7230489e80000949350505050565b60606109488383600084600080856001600160a01b03168486604051612d4c9190613727565b60006040518083038185875af1925050503d8060008114612d89576040519150601f19603f3d011682016040523d82523d6000602084013e612d8e565b606091505b5091509150612d9e868383612da8565b9695505050505050565b606082612dbd57612db882612dfb565b610948565b8151158015612dd457506001600160a01b0384163b155b15612df45783604051639996b31560e01b81526004016106c99190612ebc565b5080610948565b805115612e0b5780518082602001fd5b604051630a12f52160e11b815260040160405180910390fd5b60005b83811015612e3f578181015183820152602001612e27565b50506000910152565b6020815260008251806020840152612e67816040850160208701612e24565b601f01601f19169190910160400192915050565b6001600160a01b03811681146122b957600080fd5b60008060408385031215612ea357600080fd5b8235612eae81612e7b565b946020939093013593505050565b6001600160a01b0391909116815260200190565b600080600060608486031215612ee557600080fd5b8335612ef081612e7b565b92506020840135612f0081612e7b565b929592945050506040919091013590565b600060208284031215612f2357600080fd5b5035919050565b6020808252825182820181905260009190848201906040850190845b81811015612f6257835183529284019291840191600101612f46565b50909695505050505050565b6040808252835182820181905260009190606090818501906020808901865b83811015612fcd57815180516001600160a01b03168652838101518487015287810151888701528601518686015260809094019390820190600101612f8d565b505050508093505050508260208301529392505050565b600060208284031215612ff657600080fd5b813561094881612e7b565b60008060006060848603121561301657600080fd5b833561302181612e7b565b95602085013595506040909401359392505050565b80516001600160a01b0316825260208082015190830152604090810151910152565b6060810161069d8284613036565b6020808252825182820181905260009190848201906040850190845b81811015612f6257613095838551613036565b9284019260609290920191600101613082565b60ff811681146122b957600080fd5b600080600080600080600060e0888a0312156130d257600080fd5b87356130dd81612e7b565b965060208801356130ed81612e7b565b95506040880135945060608801359350608088013561310b816130a8565b9699959850939692959460a0840135945060c09093013592915050565b6000806040838503121561313b57600080fd5b823561314681612e7b565b9150602083013561315681612e7b565b809150509250929050565b6000806020838503121561317457600080fd5b82356001600160401b038082111561318b57600080fd5b818501915085601f83011261319f57600080fd5b8135818111156131ae57600080fd5b8660208260051b85010111156131c357600080fd5b60209290920196919550909350505050565b600181811c908216806131e957607f821691505b602082108103611f4557634e487b7160e01b600052602260045260246000fd5b6020808252601d908201527f536c6963653a20496e76616c69642061546f6b656e2061646472657373000000604082015260600190565b634e487b7160e01b600052603260045260246000fd5b634e487b7160e01b600052601160045260246000fd5b8181038181111561069d5761069d613256565b60208082526015908201527414db1a58d94e88125b9d985b1a5908185b5bdd5b9d605a1b604082015260600190565b634e487b7160e01b600052604160045260246000fd5b808202811582820484141761069d5761069d613256565b6000826132f857634e487b7160e01b600052601260045260246000fd5b500490565b60006020828403121561330f57600080fd5b8151610948816130a8565b60006020828403121561332c57600080fd5b5051919050565b9182526001600160a01b0316602082015260400190565b60006020828403121561335c57600080fd5b815161094881612e7b565b6001600160a01b03929092168252602082015260400190565b60006020828403121561339257600080fd5b8151801515811461094857600080fd5b8082018082111561069d5761069d613256565b81835281816020850137506000828201602090810191909152601f909101601f19169091010190565b60208082528181018390526000906040600585901b8401810190840186845b8781101561346c57868403603f190183528135368a9003601e1901811261342357600080fd5b890185810190356001600160401b0381111561343e57600080fd5b80360382131561344d57600080fd5b6134588682846133b5565b9550505091840191908401906001016133fd565b5091979650505050505050565b60008083548160018260011c9150600183168061349757607f831692505b602080841082036134b657634e487b7160e01b86526022600452602486fd5b8180156134ca57600181146134df5761350c565b60ff198616895284151585028901965061350c565b60008a81526020902060005b868110156135045781548b8201529085019083016134eb565b505084890196505b509498975050505050505050565b60008151808452602080850194506020840160005b838110156135545781516001600160a01b03168752958201959082019060010161352f565b509495945050505050565b85815284602082015260a06040820152600061357e60a083018661351a565b6001600160a01b0394909416606083015250608001529392505050565b604051601f8201601f191681016001600160401b03811182821017156135c3576135c36132ae565b604052919050565b600060208083850312156135de57600080fd5b82516001600160401b03808211156135f557600080fd5b818501915085601f83011261360957600080fd5b81518181111561361b5761361b6132ae565b8060051b915061362c84830161359b565b818152918301840191848101908884111561364657600080fd5b938501935b838510156136645784518252938501939085019061364b565b98975050505050505050565b828152604060208201526000613689604083018461351a565b949350505050565b6000608082840312156136a357600080fd5b604051608081016001600160401b0382821081831117156136c6576136c66132ae565b81604052845191508160070b82146136dd57600080fd5b90825260208401519080821682146136f457600080fd5b5060208201526040830151600381900b811461370f57600080fd5b60408201526060928301519281019290925250919050565b60008251613739818460208701612e24565b919091019291505056feddf252ad1be2c89b69c2b068fc378daa952ba7f163c4a11628f55a4df523b3efa26469706673582212205a7496288f466f465b0b9d5c2785c13a93ebb057ec895b4b95658294dce9bcc564736f6c63430008180033a2646970667358221220172b21d921b0d0befef2b0b956471d2e55474d3b40b8c96e459012de9b8bfd6064736f6c63430008180033",
  "linkReferences": {
    "@pythnetwork/pyth-sdk-solidity/PythUtils.sol": {
      "PythUtils": [
        {
          "length": 20,
          "start": 16152
        }
      ]
    }
  },
  "deployedLinkReferences": {
    "@pythnetwork/pyth-sdk-solidity/PythUtils.sol": {
      "PythUtils": [
        {
          "length": 20,
          "start": 15987
        }
      ]
    }
  }
}