{
  "_format": "hh-sol-artifact-1",
  "contractName": "SliceFactory",
  "sourceName": "contracts/erc4626/factory/SliceFactory.sol",
  "abi": [
    {
      "inputs": [],
      "stateMutability": "nonpayable",
      "type": "constructor"
    },
    {
      "inputs": [
        {
          "internalType": "address",
          "name": "owner",
          "type": "address"
        }
      ],
      "name": "OwnableInvalidOwner",
      "type": "error"
    },
    {
      "inputs": [
        {
          "internalType": "address",
          "name": "account",
          "type": "address"
        }
      ],
      "name": "OwnableUnauthorizedAccount",
      "type": "error"
    },
    {
      "anonymous": false,
      "inputs": [
        {
          "indexed": true,
          "internalType": "address",
          "name": "previousOwner",
          "type": "address"
        },
        {
          "indexed": true,
          "internalType": "address",
          "name": "newOwner",
          "type": "address"
        }
      ],
      "name": "OwnershipTransferred",
      "type": "event"
    },
    {
      "anonymous": false,
      "inputs": [
        {
          "indexed": true,
          "internalType": "address",
          "name": "slice",
          "type": "address"
        },
        {
          "indexed": false,
          "internalType": "address",
          "name": "uniswapRouter",
          "type": "address"
        },
        {
          "indexed": false,
          "internalType": "address",
          "name": "usdc",
          "type": "address"
        }
      ],
      "name": "SliceDeployed",
      "type": "event"
    },
    {
      "inputs": [
        {
          "internalType": "string",
          "name": "salt",
          "type": "string"
        },
        {
          "components": [
            {
              "internalType": "address",
              "name": "uniswapRouter",
              "type": "address"
            },
            {
              "internalType": "address",
              "name": "usdc",
              "type": "address"
            },
            {
              "internalType": "string",
              "name": "name",
              "type": "string"
            },
            {
              "internalType": "string",
              "name": "symbol",
              "type": "string"
            },
            {
              "internalType": "string",
              "name": "metadataUri",
              "type": "string"
            }
          ],
          "internalType": "struct ISliceFactory.SliceDetails",
          "name": "sliceDetails",
          "type": "tuple"
        }
      ],
      "name": "deploySlice",
      "outputs": [
        {
          "internalType": "address",
          "name": "slice",
          "type": "address"
        }
      ],
      "stateMutability": "nonpayable",
      "type": "function"
    },
    {
      "inputs": [],
      "name": "owner",
      "outputs": [
        {
          "internalType": "address",
          "name": "",
          "type": "address"
        }
      ],
      "stateMutability": "view",
      "type": "function"
    },
    {
      "inputs": [],
      "name": "renounceOwnership",
      "outputs": [],
      "stateMutability": "nonpayable",
      "type": "function"
    },
    {
      "inputs": [
        {
          "internalType": "bytes4",
          "name": "interfaceId",
          "type": "bytes4"
        }
      ],
      "name": "supportsInterface",
      "outputs": [
        {
          "internalType": "bool",
          "name": "",
          "type": "bool"
        }
      ],
      "stateMutability": "view",
      "type": "function"
    },
    {
      "inputs": [
        {
          "internalType": "address",
          "name": "newOwner",
          "type": "address"
        }
      ],
      "name": "transferOwnership",
      "outputs": [],
      "stateMutability": "nonpayable",
      "type": "function"
    }
  ],
  "bytecode": "0x608060405234801561001057600080fd5b50338061003757604051631e4fbdf760e01b81526000600482015260240160405180910390fd5b61004081610046565b50610096565b600080546001600160a01b038381166001600160a01b0319831681178455604051919092169283917f8be0079c531659141344cd1fd0a4f28419497f9722a3daafe3b4186f6b6457e09190a35050565b613bb1806100a56000396000f3fe60806040523480156200001157600080fd5b50600436106200005e5760003560e01c806301ffc9a714620000635780636bcaa0ee146200008f578063715018a614620000b55780638da5cb5b14620000c1578063f2fde38b14620000d3575b600080fd5b6200007a620000743660046200065f565b620000ea565b60405190151581526020015b60405180910390f35b620000a6620000a036600462000692565b62000122565b60405162000086919062000734565b620000bf6200043a565b005b6000546001600160a01b0316620000a6565b620000bf620000e436600462000748565b62000452565b60006001600160e01b031982166335e5507760e11b14806200011c57506301ffc9a760e01b6001600160e01b03198316145b92915050565b6000806001600160a01b0316600185856040516200014292919062000773565b908152604051908190036020019020546001600160a01b031614620001ba5760405162461bcd60e51b8152602060048201526024808201527f536c696365466163746f72793a20536c69636520616c7265616479206465706c6044820152631bde595960e21b60648201526084015b60405180910390fd5b6000620001cb602084018462000748565b6001600160a01b031603620002385760405162461bcd60e51b815260206004820152602c60248201527f536c696365466163746f72793a20496e76616c696420556e697377617020526f60448201526b75746572206164647265737360a01b6064820152608401620001b1565b60006200024c604084016020850162000748565b6001600160a01b031603620002af5760405162461bcd60e51b815260206004820152602260248201527f536c696365466163746f72793a20496e76616c69642055534443206164647265604482015261737360f01b6064820152608401620001b1565b620002be608083018362000783565b90506000036200031c5760405162461bcd60e51b815260206004820152602260248201527f536c696365466163746f72793a20496e76616c6964206d657461646174612055604482015261524960f01b6064820152608401620001b1565b6200032984848462000497565b905080600185856040516200034092919062000773565b90815260405190819003602001812080546001600160a01b039384166001600160a01b031990911617905563f2fde38b60e01b81529082169063f2fde38b906200038f90339060040162000734565b600060405180830381600087803b158015620003aa57600080fd5b505af1158015620003bf573d6000803e3d6000fd5b5050506001600160a01b03821690507f161ecf73e3bfe9baee592d61843de85e606e927fa437c4355182cde715d72a92620003fe602085018562000748565b62000410604086016020870162000748565b604080516001600160a01b0393841681529290911660208301520160405180910390a29392505050565b620004446200057b565b620004506000620005ab565b565b6200045c6200057b565b6001600160a01b03811662000489576000604051631e4fbdf760e01b8152600401620001b1919062000734565b6200049481620005ab565b50565b60008060405180602001620004ac9062000651565b601f1982820381018352601f9091011660405290506000620004d2602085018562000748565b620004e4604086016020870162000748565b620004f3604087018762000783565b62000502606089018962000783565b6200051160808b018b62000783565b6040516020016200052a989796959493929190620007fd565b6040516020818303038152906040529050600082826040516020016200055292919062000899565b604051602081830303815290604052905062000570878783620005fb565b979650505050505050565b6000546001600160a01b0316331462000450573360405163118cdaa760e01b8152600401620001b1919062000734565b600080546001600160a01b038381166001600160a01b0319831681178455604051919092169283917f8be0079c531659141344cd1fd0a4f28419497f9722a3daafe3b4186f6b6457e09190a35050565b60008084846040516020016200061392919062000773565b604051602081830303815290604052805190602001209050600083602001845183818334f592505050803b6200064857600080fd5b95945050505050565b6132c180620008bb83390190565b6000602082840312156200067257600080fd5b81356001600160e01b0319811681146200068b57600080fd5b9392505050565b600080600060408486031215620006a857600080fd5b833567ffffffffffffffff80821115620006c157600080fd5b818601915086601f830112620006d657600080fd5b813581811115620006e657600080fd5b876020828501011115620006f957600080fd5b6020928301955093509085013590808211156200071557600080fd5b50840160a081870312156200072957600080fd5b809150509250925092565b6001600160a01b0391909116815260200190565b6000602082840312156200075b57600080fd5b81356001600160a01b03811681146200068b57600080fd5b8183823760009101908152919050565b6000808335601e198436030181126200079b57600080fd5b83018035915067ffffffffffffffff821115620007b757600080fd5b602001915036819003821315620007cd57600080fd5b9250929050565b81835281816020850137506000828201602090810191909152601f909101601f19169091010190565b6001600160a01b0389811682528816602082015260a0604082018190526000906200082c908301888a620007d4565b828103606084015262000841818789620007d4565b9050828103608084015262000858818587620007d4565b9b9a5050505050505050505050565b6000815160005b818110156200088a57602081850181015186830152016200086e565b50600093019283525090919050565b6000620008b2620008ab838662000867565b8462000867565b94935050505056fe60806040523480156200001157600080fd5b50604051620032c1380380620032c183398101604081905262000034916200032f565b338383600362000045838262000478565b50600462000054828262000478565b5050506001600160a01b0381166200008757604051631e4fbdf760e01b8152600060048201526024015b60405180910390fd5b6200009281620001f8565b506001600160a01b038516620000f95760405162461bcd60e51b815260206004820152602560248201527f536c6963653a20496e76616c696420556e697377617020726f75746572206164604482015264647265737360d81b60648201526084016200007e565b6001600160a01b0384166200015b5760405162461bcd60e51b815260206004820152602160248201527f536c6963653a20496e76616c6964205553444320746f6b656e206164647265736044820152607360f81b60648201526084016200007e565b8051600003620001ae5760405162461bcd60e51b815260206004820152601b60248201527f536c6963653a20496e76616c6964206d6574616461746120555249000000000060448201526064016200007e565b600880546001600160a01b038088166001600160a01b03199283161790925560098054928716929091169190911790556006620001ec828262000478565b50505050505062000544565b600580546001600160a01b038381166001600160a01b0319831681179093556040519116919082907f8be0079c531659141344cd1fd0a4f28419497f9722a3daafe3b4186f6b6457e090600090a35050565b80516001600160a01b03811681146200026257600080fd5b919050565b634e487b7160e01b600052604160045260246000fd5b600082601f8301126200028f57600080fd5b81516001600160401b0380821115620002ac57620002ac62000267565b604051601f8301601f19908116603f01168101908282118183101715620002d757620002d762000267565b8160405283815260209250866020858801011115620002f557600080fd5b600091505b83821015620003195785820183015181830184015290820190620002fa565b6000602085830101528094505050505092915050565b600080600080600060a086880312156200034857600080fd5b62000353866200024a565b945062000363602087016200024a565b60408701519094506001600160401b03808211156200038157600080fd5b6200038f89838a016200027d565b94506060880151915080821115620003a657600080fd5b620003b489838a016200027d565b93506080880151915080821115620003cb57600080fd5b50620003da888289016200027d565b9150509295509295909350565b600181811c90821680620003fc57607f821691505b6020821081036200041d57634e487b7160e01b600052602260045260246000fd5b50919050565b601f82111562000473576000816000526020600020601f850160051c810160208610156200044e5750805b601f850160051c820191505b818110156200046f578281556001016200045a565b5050505b505050565b81516001600160401b0381111562000494576200049462000267565b620004ac81620004a58454620003e7565b8462000423565b602080601f831160018114620004e45760008415620004cb5750858301515b600019600386901b1c1916600185901b1785556200046f565b600085815260208120601f198616915b828110156200051557888601518255948401946001909101908401620004f4565b5085821015620005345787850151600019600388901b60f8161c191681555b5050505050600190811b01905550565b612d6d80620005546000396000f3fe608060405234801561001057600080fd5b50600436106101635760003560e01c8063715018a6116100ce578063a1c3d3de11610087578063a1c3d3de146102f4578063a9059cbb14610307578063c358234b1461031a578063c55dae631461032f578063dd62ed3e14610337578063e7078f921461034a578063f2fde38b1461035d57600080fd5b8063715018a6146102a357806377a4d559146102ab5780637d7c2a1c146102b35780638d0fac76146102bb5780638da5cb5b146102db57806395d89b41146102ec57600080fd5b80631fd48b9a116101205780631fd48b9a146101f957806323b872dd146102255780632e1a7d4d14610238578063313ce5671461025857806347e7ef241461026757806370a082311461027a57600080fd5b806301ffc9a71461016857806306fdde0314610190578063095ea7b3146101a55780630cd950fd146101b85780631694505e146101cd57806318160ddd146101e7575b600080fd5b61017b61017636600461257f565b610370565b60405190151581526020015b60405180910390f35b6101986103a7565b60405161018791906125cd565b61017b6101b3366004612615565b610439565b6101cb6101c6366004612658565b610451565b005b6008546001600160a01b03165b604051610187919061269f565b6002545b604051908152602001610187565b6101da6102073660046126b3565b6001600160a01b039081166000908152600a60205260409020541690565b61017b6102333660046126d0565b610808565b61024b610246366004612711565b61082e565b604051610187919061272a565b60405160128152602001610187565b6101eb610275366004612615565b610a02565b6101eb6102883660046126b3565b6001600160a01b031660009081526020819052604090205490565b6101cb610c2b565b610198610c3f565b6101cb610c4e565b6102ce6102c93660046126b3565b611101565b6040516101879190612799565b6005546001600160a01b03166101da565b6101986111dd565b6101cb6103023660046127a7565b6111ec565b61017b610315366004612615565b6113ca565b6103226113d8565b60405161018791906127dc565b6101da611464565b6101eb61034536600461281e565b611473565b6101eb6103583660046126b3565b61149e565b6101cb61036b3660046126b3565b611528565b60006001600160e01b031982166301a4a4b960e51b14806103a157506301ffc9a760e01b6001600160e01b03198316145b92915050565b6060600380546103b690612857565b80601f01602080910402602001604051908101604052809291908181526020018280546103e290612857565b801561042f5780601f106104045761010080835404028352916020019161042f565b820191906000526020600020905b81548152906001019060200180831161041257829003601f168201915b5050505050905090565b600033610447818585611566565b5060019392505050565b6001600160a01b0383166104805760405162461bcd60e51b81526004016104779061288b565b60405180910390fd5b6001600160a01b0382166104e05760405162461bcd60e51b815260206004820152602160248201527f536c6963653a20496e76616c69642070726963652066656564206164647265736044820152607360f81b6064820152608401610477565b61ffff8116158015906104f9575061ffff811661271014155b6105515760405162461bcd60e51b8152602060048201526024808201527f536c6963653a20496e76616c696420616c6c6f636174696f6e2070657263656e6044820152637461676560e01b6064820152608401610477565b600061055c84611101565b516001600160a01b0316146105c95760405162461bcd60e51b815260206004820152602d60248201527f536c6963653a20416c6c6f636174696f6e20666f72207468652070617373656460448201526c20746f6b656e2065786973747360981b6064820152608401610477565b600754600a1161061b5760405162461bcd60e51b815260206004820152601f60248201527f536c6963653a20416c6c6f636174696f6e206c696d69742065786365656473006044820152606401610477565b61062c8363d85c12ef60e01b611578565b6106785760405162461bcd60e51b815260206004820152601f60248201527f536c6963653a20556e737570706f7274656420696e74657266616365204944006044820152606401610477565b6000836001600160a01b03166338d52e0f6040518163ffffffff1660e01b8152600401602060405180830381865afa1580156106b8573d6000803e3d6000fd5b505050506040513d601f19601f820116820180604052508101906106dc91906128c2565b604080516060810182526001600160a01b03808816808352818516602080850182815261ffff808b16878901908152600780546001810182556000918252985160029099027fa66cc928b5edb82af9bd49922954155ab7b0942694bea4ce44661d9a8736c688810180549a8a166001600160a01b03199b8c1617905593517fa66cc928b5edb82af9bd49922954155ab7b0942694bea4ce44661d9a8736c68990940180549251909316600160a01b026001600160b01b031990921693881693909317179055828152600a9091528590208054938a169390941683179093559251939450929091907fe1e620d79ee4604d298670ecab767901fa18358e431dc956a66abfa6899d5264906107fa90879061ffff91909116815260200190565b60405180910390a450505050565b600033610816858285611594565b6108218585856115e7565b60019150505b9392505050565b6060600082116108505760405162461bcd60e51b8152600401610477906128df565b3361085b8184611646565b60075467ffffffffffffffff8111156108765761087661290e565b60405190808252806020026020018201604052801561089f578160200160208202803683370190505b50915060008060006108b060025490565b6108bb60128861293a565b6108c59190612951565b905060005b6007548110156109f857600781815481106108e7576108e7612973565b600091825260208083206002909202909101546001600160a01b0316808352600b909152604090912054909450925061091e601290565b60ff1661092b838561293a565b6109359190612951565b86828151811061094757610947612973565b60200260200101818152505061098a8587838151811061096957610969612973565b6020026020010151866001600160a01b03166116809092919063ffffffff16565b846001600160a01b0316846001600160a01b03167f9b1bfa7fa9ee420a16e124f794c35ac9f90472acc99140eb2f6447c714cad8eb8884815181106109d1576109d1612973565b60200260200101516040516109e891815260200190565b60405180910390a36001016108ca565b5050505050919050565b6000808211610a235760405162461bcd60e51b8152600401610477906128df565b6000610a2e84611101565b6020015190506001600160a01b038116610aa05760405162461bcd60e51b815260206004820152602d60248201527f536c6963653a20416c6c6f636174696f6e20666f722074686520746f6b656e2060448201526c191bd95cdb89dd08195e1a5cdd609a1b6064820152608401610477565b33610ab66001600160a01b0383168230876116d8565b60405163095ea7b360e01b81526001600160a01b0383169063095ea7b390610ae49088908890600401612989565b6020604051808303816000875af1158015610b03573d6000803e3d6000fd5b505050506040513d601f19601f82011682018060405250810190610b2791906129a2565b50604051636e553f6560e01b81526001600160a01b03861690636e553f6590610b5690879030906004016129c4565b6020604051808303816000875af1158015610b75573d6000803e3d6000fd5b505050506040513d601f19601f82011682018060405250810190610b9991906129db565b6001600160a01b0386166000908152600b6020526040812080549295508592909190610bc69084906129f4565b90915550610bd690508184611711565b806001600160a01b0316856001600160a01b03167f5548c837ab068cf56a2c2479df0882a4922fd203edb7517321831d95078c5f6286604051610c1b91815260200190565b60405180910390a3505092915050565b610c33611747565b610c3d6000611774565b565b6060600680546103b690612857565b6000610c586117c6565b9050600080808080808080808080805b8c518110156110f2578c8181518110610c8357610c83612973565b6020026020010151600001519b508c8181518110610ca357610ca3612973565b6020026020010151602001519a508c8181518110610cc357610cc3612973565b60200260200101516060015199508c8181518110610ce357610ce3612973565b60200260200101516080015198508c8181518110610d0357610d03612973565b602002602001015160a001519750888a03156110ea57610d23898b612a07565b96508b6001600160a01b0316633ba0b9a96040518163ffffffff1660e01b8152600401602060405180830381865afa158015610d63573d6000803e3d6000fd5b505050506040513d601f19601f82011682018060405250810190610d8791906129db565b610d919088612951565b95508715610e895788871115610e1757604051627b8a6760e11b81526001600160a01b038d169062f714ce90610dcd908c9030906004016129c4565b6020604051808303816000875af1158015610dec573d6000803e3d6000fd5b505050506040513d601f19601f82011682018060405250810190610e1091906129db565b9450610e89565b604051627b8a6760e11b81526001600160a01b038d169062f714ce90610e43908a9030906004016129c4565b6020604051808303816000875af1158015610e62573d6000803e3d6000fd5b505050506040513d601f19601f82011682018060405250810190610e8691906129db565b94505b610e9b8b610e95611464565b87611cf8565b610eb6610ea886886129f4565b610eb0611464565b8d611ea5565b9350610ec0611464565b6001600160a01b03166370a08231306040518263ffffffff1660e01b8152600401610eeb919061269f565b602060405180830381865afa158015610f08573d6000803e3d6000fd5b505050506040513d601f19601f82011682018060405250810190610f2c91906129db565b925083831015610f5257600954610f4d906001600160a01b03168c85611cf8565b610f69565b600954610f69906001600160a01b03168c86611cf8565b6040516370a0823160e01b81526001600160a01b038c16906370a0823190610f9590309060040161269f565b602060405180830381865afa158015610fb2573d6000803e3d6000fd5b505050506040513d601f19601f82011682018060405250810190610fd691906129db565b60405163095ea7b360e01b81529092506001600160a01b038c169063095ea7b390611007908f908690600401612989565b6020604051808303816000875af1158015611026573d6000803e3d6000fd5b505050506040513d601f19601f8201168201806040525081019061104a91906129a2565b50604051636e553f6560e01b81526001600160a01b038d1690636e553f659061107990859030906004016129c4565b6020604051808303816000875af1158015611098573d6000803e3d6000fd5b505050506040513d601f19601f820116820180604052508101906110bc91906129db565b6001600160a01b038d166000908152600b6020526040812080549091906110e49084906129f4565b90915550505b600101610c68565b50505050505050505050505050565b60408051606081018252600080825260208201819052918101829052905b6007548110156111d757826001600160a01b03166007828154811061114657611146612973565b60009182526020909120600290910201546001600160a01b0316036111cf576007818154811061117857611178612973565b60009182526020918290206040805160608101825260029390930290910180546001600160a01b03908116845260019091015490811693830193909352600160a01b90920461ffff16918101919091529392505050565b60010161111f565b50919050565b6060600480546103b690612857565b6001600160a01b0382166112125760405162461bcd60e51b81526004016104779061288b565b61ffff81161580159061122b575061ffff811661271014155b6112735760405162461bcd60e51b8152602060048201526019602482015278536c6963653a20496e76616c69642070657263656e7461676560381b6044820152606401610477565b600061127e83611101565b516001600160a01b0316036112f25760405162461bcd60e51b815260206004820152603460248201527f536c6963653a20416c6c6f636174696f6e20666f722074686520706173736564604482015273081d1bdad95b88191bd95cdb89dd08195e1a5cdd60621b6064820152608401610477565b60005b60075481101561138357826001600160a01b03166007828154811061131c5761131c612973565b60009182526020909120600290910201546001600160a01b03160361137b57816007828154811061134f5761134f612973565b906000526020600020906002020160010160146101000a81548161ffff021916908361ffff1602179055505b6001016112f5565b5060405161ffff821681526001600160a01b038316907f961820b4651ecef2378d97b066e501ada836f59c275237b770421b1f46e33dd59060200160405180910390a25050565b6000336104478185856115e7565b60606007805480602002602001604051908101604052809291908181526020016000905b8282101561145b576000848152602090819020604080516060810182526002860290920180546001600160a01b03908116845260019182015490811684860152600160a01b900461ffff169183019190915290835290920191016113fc565b50505050905090565b6009546001600160a01b031690565b6001600160a01b03918216600090815260016020908152604080832093909416825291909152205490565b6001600160a01b038082166000908152600a6020526040808220548151633fabe5a360e21b815291519293849391169163feaf968c9160048083019260a09291908290030181865afa1580156114f8573d6000803e3d6000fd5b505050506040513d601f19601f8201168201806040525081019061151c9190612a34565b50919695505050505050565b611530611747565b6001600160a01b03811661155a576000604051631e4fbdf760e01b8152600401610477919061269f565b61156381611774565b50565b6115738383836001611fc3565b505050565b600061158383612098565b8015610827575061082783836120cb565b60006115a08484611473565b905060001981146115e157818110156115d257828183604051637dc7a0d960e11b815260040161047793929190612a84565b6115e184848484036000611fc3565b50505050565b6001600160a01b038316611611576000604051634b637e8f60e11b8152600401610477919061269f565b6001600160a01b03821661163b57600060405163ec442f0560e01b8152600401610477919061269f565b611573838383612155565b6001600160a01b038216611670576000604051634b637e8f60e11b8152600401610477919061269f565b61167c82600083612155565b5050565b61157383846001600160a01b031663a9059cbb85856040516024016116a6929190612989565b604051602081830303815290604052915060e01b6020820180516001600160e01b03838183161783525050505061226c565b6040516001600160a01b0384811660248301528381166044830152606482018390526115e19186918216906323b872dd906084016116a6565b6001600160a01b03821661173b57600060405163ec442f0560e01b8152600401610477919061269f565b61167c60008383612155565b6005546001600160a01b03163314610c3d573360405163118cdaa760e01b8152600401610477919061269f565b600580546001600160a01b038381166001600160a01b0319831681179093556040519116919082907f8be0079c531659141344cd1fd0a4f28419497f9722a3daafe3b4186f6b6457e090600090a35050565b606060006117d26122c6565b905060008060008060008060008060078054905067ffffffffffffffff8111156117fe576117fe61290e565b60405190808252806020026020018201604052801561187a57816020015b6118676040518060c0016040528060006001600160a01b0316815260200160006001600160a01b03168152602001600081526020016000815260200160008152602001600081525090565b81526020019060019003908161181c5790505b50995060005b600754811015611ceb576007818154811061189d5761189d612973565b6000918252602090912060029091020154600780546001600160a01b039092169a5090829081106118d0576118d0612973565b600091825260208220600160029092020101546001600160a01b03169850806118f98b8b61235f565b93509350505061271061ffff166007848154811061191957611919612973565b600091825260209091206002909102016001015461194290600160a01b900461ffff168e61293a565b61194c9190612951565b9850818a6001600160a01b031663313ce5676040518163ffffffff1660e01b8152600401602060405180830381865afa15801561198d573d6000803e3d6000fd5b505050506040513d601f19601f820116820180604052508101906119b19190612aa5565b6119bc90600a612bac565b6119c6908b61293a565b6119d09190612951565b97506119dc818961293a565b6001600160a01b038c166000908152600b6020526040902054909750935086841115611b9d57611a0c8785612a07565b604051627b8a6760e11b81529096506001600160a01b038c169062f714ce90611a3b90899030906004016129c4565b6020604051808303816000875af1158015611a5a573d6000803e3d6000fd5b505050506040513d601f19601f82011682018060405250810190611a7e91906129db565b9450611a8c8a610e95611464565b611a94611464565b6001600160a01b03166370a08231306040518263ffffffff1660e01b8152600401611abf919061269f565b602060405180830381865afa158015611adc573d6000803e3d6000fd5b505050506040513d601f19601f82011682018060405250810190611b0091906129db565b600b6000611b0c611464565b6001600160a01b03166001600160a01b03168152602001908152602001600020819055506040518060c001604052808c6001600160a01b031681526020018b6001600160a01b031681526020018981526020018881526020018786611b719190612a07565b815260200160008152508d8481518110611b8d57611b8d612973565b6020026020010181905250611ce1565b6040518060c001604052808c6001600160a01b031681526020018b6001600160a01b031681526020018981526020018881526020018581526020018c6001600160a01b031663fbfa77cf6040518163ffffffff1660e01b8152600401602060405180830381865afa158015611c16573d6000803e3d6000fd5b505050506040513d601f19601f82011682018060405250810190611c3a91906128c2565b6001600160a01b0316635ab764ed8e611c51611464565b6040516001600160e01b031960e085901b1681526001600160a01b03928316600482015291166024820152604401602060405180830381865afa158015611c9c573d6000803e3d6000fd5b505050506040513d601f19601f82011682018060405250810190611cc091906129db565b8152508d8481518110611cd557611cd5612973565b60200260200101819052505b5050600101611880565b5050505050505050505090565b6040805160028082526060820183526000926020830190803683370190505090508381600081518110611d2d57611d2d612973565b60200260200101906001600160a01b031690816001600160a01b0316815250508281600181518110611d6157611d61612973565b60200260200101906001600160a01b031690816001600160a01b03168152505080600081518110611d9457611d94612973565b60200260200101516001600160a01b031663095ea7b3611dbc6008546001600160a01b031690565b846040518363ffffffff1660e01b8152600401611dda929190612989565b6020604051808303816000875af1158015611df9573d6000803e3d6000fd5b505050506040513d601f19601f82011682018060405250810190611e1d91906129a2565b506008546040516338ed173960e01b81526001600160a01b03909116906338ed173990611e57908590600090869030904290600401612c00565b6000604051808303816000875af1158015611e76573d6000803e3d6000fd5b505050506040513d6000823e601f3d908101601f19168201604052611e9e9190810190612c3c565b5050505050565b604080516002808252606082018352600092839291906020830190803683370190505090508381600081518110611ede57611ede612973565b60200260200101906001600160a01b031690816001600160a01b0316815250508281600181518110611f1257611f12612973565b6001600160a01b0392831660209182029290920101526008546040516307c0329d60e21b81526000929190911690631f00ca7490611f569089908690600401612cfa565b600060405180830381865afa158015611f73573d6000803e3d6000fd5b505050506040513d6000823e601f3d908101601f19168201604052611f9b9190810190612c3c565b905080600081518110611fb057611fb0612973565b6020026020010151925050509392505050565b6001600160a01b038416611fed57600060405163e602df0560e01b8152600401610477919061269f565b6001600160a01b038316612017576000604051634a1406b160e11b8152600401610477919061269f565b6001600160a01b03808516600090815260016020908152604080832093871683529290522082905580156115e157826001600160a01b0316846001600160a01b03167f8c5be1e5ebec7d5bd14f71427d1e84f3dd0314c0f7b2291e5b200ac8c7c3b9258460405161208a91815260200190565b60405180910390a350505050565b60006120ab826301ffc9a760e01b6120cb565b80156103a157506120c4826001600160e01b03196120cb565b1592915050565b6040516001600160e01b031982166024820152600090819060440160408051601f19818403018152919052602080820180516001600160e01b03166301ffc9a760e01b178152825192935060009283928392909183918a617530fa92503d9150600051905082801561213e575060208210155b801561214a5750600081115b979650505050505050565b6001600160a01b03831661218057806002600082825461217591906129f4565b909155506121df9050565b6001600160a01b038316600090815260208190526040902054818110156121c05783818360405163391434e360e21b815260040161047793929190612a84565b6001600160a01b03841660009081526020819052604090209082900390555b6001600160a01b0382166121fb5760028054829003905561221a565b6001600160a01b03821660009081526020819052604090208054820190555b816001600160a01b0316836001600160a01b03167fddf252ad1be2c89b69c2b068fc378daa952ba7f163c4a11628f55a4df523b3ef8360405161225f91815260200190565b60405180910390a3505050565b60006122816001600160a01b03841683612481565b905080516000141580156122a65750808060200190518101906122a491906129a2565b155b156115735782604051635274afe760e01b8152600401610477919061269f565b6000805b60075481101561235b57600061233f600783815481106122ec576122ec612973565b6000918252602090912060029091020154600780546001600160a01b03909216918590811061231d5761231d612973565b60009182526020909120600160029092020101546001600160a01b031661235f565b5050509050808361235091906129f4565b9250506001016122ca565b5090565b6001600160a01b0382166000818152600b60209081526040808320548151633ba0b9a960e01b815291519394859485948594633ba0b9a992600480830193928290030181865afa1580156123b7573d6000803e3d6000fd5b505050506040513d601f19601f820116820180604052508101906123db91906129db565b91506123e68661149e565b92506123f2828261293a565b9350866001600160a01b031663313ce5676040518163ffffffff1660e01b8152600401602060405180830381865afa158015612432573d6000803e3d6000fd5b505050506040513d601f19601f820116820180604052508101906124569190612aa5565b61246190600a612bac565b61246b848661293a565b6124759190612951565b94505092959194509250565b60606108278383600084600080856001600160a01b031684866040516124a79190612d1b565b60006040518083038185875af1925050503d80600081146124e4576040519150601f19603f3d011682016040523d82523d6000602084013e6124e9565b606091505b50915091506124f9868383612503565b9695505050505050565b6060826125185761251382612556565b610827565b815115801561252f57506001600160a01b0384163b155b1561254f5783604051639996b31560e01b8152600401610477919061269f565b5080610827565b8051156125665780518082602001fd5b604051630a12f52160e11b815260040160405180910390fd5b60006020828403121561259157600080fd5b81356001600160e01b03198116811461082757600080fd5b60005b838110156125c45781810151838201526020016125ac565b50506000910152565b60208152600082518060208401526125ec8160408501602087016125a9565b601f01601f19169190910160400192915050565b6001600160a01b038116811461156357600080fd5b6000806040838503121561262857600080fd5b823561263381612600565b946020939093013593505050565b803561ffff8116811461265357600080fd5b919050565b60008060006060848603121561266d57600080fd5b833561267881612600565b9250602084013561268881612600565b915061269660408501612641565b90509250925092565b6001600160a01b0391909116815260200190565b6000602082840312156126c557600080fd5b813561082781612600565b6000806000606084860312156126e557600080fd5b83356126f081612600565b9250602084013561270081612600565b929592945050506040919091013590565b60006020828403121561272357600080fd5b5035919050565b6020808252825182820181905260009190848201906040850190845b8181101561276257835183529284019291840191600101612746565b50909695505050505050565b80516001600160a01b0390811683526020808301519091169083015260409081015161ffff16910152565b606081016103a1828461276e565b600080604083850312156127ba57600080fd5b82356127c581612600565b91506127d360208401612641565b90509250929050565b6020808252825182820181905260009190848201906040850190845b818110156127625761280b83855161276e565b92840192606092909201916001016127f8565b6000806040838503121561283157600080fd5b823561283c81612600565b9150602083013561284c81612600565b809150509250929050565b600181811c9082168061286b57607f821691505b6020821081036111d757634e487b7160e01b600052602260045260246000fd5b6020808252601d908201527f536c6963653a20496e76616c69642061546f6b656e2061646472657373000000604082015260600190565b6000602082840312156128d457600080fd5b815161082781612600565b60208082526015908201527414db1a58d94e88125b9d985b1a5908185b5bdd5b9d605a1b604082015260600190565b634e487b7160e01b600052604160045260246000fd5b634e487b7160e01b600052601160045260246000fd5b80820281158282048414176103a1576103a1612924565b60008261296e57634e487b7160e01b600052601260045260246000fd5b500490565b634e487b7160e01b600052603260045260246000fd5b6001600160a01b03929092168252602082015260400190565b6000602082840312156129b457600080fd5b8151801515811461082757600080fd5b9182526001600160a01b0316602082015260400190565b6000602082840312156129ed57600080fd5b5051919050565b808201808211156103a1576103a1612924565b818103818111156103a1576103a1612924565b805169ffffffffffffffffffff8116811461265357600080fd5b600080600080600060a08688031215612a4c57600080fd5b612a5586612a1a565b9450602086015193506040860151925060608601519150612a7860808701612a1a565b90509295509295909350565b6001600160a01b039390931683526020830191909152604082015260600190565b600060208284031215612ab757600080fd5b815160ff8116811461082757600080fd5b600181815b80851115612b03578160001904821115612ae957612ae9612924565b80851615612af657918102915b93841c9390800290612acd565b509250929050565b600082612b1a575060016103a1565b81612b27575060006103a1565b8160018114612b3d5760028114612b4757612b63565b60019150506103a1565b60ff841115612b5857612b58612924565b50506001821b6103a1565b5060208310610133831016604e8410600b8410161715612b86575081810a6103a1565b612b908383612ac8565b8060001904821115612ba457612ba4612924565b029392505050565b600061082760ff841683612b0b565b60008151808452602080850194506020840160005b83811015612bf55781516001600160a01b031687529582019590820190600101612bd0565b509495945050505050565b85815284602082015260a060408201526000612c1f60a0830186612bbb565b6001600160a01b0394909416606083015250608001529392505050565b60006020808385031215612c4f57600080fd5b825167ffffffffffffffff80821115612c6757600080fd5b818501915085601f830112612c7b57600080fd5b815181811115612c8d57612c8d61290e565b8060051b604051601f19603f83011681018181108582111715612cb257612cb261290e565b604052918252848201925083810185019188831115612cd057600080fd5b938501935b82851015612cee57845184529385019392850192612cd5565b98975050505050505050565b828152604060208201526000612d136040830184612bbb565b949350505050565b60008251612d2d8184602087016125a9565b919091019291505056fea26469706673582212207e3d0d870932231c4320149d297688152954ebebd082dc66a1e0793832ad84a964736f6c63430008180033a2646970667358221220864e9c1d1ec44119152b04e16947031ddfa49fb4229d18eccc89d60a756249d664736f6c63430008180033",
  "linkReferences": {},
  "deployedLinkReferences": {}
}