{
  "_format": "hh-sol-artifact-1",
  "contractName": "SupplyLimitTest",
  "sourceName": "contracts/erc3643/compliance/legacy/test/SupplyLimitTest.sol",
  "abi": [
    {
      "inputs": [
        {
          "internalType": "address",
          "name": "owner",
          "type": "address"
        }
      ],
      "name": "OwnableInvalidOwner",
      "type": "error"
    },
    {
      "inputs": [
        {
          "internalType": "address",
          "name": "account",
          "type": "address"
        }
      ],
      "name": "OwnableUnauthorizedAccount",
      "type": "error"
    },
    {
      "anonymous": false,
      "inputs": [
        {
          "indexed": true,
          "internalType": "address",
          "name": "_agent",
          "type": "address"
        }
      ],
      "name": "AgentAdded",
      "type": "event"
    },
    {
      "anonymous": false,
      "inputs": [
        {
          "indexed": true,
          "internalType": "address",
          "name": "_agent",
          "type": "address"
        }
      ],
      "name": "AgentRemoved",
      "type": "event"
    },
    {
      "anonymous": false,
      "inputs": [
        {
          "indexed": true,
          "internalType": "address",
          "name": "previousOwner",
          "type": "address"
        },
        {
          "indexed": true,
          "internalType": "address",
          "name": "newOwner",
          "type": "address"
        }
      ],
      "name": "OwnershipTransferred",
      "type": "event"
    },
    {
      "anonymous": false,
      "inputs": [
        {
          "indexed": false,
          "internalType": "uint256",
          "name": "_limit",
          "type": "uint256"
        }
      ],
      "name": "SupplyLimitSet",
      "type": "event"
    },
    {
      "anonymous": false,
      "inputs": [
        {
          "indexed": false,
          "internalType": "address",
          "name": "_agentAddress",
          "type": "address"
        }
      ],
      "name": "TokenAgentAdded",
      "type": "event"
    },
    {
      "anonymous": false,
      "inputs": [
        {
          "indexed": false,
          "internalType": "address",
          "name": "_agentAddress",
          "type": "address"
        }
      ],
      "name": "TokenAgentRemoved",
      "type": "event"
    },
    {
      "anonymous": false,
      "inputs": [
        {
          "indexed": false,
          "internalType": "address",
          "name": "_token",
          "type": "address"
        }
      ],
      "name": "TokenBound",
      "type": "event"
    },
    {
      "anonymous": false,
      "inputs": [
        {
          "indexed": false,
          "internalType": "address",
          "name": "_token",
          "type": "address"
        }
      ],
      "name": "TokenUnbound",
      "type": "event"
    },
    {
      "inputs": [
        {
          "internalType": "address",
          "name": "_agent",
          "type": "address"
        }
      ],
      "name": "addAgent",
      "outputs": [],
      "stateMutability": "nonpayable",
      "type": "function"
    },
    {
      "inputs": [
        {
          "internalType": "address",
          "name": "_agentAddress",
          "type": "address"
        }
      ],
      "name": "addTokenAgent",
      "outputs": [],
      "stateMutability": "nonpayable",
      "type": "function"
    },
    {
      "inputs": [
        {
          "internalType": "address",
          "name": "_token",
          "type": "address"
        }
      ],
      "name": "bindToken",
      "outputs": [],
      "stateMutability": "nonpayable",
      "type": "function"
    },
    {
      "inputs": [
        {
          "internalType": "address",
          "name": "_from",
          "type": "address"
        },
        {
          "internalType": "address",
          "name": "_to",
          "type": "address"
        },
        {
          "internalType": "uint256",
          "name": "_value",
          "type": "uint256"
        }
      ],
      "name": "canTransfer",
      "outputs": [
        {
          "internalType": "bool",
          "name": "",
          "type": "bool"
        }
      ],
      "stateMutability": "view",
      "type": "function"
    },
    {
      "inputs": [
        {
          "internalType": "address",
          "name": "",
          "type": "address"
        },
        {
          "internalType": "address",
          "name": "",
          "type": "address"
        },
        {
          "internalType": "uint256",
          "name": "",
          "type": "uint256"
        }
      ],
      "name": "complianceCheckOnSupplyLimit",
      "outputs": [
        {
          "internalType": "bool",
          "name": "",
          "type": "bool"
        }
      ],
      "stateMutability": "view",
      "type": "function"
    },
    {
      "inputs": [
        {
          "internalType": "address",
          "name": "_to",
          "type": "address"
        },
        {
          "internalType": "uint256",
          "name": "_value",
          "type": "uint256"
        }
      ],
      "name": "created",
      "outputs": [],
      "stateMutability": "nonpayable",
      "type": "function"
    },
    {
      "inputs": [
        {
          "internalType": "address",
          "name": "_from",
          "type": "address"
        },
        {
          "internalType": "uint256",
          "name": "_value",
          "type": "uint256"
        }
      ],
      "name": "destroyed",
      "outputs": [],
      "stateMutability": "nonpayable",
      "type": "function"
    },
    {
      "inputs": [
        {
          "internalType": "address",
          "name": "_agent",
          "type": "address"
        }
      ],
      "name": "isAgent",
      "outputs": [
        {
          "internalType": "bool",
          "name": "",
          "type": "bool"
        }
      ],
      "stateMutability": "view",
      "type": "function"
    },
    {
      "inputs": [
        {
          "internalType": "address",
          "name": "_agentAddress",
          "type": "address"
        }
      ],
      "name": "isTokenAgent",
      "outputs": [
        {
          "internalType": "bool",
          "name": "",
          "type": "bool"
        }
      ],
      "stateMutability": "view",
      "type": "function"
    },
    {
      "inputs": [
        {
          "internalType": "address",
          "name": "_token",
          "type": "address"
        }
      ],
      "name": "isTokenBound",
      "outputs": [
        {
          "internalType": "bool",
          "name": "",
          "type": "bool"
        }
      ],
      "stateMutability": "view",
      "type": "function"
    },
    {
      "inputs": [],
      "name": "owner",
      "outputs": [
        {
          "internalType": "address",
          "name": "",
          "type": "address"
        }
      ],
      "stateMutability": "view",
      "type": "function"
    },
    {
      "inputs": [
        {
          "internalType": "address",
          "name": "_agent",
          "type": "address"
        }
      ],
      "name": "removeAgent",
      "outputs": [],
      "stateMutability": "nonpayable",
      "type": "function"
    },
    {
      "inputs": [
        {
          "internalType": "address",
          "name": "_agentAddress",
          "type": "address"
        }
      ],
      "name": "removeTokenAgent",
      "outputs": [],
      "stateMutability": "nonpayable",
      "type": "function"
    },
    {
      "inputs": [],
      "name": "renounceOwnership",
      "outputs": [],
      "stateMutability": "nonpayable",
      "type": "function"
    },
    {
      "inputs": [
        {
          "internalType": "uint256",
          "name": "_limit",
          "type": "uint256"
        }
      ],
      "name": "setSupplyLimit",
      "outputs": [],
      "stateMutability": "nonpayable",
      "type": "function"
    },
    {
      "inputs": [],
      "name": "supplyLimit",
      "outputs": [
        {
          "internalType": "uint256",
          "name": "",
          "type": "uint256"
        }
      ],
      "stateMutability": "view",
      "type": "function"
    },
    {
      "inputs": [],
      "name": "tokenBound",
      "outputs": [
        {
          "internalType": "contract IToken",
          "name": "",
          "type": "address"
        }
      ],
      "stateMutability": "view",
      "type": "function"
    },
    {
      "inputs": [
        {
          "internalType": "address",
          "name": "newOwner",
          "type": "address"
        }
      ],
      "name": "transferOwnership",
      "outputs": [],
      "stateMutability": "nonpayable",
      "type": "function"
    },
    {
      "inputs": [
        {
          "internalType": "address",
          "name": "_from",
          "type": "address"
        },
        {
          "internalType": "address",
          "name": "_to",
          "type": "address"
        },
        {
          "internalType": "uint256",
          "name": "_value",
          "type": "uint256"
        }
      ],
      "name": "transferred",
      "outputs": [],
      "stateMutability": "nonpayable",
      "type": "function"
    },
    {
      "inputs": [
        {
          "internalType": "address",
          "name": "_token",
          "type": "address"
        }
      ],
      "name": "unbindToken",
      "outputs": [],
      "stateMutability": "nonpayable",
      "type": "function"
    }
  ],
  "bytecode": "0x608060405234801561001057600080fd5b50338061003757604051631e4fbdf760e01b81526000600482015260240160405180910390fd5b61004081610046565b50610096565b600080546001600160a01b038381166001600160a01b0319831681178455604051919092169283917f8be0079c531659141344cd1fd0a4f28419497f9722a3daafe3b4186f6b6457e09190a35050565b610dc3806100a56000396000f3fe608060405234801561001057600080fd5b506004361061012c5760003560e01c80638baf29b4116100ad578063993e8b9511610071578063993e8b9514610265578063cdde293214610278578063e46638e61461028b578063f2fde38b1461029e578063ff3e6954146102b157600080fd5b80638baf29b4146101ff5780638d2ea772146102125780638da5cb5b1461022557806393e62f071461023f57806397a6278e1461025257600080fd5b806340db3b50116100f457806340db3b50146101ab5780635f8dead3146101be578063715018a6146101d1578063737ce08e146101d957806384e79842146101ec57600080fd5b806319d1997a146101315780631ffbb0641461014d578063346531fa14610170578063361fab25146101835780633ff5aa0214610198575b600080fd5b61013a60045481565b6040519081526020015b60405180910390f35b61016061015b366004610bcc565b6102c4565b6040519015158152602001610144565b61016061017e366004610bcc565b6102d7565b610196610191366004610be7565b610383565b005b6101966101a6366004610bcc565b6103c7565b6101966101b9366004610bcc565b61047b565b6101966101cc366004610c00565b61055e565b610196610590565b6101606101e7366004610c2a565b6105a4565b6101966101fa366004610bcc565b6105ae565b61019661020d366004610c2a565b61061e565b610196610220366004610c00565b610647565b6000546001600160a01b03165b6040516101449190610c66565b600354610232906001600160a01b031681565b610196610260366004610bcc565b61066b565b610160610273366004610bcc565b6106db565b610196610286366004610bcc565b6106fb565b610160610299366004610c2a565b6107bb565b6101966102ac366004610bcc565b6107de565b6101966102bf366004610bcc565b61081c565b60006102d16001836108e0565b92915050565b6001600160a01b03811660009081526002602052604081205460ff1615801561036e57506003546040516307feec1960e21b81526001600160a01b0390911690631ffbb0649061032b908590600401610c66565b602060405180830381865afa158015610348573d6000803e3d6000fd5b505050506040513d601f19601f8201168201806040525081019061036c9190610c7a565b155b1561037b57506000919050565b506001919050565b61038b610963565b60048190556040518181527f2cc259af6838b2a0d4d04c0f2f361079ea338dfc784cf242a87cf7d51013f568906020015b60405180910390a150565b336103da6000546001600160a01b031690565b6001600160a01b0316148061040b57506003546001600160a01b031615801561040b5750336001600160a01b038216145b6104305760405162461bcd60e51b815260040161042790610c9c565b60405180910390fd5b600380546001600160a01b0319166001600160a01b0383161790556040517f2de35142b19ed5a07796cf30791959c592018f70b1d2d7c460eef8ffe713692b906103bc908390610c66565b3361048e6000546001600160a01b031690565b6001600160a01b031614806104ab5750336001600160a01b038216145b6104c75760405162461bcd60e51b815260040161042790610c9c565b6003546001600160a01b0382811691161461051e5760405162461bcd60e51b8152602060048201526017602482015276151a1a5cc81d1bdad95b881a5cc81b9bdd08189bdd5b99604a1b6044820152606401610427565b600380546001600160a01b03191690556040517f28a4ca7134a3b3f9aff286e79ad3daadb4a06d1b43d037a3a98bdc074edd9b7a906103bc908390610c66565b610566610990565b6105825760405162461bcd60e51b815260040161042790610cd3565b61058c82826109a0565b5050565b610598610963565b6105a26000610a62565b565b60015b9392505050565b6105b6610963565b6001600160a01b0381166105dc5760405162461bcd60e51b815260040161042790610d3d565b6105e7600182610ab2565b6040516001600160a01b038216907ff68e73cec97f2d70aa641fb26e87a4383686e2efacb648f2165aeb02ac562ec590600090a250565b610626610990565b6106425760405162461bcd60e51b815260040161042790610cd3565b505050565b61064f610990565b61058c5760405162461bcd60e51b815260040161042790610cd3565b610673610963565b6001600160a01b0381166106995760405162461bcd60e51b815260040161042790610d3d565b6106a4600182610b2e565b6040516001600160a01b038216907fed9c8ad8d5a0a66898ea49d2956929c93ae2e8bd50281b2ed897c5d1a6737e0b90600090a250565b6003546000906001600160a01b0383811691161461037b57506000919050565b610703610963565b6001600160a01b03811660009081526002602052604090205460ff1661076b5760405162461bcd60e51b815260206004820181905260248201527f54686973204167656e74206973206e6f742072656769737465726564207965746044820152606401610427565b6001600160a01b03811660009081526002602052604090819020805460ff19169055517f6a659bb87bb23efbdc295f8eed8ae8c4379bfb77660ced2ef0f3d7d26b05c6a6906103bc908390610c66565b60006107c88484846105a4565b6107d4575060006105a7565b5060019392505050565b6107e6610963565b6001600160a01b038116610810576000604051631e4fbdf760e01b81526004016104279190610c66565b61081981610a62565b50565b610824610963565b6001600160a01b03811660009081526002602052604090205460ff161561088d5760405162461bcd60e51b815260206004820181905260248201527f54686973204167656e7420697320616c726561647920726567697374657265646044820152606401610427565b6001600160a01b03811660009081526002602052604090819020805460ff19166001179055517fd62c45e13ac30396aceb3ad37c89bd1ba9048032fe61679000e92eb93dbfd67d906103bc908390610c66565b60006001600160a01b0382166109435760405162461bcd60e51b815260206004820152602260248201527f526f6c65733a206163636f756e7420697320746865207a65726f206164647265604482015261737360f01b6064820152608401610427565b506001600160a01b03166000908152602091909152604090205460ff1690565b6000546001600160a01b031633146105a2573360405163118cdaa760e01b81526004016104279190610c66565b600061099b336106db565b905090565b600454600360009054906101000a90046001600160a01b03166001600160a01b03166318160ddd6040518163ffffffff1660e01b8152600401602060405180830381865afa1580156109f6573d6000803e3d6000fd5b505050506040513d601f19601f82011682018060405250810190610a1a9190610d74565b111561058c5760405162461bcd60e51b815260206004820152601760248201527663616e6e6f74206d696e74206d6f726520746f6b656e7360481b6044820152606401610427565b600080546001600160a01b038381166001600160a01b0319831681178455604051919092169283917f8be0079c531659141344cd1fd0a4f28419497f9722a3daafe3b4186f6b6457e09190a35050565b610abc82826108e0565b15610b095760405162461bcd60e51b815260206004820152601f60248201527f526f6c65733a206163636f756e7420616c72656164792068617320726f6c65006044820152606401610427565b6001600160a01b0316600090815260209190915260409020805460ff19166001179055565b610b3882826108e0565b610b8e5760405162461bcd60e51b815260206004820152602160248201527f526f6c65733a206163636f756e7420646f6573206e6f74206861766520726f6c6044820152606560f81b6064820152608401610427565b6001600160a01b0316600090815260209190915260409020805460ff19169055565b80356001600160a01b0381168114610bc757600080fd5b919050565b600060208284031215610bde57600080fd5b6105a782610bb0565b600060208284031215610bf957600080fd5b5035919050565b60008060408385031215610c1357600080fd5b610c1c83610bb0565b946020939093013593505050565b600080600060608486031215610c3f57600080fd5b610c4884610bb0565b9250610c5660208501610bb0565b9150604084013590509250925092565b6001600160a01b0391909116815260200190565b600060208284031215610c8c57600080fd5b815180151581146105a757600080fd5b6020808252601c908201527f6f6e6c79206f776e6572206f7220746f6b656e2063616e2063616c6c00000000604082015260600190565b60208082526044908201527f6572726f72203a20746869732061646472657373206973206e6f74206120746f60408201527f6b656e20626f756e6420746f2074686520636f6d706c69616e636520636f6e746060820152631c9858dd60e21b608082015260a00190565b6020808252601f908201527f696e76616c696420617267756d656e74202d207a65726f206164647265737300604082015260600190565b600060208284031215610d8657600080fd5b505191905056fea264697066735822122041d64f6bc924adb9db7b4811863440b6403068c83da2030c2606824fc4fdabba64736f6c63430008180033",
  "linkReferences": {},
  "deployedLinkReferences": {}
}