{
  "_format": "hh-sol-artifact-1",
  "contractName": "SupplyLimitModule",
  "sourceName": "contracts/erc3643/compliance/modular/modules/SupplyLimitModule.sol",
  "abi": [
    {
      "anonymous": false,
      "inputs": [
        {
          "indexed": true,
          "internalType": "address",
          "name": "_compliance",
          "type": "address"
        }
      ],
      "name": "ComplianceBound",
      "type": "event"
    },
    {
      "anonymous": false,
      "inputs": [
        {
          "indexed": true,
          "internalType": "address",
          "name": "_compliance",
          "type": "address"
        }
      ],
      "name": "ComplianceUnbound",
      "type": "event"
    },
    {
      "anonymous": false,
      "inputs": [
        {
          "indexed": false,
          "internalType": "address",
          "name": "_compliance",
          "type": "address"
        },
        {
          "indexed": false,
          "internalType": "uint256",
          "name": "_limit",
          "type": "uint256"
        }
      ],
      "name": "SupplyLimitSet",
      "type": "event"
    },
    {
      "inputs": [
        {
          "internalType": "address",
          "name": "_compliance",
          "type": "address"
        }
      ],
      "name": "bindCompliance",
      "outputs": [],
      "stateMutability": "nonpayable",
      "type": "function"
    },
    {
      "inputs": [
        {
          "internalType": "address",
          "name": "",
          "type": "address"
        }
      ],
      "name": "canComplianceBind",
      "outputs": [
        {
          "internalType": "bool",
          "name": "",
          "type": "bool"
        }
      ],
      "stateMutability": "view",
      "type": "function"
    },
    {
      "inputs": [
        {
          "internalType": "address",
          "name": "_compliance",
          "type": "address"
        }
      ],
      "name": "getSupplyLimit",
      "outputs": [
        {
          "internalType": "uint256",
          "name": "",
          "type": "uint256"
        }
      ],
      "stateMutability": "view",
      "type": "function"
    },
    {
      "inputs": [
        {
          "internalType": "address",
          "name": "_compliance",
          "type": "address"
        }
      ],
      "name": "isComplianceBound",
      "outputs": [
        {
          "internalType": "bool",
          "name": "",
          "type": "bool"
        }
      ],
      "stateMutability": "view",
      "type": "function"
    },
    {
      "inputs": [],
      "name": "isPlugAndPlay",
      "outputs": [
        {
          "internalType": "bool",
          "name": "",
          "type": "bool"
        }
      ],
      "stateMutability": "pure",
      "type": "function"
    },
    {
      "inputs": [
        {
          "internalType": "address",
          "name": "_from",
          "type": "address"
        },
        {
          "internalType": "uint256",
          "name": "_value",
          "type": "uint256"
        }
      ],
      "name": "moduleBurnAction",
      "outputs": [],
      "stateMutability": "nonpayable",
      "type": "function"
    },
    {
      "inputs": [
        {
          "internalType": "address",
          "name": "_from",
          "type": "address"
        },
        {
          "internalType": "address",
          "name": "",
          "type": "address"
        },
        {
          "internalType": "uint256",
          "name": "_value",
          "type": "uint256"
        },
        {
          "internalType": "address",
          "name": "_compliance",
          "type": "address"
        }
      ],
      "name": "moduleCheck",
      "outputs": [
        {
          "internalType": "bool",
          "name": "",
          "type": "bool"
        }
      ],
      "stateMutability": "view",
      "type": "function"
    },
    {
      "inputs": [
        {
          "internalType": "address",
          "name": "_to",
          "type": "address"
        },
        {
          "internalType": "uint256",
          "name": "_value",
          "type": "uint256"
        }
      ],
      "name": "moduleMintAction",
      "outputs": [],
      "stateMutability": "nonpayable",
      "type": "function"
    },
    {
      "inputs": [
        {
          "internalType": "address",
          "name": "_from",
          "type": "address"
        },
        {
          "internalType": "address",
          "name": "_to",
          "type": "address"
        },
        {
          "internalType": "uint256",
          "name": "_value",
          "type": "uint256"
        }
      ],
      "name": "moduleTransferAction",
      "outputs": [],
      "stateMutability": "nonpayable",
      "type": "function"
    },
    {
      "inputs": [],
      "name": "name",
      "outputs": [
        {
          "internalType": "string",
          "name": "_name",
          "type": "string"
        }
      ],
      "stateMutability": "pure",
      "type": "function"
    },
    {
      "inputs": [
        {
          "internalType": "uint256",
          "name": "_limit",
          "type": "uint256"
        }
      ],
      "name": "setSupplyLimit",
      "outputs": [],
      "stateMutability": "nonpayable",
      "type": "function"
    },
    {
      "inputs": [
        {
          "internalType": "address",
          "name": "_compliance",
          "type": "address"
        }
      ],
      "name": "unbindCompliance",
      "outputs": [],
      "stateMutability": "nonpayable",
      "type": "function"
    }
  ],
  "bytecode": "0x608060405234801561001057600080fd5b5061086d806100206000396000f3fe608060405234801561001057600080fd5b50600436106100b45760003560e01c80634a932544116100715780634a932544146101625780634ae65b5c146101755780634cf4d295146101ac578063bcc21053146101d8578063e6f5e807146101ec578063f104a8c91461014f57600080fd5b8063013b7ce4146100b95780630694a5fb146100e157806306fdde03146100f65780632cb7e1ec14610129578063361fab251461013c578063372491a21461014f575b600080fd5b6100cc6100c73660046105df565b6101f3565b60405190151581526020015b60405180910390f35b6100f46100ef366004610632565b610316565b005b6040805180820182526011815270537570706c794c696d69744d6f64756c6560781b602082015290516100d89190610656565b6100f46101373660046106a5565b6103e5565b6100f461014a3660046106e6565b610419565b6100f461015d3660046106ff565b610496565b6100f4610170366004610632565b6104c9565b61019e610183366004610632565b6001600160a01b031660009081526001602052604090205490565b6040519081526020016100d8565b6100cc6101ba366004610632565b6001600160a01b031660009081526020819052604090205460ff1690565b6100cc6101e6366004610632565b50600190565b60016100cc565b60006001600160a01b0385161580156102fd575060016000836001600160a01b03166001600160a01b031681526020019081526020016000205483836001600160a01b0316636a3edf286040518163ffffffff1660e01b8152600401602060405180830381865afa15801561026c573d6000803e3d6000fd5b505050506040513d601f19601f82011682018060405250810190610290919061072b565b6001600160a01b03166318160ddd6040518163ffffffff1660e01b8152600401602060405180830381865afa1580156102cd573d6000803e3d6000fd5b505050506040513d601f19601f820116820180604052508101906102f19190610748565b6102fb9190610761565b115b1561030a5750600061030e565b5060015b949350505050565b3360009081526020819052604090205460ff1661034e5760405162461bcd60e51b815260040161034590610788565b60405180910390fd5b6001600160a01b0381166103745760405162461bcd60e51b8152600401610345906107bf565b336001600160a01b0382161461039c5760405162461bcd60e51b8152600401610345906107f6565b6001600160a01b038116600081815260208190526040808220805460ff19169055517f408b49d9be1c914c52a0227e18a077e5a892dddf32a26cfa94a5d9708fad77189190a250565b3360009081526020819052604090205460ff166104145760405162461bcd60e51b815260040161034590610788565b505050565b3360009081526020819052604090205460ff166104485760405162461bcd60e51b815260040161034590610788565b33600081815260016020908152604091829020849055815192835282018390527f2f1ac7412e0c36ff7b73f7c4f474022dfa5d3f1c09e3262f63c9eb4627a9f505910160405180910390a150565b3360009081526020819052604090205460ff166104c55760405162461bcd60e51b815260040161034590610788565b5050565b6001600160a01b0381166104ef5760405162461bcd60e51b8152600401610345906107bf565b6001600160a01b03811660009081526020819052604090205460ff16156105535760405162461bcd60e51b815260206004820152601860248201527718dbdb5c1b1a585b98d948185b1c9958591e48189bdd5b9960421b6044820152606401610345565b336001600160a01b0382161461057b5760405162461bcd60e51b8152600401610345906107f6565b6001600160a01b038116600081815260208190526040808220805460ff19166001179055517f1f7b76c58fb697eb53c6c7c1becb96911516a136e24d7ced386b2355358b75a39190a250565b6001600160a01b03811681146105dc57600080fd5b50565b600080600080608085870312156105f557600080fd5b8435610600816105c7565b93506020850135610610816105c7565b9250604085013591506060850135610627816105c7565b939692955090935050565b60006020828403121561064457600080fd5b813561064f816105c7565b9392505050565b60006020808352835180602085015260005b8181101561068457858101830151858201604001528201610668565b506000604082860101526040601f19601f8301168501019250505092915050565b6000806000606084860312156106ba57600080fd5b83356106c5816105c7565b925060208401356106d5816105c7565b929592945050506040919091013590565b6000602082840312156106f857600080fd5b5035919050565b6000806040838503121561071257600080fd5b823561071d816105c7565b946020939093013593505050565b60006020828403121561073d57600080fd5b815161064f816105c7565b60006020828403121561075a57600080fd5b5051919050565b8082018082111561078257634e487b7160e01b600052601160045260246000fd5b92915050565b6020808252601e908201527f6f6e6c7920626f756e6420636f6d706c69616e63652063616e2063616c6c0000604082015260600190565b6020808252601f908201527f696e76616c696420617267756d656e74202d207a65726f206164647265737300604082015260600190565b60208082526021908201527f6f6e6c7920636f6d706c69616e636520636f6e74726163742063616e2063616c6040820152601b60fa1b60608201526080019056fea2646970667358221220e9062bde840fec6a7589d1be6494b54d47980112343f44c907e381212c09aa7764736f6c63430008180033",
  "linkReferences": {},
  "deployedLinkReferences": {}
}