{
  "_format": "hh-sol-artifact-1",
  "contractName": "TestDLT",
  "sourceName": "contracts/erc6960/TestDLT.sol",
  "abi": [
    {
      "inputs": [
        {
          "internalType": "string",
          "name": "name",
          "type": "string"
        },
        {
          "internalType": "string",
          "name": "symbol",
          "type": "string"
        },
        {
          "internalType": "string",
          "name": "version",
          "type": "string"
        }
      ],
      "stateMutability": "nonpayable",
      "type": "constructor"
    },
    {
      "inputs": [],
      "name": "ExpiredSignature",
      "type": "error"
    },
    {
      "inputs": [],
      "name": "InvalidSignature",
      "type": "error"
    },
    {
      "inputs": [
        {
          "internalType": "bytes32",
          "name": "s",
          "type": "bytes32"
        }
      ],
      "name": "InvalidSignatureS",
      "type": "error"
    },
    {
      "inputs": [],
      "name": "InvalidSigner",
      "type": "error"
    },
    {
      "anonymous": false,
      "inputs": [
        {
          "indexed": true,
          "internalType": "address",
          "name": "owner",
          "type": "address"
        },
        {
          "indexed": true,
          "internalType": "address",
          "name": "spender",
          "type": "address"
        },
        {
          "indexed": false,
          "internalType": "int64",
          "name": "mainId",
          "type": "int64"
        },
        {
          "indexed": false,
          "internalType": "int64",
          "name": "subId",
          "type": "int64"
        },
        {
          "indexed": false,
          "internalType": "uint256",
          "name": "amount",
          "type": "uint256"
        }
      ],
      "name": "Approval",
      "type": "event"
    },
    {
      "anonymous": false,
      "inputs": [
        {
          "indexed": true,
          "internalType": "address",
          "name": "spender",
          "type": "address"
        },
        {
          "indexed": true,
          "internalType": "address",
          "name": "operator",
          "type": "address"
        },
        {
          "indexed": false,
          "internalType": "bool",
          "name": "approved",
          "type": "bool"
        }
      ],
      "name": "ApprovalForAll",
      "type": "event"
    },
    {
      "anonymous": false,
      "inputs": [
        {
          "indexed": true,
          "internalType": "address",
          "name": "sender",
          "type": "address"
        },
        {
          "indexed": true,
          "internalType": "address",
          "name": "recipient",
          "type": "address"
        },
        {
          "indexed": true,
          "internalType": "int64",
          "name": "mainId",
          "type": "int64"
        },
        {
          "indexed": false,
          "internalType": "int64",
          "name": "subId",
          "type": "int64"
        },
        {
          "indexed": false,
          "internalType": "uint256",
          "name": "amount",
          "type": "uint256"
        }
      ],
      "name": "Transfer",
      "type": "event"
    },
    {
      "anonymous": false,
      "inputs": [
        {
          "indexed": true,
          "internalType": "address",
          "name": "spender",
          "type": "address"
        },
        {
          "indexed": true,
          "internalType": "address",
          "name": "sender",
          "type": "address"
        },
        {
          "indexed": true,
          "internalType": "address",
          "name": "recipient",
          "type": "address"
        },
        {
          "indexed": false,
          "internalType": "int64[]",
          "name": "mainIds",
          "type": "int64[]"
        },
        {
          "indexed": false,
          "internalType": "int64[]",
          "name": "subIds",
          "type": "int64[]"
        },
        {
          "indexed": false,
          "internalType": "uint256[]",
          "name": "amounts",
          "type": "uint256[]"
        }
      ],
      "name": "TransferBatch",
      "type": "event"
    },
    {
      "anonymous": false,
      "inputs": [
        {
          "indexed": false,
          "internalType": "string",
          "name": "oldValue",
          "type": "string"
        },
        {
          "indexed": false,
          "internalType": "string",
          "name": "newValue",
          "type": "string"
        },
        {
          "indexed": true,
          "internalType": "int64",
          "name": "mainId",
          "type": "int64"
        }
      ],
      "name": "URI",
      "type": "event"
    },
    {
      "inputs": [],
      "name": "DOMAIN_SEPARATOR",
      "outputs": [
        {
          "internalType": "bytes32",
          "name": "",
          "type": "bytes32"
        }
      ],
      "stateMutability": "view",
      "type": "function"
    },
    {
      "inputs": [
        {
          "internalType": "address",
          "name": "sender",
          "type": "address"
        },
        {
          "internalType": "address",
          "name": "recipient",
          "type": "address"
        },
        {
          "internalType": "int64",
          "name": "mainId",
          "type": "int64"
        },
        {
          "internalType": "int64",
          "name": "subId",
          "type": "int64"
        },
        {
          "internalType": "uint256",
          "name": "amount",
          "type": "uint256"
        }
      ],
      "name": "allow",
      "outputs": [],
      "stateMutability": "nonpayable",
      "type": "function"
    },
    {
      "inputs": [
        {
          "internalType": "address",
          "name": "owner",
          "type": "address"
        },
        {
          "internalType": "address",
          "name": "spender",
          "type": "address"
        },
        {
          "internalType": "int64",
          "name": "mainId",
          "type": "int64"
        },
        {
          "internalType": "int64",
          "name": "subId",
          "type": "int64"
        }
      ],
      "name": "allowance",
      "outputs": [
        {
          "internalType": "uint256",
          "name": "",
          "type": "uint256"
        }
      ],
      "stateMutability": "view",
      "type": "function"
    },
    {
      "inputs": [
        {
          "internalType": "address",
          "name": "spender",
          "type": "address"
        },
        {
          "internalType": "int64",
          "name": "mainId",
          "type": "int64"
        },
        {
          "internalType": "int64",
          "name": "subId",
          "type": "int64"
        },
        {
          "internalType": "uint256",
          "name": "amount",
          "type": "uint256"
        }
      ],
      "name": "approve",
      "outputs": [
        {
          "internalType": "bool",
          "name": "",
          "type": "bool"
        }
      ],
      "stateMutability": "nonpayable",
      "type": "function"
    },
    {
      "inputs": [
        {
          "internalType": "address[]",
          "name": "accounts",
          "type": "address[]"
        },
        {
          "internalType": "int64[]",
          "name": "mainIds",
          "type": "int64[]"
        },
        {
          "internalType": "int64[]",
          "name": "subIds",
          "type": "int64[]"
        }
      ],
      "name": "balanceOfBatch",
      "outputs": [
        {
          "internalType": "uint256[]",
          "name": "",
          "type": "uint256[]"
        }
      ],
      "stateMutability": "view",
      "type": "function"
    },
    {
      "inputs": [
        {
          "internalType": "address",
          "name": "account",
          "type": "address"
        },
        {
          "internalType": "int64",
          "name": "mainId",
          "type": "int64"
        },
        {
          "internalType": "int64",
          "name": "subId",
          "type": "int64"
        },
        {
          "internalType": "uint256",
          "name": "amount",
          "type": "uint256"
        }
      ],
      "name": "burn",
      "outputs": [],
      "stateMutability": "nonpayable",
      "type": "function"
    },
    {
      "inputs": [
        {
          "internalType": "int64",
          "name": "mainId",
          "type": "int64"
        }
      ],
      "name": "getSubIds",
      "outputs": [
        {
          "internalType": "int64[]",
          "name": "",
          "type": "int64[]"
        }
      ],
      "stateMutability": "view",
      "type": "function"
    },
    {
      "inputs": [
        {
          "internalType": "address",
          "name": "owner",
          "type": "address"
        },
        {
          "internalType": "address",
          "name": "operator",
          "type": "address"
        }
      ],
      "name": "isApprovedForAll",
      "outputs": [
        {
          "internalType": "bool",
          "name": "",
          "type": "bool"
        }
      ],
      "stateMutability": "view",
      "type": "function"
    },
    {
      "inputs": [
        {
          "internalType": "address",
          "name": "account",
          "type": "address"
        },
        {
          "internalType": "int64",
          "name": "mainId",
          "type": "int64"
        },
        {
          "internalType": "int64",
          "name": "subId",
          "type": "int64"
        },
        {
          "internalType": "uint256",
          "name": "amount",
          "type": "uint256"
        }
      ],
      "name": "mint",
      "outputs": [],
      "stateMutability": "nonpayable",
      "type": "function"
    },
    {
      "inputs": [],
      "name": "name",
      "outputs": [
        {
          "internalType": "string",
          "name": "",
          "type": "string"
        }
      ],
      "stateMutability": "view",
      "type": "function"
    },
    {
      "inputs": [
        {
          "internalType": "address",
          "name": "owner",
          "type": "address"
        }
      ],
      "name": "nonces",
      "outputs": [
        {
          "internalType": "uint256",
          "name": "",
          "type": "uint256"
        }
      ],
      "stateMutability": "view",
      "type": "function"
    },
    {
      "inputs": [
        {
          "internalType": "address",
          "name": "owner",
          "type": "address"
        },
        {
          "internalType": "address",
          "name": "spender",
          "type": "address"
        },
        {
          "internalType": "int64",
          "name": "mainId",
          "type": "int64"
        },
        {
          "internalType": "int64",
          "name": "subId",
          "type": "int64"
        },
        {
          "internalType": "uint256",
          "name": "amount",
          "type": "uint256"
        },
        {
          "internalType": "uint256",
          "name": "deadline",
          "type": "uint256"
        },
        {
          "internalType": "uint8",
          "name": "v",
          "type": "uint8"
        },
        {
          "internalType": "bytes32",
          "name": "r",
          "type": "bytes32"
        },
        {
          "internalType": "bytes32",
          "name": "s",
          "type": "bytes32"
        }
      ],
      "name": "permit",
      "outputs": [],
      "stateMutability": "nonpayable",
      "type": "function"
    },
    {
      "inputs": [
        {
          "internalType": "address",
          "name": "sender",
          "type": "address"
        },
        {
          "internalType": "address",
          "name": "recipient",
          "type": "address"
        },
        {
          "internalType": "int64[]",
          "name": "mainIds",
          "type": "int64[]"
        },
        {
          "internalType": "int64[]",
          "name": "subIds",
          "type": "int64[]"
        },
        {
          "internalType": "uint256[]",
          "name": "amounts",
          "type": "uint256[]"
        },
        {
          "internalType": "bytes",
          "name": "data",
          "type": "bytes"
        }
      ],
      "name": "safeBatchTransferFrom",
      "outputs": [
        {
          "internalType": "bool",
          "name": "",
          "type": "bool"
        }
      ],
      "stateMutability": "nonpayable",
      "type": "function"
    },
    {
      "inputs": [
        {
          "internalType": "address",
          "name": "sender",
          "type": "address"
        },
        {
          "internalType": "address",
          "name": "recipient",
          "type": "address"
        },
        {
          "internalType": "int64",
          "name": "mainId",
          "type": "int64"
        },
        {
          "internalType": "int64",
          "name": "subId",
          "type": "int64"
        },
        {
          "internalType": "uint256",
          "name": "amount",
          "type": "uint256"
        }
      ],
      "name": "safeTransferFrom",
      "outputs": [
        {
          "internalType": "bool",
          "name": "",
          "type": "bool"
        }
      ],
      "stateMutability": "nonpayable",
      "type": "function"
    },
    {
      "inputs": [
        {
          "internalType": "address",
          "name": "sender",
          "type": "address"
        },
        {
          "internalType": "address",
          "name": "recipient",
          "type": "address"
        },
        {
          "internalType": "int64",
          "name": "mainId",
          "type": "int64"
        },
        {
          "internalType": "int64",
          "name": "subId",
          "type": "int64"
        },
        {
          "internalType": "uint256",
          "name": "amount",
          "type": "uint256"
        },
        {
          "internalType": "bytes",
          "name": "data",
          "type": "bytes"
        }
      ],
      "name": "safeTransferFrom",
      "outputs": [
        {
          "internalType": "bool",
          "name": "",
          "type": "bool"
        }
      ],
      "stateMutability": "nonpayable",
      "type": "function"
    },
    {
      "inputs": [
        {
          "internalType": "address",
          "name": "operator",
          "type": "address"
        },
        {
          "internalType": "bool",
          "name": "approved",
          "type": "bool"
        }
      ],
      "name": "setApprovalForAll",
      "outputs": [],
      "stateMutability": "nonpayable",
      "type": "function"
    },
    {
      "inputs": [
        {
          "internalType": "address",
          "name": "account",
          "type": "address"
        },
        {
          "internalType": "int64",
          "name": "mainId",
          "type": "int64"
        },
        {
          "internalType": "int64",
          "name": "subId",
          "type": "int64"
        }
      ],
      "name": "subBalanceOf",
      "outputs": [
        {
          "internalType": "uint256",
          "name": "",
          "type": "uint256"
        }
      ],
      "stateMutability": "view",
      "type": "function"
    },
    {
      "inputs": [
        {
          "internalType": "address",
          "name": "owner",
          "type": "address"
        },
        {
          "internalType": "int64",
          "name": "mainId",
          "type": "int64"
        }
      ],
      "name": "subIdBalanceOf",
      "outputs": [
        {
          "internalType": "uint256",
          "name": "totalBalance",
          "type": "uint256"
        }
      ],
      "stateMutability": "view",
      "type": "function"
    },
    {
      "inputs": [],
      "name": "symbol",
      "outputs": [
        {
          "internalType": "string",
          "name": "",
          "type": "string"
        }
      ],
      "stateMutability": "view",
      "type": "function"
    },
    {
      "inputs": [],
      "name": "totalMainIds",
      "outputs": [
        {
          "internalType": "uint256",
          "name": "",
          "type": "uint256"
        }
      ],
      "stateMutability": "view",
      "type": "function"
    },
    {
      "inputs": [
        {
          "internalType": "int64",
          "name": "mainId",
          "type": "int64"
        }
      ],
      "name": "totalMainSupply",
      "outputs": [
        {
          "internalType": "uint256",
          "name": "",
          "type": "uint256"
        }
      ],
      "stateMutability": "view",
      "type": "function"
    },
    {
      "inputs": [
        {
          "internalType": "int64",
          "name": "mainId",
          "type": "int64"
        }
      ],
      "name": "totalSubIds",
      "outputs": [
        {
          "internalType": "uint256",
          "name": "",
          "type": "uint256"
        }
      ],
      "stateMutability": "view",
      "type": "function"
    },
    {
      "inputs": [
        {
          "internalType": "int64",
          "name": "mainId",
          "type": "int64"
        },
        {
          "internalType": "int64",
          "name": "subId",
          "type": "int64"
        }
      ],
      "name": "totalSubSupply",
      "outputs": [
        {
          "internalType": "uint256",
          "name": "",
          "type": "uint256"
        }
      ],
      "stateMutability": "view",
      "type": "function"
    },
    {
      "inputs": [
        {
          "internalType": "address",
          "name": "sender",
          "type": "address"
        },
        {
          "internalType": "address",
          "name": "recipient",
          "type": "address"
        },
        {
          "internalType": "int64",
          "name": "mainId",
          "type": "int64"
        },
        {
          "internalType": "int64",
          "name": "subId",
          "type": "int64"
        },
        {
          "internalType": "uint256",
          "name": "amount",
          "type": "uint256"
        }
      ],
      "name": "transfer",
      "outputs": [],
      "stateMutability": "nonpayable",
      "type": "function"
    },
    {
      "inputs": [
        {
          "internalType": "address",
          "name": "sender",
          "type": "address"
        },
        {
          "internalType": "address",
          "name": "recipient",
          "type": "address"
        },
        {
          "internalType": "int64",
          "name": "mainId",
          "type": "int64"
        },
        {
          "internalType": "int64",
          "name": "subId",
          "type": "int64"
        },
        {
          "internalType": "uint256",
          "name": "amount",
          "type": "uint256"
        }
      ],
      "name": "transferFrom",
      "outputs": [
        {
          "internalType": "bool",
          "name": "",
          "type": "bool"
        }
      ],
      "stateMutability": "nonpayable",
      "type": "function"
    }
  ],
  "bytecode": "0x60e06040523480156200001157600080fd5b5060405162002c3b38038062002c3b833981016040819052620000349162000234565b82818184600362000046838262000356565b50600462000055828262000356565b5050825160208085019190912060805282518382012060a052604051620001079250016c08a92a06e626488dedac2d2dc5609b1b81526b1cdd1c9a5b99c81b985b594b60a21b600d8201526e1cdd1c9a5b99c81d995c9cda5bdb8b608a1b60198201526f1d5a5b9d0c8d4d8818da185a5b92590b60821b60288201527f6164647265737320766572696679696e67436f6e7472616374000000000000006038820152602960f81b605182015260520190565b60408051808303601f1901815282825280516020918201206080805160a0805185880194909452868601919091526060860192909252469085015230818501528251808503909101815260c09384019092528151910120905250620004229350505050565b634e487b7160e01b600052604160045260246000fd5b600082601f8301126200019457600080fd5b81516001600160401b0380821115620001b157620001b16200016c565b604051601f8301601f19908116603f01168101908282118183101715620001dc57620001dc6200016c565b8160405283815260209250866020858801011115620001fa57600080fd5b600091505b838210156200021e5785820183015181830184015290820190620001ff565b6000602085830101528094505050505092915050565b6000806000606084860312156200024a57600080fd5b83516001600160401b03808211156200026257600080fd5b620002708783880162000182565b945060208601519150808211156200028757600080fd5b620002958783880162000182565b93506040860151915080821115620002ac57600080fd5b50620002bb8682870162000182565b9150509250925092565b600181811c90821680620002da57607f821691505b602082108103620002fb57634e487b7160e01b600052602260045260246000fd5b50919050565b601f82111562000351576000816000526020600020601f850160051c810160208610156200032c5750805b601f850160051c820191505b818110156200034d5782815560010162000338565b5050505b505050565b81516001600160401b038111156200037257620003726200016c565b6200038a81620003838454620002c5565b8462000301565b602080601f831160018114620003c25760008415620003a95750858301515b600019600386901b1c1916600185901b1785556200034d565b600085815260208120601f198616915b82811015620003f357888601518255948401946001909101908401620003d2565b5085821015620004125787850151600019600388901b60f8161c191681555b5050505050600190811b01905550565b60805160a05160c0516127e8620004536000396000818161028b0152611406015260005050600050506127e86000f3fe608060405234801561001057600080fd5b50600436106101735760003560e01c806365fd95ba116100de578063965e2e1211610097578063de60bc7411610071578063de60bc74146103d0578063e43bdfe1146103e3578063e985e9c5146103f6578063ed99bc0e1461043057600080fd5b8063965e2e121461036a578063a22cb4651461038a578063c8e254c41461039d57600080fd5b806365fd95ba146102f85780637541f8de146103005780637ecebe001461031357806383eddad01461033c5780639040fb131461034f57806395d89b411461036257600080fd5b80632eda03ab116101305780632eda03ab146102615780633523dc6c146102765780633644e515146102895780635e7e09f3146102af5780635f3d6774146102c257806363b12e08146102d557600080fd5b806305ecb79014610178578063069ed132146101d057806306fdde03146101f057806312849f01146102055780631e0e2d461461022857806320fd1d7c1461023b575b600080fd5b6101bd610186366004611e16565b600791820b60009081526001602090815260408083206001600160a01b039690961683529481528482209290930b81529152205490565b6040519081526020015b60405180910390f35b6101e36101de366004611e59565b610443565b6040516101c79190611eb3565b6101f86104cd565b6040516101c79190611f0c565b610218610213366004611fad565b61055b565b60405190151581526020016101c7565b6101bd610236366004612095565b6106cb565b6101bd610249366004611e59565b600790810b6000908152602091909152604090205490565b61027461026f3660046120c8565b61077c565b005b6102186102843660046120c8565b610790565b7f00000000000000000000000000000000000000000000000000000000000000006101bd565b6102746102bd366004612124565b6107bb565b6102186102d0366004612124565b6107cd565b6101bd6102e3366004611e59565b60070b60009081526006602052604090205490565b6005546101bd565b61027461030e3660046120c8565b610836565b6101bd61032136600461216f565b6001600160a01b03166000908152600b602052604090205490565b61021861034a3660046120c8565b610843565b61021861035d3660046121a0565b610852565b6101f8610870565b61037d61037836600461229c565b61087d565b6040516101c79190612367565b61027461039836600461237a565b6109eb565b6101bd6103ab3660046123b6565b600791820b60009081526008602090815260408083209390940b825291909152205490565b6102746103de366004612124565b6109fa565b6101bd6103f13660046123d2565b610a06565b610218610404366004612426565b6001600160a01b0391821660009081526020818152604080832093909416825291909152205460ff1690565b61027461043e366004612450565b610a1d565b600781900b6000908152600960209081526040918290208054835181840281018401909452808452606093928301828280156104c157602002820191906000526020600020906000905b825461010083900a900460070b81526020600f830181900493840193600103600890930192909202910180841161048d5790505b50505050509050919050565b600380546104da906124e6565b80601f0160208091040260200160405190810160405280929190818152602001828054610506906124e6565b80156105535780601f1061052857610100808354040283529160200191610553565b820191906000526020600020905b81548152906001019060200180831161053657829003601f168201915b505050505081565b6000336105688c82610bfb565b6105d45760405162461bcd60e51b815260206004820152603260248201527f444c543a2063616c6c6572206973206e6f7420746f6b656e206f776e6572206f6044820152711c88185c1c1c9bdd995908199bdc88185b1b60721b60648201526084015b60405180910390fd5b6106b98c8c8c8c80806020026020016040519081016040528093929190818152602001838360200280828437600081840152601f19601f820116905080830192505050505050508b8b8080602002602001604051908101604052809392919081815260200183836020028082843760009201919091525050604080516020808f0282810182019093528e82529093508e92508d91829185019084908082843760009201919091525050604080516020601f8e018190048102820181019092528c815292508c91508b9081908401838280828437600092019190915250610c4792505050565b5060019b9a5050505050505050505050565b6000805b600783900b60009081526009602052604090205481101561077457600783900b600090815260096020526040812080548390811061070f5761070f612520565b60009182526020808320600483040154600788810b85526001835260408086206001600160a01b038c168752845280862060039095166008026101000a909204900b8085529290915290912054909150610769908461254c565b9250506001016106cf565b505b92915050565b6107898585858585610f50565b5050505050565b60006107af868686868660405180602001604052806000815250611094565b50600195945050505050565b6107c7848484846110be565b50505050565b6000336001600160a01b0386168190036108295760405162461bcd60e51b815260206004820152601e60248201527f444c543a20617070726f76616c20746f2063757272656e74206f776e6572000060448201526064016105cb565b6107af8187878787610f50565b61078985858585856110da565b60006107af8686868686611284565b6000610862878787878787611094565b5060015b9695505050505050565b600480546104da906124e6565b6060858414801561088d57508582145b6108f05760405162461bcd60e51b815260206004820152602e60248201527f444c543a206163636f756e74732c206d61696e49647320616e6420696473206c60448201526d0cadccee8d040dad2e6dac2e8c6d60931b60648201526084016105cb565b60008667ffffffffffffffff81111561090b5761090b61218a565b604051908082528060200260200182016040528015610934578160200160208202803683370190505b50905060005b878110156109df576109ba89898381811061095757610957612520565b905060200201602081019061096c919061216f565b88888481811061097e5761097e612520565b90506020020160208101906109939190611e59565b8787858181106109a5576109a5612520565b90506020020160208101906101869190611e59565b8282815181106109cc576109cc612520565b602090810291909101015260010161093a565b50979650505050505050565b6109f63383836112b5565b5050565b6107c78484848461137a565b6000610a1485858585611386565b95945050505050565b83421115610a3e5760405163df4cc36d60e01b815260040160405180910390fd5b6000610a498a6113c8565b90506000604051602001610b1790660a0cae4dad2e8560cb1b81526d1859191c995cdcc81bdddb995c8b60921b60078201526f1859191c995cdcc81cdc195b99195c8b60821b60158201526c1a5b9d0d8d081b585a5b92590b609a1b60258201526b1a5b9d0d8d081cdd5892590b60a21b60328201526e1d5a5b9d0c8d4d88185b5bdd5b9d0b608a1b603e8201526d1d5a5b9d0c8d4d881b9bdb98d94b60921b604d8201526f75696e7432353620646561646c696e6560801b605b820152602960f81b606b820152606c0190565b60408051601f198184030181528282528051602091820120908301526001600160a01b03808e16918301919091528b16606082015260078a810b608083015289900b60a082015260c0810188905260e081018390526101008101879052610120016040516020818303038152906040528051906020012090506000610b9b826113f9565b90506000610bab8288888861143d565b90508c6001600160a01b0316816001600160a01b031614610bdf57604051638baa579f60e01b815260040160405180910390fd5b610bec8d8d8d8d8d610f50565b50505050505050505050505050565b6000816001600160a01b0316836001600160a01b03161480610c4057506001600160a01b038084166000908152602081815260408083209386168352929052205460ff165b9392505050565b82518451148015610c59575081518451145b610cbe5760405162461bcd60e51b815260206004820152603060248201527f444c543a206d61696e4964732c2073756249647320616e6420616d6f756e747360448201526f040d8cadccee8d040dad2e6dac2e8c6d60831b60648201526084016105cb565b6001600160a01b038516610ce45760405162461bcd60e51b81526004016105cb9061255f565b3360005b8551811015610ec3576000868281518110610d0557610d05612520565b602002602001015190506000868381518110610d2357610d23612520565b602002602001015190506000868481518110610d4157610d41612520565b602002602001015190506000600160008560070b60070b815260200190815260200160002060008d6001600160a01b03166001600160a01b0316815260200190815260200160002060008460070b60070b8152602001908152602001600020549050610dc38c8c86868660405180602001604052806000815250505050505050565b81811015610de35760405162461bcd60e51b81526004016105cb906125a0565b818103600160008660070b60070b815260200190815260200160002060008e6001600160a01b03166001600160a01b0316815260200190815260200160002060008560070b60070b81526020019081526020016000208190555081600160008660070b60070b815260200190815260200160002060008d6001600160a01b03166001600160a01b0316815260200190815260200160002060008560070b60070b81526020019081526020016000206000828254610ea0919061254c565b909155505060408051602081019091526000905250505050806001019050610ce8565b50856001600160a01b0316876001600160a01b0316826001600160a01b03167f3d3612aedbab64ec845a17d1508b936b04c073ee96a02b84c355a7eb025a18d2888888604051610f15939291906125e6565b60405180910390a4610f2b87878787878761150b565b610f475760405162461bcd60e51b81526004016105cb9061261f565b50505050505050565b6001600160a01b038516610fb15760405162461bcd60e51b815260206004820152602260248201527f444c543a20617070726f76652066726f6d20746865207a65726f206164647265604482015261737360f01b60648201526084016105cb565b6001600160a01b0384166110075760405162461bcd60e51b815260206004820181905260248201527f444c543a20617070726f766520746f20746865207a65726f206164647265737360448201526064016105cb565b6001600160a01b038581166000818152600260209081526040808320948916808452948252808320600789810b8086529184528285209089900b808652908452938290208790558151908152918201929092529081018490527f20228d921cee20e1bee39b210de025b31c291c9a9eb96925595c91db3db75c329060600160405180910390a35050505050565b3361109f8782610bfb565b6110b0576110b0878287878761160d565b610f47878787878787611685565b6107c784848484604051806020016040528060008152506116bc565b6001600160a01b03851661113c5760405162461bcd60e51b815260206004820152602360248201527f444c543a207472616e736665722066726f6d20746865207a65726f206164647260448201526265737360e81b60648201526084016105cb565b6001600160a01b0384166111625760405162461bcd60e51b81526004016105cb9061255f565b6040805160208082018352600091829052600786810b8352600182528383206001600160a01b038a16845282528383209086900b8352905220548111156111bb5760405162461bcd60e51b81526004016105cb906125a0565b600783810b60009081526001602090815260408083206001600160a01b03808b1685528184528285209588900b80865295845282852080548890039055891684528252808320938352929052908120805483929061121a90849061254c565b909155505060408051600784810b82526020820184905285900b916001600160a01b0380881692908916917fd3f5ba918fcf5f0ed2a6add09f440b150c54a8eba5a07bbba0695eea7bbf1efa910160405180910390a4604080516020810190915260009052610789565b3361128f8682610bfb565b6112a0576112a0868286868661160d565b6112ad86868686866110da565b505050505050565b816001600160a01b0316836001600160a01b03160361130f5760405162461bcd60e51b815260206004820152601660248201527522262a1d1030b8383937bb32903a379031b0b63632b960511b60448201526064016105cb565b6001600160a01b0383811660008181526020818152604080832094871680845294825291829020805460ff191686151590811790915591519182527f17307eab39ab6107e8899845ad3d59bd9653f200f220920489ca2b5937696c31910160405180910390a3505050565b6107c7848484846116f3565b6001600160a01b039384166000908152600260209081526040808320959096168252938452848120600793840b825284528481209190920b8252909152205490565b6001600160a01b0381166000908152600b602052604081208054918291906113ef8361266b565b9190505550919050565b60405161190160f01b81527f000000000000000000000000000000000000000000000000000000000000000060028201526022810182905260429020600090610776565b60007f7fffffffffffffffffffffffffffffff5d576e7357a4501ddfe92f46681b20a082111561148357604051635682f3bf60e01b8152600481018390526024016105cb565b6040805160008082526020820180845288905260ff871692820192909252606081018590526080810184905260019060a0016020604051602081039080840390855afa1580156114d7573d6000803e3d6000fd5b5050604051601f1901519150506001600160a01b038116610a1457604051632057875960e21b815260040160405180910390fd5b60006001600160a01b0386163b15611605576040516383fbceb960e01b81526001600160a01b038716906383fbceb9906115539033908b908a908a908a908a90600401612684565b6020604051808303816000875af192505050801561158e575060408051601f3d908101601f1916820190925261158b918101906126f7565b60015b6115eb573d8080156115bc576040519150601f19603f3d011682016040523d82523d6000602084013e6115c1565b606091505b5080516000036115e35760405162461bcd60e51b81526004016105cb9061261f565b805181602001fd5b6001600160e01b0319166383fbceb960e01b149050610866565b506001610866565b600061161b86868686611386565b905060001981146112ad57818110156116765760405162461bcd60e51b815260206004820152601b60248201527f444c543a20696e73756666696369656e7420616c6c6f77616e6365000000000060448201526064016105cb565b6112ad86868686868603610f50565b61169286868686866110da565b6116a08686868686866118c3565b6112ad5760405162461bcd60e51b81526004016105cb9061261f565b6116c88585858561198e565b6116d7600086868686866118c3565b6107895760405162461bcd60e51b81526004016105cb9061261f565b6116ff8484848461199a565b600783810b60009081526020828152604080832080548690039055600882528083209386900b8352929052908120805483900390819055900361188f57600783900b6000908152600660205260408120805490919061175d90612721565b90915550600783810b6000908152600960209081526040808320600a83528184209487900b8452939091528120548254909190839061179e90600190612738565b815481106117ae576117ae612520565b90600052602060002090600491828204019190066008029054906101000a900460070b9050808383815481106117e6576117e6612520565b600091825260208083206004830401805460039093166008026101000a67ffffffffffffffff818102199094169590931692909202939093179055600788810b8252600a8352604080832085830b845290935282822085905587900b81529081205582548390806118595761185961274b565b600082815260209020600460001990920191820401805467ffffffffffffffff600860038516026101000a021916905590555050505b600783810b6000908152602091909152604081205490036107c7576005600081546118b990612721565b9091555050505050565b60006001600160a01b0386163b1561160557604051630f18968560e01b81526001600160a01b03871690630f1896859061190b9033908b908a908a908a908a90600401612761565b6020604051808303816000875af1925050508015611946575060408051601f3d908101601f19168201909252611943918101906126f7565b60015b611974573d8080156115bc576040519150601f19603f3d011682016040523d82523d6000602084013e6115c1565b6001600160e01b031916630f18968560e01b149050610866565b6107c784848484611b4c565b6001600160a01b0384166119f05760405162461bcd60e51b815260206004820152601f60248201527f444c543a206275726e2066726f6d20746865207a65726f20616464726573730060448201526064016105cb565b80600003611a385760405162461bcd60e51b81526020600482015260156024820152741113150e88189d5c9b881e995c9bc8185b5bdd5b9d605a1b60448201526064016105cb565b600783810b60009081526001602090815260408083206001600160a01b038916845282528083209386900b8352929052205481811015611aba5760405162461bcd60e51b815260206004820152601960248201527f444c543a20696e73756666696369656e742062616c616e63650000000000000060448201526064016105cb565b6040805160208082018352600091829052600787810b808452600183528484206001600160a01b038b168086529084528585209289900b808652928452858520805489900390558551928352928201879052845190947fd3f5ba918fcf5f0ed2a6add09f440b150c54a8eba5a07bbba0695eea7bbf1efa928290030190a4604080516020810190915260009052610789565b600783810b600090815260209190915260408120549003611b7b57600560008154611b769061266b565b909155505b600783810b60009081526008602090815260408083209386900b8352929052908120549003611c2f57600783900b60009081526006602052604081208054909190611bc59061266b565b90915550600783810b60009081526009602090815260408083208054600a84528285209588900b8552948352908320849055600184018155825290206004820401805460039092166008026101000a67ffffffffffffffff81810219909316928516029190911790555b600783810b6000908152602091909152604081208054839290611c5390849061254c565b9091555050600783810b60009081526008602090815260408083209386900b83529290529081208054839290611c8a90849061254c565b909155506107c79050848484846001600160a01b038416611ced5760405162461bcd60e51b815260206004820152601d60248201527f444c543a206d696e7420746f20746865207a65726f206164647265737300000060448201526064016105cb565b80600003611d355760405162461bcd60e51b81526020600482015260156024820152741113150e881b5a5b9d081e995c9bc8185b5bdd5b9d605a1b60448201526064016105cb565b6040805160208082018352600091829052600786810b8352600182528383206001600160a01b038916845282528383209086900b835290529081208054839290611d8090849061254c565b909155505060408051600784810b82526020820184905285900b916001600160a01b038716916000917fd3f5ba918fcf5f0ed2a6add09f440b150c54a8eba5a07bbba0695eea7bbf1efa910160405180910390a46040805160208101909152600090526107c7565b80356001600160a01b0381168114611dff57600080fd5b919050565b8035600781900b8114611dff57600080fd5b600080600060608486031215611e2b57600080fd5b611e3484611de8565b9250611e4260208501611e04565b9150611e5060408501611e04565b90509250925092565b600060208284031215611e6b57600080fd5b610c4082611e04565b60008151808452602080850194506020840160005b83811015611ea857815160070b87529582019590820190600101611e89565b509495945050505050565b602081526000610c406020830184611e74565b6000815180845260005b81811015611eec57602081850181015186830182015201611ed0565b506000602082860101526020601f19601f83011685010191505092915050565b602081526000610c406020830184611ec6565b60008083601f840112611f3157600080fd5b50813567ffffffffffffffff811115611f4957600080fd5b6020830191508360208260051b8501011115611f6457600080fd5b9250929050565b60008083601f840112611f7d57600080fd5b50813567ffffffffffffffff811115611f9557600080fd5b602083019150836020828501011115611f6457600080fd5b60008060008060008060008060008060c08b8d031215611fcc57600080fd5b611fd58b611de8565b9950611fe360208c01611de8565b985060408b013567ffffffffffffffff8082111561200057600080fd5b61200c8e838f01611f1f565b909a50985060608d013591508082111561202557600080fd5b6120318e838f01611f1f565b909850965060808d013591508082111561204a57600080fd5b6120568e838f01611f1f565b909650945060a08d013591508082111561206f57600080fd5b5061207c8d828e01611f6b565b915080935050809150509295989b9194979a5092959850565b600080604083850312156120a857600080fd5b6120b183611de8565b91506120bf60208401611e04565b90509250929050565b600080600080600060a086880312156120e057600080fd5b6120e986611de8565b94506120f760208701611de8565b935061210560408701611e04565b925061211360608701611e04565b949793965091946080013592915050565b6000806000806080858703121561213a57600080fd5b61214385611de8565b935061215160208601611e04565b925061215f60408601611e04565b9396929550929360600135925050565b60006020828403121561218157600080fd5b610c4082611de8565b634e487b7160e01b600052604160045260246000fd5b60008060008060008060c087890312156121b957600080fd5b6121c287611de8565b95506121d060208801611de8565b94506121de60408801611e04565b93506121ec60608801611e04565b92506080870135915060a087013567ffffffffffffffff8082111561221057600080fd5b818901915089601f83011261222457600080fd5b8135818111156122365761223661218a565b604051601f8201601f19908116603f0116810190838211818310171561225e5761225e61218a565b816040528281528c602084870101111561227757600080fd5b8260208601602083013760006020848301015280955050505050509295509295509295565b600080600080600080606087890312156122b557600080fd5b863567ffffffffffffffff808211156122cd57600080fd5b6122d98a838b01611f1f565b909850965060208901359150808211156122f257600080fd5b6122fe8a838b01611f1f565b9096509450604089013591508082111561231757600080fd5b5061232489828a01611f1f565b979a9699509497509295939492505050565b60008151808452602080850194506020840160005b83811015611ea85781518752958201959082019060010161234b565b602081526000610c406020830184612336565b6000806040838503121561238d57600080fd5b61239683611de8565b9150602083013580151581146123ab57600080fd5b809150509250929050565b600080604083850312156123c957600080fd5b6120b183611e04565b600080600080608085870312156123e857600080fd5b6123f185611de8565b93506123ff60208601611de8565b925061240d60408601611e04565b915061241b60608601611e04565b905092959194509250565b6000806040838503121561243957600080fd5b61244283611de8565b91506120bf60208401611de8565b60008060008060008060008060006101208a8c03121561246f57600080fd5b6124788a611de8565b985061248660208b01611de8565b975061249460408b01611e04565b96506124a260608b01611e04565b955060808a0135945060a08a0135935060c08a013560ff811681146124c657600080fd5b8093505060e08a013591506101008a013590509295985092959850929598565b600181811c908216806124fa57607f821691505b60208210810361251a57634e487b7160e01b600052602260045260246000fd5b50919050565b634e487b7160e01b600052603260045260246000fd5b634e487b7160e01b600052601160045260246000fd5b8082018082111561077657610776612536565b60208082526021908201527f444c543a207472616e7366657220746f20746865207a65726f206164647265736040820152607360f81b606082015260800190565b60208082526026908201527f444c543a20696e73756666696369656e742062616c616e636520666f7220747260408201526530b739b332b960d11b606082015260800190565b6060815260006125f96060830186611e74565b828103602084015261260b8186611e74565b905082810360408401526108668185612336565b6020808252602c908201527f444c543a207472616e7366657220746f206e6f6e20444c54526563656976657260408201526b1034b6b83632b6b2b73a32b960a11b606082015260800190565b60006001820161267d5761267d612536565b5060010190565b6001600160a01b0387811682528616602082015260c0604082018190526000906126b090830187611e74565b82810360608401526126c28187611e74565b905082810360808401526126d68186612336565b905082810360a08401526126ea8185611ec6565b9998505050505050505050565b60006020828403121561270957600080fd5b81516001600160e01b031981168114610c4057600080fd5b60008161273057612730612536565b506000190190565b8181038181111561077657610776612536565b634e487b7160e01b600052603160045260246000fd5b6001600160a01b03878116825286166020820152600785810b604083015284900b60608201526080810183905260c060a082018190526000906127a690830184611ec6565b9897505050505050505056fea26469706673582212205837c8c5e3bf27b734ea8780174bd2125937d7e1bfc0f35b7ad1377d9effe3d864736f6c63430008180033",
  "linkReferences": {},
  "deployedLinkReferences": {}
}