{
  "_format": "hh-sol-artifact-1",
  "contractName": "TestERC20",
  "sourceName": "contracts/erc3643/_testContracts/TestERC20.sol",
  "abi": [
    {
      "inputs": [
        {
          "internalType": "string",
          "name": "name",
          "type": "string"
        },
        {
          "internalType": "string",
          "name": "symbol",
          "type": "string"
        }
      ],
      "stateMutability": "nonpayable",
      "type": "constructor"
    },
    {
      "inputs": [
        {
          "internalType": "address",
          "name": "spender",
          "type": "address"
        },
        {
          "internalType": "uint256",
          "name": "allowance",
          "type": "uint256"
        },
        {
          "internalType": "uint256",
          "name": "needed",
          "type": "uint256"
        }
      ],
      "name": "ERC20InsufficientAllowance",
      "type": "error"
    },
    {
      "inputs": [
        {
          "internalType": "address",
          "name": "sender",
          "type": "address"
        },
        {
          "internalType": "uint256",
          "name": "balance",
          "type": "uint256"
        },
        {
          "internalType": "uint256",
          "name": "needed",
          "type": "uint256"
        }
      ],
      "name": "ERC20InsufficientBalance",
      "type": "error"
    },
    {
      "inputs": [
        {
          "internalType": "address",
          "name": "approver",
          "type": "address"
        }
      ],
      "name": "ERC20InvalidApprover",
      "type": "error"
    },
    {
      "inputs": [
        {
          "internalType": "address",
          "name": "receiver",
          "type": "address"
        }
      ],
      "name": "ERC20InvalidReceiver",
      "type": "error"
    },
    {
      "inputs": [
        {
          "internalType": "address",
          "name": "sender",
          "type": "address"
        }
      ],
      "name": "ERC20InvalidSender",
      "type": "error"
    },
    {
      "inputs": [
        {
          "internalType": "address",
          "name": "spender",
          "type": "address"
        }
      ],
      "name": "ERC20InvalidSpender",
      "type": "error"
    },
    {
      "inputs": [],
      "name": "EnforcedPause",
      "type": "error"
    },
    {
      "inputs": [],
      "name": "ExpectedPause",
      "type": "error"
    },
    {
      "inputs": [
        {
          "internalType": "address",
          "name": "owner",
          "type": "address"
        }
      ],
      "name": "OwnableInvalidOwner",
      "type": "error"
    },
    {
      "inputs": [
        {
          "internalType": "address",
          "name": "account",
          "type": "address"
        }
      ],
      "name": "OwnableUnauthorizedAccount",
      "type": "error"
    },
    {
      "anonymous": false,
      "inputs": [
        {
          "indexed": true,
          "internalType": "address",
          "name": "owner",
          "type": "address"
        },
        {
          "indexed": true,
          "internalType": "address",
          "name": "spender",
          "type": "address"
        },
        {
          "indexed": false,
          "internalType": "uint256",
          "name": "value",
          "type": "uint256"
        }
      ],
      "name": "Approval",
      "type": "event"
    },
    {
      "anonymous": false,
      "inputs": [
        {
          "indexed": true,
          "internalType": "address",
          "name": "previousOwner",
          "type": "address"
        },
        {
          "indexed": true,
          "internalType": "address",
          "name": "newOwner",
          "type": "address"
        }
      ],
      "name": "OwnershipTransferred",
      "type": "event"
    },
    {
      "anonymous": false,
      "inputs": [
        {
          "indexed": false,
          "internalType": "address",
          "name": "account",
          "type": "address"
        }
      ],
      "name": "Paused",
      "type": "event"
    },
    {
      "anonymous": false,
      "inputs": [
        {
          "indexed": true,
          "internalType": "address",
          "name": "from",
          "type": "address"
        },
        {
          "indexed": true,
          "internalType": "address",
          "name": "to",
          "type": "address"
        },
        {
          "indexed": false,
          "internalType": "uint256",
          "name": "value",
          "type": "uint256"
        }
      ],
      "name": "Transfer",
      "type": "event"
    },
    {
      "anonymous": false,
      "inputs": [
        {
          "indexed": false,
          "internalType": "address",
          "name": "account",
          "type": "address"
        }
      ],
      "name": "Unpaused",
      "type": "event"
    },
    {
      "inputs": [
        {
          "internalType": "address",
          "name": "owner",
          "type": "address"
        },
        {
          "internalType": "address",
          "name": "spender",
          "type": "address"
        }
      ],
      "name": "allowance",
      "outputs": [
        {
          "internalType": "uint256",
          "name": "",
          "type": "uint256"
        }
      ],
      "stateMutability": "view",
      "type": "function"
    },
    {
      "inputs": [
        {
          "internalType": "address",
          "name": "spender",
          "type": "address"
        },
        {
          "internalType": "uint256",
          "name": "value",
          "type": "uint256"
        }
      ],
      "name": "approve",
      "outputs": [
        {
          "internalType": "bool",
          "name": "",
          "type": "bool"
        }
      ],
      "stateMutability": "nonpayable",
      "type": "function"
    },
    {
      "inputs": [
        {
          "internalType": "address",
          "name": "account",
          "type": "address"
        }
      ],
      "name": "balanceOf",
      "outputs": [
        {
          "internalType": "uint256",
          "name": "",
          "type": "uint256"
        }
      ],
      "stateMutability": "view",
      "type": "function"
    },
    {
      "inputs": [],
      "name": "decimals",
      "outputs": [
        {
          "internalType": "uint8",
          "name": "",
          "type": "uint8"
        }
      ],
      "stateMutability": "view",
      "type": "function"
    },
    {
      "inputs": [
        {
          "internalType": "address",
          "name": "recipient",
          "type": "address"
        },
        {
          "internalType": "uint256",
          "name": "amount",
          "type": "uint256"
        }
      ],
      "name": "mint",
      "outputs": [],
      "stateMutability": "nonpayable",
      "type": "function"
    },
    {
      "inputs": [],
      "name": "name",
      "outputs": [
        {
          "internalType": "string",
          "name": "",
          "type": "string"
        }
      ],
      "stateMutability": "view",
      "type": "function"
    },
    {
      "inputs": [],
      "name": "owner",
      "outputs": [
        {
          "internalType": "address",
          "name": "",
          "type": "address"
        }
      ],
      "stateMutability": "view",
      "type": "function"
    },
    {
      "inputs": [],
      "name": "pause",
      "outputs": [],
      "stateMutability": "nonpayable",
      "type": "function"
    },
    {
      "inputs": [],
      "name": "paused",
      "outputs": [
        {
          "internalType": "bool",
          "name": "",
          "type": "bool"
        }
      ],
      "stateMutability": "view",
      "type": "function"
    },
    {
      "inputs": [],
      "name": "renounceOwnership",
      "outputs": [],
      "stateMutability": "nonpayable",
      "type": "function"
    },
    {
      "inputs": [],
      "name": "symbol",
      "outputs": [
        {
          "internalType": "string",
          "name": "",
          "type": "string"
        }
      ],
      "stateMutability": "view",
      "type": "function"
    },
    {
      "inputs": [],
      "name": "totalSupply",
      "outputs": [
        {
          "internalType": "uint256",
          "name": "",
          "type": "uint256"
        }
      ],
      "stateMutability": "view",
      "type": "function"
    },
    {
      "inputs": [
        {
          "internalType": "address",
          "name": "to",
          "type": "address"
        },
        {
          "internalType": "uint256",
          "name": "value",
          "type": "uint256"
        }
      ],
      "name": "transfer",
      "outputs": [
        {
          "internalType": "bool",
          "name": "",
          "type": "bool"
        }
      ],
      "stateMutability": "nonpayable",
      "type": "function"
    },
    {
      "inputs": [
        {
          "internalType": "address",
          "name": "from",
          "type": "address"
        },
        {
          "internalType": "address",
          "name": "to",
          "type": "address"
        },
        {
          "internalType": "uint256",
          "name": "value",
          "type": "uint256"
        }
      ],
      "name": "transferFrom",
      "outputs": [
        {
          "internalType": "bool",
          "name": "",
          "type": "bool"
        }
      ],
      "stateMutability": "nonpayable",
      "type": "function"
    },
    {
      "inputs": [
        {
          "internalType": "address",
          "name": "newOwner",
          "type": "address"
        }
      ],
      "name": "transferOwnership",
      "outputs": [],
      "stateMutability": "nonpayable",
      "type": "function"
    },
    {
      "inputs": [],
      "name": "unpause",
      "outputs": [],
      "stateMutability": "nonpayable",
      "type": "function"
    }
  ],
  "bytecode": "0x60806040523480156200001157600080fd5b5060405162000d7b38038062000d7b8339810160408190526200003491620001b4565b818133806200005d57604051631e4fbdf760e01b81526000600482015260240160405180910390fd5b62000068816200009c565b506004620000778382620002af565b506005620000868282620002af565b50506006805460ff19169055506200037b915050565b600080546001600160a01b038381166001600160a01b0319831681178455604051919092169283917f8be0079c531659141344cd1fd0a4f28419497f9722a3daafe3b4186f6b6457e09190a35050565b634e487b7160e01b600052604160045260246000fd5b600082601f8301126200011457600080fd5b81516001600160401b0380821115620001315762000131620000ec565b604051601f8301601f19908116603f011681019082821181831017156200015c576200015c620000ec565b81604052838152602092508660208588010111156200017a57600080fd5b600091505b838210156200019e57858201830151818301840152908201906200017f565b6000602085830101528094505050505092915050565b60008060408385031215620001c857600080fd5b82516001600160401b0380821115620001e057600080fd5b620001ee8683870162000102565b935060208501519150808211156200020557600080fd5b50620002148582860162000102565b9150509250929050565b600181811c908216806200023357607f821691505b6020821081036200025457634e487b7160e01b600052602260045260246000fd5b50919050565b601f821115620002aa576000816000526020600020601f850160051c81016020861015620002855750805b601f850160051c820191505b81811015620002a65782815560010162000291565b5050505b505050565b81516001600160401b03811115620002cb57620002cb620000ec565b620002e381620002dc84546200021e565b846200025a565b602080601f8311600181146200031b5760008415620003025750858301515b600019600386901b1c1916600185901b178555620002a6565b600085815260208120601f198616915b828110156200034c578886015182559484019460019091019084016200032b565b50858210156200036b5787850151600019600388901b60f8161c191681555b5050505050600190811b01905550565b6109f0806200038b6000396000f3fe608060405234801561001057600080fd5b50600436106100e05760003560e01c806370a082311161008757806370a0823114610182578063715018a6146101ab5780638456cb59146101b35780638da5cb5b146101bb57806395d89b41146101d4578063a9059cbb146101dc578063dd62ed3e146101ef578063f2fde38b1461020257600080fd5b806306fdde03146100e5578063095ea7b31461010357806318160ddd1461012657806323b872dd14610138578063313ce5671461014b5780633f4ba83a1461015a57806340c10f19146101645780635c975abb14610177575b600080fd5b6100ed610215565b6040516100fa9190610804565b60405180910390f35b61011661011136600461086f565b6102a7565b60405190151581526020016100fa565b6003545b6040519081526020016100fa565b610116610146366004610899565b6102c1565b604051601281526020016100fa565b6101626102e5565b005b61016261017236600461086f565b6102f7565b60065460ff16610116565b61012a6101903660046108d5565b6001600160a01b031660009081526001602052604090205490565b61016261030d565b61016261031f565b6000546001600160a01b03166040516100fa91906108f7565b6100ed61032f565b6101166101ea36600461086f565b61033e565b61012a6101fd36600461090b565b61034c565b6101626102103660046108d5565b610377565b6060600480546102249061093e565b80601f01602080910402602001604051908101604052809291908181526020018280546102509061093e565b801561029d5780601f106102725761010080835404028352916020019161029d565b820191906000526020600020905b81548152906001019060200180831161028057829003601f168201915b5050505050905090565b6000336102b58185856103be565b60019150505b92915050565b6000336102cf8582856103d0565b6102da858585610423565b506001949350505050565b6102ed610482565b6102f56104af565b565b6102ff610482565b61030982826104fb565b5050565b610315610482565b6102f56000610531565b610327610482565b6102f5610581565b6060600580546102249061093e565b6000336102b5818585610423565b6001600160a01b03918216600090815260026020908152604080832093909416825291909152205490565b61037f610482565b6001600160a01b0381166103b2576000604051631e4fbdf760e01b81526004016103a991906108f7565b60405180910390fd5b6103bb81610531565b50565b6103cb83838360016105be565b505050565b60006103dc848461034c565b9050600019811461041d578181101561040e57828183604051637dc7a0d960e11b81526004016103a993929190610978565b61041d848484840360006105be565b50505050565b6001600160a01b03831661044d576000604051634b637e8f60e11b81526004016103a991906108f7565b6001600160a01b03821661047757600060405163ec442f0560e01b81526004016103a991906108f7565b6103cb838383610693565b6000546001600160a01b031633146102f5573360405163118cdaa760e01b81526004016103a991906108f7565b6104b76106a6565b6006805460ff191690557f5db9ee0a495bf2e6ff9c91a7834c1ba4fdd244a5e8aa4e537bd38aeae4b073aa335b6040516104f191906108f7565b60405180910390a1565b6001600160a01b03821661052557600060405163ec442f0560e01b81526004016103a991906108f7565b61030960008383610693565b600080546001600160a01b038381166001600160a01b0319831681178455604051919092169283917f8be0079c531659141344cd1fd0a4f28419497f9722a3daafe3b4186f6b6457e09190a35050565b6105896106c9565b6006805460ff191660011790557f62e78cea01bee320cd4e420270b5ea74000d11b0c9f74754ebdbfc544b05a2586104e43390565b6001600160a01b0384166105e857600060405163e602df0560e01b81526004016103a991906108f7565b6001600160a01b038316610612576000604051634a1406b160e11b81526004016103a991906108f7565b6001600160a01b038085166000908152600260209081526040808320938716835292905220829055801561041d57826001600160a01b0316846001600160a01b03167f8c5be1e5ebec7d5bd14f71427d1e84f3dd0314c0f7b2291e5b200ac8c7c3b9258460405161068591815260200190565b60405180910390a350505050565b61069b6106c9565b6103cb8383836106ed565b60065460ff166102f557604051638dfc202b60e01b815260040160405180910390fd5b60065460ff16156102f55760405163d93c066560e01b815260040160405180910390fd5b6001600160a01b03831661071857806003600082825461070d9190610999565b909155506107779050565b6001600160a01b038316600090815260016020526040902054818110156107585783818360405163391434e360e21b81526004016103a993929190610978565b6001600160a01b03841660009081526001602052604090209082900390555b6001600160a01b038216610793576003805482900390556107b2565b6001600160a01b03821660009081526001602052604090208054820190555b816001600160a01b0316836001600160a01b03167fddf252ad1be2c89b69c2b068fc378daa952ba7f163c4a11628f55a4df523b3ef836040516107f791815260200190565b60405180910390a3505050565b60006020808352835180602085015260005b8181101561083257858101830151858201604001528201610816565b506000604082860101526040601f19601f8301168501019250505092915050565b80356001600160a01b038116811461086a57600080fd5b919050565b6000806040838503121561088257600080fd5b61088b83610853565b946020939093013593505050565b6000806000606084860312156108ae57600080fd5b6108b784610853565b92506108c560208501610853565b9150604084013590509250925092565b6000602082840312156108e757600080fd5b6108f082610853565b9392505050565b6001600160a01b0391909116815260200190565b6000806040838503121561091e57600080fd5b61092783610853565b915061093560208401610853565b90509250929050565b600181811c9082168061095257607f821691505b60208210810361097257634e487b7160e01b600052602260045260246000fd5b50919050565b6001600160a01b039390931683526020830191909152604082015260600190565b808201808211156102bb57634e487b7160e01b600052601160045260246000fdfea2646970667358221220cdf67b9db535c112f7284d59eaa78e950ae8191c8a2032089246928078d1733764736f6c63430008180033",
  "linkReferences": {},
  "deployedLinkReferences": {}
}