{
  "_format": "hh-sol-artifact-1",
  "contractName": "TestDLTERC20",
  "sourceName": "contracts/erc6960/TestDLTERC20.sol",
  "abi": [
    {
      "inputs": [
        {
          "internalType": "string",
          "name": "name",
          "type": "string"
        },
        {
          "internalType": "string",
          "name": "symbol",
          "type": "string"
        }
      ],
      "stateMutability": "nonpayable",
      "type": "constructor"
    },
    {
      "anonymous": false,
      "inputs": [
        {
          "indexed": true,
          "internalType": "address",
          "name": "owner",
          "type": "address"
        },
        {
          "indexed": true,
          "internalType": "address",
          "name": "spender",
          "type": "address"
        },
        {
          "indexed": false,
          "internalType": "uint256",
          "name": "value",
          "type": "uint256"
        }
      ],
      "name": "Approval",
      "type": "event"
    },
    {
      "anonymous": false,
      "inputs": [
        {
          "indexed": true,
          "internalType": "address",
          "name": "owner",
          "type": "address"
        },
        {
          "indexed": true,
          "internalType": "address",
          "name": "spender",
          "type": "address"
        },
        {
          "indexed": false,
          "internalType": "int64",
          "name": "mainId",
          "type": "int64"
        },
        {
          "indexed": false,
          "internalType": "int64",
          "name": "subId",
          "type": "int64"
        },
        {
          "indexed": false,
          "internalType": "uint256",
          "name": "amount",
          "type": "uint256"
        }
      ],
      "name": "Approval",
      "type": "event"
    },
    {
      "anonymous": false,
      "inputs": [
        {
          "indexed": true,
          "internalType": "address",
          "name": "spender",
          "type": "address"
        },
        {
          "indexed": true,
          "internalType": "address",
          "name": "operator",
          "type": "address"
        },
        {
          "indexed": false,
          "internalType": "bool",
          "name": "approved",
          "type": "bool"
        }
      ],
      "name": "ApprovalForAll",
      "type": "event"
    },
    {
      "anonymous": false,
      "inputs": [
        {
          "indexed": true,
          "internalType": "address",
          "name": "from",
          "type": "address"
        },
        {
          "indexed": true,
          "internalType": "address",
          "name": "to",
          "type": "address"
        },
        {
          "indexed": false,
          "internalType": "uint256",
          "name": "value",
          "type": "uint256"
        }
      ],
      "name": "Transfer",
      "type": "event"
    },
    {
      "anonymous": false,
      "inputs": [
        {
          "indexed": true,
          "internalType": "address",
          "name": "sender",
          "type": "address"
        },
        {
          "indexed": true,
          "internalType": "address",
          "name": "recipient",
          "type": "address"
        },
        {
          "indexed": true,
          "internalType": "int64",
          "name": "mainId",
          "type": "int64"
        },
        {
          "indexed": false,
          "internalType": "int64",
          "name": "subId",
          "type": "int64"
        },
        {
          "indexed": false,
          "internalType": "uint256",
          "name": "amount",
          "type": "uint256"
        }
      ],
      "name": "Transfer",
      "type": "event"
    },
    {
      "anonymous": false,
      "inputs": [
        {
          "indexed": true,
          "internalType": "address",
          "name": "spender",
          "type": "address"
        },
        {
          "indexed": true,
          "internalType": "address",
          "name": "sender",
          "type": "address"
        },
        {
          "indexed": true,
          "internalType": "address",
          "name": "recipient",
          "type": "address"
        },
        {
          "indexed": false,
          "internalType": "int64[]",
          "name": "mainIds",
          "type": "int64[]"
        },
        {
          "indexed": false,
          "internalType": "int64[]",
          "name": "subIds",
          "type": "int64[]"
        },
        {
          "indexed": false,
          "internalType": "uint256[]",
          "name": "amounts",
          "type": "uint256[]"
        }
      ],
      "name": "TransferBatch",
      "type": "event"
    },
    {
      "anonymous": false,
      "inputs": [
        {
          "indexed": false,
          "internalType": "string",
          "name": "oldValue",
          "type": "string"
        },
        {
          "indexed": false,
          "internalType": "string",
          "name": "newValue",
          "type": "string"
        },
        {
          "indexed": true,
          "internalType": "int64",
          "name": "mainId",
          "type": "int64"
        }
      ],
      "name": "URI",
      "type": "event"
    },
    {
      "inputs": [
        {
          "internalType": "address",
          "name": "sender",
          "type": "address"
        },
        {
          "internalType": "address",
          "name": "recipient",
          "type": "address"
        },
        {
          "internalType": "int64",
          "name": "mainId",
          "type": "int64"
        },
        {
          "internalType": "int64",
          "name": "subId",
          "type": "int64"
        },
        {
          "internalType": "uint256",
          "name": "amount",
          "type": "uint256"
        }
      ],
      "name": "allow",
      "outputs": [],
      "stateMutability": "nonpayable",
      "type": "function"
    },
    {
      "inputs": [
        {
          "internalType": "address",
          "name": "owner",
          "type": "address"
        },
        {
          "internalType": "address",
          "name": "spender",
          "type": "address"
        }
      ],
      "name": "allowance",
      "outputs": [
        {
          "internalType": "uint256",
          "name": "",
          "type": "uint256"
        }
      ],
      "stateMutability": "view",
      "type": "function"
    },
    {
      "inputs": [
        {
          "internalType": "address",
          "name": "owner",
          "type": "address"
        },
        {
          "internalType": "address",
          "name": "spender",
          "type": "address"
        },
        {
          "internalType": "int64",
          "name": "mainId",
          "type": "int64"
        },
        {
          "internalType": "int64",
          "name": "subId",
          "type": "int64"
        }
      ],
      "name": "allowance",
      "outputs": [
        {
          "internalType": "uint256",
          "name": "",
          "type": "uint256"
        }
      ],
      "stateMutability": "view",
      "type": "function"
    },
    {
      "inputs": [
        {
          "internalType": "address",
          "name": "spender",
          "type": "address"
        },
        {
          "internalType": "uint256",
          "name": "value",
          "type": "uint256"
        }
      ],
      "name": "approve",
      "outputs": [
        {
          "internalType": "bool",
          "name": "",
          "type": "bool"
        }
      ],
      "stateMutability": "nonpayable",
      "type": "function"
    },
    {
      "inputs": [
        {
          "internalType": "address",
          "name": "spender",
          "type": "address"
        },
        {
          "internalType": "int64",
          "name": "mainId",
          "type": "int64"
        },
        {
          "internalType": "int64",
          "name": "subId",
          "type": "int64"
        },
        {
          "internalType": "uint256",
          "name": "amount",
          "type": "uint256"
        }
      ],
      "name": "approve",
      "outputs": [
        {
          "internalType": "bool",
          "name": "",
          "type": "bool"
        }
      ],
      "stateMutability": "nonpayable",
      "type": "function"
    },
    {
      "inputs": [
        {
          "internalType": "address",
          "name": "account",
          "type": "address"
        }
      ],
      "name": "balanceOf",
      "outputs": [
        {
          "internalType": "uint256",
          "name": "",
          "type": "uint256"
        }
      ],
      "stateMutability": "view",
      "type": "function"
    },
    {
      "inputs": [
        {
          "internalType": "address[]",
          "name": "accounts",
          "type": "address[]"
        },
        {
          "internalType": "int64[]",
          "name": "mainIds",
          "type": "int64[]"
        },
        {
          "internalType": "int64[]",
          "name": "subIds",
          "type": "int64[]"
        }
      ],
      "name": "balanceOfBatch",
      "outputs": [
        {
          "internalType": "uint256[]",
          "name": "",
          "type": "uint256[]"
        }
      ],
      "stateMutability": "view",
      "type": "function"
    },
    {
      "inputs": [
        {
          "internalType": "address",
          "name": "account",
          "type": "address"
        },
        {
          "internalType": "int64",
          "name": "mainId",
          "type": "int64"
        },
        {
          "internalType": "int64",
          "name": "subId",
          "type": "int64"
        },
        {
          "internalType": "uint256",
          "name": "amount",
          "type": "uint256"
        }
      ],
      "name": "burn",
      "outputs": [],
      "stateMutability": "nonpayable",
      "type": "function"
    },
    {
      "inputs": [
        {
          "internalType": "int64",
          "name": "mainId",
          "type": "int64"
        }
      ],
      "name": "getSubIds",
      "outputs": [
        {
          "internalType": "int64[]",
          "name": "",
          "type": "int64[]"
        }
      ],
      "stateMutability": "view",
      "type": "function"
    },
    {
      "inputs": [
        {
          "internalType": "address",
          "name": "owner",
          "type": "address"
        },
        {
          "internalType": "address",
          "name": "operator",
          "type": "address"
        }
      ],
      "name": "isApprovedForAll",
      "outputs": [
        {
          "internalType": "bool",
          "name": "",
          "type": "bool"
        }
      ],
      "stateMutability": "view",
      "type": "function"
    },
    {
      "inputs": [
        {
          "internalType": "address",
          "name": "account",
          "type": "address"
        },
        {
          "internalType": "int64",
          "name": "mainId",
          "type": "int64"
        },
        {
          "internalType": "int64",
          "name": "subId",
          "type": "int64"
        },
        {
          "internalType": "uint256",
          "name": "amount",
          "type": "uint256"
        }
      ],
      "name": "mint",
      "outputs": [],
      "stateMutability": "nonpayable",
      "type": "function"
    },
    {
      "inputs": [],
      "name": "name",
      "outputs": [
        {
          "internalType": "string",
          "name": "",
          "type": "string"
        }
      ],
      "stateMutability": "view",
      "type": "function"
    },
    {
      "inputs": [
        {
          "internalType": "address",
          "name": "sender",
          "type": "address"
        },
        {
          "internalType": "address",
          "name": "recipient",
          "type": "address"
        },
        {
          "internalType": "int64[]",
          "name": "mainIds",
          "type": "int64[]"
        },
        {
          "internalType": "int64[]",
          "name": "subIds",
          "type": "int64[]"
        },
        {
          "internalType": "uint256[]",
          "name": "amounts",
          "type": "uint256[]"
        },
        {
          "internalType": "bytes",
          "name": "data",
          "type": "bytes"
        }
      ],
      "name": "safeBatchTransferFrom",
      "outputs": [
        {
          "internalType": "bool",
          "name": "",
          "type": "bool"
        }
      ],
      "stateMutability": "nonpayable",
      "type": "function"
    },
    {
      "inputs": [
        {
          "internalType": "address",
          "name": "sender",
          "type": "address"
        },
        {
          "internalType": "address",
          "name": "recipient",
          "type": "address"
        },
        {
          "internalType": "int64",
          "name": "mainId",
          "type": "int64"
        },
        {
          "internalType": "int64",
          "name": "subId",
          "type": "int64"
        },
        {
          "internalType": "uint256",
          "name": "amount",
          "type": "uint256"
        }
      ],
      "name": "safeTransferFrom",
      "outputs": [
        {
          "internalType": "bool",
          "name": "",
          "type": "bool"
        }
      ],
      "stateMutability": "nonpayable",
      "type": "function"
    },
    {
      "inputs": [
        {
          "internalType": "address",
          "name": "sender",
          "type": "address"
        },
        {
          "internalType": "address",
          "name": "recipient",
          "type": "address"
        },
        {
          "internalType": "int64",
          "name": "mainId",
          "type": "int64"
        },
        {
          "internalType": "int64",
          "name": "subId",
          "type": "int64"
        },
        {
          "internalType": "uint256",
          "name": "amount",
          "type": "uint256"
        },
        {
          "internalType": "bytes",
          "name": "data",
          "type": "bytes"
        }
      ],
      "name": "safeTransferFrom",
      "outputs": [
        {
          "internalType": "bool",
          "name": "",
          "type": "bool"
        }
      ],
      "stateMutability": "nonpayable",
      "type": "function"
    },
    {
      "inputs": [
        {
          "internalType": "address",
          "name": "operator",
          "type": "address"
        },
        {
          "internalType": "bool",
          "name": "approved",
          "type": "bool"
        }
      ],
      "name": "setApprovalForAll",
      "outputs": [],
      "stateMutability": "nonpayable",
      "type": "function"
    },
    {
      "inputs": [
        {
          "internalType": "address",
          "name": "account",
          "type": "address"
        },
        {
          "internalType": "int64",
          "name": "mainId",
          "type": "int64"
        },
        {
          "internalType": "int64",
          "name": "subId",
          "type": "int64"
        }
      ],
      "name": "subBalanceOf",
      "outputs": [
        {
          "internalType": "uint256",
          "name": "",
          "type": "uint256"
        }
      ],
      "stateMutability": "view",
      "type": "function"
    },
    {
      "inputs": [
        {
          "internalType": "address",
          "name": "owner",
          "type": "address"
        },
        {
          "internalType": "int64",
          "name": "mainId",
          "type": "int64"
        }
      ],
      "name": "subIdBalanceOf",
      "outputs": [
        {
          "internalType": "uint256",
          "name": "totalBalance",
          "type": "uint256"
        }
      ],
      "stateMutability": "view",
      "type": "function"
    },
    {
      "inputs": [],
      "name": "symbol",
      "outputs": [
        {
          "internalType": "string",
          "name": "",
          "type": "string"
        }
      ],
      "stateMutability": "view",
      "type": "function"
    },
    {
      "inputs": [],
      "name": "totalMainIds",
      "outputs": [
        {
          "internalType": "uint256",
          "name": "",
          "type": "uint256"
        }
      ],
      "stateMutability": "view",
      "type": "function"
    },
    {
      "inputs": [
        {
          "internalType": "int64",
          "name": "mainId",
          "type": "int64"
        }
      ],
      "name": "totalMainSupply",
      "outputs": [
        {
          "internalType": "uint256",
          "name": "",
          "type": "uint256"
        }
      ],
      "stateMutability": "view",
      "type": "function"
    },
    {
      "inputs": [
        {
          "internalType": "int64",
          "name": "mainId",
          "type": "int64"
        }
      ],
      "name": "totalSubIds",
      "outputs": [
        {
          "internalType": "uint256",
          "name": "",
          "type": "uint256"
        }
      ],
      "stateMutability": "view",
      "type": "function"
    },
    {
      "inputs": [
        {
          "internalType": "int64",
          "name": "mainId",
          "type": "int64"
        },
        {
          "internalType": "int64",
          "name": "subId",
          "type": "int64"
        }
      ],
      "name": "totalSubSupply",
      "outputs": [
        {
          "internalType": "uint256",
          "name": "",
          "type": "uint256"
        }
      ],
      "stateMutability": "view",
      "type": "function"
    },
    {
      "inputs": [],
      "name": "totalSupply",
      "outputs": [
        {
          "internalType": "uint256",
          "name": "",
          "type": "uint256"
        }
      ],
      "stateMutability": "view",
      "type": "function"
    },
    {
      "inputs": [
        {
          "internalType": "address",
          "name": "sender",
          "type": "address"
        },
        {
          "internalType": "address",
          "name": "recipient",
          "type": "address"
        },
        {
          "internalType": "int64",
          "name": "mainId",
          "type": "int64"
        },
        {
          "internalType": "int64",
          "name": "subId",
          "type": "int64"
        },
        {
          "internalType": "uint256",
          "name": "amount",
          "type": "uint256"
        }
      ],
      "name": "transfer",
      "outputs": [],
      "stateMutability": "nonpayable",
      "type": "function"
    },
    {
      "inputs": [
        {
          "internalType": "address",
          "name": "to",
          "type": "address"
        },
        {
          "internalType": "uint256",
          "name": "value",
          "type": "uint256"
        }
      ],
      "name": "transfer",
      "outputs": [
        {
          "internalType": "bool",
          "name": "",
          "type": "bool"
        }
      ],
      "stateMutability": "nonpayable",
      "type": "function"
    },
    {
      "inputs": [
        {
          "internalType": "address",
          "name": "from",
          "type": "address"
        },
        {
          "internalType": "address",
          "name": "to",
          "type": "address"
        },
        {
          "internalType": "uint256",
          "name": "value",
          "type": "uint256"
        }
      ],
      "name": "transferFrom",
      "outputs": [
        {
          "internalType": "bool",
          "name": "",
          "type": "bool"
        }
      ],
      "stateMutability": "nonpayable",
      "type": "function"
    },
    {
      "inputs": [
        {
          "internalType": "address",
          "name": "sender",
          "type": "address"
        },
        {
          "internalType": "address",
          "name": "recipient",
          "type": "address"
        },
        {
          "internalType": "int64",
          "name": "mainId",
          "type": "int64"
        },
        {
          "internalType": "int64",
          "name": "subId",
          "type": "int64"
        },
        {
          "internalType": "uint256",
          "name": "amount",
          "type": "uint256"
        }
      ],
      "name": "transferFrom",
      "outputs": [
        {
          "internalType": "bool",
          "name": "",
          "type": "bool"
        }
      ],
      "stateMutability": "nonpayable",
      "type": "function"
    }
  ],
  "bytecode": "0x60806040523480156200001157600080fd5b506040516200333f3803806200333f833981016040819052620000349162000126565b8181600362000044838262000221565b50600462000053828262000221565b5050505050620002ed565b634e487b7160e01b600052604160045260246000fd5b600082601f8301126200008657600080fd5b81516001600160401b0380821115620000a357620000a36200005e565b604051601f8301601f19908116603f01168101908282118183101715620000ce57620000ce6200005e565b8160405283815260209250866020858801011115620000ec57600080fd5b600091505b83821015620001105785820183015181830184015290820190620000f1565b6000602085830101528094505050505092915050565b600080604083850312156200013a57600080fd5b82516001600160401b03808211156200015257600080fd5b620001608683870162000074565b935060208501519150808211156200017757600080fd5b50620001868582860162000074565b9150509250929050565b600181811c90821680620001a557607f821691505b602082108103620001c657634e487b7160e01b600052602260045260246000fd5b50919050565b601f8211156200021c576000816000526020600020601f850160051c81016020861015620001f75750805b601f850160051c820191505b81811015620002185782815560010162000203565b5050505b505050565b81516001600160401b038111156200023d576200023d6200005e565b62000255816200024e845462000190565b84620001cc565b602080601f8311600181146200028d5760008415620002745750858301515b600019600386901b1c1916600185901b17855562000218565b600085815260208120601f198616915b82811015620002be578886015182559484019460019091019084016200029d565b5085821015620002dd5787850151600019600388901b60f8161c191681555b5050505050600190811b01905550565b61304280620002fd6000396000f3fe608060405234801561001057600080fd5b50600436106101845760003560e01c806365fd95ba116100d9578063a22cb46511610087578063a22cb4651461035b578063a9059cbb1461036e578063c8e254c414610381578063dd62ed3e146103b4578063de60bc74146103ed578063e43bdfe114610400578063e985e9c51461041357600080fd5b806365fd95ba146102df57806370a08231146102e75780637541f8de146102fa57806383eddad01461030d5780639040fb131461032057806395d89b4114610333578063965e2e121461033b57600080fd5b806320fd1d7c1161013657806320fd1d7c1461023557806323b872dd1461025b5780632eda03ab1461026e5780633523dc6c146102835780635e7e09f3146102965780635f3d6774146102a957806363b12e08146102bc57600080fd5b806305ecb79014610189578063069ed132146101af57806306fdde03146101cf578063095ea7b3146101e457806312849f011461020757806318160ddd1461021a5780631e0e2d4614610222575b600080fd5b61019c61019736600461267e565b610426565b6040519081526020015b60405180910390f35b6101c26101bd3660046126c1565b61045d565b6040516101a6919061271b565b6101d76104e7565b6040516101a69190612774565b6101f76101f2366004612787565b610575565b60405190151581526020016101a6565b6101f761021536600461283d565b6105a7565b600b5461019c565b61019c610230366004612924565b610717565b61019c6102433660046126c1565b600790810b6000908152602091909152604090205490565b6101f7610269366004612957565b6107c7565b61028161027c366004612993565b61088f565b005b6101f7610291366004612993565b6108a3565b6102816102a43660046129ef565b6108ce565b6101f76102b73660046129ef565b6108e0565b61019c6102ca3660046126c1565b60070b60009081526006602052604090205490565b60055461019c565b61019c6102f5366004612a3a565b610949565b610281610308366004612993565b610a72565b6101f761031b366004612993565b610a7f565b6101f761032e366004612a6b565b610a8e565b6101d7610aac565b61034e610349366004612b66565b610ab9565b6040516101a69190612c30565b610281610369366004612c43565b610c26565b6101f761037c366004612787565b610c35565b61019c61038f366004612c7f565b600791820b60009081526008602090815260408083209390940b825291909152205490565b61019c6103c2366004612c9b565b6001600160a01b03918216600090815260106020908152604080832093909416825291909152205490565b6102816103fb3660046129ef565b610c4b565b61019c61040e366004612cc5565b610c57565b6101f7610421366004612c9b565b610c6e565b600791820b60009081526001602090815260408083206001600160a01b039690961683529481528482209290930b81529152205490565b600781900b6000908152600960209081526040918290208054835181840281018401909452808452606093928301828280156104db57602002820191906000526020600020906000905b825461010083900a900460070b81526020600f83018190049384019360010360089093019290920291018084116104a75790505b50505050509050919050565b600380546104f490612d19565b80601f016020809104026020016040519081016040528092919081815260200182805461052090612d19565b801561056d5780601f106105425761010080835404028352916020019161056d565b820191906000526020600020905b81548152906001019060200180831161055057829003601f168201915b505050505081565b3360009081526010602090815260408083206001600160a01b0386168452909152812082905560015b90505b92915050565b6000336105b48c82610c9a565b6106205760405162461bcd60e51b815260206004820152603260248201527f444c543a2063616c6c6572206973206e6f7420746f6b656e206f776e6572206f6044820152711c88185c1c1c9bdd995908199bdc88185b1b60721b60648201526084015b60405180910390fd5b6107058c8c8c8c80806020026020016040519081016040528093929190818152602001838360200280828437600081840152601f19601f820116905080830192505050505050508b8b8080602002602001604051908101604052809392919081815260200183836020028082843760009201919091525050604080516020808f0282810182019093528e82529093508e92508d91829185019084908082843760009201919091525050604080516020601f8e018190048102820181019092528c815292508c91508b9081908401838280828437600092019190915250610cc192505050565b5060019b9a5050505050505050505050565b6000805b600783900b6000908152600960205260409020548110156107c057600783900b600090815260096020526040812080548390811061075b5761075b612d53565b60009182526020808320600483040154600788810b85526001835260408086206001600160a01b038c168752845280862060039095166008026101000a909204900b80855292909152909120549091506107b59084612d7f565b92505060010161071b565b5092915050565b6001600160a01b03808416600090815260106020908152604080832093861683529290529081205482111561083e5760405162461bcd60e51b815260206004820152601b60248201527f45524332303a206e6f7420656e6f75676820616c6c6f77616e636500000000006044820152606401610617565b610849848484610fda565b6001600160a01b03808516600090815260106020908152604080832093871683529290529081208054849290610880908490612d92565b90915550600195945050505050565b61089c8585858585611304565b5050505050565b60006108c2868686868660405180602001604052806000815250611448565b50600195945050505050565b6108da84848484611472565b50505050565b6000336001600160a01b03861681900361093c5760405162461bcd60e51b815260206004820152601e60248201527f444c543a20617070726f76616c20746f2063757272656e74206f776e657200006044820152606401610617565b6108c28187878787611304565b600080805b6001600160a01b0384166000908152600c60205260409020548110156107c0576001600160a01b0384166000908152600c6020526040812080548390811061099857610998612d53565b60009182526020822060048204015460039091166008026101000a900460070b91505b6001600160a01b0386166000908152600d60209081526040808320600786900b8452909152902054811015610a68576001600160a01b0386166000908152600d60209081526040808320600786900b84529091528120805483908110610a2357610a23612d53565b90600052602060002090600491828204019190066008029054906101000a900460070b9050610a53878483610426565b610a5d9086612d7f565b9450506001016109bb565b505060010161094e565b61089c858585858561148e565b60006108c2868686868661162f565b6000610a9e878787878787611448565b5060015b9695505050505050565b600480546104f490612d19565b60608584148015610ac957508582145b610b2c5760405162461bcd60e51b815260206004820152602e60248201527f444c543a206163636f756e74732c206d61696e49647320616e6420696473206c60448201526d0cadccee8d040dad2e6dac2e8c6d60931b6064820152608401610617565b6000866001600160401b03811115610b4657610b46612a55565b604051908082528060200260200182016040528015610b6f578160200160208202803683370190505b50905060005b87811015610c1a57610bf5898983818110610b9257610b92612d53565b9050602002016020810190610ba79190612a3a565b888884818110610bb957610bb9612d53565b9050602002016020810190610bce91906126c1565b878785818110610be057610be0612d53565b905060200201602081019061019791906126c1565b828281518110610c0757610c07612d53565b6020908102919091010152600101610b75565b50979650505050505050565b610c31338383611660565b5050565b6000610c42338484610fda565b50600192915050565b6108da84848484611725565b6000610c658585858561173a565b95945050505050565b6001600160a01b0391821660009081526020818152604080832093909416825291909152205460ff1690565b6000816001600160a01b0316836001600160a01b0316148061059e575061059e8383610c6e565b82518451148015610cd3575081518451145b610d385760405162461bcd60e51b815260206004820152603060248201527f444c543a206d61696e4964732c2073756249647320616e6420616d6f756e747360448201526f040d8cadccee8d040dad2e6dac2e8c6d60831b6064820152608401610617565b6001600160a01b038516610d5e5760405162461bcd60e51b815260040161061790612da5565b3360005b8551811015610f4d576000868281518110610d7f57610d7f612d53565b602002602001015190506000868381518110610d9d57610d9d612d53565b602002602001015190506000868481518110610dbb57610dbb612d53565b602002602001015190506000600160008560070b60070b815260200190815260200160002060008d6001600160a01b03166001600160a01b0316815260200190815260200160002060008460070b60070b8152602001908152602001600020549050610e3d8c8c86868660405180602001604052806000815250505050505050565b81811015610e5d5760405162461bcd60e51b815260040161061790612de6565b818103600160008660070b60070b815260200190815260200160002060008e6001600160a01b03166001600160a01b0316815260200190815260200160002060008560070b60070b81526020019081526020016000208190555081600160008660070b60070b815260200190815260200160002060008d6001600160a01b03166001600160a01b0316815260200190815260200160002060008560070b60070b81526020019081526020016000206000828254610f1a9190612d7f565b92505081905550610f3e8c8c8686866040518060200160405280600081525061177c565b50505050806001019050610d62565b50856001600160a01b0316876001600160a01b0316826001600160a01b03167f3d3612aedbab64ec845a17d1508b936b04c073ee96a02b84c355a7eb025a18d2888888604051610f9f93929190612e2c565b60405180910390a4610fb5878787878787611901565b610fd15760405162461bcd60e51b815260040161061790612e65565b50505050505050565b6001600160a01b0383166110305760405162461bcd60e51b815260206004820152601b60248201527f45524332303a20696e76616c69642066726f6d206164647265737300000000006044820152606401610617565b6001600160a01b0382166110825760405162461bcd60e51b815260206004820152601960248201527845524332303a20696e76616c696420746f206164647265737360381b6044820152606401610617565b600081116110c95760405162461bcd60e51b815260206004820152601460248201527345524332303a20696e76616c69642076616c756560601b6044820152606401610617565b6111026040518060c001604052806060815260200160608152602001606081526020016000815260200160008152602001600081525090565b608081018290526001600160a01b0384166000908152600c60205260409020546001600160401b0381111561113957611139612a55565b604051908082528060200260200182016040528015611162578160200160208202803683370190505b5081526001600160a01b0384166000908152600c60205260409020546001600160401b0381111561119557611195612a55565b6040519080825280602002602001820160405280156111be578160200160208202803683370190505b506020808301919091526001600160a01b0385166000908152600c90915260409020546001600160401b038111156111f8576111f8612a55565b604051908082528060200260200182016040528015611221578160200160208202803683370190505b5060408201526112318482611a03565b818160600151146112b55760405162461bcd60e51b815260206004820152604260248201527f45524332303a20496e73756666696369656e742062616c616e636520696e207360448201527f75622d61737365747320746f20636f6d706c65746520746865207472616e736660648201526132b960f11b608482015260a401610617565b6108da84846112cc84600001518560a00151611acf565b6112de85602001518660a00151611acf565b6112f086604001518760a00151611b71565b604080516000815260208101909152610cc1565b6001600160a01b0385166113655760405162461bcd60e51b815260206004820152602260248201527f444c543a20617070726f76652066726f6d20746865207a65726f206164647265604482015261737360f01b6064820152608401610617565b6001600160a01b0384166113bb5760405162461bcd60e51b815260206004820181905260248201527f444c543a20617070726f766520746f20746865207a65726f20616464726573736044820152606401610617565b6001600160a01b038581166000818152600260209081526040808320948916808452948252808320600789810b8086529184528285209089900b808652908452938290208790558151908152918201929092529081018490527f20228d921cee20e1bee39b210de025b31c291c9a9eb96925595c91db3db75c329060600160405180910390a35050505050565b336114538782610c9a565b611464576114648782878787611c03565b610fd1878787878787611c7b565b6108da8484848460405180602001604052806000815250611cb2565b6001600160a01b0385166114f05760405162461bcd60e51b815260206004820152602360248201527f444c543a207472616e736665722066726f6d20746865207a65726f206164647260448201526265737360e81b6064820152608401610617565b6001600160a01b0384166115165760405162461bcd60e51b815260040161061790612da5565b6040805160208082018352600091829052600786810b8352600182528383206001600160a01b038a16845282528383209086900b83529052205481111561156f5760405162461bcd60e51b815260040161061790612de6565b600783810b60009081526001602090815260408083206001600160a01b03808b1685528184528285209588900b8086529584528285208054889003905589168452825280832093835292905290812080548392906115ce908490612d7f565b909155505060408051600784810b82526020820184905285900b916001600160a01b038088169290891691600080516020612fed833981519152910160405180910390a461089c85858585856040518060200160405280600081525061177c565b3361163a8682610c9a565b61164b5761164b8682868686611c03565b611658868686868661148e565b505050505050565b816001600160a01b0316836001600160a01b0316036116ba5760405162461bcd60e51b815260206004820152601660248201527522262a1d1030b8383937bb32903a379031b0b63632b960511b6044820152606401610617565b6001600160a01b0383811660008181526020818152604080832094871680845294825291829020805460ff191686151590811790915591519182527f17307eab39ab6107e8899845ad3d59bd9653f200f220920489ca2b5937696c31910160405180910390a3505050565b600b805482900390556108da84848484611ce9565b6001600160a01b039384166000908152600260209081526040808320959096168252938452848120600793840b825284528481209190920b8252909152205490565b6001600160a01b03851615611658576001600160a01b0385166000908152600e60209081526040808320600788900b845290915290205460ff16611832576001600160a01b0385166000818152600c602090815260408083208054600180820183559185528385206004820401805460039092166008026101000a6001600160401b0381810219909316928c1602919091179055938352600e8252808320600789900b84529091529020805460ff191690911790555b6001600160a01b0385166000908152600f60209081526040808320600788810b85529083528184209087900b845290915290205460ff166116585750506001600160a01b03929092166000818152600d60209081526040808320600795860b8085529083528184208054600180820183559186528486206004820401805460039092166008026101000a6001600160401b0381810219909316928b1602919091179055948452600f835281842090845282528083209590940b8252939093529120805460ff1916909117905550565b60006001600160a01b0386163b156119fb576040516383fbceb960e01b81526001600160a01b038716906383fbceb9906119499033908b908a908a908a908a90600401612eb1565b6020604051808303816000875af1925050508015611984575060408051601f3d908101601f1916820190925261198191810190612f24565b60015b6119e1573d8080156119b2576040519150601f19603f3d011682016040523d82523d6000602084013e6119b7565b606091505b5080516000036119d95760405162461bcd60e51b815260040161061790612e65565b805181602001fd5b6001600160e01b0319166383fbceb960e01b149050610aa2565b506001610aa2565b6001600160a01b0382166000908152600c6020908152604080832080548251818502810185019093528083529192909190830182828015611a8657602002820191906000526020600020906000905b825461010083900a900460070b81526020600f8301819004938401936001036008909301929092029101808411611a525790505b5050505050905060005b81518110156108da57611abd84838381518110611aaf57611aaf612d53565b602002602001015185611eb7565b6080830151156108da57600101611a90565b60606000826001600160401b03811115611aeb57611aeb612a55565b604051908082528060200260200182016040528015611b14578160200160208202803683370190505b50905060005b83811015611b6957848181518110611b3457611b34612d53565b6020026020010151828281518110611b4e57611b4e612d53565b60079290920b60209283029190910190910152600101611b1a565b509392505050565b60606000826001600160401b03811115611b8d57611b8d612a55565b604051908082528060200260200182016040528015611bb6578160200160208202803683370190505b50905060005b83811015611b6957848181518110611bd657611bd6612d53565b6020026020010151828281518110611bf057611bf0612d53565b6020908102919091010152600101611bbc565b6000611c118686868661173a565b905060001981146116585781811015611c6c5760405162461bcd60e51b815260206004820152601b60248201527f444c543a20696e73756666696369656e7420616c6c6f77616e636500000000006044820152606401610617565b61165886868686868603611304565b611c88868686868661148e565b611c96868686868686612128565b6116585760405162461bcd60e51b815260040161061790612e65565b611cbe858585856121f3565b611ccd60008686868686612128565b61089c5760405162461bcd60e51b815260040161061790612e65565b611cf584848484612217565b600783810b60009081526020828152604080832080548690039055600882528083209386900b83529290529081208054839003908190559003611e8357600783900b60009081526006602052604081208054909190611d5390612f55565b90915550600783810b6000908152600960209081526040808320600a83528184209487900b84529390915281205482549091908390611d9490600190612d92565b81548110611da457611da4612d53565b90600052602060002090600491828204019190066008029054906101000a900460070b905080838381548110611ddc57611ddc612d53565b600091825260208083206004830401805460039093166008026101000a6001600160401b03818102199094169590931692909202939093179055600788810b8252600a8352604080832085830b845290935282822085905587900b8152908120558254839080611e4e57611e4e612f6c565b60008281526020902060046000199092019182040180546001600160401b03600860038516026101000a021916905590555050505b600783810b6000908152602091909152604081205490036108da57600560008154611ead90612f55565b9091555050505050565b6001600160a01b0383166000908152600d60209081526040808320600786900b8452825280832080548251818502810185019093528083529192909190830182828015611f4657602002820191906000526020600020906000905b825461010083900a900460070b81526020600f8301819004938401936001036008909301929092029101808411611f125790505b5050505050905060005b815181101561089c576000828281518110611f6d57611f6d612d53565b602002602001015190506000611f84878784610426565b9050801561211e578460800151811061205a578585600001518660a0015181518110611fb257611fb2612d53565b602002602001019060070b908160070b815250508185602001518660a0015181518110611fe157611fe1612d53565b602002602001019060070b908160070b81525050846080015185604001518660a001518151811061201457612014612d53565b6020026020010181815250508460800151856060018181516120369190612d7f565b90525060a0850180519061204982612f82565b90525050600060808501525061089c565b8585600001518660a001518151811061207557612075612d53565b602002602001019060070b908160070b815250508185602001518660a00151815181106120a4576120a4612d53565b602002602001019060070b908160070b815250508085604001518660a00151815181106120d3576120d3612d53565b60200260200101818152505080856060018181516120f19190612d7f565b90525060a0850180519061210482612f82565b81525050808560800181815161211a9190612d92565b9052505b5050600101611f50565b60006001600160a01b0386163b156119fb57604051630f18968560e01b81526001600160a01b03871690630f189685906121709033908b908a908a908a908a90600401612f9b565b6020604051808303816000875af19250505080156121ab575060408051601f3d908101601f191682019092526121a891810190612f24565b60015b6121d9573d8080156119b2576040519150601f19603f3d011682016040523d82523d6000602084013e6119b7565b6001600160e01b031916630f18968560e01b149050610aa2565b80600b60008282546122059190612d7f565b909155506108da9050848484846123bd565b6001600160a01b03841661226d5760405162461bcd60e51b815260206004820152601f60248201527f444c543a206275726e2066726f6d20746865207a65726f2061646472657373006044820152606401610617565b806000036122b55760405162461bcd60e51b81526020600482015260156024820152741113150e88189d5c9b881e995c9bc8185b5bdd5b9d605a1b6044820152606401610617565b600783810b60009081526001602090815260408083206001600160a01b038916845282528083209386900b83529290522054818110156123335760405162461bcd60e51b8152602060048201526019602482015278444c543a20696e73756666696369656e742062616c616e636560381b6044820152606401610617565b6040805160208082018352600091829052600787810b808452600183528484206001600160a01b038b168086529084528585209289900b80865292845285852080548990039055855192835292820187905284519094600080516020612fed833981519152928290030190a461089c8560008686866040518060200160405280600081525061177c565b600783810b6000908152602091909152604081205490036123ec576005600081546123e790612f82565b909155505b600783810b60009081526008602090815260408083209386900b835292905290812054900361249f57600783900b6000908152600660205260408120805490919061243690612f82565b90915550600783810b60009081526009602090815260408083208054600a84528285209588900b8552948352908320849055600184018155825290206004820401805460039092166008026101000a6001600160401b0381810219909316928516029190911790555b600783810b60009081526020919091526040812080548392906124c3908490612d7f565b9091555050600783810b60009081526008602090815260408083209386900b835292905290812080548392906124fa908490612d7f565b909155506108da9050848484846001600160a01b03841661255d5760405162461bcd60e51b815260206004820152601d60248201527f444c543a206d696e7420746f20746865207a65726f20616464726573730000006044820152606401610617565b806000036125a55760405162461bcd60e51b81526020600482015260156024820152741113150e881b5a5b9d081e995c9bc8185b5bdd5b9d605a1b6044820152606401610617565b6040805160208082018352600091829052600786810b8352600182528383206001600160a01b038916845282528383209086900b8352905290812080548392906125f0908490612d7f565b909155505060408051600784810b82526020820184905285900b916001600160a01b03871691600091600080516020612fed833981519152910160405180910390a46108da6000858585856040518060200160405280600081525061177c565b80356001600160a01b038116811461266757600080fd5b919050565b8035600781900b811461266757600080fd5b60008060006060848603121561269357600080fd5b61269c84612650565b92506126aa6020850161266c565b91506126b86040850161266c565b90509250925092565b6000602082840312156126d357600080fd5b61059e8261266c565b60008151808452602080850194506020840160005b8381101561271057815160070b875295820195908201906001016126f1565b509495945050505050565b60208152600061059e60208301846126dc565b6000815180845260005b8181101561275457602081850181015186830182015201612738565b506000602082860101526020601f19601f83011685010191505092915050565b60208152600061059e602083018461272e565b6000806040838503121561279a57600080fd5b6127a383612650565b946020939093013593505050565b60008083601f8401126127c357600080fd5b5081356001600160401b038111156127da57600080fd5b6020830191508360208260051b85010111156127f557600080fd5b9250929050565b60008083601f84011261280e57600080fd5b5081356001600160401b0381111561282557600080fd5b6020830191508360208285010111156127f557600080fd5b60008060008060008060008060008060c08b8d03121561285c57600080fd5b6128658b612650565b995061287360208c01612650565b985060408b01356001600160401b038082111561288f57600080fd5b61289b8e838f016127b1565b909a50985060608d01359150808211156128b457600080fd5b6128c08e838f016127b1565b909850965060808d01359150808211156128d957600080fd5b6128e58e838f016127b1565b909650945060a08d01359150808211156128fe57600080fd5b5061290b8d828e016127fc565b915080935050809150509295989b9194979a5092959850565b6000806040838503121561293757600080fd5b61294083612650565b915061294e6020840161266c565b90509250929050565b60008060006060848603121561296c57600080fd5b61297584612650565b925061298360208501612650565b9150604084013590509250925092565b600080600080600060a086880312156129ab57600080fd5b6129b486612650565b94506129c260208701612650565b93506129d06040870161266c565b92506129de6060870161266c565b949793965091946080013592915050565b60008060008060808587031215612a0557600080fd5b612a0e85612650565b9350612a1c6020860161266c565b9250612a2a6040860161266c565b9396929550929360600135925050565b600060208284031215612a4c57600080fd5b61059e82612650565b634e487b7160e01b600052604160045260246000fd5b60008060008060008060c08789031215612a8457600080fd5b612a8d87612650565b9550612a9b60208801612650565b9450612aa96040880161266c565b9350612ab76060880161266c565b92506080870135915060a08701356001600160401b0380821115612ada57600080fd5b818901915089601f830112612aee57600080fd5b813581811115612b0057612b00612a55565b604051601f8201601f19908116603f01168101908382118183101715612b2857612b28612a55565b816040528281528c6020848701011115612b4157600080fd5b8260208601602083013760006020848301015280955050505050509295509295509295565b60008060008060008060608789031215612b7f57600080fd5b86356001600160401b0380821115612b9657600080fd5b612ba28a838b016127b1565b90985096506020890135915080821115612bbb57600080fd5b612bc78a838b016127b1565b90965094506040890135915080821115612be057600080fd5b50612bed89828a016127b1565b979a9699509497509295939492505050565b60008151808452602080850194506020840160005b8381101561271057815187529582019590820190600101612c14565b60208152600061059e6020830184612bff565b60008060408385031215612c5657600080fd5b612c5f83612650565b915060208301358015158114612c7457600080fd5b809150509250929050565b60008060408385031215612c9257600080fd5b6129408361266c565b60008060408385031215612cae57600080fd5b612cb783612650565b915061294e60208401612650565b60008060008060808587031215612cdb57600080fd5b612ce485612650565b9350612cf260208601612650565b9250612d006040860161266c565b9150612d0e6060860161266c565b905092959194509250565b600181811c90821680612d2d57607f821691505b602082108103612d4d57634e487b7160e01b600052602260045260246000fd5b50919050565b634e487b7160e01b600052603260045260246000fd5b634e487b7160e01b600052601160045260246000fd5b808201808211156105a1576105a1612d69565b818103818111156105a1576105a1612d69565b60208082526021908201527f444c543a207472616e7366657220746f20746865207a65726f206164647265736040820152607360f81b606082015260800190565b60208082526026908201527f444c543a20696e73756666696369656e742062616c616e636520666f7220747260408201526530b739b332b960d11b606082015260800190565b606081526000612e3f60608301866126dc565b8281036020840152612e5181866126dc565b90508281036040840152610aa28185612bff565b6020808252602c908201527f444c543a207472616e7366657220746f206e6f6e20444c54526563656976657260408201526b1034b6b83632b6b2b73a32b960a11b606082015260800190565b6001600160a01b0387811682528616602082015260c060408201819052600090612edd908301876126dc565b8281036060840152612eef81876126dc565b90508281036080840152612f038186612bff565b905082810360a0840152612f17818561272e565b9998505050505050505050565b600060208284031215612f3657600080fd5b81516001600160e01b031981168114612f4e57600080fd5b9392505050565b600081612f6457612f64612d69565b506000190190565b634e487b7160e01b600052603160045260246000fd5b600060018201612f9457612f94612d69565b5060010190565b6001600160a01b03878116825286166020820152600785810b604083015284900b60608201526080810183905260c060a08201819052600090612fe09083018461272e565b9897505050505050505056fed3f5ba918fcf5f0ed2a6add09f440b150c54a8eba5a07bbba0695eea7bbf1efaa2646970667358221220d88e8a2a08008b3c0c37540128c4d92a6029153f7e8dde83e1fc18c1db910b4564736f6c63430008180033",
  "linkReferences": {},
  "deployedLinkReferences": {}
}