{
  "_format": "hh-sol-artifact-1",
  "contractName": "TestDLT",
  "sourceName": "contracts/erc6960/TestDLT.sol",
  "abi": [
    {
      "inputs": [
        {
          "internalType": "string",
          "name": "name",
          "type": "string"
        },
        {
          "internalType": "string",
          "name": "symbol",
          "type": "string"
        },
        {
          "internalType": "string",
          "name": "version",
          "type": "string"
        }
      ],
      "stateMutability": "nonpayable",
      "type": "constructor"
    },
    {
      "inputs": [],
      "name": "ExpiredSignature",
      "type": "error"
    },
    {
      "inputs": [],
      "name": "InvalidSignature",
      "type": "error"
    },
    {
      "inputs": [
        {
          "internalType": "bytes32",
          "name": "s",
          "type": "bytes32"
        }
      ],
      "name": "InvalidSignatureS",
      "type": "error"
    },
    {
      "inputs": [],
      "name": "InvalidSigner",
      "type": "error"
    },
    {
      "anonymous": false,
      "inputs": [
        {
          "indexed": true,
          "internalType": "address",
          "name": "owner",
          "type": "address"
        },
        {
          "indexed": true,
          "internalType": "address",
          "name": "spender",
          "type": "address"
        },
        {
          "indexed": false,
          "internalType": "int64",
          "name": "mainId",
          "type": "int64"
        },
        {
          "indexed": false,
          "internalType": "int64",
          "name": "subId",
          "type": "int64"
        },
        {
          "indexed": false,
          "internalType": "uint256",
          "name": "amount",
          "type": "uint256"
        }
      ],
      "name": "Approval",
      "type": "event"
    },
    {
      "anonymous": false,
      "inputs": [
        {
          "indexed": true,
          "internalType": "address",
          "name": "spender",
          "type": "address"
        },
        {
          "indexed": true,
          "internalType": "address",
          "name": "operator",
          "type": "address"
        },
        {
          "indexed": false,
          "internalType": "bool",
          "name": "approved",
          "type": "bool"
        }
      ],
      "name": "ApprovalForAll",
      "type": "event"
    },
    {
      "anonymous": false,
      "inputs": [
        {
          "indexed": true,
          "internalType": "address",
          "name": "sender",
          "type": "address"
        },
        {
          "indexed": true,
          "internalType": "address",
          "name": "recipient",
          "type": "address"
        },
        {
          "indexed": true,
          "internalType": "int64",
          "name": "mainId",
          "type": "int64"
        },
        {
          "indexed": false,
          "internalType": "int64",
          "name": "subId",
          "type": "int64"
        },
        {
          "indexed": false,
          "internalType": "uint256",
          "name": "amount",
          "type": "uint256"
        }
      ],
      "name": "Transfer",
      "type": "event"
    },
    {
      "anonymous": false,
      "inputs": [
        {
          "indexed": true,
          "internalType": "address",
          "name": "spender",
          "type": "address"
        },
        {
          "indexed": true,
          "internalType": "address",
          "name": "sender",
          "type": "address"
        },
        {
          "indexed": true,
          "internalType": "address",
          "name": "recipient",
          "type": "address"
        },
        {
          "indexed": false,
          "internalType": "int64[]",
          "name": "mainIds",
          "type": "int64[]"
        },
        {
          "indexed": false,
          "internalType": "int64[]",
          "name": "subIds",
          "type": "int64[]"
        },
        {
          "indexed": false,
          "internalType": "uint256[]",
          "name": "amounts",
          "type": "uint256[]"
        }
      ],
      "name": "TransferBatch",
      "type": "event"
    },
    {
      "anonymous": false,
      "inputs": [
        {
          "indexed": false,
          "internalType": "string",
          "name": "oldValue",
          "type": "string"
        },
        {
          "indexed": false,
          "internalType": "string",
          "name": "newValue",
          "type": "string"
        },
        {
          "indexed": true,
          "internalType": "int64",
          "name": "mainId",
          "type": "int64"
        }
      ],
      "name": "URI",
      "type": "event"
    },
    {
      "inputs": [],
      "name": "DOMAIN_SEPARATOR",
      "outputs": [
        {
          "internalType": "bytes32",
          "name": "",
          "type": "bytes32"
        }
      ],
      "stateMutability": "view",
      "type": "function"
    },
    {
      "inputs": [
        {
          "internalType": "address",
          "name": "sender",
          "type": "address"
        },
        {
          "internalType": "address",
          "name": "recipient",
          "type": "address"
        },
        {
          "internalType": "int64",
          "name": "mainId",
          "type": "int64"
        },
        {
          "internalType": "int64",
          "name": "subId",
          "type": "int64"
        },
        {
          "internalType": "uint256",
          "name": "amount",
          "type": "uint256"
        }
      ],
      "name": "allow",
      "outputs": [],
      "stateMutability": "nonpayable",
      "type": "function"
    },
    {
      "inputs": [
        {
          "internalType": "address",
          "name": "owner",
          "type": "address"
        },
        {
          "internalType": "address",
          "name": "spender",
          "type": "address"
        },
        {
          "internalType": "int64",
          "name": "mainId",
          "type": "int64"
        },
        {
          "internalType": "int64",
          "name": "subId",
          "type": "int64"
        }
      ],
      "name": "allowance",
      "outputs": [
        {
          "internalType": "uint256",
          "name": "",
          "type": "uint256"
        }
      ],
      "stateMutability": "view",
      "type": "function"
    },
    {
      "inputs": [
        {
          "internalType": "address",
          "name": "spender",
          "type": "address"
        },
        {
          "internalType": "int64",
          "name": "mainId",
          "type": "int64"
        },
        {
          "internalType": "int64",
          "name": "subId",
          "type": "int64"
        },
        {
          "internalType": "uint256",
          "name": "amount",
          "type": "uint256"
        }
      ],
      "name": "approve",
      "outputs": [
        {
          "internalType": "bool",
          "name": "",
          "type": "bool"
        }
      ],
      "stateMutability": "nonpayable",
      "type": "function"
    },
    {
      "inputs": [
        {
          "internalType": "address[]",
          "name": "accounts",
          "type": "address[]"
        },
        {
          "internalType": "int64[]",
          "name": "mainIds",
          "type": "int64[]"
        },
        {
          "internalType": "int64[]",
          "name": "subIds",
          "type": "int64[]"
        }
      ],
      "name": "balanceOfBatch",
      "outputs": [
        {
          "internalType": "uint256[]",
          "name": "",
          "type": "uint256[]"
        }
      ],
      "stateMutability": "view",
      "type": "function"
    },
    {
      "inputs": [
        {
          "internalType": "address",
          "name": "account",
          "type": "address"
        },
        {
          "internalType": "int64",
          "name": "mainId",
          "type": "int64"
        },
        {
          "internalType": "int64",
          "name": "subId",
          "type": "int64"
        },
        {
          "internalType": "uint256",
          "name": "amount",
          "type": "uint256"
        }
      ],
      "name": "burn",
      "outputs": [],
      "stateMutability": "nonpayable",
      "type": "function"
    },
    {
      "inputs": [
        {
          "internalType": "int64",
          "name": "mainId",
          "type": "int64"
        }
      ],
      "name": "getSubIds",
      "outputs": [
        {
          "internalType": "int64[]",
          "name": "",
          "type": "int64[]"
        }
      ],
      "stateMutability": "view",
      "type": "function"
    },
    {
      "inputs": [
        {
          "internalType": "address",
          "name": "owner",
          "type": "address"
        },
        {
          "internalType": "address",
          "name": "operator",
          "type": "address"
        }
      ],
      "name": "isApprovedForAll",
      "outputs": [
        {
          "internalType": "bool",
          "name": "",
          "type": "bool"
        }
      ],
      "stateMutability": "view",
      "type": "function"
    },
    {
      "inputs": [
        {
          "internalType": "address",
          "name": "account",
          "type": "address"
        },
        {
          "internalType": "int64",
          "name": "mainId",
          "type": "int64"
        },
        {
          "internalType": "int64",
          "name": "subId",
          "type": "int64"
        },
        {
          "internalType": "uint256",
          "name": "amount",
          "type": "uint256"
        }
      ],
      "name": "mint",
      "outputs": [],
      "stateMutability": "nonpayable",
      "type": "function"
    },
    {
      "inputs": [],
      "name": "name",
      "outputs": [
        {
          "internalType": "string",
          "name": "",
          "type": "string"
        }
      ],
      "stateMutability": "view",
      "type": "function"
    },
    {
      "inputs": [
        {
          "internalType": "address",
          "name": "owner",
          "type": "address"
        }
      ],
      "name": "nonces",
      "outputs": [
        {
          "internalType": "uint256",
          "name": "",
          "type": "uint256"
        }
      ],
      "stateMutability": "view",
      "type": "function"
    },
    {
      "inputs": [
        {
          "internalType": "address",
          "name": "owner",
          "type": "address"
        },
        {
          "internalType": "address",
          "name": "spender",
          "type": "address"
        },
        {
          "internalType": "int64",
          "name": "mainId",
          "type": "int64"
        },
        {
          "internalType": "int64",
          "name": "subId",
          "type": "int64"
        },
        {
          "internalType": "uint256",
          "name": "amount",
          "type": "uint256"
        },
        {
          "internalType": "uint256",
          "name": "deadline",
          "type": "uint256"
        },
        {
          "internalType": "uint8",
          "name": "v",
          "type": "uint8"
        },
        {
          "internalType": "bytes32",
          "name": "r",
          "type": "bytes32"
        },
        {
          "internalType": "bytes32",
          "name": "s",
          "type": "bytes32"
        }
      ],
      "name": "permit",
      "outputs": [],
      "stateMutability": "nonpayable",
      "type": "function"
    },
    {
      "inputs": [
        {
          "internalType": "address",
          "name": "sender",
          "type": "address"
        },
        {
          "internalType": "address",
          "name": "recipient",
          "type": "address"
        },
        {
          "internalType": "int64[]",
          "name": "mainIds",
          "type": "int64[]"
        },
        {
          "internalType": "int64[]",
          "name": "subIds",
          "type": "int64[]"
        },
        {
          "internalType": "uint256[]",
          "name": "amounts",
          "type": "uint256[]"
        },
        {
          "internalType": "bytes",
          "name": "data",
          "type": "bytes"
        }
      ],
      "name": "safeBatchTransferFrom",
      "outputs": [
        {
          "internalType": "bool",
          "name": "",
          "type": "bool"
        }
      ],
      "stateMutability": "nonpayable",
      "type": "function"
    },
    {
      "inputs": [
        {
          "internalType": "address",
          "name": "sender",
          "type": "address"
        },
        {
          "internalType": "address",
          "name": "recipient",
          "type": "address"
        },
        {
          "internalType": "int64",
          "name": "mainId",
          "type": "int64"
        },
        {
          "internalType": "int64",
          "name": "subId",
          "type": "int64"
        },
        {
          "internalType": "uint256",
          "name": "amount",
          "type": "uint256"
        }
      ],
      "name": "safeTransferFrom",
      "outputs": [
        {
          "internalType": "bool",
          "name": "",
          "type": "bool"
        }
      ],
      "stateMutability": "nonpayable",
      "type": "function"
    },
    {
      "inputs": [
        {
          "internalType": "address",
          "name": "sender",
          "type": "address"
        },
        {
          "internalType": "address",
          "name": "recipient",
          "type": "address"
        },
        {
          "internalType": "int64",
          "name": "mainId",
          "type": "int64"
        },
        {
          "internalType": "int64",
          "name": "subId",
          "type": "int64"
        },
        {
          "internalType": "uint256",
          "name": "amount",
          "type": "uint256"
        },
        {
          "internalType": "bytes",
          "name": "data",
          "type": "bytes"
        }
      ],
      "name": "safeTransferFrom",
      "outputs": [
        {
          "internalType": "bool",
          "name": "",
          "type": "bool"
        }
      ],
      "stateMutability": "nonpayable",
      "type": "function"
    },
    {
      "inputs": [
        {
          "internalType": "address",
          "name": "operator",
          "type": "address"
        },
        {
          "internalType": "bool",
          "name": "approved",
          "type": "bool"
        }
      ],
      "name": "setApprovalForAll",
      "outputs": [],
      "stateMutability": "nonpayable",
      "type": "function"
    },
    {
      "inputs": [
        {
          "internalType": "address",
          "name": "account",
          "type": "address"
        },
        {
          "internalType": "int64",
          "name": "mainId",
          "type": "int64"
        },
        {
          "internalType": "int64",
          "name": "subId",
          "type": "int64"
        }
      ],
      "name": "subBalanceOf",
      "outputs": [
        {
          "internalType": "uint256",
          "name": "",
          "type": "uint256"
        }
      ],
      "stateMutability": "view",
      "type": "function"
    },
    {
      "inputs": [
        {
          "internalType": "address",
          "name": "owner",
          "type": "address"
        },
        {
          "internalType": "int64",
          "name": "mainId",
          "type": "int64"
        }
      ],
      "name": "subIdBalanceOf",
      "outputs": [
        {
          "internalType": "uint256",
          "name": "totalBalance",
          "type": "uint256"
        }
      ],
      "stateMutability": "view",
      "type": "function"
    },
    {
      "inputs": [],
      "name": "symbol",
      "outputs": [
        {
          "internalType": "string",
          "name": "",
          "type": "string"
        }
      ],
      "stateMutability": "view",
      "type": "function"
    },
    {
      "inputs": [],
      "name": "totalMainIds",
      "outputs": [
        {
          "internalType": "uint256",
          "name": "",
          "type": "uint256"
        }
      ],
      "stateMutability": "view",
      "type": "function"
    },
    {
      "inputs": [
        {
          "internalType": "int64",
          "name": "mainId",
          "type": "int64"
        }
      ],
      "name": "totalMainSupply",
      "outputs": [
        {
          "internalType": "uint256",
          "name": "",
          "type": "uint256"
        }
      ],
      "stateMutability": "view",
      "type": "function"
    },
    {
      "inputs": [
        {
          "internalType": "int64",
          "name": "mainId",
          "type": "int64"
        }
      ],
      "name": "totalSubIds",
      "outputs": [
        {
          "internalType": "uint256",
          "name": "",
          "type": "uint256"
        }
      ],
      "stateMutability": "view",
      "type": "function"
    },
    {
      "inputs": [
        {
          "internalType": "int64",
          "name": "mainId",
          "type": "int64"
        },
        {
          "internalType": "int64",
          "name": "subId",
          "type": "int64"
        }
      ],
      "name": "totalSubSupply",
      "outputs": [
        {
          "internalType": "uint256",
          "name": "",
          "type": "uint256"
        }
      ],
      "stateMutability": "view",
      "type": "function"
    },
    {
      "inputs": [
        {
          "internalType": "address",
          "name": "sender",
          "type": "address"
        },
        {
          "internalType": "address",
          "name": "recipient",
          "type": "address"
        },
        {
          "internalType": "int64",
          "name": "mainId",
          "type": "int64"
        },
        {
          "internalType": "int64",
          "name": "subId",
          "type": "int64"
        },
        {
          "internalType": "uint256",
          "name": "amount",
          "type": "uint256"
        }
      ],
      "name": "transfer",
      "outputs": [],
      "stateMutability": "nonpayable",
      "type": "function"
    },
    {
      "inputs": [
        {
          "internalType": "address",
          "name": "sender",
          "type": "address"
        },
        {
          "internalType": "address",
          "name": "recipient",
          "type": "address"
        },
        {
          "internalType": "int64",
          "name": "mainId",
          "type": "int64"
        },
        {
          "internalType": "int64",
          "name": "subId",
          "type": "int64"
        },
        {
          "internalType": "uint256",
          "name": "amount",
          "type": "uint256"
        }
      ],
      "name": "transferFrom",
      "outputs": [
        {
          "internalType": "bool",
          "name": "",
          "type": "bool"
        }
      ],
      "stateMutability": "nonpayable",
      "type": "function"
    }
  ],
  "bytecode": "0x60e06040523480156200001157600080fd5b5060405162002be538038062002be5833981016040819052620000349162000234565b82818184600362000046838262000356565b50600462000055828262000356565b5050825160208085019190912060805282518382012060a052604051620001079250016c08a92a06e626488dedac2d2dc5609b1b81526b1cdd1c9a5b99c81b985b594b60a21b600d8201526e1cdd1c9a5b99c81d995c9cda5bdb8b608a1b60198201526f1d5a5b9d0c8d4d8818da185a5b92590b60821b60288201527f6164647265737320766572696679696e67436f6e7472616374000000000000006038820152602960f81b605182015260520190565b60408051808303601f1901815282825280516020918201206080805160a0805185880194909452868601919091526060860192909252469085015230818501528251808503909101815260c09384019092528151910120905250620004229350505050565b634e487b7160e01b600052604160045260246000fd5b600082601f8301126200019457600080fd5b81516001600160401b0380821115620001b157620001b16200016c565b604051601f8301601f19908116603f01168101908282118183101715620001dc57620001dc6200016c565b8160405283815260209250866020858801011115620001fa57600080fd5b600091505b838210156200021e5785820183015181830184015290820190620001ff565b6000602085830101528094505050505092915050565b6000806000606084860312156200024a57600080fd5b83516001600160401b03808211156200026257600080fd5b620002708783880162000182565b945060208601519150808211156200028757600080fd5b620002958783880162000182565b93506040860151915080821115620002ac57600080fd5b50620002bb8682870162000182565b9150509250925092565b600181811c90821680620002da57607f821691505b602082108103620002fb57634e487b7160e01b600052602260045260246000fd5b50919050565b601f82111562000351576000816000526020600020601f850160051c810160208610156200032c5750805b601f850160051c820191505b818110156200034d5782815560010162000338565b5050505b505050565b81516001600160401b038111156200037257620003726200016c565b6200038a81620003838454620002c5565b8462000301565b602080601f831160018114620003c25760008415620003a95750858301515b600019600386901b1c1916600185901b1785556200034d565b600085815260208120601f198616915b82811015620003f357888601518255948401946001909101908401620003d2565b5085821015620004125787850151600019600388901b60f8161c191681555b5050505050600190811b01905550565b60805160a05160c051612792620004536000396000818161027b01526113ca015260005050600050506127926000f3fe608060405234801561001057600080fd5b50600436106101635760003560e01c806365fd95ba116100ce578063965e2e1211610087578063965e2e121461035a578063a22cb4651461037a578063c8e254c41461038d578063de60bc74146103c0578063e43bdfe1146103d3578063e985e9c5146103e6578063ed99bc0e146103f957600080fd5b806365fd95ba146102e85780637541f8de146102f05780637ecebe001461030357806383eddad01461032c5780639040fb131461033f57806395d89b411461035257600080fd5b80632eda03ab116101205780632eda03ab146102515780633523dc6c146102665780633644e515146102795780635e7e09f31461029f5780635f3d6774146102b257806363b12e08146102c557600080fd5b806305ecb79014610168578063069ed132146101c057806306fdde03146101e057806312849f01146101f55780631e0e2d461461021857806320fd1d7c1461022b575b600080fd5b6101ad610176366004611da5565b600791820b60009081526001602090815260408083206001600160a01b039690961683529481528482209290930b81529152205490565b6040519081526020015b60405180910390f35b6101d36101ce366004611de8565b61040c565b6040516101b79190611e42565b6101e8610496565b6040516101b79190611e9b565b610208610203366004611f3a565b610524565b60405190151581526020016101b7565b6101ad610226366004612021565b610694565b6101ad610239366004611de8565b600790810b6000908152602091909152604090205490565b61026461025f366004612054565b610745565b005b610208610274366004612054565b610759565b7f00000000000000000000000000000000000000000000000000000000000000006101ad565b6102646102ad3660046120b0565b610784565b6102086102c03660046120b0565b610796565b6101ad6102d3366004611de8565b60070b60009081526006602052604090205490565b6005546101ad565b6102646102fe366004612054565b6107ff565b6101ad6103113660046120fb565b6001600160a01b03166000908152600b602052604090205490565b61020861033a366004612054565b61080c565b61020861034d36600461212c565b61081b565b6101e8610839565b61036d610368366004612227565b610846565b6040516101b791906122f1565b610264610388366004612304565b6109b3565b6101ad61039b366004612340565b600791820b60009081526008602090815260408083209390940b825291909152205490565b6102646103ce3660046120b0565b6109c2565b6101ad6103e136600461235c565b6109ce565b6102086103f43660046123b0565b6109e5565b6102646104073660046123da565b610a11565b600781900b60009081526009602090815260409182902080548351818402810184019094528084526060939283018282801561048a57602002820191906000526020600020906000905b825461010083900a900460070b81526020600f83018190049384019360010360089093019290920291018084116104565790505b50505050509050919050565b600380546104a390612470565b80601f01602080910402602001604051908101604052809291908181526020018280546104cf90612470565b801561051c5780601f106104f15761010080835404028352916020019161051c565b820191906000526020600020905b8154815290600101906020018083116104ff57829003601f168201915b505050505081565b6000336105318c82610bef565b61059d5760405162461bcd60e51b815260206004820152603260248201527f444c543a2063616c6c6572206973206e6f7420746f6b656e206f776e6572206f6044820152711c88185c1c1c9bdd995908199bdc88185b1b60721b60648201526084015b60405180910390fd5b6106828c8c8c8c80806020026020016040519081016040528093929190818152602001838360200280828437600081840152601f19601f820116905080830192505050505050508b8b8080602002602001604051908101604052809392919081815260200183836020028082843760009201919091525050604080516020808f0282810182019093528e82529093508e92508d91829185019084908082843760009201919091525050604080516020601f8e018190048102820181019092528c815292508c91508b9081908401838280828437600092019190915250610c1d92505050565b5060019b9a5050505050505050505050565b6000805b600783900b60009081526009602052604090205481101561073d57600783900b60009081526009602052604081208054839081106106d8576106d86124aa565b60009182526020808320600483040154600788810b85526001835260408086206001600160a01b038c168752845280862060039095166008026101000a909204900b808552929091529091205490915061073290846124d6565b925050600101610698565b505b92915050565b6107528585858585610f26565b5050505050565b600061077886868686866040518060200160405280600081525061106a565b50600195945050505050565b61079084848484611094565b50505050565b6000336001600160a01b0386168190036107f25760405162461bcd60e51b815260206004820152601e60248201527f444c543a20617070726f76616c20746f2063757272656e74206f776e657200006044820152606401610594565b6107788187878787610f26565b61075285858585856110b0565b60006107788686868686611248565b600061082b87878787878761106a565b5060015b9695505050505050565b600480546104a390612470565b6060858414801561085657508582145b6108b95760405162461bcd60e51b815260206004820152602e60248201527f444c543a206163636f756e74732c206d61696e49647320616e6420696473206c60448201526d0cadccee8d040dad2e6dac2e8c6d60931b6064820152608401610594565b6000866001600160401b038111156108d3576108d3612116565b6040519080825280602002602001820160405280156108fc578160200160208202803683370190505b50905060005b878110156109a75761098289898381811061091f5761091f6124aa565b905060200201602081019061093491906120fb565b888884818110610946576109466124aa565b905060200201602081019061095b9190611de8565b87878581811061096d5761096d6124aa565b90506020020160208101906101769190611de8565b828281518110610994576109946124aa565b6020908102919091010152600101610902565b50979650505050505050565b6109be338383611279565b5050565b6107908484848461133e565b60006109dc8585858561134a565b95945050505050565b6001600160a01b0391821660009081526020818152604080832093909416825291909152205460ff1690565b83421115610a325760405163df4cc36d60e01b815260040160405180910390fd5b6000610a3d8a61138c565b90506000604051602001610b0b90660a0cae4dad2e8560cb1b81526d1859191c995cdcc81bdddb995c8b60921b60078201526f1859191c995cdcc81cdc195b99195c8b60821b60158201526c1a5b9d0d8d081b585a5b92590b609a1b60258201526b1a5b9d0d8d081cdd5892590b60a21b60328201526e1d5a5b9d0c8d4d88185b5bdd5b9d0b608a1b603e8201526d1d5a5b9d0c8d4d881b9bdb98d94b60921b604d8201526f75696e7432353620646561646c696e6560801b605b820152602960f81b606b820152606c0190565b60408051601f198184030181528282528051602091820120908301526001600160a01b03808e16918301919091528b16606082015260078a810b608083015289900b60a082015260c0810188905260e081018390526101008101879052610120016040516020818303038152906040528051906020012090506000610b8f826113bd565b90506000610b9f82888888611401565b90508c6001600160a01b0316816001600160a01b031614610bd357604051638baa579f60e01b815260040160405180910390fd5b610be08d8d8d8d8d610f26565b50505050505050505050505050565b6000816001600160a01b0316836001600160a01b03161480610c165750610c1683836109e5565b9392505050565b82518451148015610c2f575081518451145b610c945760405162461bcd60e51b815260206004820152603060248201527f444c543a206d61696e4964732c2073756249647320616e6420616d6f756e747360448201526f040d8cadccee8d040dad2e6dac2e8c6d60831b6064820152608401610594565b6001600160a01b038516610cba5760405162461bcd60e51b8152600401610594906124e9565b3360005b8551811015610e99576000868281518110610cdb57610cdb6124aa565b602002602001015190506000868381518110610cf957610cf96124aa565b602002602001015190506000868481518110610d1757610d176124aa565b602002602001015190506000600160008560070b60070b815260200190815260200160002060008d6001600160a01b03166001600160a01b0316815260200190815260200160002060008460070b60070b8152602001908152602001600020549050610d998c8c86868660405180602001604052806000815250505050505050565b81811015610db95760405162461bcd60e51b81526004016105949061252a565b818103600160008660070b60070b815260200190815260200160002060008e6001600160a01b03166001600160a01b0316815260200190815260200160002060008560070b60070b81526020019081526020016000208190555081600160008660070b60070b815260200190815260200160002060008d6001600160a01b03166001600160a01b0316815260200190815260200160002060008560070b60070b81526020019081526020016000206000828254610e7691906124d6565b909155505060408051602081019091526000905250505050806001019050610cbe565b50856001600160a01b0316876001600160a01b0316826001600160a01b03167f3d3612aedbab64ec845a17d1508b936b04c073ee96a02b84c355a7eb025a18d2888888604051610eeb93929190612570565b60405180910390a4610f018787878787876114c5565b610f1d5760405162461bcd60e51b8152600401610594906125a9565b50505050505050565b6001600160a01b038516610f875760405162461bcd60e51b815260206004820152602260248201527f444c543a20617070726f76652066726f6d20746865207a65726f206164647265604482015261737360f01b6064820152608401610594565b6001600160a01b038416610fdd5760405162461bcd60e51b815260206004820181905260248201527f444c543a20617070726f766520746f20746865207a65726f20616464726573736044820152606401610594565b6001600160a01b038581166000818152600260209081526040808320948916808452948252808320600789810b8086529184528285209089900b808652908452938290208790558151908152918201929092529081018490527f20228d921cee20e1bee39b210de025b31c291c9a9eb96925595c91db3db75c329060600160405180910390a35050505050565b336110758782610bef565b6110865761108687828787876115c7565b610f1d87878787878761163f565b6107908484848460405180602001604052806000815250611676565b6001600160a01b0385166111125760405162461bcd60e51b815260206004820152602360248201527f444c543a207472616e736665722066726f6d20746865207a65726f206164647260448201526265737360e81b6064820152608401610594565b6001600160a01b0384166111385760405162461bcd60e51b8152600401610594906124e9565b6040805160208082018352600091829052600786810b8352600182528383206001600160a01b038a16845282528383209086900b8352905220548111156111915760405162461bcd60e51b81526004016105949061252a565b600783810b60009081526001602090815260408083206001600160a01b03808b1685528184528285209588900b8086529584528285208054889003905589168452825280832093835292905290812080548392906111f09084906124d6565b909155505060408051600784810b82526020820184905285900b916001600160a01b03808816929089169160008051602061273d833981519152910160405180910390a4604080516020810190915260009052610752565b336112538682610bef565b6112645761126486828686866115c7565b61127186868686866110b0565b505050505050565b816001600160a01b0316836001600160a01b0316036112d35760405162461bcd60e51b815260206004820152601660248201527522262a1d1030b8383937bb32903a379031b0b63632b960511b6044820152606401610594565b6001600160a01b0383811660008181526020818152604080832094871680845294825291829020805460ff191686151590811790915591519182527f17307eab39ab6107e8899845ad3d59bd9653f200f220920489ca2b5937696c31910160405180910390a3505050565b610790848484846116ad565b6001600160a01b039384166000908152600260209081526040808320959096168252938452848120600793840b825284528481209190920b8252909152205490565b6001600160a01b0381166000908152600b602052604081208054918291906113b3836125f5565b9190505550919050565b60405161190160f01b81527f00000000000000000000000000000000000000000000000000000000000000006002820152602281018290526042902060009061073f565b60006fa2a8918ca85bafe22016d0b997e4df60600160ff1b0382111561143d57604051635682f3bf60e01b815260048101839052602401610594565b6040805160008082526020820180845288905260ff871692820192909252606081018590526080810184905260019060a0016020604051602081039080840390855afa158015611491573d6000803e3d6000fd5b5050604051601f1901519150506001600160a01b0381166109dc57604051632057875960e21b815260040160405180910390fd5b60006001600160a01b0386163b156115bf576040516383fbceb960e01b81526001600160a01b038716906383fbceb99061150d9033908b908a908a908a908a9060040161260e565b6020604051808303816000875af1925050508015611548575060408051601f3d908101601f1916820190925261154591810190612681565b60015b6115a5573d808015611576576040519150601f19603f3d011682016040523d82523d6000602084013e61157b565b606091505b50805160000361159d5760405162461bcd60e51b8152600401610594906125a9565b805181602001fd5b6001600160e01b0319166383fbceb960e01b14905061082f565b50600161082f565b60006115d58686868661134a565b9050600019811461127157818110156116305760405162461bcd60e51b815260206004820152601b60248201527f444c543a20696e73756666696369656e7420616c6c6f77616e636500000000006044820152606401610594565b61127186868686868603610f26565b61164c86868686866110b0565b61165a86868686868661187b565b6112715760405162461bcd60e51b8152600401610594906125a9565b61168285858585611946565b6116916000868686868661187b565b6107525760405162461bcd60e51b8152600401610594906125a9565b6116b984848484611952565b600783810b60009081526020828152604080832080548690039055600882528083209386900b8352929052908120805483900390819055900361184757600783900b60009081526006602052604081208054909190611717906126ab565b90915550600783810b6000908152600960209081526040808320600a83528184209487900b84529390915281205482549091908390611758906001906126c2565b81548110611768576117686124aa565b90600052602060002090600491828204019190066008029054906101000a900460070b9050808383815481106117a0576117a06124aa565b600091825260208083206004830401805460039093166008026101000a6001600160401b03818102199094169590931692909202939093179055600788810b8252600a8352604080832085830b845290935282822085905587900b8152908120558254839080611812576118126126d5565b60008281526020902060046000199092019182040180546001600160401b03600860038516026101000a021916905590555050505b600783810b60009081526020919091526040812054900361079057600560008154611871906126ab565b9091555050505050565b60006001600160a01b0386163b156115bf57604051630f18968560e01b81526001600160a01b03871690630f189685906118c39033908b908a908a908a908a906004016126eb565b6020604051808303816000875af19250505080156118fe575060408051601f3d908101601f191682019092526118fb91810190612681565b60015b61192c573d808015611576576040519150601f19603f3d011682016040523d82523d6000602084013e61157b565b6001600160e01b031916630f18968560e01b14905061082f565b61079084848484611aee565b6001600160a01b0384166119a85760405162461bcd60e51b815260206004820152601f60248201527f444c543a206275726e2066726f6d20746865207a65726f2061646472657373006044820152606401610594565b806000036119f05760405162461bcd60e51b81526020600482015260156024820152741113150e88189d5c9b881e995c9bc8185b5bdd5b9d605a1b6044820152606401610594565b600783810b60009081526001602090815260408083206001600160a01b038916845282528083209386900b8352929052205481811015611a6e5760405162461bcd60e51b8152602060048201526019602482015278444c543a20696e73756666696369656e742062616c616e636560381b6044820152606401610594565b6040805160208082018352600091829052600787810b808452600183528484206001600160a01b038b168086529084528585209289900b8086529284528585208054899003905585519283529282018790528451909460008051602061273d833981519152928290030190a4604080516020810190915260009052610752565b600783810b600090815260209190915260408120549003611b1d57600560008154611b18906125f5565b909155505b600783810b60009081526008602090815260408083209386900b8352929052908120549003611bd057600783900b60009081526006602052604081208054909190611b67906125f5565b90915550600783810b60009081526009602090815260408083208054600a84528285209588900b8552948352908320849055600184018155825290206004820401805460039092166008026101000a6001600160401b0381810219909316928516029190911790555b600783810b6000908152602091909152604081208054839290611bf49084906124d6565b9091555050600783810b60009081526008602090815260408083209386900b83529290529081208054839290611c2b9084906124d6565b909155506107909050848484846001600160a01b038416611c8e5760405162461bcd60e51b815260206004820152601d60248201527f444c543a206d696e7420746f20746865207a65726f20616464726573730000006044820152606401610594565b80600003611cd65760405162461bcd60e51b81526020600482015260156024820152741113150e881b5a5b9d081e995c9bc8185b5bdd5b9d605a1b6044820152606401610594565b6040805160208082018352600091829052600786810b8352600182528383206001600160a01b038916845282528383209086900b835290529081208054839290611d219084906124d6565b909155505060408051600784810b82526020820184905285900b916001600160a01b0387169160009160008051602061273d833981519152910160405180910390a4604080516020810190915260009052610790565b80356001600160a01b0381168114611d8e57600080fd5b919050565b8035600781900b8114611d8e57600080fd5b600080600060608486031215611dba57600080fd5b611dc384611d77565b9250611dd160208501611d93565b9150611ddf60408501611d93565b90509250925092565b600060208284031215611dfa57600080fd5b610c1682611d93565b60008151808452602080850194506020840160005b83811015611e3757815160070b87529582019590820190600101611e18565b509495945050505050565b602081526000610c166020830184611e03565b6000815180845260005b81811015611e7b57602081850181015186830182015201611e5f565b506000602082860101526020601f19601f83011685010191505092915050565b602081526000610c166020830184611e55565b60008083601f840112611ec057600080fd5b5081356001600160401b03811115611ed757600080fd5b6020830191508360208260051b8501011115611ef257600080fd5b9250929050565b60008083601f840112611f0b57600080fd5b5081356001600160401b03811115611f2257600080fd5b602083019150836020828501011115611ef257600080fd5b60008060008060008060008060008060c08b8d031215611f5957600080fd5b611f628b611d77565b9950611f7060208c01611d77565b985060408b01356001600160401b0380821115611f8c57600080fd5b611f988e838f01611eae565b909a50985060608d0135915080821115611fb157600080fd5b611fbd8e838f01611eae565b909850965060808d0135915080821115611fd657600080fd5b611fe28e838f01611eae565b909650945060a08d0135915080821115611ffb57600080fd5b506120088d828e01611ef9565b915080935050809150509295989b9194979a5092959850565b6000806040838503121561203457600080fd5b61203d83611d77565b915061204b60208401611d93565b90509250929050565b600080600080600060a0868803121561206c57600080fd5b61207586611d77565b945061208360208701611d77565b935061209160408701611d93565b925061209f60608701611d93565b949793965091946080013592915050565b600080600080608085870312156120c657600080fd5b6120cf85611d77565b93506120dd60208601611d93565b92506120eb60408601611d93565b9396929550929360600135925050565b60006020828403121561210d57600080fd5b610c1682611d77565b634e487b7160e01b600052604160045260246000fd5b60008060008060008060c0878903121561214557600080fd5b61214e87611d77565b955061215c60208801611d77565b945061216a60408801611d93565b935061217860608801611d93565b92506080870135915060a08701356001600160401b038082111561219b57600080fd5b818901915089601f8301126121af57600080fd5b8135818111156121c1576121c1612116565b604051601f8201601f19908116603f011681019083821181831017156121e9576121e9612116565b816040528281528c602084870101111561220257600080fd5b8260208601602083013760006020848301015280955050505050509295509295509295565b6000806000806000806060878903121561224057600080fd5b86356001600160401b038082111561225757600080fd5b6122638a838b01611eae565b9098509650602089013591508082111561227c57600080fd5b6122888a838b01611eae565b909650945060408901359150808211156122a157600080fd5b506122ae89828a01611eae565b979a9699509497509295939492505050565b60008151808452602080850194506020840160005b83811015611e37578151875295820195908201906001016122d5565b602081526000610c1660208301846122c0565b6000806040838503121561231757600080fd5b61232083611d77565b91506020830135801515811461233557600080fd5b809150509250929050565b6000806040838503121561235357600080fd5b61203d83611d93565b6000806000806080858703121561237257600080fd5b61237b85611d77565b935061238960208601611d77565b925061239760408601611d93565b91506123a560608601611d93565b905092959194509250565b600080604083850312156123c357600080fd5b6123cc83611d77565b915061204b60208401611d77565b60008060008060008060008060006101208a8c0312156123f957600080fd5b6124028a611d77565b985061241060208b01611d77565b975061241e60408b01611d93565b965061242c60608b01611d93565b955060808a0135945060a08a0135935060c08a013560ff8116811461245057600080fd5b8093505060e08a013591506101008a013590509295985092959850929598565b600181811c9082168061248457607f821691505b6020821081036124a457634e487b7160e01b600052602260045260246000fd5b50919050565b634e487b7160e01b600052603260045260246000fd5b634e487b7160e01b600052601160045260246000fd5b8082018082111561073f5761073f6124c0565b60208082526021908201527f444c543a207472616e7366657220746f20746865207a65726f206164647265736040820152607360f81b606082015260800190565b60208082526026908201527f444c543a20696e73756666696369656e742062616c616e636520666f7220747260408201526530b739b332b960d11b606082015260800190565b6060815260006125836060830186611e03565b82810360208401526125958186611e03565b9050828103604084015261082f81856122c0565b6020808252602c908201527f444c543a207472616e7366657220746f206e6f6e20444c54526563656976657260408201526b1034b6b83632b6b2b73a32b960a11b606082015260800190565b600060018201612607576126076124c0565b5060010190565b6001600160a01b0387811682528616602082015260c06040820181905260009061263a90830187611e03565b828103606084015261264c8187611e03565b9050828103608084015261266081866122c0565b905082810360a08401526126748185611e55565b9998505050505050505050565b60006020828403121561269357600080fd5b81516001600160e01b031981168114610c1657600080fd5b6000816126ba576126ba6124c0565b506000190190565b8181038181111561073f5761073f6124c0565b634e487b7160e01b600052603160045260246000fd5b6001600160a01b03878116825286166020820152600785810b604083015284900b60608201526080810183905260c060a0820181905260009061273090830184611e55565b9897505050505050505056fed3f5ba918fcf5f0ed2a6add09f440b150c54a8eba5a07bbba0695eea7bbf1efaa2646970667358221220b95e93da7327ffa23d25d7fa715be27e6ca44ecae07bfd0957f41aff59569ae564736f6c63430008180033",
  "linkReferences": {},
  "deployedLinkReferences": {}
}