{
  "_format": "hh-sol-artifact-1",
  "contractName": "TestDLTERC20RoundRobin",
  "sourceName": "contracts/erc6960/TestDLTERC20RoundRobin.sol",
  "abi": [
    {
      "inputs": [
        {
          "internalType": "string",
          "name": "name",
          "type": "string"
        },
        {
          "internalType": "string",
          "name": "symbol",
          "type": "string"
        }
      ],
      "stateMutability": "nonpayable",
      "type": "constructor"
    },
    {
      "anonymous": false,
      "inputs": [
        {
          "indexed": true,
          "internalType": "address",
          "name": "owner",
          "type": "address"
        },
        {
          "indexed": true,
          "internalType": "address",
          "name": "spender",
          "type": "address"
        },
        {
          "indexed": false,
          "internalType": "uint256",
          "name": "value",
          "type": "uint256"
        }
      ],
      "name": "Approval",
      "type": "event"
    },
    {
      "anonymous": false,
      "inputs": [
        {
          "indexed": true,
          "internalType": "address",
          "name": "owner",
          "type": "address"
        },
        {
          "indexed": true,
          "internalType": "address",
          "name": "spender",
          "type": "address"
        },
        {
          "indexed": false,
          "internalType": "int64",
          "name": "mainId",
          "type": "int64"
        },
        {
          "indexed": false,
          "internalType": "int64",
          "name": "subId",
          "type": "int64"
        },
        {
          "indexed": false,
          "internalType": "uint256",
          "name": "amount",
          "type": "uint256"
        }
      ],
      "name": "Approval",
      "type": "event"
    },
    {
      "anonymous": false,
      "inputs": [
        {
          "indexed": true,
          "internalType": "address",
          "name": "spender",
          "type": "address"
        },
        {
          "indexed": true,
          "internalType": "address",
          "name": "operator",
          "type": "address"
        },
        {
          "indexed": false,
          "internalType": "bool",
          "name": "approved",
          "type": "bool"
        }
      ],
      "name": "ApprovalForAll",
      "type": "event"
    },
    {
      "anonymous": false,
      "inputs": [
        {
          "indexed": true,
          "internalType": "address",
          "name": "from",
          "type": "address"
        },
        {
          "indexed": true,
          "internalType": "address",
          "name": "to",
          "type": "address"
        },
        {
          "indexed": false,
          "internalType": "uint256",
          "name": "value",
          "type": "uint256"
        }
      ],
      "name": "Transfer",
      "type": "event"
    },
    {
      "anonymous": false,
      "inputs": [
        {
          "indexed": true,
          "internalType": "address",
          "name": "sender",
          "type": "address"
        },
        {
          "indexed": true,
          "internalType": "address",
          "name": "recipient",
          "type": "address"
        },
        {
          "indexed": true,
          "internalType": "int64",
          "name": "mainId",
          "type": "int64"
        },
        {
          "indexed": false,
          "internalType": "int64",
          "name": "subId",
          "type": "int64"
        },
        {
          "indexed": false,
          "internalType": "uint256",
          "name": "amount",
          "type": "uint256"
        }
      ],
      "name": "Transfer",
      "type": "event"
    },
    {
      "anonymous": false,
      "inputs": [
        {
          "indexed": true,
          "internalType": "address",
          "name": "spender",
          "type": "address"
        },
        {
          "indexed": true,
          "internalType": "address",
          "name": "sender",
          "type": "address"
        },
        {
          "indexed": true,
          "internalType": "address",
          "name": "recipient",
          "type": "address"
        },
        {
          "indexed": false,
          "internalType": "int64[]",
          "name": "mainIds",
          "type": "int64[]"
        },
        {
          "indexed": false,
          "internalType": "int64[]",
          "name": "subIds",
          "type": "int64[]"
        },
        {
          "indexed": false,
          "internalType": "uint256[]",
          "name": "amounts",
          "type": "uint256[]"
        }
      ],
      "name": "TransferBatch",
      "type": "event"
    },
    {
      "anonymous": false,
      "inputs": [
        {
          "indexed": false,
          "internalType": "string",
          "name": "oldValue",
          "type": "string"
        },
        {
          "indexed": false,
          "internalType": "string",
          "name": "newValue",
          "type": "string"
        },
        {
          "indexed": true,
          "internalType": "int64",
          "name": "mainId",
          "type": "int64"
        }
      ],
      "name": "URI",
      "type": "event"
    },
    {
      "inputs": [
        {
          "internalType": "address",
          "name": "sender",
          "type": "address"
        },
        {
          "internalType": "address",
          "name": "recipient",
          "type": "address"
        },
        {
          "internalType": "int64",
          "name": "mainId",
          "type": "int64"
        },
        {
          "internalType": "int64",
          "name": "subId",
          "type": "int64"
        },
        {
          "internalType": "uint256",
          "name": "amount",
          "type": "uint256"
        }
      ],
      "name": "allow",
      "outputs": [],
      "stateMutability": "nonpayable",
      "type": "function"
    },
    {
      "inputs": [
        {
          "internalType": "address",
          "name": "owner",
          "type": "address"
        },
        {
          "internalType": "address",
          "name": "spender",
          "type": "address"
        }
      ],
      "name": "allowance",
      "outputs": [
        {
          "internalType": "uint256",
          "name": "",
          "type": "uint256"
        }
      ],
      "stateMutability": "view",
      "type": "function"
    },
    {
      "inputs": [
        {
          "internalType": "address",
          "name": "owner",
          "type": "address"
        },
        {
          "internalType": "address",
          "name": "spender",
          "type": "address"
        },
        {
          "internalType": "int64",
          "name": "mainId",
          "type": "int64"
        },
        {
          "internalType": "int64",
          "name": "subId",
          "type": "int64"
        }
      ],
      "name": "allowance",
      "outputs": [
        {
          "internalType": "uint256",
          "name": "",
          "type": "uint256"
        }
      ],
      "stateMutability": "view",
      "type": "function"
    },
    {
      "inputs": [
        {
          "internalType": "address",
          "name": "spender",
          "type": "address"
        },
        {
          "internalType": "uint256",
          "name": "value",
          "type": "uint256"
        }
      ],
      "name": "approve",
      "outputs": [
        {
          "internalType": "bool",
          "name": "",
          "type": "bool"
        }
      ],
      "stateMutability": "nonpayable",
      "type": "function"
    },
    {
      "inputs": [
        {
          "internalType": "address",
          "name": "spender",
          "type": "address"
        },
        {
          "internalType": "int64",
          "name": "mainId",
          "type": "int64"
        },
        {
          "internalType": "int64",
          "name": "subId",
          "type": "int64"
        },
        {
          "internalType": "uint256",
          "name": "amount",
          "type": "uint256"
        }
      ],
      "name": "approve",
      "outputs": [
        {
          "internalType": "bool",
          "name": "",
          "type": "bool"
        }
      ],
      "stateMutability": "nonpayable",
      "type": "function"
    },
    {
      "inputs": [
        {
          "internalType": "address",
          "name": "account",
          "type": "address"
        }
      ],
      "name": "balanceOf",
      "outputs": [
        {
          "internalType": "uint256",
          "name": "",
          "type": "uint256"
        }
      ],
      "stateMutability": "view",
      "type": "function"
    },
    {
      "inputs": [
        {
          "internalType": "address[]",
          "name": "accounts",
          "type": "address[]"
        },
        {
          "internalType": "int64[]",
          "name": "mainIds",
          "type": "int64[]"
        },
        {
          "internalType": "int64[]",
          "name": "subIds",
          "type": "int64[]"
        }
      ],
      "name": "balanceOfBatch",
      "outputs": [
        {
          "internalType": "uint256[]",
          "name": "",
          "type": "uint256[]"
        }
      ],
      "stateMutability": "view",
      "type": "function"
    },
    {
      "inputs": [
        {
          "internalType": "address",
          "name": "account",
          "type": "address"
        },
        {
          "internalType": "int64",
          "name": "mainId",
          "type": "int64"
        },
        {
          "internalType": "int64",
          "name": "subId",
          "type": "int64"
        },
        {
          "internalType": "uint256",
          "name": "amount",
          "type": "uint256"
        }
      ],
      "name": "burn",
      "outputs": [],
      "stateMutability": "nonpayable",
      "type": "function"
    },
    {
      "inputs": [
        {
          "internalType": "int64",
          "name": "mainId",
          "type": "int64"
        }
      ],
      "name": "getSubIds",
      "outputs": [
        {
          "internalType": "int64[]",
          "name": "",
          "type": "int64[]"
        }
      ],
      "stateMutability": "view",
      "type": "function"
    },
    {
      "inputs": [
        {
          "internalType": "address",
          "name": "owner",
          "type": "address"
        },
        {
          "internalType": "address",
          "name": "operator",
          "type": "address"
        }
      ],
      "name": "isApprovedForAll",
      "outputs": [
        {
          "internalType": "bool",
          "name": "",
          "type": "bool"
        }
      ],
      "stateMutability": "view",
      "type": "function"
    },
    {
      "inputs": [
        {
          "internalType": "address",
          "name": "account",
          "type": "address"
        },
        {
          "internalType": "int64",
          "name": "mainId",
          "type": "int64"
        },
        {
          "internalType": "int64",
          "name": "subId",
          "type": "int64"
        },
        {
          "internalType": "uint256",
          "name": "amount",
          "type": "uint256"
        }
      ],
      "name": "mint",
      "outputs": [],
      "stateMutability": "nonpayable",
      "type": "function"
    },
    {
      "inputs": [],
      "name": "name",
      "outputs": [
        {
          "internalType": "string",
          "name": "",
          "type": "string"
        }
      ],
      "stateMutability": "view",
      "type": "function"
    },
    {
      "inputs": [
        {
          "internalType": "address",
          "name": "sender",
          "type": "address"
        },
        {
          "internalType": "address",
          "name": "recipient",
          "type": "address"
        },
        {
          "internalType": "int64[]",
          "name": "mainIds",
          "type": "int64[]"
        },
        {
          "internalType": "int64[]",
          "name": "subIds",
          "type": "int64[]"
        },
        {
          "internalType": "uint256[]",
          "name": "amounts",
          "type": "uint256[]"
        },
        {
          "internalType": "bytes",
          "name": "data",
          "type": "bytes"
        }
      ],
      "name": "safeBatchTransferFrom",
      "outputs": [
        {
          "internalType": "bool",
          "name": "",
          "type": "bool"
        }
      ],
      "stateMutability": "nonpayable",
      "type": "function"
    },
    {
      "inputs": [
        {
          "internalType": "address",
          "name": "sender",
          "type": "address"
        },
        {
          "internalType": "address",
          "name": "recipient",
          "type": "address"
        },
        {
          "internalType": "int64",
          "name": "mainId",
          "type": "int64"
        },
        {
          "internalType": "int64",
          "name": "subId",
          "type": "int64"
        },
        {
          "internalType": "uint256",
          "name": "amount",
          "type": "uint256"
        }
      ],
      "name": "safeTransferFrom",
      "outputs": [
        {
          "internalType": "bool",
          "name": "",
          "type": "bool"
        }
      ],
      "stateMutability": "nonpayable",
      "type": "function"
    },
    {
      "inputs": [
        {
          "internalType": "address",
          "name": "sender",
          "type": "address"
        },
        {
          "internalType": "address",
          "name": "recipient",
          "type": "address"
        },
        {
          "internalType": "int64",
          "name": "mainId",
          "type": "int64"
        },
        {
          "internalType": "int64",
          "name": "subId",
          "type": "int64"
        },
        {
          "internalType": "uint256",
          "name": "amount",
          "type": "uint256"
        },
        {
          "internalType": "bytes",
          "name": "data",
          "type": "bytes"
        }
      ],
      "name": "safeTransferFrom",
      "outputs": [
        {
          "internalType": "bool",
          "name": "",
          "type": "bool"
        }
      ],
      "stateMutability": "nonpayable",
      "type": "function"
    },
    {
      "inputs": [
        {
          "internalType": "address",
          "name": "operator",
          "type": "address"
        },
        {
          "internalType": "bool",
          "name": "approved",
          "type": "bool"
        }
      ],
      "name": "setApprovalForAll",
      "outputs": [],
      "stateMutability": "nonpayable",
      "type": "function"
    },
    {
      "inputs": [
        {
          "internalType": "address",
          "name": "account",
          "type": "address"
        },
        {
          "internalType": "int64",
          "name": "mainId",
          "type": "int64"
        },
        {
          "internalType": "int64",
          "name": "subId",
          "type": "int64"
        }
      ],
      "name": "subBalanceOf",
      "outputs": [
        {
          "internalType": "uint256",
          "name": "",
          "type": "uint256"
        }
      ],
      "stateMutability": "view",
      "type": "function"
    },
    {
      "inputs": [
        {
          "internalType": "address",
          "name": "owner",
          "type": "address"
        },
        {
          "internalType": "int64",
          "name": "mainId",
          "type": "int64"
        }
      ],
      "name": "subIdBalanceOf",
      "outputs": [
        {
          "internalType": "uint256",
          "name": "totalBalance",
          "type": "uint256"
        }
      ],
      "stateMutability": "view",
      "type": "function"
    },
    {
      "inputs": [],
      "name": "symbol",
      "outputs": [
        {
          "internalType": "string",
          "name": "",
          "type": "string"
        }
      ],
      "stateMutability": "view",
      "type": "function"
    },
    {
      "inputs": [],
      "name": "totalMainIds",
      "outputs": [
        {
          "internalType": "uint256",
          "name": "",
          "type": "uint256"
        }
      ],
      "stateMutability": "view",
      "type": "function"
    },
    {
      "inputs": [
        {
          "internalType": "int64",
          "name": "mainId",
          "type": "int64"
        }
      ],
      "name": "totalMainSupply",
      "outputs": [
        {
          "internalType": "uint256",
          "name": "",
          "type": "uint256"
        }
      ],
      "stateMutability": "view",
      "type": "function"
    },
    {
      "inputs": [
        {
          "internalType": "int64",
          "name": "mainId",
          "type": "int64"
        }
      ],
      "name": "totalSubIds",
      "outputs": [
        {
          "internalType": "uint256",
          "name": "",
          "type": "uint256"
        }
      ],
      "stateMutability": "view",
      "type": "function"
    },
    {
      "inputs": [
        {
          "internalType": "int64",
          "name": "mainId",
          "type": "int64"
        },
        {
          "internalType": "int64",
          "name": "subId",
          "type": "int64"
        }
      ],
      "name": "totalSubSupply",
      "outputs": [
        {
          "internalType": "uint256",
          "name": "",
          "type": "uint256"
        }
      ],
      "stateMutability": "view",
      "type": "function"
    },
    {
      "inputs": [],
      "name": "totalSupply",
      "outputs": [
        {
          "internalType": "uint256",
          "name": "",
          "type": "uint256"
        }
      ],
      "stateMutability": "view",
      "type": "function"
    },
    {
      "inputs": [
        {
          "internalType": "address",
          "name": "sender",
          "type": "address"
        },
        {
          "internalType": "address",
          "name": "recipient",
          "type": "address"
        },
        {
          "internalType": "int64",
          "name": "mainId",
          "type": "int64"
        },
        {
          "internalType": "int64",
          "name": "subId",
          "type": "int64"
        },
        {
          "internalType": "uint256",
          "name": "amount",
          "type": "uint256"
        }
      ],
      "name": "transfer",
      "outputs": [],
      "stateMutability": "nonpayable",
      "type": "function"
    },
    {
      "inputs": [
        {
          "internalType": "address",
          "name": "to",
          "type": "address"
        },
        {
          "internalType": "uint256",
          "name": "value",
          "type": "uint256"
        }
      ],
      "name": "transfer",
      "outputs": [
        {
          "internalType": "bool",
          "name": "",
          "type": "bool"
        }
      ],
      "stateMutability": "nonpayable",
      "type": "function"
    },
    {
      "inputs": [
        {
          "internalType": "address",
          "name": "from",
          "type": "address"
        },
        {
          "internalType": "address",
          "name": "to",
          "type": "address"
        },
        {
          "internalType": "uint256",
          "name": "value",
          "type": "uint256"
        }
      ],
      "name": "transferFrom",
      "outputs": [
        {
          "internalType": "bool",
          "name": "",
          "type": "bool"
        }
      ],
      "stateMutability": "nonpayable",
      "type": "function"
    },
    {
      "inputs": [
        {
          "internalType": "address",
          "name": "sender",
          "type": "address"
        },
        {
          "internalType": "address",
          "name": "recipient",
          "type": "address"
        },
        {
          "internalType": "int64",
          "name": "mainId",
          "type": "int64"
        },
        {
          "internalType": "int64",
          "name": "subId",
          "type": "int64"
        },
        {
          "internalType": "uint256",
          "name": "amount",
          "type": "uint256"
        }
      ],
      "name": "transferFrom",
      "outputs": [
        {
          "internalType": "bool",
          "name": "",
          "type": "bool"
        }
      ],
      "stateMutability": "nonpayable",
      "type": "function"
    }
  ],
  "bytecode": "0x60806040523480156200001157600080fd5b50604051620034f3380380620034f3833981016040819052620000349162000126565b8181600362000044838262000221565b50600462000053828262000221565b5050505050620002ed565b634e487b7160e01b600052604160045260246000fd5b600082601f8301126200008657600080fd5b81516001600160401b0380821115620000a357620000a36200005e565b604051601f8301601f19908116603f01168101908282118183101715620000ce57620000ce6200005e565b8160405283815260209250866020858801011115620000ec57600080fd5b600091505b83821015620001105785820183015181830184015290820190620000f1565b6000602085830101528094505050505092915050565b600080604083850312156200013a57600080fd5b82516001600160401b03808211156200015257600080fd5b620001608683870162000074565b935060208501519150808211156200017757600080fd5b50620001868582860162000074565b9150509250929050565b600181811c90821680620001a557607f821691505b602082108103620001c657634e487b7160e01b600052602260045260246000fd5b50919050565b601f8211156200021c576000816000526020600020601f850160051c81016020861015620001f75750805b601f850160051c820191505b81811015620002185782815560010162000203565b5050505b505050565b81516001600160401b038111156200023d576200023d6200005e565b62000255816200024e845462000190565b84620001cc565b602080601f8311600181146200028d5760008415620002745750858301515b600019600386901b1c1916600185901b17855562000218565b600085815260208120601f198616915b82811015620002be578886015182559484019460019091019084016200029d565b5085821015620002dd5787850151600019600388901b60f8161c191681555b5050505050600190811b01905550565b6131f680620002fd6000396000f3fe608060405234801561001057600080fd5b50600436106101c45760003560e01c806365fd95ba116100f9578063a22cb46511610097578063dd62ed3e11610071578063dd62ed3e146103f4578063de60bc741461042d578063e43bdfe114610440578063e985e9c51461045357600080fd5b8063a22cb4651461039b578063a9059cbb146103ae578063c8e254c4146103c157600080fd5b806383eddad0116100d357806383eddad01461034d5780639040fb131461036057806395d89b4114610373578063965e2e121461037b57600080fd5b806365fd95ba1461031f57806370a08231146103275780637541f8de1461033a57600080fd5b806320fd1d7c116101665780633523dc6c116101405780633523dc6c146102c35780635e7e09f3146102d65780635f3d6774146102e957806363b12e08146102fc57600080fd5b806320fd1d7c1461027557806323b872dd1461029b5780632eda03ab146102ae57600080fd5b8063095ea7b3116101a2578063095ea7b31461022457806312849f011461024757806318160ddd1461025a5780631e0e2d461461026257600080fd5b806305ecb790146101c9578063069ed132146101ef57806306fdde031461020f575b600080fd5b6101dc6101d7366004612859565b61048d565b6040519081526020015b60405180910390f35b6102026101fd36600461289c565b6104c4565b6040516101e691906128f6565b61021761054e565b6040516101e6919061294f565b610237610232366004612962565b6105dc565b60405190151581526020016101e6565b610237610255366004612a18565b61060b565b600b546101dc565b6101dc610270366004612aff565b61077b565b6101dc61028336600461289c565b600790810b6000908152602091909152604090205490565b6102376102a9366004612b32565b61082b565b6102c16102bc366004612b6e565b6108f3565b005b6102376102d1366004612b6e565b610907565b6102c16102e4366004612bca565b610932565b6102376102f7366004612bca565b610944565b6101dc61030a36600461289c565b60070b60009081526006602052604090205490565b6005546101dc565b6101dc610335366004612c15565b6109ad565b6102c1610348366004612b6e565b610ad6565b61023761035b366004612b6e565b610ae3565b61023761036e366004612c46565b610af2565b610217610b10565b61038e610389366004612d41565b610b1d565b6040516101e69190612e0b565b6102c16103a9366004612e1e565b610c8a565b6102376103bc366004612962565b610c99565b6101dc6103cf366004612e5a565b600791820b60009081526008602090815260408083209390940b825291909152205490565b6101dc610402366004612e76565b6001600160a01b03918216600090815260106020908152604080832093909416825291909152205490565b6102c161043b366004612bca565b610caf565b6101dc61044e366004612ea0565b610cbb565b610237610461366004612e76565b6001600160a01b0391821660009081526020818152604080832093909416825291909152205460ff1690565b600791820b60009081526001602090815260408083206001600160a01b039690961683529481528482209290930b81529152205490565b600781900b60009081526009602090815260409182902080548351818402810184019094528084526060939283018282801561054257602002820191906000526020600020906000905b825461010083900a900460070b81526020600f830181900493840193600103600890930192909202910180841161050e5790505b50505050509050919050565b6003805461055b90612ef4565b80601f016020809104026020016040519081016040528092919081815260200182805461058790612ef4565b80156105d45780601f106105a9576101008083540402835291602001916105d4565b820191906000526020600020905b8154815290600101906020018083116105b757829003601f168201915b505050505081565b3360009081526010602090815260408083206001600160a01b0386168452909152902081905560015b92915050565b6000336106188c82610cd2565b6106845760405162461bcd60e51b815260206004820152603260248201527f444c543a2063616c6c6572206973206e6f7420746f6b656e206f776e6572206f6044820152711c88185c1c1c9bdd995908199bdc88185b1b60721b60648201526084015b60405180910390fd5b6107698c8c8c8c80806020026020016040519081016040528093929190818152602001838360200280828437600081840152601f19601f820116905080830192505050505050508b8b8080602002602001604051908101604052809392919081815260200183836020028082843760009201919091525050604080516020808f0282810182019093528e82529093508e92508d91829185019084908082843760009201919091525050604080516020601f8e018190048102820181019092528c815292508c91508b9081908401838280828437600092019190915250610d1e92505050565b5060019b9a5050505050505050505050565b6000805b600783900b60009081526009602052604090205481101561082457600783900b60009081526009602052604081208054839081106107bf576107bf612f2e565b60009182526020808320600483040154600788810b85526001835260408086206001600160a01b038c168752845280862060039095166008026101000a909204900b80855292909152909120549091506108199084612f5a565b92505060010161077f565b5092915050565b6001600160a01b0380841660009081526010602090815260408083209386168352929052908120548211156108a25760405162461bcd60e51b815260206004820152601b60248201527f45524332303a206e6f7420656e6f75676820616c6c6f77616e63650000000000604482015260640161067b565b6108ad848484611037565b6001600160a01b038085166000908152601060209081526040808320938716835292905290812080548492906108e4908490612f6d565b90915550600195945050505050565b6109008585858585611365565b5050505050565b60006109268686868686604051806020016040528060008152506114a9565b50600195945050505050565b61093e848484846114d3565b50505050565b6000336001600160a01b0386168190036109a05760405162461bcd60e51b815260206004820152601e60248201527f444c543a20617070726f76616c20746f2063757272656e74206f776e65720000604482015260640161067b565b6109268187878787611365565b600080805b6001600160a01b0384166000908152600c6020526040902054811015610824576001600160a01b0384166000908152600c602052604081208054839081106109fc576109fc612f2e565b60009182526020822060048204015460039091166008026101000a900460070b91505b6001600160a01b0386166000908152600d60209081526040808320600786900b8452909152902054811015610acc576001600160a01b0386166000908152600d60209081526040808320600786900b84529091528120805483908110610a8757610a87612f2e565b90600052602060002090600491828204019190066008029054906101000a900460070b9050610ab787848361048d565b610ac19086612f5a565b945050600101610a1f565b50506001016109b2565b61090085858585856114ef565b600061092686868686866116a2565b6000610b028787878787876114a9565b5060015b9695505050505050565b6004805461055b90612ef4565b60608584148015610b2d57508582145b610b905760405162461bcd60e51b815260206004820152602e60248201527f444c543a206163636f756e74732c206d61696e49647320616e6420696473206c60448201526d0cadccee8d040dad2e6dac2e8c6d60931b606482015260840161067b565b6000866001600160401b03811115610baa57610baa612c30565b604051908082528060200260200182016040528015610bd3578160200160208202803683370190505b50905060005b87811015610c7e57610c59898983818110610bf657610bf6612f2e565b9050602002016020810190610c0b9190612c15565b888884818110610c1d57610c1d612f2e565b9050602002016020810190610c32919061289c565b878785818110610c4457610c44612f2e565b90506020020160208101906101d7919061289c565b828281518110610c6b57610c6b612f2e565b6020908102919091010152600101610bd9565b50979650505050505050565b610c953383836116d3565b5050565b6000610ca6338484611037565b50600192915050565b61093e84848484611798565b6000610cc9858585856117ad565b95945050505050565b6000816001600160a01b0316836001600160a01b03161480610d1757506001600160a01b038084166000908152602081815260408083209386168352929052205460ff165b9392505050565b82518451148015610d30575081518451145b610d955760405162461bcd60e51b815260206004820152603060248201527f444c543a206d61696e4964732c2073756249647320616e6420616d6f756e747360448201526f040d8cadccee8d040dad2e6dac2e8c6d60831b606482015260840161067b565b6001600160a01b038516610dbb5760405162461bcd60e51b815260040161067b90612f80565b3360005b8551811015610faa576000868281518110610ddc57610ddc612f2e565b602002602001015190506000868381518110610dfa57610dfa612f2e565b602002602001015190506000868481518110610e1857610e18612f2e565b602002602001015190506000600160008560070b60070b815260200190815260200160002060008d6001600160a01b03166001600160a01b0316815260200190815260200160002060008460070b60070b8152602001908152602001600020549050610e9a8c8c86868660405180602001604052806000815250505050505050565b81811015610eba5760405162461bcd60e51b815260040161067b90612fc1565b818103600160008660070b60070b815260200190815260200160002060008e6001600160a01b03166001600160a01b0316815260200190815260200160002060008560070b60070b81526020019081526020016000208190555081600160008660070b60070b815260200190815260200160002060008d6001600160a01b03166001600160a01b0316815260200190815260200160002060008560070b60070b81526020019081526020016000206000828254610f779190612f5a565b92505081905550610f9b8c8c868686604051806020016040528060008152506117ef565b50505050806001019050610dbf565b50856001600160a01b0316876001600160a01b0316826001600160a01b03167f3d3612aedbab64ec845a17d1508b936b04c073ee96a02b84c355a7eb025a18d2888888604051610ffc93929190613007565b60405180910390a4611012878787878787611974565b61102e5760405162461bcd60e51b815260040161067b90613040565b50505050505050565b6001600160a01b03831661108d5760405162461bcd60e51b815260206004820152601b60248201527f45524332303a20696e76616c69642066726f6d20616464726573730000000000604482015260640161067b565b6001600160a01b0382166110e35760405162461bcd60e51b815260206004820152601960248201527f45524332303a20696e76616c696420746f206164647265737300000000000000604482015260640161067b565b6000811161112a5760405162461bcd60e51b815260206004820152601460248201527345524332303a20696e76616c69642076616c756560601b604482015260640161067b565b6111636040518060c001604052806060815260200160608152602001606081526020016000815260200160008152602001600081525090565b608081018290526001600160a01b0384166000908152600c60205260409020546001600160401b0381111561119a5761119a612c30565b6040519080825280602002602001820160405280156111c3578160200160208202803683370190505b5081526001600160a01b0384166000908152600c60205260409020546001600160401b038111156111f6576111f6612c30565b60405190808252806020026020018201604052801561121f578160200160208202803683370190505b506020808301919091526001600160a01b0385166000908152600c90915260409020546001600160401b0381111561125957611259612c30565b604051908082528060200260200182016040528015611282578160200160208202803683370190505b5060408201526112928482611a76565b818160600151146113165760405162461bcd60e51b815260206004820152604260248201527f45524332303a20496e73756666696369656e742062616c616e636520696e207360448201527f75622d61737365747320746f20636f6d706c65746520746865207472616e736660648201526132b960f11b608482015260a40161067b565b61093e848461132d84600001518560a00151611bcb565b61133f85602001518660a00151611bcb565b61135186604001518760a00151611c6d565b604080516000815260208101909152610d1e565b6001600160a01b0385166113c65760405162461bcd60e51b815260206004820152602260248201527f444c543a20617070726f76652066726f6d20746865207a65726f206164647265604482015261737360f01b606482015260840161067b565b6001600160a01b03841661141c5760405162461bcd60e51b815260206004820181905260248201527f444c543a20617070726f766520746f20746865207a65726f2061646472657373604482015260640161067b565b6001600160a01b038581166000818152600260209081526040808320948916808452948252808320600789810b8086529184528285209089900b808652908452938290208790558151908152918201929092529081018490527f20228d921cee20e1bee39b210de025b31c291c9a9eb96925595c91db3db75c329060600160405180910390a35050505050565b336114b48782610cd2565b6114c5576114c58782878787611cff565b61102e878787878787611d77565b61093e8484848460405180602001604052806000815250611dae565b6001600160a01b0385166115515760405162461bcd60e51b815260206004820152602360248201527f444c543a207472616e736665722066726f6d20746865207a65726f206164647260448201526265737360e81b606482015260840161067b565b6001600160a01b0384166115775760405162461bcd60e51b815260040161067b90612f80565b6040805160208082018352600091829052600786810b8352600182528383206001600160a01b038a16845282528383209086900b8352905220548111156115d05760405162461bcd60e51b815260040161067b90612fc1565b600783810b60009081526001602090815260408083206001600160a01b03808b1685528184528285209588900b80865295845282852080548890039055891684528252808320938352929052908120805483929061162f908490612f5a565b909155505060408051600784810b82526020820184905285900b916001600160a01b0380881692908916917fd3f5ba918fcf5f0ed2a6add09f440b150c54a8eba5a07bbba0695eea7bbf1efa910160405180910390a46109008585858585604051806020016040528060008152506117ef565b336116ad8682610cd2565b6116be576116be8682868686611cff565b6116cb86868686866114ef565b505050505050565b816001600160a01b0316836001600160a01b03160361172d5760405162461bcd60e51b815260206004820152601660248201527522262a1d1030b8383937bb32903a379031b0b63632b960511b604482015260640161067b565b6001600160a01b0383811660008181526020818152604080832094871680845294825291829020805460ff191686151590811790915591519182527f17307eab39ab6107e8899845ad3d59bd9653f200f220920489ca2b5937696c31910160405180910390a3505050565b600b8054829003905561093e84848484611de5565b6001600160a01b039384166000908152600260209081526040808320959096168252938452848120600793840b825284528481209190920b8252909152205490565b6001600160a01b038516156116cb576001600160a01b0385166000908152600e60209081526040808320600788900b845290915290205460ff166118a5576001600160a01b0385166000818152600c602090815260408083208054600180820183559185528385206004820401805460039092166008026101000a6001600160401b0381810219909316928c1602919091179055938352600e8252808320600789900b84529091529020805460ff191690911790555b6001600160a01b0385166000908152600f60209081526040808320600788810b85529083528184209087900b845290915290205460ff166116cb5750506001600160a01b03929092166000818152600d60209081526040808320600795860b8085529083528184208054600180820183559186528486206004820401805460039092166008026101000a6001600160401b0381810219909316928b1602919091179055948452600f835281842090845282528083209590940b8252939093529120805460ff1916909117905550565b60006001600160a01b0386163b15611a6e576040516383fbceb960e01b81526001600160a01b038716906383fbceb9906119bc9033908b908a908a908a908a9060040161308c565b6020604051808303816000875af19250505080156119f7575060408051601f3d908101601f191682019092526119f4918101906130ff565b60015b611a54573d808015611a25576040519150601f19603f3d011682016040523d82523d6000602084013e611a2a565b606091505b508051600003611a4c5760405162461bcd60e51b815260040161067b90613040565b805181602001fd5b6001600160e01b0319166383fbceb960e01b149050610b06565b506001610b06565b6001600160a01b0382166000908152600c6020908152604080832080548251818502810185019093528083529192909190830182828015611af957602002820191906000526020600020906000905b825461010083900a900460070b81526020600f8301819004938401936001036008909301929092029101808411611ac55790505b50505050509050805160116000856001600160a01b03166001600160a01b031681526020019081526020016000205403611b47576001600160a01b0383166000908152601160205260408120555b6001600160a01b0383166000908152601160205260409020545b815181101561093e57611b8e84838381518110611b8057611b80612f2e565b602002602001015185611fb3565b8260800151600003611bc357611ba5816001612f5a565b6001600160a01b03851660009081526011602052604090205561093e565b600101611b61565b60606000826001600160401b03811115611be757611be7612c30565b604051908082528060200260200182016040528015611c10578160200160208202803683370190505b50905060005b83811015611c6557848181518110611c3057611c30612f2e565b6020026020010151828281518110611c4a57611c4a612f2e565b60079290920b60209283029190910190910152600101611c16565b509392505050565b60606000826001600160401b03811115611c8957611c89612c30565b604051908082528060200260200182016040528015611cb2578160200160208202803683370190505b50905060005b83811015611c6557848181518110611cd257611cd2612f2e565b6020026020010151828281518110611cec57611cec612f2e565b6020908102919091010152600101611cb8565b6000611d0d868686866117ad565b905060001981146116cb5781811015611d685760405162461bcd60e51b815260206004820152601b60248201527f444c543a20696e73756666696369656e7420616c6c6f77616e63650000000000604482015260640161067b565b6116cb86868686868603611365565b611d8486868686866114ef565b611d928686868686866122db565b6116cb5760405162461bcd60e51b815260040161067b90613040565b611dba858585856123a6565b611dc9600086868686866122db565b6109005760405162461bcd60e51b815260040161067b90613040565b611df1848484846123ca565b600783810b60009081526020828152604080832080548690039055600882528083209386900b83529290529081208054839003908190559003611f7f57600783900b60009081526006602052604081208054909190611e4f90613129565b90915550600783810b6000908152600960209081526040808320600a83528184209487900b84529390915281205482549091908390611e9090600190612f6d565b81548110611ea057611ea0612f2e565b90600052602060002090600491828204019190066008029054906101000a900460070b905080838381548110611ed857611ed8612f2e565b600091825260208083206004830401805460039093166008026101000a6001600160401b03818102199094169590931692909202939093179055600788810b8252600a8352604080832085830b845290935282822085905587900b8152908120558254839080611f4a57611f4a613140565b60008281526020902060046000199092019182040180546001600160401b03600860038516026101000a021916905590555050505b600783810b60009081526020919091526040812054900361093e57600560008154611fa990613129565b9091555050505050565b6001600160a01b0383166000908152600d60209081526040808320600786900b845282528083208054825181850281018501909352808352919290919083018282801561204257602002820191906000526020600020906000905b825461010083900a900460070b81526020600f830181900493840193600103600890930192909202910180841161200e5790505b505083516001600160a01b038916600090815260126020908152604080832060078c900b845290915290205494955090930392506120a6915050576001600160a01b0384166000908152601260209081526040808320600787900b84529091528120555b6001600160a01b0384166000908152601260209081526040808320600787900b84529091529020545b81518110156109005760008282815181106120ec576120ec612f2e565b60200260200101519050600061210387878461048d565b905080156122d1578460800151811061220d578585600001518660a001518151811061213157612131612f2e565b602002602001019060070b908160070b815250508185602001518660a001518151811061216057612160612f2e565b602002602001019060070b908160070b81525050846080015185604001518660a001518151811061219357612193612f2e565b6020026020010181815250508460800151856060018181516121b59190612f5a565b90525060a085018051906121c882613156565b905250600060808601526121dd836001612f5a565b6001600160a01b038816600090815260126020908152604080832060078b900b8452909152902055506109009050565b8585600001518660a001518151811061222857612228612f2e565b602002602001019060070b908160070b815250508185602001518660a001518151811061225757612257612f2e565b602002602001019060070b908160070b815250508085604001518660a001518151811061228657612286612f2e565b60200260200101818152505080856060018181516122a49190612f5a565b90525060a085018051906122b782613156565b8152505080856080018181516122cd9190612f6d565b9052505b50506001016120cf565b60006001600160a01b0386163b15611a6e57604051630f18968560e01b81526001600160a01b03871690630f189685906123239033908b908a908a908a908a9060040161316f565b6020604051808303816000875af192505050801561235e575060408051601f3d908101601f1916820190925261235b918101906130ff565b60015b61238c573d808015611a25576040519150601f19603f3d011682016040523d82523d6000602084013e611a2a565b6001600160e01b031916630f18968560e01b149050610b06565b80600b60008282546123b89190612f5a565b9091555061093e905084848484612586565b6001600160a01b0384166124205760405162461bcd60e51b815260206004820152601f60248201527f444c543a206275726e2066726f6d20746865207a65726f206164647265737300604482015260640161067b565b806000036124685760405162461bcd60e51b81526020600482015260156024820152741113150e88189d5c9b881e995c9bc8185b5bdd5b9d605a1b604482015260640161067b565b600783810b60009081526001602090815260408083206001600160a01b038916845282528083209386900b83529290522054818110156124ea5760405162461bcd60e51b815260206004820152601960248201527f444c543a20696e73756666696369656e742062616c616e636500000000000000604482015260640161067b565b6040805160208082018352600091829052600787810b808452600183528484206001600160a01b038b168086529084528585209289900b808652928452858520805489900390558551928352928201879052845190947fd3f5ba918fcf5f0ed2a6add09f440b150c54a8eba5a07bbba0695eea7bbf1efa928290030190a4610900856000868686604051806020016040528060008152506117ef565b600783810b6000908152602091909152604081205490036125b5576005600081546125b090613156565b909155505b600783810b60009081526008602090815260408083209386900b835292905290812054900361266857600783900b600090815260066020526040812080549091906125ff90613156565b90915550600783810b60009081526009602090815260408083208054600a84528285209588900b8552948352908320849055600184018155825290206004820401805460039092166008026101000a6001600160401b0381810219909316928516029190911790555b600783810b600090815260209190915260408120805483929061268c908490612f5a565b9091555050600783810b60009081526008602090815260408083209386900b835292905290812080548392906126c3908490612f5a565b9091555061093e9050848484846001600160a01b0384166127265760405162461bcd60e51b815260206004820152601d60248201527f444c543a206d696e7420746f20746865207a65726f2061646472657373000000604482015260640161067b565b8060000361276e5760405162461bcd60e51b81526020600482015260156024820152741113150e881b5a5b9d081e995c9bc8185b5bdd5b9d605a1b604482015260640161067b565b6040805160208082018352600091829052600786810b8352600182528383206001600160a01b038916845282528383209086900b8352905290812080548392906127b9908490612f5a565b909155505060408051600784810b82526020820184905285900b916001600160a01b038716916000917fd3f5ba918fcf5f0ed2a6add09f440b150c54a8eba5a07bbba0695eea7bbf1efa910160405180910390a461093e600085858585604051806020016040528060008152506117ef565b80356001600160a01b038116811461284257600080fd5b919050565b8035600781900b811461284257600080fd5b60008060006060848603121561286e57600080fd5b6128778461282b565b925061288560208501612847565b915061289360408501612847565b90509250925092565b6000602082840312156128ae57600080fd5b610d1782612847565b60008151808452602080850194506020840160005b838110156128eb57815160070b875295820195908201906001016128cc565b509495945050505050565b602081526000610d1760208301846128b7565b6000815180845260005b8181101561292f57602081850181015186830182015201612913565b506000602082860101526020601f19601f83011685010191505092915050565b602081526000610d176020830184612909565b6000806040838503121561297557600080fd5b61297e8361282b565b946020939093013593505050565b60008083601f84011261299e57600080fd5b5081356001600160401b038111156129b557600080fd5b6020830191508360208260051b85010111156129d057600080fd5b9250929050565b60008083601f8401126129e957600080fd5b5081356001600160401b03811115612a0057600080fd5b6020830191508360208285010111156129d057600080fd5b60008060008060008060008060008060c08b8d031215612a3757600080fd5b612a408b61282b565b9950612a4e60208c0161282b565b985060408b01356001600160401b0380821115612a6a57600080fd5b612a768e838f0161298c565b909a50985060608d0135915080821115612a8f57600080fd5b612a9b8e838f0161298c565b909850965060808d0135915080821115612ab457600080fd5b612ac08e838f0161298c565b909650945060a08d0135915080821115612ad957600080fd5b50612ae68d828e016129d7565b915080935050809150509295989b9194979a5092959850565b60008060408385031215612b1257600080fd5b612b1b8361282b565b9150612b2960208401612847565b90509250929050565b600080600060608486031215612b4757600080fd5b612b508461282b565b9250612b5e6020850161282b565b9150604084013590509250925092565b600080600080600060a08688031215612b8657600080fd5b612b8f8661282b565b9450612b9d6020870161282b565b9350612bab60408701612847565b9250612bb960608701612847565b949793965091946080013592915050565b60008060008060808587031215612be057600080fd5b612be98561282b565b9350612bf760208601612847565b9250612c0560408601612847565b9396929550929360600135925050565b600060208284031215612c2757600080fd5b610d178261282b565b634e487b7160e01b600052604160045260246000fd5b60008060008060008060c08789031215612c5f57600080fd5b612c688761282b565b9550612c766020880161282b565b9450612c8460408801612847565b9350612c9260608801612847565b92506080870135915060a08701356001600160401b0380821115612cb557600080fd5b818901915089601f830112612cc957600080fd5b813581811115612cdb57612cdb612c30565b604051601f8201601f19908116603f01168101908382118183101715612d0357612d03612c30565b816040528281528c6020848701011115612d1c57600080fd5b8260208601602083013760006020848301015280955050505050509295509295509295565b60008060008060008060608789031215612d5a57600080fd5b86356001600160401b0380821115612d7157600080fd5b612d7d8a838b0161298c565b90985096506020890135915080821115612d9657600080fd5b612da28a838b0161298c565b90965094506040890135915080821115612dbb57600080fd5b50612dc889828a0161298c565b979a9699509497509295939492505050565b60008151808452602080850194506020840160005b838110156128eb57815187529582019590820190600101612def565b602081526000610d176020830184612dda565b60008060408385031215612e3157600080fd5b612e3a8361282b565b915060208301358015158114612e4f57600080fd5b809150509250929050565b60008060408385031215612e6d57600080fd5b612b1b83612847565b60008060408385031215612e8957600080fd5b612e928361282b565b9150612b296020840161282b565b60008060008060808587031215612eb657600080fd5b612ebf8561282b565b9350612ecd6020860161282b565b9250612edb60408601612847565b9150612ee960608601612847565b905092959194509250565b600181811c90821680612f0857607f821691505b602082108103612f2857634e487b7160e01b600052602260045260246000fd5b50919050565b634e487b7160e01b600052603260045260246000fd5b634e487b7160e01b600052601160045260246000fd5b8082018082111561060557610605612f44565b8181038181111561060557610605612f44565b60208082526021908201527f444c543a207472616e7366657220746f20746865207a65726f206164647265736040820152607360f81b606082015260800190565b60208082526026908201527f444c543a20696e73756666696369656e742062616c616e636520666f7220747260408201526530b739b332b960d11b606082015260800190565b60608152600061301a60608301866128b7565b828103602084015261302c81866128b7565b90508281036040840152610b068185612dda565b6020808252602c908201527f444c543a207472616e7366657220746f206e6f6e20444c54526563656976657260408201526b1034b6b83632b6b2b73a32b960a11b606082015260800190565b6001600160a01b0387811682528616602082015260c0604082018190526000906130b8908301876128b7565b82810360608401526130ca81876128b7565b905082810360808401526130de8186612dda565b905082810360a08401526130f28185612909565b9998505050505050505050565b60006020828403121561311157600080fd5b81516001600160e01b031981168114610d1757600080fd5b60008161313857613138612f44565b506000190190565b634e487b7160e01b600052603160045260246000fd5b60006001820161316857613168612f44565b5060010190565b6001600160a01b03878116825286166020820152600785810b604083015284900b60608201526080810183905260c060a082018190526000906131b490830184612909565b9897505050505050505056fea264697066735822122099ccfb6e23677f17e935e72f054b22a1ed91a3f21be51fe567cd68e8325c7f1264736f6c63430008180033",
  "linkReferences": {},
  "deployedLinkReferences": {}
}