{
  "_format": "hh-sol-artifact-1",
  "contractName": "TestDLTWithHTS",
  "sourceName": "contracts/erc6960/TestDLTWithHTS.sol",
  "abi": [
    {
      "inputs": [
        {
          "internalType": "string",
          "name": "name",
          "type": "string"
        },
        {
          "internalType": "string",
          "name": "symbol",
          "type": "string"
        },
        {
          "internalType": "string",
          "name": "version",
          "type": "string"
        }
      ],
      "stateMutability": "payable",
      "type": "constructor"
    },
    {
      "inputs": [],
      "name": "ExpiredSignature",
      "type": "error"
    },
    {
      "inputs": [],
      "name": "InvalidSignature",
      "type": "error"
    },
    {
      "inputs": [
        {
          "internalType": "bytes32",
          "name": "s",
          "type": "bytes32"
        }
      ],
      "name": "InvalidSignatureS",
      "type": "error"
    },
    {
      "inputs": [],
      "name": "InvalidSigner",
      "type": "error"
    },
    {
      "anonymous": false,
      "inputs": [
        {
          "indexed": true,
          "internalType": "address",
          "name": "owner",
          "type": "address"
        },
        {
          "indexed": true,
          "internalType": "address",
          "name": "spender",
          "type": "address"
        },
        {
          "indexed": false,
          "internalType": "int64",
          "name": "mainId",
          "type": "int64"
        },
        {
          "indexed": false,
          "internalType": "int64",
          "name": "subId",
          "type": "int64"
        },
        {
          "indexed": false,
          "internalType": "uint256",
          "name": "amount",
          "type": "uint256"
        }
      ],
      "name": "Approval",
      "type": "event"
    },
    {
      "anonymous": false,
      "inputs": [
        {
          "indexed": true,
          "internalType": "address",
          "name": "spender",
          "type": "address"
        },
        {
          "indexed": true,
          "internalType": "address",
          "name": "operator",
          "type": "address"
        },
        {
          "indexed": false,
          "internalType": "bool",
          "name": "approved",
          "type": "bool"
        }
      ],
      "name": "ApprovalForAll",
      "type": "event"
    },
    {
      "anonymous": false,
      "inputs": [
        {
          "indexed": false,
          "internalType": "address",
          "name": "tokenAddress",
          "type": "address"
        },
        {
          "indexed": false,
          "internalType": "address",
          "name": "userAddress",
          "type": "address"
        }
      ],
      "name": "AssociatedToken",
      "type": "event"
    },
    {
      "anonymous": false,
      "inputs": [
        {
          "indexed": false,
          "internalType": "address",
          "name": "tokenAddress",
          "type": "address"
        },
        {
          "indexed": false,
          "internalType": "int64",
          "name": "amount",
          "type": "int64"
        },
        {
          "indexed": false,
          "internalType": "int64",
          "name": "newTotalSupply",
          "type": "int64"
        }
      ],
      "name": "BurnedToken",
      "type": "event"
    },
    {
      "anonymous": false,
      "inputs": [
        {
          "indexed": false,
          "internalType": "bool",
          "name": "",
          "type": "bool"
        },
        {
          "indexed": false,
          "internalType": "bytes",
          "name": "",
          "type": "bytes"
        }
      ],
      "name": "CallResponseEvent",
      "type": "event"
    },
    {
      "anonymous": false,
      "inputs": [
        {
          "indexed": false,
          "internalType": "address",
          "name": "tokenAddress",
          "type": "address"
        }
      ],
      "name": "CreatedToken",
      "type": "event"
    },
    {
      "anonymous": false,
      "inputs": [
        {
          "indexed": false,
          "internalType": "address",
          "name": "tokenAddress",
          "type": "address"
        },
        {
          "indexed": false,
          "internalType": "int64",
          "name": "amount",
          "type": "int64"
        },
        {
          "indexed": false,
          "internalType": "int64",
          "name": "newTotalSupply",
          "type": "int64"
        }
      ],
      "name": "MintedToken",
      "type": "event"
    },
    {
      "anonymous": false,
      "inputs": [
        {
          "indexed": true,
          "internalType": "address",
          "name": "sender",
          "type": "address"
        },
        {
          "indexed": true,
          "internalType": "address",
          "name": "recipient",
          "type": "address"
        },
        {
          "indexed": true,
          "internalType": "int64",
          "name": "mainId",
          "type": "int64"
        },
        {
          "indexed": false,
          "internalType": "int64",
          "name": "subId",
          "type": "int64"
        },
        {
          "indexed": false,
          "internalType": "uint256",
          "name": "amount",
          "type": "uint256"
        }
      ],
      "name": "Transfer",
      "type": "event"
    },
    {
      "anonymous": false,
      "inputs": [
        {
          "indexed": true,
          "internalType": "address",
          "name": "spender",
          "type": "address"
        },
        {
          "indexed": true,
          "internalType": "address",
          "name": "sender",
          "type": "address"
        },
        {
          "indexed": true,
          "internalType": "address",
          "name": "recipient",
          "type": "address"
        },
        {
          "indexed": false,
          "internalType": "int64[]",
          "name": "mainIds",
          "type": "int64[]"
        },
        {
          "indexed": false,
          "internalType": "int64[]",
          "name": "subIds",
          "type": "int64[]"
        },
        {
          "indexed": false,
          "internalType": "uint256[]",
          "name": "amounts",
          "type": "uint256[]"
        }
      ],
      "name": "TransferBatch",
      "type": "event"
    },
    {
      "anonymous": false,
      "inputs": [
        {
          "indexed": false,
          "internalType": "string",
          "name": "oldValue",
          "type": "string"
        },
        {
          "indexed": false,
          "internalType": "string",
          "name": "newValue",
          "type": "string"
        },
        {
          "indexed": true,
          "internalType": "int64",
          "name": "mainId",
          "type": "int64"
        }
      ],
      "name": "URI",
      "type": "event"
    },
    {
      "inputs": [],
      "name": "DOMAIN_SEPARATOR",
      "outputs": [
        {
          "internalType": "bytes32",
          "name": "",
          "type": "bytes32"
        }
      ],
      "stateMutability": "view",
      "type": "function"
    },
    {
      "inputs": [
        {
          "internalType": "address",
          "name": "sender",
          "type": "address"
        },
        {
          "internalType": "address",
          "name": "recipient",
          "type": "address"
        },
        {
          "internalType": "int64",
          "name": "mainId",
          "type": "int64"
        },
        {
          "internalType": "int64",
          "name": "subId",
          "type": "int64"
        },
        {
          "internalType": "uint256",
          "name": "amount",
          "type": "uint256"
        }
      ],
      "name": "allow",
      "outputs": [],
      "stateMutability": "nonpayable",
      "type": "function"
    },
    {
      "inputs": [
        {
          "internalType": "address",
          "name": "owner",
          "type": "address"
        },
        {
          "internalType": "address",
          "name": "spender",
          "type": "address"
        },
        {
          "internalType": "int64",
          "name": "mainId",
          "type": "int64"
        },
        {
          "internalType": "int64",
          "name": "subId",
          "type": "int64"
        }
      ],
      "name": "allowance",
      "outputs": [
        {
          "internalType": "uint256",
          "name": "",
          "type": "uint256"
        }
      ],
      "stateMutability": "view",
      "type": "function"
    },
    {
      "inputs": [
        {
          "internalType": "address",
          "name": "spender",
          "type": "address"
        },
        {
          "internalType": "int64",
          "name": "mainId",
          "type": "int64"
        },
        {
          "internalType": "int64",
          "name": "subId",
          "type": "int64"
        },
        {
          "internalType": "uint256",
          "name": "amount",
          "type": "uint256"
        }
      ],
      "name": "approve",
      "outputs": [
        {
          "internalType": "bool",
          "name": "",
          "type": "bool"
        }
      ],
      "stateMutability": "nonpayable",
      "type": "function"
    },
    {
      "inputs": [],
      "name": "associate",
      "outputs": [
        {
          "internalType": "uint256",
          "name": "responseCode",
          "type": "uint256"
        }
      ],
      "stateMutability": "nonpayable",
      "type": "function"
    },
    {
      "inputs": [
        {
          "internalType": "address",
          "name": "account",
          "type": "address"
        }
      ],
      "name": "associateAccount",
      "outputs": [
        {
          "internalType": "int256",
          "name": "responseCode",
          "type": "int256"
        }
      ],
      "stateMutability": "nonpayable",
      "type": "function"
    },
    {
      "inputs": [
        {
          "internalType": "address[]",
          "name": "accounts",
          "type": "address[]"
        },
        {
          "internalType": "int64[]",
          "name": "mainIds",
          "type": "int64[]"
        },
        {
          "internalType": "int64[]",
          "name": "subIds",
          "type": "int64[]"
        }
      ],
      "name": "balanceOfBatch",
      "outputs": [
        {
          "internalType": "uint256[]",
          "name": "",
          "type": "uint256[]"
        }
      ],
      "stateMutability": "view",
      "type": "function"
    },
    {
      "inputs": [
        {
          "internalType": "address",
          "name": "account",
          "type": "address"
        },
        {
          "internalType": "int64",
          "name": "mainId",
          "type": "int64"
        },
        {
          "internalType": "int64",
          "name": "subId",
          "type": "int64"
        },
        {
          "internalType": "uint256",
          "name": "amount",
          "type": "uint256"
        }
      ],
      "name": "burn",
      "outputs": [],
      "stateMutability": "nonpayable",
      "type": "function"
    },
    {
      "inputs": [
        {
          "internalType": "int64",
          "name": "mainId",
          "type": "int64"
        }
      ],
      "name": "getSubIds",
      "outputs": [
        {
          "internalType": "int64[]",
          "name": "",
          "type": "int64[]"
        }
      ],
      "stateMutability": "view",
      "type": "function"
    },
    {
      "inputs": [
        {
          "internalType": "address",
          "name": "owner",
          "type": "address"
        },
        {
          "internalType": "address",
          "name": "operator",
          "type": "address"
        }
      ],
      "name": "isApprovedForAll",
      "outputs": [
        {
          "internalType": "bool",
          "name": "",
          "type": "bool"
        }
      ],
      "stateMutability": "view",
      "type": "function"
    },
    {
      "inputs": [
        {
          "internalType": "address",
          "name": "account",
          "type": "address"
        },
        {
          "internalType": "uint256",
          "name": "amount",
          "type": "uint256"
        }
      ],
      "name": "mintMainAsset",
      "outputs": [],
      "stateMutability": "payable",
      "type": "function"
    },
    {
      "inputs": [
        {
          "internalType": "address",
          "name": "account",
          "type": "address"
        },
        {
          "internalType": "int64",
          "name": "mainId",
          "type": "int64"
        },
        {
          "internalType": "int64",
          "name": "subId",
          "type": "int64"
        },
        {
          "internalType": "uint256",
          "name": "amount",
          "type": "uint256"
        }
      ],
      "name": "mintSubAsset",
      "outputs": [],
      "stateMutability": "nonpayable",
      "type": "function"
    },
    {
      "inputs": [],
      "name": "name",
      "outputs": [
        {
          "internalType": "string",
          "name": "",
          "type": "string"
        }
      ],
      "stateMutability": "view",
      "type": "function"
    },
    {
      "inputs": [
        {
          "internalType": "address",
          "name": "owner",
          "type": "address"
        }
      ],
      "name": "nonces",
      "outputs": [
        {
          "internalType": "uint256",
          "name": "",
          "type": "uint256"
        }
      ],
      "stateMutability": "view",
      "type": "function"
    },
    {
      "inputs": [
        {
          "internalType": "address",
          "name": "owner",
          "type": "address"
        },
        {
          "internalType": "address",
          "name": "spender",
          "type": "address"
        },
        {
          "internalType": "int64",
          "name": "mainId",
          "type": "int64"
        },
        {
          "internalType": "int64",
          "name": "subId",
          "type": "int64"
        },
        {
          "internalType": "uint256",
          "name": "amount",
          "type": "uint256"
        },
        {
          "internalType": "uint256",
          "name": "deadline",
          "type": "uint256"
        },
        {
          "internalType": "uint8",
          "name": "v",
          "type": "uint8"
        },
        {
          "internalType": "bytes32",
          "name": "r",
          "type": "bytes32"
        },
        {
          "internalType": "bytes32",
          "name": "s",
          "type": "bytes32"
        }
      ],
      "name": "permit",
      "outputs": [],
      "stateMutability": "nonpayable",
      "type": "function"
    },
    {
      "inputs": [
        {
          "internalType": "address",
          "name": "token",
          "type": "address"
        },
        {
          "internalType": "bytes",
          "name": "encodedFunctionSelector",
          "type": "bytes"
        }
      ],
      "name": "redirectForToken",
      "outputs": [
        {
          "internalType": "int256",
          "name": "responseCode",
          "type": "int256"
        },
        {
          "internalType": "bytes",
          "name": "response",
          "type": "bytes"
        }
      ],
      "stateMutability": "nonpayable",
      "type": "function"
    },
    {
      "inputs": [
        {
          "internalType": "address",
          "name": "sender",
          "type": "address"
        },
        {
          "internalType": "address",
          "name": "recipient",
          "type": "address"
        },
        {
          "internalType": "int64[]",
          "name": "mainIds",
          "type": "int64[]"
        },
        {
          "internalType": "int64[]",
          "name": "subIds",
          "type": "int64[]"
        },
        {
          "internalType": "uint256[]",
          "name": "amounts",
          "type": "uint256[]"
        },
        {
          "internalType": "bytes",
          "name": "data",
          "type": "bytes"
        }
      ],
      "name": "safeBatchTransferFrom",
      "outputs": [
        {
          "internalType": "bool",
          "name": "",
          "type": "bool"
        }
      ],
      "stateMutability": "nonpayable",
      "type": "function"
    },
    {
      "inputs": [
        {
          "internalType": "address",
          "name": "sender",
          "type": "address"
        },
        {
          "internalType": "address",
          "name": "recipient",
          "type": "address"
        },
        {
          "internalType": "int64",
          "name": "mainId",
          "type": "int64"
        },
        {
          "internalType": "int64",
          "name": "subId",
          "type": "int64"
        },
        {
          "internalType": "uint256",
          "name": "amount",
          "type": "uint256"
        }
      ],
      "name": "safeTransferFrom",
      "outputs": [
        {
          "internalType": "bool",
          "name": "",
          "type": "bool"
        }
      ],
      "stateMutability": "nonpayable",
      "type": "function"
    },
    {
      "inputs": [
        {
          "internalType": "address",
          "name": "sender",
          "type": "address"
        },
        {
          "internalType": "address",
          "name": "recipient",
          "type": "address"
        },
        {
          "internalType": "int64",
          "name": "mainId",
          "type": "int64"
        },
        {
          "internalType": "int64",
          "name": "subId",
          "type": "int64"
        },
        {
          "internalType": "uint256",
          "name": "amount",
          "type": "uint256"
        },
        {
          "internalType": "bytes",
          "name": "data",
          "type": "bytes"
        }
      ],
      "name": "safeTransferFrom",
      "outputs": [
        {
          "internalType": "bool",
          "name": "",
          "type": "bool"
        }
      ],
      "stateMutability": "nonpayable",
      "type": "function"
    },
    {
      "inputs": [
        {
          "internalType": "address",
          "name": "operator",
          "type": "address"
        },
        {
          "internalType": "bool",
          "name": "approved",
          "type": "bool"
        }
      ],
      "name": "setApprovalForAll",
      "outputs": [],
      "stateMutability": "nonpayable",
      "type": "function"
    },
    {
      "inputs": [
        {
          "internalType": "address",
          "name": "account",
          "type": "address"
        },
        {
          "internalType": "int64",
          "name": "mainId",
          "type": "int64"
        },
        {
          "internalType": "int64",
          "name": "subId",
          "type": "int64"
        }
      ],
      "name": "subBalanceOf",
      "outputs": [
        {
          "internalType": "uint256",
          "name": "",
          "type": "uint256"
        }
      ],
      "stateMutability": "view",
      "type": "function"
    },
    {
      "inputs": [
        {
          "internalType": "address",
          "name": "owner",
          "type": "address"
        },
        {
          "internalType": "int64",
          "name": "mainId",
          "type": "int64"
        }
      ],
      "name": "subIdBalanceOf",
      "outputs": [
        {
          "internalType": "uint256",
          "name": "totalBalance",
          "type": "uint256"
        }
      ],
      "stateMutability": "view",
      "type": "function"
    },
    {
      "inputs": [],
      "name": "symbol",
      "outputs": [
        {
          "internalType": "string",
          "name": "",
          "type": "string"
        }
      ],
      "stateMutability": "view",
      "type": "function"
    },
    {
      "inputs": [],
      "name": "totalMainIds",
      "outputs": [
        {
          "internalType": "uint256",
          "name": "",
          "type": "uint256"
        }
      ],
      "stateMutability": "view",
      "type": "function"
    },
    {
      "inputs": [
        {
          "internalType": "int64",
          "name": "mainId",
          "type": "int64"
        }
      ],
      "name": "totalMainSupply",
      "outputs": [
        {
          "internalType": "uint256",
          "name": "",
          "type": "uint256"
        }
      ],
      "stateMutability": "view",
      "type": "function"
    },
    {
      "inputs": [
        {
          "internalType": "int64",
          "name": "mainId",
          "type": "int64"
        }
      ],
      "name": "totalSubIds",
      "outputs": [
        {
          "internalType": "uint256",
          "name": "",
          "type": "uint256"
        }
      ],
      "stateMutability": "view",
      "type": "function"
    },
    {
      "inputs": [
        {
          "internalType": "int64",
          "name": "mainId",
          "type": "int64"
        },
        {
          "internalType": "int64",
          "name": "subId",
          "type": "int64"
        }
      ],
      "name": "totalSubSupply",
      "outputs": [
        {
          "internalType": "uint256",
          "name": "",
          "type": "uint256"
        }
      ],
      "stateMutability": "view",
      "type": "function"
    },
    {
      "inputs": [
        {
          "internalType": "address",
          "name": "sender",
          "type": "address"
        },
        {
          "internalType": "address",
          "name": "recipient",
          "type": "address"
        },
        {
          "internalType": "int64",
          "name": "mainId",
          "type": "int64"
        },
        {
          "internalType": "int64",
          "name": "subId",
          "type": "int64"
        },
        {
          "internalType": "uint256",
          "name": "amount",
          "type": "uint256"
        }
      ],
      "name": "transfer",
      "outputs": [],
      "stateMutability": "nonpayable",
      "type": "function"
    },
    {
      "inputs": [
        {
          "internalType": "address",
          "name": "token",
          "type": "address"
        },
        {
          "internalType": "address",
          "name": "from",
          "type": "address"
        },
        {
          "internalType": "address",
          "name": "to",
          "type": "address"
        },
        {
          "internalType": "uint256",
          "name": "amount",
          "type": "uint256"
        }
      ],
      "name": "transferFrom",
      "outputs": [
        {
          "internalType": "int64",
          "name": "responseCode",
          "type": "int64"
        }
      ],
      "stateMutability": "nonpayable",
      "type": "function"
    },
    {
      "inputs": [
        {
          "internalType": "address",
          "name": "sender",
          "type": "address"
        },
        {
          "internalType": "address",
          "name": "recipient",
          "type": "address"
        },
        {
          "internalType": "int64",
          "name": "mainId",
          "type": "int64"
        },
        {
          "internalType": "int64",
          "name": "subId",
          "type": "int64"
        },
        {
          "internalType": "uint256",
          "name": "amount",
          "type": "uint256"
        }
      ],
      "name": "transferFrom",
      "outputs": [
        {
          "internalType": "bool",
          "name": "",
          "type": "bool"
        }
      ],
      "stateMutability": "nonpayable",
      "type": "function"
    },
    {
      "inputs": [
        {
          "internalType": "address",
          "name": "token",
          "type": "address"
        },
        {
          "internalType": "address",
          "name": "from",
          "type": "address"
        },
        {
          "internalType": "address",
          "name": "to",
          "type": "address"
        },
        {
          "internalType": "uint256",
          "name": "serialNumber",
          "type": "uint256"
        }
      ],
      "name": "transferFromNFT",
      "outputs": [
        {
          "internalType": "int64",
          "name": "responseCode",
          "type": "int64"
        }
      ],
      "stateMutability": "nonpayable",
      "type": "function"
    }
  ],
  "bytecode": "0x60e060405260405162004e8238038062004e82833981016040819052620000269162000917565b82818184818160036200003a838262000a39565b50600462000049828262000a39565b50506006602081815260017f54cdd369e4e8a8515e52ca72ec816c2101831ad1f18bf44102ed171459c9b4f85560027f3e5fec24aa4dc4e5aee2e025e51e1392c72a2500577559fae9665c6d52bd6a315560047f8819ef417987f8ae7a81f42cdfb18815282fe989326fbff903d13cf0e03ace2981905560087f75f96ab15d697e93042dc45b5c896c4b27e89bb6eaf39475c5c371cb2513f7d25560107fc5069e24aaadb2addc3e52e868fcf3f4f8acf5a87e24300992fd4540c2a87eed557fbfd358e93f18da3ed276c3afdbdba00b8f0b6008a03476a6a86bd6320ee6938b829055600092835260407f697b2bd7bb2984c4e0dc14c79c987d37818484a62958b9c45a0e8b962f20650f81905580518084018252848152815183815260a08101909252309550936103e893909283929182015b62000187620007ec565b8152602001906001900390816200017d579050509050620001c3600060066000604051806020016040528060008152506200048060201b60201c565b81600081518110620001d957620001d962000b1b565b6020026020010181905250620002086002600060405180602001604052806000815250620004c360201b60201c565b816001815181106200021e576200021e62000b1b565b60200260200101819052506200024d6004600060405180602001604052806000815250620004c360201b60201c565b8160028151811062000263576200026362000b1b565b6020026020010181905250620002926003600060405180602001604052806000815250620004c360201b60201c565b81600381518110620002a857620002a862000b1b565b602090810291909101810191909152604080516060808201835260008083526001600160a01b038a16838601819052627a1200848601528451610120810186528d81529586018c905293850193909352830187905260016080840152600786900b60a084015284151560c084015260e083018490526101008301819052919080620003338362000504565b909250905060168214620003975760405162461bcd60e51b815260206004820152602160248201527f4572726f72206372656174696e67204e6f6e2046756e6769626c6520546f6b656044820152603760f91b606482015260840160405180910390fd5b600780546001600160a01b0319166001600160a01b0383169081179091556040519081527f7bb17726df1f3adee8aa00ba8e8bc5d6f182af3bbf77604639cb7f008dd3b4ed9060200160405180910390a150508a516020808d01919091206080528a518b82012060a0526040516200041b9a5001975062000b319650505050505050565b60408051808303601f1901815282825280516020918201206080805160a0805185880194909452868601919091526060860192909252469085015230818501528251808503909101815260c0938401909252815191012090525062000e4c9350505050565b6200048a620007ec565b6040518060400160405280620004a787876200063260201b60201c565b8152602001620004b885856200067c565b905295945050505050565b620004cd620007ec565b6040518060400160405280620004e986620007a760201b60201c565b8152602001620004fa85856200067c565b9052949350505050565b600080828061010001516000015160070b60001480156200052f57506101008101516040015160070b155b1562000546576101008101516276a7006040909101525b6000806101676001600160a01b03163463ea83f29360e01b8860405160240162000571919062000cbf565b60408051601f198184030181529181526020820180516001600160e01b03166001600160e01b0319909416939093179092529051620005b1919062000ddf565b60006040518083038185875af1925050503d8060008114620005f0576040519150601f19603f3d011682016040523d82523d6000602084013e620005f5565b606091505b5091509150816200060a576015600062000620565b8080602001905181019062000620919062000dfd565b60039190910b97909650945050505050565b60006200065a8360068111156200064d576200064d62000b05565b600160ff9091161b821790565b9050620006758260068111156200064d576200064d62000b05565b9392505050565b620006c36040518060a0016040528060001515815260200160006001600160a01b03168152602001606081526020016060815260200160006001600160a01b031681525090565b6000836004811115620006da57620006da62000b05565b03620006ea5760018152620007a1565b600183600481111562000701576200070162000b05565b036200071e576005546001600160a01b03166020820152620007a1565b600283600481111562000735576200073562000b05565b03620007485760408101829052620007a1565b60038360048111156200075f576200075f62000b05565b03620007725760608101829052620007a1565b600483600481111562000789576200078962000b05565b03620007a1576005546001600160a01b031660808201525b92915050565b600060066000836006811115620007c257620007c262000b05565b6006811115620007d657620007d662000b05565b8152602001908152602001600020549050919050565b604051806040016040528060008152602001620008456040518060a0016040528060001515815260200160006001600160a01b03168152602001606081526020016060815260200160006001600160a01b031681525090565b905290565b634e487b7160e01b600052604160045260246000fd5b60005b838110156200087d57818101518382015260200162000863565b50506000910152565b600082601f8301126200089857600080fd5b81516001600160401b0380821115620008b557620008b56200084a565b604051601f8301601f19908116603f01168101908282118183101715620008e057620008e06200084a565b81604052838152866020858801011115620008fa57600080fd5b6200090d84602083016020890162000860565b9695505050505050565b6000806000606084860312156200092d57600080fd5b83516001600160401b03808211156200094557600080fd5b620009538783880162000886565b945060208601519150808211156200096a57600080fd5b620009788783880162000886565b935060408601519150808211156200098f57600080fd5b506200099e8682870162000886565b9150509250925092565b600181811c90821680620009bd57607f821691505b602082108103620009de57634e487b7160e01b600052602260045260246000fd5b50919050565b601f82111562000a34576000816000526020600020601f850160051c8101602086101562000a0f5750805b601f850160051c820191505b8181101562000a305782815560010162000a1b565b5050505b505050565b81516001600160401b0381111562000a555762000a556200084a565b62000a6d8162000a668454620009a8565b84620009e4565b602080601f83116001811462000aa5576000841562000a8c5750858301515b600019600386901b1c1916600185901b17855562000a30565b600085815260208120601f198616915b8281101562000ad65788860151825594840194600190910190840162000ab5565b508582101562000af55787850151600019600388901b60f8161c191681555b5050505050600190811b01905550565b634e487b7160e01b600052602160045260246000fd5b634e487b7160e01b600052603260045260246000fd5b6c08a92a06e626488dedac2d2dc5609b1b81526b1cdd1c9a5b99c81b985b594b60a21b600d8201526e1cdd1c9a5b99c81d995c9cda5bdb8b608a1b60198201526f1d5a5b9d0c8d4d8818da185a5b92590b60821b60288201527f6164647265737320766572696679696e67436f6e7472616374000000000000006038820152602960f81b605182015260520190565b6000815180845262000bda81602086016020860162000860565b601f01601f19169290920160200192915050565b600082825180855260208086019550808260051b84010181860160005b8481101562000cb257858303601f1901895281518051845284015160408585018190528151151581860152818601516001600160a01b039081166060808801919091529183015160a0608080890182905291939092909162000c7160e08a018662000bc0565b92860151898403603f1901858b015292945062000c8f858462000bc0565b9501511660c0979097019690965250509884019892509083019060010162000c0b565b5090979650505050505050565b6020815260008251610160602084015262000cdf61018084018262000bc0565b90506020840151601f198085840301604086015262000cff838362000bc0565b92506040860151915062000d1e60608601836001600160a01b03169052565b606086015191508085840301608086015262000d3b838362000bc0565b92506080860151915062000d5360a086018315159052565b60a0860151915062000d6a60c086018360070b9052565b60c086015180151560e0870152915060e0860151915061010081868503018187015262000d98848462000bee565b908701518051600790810b61012089015260208201516001600160a01b03166101408901526040820151900b610160880152909350915062000dd79050565b509392505050565b6000825162000df381846020870162000860565b9190910192915050565b6000806040838503121562000e1157600080fd5b82518060030b811462000e2357600080fd5b60208401519092506001600160a01b038116811462000e4157600080fd5b809150509250929050565b60805160a05160c05161400562000e7d600039600081816103ea0152611b63015260005050600050506140056000f3fe6080604052600436106101d85760003560e01c806363b12e08116101025780639b23d3d911610095578063de60bc7411610064578063de60bc741461060c578063e43bdfe11461062c578063e985e9c51461064c578063ed99bc0e1461069357600080fd5b80639b23d3d914610579578063a22cb46514610599578063a8e97109146105b9578063c8e254c4146105cc57600080fd5b806383eddad0116100d157806383eddad0146104f75780639040fb131461051757806395d89b4114610537578063965e2e121461054c57600080fd5b806363b12e081461045c57806365fd95ba1461048c5780637541f8de146104a15780637ecebe00146104c157600080fd5b80631e0e2d461161017a5780633523dc6c116101495780633523dc6c146103bb5780633644e515146103db5780635f3d67741461040e578063618dc65e1461042e57600080fd5b80631e0e2d461461032957806320fd1d7c146103495780632149b25e146103795780632eda03ab1461039b57600080fd5b806306fdde03116101b657806306fdde031461028f5780630a754de6146102b157806312849f01146102c657806315dacbea146102f657600080fd5b80630333ca9c146101dd57806305ecb79014610210578063069ed13214610262575b600080fd5b3480156101e957600080fd5b506101fd6101f8366004612a34565b6106b3565b6040519081526020015b60405180910390f35b34801561021c57600080fd5b506101fd61022b366004612a60565b600791820b60009081526001602090815260408083206001600160a01b039690961683529481528482209290930b81529152205490565b34801561026e57600080fd5b5061028261027d366004612aab565b61071c565b6040516102079190612b07565b34801561029b57600080fd5b506102a46107a6565b6040516102079190612b6a565b3480156102bd57600080fd5b506101fd610834565b3480156102d257600080fd5b506102e66102e1366004612c09565b6108ee565b6040519015158152602001610207565b34801561030257600080fd5b50610316610311366004612cf0565b610a5e565b60405160079190910b8152602001610207565b34801561033557600080fd5b506101fd610344366004612d41565b610b52565b34801561035557600080fd5b506101fd610364366004612aab565b60070b6000908152600a602052604090205490565b34801561038557600080fd5b50610399610394366004612d7a565b610c03565b005b3480156103a757600080fd5b506103996103b6366004612dbb565b610c15565b3480156103c757600080fd5b506102e66103d6366004612dbb565b610c29565b3480156103e757600080fd5b507f00000000000000000000000000000000000000000000000000000000000000006101fd565b34801561041a57600080fd5b506102e6610429366004612d7a565b610c54565b34801561043a57600080fd5b5061044e610449366004612f71565b610cbd565b604051610207929190612fc0565b34801561046857600080fd5b506101fd610477366004612aab565b60070b60009081526009602052604090205490565b34801561049857600080fd5b506008546101fd565b3480156104ad57600080fd5b506103996104bc366004612dbb565b610ddb565b3480156104cd57600080fd5b506101fd6104dc366004612a34565b6001600160a01b03166000908152600e602052604090205490565b34801561050357600080fd5b506102e6610512366004612dbb565b610de8565b34801561052357600080fd5b506102e6610532366004612fe1565b610df7565b34801561054357600080fd5b506102a4610e15565b34801561055857600080fd5b5061056c610567366004613070565b610e22565b604051610207919061313a565b34801561058557600080fd5b50610316610594366004612cf0565b610f8f565b3480156105a557600080fd5b506103996105b436600461315b565b610fd4565b6103996105c7366004613189565b610fe3565b3480156105d857600080fd5b506101fd6105e73660046131b5565b600791820b6000908152600b602090815260408083209390940b825291909152205490565b34801561061857600080fd5b50610399610627366004612d7a565b610fed565b34801561063857600080fd5b506101fd6106473660046131d3565b610ff9565b34801561065857600080fd5b506102e661066736600461322f565b6001600160a01b0391821660009081526020818152604080832093909416825291909152205460ff1690565b34801561069f57600080fd5b506103996106ae36600461325d565b611010565b6007546000906106cd9083906001600160a01b03166111ee565b600754604080516001600160a01b03928316815291851660208301529192507f486bcb01e604496e2a4caa3ae8178d59ffedc37c140f1d4ad838b06cb1286547910160405180910390a1919050565b600781900b6000908152600c602090815260409182902080548351818402810184019094528084526060939283018282801561079a57602002820191906000526020600020906000905b825461010083900a900460070b81526020600f83018190049384019360010360089093019290920291018084116107665790505b50505050509050919050565b600380546107b3906132fb565b80601f01602080910402602001604051908101604052809291908181526020018280546107df906132fb565b801561082c5780601f106108015761010080835404028352916020019161082c565b820191906000526020600020905b81548152906001019060200180831161080f57829003601f168201915b505050505081565b6007546040805163053aa6f360e11b815290516000926001600160a01b031691630a754de6916004808301926020929190829003018187875af115801561087f573d6000803e3d6000fd5b505050506040513d601f19601f820116820180604052508101906108a39190613335565b600754604080516001600160a01b0390921682523360208301529192507f486bcb01e604496e2a4caa3ae8178d59ffedc37c140f1d4ad838b06cb1286547910160405180910390a190565b6000336108fb8c826112c2565b6109675760405162461bcd60e51b815260206004820152603260248201527f444c543a2063616c6c6572206973206e6f7420746f6b656e206f776e6572206f6044820152711c88185c1c1c9bdd995908199bdc88185b1b60721b60648201526084015b60405180910390fd5b610a4c8c8c8c8c80806020026020016040519081016040528093929190818152602001838360200280828437600081840152601f19601f820116905080830192505050505050508b8b8080602002602001604051908101604052809392919081815260200183836020028082843760009201919091525050604080516020808f0282810182019093528e82529093508e92508d91829185019084908082843760009201919091525050604080516020601f8e018190048102820181019092528c815292508c91508b908190840183828082843760009201919091525061130e92505050565b5060019b9a5050505050505050505050565b6040516001600160a01b038581166024830152848116604483015283166064820152608481018290526000908190819061016790630aed65f560e11b9060a4015b60408051601f198184030181529181526020820180516001600160e01b03166001600160e01b0319909416939093179092529051610add919061334e565b6000604051808303816000865af19150503d8060008114610b1a576040519150601f19603f3d011682016040523d82523d6000602084013e610b1f565b606091505b509150915081610b30576015610b44565b80806020019051810190610b44919061337c565b60030b979650505050505050565b6000805b600783900b6000908152600c6020526040902054811015610bfb57600783900b6000908152600c60205260408120805483908110610b9657610b96613397565b60009182526020808320600483040154600788810b85526001835260408086206001600160a01b038c168752845280862060039095166008026101000a909204900b8085529290915290912054909150610bf090846133c3565b925050600101610b56565b505b92915050565b610c0f84848484611617565b50505050565b610c228585858585611623565b5050505050565b6000610c48868686868660405180602001604052806000815250611767565b50600195945050505050565b6000336001600160a01b038616819003610cb05760405162461bcd60e51b815260206004820152601e60248201527f444c543a20617070726f76616c20746f2063757272656e74206f776e65720000604482015260640161095e565b610c488187878787611623565b600060606000806101676001600160a01b031663618dc65e60e01b8787604051602401610ceb9291906133d6565b60408051601f198184030181529181526020820180516001600160e01b03166001600160e01b0319909416939093179092529051610d29919061334e565b6000604051808303816000865af19150503d8060008114610d66576040519150601f19603f3d011682016040523d82523d6000602084013e610d6b565b606091505b50915091507f4af4780e06fe8cb9df64b0794fa6f01399af979175bb988e35e0e57e594567bc8282604051610da19291906133fa565b60405180910390a181610dc557601560405180602001604052806000815250610dc9565b6016815b60039190910b97909650945050505050565b610c228585858585611791565b6000610c48868686868661193b565b6000610e07878787878787611767565b5060015b9695505050505050565b600480546107b3906132fb565b60608584148015610e3257508582145b610e955760405162461bcd60e51b815260206004820152602e60248201527f444c543a206163636f756e74732c206d61696e49647320616e6420696473206c60448201526d0cadccee8d040dad2e6dac2e8c6d60931b606482015260840161095e565b6000866001600160401b03811115610eaf57610eaf612e1f565b604051908082528060200260200182016040528015610ed8578160200160208202803683370190505b50905060005b87811015610f8357610f5e898983818110610efb57610efb613397565b9050602002016020810190610f109190612a34565b888884818110610f2257610f22613397565b9050602002016020810190610f379190612aab565b878785818110610f4957610f49613397565b905060200201602081019061022b9190612aab565b828281518110610f7057610f70613397565b6020908102919091010152600101610ede565b50979650505050505050565b6040516001600160a01b038581166024830152848116604483015283166064820152608481018290526000908190819061016790639b23d3d960e01b9060a401610a9f565b610fdf33838361196c565b5050565b610fdf8282611a31565b610c0f84848484611ad7565b600061100785858585611ae3565b95945050505050565b834211156110315760405163df4cc36d60e01b815260040160405180910390fd5b600061103c8a611b25565b9050600060405160200161110a90660a0cae4dad2e8560cb1b81526d1859191c995cdcc81bdddb995c8b60921b60078201526f1859191c995cdcc81cdc195b99195c8b60821b60158201526c1a5b9d0d8d081b585a5b92590b609a1b60258201526b1a5b9d0d8d081cdd5892590b60a21b60328201526e1d5a5b9d0c8d4d88185b5bdd5b9d0b608a1b603e8201526d1d5a5b9d0c8d4d881b9bdb98d94b60921b604d8201526f75696e7432353620646561646c696e6560801b605b820152602960f81b606b820152606c0190565b60408051601f198184030181528282528051602091820120908301526001600160a01b03808e16918301919091528b16606082015260078a810b608083015289900b60a082015260c0810188905260e08101839052610100810187905261012001604051602081830303815290604052805190602001209050600061118e82611b56565b9050600061119e82888888611b9a565b90508c6001600160a01b0316816001600160a01b0316146111d257604051638baa579f60e01b815260040160405180910390fd5b6111df8d8d8d8d8d611623565b50505050505050505050505050565b604080516001600160a01b038481166024830152831660448083019190915282518083039091018152606490910182526020810180516001600160e01b031663248a35ef60e11b1790529051600091829182916101679161124f919061334e565b6000604051808303816000865af19150503d806000811461128c576040519150601f19603f3d011682016040523d82523d6000602084013e611291565b606091505b5091509150816112a25760156112b6565b808060200190518101906112b6919061337c565b60030b95945050505050565b6000816001600160a01b0316836001600160a01b0316148061130757506001600160a01b038084166000908152602081815260408083209386168352929052205460ff165b9392505050565b82518451148015611320575081518451145b6113855760405162461bcd60e51b815260206004820152603060248201527f444c543a206d61696e4964732c2073756249647320616e6420616d6f756e747360448201526f040d8cadccee8d040dad2e6dac2e8c6d60831b606482015260840161095e565b6001600160a01b0385166113ab5760405162461bcd60e51b815260040161095e90613415565b3360005b855181101561158a5760008682815181106113cc576113cc613397565b6020026020010151905060008683815181106113ea576113ea613397565b60200260200101519050600086848151811061140857611408613397565b602002602001015190506000600160008560070b60070b815260200190815260200160002060008d6001600160a01b03166001600160a01b0316815260200190815260200160002060008460070b60070b815260200190815260200160002054905061148a8c8c86868660405180602001604052806000815250505050505050565b818110156114aa5760405162461bcd60e51b815260040161095e90613456565b818103600160008660070b60070b815260200190815260200160002060008e6001600160a01b03166001600160a01b0316815260200190815260200160002060008560070b60070b81526020019081526020016000208190555081600160008660070b60070b815260200190815260200160002060008d6001600160a01b03166001600160a01b0316815260200190815260200160002060008560070b60070b8152602001908152602001600020600082825461156791906133c3565b9091555050604080516020810190915260009052505050508060010190506113af565b50856001600160a01b0316876001600160a01b0316826001600160a01b03167f3d3612aedbab64ec845a17d1508b936b04c073ee96a02b84c355a7eb025a18d28888886040516115dc9392919061349c565b60405180910390a46115f2878787878787611c68565b61160e5760405162461bcd60e51b815260040161095e906134d5565b50505050505050565b610c0f84848484611d6a565b6001600160a01b0385166116845760405162461bcd60e51b815260206004820152602260248201527f444c543a20617070726f76652066726f6d20746865207a65726f206164647265604482015261737360f01b606482015260840161095e565b6001600160a01b0384166116da5760405162461bcd60e51b815260206004820181905260248201527f444c543a20617070726f766520746f20746865207a65726f2061646472657373604482015260640161095e565b6001600160a01b038581166000818152600260209081526040808320948916808452948252808320600789810b8086529184528285209089900b808652908452938290208790558151908152918201929092529081018490527f20228d921cee20e1bee39b210de025b31c291c9a9eb96925595c91db3db75c329060600160405180910390a35050505050565b3361177287826112c2565b611783576117838782878787611eff565b61160e878787878787611f77565b6001600160a01b0385166117f35760405162461bcd60e51b815260206004820152602360248201527f444c543a207472616e736665722066726f6d20746865207a65726f206164647260448201526265737360e81b606482015260840161095e565b6001600160a01b0384166118195760405162461bcd60e51b815260040161095e90613415565b6040805160208082018352600091829052600786810b8352600182528383206001600160a01b038a16845282528383209086900b8352905220548111156118725760405162461bcd60e51b815260040161095e90613456565b600783810b60009081526001602090815260408083206001600160a01b03808b1685528184528285209588900b8086529584528285208054889003905589168452825280832093835292905290812080548392906118d19084906133c3565b909155505060408051600784810b82526020820184905285900b916001600160a01b0380881692908916917fd3f5ba918fcf5f0ed2a6add09f440b150c54a8eba5a07bbba0695eea7bbf1efa910160405180910390a4604080516020810190915260009052610c22565b3361194686826112c2565b611957576119578682868686611eff565b6119648686868686611791565b505050505050565b816001600160a01b0316836001600160a01b0316036119c65760405162461bcd60e51b815260206004820152601660248201527522262a1d1030b8383937bb32903a379031b0b63632b960511b604482015260640161095e565b6001600160a01b0383811660008181526020818152604080832094871680845294825291829020805460ff191686151590811790915591519182527f17307eab39ab6107e8899845ad3d59bd9653f200f220920489ca2b5937696c31910160405180910390a3505050565b6001600160a01b038216611a7b5760405162461bcd60e51b8152602060048201526011602482015270125b9d985b1a5908149958da5c1a595b9d607a1b604482015260640161095e565b60008111611abc5760405162461bcd60e51b815260206004820152600e60248201526d125b9d985b1a5908105b5bdd5b9d60921b604482015260640161095e565b6000611ac783611fae565b90506001610c0f84838386611617565b610c0f84848484612137565b6001600160a01b039384166000908152600260209081526040808320959096168252938452848120600793840b825284528481209190920b8252909152205490565b6001600160a01b0381166000908152600e60205260408120805491829190611b4c83613521565b9190505550919050565b60405161190160f01b81527f000000000000000000000000000000000000000000000000000000000000000060028201526022810182905260429020600090610bfd565b60007f7fffffffffffffffffffffffffffffff5d576e7357a4501ddfe92f46681b20a0821115611be057604051635682f3bf60e01b81526004810183905260240161095e565b6040805160008082526020820180845288905260ff871692820192909252606081018590526080810184905260019060a0016020604051602081039080840390855afa158015611c34573d6000803e3d6000fd5b5050604051601f1901519150506001600160a01b03811661100757604051632057875960e21b815260040160405180910390fd5b60006001600160a01b0386163b15611d62576040516383fbceb960e01b81526001600160a01b038716906383fbceb990611cb09033908b908a908a908a908a9060040161353a565b6020604051808303816000875af1925050508015611ceb575060408051601f3d908101601f19168201909252611ce8918101906135ad565b60015b611d48573d808015611d19576040519150601f19603f3d011682016040523d82523d6000602084013e611d1e565b606091505b508051600003611d405760405162461bcd60e51b815260040161095e906134d5565b805181602001fd5b6001600160e01b0319166383fbceb960e01b149050610e0b565b506001610e0b565b611d7383612306565b611db25760405162461bcd60e51b815260206004820152601060248201526f151bdad95b88139bdd08135a5b9d195960821b604482015260640161095e565b600783900b6000908152600a60205260408120549003611de057600860008154611ddb90613521565b909155505b600783810b6000908152600b602090815260408083209386900b8352929052908120549003611e9357600783900b60009081526009602052604081208054909190611e2a90613521565b90915550600783810b6000908152600c602090815260408083208054600d84528285209588900b8552948352908320849055600184018155825290206004820401805460039092166008026101000a6001600160401b0381810219909316928516029190911790555b600783900b6000908152600a602052604081208054839290611eb69084906133c3565b9091555050600783810b6000908152600b602090815260408083209386900b83529290529081208054839290611eed9084906133c3565b90915550610c0f90508484848461232c565b6000611f0d86868686611ae3565b905060001981146119645781811015611f685760405162461bcd60e51b815260206004820152601b60248201527f444c543a20696e73756666696369656e7420616c6c6f77616e63650000000000604482015260640161095e565b61196486868686868603611623565b611f848686868686611791565b611f9286868686868661247d565b6119645760405162461bcd60e51b815260040161095e906134d5565b604080516001808252818301909252600091829190816020015b6060815260200190600190039081611fc8579050509050604051806060016040528060248152602001613fac602491398160008151811061200b5761200b613397565b602090810291909101015260075460009081908190612034906001600160a01b03168286612548565b919450925090506016831461208b5760405162461bcd60e51b815260206004820152601760248201527f4572726f72204d696e74696e67204e465420746f6b656e000000000000000000604482015260640161095e565b60078054604080516001600160a01b039092168252600160208301529184900b8183015290517f6c15495b81c1c2bd8a5a79faf952be7bdb9deceb303a554e2ec44d0736d6e0bf9181900360600190a16007548151612110916001600160a01b03169030908990859060009061210357612103613397565b6020026020010151612646565b508060008151811061212457612124613397565b6020026020010151945050505050919050565b6121438484848461268e565b600783810b6000908152600a6020908152604080832080548690039055600b82528083209386900b835292905290812080548390039081905590036122d357600783900b600090815260096020526040812080549091906121a3906135d7565b90915550600783810b6000908152600c60209081526040808320600d83528184209487900b845293909152812054825490919083906121e4906001906135ee565b815481106121f4576121f4613397565b90600052602060002090600491828204019190066008029054906101000a900460070b90508083838154811061222c5761222c613397565b600091825260208083206004830401805460039093166008026101000a6001600160401b03818102199094169590931692909202939093179055600788810b8252600d8352604080832085830b845290935282822085905587900b815290812055825483908061229e5761229e613601565b60008281526020902060046000199092019182040180546001600160401b03600860038516026101000a021916905590555050505b600783900b6000908152600a60205260408120549003610c0f576008600081546122fc906135d7565b9091555050505050565b6007546000908190612321906001600160a01b031684612840565b506016149392505050565b6001600160a01b0384166123825760405162461bcd60e51b815260206004820152601d60248201527f444c543a206d696e7420746f20746865207a65726f2061646472657373000000604482015260640161095e565b806000036123ca5760405162461bcd60e51b81526020600482015260156024820152741113150e881b5a5b9d081e995c9bc8185b5bdd5b9d605a1b604482015260640161095e565b6040805160208082018352600091829052600786810b8352600182528383206001600160a01b038916845282528383209086900b8352905290812080548392906124159084906133c3565b909155505060408051600784810b82526020820184905285900b916001600160a01b038716916000917fd3f5ba918fcf5f0ed2a6add09f440b150c54a8eba5a07bbba0695eea7bbf1efa910160405180910390a4604080516020810190915260009052610c0f565b60006001600160a01b0386163b15611d6257604051630f18968560e01b81526001600160a01b03871690630f189685906124c59033908b908a908a908a908a90600401613617565b6020604051808303816000875af1925050508015612500575060408051601f3d908101601f191682019092526124fd918101906135ad565b60015b61252e573d808015611d19576040519150601f19603f3d011682016040523d82523d6000602084013e611d1e565b6001600160e01b031916630f18968560e01b149050610e0b565b60008060606000806101676001600160a01b031663e0f4059a60e01b89898960405160240161257993929190613668565b60408051601f198184030181529181526020820180516001600160e01b03166001600160e01b03199094169390931790925290516125b7919061334e565b6000604051808303816000865af19150503d80600081146125f4576040519150601f19603f3d011682016040523d82523d6000602084013e6125f9565b606091505b50915091508161261c576040805160008082526020820190925260159190612630565b808060200190518101906126309190613714565b60039290920b9a90995090975095505050505050565b6040516001600160a01b038581166024830152848116604483015283166064820152600782900b60848201526000908190819061016790635cfc901160e01b9060a401610a9f565b6001600160a01b0384166126e45760405162461bcd60e51b815260206004820152601f60248201527f444c543a206275726e2066726f6d20746865207a65726f206164647265737300604482015260640161095e565b8060000361272c5760405162461bcd60e51b81526020600482015260156024820152741113150e88189d5c9b881e995c9bc8185b5bdd5b9d605a1b604482015260640161095e565b600783810b60009081526001602090815260408083206001600160a01b038916845282528083209386900b83529290522054818110156127ae5760405162461bcd60e51b815260206004820152601960248201527f444c543a20696e73756666696369656e742062616c616e636500000000000000604482015260640161095e565b6040805160208082018352600091829052600787810b808452600183528484206001600160a01b038b168086529084528585209289900b808652928452858520805489900390558551928352928201879052845190947fd3f5ba918fcf5f0ed2a6add09f440b150c54a8eba5a07bbba0695eea7bbf1efa928290030190a4604080516020810190915260009052610c22565b600061284a61292d565b604080516001600160a01b0386166024820152600785900b60448083019190915282518083039091018152606490910182526020810180516001600160e01b031663050fc3b560e31b17905290516000918291610167916128aa9161334e565b6000604051808303816000865af19150503d80600081146128e7576040519150601f19603f3d011682016040523d82523d6000602084013e6128ec565b606091505b50915091506128f961292d565b826129065760158161291a565b8180602001905181019061291a9190613ec4565b60039190910b9890975095505050505050565b604080516103008101825260606101e082018181526102008301829052600061022084018190526102408401839052610260840181905261028084018190526102a084018190526102c0840183905284518084018652818152602081018290529485018190526102e084019490945260c0830190815260e0830184905261010083018490526101208301849052610140830193909352610160820181905261018082018190526101a082018190526101c08201529081908152600060208201819052604082018190526060808301829052608083015260a09091015290565b6001600160a01b0381168114612a2157600080fd5b50565b8035612a2f81612a0c565b919050565b600060208284031215612a4657600080fd5b813561130781612a0c565b8060070b8114612a2157600080fd5b600080600060608486031215612a7557600080fd5b8335612a8081612a0c565b92506020840135612a9081612a51565b91506040840135612aa081612a51565b809150509250925092565b600060208284031215612abd57600080fd5b813561130781612a51565b60008151808452602080850194506020840160005b83811015612afc57815160070b87529582019590820190600101612add565b509495945050505050565b6020815260006113076020830184612ac8565b60005b83811015612b35578181015183820152602001612b1d565b50506000910152565b60008151808452612b56816020860160208601612b1a565b601f01601f19169290920160200192915050565b6020815260006113076020830184612b3e565b60008083601f840112612b8f57600080fd5b5081356001600160401b03811115612ba657600080fd5b6020830191508360208260051b8501011115612bc157600080fd5b9250929050565b60008083601f840112612bda57600080fd5b5081356001600160401b03811115612bf157600080fd5b602083019150836020828501011115612bc157600080fd5b60008060008060008060008060008060c08b8d031215612c2857600080fd5b612c318b612a24565b9950612c3f60208c01612a24565b985060408b01356001600160401b0380821115612c5b57600080fd5b612c678e838f01612b7d565b909a50985060608d0135915080821115612c8057600080fd5b612c8c8e838f01612b7d565b909850965060808d0135915080821115612ca557600080fd5b612cb18e838f01612b7d565b909650945060a08d0135915080821115612cca57600080fd5b50612cd78d828e01612bc8565b915080935050809150509295989b9194979a5092959850565b60008060008060808587031215612d0657600080fd5b8435612d1181612a0c565b93506020850135612d2181612a0c565b92506040850135612d3181612a0c565b9396929550929360600135925050565b60008060408385031215612d5457600080fd5b8235612d5f81612a0c565b91506020830135612d6f81612a51565b809150509250929050565b60008060008060808587031215612d9057600080fd5b8435612d9b81612a0c565b93506020850135612dab81612a51565b92506040850135612d3181612a51565b600080600080600060a08688031215612dd357600080fd5b8535612dde81612a0c565b94506020860135612dee81612a0c565b93506040860135612dfe81612a51565b92506060860135612e0e81612a51565b949793965091946080013592915050565b634e487b7160e01b600052604160045260246000fd5b604080519081016001600160401b0381118282101715612e5757612e57612e1f565b60405290565b60405160a081016001600160401b0381118282101715612e5757612e57612e1f565b60405161012081016001600160401b0381118282101715612e5757612e57612e1f565b60405160c081016001600160401b0381118282101715612e5757612e57612e1f565b604051601f8201601f191681016001600160401b0381118282101715612eec57612eec612e1f565b604052919050565b60006001600160401b03821115612f0d57612f0d612e1f565b50601f01601f191660200190565b600082601f830112612f2c57600080fd5b8135612f3f612f3a82612ef4565b612ec4565b818152846020838601011115612f5457600080fd5b816020850160208301376000918101602001919091529392505050565b60008060408385031215612f8457600080fd5b8235612f8f81612a0c565b915060208301356001600160401b03811115612faa57600080fd5b612fb685828601612f1b565b9150509250929050565b828152604060208201526000612fd96040830184612b3e565b949350505050565b60008060008060008060c08789031215612ffa57600080fd5b863561300581612a0c565b9550602087013561301581612a0c565b9450604087013561302581612a51565b9350606087013561303581612a51565b92506080870135915060a08701356001600160401b0381111561305757600080fd5b61306389828a01612f1b565b9150509295509295509295565b6000806000806000806060878903121561308957600080fd5b86356001600160401b03808211156130a057600080fd5b6130ac8a838b01612b7d565b909850965060208901359150808211156130c557600080fd5b6130d18a838b01612b7d565b909650945060408901359150808211156130ea57600080fd5b506130f789828a01612b7d565b979a9699509497509295939492505050565b60008151808452602080850194506020840160005b83811015612afc5781518752958201959082019060010161311e565b6020815260006113076020830184613109565b8015158114612a2157600080fd5b6000806040838503121561316e57600080fd5b823561317981612a0c565b91506020830135612d6f8161314d565b6000806040838503121561319c57600080fd5b82356131a781612a0c565b946020939093013593505050565b600080604083850312156131c857600080fd5b8235612d5f81612a51565b600080600080608085870312156131e957600080fd5b84356131f481612a0c565b9350602085013561320481612a0c565b9250604085013561321481612a51565b9150606085013561322481612a51565b939692955090935050565b6000806040838503121561324257600080fd5b823561324d81612a0c565b91506020830135612d6f81612a0c565b60008060008060008060008060006101208a8c03121561327c57600080fd5b893561328781612a0c565b985060208a013561329781612a0c565b975060408a01356132a781612a51565b965060608a01356132b781612a51565b955060808a0135945060a08a0135935060c08a013560ff811681146132db57600080fd5b8093505060e08a013591506101008a013590509295985092959850929598565b600181811c9082168061330f57607f821691505b60208210810361332f57634e487b7160e01b600052602260045260246000fd5b50919050565b60006020828403121561334757600080fd5b5051919050565b60008251613360818460208701612b1a565b9190910192915050565b8051600381900b8114612a2f57600080fd5b60006020828403121561338e57600080fd5b6113078261336a565b634e487b7160e01b600052603260045260246000fd5b634e487b7160e01b600052601160045260246000fd5b80820180821115610bfd57610bfd6133ad565b6001600160a01b0383168152604060208201819052600090612fd990830184612b3e565b8215158152604060208201526000612fd96040830184612b3e565b60208082526021908201527f444c543a207472616e7366657220746f20746865207a65726f206164647265736040820152607360f81b606082015260800190565b60208082526026908201527f444c543a20696e73756666696369656e742062616c616e636520666f7220747260408201526530b739b332b960d11b606082015260800190565b6060815260006134af6060830186612ac8565b82810360208401526134c18186612ac8565b90508281036040840152610e0b8185613109565b6020808252602c908201527f444c543a207472616e7366657220746f206e6f6e20444c54526563656976657260408201526b1034b6b83632b6b2b73a32b960a11b606082015260800190565b600060018201613533576135336133ad565b5060010190565b6001600160a01b0387811682528616602082015260c06040820181905260009061356690830187612ac8565b82810360608401526135788187612ac8565b9050828103608084015261358c8186613109565b905082810360a08401526135a08185612b3e565b9998505050505050505050565b6000602082840312156135bf57600080fd5b81516001600160e01b03198116811461130757600080fd5b6000816135e6576135e66133ad565b506000190190565b81810381811115610bfd57610bfd6133ad565b634e487b7160e01b600052603160045260246000fd5b6001600160a01b03878116825286166020820152600785810b604083015284900b60608201526080810183905260c060a0820181905260009061365c90830184612b3e565b98975050505050505050565b60006060820160018060a01b038616835260208560070b60208501526060604085015281855180845260808601915060808160051b87010193506020870160005b828110156136d757607f198887030184526136c5868351612b3e565b955092840192908401906001016136a9565b50939998505050505050505050565b8051612a2f81612a51565b60006001600160401b0382111561370a5761370a612e1f565b5060051b60200190565b60008060006060848603121561372957600080fd5b6137328461336a565b925060208085015161374381612a51565b60408601519093506001600160401b0381111561375f57600080fd5b8501601f8101871361377057600080fd5b805161377e612f3a826136f1565b81815260059190911b8201830190838101908983111561379d57600080fd5b928401925b828410156137c45783516137b581612a51565b825292840192908401906137a2565b80955050505050509250925092565b600082601f8301126137e457600080fd5b81516137f2612f3a82612ef4565b81815284602083860101111561380757600080fd5b612fd9826020830160208701612b1a565b8051612a2f81612a0c565b8051612a2f8161314d565b600082601f83011261383f57600080fd5b8151602061384f612f3a836136f1565b82815260059290921b8401810191818101908684111561386e57600080fd5b8286015b848110156139835780516001600160401b038082111561389157600080fd5b908801906040601f19838c0381018213156138ab57600080fd5b6138b3612e35565b88850151815282850151848111156138ca57600080fd5b949094019360a0858e03830112156138e25760008081fd5b6138ea612e5d565b9150888501516138f98161314d565b82528483015161390881612a0c565b828a0152606085810151858111156139205760008081fd5b61392e8f8c838a01016137d3565b85850152506080935083860151858111156139495760008081fd5b6139578f8c838a01016137d3565b82850152505061396960a08601613818565b928201929092528188015285525050918301918301613872565b509695505050505050565b6000606082840312156139a057600080fd5b604051606081018181106001600160401b03821117156139c2576139c2612e1f565b806040525080915082516139d581612a51565b815260208301516139e581612a0c565b602082015260408301516139f881612a51565b6040919091015292915050565b60006101608284031215613a1857600080fd5b613a20612e7f565b905081516001600160401b0380821115613a3957600080fd5b613a45858386016137d3565b83526020840151915080821115613a5b57600080fd5b613a67858386016137d3565b6020840152613a7860408501613818565b60408401526060840151915080821115613a9157600080fd5b613a9d858386016137d3565b6060840152613aae60808501613823565b6080840152613abf60a085016136e6565b60a0840152613ad060c08501613823565b60c084015260e0840151915080821115613ae957600080fd5b50613af68482850161382e565b60e083015250610100613b0b8482850161398e565b9082015292915050565b600082601f830112613b2657600080fd5b81516020613b36612f3a836136f1565b82815260a09283028501820192828201919087851115613b5557600080fd5b8387015b85811015613bdd5781818a031215613b715760008081fd5b613b79612e5d565b8151613b8481612a51565b815281860151613b9381612a0c565b81870152604082810151613ba68161314d565b90820152606082810151613bb98161314d565b90820152608082810151613bcc81612a0c565b908201528452928401928101613b59565b5090979650505050505050565b600082601f830112613bfb57600080fd5b81516020613c0b612f3a836136f1565b82815260c09283028501820192828201919087851115613c2a57600080fd5b8387015b85811015613bdd5781818a031215613c465760008081fd5b613c4e612ea2565b8151613c5981612a51565b815281860151613c6881612a51565b81870152604082810151613c7b81612a51565b90820152606082810151613c8e81612a51565b90820152608082810151613ca18161314d565b9082015260a082810151613cb481612a0c565b908201528452928401928101613c2e565b600082601f830112613cd657600080fd5b81516020613ce6612f3a836136f1565b82815260c09283028501820192828201919087851115613d0557600080fd5b8387015b85811015613bdd5781818a031215613d215760008081fd5b613d29612ea2565b8151613d3481612a51565b815281860151613d4381612a51565b81870152604082810151613d5681612a51565b90820152606082810151613d6981612a0c565b90820152608082810151613d7c8161314d565b9082015260a082810151613d8f81612a0c565b908201528452928401928101613d09565b60006101208284031215613db357600080fd5b613dbb612e7f565b905081516001600160401b0380821115613dd457600080fd5b613de085838601613a05565b8352613dee602085016136e6565b6020840152613dff60408501613823565b6040840152613e1060608501613823565b6060840152613e2160808501613823565b608084015260a0840151915080821115613e3a57600080fd5b613e4685838601613b15565b60a084015260c0840151915080821115613e5f57600080fd5b613e6b85838601613bea565b60c084015260e0840151915080821115613e8457600080fd5b613e9085838601613cc5565b60e084015261010091508184015181811115613eab57600080fd5b613eb7868287016137d3565b8385015250505092915050565b60008060408385031215613ed757600080fd5b613ee08361336a565b915060208301516001600160401b0380821115613efc57600080fd5b9084019060c08287031215613f1057600080fd5b613f18612ea2565b825182811115613f2757600080fd5b613f3388828601613da0565b825250613f42602084016136e6565b6020820152613f5360408401613818565b6040820152613f64606084016136e6565b6060820152608083015182811115613f7b57600080fd5b613f87888286016137d3565b608083015250613f9960a08401613818565b60a0820152809350505050925092905056fe68747470733a2f2f697066732e696f2f697066732f516d56616c69644861736848657265a2646970667358221220fa19d5991ef94793d4fa6e619faca983fc8a79e41798ab919ed5bb2312d2d66964736f6c63430008180033",
  "linkReferences": {},
  "deployedLinkReferences": {}
}