{
  "_format": "hh-sol-artifact-1",
  "contractName": "TestDLTWithHTS",
  "sourceName": "contracts/erc6960/TestDLTWithHTS.sol",
  "abi": [
    {
      "inputs": [
        {
          "internalType": "string",
          "name": "name",
          "type": "string"
        },
        {
          "internalType": "string",
          "name": "symbol",
          "type": "string"
        },
        {
          "internalType": "string",
          "name": "version",
          "type": "string"
        }
      ],
      "stateMutability": "payable",
      "type": "constructor"
    },
    {
      "inputs": [],
      "name": "ExpiredSignature",
      "type": "error"
    },
    {
      "inputs": [],
      "name": "InvalidSignature",
      "type": "error"
    },
    {
      "inputs": [
        {
          "internalType": "bytes32",
          "name": "s",
          "type": "bytes32"
        }
      ],
      "name": "InvalidSignatureS",
      "type": "error"
    },
    {
      "inputs": [],
      "name": "InvalidSigner",
      "type": "error"
    },
    {
      "anonymous": false,
      "inputs": [
        {
          "indexed": true,
          "internalType": "address",
          "name": "owner",
          "type": "address"
        },
        {
          "indexed": true,
          "internalType": "address",
          "name": "spender",
          "type": "address"
        },
        {
          "indexed": false,
          "internalType": "int64",
          "name": "mainId",
          "type": "int64"
        },
        {
          "indexed": false,
          "internalType": "int64",
          "name": "subId",
          "type": "int64"
        },
        {
          "indexed": false,
          "internalType": "uint256",
          "name": "amount",
          "type": "uint256"
        }
      ],
      "name": "Approval",
      "type": "event"
    },
    {
      "anonymous": false,
      "inputs": [
        {
          "indexed": true,
          "internalType": "address",
          "name": "spender",
          "type": "address"
        },
        {
          "indexed": true,
          "internalType": "address",
          "name": "operator",
          "type": "address"
        },
        {
          "indexed": false,
          "internalType": "bool",
          "name": "approved",
          "type": "bool"
        }
      ],
      "name": "ApprovalForAll",
      "type": "event"
    },
    {
      "anonymous": false,
      "inputs": [
        {
          "indexed": false,
          "internalType": "address",
          "name": "tokenAddress",
          "type": "address"
        },
        {
          "indexed": false,
          "internalType": "address",
          "name": "userAddress",
          "type": "address"
        }
      ],
      "name": "AssociatedToken",
      "type": "event"
    },
    {
      "anonymous": false,
      "inputs": [
        {
          "indexed": false,
          "internalType": "address",
          "name": "tokenAddress",
          "type": "address"
        },
        {
          "indexed": false,
          "internalType": "int64",
          "name": "amount",
          "type": "int64"
        },
        {
          "indexed": false,
          "internalType": "int64",
          "name": "newTotalSupply",
          "type": "int64"
        }
      ],
      "name": "BurnedToken",
      "type": "event"
    },
    {
      "anonymous": false,
      "inputs": [
        {
          "indexed": false,
          "internalType": "bool",
          "name": "",
          "type": "bool"
        },
        {
          "indexed": false,
          "internalType": "bytes",
          "name": "",
          "type": "bytes"
        }
      ],
      "name": "CallResponseEvent",
      "type": "event"
    },
    {
      "anonymous": false,
      "inputs": [
        {
          "indexed": false,
          "internalType": "address",
          "name": "tokenAddress",
          "type": "address"
        }
      ],
      "name": "CreatedToken",
      "type": "event"
    },
    {
      "anonymous": false,
      "inputs": [
        {
          "indexed": false,
          "internalType": "address",
          "name": "tokenAddress",
          "type": "address"
        },
        {
          "indexed": false,
          "internalType": "int64",
          "name": "amount",
          "type": "int64"
        },
        {
          "indexed": false,
          "internalType": "int64",
          "name": "newTotalSupply",
          "type": "int64"
        }
      ],
      "name": "MintedToken",
      "type": "event"
    },
    {
      "anonymous": false,
      "inputs": [
        {
          "indexed": true,
          "internalType": "address",
          "name": "sender",
          "type": "address"
        },
        {
          "indexed": true,
          "internalType": "address",
          "name": "recipient",
          "type": "address"
        },
        {
          "indexed": true,
          "internalType": "int64",
          "name": "mainId",
          "type": "int64"
        },
        {
          "indexed": false,
          "internalType": "int64",
          "name": "subId",
          "type": "int64"
        },
        {
          "indexed": false,
          "internalType": "uint256",
          "name": "amount",
          "type": "uint256"
        }
      ],
      "name": "Transfer",
      "type": "event"
    },
    {
      "anonymous": false,
      "inputs": [
        {
          "indexed": true,
          "internalType": "address",
          "name": "spender",
          "type": "address"
        },
        {
          "indexed": true,
          "internalType": "address",
          "name": "sender",
          "type": "address"
        },
        {
          "indexed": true,
          "internalType": "address",
          "name": "recipient",
          "type": "address"
        },
        {
          "indexed": false,
          "internalType": "int64[]",
          "name": "mainIds",
          "type": "int64[]"
        },
        {
          "indexed": false,
          "internalType": "int64[]",
          "name": "subIds",
          "type": "int64[]"
        },
        {
          "indexed": false,
          "internalType": "uint256[]",
          "name": "amounts",
          "type": "uint256[]"
        }
      ],
      "name": "TransferBatch",
      "type": "event"
    },
    {
      "anonymous": false,
      "inputs": [
        {
          "indexed": false,
          "internalType": "string",
          "name": "oldValue",
          "type": "string"
        },
        {
          "indexed": false,
          "internalType": "string",
          "name": "newValue",
          "type": "string"
        },
        {
          "indexed": true,
          "internalType": "int64",
          "name": "mainId",
          "type": "int64"
        }
      ],
      "name": "URI",
      "type": "event"
    },
    {
      "inputs": [],
      "name": "DOMAIN_SEPARATOR",
      "outputs": [
        {
          "internalType": "bytes32",
          "name": "",
          "type": "bytes32"
        }
      ],
      "stateMutability": "view",
      "type": "function"
    },
    {
      "inputs": [
        {
          "internalType": "address",
          "name": "sender",
          "type": "address"
        },
        {
          "internalType": "address",
          "name": "recipient",
          "type": "address"
        },
        {
          "internalType": "int64",
          "name": "mainId",
          "type": "int64"
        },
        {
          "internalType": "int64",
          "name": "subId",
          "type": "int64"
        },
        {
          "internalType": "uint256",
          "name": "amount",
          "type": "uint256"
        }
      ],
      "name": "allow",
      "outputs": [],
      "stateMutability": "nonpayable",
      "type": "function"
    },
    {
      "inputs": [
        {
          "internalType": "address",
          "name": "owner",
          "type": "address"
        },
        {
          "internalType": "address",
          "name": "spender",
          "type": "address"
        },
        {
          "internalType": "int64",
          "name": "mainId",
          "type": "int64"
        },
        {
          "internalType": "int64",
          "name": "subId",
          "type": "int64"
        }
      ],
      "name": "allowance",
      "outputs": [
        {
          "internalType": "uint256",
          "name": "",
          "type": "uint256"
        }
      ],
      "stateMutability": "view",
      "type": "function"
    },
    {
      "inputs": [
        {
          "internalType": "address",
          "name": "spender",
          "type": "address"
        },
        {
          "internalType": "int64",
          "name": "mainId",
          "type": "int64"
        },
        {
          "internalType": "int64",
          "name": "subId",
          "type": "int64"
        },
        {
          "internalType": "uint256",
          "name": "amount",
          "type": "uint256"
        }
      ],
      "name": "approve",
      "outputs": [
        {
          "internalType": "bool",
          "name": "",
          "type": "bool"
        }
      ],
      "stateMutability": "nonpayable",
      "type": "function"
    },
    {
      "inputs": [],
      "name": "associate",
      "outputs": [
        {
          "internalType": "uint256",
          "name": "responseCode",
          "type": "uint256"
        }
      ],
      "stateMutability": "nonpayable",
      "type": "function"
    },
    {
      "inputs": [
        {
          "internalType": "address",
          "name": "account",
          "type": "address"
        }
      ],
      "name": "associateAccount",
      "outputs": [
        {
          "internalType": "int256",
          "name": "responseCode",
          "type": "int256"
        }
      ],
      "stateMutability": "nonpayable",
      "type": "function"
    },
    {
      "inputs": [
        {
          "internalType": "address[]",
          "name": "accounts",
          "type": "address[]"
        },
        {
          "internalType": "int64[]",
          "name": "mainIds",
          "type": "int64[]"
        },
        {
          "internalType": "int64[]",
          "name": "subIds",
          "type": "int64[]"
        }
      ],
      "name": "balanceOfBatch",
      "outputs": [
        {
          "internalType": "uint256[]",
          "name": "",
          "type": "uint256[]"
        }
      ],
      "stateMutability": "view",
      "type": "function"
    },
    {
      "inputs": [
        {
          "internalType": "address",
          "name": "account",
          "type": "address"
        },
        {
          "internalType": "int64",
          "name": "mainId",
          "type": "int64"
        },
        {
          "internalType": "int64",
          "name": "subId",
          "type": "int64"
        },
        {
          "internalType": "uint256",
          "name": "amount",
          "type": "uint256"
        }
      ],
      "name": "burn",
      "outputs": [],
      "stateMutability": "nonpayable",
      "type": "function"
    },
    {
      "inputs": [
        {
          "internalType": "int64",
          "name": "mainId",
          "type": "int64"
        }
      ],
      "name": "getSubIds",
      "outputs": [
        {
          "internalType": "int64[]",
          "name": "",
          "type": "int64[]"
        }
      ],
      "stateMutability": "view",
      "type": "function"
    },
    {
      "inputs": [
        {
          "internalType": "address",
          "name": "owner",
          "type": "address"
        },
        {
          "internalType": "address",
          "name": "operator",
          "type": "address"
        }
      ],
      "name": "isApprovedForAll",
      "outputs": [
        {
          "internalType": "bool",
          "name": "",
          "type": "bool"
        }
      ],
      "stateMutability": "view",
      "type": "function"
    },
    {
      "inputs": [
        {
          "internalType": "address",
          "name": "account",
          "type": "address"
        },
        {
          "internalType": "uint256",
          "name": "amount",
          "type": "uint256"
        }
      ],
      "name": "mintMainAsset",
      "outputs": [],
      "stateMutability": "payable",
      "type": "function"
    },
    {
      "inputs": [
        {
          "internalType": "address",
          "name": "account",
          "type": "address"
        },
        {
          "internalType": "int64",
          "name": "mainId",
          "type": "int64"
        },
        {
          "internalType": "int64",
          "name": "subId",
          "type": "int64"
        },
        {
          "internalType": "uint256",
          "name": "amount",
          "type": "uint256"
        }
      ],
      "name": "mintSubAsset",
      "outputs": [],
      "stateMutability": "nonpayable",
      "type": "function"
    },
    {
      "inputs": [],
      "name": "name",
      "outputs": [
        {
          "internalType": "string",
          "name": "",
          "type": "string"
        }
      ],
      "stateMutability": "view",
      "type": "function"
    },
    {
      "inputs": [
        {
          "internalType": "address",
          "name": "owner",
          "type": "address"
        }
      ],
      "name": "nonces",
      "outputs": [
        {
          "internalType": "uint256",
          "name": "",
          "type": "uint256"
        }
      ],
      "stateMutability": "view",
      "type": "function"
    },
    {
      "inputs": [
        {
          "internalType": "address",
          "name": "owner",
          "type": "address"
        },
        {
          "internalType": "address",
          "name": "spender",
          "type": "address"
        },
        {
          "internalType": "int64",
          "name": "mainId",
          "type": "int64"
        },
        {
          "internalType": "int64",
          "name": "subId",
          "type": "int64"
        },
        {
          "internalType": "uint256",
          "name": "amount",
          "type": "uint256"
        },
        {
          "internalType": "uint256",
          "name": "deadline",
          "type": "uint256"
        },
        {
          "internalType": "uint8",
          "name": "v",
          "type": "uint8"
        },
        {
          "internalType": "bytes32",
          "name": "r",
          "type": "bytes32"
        },
        {
          "internalType": "bytes32",
          "name": "s",
          "type": "bytes32"
        }
      ],
      "name": "permit",
      "outputs": [],
      "stateMutability": "nonpayable",
      "type": "function"
    },
    {
      "inputs": [
        {
          "internalType": "address",
          "name": "token",
          "type": "address"
        },
        {
          "internalType": "bytes",
          "name": "encodedFunctionSelector",
          "type": "bytes"
        }
      ],
      "name": "redirectForToken",
      "outputs": [
        {
          "internalType": "int256",
          "name": "responseCode",
          "type": "int256"
        },
        {
          "internalType": "bytes",
          "name": "response",
          "type": "bytes"
        }
      ],
      "stateMutability": "nonpayable",
      "type": "function"
    },
    {
      "inputs": [
        {
          "internalType": "address",
          "name": "sender",
          "type": "address"
        },
        {
          "internalType": "address",
          "name": "recipient",
          "type": "address"
        },
        {
          "internalType": "int64[]",
          "name": "mainIds",
          "type": "int64[]"
        },
        {
          "internalType": "int64[]",
          "name": "subIds",
          "type": "int64[]"
        },
        {
          "internalType": "uint256[]",
          "name": "amounts",
          "type": "uint256[]"
        },
        {
          "internalType": "bytes",
          "name": "data",
          "type": "bytes"
        }
      ],
      "name": "safeBatchTransferFrom",
      "outputs": [
        {
          "internalType": "bool",
          "name": "",
          "type": "bool"
        }
      ],
      "stateMutability": "nonpayable",
      "type": "function"
    },
    {
      "inputs": [
        {
          "internalType": "address",
          "name": "sender",
          "type": "address"
        },
        {
          "internalType": "address",
          "name": "recipient",
          "type": "address"
        },
        {
          "internalType": "int64",
          "name": "mainId",
          "type": "int64"
        },
        {
          "internalType": "int64",
          "name": "subId",
          "type": "int64"
        },
        {
          "internalType": "uint256",
          "name": "amount",
          "type": "uint256"
        }
      ],
      "name": "safeTransferFrom",
      "outputs": [
        {
          "internalType": "bool",
          "name": "",
          "type": "bool"
        }
      ],
      "stateMutability": "nonpayable",
      "type": "function"
    },
    {
      "inputs": [
        {
          "internalType": "address",
          "name": "sender",
          "type": "address"
        },
        {
          "internalType": "address",
          "name": "recipient",
          "type": "address"
        },
        {
          "internalType": "int64",
          "name": "mainId",
          "type": "int64"
        },
        {
          "internalType": "int64",
          "name": "subId",
          "type": "int64"
        },
        {
          "internalType": "uint256",
          "name": "amount",
          "type": "uint256"
        },
        {
          "internalType": "bytes",
          "name": "data",
          "type": "bytes"
        }
      ],
      "name": "safeTransferFrom",
      "outputs": [
        {
          "internalType": "bool",
          "name": "",
          "type": "bool"
        }
      ],
      "stateMutability": "nonpayable",
      "type": "function"
    },
    {
      "inputs": [
        {
          "internalType": "address",
          "name": "operator",
          "type": "address"
        },
        {
          "internalType": "bool",
          "name": "approved",
          "type": "bool"
        }
      ],
      "name": "setApprovalForAll",
      "outputs": [],
      "stateMutability": "nonpayable",
      "type": "function"
    },
    {
      "inputs": [
        {
          "internalType": "address",
          "name": "account",
          "type": "address"
        },
        {
          "internalType": "int64",
          "name": "mainId",
          "type": "int64"
        },
        {
          "internalType": "int64",
          "name": "subId",
          "type": "int64"
        }
      ],
      "name": "subBalanceOf",
      "outputs": [
        {
          "internalType": "uint256",
          "name": "",
          "type": "uint256"
        }
      ],
      "stateMutability": "view",
      "type": "function"
    },
    {
      "inputs": [
        {
          "internalType": "address",
          "name": "owner",
          "type": "address"
        },
        {
          "internalType": "int64",
          "name": "mainId",
          "type": "int64"
        }
      ],
      "name": "subIdBalanceOf",
      "outputs": [
        {
          "internalType": "uint256",
          "name": "totalBalance",
          "type": "uint256"
        }
      ],
      "stateMutability": "view",
      "type": "function"
    },
    {
      "inputs": [],
      "name": "symbol",
      "outputs": [
        {
          "internalType": "string",
          "name": "",
          "type": "string"
        }
      ],
      "stateMutability": "view",
      "type": "function"
    },
    {
      "inputs": [],
      "name": "totalMainIds",
      "outputs": [
        {
          "internalType": "uint256",
          "name": "",
          "type": "uint256"
        }
      ],
      "stateMutability": "view",
      "type": "function"
    },
    {
      "inputs": [
        {
          "internalType": "int64",
          "name": "mainId",
          "type": "int64"
        }
      ],
      "name": "totalMainSupply",
      "outputs": [
        {
          "internalType": "uint256",
          "name": "",
          "type": "uint256"
        }
      ],
      "stateMutability": "view",
      "type": "function"
    },
    {
      "inputs": [
        {
          "internalType": "int64",
          "name": "mainId",
          "type": "int64"
        }
      ],
      "name": "totalSubIds",
      "outputs": [
        {
          "internalType": "uint256",
          "name": "",
          "type": "uint256"
        }
      ],
      "stateMutability": "view",
      "type": "function"
    },
    {
      "inputs": [
        {
          "internalType": "int64",
          "name": "mainId",
          "type": "int64"
        },
        {
          "internalType": "int64",
          "name": "subId",
          "type": "int64"
        }
      ],
      "name": "totalSubSupply",
      "outputs": [
        {
          "internalType": "uint256",
          "name": "",
          "type": "uint256"
        }
      ],
      "stateMutability": "view",
      "type": "function"
    },
    {
      "inputs": [
        {
          "internalType": "address",
          "name": "sender",
          "type": "address"
        },
        {
          "internalType": "address",
          "name": "recipient",
          "type": "address"
        },
        {
          "internalType": "int64",
          "name": "mainId",
          "type": "int64"
        },
        {
          "internalType": "int64",
          "name": "subId",
          "type": "int64"
        },
        {
          "internalType": "uint256",
          "name": "amount",
          "type": "uint256"
        }
      ],
      "name": "transfer",
      "outputs": [],
      "stateMutability": "nonpayable",
      "type": "function"
    },
    {
      "inputs": [
        {
          "internalType": "address",
          "name": "token",
          "type": "address"
        },
        {
          "internalType": "address",
          "name": "from",
          "type": "address"
        },
        {
          "internalType": "address",
          "name": "to",
          "type": "address"
        },
        {
          "internalType": "uint256",
          "name": "amount",
          "type": "uint256"
        }
      ],
      "name": "transferFrom",
      "outputs": [
        {
          "internalType": "int64",
          "name": "responseCode",
          "type": "int64"
        }
      ],
      "stateMutability": "nonpayable",
      "type": "function"
    },
    {
      "inputs": [
        {
          "internalType": "address",
          "name": "sender",
          "type": "address"
        },
        {
          "internalType": "address",
          "name": "recipient",
          "type": "address"
        },
        {
          "internalType": "int64",
          "name": "mainId",
          "type": "int64"
        },
        {
          "internalType": "int64",
          "name": "subId",
          "type": "int64"
        },
        {
          "internalType": "uint256",
          "name": "amount",
          "type": "uint256"
        }
      ],
      "name": "transferFrom",
      "outputs": [
        {
          "internalType": "bool",
          "name": "",
          "type": "bool"
        }
      ],
      "stateMutability": "nonpayable",
      "type": "function"
    },
    {
      "inputs": [
        {
          "internalType": "address",
          "name": "token",
          "type": "address"
        },
        {
          "internalType": "address",
          "name": "from",
          "type": "address"
        },
        {
          "internalType": "address",
          "name": "to",
          "type": "address"
        },
        {
          "internalType": "uint256",
          "name": "serialNumber",
          "type": "uint256"
        }
      ],
      "name": "transferFromNFT",
      "outputs": [
        {
          "internalType": "int64",
          "name": "responseCode",
          "type": "int64"
        }
      ],
      "stateMutability": "nonpayable",
      "type": "function"
    }
  ],
  "bytecode": "0x60e060405260405162004e2438038062004e24833981016040819052620000269162000917565b82818184818160036200003a838262000a39565b50600462000049828262000a39565b50506006602081815260017f54cdd369e4e8a8515e52ca72ec816c2101831ad1f18bf44102ed171459c9b4f85560027f3e5fec24aa4dc4e5aee2e025e51e1392c72a2500577559fae9665c6d52bd6a315560047f8819ef417987f8ae7a81f42cdfb18815282fe989326fbff903d13cf0e03ace2981905560087f75f96ab15d697e93042dc45b5c896c4b27e89bb6eaf39475c5c371cb2513f7d25560107fc5069e24aaadb2addc3e52e868fcf3f4f8acf5a87e24300992fd4540c2a87eed557fbfd358e93f18da3ed276c3afdbdba00b8f0b6008a03476a6a86bd6320ee6938b829055600092835260407f697b2bd7bb2984c4e0dc14c79c987d37818484a62958b9c45a0e8b962f20650f81905580518084018252848152815183815260a08101909252309550936103e893909283929182015b62000187620007ec565b8152602001906001900390816200017d579050509050620001c3600060066000604051806020016040528060008152506200048060201b60201c565b81600081518110620001d957620001d962000b1b565b6020026020010181905250620002086002600060405180602001604052806000815250620004c360201b60201c565b816001815181106200021e576200021e62000b1b565b60200260200101819052506200024d6004600060405180602001604052806000815250620004c360201b60201c565b8160028151811062000263576200026362000b1b565b6020026020010181905250620002926003600060405180602001604052806000815250620004c360201b60201c565b81600381518110620002a857620002a862000b1b565b602090810291909101810191909152604080516060808201835260008083526001600160a01b038a16838601819052627a1200848601528451610120810186528d81529586018c905293850193909352830187905260016080840152600786900b60a084015284151560c084015260e083018490526101008301819052919080620003338362000504565b909250905060168214620003975760405162461bcd60e51b815260206004820152602160248201527f4572726f72206372656174696e67204e6f6e2046756e6769626c6520546f6b656044820152603760f91b606482015260840160405180910390fd5b600780546001600160a01b0319166001600160a01b0383169081179091556040519081527f7bb17726df1f3adee8aa00ba8e8bc5d6f182af3bbf77604639cb7f008dd3b4ed9060200160405180910390a150508a516020808d01919091206080528a518b82012060a0526040516200041b9a5001975062000b319650505050505050565b60408051808303601f1901815282825280516020918201206080805160a0805185880194909452868601919091526060860192909252469085015230818501528251808503909101815260c0938401909252815191012090525062000e4c9350505050565b6200048a620007ec565b6040518060400160405280620004a787876200063260201b60201c565b8152602001620004b885856200067c565b905295945050505050565b620004cd620007ec565b6040518060400160405280620004e986620007a760201b60201c565b8152602001620004fa85856200067c565b9052949350505050565b600080828061010001516000015160070b60001480156200052f57506101008101516040015160070b155b1562000546576101008101516276a7006040909101525b6000806101676001600160a01b03163463ea83f29360e01b8860405160240162000571919062000cbf565b60408051601f198184030181529181526020820180516001600160e01b03166001600160e01b0319909416939093179092529051620005b1919062000ddf565b60006040518083038185875af1925050503d8060008114620005f0576040519150601f19603f3d011682016040523d82523d6000602084013e620005f5565b606091505b5091509150816200060a576015600062000620565b8080602001905181019062000620919062000dfd565b60039190910b97909650945050505050565b60006200065a8360068111156200064d576200064d62000b05565b600160ff9091161b821790565b9050620006758260068111156200064d576200064d62000b05565b9392505050565b620006c36040518060a0016040528060001515815260200160006001600160a01b03168152602001606081526020016060815260200160006001600160a01b031681525090565b6000836004811115620006da57620006da62000b05565b03620006ea5760018152620007a1565b600183600481111562000701576200070162000b05565b036200071e576005546001600160a01b03166020820152620007a1565b600283600481111562000735576200073562000b05565b03620007485760408101829052620007a1565b60038360048111156200075f576200075f62000b05565b03620007725760608101829052620007a1565b600483600481111562000789576200078962000b05565b03620007a1576005546001600160a01b031660808201525b92915050565b600060066000836006811115620007c257620007c262000b05565b6006811115620007d657620007d662000b05565b8152602001908152602001600020549050919050565b604051806040016040528060008152602001620008456040518060a0016040528060001515815260200160006001600160a01b03168152602001606081526020016060815260200160006001600160a01b031681525090565b905290565b634e487b7160e01b600052604160045260246000fd5b60005b838110156200087d57818101518382015260200162000863565b50506000910152565b600082601f8301126200089857600080fd5b81516001600160401b0380821115620008b557620008b56200084a565b604051601f8301601f19908116603f01168101908282118183101715620008e057620008e06200084a565b81604052838152866020858801011115620008fa57600080fd5b6200090d84602083016020890162000860565b9695505050505050565b6000806000606084860312156200092d57600080fd5b83516001600160401b03808211156200094557600080fd5b620009538783880162000886565b945060208601519150808211156200096a57600080fd5b620009788783880162000886565b935060408601519150808211156200098f57600080fd5b506200099e8682870162000886565b9150509250925092565b600181811c90821680620009bd57607f821691505b602082108103620009de57634e487b7160e01b600052602260045260246000fd5b50919050565b601f82111562000a34576000816000526020600020601f850160051c8101602086101562000a0f5750805b601f850160051c820191505b8181101562000a305782815560010162000a1b565b5050505b505050565b81516001600160401b0381111562000a555762000a556200084a565b62000a6d8162000a668454620009a8565b84620009e4565b602080601f83116001811462000aa5576000841562000a8c5750858301515b600019600386901b1c1916600185901b17855562000a30565b600085815260208120601f198616915b8281101562000ad65788860151825594840194600190910190840162000ab5565b508582101562000af55787850151600019600388901b60f8161c191681555b5050505050600190811b01905550565b634e487b7160e01b600052602160045260246000fd5b634e487b7160e01b600052603260045260246000fd5b6c08a92a06e626488dedac2d2dc5609b1b81526b1cdd1c9a5b99c81b985b594b60a21b600d8201526e1cdd1c9a5b99c81d995c9cda5bdb8b608a1b60198201526f1d5a5b9d0c8d4d8818da185a5b92590b60821b60288201527f6164647265737320766572696679696e67436f6e7472616374000000000000006038820152602960f81b605182015260520190565b6000815180845262000bda81602086016020860162000860565b601f01601f19169290920160200192915050565b600082825180855260208086019550808260051b84010181860160005b8481101562000cb257858303601f1901895281518051845284015160408585018190528151151581860152818601516001600160a01b039081166060808801919091529183015160a0608080890182905291939092909162000c7160e08a018662000bc0565b92860151898403603f1901858b015292945062000c8f858462000bc0565b9501511660c0979097019690965250509884019892509083019060010162000c0b565b5090979650505050505050565b6020815260008251610160602084015262000cdf61018084018262000bc0565b90506020840151601f198085840301604086015262000cff838362000bc0565b92506040860151915062000d1e60608601836001600160a01b03169052565b606086015191508085840301608086015262000d3b838362000bc0565b92506080860151915062000d5360a086018315159052565b60a0860151915062000d6a60c086018360070b9052565b60c086015180151560e0870152915060e0860151915061010081868503018187015262000d98848462000bee565b908701518051600790810b61012089015260208201516001600160a01b03166101408901526040820151900b610160880152909350915062000dd79050565b509392505050565b6000825162000df381846020870162000860565b9190910192915050565b6000806040838503121562000e1157600080fd5b82518060030b811462000e2357600080fd5b60208401519092506001600160a01b038116811462000e4157600080fd5b809150509250929050565b60805160a05160c051613fa762000e7d600039600081816103aa0152611ad901526000505060005050613fa76000f3fe6080604052600436106101985760003560e01c806363b12e08116100e25780639b23d3d9116100855780639b23d3d914610539578063a22cb46514610559578063a8e9710914610579578063c8e254c41461058c578063de60bc74146105cc578063e43bdfe1146105ec578063e985e9c51461060c578063ed99bc0e1461062c57600080fd5b806363b12e081461041c57806365fd95ba1461044c5780637541f8de146104615780637ecebe001461048157806383eddad0146104b75780639040fb13146104d757806395d89b41146104f7578063965e2e121461050c57600080fd5b80631e0e2d461161014a5780631e0e2d46146102e957806320fd1d7c146103095780632149b25e146103395780632eda03ab1461035b5780633523dc6c1461037b5780633644e5151461039b5780635f3d6774146103ce578063618dc65e146103ee57600080fd5b80630333ca9c1461019d57806305ecb790146101d0578063069ed1321461022257806306fdde031461024f5780630a754de61461027157806312849f011461028657806315dacbea146102b6575b600080fd5b3480156101a957600080fd5b506101bd6101b8366004612972565b61064c565b6040519081526020015b60405180910390f35b3480156101dc57600080fd5b506101bd6101eb36600461299e565b600791820b60009081526001602090815260408083206001600160a01b039690961683529481528482209290930b81529152205490565b34801561022e57600080fd5b5061024261023d3660046129e9565b6106b3565b6040516101c79190612a45565b34801561025b57600080fd5b5061026461073d565b6040516101c79190612aa8565b34801561027d57600080fd5b506101bd6107cb565b34801561029257600080fd5b506102a66102a1366004612b47565b610885565b60405190151581526020016101c7565b3480156102c257600080fd5b506102d66102d1366004612c2e565b6109f5565b60405160079190910b81526020016101c7565b3480156102f557600080fd5b506101bd610304366004612c7f565b610ad8565b34801561031557600080fd5b506101bd6103243660046129e9565b60070b6000908152600a602052604090205490565b34801561034557600080fd5b50610359610354366004612cb8565b610b89565b005b34801561036757600080fd5b50610359610376366004612cf9565b610b9b565b34801561038757600080fd5b506102a6610396366004612cf9565b610baf565b3480156103a757600080fd5b507f00000000000000000000000000000000000000000000000000000000000000006101bd565b3480156103da57600080fd5b506102a66103e9366004612cb8565b610bda565b3480156103fa57600080fd5b5061040e610409366004612eaf565b610c43565b6040516101c7929190612efe565b34801561042857600080fd5b506101bd6104373660046129e9565b60070b60009081526009602052604090205490565b34801561045857600080fd5b506008546101bd565b34801561046d57600080fd5b5061035961047c366004612cf9565b610d61565b34801561048d57600080fd5b506101bd61049c366004612972565b6001600160a01b03166000908152600e602052604090205490565b3480156104c357600080fd5b506102a66104d2366004612cf9565b610d6e565b3480156104e357600080fd5b506102a66104f2366004612f1f565b610d7d565b34801561050357600080fd5b50610264610d9b565b34801561051857600080fd5b5061052c610527366004612fae565b610da8565b6040516101c79190613078565b34801561054557600080fd5b506102d6610554366004612c2e565b610f15565b34801561056557600080fd5b50610359610574366004613099565b610f45565b6103596105873660046130c7565b610f54565b34801561059857600080fd5b506101bd6105a73660046130f3565b600791820b6000908152600b602090815260408083209390940b825291909152205490565b3480156105d857600080fd5b506103596105e7366004612cb8565b610f5e565b3480156105f857600080fd5b506101bd610607366004613111565b610f6a565b34801561061857600080fd5b506102a661062736600461316d565b610f81565b34801561063857600080fd5b5061035961064736600461319b565b610fad565b6007546000906106669083906001600160a01b031661118b565b6007546040519192507f486bcb01e604496e2a4caa3ae8178d59ffedc37c140f1d4ad838b06cb1286547916106a6916001600160a01b0316908590613239565b60405180910390a1919050565b600781900b6000908152600c602090815260409182902080548351818402810184019094528084526060939283018282801561073157602002820191906000526020600020906000905b825461010083900a900460070b81526020600f83018190049384019360010360089093019290920291018084116106fd5790505b50505050509050919050565b6003805461074a90613253565b80601f016020809104026020016040519081016040528092919081815260200182805461077690613253565b80156107c35780601f10610798576101008083540402835291602001916107c3565b820191906000526020600020905b8154815290600101906020018083116107a657829003601f168201915b505050505081565b6007546040805163053aa6f360e11b815290516000926001600160a01b031691630a754de6916004808301926020929190829003018187875af1158015610816573d6000803e3d6000fd5b505050506040513d601f19601f8201168201806040525081019061083a919061328d565b6007546040519192507f486bcb01e604496e2a4caa3ae8178d59ffedc37c140f1d4ad838b06cb12865479161087a916001600160a01b0316903390613239565b60405180910390a190565b6000336108928c82611268565b6108fe5760405162461bcd60e51b815260206004820152603260248201527f444c543a2063616c6c6572206973206e6f7420746f6b656e206f776e6572206f6044820152711c88185c1c1c9bdd995908199bdc88185b1b60721b60648201526084015b60405180910390fd5b6109e38c8c8c8c80806020026020016040519081016040528093929190818152602001838360200280828437600081840152601f19601f820116905080830192505050505050508b8b8080602002602001604051908101604052809392919081815260200183836020028082843760009201919091525050604080516020808f0282810182019093528e82529093508e92508d91829185019084908082843760009201919091525050604080516020601f8e018190048102820181019092528c815292508c91508b908190840183828082843760009201919091525061129692505050565b5060019b9a5050505050505050505050565b60008060006101676001600160a01b03166315dacbea60e01b88888888604051602401610a2594939291906132a6565b60408051601f198184030181529181526020820180516001600160e01b03166001600160e01b0319909416939093179092529051610a6391906132d0565b6000604051808303816000865af19150503d8060008114610aa0576040519150601f19603f3d011682016040523d82523d6000602084013e610aa5565b606091505b509150915081610ab6576015610aca565b80806020019051810190610aca91906132fe565b60030b979650505050505050565b6000805b600783900b6000908152600c6020526040902054811015610b8157600783900b6000908152600c60205260408120805483908110610b1c57610b1c613319565b60009182526020808320600483040154600788810b85526001835260408086206001600160a01b038c168752845280862060039095166008026101000a909204900b8085529290915290912054909150610b769084613345565b925050600101610adc565b505b92915050565b610b958484848461159f565b50505050565b610ba885858585856115ab565b5050505050565b6000610bce8686868686604051806020016040528060008152506116ef565b50600195945050505050565b6000336001600160a01b038616819003610c365760405162461bcd60e51b815260206004820152601e60248201527f444c543a20617070726f76616c20746f2063757272656e74206f776e6572000060448201526064016108f5565b610bce81878787876115ab565b600060606000806101676001600160a01b031663618dc65e60e01b8787604051602401610c71929190613358565b60408051601f198184030181529181526020820180516001600160e01b03166001600160e01b0319909416939093179092529051610caf91906132d0565b6000604051808303816000865af19150503d8060008114610cec576040519150601f19603f3d011682016040523d82523d6000602084013e610cf1565b606091505b50915091507f4af4780e06fe8cb9df64b0794fa6f01399af979175bb988e35e0e57e594567bc8282604051610d2792919061337c565b60405180910390a181610d4b57601560405180602001604052806000815250610d4f565b6016815b60039190910b97909650945050505050565b610ba88585858585611719565b6000610bce86868686866118b1565b6000610d8d8787878787876116ef565b5060015b9695505050505050565b6004805461074a90613253565b60608584148015610db857508582145b610e1b5760405162461bcd60e51b815260206004820152602e60248201527f444c543a206163636f756e74732c206d61696e49647320616e6420696473206c60448201526d0cadccee8d040dad2e6dac2e8c6d60931b60648201526084016108f5565b6000866001600160401b03811115610e3557610e35612d5d565b604051908082528060200260200182016040528015610e5e578160200160208202803683370190505b50905060005b87811015610f0957610ee4898983818110610e8157610e81613319565b9050602002016020810190610e969190612972565b888884818110610ea857610ea8613319565b9050602002016020810190610ebd91906129e9565b878785818110610ecf57610ecf613319565b90506020020160208101906101eb91906129e9565b828281518110610ef657610ef6613319565b6020908102919091010152600101610e64565b50979650505050505050565b60008060006101676001600160a01b0316639b23d3d960e01b88888888604051602401610a2594939291906132a6565b610f503383836118e2565b5050565b610f5082826119a7565b610b9584848484611a4d565b6000610f7885858585611a59565b95945050505050565b6001600160a01b0391821660009081526020818152604080832093909416825291909152205460ff1690565b83421115610fce5760405163df4cc36d60e01b815260040160405180910390fd5b6000610fd98a611a9b565b905060006040516020016110a790660a0cae4dad2e8560cb1b81526d1859191c995cdcc81bdddb995c8b60921b60078201526f1859191c995cdcc81cdc195b99195c8b60821b60158201526c1a5b9d0d8d081b585a5b92590b609a1b60258201526b1a5b9d0d8d081cdd5892590b60a21b60328201526e1d5a5b9d0c8d4d88185b5bdd5b9d0b608a1b603e8201526d1d5a5b9d0c8d4d881b9bdb98d94b60921b604d8201526f75696e7432353620646561646c696e6560801b605b820152602960f81b606b820152606c0190565b60408051601f198184030181528282528051602091820120908301526001600160a01b03808e16918301919091528b16606082015260078a810b608083015289900b60a082015260c0810188905260e08101839052610100810187905261012001604051602081830303815290604052805190602001209050600061112b82611acc565b9050600061113b82888888611b10565b90508c6001600160a01b0316816001600160a01b03161461116f57604051638baa579f60e01b815260040160405180910390fd5b61117c8d8d8d8d8d6115ab565b50505050505050505050505050565b60008060006101676001600160a01b03166349146bde60e01b86866040516024016111b7929190613239565b60408051601f198184030181529181526020820180516001600160e01b03166001600160e01b03199094169390931790925290516111f591906132d0565b6000604051808303816000865af19150503d8060008114611232576040519150601f19603f3d011682016040523d82523d6000602084013e611237565b606091505b50915091508161124857601561125c565b8080602001905181019061125c91906132fe565b60030b95945050505050565b6000816001600160a01b0316836001600160a01b0316148061128f575061128f8383610f81565b9392505050565b825184511480156112a8575081518451145b61130d5760405162461bcd60e51b815260206004820152603060248201527f444c543a206d61696e4964732c2073756249647320616e6420616d6f756e747360448201526f040d8cadccee8d040dad2e6dac2e8c6d60831b60648201526084016108f5565b6001600160a01b0385166113335760405162461bcd60e51b81526004016108f590613397565b3360005b855181101561151257600086828151811061135457611354613319565b60200260200101519050600086838151811061137257611372613319565b60200260200101519050600086848151811061139057611390613319565b602002602001015190506000600160008560070b60070b815260200190815260200160002060008d6001600160a01b03166001600160a01b0316815260200190815260200160002060008460070b60070b81526020019081526020016000205490506114128c8c86868660405180602001604052806000815250505050505050565b818110156114325760405162461bcd60e51b81526004016108f5906133d8565b818103600160008660070b60070b815260200190815260200160002060008e6001600160a01b03166001600160a01b0316815260200190815260200160002060008560070b60070b81526020019081526020016000208190555081600160008660070b60070b815260200190815260200160002060008d6001600160a01b03166001600160a01b0316815260200190815260200160002060008560070b60070b815260200190815260200160002060008282546114ef9190613345565b909155505060408051602081019091526000905250505050806001019050611337565b50856001600160a01b0316876001600160a01b0316826001600160a01b03167f3d3612aedbab64ec845a17d1508b936b04c073ee96a02b84c355a7eb025a18d28888886040516115649392919061341e565b60405180910390a461157a878787878787611bd4565b6115965760405162461bcd60e51b81526004016108f590613457565b50505050505050565b610b9584848484611cd6565b6001600160a01b03851661160c5760405162461bcd60e51b815260206004820152602260248201527f444c543a20617070726f76652066726f6d20746865207a65726f206164647265604482015261737360f01b60648201526084016108f5565b6001600160a01b0384166116625760405162461bcd60e51b815260206004820181905260248201527f444c543a20617070726f766520746f20746865207a65726f206164647265737360448201526064016108f5565b6001600160a01b038581166000818152600260209081526040808320948916808452948252808320600789810b8086529184528285209089900b808652908452938290208790558151908152918201929092529081018490527f20228d921cee20e1bee39b210de025b31c291c9a9eb96925595c91db3db75c329060600160405180910390a35050505050565b336116fa8782611268565b61170b5761170b8782878787611e6b565b611596878787878787611ee3565b6001600160a01b03851661177b5760405162461bcd60e51b815260206004820152602360248201527f444c543a207472616e736665722066726f6d20746865207a65726f206164647260448201526265737360e81b60648201526084016108f5565b6001600160a01b0384166117a15760405162461bcd60e51b81526004016108f590613397565b6040805160208082018352600091829052600786810b8352600182528383206001600160a01b038a16845282528383209086900b8352905220548111156117fa5760405162461bcd60e51b81526004016108f5906133d8565b600783810b60009081526001602090815260408083206001600160a01b03808b1685528184528285209588900b808652958452828520805488900390558916845282528083209383529290529081208054839290611859908490613345565b909155505060408051600784810b82526020820184905285900b916001600160a01b038088169290891691600080516020613f2e833981519152910160405180910390a4604080516020810190915260009052610ba8565b336118bc8682611268565b6118cd576118cd8682868686611e6b565b6118da8686868686611719565b505050505050565b816001600160a01b0316836001600160a01b03160361193c5760405162461bcd60e51b815260206004820152601660248201527522262a1d1030b8383937bb32903a379031b0b63632b960511b60448201526064016108f5565b6001600160a01b0383811660008181526020818152604080832094871680845294825291829020805460ff191686151590811790915591519182527f17307eab39ab6107e8899845ad3d59bd9653f200f220920489ca2b5937696c31910160405180910390a3505050565b6001600160a01b0382166119f15760405162461bcd60e51b8152602060048201526011602482015270125b9d985b1a5908149958da5c1a595b9d607a1b60448201526064016108f5565b60008111611a325760405162461bcd60e51b815260206004820152600e60248201526d125b9d985b1a5908105b5bdd5b9d60921b60448201526064016108f5565b6000611a3d83611f1a565b90506001610b958483838661159f565b610b958484848461209d565b6001600160a01b039384166000908152600260209081526040808320959096168252938452848120600793840b825284528481209190920b8252909152205490565b6001600160a01b0381166000908152600e60205260408120805491829190611ac2836134a3565b9190505550919050565b60405161190160f01b81527f000000000000000000000000000000000000000000000000000000000000000060028201526022810182905260429020600090610b83565b60006fa2a8918ca85bafe22016d0b997e4df60600160ff1b03821115611b4c57604051635682f3bf60e01b8152600481018390526024016108f5565b6040805160008082526020820180845288905260ff871692820192909252606081018590526080810184905260019060a0016020604051602081039080840390855afa158015611ba0573d6000803e3d6000fd5b5050604051601f1901519150506001600160a01b038116610f7857604051632057875960e21b815260040160405180910390fd5b60006001600160a01b0386163b15611cce576040516383fbceb960e01b81526001600160a01b038716906383fbceb990611c1c9033908b908a908a908a908a906004016134bc565b6020604051808303816000875af1925050508015611c57575060408051601f3d908101601f19168201909252611c549181019061352f565b60015b611cb4573d808015611c85576040519150601f19603f3d011682016040523d82523d6000602084013e611c8a565b606091505b508051600003611cac5760405162461bcd60e51b81526004016108f590613457565b805181602001fd5b6001600160e01b0319166383fbceb960e01b149050610d91565b506001610d91565b611cdf8361226c565b611d1e5760405162461bcd60e51b815260206004820152601060248201526f151bdad95b88139bdd08135a5b9d195960821b60448201526064016108f5565b600783900b6000908152600a60205260408120549003611d4c57600860008154611d47906134a3565b909155505b600783810b6000908152600b602090815260408083209386900b8352929052908120549003611dff57600783900b60009081526009602052604081208054909190611d96906134a3565b90915550600783810b6000908152600c602090815260408083208054600d84528285209588900b8552948352908320849055600184018155825290206004820401805460039092166008026101000a6001600160401b0381810219909316928516029190911790555b600783900b6000908152600a602052604081208054839290611e22908490613345565b9091555050600783810b6000908152600b602090815260408083209386900b83529290529081208054839290611e59908490613345565b90915550610b95905084848484612292565b6000611e7986868686611a59565b905060001981146118da5781811015611ed45760405162461bcd60e51b815260206004820152601b60248201527f444c543a20696e73756666696369656e7420616c6c6f77616e6365000000000060448201526064016108f5565b6118da868686868686036115ab565b611ef08686868686611719565b611efe8686868686866123d1565b6118da5760405162461bcd60e51b81526004016108f590613457565b604080516001808252818301909252600091829190816020015b6060815260200190600190039081611f34579050509050604051806060016040528060248152602001613f4e6024913981600081518110611f7757611f77613319565b602090810291909101015260075460009081908190611fa0906001600160a01b0316828661249c565b9194509250905060168314611ff15760405162461bcd60e51b815260206004820152601760248201527622b93937b91026b4b73a34b7339027232a103a37b5b2b760491b60448201526064016108f5565b60078054604080516001600160a01b039092168252600160208301529184900b8183015290517f6c15495b81c1c2bd8a5a79faf952be7bdb9deceb303a554e2ec44d0736d6e0bf9181900360600190a16007548151612076916001600160a01b03169030908990859060009061206957612069613319565b602002602001015161259a565b508060008151811061208a5761208a613319565b6020026020010151945050505050919050565b6120a9848484846125e2565b600783810b6000908152600a6020908152604080832080548690039055600b82528083209386900b8352929052908120805483900390819055900361223957600783900b6000908152600960205260408120805490919061210990613559565b90915550600783810b6000908152600c60209081526040808320600d83528184209487900b8452939091528120548254909190839061214a90600190613570565b8154811061215a5761215a613319565b90600052602060002090600491828204019190066008029054906101000a900460070b90508083838154811061219257612192613319565b600091825260208083206004830401805460039093166008026101000a6001600160401b03818102199094169590931692909202939093179055600788810b8252600d8352604080832085830b845290935282822085905587900b815290812055825483908061220457612204613583565b60008281526020902060046000199092019182040180546001600160401b03600860038516026101000a021916905590555050505b600783900b6000908152600a60205260408120549003610b955760086000815461226290613559565b9091555050505050565b6007546000908190612287906001600160a01b03168461277e565b506016149392505050565b6001600160a01b0384166122e85760405162461bcd60e51b815260206004820152601d60248201527f444c543a206d696e7420746f20746865207a65726f206164647265737300000060448201526064016108f5565b806000036123305760405162461bcd60e51b81526020600482015260156024820152741113150e881b5a5b9d081e995c9bc8185b5bdd5b9d605a1b60448201526064016108f5565b6040805160208082018352600091829052600786810b8352600182528383206001600160a01b038916845282528383209086900b83529052908120805483929061237b908490613345565b909155505060408051600784810b82526020820184905285900b916001600160a01b03871691600091600080516020613f2e833981519152910160405180910390a4604080516020810190915260009052610b95565b60006001600160a01b0386163b15611cce57604051630f18968560e01b81526001600160a01b03871690630f189685906124199033908b908a908a908a908a90600401613599565b6020604051808303816000875af1925050508015612454575060408051601f3d908101601f191682019092526124519181019061352f565b60015b612482573d808015611c85576040519150601f19603f3d011682016040523d82523d6000602084013e611c8a565b6001600160e01b031916630f18968560e01b149050610d91565b60008060606000806101676001600160a01b031663e0f4059a60e01b8989896040516024016124cd939291906135ea565b60408051601f198184030181529181526020820180516001600160e01b03166001600160e01b031990941693909317909252905161250b91906132d0565b6000604051808303816000865af19150503d8060008114612548576040519150601f19603f3d011682016040523d82523d6000602084013e61254d565b606091505b509150915081612570576040805160008082526020820190925260159190612584565b808060200190518101906125849190613696565b60039290920b9a90995090975095505050505050565b6040516001600160a01b038581166024830152848116604483015283166064820152600782900b60848201526000908190819061016790635cfc901160e01b9060a401610a25565b6001600160a01b0384166126385760405162461bcd60e51b815260206004820152601f60248201527f444c543a206275726e2066726f6d20746865207a65726f20616464726573730060448201526064016108f5565b806000036126805760405162461bcd60e51b81526020600482015260156024820152741113150e88189d5c9b881e995c9bc8185b5bdd5b9d605a1b60448201526064016108f5565b600783810b60009081526001602090815260408083206001600160a01b038916845282528083209386900b83529290522054818110156126fe5760405162461bcd60e51b8152602060048201526019602482015278444c543a20696e73756666696369656e742062616c616e636560381b60448201526064016108f5565b6040805160208082018352600091829052600787810b808452600183528484206001600160a01b038b168086529084528585209289900b80865292845285852080548990039055855192835292820187905284519094600080516020613f2e833981519152928290030190a4604080516020810190915260009052610ba8565b600061278861286b565b604080516001600160a01b0386166024820152600785900b60448083019190915282518083039091018152606490910182526020810180516001600160e01b031663050fc3b560e31b17905290516000918291610167916127e8916132d0565b6000604051808303816000865af19150503d8060008114612825576040519150601f19603f3d011682016040523d82523d6000602084013e61282a565b606091505b509150915061283761286b565b8261284457601581612858565b818060200190518101906128589190613e46565b60039190910b9890975095505050505050565b604080516103008101825260606101e082018181526102008301829052600061022084018190526102408401839052610260840181905261028084018190526102a084018190526102c0840183905284518084018652818152602081018290529485018190526102e084019490945260c0830190815260e0830184905261010083018490526101208301849052610140830193909352610160820181905261018082018190526101a082018190526101c08201529081908152600060208201819052604082018190526060808301829052608083015260a09091015290565b6001600160a01b038116811461295f57600080fd5b50565b803561296d8161294a565b919050565b60006020828403121561298457600080fd5b813561128f8161294a565b8060070b811461295f57600080fd5b6000806000606084860312156129b357600080fd5b83356129be8161294a565b925060208401356129ce8161298f565b915060408401356129de8161298f565b809150509250925092565b6000602082840312156129fb57600080fd5b813561128f8161298f565b60008151808452602080850194506020840160005b83811015612a3a57815160070b87529582019590820190600101612a1b565b509495945050505050565b60208152600061128f6020830184612a06565b60005b83811015612a73578181015183820152602001612a5b565b50506000910152565b60008151808452612a94816020860160208601612a58565b601f01601f19169290920160200192915050565b60208152600061128f6020830184612a7c565b60008083601f840112612acd57600080fd5b5081356001600160401b03811115612ae457600080fd5b6020830191508360208260051b8501011115612aff57600080fd5b9250929050565b60008083601f840112612b1857600080fd5b5081356001600160401b03811115612b2f57600080fd5b602083019150836020828501011115612aff57600080fd5b60008060008060008060008060008060c08b8d031215612b6657600080fd5b612b6f8b612962565b9950612b7d60208c01612962565b985060408b01356001600160401b0380821115612b9957600080fd5b612ba58e838f01612abb565b909a50985060608d0135915080821115612bbe57600080fd5b612bca8e838f01612abb565b909850965060808d0135915080821115612be357600080fd5b612bef8e838f01612abb565b909650945060a08d0135915080821115612c0857600080fd5b50612c158d828e01612b06565b915080935050809150509295989b9194979a5092959850565b60008060008060808587031215612c4457600080fd5b8435612c4f8161294a565b93506020850135612c5f8161294a565b92506040850135612c6f8161294a565b9396929550929360600135925050565b60008060408385031215612c9257600080fd5b8235612c9d8161294a565b91506020830135612cad8161298f565b809150509250929050565b60008060008060808587031215612cce57600080fd5b8435612cd98161294a565b93506020850135612ce98161298f565b92506040850135612c6f8161298f565b600080600080600060a08688031215612d1157600080fd5b8535612d1c8161294a565b94506020860135612d2c8161294a565b93506040860135612d3c8161298f565b92506060860135612d4c8161298f565b949793965091946080013592915050565b634e487b7160e01b600052604160045260246000fd5b604080519081016001600160401b0381118282101715612d9557612d95612d5d565b60405290565b60405160a081016001600160401b0381118282101715612d9557612d95612d5d565b60405161012081016001600160401b0381118282101715612d9557612d95612d5d565b60405160c081016001600160401b0381118282101715612d9557612d95612d5d565b604051601f8201601f191681016001600160401b0381118282101715612e2a57612e2a612d5d565b604052919050565b60006001600160401b03821115612e4b57612e4b612d5d565b50601f01601f191660200190565b600082601f830112612e6a57600080fd5b8135612e7d612e7882612e32565b612e02565b818152846020838601011115612e9257600080fd5b816020850160208301376000918101602001919091529392505050565b60008060408385031215612ec257600080fd5b8235612ecd8161294a565b915060208301356001600160401b03811115612ee857600080fd5b612ef485828601612e59565b9150509250929050565b828152604060208201526000612f176040830184612a7c565b949350505050565b60008060008060008060c08789031215612f3857600080fd5b8635612f438161294a565b95506020870135612f538161294a565b94506040870135612f638161298f565b93506060870135612f738161298f565b92506080870135915060a08701356001600160401b03811115612f9557600080fd5b612fa189828a01612e59565b9150509295509295509295565b60008060008060008060608789031215612fc757600080fd5b86356001600160401b0380821115612fde57600080fd5b612fea8a838b01612abb565b9098509650602089013591508082111561300357600080fd5b61300f8a838b01612abb565b9096509450604089013591508082111561302857600080fd5b5061303589828a01612abb565b979a9699509497509295939492505050565b60008151808452602080850194506020840160005b83811015612a3a5781518752958201959082019060010161305c565b60208152600061128f6020830184613047565b801515811461295f57600080fd5b600080604083850312156130ac57600080fd5b82356130b78161294a565b91506020830135612cad8161308b565b600080604083850312156130da57600080fd5b82356130e58161294a565b946020939093013593505050565b6000806040838503121561310657600080fd5b8235612c9d8161298f565b6000806000806080858703121561312757600080fd5b84356131328161294a565b935060208501356131428161294a565b925060408501356131528161298f565b915060608501356131628161298f565b939692955090935050565b6000806040838503121561318057600080fd5b823561318b8161294a565b91506020830135612cad8161294a565b60008060008060008060008060006101208a8c0312156131ba57600080fd5b89356131c58161294a565b985060208a01356131d58161294a565b975060408a01356131e58161298f565b965060608a01356131f58161298f565b955060808a0135945060a08a0135935060c08a013560ff8116811461321957600080fd5b8093505060e08a013591506101008a013590509295985092959850929598565b6001600160a01b0392831681529116602082015260400190565b600181811c9082168061326757607f821691505b60208210810361328757634e487b7160e01b600052602260045260246000fd5b50919050565b60006020828403121561329f57600080fd5b5051919050565b6001600160a01b039485168152928416602084015292166040820152606081019190915260800190565b600082516132e2818460208701612a58565b9190910192915050565b8051600381900b811461296d57600080fd5b60006020828403121561331057600080fd5b61128f826132ec565b634e487b7160e01b600052603260045260246000fd5b634e487b7160e01b600052601160045260246000fd5b80820180821115610b8357610b8361332f565b6001600160a01b0383168152604060208201819052600090612f1790830184612a7c565b8215158152604060208201526000612f176040830184612a7c565b60208082526021908201527f444c543a207472616e7366657220746f20746865207a65726f206164647265736040820152607360f81b606082015260800190565b60208082526026908201527f444c543a20696e73756666696369656e742062616c616e636520666f7220747260408201526530b739b332b960d11b606082015260800190565b6060815260006134316060830186612a06565b82810360208401526134438186612a06565b90508281036040840152610d918185613047565b6020808252602c908201527f444c543a207472616e7366657220746f206e6f6e20444c54526563656976657260408201526b1034b6b83632b6b2b73a32b960a11b606082015260800190565b6000600182016134b5576134b561332f565b5060010190565b6001600160a01b0387811682528616602082015260c0604082018190526000906134e890830187612a06565b82810360608401526134fa8187612a06565b9050828103608084015261350e8186613047565b905082810360a08401526135228185612a7c565b9998505050505050505050565b60006020828403121561354157600080fd5b81516001600160e01b03198116811461128f57600080fd5b6000816135685761356861332f565b506000190190565b81810381811115610b8357610b8361332f565b634e487b7160e01b600052603160045260246000fd5b6001600160a01b03878116825286166020820152600785810b604083015284900b60608201526080810183905260c060a082018190526000906135de90830184612a7c565b98975050505050505050565b60006060820160018060a01b038616835260208560070b60208501526060604085015281855180845260808601915060808160051b87010193506020870160005b8281101561365957607f19888703018452613647868351612a7c565b9550928401929084019060010161362b565b50939998505050505050505050565b805161296d8161298f565b60006001600160401b0382111561368c5761368c612d5d565b5060051b60200190565b6000806000606084860312156136ab57600080fd5b6136b4846132ec565b92506020808501516136c58161298f565b60408601519093506001600160401b038111156136e157600080fd5b8501601f810187136136f257600080fd5b8051613700612e7882613673565b81815260059190911b8201830190838101908983111561371f57600080fd5b928401925b828410156137465783516137378161298f565b82529284019290840190613724565b80955050505050509250925092565b600082601f83011261376657600080fd5b8151613774612e7882612e32565b81815284602083860101111561378957600080fd5b612f17826020830160208701612a58565b805161296d8161294a565b805161296d8161308b565b600082601f8301126137c157600080fd5b815160206137d1612e7883613673565b82815260059290921b840181019181810190868411156137f057600080fd5b8286015b848110156139055780516001600160401b038082111561381357600080fd5b908801906040601f19838c03810182131561382d57600080fd5b613835612d73565b888501518152828501518481111561384c57600080fd5b949094019360a0858e03830112156138645760008081fd5b61386c612d9b565b91508885015161387b8161308b565b82528483015161388a8161294a565b828a0152606085810151858111156138a25760008081fd5b6138b08f8c838a0101613755565b85850152506080935083860151858111156138cb5760008081fd5b6138d98f8c838a0101613755565b8285015250506138eb60a0860161379a565b9282019290925281880152855250509183019183016137f4565b509695505050505050565b60006060828403121561392257600080fd5b604051606081018181106001600160401b038211171561394457613944612d5d565b806040525080915082516139578161298f565b815260208301516139678161294a565b6020820152604083015161397a8161298f565b6040919091015292915050565b6000610160828403121561399a57600080fd5b6139a2612dbd565b905081516001600160401b03808211156139bb57600080fd5b6139c785838601613755565b835260208401519150808211156139dd57600080fd5b6139e985838601613755565b60208401526139fa6040850161379a565b60408401526060840151915080821115613a1357600080fd5b613a1f85838601613755565b6060840152613a30608085016137a5565b6080840152613a4160a08501613668565b60a0840152613a5260c085016137a5565b60c084015260e0840151915080821115613a6b57600080fd5b50613a78848285016137b0565b60e083015250610100613a8d84828501613910565b9082015292915050565b600082601f830112613aa857600080fd5b81516020613ab8612e7883613673565b82815260a09283028501820192828201919087851115613ad757600080fd5b8387015b85811015613b5f5781818a031215613af35760008081fd5b613afb612d9b565b8151613b068161298f565b815281860151613b158161294a565b81870152604082810151613b288161308b565b90820152606082810151613b3b8161308b565b90820152608082810151613b4e8161294a565b908201528452928401928101613adb565b5090979650505050505050565b600082601f830112613b7d57600080fd5b81516020613b8d612e7883613673565b82815260c09283028501820192828201919087851115613bac57600080fd5b8387015b85811015613b5f5781818a031215613bc85760008081fd5b613bd0612de0565b8151613bdb8161298f565b815281860151613bea8161298f565b81870152604082810151613bfd8161298f565b90820152606082810151613c108161298f565b90820152608082810151613c238161308b565b9082015260a082810151613c368161294a565b908201528452928401928101613bb0565b600082601f830112613c5857600080fd5b81516020613c68612e7883613673565b82815260c09283028501820192828201919087851115613c8757600080fd5b8387015b85811015613b5f5781818a031215613ca35760008081fd5b613cab612de0565b8151613cb68161298f565b815281860151613cc58161298f565b81870152604082810151613cd88161298f565b90820152606082810151613ceb8161294a565b90820152608082810151613cfe8161308b565b9082015260a082810151613d118161294a565b908201528452928401928101613c8b565b60006101208284031215613d3557600080fd5b613d3d612dbd565b905081516001600160401b0380821115613d5657600080fd5b613d6285838601613987565b8352613d7060208501613668565b6020840152613d81604085016137a5565b6040840152613d92606085016137a5565b6060840152613da3608085016137a5565b608084015260a0840151915080821115613dbc57600080fd5b613dc885838601613a97565b60a084015260c0840151915080821115613de157600080fd5b613ded85838601613b6c565b60c084015260e0840151915080821115613e0657600080fd5b613e1285838601613c47565b60e084015261010091508184015181811115613e2d57600080fd5b613e3986828701613755565b8385015250505092915050565b60008060408385031215613e5957600080fd5b613e62836132ec565b915060208301516001600160401b0380821115613e7e57600080fd5b9084019060c08287031215613e9257600080fd5b613e9a612de0565b825182811115613ea957600080fd5b613eb588828601613d22565b825250613ec460208401613668565b6020820152613ed56040840161379a565b6040820152613ee660608401613668565b6060820152608083015182811115613efd57600080fd5b613f0988828601613755565b608083015250613f1b60a0840161379a565b60a0820152809350505050925092905056fed3f5ba918fcf5f0ed2a6add09f440b150c54a8eba5a07bbba0695eea7bbf1efa68747470733a2f2f697066732e696f2f697066732f516d56616c69644861736848657265a2646970667358221220cd4c59c51f6e978e18e3d226952a93051f3b19e4a59fbb361930684adf6ed3e364736f6c63430008180033",
  "linkReferences": {},
  "deployedLinkReferences": {}
}