{
  "_format": "hh-sol-artifact-1",
  "contractName": "TimeTransfersLimitsModule",
  "sourceName": "contracts/erc3643/compliance/modular/modules/TimeTransfersLimitsModule.sol",
  "abi": [
    {
      "inputs": [
        {
          "internalType": "address",
          "name": "compliance",
          "type": "address"
        },
        {
          "internalType": "uint256",
          "name": "arraySize",
          "type": "uint256"
        }
      ],
      "name": "LimitsArraySizeExceeded",
      "type": "error"
    },
    {
      "anonymous": false,
      "inputs": [
        {
          "indexed": true,
          "internalType": "address",
          "name": "_compliance",
          "type": "address"
        }
      ],
      "name": "ComplianceBound",
      "type": "event"
    },
    {
      "anonymous": false,
      "inputs": [
        {
          "indexed": true,
          "internalType": "address",
          "name": "_compliance",
          "type": "address"
        }
      ],
      "name": "ComplianceUnbound",
      "type": "event"
    },
    {
      "anonymous": false,
      "inputs": [
        {
          "indexed": true,
          "internalType": "address",
          "name": "compliance",
          "type": "address"
        },
        {
          "indexed": false,
          "internalType": "uint32",
          "name": "limitTime",
          "type": "uint32"
        },
        {
          "indexed": false,
          "internalType": "uint256",
          "name": "limitValue",
          "type": "uint256"
        }
      ],
      "name": "TimeTransferLimitUpdated",
      "type": "event"
    },
    {
      "inputs": [
        {
          "internalType": "address",
          "name": "_compliance",
          "type": "address"
        }
      ],
      "name": "bindCompliance",
      "outputs": [],
      "stateMutability": "nonpayable",
      "type": "function"
    },
    {
      "inputs": [
        {
          "internalType": "address",
          "name": "",
          "type": "address"
        }
      ],
      "name": "canComplianceBind",
      "outputs": [
        {
          "internalType": "bool",
          "name": "",
          "type": "bool"
        }
      ],
      "stateMutability": "view",
      "type": "function"
    },
    {
      "inputs": [
        {
          "internalType": "address",
          "name": "_compliance",
          "type": "address"
        }
      ],
      "name": "getTimeTransferLimits",
      "outputs": [
        {
          "components": [
            {
              "internalType": "uint32",
              "name": "limitTime",
              "type": "uint32"
            },
            {
              "internalType": "uint256",
              "name": "limitValue",
              "type": "uint256"
            }
          ],
          "internalType": "struct TimeTransfersLimitsModule.Limit[]",
          "name": "limits",
          "type": "tuple[]"
        }
      ],
      "stateMutability": "view",
      "type": "function"
    },
    {
      "inputs": [
        {
          "internalType": "address",
          "name": "_compliance",
          "type": "address"
        }
      ],
      "name": "isComplianceBound",
      "outputs": [
        {
          "internalType": "bool",
          "name": "",
          "type": "bool"
        }
      ],
      "stateMutability": "view",
      "type": "function"
    },
    {
      "inputs": [],
      "name": "isPlugAndPlay",
      "outputs": [
        {
          "internalType": "bool",
          "name": "",
          "type": "bool"
        }
      ],
      "stateMutability": "pure",
      "type": "function"
    },
    {
      "inputs": [
        {
          "internalType": "address",
          "name": "",
          "type": "address"
        },
        {
          "internalType": "uint32",
          "name": "",
          "type": "uint32"
        }
      ],
      "name": "limitValues",
      "outputs": [
        {
          "internalType": "bool",
          "name": "attributedLimit",
          "type": "bool"
        },
        {
          "internalType": "uint8",
          "name": "limitIndex",
          "type": "uint8"
        }
      ],
      "stateMutability": "view",
      "type": "function"
    },
    {
      "inputs": [
        {
          "internalType": "address",
          "name": "_from",
          "type": "address"
        },
        {
          "internalType": "uint256",
          "name": "_value",
          "type": "uint256"
        }
      ],
      "name": "moduleBurnAction",
      "outputs": [],
      "stateMutability": "nonpayable",
      "type": "function"
    },
    {
      "inputs": [
        {
          "internalType": "address",
          "name": "_from",
          "type": "address"
        },
        {
          "internalType": "address",
          "name": "",
          "type": "address"
        },
        {
          "internalType": "uint256",
          "name": "_value",
          "type": "uint256"
        },
        {
          "internalType": "address",
          "name": "_compliance",
          "type": "address"
        }
      ],
      "name": "moduleCheck",
      "outputs": [
        {
          "internalType": "bool",
          "name": "",
          "type": "bool"
        }
      ],
      "stateMutability": "view",
      "type": "function"
    },
    {
      "inputs": [
        {
          "internalType": "address",
          "name": "_to",
          "type": "address"
        },
        {
          "internalType": "uint256",
          "name": "_value",
          "type": "uint256"
        }
      ],
      "name": "moduleMintAction",
      "outputs": [],
      "stateMutability": "nonpayable",
      "type": "function"
    },
    {
      "inputs": [
        {
          "internalType": "address",
          "name": "_from",
          "type": "address"
        },
        {
          "internalType": "address",
          "name": "",
          "type": "address"
        },
        {
          "internalType": "uint256",
          "name": "_value",
          "type": "uint256"
        }
      ],
      "name": "moduleTransferAction",
      "outputs": [],
      "stateMutability": "nonpayable",
      "type": "function"
    },
    {
      "inputs": [],
      "name": "name",
      "outputs": [
        {
          "internalType": "string",
          "name": "_name",
          "type": "string"
        }
      ],
      "stateMutability": "pure",
      "type": "function"
    },
    {
      "inputs": [
        {
          "components": [
            {
              "internalType": "uint32",
              "name": "limitTime",
              "type": "uint32"
            },
            {
              "internalType": "uint256",
              "name": "limitValue",
              "type": "uint256"
            }
          ],
          "internalType": "struct TimeTransfersLimitsModule.Limit",
          "name": "_limit",
          "type": "tuple"
        }
      ],
      "name": "setTimeTransferLimit",
      "outputs": [],
      "stateMutability": "nonpayable",
      "type": "function"
    },
    {
      "inputs": [
        {
          "internalType": "address",
          "name": "",
          "type": "address"
        },
        {
          "internalType": "uint256",
          "name": "",
          "type": "uint256"
        }
      ],
      "name": "transferLimits",
      "outputs": [
        {
          "internalType": "uint32",
          "name": "limitTime",
          "type": "uint32"
        },
        {
          "internalType": "uint256",
          "name": "limitValue",
          "type": "uint256"
        }
      ],
      "stateMutability": "view",
      "type": "function"
    },
    {
      "inputs": [
        {
          "internalType": "address",
          "name": "_compliance",
          "type": "address"
        }
      ],
      "name": "unbindCompliance",
      "outputs": [],
      "stateMutability": "nonpayable",
      "type": "function"
    },
    {
      "inputs": [
        {
          "internalType": "address",
          "name": "",
          "type": "address"
        },
        {
          "internalType": "address",
          "name": "",
          "type": "address"
        },
        {
          "internalType": "uint32",
          "name": "",
          "type": "uint32"
        }
      ],
      "name": "usersCounters",
      "outputs": [
        {
          "internalType": "uint256",
          "name": "value",
          "type": "uint256"
        },
        {
          "internalType": "uint256",
          "name": "timer",
          "type": "uint256"
        }
      ],
      "stateMutability": "view",
      "type": "function"
    }
  ],
  "bytecode": "0x608060405234801561001057600080fd5b506111c1806100206000396000f3fe608060405234801561001057600080fd5b50600436106100d55760003560e01c8063388ebb1511610087578063388ebb15146102155780634a932544146102355780634cf4d2951461024857806353ccd57d14610274578063bcc21053146102a3578063d09b3be0146102b7578063e6f5e807146102ca578063f104a8c91461020257600080fd5b8063013b7ce4146100da5780630694a5fb1461010257806306fdde0314610117578063189fa403146101525780632cb7e1ec1461019f5780632f6bbc5d146101b2578063372491a214610202575b600080fd5b6100ed6100e8366004610de6565b6102d1565b60405190151581526020015b60405180910390f35b610115610110366004610e39565b6104bc565b005b604080518082018252601981527854696d655472616e73666572734c696d6974734d6f64756c6560381b602082015290516100f99190610e5d565b61018a610160366004610ebe565b60036020908152600093845260408085208252928452828420905282529020805460019091015482565b604080519283526020830191909152016100f9565b6101156101ad366004610f09565b61058b565b6101e96101c0366004610f4a565b600160209081526000928352604080842090915290825290205460ff8082169161010090041682565b60408051921515835260ff9091166020830152016100f9565b610115610210366004610f83565b6105ca565b610228610223366004610e39565b6105fd565b6040516100f99190610faf565b610115610243366004610e39565b610685565b6100ed610256366004610e39565b6001600160a01b031660009081526020819052604090205460ff1690565b610287610282366004610f83565b610783565b6040805163ffffffff90931683526020830191909152016100f9565b6100ed6102b1366004610e39565b50600190565b6101156102c5366004611004565b6107c6565b60016100ed565b60006001600160a01b0385166102e9575060016104b4565b6102f38286610a0c565b15610300575060016104b4565b600061030c8387610ae5565b905060005b6001600160a01b0384166000908152600260205260409020548110156104ad576001600160a01b038416600090815260026020526040902080548290811061035b5761035b61101c565b90600052602060002090600202016001015485111561037f576000925050506104b4565b6103d6848360026000886001600160a01b03166001600160a01b0316815260200190815260200160002084815481106103ba576103ba61101c565b600091825260209091206002909102015463ffffffff16610c16565b15801561049557506001600160a01b03841660009081526002602052604090208054829081106104085761040861101c565b60009182526020808320600292830201600101546001600160a01b0388811680865260038452604080872092891687529184528186209086529390925290832080549193899392909190869081106104625761046261101c565b6000918252602080832060029092029091015463ffffffff1683528201929092526040019020546104939190611032565b115b156104a5576000925050506104b4565b600101610311565b5060019150505b949350505050565b3360009081526020819052604090205460ff166104f45760405162461bcd60e51b81526004016104eb90611053565b60405180910390fd5b6001600160a01b03811661051a5760405162461bcd60e51b81526004016104eb9061108a565b336001600160a01b038216146105425760405162461bcd60e51b81526004016104eb906110c1565b6001600160a01b038116600081815260208190526040808220805460ff19169055517f408b49d9be1c914c52a0227e18a077e5a892dddf32a26cfa94a5d9708fad77189190a250565b3360009081526020819052604090205460ff166105ba5760405162461bcd60e51b81526004016104eb90611053565b6105c5338483610c56565b505050565b3360009081526020819052604090205460ff166105f95760405162461bcd60e51b81526004016104eb90611053565b5050565b6001600160a01b0381166000908152600260209081526040808320805482518185028101850190935280835260609492939192909184015b8282101561067a5760008481526020908190206040805180820190915260028502909101805463ffffffff168252600190810154828401529083529092019101610635565b505050509050919050565b6001600160a01b0381166106ab5760405162461bcd60e51b81526004016104eb9061108a565b6001600160a01b03811660009081526020819052604090205460ff161561070f5760405162461bcd60e51b815260206004820152601860248201527718dbdb5c1b1a585b98d948185b1c9958591e48189bdd5b9960421b60448201526064016104eb565b336001600160a01b038216146107375760405162461bcd60e51b81526004016104eb906110c1565b6001600160a01b038116600081815260208190526040808220805460ff19166001179055517f1f7b76c58fb697eb53c6c7c1becb96911516a136e24d7ced386b2355358b75a39190a250565b6002602052816000526040600020818154811061079f57600080fd5b60009182526020909120600290910201805460019091015463ffffffff9091169250905082565b3360009081526020819052604090205460ff166107f55760405162461bcd60e51b81526004016104eb90611053565b336000908152600160209081526040822090829061081590850185611102565b63ffffffff16815260208082019290925260409081016000908120543382526002909352205460ff909116915081158015610854575060048160ff1610155b1561087d576040516382f520a960e01b815233600482015260ff821660248201526044016104eb565b8115801561088e575060048160ff16105b1561093d573360009081526002602081815260408320805460018101825590845292208592909102016108c1828261111f565b5050604080518082018252600180825260ff841660208084019190915233600090815291815292812091926108f890870187611102565b63ffffffff16815260208082019290925260400160002082518154939092015160ff166101000261ff00199215159290921661ffff19909316929092171790556109b7565b336000908152600260209081526040808320600183529083208693919290919061096990850185611102565b63ffffffff168152602081019190915260400160002054815461010090910460ff1690811061099a5761099a61101c565b906000526020600020906002020181816109b4919061111f565b50505b337f172f792abfbfd784dac801573197a4dc27fe914e9bb2756ff598a68a359c29c26109e66020860186611102565b6040805163ffffffff9092168252602080880135908301520160405180910390a2505050565b6000826001600160a01b0316636a3edf286040518163ffffffff1660e01b8152600401602060405180830381865afa158015610a4c573d6000803e3d6000fd5b505050506040513d601f19601f82011682018060405250810190610a70919061114c565b6040516307feec1960e21b81526001600160a01b0384811660048301529190911690631ffbb06490602401602060405180830381865afa158015610ab8573d6000803e3d6000fd5b505050506040513d601f19601f82011682018060405250810190610adc9190611169565b90505b92915050565b6000826001600160a01b0316636a3edf286040518163ffffffff1660e01b8152600401602060405180830381865afa158015610b25573d6000803e3d6000fd5b505050506040513d601f19601f82011682018060405250810190610b49919061114c565b6001600160a01b031663134e18f46040518163ffffffff1660e01b8152600401602060405180830381865afa158015610b86573d6000803e3d6000fd5b505050506040513d601f19601f82011682018060405250810190610baa919061114c565b604051633c3ad79560e21b81526001600160a01b038481166004830152919091169063f0eb5e5490602401602060405180830381865afa158015610bf2573d6000803e3d6000fd5b505050506040513d601f19601f82011682018060405250810190610adc919061114c565b6001600160a01b03928316600090815260036020908152604080832094909516825292835283812063ffffffff9290921681529152206001015442101590565b6000610c628484610ae5565b905060005b6001600160a01b038516600090815260026020526040902054811015610d6857610cde858360026000896001600160a01b03166001600160a01b031681526020019081526020016000208481548110610cc257610cc261101c565b600091825260209091206002909102015463ffffffff16610d6f565b6001600160a01b03808616600081815260036020908152604080832094871683529381528382209282526002905291822080548693919085908110610d2557610d2561101c565b6000918252602080832060029092029091015463ffffffff16835282019290925260400181208054909190610d5b908490611032565b9091555050600101610c67565b5050505050565b610d7a838383610c16565b156105c5576001600160a01b038084166000908152600360209081526040808320938616835292815282822063ffffffff8516808452915291902090610dc09042611032565b600182015560009055505050565b6001600160a01b0381168114610de357600080fd5b50565b60008060008060808587031215610dfc57600080fd5b8435610e0781610dce565b93506020850135610e1781610dce565b9250604085013591506060850135610e2e81610dce565b939692955090935050565b600060208284031215610e4b57600080fd5b8135610e5681610dce565b9392505050565b60006020808352835180602085015260005b81811015610e8b57858101830151858201604001528201610e6f565b506000604082860101526040601f19601f8301168501019250505092915050565b63ffffffff81168114610de357600080fd5b600080600060608486031215610ed357600080fd5b8335610ede81610dce565b92506020840135610eee81610dce565b91506040840135610efe81610eac565b809150509250925092565b600080600060608486031215610f1e57600080fd5b8335610f2981610dce565b92506020840135610f3981610dce565b929592945050506040919091013590565b60008060408385031215610f5d57600080fd5b8235610f6881610dce565b91506020830135610f7881610eac565b809150509250929050565b60008060408385031215610f9657600080fd5b8235610fa181610dce565b946020939093013593505050565b602080825282518282018190526000919060409081850190868401855b82811015610ff7578151805163ffffffff168552860151868501529284019290850190600101610fcc565b5091979650505050505050565b60006040828403121561101657600080fd5b50919050565b634e487b7160e01b600052603260045260246000fd5b80820180821115610adf57634e487b7160e01b600052601160045260246000fd5b6020808252601e908201527f6f6e6c7920626f756e6420636f6d706c69616e63652063616e2063616c6c0000604082015260600190565b6020808252601f908201527f696e76616c696420617267756d656e74202d207a65726f206164647265737300604082015260600190565b60208082526021908201527f6f6e6c7920636f6d706c69616e636520636f6e74726163742063616e2063616c6040820152601b60fa1b606082015260800190565b60006020828403121561111457600080fd5b8135610e5681610eac565b813561112a81610eac565b63ffffffff811663ffffffff1983541617825550602082013560018201555050565b60006020828403121561115e57600080fd5b8151610e5681610dce565b60006020828403121561117b57600080fd5b81518015158114610e5657600080fdfea264697066735822122036a7369f2f0f24ba2ffcbc133bc011638bcbd6ccf28436b5546ecf186946012864736f6c63430008180033",
  "linkReferences": {},
  "deployedLinkReferences": {}
}