{
  "_format": "hh-sol-artifact-1",
  "contractName": "TimeExchangeLimitsModule",
  "sourceName": "contracts/erc3643/compliance/modular/modules/TimeExchangeLimitsModule.sol",
  "abi": [
    {
      "inputs": [],
      "stateMutability": "nonpayable",
      "type": "constructor"
    },
    {
      "inputs": [
        {
          "internalType": "address",
          "name": "compliance",
          "type": "address"
        },
        {
          "internalType": "uint256",
          "name": "arraySize",
          "type": "uint256"
        }
      ],
      "name": "LimitsArraySizeExceeded",
      "type": "error"
    },
    {
      "inputs": [
        {
          "internalType": "address",
          "name": "_exchangeID",
          "type": "address"
        }
      ],
      "name": "ONCHAINIDAlreadyTaggedAsExchange",
      "type": "error"
    },
    {
      "inputs": [
        {
          "internalType": "address",
          "name": "_exchangeID",
          "type": "address"
        }
      ],
      "name": "ONCHAINIDNotTaggedAsExchange",
      "type": "error"
    },
    {
      "inputs": [
        {
          "internalType": "address",
          "name": "owner",
          "type": "address"
        }
      ],
      "name": "OwnableInvalidOwner",
      "type": "error"
    },
    {
      "inputs": [
        {
          "internalType": "address",
          "name": "account",
          "type": "address"
        }
      ],
      "name": "OwnableUnauthorizedAccount",
      "type": "error"
    },
    {
      "anonymous": false,
      "inputs": [
        {
          "indexed": true,
          "internalType": "address",
          "name": "_compliance",
          "type": "address"
        }
      ],
      "name": "ComplianceBound",
      "type": "event"
    },
    {
      "anonymous": false,
      "inputs": [
        {
          "indexed": true,
          "internalType": "address",
          "name": "_compliance",
          "type": "address"
        }
      ],
      "name": "ComplianceUnbound",
      "type": "event"
    },
    {
      "anonymous": false,
      "inputs": [
        {
          "indexed": false,
          "internalType": "address",
          "name": "_newExchangeID",
          "type": "address"
        }
      ],
      "name": "ExchangeIDAdded",
      "type": "event"
    },
    {
      "anonymous": false,
      "inputs": [
        {
          "indexed": false,
          "internalType": "address",
          "name": "_exchangeID",
          "type": "address"
        }
      ],
      "name": "ExchangeIDRemoved",
      "type": "event"
    },
    {
      "anonymous": false,
      "inputs": [
        {
          "indexed": true,
          "internalType": "address",
          "name": "compliance",
          "type": "address"
        },
        {
          "indexed": false,
          "internalType": "address",
          "name": "_exchangeID",
          "type": "address"
        },
        {
          "indexed": false,
          "internalType": "uint256",
          "name": "_limitValue",
          "type": "uint256"
        },
        {
          "indexed": false,
          "internalType": "uint32",
          "name": "_limitTime",
          "type": "uint32"
        }
      ],
      "name": "ExchangeLimitUpdated",
      "type": "event"
    },
    {
      "anonymous": false,
      "inputs": [
        {
          "indexed": true,
          "internalType": "address",
          "name": "previousOwner",
          "type": "address"
        },
        {
          "indexed": true,
          "internalType": "address",
          "name": "newOwner",
          "type": "address"
        }
      ],
      "name": "OwnershipTransferred",
      "type": "event"
    },
    {
      "inputs": [
        {
          "internalType": "address",
          "name": "_exchangeID",
          "type": "address"
        }
      ],
      "name": "addExchangeID",
      "outputs": [],
      "stateMutability": "nonpayable",
      "type": "function"
    },
    {
      "inputs": [
        {
          "internalType": "address",
          "name": "_compliance",
          "type": "address"
        }
      ],
      "name": "bindCompliance",
      "outputs": [],
      "stateMutability": "nonpayable",
      "type": "function"
    },
    {
      "inputs": [
        {
          "internalType": "address",
          "name": "",
          "type": "address"
        }
      ],
      "name": "canComplianceBind",
      "outputs": [
        {
          "internalType": "bool",
          "name": "",
          "type": "bool"
        }
      ],
      "stateMutability": "view",
      "type": "function"
    },
    {
      "inputs": [
        {
          "internalType": "address",
          "name": "compliance",
          "type": "address"
        },
        {
          "internalType": "address",
          "name": "_exchangeID",
          "type": "address"
        },
        {
          "internalType": "address",
          "name": "_investorID",
          "type": "address"
        },
        {
          "internalType": "uint32",
          "name": "_limitTime",
          "type": "uint32"
        }
      ],
      "name": "getExchangeCounter",
      "outputs": [
        {
          "components": [
            {
              "internalType": "uint256",
              "name": "value",
              "type": "uint256"
            },
            {
              "internalType": "uint256",
              "name": "timer",
              "type": "uint256"
            }
          ],
          "internalType": "struct TimeExchangeLimitsModule.ExchangeTransferCounter",
          "name": "",
          "type": "tuple"
        }
      ],
      "stateMutability": "view",
      "type": "function"
    },
    {
      "inputs": [
        {
          "internalType": "address",
          "name": "compliance",
          "type": "address"
        },
        {
          "internalType": "address",
          "name": "_exchangeID",
          "type": "address"
        }
      ],
      "name": "getExchangeLimits",
      "outputs": [
        {
          "components": [
            {
              "internalType": "uint32",
              "name": "limitTime",
              "type": "uint32"
            },
            {
              "internalType": "uint256",
              "name": "limitValue",
              "type": "uint256"
            }
          ],
          "internalType": "struct TimeExchangeLimitsModule.Limit[]",
          "name": "",
          "type": "tuple[]"
        }
      ],
      "stateMutability": "view",
      "type": "function"
    },
    {
      "inputs": [
        {
          "internalType": "address",
          "name": "_compliance",
          "type": "address"
        }
      ],
      "name": "isComplianceBound",
      "outputs": [
        {
          "internalType": "bool",
          "name": "",
          "type": "bool"
        }
      ],
      "stateMutability": "view",
      "type": "function"
    },
    {
      "inputs": [
        {
          "internalType": "address",
          "name": "_exchangeID",
          "type": "address"
        }
      ],
      "name": "isExchangeID",
      "outputs": [
        {
          "internalType": "bool",
          "name": "",
          "type": "bool"
        }
      ],
      "stateMutability": "view",
      "type": "function"
    },
    {
      "inputs": [],
      "name": "isPlugAndPlay",
      "outputs": [
        {
          "internalType": "bool",
          "name": "",
          "type": "bool"
        }
      ],
      "stateMutability": "pure",
      "type": "function"
    },
    {
      "inputs": [
        {
          "internalType": "address",
          "name": "",
          "type": "address"
        },
        {
          "internalType": "uint256",
          "name": "",
          "type": "uint256"
        }
      ],
      "name": "moduleBurnAction",
      "outputs": [],
      "stateMutability": "nonpayable",
      "type": "function"
    },
    {
      "inputs": [
        {
          "internalType": "address",
          "name": "_from",
          "type": "address"
        },
        {
          "internalType": "address",
          "name": "_to",
          "type": "address"
        },
        {
          "internalType": "uint256",
          "name": "_value",
          "type": "uint256"
        },
        {
          "internalType": "address",
          "name": "_compliance",
          "type": "address"
        }
      ],
      "name": "moduleCheck",
      "outputs": [
        {
          "internalType": "bool",
          "name": "",
          "type": "bool"
        }
      ],
      "stateMutability": "view",
      "type": "function"
    },
    {
      "inputs": [
        {
          "internalType": "address",
          "name": "",
          "type": "address"
        },
        {
          "internalType": "uint256",
          "name": "",
          "type": "uint256"
        }
      ],
      "name": "moduleMintAction",
      "outputs": [],
      "stateMutability": "nonpayable",
      "type": "function"
    },
    {
      "inputs": [
        {
          "internalType": "address",
          "name": "_from",
          "type": "address"
        },
        {
          "internalType": "address",
          "name": "_to",
          "type": "address"
        },
        {
          "internalType": "uint256",
          "name": "_value",
          "type": "uint256"
        }
      ],
      "name": "moduleTransferAction",
      "outputs": [],
      "stateMutability": "nonpayable",
      "type": "function"
    },
    {
      "inputs": [],
      "name": "name",
      "outputs": [
        {
          "internalType": "string",
          "name": "_name",
          "type": "string"
        }
      ],
      "stateMutability": "pure",
      "type": "function"
    },
    {
      "inputs": [],
      "name": "owner",
      "outputs": [
        {
          "internalType": "address",
          "name": "",
          "type": "address"
        }
      ],
      "stateMutability": "view",
      "type": "function"
    },
    {
      "inputs": [
        {
          "internalType": "address",
          "name": "_exchangeID",
          "type": "address"
        }
      ],
      "name": "removeExchangeID",
      "outputs": [],
      "stateMutability": "nonpayable",
      "type": "function"
    },
    {
      "inputs": [],
      "name": "renounceOwnership",
      "outputs": [],
      "stateMutability": "nonpayable",
      "type": "function"
    },
    {
      "inputs": [
        {
          "internalType": "address",
          "name": "_exchangeID",
          "type": "address"
        },
        {
          "components": [
            {
              "internalType": "uint32",
              "name": "limitTime",
              "type": "uint32"
            },
            {
              "internalType": "uint256",
              "name": "limitValue",
              "type": "uint256"
            }
          ],
          "internalType": "struct TimeExchangeLimitsModule.Limit",
          "name": "_limit",
          "type": "tuple"
        }
      ],
      "name": "setExchangeLimit",
      "outputs": [],
      "stateMutability": "nonpayable",
      "type": "function"
    },
    {
      "inputs": [
        {
          "internalType": "address",
          "name": "newOwner",
          "type": "address"
        }
      ],
      "name": "transferOwnership",
      "outputs": [],
      "stateMutability": "nonpayable",
      "type": "function"
    },
    {
      "inputs": [
        {
          "internalType": "address",
          "name": "_compliance",
          "type": "address"
        }
      ],
      "name": "unbindCompliance",
      "outputs": [],
      "stateMutability": "nonpayable",
      "type": "function"
    }
  ],
  "bytecode": "0x608060405234801561001057600080fd5b50338061003757604051631e4fbdf760e01b81526000600482015260240160405180910390fd5b61004081610046565b50610098565b600180546001600160a01b038381166001600160a01b0319831681179093556040519116919082907f8be0079c531659141344cd1fd0a4f28419497f9722a3daafe3b4186f6b6457e090600090a35050565b6114dd806100a76000396000f3fe608060405234801561001057600080fd5b50600436106101115760003560e01c806374436d97116100ad578063c9d9769a11610071578063c9d9769a14610302578063d22579fb14610315578063e6f5e80714610328578063f104a8c9146101b3578063f2fde38b1461032f57600080fd5b806374436d971461020d5780638da5cb5b14610220578063ac0dde7014610239578063b19761a814610259578063bcc21053146102ee57600080fd5b8063013b7ce4146101165780630694a5fb1461013e57806306fdde03146101535780632bb5e7211461018d5780632cb7e1ec146101a0578063372491a2146101b35780634a932544146101c65780634cf4d295146101d9578063715018a614610205575b600080fd5b6101296101243660046110b8565b610342565b60405190151581526020015b60405180910390f35b61015161014c36600461110b565b61056a565b005b604080518082018252601881527754696d6545786368616e67654c696d6974734d6f64756c6560401b602082015290516101359190611128565b61015161019b36600461110b565b610639565b6101516101ae366004611177565b6106c8565b6101516101c13660046111b8565b610747565b6101516101d436600461110b565b61077a565b6101296101e736600461110b565b6001600160a01b031660009081526020819052604090205460ff1690565b610151610878565b61015161021b36600461110b565b61088c565b6001546001600160a01b031660405161013591906111e4565b61024c6102473660046111f8565b61090c565b6040516101359190611231565b6102d361026736600461129f565b604080518082018252600080825260209182018190526001600160a01b03968716815260048252828120958716815294815281852093909516845291845281832063ffffffff919091168352835290819020815180830190925280548252600101549181019190915290565b60408051825181526020928301519281019290925201610135565b6101296102fc36600461110b565b50600190565b6101516103103660046112f9565b6109a2565b61012961032336600461110b565b610c1d565b6001610129565b61015161033d36600461110b565b610c3b565b60006001600160a01b038516158061035f575061035f8286610c79565b1561036c57506001610562565b60006103788387610d50565b905061038381610c1d565b15610392576001915050610562565b600061039e8487610d50565b90506103a981610c1d565b6103b857600192505050610562565b60005b6001600160a01b0380861660009081526003602090815260408083209386168352929052205481101561055a576001600160a01b03808616600090815260036020908152604080832093861683529290522080548290811061041f5761041f611382565b9060005260206000209060020201600101548611156104445760009350505050610562565b6001600160a01b038086166000908152600360209081526040808320938616835292905290812080548390811061047d5761047d611382565b600091825260209091206002909102015463ffffffff1690506104a286848684610e81565b15801561053f57506001600160a01b0380871660009081526003602090815260408083209387168352929052208054839081106104e1576104e1611382565b60009182526020808320600160029093020191909101546001600160a01b03808a16845260048352604080852088831686528452808520918916855290835280842063ffffffff8616855290925291205461053d908990611398565b115b15610551576000945050505050610562565b506001016103bb565b506001925050505b949350505050565b3360009081526020819052604090205460ff166105a25760405162461bcd60e51b8152600401610599906113b9565b60405180910390fd5b6001600160a01b0381166105c85760405162461bcd60e51b8152600401610599906113f0565b336001600160a01b038216146105f05760405162461bcd60e51b815260040161059990611427565b6001600160a01b038116600081815260208190526040808220805460ff19169055517f408b49d9be1c914c52a0227e18a077e5a892dddf32a26cfa94a5d9708fad77189190a250565b610641610ecd565b61064a81610c1d565b1561066a57806040516345d1498b60e01b815260040161059991906111e4565b6001600160a01b03811660009081526005602052604090819020805460ff19166001179055517fca661533a567195376b79f20fcbcca20e62ceea1d43efacba5f8028329da8e6b906106bd9083906111e4565b60405180910390a150565b3360009081526020819052604090205460ff166106f75760405162461bcd60e51b8152600401610599906113b9565b60006107033385610d50565b905060006107113385610d50565b905061071c81610c1d565b801561072f575061072d3386610c79565b155b156107405761074033828486610efa565b5050505050565b3360009081526020819052604090205460ff166107765760405162461bcd60e51b8152600401610599906113b9565b5050565b6001600160a01b0381166107a05760405162461bcd60e51b8152600401610599906113f0565b6001600160a01b03811660009081526020819052604090205460ff16156108045760405162461bcd60e51b815260206004820152601860248201527718dbdb5c1b1a585b98d948185b1c9958591e48189bdd5b9960421b6044820152606401610599565b336001600160a01b0382161461082c5760405162461bcd60e51b815260040161059990611427565b6001600160a01b038116600081815260208190526040808220805460ff19166001179055517f1f7b76c58fb697eb53c6c7c1becb96911516a136e24d7ced386b2355358b75a39190a250565b610880610ecd565b61088a6000610fe5565b565b610894610ecd565b61089d81610c1d565b6108bc5780604051630120783160e61b815260040161059991906111e4565b6001600160a01b03811660009081526005602052604090819020805460ff19169055517fc59743ca46d36b7cf42c36211a2fbef12e10aec1bfc9d39eccf91b6976a260f5906106bd9083906111e4565b6001600160a01b0380831660009081526003602090815260408083209385168352928152828220805484518184028101840190955280855260609493919290919084015b828210156109955760008481526020908190206040805180820190915260028502909101805463ffffffff168252600190810154828401529083529092019101610950565b5050505090505b92915050565b3360009081526020819052604090205460ff166109d15760405162461bcd60e51b8152600401610599906113b9565b3360008181526002602090815260408083206001600160a01b038716808552908352818420865163ffffffff1685528352818420549484526003835281842090845290915290205460ff9091169081158015610a31575060048160ff1610155b15610a5a576040516382f520a960e01b815233600482015260ff82166024820152604401610599565b81158015610a6b575060048160ff16105b15610b27573360008181526003602090815260408083206001600160a01b0389168085529083528184208054600180820183559186528486208a516002928302909101805463ffffffff191663ffffffff9283161781558b870151908401558451808601865292835260ff8981168488019081529888529186528487209387529285528386208a51909316865291909352922090518154935161ffff1990941690151561ff001916176101009390921692909202179055610bbf565b3360008181526003602090815260408083206001600160a01b038916808552908352818420948452600283528184209084528252808320875163ffffffff1684529091529020548154859291610100900460ff16908110610b8a57610b8a611382565b6000918252602091829020835160029290920201805463ffffffff191663ffffffff9092169190911781559101516001909101555b6020838101518451604080516001600160a01b03891681529384019290925263ffffffff169082015233907fbdaa98f5444de6f9849a851f2c112d373c67c253895b3ca2c57204c0f6e1b58c9060600160405180910390a250505050565b6001600160a01b031660009081526005602052604090205460ff1690565b610c43610ecd565b6001600160a01b038116610c6d576000604051631e4fbdf760e01b815260040161059991906111e4565b610c7681610fe5565b50565b6000826001600160a01b0316636a3edf286040518163ffffffff1660e01b8152600401602060405180830381865afa158015610cb9573d6000803e3d6000fd5b505050506040513d601f19601f82011682018060405250810190610cdd9190611468565b6001600160a01b0316631ffbb064836040518263ffffffff1660e01b8152600401610d0891906111e4565b602060405180830381865afa158015610d25573d6000803e3d6000fd5b505050506040513d601f19601f82011682018060405250810190610d499190611485565b9392505050565b6000826001600160a01b0316636a3edf286040518163ffffffff1660e01b8152600401602060405180830381865afa158015610d90573d6000803e3d6000fd5b505050506040513d601f19601f82011682018060405250810190610db49190611468565b6001600160a01b031663134e18f46040518163ffffffff1660e01b8152600401602060405180830381865afa158015610df1573d6000803e3d6000fd5b505050506040513d601f19601f82011682018060405250810190610e159190611468565b6001600160a01b031663f0eb5e54836040518263ffffffff1660e01b8152600401610e4091906111e4565b602060405180830381865afa158015610e5d573d6000803e3d6000fd5b505050506040513d601f19601f82011682018060405250810190610d499190611468565b6001600160a01b03808516600090815260046020908152604080832087851684528252808320938616835292815282822063ffffffff8516835290522060010154421015949350505050565b6001546001600160a01b0316331461088a573360405163118cdaa760e01b815260040161059991906111e4565b60005b6001600160a01b03808616600090815260036020908152604080832093881683529290522054811015610740576001600160a01b0380861660009081526003602090815260408083209388168352929052908120805483908110610f6357610f63611382565b600091825260209091206002909102015463ffffffff169050610f8886868684611037565b6001600160a01b03808716600090815260046020908152604080832089851684528252808320938816835292815282822063ffffffff8516835290529081208054859290610fd7908490611398565b909155505050600101610efd565b600180546001600160a01b038381166001600160a01b0319831681179093556040519116919082907f8be0079c531659141344cd1fd0a4f28419497f9722a3daafe3b4186f6b6457e090600090a35050565b61104384848484610e81565b1561109d576001600160a01b03808516600090815260046020908152604080832087851684528252808320938616835292815282822063ffffffff85168084529152919020906110939042611398565b6001820155600090555b50505050565b6001600160a01b0381168114610c7657600080fd5b600080600080608085870312156110ce57600080fd5b84356110d9816110a3565b935060208501356110e9816110a3565b9250604085013591506060850135611100816110a3565b939692955090935050565b60006020828403121561111d57600080fd5b8135610d49816110a3565b60006020808352835180602085015260005b818110156111565785810183015185820160400152820161113a565b506000604082860101526040601f19601f8301168501019250505092915050565b60008060006060848603121561118c57600080fd5b8335611197816110a3565b925060208401356111a7816110a3565b929592945050506040919091013590565b600080604083850312156111cb57600080fd5b82356111d6816110a3565b946020939093013593505050565b6001600160a01b0391909116815260200190565b6000806040838503121561120b57600080fd5b8235611216816110a3565b91506020830135611226816110a3565b809150509250929050565b602080825282518282018190526000919060409081850190868401855b82811015611279578151805163ffffffff16855286015186850152928401929085019060010161124e565b5091979650505050505050565b803563ffffffff8116811461129a57600080fd5b919050565b600080600080608085870312156112b557600080fd5b84356112c0816110a3565b935060208501356112d0816110a3565b925060408501356112e0816110a3565b91506112ee60608601611286565b905092959194509250565b600080828403606081121561130d57600080fd5b8335611318816110a3565b92506040601f198201121561132c57600080fd5b506040516040810181811067ffffffffffffffff8211171561135e57634e487b7160e01b600052604160045260246000fd5b60405261136d60208501611286565b81526040939093013560208401525092909150565b634e487b7160e01b600052603260045260246000fd5b8082018082111561099c57634e487b7160e01b600052601160045260246000fd5b6020808252601e908201527f6f6e6c7920626f756e6420636f6d706c69616e63652063616e2063616c6c0000604082015260600190565b6020808252601f908201527f696e76616c696420617267756d656e74202d207a65726f206164647265737300604082015260600190565b60208082526021908201527f6f6e6c7920636f6d706c69616e636520636f6e74726163742063616e2063616c6040820152601b60fa1b606082015260800190565b60006020828403121561147a57600080fd5b8151610d49816110a3565b60006020828403121561149757600080fd5b81518015158114610d4957600080fdfea2646970667358221220fef0545c1c6fb3d92bbba315d72d3aa9a0f82a4708e1d4b2c51bbefe1af13b4064736f6c63430008180033",
  "linkReferences": {},
  "deployedLinkReferences": {}
}