{
  "_format": "hh-sol-artifact-1",
  "contractName": "Token",
  "sourceName": "contracts/erc3643/token/Token.sol",
  "abi": [
    {
      "inputs": [],
      "name": "InvalidInitialization",
      "type": "error"
    },
    {
      "inputs": [],
      "name": "NotInitializing",
      "type": "error"
    },
    {
      "inputs": [
        {
          "internalType": "address",
          "name": "owner",
          "type": "address"
        }
      ],
      "name": "OwnableInvalidOwner",
      "type": "error"
    },
    {
      "inputs": [
        {
          "internalType": "address",
          "name": "account",
          "type": "address"
        }
      ],
      "name": "OwnableUnauthorizedAccount",
      "type": "error"
    },
    {
      "anonymous": false,
      "inputs": [
        {
          "indexed": true,
          "internalType": "address",
          "name": "_userAddress",
          "type": "address"
        },
        {
          "indexed": true,
          "internalType": "bool",
          "name": "_isFrozen",
          "type": "bool"
        },
        {
          "indexed": true,
          "internalType": "address",
          "name": "_owner",
          "type": "address"
        }
      ],
      "name": "AddressFrozen",
      "type": "event"
    },
    {
      "anonymous": false,
      "inputs": [
        {
          "indexed": true,
          "internalType": "address",
          "name": "_agent",
          "type": "address"
        }
      ],
      "name": "AgentAdded",
      "type": "event"
    },
    {
      "anonymous": false,
      "inputs": [
        {
          "indexed": true,
          "internalType": "address",
          "name": "_agent",
          "type": "address"
        }
      ],
      "name": "AgentRemoved",
      "type": "event"
    },
    {
      "anonymous": false,
      "inputs": [
        {
          "indexed": true,
          "internalType": "address",
          "name": "owner",
          "type": "address"
        },
        {
          "indexed": true,
          "internalType": "address",
          "name": "spender",
          "type": "address"
        },
        {
          "indexed": false,
          "internalType": "uint256",
          "name": "value",
          "type": "uint256"
        }
      ],
      "name": "Approval",
      "type": "event"
    },
    {
      "anonymous": false,
      "inputs": [
        {
          "indexed": true,
          "internalType": "address",
          "name": "_compliance",
          "type": "address"
        }
      ],
      "name": "ComplianceAdded",
      "type": "event"
    },
    {
      "anonymous": false,
      "inputs": [
        {
          "indexed": true,
          "internalType": "address",
          "name": "_identityRegistry",
          "type": "address"
        }
      ],
      "name": "IdentityRegistryAdded",
      "type": "event"
    },
    {
      "anonymous": false,
      "inputs": [
        {
          "indexed": false,
          "internalType": "uint64",
          "name": "version",
          "type": "uint64"
        }
      ],
      "name": "Initialized",
      "type": "event"
    },
    {
      "anonymous": false,
      "inputs": [
        {
          "indexed": true,
          "internalType": "address",
          "name": "previousOwner",
          "type": "address"
        },
        {
          "indexed": true,
          "internalType": "address",
          "name": "newOwner",
          "type": "address"
        }
      ],
      "name": "OwnershipTransferred",
      "type": "event"
    },
    {
      "anonymous": false,
      "inputs": [
        {
          "indexed": false,
          "internalType": "address",
          "name": "_userAddress",
          "type": "address"
        }
      ],
      "name": "Paused",
      "type": "event"
    },
    {
      "anonymous": false,
      "inputs": [
        {
          "indexed": true,
          "internalType": "address",
          "name": "_lostWallet",
          "type": "address"
        },
        {
          "indexed": true,
          "internalType": "address",
          "name": "_newWallet",
          "type": "address"
        },
        {
          "indexed": true,
          "internalType": "address",
          "name": "_investorOnchainID",
          "type": "address"
        }
      ],
      "name": "RecoverySuccess",
      "type": "event"
    },
    {
      "anonymous": false,
      "inputs": [
        {
          "indexed": true,
          "internalType": "address",
          "name": "_userAddress",
          "type": "address"
        },
        {
          "indexed": false,
          "internalType": "uint256",
          "name": "_amount",
          "type": "uint256"
        }
      ],
      "name": "TokensFrozen",
      "type": "event"
    },
    {
      "anonymous": false,
      "inputs": [
        {
          "indexed": true,
          "internalType": "address",
          "name": "_userAddress",
          "type": "address"
        },
        {
          "indexed": false,
          "internalType": "uint256",
          "name": "_amount",
          "type": "uint256"
        }
      ],
      "name": "TokensUnfrozen",
      "type": "event"
    },
    {
      "anonymous": false,
      "inputs": [
        {
          "indexed": true,
          "internalType": "address",
          "name": "from",
          "type": "address"
        },
        {
          "indexed": true,
          "internalType": "address",
          "name": "to",
          "type": "address"
        },
        {
          "indexed": false,
          "internalType": "uint256",
          "name": "value",
          "type": "uint256"
        }
      ],
      "name": "Transfer",
      "type": "event"
    },
    {
      "anonymous": false,
      "inputs": [
        {
          "indexed": false,
          "internalType": "address",
          "name": "_userAddress",
          "type": "address"
        }
      ],
      "name": "Unpaused",
      "type": "event"
    },
    {
      "anonymous": false,
      "inputs": [
        {
          "indexed": true,
          "internalType": "string",
          "name": "_newName",
          "type": "string"
        },
        {
          "indexed": true,
          "internalType": "string",
          "name": "_newSymbol",
          "type": "string"
        },
        {
          "indexed": false,
          "internalType": "uint8",
          "name": "_newDecimals",
          "type": "uint8"
        },
        {
          "indexed": false,
          "internalType": "string",
          "name": "_newVersion",
          "type": "string"
        },
        {
          "indexed": true,
          "internalType": "address",
          "name": "_newOnchainID",
          "type": "address"
        }
      ],
      "name": "UpdatedTokenInformation",
      "type": "event"
    },
    {
      "inputs": [
        {
          "internalType": "address",
          "name": "_agent",
          "type": "address"
        }
      ],
      "name": "addAgent",
      "outputs": [],
      "stateMutability": "nonpayable",
      "type": "function"
    },
    {
      "inputs": [
        {
          "internalType": "address",
          "name": "_owner",
          "type": "address"
        },
        {
          "internalType": "address",
          "name": "_spender",
          "type": "address"
        }
      ],
      "name": "allowance",
      "outputs": [
        {
          "internalType": "uint256",
          "name": "",
          "type": "uint256"
        }
      ],
      "stateMutability": "view",
      "type": "function"
    },
    {
      "inputs": [
        {
          "internalType": "address",
          "name": "_spender",
          "type": "address"
        },
        {
          "internalType": "uint256",
          "name": "_amount",
          "type": "uint256"
        }
      ],
      "name": "approve",
      "outputs": [
        {
          "internalType": "bool",
          "name": "",
          "type": "bool"
        }
      ],
      "stateMutability": "nonpayable",
      "type": "function"
    },
    {
      "inputs": [
        {
          "internalType": "address",
          "name": "_userAddress",
          "type": "address"
        }
      ],
      "name": "balanceOf",
      "outputs": [
        {
          "internalType": "uint256",
          "name": "",
          "type": "uint256"
        }
      ],
      "stateMutability": "view",
      "type": "function"
    },
    {
      "inputs": [
        {
          "internalType": "address[]",
          "name": "_userAddresses",
          "type": "address[]"
        },
        {
          "internalType": "uint256[]",
          "name": "_amounts",
          "type": "uint256[]"
        }
      ],
      "name": "batchBurn",
      "outputs": [],
      "stateMutability": "nonpayable",
      "type": "function"
    },
    {
      "inputs": [
        {
          "internalType": "address[]",
          "name": "_fromList",
          "type": "address[]"
        },
        {
          "internalType": "address[]",
          "name": "_toList",
          "type": "address[]"
        },
        {
          "internalType": "uint256[]",
          "name": "_amounts",
          "type": "uint256[]"
        }
      ],
      "name": "batchForcedTransfer",
      "outputs": [],
      "stateMutability": "nonpayable",
      "type": "function"
    },
    {
      "inputs": [
        {
          "internalType": "address[]",
          "name": "_userAddresses",
          "type": "address[]"
        },
        {
          "internalType": "uint256[]",
          "name": "_amounts",
          "type": "uint256[]"
        }
      ],
      "name": "batchFreezePartialTokens",
      "outputs": [],
      "stateMutability": "nonpayable",
      "type": "function"
    },
    {
      "inputs": [
        {
          "internalType": "address[]",
          "name": "_toList",
          "type": "address[]"
        },
        {
          "internalType": "uint256[]",
          "name": "_amounts",
          "type": "uint256[]"
        }
      ],
      "name": "batchMint",
      "outputs": [],
      "stateMutability": "nonpayable",
      "type": "function"
    },
    {
      "inputs": [
        {
          "internalType": "address[]",
          "name": "_userAddresses",
          "type": "address[]"
        },
        {
          "internalType": "bool[]",
          "name": "_freeze",
          "type": "bool[]"
        }
      ],
      "name": "batchSetAddressFrozen",
      "outputs": [],
      "stateMutability": "nonpayable",
      "type": "function"
    },
    {
      "inputs": [
        {
          "internalType": "address[]",
          "name": "_toList",
          "type": "address[]"
        },
        {
          "internalType": "uint256[]",
          "name": "_amounts",
          "type": "uint256[]"
        }
      ],
      "name": "batchTransfer",
      "outputs": [],
      "stateMutability": "nonpayable",
      "type": "function"
    },
    {
      "inputs": [
        {
          "internalType": "address[]",
          "name": "_userAddresses",
          "type": "address[]"
        },
        {
          "internalType": "uint256[]",
          "name": "_amounts",
          "type": "uint256[]"
        }
      ],
      "name": "batchUnfreezePartialTokens",
      "outputs": [],
      "stateMutability": "nonpayable",
      "type": "function"
    },
    {
      "inputs": [
        {
          "internalType": "address",
          "name": "_userAddress",
          "type": "address"
        },
        {
          "internalType": "uint256",
          "name": "_amount",
          "type": "uint256"
        }
      ],
      "name": "burn",
      "outputs": [],
      "stateMutability": "nonpayable",
      "type": "function"
    },
    {
      "inputs": [],
      "name": "compliance",
      "outputs": [
        {
          "internalType": "contract IModularCompliance",
          "name": "",
          "type": "address"
        }
      ],
      "stateMutability": "view",
      "type": "function"
    },
    {
      "inputs": [],
      "name": "decimals",
      "outputs": [
        {
          "internalType": "uint8",
          "name": "",
          "type": "uint8"
        }
      ],
      "stateMutability": "view",
      "type": "function"
    },
    {
      "inputs": [
        {
          "internalType": "address",
          "name": "_spender",
          "type": "address"
        },
        {
          "internalType": "uint256",
          "name": "_subtractedValue",
          "type": "uint256"
        }
      ],
      "name": "decreaseAllowance",
      "outputs": [
        {
          "internalType": "bool",
          "name": "",
          "type": "bool"
        }
      ],
      "stateMutability": "nonpayable",
      "type": "function"
    },
    {
      "inputs": [
        {
          "internalType": "address",
          "name": "_from",
          "type": "address"
        },
        {
          "internalType": "address",
          "name": "_to",
          "type": "address"
        },
        {
          "internalType": "uint256",
          "name": "_amount",
          "type": "uint256"
        }
      ],
      "name": "forcedTransfer",
      "outputs": [
        {
          "internalType": "bool",
          "name": "",
          "type": "bool"
        }
      ],
      "stateMutability": "nonpayable",
      "type": "function"
    },
    {
      "inputs": [
        {
          "internalType": "address",
          "name": "_userAddress",
          "type": "address"
        },
        {
          "internalType": "uint256",
          "name": "_amount",
          "type": "uint256"
        }
      ],
      "name": "freezePartialTokens",
      "outputs": [],
      "stateMutability": "nonpayable",
      "type": "function"
    },
    {
      "inputs": [
        {
          "internalType": "address",
          "name": "_userAddress",
          "type": "address"
        }
      ],
      "name": "getFrozenTokens",
      "outputs": [
        {
          "internalType": "uint256",
          "name": "",
          "type": "uint256"
        }
      ],
      "stateMutability": "view",
      "type": "function"
    },
    {
      "inputs": [],
      "name": "identityRegistry",
      "outputs": [
        {
          "internalType": "contract IIdentityRegistry",
          "name": "",
          "type": "address"
        }
      ],
      "stateMutability": "view",
      "type": "function"
    },
    {
      "inputs": [
        {
          "internalType": "address",
          "name": "_spender",
          "type": "address"
        },
        {
          "internalType": "uint256",
          "name": "_addedValue",
          "type": "uint256"
        }
      ],
      "name": "increaseAllowance",
      "outputs": [
        {
          "internalType": "bool",
          "name": "",
          "type": "bool"
        }
      ],
      "stateMutability": "nonpayable",
      "type": "function"
    },
    {
      "inputs": [
        {
          "internalType": "address",
          "name": "_identityRegistry",
          "type": "address"
        },
        {
          "internalType": "address",
          "name": "_compliance",
          "type": "address"
        },
        {
          "internalType": "string",
          "name": "_name",
          "type": "string"
        },
        {
          "internalType": "string",
          "name": "_symbol",
          "type": "string"
        },
        {
          "internalType": "uint8",
          "name": "_decimals",
          "type": "uint8"
        },
        {
          "internalType": "address",
          "name": "_onchainID",
          "type": "address"
        }
      ],
      "name": "init",
      "outputs": [],
      "stateMutability": "nonpayable",
      "type": "function"
    },
    {
      "inputs": [
        {
          "internalType": "address",
          "name": "_agent",
          "type": "address"
        }
      ],
      "name": "isAgent",
      "outputs": [
        {
          "internalType": "bool",
          "name": "",
          "type": "bool"
        }
      ],
      "stateMutability": "view",
      "type": "function"
    },
    {
      "inputs": [
        {
          "internalType": "address",
          "name": "_userAddress",
          "type": "address"
        }
      ],
      "name": "isFrozen",
      "outputs": [
        {
          "internalType": "bool",
          "name": "",
          "type": "bool"
        }
      ],
      "stateMutability": "view",
      "type": "function"
    },
    {
      "inputs": [
        {
          "internalType": "address",
          "name": "_to",
          "type": "address"
        },
        {
          "internalType": "uint256",
          "name": "_amount",
          "type": "uint256"
        }
      ],
      "name": "mint",
      "outputs": [],
      "stateMutability": "nonpayable",
      "type": "function"
    },
    {
      "inputs": [],
      "name": "name",
      "outputs": [
        {
          "internalType": "string",
          "name": "",
          "type": "string"
        }
      ],
      "stateMutability": "view",
      "type": "function"
    },
    {
      "inputs": [],
      "name": "onchainID",
      "outputs": [
        {
          "internalType": "address",
          "name": "",
          "type": "address"
        }
      ],
      "stateMutability": "view",
      "type": "function"
    },
    {
      "inputs": [],
      "name": "owner",
      "outputs": [
        {
          "internalType": "address",
          "name": "",
          "type": "address"
        }
      ],
      "stateMutability": "view",
      "type": "function"
    },
    {
      "inputs": [],
      "name": "pause",
      "outputs": [],
      "stateMutability": "nonpayable",
      "type": "function"
    },
    {
      "inputs": [],
      "name": "paused",
      "outputs": [
        {
          "internalType": "bool",
          "name": "",
          "type": "bool"
        }
      ],
      "stateMutability": "view",
      "type": "function"
    },
    {
      "inputs": [
        {
          "internalType": "address",
          "name": "_lostWallet",
          "type": "address"
        },
        {
          "internalType": "address",
          "name": "_newWallet",
          "type": "address"
        },
        {
          "internalType": "address",
          "name": "_investorOnchainID",
          "type": "address"
        }
      ],
      "name": "recoveryAddress",
      "outputs": [
        {
          "internalType": "bool",
          "name": "",
          "type": "bool"
        }
      ],
      "stateMutability": "nonpayable",
      "type": "function"
    },
    {
      "inputs": [
        {
          "internalType": "address",
          "name": "_agent",
          "type": "address"
        }
      ],
      "name": "removeAgent",
      "outputs": [],
      "stateMutability": "nonpayable",
      "type": "function"
    },
    {
      "inputs": [],
      "name": "renounceOwnership",
      "outputs": [],
      "stateMutability": "nonpayable",
      "type": "function"
    },
    {
      "inputs": [
        {
          "internalType": "address",
          "name": "_userAddress",
          "type": "address"
        },
        {
          "internalType": "bool",
          "name": "_freeze",
          "type": "bool"
        }
      ],
      "name": "setAddressFrozen",
      "outputs": [],
      "stateMutability": "nonpayable",
      "type": "function"
    },
    {
      "inputs": [
        {
          "internalType": "address",
          "name": "_compliance",
          "type": "address"
        }
      ],
      "name": "setCompliance",
      "outputs": [],
      "stateMutability": "nonpayable",
      "type": "function"
    },
    {
      "inputs": [
        {
          "internalType": "address",
          "name": "_identityRegistry",
          "type": "address"
        }
      ],
      "name": "setIdentityRegistry",
      "outputs": [],
      "stateMutability": "nonpayable",
      "type": "function"
    },
    {
      "inputs": [
        {
          "internalType": "string",
          "name": "_name",
          "type": "string"
        }
      ],
      "name": "setName",
      "outputs": [],
      "stateMutability": "nonpayable",
      "type": "function"
    },
    {
      "inputs": [
        {
          "internalType": "address",
          "name": "_onchainID",
          "type": "address"
        }
      ],
      "name": "setOnchainID",
      "outputs": [],
      "stateMutability": "nonpayable",
      "type": "function"
    },
    {
      "inputs": [
        {
          "internalType": "string",
          "name": "_symbol",
          "type": "string"
        }
      ],
      "name": "setSymbol",
      "outputs": [],
      "stateMutability": "nonpayable",
      "type": "function"
    },
    {
      "inputs": [],
      "name": "symbol",
      "outputs": [
        {
          "internalType": "string",
          "name": "",
          "type": "string"
        }
      ],
      "stateMutability": "view",
      "type": "function"
    },
    {
      "inputs": [],
      "name": "totalSupply",
      "outputs": [
        {
          "internalType": "uint256",
          "name": "",
          "type": "uint256"
        }
      ],
      "stateMutability": "view",
      "type": "function"
    },
    {
      "inputs": [
        {
          "internalType": "address",
          "name": "_to",
          "type": "address"
        },
        {
          "internalType": "uint256",
          "name": "_amount",
          "type": "uint256"
        }
      ],
      "name": "transfer",
      "outputs": [
        {
          "internalType": "bool",
          "name": "",
          "type": "bool"
        }
      ],
      "stateMutability": "nonpayable",
      "type": "function"
    },
    {
      "inputs": [
        {
          "internalType": "address",
          "name": "_from",
          "type": "address"
        },
        {
          "internalType": "address",
          "name": "_to",
          "type": "address"
        },
        {
          "internalType": "uint256",
          "name": "_amount",
          "type": "uint256"
        }
      ],
      "name": "transferFrom",
      "outputs": [
        {
          "internalType": "bool",
          "name": "",
          "type": "bool"
        }
      ],
      "stateMutability": "nonpayable",
      "type": "function"
    },
    {
      "inputs": [
        {
          "internalType": "address",
          "name": "newOwner",
          "type": "address"
        }
      ],
      "name": "transferOwnership",
      "outputs": [],
      "stateMutability": "nonpayable",
      "type": "function"
    },
    {
      "inputs": [
        {
          "internalType": "address",
          "name": "_userAddress",
          "type": "address"
        },
        {
          "internalType": "uint256",
          "name": "_amount",
          "type": "uint256"
        }
      ],
      "name": "unfreezePartialTokens",
      "outputs": [],
      "stateMutability": "nonpayable",
      "type": "function"
    },
    {
      "inputs": [],
      "name": "unpause",
      "outputs": [],
      "stateMutability": "nonpayable",
      "type": "function"
    },
    {
      "inputs": [],
      "name": "version",
      "outputs": [
        {
          "internalType": "string",
          "name": "",
          "type": "string"
        }
      ],
      "stateMutability": "pure",
      "type": "function"
    }
  ],
  "bytecode": "0x60806040526009805460ff1916905534801561001a57600080fd5b506136638061002a6000396000f3fe608060405234801561001057600080fd5b506004361061028a5760003560e01c8063715018a61161015c578063a9059cbb116100ce578063dd62ed3e11610087578063dd62ed3e1461059b578063e5839836146105d4578063f2fde38b14610600578063f898178914610613578063f91b619c14610626578063fc7e5fa81461063957600080fd5b8063a9059cbb14610526578063aba6370514610539578063b84c82461461054f578063c47f002714610562578063c69c09cf14610575578063cbf3f8611461058857600080fd5b80639285948a116101205780639285948a146104bf57806395d89b41146104d257806397a6278e146104da5780639dc29fac146104ed5780639fc1d0e714610500578063a457c2d71461051357600080fd5b8063715018a6146104815780638456cb591461048957806384e798421461049157806388d695b2146104a45780638da5cb5b146104b757600080fd5b806339509351116102005780634a6cc677116101b95780634a6cc6771461040b57806354fd4d501461041e5780635c975abb1461043f5780636290865d1461044a578063685731071461045b57806370a082311461046e57600080fd5b806339509351146103a45780633d1ddc5b146103b75780633f4ba83a146103ca57806340c10f19146103d257806342a47abc146103e55780634710362d146103f857600080fd5b806318160ddd1161025257806318160ddd1461033b5780631a7af379146103435780631fe56f7d146103565780631ffbb0641461036957806323b872dd1461037c578063313ce5671461038f57600080fd5b806306fdde031461028f578063095ea7b3146102ad578063125c4a33146102d0578063134e18f4146102e5578063158b1a5714610304575b600080fd5b61029761064c565b6040516102a49190612c5c565b60405180910390f35b6102c06102bb366004612c8b565b6106de565b60405190151581526020016102a4565b6102e36102de366004612c8b565b6106f5565b005b60095461010090046001600160a01b03165b6040516102a49190612cb5565b61032d610312366004612cc9565b6001600160a01b031660009081526008602052604090205490565b6040519081526020016102a4565b60035461032d565b6102e3610351366004612d2f565b610824565b6102e3610364366004612c8b565b61088f565b6102c0610377366004612cc9565b6109a6565b6102c061038a366004612d9a565b6109b2565b60065460405160ff90911681526020016102a4565b6102c06103b2366004612c8b565b610c73565b6102e36103c5366004612cc9565b610caa565b6102e3610d56565b6102e36103e0366004612c8b565b610e08565b6102e36103f3366004612dd6565b61101a565b6102e3610406366004612d2f565b6110a6565b6102e3610419366004612d2f565b611101565b604080518082019091526005815264342e312e3360d81b6020820152610297565b60095460ff166102c0565b600a546001600160a01b03166102f7565b6102e3610469366004612d2f565b61115c565b61032d61047c366004612cc9565b6111b7565b6102e36111d2565b6102e36111e6565b6102e361049f366004612cc9565b61126b565b6102e36104b2366004612d2f565b6112db565b6102f7611337565b6102c06104cd366004612e6f565b611365565b6102976116d7565b6102e36104e8366004612cc9565b6116e6565b6102e36104fb366004612c8b565b611756565b6102c061050e366004612d9a565b6118ef565b6102c0610521366004612c8b565b611b0c565b6102c0610534366004612c8b565b611b43565b60065461010090046001600160a01b03166102f7565b6102e361055d366004612eb2565b611d71565b6102e3610570366004612eb2565b611e8b565b6102e3610583366004612f31565b611f17565b6102e3610596366004612cc9565b611f91565b61032d6105a9366004612f68565b6001600160a01b03918216600090815260026020908152604080832093909416825291909152205490565b6102c06105e2366004612cc9565b6001600160a01b031660009081526007602052604090205460ff1690565b6102e361060e366004612cc9565b611feb565b6102e3610621366004612cc9565b612029565b6102e361063436600461303d565b61214d565b6102e3610647366004612d2f565b6124ff565b60606004805461065b906130e9565b80601f0160208091040260200160405190810160405280929190818152602001828054610687906130e9565b80156106d45780601f106106a9576101008083540402835291602001916106d4565b820191906000526020600020905b8154815290600101906020018083116106b757829003601f168201915b5050505050905090565b60006106eb33848461255a565b5060015b92915050565b6106fe336109a6565b6107235760405162461bcd60e51b815260040161071a90613123565b60405180910390fd5b600061072e836111b7565b6001600160a01b038416600090815260086020526040902054909150610755908390613187565b8110156107a45760405162461bcd60e51b815260206004820181905260248201527f416d6f756e74206578636565647320617661696c61626c652062616c616e6365604482015260640161071a565b6001600160a01b0383166000908152600860205260409020546107c8908390613187565b6001600160a01b038416600081815260086020526040908190209290925590517fa065e63c631c86f1b9f66a4a2f63f2093bf1c2168d23290259dbd969e0222a45906108179085815260200190565b60405180910390a2505050565b60005b83811015610888576108808585838181106108445761084461319a565b90506020020160208101906108599190612cc9565b84848481811061086b5761086b61319a565b905060200201602081019061058391906131b0565b600101610827565b5050505050565b610898336109a6565b6108b45760405162461bcd60e51b815260040161071a90613123565b6001600160a01b0382166000908152600860205260409020548111156109395760405162461bcd60e51b815260206004820152603460248201527f416d6f756e742073686f756c64206265206c657373207468616e206f7220657160448201527375616c20746f2066726f7a656e20746f6b656e7360601b606482015260840161071a565b6001600160a01b03821660009081526008602052604090205461095d9082906131cd565b6001600160a01b038316600081815260086020526040908190209290925590516000805160206135ce8339815191529061099a9084815260200190565b60405180910390a25050565b60006106ef818361267f565b60095460009060ff16156109d85760405162461bcd60e51b815260040161071a906131e0565b6001600160a01b03831660009081526007602052604090205460ff16158015610a1a57506001600160a01b03841660009081526007602052604090205460ff16155b610a365760405162461bcd60e51b815260040161071a9061320a565b6001600160a01b038416600090815260086020526040902054610a58856111b7565b610a6291906131cd565b821115610a815760405162461bcd60e51b815260040161071a90613234565b60095460405163b9209e3360e01b81526101009091046001600160a01b03169063b9209e3390610ab5908690600401612cb5565b602060405180830381865afa158015610ad2573d6000803e3d6000fd5b505050506040513d601f19601f82011682018060405250810190610af69190613262565b8015610b725750600a546040516372331c7360e11b81526001600160a01b039091169063e46638e690610b319087908790879060040161327f565b602060405180830381865afa158015610b4e573d6000803e3d6000fd5b505050506040513d601f19601f82011682018060405250810190610b729190613262565b15610c2c576001600160a01b038416600090815260026020908152604080832033808552925290912054610bb2918691610bad9086906131cd565b61255a565b610bbd848484612702565b600a546040516322ebca6d60e21b81526001600160a01b0390911690638baf29b490610bf19087908790879060040161327f565b600060405180830381600087803b158015610c0b57600080fd5b505af1158015610c1f573d6000803e3d6000fd5b5050505060019050610c6c565b60405162461bcd60e51b81526020600482015260156024820152745472616e73666572206e6f7420706f737369626c6560581b604482015260640161071a565b9392505050565b3360008181526002602090815260408083206001600160a01b038716845290915281205490916106eb918590610bad908690613187565b610cb261285e565b60068054610100600160a81b0319166101006001600160a01b038481168202929092179283905560405192041690610cec906005906132a3565b60405180910390206004604051610d0391906132a3565b6040805191829003822060065483830183526005845264342e312e3360d81b60208501529151909260008051602061360e83398151915292610d4b9260ff9091169190613319565b60405180910390a450565b610d5f336109a6565b610d7b5760405162461bcd60e51b815260040161071a90613123565b60095460ff16610dc45760405162461bcd60e51b815260206004820152601460248201527314185d5cd8589b194e881b9bdd081c185d5cd95960621b604482015260640161071a565b6009805460ff191690556040517f5db9ee0a495bf2e6ff9c91a7834c1ba4fdd244a5e8aa4e537bd38aeae4b073aa90610dfe903390612cb5565b60405180910390a1565b610e11336109a6565b610e2d5760405162461bcd60e51b815260040161071a90613123565b60095460405163b9209e3360e01b81526101009091046001600160a01b03169063b9209e3390610e61908590600401612cb5565b602060405180830381865afa158015610e7e573d6000803e3d6000fd5b505050506040513d601f19601f82011682018060405250810190610ea29190613262565b610eea5760405162461bcd60e51b815260206004820152601960248201527824b232b73a34ba3c9034b9903737ba103b32b934b334b2b21760391b604482015260640161071a565b600a546040516372331c7360e11b81526001600160a01b039091169063e46638e690610f1f906000908690869060040161327f565b602060405180830381865afa158015610f3c573d6000803e3d6000fd5b505050506040513d601f19601f82011682018060405250810190610f609190613262565b610fa65760405162461bcd60e51b815260206004820152601760248201527610dbdb5c1b1a585b98d9481b9bdd08199bdb1b1bddd959604a1b604482015260640161071a565b610fb08282612890565b600a54604051635f8dead360e01b81526001600160a01b0384811660048301526024820184905290911690635f8dead390604401600060405180830381600087803b158015610ffe57600080fd5b505af1158015611012573d6000803e3d6000fd5b505050505050565b60005b8581101561109d5761109487878381811061103a5761103a61319a565b905060200201602081019061104f9190612cc9565b8686848181106110615761106161319a565b90506020020160208101906110769190612cc9565b8585858181106110885761108861319a565b905060200201356118ef565b5060010161101d565b50505050505050565b60005b83811015610888576110f98585838181106110c6576110c661319a565b90506020020160208101906110db9190612cc9565b8484848181106110ed576110ed61319a565b9050602002013561088f565b6001016110a9565b60005b83811015610888576111548585838181106111215761112161319a565b90506020020160208101906111369190612cc9565b8484848181106111485761114861319a565b90506020020135611756565b600101611104565b60005b83811015610888576111af85858381811061117c5761117c61319a565b90506020020160208101906111919190612cc9565b8484848181106111a3576111a361319a565b90506020020135610e08565b60010161115f565b6001600160a01b031660009081526001602052604090205490565b6111da61285e565b6111e46000612966565b565b6111ef336109a6565b61120b5760405162461bcd60e51b815260040161071a90613123565b60095460ff161561122e5760405162461bcd60e51b815260040161071a906131e0565b6009805460ff191660011790556040517f62e78cea01bee320cd4e420270b5ea74000d11b0c9f74754ebdbfc544b05a25890610dfe903390612cb5565b61127361285e565b6001600160a01b0381166112995760405162461bcd60e51b815260040161071a9061333d565b6112a46000826129d7565b6040516001600160a01b038216907ff68e73cec97f2d70aa641fb26e87a4383686e2efacb648f2165aeb02ac562ec590600090a250565b60005b838110156108885761132e8585838181106112fb576112fb61319a565b90506020020160208101906113109190612cc9565b8484848181106113225761132261319a565b90506020020135611b43565b506001016112de565b7f9016d09d72d40fdae2fd8ceac6b6234c7706214fd39c1cd1e609a0528c199300546001600160a01b031690565b6000611370336109a6565b61138c5760405162461bcd60e51b815260040161071a90613123565b611395846111b7565b6000036113db5760405162461bcd60e51b81526020600482015260146024820152733737903a37b5b2b739903a37903932b1b7bb32b960611b604482015260640161071a565b60405182906000906113f1908690602001612cb5565b60408051808303601f1901815290829052805160209091012063d202158d60e01b8252600482018190526001602483015291506001600160a01b0383169063d202158d90604401602060405180830381865afa158015611455573d6000803e3d6000fd5b505050506040513d601f19601f820116820180604052508101906114799190613262565b15611697576000611489876111b7565b6001600160a01b0380891660009081526008602052604090819020546009549151637e42683b60e01b8152939450926101009091049091169063454a03e090899087908490637e42683b906114e2908f90600401612cb5565b602060405180830381865afa1580156114ff573d6000803e3d6000fd5b505050506040513d601f19601f820116820180604052508101906115239190613374565b6040516001600160e01b031960e086901b1681526001600160a01b03938416600482015292909116602483015261ffff166044820152606401600060405180830381600087803b15801561157657600080fd5b505af115801561158a573d6000803e3d6000fd5b505050506115998888846118ef565b5080156115aa576115aa87826106f5565b6001600160a01b03881660009081526007602052604090205460ff1615156001036115da576115da876001611f17565b60095460405163a8d29d1d60e01b81526101009091046001600160a01b03169063a8d29d1d9061160e908b90600401612cb5565b600060405180830381600087803b15801561162857600080fd5b505af115801561163c573d6000803e3d6000fd5b50505050856001600160a01b0316876001600160a01b0316896001600160a01b03167ff0c9129a94f30f1caaceb63e44b9811d0a3edf1d6c23757f346093af5553fed060405160405180910390a46001945050505050610c6c565b60405162461bcd60e51b81526020600482015260156024820152745265636f76657279206e6f7420706f737369626c6560581b604482015260640161071a565b60606005805461065b906130e9565b6116ee61285e565b6001600160a01b0381166117145760405162461bcd60e51b815260040161071a9061333d565b61171f600082612a53565b6040516001600160a01b038216907fed9c8ad8d5a0a66898ea49d2956929c93ae2e8bd50281b2ed897c5d1a6737e0b90600090a250565b61175f336109a6565b61177b5760405162461bcd60e51b815260040161071a90613123565b80611785836111b7565b10156117d35760405162461bcd60e51b815260206004820152601d60248201527f63616e6e6f74206275726e206d6f7265207468616e2062616c616e6365000000604482015260640161071a565b6001600160a01b0382166000908152600860205260408120546117f5846111b7565b6117ff91906131cd565b90508082111561188357600061181582846131cd565b6001600160a01b03851660009081526008602052604090205490915061183c9082906131cd565b6001600160a01b038516600081815260086020526040908190209290925590516000805160206135ce833981519152906118799084815260200190565b60405180910390a2505b61188d8383612ad5565b600a5460405163469753b960e11b81526001600160a01b0385811660048301526024820185905290911690638d2ea77290604401600060405180830381600087803b1580156118db57600080fd5b505af115801561109d573d6000803e3d6000fd5b60006118fa336109a6565b6119165760405162461bcd60e51b815260040161071a90613123565b81611920856111b7565b10156119675760405162461bcd60e51b815260206004820152601660248201527573656e6465722062616c616e636520746f6f206c6f7760501b604482015260640161071a565b6001600160a01b038416600090815260086020526040812054611989866111b7565b61199391906131cd565b905080831115611a175760006119a982856131cd565b6001600160a01b0387166000908152600860205260409020549091506119d09082906131cd565b6001600160a01b038716600081815260086020526040908190209290925590516000805160206135ce83398151915290611a0d9084815260200190565b60405180910390a2505b60095460405163b9209e3360e01b81526101009091046001600160a01b03169063b9209e3390611a4b908790600401612cb5565b602060405180830381865afa158015611a68573d6000803e3d6000fd5b505050506040513d601f19601f82011682018060405250810190611a8c9190613262565b15610c2c57611a9c858585612702565b600a546040516322ebca6d60e21b81526001600160a01b0390911690638baf29b490611ad09088908890889060040161327f565b600060405180830381600087803b158015611aea57600080fd5b505af1158015611afe573d6000803e3d6000fd5b505050506001915050610c6c565b3360008181526002602090815260408083206001600160a01b038716845290915281205490916106eb918590610bad9086906131cd565b60095460009060ff1615611b695760405162461bcd60e51b815260040161071a906131e0565b6001600160a01b03831660009081526007602052604090205460ff16158015611ba257503360009081526007602052604090205460ff16155b611bbe5760405162461bcd60e51b815260040161071a9061320a565b3360008181526008602052604090205490611bd8906111b7565b611be291906131cd565b821115611c015760405162461bcd60e51b815260040161071a90613234565b60095460405163b9209e3360e01b81526101009091046001600160a01b03169063b9209e3390611c35908690600401612cb5565b602060405180830381865afa158015611c52573d6000803e3d6000fd5b505050506040513d601f19601f82011682018060405250810190611c769190613262565b8015611cf25750600a546040516372331c7360e11b81526001600160a01b039091169063e46638e690611cb19033908790879060040161327f565b602060405180830381865afa158015611cce573d6000803e3d6000fd5b505050506040513d601f19601f82011682018060405250810190611cf29190613262565b15610c2c57611d02338484612702565b600a546040516322ebca6d60e21b81526001600160a01b0390911690638baf29b490611d369033908790879060040161327f565b600060405180830381600087803b158015611d5057600080fd5b505af1158015611d64573d6000803e3d6000fd5b50505050600190506106ef565b611d7961285e565b604051602001611d9490602080825260009082015260400190565b604051602081830303815290604052805190602001208282604051602001611dbd929190613398565b6040516020818303038152906040528051906020012003611df05760405162461bcd60e51b815260040161071a906133c7565b6005611dfd82848361345b565b506006546040516101009091046001600160a01b031690611e20906005906132a3565b60405180910390206004604051611e3791906132a3565b6040805191829003822060065483830183526005845264342e312e3360d81b60208501529151909260008051602061360e83398151915292611e7f9260ff9091169190613319565b60405180910390a45050565b611e9361285e565b604051602001611eae90602080825260009082015260400190565b604051602081830303815290604052805190602001208282604051602001611ed7929190613398565b6040516020818303038152906040528051906020012003611f0a5760405162461bcd60e51b815260040161071a906133c7565b6004611dfd82848361345b565b611f20336109a6565b611f3c5760405162461bcd60e51b815260040161071a90613123565b6001600160a01b038216600081815260076020526040808220805460ff19168515159081179091559051339391927f7fa523c84ab8d7fc5b72f08b9e46dbbf10c39e119a075b3e317002d14bc9f43691a45050565b611f9961285e565b60098054610100600160a81b0319166101006001600160a01b038416908102919091179091556040517fd2be862d755bca7e0d39772b2cab3a5578da9c285f69199f4c063c2294a7f36c90600090a250565b611ff361285e565b6001600160a01b03811661201d576000604051631e4fbdf760e01b815260040161071a9190612cb5565b61202681612966565b50565b61203161285e565b600a546001600160a01b0316156120a557600a5460405163040db3b560e41b81526001600160a01b03909116906340db3b5090612072903090600401612cb5565b600060405180830381600087803b15801561208c57600080fd5b505af11580156120a0573d6000803e3d6000fd5b505050505b600a80546001600160a01b0319166001600160a01b038316908117909155604051631ffad50160e11b8152633ff5aa02906120e4903090600401612cb5565b600060405180830381600087803b1580156120fe57600080fd5b505af1158015612112573d6000803e3d6000fd5b50506040516001600160a01b03841692507f7f3a888862559648ec01d97deb7b5012bff86dc91e654a1de397170db40e35b69150600090a250565b7ff0c57e16840df040f15088dc2f81fe391c3923bec73e23a9662efc9c229c6a008054600160401b810460ff1615906001600160401b03166000811580156121925750825b90506000826001600160401b031660011480156121ae5750303b155b9050811580156121bc575080155b156121da5760405163f92ee8a960e01b815260040160405180910390fd5b845467ffffffffffffffff19166001178555831561220457845460ff60401b1916600160401b1785555b600061220e611337565b6001600160a01b03161461225a5760405162461bcd60e51b8152602060048201526013602482015272185b1c9958591e481a5b9a5d1a585b1a5e9959606a1b604482015260640161071a565b6001600160a01b038b161580159061227a57506001600160a01b038a1615155b6122965760405162461bcd60e51b815260040161071a9061333d565b6040516020016122b190602080825260009082015260400190565b60405160208183030381529060405280519060200120896040516020016122d89190612c5c565b6040516020818303038152906040528051906020012014158015612352575060405160200161231290602080825260009082015260400190565b60405160208183030381529060405280519060200120886040516020016123399190612c5c565b6040516020818303038152906040528051906020012014155b61236e5760405162461bcd60e51b815260040161071a906133c7565b60128760ff1611156123be5760405162461bcd60e51b81526020600482015260196024820152780c8cac6d2dac2d8e640c4cae8eecacadc406040c2dcc840627603b1b604482015260640161071a565b6123c733612baf565b60046123d38a82613514565b5060056123e08982613514565b50600680546001600160a01b038816610100026001600160a81b031990911660ff8a16171790556009805460ff1916905561241a8b611f91565b6124238a612029565b6006546040516101009091046001600160a01b031690612445906005906132a3565b6040518091039020600460405161245c91906132a3565b6040805191829003822060065483830183526005845264342e312e3360d81b60208501529151909260008051602061360e833981519152926124a49260ff9091169190613319565b60405180910390a483156124f257845460ff60401b19168555604051600181527fc7f505b2f371ae2175ee4913f4499e1f2633a7b5936321eed1cdaeb6115181d29060200160405180910390a15b5050505050505050505050565b60005b838110156108885761255285858381811061251f5761251f61319a565b90506020020160208101906125349190612cc9565b8484848181106125465761254661319a565b905060200201356106f5565b600101612502565b6001600160a01b0383166125bc5760405162461bcd60e51b8152602060048201526024808201527f45524332303a20617070726f76652066726f6d20746865207a65726f206164646044820152637265737360e01b606482015260840161071a565b6001600160a01b03821661261d5760405162461bcd60e51b815260206004820152602260248201527f45524332303a20617070726f766520746f20746865207a65726f206164647265604482015261737360f01b606482015260840161071a565b6001600160a01b0383811660008181526002602090815260408083209487168084529482529182902085905590518481527f8c5be1e5ebec7d5bd14f71427d1e84f3dd0314c0f7b2291e5b200ac8c7c3b92591015b60405180910390a3505050565b60006001600160a01b0382166126e25760405162461bcd60e51b815260206004820152602260248201527f526f6c65733a206163636f756e7420697320746865207a65726f206164647265604482015261737360f01b606482015260840161071a565b506001600160a01b03166000908152602091909152604090205460ff1690565b6001600160a01b0383166127665760405162461bcd60e51b815260206004820152602560248201527f45524332303a207472616e736665722066726f6d20746865207a65726f206164604482015264647265737360d81b606482015260840161071a565b6001600160a01b0382166127c85760405162461bcd60e51b815260206004820152602360248201527f45524332303a207472616e7366657220746f20746865207a65726f206164647260448201526265737360e81b606482015260840161071a565b6001600160a01b0383166000908152600160205260409020546127ec9082906131cd565b6001600160a01b03808516600090815260016020526040808220939093559084168152205461281c908290613187565b6001600160a01b0380841660008181526001602052604090819020939093559151908516906000805160206135ee833981519152906126729085815260200190565b33612867611337565b6001600160a01b0316146111e4573360405163118cdaa760e01b815260040161071a9190612cb5565b6001600160a01b0382166128e65760405162461bcd60e51b815260206004820152601f60248201527f45524332303a206d696e7420746f20746865207a65726f206164647265737300604482015260640161071a565b806003546128f49190613187565b6003556001600160a01b03821660009081526001602052604090205461291b908290613187565b6001600160a01b0383166000818152600160205260408082209390935591519091906000805160206135ee8339815191529061295a9085815260200190565b60405180910390a35050565b7f9016d09d72d40fdae2fd8ceac6b6234c7706214fd39c1cd1e609a0528c19930080546001600160a01b031981166001600160a01b03848116918217845560405192169182907f8be0079c531659141344cd1fd0a4f28419497f9722a3daafe3b4186f6b6457e090600090a3505050565b6129e1828261267f565b15612a2e5760405162461bcd60e51b815260206004820152601f60248201527f526f6c65733a206163636f756e7420616c72656164792068617320726f6c6500604482015260640161071a565b6001600160a01b0316600090815260209190915260409020805460ff19166001179055565b612a5d828261267f565b612ab35760405162461bcd60e51b815260206004820152602160248201527f526f6c65733a206163636f756e7420646f6573206e6f74206861766520726f6c6044820152606560f81b606482015260840161071a565b6001600160a01b0316600090815260209190915260409020805460ff19169055565b6001600160a01b038216612b355760405162461bcd60e51b815260206004820152602160248201527f45524332303a206275726e2066726f6d20746865207a65726f206164647265736044820152607360f81b606482015260840161071a565b6001600160a01b038216600090815260016020526040902054612b599082906131cd565b6001600160a01b038316600090815260016020526040902055600354612b809082906131cd565b6003556040518181526000906001600160a01b038416906000805160206135ee8339815191529060200161295a565b612bb7612bc5565b61202681612c0e565b505050565b7ff0c57e16840df040f15088dc2f81fe391c3923bec73e23a9662efc9c229c6a0054600160401b900460ff166111e457604051631afcd79f60e31b815260040160405180910390fd5b611ff3612bc5565b6000815180845260005b81811015612c3c57602081850181015186830182015201612c20565b506000602082860101526020601f19601f83011685010191505092915050565b602081526000610c6c6020830184612c16565b80356001600160a01b0381168114612c8657600080fd5b919050565b60008060408385031215612c9e57600080fd5b612ca783612c6f565b946020939093013593505050565b6001600160a01b0391909116815260200190565b600060208284031215612cdb57600080fd5b610c6c82612c6f565b60008083601f840112612cf657600080fd5b5081356001600160401b03811115612d0d57600080fd5b6020830191508360208260051b8501011115612d2857600080fd5b9250929050565b60008060008060408587031215612d4557600080fd5b84356001600160401b0380821115612d5c57600080fd5b612d6888838901612ce4565b90965094506020870135915080821115612d8157600080fd5b50612d8e87828801612ce4565b95989497509550505050565b600080600060608486031215612daf57600080fd5b612db884612c6f565b9250612dc660208501612c6f565b9150604084013590509250925092565b60008060008060008060608789031215612def57600080fd5b86356001600160401b0380821115612e0657600080fd5b612e128a838b01612ce4565b90985096506020890135915080821115612e2b57600080fd5b612e378a838b01612ce4565b90965094506040890135915080821115612e5057600080fd5b50612e5d89828a01612ce4565b979a9699509497509295939492505050565b600080600060608486031215612e8457600080fd5b612e8d84612c6f565b9250612e9b60208501612c6f565b9150612ea960408501612c6f565b90509250925092565b60008060208385031215612ec557600080fd5b82356001600160401b0380821115612edc57600080fd5b818501915085601f830112612ef057600080fd5b813581811115612eff57600080fd5b866020828501011115612f1157600080fd5b60209290920196919550909350505050565b801515811461202657600080fd5b60008060408385031215612f4457600080fd5b612f4d83612c6f565b91506020830135612f5d81612f23565b809150509250929050565b60008060408385031215612f7b57600080fd5b612f8483612c6f565b9150612f9260208401612c6f565b90509250929050565b634e487b7160e01b600052604160045260246000fd5b600082601f830112612fc257600080fd5b81356001600160401b0380821115612fdc57612fdc612f9b565b604051601f8301601f19908116603f0116810190828211818310171561300457613004612f9b565b8160405283815286602085880101111561301d57600080fd5b836020870160208301376000602085830101528094505050505092915050565b60008060008060008060c0878903121561305657600080fd5b61305f87612c6f565b955061306d60208801612c6f565b945060408701356001600160401b038082111561308957600080fd5b6130958a838b01612fb1565b955060608901359150808211156130ab57600080fd5b506130b889828a01612fb1565b935050608087013560ff811681146130cf57600080fd5b91506130dd60a08801612c6f565b90509295509295509295565b600181811c908216806130fd57607f821691505b60208210810361311d57634e487b7160e01b600052602260045260246000fd5b50919050565b6020808252602e908201527f4167656e74526f6c653a2063616c6c657220646f6573206e6f7420686176652060408201526d746865204167656e7420726f6c6560901b606082015260800190565b634e487b7160e01b600052601160045260246000fd5b808201808211156106ef576106ef613171565b634e487b7160e01b600052603260045260246000fd5b6000602082840312156131c257600080fd5b8135610c6c81612f23565b818103818111156106ef576106ef613171565b60208082526010908201526f14185d5cd8589b194e881c185d5cd95960821b604082015260600190565b60208082526010908201526f3bb0b63632ba1034b990333937bd32b760811b604082015260600190565b602080825260149082015273496e73756666696369656e742042616c616e636560601b604082015260600190565b60006020828403121561327457600080fd5b8151610c6c81612f23565b6001600160a01b039384168152919092166020820152604081019190915260600190565b60008083546132b1816130e9565b600182811680156132c957600181146132de5761330d565b60ff198416875282151583028701945061330d565b8760005260208060002060005b858110156133045781548a8201529084019082016132eb565b50505082870194505b50929695505050505050565b60ff831681526040602082015260006133356040830184612c16565b949350505050565b6020808252601f908201527f696e76616c696420617267756d656e74202d207a65726f206164647265737300604082015260600190565b60006020828403121561338657600080fd5b815161ffff81168114610c6c57600080fd5b60208152816020820152818360408301376000818301604090810191909152601f909201601f19160101919050565b6020808252601f908201527f696e76616c696420617267756d656e74202d20656d70747920737472696e6700604082015260600190565b601f821115612bc0576000816000526020600020601f850160051c810160208610156134275750805b601f850160051c820191505b8181101561101257828155600101613433565b600019600383901b1c191660019190911b1790565b6001600160401b0383111561347257613472612f9b565b6134868361348083546130e9565b836133fe565b6000601f8411600181146134b457600085156134a25750838201355b6134ac8682613446565b845550610888565b600083815260209020601f19861690835b828110156134e557868501358255602094850194600190920191016134c5565b50868210156135025760001960f88860031b161c19848701351681555b505060018560011b0183555050505050565b81516001600160401b0381111561352d5761352d612f9b565b6135418161353b84546130e9565b846133fe565b602080601f831160018114613570576000841561355e5750858301515b6135688582613446565b865550611012565b600085815260208120601f198616915b8281101561359f57888601518255948401946001909101908401613580565b50858210156135bd5787850151600019600388901b60f8161c191681555b5050505050600190811b0190555056fe9bed35cb62ad0dba04f9d5bfee4b5bc91443e77da8a65c4c84834c51bb08b0d6ddf252ad1be2c89b69c2b068fc378daa952ba7f163c4a11628f55a4df523b3ef6a1105ac8148a3c319adbc369f9072573e8a11d3a3d195e067e7c40767ec54d1a26469706673582212207006b6b6e5d7517c0243aa386132d92ee9df35038391a146e7a7908b27fe9e6564736f6c63430008180033",
  "linkReferences": {},
  "deployedLinkReferences": {}
}