{
  "_format": "hh-sol-artifact-1",
  "contractName": "TokenBalancer",
  "sourceName": "contracts/erc4626/TokenBalancer.sol",
  "abi": [
    {
      "inputs": [
        {
          "internalType": "address",
          "name": "_pyth",
          "type": "address"
        },
        {
          "internalType": "address",
          "name": "_saucerSwap",
          "type": "address"
        },
        {
          "internalType": "address[]",
          "name": "_tokens",
          "type": "address[]"
        },
        {
          "internalType": "uint256[]",
          "name": "_allocationPercentage",
          "type": "uint256[]"
        },
        {
          "internalType": "bytes32[]",
          "name": "_priceIds",
          "type": "bytes32[]"
        }
      ],
      "stateMutability": "nonpayable",
      "type": "constructor"
    },
    {
      "inputs": [],
      "name": "AccessControlBadConfirmation",
      "type": "error"
    },
    {
      "inputs": [
        {
          "internalType": "address",
          "name": "account",
          "type": "address"
        },
        {
          "internalType": "bytes32",
          "name": "neededRole",
          "type": "bytes32"
        }
      ],
      "name": "AccessControlUnauthorizedAccount",
      "type": "error"
    },
    {
      "anonymous": false,
      "inputs": [
        {
          "indexed": true,
          "internalType": "bytes32",
          "name": "role",
          "type": "bytes32"
        },
        {
          "indexed": true,
          "internalType": "bytes32",
          "name": "previousAdminRole",
          "type": "bytes32"
        },
        {
          "indexed": true,
          "internalType": "bytes32",
          "name": "newAdminRole",
          "type": "bytes32"
        }
      ],
      "name": "RoleAdminChanged",
      "type": "event"
    },
    {
      "anonymous": false,
      "inputs": [
        {
          "indexed": true,
          "internalType": "bytes32",
          "name": "role",
          "type": "bytes32"
        },
        {
          "indexed": true,
          "internalType": "address",
          "name": "account",
          "type": "address"
        },
        {
          "indexed": true,
          "internalType": "address",
          "name": "sender",
          "type": "address"
        }
      ],
      "name": "RoleGranted",
      "type": "event"
    },
    {
      "anonymous": false,
      "inputs": [
        {
          "indexed": true,
          "internalType": "bytes32",
          "name": "role",
          "type": "bytes32"
        },
        {
          "indexed": true,
          "internalType": "address",
          "name": "account",
          "type": "address"
        },
        {
          "indexed": true,
          "internalType": "address",
          "name": "sender",
          "type": "address"
        }
      ],
      "name": "RoleRevoked",
      "type": "event"
    },
    {
      "anonymous": false,
      "inputs": [
        {
          "indexed": true,
          "internalType": "address",
          "name": "token",
          "type": "address"
        },
        {
          "indexed": false,
          "internalType": "uint256",
          "name": "allocationPercentage",
          "type": "uint256"
        }
      ],
      "name": "TargetAllocationPercentageChanged",
      "type": "event"
    },
    {
      "anonymous": false,
      "inputs": [
        {
          "indexed": true,
          "internalType": "address",
          "name": "token",
          "type": "address"
        },
        {
          "indexed": false,
          "internalType": "bytes32",
          "name": "priceId",
          "type": "bytes32"
        },
        {
          "indexed": false,
          "internalType": "uint256",
          "name": "allocationPercentage",
          "type": "uint256"
        }
      ],
      "name": "TokenAdded",
      "type": "event"
    },
    {
      "inputs": [],
      "name": "DEFAULT_ADMIN_ROLE",
      "outputs": [
        {
          "internalType": "bytes32",
          "name": "",
          "type": "bytes32"
        }
      ],
      "stateMutability": "view",
      "type": "function"
    },
    {
      "inputs": [
        {
          "internalType": "address",
          "name": "token",
          "type": "address"
        },
        {
          "internalType": "bytes32",
          "name": "priceId",
          "type": "bytes32"
        }
      ],
      "name": "_getPrice",
      "outputs": [
        {
          "internalType": "uint256",
          "name": "oneDollarInToken",
          "type": "uint256"
        }
      ],
      "stateMutability": "view",
      "type": "function"
    },
    {
      "inputs": [
        {
          "internalType": "uint256[]",
          "name": "_tokenPrices",
          "type": "uint256[]"
        },
        {
          "internalType": "address[]",
          "name": "_rewardTokens",
          "type": "address[]"
        },
        {
          "internalType": "uint256",
          "name": "rewardTokensSize",
          "type": "uint256"
        }
      ],
      "name": "_rebalance",
      "outputs": [
        {
          "internalType": "uint256[]",
          "name": "",
          "type": "uint256[]"
        }
      ],
      "stateMutability": "view",
      "type": "function"
    },
    {
      "inputs": [
        {
          "internalType": "address[]",
          "name": "_rewardTokens",
          "type": "address[]"
        },
        {
          "internalType": "uint256",
          "name": "rewardTokensSize",
          "type": "uint256"
        }
      ],
      "name": "_swapExtraRewardSupplyToTransitionToken",
      "outputs": [],
      "stateMutability": "nonpayable",
      "type": "function"
    },
    {
      "inputs": [
        {
          "internalType": "address",
          "name": "token",
          "type": "address"
        },
        {
          "internalType": "bytes32",
          "name": "priceId",
          "type": "bytes32"
        },
        {
          "internalType": "uint256",
          "name": "percentage",
          "type": "uint256"
        }
      ],
      "name": "addTrackingToken",
      "outputs": [],
      "stateMutability": "nonpayable",
      "type": "function"
    },
    {
      "inputs": [
        {
          "internalType": "bytes32",
          "name": "role",
          "type": "bytes32"
        }
      ],
      "name": "getRoleAdmin",
      "outputs": [
        {
          "internalType": "bytes32",
          "name": "",
          "type": "bytes32"
        }
      ],
      "stateMutability": "view",
      "type": "function"
    },
    {
      "inputs": [
        {
          "internalType": "bytes32",
          "name": "role",
          "type": "bytes32"
        },
        {
          "internalType": "address",
          "name": "account",
          "type": "address"
        }
      ],
      "name": "grantRole",
      "outputs": [],
      "stateMutability": "nonpayable",
      "type": "function"
    },
    {
      "inputs": [
        {
          "internalType": "bytes32",
          "name": "role",
          "type": "bytes32"
        },
        {
          "internalType": "address",
          "name": "account",
          "type": "address"
        }
      ],
      "name": "hasRole",
      "outputs": [
        {
          "internalType": "bool",
          "name": "",
          "type": "bool"
        }
      ],
      "stateMutability": "view",
      "type": "function"
    },
    {
      "inputs": [],
      "name": "pyth",
      "outputs": [
        {
          "internalType": "contract IPyth",
          "name": "",
          "type": "address"
        }
      ],
      "stateMutability": "view",
      "type": "function"
    },
    {
      "inputs": [
        {
          "internalType": "address[]",
          "name": "_rewardTokens",
          "type": "address[]"
        }
      ],
      "name": "rebalance",
      "outputs": [],
      "stateMutability": "nonpayable",
      "type": "function"
    },
    {
      "inputs": [
        {
          "internalType": "bytes32",
          "name": "role",
          "type": "bytes32"
        },
        {
          "internalType": "address",
          "name": "callerConfirmation",
          "type": "address"
        }
      ],
      "name": "renounceRole",
      "outputs": [],
      "stateMutability": "nonpayable",
      "type": "function"
    },
    {
      "inputs": [
        {
          "internalType": "bytes32",
          "name": "role",
          "type": "bytes32"
        },
        {
          "internalType": "address",
          "name": "account",
          "type": "address"
        }
      ],
      "name": "revokeRole",
      "outputs": [],
      "stateMutability": "nonpayable",
      "type": "function"
    },
    {
      "inputs": [],
      "name": "saucerSwap",
      "outputs": [
        {
          "internalType": "contract IUniswapV2Router02",
          "name": "",
          "type": "address"
        }
      ],
      "stateMutability": "view",
      "type": "function"
    },
    {
      "inputs": [
        {
          "internalType": "address",
          "name": "token",
          "type": "address"
        },
        {
          "internalType": "uint256",
          "name": "percentage",
          "type": "uint256"
        }
      ],
      "name": "setAllocationPercentage",
      "outputs": [],
      "stateMutability": "nonpayable",
      "type": "function"
    },
    {
      "inputs": [
        {
          "internalType": "bytes4",
          "name": "interfaceId",
          "type": "bytes4"
        }
      ],
      "name": "supportsInterface",
      "outputs": [
        {
          "internalType": "bool",
          "name": "",
          "type": "bool"
        }
      ],
      "stateMutability": "view",
      "type": "function"
    },
    {
      "inputs": [
        {
          "internalType": "address",
          "name": "token",
          "type": "address"
        }
      ],
      "name": "tokens",
      "outputs": [
        {
          "internalType": "bytes32",
          "name": "priceId",
          "type": "bytes32"
        },
        {
          "internalType": "uint256",
          "name": "price",
          "type": "uint256"
        },
        {
          "internalType": "uint256",
          "name": "targetPercentage",
          "type": "uint256"
        }
      ],
      "stateMutability": "view",
      "type": "function"
    },
    {
      "inputs": [
        {
          "internalType": "bytes[]",
          "name": "pythPriceUpdate",
          "type": "bytes[]"
        }
      ],
      "name": "update",
      "outputs": [],
      "stateMutability": "payable",
      "type": "function"
    }
  ],
  "bytecode": "0x60806040523480156200001157600080fd5b506040516200265038038062002650833981016040819052620000349162000908565b6001600160a01b0385166200009c5760405162461bcd60e51b815260206004820152602360248201527f546f6b656e42616c616e6365723a20496e76616c69642050797468206164647260448201526265737360e81b60648201526084015b60405180910390fd5b6001600160a01b038416620001075760405162461bcd60e51b815260206004820152602a60248201527f546f6b656e42616c616e6365723a20496e76616c6964205361756365722053776044820152696170206164647265737360b01b606482015260840162000093565b8251158015906200011a57508251600a10155b620001785760405162461bcd60e51b815260206004820152602760248201527f546f6b656e42616c616e6365723a20496e76616c696420616d6f756e74206f6660448201526620746f6b656e7360c81b606482015260840162000093565b6000825111620001f15760405162461bcd60e51b815260206004820152603360248201527f546f6b656e42616c616e6365723a20416c6c6f636174696f6e2070657263656e60448201527f74616765206e6f7420636f6e6669677572656400000000000000000000000000606482015260840162000093565b6000815111620002445760405162461bcd60e51b815260206004820152601b60248201527f546f6b656e42616c616e6365723a204e6f207072696365206964730000000000604482015260640162000093565b600180546001600160a01b038087166001600160a01b0319928316179092556002805492881692909116919091179055825160005b81811015620002f257620002e98582815181106200029b576200029b62000a26565b6020026020010151848381518110620002b857620002b862000a26565b6020026020010151868481518110620002d557620002d562000a26565b6020026020010151620002ff60201b60201c565b60010162000279565b5050505050505062000b3d565b6001600160a01b038316620003635760405162461bcd60e51b8152602060048201526024808201527f546f6b656e42616c616e6365723a20496e76616c696420746f6b656e206164646044820152637265737360e01b606482015260840162000093565b6127108110620003c55760405162461bcd60e51b815260206004820152602660248201527f546f6b656e42616c616e6365723a2050657263656e746167652065786365656460448201526573203130302560d01b606482015260840162000093565b6001600160a01b03831660009081526003602052604090205415620004395760405162461bcd60e51b815260206004820152602360248201527f546f6b656e42616c616e6365723a20546f6b656e20616c72656164792065786960448201526273747360e81b606482015260840162000093565b604080516002808252606082018352600092602083019080368337505060015460408051631a0fcb6560e31b815290519394506001600160a01b039091169263d07e5b28925060048083019260209291908290030181865afa158015620004a4573d6000803e3d6000fd5b505050506040513d601f19601f82011682018060405250810190620004ca919062000a3c565b8482600081518110620004e157620004e162000a26565b6020026020010183600181518110620004fe57620004fe62000a26565b60200260200101826001600160a01b03166001600160a01b0316815250826001600160a01b03166001600160a01b031681525050506040518060800160405280848152602001620005568686620005fe60201b60201c565b8152602080820185905260409182018490526001600160a01b03871660009081526003808352908390208451815584830151600182015592840151600284015560608401518051620005b19392850192919091019062000784565b505060408051858152602081018590526001600160a01b03871692507fefa7a2b3fd9548d74d3e0c430cdba8b6e72f7ba3aa752385250c646eecd96584910160405180910390a250505050565b6002546040516331d98b3f60e01b81526004810183905260009182916001600160a01b03909116906331d98b3f90602401608060405180830381865afa1580156200064d573d6000803e3d6000fd5b505050506040513d601f19601f8201168201806040525081019062000673919062000a61565b9050806000015160070b73__$2f7d61c278077ad9ff6dabaf3cf2055321$__63b55522b290918360400151876001600160a01b031663313ce5676040518163ffffffff1660e01b8152600401602060405180830381865afa158015620006dd573d6000803e3d6000fd5b505050506040513d601f19601f8201168201806040525081019062000703919062000afe565b6040516001600160e01b031960e086901b16815260079390930b600484015260039190910b602483015260ff166044820152606401602060405180830381865af415801562000756573d6000803e3d6000fd5b505050506040513d601f19601f820116820180604052508101906200077c919062000b23565b949350505050565b828054828255906000526020600020908101928215620007dc579160200282015b82811115620007dc57825182546001600160a01b0319166001600160a01b03909116178255602090920191600190910190620007a5565b50620007ea929150620007ee565b5090565b5b80821115620007ea5760008155600101620007ef565b80516001600160a01b03811681146200081d57600080fd5b919050565b634e487b7160e01b600052604160045260246000fd5b604051601f8201601f191681016001600160401b038111828210171562000863576200086362000822565b604052919050565b60006001600160401b0382111562000887576200088762000822565b5060051b60200190565b600082601f830112620008a357600080fd5b81516020620008bc620008b6836200086b565b62000838565b8083825260208201915060208460051b870101935086841115620008df57600080fd5b602086015b84811015620008fd5780518352918301918301620008e4565b509695505050505050565b600080600080600060a086880312156200092157600080fd5b6200092c8662000805565b945060206200093d81880162000805565b60408801519095506001600160401b03808211156200095b57600080fd5b818901915089601f8301126200097057600080fd5b815162000981620008b6826200086b565b81815260059190911b8301840190848101908c831115620009a157600080fd5b938501935b82851015620009ca57620009ba8562000805565b82529385019390850190620009a6565b60608c01519098509450505080831115620009e457600080fd5b620009f28a848b0162000891565b9450608089015192508083111562000a0957600080fd5b505062000a198882890162000891565b9150509295509295909350565b634e487b7160e01b600052603260045260246000fd5b60006020828403121562000a4f57600080fd5b62000a5a8262000805565b9392505050565b60006080828403121562000a7457600080fd5b604051608081016001600160401b03808211838310171562000a9a5762000a9a62000822565b81604052845191508160070b821462000ab257600080fd5b908252602084015190808216821462000aca57600080fd5b5060208201526040830151600381900b811462000ae657600080fd5b60408201526060928301519281019290925250919050565b60006020828403121562000b1157600080fd5b815160ff8116811462000a5a57600080fd5b60006020828403121562000b3657600080fd5b5051919050565b611b038062000b4d6000396000f3fe6080604052600436106100fe5760003560e01c806388a320fe11610095578063d547741f11610064578063d547741f146102d2578063e313ff4e146102f2578063e486033914610312578063f52a346814610369578063f98d06f01461037c57600080fd5b806388a320fe1461024557806391d148541461027d578063a217fddf1461029d578063bea9db6d146102b257600080fd5b80632f2ff15d116100d15780632f2ff15d146101b857806336568abe146101d857806358f5bb7a146101f857806365509bae1461021857600080fd5b806301ffc9a7146101035780630d8ebb3b146101385780631dedc4cd1461015a578063248a9ca31461017a575b600080fd5b34801561010f57600080fd5b5061012361011e3660046113bf565b61039c565b60405190151581526020015b60405180910390f35b34801561014457600080fd5b50610158610153366004611405565b6103d3565b005b34801561016657600080fd5b5061015861017536600461147d565b6104d3565b34801561018657600080fd5b506101aa6101953660046114c9565b60009081526020819052604090206001015490565b60405190815260200161012f565b3480156101c457600080fd5b506101586101d33660046114e2565b610798565b3480156101e457600080fd5b506101586101f33660046114e2565b6107c3565b34801561020457600080fd5b506101aa610213366004611405565b6107fb565b34801561022457600080fd5b5061023861023336600461157d565b610978565b60405161012f9190611647565b34801561025157600080fd5b50600154610265906001600160a01b031681565b6040516001600160a01b03909116815260200161012f565b34801561028957600080fd5b506101236102983660046114e2565b610c05565b3480156102a957600080fd5b506101aa600081565b3480156102be57600080fd5b506101586102cd36600461168b565b610c2e565b3480156102de57600080fd5b506101586102ed3660046114e2565b610e1d565b3480156102fe57600080fd5b5061015861030d3660046116cd565b610e42565b34801561031e57600080fd5b5061034e61032d366004611702565b60036020526000908152604090208054600182015460029092015490919083565b6040805193845260208401929092529082015260600161012f565b61015861037736600461168b565b611128565b34801561038857600080fd5b50600254610265906001600160a01b031681565b60006001600160e01b03198216637965db0b60e01b14806103cd57506301ffc9a760e01b6001600160e01b03198316145b92915050565b6001600160a01b0382166104265760405162461bcd60e51b8152602060048201526015602482015274496e76616c696420746f6b656e206164647265737360581b60448201526064015b60405180910390fd5b61271081106104775760405162461bcd60e51b815260206004820152601760248201527f50657263656e7461676520657863656564732031303025000000000000000000604482015260640161041d565b6001600160a01b03821660008181526003602052604090819020600201839055517f06a65dde886f983f3a8b38fa2410465911b7403ee18b9b3e2b35740684a1b84d906104c79084815260200190565b60405180910390a25050565b60008060008060005b8581101561078e576000600360008a8a858181106104fc576104fc61171f565b90506020020160208101906105119190611702565b6001600160a01b03166001600160a01b0316815260200190815260200160002090508888838181106105455761054561171f565b905060200201602081019061055a9190611702565b6040516370a0823160e01b81523360048201526001600160a01b0391909116906370a0823190602401602060405180830381865afa1580156105a0573d6000803e3d6000fd5b505050506040513d601f19601f820116820180604052508101906105c49190611735565b95508060010154866105d69190611764565b9450612710600360008b8b868181106105f1576105f161171f565b90506020020160208101906106069190611702565b6001600160a01b0316815260208101919091526040016000206002015461062d9087611764565b610637919061177b565b9350806001015484610649919061177b565b92508286111561078557600061065f848861179d565b90508989848181106106735761067361171f565b90506020020160208101906106889190611702565b60015460405163095ea7b360e01b81526001600160a01b0391821660048201526024810184905291169063095ea7b3906044016020604051808303816000875af11580156106da573d6000803e3d6000fd5b505050506040513d601f19601f820116820180604052508101906106fe91906117b0565b506001546040516318cbafe560e01b81526001600160a01b03909116906318cbafe59061073b90849060009060038801903090429060040161181c565b6000604051808303816000875af115801561075a573d6000803e3d6000fd5b505050506040513d6000823e601f3d908101601f191682016040526107829190810190611858565b50505b506001016104dc565b5050505050505050565b6000828152602081905260409020600101546107b3816111fe565b6107bd838361120b565b50505050565b6001600160a01b03811633146107ec5760405163334bd91960e11b815260040160405180910390fd5b6107f6828261129d565b505050565b6002546040516331d98b3f60e01b81526004810183905260009182916001600160a01b03909116906331d98b3f90602401608060405180830381865afa158015610849573d6000803e3d6000fd5b505050506040513d601f19601f8201168201806040525081019061086d91906118e9565b9050806000015160070b73__$2f7d61c278077ad9ff6dabaf3cf2055321$__63b55522b290918360400151876001600160a01b031663313ce5676040518163ffffffff1660e01b8152600401602060405180830381865afa1580156108d6573d6000803e3d6000fd5b505050506040513d601f19601f820116820180604052508101906108fa9190611980565b6040516001600160e01b031960e086901b16815260079390930b600484015260039190910b602483015260ff166044820152606401602060405180830381865af415801561094c573d6000803e3d6000fd5b505050506040513d601f19601f820116820180604052508101906109709190611735565b949350505050565b60606000808367ffffffffffffffff81111561099657610996611512565b6040519080825280602002602001820160405280156109bf578160200160208202803683370190505b50905060005b84811015610ace578686828181106109df576109df61171f565b90506020020160208101906109f49190611702565b6040516370a0823160e01b81523360048201526001600160a01b0391909116906370a0823190602401602060405180830381865afa158015610a3a573d6000803e3d6000fd5b505050506040513d601f19601f82011682018060405250810190610a5e9190611735565b828281518110610a7057610a7061171f565b602002602001018181525050878181518110610a8e57610a8e61171f565b6020026020010151828281518110610aa857610aa861171f565b6020026020010151610aba9190611764565b610ac490846119a3565b92506001016109c5565b5060008467ffffffffffffffff811115610aea57610aea611512565b604051908082528060200260200182016040528015610b13578160200160208202803683370190505b50905060005b85811015610bf9576000612710600360008b8b86818110610b3c57610b3c61171f565b9050602002016020810190610b519190611702565b6001600160a01b03168152602081019190915260400160002060020154610b789087611764565b610b82919061177b565b905060008a8381518110610b9857610b9861171f565b602002602001015182610bab919061177b565b9050848381518110610bbf57610bbf61171f565b602002602001015181610bd2919061179d565b848481518110610be457610be461171f565b60209081029190910101525050600101610b19565b50979650505050505050565b6000918252602082815260408084206001600160a01b0393909316845291905290205460ff1690565b8060008167ffffffffffffffff811115610c4a57610c4a611512565b604051908082528060200260200182016040528015610c73578160200160208202803683370190505b50905060005b82811015610cfb57600060036000878785818110610c9957610c9961171f565b9050602002016020810190610cae9190611702565b6001600160a01b03166001600160a01b0316815260200190815260200160002090508060010154838381518110610ce757610ce761171f565b602090810291909101015250600101610c79565b506000610d0a82868686610978565b9050610d178585856104d3565b805160005b81811015610e145760015483516001600160a01b0390911690637ff36ab590859084908110610d4d57610d4d61171f565b6020026020010151600360008b8b87818110610d6b57610d6b61171f565b9050602002016020810190610d809190611702565b6001600160a01b03166001600160a01b0316815260200190815260200160002060030130426040518563ffffffff1660e01b8152600401610dc494939291906119b6565b6000604051808303816000875af1158015610de3573d6000803e3d6000fd5b505050506040513d6000823e601f3d908101601f19168201604052610e0b9190810190611858565b50600101610d1c565b50505050505050565b600082815260208190526040902060010154610e38816111fe565b6107bd838361129d565b6001600160a01b038316610ea45760405162461bcd60e51b8152602060048201526024808201527f546f6b656e42616c616e6365723a20496e76616c696420746f6b656e206164646044820152637265737360e01b606482015260840161041d565b6127108110610f045760405162461bcd60e51b815260206004820152602660248201527f546f6b656e42616c616e6365723a2050657263656e746167652065786365656460448201526573203130302560d01b606482015260840161041d565b6001600160a01b03831660009081526003602052604090205415610f765760405162461bcd60e51b815260206004820152602360248201527f546f6b656e42616c616e6365723a20546f6b656e20616c72656164792065786960448201526273747360e81b606482015260840161041d565b604080516002808252606082018352600092602083019080368337505060015460408051631a0fcb6560e31b815290519394506001600160a01b039091169263d07e5b28925060048083019260209291908290030181865afa158015610fe0573d6000803e3d6000fd5b505050506040513d601f19601f8201168201806040525081019061100491906119eb565b84826000815181106110185761101861171f565b60200260200101836001815181106110325761103261171f565b60200260200101826001600160a01b03166001600160a01b0316815250826001600160a01b03166001600160a01b03168152505050604051806080016040528084815260200161108286866107fb565b8152602080820185905260409182018490526001600160a01b038716600090815260038083529083902084518155848301516001820155928401516002840155606084015180516110db93928501929190910190611345565b505060408051858152602081018590526001600160a01b03871692507fefa7a2b3fd9548d74d3e0c430cdba8b6e72f7ba3aa752385250c646eecd96584910160405180910390a250505050565b60025460405163d47eed4560e01b81526000916001600160a01b03169063d47eed459061115b9086908690600401611a31565b602060405180830381865afa158015611178573d6000803e3d6000fd5b505050506040513d601f19601f8201168201806040525081019061119c9190611735565b600254604051631df3cbc560e31b81529192506001600160a01b03169063ef9e5e289083906111d19087908790600401611a31565b6000604051808303818588803b1580156111ea57600080fd5b505af115801561078e573d6000803e3d6000fd5b6112088133611308565b50565b60006112178383610c05565b611295576000838152602081815260408083206001600160a01b03861684529091529020805460ff1916600117905561124d3390565b6001600160a01b0316826001600160a01b0316847f2f8788117e7eff1d82e926ec794901d17c78024a50270940304540a733656f0d60405160405180910390a45060016103cd565b5060006103cd565b60006112a98383610c05565b15611295576000838152602081815260408083206001600160a01b0386168085529252808320805460ff1916905551339286917ff6391f5c32d9c69d2a47ea670b442974b53935d1edc7fd64eb21e047a839171b9190a45060016103cd565b6113128282610c05565b6113415760405163e2517d3f60e01b81526001600160a01b03821660048201526024810183905260440161041d565b5050565b82805482825590600052602060002090810192821561139a579160200282015b8281111561139a57825182546001600160a01b0319166001600160a01b03909116178255602090920191600190910190611365565b506113a69291506113aa565b5090565b5b808211156113a657600081556001016113ab565b6000602082840312156113d157600080fd5b81356001600160e01b0319811681146113e957600080fd5b9392505050565b6001600160a01b038116811461120857600080fd5b6000806040838503121561141857600080fd5b8235611423816113f0565b946020939093013593505050565b60008083601f84011261144357600080fd5b50813567ffffffffffffffff81111561145b57600080fd5b6020830191508360208260051b850101111561147657600080fd5b9250929050565b60008060006040848603121561149257600080fd5b833567ffffffffffffffff8111156114a957600080fd5b6114b586828701611431565b909790965060209590950135949350505050565b6000602082840312156114db57600080fd5b5035919050565b600080604083850312156114f557600080fd5b823591506020830135611507816113f0565b809150509250929050565b634e487b7160e01b600052604160045260246000fd5b604051601f8201601f1916810167ffffffffffffffff8111828210171561155157611551611512565b604052919050565b600067ffffffffffffffff82111561157357611573611512565b5060051b60200190565b6000806000806060858703121561159357600080fd5b843567ffffffffffffffff808211156115ab57600080fd5b818701915087601f8301126115bf57600080fd5b813560206115d46115cf83611559565b611528565b82815260059290921b8401810191818101908b8411156115f357600080fd5b948201945b83861015611611578535825294820194908201906115f8565b9850508801359250508082111561162757600080fd5b5061163487828801611431565b9598909750949560400135949350505050565b6020808252825182820181905260009190848201906040850190845b8181101561167f57835183529284019291840191600101611663565b50909695505050505050565b6000806020838503121561169e57600080fd5b823567ffffffffffffffff8111156116b557600080fd5b6116c185828601611431565b90969095509350505050565b6000806000606084860312156116e257600080fd5b83356116ed816113f0565b95602085013595506040909401359392505050565b60006020828403121561171457600080fd5b81356113e9816113f0565b634e487b7160e01b600052603260045260246000fd5b60006020828403121561174757600080fd5b5051919050565b634e487b7160e01b600052601160045260246000fd5b80820281158282048414176103cd576103cd61174e565b60008261179857634e487b7160e01b600052601260045260246000fd5b500490565b818103818111156103cd576103cd61174e565b6000602082840312156117c257600080fd5b815180151581146113e957600080fd5b600081548084526020808501945083600052602060002060005b838110156118115781546001600160a01b0316875295820195600191820191016117ec565b509495945050505050565b85815284602082015260a06040820152600061183b60a08301866117d2565b6001600160a01b0394909416606083015250608001529392505050565b6000602080838503121561186b57600080fd5b825167ffffffffffffffff81111561188257600080fd5b8301601f8101851361189357600080fd5b80516118a16115cf82611559565b81815260059190911b820183019083810190878311156118c057600080fd5b928401925b828410156118de578351825292840192908401906118c5565b979650505050505050565b6000608082840312156118fb57600080fd5b6040516080810167ffffffffffffffff828210818311171561191f5761191f611512565b81604052845191508160070b821461193657600080fd5b908252602084015190808216821461194d57600080fd5b5060208201526040830151600381900b811461196857600080fd5b60408201526060928301519281019290925250919050565b60006020828403121561199257600080fd5b815160ff811681146113e957600080fd5b808201808211156103cd576103cd61174e565b8481526080602082015260006119cf60808301866117d2565b6001600160a01b03949094166040830152506060015292915050565b6000602082840312156119fd57600080fd5b81516113e9816113f0565b81835281816020850137506000828201602090810191909152601f909101601f19169091010190565b60208082528181018390526000906040600585901b8401810190840186845b87811015611ac057868403603f190183528135368a9003601e19018112611a7657600080fd5b8901858101903567ffffffffffffffff811115611a9257600080fd5b803603821315611aa157600080fd5b611aac868284611a08565b955050509184019190840190600101611a50565b509197965050505050505056fea2646970667358221220035891ef52d9c0bf7ebe5a2553e7ea7bce3a14864c17dc6a56ca8406343f50b364736f6c63430008180033",
  "linkReferences": {
    "@pythnetwork/pyth-sdk-solidity/PythUtils.sol": {
      "PythUtils": [
        {
          "length": 20,
          "start": 1663
        },
        {
          "length": 20,
          "start": 5062
        }
      ]
    }
  },
  "deployedLinkReferences": {
    "@pythnetwork/pyth-sdk-solidity/PythUtils.sol": {
      "PythUtils": [
        {
          "length": 20,
          "start": 2169
        }
      ]
    }
  }
}