{
  "_format": "hh-sol-artifact-1",
  "contractName": "TokenBalancer",
  "sourceName": "contracts/erc4626/TokenBalancer.sol",
  "abi": [
    {
      "inputs": [
        {
          "internalType": "address",
          "name": "_pyth",
          "type": "address"
        },
        {
          "internalType": "address",
          "name": "_uniswapV2Router",
          "type": "address"
        },
        {
          "internalType": "address",
          "name": "_usdc",
          "type": "address"
        }
      ],
      "stateMutability": "nonpayable",
      "type": "constructor"
    },
    {
      "anonymous": false,
      "inputs": [
        {
          "indexed": true,
          "internalType": "address",
          "name": "createdToken",
          "type": "address"
        }
      ],
      "name": "CreatedToken",
      "type": "event"
    },
    {
      "anonymous": false,
      "inputs": [
        {
          "indexed": true,
          "internalType": "address",
          "name": "token",
          "type": "address"
        },
        {
          "indexed": true,
          "internalType": "address",
          "name": "sender",
          "type": "address"
        },
        {
          "indexed": false,
          "internalType": "uint256",
          "name": "amount",
          "type": "uint256"
        }
      ],
      "name": "Deposit",
      "type": "event"
    },
    {
      "anonymous": false,
      "inputs": [
        {
          "indexed": true,
          "internalType": "address",
          "name": "token",
          "type": "address"
        },
        {
          "indexed": false,
          "internalType": "uint256",
          "name": "allocationPercentage",
          "type": "uint256"
        }
      ],
      "name": "TargetAllocationPercentageChanged",
      "type": "event"
    },
    {
      "anonymous": false,
      "inputs": [
        {
          "indexed": true,
          "internalType": "address",
          "name": "token",
          "type": "address"
        },
        {
          "indexed": false,
          "internalType": "bytes32",
          "name": "priceId",
          "type": "bytes32"
        },
        {
          "indexed": false,
          "internalType": "uint256",
          "name": "allocationPercentage",
          "type": "uint256"
        }
      ],
      "name": "TokenAdded",
      "type": "event"
    },
    {
      "anonymous": false,
      "inputs": [
        {
          "indexed": true,
          "internalType": "address",
          "name": "token",
          "type": "address"
        },
        {
          "indexed": true,
          "internalType": "address",
          "name": "receiver",
          "type": "address"
        },
        {
          "indexed": false,
          "internalType": "uint256",
          "name": "amount",
          "type": "uint256"
        }
      ],
      "name": "Withdraw",
      "type": "event"
    },
    {
      "inputs": [],
      "name": "_calculateAmountsToTrade",
      "outputs": [
        {
          "components": [
            {
              "internalType": "address",
              "name": "token",
              "type": "address"
            },
            {
              "internalType": "uint256",
              "name": "amountToTrade",
              "type": "uint256"
            }
          ],
          "internalType": "struct TokenBalancer.TradeAmount[]",
          "name": "amounts",
          "type": "tuple[]"
        },
        {
          "internalType": "uint256",
          "name": "totalValue",
          "type": "uint256"
        }
      ],
      "stateMutability": "view",
      "type": "function"
    },
    {
      "inputs": [
        {
          "internalType": "address",
          "name": "token",
          "type": "address"
        },
        {
          "internalType": "bytes32",
          "name": "priceId",
          "type": "bytes32"
        }
      ],
      "name": "_getPrice",
      "outputs": [
        {
          "internalType": "uint256",
          "name": "oneDollarInToken",
          "type": "uint256"
        }
      ],
      "stateMutability": "view",
      "type": "function"
    },
    {
      "inputs": [
        {
          "internalType": "address",
          "name": "aToken",
          "type": "address"
        },
        {
          "internalType": "bytes32",
          "name": "priceId",
          "type": "bytes32"
        },
        {
          "internalType": "uint256",
          "name": "percentage",
          "type": "uint256"
        },
        {
          "internalType": "bool",
          "name": "isAutoCompaunder",
          "type": "bool"
        }
      ],
      "name": "addTrackingToken",
      "outputs": [],
      "stateMutability": "nonpayable",
      "type": "function"
    },
    {
      "inputs": [
        {
          "internalType": "address",
          "name": "token",
          "type": "address"
        }
      ],
      "name": "balances",
      "outputs": [
        {
          "internalType": "uint256",
          "name": "balance",
          "type": "uint256"
        }
      ],
      "stateMutability": "view",
      "type": "function"
    },
    {
      "inputs": [
        {
          "internalType": "address",
          "name": "token",
          "type": "address"
        },
        {
          "internalType": "uint256",
          "name": "amount",
          "type": "uint256"
        }
      ],
      "name": "deposit",
      "outputs": [],
      "stateMutability": "nonpayable",
      "type": "function"
    },
    {
      "inputs": [
        {
          "internalType": "address",
          "name": "_aToken",
          "type": "address"
        }
      ],
      "name": "getTokenValueInUSDC",
      "outputs": [
        {
          "components": [
            {
              "internalType": "address",
              "name": "token",
              "type": "address"
            },
            {
              "internalType": "uint256",
              "name": "value",
              "type": "uint256"
            },
            {
              "internalType": "uint256",
              "name": "balance",
              "type": "uint256"
            },
            {
              "internalType": "uint256",
              "name": "price",
              "type": "uint256"
            },
            {
              "internalType": "uint256",
              "name": "targetPercentage",
              "type": "uint256"
            }
          ],
          "internalType": "struct TokenBalancer.TokenValuePayload",
          "name": "",
          "type": "tuple"
        }
      ],
      "stateMutability": "view",
      "type": "function"
    },
    {
      "inputs": [],
      "name": "pyth",
      "outputs": [
        {
          "internalType": "contract IPyth",
          "name": "",
          "type": "address"
        }
      ],
      "stateMutability": "view",
      "type": "function"
    },
    {
      "inputs": [],
      "name": "rebalance",
      "outputs": [],
      "stateMutability": "nonpayable",
      "type": "function"
    },
    {
      "inputs": [
        {
          "internalType": "address",
          "name": "token",
          "type": "address"
        },
        {
          "internalType": "uint256",
          "name": "percentage",
          "type": "uint256"
        }
      ],
      "name": "setAllocationPercentage",
      "outputs": [],
      "stateMutability": "nonpayable",
      "type": "function"
    },
    {
      "inputs": [
        {
          "internalType": "address",
          "name": "token",
          "type": "address"
        }
      ],
      "name": "tokenInfo",
      "outputs": [
        {
          "internalType": "address",
          "name": "aToken",
          "type": "address"
        },
        {
          "internalType": "address",
          "name": "token",
          "type": "address"
        },
        {
          "internalType": "bytes32",
          "name": "priceId",
          "type": "bytes32"
        },
        {
          "internalType": "uint256",
          "name": "targetPercentage",
          "type": "uint256"
        },
        {
          "internalType": "bool",
          "name": "isAutoCompaunder",
          "type": "bool"
        }
      ],
      "stateMutability": "view",
      "type": "function"
    },
    {
      "inputs": [
        {
          "internalType": "uint256",
          "name": "",
          "type": "uint256"
        }
      ],
      "name": "tokens",
      "outputs": [
        {
          "internalType": "address",
          "name": "",
          "type": "address"
        }
      ],
      "stateMutability": "view",
      "type": "function"
    },
    {
      "inputs": [
        {
          "internalType": "uint256",
          "name": "",
          "type": "uint256"
        }
      ],
      "name": "underlyingTokens",
      "outputs": [
        {
          "internalType": "address",
          "name": "",
          "type": "address"
        }
      ],
      "stateMutability": "view",
      "type": "function"
    },
    {
      "inputs": [],
      "name": "uniswapV2Router",
      "outputs": [
        {
          "internalType": "contract IUniswapV2Router02",
          "name": "",
          "type": "address"
        }
      ],
      "stateMutability": "view",
      "type": "function"
    },
    {
      "inputs": [
        {
          "internalType": "bytes[]",
          "name": "pythPriceUpdate",
          "type": "bytes[]"
        }
      ],
      "name": "update",
      "outputs": [],
      "stateMutability": "payable",
      "type": "function"
    },
    {
      "inputs": [],
      "name": "usdc",
      "outputs": [
        {
          "internalType": "address",
          "name": "",
          "type": "address"
        }
      ],
      "stateMutability": "view",
      "type": "function"
    }
  ],
  "bytecode": "0x60806040523480156200001157600080fd5b5060405162001eec38038062001eec833981016040819052620000349162000312565b6001600160a01b0383166200009c5760405162461bcd60e51b815260206004820152602360248201527f546f6b656e42616c616e6365723a20496e76616c69642050797468206164647260448201526265737360e81b60648201526084015b60405180910390fd5b6001600160a01b0382166200010a5760405162461bcd60e51b815260206004820152602d60248201527f546f6b656e42616c616e6365723a20496e76616c696420556e6973776170205260448201526c6f75746572206164647265737360981b606482015260840162000093565b6001600160a01b038116620001745760405162461bcd60e51b815260206004820152602960248201527f546f6b656e42616c616e6365723a20496e76616c6964205553444320746f6b656044820152686e206164647265737360b81b606482015260840162000093565b600080546001600160a01b038085166001600160a01b031992831617909255600180548684169083161790556002805492841692909116919091179055620001bd8130620001c6565b505050620003b9565b604080516001600160a01b038381166024830152841660448083019190915282518083039091018152606490910182526020810180516001600160e01b031663248a35ef60e11b179052905160009182918291610167916200022991906200035c565b6000604051808303816000865af19150503d806000811462000268576040519150601f19603f3d011682016040523d82523d6000602084013e6200026d565b606091505b5091509150816200028057601562000296565b808060200190518101906200029691906200038d565b9250600383900b601614620002ee5760405162461bcd60e51b815260206004820152601f60248201527f536166652073696e676c65206173736f63696174696f6e206661696c65642100604482015260640162000093565b5050505050565b80516001600160a01b03811681146200030d57600080fd5b919050565b6000806000606084860312156200032857600080fd5b6200033384620002f5565b92506200034360208501620002f5565b91506200035360408501620002f5565b90509250925092565b6000825160005b818110156200037f576020818601810151858301520162000363565b506000920191825250919050565b600060208284031215620003a057600080fd5b81518060030b8114620003b257600080fd5b9392505050565b611b2380620003c96000396000f3fe6080604052600436106100e85760003560e01c80637d7c2a1c1161008a578063dd92696411610059578063dd926964146102c5578063f52a3468146102e5578063f5dab711146102f8578063f98d06f01461038757600080fd5b80637d7c2a1c14610207578063a3bf224b1461021c578063ba99962b1461023c578063c1783843146102a257600080fd5b80633e413bee116100c65780633e413bee1461018757806347e7ef24146101a75780634f64b2be146101c757806358f5bb7a146101e757600080fd5b80630d8ebb3b146100ed5780631694505e1461010f57806327e235e31461014c575b600080fd5b3480156100f957600080fd5b5061010d610108366004611565565b6103a7565b005b34801561011b57600080fd5b5060005461012f906001600160a01b031681565b6040516001600160a01b0390911681526020015b60405180910390f35b34801561015857600080fd5b50610179610167366004611591565b60066020526000908152604090205481565b604051908152602001610143565b34801561019357600080fd5b5060025461012f906001600160a01b031681565b3480156101b357600080fd5b5061010d6101c2366004611565565b6104e3565b3480156101d357600080fd5b5061012f6101e23660046115b5565b610628565b3480156101f357600080fd5b50610179610202366004611565565b610652565b34801561021357600080fd5b5061010d6107d1565b34801561022857600080fd5b5061012f6102373660046115b5565b610b01565b34801561024857600080fd5b5061025c610257366004611591565b610b11565b604051610143919081516001600160a01b031681526020808301519082015260408083015190820152606080830151908201526080918201519181019190915260a00190565b3480156102ae57600080fd5b506102b7610e04565b6040516101439291906115ce565b3480156102d157600080fd5b5061010d6102e0366004611630565b610ef1565b61010d6102f336600461167f565b611238565b34801561030457600080fd5b50610352610313366004611591565b6003602081905260009182526040909120805460018201546002830154938301546004909301546001600160a01b039283169492909116929060ff1685565b604080516001600160a01b0396871681529590941660208601529284019190915260608301521515608082015260a001610143565b34801561039357600080fd5b5060015461012f906001600160a01b031681565b612710811080156103b757508015155b6104125760405162461bcd60e51b815260206004820152602160248201527f546f6b656e42616c616e6365723a20496e76616c69642070657263656e7461676044820152606560f81b60648201526084015b60405180910390fd5b6001600160a01b03821660009081526003602081905260408220015490036104875760405162461bcd60e51b815260206004820152602260248201527f546f6b656e42616c616e6365723a20546f6b656e20646f65736e2774206578696044820152611cdd60f21b6064820152608401610409565b6001600160a01b03821660008181526003602081905260409182902001839055517f06a65dde886f983f3a8b38fa2410465911b7403ee18b9b3e2b35740684a1b84d906104d79084815260200190565b60405180910390a25050565b6001600160a01b0382166000526003602052806000036105455760405162461bcd60e51b815260206004820152601d60248201527f546f6b656e42616c616e6365723a20496e76616c696420616d6f756e740000006044820152606401610409565b6001600160a01b0382166000908152600660205260408120805483929061056d90849061170a565b9091555050604051636e553f6560e01b8152600481018290523360248201526001600160a01b03831690636e553f65906044016020604051808303816000875af11580156105bf573d6000803e3d6000fd5b505050506040513d601f19601f820116820180604052508101906105e3919061171d565b5060405181815233906001600160a01b038416907f5548c837ab068cf56a2c2479df0882a4922fd203edb7517321831d95078c5f629060200160405180910390a35050565b6004818154811061063857600080fd5b6000918252602090912001546001600160a01b0316905081565b6001546040516331d98b3f60e01b81526004810183905260009182916001600160a01b03909116906331d98b3f90602401608060405180830381865afa1580156106a0573d6000803e3d6000fd5b505050506040513d601f19601f820116820180604052508101906106c49190611794565b9050806000015160070b73__$2f7d61c278077ad9ff6dabaf3cf2055321$__63b55522b290918360400151876001600160a01b031663313ce5676040518163ffffffff1660e01b8152600401602060405180830381865afa15801561072d573d6000803e3d6000fd5b505050506040513d601f19601f820116820180604052508101906107519190611823565b6040516001600160e01b031960e086901b16815260079390930b600484015260039190910b602483015260ff166044820152606401602060405180830381865af41580156107a3573d6000803e3d6000fd5b505050506040513d601f19601f820116820180604052508101906107c7919061171d565b9150505b92915050565b6000806107dc610e04565b9150915060005b8251811015610a215760006003600085848151811061080457610804611846565b602090810291909101810151516001600160a01b03168252810191909152604001600020600481015490915060ff16156108e75783828151811061084a5761084a611846565b6020026020010151600001516001600160a01b031663b460af9485848151811061087657610876611846565b60209081029190910181015101516040516001600160e01b031960e084901b168152600481019190915230602482018190526044820152606401600060405180830381600087803b1580156108ca57600080fd5b505af11580156108de573d6000803e3d6000fd5b505050506109a4565b8382815181106108f9576108f9611846565b6020026020010151600001516001600160a01b031663b460af9485848151811061092557610925611846565b60209081029190910181015101516040516001600160e01b031960e084901b1681526004810191909152306024820181905260448201526064016020604051808303816000875af115801561097e573d6000803e3d6000fd5b505050506040513d601f19601f820116820180604052508101906109a2919061171d565b505b8382815181106109b6576109b6611846565b602002602001015160200151600660008685815181106109d8576109d8611846565b6020026020010151600001516001600160a01b03166001600160a01b031681526020019081526020016000206000828254610a13919061185c565b9091555050506001016107e3565b5060005b600554811015610afc57610aa36006600060058481548110610a4957610a49611846565b60009182526020808320909101546001600160a01b031683528201929092526040019020546005805484908110610a8257610a82611846565b6000918252602090912001546002546001600160a01b039182169116611318565b506002546001600160a01b031660008181526006602052604090205460058054610af393919085908110610ad957610ad9611846565b6000918252602090912001546001600160a01b0316611318565b50600101610a25565b505050565b6005818154811061063857600080fd5b610b4c6040518060a0016040528060006001600160a01b03168152602001600081526020016000815260200160008152602001600081525090565b6001600160a01b0380831660009081526003602052604090208054909116610bc55760405162461bcd60e51b815260206004820152602660248201527f546f6b656e42616c616e6365723a2054686520746f6b656e20646f65736e277460448201526508195e1a5cdd60d21b6064820152608401610409565b600481015460ff1615610d2b576040516370a0823160e01b81523060048201526000906001600160a01b038516906370a0823190602401602060405180830381865afa158015610c19573d6000803e3d6000fd5b505050506040513d601f19601f82011682018060405250810190610c3d919061171d565b90506000846001600160a01b031663e6aa216c6040518163ffffffff1660e01b8152600401602060405180830381865afa158015610c7f573d6000803e3d6000fd5b505050506040513d601f19601f82011682018060405250810190610ca3919061171d565b60018401546002850154919250600091610cc6916001600160a01b031690610652565b90506000670de0b6b3a764000082610cde858761186f565b610ce8919061186f565b610cf29190611886565b6040805160a0810182526001600160a01b0390991689526020890191909152870193909352606086015250506003015460808301525090565b6040516370a0823160e01b81523060048201526000906001600160a01b038516906370a0823190602401602060405180830381865afa158015610d72573d6000803e3d6000fd5b505050506040513d601f19601f82011682018060405250810190610d96919061171d565b60018301546002840154919250600091610db9916001600160a01b031690610652565b90506040518060a00160405280866001600160a01b031681526020018284610de1919061186f565b815260200183815260200182815260200184600301548152509350505050919050565b600454606090600090815b81811015610eeb576000610e4960048381548110610e2f57610e2f611846565b6000918252602090912001546001600160a01b0316610b11565b9050806020015184610e5b919061170a565b93506000612710826080015186610e72919061186f565b610e7c9190611886565b90506000826060015182610e909190611886565b9050604051806040016040528084600001516001600160a01b03168152602001846040015183610ec0919061185c565b815250878581518110610ed557610ed5611846565b6020908102919091010152505050600101610e0f565b50509091565b6001600160a01b038416610f535760405162461bcd60e51b8152602060048201526024808201527f546f6b656e42616c616e6365723a20496e76616c696420746f6b656e206164646044820152637265737360e01b6064820152608401610409565b61271082108015610f645750600082115b610fc55760405162461bcd60e51b815260206004820152602c60248201527f546f6b656e42616c616e6365723a20496e76616c696420616c6c6f636174696f60448201526b6e2070657263656e7461676560a01b6064820152608401610409565b6001600160a01b0384166000908152600360205260409020600201541561103a5760405162461bcd60e51b815260206004820152602360248201527f546f6b656e42616c616e6365723a20546f6b656e20616c72656164792065786960448201526273747360e81b6064820152608401610409565b600454600a10156110a15760405162461bcd60e51b815260206004820152602b60248201527f546f6b656e42616c616e6365723a204d617820616d6f756e74206f6620746f6b60448201526a195b9cc81c995858da195960aa1b6064820152608401610409565b6000846001600160a01b03166338d52e0f6040518163ffffffff1660e01b8152600401602060405180830381865afa1580156110e1573d6000803e3d6000fd5b505050506040513d601f19601f8201168201806040525081019061110591906118a8565b6040805160a0810182526001600160a01b0380891680835281851660208085019182528486018b8152606086018b81528a1515608088019081526000868152600394859052988920975188549088166001600160a01b031991821617895594516001808a0180549290991691871691909117909755915160028801555191860191909155516004948501805491151560ff1990921691909117905583549283018455929093527f8a35acfbc15ff81a39ae7d344fd709f28e8600b4aa8c65c6b64bfe7fe36bd19b018054909116909117905590506111e38530611428565b6111ed8130611428565b60408051858152602081018590526001600160a01b038716917fefa7a2b3fd9548d74d3e0c430cdba8b6e72f7ba3aa752385250c646eecd96584910160405180910390a25050505050565b60015460405163d47eed4560e01b81526000916001600160a01b03169063d47eed459061126b90869086906004016118ee565b602060405180830381865afa158015611288573d6000803e3d6000fd5b505050506040513d601f19601f820116820180604052508101906112ac919061171d565b600154604051631df3cbc560e31b81529192506001600160a01b03169063ef9e5e289083906112e190879087906004016118ee565b6000604051808303818588803b1580156112fa57600080fd5b505af115801561130e573d6000803e3d6000fd5b5050505050505050565b6040805160028082526060820183526000928392919060208301908036833701905050905083838260008151811061135257611352611846565b602002602001018360018151811061136c5761136c611846565b6001600160a01b039384166020918202929092010152918116909152600080546040516338ed173960e01b8152919216906338ed1739906113b9908990859087903090429060040161198a565b6000604051808303816000875af11580156113d8573d6000803e3d6000fd5b505050506040513d6000823e601f3d908101601f1916820160405261140091908101906119fd565b90508060018151811061141557611415611846565b6020026020010151925050509392505050565b604080516001600160a01b038381166024830152841660448083019190915282518083039091018152606490910182526020810180516001600160e01b031663248a35ef60e11b179052905160009182918291610167916114899190611aa3565b6000604051808303816000865af19150503d80600081146114c6576040519150601f19603f3d011682016040523d82523d6000602084013e6114cb565b606091505b5091509150816114dc5760156114f0565b808060200190518101906114f09190611ad2565b9250600383900b6016146115465760405162461bcd60e51b815260206004820152601f60248201527f536166652073696e676c65206173736f63696174696f6e206661696c656421006044820152606401610409565b5050505050565b6001600160a01b038116811461156257600080fd5b50565b6000806040838503121561157857600080fd5b82356115838161154d565b946020939093013593505050565b6000602082840312156115a357600080fd5b81356115ae8161154d565b9392505050565b6000602082840312156115c757600080fd5b5035919050565b60408082528351828201819052600091906020906060850190828801855b8281101561161a57815180516001600160a01b031685528501518585015292850192908401906001016115ec565b5050508093505050508260208301529392505050565b6000806000806080858703121561164657600080fd5b84356116518161154d565b935060208501359250604085013591506060850135801515811461167457600080fd5b939692955090935050565b6000806020838503121561169257600080fd5b823567ffffffffffffffff808211156116aa57600080fd5b818501915085601f8301126116be57600080fd5b8135818111156116cd57600080fd5b8660208260051b85010111156116e257600080fd5b60209290920196919550909350505050565b634e487b7160e01b600052601160045260246000fd5b808201808211156107cb576107cb6116f4565b60006020828403121561172f57600080fd5b5051919050565b634e487b7160e01b600052604160045260246000fd5b604051601f8201601f1916810167ffffffffffffffff8111828210171561177557611775611736565b604052919050565b8051600381900b811461178f57600080fd5b919050565b6000608082840312156117a657600080fd5b6040516080810167ffffffffffffffff82821081831117156117ca576117ca611736565b81604052845191508160070b82146117e157600080fd5b90825260208401519080821682146117f857600080fd5b50602082015261180a6040840161177d565b6040820152606083015160608201528091505092915050565b60006020828403121561183557600080fd5b815160ff811681146115ae57600080fd5b634e487b7160e01b600052603260045260246000fd5b818103818111156107cb576107cb6116f4565b80820281158282048414176107cb576107cb6116f4565b6000826118a357634e487b7160e01b600052601260045260246000fd5b500490565b6000602082840312156118ba57600080fd5b81516115ae8161154d565b81835281816020850137506000828201602090810191909152601f909101601f19169091010190565b60208082528181018390526000906040600585901b8401810190840186845b8781101561197d57868403603f190183528135368a9003601e1901811261193357600080fd5b8901858101903567ffffffffffffffff81111561194f57600080fd5b80360382131561195e57600080fd5b6119698682846118c5565b95505050918401919084019060010161190d565b5091979650505050505050565b600060a08201878352602087602085015260a0604085015281875180845260c08601915060208901935060005b818110156119dc5784516001600160a01b0316835293830193918301916001016119b7565b50506001600160a01b03969096166060850152505050608001529392505050565b60006020808385031215611a1057600080fd5b825167ffffffffffffffff80821115611a2857600080fd5b818501915085601f830112611a3c57600080fd5b815181811115611a4e57611a4e611736565b8060051b9150611a5f84830161174c565b8181529183018401918481019088841115611a7957600080fd5b938501935b83851015611a9757845182529385019390850190611a7e565b98975050505050505050565b6000825160005b81811015611ac45760208186018101518583015201611aaa565b506000920191825250919050565b600060208284031215611ae457600080fd5b6115ae8261177d56fea2646970667358221220068fa489835d1f0cfed2aa89cfbedbb97f91201e8a6abd3a4b67a3f60ae68a3864736f6c63430008180033",
  "linkReferences": {
    "@pythnetwork/pyth-sdk-solidity/PythUtils.sol": {
      "PythUtils": [
        {
          "length": 20,
          "start": 2713
        }
      ]
    }
  },
  "deployedLinkReferences": {
    "@pythnetwork/pyth-sdk-solidity/PythUtils.sol": {
      "PythUtils": [
        {
          "length": 20,
          "start": 1744
        }
      ]
    }
  }
}