{
  "_format": "hh-sol-artifact-1",
  "contractName": "TokenDLT",
  "sourceName": "contracts/erc3643/token-dlt/TokenDLT.sol",
  "abi": [
    {
      "inputs": [],
      "name": "InvalidInitialization",
      "type": "error"
    },
    {
      "inputs": [],
      "name": "NotInitializing",
      "type": "error"
    },
    {
      "inputs": [
        {
          "internalType": "address",
          "name": "owner",
          "type": "address"
        }
      ],
      "name": "OwnableInvalidOwner",
      "type": "error"
    },
    {
      "inputs": [
        {
          "internalType": "address",
          "name": "account",
          "type": "address"
        }
      ],
      "name": "OwnableUnauthorizedAccount",
      "type": "error"
    },
    {
      "anonymous": false,
      "inputs": [
        {
          "indexed": true,
          "internalType": "address",
          "name": "_userAddress",
          "type": "address"
        },
        {
          "indexed": true,
          "internalType": "bool",
          "name": "_isFrozen",
          "type": "bool"
        },
        {
          "indexed": true,
          "internalType": "address",
          "name": "_owner",
          "type": "address"
        }
      ],
      "name": "AddressFrozen",
      "type": "event"
    },
    {
      "anonymous": false,
      "inputs": [
        {
          "indexed": true,
          "internalType": "address",
          "name": "_agent",
          "type": "address"
        }
      ],
      "name": "AgentAdded",
      "type": "event"
    },
    {
      "anonymous": false,
      "inputs": [
        {
          "indexed": true,
          "internalType": "address",
          "name": "_agent",
          "type": "address"
        }
      ],
      "name": "AgentRemoved",
      "type": "event"
    },
    {
      "anonymous": false,
      "inputs": [
        {
          "indexed": true,
          "internalType": "address",
          "name": "owner",
          "type": "address"
        },
        {
          "indexed": true,
          "internalType": "address",
          "name": "spender",
          "type": "address"
        },
        {
          "indexed": false,
          "internalType": "uint256",
          "name": "value",
          "type": "uint256"
        }
      ],
      "name": "Approval",
      "type": "event"
    },
    {
      "anonymous": false,
      "inputs": [
        {
          "indexed": true,
          "internalType": "address",
          "name": "owner",
          "type": "address"
        },
        {
          "indexed": true,
          "internalType": "address",
          "name": "spender",
          "type": "address"
        },
        {
          "indexed": false,
          "internalType": "int64",
          "name": "mainId",
          "type": "int64"
        },
        {
          "indexed": false,
          "internalType": "int64",
          "name": "subId",
          "type": "int64"
        },
        {
          "indexed": false,
          "internalType": "uint256",
          "name": "amount",
          "type": "uint256"
        }
      ],
      "name": "Approval",
      "type": "event"
    },
    {
      "anonymous": false,
      "inputs": [
        {
          "indexed": true,
          "internalType": "address",
          "name": "spender",
          "type": "address"
        },
        {
          "indexed": true,
          "internalType": "address",
          "name": "operator",
          "type": "address"
        },
        {
          "indexed": false,
          "internalType": "bool",
          "name": "approved",
          "type": "bool"
        }
      ],
      "name": "ApprovalForAll",
      "type": "event"
    },
    {
      "anonymous": false,
      "inputs": [
        {
          "indexed": true,
          "internalType": "address",
          "name": "_compliance",
          "type": "address"
        }
      ],
      "name": "ComplianceAdded",
      "type": "event"
    },
    {
      "anonymous": false,
      "inputs": [
        {
          "indexed": true,
          "internalType": "address",
          "name": "_identityRegistry",
          "type": "address"
        }
      ],
      "name": "IdentityRegistryAdded",
      "type": "event"
    },
    {
      "anonymous": false,
      "inputs": [
        {
          "indexed": false,
          "internalType": "uint64",
          "name": "version",
          "type": "uint64"
        }
      ],
      "name": "Initialized",
      "type": "event"
    },
    {
      "anonymous": false,
      "inputs": [
        {
          "indexed": true,
          "internalType": "address",
          "name": "previousOwner",
          "type": "address"
        },
        {
          "indexed": true,
          "internalType": "address",
          "name": "newOwner",
          "type": "address"
        }
      ],
      "name": "OwnershipTransferred",
      "type": "event"
    },
    {
      "anonymous": false,
      "inputs": [
        {
          "indexed": false,
          "internalType": "address",
          "name": "_userAddress",
          "type": "address"
        }
      ],
      "name": "Paused",
      "type": "event"
    },
    {
      "anonymous": false,
      "inputs": [
        {
          "indexed": true,
          "internalType": "address",
          "name": "_lostWallet",
          "type": "address"
        },
        {
          "indexed": true,
          "internalType": "address",
          "name": "_newWallet",
          "type": "address"
        },
        {
          "indexed": true,
          "internalType": "address",
          "name": "_investorOnchainID",
          "type": "address"
        }
      ],
      "name": "RecoverySuccess",
      "type": "event"
    },
    {
      "anonymous": false,
      "inputs": [
        {
          "indexed": true,
          "internalType": "address",
          "name": "_userAddress",
          "type": "address"
        },
        {
          "indexed": false,
          "internalType": "uint256",
          "name": "_amount",
          "type": "uint256"
        }
      ],
      "name": "TokensFrozen",
      "type": "event"
    },
    {
      "anonymous": false,
      "inputs": [
        {
          "indexed": true,
          "internalType": "address",
          "name": "_userAddress",
          "type": "address"
        },
        {
          "indexed": false,
          "internalType": "uint256",
          "name": "_amount",
          "type": "uint256"
        }
      ],
      "name": "TokensUnfrozen",
      "type": "event"
    },
    {
      "anonymous": false,
      "inputs": [
        {
          "indexed": true,
          "internalType": "address",
          "name": "from",
          "type": "address"
        },
        {
          "indexed": true,
          "internalType": "address",
          "name": "to",
          "type": "address"
        },
        {
          "indexed": false,
          "internalType": "uint256",
          "name": "value",
          "type": "uint256"
        }
      ],
      "name": "Transfer",
      "type": "event"
    },
    {
      "anonymous": false,
      "inputs": [
        {
          "indexed": true,
          "internalType": "address",
          "name": "sender",
          "type": "address"
        },
        {
          "indexed": true,
          "internalType": "address",
          "name": "recipient",
          "type": "address"
        },
        {
          "indexed": true,
          "internalType": "int64",
          "name": "mainId",
          "type": "int64"
        },
        {
          "indexed": false,
          "internalType": "int64",
          "name": "subId",
          "type": "int64"
        },
        {
          "indexed": false,
          "internalType": "uint256",
          "name": "amount",
          "type": "uint256"
        }
      ],
      "name": "Transfer",
      "type": "event"
    },
    {
      "anonymous": false,
      "inputs": [
        {
          "indexed": true,
          "internalType": "address",
          "name": "spender",
          "type": "address"
        },
        {
          "indexed": true,
          "internalType": "address",
          "name": "sender",
          "type": "address"
        },
        {
          "indexed": true,
          "internalType": "address",
          "name": "recipient",
          "type": "address"
        },
        {
          "indexed": false,
          "internalType": "int64[]",
          "name": "mainIds",
          "type": "int64[]"
        },
        {
          "indexed": false,
          "internalType": "int64[]",
          "name": "subIds",
          "type": "int64[]"
        },
        {
          "indexed": false,
          "internalType": "uint256[]",
          "name": "amounts",
          "type": "uint256[]"
        }
      ],
      "name": "TransferBatch",
      "type": "event"
    },
    {
      "anonymous": false,
      "inputs": [
        {
          "indexed": false,
          "internalType": "string",
          "name": "oldValue",
          "type": "string"
        },
        {
          "indexed": false,
          "internalType": "string",
          "name": "newValue",
          "type": "string"
        },
        {
          "indexed": true,
          "internalType": "int64",
          "name": "mainId",
          "type": "int64"
        }
      ],
      "name": "URI",
      "type": "event"
    },
    {
      "anonymous": false,
      "inputs": [
        {
          "indexed": false,
          "internalType": "address",
          "name": "_userAddress",
          "type": "address"
        }
      ],
      "name": "Unpaused",
      "type": "event"
    },
    {
      "anonymous": false,
      "inputs": [
        {
          "indexed": true,
          "internalType": "string",
          "name": "_newName",
          "type": "string"
        },
        {
          "indexed": true,
          "internalType": "string",
          "name": "_newSymbol",
          "type": "string"
        },
        {
          "indexed": false,
          "internalType": "uint8",
          "name": "_newDecimals",
          "type": "uint8"
        },
        {
          "indexed": false,
          "internalType": "string",
          "name": "_newVersion",
          "type": "string"
        },
        {
          "indexed": true,
          "internalType": "address",
          "name": "_newOnchainID",
          "type": "address"
        }
      ],
      "name": "UpdatedTokenInformation",
      "type": "event"
    },
    {
      "inputs": [
        {
          "internalType": "address",
          "name": "_agent",
          "type": "address"
        }
      ],
      "name": "addAgent",
      "outputs": [],
      "stateMutability": "nonpayable",
      "type": "function"
    },
    {
      "inputs": [
        {
          "internalType": "address",
          "name": "owner",
          "type": "address"
        },
        {
          "internalType": "address",
          "name": "spender",
          "type": "address"
        }
      ],
      "name": "allowance",
      "outputs": [
        {
          "internalType": "uint256",
          "name": "",
          "type": "uint256"
        }
      ],
      "stateMutability": "view",
      "type": "function"
    },
    {
      "inputs": [
        {
          "internalType": "address",
          "name": "owner",
          "type": "address"
        },
        {
          "internalType": "address",
          "name": "spender",
          "type": "address"
        },
        {
          "internalType": "int64",
          "name": "mainId",
          "type": "int64"
        },
        {
          "internalType": "int64",
          "name": "subId",
          "type": "int64"
        }
      ],
      "name": "allowance",
      "outputs": [
        {
          "internalType": "uint256",
          "name": "",
          "type": "uint256"
        }
      ],
      "stateMutability": "view",
      "type": "function"
    },
    {
      "inputs": [
        {
          "internalType": "address",
          "name": "spender",
          "type": "address"
        },
        {
          "internalType": "uint256",
          "name": "value",
          "type": "uint256"
        }
      ],
      "name": "approve",
      "outputs": [
        {
          "internalType": "bool",
          "name": "",
          "type": "bool"
        }
      ],
      "stateMutability": "nonpayable",
      "type": "function"
    },
    {
      "inputs": [
        {
          "internalType": "address",
          "name": "spender",
          "type": "address"
        },
        {
          "internalType": "int64",
          "name": "mainId",
          "type": "int64"
        },
        {
          "internalType": "int64",
          "name": "subId",
          "type": "int64"
        },
        {
          "internalType": "uint256",
          "name": "amount",
          "type": "uint256"
        }
      ],
      "name": "approve",
      "outputs": [
        {
          "internalType": "bool",
          "name": "",
          "type": "bool"
        }
      ],
      "stateMutability": "nonpayable",
      "type": "function"
    },
    {
      "inputs": [
        {
          "internalType": "address",
          "name": "account",
          "type": "address"
        }
      ],
      "name": "balanceOf",
      "outputs": [
        {
          "internalType": "uint256",
          "name": "",
          "type": "uint256"
        }
      ],
      "stateMutability": "view",
      "type": "function"
    },
    {
      "inputs": [
        {
          "internalType": "address[]",
          "name": "accounts",
          "type": "address[]"
        },
        {
          "internalType": "int64[]",
          "name": "mainIds",
          "type": "int64[]"
        },
        {
          "internalType": "int64[]",
          "name": "subIds",
          "type": "int64[]"
        }
      ],
      "name": "balanceOfBatch",
      "outputs": [
        {
          "internalType": "uint256[]",
          "name": "",
          "type": "uint256[]"
        }
      ],
      "stateMutability": "view",
      "type": "function"
    },
    {
      "inputs": [
        {
          "internalType": "address[]",
          "name": "_userAddresses",
          "type": "address[]"
        },
        {
          "internalType": "int64[]",
          "name": "_mainIds",
          "type": "int64[]"
        },
        {
          "internalType": "int64[]",
          "name": "_subIds",
          "type": "int64[]"
        },
        {
          "internalType": "uint256[]",
          "name": "_amounts",
          "type": "uint256[]"
        }
      ],
      "name": "batchBurn",
      "outputs": [],
      "stateMutability": "nonpayable",
      "type": "function"
    },
    {
      "inputs": [
        {
          "internalType": "address[]",
          "name": "_fromList",
          "type": "address[]"
        },
        {
          "internalType": "address[]",
          "name": "_toList",
          "type": "address[]"
        },
        {
          "internalType": "uint256[]",
          "name": "_amounts",
          "type": "uint256[]"
        }
      ],
      "name": "batchForcedTransfer",
      "outputs": [],
      "stateMutability": "nonpayable",
      "type": "function"
    },
    {
      "inputs": [
        {
          "internalType": "address[]",
          "name": "_userAddresses",
          "type": "address[]"
        },
        {
          "internalType": "uint256[]",
          "name": "_amounts",
          "type": "uint256[]"
        }
      ],
      "name": "batchFreezePartialTokens",
      "outputs": [],
      "stateMutability": "nonpayable",
      "type": "function"
    },
    {
      "inputs": [
        {
          "internalType": "address[]",
          "name": "_toList",
          "type": "address[]"
        },
        {
          "internalType": "int64[]",
          "name": "_mainIds",
          "type": "int64[]"
        },
        {
          "internalType": "int64[]",
          "name": "_subIds",
          "type": "int64[]"
        },
        {
          "internalType": "uint256[]",
          "name": "_amounts",
          "type": "uint256[]"
        }
      ],
      "name": "batchMint",
      "outputs": [],
      "stateMutability": "nonpayable",
      "type": "function"
    },
    {
      "inputs": [
        {
          "internalType": "address[]",
          "name": "_userAddresses",
          "type": "address[]"
        },
        {
          "internalType": "bool[]",
          "name": "_freeze",
          "type": "bool[]"
        }
      ],
      "name": "batchSetAddressFrozen",
      "outputs": [],
      "stateMutability": "nonpayable",
      "type": "function"
    },
    {
      "inputs": [
        {
          "internalType": "address[]",
          "name": "_toList",
          "type": "address[]"
        },
        {
          "internalType": "uint256[]",
          "name": "_amounts",
          "type": "uint256[]"
        }
      ],
      "name": "batchTransfer",
      "outputs": [],
      "stateMutability": "nonpayable",
      "type": "function"
    },
    {
      "inputs": [
        {
          "internalType": "address[]",
          "name": "_userAddresses",
          "type": "address[]"
        },
        {
          "internalType": "uint256[]",
          "name": "_amounts",
          "type": "uint256[]"
        }
      ],
      "name": "batchUnfreezePartialTokens",
      "outputs": [],
      "stateMutability": "nonpayable",
      "type": "function"
    },
    {
      "inputs": [
        {
          "internalType": "address",
          "name": "_userAddress",
          "type": "address"
        },
        {
          "internalType": "int64",
          "name": "_mainId",
          "type": "int64"
        },
        {
          "internalType": "int64",
          "name": "_subId",
          "type": "int64"
        },
        {
          "internalType": "uint256",
          "name": "_amount",
          "type": "uint256"
        }
      ],
      "name": "burn",
      "outputs": [],
      "stateMutability": "nonpayable",
      "type": "function"
    },
    {
      "inputs": [],
      "name": "compliance",
      "outputs": [
        {
          "internalType": "contract IModularCompliance",
          "name": "",
          "type": "address"
        }
      ],
      "stateMutability": "view",
      "type": "function"
    },
    {
      "inputs": [],
      "name": "decimals",
      "outputs": [
        {
          "internalType": "uint8",
          "name": "",
          "type": "uint8"
        }
      ],
      "stateMutability": "view",
      "type": "function"
    },
    {
      "inputs": [
        {
          "internalType": "address",
          "name": "_spender",
          "type": "address"
        },
        {
          "internalType": "uint256",
          "name": "_subtractedValue",
          "type": "uint256"
        }
      ],
      "name": "decreaseAllowance",
      "outputs": [
        {
          "internalType": "bool",
          "name": "",
          "type": "bool"
        }
      ],
      "stateMutability": "nonpayable",
      "type": "function"
    },
    {
      "inputs": [
        {
          "internalType": "address",
          "name": "_from",
          "type": "address"
        },
        {
          "internalType": "address",
          "name": "_to",
          "type": "address"
        },
        {
          "internalType": "uint256",
          "name": "_amount",
          "type": "uint256"
        }
      ],
      "name": "forcedTransfer",
      "outputs": [
        {
          "internalType": "bool",
          "name": "",
          "type": "bool"
        }
      ],
      "stateMutability": "nonpayable",
      "type": "function"
    },
    {
      "inputs": [
        {
          "internalType": "address",
          "name": "_userAddress",
          "type": "address"
        },
        {
          "internalType": "uint256",
          "name": "_amount",
          "type": "uint256"
        }
      ],
      "name": "freezePartialTokens",
      "outputs": [],
      "stateMutability": "nonpayable",
      "type": "function"
    },
    {
      "inputs": [
        {
          "internalType": "address",
          "name": "_userAddress",
          "type": "address"
        }
      ],
      "name": "getFrozenTokens",
      "outputs": [
        {
          "internalType": "uint256",
          "name": "",
          "type": "uint256"
        }
      ],
      "stateMutability": "view",
      "type": "function"
    },
    {
      "inputs": [
        {
          "internalType": "int64",
          "name": "mainId",
          "type": "int64"
        }
      ],
      "name": "getSubIds",
      "outputs": [
        {
          "internalType": "int64[]",
          "name": "",
          "type": "int64[]"
        }
      ],
      "stateMutability": "view",
      "type": "function"
    },
    {
      "inputs": [],
      "name": "identityRegistry",
      "outputs": [
        {
          "internalType": "contract IIdentityRegistry",
          "name": "",
          "type": "address"
        }
      ],
      "stateMutability": "view",
      "type": "function"
    },
    {
      "inputs": [
        {
          "internalType": "address",
          "name": "_spender",
          "type": "address"
        },
        {
          "internalType": "uint256",
          "name": "_addedValue",
          "type": "uint256"
        }
      ],
      "name": "increaseAllowance",
      "outputs": [
        {
          "internalType": "bool",
          "name": "",
          "type": "bool"
        }
      ],
      "stateMutability": "nonpayable",
      "type": "function"
    },
    {
      "inputs": [
        {
          "internalType": "address",
          "name": "_identityRegistry",
          "type": "address"
        },
        {
          "internalType": "address",
          "name": "_compliance",
          "type": "address"
        },
        {
          "internalType": "string",
          "name": "_name",
          "type": "string"
        },
        {
          "internalType": "string",
          "name": "_symbol",
          "type": "string"
        },
        {
          "internalType": "uint8",
          "name": "_decimals",
          "type": "uint8"
        },
        {
          "internalType": "address",
          "name": "_onchainID",
          "type": "address"
        }
      ],
      "name": "init",
      "outputs": [],
      "stateMutability": "nonpayable",
      "type": "function"
    },
    {
      "inputs": [
        {
          "internalType": "address",
          "name": "_agent",
          "type": "address"
        }
      ],
      "name": "isAgent",
      "outputs": [
        {
          "internalType": "bool",
          "name": "",
          "type": "bool"
        }
      ],
      "stateMutability": "view",
      "type": "function"
    },
    {
      "inputs": [
        {
          "internalType": "address",
          "name": "owner",
          "type": "address"
        },
        {
          "internalType": "address",
          "name": "operator",
          "type": "address"
        }
      ],
      "name": "isApprovedForAll",
      "outputs": [
        {
          "internalType": "bool",
          "name": "",
          "type": "bool"
        }
      ],
      "stateMutability": "view",
      "type": "function"
    },
    {
      "inputs": [
        {
          "internalType": "address",
          "name": "_userAddress",
          "type": "address"
        }
      ],
      "name": "isFrozen",
      "outputs": [
        {
          "internalType": "bool",
          "name": "",
          "type": "bool"
        }
      ],
      "stateMutability": "view",
      "type": "function"
    },
    {
      "inputs": [
        {
          "internalType": "address",
          "name": "_to",
          "type": "address"
        },
        {
          "internalType": "int64",
          "name": "_mainId",
          "type": "int64"
        },
        {
          "internalType": "int64",
          "name": "_subId",
          "type": "int64"
        },
        {
          "internalType": "uint256",
          "name": "_amount",
          "type": "uint256"
        }
      ],
      "name": "mint",
      "outputs": [],
      "stateMutability": "nonpayable",
      "type": "function"
    },
    {
      "inputs": [],
      "name": "name",
      "outputs": [
        {
          "internalType": "string",
          "name": "",
          "type": "string"
        }
      ],
      "stateMutability": "view",
      "type": "function"
    },
    {
      "inputs": [],
      "name": "onchainID",
      "outputs": [
        {
          "internalType": "address",
          "name": "",
          "type": "address"
        }
      ],
      "stateMutability": "view",
      "type": "function"
    },
    {
      "inputs": [],
      "name": "owner",
      "outputs": [
        {
          "internalType": "address",
          "name": "",
          "type": "address"
        }
      ],
      "stateMutability": "view",
      "type": "function"
    },
    {
      "inputs": [],
      "name": "pause",
      "outputs": [],
      "stateMutability": "nonpayable",
      "type": "function"
    },
    {
      "inputs": [],
      "name": "paused",
      "outputs": [
        {
          "internalType": "bool",
          "name": "",
          "type": "bool"
        }
      ],
      "stateMutability": "view",
      "type": "function"
    },
    {
      "inputs": [
        {
          "internalType": "address",
          "name": "_lostWallet",
          "type": "address"
        },
        {
          "internalType": "address",
          "name": "_newWallet",
          "type": "address"
        },
        {
          "internalType": "address",
          "name": "_investorOnchainID",
          "type": "address"
        }
      ],
      "name": "recoveryAddress",
      "outputs": [
        {
          "internalType": "bool",
          "name": "",
          "type": "bool"
        }
      ],
      "stateMutability": "nonpayable",
      "type": "function"
    },
    {
      "inputs": [
        {
          "internalType": "address",
          "name": "_agent",
          "type": "address"
        }
      ],
      "name": "removeAgent",
      "outputs": [],
      "stateMutability": "nonpayable",
      "type": "function"
    },
    {
      "inputs": [],
      "name": "renounceOwnership",
      "outputs": [],
      "stateMutability": "nonpayable",
      "type": "function"
    },
    {
      "inputs": [
        {
          "internalType": "address",
          "name": "sender",
          "type": "address"
        },
        {
          "internalType": "address",
          "name": "recipient",
          "type": "address"
        },
        {
          "internalType": "int64[]",
          "name": "mainIds",
          "type": "int64[]"
        },
        {
          "internalType": "int64[]",
          "name": "subIds",
          "type": "int64[]"
        },
        {
          "internalType": "uint256[]",
          "name": "amounts",
          "type": "uint256[]"
        },
        {
          "internalType": "bytes",
          "name": "data",
          "type": "bytes"
        }
      ],
      "name": "safeBatchTransferFrom",
      "outputs": [
        {
          "internalType": "bool",
          "name": "",
          "type": "bool"
        }
      ],
      "stateMutability": "nonpayable",
      "type": "function"
    },
    {
      "inputs": [
        {
          "internalType": "address",
          "name": "sender",
          "type": "address"
        },
        {
          "internalType": "address",
          "name": "recipient",
          "type": "address"
        },
        {
          "internalType": "int64",
          "name": "mainId",
          "type": "int64"
        },
        {
          "internalType": "int64",
          "name": "subId",
          "type": "int64"
        },
        {
          "internalType": "uint256",
          "name": "amount",
          "type": "uint256"
        }
      ],
      "name": "safeTransferFrom",
      "outputs": [
        {
          "internalType": "bool",
          "name": "",
          "type": "bool"
        }
      ],
      "stateMutability": "nonpayable",
      "type": "function"
    },
    {
      "inputs": [
        {
          "internalType": "address",
          "name": "sender",
          "type": "address"
        },
        {
          "internalType": "address",
          "name": "recipient",
          "type": "address"
        },
        {
          "internalType": "int64",
          "name": "mainId",
          "type": "int64"
        },
        {
          "internalType": "int64",
          "name": "subId",
          "type": "int64"
        },
        {
          "internalType": "uint256",
          "name": "amount",
          "type": "uint256"
        },
        {
          "internalType": "bytes",
          "name": "data",
          "type": "bytes"
        }
      ],
      "name": "safeTransferFrom",
      "outputs": [
        {
          "internalType": "bool",
          "name": "",
          "type": "bool"
        }
      ],
      "stateMutability": "nonpayable",
      "type": "function"
    },
    {
      "inputs": [
        {
          "internalType": "address",
          "name": "_userAddress",
          "type": "address"
        },
        {
          "internalType": "bool",
          "name": "_freeze",
          "type": "bool"
        }
      ],
      "name": "setAddressFrozen",
      "outputs": [],
      "stateMutability": "nonpayable",
      "type": "function"
    },
    {
      "inputs": [
        {
          "internalType": "address",
          "name": "operator",
          "type": "address"
        },
        {
          "internalType": "bool",
          "name": "approved",
          "type": "bool"
        }
      ],
      "name": "setApprovalForAll",
      "outputs": [],
      "stateMutability": "nonpayable",
      "type": "function"
    },
    {
      "inputs": [
        {
          "internalType": "address",
          "name": "_compliance",
          "type": "address"
        }
      ],
      "name": "setCompliance",
      "outputs": [],
      "stateMutability": "nonpayable",
      "type": "function"
    },
    {
      "inputs": [
        {
          "internalType": "address",
          "name": "_identityRegistry",
          "type": "address"
        }
      ],
      "name": "setIdentityRegistry",
      "outputs": [],
      "stateMutability": "nonpayable",
      "type": "function"
    },
    {
      "inputs": [
        {
          "internalType": "string",
          "name": "_name",
          "type": "string"
        }
      ],
      "name": "setName",
      "outputs": [],
      "stateMutability": "nonpayable",
      "type": "function"
    },
    {
      "inputs": [
        {
          "internalType": "address",
          "name": "_onchainID",
          "type": "address"
        }
      ],
      "name": "setOnchainID",
      "outputs": [],
      "stateMutability": "nonpayable",
      "type": "function"
    },
    {
      "inputs": [
        {
          "internalType": "string",
          "name": "_symbol",
          "type": "string"
        }
      ],
      "name": "setSymbol",
      "outputs": [],
      "stateMutability": "nonpayable",
      "type": "function"
    },
    {
      "inputs": [
        {
          "internalType": "address",
          "name": "account",
          "type": "address"
        },
        {
          "internalType": "int64",
          "name": "mainId",
          "type": "int64"
        },
        {
          "internalType": "int64",
          "name": "subId",
          "type": "int64"
        }
      ],
      "name": "subBalanceOf",
      "outputs": [
        {
          "internalType": "uint256",
          "name": "",
          "type": "uint256"
        }
      ],
      "stateMutability": "view",
      "type": "function"
    },
    {
      "inputs": [
        {
          "internalType": "address",
          "name": "owner",
          "type": "address"
        },
        {
          "internalType": "int64",
          "name": "mainId",
          "type": "int64"
        }
      ],
      "name": "subIdBalanceOf",
      "outputs": [
        {
          "internalType": "uint256",
          "name": "totalBalance",
          "type": "uint256"
        }
      ],
      "stateMutability": "view",
      "type": "function"
    },
    {
      "inputs": [],
      "name": "symbol",
      "outputs": [
        {
          "internalType": "string",
          "name": "",
          "type": "string"
        }
      ],
      "stateMutability": "view",
      "type": "function"
    },
    {
      "inputs": [],
      "name": "totalMainIds",
      "outputs": [
        {
          "internalType": "uint256",
          "name": "",
          "type": "uint256"
        }
      ],
      "stateMutability": "view",
      "type": "function"
    },
    {
      "inputs": [
        {
          "internalType": "int64",
          "name": "mainId",
          "type": "int64"
        }
      ],
      "name": "totalMainSupply",
      "outputs": [
        {
          "internalType": "uint256",
          "name": "",
          "type": "uint256"
        }
      ],
      "stateMutability": "view",
      "type": "function"
    },
    {
      "inputs": [
        {
          "internalType": "int64",
          "name": "mainId",
          "type": "int64"
        }
      ],
      "name": "totalSubIds",
      "outputs": [
        {
          "internalType": "uint256",
          "name": "",
          "type": "uint256"
        }
      ],
      "stateMutability": "view",
      "type": "function"
    },
    {
      "inputs": [
        {
          "internalType": "int64",
          "name": "mainId",
          "type": "int64"
        },
        {
          "internalType": "int64",
          "name": "subId",
          "type": "int64"
        }
      ],
      "name": "totalSubSupply",
      "outputs": [
        {
          "internalType": "uint256",
          "name": "",
          "type": "uint256"
        }
      ],
      "stateMutability": "view",
      "type": "function"
    },
    {
      "inputs": [],
      "name": "totalSupply",
      "outputs": [
        {
          "internalType": "uint256",
          "name": "",
          "type": "uint256"
        }
      ],
      "stateMutability": "view",
      "type": "function"
    },
    {
      "inputs": [
        {
          "internalType": "address",
          "name": "_to",
          "type": "address"
        },
        {
          "internalType": "uint256",
          "name": "_amount",
          "type": "uint256"
        }
      ],
      "name": "transfer",
      "outputs": [
        {
          "internalType": "bool",
          "name": "",
          "type": "bool"
        }
      ],
      "stateMutability": "nonpayable",
      "type": "function"
    },
    {
      "inputs": [
        {
          "internalType": "address",
          "name": "_from",
          "type": "address"
        },
        {
          "internalType": "address",
          "name": "_to",
          "type": "address"
        },
        {
          "internalType": "uint256",
          "name": "_amount",
          "type": "uint256"
        }
      ],
      "name": "transferFrom",
      "outputs": [
        {
          "internalType": "bool",
          "name": "",
          "type": "bool"
        }
      ],
      "stateMutability": "nonpayable",
      "type": "function"
    },
    {
      "inputs": [
        {
          "internalType": "address",
          "name": "sender",
          "type": "address"
        },
        {
          "internalType": "address",
          "name": "recipient",
          "type": "address"
        },
        {
          "internalType": "int64",
          "name": "mainId",
          "type": "int64"
        },
        {
          "internalType": "int64",
          "name": "subId",
          "type": "int64"
        },
        {
          "internalType": "uint256",
          "name": "amount",
          "type": "uint256"
        }
      ],
      "name": "transferFrom",
      "outputs": [
        {
          "internalType": "bool",
          "name": "",
          "type": "bool"
        }
      ],
      "stateMutability": "nonpayable",
      "type": "function"
    },
    {
      "inputs": [
        {
          "internalType": "address",
          "name": "newOwner",
          "type": "address"
        }
      ],
      "name": "transferOwnership",
      "outputs": [],
      "stateMutability": "nonpayable",
      "type": "function"
    },
    {
      "inputs": [
        {
          "internalType": "address",
          "name": "_userAddress",
          "type": "address"
        },
        {
          "internalType": "uint256",
          "name": "_amount",
          "type": "uint256"
        }
      ],
      "name": "unfreezePartialTokens",
      "outputs": [],
      "stateMutability": "nonpayable",
      "type": "function"
    },
    {
      "inputs": [],
      "name": "unpause",
      "outputs": [],
      "stateMutability": "nonpayable",
      "type": "function"
    },
    {
      "inputs": [],
      "name": "version",
      "outputs": [
        {
          "internalType": "string",
          "name": "",
          "type": "string"
        }
      ],
      "stateMutability": "pure",
      "type": "function"
    }
  ],
  "bytecode": "0x6080604052600b805460ff1916905534801561001a57600080fd5b50615c7c806200002b6000396000f3fe608060405234801561001057600080fd5b506004361061033a5760003560e01c8063715018a6116101b4578063aba63705116100fa578063e43bdfe11161009d578063e43bdfe1146107c6578063e5839836146107d9578063e985e9c514610805578063eb1bc58c14610818578063f2fde38b1461082b578063f89817891461083e578063f91b619c14610851578063fc7e5fa81461086457600080fd5b8063aba63705146106e5578063b84c8246146106fb578063c47f00271461070e578063c69c09cf14610721578063c8e254c414610734578063cbf3f86114610767578063dd62ed3e1461077a578063de60bc74146107b357600080fd5b80639285948a116101625780639285948a1461064b57806395d89b411461065e578063965e2e121461066657806397a6278e146106865780639fc1d0e714610699578063a22cb465146106ac578063a457c2d7146106bf578063a9059cbb146106d257600080fd5b8063715018a6146105e757806383eddad0146105ef5780638456cb591461060257806384e798421461060a57806388d695b21461061d5780638da5cb5b146106305780639040fb131461063857600080fd5b8063313ce5671161028457806354fd4d501161022757806354fd4d50146105465780635c975abb146105675780635e7e09f3146105725780635f3d6774146105855780636290865d1461059857806363b12e08146105a957806365fd95ba146105cc57806370a08231146105d457600080fd5b8063313ce567146104b75780633523dc6c146104cc57806339509351146104df5780633d1ddc5b146104f25780633f4ba83a1461050557806342a47abc1461050d5780634710362d1461052057806348f053d91461053357600080fd5b8063158b1a57116102ec578063158b1a571461040457806318160ddd1461042d5780631a7af379146104355780631e0e2d46146104485780631fe56f7d1461045b5780631ffbb0641461046e57806320fd1d7c1461048157806323b872dd146104a457600080fd5b806305ecb7901461033f578063069ed1321461036557806306fdde0314610385578063095ea7b31461039a578063125c4a33146103bd57806312849f01146103d2578063134e18f4146103e5575b600080fd5b61035261034d366004614b7b565b610877565b6040519081526020015b60405180910390f35b610378610373366004614bbe565b6108b1565b60405161035c9190614c18565b61038d61093b565b60405161035c9190614c71565b6103ad6103a8366004614c84565b6109cd565b604051901515815260200161035c565b6103d06103cb366004614c84565b6109e3565b005b6103ad6103e0366004614d3a565b610b12565b600b5461010090046001600160a01b03165b60405161035c9190614e21565b610352610412366004614e35565b6001600160a01b03166000908152600a602052604090205490565b604454610352565b6103d0610443366004614e50565b610c7d565b610352610456366004614ebb565b610ce8565b6103d0610469366004614c84565b610d9b565b6103ad61047c366004614e35565b610eb2565b61035261048f366004614bbe565b60070b60009081526040602081905290205490565b6103ad6104b2366004614eee565b610ebe565b60085460405160ff909116815260200161035c565b6103ad6104da366004614f2a565b611179565b6103ad6104ed366004614c84565b6111a4565b6103d0610500366004614e35565b6111e5565b6103d0611291565b6103d061051b366004614f86565b611343565b6103d061052e366004614e50565b6113cf565b6103d061054136600461501f565b61142a565b604080518082019091526005815264342e312e3360d81b602082015261038d565b600b5460ff166103ad565b6103d06105803660046150e2565b6114de565b6103ad6105933660046150e2565b6116f4565b600c546001600160a01b03166103f7565b6103526105b7366004614bbe565b60070b6000908152603f602052604090205490565b603e54610352565b6103526105e2366004614e35565b61175d565b6103d0611886565b6103ad6105fd366004614f2a565b61189a565b6103d06118a9565b6103d0610618366004614e35565b61192e565b6103d061062b366004614e50565b61199e565b6103f76119fa565b6103ad6106463660046151b8565b611a28565b6103ad610659366004615253565b611a46565b61038d611db8565b610679610674366004614f86565b611dc7565b60405161035c91906152be565b6103d0610694366004614e35565b611f34565b6103ad6106a7366004614eee565b611fa4565b6103d06106ba3660046152df565b6121c1565b6103ad6106cd366004614c84565b6121d0565b6103ad6106e0366004614c84565b612207565b60085461010090046001600160a01b03166103f7565b6103d0610709366004615316565b612435565b6103d061071c366004615316565b61254f565b6103d061072f3660046152df565b6125db565b610352610742366004615357565b600791820b60009081526041602090815260408083209390940b825291909152205490565b6103d0610775366004614e35565b612655565b610352610788366004615373565b6001600160a01b03918216600090815260496020908152604080832093909416825291909152205490565b6103d06107c13660046150e2565b6126af565b6103526107d436600461539d565b61284a565b6103ad6107e7366004614e35565b6001600160a01b031660009081526009602052604090205460ff1690565b6103ad610813366004615373565b612861565b6103d061082636600461501f565b61288f565b6103d0610839366004614e35565b612938565b6103d061084c366004614e35565b612976565b6103d061085f366004615411565b612a9a565b6103d0610872366004614e50565b612e4c565b600782810b60009081526004602090815260408083206001600160a01b038816845282528083209385900b835292905220545b9392505050565b600781900b60009081526042602090815260409182902080548351818402810184019094528084526060939283018282801561092f57602002820191906000526020600020906000905b825461010083900a900460070b81526020600f83018190049384019360010360089093019290920291018084116108fb5790505b50505050509050919050565b60606006805461094a906154bd565b80601f0160208091040260200160405190810160405280929190818152602001828054610976906154bd565b80156109c35780601f10610998576101008083540402835291602001916109c3565b820191906000526020600020905b8154815290600101906020018083116109a657829003601f168201915b5050505050905090565b60006109da338484612ea7565b90505b92915050565b6109ec33610eb2565b610a115760405162461bcd60e51b8152600401610a08906154f7565b60405180910390fd5b6000610a1c8361175d565b6001600160a01b0384166000908152600a6020526040902054909150610a4390839061555b565b811015610a925760405162461bcd60e51b815260206004820181905260248201527f416d6f756e74206578636565647320617661696c61626c652062616c616e63656044820152606401610a08565b6001600160a01b0383166000908152600a6020526040902054610ab690839061555b565b6001600160a01b0384166000818152600a6020526040908190209290925590517fa065e63c631c86f1b9f66a4a2f63f2093bf1c2168d23290259dbd969e0222a4590610b059085815260200190565b60405180910390a2505050565b600033610b1f8c82612f0f565b610b865760405162461bcd60e51b815260206004820152603260248201527f444c543a2063616c6c6572206973206e6f7420746f6b656e206f776e6572206f6044820152711c88185c1c1c9bdd995908199bdc88185b1b60721b6064820152608401610a08565b610c6b8c8c8c8c80806020026020016040519081016040528093929190818152602001838360200280828437600081840152601f19601f820116905080830192505050505050508b8b8080602002602001604051908101604052809392919081815260200183836020028082843760009201919091525050604080516020808f0282810182019093528e82529093508e92508d91829185019084908082843760009201919091525050604080516020601f8e018190048102820181019092528c815292508c91508b9081908401838280828437600092019190915250612f3692505050565b5060019b9a5050505050505050505050565b60005b83811015610ce157610cd9858583818110610c9d57610c9d61556e565b9050602002016020810190610cb29190614e35565b848484818110610cc457610cc461556e565b905060200201602081019061072f9190615584565b600101610c80565b5050505050565b6000805b600783900b600090815260426020526040902054811015610d9457600783900b6000908152604260205260408120805483908110610d2c57610d2c61556e565b60009182526020808320600480840490910154600789810b865291835260408086206001600160a01b038c168752845280862060039095166008026101000a90910490910b8085529290915290912054909150610d89908461555b565b925050600101610cec565b5092915050565b610da433610eb2565b610dc05760405162461bcd60e51b8152600401610a08906154f7565b6001600160a01b0382166000908152600a6020526040902054811115610e455760405162461bcd60e51b815260206004820152603460248201527f416d6f756e742073686f756c64206265206c657373207468616e206f7220657160448201527375616c20746f2066726f7a656e20746f6b656e7360601b6064820152608401610a08565b6001600160a01b0382166000908152600a6020526040902054610e699082906155a1565b6001600160a01b0383166000818152600a602052604090819020929092559051600080516020615be783398151915290610ea69084815260200190565b60405180910390a25050565b60006109dd8183613246565b600b5460009060ff1615610ee45760405162461bcd60e51b8152600401610a08906155b4565b6001600160a01b03831660009081526009602052604090205460ff16158015610f2657506001600160a01b03841660009081526009602052604090205460ff16155b610f425760405162461bcd60e51b8152600401610a08906155de565b6001600160a01b0384166000908152600a6020526040902054610f648561175d565b610f6e91906155a1565b821115610f8d5760405162461bcd60e51b8152600401610a0890615608565b600b5460405163b9209e3360e01b81526101009091046001600160a01b03169063b9209e3390610fc1908690600401614e21565b602060405180830381865afa158015610fde573d6000803e3d6000fd5b505050506040513d601f19601f820116820180604052508101906110029190615636565b801561107e5750600c546040516372331c7360e11b81526001600160a01b039091169063e46638e69061103d90879087908790600401615653565b602060405180830381865afa15801561105a573d6000803e3d6000fd5b505050506040513d601f19601f8201168201806040525081019061107e9190615636565b15611139576001600160a01b0384166000908152604960209081526040808320338085529252909120546110be9186916110b99086906155a1565b612ea7565b506110ca8484846132c9565b600c546040516322ebca6d60e21b81526001600160a01b0390911690638baf29b4906110fe90879087908790600401615653565b600060405180830381600087803b15801561111857600080fd5b505af115801561112c573d6000803e3d6000fd5b50505050600190506108aa565b60405162461bcd60e51b81526020600482015260156024820152745472616e73666572206e6f7420706f737369626c6560581b6044820152606401610a08565b6000611198868686868660405180602001604052806000815250613646565b50600195945050505050565b3360008181526049602090815260408083206001600160a01b038716845290915281205490916111db9185906110b990869061555b565b5060019392505050565b6111ed613670565b60088054610100600160a81b0319166101006001600160a01b03848116820292909217928390556040519204169061122790600790615677565b6040518091039020600660405161123e9190615677565b6040805191829003822060085483830183526005845264342e312e3360d81b602085015291519092600080516020615c27833981519152926112869260ff90911691906156ed565b60405180910390a450565b61129a33610eb2565b6112b65760405162461bcd60e51b8152600401610a08906154f7565b600b5460ff166112ff5760405162461bcd60e51b815260206004820152601460248201527314185d5cd8589b194e881b9bdd081c185d5cd95960621b6044820152606401610a08565b600b805460ff191690556040517f5db9ee0a495bf2e6ff9c91a7834c1ba4fdd244a5e8aa4e537bd38aeae4b073aa90611339903390614e21565b60405180910390a1565b60005b858110156113c6576113bd8787838181106113635761136361556e565b90506020020160208101906113789190614e35565b86868481811061138a5761138a61556e565b905060200201602081019061139f9190614e35565b8585858181106113b1576113b161556e565b90506020020135611fa4565b50600101611346565b50505050505050565b60005b83811015610ce1576114228585838181106113ef576113ef61556e565b90506020020160208101906114049190614e35565b8484848181106114165761141661556e565b90506020020135610d9b565b6001016113d2565b60005b878110156114d3576114cb89898381811061144a5761144a61556e565b905060200201602081019061145f9190614e35565b8888848181106114715761147161556e565b90506020020160208101906114869190614bbe565b8787858181106114985761149861556e565b90506020020160208101906114ad9190614bbe565b8686868181106114bf576114bf61556e565b905060200201356114de565b60010161142d565b505050505050505050565b6114e733610eb2565b6115035760405162461bcd60e51b8152600401610a08906154f7565b600b5460405163b9209e3360e01b81526101009091046001600160a01b03169063b9209e3390611537908790600401614e21565b602060405180830381865afa158015611554573d6000803e3d6000fd5b505050506040513d601f19601f820116820180604052508101906115789190615636565b6115c05760405162461bcd60e51b815260206004820152601960248201527824b232b73a34ba3c9034b9903737ba103b32b934b334b2b21760391b6044820152606401610a08565b600c546040516372331c7360e11b81526001600160a01b039091169063e46638e6906115f59060009088908690600401615653565b602060405180830381865afa158015611612573d6000803e3d6000fd5b505050506040513d601f19601f820116820180604052508101906116369190615636565b61167c5760405162461bcd60e51b815260206004820152601760248201527610dbdb5c1b1a585b98d9481b9bdd08199bdb1b1bddd959604a1b6044820152606401610a08565b611688848484846136a2565b600c54604051635f8dead360e01b81526001600160a01b0386811660048301526024820184905290911690635f8dead390604401600060405180830381600087803b1580156116d657600080fd5b505af11580156116ea573d6000803e3d6000fd5b5050505050505050565b6000336001600160a01b0386168190036117505760405162461bcd60e51b815260206004820152601e60248201527f444c543a20617070726f76616c20746f2063757272656e74206f776e657200006044820152606401610a08565b61119881878787876136cc565b600080805b6001600160a01b038416600090815260456020526040902054811015610d94576001600160a01b03841660009081526045602052604081208054839081106117ac576117ac61556e565b60009182526020822060048204015460039091166008026101000a900460070b91505b6001600160a01b0386166000908152604660209081526040808320600786900b845290915290205481101561187c576001600160a01b0386166000908152604660209081526040808320600786900b845290915281208054839081106118375761183761556e565b90600052602060002090600491828204019190066008029054906101000a900460070b9050611867878483610877565b611871908661555b565b9450506001016117cf565b5050600101611762565b61188e613670565b6118986000613810565b565b60006111988686868686613881565b6118b233610eb2565b6118ce5760405162461bcd60e51b8152600401610a08906154f7565b600b5460ff16156118f15760405162461bcd60e51b8152600401610a08906155b4565b600b805460ff191660011790556040517f62e78cea01bee320cd4e420270b5ea74000d11b0c9f74754ebdbfc544b05a25890611339903390614e21565b611936613670565b6001600160a01b03811661195c5760405162461bcd60e51b8152600401610a0890615711565b6119676000826138b2565b6040516001600160a01b038216907ff68e73cec97f2d70aa641fb26e87a4383686e2efacb648f2165aeb02ac562ec590600090a250565b60005b83811015610ce1576119f18585838181106119be576119be61556e565b90506020020160208101906119d39190614e35565b8484848181106119e5576119e561556e565b90506020020135612207565b506001016119a1565b7f9016d09d72d40fdae2fd8ceac6b6234c7706214fd39c1cd1e609a0528c199300546001600160a01b031690565b6000611a38878787878787613646565b5060015b9695505050505050565b6000611a5133610eb2565b611a6d5760405162461bcd60e51b8152600401610a08906154f7565b611a768461175d565b600003611abc5760405162461bcd60e51b81526020600482015260146024820152733737903a37b5b2b739903a37903932b1b7bb32b960611b6044820152606401610a08565b6040518290600090611ad2908690602001614e21565b60408051808303601f1901815290829052805160209091012063d202158d60e01b8252600482018190526001602483015291506001600160a01b0383169063d202158d90604401602060405180830381865afa158015611b36573d6000803e3d6000fd5b505050506040513d601f19601f82011682018060405250810190611b5a9190615636565b15611d78576000611b6a8761175d565b6001600160a01b038089166000908152600a60205260409081902054600b549151637e42683b60e01b8152939450926101009091049091169063454a03e090899087908490637e42683b90611bc3908f90600401614e21565b602060405180830381865afa158015611be0573d6000803e3d6000fd5b505050506040513d601f19601f82011682018060405250810190611c049190615748565b6040516001600160e01b031960e086901b1681526001600160a01b03938416600482015292909116602483015261ffff166044820152606401600060405180830381600087803b158015611c5757600080fd5b505af1158015611c6b573d6000803e3d6000fd5b50505050611c7a888884611fa4565b508015611c8b57611c8b87826109e3565b6001600160a01b03881660009081526009602052604090205460ff161515600103611cbb57611cbb8760016125db565b600b5460405163a8d29d1d60e01b81526101009091046001600160a01b03169063a8d29d1d90611cef908b90600401614e21565b600060405180830381600087803b158015611d0957600080fd5b505af1158015611d1d573d6000803e3d6000fd5b50505050856001600160a01b0316876001600160a01b0316896001600160a01b03167ff0c9129a94f30f1caaceb63e44b9811d0a3edf1d6c23757f346093af5553fed060405160405180910390a460019450505050506108aa565b60405162461bcd60e51b81526020600482015260156024820152745265636f76657279206e6f7420706f737369626c6560581b6044820152606401610a08565b60606007805461094a906154bd565b60608584148015611dd757508582145b611e3a5760405162461bcd60e51b815260206004820152602e60248201527f444c543a206163636f756e74732c206d61696e49647320616e6420696473206c60448201526d0cadccee8d040dad2e6dac2e8c6d60931b6064820152608401610a08565b6000866001600160401b03811115611e5457611e5461512d565b604051908082528060200260200182016040528015611e7d578160200160208202803683370190505b50905060005b87811015611f2857611f03898983818110611ea057611ea061556e565b9050602002016020810190611eb59190614e35565b888884818110611ec757611ec761556e565b9050602002016020810190611edc9190614bbe565b878785818110611eee57611eee61556e565b905060200201602081019061034d9190614bbe565b828281518110611f1557611f1561556e565b6020908102919091010152600101611e83565b50979650505050505050565b611f3c613670565b6001600160a01b038116611f625760405162461bcd60e51b8152600401610a0890615711565b611f6d60008261392e565b6040516001600160a01b038216907fed9c8ad8d5a0a66898ea49d2956929c93ae2e8bd50281b2ed897c5d1a6737e0b90600090a250565b6000611faf33610eb2565b611fcb5760405162461bcd60e51b8152600401610a08906154f7565b81611fd58561175d565b101561201c5760405162461bcd60e51b815260206004820152601660248201527573656e6465722062616c616e636520746f6f206c6f7760501b6044820152606401610a08565b6001600160a01b0384166000908152600a602052604081205461203e8661175d565b61204891906155a1565b9050808311156120cc57600061205e82856155a1565b6001600160a01b0387166000908152600a60205260409020549091506120859082906155a1565b6001600160a01b0387166000818152600a602052604090819020929092559051600080516020615be7833981519152906120c29084815260200190565b60405180910390a2505b600b5460405163b9209e3360e01b81526101009091046001600160a01b03169063b9209e3390612100908790600401614e21565b602060405180830381865afa15801561211d573d6000803e3d6000fd5b505050506040513d601f19601f820116820180604052508101906121419190615636565b15611139576121518585856132c9565b600c546040516322ebca6d60e21b81526001600160a01b0390911690638baf29b49061218590889088908890600401615653565b600060405180830381600087803b15801561219f57600080fd5b505af11580156121b3573d6000803e3d6000fd5b5050505060019150506108aa565b6121cc3383836139b0565b5050565b3360008181526049602090815260408083206001600160a01b038716845290915281205490916111db9185906110b99086906155a1565b600b5460009060ff161561222d5760405162461bcd60e51b8152600401610a08906155b4565b6001600160a01b03831660009081526009602052604090205460ff1615801561226657503360009081526009602052604090205460ff16155b6122825760405162461bcd60e51b8152600401610a08906155de565b336000818152600a60205260409020549061229c9061175d565b6122a691906155a1565b8211156122c55760405162461bcd60e51b8152600401610a0890615608565b600b5460405163b9209e3360e01b81526101009091046001600160a01b03169063b9209e33906122f9908690600401614e21565b602060405180830381865afa158015612316573d6000803e3d6000fd5b505050506040513d601f19601f8201168201806040525081019061233a9190615636565b80156123b65750600c546040516372331c7360e11b81526001600160a01b039091169063e46638e69061237590339087908790600401615653565b602060405180830381865afa158015612392573d6000803e3d6000fd5b505050506040513d601f19601f820116820180604052508101906123b69190615636565b15611139576123c63384846132c9565b600c546040516322ebca6d60e21b81526001600160a01b0390911690638baf29b4906123fa90339087908790600401615653565b600060405180830381600087803b15801561241457600080fd5b505af1158015612428573d6000803e3d6000fd5b50505050600190506109dd565b61243d613670565b60405160200161245890602080825260009082015260400190565b60405160208183030381529060405280519060200120828260405160200161248192919061576c565b60405160208183030381529060405280519060200120036124b45760405162461bcd60e51b8152600401610a089061579b565b60076124c1828483615834565b506008546040516101009091046001600160a01b0316906124e490600790615677565b604051809103902060066040516124fb9190615677565b6040805191829003822060085483830183526005845264342e312e3360d81b602085015291519092600080516020615c27833981519152926125439260ff90911691906156ed565b60405180910390a45050565b612557613670565b60405160200161257290602080825260009082015260400190565b60405160208183030381529060405280519060200120828260405160200161259b92919061576c565b60405160208183030381529060405280519060200120036125ce5760405162461bcd60e51b8152600401610a089061579b565b60066124c1828483615834565b6125e433610eb2565b6126005760405162461bcd60e51b8152600401610a08906154f7565b6001600160a01b038216600081815260096020526040808220805460ff19168515159081179091559051339391927f7fa523c84ab8d7fc5b72f08b9e46dbbf10c39e119a075b3e317002d14bc9f43691a45050565b61265d613670565b600b8054610100600160a81b0319166101006001600160a01b038416908102919091179091556040517fd2be862d755bca7e0d39772b2cab3a5578da9c285f69199f4c063c2294a7f36c90600090a250565b6126b833610eb2565b6126d45760405162461bcd60e51b8152600401610a08906154f7565b806126de8561175d565b101561272c5760405162461bcd60e51b815260206004820152601d60248201527f63616e6e6f74206275726e206d6f7265207468616e2062616c616e63650000006044820152606401610a08565b6001600160a01b0384166000908152600a602052604081205461274e8661175d565b61275891906155a1565b9050808211156127dc57600061276e82846155a1565b6001600160a01b0387166000908152600a60205260409020549091506127959082906155a1565b6001600160a01b0387166000818152600a602052604090819020929092559051600080516020615be7833981519152906127d29084815260200190565b60405180910390a2505b6127e885858585613a77565b600c5460405163469753b960e11b81526001600160a01b0387811660048301526024820185905290911690638d2ea77290604401600060405180830381600087803b15801561283657600080fd5b505af11580156114d3573d6000803e3d6000fd5b600061285885858585613a8c565b95945050505050565b6001600160a01b03918216600090815260036020908152604080832093909416825291909152205460ff1690565b60005b878110156114d3576129308989838181106128af576128af61556e565b90506020020160208101906128c49190614e35565b8888848181106128d6576128d661556e565b90506020020160208101906128eb9190614bbe565b8787858181106128fd576128fd61556e565b90506020020160208101906129129190614bbe565b8686868181106129245761292461556e565b90506020020135613a77565b600101612892565b612940613670565b6001600160a01b03811661296a576000604051631e4fbdf760e01b8152600401610a089190614e21565b61297381613810565b50565b61297e613670565b600c546001600160a01b0316156129f257600c5460405163040db3b560e41b81526001600160a01b03909116906340db3b50906129bf903090600401614e21565b600060405180830381600087803b1580156129d957600080fd5b505af11580156129ed573d6000803e3d6000fd5b505050505b600c80546001600160a01b0319166001600160a01b038316908117909155604051631ffad50160e11b8152633ff5aa0290612a31903090600401614e21565b600060405180830381600087803b158015612a4b57600080fd5b505af1158015612a5f573d6000803e3d6000fd5b50506040516001600160a01b03841692507f7f3a888862559648ec01d97deb7b5012bff86dc91e654a1de397170db40e35b69150600090a250565b7ff0c57e16840df040f15088dc2f81fe391c3923bec73e23a9662efc9c229c6a008054600160401b810460ff1615906001600160401b0316600081158015612adf5750825b90506000826001600160401b03166001148015612afb5750303b155b905081158015612b09575080155b15612b275760405163f92ee8a960e01b815260040160405180910390fd5b845467ffffffffffffffff191660011785558315612b5157845460ff60401b1916600160401b1785555b6000612b5b6119fa565b6001600160a01b031614612ba75760405162461bcd60e51b8152602060048201526013602482015272185b1c9958591e481a5b9a5d1a585b1a5e9959606a1b6044820152606401610a08565b6001600160a01b038b1615801590612bc757506001600160a01b038a1615155b612be35760405162461bcd60e51b8152600401610a0890615711565b604051602001612bfe90602080825260009082015260400190565b6040516020818303038152906040528051906020012089604051602001612c259190614c71565b6040516020818303038152906040528051906020012014158015612c9f5750604051602001612c5f90602080825260009082015260400190565b6040516020818303038152906040528051906020012088604051602001612c869190614c71565b6040516020818303038152906040528051906020012014155b612cbb5760405162461bcd60e51b8152600401610a089061579b565b60128760ff161115612d0b5760405162461bcd60e51b81526020600482015260196024820152780c8cac6d2dac2d8e640c4cae8eecacadc406040c2dcc840627603b1b6044820152606401610a08565b612d1433613ace565b6006612d208a826158ed565b506007612d2d89826158ed565b50600880546001600160a01b038816610100026001600160a81b031990911660ff8a1617179055600b805460ff19169055612d678b612655565b612d708a612976565b6008546040516101009091046001600160a01b031690612d9290600790615677565b60405180910390206006604051612da99190615677565b6040805191829003822060085483830183526005845264342e312e3360d81b602085015291519092600080516020615c2783398151915292612df19260ff90911691906156ed565b60405180910390a48315612e3f57845460ff60401b19168555604051600181527fc7f505b2f371ae2175ee4913f4499e1f2633a7b5936321eed1cdaeb6115181d29060200160405180910390a15b5050505050505050505050565b60005b83811015610ce157612e9f858583818110612e6c57612e6c61556e565b9050602002016020810190612e819190614e35565b848484818110612e9357612e9361556e565b905060200201356109e3565b600101612e4f565b6001600160a01b03838116600081815260496020908152604080832094871680845294825280832086905551858152919392917f8c5be1e5ebec7d5bd14f71427d1e84f3dd0314c0f7b2291e5b200ac8c7c3b925910160405180910390a35060019392505050565b6000816001600160a01b0316836001600160a01b031614806109da57506109da8383612861565b82518451148015612f48575081518451145b612fad5760405162461bcd60e51b815260206004820152603060248201527f444c543a206d61696e4964732c2073756249647320616e6420616d6f756e747360448201526f040d8cadccee8d040dad2e6dac2e8c6d60831b6064820152608401610a08565b6001600160a01b038516612fd35760405162461bcd60e51b8152600401610a08906159a6565b3360005b85518110156131c2576000868281518110612ff457612ff461556e565b6020026020010151905060008683815181106130125761301261556e565b6020026020010151905060008684815181106130305761303061556e565b602002602001015190506000600460008560070b60070b815260200190815260200160002060008d6001600160a01b03166001600160a01b0316815260200190815260200160002060008460070b60070b81526020019081526020016000205490506130b28c8c86868660405180602001604052806000815250505050505050565b818110156130d25760405162461bcd60e51b8152600401610a08906159e7565b818103600460008660070b60070b815260200190815260200160002060008e6001600160a01b03166001600160a01b0316815260200190815260200160002060008560070b60070b81526020019081526020016000208190555081600460008660070b60070b815260200190815260200160002060008d6001600160a01b03166001600160a01b0316815260200190815260200160002060008560070b60070b8152602001908152602001600020600082825461318f919061555b565b925050819055506131b38c8c86868660405180602001604052806000815250613adf565b50505050806001019050612fd7565b50856001600160a01b0316876001600160a01b0316826001600160a01b03167f3d3612aedbab64ec845a17d1508b936b04c073ee96a02b84c355a7eb025a18d288888860405161321493929190615a2d565b60405180910390a461322a878787878787613c64565b6113c65760405162461bcd60e51b8152600401610a0890615a66565b60006001600160a01b0382166132a95760405162461bcd60e51b815260206004820152602260248201527f526f6c65733a206163636f756e7420697320746865207a65726f206164647265604482015261737360f01b6064820152608401610a08565b506001600160a01b03166000908152602091909152604090205460ff1690565b6001600160a01b03831661331f5760405162461bcd60e51b815260206004820152601b60248201527f45524332303a20696e76616c69642066726f6d206164647265737300000000006044820152606401610a08565b6001600160a01b0382166133715760405162461bcd60e51b815260206004820152601960248201527845524332303a20696e76616c696420746f206164647265737360381b6044820152606401610a08565b600081116133b85760405162461bcd60e51b815260206004820152601460248201527345524332303a20696e76616c69642076616c756560601b6044820152606401610a08565b6133f16040518060c001604052806060815260200160608152602001606081526020016000815260200160008152602001600081525090565b608081018290526001600160a01b0384166000908152604560205260409020546001600160401b038111156134285761342861512d565b604051908082528060200260200182016040528015613451578160200160208202803683370190505b5081526001600160a01b0384166000908152604560205260409020546001600160401b038111156134845761348461512d565b6040519080825280602002602001820160405280156134ad578160200160208202803683370190505b506020808301919091526001600160a01b0385166000908152604590915260409020546001600160401b038111156134e7576134e761512d565b604051908082528060200260200182016040528015613510578160200160208202803683370190505b5060408201526135208482613d66565b818160600151146135a45760405162461bcd60e51b815260206004820152604260248201527f45524332303a20496e73756666696369656e742062616c616e636520696e207360448201527f75622d61737365747320746f20636f6d706c65746520746865207472616e736660648201526132b960f11b608482015260a401610a08565b6135f384846135bb84600001518560a00151613e32565b6135cd85602001518660a00151613e32565b6135df86604001518760a00151613ed4565b604080516000815260208101909152612f36565b826001600160a01b0316846001600160a01b03167fddf252ad1be2c89b69c2b068fc378daa952ba7f163c4a11628f55a4df523b3ef8460405161363891815260200190565b60405180910390a350505050565b336136518782612f0f565b613662576136628782878787613f66565b6113c6878787878787613fde565b336136796119fa565b6001600160a01b031614611898573360405163118cdaa760e01b8152600401610a089190614e21565b80604460008282546136b4919061555b565b909155506136c6905084848484614015565b50505050565b6001600160a01b03851661372d5760405162461bcd60e51b815260206004820152602260248201527f444c543a20617070726f76652066726f6d20746865207a65726f206164647265604482015261737360f01b6064820152608401610a08565b6001600160a01b0384166137835760405162461bcd60e51b815260206004820181905260248201527f444c543a20617070726f766520746f20746865207a65726f20616464726573736044820152606401610a08565b6001600160a01b038581166000818152600560209081526040808320948916808452948252808320600789810b8086529184528285209089900b808652908452938290208790558151908152918201929092529081018490527f20228d921cee20e1bee39b210de025b31c291c9a9eb96925595c91db3db75c329060600160405180910390a35050505050565b7f9016d09d72d40fdae2fd8ceac6b6234c7706214fd39c1cd1e609a0528c19930080546001600160a01b031981166001600160a01b03848116918217845560405192169182907f8be0079c531659141344cd1fd0a4f28419497f9722a3daafe3b4186f6b6457e090600090a3505050565b3361388c8682612f0f565b61389d5761389d8682868686613f66565b6138aa8686868686614162565b505050505050565b6138bc8282613246565b156139095760405162461bcd60e51b815260206004820152601f60248201527f526f6c65733a206163636f756e7420616c72656164792068617320726f6c65006044820152606401610a08565b6001600160a01b0316600090815260209190915260409020805460ff19166001179055565b6139388282613246565b61398e5760405162461bcd60e51b815260206004820152602160248201527f526f6c65733a206163636f756e7420646f6573206e6f74206861766520726f6c6044820152606560f81b6064820152608401610a08565b6001600160a01b0316600090815260209190915260409020805460ff19169055565b816001600160a01b0316836001600160a01b031603613a0a5760405162461bcd60e51b815260206004820152601660248201527522262a1d1030b8383937bb32903a379031b0b63632b960511b6044820152606401610a08565b6001600160a01b03838116600081815260036020908152604080832094871680845294825291829020805460ff191686151590811790915591519182527f17307eab39ab6107e8899845ad3d59bd9653f200f220920489ca2b5937696c31910160405180910390a3505050565b6044805482900390556136c684848484614303565b6001600160a01b039384166000908152600560209081526040808320959096168252938452848120600793840b825284528481209190920b8252909152205490565b613ad66144d1565b6129738161451a565b6001600160a01b038516156138aa576001600160a01b0385166000908152604760209081526040808320600788900b845290915290205460ff16613b95576001600160a01b03851660008181526045602090815260408083208054600180820183559185528385206004820401805460039092166008026101000a6001600160401b0381810219909316928c160291909117905593835260478252808320600789900b84529091529020805460ff191690911790555b6001600160a01b0385166000908152604860209081526040808320600788810b85529083528184209087900b845290915290205460ff166138aa5750506001600160a01b03929092166000818152604660209081526040808320600795860b8085529083528184208054600180820183559186528486206004820401805460039092166008026101000a6001600160401b0381810219909316928b16029190911790559484526048835281842090845282528083209590940b8252939093529120805460ff1916909117905550565b60006001600160a01b0386163b15613d5e576040516383fbceb960e01b81526001600160a01b038716906383fbceb990613cac9033908b908a908a908a908a90600401615ab2565b6020604051808303816000875af1925050508015613ce7575060408051601f3d908101601f19168201909252613ce491810190615b25565b60015b613d44573d808015613d15576040519150601f19603f3d011682016040523d82523d6000602084013e613d1a565b606091505b508051600003613d3c5760405162461bcd60e51b8152600401610a0890615a66565b805181602001fd5b6001600160e01b0319166383fbceb960e01b149050611a3c565b506001611a3c565b6001600160a01b038216600090815260456020908152604080832080548251818502810185019093528083529192909190830182828015613de957602002820191906000526020600020906000905b825461010083900a900460070b81526020600f8301819004938401936001036008909301929092029101808411613db55790505b5050505050905060005b81518110156136c657613e2084838381518110613e1257613e1261556e565b602002602001015185614522565b6080830151156136c657600101613df3565b60606000826001600160401b03811115613e4e57613e4e61512d565b604051908082528060200260200182016040528015613e77578160200160208202803683370190505b50905060005b83811015613ecc57848181518110613e9757613e9761556e565b6020026020010151828281518110613eb157613eb161556e565b60079290920b60209283029190910190910152600101613e7d565b509392505050565b60606000826001600160401b03811115613ef057613ef061512d565b604051908082528060200260200182016040528015613f19578160200160208202803683370190505b50905060005b83811015613ecc57848181518110613f3957613f3961556e565b6020026020010151828281518110613f5357613f5361556e565b6020908102919091010152600101613f1f565b6000613f7486868686613a8c565b905060001981146138aa5781811015613fcf5760405162461bcd60e51b815260206004820152601b60248201527f444c543a20696e73756666696369656e7420616c6c6f77616e636500000000006044820152606401610a08565b6138aa868686868686036136cc565b613feb8686868686614162565b613ff9868686868686614793565b6138aa5760405162461bcd60e51b8152600401610a0890615a66565b600783900b600090815260406020819052812054900361404357603e6000815461403e90615b4f565b909155505b600783810b60009081526041602090815260408083209386900b83529290529081205490036140f657600783900b6000908152603f60205260408120805490919061408d90615b4f565b90915550600783810b60009081526042602090815260408083208054604384528285209588900b8552948352908320849055600184018155825290206004820401805460039092166008026101000a6001600160401b0381810219909316928516029190911790555b600783900b6000908152604060208190528120805483929061411990849061555b565b9091555050600783810b60009081526041602090815260408083209386900b8352929052908120805483929061415090849061555b565b909155506136c690508484848461485e565b6001600160a01b0385166141c45760405162461bcd60e51b815260206004820152602360248201527f444c543a207472616e736665722066726f6d20746865207a65726f206164647260448201526265737360e81b6064820152608401610a08565b6001600160a01b0384166141ea5760405162461bcd60e51b8152600401610a08906159a6565b6040805160208082018352600091829052600786810b8352600482528383206001600160a01b038a16845282528383209086900b8352905220548111156142435760405162461bcd60e51b8152600401610a08906159e7565b600783810b60009081526004602090815260408083206001600160a01b03808b1685528184528285209588900b8086529584528285208054889003905589168452825280832093835292905290812080548392906142a290849061555b565b909155505060408051600784810b82526020820184905285900b916001600160a01b038088169290891691600080516020615c07833981519152910160405180910390a4610ce1858585858560405180602001604052806000815250613adf565b61430f848484846149a7565b600783810b60009081526040602081815281832080548690039055604181528183209386900b835292909252908120805483900390819055900361449e57600783900b6000908152603f60205260408120805490919061436e90615b68565b90915550600783810b6000908152604260209081526040808320604383528184209487900b845293909152812054825490919083906143af906001906155a1565b815481106143bf576143bf61556e565b90600052602060002090600491828204019190066008029054906101000a900460070b9050808383815481106143f7576143f761556e565b600091825260208083206004830401805460039093166008026101000a6001600160401b03818102199094169590931692909202939093179055600788810b825260438352604080832085830b845290935282822085905587900b815290812055825483908061446957614469615b7f565b60008281526020902060046000199092019182040180546001600160401b03600860038516026101000a021916905590555050505b600783900b60009081526040602081905281205490036136c657603e600081546144c790615b68565b9091555050505050565b7ff0c57e16840df040f15088dc2f81fe391c3923bec73e23a9662efc9c229c6a0054600160401b900460ff1661189857604051631afcd79f60e31b815260040160405180910390fd5b6129406144d1565b6001600160a01b0383166000908152604660209081526040808320600786900b84528252808320805482518185028101850190935280835291929091908301828280156145b157602002820191906000526020600020906000905b825461010083900a900460070b81526020600f830181900493840193600103600890930192909202910180841161457d5790505b5050505050905060005b8151811015610ce15760008282815181106145d8576145d861556e565b6020026020010151905060006145ef878784610877565b9050801561478957846080015181106146c5578585600001518660a001518151811061461d5761461d61556e565b602002602001019060070b908160070b815250508185602001518660a001518151811061464c5761464c61556e565b602002602001019060070b908160070b81525050846080015185604001518660a001518151811061467f5761467f61556e565b6020026020010181815250508460800151856060018181516146a1919061555b565b90525060a085018051906146b482615b4f565b905250506000608085015250610ce1565b8585600001518660a00151815181106146e0576146e061556e565b602002602001019060070b908160070b815250508185602001518660a001518151811061470f5761470f61556e565b602002602001019060070b908160070b815250508085604001518660a001518151811061473e5761473e61556e565b602002602001018181525050808560600181815161475c919061555b565b90525060a0850180519061476f82615b4f565b81525050808560800181815161478591906155a1565b9052505b50506001016145bb565b60006001600160a01b0386163b15613d5e57604051630f18968560e01b81526001600160a01b03871690630f189685906147db9033908b908a908a908a908a90600401615b95565b6020604051808303816000875af1925050508015614816575060408051601f3d908101601f1916820190925261481391810190615b25565b60015b614844573d808015613d15576040519150601f19603f3d011682016040523d82523d6000602084013e613d1a565b6001600160e01b031916630f18968560e01b149050611a3c565b6001600160a01b0384166148b45760405162461bcd60e51b815260206004820152601d60248201527f444c543a206d696e7420746f20746865207a65726f20616464726573730000006044820152606401610a08565b806000036148fc5760405162461bcd60e51b81526020600482015260156024820152741113150e881b5a5b9d081e995c9bc8185b5bdd5b9d605a1b6044820152606401610a08565b6040805160208082018352600091829052600786810b8352600482528383206001600160a01b038916845282528383209086900b83529052908120805483929061494790849061555b565b909155505060408051600784810b82526020820184905285900b916001600160a01b03871691600091600080516020615c07833981519152910160405180910390a46136c660008585858560405180602001604052806000815250613adf565b6001600160a01b0384166149fd5760405162461bcd60e51b815260206004820152601f60248201527f444c543a206275726e2066726f6d20746865207a65726f2061646472657373006044820152606401610a08565b80600003614a455760405162461bcd60e51b81526020600482015260156024820152741113150e88189d5c9b881e995c9bc8185b5bdd5b9d605a1b6044820152606401610a08565b600783810b60009081526004602090815260408083206001600160a01b038916845282528083209386900b8352929052205481811015614ac35760405162461bcd60e51b8152602060048201526019602482015278444c543a20696e73756666696369656e742062616c616e636560381b6044820152606401610a08565b6040805160208082018352600091829052600787810b808452600483528484206001600160a01b038b168086529084528585209289900b80865292845285852080548990039055855192835292820187905284519094600080516020615c07833981519152928290030190a4610ce185600086868660405180602001604052806000815250613adf565b80356001600160a01b0381168114614b6457600080fd5b919050565b8035600781900b8114614b6457600080fd5b600080600060608486031215614b9057600080fd5b614b9984614b4d565b9250614ba760208501614b69565b9150614bb560408501614b69565b90509250925092565b600060208284031215614bd057600080fd5b6109da82614b69565b60008151808452602080850194506020840160005b83811015614c0d57815160070b87529582019590820190600101614bee565b509495945050505050565b6020815260006109da6020830184614bd9565b6000815180845260005b81811015614c5157602081850181015186830182015201614c35565b506000602082860101526020601f19601f83011685010191505092915050565b6020815260006109da6020830184614c2b565b60008060408385031215614c9757600080fd5b614ca083614b4d565b946020939093013593505050565b60008083601f840112614cc057600080fd5b5081356001600160401b03811115614cd757600080fd5b6020830191508360208260051b8501011115614cf257600080fd5b9250929050565b60008083601f840112614d0b57600080fd5b5081356001600160401b03811115614d2257600080fd5b602083019150836020828501011115614cf257600080fd5b60008060008060008060008060008060c08b8d031215614d5957600080fd5b614d628b614b4d565b9950614d7060208c01614b4d565b985060408b01356001600160401b0380821115614d8c57600080fd5b614d988e838f01614cae565b909a50985060608d0135915080821115614db157600080fd5b614dbd8e838f01614cae565b909850965060808d0135915080821115614dd657600080fd5b614de28e838f01614cae565b909650945060a08d0135915080821115614dfb57600080fd5b50614e088d828e01614cf9565b915080935050809150509295989b9194979a5092959850565b6001600160a01b0391909116815260200190565b600060208284031215614e4757600080fd5b6109da82614b4d565b60008060008060408587031215614e6657600080fd5b84356001600160401b0380821115614e7d57600080fd5b614e8988838901614cae565b90965094506020870135915080821115614ea257600080fd5b50614eaf87828801614cae565b95989497509550505050565b60008060408385031215614ece57600080fd5b614ed783614b4d565b9150614ee560208401614b69565b90509250929050565b600080600060608486031215614f0357600080fd5b614f0c84614b4d565b9250614f1a60208501614b4d565b9150604084013590509250925092565b600080600080600060a08688031215614f4257600080fd5b614f4b86614b4d565b9450614f5960208701614b4d565b9350614f6760408701614b69565b9250614f7560608701614b69565b949793965091946080013592915050565b60008060008060008060608789031215614f9f57600080fd5b86356001600160401b0380821115614fb657600080fd5b614fc28a838b01614cae565b90985096506020890135915080821115614fdb57600080fd5b614fe78a838b01614cae565b9096509450604089013591508082111561500057600080fd5b5061500d89828a01614cae565b979a9699509497509295939492505050565b6000806000806000806000806080898b03121561503b57600080fd5b88356001600160401b038082111561505257600080fd5b61505e8c838d01614cae565b909a50985060208b013591508082111561507757600080fd5b6150838c838d01614cae565b909850965060408b013591508082111561509c57600080fd5b6150a88c838d01614cae565b909650945060608b01359150808211156150c157600080fd5b506150ce8b828c01614cae565b999c989b5096995094979396929594505050565b600080600080608085870312156150f857600080fd5b61510185614b4d565b935061510f60208601614b69565b925061511d60408601614b69565b9396929550929360600135925050565b634e487b7160e01b600052604160045260246000fd5b60006001600160401b038084111561515d5761515d61512d565b604051601f8501601f19908116603f011681019082821181831017156151855761518561512d565b8160405280935085815286868601111561519e57600080fd5b858560208301376000602087830101525050509392505050565b60008060008060008060c087890312156151d157600080fd5b6151da87614b4d565b95506151e860208801614b4d565b94506151f660408801614b69565b935061520460608801614b69565b92506080870135915060a08701356001600160401b0381111561522657600080fd5b8701601f8101891361523757600080fd5b61524689823560208401615143565b9150509295509295509295565b60008060006060848603121561526857600080fd5b61527184614b4d565b925061527f60208501614b4d565b9150614bb560408501614b4d565b60008151808452602080850194506020840160005b83811015614c0d578151875295820195908201906001016152a2565b6020815260006109da602083018461528d565b801515811461297357600080fd5b600080604083850312156152f257600080fd5b6152fb83614b4d565b9150602083013561530b816152d1565b809150509250929050565b6000806020838503121561532957600080fd5b82356001600160401b0381111561533f57600080fd5b61534b85828601614cf9565b90969095509350505050565b6000806040838503121561536a57600080fd5b614ed783614b69565b6000806040838503121561538657600080fd5b61538f83614b4d565b9150614ee560208401614b4d565b600080600080608085870312156153b357600080fd5b6153bc85614b4d565b93506153ca60208601614b4d565b92506153d860408601614b69565b91506153e660608601614b69565b905092959194509250565b600082601f83011261540257600080fd5b6109da83833560208501615143565b60008060008060008060c0878903121561542a57600080fd5b61543387614b4d565b955061544160208801614b4d565b945060408701356001600160401b038082111561545d57600080fd5b6154698a838b016153f1565b9550606089013591508082111561547f57600080fd5b5061548c89828a016153f1565b935050608087013560ff811681146154a357600080fd5b91506154b160a08801614b4d565b90509295509295509295565b600181811c908216806154d157607f821691505b6020821081036154f157634e487b7160e01b600052602260045260246000fd5b50919050565b6020808252602e908201527f4167656e74526f6c653a2063616c6c657220646f6573206e6f7420686176652060408201526d746865204167656e7420726f6c6560901b606082015260800190565b634e487b7160e01b600052601160045260246000fd5b808201808211156109dd576109dd615545565b634e487b7160e01b600052603260045260246000fd5b60006020828403121561559657600080fd5b81356108aa816152d1565b818103818111156109dd576109dd615545565b60208082526010908201526f14185d5cd8589b194e881c185d5cd95960821b604082015260600190565b60208082526010908201526f3bb0b63632ba1034b990333937bd32b760811b604082015260600190565b602080825260149082015273496e73756666696369656e742042616c616e636560601b604082015260600190565b60006020828403121561564857600080fd5b81516108aa816152d1565b6001600160a01b039384168152919092166020820152604081019190915260600190565b6000808354615685816154bd565b6001828116801561569d57600181146156b2576156e1565b60ff19841687528215158302870194506156e1565b8760005260208060002060005b858110156156d85781548a8201529084019082016156bf565b50505082870194505b50929695505050505050565b60ff831681526040602082015260006157096040830184614c2b565b949350505050565b6020808252601f908201527f696e76616c696420617267756d656e74202d207a65726f206164647265737300604082015260600190565b60006020828403121561575a57600080fd5b815161ffff811681146108aa57600080fd5b60208152816020820152818360408301376000818301604090810191909152601f909201601f19160101919050565b6020808252601f908201527f696e76616c696420617267756d656e74202d20656d70747920737472696e6700604082015260600190565b601f82111561581a576000816000526020600020601f850160051c810160208610156157fb5750805b601f850160051c820191505b818110156138aa57828155600101615807565b505050565b600019600383901b1c191660019190911b1790565b6001600160401b0383111561584b5761584b61512d565b61585f8361585983546154bd565b836157d2565b6000601f84116001811461588d576000851561587b5750838201355b615885868261581f565b845550610ce1565b600083815260209020601f19861690835b828110156158be578685013582556020948501946001909201910161589e565b50868210156158db5760001960f88860031b161c19848701351681555b505060018560011b0183555050505050565b81516001600160401b038111156159065761590661512d565b61591a8161591484546154bd565b846157d2565b602080601f83116001811461594957600084156159375750858301515b615941858261581f565b8655506138aa565b600085815260208120601f198616915b8281101561597857888601518255948401946001909101908401615959565b50858210156159965787850151600019600388901b60f8161c191681555b5050505050600190811b01905550565b60208082526021908201527f444c543a207472616e7366657220746f20746865207a65726f206164647265736040820152607360f81b606082015260800190565b60208082526026908201527f444c543a20696e73756666696369656e742062616c616e636520666f7220747260408201526530b739b332b960d11b606082015260800190565b606081526000615a406060830186614bd9565b8281036020840152615a528186614bd9565b90508281036040840152611a3c818561528d565b6020808252602c908201527f444c543a207472616e7366657220746f206e6f6e20444c54526563656976657260408201526b1034b6b83632b6b2b73a32b960a11b606082015260800190565b6001600160a01b0387811682528616602082015260c060408201819052600090615ade90830187614bd9565b8281036060840152615af08187614bd9565b90508281036080840152615b04818661528d565b905082810360a0840152615b188185614c2b565b9998505050505050505050565b600060208284031215615b3757600080fd5b81516001600160e01b0319811681146108aa57600080fd5b600060018201615b6157615b61615545565b5060010190565b600081615b7757615b77615545565b506000190190565b634e487b7160e01b600052603160045260246000fd5b6001600160a01b03878116825286166020820152600785810b604083015284900b60608201526080810183905260c060a08201819052600090615bda90830184614c2b565b9897505050505050505056fe9bed35cb62ad0dba04f9d5bfee4b5bc91443e77da8a65c4c84834c51bb08b0d6d3f5ba918fcf5f0ed2a6add09f440b150c54a8eba5a07bbba0695eea7bbf1efa6a1105ac8148a3c319adbc369f9072573e8a11d3a3d195e067e7c40767ec54d1a2646970667358221220d3d1423e2f8856ec8620f9915da1ffe7ac9b5470da573e27f0e98ecda0539b7864736f6c63430008180033",
  "linkReferences": {},
  "deployedLinkReferences": {}
}