{
  "_format": "hh-sol-artifact-1",
  "contractName": "TokenVotes",
  "sourceName": "contracts/erc3643/token/TokenVotes.sol",
  "abi": [
    {
      "inputs": [],
      "stateMutability": "nonpayable",
      "type": "constructor"
    },
    {
      "inputs": [],
      "name": "CheckpointUnorderedInsertion",
      "type": "error"
    },
    {
      "inputs": [],
      "name": "ECDSAInvalidSignature",
      "type": "error"
    },
    {
      "inputs": [
        {
          "internalType": "uint256",
          "name": "length",
          "type": "uint256"
        }
      ],
      "name": "ECDSAInvalidSignatureLength",
      "type": "error"
    },
    {
      "inputs": [
        {
          "internalType": "bytes32",
          "name": "s",
          "type": "bytes32"
        }
      ],
      "name": "ECDSAInvalidSignatureS",
      "type": "error"
    },
    {
      "inputs": [
        {
          "internalType": "uint256",
          "name": "increasedSupply",
          "type": "uint256"
        },
        {
          "internalType": "uint256",
          "name": "cap",
          "type": "uint256"
        }
      ],
      "name": "ERC20ExceededSafeSupply",
      "type": "error"
    },
    {
      "inputs": [
        {
          "internalType": "address",
          "name": "spender",
          "type": "address"
        },
        {
          "internalType": "uint256",
          "name": "allowance",
          "type": "uint256"
        },
        {
          "internalType": "uint256",
          "name": "needed",
          "type": "uint256"
        }
      ],
      "name": "ERC20InsufficientAllowance",
      "type": "error"
    },
    {
      "inputs": [
        {
          "internalType": "address",
          "name": "sender",
          "type": "address"
        },
        {
          "internalType": "uint256",
          "name": "balance",
          "type": "uint256"
        },
        {
          "internalType": "uint256",
          "name": "needed",
          "type": "uint256"
        }
      ],
      "name": "ERC20InsufficientBalance",
      "type": "error"
    },
    {
      "inputs": [
        {
          "internalType": "address",
          "name": "approver",
          "type": "address"
        }
      ],
      "name": "ERC20InvalidApprover",
      "type": "error"
    },
    {
      "inputs": [
        {
          "internalType": "address",
          "name": "receiver",
          "type": "address"
        }
      ],
      "name": "ERC20InvalidReceiver",
      "type": "error"
    },
    {
      "inputs": [
        {
          "internalType": "address",
          "name": "sender",
          "type": "address"
        }
      ],
      "name": "ERC20InvalidSender",
      "type": "error"
    },
    {
      "inputs": [
        {
          "internalType": "address",
          "name": "spender",
          "type": "address"
        }
      ],
      "name": "ERC20InvalidSpender",
      "type": "error"
    },
    {
      "inputs": [
        {
          "internalType": "uint256",
          "name": "timepoint",
          "type": "uint256"
        },
        {
          "internalType": "uint48",
          "name": "clock",
          "type": "uint48"
        }
      ],
      "name": "ERC5805FutureLookup",
      "type": "error"
    },
    {
      "inputs": [],
      "name": "ERC6372InconsistentClock",
      "type": "error"
    },
    {
      "inputs": [],
      "name": "EnforcedPause",
      "type": "error"
    },
    {
      "inputs": [],
      "name": "ExpectedPause",
      "type": "error"
    },
    {
      "inputs": [
        {
          "internalType": "address",
          "name": "account",
          "type": "address"
        },
        {
          "internalType": "uint256",
          "name": "currentNonce",
          "type": "uint256"
        }
      ],
      "name": "InvalidAccountNonce",
      "type": "error"
    },
    {
      "inputs": [],
      "name": "InvalidInitialization",
      "type": "error"
    },
    {
      "inputs": [],
      "name": "NotInitializing",
      "type": "error"
    },
    {
      "inputs": [
        {
          "internalType": "address",
          "name": "owner",
          "type": "address"
        }
      ],
      "name": "OwnableInvalidOwner",
      "type": "error"
    },
    {
      "inputs": [
        {
          "internalType": "address",
          "name": "account",
          "type": "address"
        }
      ],
      "name": "OwnableUnauthorizedAccount",
      "type": "error"
    },
    {
      "inputs": [
        {
          "internalType": "uint8",
          "name": "bits",
          "type": "uint8"
        },
        {
          "internalType": "uint256",
          "name": "value",
          "type": "uint256"
        }
      ],
      "name": "SafeCastOverflowedUintDowncast",
      "type": "error"
    },
    {
      "inputs": [
        {
          "internalType": "uint256",
          "name": "expiry",
          "type": "uint256"
        }
      ],
      "name": "VotesExpiredSignature",
      "type": "error"
    },
    {
      "anonymous": false,
      "inputs": [
        {
          "indexed": true,
          "internalType": "address",
          "name": "_userAddress",
          "type": "address"
        },
        {
          "indexed": true,
          "internalType": "bool",
          "name": "_isFrozen",
          "type": "bool"
        },
        {
          "indexed": true,
          "internalType": "address",
          "name": "_owner",
          "type": "address"
        }
      ],
      "name": "AddressFrozen",
      "type": "event"
    },
    {
      "anonymous": false,
      "inputs": [
        {
          "indexed": true,
          "internalType": "address",
          "name": "_agent",
          "type": "address"
        }
      ],
      "name": "AgentAdded",
      "type": "event"
    },
    {
      "anonymous": false,
      "inputs": [
        {
          "indexed": true,
          "internalType": "address",
          "name": "_agent",
          "type": "address"
        }
      ],
      "name": "AgentRemoved",
      "type": "event"
    },
    {
      "anonymous": false,
      "inputs": [
        {
          "indexed": true,
          "internalType": "address",
          "name": "owner",
          "type": "address"
        },
        {
          "indexed": true,
          "internalType": "address",
          "name": "spender",
          "type": "address"
        },
        {
          "indexed": false,
          "internalType": "uint256",
          "name": "value",
          "type": "uint256"
        }
      ],
      "name": "Approval",
      "type": "event"
    },
    {
      "anonymous": false,
      "inputs": [
        {
          "indexed": true,
          "internalType": "address",
          "name": "_compliance",
          "type": "address"
        }
      ],
      "name": "ComplianceAdded",
      "type": "event"
    },
    {
      "anonymous": false,
      "inputs": [
        {
          "indexed": true,
          "internalType": "address",
          "name": "delegator",
          "type": "address"
        },
        {
          "indexed": true,
          "internalType": "address",
          "name": "fromDelegate",
          "type": "address"
        },
        {
          "indexed": true,
          "internalType": "address",
          "name": "toDelegate",
          "type": "address"
        }
      ],
      "name": "DelegateChanged",
      "type": "event"
    },
    {
      "anonymous": false,
      "inputs": [
        {
          "indexed": true,
          "internalType": "address",
          "name": "delegate",
          "type": "address"
        },
        {
          "indexed": false,
          "internalType": "uint256",
          "name": "previousVotes",
          "type": "uint256"
        },
        {
          "indexed": false,
          "internalType": "uint256",
          "name": "newVotes",
          "type": "uint256"
        }
      ],
      "name": "DelegateVotesChanged",
      "type": "event"
    },
    {
      "anonymous": false,
      "inputs": [],
      "name": "EIP712DomainChanged",
      "type": "event"
    },
    {
      "anonymous": false,
      "inputs": [
        {
          "indexed": true,
          "internalType": "address",
          "name": "_identityRegistry",
          "type": "address"
        }
      ],
      "name": "IdentityRegistryAdded",
      "type": "event"
    },
    {
      "anonymous": false,
      "inputs": [
        {
          "indexed": false,
          "internalType": "uint64",
          "name": "version",
          "type": "uint64"
        }
      ],
      "name": "Initialized",
      "type": "event"
    },
    {
      "anonymous": false,
      "inputs": [
        {
          "indexed": true,
          "internalType": "address",
          "name": "previousOwner",
          "type": "address"
        },
        {
          "indexed": true,
          "internalType": "address",
          "name": "newOwner",
          "type": "address"
        }
      ],
      "name": "OwnershipTransferred",
      "type": "event"
    },
    {
      "anonymous": false,
      "inputs": [
        {
          "indexed": false,
          "internalType": "address",
          "name": "account",
          "type": "address"
        }
      ],
      "name": "Paused",
      "type": "event"
    },
    {
      "anonymous": false,
      "inputs": [
        {
          "indexed": true,
          "internalType": "address",
          "name": "_lostWallet",
          "type": "address"
        },
        {
          "indexed": true,
          "internalType": "address",
          "name": "_newWallet",
          "type": "address"
        },
        {
          "indexed": true,
          "internalType": "address",
          "name": "_investorOnchainID",
          "type": "address"
        }
      ],
      "name": "RecoverySuccess",
      "type": "event"
    },
    {
      "anonymous": false,
      "inputs": [
        {
          "indexed": true,
          "internalType": "address",
          "name": "_userAddress",
          "type": "address"
        },
        {
          "indexed": false,
          "internalType": "uint256",
          "name": "_amount",
          "type": "uint256"
        }
      ],
      "name": "TokensFrozen",
      "type": "event"
    },
    {
      "anonymous": false,
      "inputs": [
        {
          "indexed": true,
          "internalType": "address",
          "name": "_userAddress",
          "type": "address"
        },
        {
          "indexed": false,
          "internalType": "uint256",
          "name": "_amount",
          "type": "uint256"
        }
      ],
      "name": "TokensUnfrozen",
      "type": "event"
    },
    {
      "anonymous": false,
      "inputs": [
        {
          "indexed": true,
          "internalType": "address",
          "name": "from",
          "type": "address"
        },
        {
          "indexed": true,
          "internalType": "address",
          "name": "to",
          "type": "address"
        },
        {
          "indexed": false,
          "internalType": "uint256",
          "name": "value",
          "type": "uint256"
        }
      ],
      "name": "Transfer",
      "type": "event"
    },
    {
      "anonymous": false,
      "inputs": [
        {
          "indexed": false,
          "internalType": "address",
          "name": "account",
          "type": "address"
        }
      ],
      "name": "Unpaused",
      "type": "event"
    },
    {
      "anonymous": false,
      "inputs": [
        {
          "indexed": true,
          "internalType": "string",
          "name": "_newName",
          "type": "string"
        },
        {
          "indexed": true,
          "internalType": "string",
          "name": "_newSymbol",
          "type": "string"
        },
        {
          "indexed": false,
          "internalType": "uint8",
          "name": "_newDecimals",
          "type": "uint8"
        },
        {
          "indexed": false,
          "internalType": "string",
          "name": "_newVersion",
          "type": "string"
        },
        {
          "indexed": true,
          "internalType": "address",
          "name": "_newOnchainID",
          "type": "address"
        }
      ],
      "name": "UpdatedTokenInformation",
      "type": "event"
    },
    {
      "inputs": [],
      "name": "CLOCK_MODE",
      "outputs": [
        {
          "internalType": "string",
          "name": "",
          "type": "string"
        }
      ],
      "stateMutability": "pure",
      "type": "function"
    },
    {
      "inputs": [
        {
          "internalType": "address",
          "name": "_agent",
          "type": "address"
        }
      ],
      "name": "addAgent",
      "outputs": [],
      "stateMutability": "nonpayable",
      "type": "function"
    },
    {
      "inputs": [
        {
          "internalType": "address",
          "name": "owner",
          "type": "address"
        },
        {
          "internalType": "address",
          "name": "spender",
          "type": "address"
        }
      ],
      "name": "allowance",
      "outputs": [
        {
          "internalType": "uint256",
          "name": "",
          "type": "uint256"
        }
      ],
      "stateMutability": "view",
      "type": "function"
    },
    {
      "inputs": [
        {
          "internalType": "address",
          "name": "spender",
          "type": "address"
        },
        {
          "internalType": "uint256",
          "name": "value",
          "type": "uint256"
        }
      ],
      "name": "approve",
      "outputs": [
        {
          "internalType": "bool",
          "name": "",
          "type": "bool"
        }
      ],
      "stateMutability": "nonpayable",
      "type": "function"
    },
    {
      "inputs": [
        {
          "internalType": "address",
          "name": "account",
          "type": "address"
        }
      ],
      "name": "balanceOf",
      "outputs": [
        {
          "internalType": "uint256",
          "name": "",
          "type": "uint256"
        }
      ],
      "stateMutability": "view",
      "type": "function"
    },
    {
      "inputs": [
        {
          "internalType": "address[]",
          "name": "_userAddresses",
          "type": "address[]"
        },
        {
          "internalType": "uint256[]",
          "name": "_amounts",
          "type": "uint256[]"
        }
      ],
      "name": "batchBurn",
      "outputs": [],
      "stateMutability": "nonpayable",
      "type": "function"
    },
    {
      "inputs": [
        {
          "internalType": "address[]",
          "name": "_fromList",
          "type": "address[]"
        },
        {
          "internalType": "address[]",
          "name": "_toList",
          "type": "address[]"
        },
        {
          "internalType": "uint256[]",
          "name": "_amounts",
          "type": "uint256[]"
        }
      ],
      "name": "batchForcedTransfer",
      "outputs": [],
      "stateMutability": "nonpayable",
      "type": "function"
    },
    {
      "inputs": [
        {
          "internalType": "address[]",
          "name": "_userAddresses",
          "type": "address[]"
        },
        {
          "internalType": "uint256[]",
          "name": "_amounts",
          "type": "uint256[]"
        }
      ],
      "name": "batchFreezePartialTokens",
      "outputs": [],
      "stateMutability": "nonpayable",
      "type": "function"
    },
    {
      "inputs": [
        {
          "internalType": "address[]",
          "name": "_toList",
          "type": "address[]"
        },
        {
          "internalType": "uint256[]",
          "name": "_amounts",
          "type": "uint256[]"
        }
      ],
      "name": "batchMint",
      "outputs": [],
      "stateMutability": "nonpayable",
      "type": "function"
    },
    {
      "inputs": [
        {
          "internalType": "address[]",
          "name": "_userAddresses",
          "type": "address[]"
        },
        {
          "internalType": "bool[]",
          "name": "_freeze",
          "type": "bool[]"
        }
      ],
      "name": "batchSetAddressFrozen",
      "outputs": [],
      "stateMutability": "nonpayable",
      "type": "function"
    },
    {
      "inputs": [
        {
          "internalType": "address[]",
          "name": "_toList",
          "type": "address[]"
        },
        {
          "internalType": "uint256[]",
          "name": "_amounts",
          "type": "uint256[]"
        }
      ],
      "name": "batchTransfer",
      "outputs": [],
      "stateMutability": "nonpayable",
      "type": "function"
    },
    {
      "inputs": [
        {
          "internalType": "address[]",
          "name": "_userAddresses",
          "type": "address[]"
        },
        {
          "internalType": "uint256[]",
          "name": "_amounts",
          "type": "uint256[]"
        }
      ],
      "name": "batchUnfreezePartialTokens",
      "outputs": [],
      "stateMutability": "nonpayable",
      "type": "function"
    },
    {
      "inputs": [
        {
          "internalType": "address",
          "name": "_userAddress",
          "type": "address"
        },
        {
          "internalType": "uint256",
          "name": "_amount",
          "type": "uint256"
        }
      ],
      "name": "burn",
      "outputs": [],
      "stateMutability": "nonpayable",
      "type": "function"
    },
    {
      "inputs": [
        {
          "internalType": "address",
          "name": "account",
          "type": "address"
        },
        {
          "internalType": "uint32",
          "name": "pos",
          "type": "uint32"
        }
      ],
      "name": "checkpoints",
      "outputs": [
        {
          "components": [
            {
              "internalType": "uint48",
              "name": "_key",
              "type": "uint48"
            },
            {
              "internalType": "uint208",
              "name": "_value",
              "type": "uint208"
            }
          ],
          "internalType": "struct Checkpoints.Checkpoint208",
          "name": "",
          "type": "tuple"
        }
      ],
      "stateMutability": "view",
      "type": "function"
    },
    {
      "inputs": [],
      "name": "clock",
      "outputs": [
        {
          "internalType": "uint48",
          "name": "",
          "type": "uint48"
        }
      ],
      "stateMutability": "view",
      "type": "function"
    },
    {
      "inputs": [],
      "name": "compliance",
      "outputs": [
        {
          "internalType": "contract IModularCompliance",
          "name": "",
          "type": "address"
        }
      ],
      "stateMutability": "view",
      "type": "function"
    },
    {
      "inputs": [],
      "name": "decimals",
      "outputs": [
        {
          "internalType": "uint8",
          "name": "",
          "type": "uint8"
        }
      ],
      "stateMutability": "view",
      "type": "function"
    },
    {
      "inputs": [
        {
          "internalType": "address",
          "name": "_spender",
          "type": "address"
        },
        {
          "internalType": "uint256",
          "name": "_decreasedValue",
          "type": "uint256"
        }
      ],
      "name": "decreaseAllowance",
      "outputs": [
        {
          "internalType": "bool",
          "name": "",
          "type": "bool"
        }
      ],
      "stateMutability": "nonpayable",
      "type": "function"
    },
    {
      "inputs": [
        {
          "internalType": "address",
          "name": "delegatee",
          "type": "address"
        }
      ],
      "name": "delegate",
      "outputs": [],
      "stateMutability": "nonpayable",
      "type": "function"
    },
    {
      "inputs": [
        {
          "internalType": "address",
          "name": "delegatee",
          "type": "address"
        },
        {
          "internalType": "uint256",
          "name": "nonce",
          "type": "uint256"
        },
        {
          "internalType": "uint256",
          "name": "expiry",
          "type": "uint256"
        },
        {
          "internalType": "uint8",
          "name": "v",
          "type": "uint8"
        },
        {
          "internalType": "bytes32",
          "name": "r",
          "type": "bytes32"
        },
        {
          "internalType": "bytes32",
          "name": "s",
          "type": "bytes32"
        }
      ],
      "name": "delegateBySig",
      "outputs": [],
      "stateMutability": "nonpayable",
      "type": "function"
    },
    {
      "inputs": [
        {
          "internalType": "address",
          "name": "account",
          "type": "address"
        }
      ],
      "name": "delegates",
      "outputs": [
        {
          "internalType": "address",
          "name": "",
          "type": "address"
        }
      ],
      "stateMutability": "view",
      "type": "function"
    },
    {
      "inputs": [],
      "name": "eip712Domain",
      "outputs": [
        {
          "internalType": "bytes1",
          "name": "fields",
          "type": "bytes1"
        },
        {
          "internalType": "string",
          "name": "name",
          "type": "string"
        },
        {
          "internalType": "string",
          "name": "version",
          "type": "string"
        },
        {
          "internalType": "uint256",
          "name": "chainId",
          "type": "uint256"
        },
        {
          "internalType": "address",
          "name": "verifyingContract",
          "type": "address"
        },
        {
          "internalType": "bytes32",
          "name": "salt",
          "type": "bytes32"
        },
        {
          "internalType": "uint256[]",
          "name": "extensions",
          "type": "uint256[]"
        }
      ],
      "stateMutability": "view",
      "type": "function"
    },
    {
      "inputs": [
        {
          "internalType": "address",
          "name": "_from",
          "type": "address"
        },
        {
          "internalType": "address",
          "name": "_to",
          "type": "address"
        },
        {
          "internalType": "uint256",
          "name": "_amount",
          "type": "uint256"
        }
      ],
      "name": "forcedTransfer",
      "outputs": [
        {
          "internalType": "bool",
          "name": "",
          "type": "bool"
        }
      ],
      "stateMutability": "nonpayable",
      "type": "function"
    },
    {
      "inputs": [
        {
          "internalType": "address",
          "name": "_userAddress",
          "type": "address"
        },
        {
          "internalType": "uint256",
          "name": "_amount",
          "type": "uint256"
        }
      ],
      "name": "freezePartialTokens",
      "outputs": [],
      "stateMutability": "nonpayable",
      "type": "function"
    },
    {
      "inputs": [
        {
          "internalType": "address",
          "name": "_userAddress",
          "type": "address"
        }
      ],
      "name": "getFrozenTokens",
      "outputs": [
        {
          "internalType": "uint256",
          "name": "",
          "type": "uint256"
        }
      ],
      "stateMutability": "view",
      "type": "function"
    },
    {
      "inputs": [
        {
          "internalType": "uint256",
          "name": "timepoint",
          "type": "uint256"
        }
      ],
      "name": "getPastTotalSupply",
      "outputs": [
        {
          "internalType": "uint256",
          "name": "",
          "type": "uint256"
        }
      ],
      "stateMutability": "view",
      "type": "function"
    },
    {
      "inputs": [
        {
          "internalType": "address",
          "name": "account",
          "type": "address"
        },
        {
          "internalType": "uint256",
          "name": "timepoint",
          "type": "uint256"
        }
      ],
      "name": "getPastVotes",
      "outputs": [
        {
          "internalType": "uint256",
          "name": "",
          "type": "uint256"
        }
      ],
      "stateMutability": "view",
      "type": "function"
    },
    {
      "inputs": [
        {
          "internalType": "address",
          "name": "account",
          "type": "address"
        }
      ],
      "name": "getVotes",
      "outputs": [
        {
          "internalType": "uint256",
          "name": "",
          "type": "uint256"
        }
      ],
      "stateMutability": "view",
      "type": "function"
    },
    {
      "inputs": [],
      "name": "identityRegistry",
      "outputs": [
        {
          "internalType": "contract IIdentityRegistry",
          "name": "",
          "type": "address"
        }
      ],
      "stateMutability": "view",
      "type": "function"
    },
    {
      "inputs": [
        {
          "internalType": "address",
          "name": "_spender",
          "type": "address"
        },
        {
          "internalType": "uint256",
          "name": "_addedValue",
          "type": "uint256"
        }
      ],
      "name": "increaseAllowance",
      "outputs": [
        {
          "internalType": "bool",
          "name": "",
          "type": "bool"
        }
      ],
      "stateMutability": "nonpayable",
      "type": "function"
    },
    {
      "inputs": [
        {
          "internalType": "address",
          "name": "_identityRegistry",
          "type": "address"
        },
        {
          "internalType": "address",
          "name": "_compliance",
          "type": "address"
        },
        {
          "internalType": "string",
          "name": "_tokenName",
          "type": "string"
        },
        {
          "internalType": "string",
          "name": "_tokenSymbol",
          "type": "string"
        },
        {
          "internalType": "uint8",
          "name": "_tokenDecimals",
          "type": "uint8"
        },
        {
          "internalType": "address",
          "name": "_onchainID",
          "type": "address"
        }
      ],
      "name": "init",
      "outputs": [],
      "stateMutability": "nonpayable",
      "type": "function"
    },
    {
      "inputs": [
        {
          "internalType": "address",
          "name": "_agent",
          "type": "address"
        }
      ],
      "name": "isAgent",
      "outputs": [
        {
          "internalType": "bool",
          "name": "",
          "type": "bool"
        }
      ],
      "stateMutability": "view",
      "type": "function"
    },
    {
      "inputs": [
        {
          "internalType": "address",
          "name": "_userAddress",
          "type": "address"
        }
      ],
      "name": "isFrozen",
      "outputs": [
        {
          "internalType": "bool",
          "name": "",
          "type": "bool"
        }
      ],
      "stateMutability": "view",
      "type": "function"
    },
    {
      "inputs": [
        {
          "internalType": "address",
          "name": "_to",
          "type": "address"
        },
        {
          "internalType": "uint256",
          "name": "_amount",
          "type": "uint256"
        }
      ],
      "name": "mint",
      "outputs": [],
      "stateMutability": "nonpayable",
      "type": "function"
    },
    {
      "inputs": [],
      "name": "name",
      "outputs": [
        {
          "internalType": "string",
          "name": "",
          "type": "string"
        }
      ],
      "stateMutability": "view",
      "type": "function"
    },
    {
      "inputs": [
        {
          "internalType": "address",
          "name": "owner",
          "type": "address"
        }
      ],
      "name": "nonces",
      "outputs": [
        {
          "internalType": "uint256",
          "name": "",
          "type": "uint256"
        }
      ],
      "stateMutability": "view",
      "type": "function"
    },
    {
      "inputs": [
        {
          "internalType": "address",
          "name": "account",
          "type": "address"
        }
      ],
      "name": "numCheckpoints",
      "outputs": [
        {
          "internalType": "uint32",
          "name": "",
          "type": "uint32"
        }
      ],
      "stateMutability": "view",
      "type": "function"
    },
    {
      "inputs": [],
      "name": "onchainID",
      "outputs": [
        {
          "internalType": "address",
          "name": "",
          "type": "address"
        }
      ],
      "stateMutability": "view",
      "type": "function"
    },
    {
      "inputs": [],
      "name": "owner",
      "outputs": [
        {
          "internalType": "address",
          "name": "",
          "type": "address"
        }
      ],
      "stateMutability": "view",
      "type": "function"
    },
    {
      "inputs": [],
      "name": "pause",
      "outputs": [],
      "stateMutability": "nonpayable",
      "type": "function"
    },
    {
      "inputs": [],
      "name": "paused",
      "outputs": [
        {
          "internalType": "bool",
          "name": "",
          "type": "bool"
        }
      ],
      "stateMutability": "view",
      "type": "function"
    },
    {
      "inputs": [
        {
          "internalType": "address",
          "name": "_lostWallet",
          "type": "address"
        },
        {
          "internalType": "address",
          "name": "_newWallet",
          "type": "address"
        },
        {
          "internalType": "address",
          "name": "_investorOnchainID",
          "type": "address"
        }
      ],
      "name": "recoveryAddress",
      "outputs": [
        {
          "internalType": "bool",
          "name": "",
          "type": "bool"
        }
      ],
      "stateMutability": "nonpayable",
      "type": "function"
    },
    {
      "inputs": [
        {
          "internalType": "address",
          "name": "_agent",
          "type": "address"
        }
      ],
      "name": "removeAgent",
      "outputs": [],
      "stateMutability": "nonpayable",
      "type": "function"
    },
    {
      "inputs": [],
      "name": "renounceOwnership",
      "outputs": [],
      "stateMutability": "nonpayable",
      "type": "function"
    },
    {
      "inputs": [
        {
          "internalType": "address",
          "name": "_userAddress",
          "type": "address"
        },
        {
          "internalType": "bool",
          "name": "_freeze",
          "type": "bool"
        }
      ],
      "name": "setAddressFrozen",
      "outputs": [],
      "stateMutability": "nonpayable",
      "type": "function"
    },
    {
      "inputs": [
        {
          "internalType": "address",
          "name": "_compliance",
          "type": "address"
        }
      ],
      "name": "setCompliance",
      "outputs": [],
      "stateMutability": "nonpayable",
      "type": "function"
    },
    {
      "inputs": [
        {
          "internalType": "address",
          "name": "_identityRegistry",
          "type": "address"
        }
      ],
      "name": "setIdentityRegistry",
      "outputs": [],
      "stateMutability": "nonpayable",
      "type": "function"
    },
    {
      "inputs": [
        {
          "internalType": "string",
          "name": "_tokenName",
          "type": "string"
        }
      ],
      "name": "setName",
      "outputs": [],
      "stateMutability": "nonpayable",
      "type": "function"
    },
    {
      "inputs": [
        {
          "internalType": "address",
          "name": "_onchainID",
          "type": "address"
        }
      ],
      "name": "setOnchainID",
      "outputs": [],
      "stateMutability": "nonpayable",
      "type": "function"
    },
    {
      "inputs": [
        {
          "internalType": "string",
          "name": "_tokenSymbol",
          "type": "string"
        }
      ],
      "name": "setSymbol",
      "outputs": [],
      "stateMutability": "nonpayable",
      "type": "function"
    },
    {
      "inputs": [],
      "name": "symbol",
      "outputs": [
        {
          "internalType": "string",
          "name": "",
          "type": "string"
        }
      ],
      "stateMutability": "view",
      "type": "function"
    },
    {
      "inputs": [],
      "name": "totalSupply",
      "outputs": [
        {
          "internalType": "uint256",
          "name": "",
          "type": "uint256"
        }
      ],
      "stateMutability": "view",
      "type": "function"
    },
    {
      "inputs": [
        {
          "internalType": "address",
          "name": "_to",
          "type": "address"
        },
        {
          "internalType": "uint256",
          "name": "_amount",
          "type": "uint256"
        }
      ],
      "name": "transfer",
      "outputs": [
        {
          "internalType": "bool",
          "name": "",
          "type": "bool"
        }
      ],
      "stateMutability": "nonpayable",
      "type": "function"
    },
    {
      "inputs": [
        {
          "internalType": "address",
          "name": "_from",
          "type": "address"
        },
        {
          "internalType": "address",
          "name": "_to",
          "type": "address"
        },
        {
          "internalType": "uint256",
          "name": "_amount",
          "type": "uint256"
        }
      ],
      "name": "transferFrom",
      "outputs": [
        {
          "internalType": "bool",
          "name": "",
          "type": "bool"
        }
      ],
      "stateMutability": "nonpayable",
      "type": "function"
    },
    {
      "inputs": [
        {
          "internalType": "address",
          "name": "newOwner",
          "type": "address"
        }
      ],
      "name": "transferOwnership",
      "outputs": [],
      "stateMutability": "nonpayable",
      "type": "function"
    },
    {
      "inputs": [
        {
          "internalType": "address",
          "name": "_userAddress",
          "type": "address"
        },
        {
          "internalType": "uint256",
          "name": "_amount",
          "type": "uint256"
        }
      ],
      "name": "unfreezePartialTokens",
      "outputs": [],
      "stateMutability": "nonpayable",
      "type": "function"
    },
    {
      "inputs": [],
      "name": "unpause",
      "outputs": [],
      "stateMutability": "nonpayable",
      "type": "function"
    },
    {
      "inputs": [],
      "name": "version",
      "outputs": [
        {
          "internalType": "string",
          "name": "",
          "type": "string"
        }
      ],
      "stateMutability": "pure",
      "type": "function"
    }
  ],
  "bytecode": "0x60806040526006805460ff191690553480156200001b57600080fd5b50620000266200002c565b620000e0565b7ff0c57e16840df040f15088dc2f81fe391c3923bec73e23a9662efc9c229c6a00805468010000000000000000900460ff16156200007d5760405163f92ee8a960e01b815260040160405180910390fd5b80546001600160401b0390811614620000dd5780546001600160401b0319166001600160401b0390811782556040519081527fc7f505b2f371ae2175ee4913f4499e1f2633a7b5936321eed1cdaeb6115181d29060200160405180910390a15b50565b614b1680620000f06000396000f3fe608060405234801561001057600080fd5b506004361061030e5760003560e01c80637ecebe001161019e578063a457c2d7116100ef578063cbf3f8611161009d578063cbf3f86114610711578063dd62ed3e14610724578063e583983614610737578063f1127ed814610763578063f2fde38b146107a2578063f8981789146107b5578063f91b619c146107c8578063fc7e5fa8146107db57600080fd5b8063a457c2d714610689578063a9059cbb1461069c578063aba63705146106af578063b84c8246146106c5578063c3cda520146106d8578063c47f0027146106eb578063c69c09cf146106fe57600080fd5b806391ddadf41161014c57806391ddadf41461060c5780639285948a1461062257806395d89b411461063557806397a6278e1461063d5780639ab24eb0146106505780639dc29fac146106635780639fc1d0e71461067657600080fd5b80637ecebe00146105955780638456cb59146105a857806384b0196e146105b057806384e79842146105cb57806388d695b2146105de5780638da5cb5b146105f15780638e539e8c146105f957600080fd5b80633f4ba83a11610263578063587cde1e11610211578063587cde1e146105005780635c19a95c146105135780635c975abb146105265780636290865d1461052e578063685731071461053f5780636fcfff451461055257806370a082311461057a578063715018a61461058d57600080fd5b80633f4ba83a1461046157806340c10f191461046957806342a47abc1461047c5780634710362d1461048f5780634a6cc677146104a25780634bf5d7e9146104b557806354fd4d50146104df57600080fd5b80631fe56f7d116102c05780631fe56f7d146103da5780631ffbb064146103ed57806323b872dd14610400578063313ce5671461041357806339509351146104285780633a46b1a81461043b5780633d1ddc5b1461044e57600080fd5b806306fdde0314610313578063095ea7b314610331578063125c4a3314610354578063134e18f414610369578063158b1a571461038857806318160ddd146103bf5780631a7af379146103c7575b600080fd5b61031b6107ee565b6040516103289190613f1e565b60405180910390f35b61034461033f366004613f4d565b610880565b6040519015158152602001610328565b610367610362366004613f4d565b61089a565b005b60065461010090046001600160a01b03165b6040516103289190613f77565b6103b1610396366004613f8b565b6001600160a01b031660009081526005602052604090205490565b604051908152602001610328565b6103b16109c9565b6103676103d5366004613ff1565b6109de565b6103676103e8366004613f4d565b610a49565b6103446103fb366004613f8b565b610b60565b61034461040e36600461405c565b610b6c565b60035460405160ff9091168152602001610328565b610344610436366004613f4d565b610de3565b6103b1610449366004613f4d565b610e0d565b61036761045c366004613f8b565b610e92565b610367610fbd565b610367610477366004613f4d565b61102b565b61036761048a366004614098565b61123b565b61036761049d366004613ff1565b6112c7565b6103676104b0366004613ff1565b611322565b60408051808201909152600e81526d06d6f64653d74696d657374616d760941b602082015261031b565b604080518082019091526005815264342e312e3360d81b602082015261031b565b61037b61050e366004613f8b565b61137d565b610367610521366004613f8b565b6113ac565b6103446113bb565b6007546001600160a01b031661037b565b61036761054d366004613ff1565b6113ca565b610565610560366004613f8b565b611425565b60405163ffffffff9091168152602001610328565b6103b1610588366004613f8b565b611430565b61036761145b565b6103b16105a3366004613f8b565b61146f565b61036761147a565b6105b86114de565b6040516103289796959493929190614131565b6103676105d9366004613f8b565b611587565b6103676105ec366004613ff1565b6115f7565b61037b611653565b6103b16106073660046141ca565b611681565b60405165ffffffffffff42168152602001610328565b6103446106303660046141e3565b6116ef565b61031b611a61565b61036761064b366004613f8b565b611a70565b6103b161065e366004613f8b565b611ae0565b610367610671366004613f4d565b611b21565b61034461068436600461405c565b611cb8565b610344610697366004613f4d565b611e65565b6103446106aa366004613f4d565b611e81565b60035461010090046001600160a01b031661037b565b6103676106d3366004614226565b612093565b6103676106e63660046142a8565b6121b7565b6103676106f9366004614226565b61226b565b61036761070c36600461430e565b612336565b61036761071f366004613f8b565b6123b0565b6103b1610732366004614345565b61240a565b610344610745366004613f8b565b6001600160a01b031660009081526004602052604090205460ff1690565b610776610771366004614378565b612446565b60408051825165ffffffffffff1681526020928301516001600160d01b03169281019290925201610328565b6103676107b0366004613f8b565b612464565b6103676107c3366004613f8b565b6124a2565b6103676107d636600461444f565b6125c6565b6103676107e9366004613ff1565b612931565b6060600180546107fd906144f3565b80601f0160208091040260200160405190810160405280929190818152602001828054610829906144f3565b80156108765780601f1061084b57610100808354040283529160200191610876565b820191906000526020600020905b81548152906001019060200180831161085957829003601f168201915b5050505050905090565b60003361088e81858561298c565b60019150505b92915050565b6108a333610b60565b6108c85760405162461bcd60e51b81526004016108bf9061452d565b60405180910390fd5b60006108d383611430565b6001600160a01b0384166000908152600560205260409020549091506108fa908390614591565b8110156109495760405162461bcd60e51b815260206004820181905260248201527f416d6f756e74206578636565647320617661696c61626c652062616c616e636560448201526064016108bf565b6001600160a01b03831660009081526005602052604090205461096d908390614591565b6001600160a01b038416600081815260056020526040908190209290925590517fa065e63c631c86f1b9f66a4a2f63f2093bf1c2168d23290259dbd969e0222a45906109bc9085815260200190565b60405180910390a2505050565b6000806109d461299e565b6002015492915050565b60005b83811015610a4257610a3a8585838181106109fe576109fe6145a4565b9050602002016020810190610a139190613f8b565b848484818110610a2557610a256145a4565b905060200201602081019061070c91906145ba565b6001016109e1565b5050505050565b610a5233610b60565b610a6e5760405162461bcd60e51b81526004016108bf9061452d565b6001600160a01b038216600090815260056020526040902054811115610af35760405162461bcd60e51b815260206004820152603460248201527f416d6f756e742073686f756c64206265206c657373207468616e206f7220657160448201527375616c20746f2066726f7a656e20746f6b656e7360601b60648201526084016108bf565b6001600160a01b038216600090815260056020526040902054610b179082906145d7565b6001600160a01b03831660008181526005602052604090819020929092559051600080516020614aa183398151915290610b549084815260200190565b60405180910390a25050565b600061089481836129c2565b6000610b76612a45565b6001600160a01b03831660009081526004602052604090205460ff16158015610bb857506001600160a01b03841660009081526004602052604090205460ff16155b610bd45760405162461bcd60e51b81526004016108bf906145ea565b6001600160a01b038416600090815260056020526040902054610bf685611430565b610c0091906145d7565b821115610c1f5760405162461bcd60e51b81526004016108bf90614614565b60065460405163b9209e3360e01b81526101009091046001600160a01b03169063b9209e3390610c53908690600401613f77565b602060405180830381865afa158015610c70573d6000803e3d6000fd5b505050506040513d601f19601f82011682018060405250810190610c949190614642565b8015610d1057506007546040516372331c7360e11b81526001600160a01b039091169063e46638e690610ccf9087908790879060040161465f565b602060405180830381865afa158015610cec573d6000803e3d6000fd5b505050506040513d601f19601f82011682018060405250810190610d109190614642565b15610d9c5733610d21858285612a6b565b610d2c858585612abe565b6007546040516322ebca6d60e21b81526001600160a01b0390911690638baf29b490610d609088908890889060040161465f565b600060405180830381600087803b158015610d7a57600080fd5b505af1158015610d8e573d6000803e3d6000fd5b505050506001915050610ddc565b60405162461bcd60e51b81526020600482015260156024820152745472616e73666572206e6f7420706f737369626c6560581b60448201526064016108bf565b9392505050565b6000610e04338484610df5338861240a565b610dff9190614591565b61298c565b50600192915050565b600080610e18612b1d565b90504265ffffffffffff81168410610e5457604051637669fc0f60e11b81526004810185905265ffffffffffff821660248201526044016108bf565b610e80610e6085612b41565b6001600160a01b0387166000908152600185016020526040902090612b78565b6001600160d01b031695945050505050565b610e9a612c2e565b604051602001610eb590602080825260009082015260400190565b6040516020818303038152906040528051906020012081604051602001610edc9190613f77565b6040516020818303038152906040528051906020012003610f0f5760405162461bcd60e51b81526004016108bf90614683565b60038054610100600160a81b0319166101006001600160a01b03841690810291909117909155610f3d611a61565b604051610f4a91906146ba565b6040518091039020610f5a6107ee565b604051610f6791906146ba565b6040518091039020600080516020614ac1833981519152610f8a60035460ff1690565b6040805180820182526005815264342e312e3360d81b60208201529051610fb29291906146d6565b60405180910390a450565b610fc633610b60565b610fe25760405162461bcd60e51b81526004016108bf9061452d565b610fea612c60565b610ff2612c85565b7f5db9ee0a495bf2e6ff9c91a7834c1ba4fdd244a5e8aa4e537bd38aeae4b073aa336040516110219190613f77565b60405180910390a1565b61103433610b60565b6110505760405162461bcd60e51b81526004016108bf9061452d565b60065460405163b9209e3360e01b81526101009091046001600160a01b03169063b9209e3390611084908590600401613f77565b602060405180830381865afa1580156110a1573d6000803e3d6000fd5b505050506040513d601f19601f820116820180604052508101906110c59190614642565b61110d5760405162461bcd60e51b815260206004820152601960248201527824b232b73a34ba3c9034b9903737ba103b32b934b334b2b21760391b60448201526064016108bf565b6007546040516372331c7360e11b81526001600160a01b039091169063e46638e690611142906000908690869060040161465f565b602060405180830381865afa15801561115f573d6000803e3d6000fd5b505050506040513d601f19601f820116820180604052508101906111839190614642565b6111c95760405162461bcd60e51b815260206004820152601760248201527610dbdb5c1b1a585b98d9481b9bdd08199bdb1b1bddd959604a1b60448201526064016108bf565b6111d38282612cdc565b600754604051635f8dead360e01b81526001600160a01b0390911690635f8dead39061120590859085906004016146f2565b600060405180830381600087803b15801561121f57600080fd5b505af1158015611233573d6000803e3d6000fd5b505050505050565b60005b858110156112be576112b587878381811061125b5761125b6145a4565b90506020020160208101906112709190613f8b565b868684818110611282576112826145a4565b90506020020160208101906112979190613f8b565b8585858181106112a9576112a96145a4565b90506020020135611cb8565b5060010161123e565b50505050505050565b60005b83811015610a425761131a8585838181106112e7576112e76145a4565b90506020020160208101906112fc9190613f8b565b84848481811061130e5761130e6145a4565b90506020020135610a49565b6001016112ca565b60005b83811015610a4257611375858583818110611342576113426145a4565b90506020020160208101906113579190613f8b565b848484818110611369576113696145a4565b90506020020135611b21565b600101611325565b600080611388612b1d565b6001600160a01b039384166000908152602091909152604090205490921692915050565b336113b78183612d12565b5050565b60006113c5612d99565b905090565b60005b83811015610a425761141d8585838181106113ea576113ea6145a4565b90506020020160208101906113ff9190613f8b565b848484818110611411576114116145a4565b9050602002013561102b565b6001016113cd565b600061089482612dae565b60008061143b61299e565b6001600160a01b0390931660009081526020939093525050604090205490565b611463612c2e565b61146d6000612de0565b565b600061089482612e51565b61148333610b60565b61149f5760405162461bcd60e51b81526004016108bf9061452d565b6114a7612a45565b6114af612e7a565b7f62e78cea01bee320cd4e420270b5ea74000d11b0c9f74754ebdbfc544b05a258336040516110219190613f77565b60006060806000806000606060006114f4612ec1565b805490915015801561150857506001810154155b61154c5760405162461bcd60e51b81526020600482015260156024820152741152540dcc4c8e88155b9a5b9a5d1a585b1a5e9959605a1b60448201526064016108bf565b611554612ee5565b61155c612f86565b60408051600080825260208201909252600f60f81b9c939b5091995046985030975095509350915050565b61158f612c2e565b6001600160a01b0381166115b55760405162461bcd60e51b81526004016108bf9061470b565b6115c0600082612fa3565b6040516001600160a01b038216907ff68e73cec97f2d70aa641fb26e87a4383686e2efacb648f2165aeb02ac562ec590600090a250565b60005b83811015610a425761164a858583818110611617576116176145a4565b905060200201602081019061162c9190613f8b565b84848481811061163e5761163e6145a4565b90506020020135611e81565b506001016115fa565b7f9016d09d72d40fdae2fd8ceac6b6234c7706214fd39c1cd1e609a0528c199300546001600160a01b031690565b60008061168c612b1d565b90504265ffffffffffff811684106116c857604051637669fc0f60e11b81526004810185905265ffffffffffff821660248201526044016108bf565b6116de6116d485612b41565b6002840190612b78565b6001600160d01b0316949350505050565b60006116fa33610b60565b6117165760405162461bcd60e51b81526004016108bf9061452d565b61171f84611430565b6000036117655760405162461bcd60e51b81526020600482015260146024820152733737903a37b5b2b739903a37903932b1b7bb32b960611b60448201526064016108bf565b604051829060009061177b908690602001613f77565b60408051808303601f1901815290829052805160209091012063d202158d60e01b8252600482018190526001602483015291506001600160a01b0383169063d202158d90604401602060405180830381865afa1580156117df573d6000803e3d6000fd5b505050506040513d601f19601f820116820180604052508101906118039190614642565b15611a2157600061181387611430565b6001600160a01b0380891660009081526005602052604090819020546006549151637e42683b60e01b8152939450926101009091049091169063454a03e090899087908490637e42683b9061186c908f90600401613f77565b602060405180830381865afa158015611889573d6000803e3d6000fd5b505050506040513d601f19601f820116820180604052508101906118ad9190614742565b6040516001600160e01b031960e086901b1681526001600160a01b03938416600482015292909116602483015261ffff166044820152606401600060405180830381600087803b15801561190057600080fd5b505af1158015611914573d6000803e3d6000fd5b50505050611923888884611cb8565b50801561193457611934878261089a565b6001600160a01b03881660009081526004602052604090205460ff16151560010361196457611964876001612336565b60065460405163a8d29d1d60e01b81526101009091046001600160a01b03169063a8d29d1d90611998908b90600401613f77565b600060405180830381600087803b1580156119b257600080fd5b505af11580156119c6573d6000803e3d6000fd5b50505050856001600160a01b0316876001600160a01b0316896001600160a01b03167ff0c9129a94f30f1caaceb63e44b9811d0a3edf1d6c23757f346093af5553fed060405160405180910390a46001945050505050610ddc565b60405162461bcd60e51b81526020600482015260156024820152745265636f76657279206e6f7420706f737369626c6560581b60448201526064016108bf565b6060600280546107fd906144f3565b611a78612c2e565b6001600160a01b038116611a9e5760405162461bcd60e51b81526004016108bf9061470b565b611aa960008261301f565b6040516001600160a01b038216907fed9c8ad8d5a0a66898ea49d2956929c93ae2e8bd50281b2ed897c5d1a6737e0b90600090a250565b600080611aeb612b1d565b6001600160a01b03841660009081526001820160205260409020909150611b11906130a1565b6001600160d01b03169392505050565b611b2a33610b60565b611b465760405162461bcd60e51b81526004016108bf9061452d565b80611b5083611430565b1015611b9e5760405162461bcd60e51b815260206004820152601d60248201527f63616e6e6f74206275726e206d6f7265207468616e2062616c616e636500000060448201526064016108bf565b6001600160a01b038216600090815260056020526040812054611bc084611430565b611bca91906145d7565b905080821115611c4e576000611be082846145d7565b6001600160a01b038516600090815260056020526040902054909150611c079082906145d7565b6001600160a01b03851660008181526005602052604090819020929092559051600080516020614aa183398151915290611c449084815260200190565b60405180910390a2505b611c5883836130da565b60075460405163469753b960e11b81526001600160a01b0390911690638d2ea77290611c8a90869086906004016146f2565b600060405180830381600087803b158015611ca457600080fd5b505af11580156112be573d6000803e3d6000fd5b6000611cc333610b60565b611cdf5760405162461bcd60e51b81526004016108bf9061452d565b81611ce985611430565b1015611d305760405162461bcd60e51b815260206004820152601660248201527573656e6465722062616c616e636520746f6f206c6f7760501b60448201526064016108bf565b6001600160a01b038416600090815260056020526040812054611d5286611430565b611d5c91906145d7565b905080831115611de0576000611d7282856145d7565b6001600160a01b038716600090815260056020526040902054909150611d999082906145d7565b6001600160a01b03871660008181526005602052604090819020929092559051600080516020614aa183398151915290611dd69084815260200190565b60405180910390a2505b60065460405163b9209e3360e01b81526101009091046001600160a01b03169063b9209e3390611e14908790600401613f77565b602060405180830381865afa158015611e31573d6000803e3d6000fd5b505050506040513d601f19601f82011682018060405250810190611e559190614642565b15610d9c57610d2c858585612abe565b6000610e04338484611e77338861240a565b610dff91906145d7565b6000611e8b612a45565b6001600160a01b03831660009081526004602052604090205460ff16158015611ec457503360009081526004602052604090205460ff16155b611ee05760405162461bcd60e51b81526004016108bf906145ea565b3360008181526005602052604090205490611efa90611430565b611f0491906145d7565b821115611f235760405162461bcd60e51b81526004016108bf90614614565b60065460405163b9209e3360e01b81526101009091046001600160a01b03169063b9209e3390611f57908690600401613f77565b602060405180830381865afa158015611f74573d6000803e3d6000fd5b505050506040513d601f19601f82011682018060405250810190611f989190614642565b801561201457506007546040516372331c7360e11b81526001600160a01b039091169063e46638e690611fd39033908790879060040161465f565b602060405180830381865afa158015611ff0573d6000803e3d6000fd5b505050506040513d601f19601f820116820180604052508101906120149190614642565b15610d9c57612024338484612abe565b6007546040516322ebca6d60e21b81526001600160a01b0390911690638baf29b4906120589033908790879060040161465f565b600060405180830381600087803b15801561207257600080fd5b505af1158015612086573d6000803e3d6000fd5b5050505060019050610894565b61209b612c2e565b6040516020016120b690602080825260009082015260400190565b6040516020818303038152906040528051906020012082826040516020016120df929190614766565b60405160208183030381529060405280519060200120036121125760405162461bcd60e51b81526004016108bf90614683565b600261211f8284836147f2565b506003546040516101009091046001600160a01b03169061214390849084906148ab565b60405180910390206121536107ee565b60405161216091906146ba565b6040518091039020600080516020614ac183398151915261218360035460ff1690565b6040805180820182526005815264342e312e3360d81b602082015290516121ab9291906146d6565b60405180910390a45050565b834211156121db57604051632341d78760e11b8152600481018590526024016108bf565b604080517fe48329057bfd03d55e49b547132e39cffd9c1820ad7b9d4c5307691425d15adf60208201526001600160a01b0388169181019190915260608101869052608081018590526000906122559061224d9060a00160405160208183030381529060405280519060200120613110565b85858561313d565b9050612261818761316b565b6112be8188612d12565b612273612c2e565b60405160200161228e90602080825260009082015260400190565b6040516020818303038152906040528051906020012082826040516020016122b7929190614766565b60405160208183030381529060405280519060200120036122ea5760405162461bcd60e51b81526004016108bf90614683565b60016122f78284836147f2565b5060035461010090046001600160a01b0316612311611a61565b60405161231e91906146ba565b604051809103902083836040516121609291906148ab565b61233f33610b60565b61235b5760405162461bcd60e51b81526004016108bf9061452d565b6001600160a01b038216600081815260046020526040808220805460ff19168515159081179091559051339391927f7fa523c84ab8d7fc5b72f08b9e46dbbf10c39e119a075b3e317002d14bc9f43691a45050565b6123b8612c2e565b60068054610100600160a81b0319166101006001600160a01b038416908102919091179091556040517fd2be862d755bca7e0d39772b2cab3a5578da9c285f69199f4c063c2294a7f36c90600090a250565b60008061241561299e565b6001600160a01b03948516600090815260019190910160209081526040808320959096168252939093525050205490565b6040805180820190915260008082526020820152610ddc83836131cf565b61246c612c2e565b6001600160a01b038116612496576000604051631e4fbdf760e01b81526004016108bf9190613f77565b61249f81612de0565b50565b6124aa612c2e565b6007546001600160a01b03161561251e5760075460405163040db3b560e41b81526001600160a01b03909116906340db3b50906124eb903090600401613f77565b600060405180830381600087803b15801561250557600080fd5b505af1158015612519573d6000803e3d6000fd5b505050505b600780546001600160a01b0319166001600160a01b038316908117909155604051631ffad50160e11b8152633ff5aa029061255d903090600401613f77565b600060405180830381600087803b15801561257757600080fd5b505af115801561258b573d6000803e3d6000fd5b50506040516001600160a01b03841692507f7f3a888862559648ec01d97deb7b5012bff86dc91e654a1de397170db40e35b69150600090a250565b7ff0c57e16840df040f15088dc2f81fe391c3923bec73e23a9662efc9c229c6a008054600160401b810460ff1615906001600160401b031660008115801561260b5750825b90506000826001600160401b031660011480156126275750303b155b905081158015612635575080155b156126535760405163f92ee8a960e01b815260040160405180910390fd5b845467ffffffffffffffff19166001178555831561267d57845460ff60401b1916600160401b1785555b6001600160a01b038b161580159061269d57506001600160a01b038a1615155b6126b95760405162461bcd60e51b81526004016108bf9061470b565b6040516020016126d490602080825260009082015260400190565b60405160208183030381529060405280519060200120896040516020016126fb9190613f1e565b6040516020818303038152906040528051906020012014158015612775575060405160200161273590602080825260009082015260400190565b604051602081830303815290604052805190602001208860405160200161275c9190613f1e565b6040516020818303038152906040528051906020012014155b6127915760405162461bcd60e51b81526004016108bf90614683565b60128760ff1611156127e15760405162461bcd60e51b81526020600482015260196024820152780c8cac6d2dac2d8e640c4cae8eecacadc406040c2dcc840627603b1b60448201526064016108bf565b6127eb898961321c565b6127f361322e565b6127fc33613236565b60016128088a826148bb565b50600261281589826148bb565b50600380546001600160a01b038816610100026001600160a81b031990911660ff8a16171790556006805460ff1916905561284f8b6123b0565b6128588a6124a2565b6003546040516101009091046001600160a01b03169061287a90600290614974565b604051809103902060016040516128919190614974565b6040518091039020600080516020614ac1833981519152601260405180604001604052806005815260200164342e312e3360d81b8152506040516128d69291906146d6565b60405180910390a4831561292457845460ff60401b19168555604051600181527fc7f505b2f371ae2175ee4913f4499e1f2633a7b5936321eed1cdaeb6115181d29060200160405180910390a15b5050505050505050505050565b60005b83811015610a4257612984858583818110612951576129516145a4565b90506020020160208101906129669190613f8b565b848484818110612978576129786145a4565b9050602002013561089a565b600101612934565b6129998383836001613247565b505050565b7f52c63247e1f47db19d5ce0460030c497f067ca4cebf71ba98eeadabe20bace0090565b60006001600160a01b038216612a255760405162461bcd60e51b815260206004820152602260248201527f526f6c65733a206163636f756e7420697320746865207a65726f206164647265604482015261737360f01b60648201526084016108bf565b506001600160a01b03166000908152602091909152604090205460ff1690565b612a4d6113bb565b1561146d5760405163d93c066560e01b815260040160405180910390fd5b6000612a77848461240a565b90506000198114612ab85781811015612aa957828183604051637dc7a0d960e11b81526004016108bf939291906149ea565b612ab884848484036000613247565b50505050565b6001600160a01b038316612ae8576000604051634b637e8f60e11b81526004016108bf9190613f77565b6001600160a01b038216612b1257600060405163ec442f0560e01b81526004016108bf9190613f77565b61299983838361332b565b7fe8b26c30fad74198956032a3533d903385d56dd795af560196f9c78d4af40d0090565b600065ffffffffffff821115612b74576040516306dfcc6560e41b815260306004820152602481018390526044016108bf565b5090565b815460009081816005811115612bd7576000612b9384613336565b612b9d90856145d7565b60008881526020902090915081015465ffffffffffff9081169087161015612bc757809150612bd5565b612bd2816001614591565b92505b505b6000612be58787858561341e565b90508015612c2057612c0a87612bfc6001846145d7565b600091825260209091200190565b54600160301b90046001600160d01b0316612c23565b60005b979650505050505050565b33612c37611653565b6001600160a01b03161461146d573360405163118cdaa760e01b81526004016108bf9190613f77565b612c686113bb565b61146d57604051638dfc202b60e01b815260040160405180910390fd5b612c8d612c60565b6000612c97613480565b805460ff1916815590507f5db9ee0a495bf2e6ff9c91a7834c1ba4fdd244a5e8aa4e537bd38aeae4b073aa335b604051612cd19190613f77565b60405180910390a150565b6001600160a01b038216612d0657600060405163ec442f0560e01b81526004016108bf9190613f77565b6113b76000838361332b565b6000612d1c612b1d565b90506000612d298461137d565b6001600160a01b0385811660008181526020869052604080822080546001600160a01b031916898616908117909155905194955093928516927f3134e8a2e6d97e929a7e54011ea5485d7d196dd5f0ba4d4ef95803e8e3fc257f9190a4612ab88184612d94876134a4565b6134af565b600080612da4613480565b5460ff1692915050565b600080612db9612b1d565b6001600160a01b0384166000908152600182016020526040902054909150610ddc9061362c565b7f9016d09d72d40fdae2fd8ceac6b6234c7706214fd39c1cd1e609a0528c19930080546001600160a01b031981166001600160a01b03848116918217845560405192169182907f8be0079c531659141344cd1fd0a4f28419497f9722a3daafe3b4186f6b6457e090600090a3505050565b6000807f5ab42ced628888259c08ac98db1eb0cf702fc1501344311d8b100cd1bfe4bb0061143b565b612e82612a45565b6000612e8c613480565b805460ff1916600117815590507f62e78cea01bee320cd4e420270b5ea74000d11b0c9f74754ebdbfc544b05a258612cc43390565b7fa16a46d94261c7517cc8ff89f61c0ce93598e3c849801011dee649a6a557d10090565b60606000612ef1612ec1565b9050806002018054612f02906144f3565b80601f0160208091040260200160405190810160405280929190818152602001828054612f2e906144f3565b8015612f7b5780601f10612f5057610100808354040283529160200191612f7b565b820191906000526020600020905b815481529060010190602001808311612f5e57829003601f168201915b505050505091505090565b60606000612f92612ec1565b9050806003018054612f02906144f3565b612fad82826129c2565b15612ffa5760405162461bcd60e51b815260206004820152601f60248201527f526f6c65733a206163636f756e7420616c72656164792068617320726f6c650060448201526064016108bf565b6001600160a01b0316600090815260209190915260409020805460ff19166001179055565b61302982826129c2565b61307f5760405162461bcd60e51b815260206004820152602160248201527f526f6c65733a206163636f756e7420646f6573206e6f74206861766520726f6c6044820152606560f81b60648201526084016108bf565b6001600160a01b0316600090815260209190915260409020805460ff19169055565b805460009080156130d1576130bb83612bfc6001846145d7565b54600160301b90046001600160d01b0316610ddc565b60009392505050565b6001600160a01b038216613104576000604051634b637e8f60e11b81526004016108bf9190613f77565b6113b78260008361332b565b600061089461311d61365d565b8360405161190160f01b8152600281019290925260228201526042902090565b60008060008061314f88888888613667565b92509250925061315f828261372c565b50909695505050505050565b6001600160a01b03821660009081527f5ab42ced628888259c08ac98db1eb0cf702fc1501344311d8b100cd1bfe4bb00602052604090208054600181019091558181146129995782816040516301d4b62360e61b81526004016108bf9291906146f2565b604080518082019091526000808252602082015260006131ed612b1d565b6001600160a01b0385166000908152600182016020526040902090915061321490846137e5565b949350505050565b613224613855565b6113b7828261389e565b61146d613855565b61323e613855565b61249f816138cf565b600061325161299e565b90506001600160a01b03851661327d57600060405163e602df0560e01b81526004016108bf9190613f77565b6001600160a01b0384166132a7576000604051634a1406b160e11b81526004016108bf9190613f77565b6001600160a01b03808616600090815260018301602090815260408083209388168352929052208390558115610a4257836001600160a01b0316856001600160a01b03167f8c5be1e5ebec7d5bd14f71427d1e84f3dd0314c0f7b2291e5b200ac8c7c3b9258560405161331c91815260200190565b60405180910390a35050505050565b6129998383836138d7565b60008160000361334857506000919050565b600060016133558461393d565b901c6001901b9050600181848161336e5761336e614a0b565b048201901c9050600181848161338657613386614a0b565b048201901c9050600181848161339e5761339e614a0b565b048201901c905060018184816133b6576133b6614a0b565b048201901c905060018184816133ce576133ce614a0b565b048201901c905060018184816133e6576133e6614a0b565b048201901c905060018184816133fe576133fe614a0b565b048201901c9050610ddc8182858161341857613418614a0b565b046139d1565b60005b8183101561347857600061343584846139e7565b60008781526020902090915065ffffffffffff86169082015465ffffffffffff16111561346457809250613472565b61346f816001614591565b93505b50613421565b509392505050565b7fcd5ed15c6e187e77e9aee88184c21f4f2182ab5827cb3b7e07fbedcd63f0330090565b600061089482611430565b60006134b9612b1d565b9050826001600160a01b0316846001600160a01b0316141580156134dd5750600082115b15612ab8576001600160a01b03841615613587576001600160a01b03841660009081526001820160205260408120819061352290613a0261351d87613a0e565b613a42565b6001600160d01b031691506001600160d01b03169150856001600160a01b03167fdec2bacdd2f05b59de34da9b523dff8be42e5e38e818c82fdb0bae774387a724838360405161357c929190918252602082015260400190565b60405180910390a250505b6001600160a01b03831615612ab8576001600160a01b0383166000908152600182016020526040812081906135c290613a7461351d87613a0e565b6001600160d01b031691506001600160d01b03169150846001600160a01b03167fdec2bacdd2f05b59de34da9b523dff8be42e5e38e818c82fdb0bae774387a724838360405161361c929190918252602082015260400190565b60405180910390a2505050505050565b600063ffffffff821115612b74576040516306dfcc6560e41b815260206004820152602481018390526044016108bf565b60006113c5613a80565b600080806fa2a8918ca85bafe22016d0b997e4df60600160ff1b038411156136985750600091506003905082613722565b604080516000808252602082018084528a905260ff891692820192909252606081018790526080810186905260019060a0016020604051602081039080840390855afa1580156136ec573d6000803e3d6000fd5b5050604051601f1901519150506001600160a01b03811661371857506000925060019150829050613722565b9250600091508190505b9450945094915050565b600082600381111561374057613740614a21565b03613749575050565b600182600381111561375d5761375d614a21565b0361377b5760405163f645eedf60e01b815260040160405180910390fd5b600282600381111561378f5761378f614a21565b036137b05760405163fce698f760e01b8152600481018290526024016108bf565b60038260038111156137c4576137c4614a21565b036113b7576040516335e2f38360e21b8152600481018290526024016108bf565b6040805180820190915260008082526020820152826000018263ffffffff1681548110613814576138146145a4565b60009182526020918290206040805180820190915291015465ffffffffffff81168252600160301b90046001600160d01b0316918101919091529392505050565b7ff0c57e16840df040f15088dc2f81fe391c3923bec73e23a9662efc9c229c6a0054600160401b900460ff1661146d57604051631afcd79f60e31b815260040160405180910390fd5b6138a6613855565b60006138b061299e565b9050600381016138c084826148bb565b5060048101612ab883826148bb565b61246c613855565b6138e2838383613af4565b6001600160a01b0383166139325760006138fa6109c9565b90506001600160d01b038082111561392f57604051630e58ae9360e11b815260048101839052602481018290526044016108bf565b50505b612999838383613b07565b600080608083901c1561395257608092831c92015b604083901c1561396457604092831c92015b602083901c1561397657602092831c92015b601083901c1561398857601092831c92015b600883901c1561399a57600892831c92015b600483901c156139ac57600492831c92015b600283901c156139be57600292831c92015b600183901c156108945760010192915050565b60008183106139e05781610ddc565b5090919050565b60006139f66002848418614a37565b610ddc90848416614591565b6000610ddc8284614a59565b60006001600160d01b03821115612b74576040516306dfcc6560e41b815260d06004820152602481018390526044016108bf565b600080613a6742613a5f613a55886130a1565b868863ffffffff16565b879190613b76565b915091505b935093915050565b6000610ddc8284614a80565b60007f8b73c3c69bb8fe3d512ecc4cf759cc79239f7b179b0ffacaa9a75d522b39400f613aab613b84565b613ab3613beb565b60408051602081019490945283019190915260608201524660808201523060a082015260c00160405160208183030381529060405280519060200120905090565b613afc612a45565b612999838383613c2c565b6000613b11612b1d565b90506001600160a01b038416613b3757613b3481600201613a7461351d85613a0e565b50505b6001600160a01b038316613b5b57613b5881600201613a0261351d85613a0e565b50505b612ab8613b678561137d565b613b708561137d565b846134af565b600080613a67858585613d54565b600080613b8f612ec1565b90506000613b9b612ee5565b805190915015613bb357805160209091012092915050565b81548015613bc2579392505050565b7fc5d2460186f7233c927e7db2dcc703c0e500b653ca82273b7bfad8045d85a470935050505090565b600080613bf6612ec1565b90506000613c02612f86565b805190915015613c1a57805160209091012092915050565b60018201548015613bc2579392505050565b6000613c3661299e565b90506001600160a01b038416613c655781816002016000828254613c5a9190614591565b90915550613cc49050565b6001600160a01b03841660009081526020829052604090205482811015613ca55784818460405163391434e360e21b81526004016108bf939291906149ea565b6001600160a01b03851660009081526020839052604090209083900390555b6001600160a01b038316613ce2576002810180548390039055613d01565b6001600160a01b03831660009081526020829052604090208054830190555b826001600160a01b0316846001600160a01b03167fddf252ad1be2c89b69c2b068fc378daa952ba7f163c4a11628f55a4df523b3ef84604051613d4691815260200190565b60405180910390a350505050565b825460009081908015613e73576000613d7287612bfc6001856145d7565b60408051808201909152905465ffffffffffff808216808452600160301b9092046001600160d01b031660208401529192509087161015613dc657604051632520601d60e01b815260040160405180910390fd5b805165ffffffffffff808816911603613e125784613de988612bfc6001866145d7565b80546001600160d01b0392909216600160301b0265ffffffffffff909216919091179055613e63565b6040805180820190915265ffffffffffff80881682526001600160d01b0380881660208085019182528b54600181018d5560008d81529190912094519151909216600160301b029216919091179101555b602001519250839150613a6c9050565b50506040805180820190915265ffffffffffff80851682526001600160d01b0380851660208085019182528854600181018a5560008a815291822095519251909316600160301b029190931617920191909155905081613a6c565b60005b83811015613ee9578181015183820152602001613ed1565b50506000910152565b60008151808452613f0a816020860160208601613ece565b601f01601f19169290920160200192915050565b602081526000610ddc6020830184613ef2565b80356001600160a01b0381168114613f4857600080fd5b919050565b60008060408385031215613f6057600080fd5b613f6983613f31565b946020939093013593505050565b6001600160a01b0391909116815260200190565b600060208284031215613f9d57600080fd5b610ddc82613f31565b60008083601f840112613fb857600080fd5b5081356001600160401b03811115613fcf57600080fd5b6020830191508360208260051b8501011115613fea57600080fd5b9250929050565b6000806000806040858703121561400757600080fd5b84356001600160401b038082111561401e57600080fd5b61402a88838901613fa6565b9096509450602087013591508082111561404357600080fd5b5061405087828801613fa6565b95989497509550505050565b60008060006060848603121561407157600080fd5b61407a84613f31565b925061408860208501613f31565b9150604084013590509250925092565b600080600080600080606087890312156140b157600080fd5b86356001600160401b03808211156140c857600080fd5b6140d48a838b01613fa6565b909850965060208901359150808211156140ed57600080fd5b6140f98a838b01613fa6565b9096509450604089013591508082111561411257600080fd5b5061411f89828a01613fa6565b979a9699509497509295939492505050565b60ff60f81b881681526000602060e0602084015261415260e084018a613ef2565b8381036040850152614164818a613ef2565b606085018990526001600160a01b038816608086015260a0850187905284810360c08601528551808252602080880193509091019060005b818110156141b85783518352928401929184019160010161419c565b50909c9b505050505050505050505050565b6000602082840312156141dc57600080fd5b5035919050565b6000806000606084860312156141f857600080fd5b61420184613f31565b925061420f60208501613f31565b915061421d60408501613f31565b90509250925092565b6000806020838503121561423957600080fd5b82356001600160401b038082111561425057600080fd5b818501915085601f83011261426457600080fd5b81358181111561427357600080fd5b86602082850101111561428557600080fd5b60209290920196919550909350505050565b803560ff81168114613f4857600080fd5b60008060008060008060c087890312156142c157600080fd5b6142ca87613f31565b955060208701359450604087013593506142e660608801614297565b92506080870135915060a087013590509295509295509295565b801515811461249f57600080fd5b6000806040838503121561432157600080fd5b61432a83613f31565b9150602083013561433a81614300565b809150509250929050565b6000806040838503121561435857600080fd5b61436183613f31565b915061436f60208401613f31565b90509250929050565b6000806040838503121561438b57600080fd5b61439483613f31565b9150602083013563ffffffff8116811461433a57600080fd5b634e487b7160e01b600052604160045260246000fd5b600082601f8301126143d457600080fd5b81356001600160401b03808211156143ee576143ee6143ad565b604051601f8301601f19908116603f01168101908282118183101715614416576144166143ad565b8160405283815286602085880101111561442f57600080fd5b836020870160208301376000602085830101528094505050505092915050565b60008060008060008060c0878903121561446857600080fd5b61447187613f31565b955061447f60208801613f31565b945060408701356001600160401b038082111561449b57600080fd5b6144a78a838b016143c3565b955060608901359150808211156144bd57600080fd5b506144ca89828a016143c3565b9350506144d960808801614297565b91506144e760a08801613f31565b90509295509295509295565b600181811c9082168061450757607f821691505b60208210810361452757634e487b7160e01b600052602260045260246000fd5b50919050565b6020808252602e908201527f4167656e74526f6c653a2063616c6c657220646f6573206e6f7420686176652060408201526d746865204167656e7420726f6c6560901b606082015260800190565b634e487b7160e01b600052601160045260246000fd5b808201808211156108945761089461457b565b634e487b7160e01b600052603260045260246000fd5b6000602082840312156145cc57600080fd5b8135610ddc81614300565b818103818111156108945761089461457b565b60208082526010908201526f3bb0b63632ba1034b990333937bd32b760811b604082015260600190565b602080825260149082015273496e73756666696369656e742042616c616e636560601b604082015260600190565b60006020828403121561465457600080fd5b8151610ddc81614300565b6001600160a01b039384168152919092166020820152604081019190915260600190565b6020808252601f908201527f696e76616c696420617267756d656e74202d20656d70747920737472696e6700604082015260600190565b600082516146cc818460208701613ece565b9190910192915050565b60ff831681526040602082015260006132146040830184613ef2565b6001600160a01b03929092168252602082015260400190565b6020808252601f908201527f696e76616c696420617267756d656e74202d207a65726f206164647265737300604082015260600190565b60006020828403121561475457600080fd5b815161ffff81168114610ddc57600080fd5b60208152816020820152818360408301376000818301604090810191909152601f909201601f19160101919050565b601f821115612999576000816000526020600020601f850160051c810160208610156147be5750805b601f850160051c820191505b81811015611233578281556001016147ca565b600019600383901b1c191660019190911b1790565b6001600160401b03831115614809576148096143ad565b61481d8361481783546144f3565b83614795565b6000601f84116001811461484b57600085156148395750838201355b61484386826147dd565b845550610a42565b600083815260209020601f19861690835b8281101561487c578685013582556020948501946001909201910161485c565b50868210156148995760001960f88860031b161c19848701351681555b505060018560011b0183555050505050565b8183823760009101908152919050565b81516001600160401b038111156148d4576148d46143ad565b6148e8816148e284546144f3565b84614795565b602080601f83116001811461491757600084156149055750858301515b61490f85826147dd565b865550611233565b600085815260208120601f198616915b8281101561494657888601518255948401946001909101908401614927565b50858210156149645787850151600019600388901b60f8161c191681555b5050505050600190811b01905550565b6000808354614982816144f3565b6001828116801561499a57600181146149af576149de565b60ff19841687528215158302870194506149de565b8760005260208060002060005b858110156149d55781548a8201529084019082016149bc565b50505082870194505b50929695505050505050565b6001600160a01b039390931683526020830191909152604082015260600190565b634e487b7160e01b600052601260045260246000fd5b634e487b7160e01b600052602160045260246000fd5b600082614a5457634e487b7160e01b600052601260045260246000fd5b500490565b6001600160d01b03828116828216039080821115614a7957614a7961457b565b5092915050565b6001600160d01b03818116838216019080821115614a7957614a7961457b56fe9bed35cb62ad0dba04f9d5bfee4b5bc91443e77da8a65c4c84834c51bb08b0d66a1105ac8148a3c319adbc369f9072573e8a11d3a3d195e067e7c40767ec54d1a264697066735822122083245f0d4084addd94a8b7755d0642c35f0b29efd79c22b26277c28cf17398ff64736f6c63430008180033",
  "linkReferences": {},
  "deployedLinkReferences": {}
}