{
  "_format": "hh-sol-artifact-1",
  "contractName": "TokenDLT",
  "sourceName": "contracts/erc3643/token-dlt/TokenDLT.sol",
  "abi": [
    {
      "inputs": [],
      "name": "InvalidInitialization",
      "type": "error"
    },
    {
      "inputs": [],
      "name": "NotInitializing",
      "type": "error"
    },
    {
      "inputs": [
        {
          "internalType": "address",
          "name": "owner",
          "type": "address"
        }
      ],
      "name": "OwnableInvalidOwner",
      "type": "error"
    },
    {
      "inputs": [
        {
          "internalType": "address",
          "name": "account",
          "type": "address"
        }
      ],
      "name": "OwnableUnauthorizedAccount",
      "type": "error"
    },
    {
      "anonymous": false,
      "inputs": [
        {
          "indexed": true,
          "internalType": "address",
          "name": "_userAddress",
          "type": "address"
        },
        {
          "indexed": true,
          "internalType": "bool",
          "name": "_isFrozen",
          "type": "bool"
        },
        {
          "indexed": true,
          "internalType": "address",
          "name": "_owner",
          "type": "address"
        }
      ],
      "name": "AddressFrozen",
      "type": "event"
    },
    {
      "anonymous": false,
      "inputs": [
        {
          "indexed": true,
          "internalType": "address",
          "name": "_agent",
          "type": "address"
        }
      ],
      "name": "AgentAdded",
      "type": "event"
    },
    {
      "anonymous": false,
      "inputs": [
        {
          "indexed": true,
          "internalType": "address",
          "name": "_agent",
          "type": "address"
        }
      ],
      "name": "AgentRemoved",
      "type": "event"
    },
    {
      "anonymous": false,
      "inputs": [
        {
          "indexed": true,
          "internalType": "address",
          "name": "owner",
          "type": "address"
        },
        {
          "indexed": true,
          "internalType": "address",
          "name": "spender",
          "type": "address"
        },
        {
          "indexed": false,
          "internalType": "uint256",
          "name": "value",
          "type": "uint256"
        }
      ],
      "name": "Approval",
      "type": "event"
    },
    {
      "anonymous": false,
      "inputs": [
        {
          "indexed": true,
          "internalType": "address",
          "name": "owner",
          "type": "address"
        },
        {
          "indexed": true,
          "internalType": "address",
          "name": "spender",
          "type": "address"
        },
        {
          "indexed": false,
          "internalType": "int64",
          "name": "mainId",
          "type": "int64"
        },
        {
          "indexed": false,
          "internalType": "int64",
          "name": "subId",
          "type": "int64"
        },
        {
          "indexed": false,
          "internalType": "uint256",
          "name": "amount",
          "type": "uint256"
        }
      ],
      "name": "Approval",
      "type": "event"
    },
    {
      "anonymous": false,
      "inputs": [
        {
          "indexed": true,
          "internalType": "address",
          "name": "spender",
          "type": "address"
        },
        {
          "indexed": true,
          "internalType": "address",
          "name": "operator",
          "type": "address"
        },
        {
          "indexed": false,
          "internalType": "bool",
          "name": "approved",
          "type": "bool"
        }
      ],
      "name": "ApprovalForAll",
      "type": "event"
    },
    {
      "anonymous": false,
      "inputs": [
        {
          "indexed": true,
          "internalType": "address",
          "name": "_compliance",
          "type": "address"
        }
      ],
      "name": "ComplianceAdded",
      "type": "event"
    },
    {
      "anonymous": false,
      "inputs": [
        {
          "indexed": true,
          "internalType": "address",
          "name": "_identityRegistry",
          "type": "address"
        }
      ],
      "name": "IdentityRegistryAdded",
      "type": "event"
    },
    {
      "anonymous": false,
      "inputs": [
        {
          "indexed": false,
          "internalType": "uint64",
          "name": "version",
          "type": "uint64"
        }
      ],
      "name": "Initialized",
      "type": "event"
    },
    {
      "anonymous": false,
      "inputs": [
        {
          "indexed": true,
          "internalType": "address",
          "name": "previousOwner",
          "type": "address"
        },
        {
          "indexed": true,
          "internalType": "address",
          "name": "newOwner",
          "type": "address"
        }
      ],
      "name": "OwnershipTransferred",
      "type": "event"
    },
    {
      "anonymous": false,
      "inputs": [
        {
          "indexed": false,
          "internalType": "address",
          "name": "_userAddress",
          "type": "address"
        }
      ],
      "name": "Paused",
      "type": "event"
    },
    {
      "anonymous": false,
      "inputs": [
        {
          "indexed": true,
          "internalType": "address",
          "name": "_lostWallet",
          "type": "address"
        },
        {
          "indexed": true,
          "internalType": "address",
          "name": "_newWallet",
          "type": "address"
        },
        {
          "indexed": true,
          "internalType": "address",
          "name": "_investorOnchainID",
          "type": "address"
        }
      ],
      "name": "RecoverySuccess",
      "type": "event"
    },
    {
      "anonymous": false,
      "inputs": [
        {
          "indexed": true,
          "internalType": "address",
          "name": "_userAddress",
          "type": "address"
        },
        {
          "indexed": false,
          "internalType": "uint256",
          "name": "_amount",
          "type": "uint256"
        }
      ],
      "name": "TokensFrozen",
      "type": "event"
    },
    {
      "anonymous": false,
      "inputs": [
        {
          "indexed": true,
          "internalType": "address",
          "name": "_userAddress",
          "type": "address"
        },
        {
          "indexed": false,
          "internalType": "uint256",
          "name": "_amount",
          "type": "uint256"
        }
      ],
      "name": "TokensUnfrozen",
      "type": "event"
    },
    {
      "anonymous": false,
      "inputs": [
        {
          "indexed": true,
          "internalType": "address",
          "name": "from",
          "type": "address"
        },
        {
          "indexed": true,
          "internalType": "address",
          "name": "to",
          "type": "address"
        },
        {
          "indexed": false,
          "internalType": "uint256",
          "name": "value",
          "type": "uint256"
        }
      ],
      "name": "Transfer",
      "type": "event"
    },
    {
      "anonymous": false,
      "inputs": [
        {
          "indexed": true,
          "internalType": "address",
          "name": "sender",
          "type": "address"
        },
        {
          "indexed": true,
          "internalType": "address",
          "name": "recipient",
          "type": "address"
        },
        {
          "indexed": true,
          "internalType": "int64",
          "name": "mainId",
          "type": "int64"
        },
        {
          "indexed": false,
          "internalType": "int64",
          "name": "subId",
          "type": "int64"
        },
        {
          "indexed": false,
          "internalType": "uint256",
          "name": "amount",
          "type": "uint256"
        }
      ],
      "name": "Transfer",
      "type": "event"
    },
    {
      "anonymous": false,
      "inputs": [
        {
          "indexed": true,
          "internalType": "address",
          "name": "spender",
          "type": "address"
        },
        {
          "indexed": true,
          "internalType": "address",
          "name": "sender",
          "type": "address"
        },
        {
          "indexed": true,
          "internalType": "address",
          "name": "recipient",
          "type": "address"
        },
        {
          "indexed": false,
          "internalType": "int64[]",
          "name": "mainIds",
          "type": "int64[]"
        },
        {
          "indexed": false,
          "internalType": "int64[]",
          "name": "subIds",
          "type": "int64[]"
        },
        {
          "indexed": false,
          "internalType": "uint256[]",
          "name": "amounts",
          "type": "uint256[]"
        }
      ],
      "name": "TransferBatch",
      "type": "event"
    },
    {
      "anonymous": false,
      "inputs": [
        {
          "indexed": false,
          "internalType": "string",
          "name": "oldValue",
          "type": "string"
        },
        {
          "indexed": false,
          "internalType": "string",
          "name": "newValue",
          "type": "string"
        },
        {
          "indexed": true,
          "internalType": "int64",
          "name": "mainId",
          "type": "int64"
        }
      ],
      "name": "URI",
      "type": "event"
    },
    {
      "anonymous": false,
      "inputs": [
        {
          "indexed": false,
          "internalType": "address",
          "name": "_userAddress",
          "type": "address"
        }
      ],
      "name": "Unpaused",
      "type": "event"
    },
    {
      "anonymous": false,
      "inputs": [
        {
          "indexed": true,
          "internalType": "string",
          "name": "_newName",
          "type": "string"
        },
        {
          "indexed": true,
          "internalType": "string",
          "name": "_newSymbol",
          "type": "string"
        },
        {
          "indexed": false,
          "internalType": "uint8",
          "name": "_newDecimals",
          "type": "uint8"
        },
        {
          "indexed": false,
          "internalType": "string",
          "name": "_newVersion",
          "type": "string"
        },
        {
          "indexed": true,
          "internalType": "address",
          "name": "_newOnchainID",
          "type": "address"
        }
      ],
      "name": "UpdatedTokenInformation",
      "type": "event"
    },
    {
      "inputs": [
        {
          "internalType": "address",
          "name": "_agent",
          "type": "address"
        }
      ],
      "name": "addAgent",
      "outputs": [],
      "stateMutability": "nonpayable",
      "type": "function"
    },
    {
      "inputs": [
        {
          "internalType": "address",
          "name": "owner",
          "type": "address"
        },
        {
          "internalType": "address",
          "name": "spender",
          "type": "address"
        }
      ],
      "name": "allowance",
      "outputs": [
        {
          "internalType": "uint256",
          "name": "",
          "type": "uint256"
        }
      ],
      "stateMutability": "view",
      "type": "function"
    },
    {
      "inputs": [
        {
          "internalType": "address",
          "name": "owner",
          "type": "address"
        },
        {
          "internalType": "address",
          "name": "spender",
          "type": "address"
        },
        {
          "internalType": "int64",
          "name": "mainId",
          "type": "int64"
        },
        {
          "internalType": "int64",
          "name": "subId",
          "type": "int64"
        }
      ],
      "name": "allowance",
      "outputs": [
        {
          "internalType": "uint256",
          "name": "",
          "type": "uint256"
        }
      ],
      "stateMutability": "view",
      "type": "function"
    },
    {
      "inputs": [
        {
          "internalType": "address",
          "name": "spender",
          "type": "address"
        },
        {
          "internalType": "uint256",
          "name": "value",
          "type": "uint256"
        }
      ],
      "name": "approve",
      "outputs": [
        {
          "internalType": "bool",
          "name": "",
          "type": "bool"
        }
      ],
      "stateMutability": "nonpayable",
      "type": "function"
    },
    {
      "inputs": [
        {
          "internalType": "address",
          "name": "spender",
          "type": "address"
        },
        {
          "internalType": "int64",
          "name": "mainId",
          "type": "int64"
        },
        {
          "internalType": "int64",
          "name": "subId",
          "type": "int64"
        },
        {
          "internalType": "uint256",
          "name": "amount",
          "type": "uint256"
        }
      ],
      "name": "approve",
      "outputs": [
        {
          "internalType": "bool",
          "name": "",
          "type": "bool"
        }
      ],
      "stateMutability": "nonpayable",
      "type": "function"
    },
    {
      "inputs": [
        {
          "internalType": "address",
          "name": "account",
          "type": "address"
        }
      ],
      "name": "balanceOf",
      "outputs": [
        {
          "internalType": "uint256",
          "name": "",
          "type": "uint256"
        }
      ],
      "stateMutability": "view",
      "type": "function"
    },
    {
      "inputs": [
        {
          "internalType": "address[]",
          "name": "accounts",
          "type": "address[]"
        },
        {
          "internalType": "int64[]",
          "name": "mainIds",
          "type": "int64[]"
        },
        {
          "internalType": "int64[]",
          "name": "subIds",
          "type": "int64[]"
        }
      ],
      "name": "balanceOfBatch",
      "outputs": [
        {
          "internalType": "uint256[]",
          "name": "",
          "type": "uint256[]"
        }
      ],
      "stateMutability": "view",
      "type": "function"
    },
    {
      "inputs": [
        {
          "internalType": "address[]",
          "name": "_userAddresses",
          "type": "address[]"
        },
        {
          "internalType": "int64[]",
          "name": "_mainIds",
          "type": "int64[]"
        },
        {
          "internalType": "int64[]",
          "name": "_subIds",
          "type": "int64[]"
        },
        {
          "internalType": "uint256[]",
          "name": "_amounts",
          "type": "uint256[]"
        }
      ],
      "name": "batchBurn",
      "outputs": [],
      "stateMutability": "nonpayable",
      "type": "function"
    },
    {
      "inputs": [
        {
          "internalType": "address[]",
          "name": "_fromList",
          "type": "address[]"
        },
        {
          "internalType": "address[]",
          "name": "_toList",
          "type": "address[]"
        },
        {
          "internalType": "uint256[]",
          "name": "_amounts",
          "type": "uint256[]"
        }
      ],
      "name": "batchForcedTransfer",
      "outputs": [],
      "stateMutability": "nonpayable",
      "type": "function"
    },
    {
      "inputs": [
        {
          "internalType": "address[]",
          "name": "_userAddresses",
          "type": "address[]"
        },
        {
          "internalType": "uint256[]",
          "name": "_amounts",
          "type": "uint256[]"
        }
      ],
      "name": "batchFreezePartialTokens",
      "outputs": [],
      "stateMutability": "nonpayable",
      "type": "function"
    },
    {
      "inputs": [
        {
          "internalType": "address[]",
          "name": "_toList",
          "type": "address[]"
        },
        {
          "internalType": "int64[]",
          "name": "_mainIds",
          "type": "int64[]"
        },
        {
          "internalType": "int64[]",
          "name": "_subIds",
          "type": "int64[]"
        },
        {
          "internalType": "uint256[]",
          "name": "_amounts",
          "type": "uint256[]"
        }
      ],
      "name": "batchMint",
      "outputs": [],
      "stateMutability": "nonpayable",
      "type": "function"
    },
    {
      "inputs": [
        {
          "internalType": "address[]",
          "name": "_userAddresses",
          "type": "address[]"
        },
        {
          "internalType": "bool[]",
          "name": "_freeze",
          "type": "bool[]"
        }
      ],
      "name": "batchSetAddressFrozen",
      "outputs": [],
      "stateMutability": "nonpayable",
      "type": "function"
    },
    {
      "inputs": [
        {
          "internalType": "address[]",
          "name": "_toList",
          "type": "address[]"
        },
        {
          "internalType": "uint256[]",
          "name": "_amounts",
          "type": "uint256[]"
        }
      ],
      "name": "batchTransfer",
      "outputs": [],
      "stateMutability": "nonpayable",
      "type": "function"
    },
    {
      "inputs": [
        {
          "internalType": "address[]",
          "name": "_userAddresses",
          "type": "address[]"
        },
        {
          "internalType": "uint256[]",
          "name": "_amounts",
          "type": "uint256[]"
        }
      ],
      "name": "batchUnfreezePartialTokens",
      "outputs": [],
      "stateMutability": "nonpayable",
      "type": "function"
    },
    {
      "inputs": [
        {
          "internalType": "address",
          "name": "_userAddress",
          "type": "address"
        },
        {
          "internalType": "int64",
          "name": "_mainId",
          "type": "int64"
        },
        {
          "internalType": "int64",
          "name": "_subId",
          "type": "int64"
        },
        {
          "internalType": "uint256",
          "name": "_amount",
          "type": "uint256"
        }
      ],
      "name": "burn",
      "outputs": [],
      "stateMutability": "nonpayable",
      "type": "function"
    },
    {
      "inputs": [],
      "name": "compliance",
      "outputs": [
        {
          "internalType": "contract IModularCompliance",
          "name": "",
          "type": "address"
        }
      ],
      "stateMutability": "view",
      "type": "function"
    },
    {
      "inputs": [],
      "name": "decimals",
      "outputs": [
        {
          "internalType": "uint8",
          "name": "",
          "type": "uint8"
        }
      ],
      "stateMutability": "view",
      "type": "function"
    },
    {
      "inputs": [
        {
          "internalType": "address",
          "name": "_spender",
          "type": "address"
        },
        {
          "internalType": "uint256",
          "name": "_subtractedValue",
          "type": "uint256"
        }
      ],
      "name": "decreaseAllowance",
      "outputs": [
        {
          "internalType": "bool",
          "name": "",
          "type": "bool"
        }
      ],
      "stateMutability": "nonpayable",
      "type": "function"
    },
    {
      "inputs": [
        {
          "internalType": "address",
          "name": "_from",
          "type": "address"
        },
        {
          "internalType": "address",
          "name": "_to",
          "type": "address"
        },
        {
          "internalType": "uint256",
          "name": "_amount",
          "type": "uint256"
        }
      ],
      "name": "forcedTransfer",
      "outputs": [
        {
          "internalType": "bool",
          "name": "",
          "type": "bool"
        }
      ],
      "stateMutability": "nonpayable",
      "type": "function"
    },
    {
      "inputs": [
        {
          "internalType": "address",
          "name": "_userAddress",
          "type": "address"
        },
        {
          "internalType": "uint256",
          "name": "_amount",
          "type": "uint256"
        }
      ],
      "name": "freezePartialTokens",
      "outputs": [],
      "stateMutability": "nonpayable",
      "type": "function"
    },
    {
      "inputs": [
        {
          "internalType": "address",
          "name": "_userAddress",
          "type": "address"
        }
      ],
      "name": "getFrozenTokens",
      "outputs": [
        {
          "internalType": "uint256",
          "name": "",
          "type": "uint256"
        }
      ],
      "stateMutability": "view",
      "type": "function"
    },
    {
      "inputs": [
        {
          "internalType": "int64",
          "name": "mainId",
          "type": "int64"
        }
      ],
      "name": "getSubIds",
      "outputs": [
        {
          "internalType": "int64[]",
          "name": "",
          "type": "int64[]"
        }
      ],
      "stateMutability": "view",
      "type": "function"
    },
    {
      "inputs": [],
      "name": "identityRegistry",
      "outputs": [
        {
          "internalType": "contract IIdentityRegistry",
          "name": "",
          "type": "address"
        }
      ],
      "stateMutability": "view",
      "type": "function"
    },
    {
      "inputs": [
        {
          "internalType": "address",
          "name": "_spender",
          "type": "address"
        },
        {
          "internalType": "uint256",
          "name": "_addedValue",
          "type": "uint256"
        }
      ],
      "name": "increaseAllowance",
      "outputs": [
        {
          "internalType": "bool",
          "name": "",
          "type": "bool"
        }
      ],
      "stateMutability": "nonpayable",
      "type": "function"
    },
    {
      "inputs": [
        {
          "internalType": "address",
          "name": "_identityRegistry",
          "type": "address"
        },
        {
          "internalType": "address",
          "name": "_compliance",
          "type": "address"
        },
        {
          "internalType": "string",
          "name": "_name",
          "type": "string"
        },
        {
          "internalType": "string",
          "name": "_symbol",
          "type": "string"
        },
        {
          "internalType": "uint8",
          "name": "_decimals",
          "type": "uint8"
        },
        {
          "internalType": "address",
          "name": "_onchainID",
          "type": "address"
        }
      ],
      "name": "init",
      "outputs": [],
      "stateMutability": "nonpayable",
      "type": "function"
    },
    {
      "inputs": [
        {
          "internalType": "address",
          "name": "_agent",
          "type": "address"
        }
      ],
      "name": "isAgent",
      "outputs": [
        {
          "internalType": "bool",
          "name": "",
          "type": "bool"
        }
      ],
      "stateMutability": "view",
      "type": "function"
    },
    {
      "inputs": [
        {
          "internalType": "address",
          "name": "owner",
          "type": "address"
        },
        {
          "internalType": "address",
          "name": "operator",
          "type": "address"
        }
      ],
      "name": "isApprovedForAll",
      "outputs": [
        {
          "internalType": "bool",
          "name": "",
          "type": "bool"
        }
      ],
      "stateMutability": "view",
      "type": "function"
    },
    {
      "inputs": [
        {
          "internalType": "address",
          "name": "_userAddress",
          "type": "address"
        }
      ],
      "name": "isFrozen",
      "outputs": [
        {
          "internalType": "bool",
          "name": "",
          "type": "bool"
        }
      ],
      "stateMutability": "view",
      "type": "function"
    },
    {
      "inputs": [
        {
          "internalType": "address",
          "name": "_to",
          "type": "address"
        },
        {
          "internalType": "int64",
          "name": "_mainId",
          "type": "int64"
        },
        {
          "internalType": "int64",
          "name": "_subId",
          "type": "int64"
        },
        {
          "internalType": "uint256",
          "name": "_amount",
          "type": "uint256"
        }
      ],
      "name": "mint",
      "outputs": [],
      "stateMutability": "nonpayable",
      "type": "function"
    },
    {
      "inputs": [],
      "name": "name",
      "outputs": [
        {
          "internalType": "string",
          "name": "",
          "type": "string"
        }
      ],
      "stateMutability": "view",
      "type": "function"
    },
    {
      "inputs": [],
      "name": "onchainID",
      "outputs": [
        {
          "internalType": "address",
          "name": "",
          "type": "address"
        }
      ],
      "stateMutability": "view",
      "type": "function"
    },
    {
      "inputs": [],
      "name": "owner",
      "outputs": [
        {
          "internalType": "address",
          "name": "",
          "type": "address"
        }
      ],
      "stateMutability": "view",
      "type": "function"
    },
    {
      "inputs": [],
      "name": "pause",
      "outputs": [],
      "stateMutability": "nonpayable",
      "type": "function"
    },
    {
      "inputs": [],
      "name": "paused",
      "outputs": [
        {
          "internalType": "bool",
          "name": "",
          "type": "bool"
        }
      ],
      "stateMutability": "view",
      "type": "function"
    },
    {
      "inputs": [
        {
          "internalType": "address",
          "name": "_lostWallet",
          "type": "address"
        },
        {
          "internalType": "address",
          "name": "_newWallet",
          "type": "address"
        },
        {
          "internalType": "address",
          "name": "_investorOnchainID",
          "type": "address"
        }
      ],
      "name": "recoveryAddress",
      "outputs": [
        {
          "internalType": "bool",
          "name": "",
          "type": "bool"
        }
      ],
      "stateMutability": "nonpayable",
      "type": "function"
    },
    {
      "inputs": [
        {
          "internalType": "address",
          "name": "_agent",
          "type": "address"
        }
      ],
      "name": "removeAgent",
      "outputs": [],
      "stateMutability": "nonpayable",
      "type": "function"
    },
    {
      "inputs": [],
      "name": "renounceOwnership",
      "outputs": [],
      "stateMutability": "nonpayable",
      "type": "function"
    },
    {
      "inputs": [
        {
          "internalType": "address",
          "name": "sender",
          "type": "address"
        },
        {
          "internalType": "address",
          "name": "recipient",
          "type": "address"
        },
        {
          "internalType": "int64[]",
          "name": "mainIds",
          "type": "int64[]"
        },
        {
          "internalType": "int64[]",
          "name": "subIds",
          "type": "int64[]"
        },
        {
          "internalType": "uint256[]",
          "name": "amounts",
          "type": "uint256[]"
        },
        {
          "internalType": "bytes",
          "name": "data",
          "type": "bytes"
        }
      ],
      "name": "safeBatchTransferFrom",
      "outputs": [
        {
          "internalType": "bool",
          "name": "",
          "type": "bool"
        }
      ],
      "stateMutability": "nonpayable",
      "type": "function"
    },
    {
      "inputs": [
        {
          "internalType": "address",
          "name": "sender",
          "type": "address"
        },
        {
          "internalType": "address",
          "name": "recipient",
          "type": "address"
        },
        {
          "internalType": "int64",
          "name": "mainId",
          "type": "int64"
        },
        {
          "internalType": "int64",
          "name": "subId",
          "type": "int64"
        },
        {
          "internalType": "uint256",
          "name": "amount",
          "type": "uint256"
        }
      ],
      "name": "safeTransferFrom",
      "outputs": [
        {
          "internalType": "bool",
          "name": "",
          "type": "bool"
        }
      ],
      "stateMutability": "nonpayable",
      "type": "function"
    },
    {
      "inputs": [
        {
          "internalType": "address",
          "name": "sender",
          "type": "address"
        },
        {
          "internalType": "address",
          "name": "recipient",
          "type": "address"
        },
        {
          "internalType": "int64",
          "name": "mainId",
          "type": "int64"
        },
        {
          "internalType": "int64",
          "name": "subId",
          "type": "int64"
        },
        {
          "internalType": "uint256",
          "name": "amount",
          "type": "uint256"
        },
        {
          "internalType": "bytes",
          "name": "data",
          "type": "bytes"
        }
      ],
      "name": "safeTransferFrom",
      "outputs": [
        {
          "internalType": "bool",
          "name": "",
          "type": "bool"
        }
      ],
      "stateMutability": "nonpayable",
      "type": "function"
    },
    {
      "inputs": [
        {
          "internalType": "address",
          "name": "_userAddress",
          "type": "address"
        },
        {
          "internalType": "bool",
          "name": "_freeze",
          "type": "bool"
        }
      ],
      "name": "setAddressFrozen",
      "outputs": [],
      "stateMutability": "nonpayable",
      "type": "function"
    },
    {
      "inputs": [
        {
          "internalType": "address",
          "name": "operator",
          "type": "address"
        },
        {
          "internalType": "bool",
          "name": "approved",
          "type": "bool"
        }
      ],
      "name": "setApprovalForAll",
      "outputs": [],
      "stateMutability": "nonpayable",
      "type": "function"
    },
    {
      "inputs": [
        {
          "internalType": "address",
          "name": "_compliance",
          "type": "address"
        }
      ],
      "name": "setCompliance",
      "outputs": [],
      "stateMutability": "nonpayable",
      "type": "function"
    },
    {
      "inputs": [
        {
          "internalType": "address",
          "name": "_identityRegistry",
          "type": "address"
        }
      ],
      "name": "setIdentityRegistry",
      "outputs": [],
      "stateMutability": "nonpayable",
      "type": "function"
    },
    {
      "inputs": [
        {
          "internalType": "string",
          "name": "_name",
          "type": "string"
        }
      ],
      "name": "setName",
      "outputs": [],
      "stateMutability": "nonpayable",
      "type": "function"
    },
    {
      "inputs": [
        {
          "internalType": "address",
          "name": "_onchainID",
          "type": "address"
        }
      ],
      "name": "setOnchainID",
      "outputs": [],
      "stateMutability": "nonpayable",
      "type": "function"
    },
    {
      "inputs": [
        {
          "internalType": "string",
          "name": "_symbol",
          "type": "string"
        }
      ],
      "name": "setSymbol",
      "outputs": [],
      "stateMutability": "nonpayable",
      "type": "function"
    },
    {
      "inputs": [
        {
          "internalType": "address",
          "name": "account",
          "type": "address"
        },
        {
          "internalType": "int64",
          "name": "mainId",
          "type": "int64"
        },
        {
          "internalType": "int64",
          "name": "subId",
          "type": "int64"
        }
      ],
      "name": "subBalanceOf",
      "outputs": [
        {
          "internalType": "uint256",
          "name": "",
          "type": "uint256"
        }
      ],
      "stateMutability": "view",
      "type": "function"
    },
    {
      "inputs": [
        {
          "internalType": "address",
          "name": "owner",
          "type": "address"
        },
        {
          "internalType": "int64",
          "name": "mainId",
          "type": "int64"
        }
      ],
      "name": "subIdBalanceOf",
      "outputs": [
        {
          "internalType": "uint256",
          "name": "totalBalance",
          "type": "uint256"
        }
      ],
      "stateMutability": "view",
      "type": "function"
    },
    {
      "inputs": [],
      "name": "symbol",
      "outputs": [
        {
          "internalType": "string",
          "name": "",
          "type": "string"
        }
      ],
      "stateMutability": "view",
      "type": "function"
    },
    {
      "inputs": [],
      "name": "totalMainIds",
      "outputs": [
        {
          "internalType": "uint256",
          "name": "",
          "type": "uint256"
        }
      ],
      "stateMutability": "view",
      "type": "function"
    },
    {
      "inputs": [
        {
          "internalType": "int64",
          "name": "mainId",
          "type": "int64"
        }
      ],
      "name": "totalMainSupply",
      "outputs": [
        {
          "internalType": "uint256",
          "name": "",
          "type": "uint256"
        }
      ],
      "stateMutability": "view",
      "type": "function"
    },
    {
      "inputs": [
        {
          "internalType": "int64",
          "name": "mainId",
          "type": "int64"
        }
      ],
      "name": "totalSubIds",
      "outputs": [
        {
          "internalType": "uint256",
          "name": "",
          "type": "uint256"
        }
      ],
      "stateMutability": "view",
      "type": "function"
    },
    {
      "inputs": [
        {
          "internalType": "int64",
          "name": "mainId",
          "type": "int64"
        },
        {
          "internalType": "int64",
          "name": "subId",
          "type": "int64"
        }
      ],
      "name": "totalSubSupply",
      "outputs": [
        {
          "internalType": "uint256",
          "name": "",
          "type": "uint256"
        }
      ],
      "stateMutability": "view",
      "type": "function"
    },
    {
      "inputs": [],
      "name": "totalSupply",
      "outputs": [
        {
          "internalType": "uint256",
          "name": "",
          "type": "uint256"
        }
      ],
      "stateMutability": "view",
      "type": "function"
    },
    {
      "inputs": [
        {
          "internalType": "address",
          "name": "_to",
          "type": "address"
        },
        {
          "internalType": "uint256",
          "name": "_amount",
          "type": "uint256"
        }
      ],
      "name": "transfer",
      "outputs": [
        {
          "internalType": "bool",
          "name": "",
          "type": "bool"
        }
      ],
      "stateMutability": "nonpayable",
      "type": "function"
    },
    {
      "inputs": [
        {
          "internalType": "address",
          "name": "_from",
          "type": "address"
        },
        {
          "internalType": "address",
          "name": "_to",
          "type": "address"
        },
        {
          "internalType": "uint256",
          "name": "_amount",
          "type": "uint256"
        }
      ],
      "name": "transferFrom",
      "outputs": [
        {
          "internalType": "bool",
          "name": "",
          "type": "bool"
        }
      ],
      "stateMutability": "nonpayable",
      "type": "function"
    },
    {
      "inputs": [
        {
          "internalType": "address",
          "name": "sender",
          "type": "address"
        },
        {
          "internalType": "address",
          "name": "recipient",
          "type": "address"
        },
        {
          "internalType": "int64",
          "name": "mainId",
          "type": "int64"
        },
        {
          "internalType": "int64",
          "name": "subId",
          "type": "int64"
        },
        {
          "internalType": "uint256",
          "name": "amount",
          "type": "uint256"
        }
      ],
      "name": "transferFrom",
      "outputs": [
        {
          "internalType": "bool",
          "name": "",
          "type": "bool"
        }
      ],
      "stateMutability": "nonpayable",
      "type": "function"
    },
    {
      "inputs": [
        {
          "internalType": "address",
          "name": "newOwner",
          "type": "address"
        }
      ],
      "name": "transferOwnership",
      "outputs": [],
      "stateMutability": "nonpayable",
      "type": "function"
    },
    {
      "inputs": [
        {
          "internalType": "address",
          "name": "_userAddress",
          "type": "address"
        },
        {
          "internalType": "uint256",
          "name": "_amount",
          "type": "uint256"
        }
      ],
      "name": "unfreezePartialTokens",
      "outputs": [],
      "stateMutability": "nonpayable",
      "type": "function"
    },
    {
      "inputs": [],
      "name": "unpause",
      "outputs": [],
      "stateMutability": "nonpayable",
      "type": "function"
    },
    {
      "inputs": [],
      "name": "version",
      "outputs": [
        {
          "internalType": "string",
          "name": "",
          "type": "string"
        }
      ],
      "stateMutability": "pure",
      "type": "function"
    }
  ],
  "bytecode": "0x6080604052600b805460ff1916905534801561001a57600080fd5b50615d88806200002b6000396000f3fe608060405234801561001057600080fd5b50600436106103ba5760003560e01c8063715018a6116101f4578063aba637051161011a578063e43bdfe1116100ad578063f2fde38b1161007c578063f2fde38b146108df578063f8981789146108f2578063f91b619c14610905578063fc7e5fa81461091857600080fd5b8063e43bdfe114610851578063e583983614610864578063e985e9c514610890578063eb1bc58c146108cc57600080fd5b8063c8e254c4116100e9578063c8e254c4146107bf578063cbf3f861146107f2578063dd62ed3e14610805578063de60bc741461083e57600080fd5b8063aba6370514610770578063b84c824614610786578063c47f002714610799578063c69c09cf146107ac57600080fd5b80639285948a116101925780639fc1d0e7116101615780639fc1d0e714610724578063a22cb46514610737578063a457c2d71461074a578063a9059cbb1461075d57600080fd5b80639285948a146106d657806395d89b41146106e9578063965e2e12146106f157806397a6278e1461071157600080fd5b806384e79842116101ce57806384e798421461069557806388d695b2146106a85780638da5cb5b146106bb5780639040fb13146106c357600080fd5b8063715018a61461067257806383eddad01461067a5780638456cb591461068d57600080fd5b8063313ce567116102e457806354fd4d50116102775780636290865d116102465780636290865d1461062357806363b12e081461063457806365fd95ba1461065757806370a082311461065f57600080fd5b806354fd4d50146105d15780635c975abb146105f25780635e7e09f3146105fd5780635f3d67741461061057600080fd5b80633f4ba83a116102b35780633f4ba83a1461059057806342a47abc146105985780634710362d146105ab57806348f053d9146105be57600080fd5b8063313ce567146105425780633523dc6c14610557578063395093511461056a5780633d1ddc5b1461057d57600080fd5b8063158b1a571161035c5780631fe56f7d1161032b5780631fe56f7d146104e65780631ffbb064146104f957806320fd1d7c1461050c57806323b872dd1461052f57600080fd5b8063158b1a571461048f57806318160ddd146104b85780631a7af379146104c05780631e0e2d46146104d357600080fd5b8063095ea7b311610398578063095ea7b31461041a578063125c4a331461043d57806312849f0114610452578063134e18f41461046557600080fd5b806305ecb790146103bf578063069ed132146103e557806306fdde0314610405575b600080fd5b6103d26103cd366004614d5c565b61092b565b6040519081526020015b60405180910390f35b6103f86103f3366004614d9f565b610965565b6040516103dc9190614df9565b61040d6109ef565b6040516103dc9190614e52565b61042d610428366004614e65565b610a81565b60405190151581526020016103dc565b61045061044b366004614e65565b610a97565b005b61042d610460366004614f1b565b610bc6565b600b5461010090046001600160a01b03165b6040516001600160a01b0390911681526020016103dc565b6103d261049d366004615002565b6001600160a01b03166000908152600a602052604090205490565b6044546103d2565b6104506104ce36600461501d565b610d31565b6103d26104e1366004615088565b610d9c565b6104506104f4366004614e65565b610e4f565b61042d610507366004615002565b610f78565b6103d261051a366004614d9f565b60070b60009081526040602081905290205490565b61042d61053d3660046150bb565b610f84565b60085460405160ff90911681526020016103dc565b61042d6105653660046150f7565b611288565b61042d610578366004614e65565b6112b3565b61045061058b366004615002565b6112f4565b6104506113b2565b6104506105a6366004615153565b611460565b6104506105b936600461501d565b6114ec565b6104506105cc3660046151ec565b611547565b604080518082019091526005815264342e312e3360d81b602082015261040d565b600b5460ff1661042d565b61045061060b3660046152af565b6115fb565b61042d61061e3660046152af565b61181a565b600c546001600160a01b0316610477565b6103d2610642366004614d9f565b60070b6000908152603f602052604090205490565b603e546103d2565b6103d261066d366004615002565b611883565b6104506119ac565b61042d6106883660046150f7565b6119c0565b6104506119cf565b6104506106a3366004615002565b611a54565b6104506106b636600461501d565b611ac4565b610477611b20565b61042d6106d1366004615385565b611b4e565b61042d6106e4366004615420565b611b6c565b61040d611edb565b6107046106ff366004615153565b611eea565b6040516103dc919061548b565b61045061071f366004615002565b612057565b61042d6107323660046150bb565b6120c7565b6104506107453660046154ac565b6122f5565b61042d610758366004614e65565b612304565b61042d61076b366004614e65565b61233b565b60085461010090046001600160a01b0316610477565b6104506107943660046154e3565b6125b2565b6104506107a73660046154e3565b6126de565b6104506107ba3660046154ac565b61276a565b6103d26107cd366004615524565b600791820b60009081526041602090815260408083209390940b825291909152205490565b610450610800366004615002565b6127e4565b6103d2610813366004615540565b6001600160a01b03918216600090815260496020908152604080832093909416825291909152205490565b61045061084c3660046152af565b61283e565b6103d261085f36600461556a565b6129eb565b61042d610872366004615002565b6001600160a01b031660009081526009602052604090205460ff1690565b61042d61089e366004615540565b6001600160a01b03918216600090815260036020908152604080832093909416825291909152205460ff1690565b6104506108da3660046151ec565b612a02565b6104506108ed366004615002565b612aab565b610450610900366004615002565b612ae9565b6104506109133660046155de565b612c03565b61045061092636600461501d565b612fcb565b600782810b60009081526004602090815260408083206001600160a01b038816845282528083209385900b835292905220545b9392505050565b600781900b6000908152604260209081526040918290208054835181840281018401909452808452606093928301828280156109e357602002820191906000526020600020906000905b825461010083900a900460070b81526020600f83018190049384019360010360089093019290920291018084116109af5790505b50505050509050919050565b6060600680546109fe9061568a565b80601f0160208091040260200160405190810160405280929190818152602001828054610a2a9061568a565b8015610a775780601f10610a4c57610100808354040283529160200191610a77565b820191906000526020600020905b815481529060010190602001808311610a5a57829003601f168201915b5050505050905090565b6000610a8e338484613026565b90505b92915050565b610aa033610f78565b610ac55760405162461bcd60e51b8152600401610abc906156c4565b60405180910390fd5b6000610ad083611883565b6001600160a01b0384166000908152600a6020526040902054909150610af7908390615728565b811015610b465760405162461bcd60e51b815260206004820181905260248201527f416d6f756e74206578636565647320617661696c61626c652062616c616e63656044820152606401610abc565b6001600160a01b0383166000908152600a6020526040902054610b6a908390615728565b6001600160a01b0384166000818152600a6020526040908190209290925590517fa065e63c631c86f1b9f66a4a2f63f2093bf1c2168d23290259dbd969e0222a4590610bb99085815260200190565b60405180910390a2505050565b600033610bd38c8261308e565b610c3a5760405162461bcd60e51b815260206004820152603260248201527f444c543a2063616c6c6572206973206e6f7420746f6b656e206f776e6572206f6044820152711c88185c1c1c9bdd995908199bdc88185b1b60721b6064820152608401610abc565b610d1f8c8c8c8c80806020026020016040519081016040528093929190818152602001838360200280828437600081840152601f19601f820116905080830192505050505050508b8b8080602002602001604051908101604052809392919081815260200183836020028082843760009201919091525050604080516020808f0282810182019093528e82529093508e92508d91829185019084908082843760009201919091525050604080516020601f8e018190048102820181019092528c815292508c91508b90819084018382808284376000920191909152506130d992505050565b5060019b9a5050505050505050505050565b60005b83811015610d9557610d8d858583818110610d5157610d5161573b565b9050602002016020810190610d669190615002565b848484818110610d7857610d7861573b565b90506020020160208101906107ba9190615751565b600101610d34565b5050505050565b6000805b600783900b600090815260426020526040902054811015610e4857600783900b6000908152604260205260408120805483908110610de057610de061573b565b60009182526020808320600480840490910154600789810b865291835260408086206001600160a01b038c168752845280862060039095166008026101000a90910490910b8085529290915290912054909150610e3d9084615728565b925050600101610da0565b5092915050565b610e5833610f78565b610e745760405162461bcd60e51b8152600401610abc906156c4565b6001600160a01b0382166000908152600a6020526040902054811115610ef95760405162461bcd60e51b815260206004820152603460248201527f416d6f756e742073686f756c64206265206c657373207468616e206f7220657160448201527375616c20746f2066726f7a656e20746f6b656e7360601b6064820152608401610abc565b6001600160a01b0382166000908152600a6020526040902054610f1d90829061576e565b6001600160a01b0383166000818152600a6020526040908190209290925590517f9bed35cb62ad0dba04f9d5bfee4b5bc91443e77da8a65c4c84834c51bb08b0d690610f6c9084815260200190565b60405180910390a25050565b6000610a9181836133e9565b600b5460009060ff1615610faa5760405162461bcd60e51b8152600401610abc90615781565b6001600160a01b03831660009081526009602052604090205460ff16158015610fec57506001600160a01b03841660009081526009602052604090205460ff16155b61102b5760405162461bcd60e51b815260206004820152601060248201526f3bb0b63632ba1034b990333937bd32b760811b6044820152606401610abc565b6001600160a01b0384166000908152600a602052604090205461104d85611883565b611057919061576e565b82111561109d5760405162461bcd60e51b8152602060048201526014602482015273496e73756666696369656e742042616c616e636560601b6044820152606401610abc565b600b5460405163b9209e3360e01b81526001600160a01b0385811660048301526101009092049091169063b9209e3390602401602060405180830381865afa1580156110ed573d6000803e3d6000fd5b505050506040513d601f19601f8201168201806040525081019061111191906157ab565b801561118d5750600c546040516372331c7360e11b81526001600160a01b039091169063e46638e69061114c908790879087906004016157c8565b602060405180830381865afa158015611169573d6000803e3d6000fd5b505050506040513d601f19601f8201168201806040525081019061118d91906157ab565b15611248576001600160a01b0384166000908152604960209081526040808320338085529252909120546111cd9186916111c890869061576e565b613026565b506111d984848461346c565b600c546040516322ebca6d60e21b81526001600160a01b0390911690638baf29b49061120d908790879087906004016157c8565b600060405180830381600087803b15801561122757600080fd5b505af115801561123b573d6000803e3d6000fd5b505050506001905061095e565b60405162461bcd60e51b81526020600482015260156024820152745472616e73666572206e6f7420706f737369626c6560581b6044820152606401610abc565b60006112a78686868686604051806020016040528060008152506137ed565b50600195945050505050565b3360008181526049602090815260408083206001600160a01b038716845290915281205490916112ea9185906111c8908690615728565b5060019392505050565b6112fc613817565b60088054610100600160a81b0319166101006001600160a01b038481168202929092179283905560405192041690611336906007906157ec565b6040518091039020600660405161134d91906157ec565b6040805191829003822060085483830183526005845264342e312e3360d81b6020850152915190927f6a1105ac8148a3c319adbc369f9072573e8a11d3a3d195e067e7c40767ec54d1926113a79260ff9091169190615862565b60405180910390a450565b6113bb33610f78565b6113d75760405162461bcd60e51b8152600401610abc906156c4565b600b5460ff166114205760405162461bcd60e51b815260206004820152601460248201527314185d5cd8589b194e881b9bdd081c185d5cd95960621b6044820152606401610abc565b600b805460ff191690556040513381527f5db9ee0a495bf2e6ff9c91a7834c1ba4fdd244a5e8aa4e537bd38aeae4b073aa906020015b60405180910390a1565b60005b858110156114e3576114da8787838181106114805761148061573b565b90506020020160208101906114959190615002565b8686848181106114a7576114a761573b565b90506020020160208101906114bc9190615002565b8585858181106114ce576114ce61573b565b905060200201356120c7565b50600101611463565b50505050505050565b60005b83811015610d955761153f85858381811061150c5761150c61573b565b90506020020160208101906115219190615002565b8484848181106115335761153361573b565b90506020020135610e4f565b6001016114ef565b60005b878110156115f0576115e88989838181106115675761156761573b565b905060200201602081019061157c9190615002565b88888481811061158e5761158e61573b565b90506020020160208101906115a39190614d9f565b8787858181106115b5576115b561573b565b90506020020160208101906115ca9190614d9f565b8686868181106115dc576115dc61573b565b905060200201356115fb565b60010161154a565b505050505050505050565b61160433610f78565b6116205760405162461bcd60e51b8152600401610abc906156c4565b600b5460405163b9209e3360e01b81526001600160a01b0386811660048301526101009092049091169063b9209e3390602401602060405180830381865afa158015611670573d6000803e3d6000fd5b505050506040513d601f19601f8201168201806040525081019061169491906157ab565b6116e05760405162461bcd60e51b815260206004820152601960248201527f4964656e74697479206973206e6f742076657269666965642e000000000000006044820152606401610abc565b600c546040516372331c7360e11b81526001600160a01b039091169063e46638e69061171590600090889086906004016157c8565b602060405180830381865afa158015611732573d6000803e3d6000fd5b505050506040513d601f19601f8201168201806040525081019061175691906157ab565b6117a25760405162461bcd60e51b815260206004820152601760248201527f436f6d706c69616e6365206e6f7420666f6c6c6f7765640000000000000000006044820152606401610abc565b6117ae84848484613849565b600c54604051635f8dead360e01b81526001600160a01b0386811660048301526024820184905290911690635f8dead390604401600060405180830381600087803b1580156117fc57600080fd5b505af1158015611810573d6000803e3d6000fd5b5050505050505050565b6000336001600160a01b0386168190036118765760405162461bcd60e51b815260206004820152601e60248201527f444c543a20617070726f76616c20746f2063757272656e74206f776e657200006044820152606401610abc565b6112a78187878787613873565b600080805b6001600160a01b038416600090815260456020526040902054811015610e48576001600160a01b03841660009081526045602052604081208054839081106118d2576118d261573b565b60009182526020822060048204015460039091166008026101000a900460070b91505b6001600160a01b0386166000908152604660209081526040808320600786900b84529091529020548110156119a2576001600160a01b0386166000908152604660209081526040808320600786900b8452909152812080548390811061195d5761195d61573b565b90600052602060002090600491828204019190066008029054906101000a900460070b905061198d87848361092b565b6119979086615728565b9450506001016118f5565b5050600101611888565b6119b4613817565b6119be60006139b7565b565b60006112a78686868686613a28565b6119d833610f78565b6119f45760405162461bcd60e51b8152600401610abc906156c4565b600b5460ff1615611a175760405162461bcd60e51b8152600401610abc90615781565b600b805460ff191660011790556040513381527f62e78cea01bee320cd4e420270b5ea74000d11b0c9f74754ebdbfc544b05a25890602001611456565b611a5c613817565b6001600160a01b038116611a825760405162461bcd60e51b8152600401610abc90615886565b611a8d600082613a59565b6040516001600160a01b038216907ff68e73cec97f2d70aa641fb26e87a4383686e2efacb648f2165aeb02ac562ec590600090a250565b60005b83811015610d9557611b17858583818110611ae457611ae461573b565b9050602002016020810190611af99190615002565b848484818110611b0b57611b0b61573b565b9050602002013561233b565b50600101611ac7565b7f9016d09d72d40fdae2fd8ceac6b6234c7706214fd39c1cd1e609a0528c199300546001600160a01b031690565b6000611b5e8787878787876137ed565b5060015b9695505050505050565b6000611b7733610f78565b611b935760405162461bcd60e51b8152600401610abc906156c4565b611b9c84611883565b600003611be25760405162461bcd60e51b81526020600482015260146024820152733737903a37b5b2b739903a37903932b1b7bb32b960611b6044820152606401610abc565b604080516001600160a01b038516602082015283916000910160408051808303601f1901815290829052805160209091012063d202158d60e01b8252600482018190526001602483015291506001600160a01b0383169063d202158d90604401602060405180830381865afa158015611c5f573d6000803e3d6000fd5b505050506040513d601f19601f82011682018060405250810190611c8391906157ab565b15611e9b576000611c9387611883565b6001600160a01b038881166000818152600a60205260409081902054600b549151637e42683b60e01b8152600481019390935293945061010090049091169063454a03e090899087908490637e42683b90602401602060405180830381865afa158015611d04573d6000803e3d6000fd5b505050506040513d601f19601f82011682018060405250810190611d2891906158bd565b6040516001600160e01b031960e086901b1681526001600160a01b03938416600482015292909116602483015261ffff166044820152606401600060405180830381600087803b158015611d7b57600080fd5b505af1158015611d8f573d6000803e3d6000fd5b50505050611d9e8888846120c7565b508015611daf57611daf8782610a97565b6001600160a01b03881660009081526009602052604090205460ff161515600103611ddf57611ddf87600161276a565b600b5460405163a8d29d1d60e01b81526001600160a01b038a811660048301526101009092049091169063a8d29d1d90602401600060405180830381600087803b158015611e2c57600080fd5b505af1158015611e40573d6000803e3d6000fd5b50505050856001600160a01b0316876001600160a01b0316896001600160a01b03167ff0c9129a94f30f1caaceb63e44b9811d0a3edf1d6c23757f346093af5553fed060405160405180910390a4600194505050505061095e565b60405162461bcd60e51b81526020600482015260156024820152745265636f76657279206e6f7420706f737369626c6560581b6044820152606401610abc565b6060600780546109fe9061568a565b60608584148015611efa57508582145b611f5d5760405162461bcd60e51b815260206004820152602e60248201527f444c543a206163636f756e74732c206d61696e49647320616e6420696473206c60448201526d0cadccee8d040dad2e6dac2e8c6d60931b6064820152608401610abc565b6000866001600160401b03811115611f7757611f776152fa565b604051908082528060200260200182016040528015611fa0578160200160208202803683370190505b50905060005b8781101561204b57612026898983818110611fc357611fc361573b565b9050602002016020810190611fd89190615002565b888884818110611fea57611fea61573b565b9050602002016020810190611fff9190614d9f565b8787858181106120115761201161573b565b90506020020160208101906103cd9190614d9f565b8282815181106120385761203861573b565b6020908102919091010152600101611fa6565b50979650505050505050565b61205f613817565b6001600160a01b0381166120855760405162461bcd60e51b8152600401610abc90615886565b612090600082613ad5565b6040516001600160a01b038216907fed9c8ad8d5a0a66898ea49d2956929c93ae2e8bd50281b2ed897c5d1a6737e0b90600090a250565b60006120d233610f78565b6120ee5760405162461bcd60e51b8152600401610abc906156c4565b816120f885611883565b101561213f5760405162461bcd60e51b815260206004820152601660248201527573656e6465722062616c616e636520746f6f206c6f7760501b6044820152606401610abc565b6001600160a01b0384166000908152600a602052604081205461216186611883565b61216b919061576e565b905080831115612201576000612181828561576e565b6001600160a01b0387166000908152600a60205260409020549091506121a890829061576e565b6001600160a01b0387166000818152600a6020526040908190209290925590517f9bed35cb62ad0dba04f9d5bfee4b5bc91443e77da8a65c4c84834c51bb08b0d6906121f79084815260200190565b60405180910390a2505b600b5460405163b9209e3360e01b81526001600160a01b0386811660048301526101009092049091169063b9209e3390602401602060405180830381865afa158015612251573d6000803e3d6000fd5b505050506040513d601f19601f8201168201806040525081019061227591906157ab565b156112485761228585858561346c565b600c546040516322ebca6d60e21b81526001600160a01b0390911690638baf29b4906122b9908890889088906004016157c8565b600060405180830381600087803b1580156122d357600080fd5b505af11580156122e7573d6000803e3d6000fd5b50505050600191505061095e565b612300338383613b57565b5050565b3360008181526049602090815260408083206001600160a01b038716845290915281205490916112ea9185906111c890869061576e565b600b5460009060ff16156123615760405162461bcd60e51b8152600401610abc90615781565b6001600160a01b03831660009081526009602052604090205460ff1615801561239a57503360009081526009602052604090205460ff16155b6123d95760405162461bcd60e51b815260206004820152601060248201526f3bb0b63632ba1034b990333937bd32b760811b6044820152606401610abc565b336000818152600a6020526040902054906123f390611883565b6123fd919061576e565b8211156124435760405162461bcd60e51b8152602060048201526014602482015273496e73756666696369656e742042616c616e636560601b6044820152606401610abc565b600b5460405163b9209e3360e01b81526001600160a01b0385811660048301526101009092049091169063b9209e3390602401602060405180830381865afa158015612493573d6000803e3d6000fd5b505050506040513d601f19601f820116820180604052508101906124b791906157ab565b80156125335750600c546040516372331c7360e11b81526001600160a01b039091169063e46638e6906124f2903390879087906004016157c8565b602060405180830381865afa15801561250f573d6000803e3d6000fd5b505050506040513d601f19601f8201168201806040525081019061253391906157ab565b156112485761254333848461346c565b600c546040516322ebca6d60e21b81526001600160a01b0390911690638baf29b490612577903390879087906004016157c8565b600060405180830381600087803b15801561259157600080fd5b505af11580156125a5573d6000803e3d6000fd5b5050505060019050610a91565b6125ba613817565b6040516020016125d590602080825260009082015260400190565b6040516020818303038152906040528051906020012082826040516020016125fe9291906158e1565b60405160208183030381529060405280519060200120036126315760405162461bcd60e51b8152600401610abc90615910565b600761263e828483615994565b506008546040516101009091046001600160a01b031690612661906007906157ec565b6040518091039020600660405161267891906157ec565b6040805191829003822060085483830183526005845264342e312e3360d81b6020850152915190927f6a1105ac8148a3c319adbc369f9072573e8a11d3a3d195e067e7c40767ec54d1926126d29260ff9091169190615862565b60405180910390a45050565b6126e6613817565b60405160200161270190602080825260009082015260400190565b60405160208183030381529060405280519060200120828260405160200161272a9291906158e1565b604051602081830303815290604052805190602001200361275d5760405162461bcd60e51b8152600401610abc90615910565b600661263e828483615994565b61277333610f78565b61278f5760405162461bcd60e51b8152600401610abc906156c4565b6001600160a01b038216600081815260096020526040808220805460ff19168515159081179091559051339391927f7fa523c84ab8d7fc5b72f08b9e46dbbf10c39e119a075b3e317002d14bc9f43691a45050565b6127ec613817565b600b8054610100600160a81b0319166101006001600160a01b038416908102919091179091556040517fd2be862d755bca7e0d39772b2cab3a5578da9c285f69199f4c063c2294a7f36c90600090a250565b61284733610f78565b6128635760405162461bcd60e51b8152600401610abc906156c4565b8061286d85611883565b10156128bb5760405162461bcd60e51b815260206004820152601d60248201527f63616e6e6f74206275726e206d6f7265207468616e2062616c616e63650000006044820152606401610abc565b6001600160a01b0384166000908152600a60205260408120546128dd86611883565b6128e7919061576e565b90508082111561297d5760006128fd828461576e565b6001600160a01b0387166000908152600a602052604090205490915061292490829061576e565b6001600160a01b0387166000818152600a6020526040908190209290925590517f9bed35cb62ad0dba04f9d5bfee4b5bc91443e77da8a65c4c84834c51bb08b0d6906129739084815260200190565b60405180910390a2505b61298985858585613c1e565b600c5460405163469753b960e11b81526001600160a01b0387811660048301526024820185905290911690638d2ea77290604401600060405180830381600087803b1580156129d757600080fd5b505af11580156115f0573d6000803e3d6000fd5b60006129f985858585613c33565b95945050505050565b60005b878110156115f057612aa3898983818110612a2257612a2261573b565b9050602002016020810190612a379190615002565b888884818110612a4957612a4961573b565b9050602002016020810190612a5e9190614d9f565b878785818110612a7057612a7061573b565b9050602002016020810190612a859190614d9f565b868686818110612a9757612a9761573b565b90506020020135613c1e565b600101612a05565b612ab3613817565b6001600160a01b038116612add57604051631e4fbdf760e01b815260006004820152602401610abc565b612ae6816139b7565b50565b612af1613817565b600c546001600160a01b031615612b6057600c5460405163040db3b560e41b81523060048201526001600160a01b03909116906340db3b5090602401600060405180830381600087803b158015612b4757600080fd5b505af1158015612b5b573d6000803e3d6000fd5b505050505b600c80546001600160a01b0319166001600160a01b038316908117909155604051631ffad50160e11b8152306004820152633ff5aa0290602401600060405180830381600087803b158015612bb457600080fd5b505af1158015612bc8573d6000803e3d6000fd5b50506040516001600160a01b03841692507f7f3a888862559648ec01d97deb7b5012bff86dc91e654a1de397170db40e35b69150600090a250565b7ff0c57e16840df040f15088dc2f81fe391c3923bec73e23a9662efc9c229c6a008054600160401b810460ff1615906001600160401b0316600081158015612c485750825b90506000826001600160401b03166001148015612c645750303b155b905081158015612c72575080155b15612c905760405163f92ee8a960e01b815260040160405180910390fd5b845467ffffffffffffffff191660011785558315612cba57845460ff60401b1916600160401b1785555b6000612cc4611b20565b6001600160a01b031614612d105760405162461bcd60e51b8152602060048201526013602482015272185b1c9958591e481a5b9a5d1a585b1a5e9959606a1b6044820152606401610abc565b6001600160a01b038b1615801590612d3057506001600160a01b038a1615155b612d4c5760405162461bcd60e51b8152600401610abc90615886565b604051602001612d6790602080825260009082015260400190565b6040516020818303038152906040528051906020012089604051602001612d8e9190614e52565b6040516020818303038152906040528051906020012014158015612e085750604051602001612dc890602080825260009082015260400190565b6040516020818303038152906040528051906020012088604051602001612def9190614e52565b6040516020818303038152906040528051906020012014155b612e245760405162461bcd60e51b8152600401610abc90615910565b60128760ff161115612e785760405162461bcd60e51b815260206004820152601960248201527f646563696d616c73206265747765656e203020616e64203138000000000000006044820152606401610abc565b612e8133613c75565b6006612e8d8a82615a53565b506007612e9a8982615a53565b50600880546001600160a01b038816610100026001600160a81b031990911660ff8a1617179055600b805460ff19169055612ed48b6127e4565b612edd8a612ae9565b6008546040516101009091046001600160a01b031690612eff906007906157ec565b60405180910390206006604051612f1691906157ec565b6040805191829003822060085483830183526005845264342e312e3360d81b6020850152915190927f6a1105ac8148a3c319adbc369f9072573e8a11d3a3d195e067e7c40767ec54d192612f709260ff9091169190615862565b60405180910390a48315612fbe57845460ff60401b19168555604051600181527fc7f505b2f371ae2175ee4913f4499e1f2633a7b5936321eed1cdaeb6115181d29060200160405180910390a15b5050505050505050505050565b60005b83811015610d955761301e858583818110612feb57612feb61573b565b90506020020160208101906130009190615002565b8484848181106130125761301261573b565b90506020020135610a97565b600101612fce565b6001600160a01b03838116600081815260496020908152604080832094871680845294825280832086905551858152919392917f8c5be1e5ebec7d5bd14f71427d1e84f3dd0314c0f7b2291e5b200ac8c7c3b925910160405180910390a35060019392505050565b6000816001600160a01b0316836001600160a01b03161480610a8e57506001600160a01b0380841660009081526003602090815260408083209386168352929052205460ff16610a8e565b825184511480156130eb575081518451145b6131505760405162461bcd60e51b815260206004820152603060248201527f444c543a206d61696e4964732c2073756249647320616e6420616d6f756e747360448201526f040d8cadccee8d040dad2e6dac2e8c6d60831b6064820152608401610abc565b6001600160a01b0385166131765760405162461bcd60e51b8152600401610abc90615b12565b3360005b85518110156133655760008682815181106131975761319761573b565b6020026020010151905060008683815181106131b5576131b561573b565b6020026020010151905060008684815181106131d3576131d361573b565b602002602001015190506000600460008560070b60070b815260200190815260200160002060008d6001600160a01b03166001600160a01b0316815260200190815260200160002060008460070b60070b81526020019081526020016000205490506132558c8c86868660405180602001604052806000815250505050505050565b818110156132755760405162461bcd60e51b8152600401610abc90615b53565b818103600460008660070b60070b815260200190815260200160002060008e6001600160a01b03166001600160a01b0316815260200190815260200160002060008560070b60070b81526020019081526020016000208190555081600460008660070b60070b815260200190815260200160002060008d6001600160a01b03166001600160a01b0316815260200190815260200160002060008560070b60070b815260200190815260200160002060008282546133329190615728565b925050819055506133568c8c86868660405180602001604052806000815250613c86565b5050505080600101905061317a565b50856001600160a01b0316876001600160a01b0316826001600160a01b03167f3d3612aedbab64ec845a17d1508b936b04c073ee96a02b84c355a7eb025a18d28888886040516133b793929190615b99565b60405180910390a46133cd878787878787613e0b565b6114e35760405162461bcd60e51b8152600401610abc90615bd2565b60006001600160a01b03821661344c5760405162461bcd60e51b815260206004820152602260248201527f526f6c65733a206163636f756e7420697320746865207a65726f206164647265604482015261737360f01b6064820152608401610abc565b506001600160a01b03166000908152602091909152604090205460ff1690565b6001600160a01b0383166134c25760405162461bcd60e51b815260206004820152601b60248201527f45524332303a20696e76616c69642066726f6d206164647265737300000000006044820152606401610abc565b6001600160a01b0382166135185760405162461bcd60e51b815260206004820152601960248201527f45524332303a20696e76616c696420746f2061646472657373000000000000006044820152606401610abc565b6000811161355f5760405162461bcd60e51b815260206004820152601460248201527345524332303a20696e76616c69642076616c756560601b6044820152606401610abc565b6135986040518060c001604052806060815260200160608152602001606081526020016000815260200160008152602001600081525090565b608081018290526001600160a01b0384166000908152604560205260409020546001600160401b038111156135cf576135cf6152fa565b6040519080825280602002602001820160405280156135f8578160200160208202803683370190505b5081526001600160a01b0384166000908152604560205260409020546001600160401b0381111561362b5761362b6152fa565b604051908082528060200260200182016040528015613654578160200160208202803683370190505b506020808301919091526001600160a01b0385166000908152604590915260409020546001600160401b0381111561368e5761368e6152fa565b6040519080825280602002602001820160405280156136b7578160200160208202803683370190505b5060408201526136c78482613f0d565b8181606001511461374b5760405162461bcd60e51b815260206004820152604260248201527f45524332303a20496e73756666696369656e742062616c616e636520696e207360448201527f75622d61737365747320746f20636f6d706c65746520746865207472616e736660648201526132b960f11b608482015260a401610abc565b61379a848461376284600001518560a00151613fd9565b61377485602001518660a00151613fd9565b61378686604001518760a0015161407b565b6040805160008152602081019091526130d9565b826001600160a01b0316846001600160a01b03167fddf252ad1be2c89b69c2b068fc378daa952ba7f163c4a11628f55a4df523b3ef846040516137df91815260200190565b60405180910390a350505050565b336137f8878261308e565b61380957613809878287878761410d565b6114e3878787878787614185565b33613820611b20565b6001600160a01b0316146119be5760405163118cdaa760e01b8152336004820152602401610abc565b806044600082825461385b9190615728565b9091555061386d9050848484846141bc565b50505050565b6001600160a01b0385166138d45760405162461bcd60e51b815260206004820152602260248201527f444c543a20617070726f76652066726f6d20746865207a65726f206164647265604482015261737360f01b6064820152608401610abc565b6001600160a01b03841661392a5760405162461bcd60e51b815260206004820181905260248201527f444c543a20617070726f766520746f20746865207a65726f20616464726573736044820152606401610abc565b6001600160a01b038581166000818152600560209081526040808320948916808452948252808320600789810b8086529184528285209089900b808652908452938290208790558151908152918201929092529081018490527f20228d921cee20e1bee39b210de025b31c291c9a9eb96925595c91db3db75c329060600160405180910390a35050505050565b7f9016d09d72d40fdae2fd8ceac6b6234c7706214fd39c1cd1e609a0528c19930080546001600160a01b031981166001600160a01b03848116918217845560405192169182907f8be0079c531659141344cd1fd0a4f28419497f9722a3daafe3b4186f6b6457e090600090a3505050565b33613a33868261308e565b613a4457613a44868286868661410d565b613a518686868686614309565b505050505050565b613a6382826133e9565b15613ab05760405162461bcd60e51b815260206004820152601f60248201527f526f6c65733a206163636f756e7420616c72656164792068617320726f6c65006044820152606401610abc565b6001600160a01b0316600090815260209190915260409020805460ff19166001179055565b613adf82826133e9565b613b355760405162461bcd60e51b815260206004820152602160248201527f526f6c65733a206163636f756e7420646f6573206e6f74206861766520726f6c6044820152606560f81b6064820152608401610abc565b6001600160a01b0316600090815260209190915260409020805460ff19169055565b816001600160a01b0316836001600160a01b031603613bb15760405162461bcd60e51b815260206004820152601660248201527522262a1d1030b8383937bb32903a379031b0b63632b960511b6044820152606401610abc565b6001600160a01b03838116600081815260036020908152604080832094871680845294825291829020805460ff191686151590811790915591519182527f17307eab39ab6107e8899845ad3d59bd9653f200f220920489ca2b5937696c31910160405180910390a3505050565b60448054829003905561386d848484846144bc565b6001600160a01b039384166000908152600560209081526040808320959096168252938452848120600793840b825284528481209190920b8252909152205490565b613c7d61468a565b612ae6816146d3565b6001600160a01b03851615613a51576001600160a01b0385166000908152604760209081526040808320600788900b845290915290205460ff16613d3c576001600160a01b03851660008181526045602090815260408083208054600180820183559185528385206004820401805460039092166008026101000a6001600160401b0381810219909316928c160291909117905593835260478252808320600789900b84529091529020805460ff191690911790555b6001600160a01b0385166000908152604860209081526040808320600788810b85529083528184209087900b845290915290205460ff16613a515750506001600160a01b03929092166000818152604660209081526040808320600795860b8085529083528184208054600180820183559186528486206004820401805460039092166008026101000a6001600160401b0381810219909316928b16029190911790559484526048835281842090845282528083209590940b8252939093529120805460ff1916909117905550565b60006001600160a01b0386163b15613f05576040516383fbceb960e01b81526001600160a01b038716906383fbceb990613e539033908b908a908a908a908a90600401615c1e565b6020604051808303816000875af1925050508015613e8e575060408051601f3d908101601f19168201909252613e8b91810190615c91565b60015b613eeb573d808015613ebc576040519150601f19603f3d011682016040523d82523d6000602084013e613ec1565b606091505b508051600003613ee35760405162461bcd60e51b8152600401610abc90615bd2565b805181602001fd5b6001600160e01b0319166383fbceb960e01b149050611b62565b506001611b62565b6001600160a01b038216600090815260456020908152604080832080548251818502810185019093528083529192909190830182828015613f9057602002820191906000526020600020906000905b825461010083900a900460070b81526020600f8301819004938401936001036008909301929092029101808411613f5c5790505b5050505050905060005b815181101561386d57613fc784838381518110613fb957613fb961573b565b6020026020010151856146db565b60808301511561386d57600101613f9a565b60606000826001600160401b03811115613ff557613ff56152fa565b60405190808252806020026020018201604052801561401e578160200160208202803683370190505b50905060005b838110156140735784818151811061403e5761403e61573b565b60200260200101518282815181106140585761405861573b565b60079290920b60209283029190910190910152600101614024565b509392505050565b60606000826001600160401b03811115614097576140976152fa565b6040519080825280602002602001820160405280156140c0578160200160208202803683370190505b50905060005b83811015614073578481815181106140e0576140e061573b565b60200260200101518282815181106140fa576140fa61573b565b60209081029190910101526001016140c6565b600061411b86868686613c33565b90506000198114613a5157818110156141765760405162461bcd60e51b815260206004820152601b60248201527f444c543a20696e73756666696369656e7420616c6c6f77616e636500000000006044820152606401610abc565b613a5186868686868603613873565b6141928686868686614309565b6141a086868686868661494c565b613a515760405162461bcd60e51b8152600401610abc90615bd2565b600783900b60009081526040602081905281205490036141ea57603e600081546141e590615cbb565b909155505b600783810b60009081526041602090815260408083209386900b835292905290812054900361429d57600783900b6000908152603f60205260408120805490919061423490615cbb565b90915550600783810b60009081526042602090815260408083208054604384528285209588900b8552948352908320849055600184018155825290206004820401805460039092166008026101000a6001600160401b0381810219909316928516029190911790555b600783900b600090815260406020819052812080548392906142c0908490615728565b9091555050600783810b60009081526041602090815260408083209386900b835292905290812080548392906142f7908490615728565b9091555061386d905084848484614a17565b6001600160a01b03851661436b5760405162461bcd60e51b815260206004820152602360248201527f444c543a207472616e736665722066726f6d20746865207a65726f206164647260448201526265737360e81b6064820152608401610abc565b6001600160a01b0384166143915760405162461bcd60e51b8152600401610abc90615b12565b6040805160208082018352600091829052600786810b8352600482528383206001600160a01b038a16845282528383209086900b8352905220548111156143ea5760405162461bcd60e51b8152600401610abc90615b53565b600783810b60009081526004602090815260408083206001600160a01b03808b1685528184528285209588900b808652958452828520805488900390558916845282528083209383529290529081208054839290614449908490615728565b909155505060408051600784810b82526020820184905285900b916001600160a01b0380881692908916917fd3f5ba918fcf5f0ed2a6add09f440b150c54a8eba5a07bbba0695eea7bbf1efa910160405180910390a4610d95858585858560405180602001604052806000815250613c86565b6144c884848484614b72565b600783810b60009081526040602081815281832080548690039055604181528183209386900b835292909252908120805483900390819055900361465757600783900b6000908152603f60205260408120805490919061452790615cd4565b90915550600783810b6000908152604260209081526040808320604383528184209487900b845293909152812054825490919083906145689060019061576e565b815481106145785761457861573b565b90600052602060002090600491828204019190066008029054906101000a900460070b9050808383815481106145b0576145b061573b565b600091825260208083206004830401805460039093166008026101000a6001600160401b03818102199094169590931692909202939093179055600788810b825260438352604080832085830b845290935282822085905587900b815290812055825483908061462257614622615ceb565b60008281526020902060046000199092019182040180546001600160401b03600860038516026101000a021916905590555050505b600783900b600090815260406020819052812054900361386d57603e6000815461468090615cd4565b9091555050505050565b7ff0c57e16840df040f15088dc2f81fe391c3923bec73e23a9662efc9c229c6a0054600160401b900460ff166119be57604051631afcd79f60e31b815260040160405180910390fd5b612ab361468a565b6001600160a01b0383166000908152604660209081526040808320600786900b845282528083208054825181850281018501909352808352919290919083018282801561476a57602002820191906000526020600020906000905b825461010083900a900460070b81526020600f83018190049384019360010360089093019290920291018084116147365790505b5050505050905060005b8151811015610d955760008282815181106147915761479161573b565b6020026020010151905060006147a887878461092b565b90508015614942578460800151811061487e578585600001518660a00151815181106147d6576147d661573b565b602002602001019060070b908160070b815250508185602001518660a00151815181106148055761480561573b565b602002602001019060070b908160070b81525050846080015185604001518660a00151815181106148385761483861573b565b60200260200101818152505084608001518560600181815161485a9190615728565b90525060a0850180519061486d82615cbb565b905250506000608085015250610d95565b8585600001518660a00151815181106148995761489961573b565b602002602001019060070b908160070b815250508185602001518660a00151815181106148c8576148c861573b565b602002602001019060070b908160070b815250508085604001518660a00151815181106148f7576148f761573b565b60200260200101818152505080856060018181516149159190615728565b90525060a0850180519061492882615cbb565b81525050808560800181815161493e919061576e565b9052505b5050600101614774565b60006001600160a01b0386163b15613f0557604051630f18968560e01b81526001600160a01b03871690630f189685906149949033908b908a908a908a908a90600401615d01565b6020604051808303816000875af19250505080156149cf575060408051601f3d908101601f191682019092526149cc91810190615c91565b60015b6149fd573d808015613ebc576040519150601f19603f3d011682016040523d82523d6000602084013e613ec1565b6001600160e01b031916630f18968560e01b149050611b62565b6001600160a01b038416614a6d5760405162461bcd60e51b815260206004820152601d60248201527f444c543a206d696e7420746f20746865207a65726f20616464726573730000006044820152606401610abc565b80600003614ab55760405162461bcd60e51b81526020600482015260156024820152741113150e881b5a5b9d081e995c9bc8185b5bdd5b9d605a1b6044820152606401610abc565b6040805160208082018352600091829052600786810b8352600482528383206001600160a01b038916845282528383209086900b835290529081208054839290614b00908490615728565b909155505060408051600784810b82526020820184905285900b916001600160a01b038716916000917fd3f5ba918fcf5f0ed2a6add09f440b150c54a8eba5a07bbba0695eea7bbf1efa910160405180910390a461386d60008585858560405180602001604052806000815250613c86565b6001600160a01b038416614bc85760405162461bcd60e51b815260206004820152601f60248201527f444c543a206275726e2066726f6d20746865207a65726f2061646472657373006044820152606401610abc565b80600003614c105760405162461bcd60e51b81526020600482015260156024820152741113150e88189d5c9b881e995c9bc8185b5bdd5b9d605a1b6044820152606401610abc565b600783810b60009081526004602090815260408083206001600160a01b038916845282528083209386900b8352929052205481811015614c925760405162461bcd60e51b815260206004820152601960248201527f444c543a20696e73756666696369656e742062616c616e6365000000000000006044820152606401610abc565b6040805160208082018352600091829052600787810b808452600483528484206001600160a01b038b168086529084528585209289900b808652928452858520805489900390558551928352928201879052845190947fd3f5ba918fcf5f0ed2a6add09f440b150c54a8eba5a07bbba0695eea7bbf1efa928290030190a4610d9585600086868660405180602001604052806000815250613c86565b80356001600160a01b0381168114614d4557600080fd5b919050565b8035600781900b8114614d4557600080fd5b600080600060608486031215614d7157600080fd5b614d7a84614d2e565b9250614d8860208501614d4a565b9150614d9660408501614d4a565b90509250925092565b600060208284031215614db157600080fd5b610a8e82614d4a565b60008151808452602080850194506020840160005b83811015614dee57815160070b87529582019590820190600101614dcf565b509495945050505050565b602081526000610a8e6020830184614dba565b6000815180845260005b81811015614e3257602081850181015186830182015201614e16565b506000602082860101526020601f19601f83011685010191505092915050565b602081526000610a8e6020830184614e0c565b60008060408385031215614e7857600080fd5b614e8183614d2e565b946020939093013593505050565b60008083601f840112614ea157600080fd5b5081356001600160401b03811115614eb857600080fd5b6020830191508360208260051b8501011115614ed357600080fd5b9250929050565b60008083601f840112614eec57600080fd5b5081356001600160401b03811115614f0357600080fd5b602083019150836020828501011115614ed357600080fd5b60008060008060008060008060008060c08b8d031215614f3a57600080fd5b614f438b614d2e565b9950614f5160208c01614d2e565b985060408b01356001600160401b0380821115614f6d57600080fd5b614f798e838f01614e8f565b909a50985060608d0135915080821115614f9257600080fd5b614f9e8e838f01614e8f565b909850965060808d0135915080821115614fb757600080fd5b614fc38e838f01614e8f565b909650945060a08d0135915080821115614fdc57600080fd5b50614fe98d828e01614eda565b915080935050809150509295989b9194979a5092959850565b60006020828403121561501457600080fd5b610a8e82614d2e565b6000806000806040858703121561503357600080fd5b84356001600160401b038082111561504a57600080fd5b61505688838901614e8f565b9096509450602087013591508082111561506f57600080fd5b5061507c87828801614e8f565b95989497509550505050565b6000806040838503121561509b57600080fd5b6150a483614d2e565b91506150b260208401614d4a565b90509250929050565b6000806000606084860312156150d057600080fd5b6150d984614d2e565b92506150e760208501614d2e565b9150604084013590509250925092565b600080600080600060a0868803121561510f57600080fd5b61511886614d2e565b945061512660208701614d2e565b935061513460408701614d4a565b925061514260608701614d4a565b949793965091946080013592915050565b6000806000806000806060878903121561516c57600080fd5b86356001600160401b038082111561518357600080fd5b61518f8a838b01614e8f565b909850965060208901359150808211156151a857600080fd5b6151b48a838b01614e8f565b909650945060408901359150808211156151cd57600080fd5b506151da89828a01614e8f565b979a9699509497509295939492505050565b6000806000806000806000806080898b03121561520857600080fd5b88356001600160401b038082111561521f57600080fd5b61522b8c838d01614e8f565b909a50985060208b013591508082111561524457600080fd5b6152508c838d01614e8f565b909850965060408b013591508082111561526957600080fd5b6152758c838d01614e8f565b909650945060608b013591508082111561528e57600080fd5b5061529b8b828c01614e8f565b999c989b5096995094979396929594505050565b600080600080608085870312156152c557600080fd5b6152ce85614d2e565b93506152dc60208601614d4a565b92506152ea60408601614d4a565b9396929550929360600135925050565b634e487b7160e01b600052604160045260246000fd5b60006001600160401b038084111561532a5761532a6152fa565b604051601f8501601f19908116603f01168101908282118183101715615352576153526152fa565b8160405280935085815286868601111561536b57600080fd5b858560208301376000602087830101525050509392505050565b60008060008060008060c0878903121561539e57600080fd5b6153a787614d2e565b95506153b560208801614d2e565b94506153c360408801614d4a565b93506153d160608801614d4a565b92506080870135915060a08701356001600160401b038111156153f357600080fd5b8701601f8101891361540457600080fd5b61541389823560208401615310565b9150509295509295509295565b60008060006060848603121561543557600080fd5b61543e84614d2e565b925061544c60208501614d2e565b9150614d9660408501614d2e565b60008151808452602080850194506020840160005b83811015614dee5781518752958201959082019060010161546f565b602081526000610a8e602083018461545a565b8015158114612ae657600080fd5b600080604083850312156154bf57600080fd5b6154c883614d2e565b915060208301356154d88161549e565b809150509250929050565b600080602083850312156154f657600080fd5b82356001600160401b0381111561550c57600080fd5b61551885828601614eda565b90969095509350505050565b6000806040838503121561553757600080fd5b6150a483614d4a565b6000806040838503121561555357600080fd5b61555c83614d2e565b91506150b260208401614d2e565b6000806000806080858703121561558057600080fd5b61558985614d2e565b935061559760208601614d2e565b92506155a560408601614d4a565b91506155b360608601614d4a565b905092959194509250565b600082601f8301126155cf57600080fd5b610a8e83833560208501615310565b60008060008060008060c087890312156155f757600080fd5b61560087614d2e565b955061560e60208801614d2e565b945060408701356001600160401b038082111561562a57600080fd5b6156368a838b016155be565b9550606089013591508082111561564c57600080fd5b5061565989828a016155be565b935050608087013560ff8116811461567057600080fd5b915061567e60a08801614d2e565b90509295509295509295565b600181811c9082168061569e57607f821691505b6020821081036156be57634e487b7160e01b600052602260045260246000fd5b50919050565b6020808252602e908201527f4167656e74526f6c653a2063616c6c657220646f6573206e6f7420686176652060408201526d746865204167656e7420726f6c6560901b606082015260800190565b634e487b7160e01b600052601160045260246000fd5b80820180821115610a9157610a91615712565b634e487b7160e01b600052603260045260246000fd5b60006020828403121561576357600080fd5b813561095e8161549e565b81810381811115610a9157610a91615712565b60208082526010908201526f14185d5cd8589b194e881c185d5cd95960821b604082015260600190565b6000602082840312156157bd57600080fd5b815161095e8161549e565b6001600160a01b039384168152919092166020820152604081019190915260600190565b60008083546157fa8161568a565b60018281168015615812576001811461582757615856565b60ff1984168752821515830287019450615856565b8760005260208060002060005b8581101561584d5781548a820152908401908201615834565b50505082870194505b50929695505050505050565b60ff8316815260406020820152600061587e6040830184614e0c565b949350505050565b6020808252601f908201527f696e76616c696420617267756d656e74202d207a65726f206164647265737300604082015260600190565b6000602082840312156158cf57600080fd5b815161ffff8116811461095e57600080fd5b60208152816020820152818360408301376000818301604090810191909152601f909201601f19160101919050565b6020808252601f908201527f696e76616c696420617267756d656e74202d20656d70747920737472696e6700604082015260600190565b601f82111561598f576000816000526020600020601f850160051c810160208610156159705750805b601f850160051c820191505b81811015613a515782815560010161597c565b505050565b6001600160401b038311156159ab576159ab6152fa565b6159bf836159b9835461568a565b83615947565b6000601f8411600181146159f357600085156159db5750838201355b600019600387901b1c1916600186901b178355610d95565b600083815260209020601f19861690835b82811015615a245786850135825560209485019460019092019101615a04565b5086821015615a415760001960f88860031b161c19848701351681555b505060018560011b0183555050505050565b81516001600160401b03811115615a6c57615a6c6152fa565b615a8081615a7a845461568a565b84615947565b602080601f831160018114615ab55760008415615a9d5750858301515b600019600386901b1c1916600185901b178555613a51565b600085815260208120601f198616915b82811015615ae457888601518255948401946001909101908401615ac5565b5085821015615b025787850151600019600388901b60f8161c191681555b5050505050600190811b01905550565b60208082526021908201527f444c543a207472616e7366657220746f20746865207a65726f206164647265736040820152607360f81b606082015260800190565b60208082526026908201527f444c543a20696e73756666696369656e742062616c616e636520666f7220747260408201526530b739b332b960d11b606082015260800190565b606081526000615bac6060830186614dba565b8281036020840152615bbe8186614dba565b90508281036040840152611b62818561545a565b6020808252602c908201527f444c543a207472616e7366657220746f206e6f6e20444c54526563656976657260408201526b1034b6b83632b6b2b73a32b960a11b606082015260800190565b6001600160a01b0387811682528616602082015260c060408201819052600090615c4a90830187614dba565b8281036060840152615c5c8187614dba565b90508281036080840152615c70818661545a565b905082810360a0840152615c848185614e0c565b9998505050505050505050565b600060208284031215615ca357600080fd5b81516001600160e01b03198116811461095e57600080fd5b600060018201615ccd57615ccd615712565b5060010190565b600081615ce357615ce3615712565b506000190190565b634e487b7160e01b600052603160045260246000fd5b6001600160a01b03878116825286166020820152600785810b604083015284900b60608201526080810183905260c060a08201819052600090615d4690830184614e0c565b9897505050505050505056fea2646970667358221220766bb5bf1afce2bbded31b8d9edae46dab9eb27b6fbee695fc9914b8958eae0464736f6c63430008180033",
  "linkReferences": {},
  "deployedLinkReferences": {}
}