{
  "_format": "hh-sol-artifact-1",
  "contractName": "TransferLimitOneHundredModule",
  "sourceName": "contracts/erc3643/compliance/modular/modules/TransferLimitOneHundredModule.sol",
  "abi": [
    {
      "anonymous": false,
      "inputs": [
        {
          "indexed": true,
          "internalType": "address",
          "name": "_compliance",
          "type": "address"
        }
      ],
      "name": "ComplianceBound",
      "type": "event"
    },
    {
      "anonymous": false,
      "inputs": [
        {
          "indexed": true,
          "internalType": "address",
          "name": "_compliance",
          "type": "address"
        }
      ],
      "name": "ComplianceUnbound",
      "type": "event"
    },
    {
      "inputs": [
        {
          "internalType": "address",
          "name": "_compliance",
          "type": "address"
        }
      ],
      "name": "bindCompliance",
      "outputs": [],
      "stateMutability": "nonpayable",
      "type": "function"
    },
    {
      "inputs": [
        {
          "internalType": "address",
          "name": "",
          "type": "address"
        }
      ],
      "name": "canComplianceBind",
      "outputs": [
        {
          "internalType": "bool",
          "name": "",
          "type": "bool"
        }
      ],
      "stateMutability": "view",
      "type": "function"
    },
    {
      "inputs": [
        {
          "internalType": "address",
          "name": "_compliance",
          "type": "address"
        }
      ],
      "name": "isComplianceBound",
      "outputs": [
        {
          "internalType": "bool",
          "name": "",
          "type": "bool"
        }
      ],
      "stateMutability": "view",
      "type": "function"
    },
    {
      "inputs": [],
      "name": "isPlugAndPlay",
      "outputs": [
        {
          "internalType": "bool",
          "name": "",
          "type": "bool"
        }
      ],
      "stateMutability": "pure",
      "type": "function"
    },
    {
      "inputs": [
        {
          "internalType": "address",
          "name": "_from",
          "type": "address"
        },
        {
          "internalType": "uint256",
          "name": "_value",
          "type": "uint256"
        }
      ],
      "name": "moduleBurnAction",
      "outputs": [],
      "stateMutability": "nonpayable",
      "type": "function"
    },
    {
      "inputs": [
        {
          "internalType": "address",
          "name": "",
          "type": "address"
        },
        {
          "internalType": "address",
          "name": "_to",
          "type": "address"
        },
        {
          "internalType": "uint256",
          "name": "",
          "type": "uint256"
        },
        {
          "internalType": "address",
          "name": "_compliance",
          "type": "address"
        }
      ],
      "name": "moduleCheck",
      "outputs": [
        {
          "internalType": "bool",
          "name": "",
          "type": "bool"
        }
      ],
      "stateMutability": "view",
      "type": "function"
    },
    {
      "inputs": [
        {
          "internalType": "address",
          "name": "_to",
          "type": "address"
        },
        {
          "internalType": "uint256",
          "name": "_value",
          "type": "uint256"
        }
      ],
      "name": "moduleMintAction",
      "outputs": [],
      "stateMutability": "nonpayable",
      "type": "function"
    },
    {
      "inputs": [
        {
          "internalType": "address",
          "name": "_from",
          "type": "address"
        },
        {
          "internalType": "address",
          "name": "_to",
          "type": "address"
        },
        {
          "internalType": "uint256",
          "name": "_value",
          "type": "uint256"
        }
      ],
      "name": "moduleTransferAction",
      "outputs": [],
      "stateMutability": "nonpayable",
      "type": "function"
    },
    {
      "inputs": [],
      "name": "name",
      "outputs": [
        {
          "internalType": "string",
          "name": "_name",
          "type": "string"
        }
      ],
      "stateMutability": "pure",
      "type": "function"
    },
    {
      "inputs": [
        {
          "internalType": "address",
          "name": "_compliance",
          "type": "address"
        }
      ],
      "name": "unbindCompliance",
      "outputs": [],
      "stateMutability": "nonpayable",
      "type": "function"
    }
  ],
  "bytecode": "0x608060405234801561001057600080fd5b506108b2806100206000396000f3fe608060405234801561001057600080fd5b506004361061009e5760003560e01c80634a932544116100665780634a9325441461014a5780634cf4d2951461015d578063bcc2105314610189578063e6f5e8071461019d578063f104a8c91461013757600080fd5b8063013b7ce4146100a35780630694a5fb146100d057806306fdde03146100e55780632cb7e1ec14610124578063372491a214610137575b600080fd5b6100bb6100b1366004610538565b6001949350505050565b60405190151581526020015b60405180910390f35b6100e36100de36600461058b565b6101a4565b005b604080518082018252601d81527f5472616e736665724c696d69744f6e6548756e647265644d6f64756c65000000602082015290516100c791906105af565b6100e36101323660046105fe565b610273565b6100e361014536600461063f565b6103ef565b6100e361015836600461058b565b610422565b6100bb61016b36600461058b565b6001600160a01b031660009081526020819052604090205460ff1690565b6100bb61019736600461058b565b50600190565b60016100bb565b3360009081526020819052604090205460ff166101dc5760405162461bcd60e51b81526004016101d39061066b565b60405180910390fd5b6001600160a01b0381166102025760405162461bcd60e51b81526004016101d3906106a2565b336001600160a01b0382161461022a5760405162461bcd60e51b81526004016101d3906106d9565b6001600160a01b038116600081815260208190526040808220805460ff19169055517f408b49d9be1c914c52a0227e18a077e5a892dddf32a26cfa94a5d9708fad77189190a250565b3360009081526020819052604090205460ff166102a25760405162461bcd60e51b81526004016101d39061066b565b6000336001600160a01b0316636a3edf286040518163ffffffff1660e01b8152600401602060405180830381865afa1580156102e2573d6000803e3d6000fd5b505050506040513d601f19601f82011682018060405250810190610306919061071a565b90506000816001600160a01b031663313ce5676040518163ffffffff1660e01b8152600401602060405180830381865afa158015610348573d6000803e3d6000fd5b505050506040513d601f19601f8201168201806040525081019061036c9190610737565b61037790600a610856565b610382906064610865565b9050808311156103e85760405162461bcd60e51b815260206004820152602b60248201527f5472616e7366657220616d6f756e74206d757374206265206f6e652068756e6460448201526a726564206f72206c65737360a81b60648201526084016101d3565b5050505050565b3360009081526020819052604090205460ff1661041e5760405162461bcd60e51b81526004016101d39061066b565b5050565b6001600160a01b0381166104485760405162461bcd60e51b81526004016101d3906106a2565b6001600160a01b03811660009081526020819052604090205460ff16156104ac5760405162461bcd60e51b815260206004820152601860248201527718dbdb5c1b1a585b98d948185b1c9958591e48189bdd5b9960421b60448201526064016101d3565b336001600160a01b038216146104d45760405162461bcd60e51b81526004016101d3906106d9565b6001600160a01b038116600081815260208190526040808220805460ff19166001179055517f1f7b76c58fb697eb53c6c7c1becb96911516a136e24d7ced386b2355358b75a39190a250565b6001600160a01b038116811461053557600080fd5b50565b6000806000806080858703121561054e57600080fd5b843561055981610520565b9350602085013561056981610520565b925060408501359150606085013561058081610520565b939692955090935050565b60006020828403121561059d57600080fd5b81356105a881610520565b9392505050565b60006020808352835180602085015260005b818110156105dd578581018301518582016040015282016105c1565b506000604082860101526040601f19601f8301168501019250505092915050565b60008060006060848603121561061357600080fd5b833561061e81610520565b9250602084013561062e81610520565b929592945050506040919091013590565b6000806040838503121561065257600080fd5b823561065d81610520565b946020939093013593505050565b6020808252601e908201527f6f6e6c7920626f756e6420636f6d706c69616e63652063616e2063616c6c0000604082015260600190565b6020808252601f908201527f696e76616c696420617267756d656e74202d207a65726f206164647265737300604082015260600190565b60208082526021908201527f6f6e6c7920636f6d706c69616e636520636f6e74726163742063616e2063616c6040820152601b60fa1b606082015260800190565b60006020828403121561072c57600080fd5b81516105a881610520565b60006020828403121561074957600080fd5b815160ff811681146105a857600080fd5b634e487b7160e01b600052601160045260246000fd5b600181815b808511156107ab5781600019048211156107915761079161075a565b8085161561079e57918102915b93841c9390800290610775565b509250929050565b6000826107c257506001610850565b816107cf57506000610850565b81600181146107e557600281146107ef5761080b565b6001915050610850565b60ff8411156108005761080061075a565b50506001821b610850565b5060208310610133831016604e8410600b841016171561082e575081810a610850565b6108388383610770565b806000190482111561084c5761084c61075a565b0290505b92915050565b60006105a860ff8416836107b3565b80820281158282048414176108505761085061075a56fea26469706673582212208a350a2c4ec215790ad715c686a77d7ca91018379505b16d04ec8aa8935ad1dd64736f6c63430008180033",
  "linkReferences": {},
  "deployedLinkReferences": {}
}