{
  "_format": "hh-sol-artifact-1",
  "contractName": "TransferFeesModule",
  "sourceName": "contracts/erc3643/compliance/modular/modules/TransferFeesModule.sol",
  "abi": [
    {
      "inputs": [],
      "stateMutability": "nonpayable",
      "type": "constructor"
    },
    {
      "inputs": [
        {
          "internalType": "address",
          "name": "compliance",
          "type": "address"
        },
        {
          "internalType": "address",
          "name": "collector",
          "type": "address"
        }
      ],
      "name": "CollectorAddressIsNotVerified",
      "type": "error"
    },
    {
      "inputs": [
        {
          "internalType": "address",
          "name": "compliance",
          "type": "address"
        },
        {
          "internalType": "uint256",
          "name": "rate",
          "type": "uint256"
        }
      ],
      "name": "FeeRateIsOutOfRange",
      "type": "error"
    },
    {
      "inputs": [
        {
          "internalType": "address",
          "name": "owner",
          "type": "address"
        }
      ],
      "name": "OwnableInvalidOwner",
      "type": "error"
    },
    {
      "inputs": [
        {
          "internalType": "address",
          "name": "account",
          "type": "address"
        }
      ],
      "name": "OwnableUnauthorizedAccount",
      "type": "error"
    },
    {
      "anonymous": false,
      "inputs": [
        {
          "indexed": true,
          "internalType": "address",
          "name": "_compliance",
          "type": "address"
        }
      ],
      "name": "ComplianceBound",
      "type": "event"
    },
    {
      "anonymous": false,
      "inputs": [
        {
          "indexed": true,
          "internalType": "address",
          "name": "_compliance",
          "type": "address"
        }
      ],
      "name": "ComplianceUnbound",
      "type": "event"
    },
    {
      "anonymous": false,
      "inputs": [
        {
          "indexed": true,
          "internalType": "address",
          "name": "compliance",
          "type": "address"
        },
        {
          "indexed": false,
          "internalType": "uint256",
          "name": "_rate",
          "type": "uint256"
        },
        {
          "indexed": false,
          "internalType": "address",
          "name": "_collector",
          "type": "address"
        }
      ],
      "name": "FeeUpdated",
      "type": "event"
    },
    {
      "anonymous": false,
      "inputs": [
        {
          "indexed": true,
          "internalType": "address",
          "name": "previousOwner",
          "type": "address"
        },
        {
          "indexed": true,
          "internalType": "address",
          "name": "newOwner",
          "type": "address"
        }
      ],
      "name": "OwnershipTransferred",
      "type": "event"
    },
    {
      "inputs": [
        {
          "internalType": "address",
          "name": "_compliance",
          "type": "address"
        }
      ],
      "name": "bindCompliance",
      "outputs": [],
      "stateMutability": "nonpayable",
      "type": "function"
    },
    {
      "inputs": [
        {
          "internalType": "address",
          "name": "_compliance",
          "type": "address"
        }
      ],
      "name": "canComplianceBind",
      "outputs": [
        {
          "internalType": "bool",
          "name": "",
          "type": "bool"
        }
      ],
      "stateMutability": "view",
      "type": "function"
    },
    {
      "inputs": [
        {
          "internalType": "address",
          "name": "_compliance",
          "type": "address"
        }
      ],
      "name": "getFee",
      "outputs": [
        {
          "components": [
            {
              "internalType": "uint256",
              "name": "rate",
              "type": "uint256"
            },
            {
              "internalType": "address",
              "name": "collector",
              "type": "address"
            }
          ],
          "internalType": "struct TransferFeesModule.Fee",
          "name": "",
          "type": "tuple"
        }
      ],
      "stateMutability": "view",
      "type": "function"
    },
    {
      "inputs": [
        {
          "internalType": "address",
          "name": "_compliance",
          "type": "address"
        }
      ],
      "name": "isComplianceBound",
      "outputs": [
        {
          "internalType": "bool",
          "name": "",
          "type": "bool"
        }
      ],
      "stateMutability": "view",
      "type": "function"
    },
    {
      "inputs": [],
      "name": "isPlugAndPlay",
      "outputs": [
        {
          "internalType": "bool",
          "name": "",
          "type": "bool"
        }
      ],
      "stateMutability": "pure",
      "type": "function"
    },
    {
      "inputs": [
        {
          "internalType": "address",
          "name": "_from",
          "type": "address"
        },
        {
          "internalType": "uint256",
          "name": "_value",
          "type": "uint256"
        }
      ],
      "name": "moduleBurnAction",
      "outputs": [],
      "stateMutability": "nonpayable",
      "type": "function"
    },
    {
      "inputs": [
        {
          "internalType": "address",
          "name": "_from",
          "type": "address"
        },
        {
          "internalType": "address",
          "name": "_to",
          "type": "address"
        },
        {
          "internalType": "uint256",
          "name": "_value",
          "type": "uint256"
        },
        {
          "internalType": "address",
          "name": "_compliance",
          "type": "address"
        }
      ],
      "name": "moduleCheck",
      "outputs": [
        {
          "internalType": "bool",
          "name": "",
          "type": "bool"
        }
      ],
      "stateMutability": "view",
      "type": "function"
    },
    {
      "inputs": [
        {
          "internalType": "address",
          "name": "_to",
          "type": "address"
        },
        {
          "internalType": "uint256",
          "name": "_value",
          "type": "uint256"
        }
      ],
      "name": "moduleMintAction",
      "outputs": [],
      "stateMutability": "nonpayable",
      "type": "function"
    },
    {
      "inputs": [
        {
          "internalType": "address",
          "name": "_from",
          "type": "address"
        },
        {
          "internalType": "address",
          "name": "_to",
          "type": "address"
        },
        {
          "internalType": "uint256",
          "name": "_value",
          "type": "uint256"
        }
      ],
      "name": "moduleTransferAction",
      "outputs": [],
      "stateMutability": "nonpayable",
      "type": "function"
    },
    {
      "inputs": [],
      "name": "name",
      "outputs": [
        {
          "internalType": "string",
          "name": "_name",
          "type": "string"
        }
      ],
      "stateMutability": "pure",
      "type": "function"
    },
    {
      "inputs": [],
      "name": "owner",
      "outputs": [
        {
          "internalType": "address",
          "name": "",
          "type": "address"
        }
      ],
      "stateMutability": "view",
      "type": "function"
    },
    {
      "inputs": [],
      "name": "renounceOwnership",
      "outputs": [],
      "stateMutability": "nonpayable",
      "type": "function"
    },
    {
      "inputs": [
        {
          "internalType": "uint256",
          "name": "_rate",
          "type": "uint256"
        },
        {
          "internalType": "address",
          "name": "_collector",
          "type": "address"
        }
      ],
      "name": "setFee",
      "outputs": [],
      "stateMutability": "nonpayable",
      "type": "function"
    },
    {
      "inputs": [
        {
          "internalType": "address",
          "name": "newOwner",
          "type": "address"
        }
      ],
      "name": "transferOwnership",
      "outputs": [],
      "stateMutability": "nonpayable",
      "type": "function"
    },
    {
      "inputs": [
        {
          "internalType": "address",
          "name": "_compliance",
          "type": "address"
        }
      ],
      "name": "unbindCompliance",
      "outputs": [],
      "stateMutability": "nonpayable",
      "type": "function"
    }
  ],
  "bytecode": "0x608060405234801561001057600080fd5b50338061003757604051631e4fbdf760e01b81526000600482015260240160405180910390fd5b61004081610046565b50610098565b600180546001600160a01b038381166001600160a01b0319831681179093556040519116919082907f8be0079c531659141344cd1fd0a4f28419497f9722a3daafe3b4186f6b6457e090600090a35050565b610efc806100a76000396000f3fe608060405234801561001057600080fd5b50600436106100d55760003560e01c8063715018a611610087578063715018a6146101b55780638da5cb5b146101bd578063b4f2e8b8146101d6578063b88c9148146101e9578063bcc2105314610262578063e6f5e80714610275578063f104a8c914610163578063f2fde38b1461027c57600080fd5b8063013b7ce4146100da5780630694a5fb1461010757806306fdde031461011c5780632cb7e1ec14610150578063372491a2146101635780634a932544146101765780634cf4d29514610189575b600080fd5b6100f26100e8366004610c21565b6001949350505050565b60405190151581526020015b60405180910390f35b61011a610115366004610c74565b61028f565b005b60408051808201825260128152715472616e73666572466565734d6f64756c6560701b602082015290516100fe9190610c91565b61011a61015e366004610ce0565b61035e565b61011a610171366004610d21565b6105c2565b61011a610184366004610c74565b6105f5565b6100f2610197366004610c74565b6001600160a01b031660009081526020819052604090205460ff1690565b61011a6106f3565b6001546001600160a01b03166040516100fe9190610d4d565b61011a6101e4366004610d61565b610707565b61023e6101f7366004610c74565b604080518082018252600080825260209182018190526001600160a01b03938416815260028252829020825180840190935280548352600101549092169181019190915290565b60408051825181526020928301516001600160a01b031692810192909252016100fe565b6100f2610270366004610c74565b610939565b60006100f2565b61011a61028a366004610c74565b610a15565b3360009081526020819052604090205460ff166102c75760405162461bcd60e51b81526004016102be90610d91565b60405180910390fd5b6001600160a01b0381166102ed5760405162461bcd60e51b81526004016102be90610dc8565b336001600160a01b038216146103155760405162461bcd60e51b81526004016102be90610dff565b6001600160a01b038116600081815260208190526040808220805460ff19169055517f408b49d9be1c914c52a0227e18a077e5a892dddf32a26cfa94a5d9708fad77189190a250565b3360009081526020819052604090205460ff1661038d5760405162461bcd60e51b81526004016102be90610d91565b60006103993385610a53565b905060006103a73385610a53565b9050806001600160a01b0316826001600160a01b0316036103c9575050505050565b33600090815260026020908152604091829020825180840190935280548084526001909101546001600160a01b0316918301919091521580610420575080602001516001600160a01b0316866001600160a01b0316145b80610440575080602001516001600160a01b0316856001600160a01b0316145b1561044d57505050505050565b8051600090612710906104609087610e40565b61046a9190610e65565b90508060000361047d5750505050505050565b6000336001600160a01b0316636a3edf286040518163ffffffff1660e01b8152600401602060405180830381865afa1580156104bd573d6000803e3d6000fd5b505050506040513d601f19601f820116820180604052508101906104e19190610e87565b6020840151604051639fc1d0e760e01b81526001600160a01b038a8116600483015291821660248201526044810185905291925060009190831690639fc1d0e7906064016020604051808303816000875af1158015610544573d6000803e3d6000fd5b505050506040513d601f19601f820116820180604052508101906105689190610ea4565b9050806105b75760405162461bcd60e51b815260206004820152601e60248201527f7472616e736665722066656520636f6c6c656374696f6e206661696c6564000060448201526064016102be565b505050505050505050565b3360009081526020819052604090205460ff166105f15760405162461bcd60e51b81526004016102be90610d91565b5050565b6001600160a01b03811661061b5760405162461bcd60e51b81526004016102be90610dc8565b6001600160a01b03811660009081526020819052604090205460ff161561067f5760405162461bcd60e51b815260206004820152601860248201527718dbdb5c1b1a585b98d948185b1c9958591e48189bdd5b9960421b60448201526064016102be565b336001600160a01b038216146106a75760405162461bcd60e51b81526004016102be90610dff565b6001600160a01b038116600081815260208190526040808220805460ff19166001179055517f1f7b76c58fb697eb53c6c7c1becb96911516a136e24d7ced386b2355358b75a39190a250565b6106fb610b8d565b6107056000610bba565b565b3360009081526020819052604090205460ff166107365760405162461bcd60e51b81526004016102be90610d91565b6000336001600160a01b0316636a3edf286040518163ffffffff1660e01b8152600401602060405180830381865afa158015610776573d6000803e3d6000fd5b505050506040513d601f19601f8201168201806040525081019061079a9190610e87565b90506127108311156107c857604051630e33b43d60e01b8152336004820152602481018490526044016102be565b6000816001600160a01b031663134e18f46040518163ffffffff1660e01b8152600401602060405180830381865afa158015610808573d6000803e3d6000fd5b505050506040513d601f19601f8201168201806040525081019061082c9190610e87565b60405163b9209e3360e01b81529091506001600160a01b0382169063b9209e339061085b908690600401610d4d565b602060405180830381865afa158015610878573d6000803e3d6000fd5b505050506040513d601f19601f8201168201806040525081019061089c9190610ea4565b6108ca57604051639bca970d60e01b81523360048201526001600160a01b03841660248201526044016102be565b3360008181526002602090815260409182902087815560010180546001600160a01b0319166001600160a01b0388169081179091558251888152918201527f47b231849a3ba3af6f4ec32a2da80e3106ab81fb5eca9ffde8b33ed2901af2b6910160405180910390a250505050565b600080826001600160a01b0316636a3edf286040518163ffffffff1660e01b8152600401602060405180830381865afa15801561097a573d6000803e3d6000fd5b505050506040513d601f19601f8201168201806040525081019061099e9190610e87565b6040516307feec1960e21b81529091506001600160a01b03821690631ffbb064906109cd903090600401610d4d565b602060405180830381865afa1580156109ea573d6000803e3d6000fd5b505050506040513d601f19601f82011682018060405250810190610a0e9190610ea4565b9392505050565b610a1d610b8d565b6001600160a01b038116610a47576000604051631e4fbdf760e01b81526004016102be9190610d4d565b610a5081610bba565b50565b6000826001600160a01b0316636a3edf286040518163ffffffff1660e01b8152600401602060405180830381865afa158015610a93573d6000803e3d6000fd5b505050506040513d601f19601f82011682018060405250810190610ab79190610e87565b6001600160a01b031663134e18f46040518163ffffffff1660e01b8152600401602060405180830381865afa158015610af4573d6000803e3d6000fd5b505050506040513d601f19601f82011682018060405250810190610b189190610e87565b6001600160a01b031663f0eb5e54836040518263ffffffff1660e01b8152600401610b439190610d4d565b602060405180830381865afa158015610b60573d6000803e3d6000fd5b505050506040513d601f19601f82011682018060405250810190610b849190610e87565b90505b92915050565b6001546001600160a01b03163314610705573360405163118cdaa760e01b81526004016102be9190610d4d565b600180546001600160a01b038381166001600160a01b0319831681179093556040519116919082907f8be0079c531659141344cd1fd0a4f28419497f9722a3daafe3b4186f6b6457e090600090a35050565b6001600160a01b0381168114610a5057600080fd5b60008060008060808587031215610c3757600080fd5b8435610c4281610c0c565b93506020850135610c5281610c0c565b9250604085013591506060850135610c6981610c0c565b939692955090935050565b600060208284031215610c8657600080fd5b8135610a0e81610c0c565b60006020808352835180602085015260005b81811015610cbf57858101830151858201604001528201610ca3565b506000604082860101526040601f19601f8301168501019250505092915050565b600080600060608486031215610cf557600080fd5b8335610d0081610c0c565b92506020840135610d1081610c0c565b929592945050506040919091013590565b60008060408385031215610d3457600080fd5b8235610d3f81610c0c565b946020939093013593505050565b6001600160a01b0391909116815260200190565b60008060408385031215610d7457600080fd5b823591506020830135610d8681610c0c565b809150509250929050565b6020808252601e908201527f6f6e6c7920626f756e6420636f6d706c69616e63652063616e2063616c6c0000604082015260600190565b6020808252601f908201527f696e76616c696420617267756d656e74202d207a65726f206164647265737300604082015260600190565b60208082526021908201527f6f6e6c7920636f6d706c69616e636520636f6e74726163742063616e2063616c6040820152601b60fa1b606082015260800190565b8082028115828204841417610b8757634e487b7160e01b600052601160045260246000fd5b600082610e8257634e487b7160e01b600052601260045260246000fd5b500490565b600060208284031215610e9957600080fd5b8151610a0e81610c0c565b600060208284031215610eb657600080fd5b81518015158114610a0e57600080fdfea2646970667358221220c1f18fcf26ad4d14621f97bbb0de1d8d1c64ca0bf66ecfb1b989264cb36c908b64736f6c63430008180033",
  "linkReferences": {},
  "deployedLinkReferences": {}
}