{
  "_format": "hh-sol-artifact-1",
  "contractName": "TransferRestrictModule",
  "sourceName": "contracts/erc3643/compliance/modular/modules/TransferRestrictModule.sol",
  "abi": [
    {
      "anonymous": false,
      "inputs": [
        {
          "indexed": true,
          "internalType": "address",
          "name": "_compliance",
          "type": "address"
        }
      ],
      "name": "ComplianceBound",
      "type": "event"
    },
    {
      "anonymous": false,
      "inputs": [
        {
          "indexed": true,
          "internalType": "address",
          "name": "_compliance",
          "type": "address"
        }
      ],
      "name": "ComplianceUnbound",
      "type": "event"
    },
    {
      "anonymous": false,
      "inputs": [
        {
          "indexed": false,
          "internalType": "address",
          "name": "_compliance",
          "type": "address"
        },
        {
          "indexed": false,
          "internalType": "address",
          "name": "_userAddress",
          "type": "address"
        }
      ],
      "name": "UserAllowed",
      "type": "event"
    },
    {
      "anonymous": false,
      "inputs": [
        {
          "indexed": false,
          "internalType": "address",
          "name": "_compliance",
          "type": "address"
        },
        {
          "indexed": false,
          "internalType": "address",
          "name": "_userAddress",
          "type": "address"
        }
      ],
      "name": "UserDisallowed",
      "type": "event"
    },
    {
      "inputs": [
        {
          "internalType": "address",
          "name": "_userAddress",
          "type": "address"
        }
      ],
      "name": "allowUser",
      "outputs": [],
      "stateMutability": "nonpayable",
      "type": "function"
    },
    {
      "inputs": [
        {
          "internalType": "address[]",
          "name": "_userAddresses",
          "type": "address[]"
        }
      ],
      "name": "batchAllowUsers",
      "outputs": [],
      "stateMutability": "nonpayable",
      "type": "function"
    },
    {
      "inputs": [
        {
          "internalType": "address[]",
          "name": "_userAddresses",
          "type": "address[]"
        }
      ],
      "name": "batchDisallowUsers",
      "outputs": [],
      "stateMutability": "nonpayable",
      "type": "function"
    },
    {
      "inputs": [
        {
          "internalType": "address",
          "name": "_compliance",
          "type": "address"
        }
      ],
      "name": "bindCompliance",
      "outputs": [],
      "stateMutability": "nonpayable",
      "type": "function"
    },
    {
      "inputs": [
        {
          "internalType": "address",
          "name": "",
          "type": "address"
        }
      ],
      "name": "canComplianceBind",
      "outputs": [
        {
          "internalType": "bool",
          "name": "",
          "type": "bool"
        }
      ],
      "stateMutability": "view",
      "type": "function"
    },
    {
      "inputs": [
        {
          "internalType": "address",
          "name": "_userAddress",
          "type": "address"
        }
      ],
      "name": "disallowUser",
      "outputs": [],
      "stateMutability": "nonpayable",
      "type": "function"
    },
    {
      "inputs": [
        {
          "internalType": "address",
          "name": "_compliance",
          "type": "address"
        }
      ],
      "name": "isComplianceBound",
      "outputs": [
        {
          "internalType": "bool",
          "name": "",
          "type": "bool"
        }
      ],
      "stateMutability": "view",
      "type": "function"
    },
    {
      "inputs": [],
      "name": "isPlugAndPlay",
      "outputs": [
        {
          "internalType": "bool",
          "name": "",
          "type": "bool"
        }
      ],
      "stateMutability": "pure",
      "type": "function"
    },
    {
      "inputs": [
        {
          "internalType": "address",
          "name": "_compliance",
          "type": "address"
        },
        {
          "internalType": "address",
          "name": "_userAddress",
          "type": "address"
        }
      ],
      "name": "isUserAllowed",
      "outputs": [
        {
          "internalType": "bool",
          "name": "",
          "type": "bool"
        }
      ],
      "stateMutability": "view",
      "type": "function"
    },
    {
      "inputs": [
        {
          "internalType": "address",
          "name": "_from",
          "type": "address"
        },
        {
          "internalType": "uint256",
          "name": "_value",
          "type": "uint256"
        }
      ],
      "name": "moduleBurnAction",
      "outputs": [],
      "stateMutability": "nonpayable",
      "type": "function"
    },
    {
      "inputs": [
        {
          "internalType": "address",
          "name": "_from",
          "type": "address"
        },
        {
          "internalType": "address",
          "name": "_to",
          "type": "address"
        },
        {
          "internalType": "uint256",
          "name": "",
          "type": "uint256"
        },
        {
          "internalType": "address",
          "name": "_compliance",
          "type": "address"
        }
      ],
      "name": "moduleCheck",
      "outputs": [
        {
          "internalType": "bool",
          "name": "",
          "type": "bool"
        }
      ],
      "stateMutability": "view",
      "type": "function"
    },
    {
      "inputs": [
        {
          "internalType": "address",
          "name": "_to",
          "type": "address"
        },
        {
          "internalType": "uint256",
          "name": "_value",
          "type": "uint256"
        }
      ],
      "name": "moduleMintAction",
      "outputs": [],
      "stateMutability": "nonpayable",
      "type": "function"
    },
    {
      "inputs": [
        {
          "internalType": "address",
          "name": "_from",
          "type": "address"
        },
        {
          "internalType": "address",
          "name": "_to",
          "type": "address"
        },
        {
          "internalType": "uint256",
          "name": "_value",
          "type": "uint256"
        }
      ],
      "name": "moduleTransferAction",
      "outputs": [],
      "stateMutability": "nonpayable",
      "type": "function"
    },
    {
      "inputs": [],
      "name": "name",
      "outputs": [
        {
          "internalType": "string",
          "name": "_name",
          "type": "string"
        }
      ],
      "stateMutability": "pure",
      "type": "function"
    },
    {
      "inputs": [
        {
          "internalType": "address",
          "name": "_compliance",
          "type": "address"
        }
      ],
      "name": "unbindCompliance",
      "outputs": [],
      "stateMutability": "nonpayable",
      "type": "function"
    }
  ],
  "bytecode": "0x608060405234801561001057600080fd5b50610b10806100206000396000f3fe608060405234801561001057600080fd5b50600436106100d55760003560e01c80634cf4d295116100875780634cf4d2951461019b57806358591fb7146101c7578063726bb465146101da578063771c456f146101ed578063a9fb3b3514610200578063bcc210531461023c578063e6f5e80714610250578063f104a8c91461017557600080fd5b8063013b7ce4146100da5780630694a5fb1461010257806306fdde03146101175780632cb7e1ec1461014f57806332bb1f1614610162578063372491a2146101755780634a93254414610188575b600080fd5b6100ed6100e83660046107c9565b610257565b60405190151581526020015b60405180910390f35b610115610110366004610816565b6102c2565b005b60408051808201825260168152755472616e7366657252657374726963744d6f64756c6560501b602082015290516100f99190610838565b61011561015d366004610887565b610391565b6101156101703660046108d9565b6103c5565b61011561018336600461099e565b61048d565b610115610196366004610816565b6104c0565b6100ed6101a9366004610816565b6001600160a01b031660009081526020819052604090205460ff1690565b6101156101d5366004610816565b6105be565b6101156101e83660046108d9565b610653565b6101156101fb366004610816565b610720565b6100ed61020e3660046109c8565b6001600160a01b03918216600090815260016020908152604080832093909416825291909152205460ff1690565b6100ed61024a366004610816565b50600190565b60016100ed565b6001600160a01b03808216600090815260016020908152604080832093881683529290529081205460ff161561028f575060016102ba565b506001600160a01b0380821660009081526001602090815260408083209387168352929052205460ff165b949350505050565b3360009081526020819052604090205460ff166102fa5760405162461bcd60e51b81526004016102f1906109fb565b60405180910390fd5b6001600160a01b0381166103205760405162461bcd60e51b81526004016102f190610a32565b336001600160a01b038216146103485760405162461bcd60e51b81526004016102f190610a69565b6001600160a01b038116600081815260208190526040808220805460ff19169055517f408b49d9be1c914c52a0227e18a077e5a892dddf32a26cfa94a5d9708fad77189190a250565b3360009081526020819052604090205460ff166103c05760405162461bcd60e51b81526004016102f1906109fb565b505050565b3360009081526020819052604090205460ff166103f45760405162461bcd60e51b81526004016102f1906109fb565b805160005b818110156103c057600083828151811061041557610415610aaa565b6020908102919091018101513360008181526001845260408082206001600160a01b0385168352909452839020805460ff1916905591519092507fe9ab2574b9b111f06f42baaa274030c7228b1dad45b248037101cd11de3482409161047c918490610ac0565b60405180910390a1506001016103f9565b3360009081526020819052604090205460ff166104bc5760405162461bcd60e51b81526004016102f1906109fb565b5050565b6001600160a01b0381166104e65760405162461bcd60e51b81526004016102f190610a32565b6001600160a01b03811660009081526020819052604090205460ff161561054a5760405162461bcd60e51b815260206004820152601860248201527718dbdb5c1b1a585b98d948185b1c9958591e48189bdd5b9960421b60448201526064016102f1565b336001600160a01b038216146105725760405162461bcd60e51b81526004016102f190610a69565b6001600160a01b038116600081815260208190526040808220805460ff19166001179055517f1f7b76c58fb697eb53c6c7c1becb96911516a136e24d7ced386b2355358b75a39190a250565b3360009081526020819052604090205460ff166105ed5760405162461bcd60e51b81526004016102f1906109fb565b3360008181526001602090815260408083206001600160a01b038616845290915290819020805460ff19169055517fe9ab2574b9b111f06f42baaa274030c7228b1dad45b248037101cd11de34824091610648918490610ac0565b60405180910390a150565b3360009081526020819052604090205460ff166106825760405162461bcd60e51b81526004016102f1906109fb565b805160005b818110156103c05760008382815181106106a3576106a3610aaa565b602090810291909101810151336000818152600180855260408083206001600160a01b038616845290955290849020805460ff1916909117905591519092507f767240d3c58c1058ed268ca225eb1cc93d85cf46b6e85d8d120b39921475b1c19161070f918490610ac0565b60405180910390a150600101610687565b3360009081526020819052604090205460ff1661074f5760405162461bcd60e51b81526004016102f1906109fb565b3360008181526001602081815260408084206001600160a01b038716855290915291829020805460ff19169091179055517f767240d3c58c1058ed268ca225eb1cc93d85cf46b6e85d8d120b39921475b1c191610648918490610ac0565b80356001600160a01b03811681146107c457600080fd5b919050565b600080600080608085870312156107df57600080fd5b6107e8856107ad565b93506107f6602086016107ad565b92506040850135915061080b606086016107ad565b905092959194509250565b60006020828403121561082857600080fd5b610831826107ad565b9392505050565b60006020808352835180602085015260005b818110156108665785810183015185820160400152820161084a565b506000604082860101526040601f19601f8301168501019250505092915050565b60008060006060848603121561089c57600080fd5b6108a5846107ad565b92506108b3602085016107ad565b9150604084013590509250925092565b634e487b7160e01b600052604160045260246000fd5b600060208083850312156108ec57600080fd5b823567ffffffffffffffff8082111561090457600080fd5b818501915085601f83011261091857600080fd5b81358181111561092a5761092a6108c3565b8060051b604051601f19603f8301168101818110858211171561094f5761094f6108c3565b60405291825284820192508381018501918883111561096d57600080fd5b938501935b8285101561099257610983856107ad565b84529385019392850192610972565b98975050505050505050565b600080604083850312156109b157600080fd5b6109ba836107ad565b946020939093013593505050565b600080604083850312156109db57600080fd5b6109e4836107ad565b91506109f2602084016107ad565b90509250929050565b6020808252601e908201527f6f6e6c7920626f756e6420636f6d706c69616e63652063616e2063616c6c0000604082015260600190565b6020808252601f908201527f696e76616c696420617267756d656e74202d207a65726f206164647265737300604082015260600190565b60208082526021908201527f6f6e6c7920636f6d706c69616e636520636f6e74726163742063616e2063616c6040820152601b60fa1b606082015260800190565b634e487b7160e01b600052603260045260246000fd5b6001600160a01b039283168152911660208201526040019056fea2646970667358221220ecfa231c16963c34953189cca6ab8a079e9283d20d83bb72e997d5955f229f0464736f6c63430008180033",
  "linkReferences": {},
  "deployedLinkReferences": {}
}