{
  "_format": "hh-sol-artifact-1",
  "contractName": "Treasury",
  "sourceName": "contracts/treasury/Treasury.sol",
  "abi": [
    {
      "inputs": [],
      "stateMutability": "nonpayable",
      "type": "constructor"
    },
    {
      "inputs": [],
      "name": "AccessControlBadConfirmation",
      "type": "error"
    },
    {
      "inputs": [
        {
          "internalType": "address",
          "name": "account",
          "type": "address"
        },
        {
          "internalType": "bytes32",
          "name": "neededRole",
          "type": "bytes32"
        }
      ],
      "name": "AccessControlUnauthorizedAccount",
      "type": "error"
    },
    {
      "inputs": [
        {
          "internalType": "address",
          "name": "target",
          "type": "address"
        }
      ],
      "name": "AddressEmptyCode",
      "type": "error"
    },
    {
      "inputs": [
        {
          "internalType": "address",
          "name": "account",
          "type": "address"
        }
      ],
      "name": "AddressInsufficientBalance",
      "type": "error"
    },
    {
      "inputs": [],
      "name": "FailedInnerCall",
      "type": "error"
    },
    {
      "inputs": [],
      "name": "InvalidInitialization",
      "type": "error"
    },
    {
      "inputs": [],
      "name": "NotInitializing",
      "type": "error"
    },
    {
      "inputs": [
        {
          "internalType": "address",
          "name": "token",
          "type": "address"
        }
      ],
      "name": "SafeERC20FailedOperation",
      "type": "error"
    },
    {
      "anonymous": false,
      "inputs": [
        {
          "indexed": true,
          "internalType": "address",
          "name": "from",
          "type": "address"
        },
        {
          "indexed": false,
          "internalType": "uint256",
          "name": "amount",
          "type": "uint256"
        }
      ],
      "name": "Deposit",
      "type": "event"
    },
    {
      "anonymous": false,
      "inputs": [
        {
          "indexed": false,
          "internalType": "uint256",
          "name": "amount",
          "type": "uint256"
        }
      ],
      "name": "ExcessFundsForwarded",
      "type": "event"
    },
    {
      "anonymous": false,
      "inputs": [
        {
          "indexed": false,
          "internalType": "uint256",
          "name": "toBusiness",
          "type": "uint256"
        },
        {
          "indexed": false,
          "internalType": "uint256",
          "name": "toTreasury",
          "type": "uint256"
        }
      ],
      "name": "FundsDistributed",
      "type": "event"
    },
    {
      "anonymous": false,
      "inputs": [
        {
          "indexed": false,
          "internalType": "uint64",
          "name": "version",
          "type": "uint64"
        }
      ],
      "name": "Initialized",
      "type": "event"
    },
    {
      "anonymous": false,
      "inputs": [
        {
          "indexed": true,
          "internalType": "address",
          "name": "to",
          "type": "address"
        },
        {
          "indexed": false,
          "internalType": "uint256",
          "name": "amount",
          "type": "uint256"
        }
      ],
      "name": "Payment",
      "type": "event"
    },
    {
      "anonymous": false,
      "inputs": [
        {
          "indexed": true,
          "internalType": "bytes32",
          "name": "role",
          "type": "bytes32"
        },
        {
          "indexed": true,
          "internalType": "bytes32",
          "name": "previousAdminRole",
          "type": "bytes32"
        },
        {
          "indexed": true,
          "internalType": "bytes32",
          "name": "newAdminRole",
          "type": "bytes32"
        }
      ],
      "name": "RoleAdminChanged",
      "type": "event"
    },
    {
      "anonymous": false,
      "inputs": [
        {
          "indexed": true,
          "internalType": "bytes32",
          "name": "role",
          "type": "bytes32"
        },
        {
          "indexed": true,
          "internalType": "address",
          "name": "account",
          "type": "address"
        },
        {
          "indexed": true,
          "internalType": "address",
          "name": "sender",
          "type": "address"
        }
      ],
      "name": "RoleGranted",
      "type": "event"
    },
    {
      "anonymous": false,
      "inputs": [
        {
          "indexed": true,
          "internalType": "bytes32",
          "name": "role",
          "type": "bytes32"
        },
        {
          "indexed": true,
          "internalType": "address",
          "name": "account",
          "type": "address"
        },
        {
          "indexed": true,
          "internalType": "address",
          "name": "sender",
          "type": "address"
        }
      ],
      "name": "RoleRevoked",
      "type": "event"
    },
    {
      "inputs": [],
      "name": "DEFAULT_ADMIN_ROLE",
      "outputs": [
        {
          "internalType": "bytes32",
          "name": "",
          "type": "bytes32"
        }
      ],
      "stateMutability": "view",
      "type": "function"
    },
    {
      "inputs": [],
      "name": "FACTORY_ROLE",
      "outputs": [
        {
          "internalType": "bytes32",
          "name": "",
          "type": "bytes32"
        }
      ],
      "stateMutability": "view",
      "type": "function"
    },
    {
      "inputs": [],
      "name": "GOVERNANCE_ROLE",
      "outputs": [
        {
          "internalType": "bytes32",
          "name": "",
          "type": "bytes32"
        }
      ],
      "stateMutability": "view",
      "type": "function"
    },
    {
      "inputs": [
        {
          "internalType": "uint256",
          "name": "amount",
          "type": "uint256"
        }
      ],
      "name": "deposit",
      "outputs": [],
      "stateMutability": "nonpayable",
      "type": "function"
    },
    {
      "inputs": [
        {
          "internalType": "bytes32",
          "name": "role",
          "type": "bytes32"
        }
      ],
      "name": "getRoleAdmin",
      "outputs": [
        {
          "internalType": "bytes32",
          "name": "",
          "type": "bytes32"
        }
      ],
      "stateMutability": "view",
      "type": "function"
    },
    {
      "inputs": [
        {
          "internalType": "address",
          "name": "factory",
          "type": "address"
        }
      ],
      "name": "grantFactoryRole",
      "outputs": [],
      "stateMutability": "nonpayable",
      "type": "function"
    },
    {
      "inputs": [
        {
          "internalType": "address",
          "name": "governance",
          "type": "address"
        }
      ],
      "name": "grantGovernanceRole",
      "outputs": [],
      "stateMutability": "nonpayable",
      "type": "function"
    },
    {
      "inputs": [
        {
          "internalType": "bytes32",
          "name": "role",
          "type": "bytes32"
        },
        {
          "internalType": "address",
          "name": "account",
          "type": "address"
        }
      ],
      "name": "grantRole",
      "outputs": [],
      "stateMutability": "nonpayable",
      "type": "function"
    },
    {
      "inputs": [
        {
          "internalType": "bytes32",
          "name": "role",
          "type": "bytes32"
        },
        {
          "internalType": "address",
          "name": "account",
          "type": "address"
        }
      ],
      "name": "hasRole",
      "outputs": [
        {
          "internalType": "bool",
          "name": "",
          "type": "bool"
        }
      ],
      "stateMutability": "view",
      "type": "function"
    },
    {
      "inputs": [
        {
          "internalType": "address",
          "name": "_usdcAddress",
          "type": "address"
        },
        {
          "internalType": "uint256",
          "name": "_reserveAmount",
          "type": "uint256"
        },
        {
          "internalType": "uint256",
          "name": "_nPercentage",
          "type": "uint256"
        },
        {
          "internalType": "address",
          "name": "_vault",
          "type": "address"
        },
        {
          "internalType": "address",
          "name": "_initialOwner",
          "type": "address"
        },
        {
          "internalType": "address",
          "name": "_businessAddress",
          "type": "address"
        },
        {
          "internalType": "address",
          "name": "_buildingFactory",
          "type": "address"
        }
      ],
      "name": "initialize",
      "outputs": [],
      "stateMutability": "nonpayable",
      "type": "function"
    },
    {
      "inputs": [
        {
          "internalType": "address",
          "name": "to",
          "type": "address"
        },
        {
          "internalType": "uint256",
          "name": "amount",
          "type": "uint256"
        }
      ],
      "name": "makePayment",
      "outputs": [],
      "stateMutability": "nonpayable",
      "type": "function"
    },
    {
      "inputs": [
        {
          "internalType": "bytes32",
          "name": "role",
          "type": "bytes32"
        },
        {
          "internalType": "address",
          "name": "callerConfirmation",
          "type": "address"
        }
      ],
      "name": "renounceRole",
      "outputs": [],
      "stateMutability": "nonpayable",
      "type": "function"
    },
    {
      "inputs": [],
      "name": "reserve",
      "outputs": [
        {
          "internalType": "uint256",
          "name": "",
          "type": "uint256"
        }
      ],
      "stateMutability": "view",
      "type": "function"
    },
    {
      "inputs": [
        {
          "internalType": "bytes32",
          "name": "role",
          "type": "bytes32"
        },
        {
          "internalType": "address",
          "name": "account",
          "type": "address"
        }
      ],
      "name": "revokeRole",
      "outputs": [],
      "stateMutability": "nonpayable",
      "type": "function"
    },
    {
      "inputs": [
        {
          "internalType": "uint256",
          "name": "newReserveAmount",
          "type": "uint256"
        }
      ],
      "name": "setReserveAmount",
      "outputs": [],
      "stateMutability": "nonpayable",
      "type": "function"
    },
    {
      "inputs": [
        {
          "internalType": "bytes4",
          "name": "interfaceId",
          "type": "bytes4"
        }
      ],
      "name": "supportsInterface",
      "outputs": [
        {
          "internalType": "bool",
          "name": "",
          "type": "bool"
        }
      ],
      "stateMutability": "view",
      "type": "function"
    },
    {
      "inputs": [],
      "name": "usdc",
      "outputs": [
        {
          "internalType": "address",
          "name": "",
          "type": "address"
        }
      ],
      "stateMutability": "view",
      "type": "function"
    },
    {
      "inputs": [],
      "name": "vault",
      "outputs": [
        {
          "internalType": "address",
          "name": "",
          "type": "address"
        }
      ],
      "stateMutability": "view",
      "type": "function"
    }
  ],
  "bytecode": "0x608060405234801561001057600080fd5b5061001961001e565b6100d0565b7ff0c57e16840df040f15088dc2f81fe391c3923bec73e23a9662efc9c229c6a00805468010000000000000000900460ff161561006e5760405163f92ee8a960e01b815260040160405180910390fd5b80546001600160401b03908116146100cd5780546001600160401b0319166001600160401b0390811782556040519081527fc7f505b2f371ae2175ee4913f4499e1f2633a7b5936321eed1cdaeb6115181d29060200160405180910390a15b50565b6114ae806100df6000396000f3fe608060405234801561001057600080fd5b50600436106100f65760003560e01c806391d148541161009257806391d14854146101cf578063a217fddf146101e2578063b5fd7d4c146101ea578063b6b55f25146101fd578063cd3293de14610210578063d547741f14610218578063f36c8f5c1461022b578063f98cf07c14610240578063fbfa77cf1461025357600080fd5b806301ffc9a7146100fb57806304a0fb171461012357806306dd484314610146578063248a9ca31461015b5780632f2ff15d1461016e57806336568abe146101815780633e413bee1461019457806360360700146101a95780638c4a3815146101bc575b600080fd5b61010e610109366004611130565b61025b565b60405190151581526020015b60405180910390f35b61013860008051602061145983398151915281565b60405190815260200161011a565b610159610154366004611176565b610292565b005b6101386101693660046111ee565b610537565b61015961017c366004611207565b610557565b61015961018f366004611207565b610579565b61019c6105b1565b60405161011a9190611233565b6101596101b7366004611247565b6105cc565b6101596101ca3660046111ee565b610622565b61010e6101dd366004611207565b610675565b610138600081565b6101596101f8366004611247565b6106ab565b61015961020b3660046111ee565b61071e565b6101386107a4565b610159610226366004611207565b6107b9565b61013860008051602061143983398151915281565b61015961024e366004611262565b6107d5565b61019c61098e565b60006001600160e01b03198216637965db0b60e01b148061028c57506301ffc9a760e01b6001600160e01b03198316145b92915050565b7ff0c57e16840df040f15088dc2f81fe391c3923bec73e23a9662efc9c229c6a008054600160401b810460ff16159067ffffffffffffffff166000811580156102d85750825b905060008267ffffffffffffffff1660011480156102f55750303b155b905081158015610303575080155b156103215760405163f92ee8a960e01b815260040160405180910390fd5b845467ffffffffffffffff19166001178555831561034b57845460ff60401b1916600160401b1785555b6001600160a01b038c1661039d5760405162461bcd60e51b8152602060048201526014602482015273496e76616c69642055534443206164647265737360601b60448201526064015b60405180910390fd5b6001600160a01b0388166103c35760405162461bcd60e51b81526004016103949061128c565b6127108a111561040c5760405162461bcd60e51b8152602060048201526014602482015273496e76616c6964204e2070657263656e7461676560601b6044820152606401610394565b60008b1161042c5760405162461bcd60e51b8152600401610394906112c3565b60006104366109ac565b80546001600160a01b0319166001600160a01b038f16178155600381018d9055600481018c9055905061046b8b612710611321565b60058201556002810180546001600160a01b03808d166001600160a01b031992831617909255600683018054928b16929091169190911790556104af60008a6109d0565b506104c8600080516020611459833981519152886109d0565b506104e16000805160206114398339815191528a6109d0565b5050831561052957845460ff60401b19168555604051600181527fc7f505b2f371ae2175ee4913f4499e1f2633a7b5936321eed1cdaeb6115181d29060200160405180910390a15b505050505050505050505050565b600080610542610a71565b60009384526020525050604090206001015490565b61056082610537565b61056981610a95565b61057383836109d0565b50505050565b6001600160a01b03811633146105a25760405163334bd91960e11b815260040160405180910390fd5b6105ac8282610aa2565b505050565b6000806105bc6109ac565b546001600160a01b031692915050565b6000805160206114598339815191526105e481610a95565b6001600160a01b03821661060a5760405162461bcd60e51b81526004016103949061128c565b6105ac600080516020611439833981519152836109d0565b60008051602061143983398151915261063a81610a95565b6000821161065a5760405162461bcd60e51b8152600401610394906112c3565b60006106646109ac565b6003810184905590506105ac610b1a565b600080610680610a71565b6000948552602090815260408086206001600160a01b03959095168652939052505090205460ff1690565b60006106b681610a95565b6001600160a01b0382166107065760405162461bcd60e51b8152602060048201526017602482015276496e76616c696420666163746f7279206164647265737360481b6044820152606401610394565b6105ac600080516020611459833981519152836109d0565b6000811161073e5760405162461bcd60e51b815260040161039490611334565b60006107486109ac565b8054909150610762906001600160a01b0316333085610c91565b60405182815233907fe1fffcc4923d04b559f4d29a8bfc6cda04eb5b0d3c460751c2402c5c5cc9109c9060200160405180910390a26107a082610cf8565b5050565b6000806107af6109ac565b6003015492915050565b6107c282610537565b6107cb81610a95565b6105738383610aa2565b6000805160206114398339815191526107ed81610a95565b6001600160a01b03831661083f5760405162461bcd60e51b8152602060048201526019602482015278496e76616c696420726563697069656e74206164647265737360381b6044820152606401610394565b6000821161085f5760405162461bcd60e51b815260040161039490611334565b60006108696109ac565b80546040516370a0823160e01b81529192506000916001600160a01b03909116906370a082319061089e903090600401611233565b602060405180830381865afa1580156108bb573d6000803e3d6000fd5b505050506040513d601f19601f820116820180604052508101906108df9190611369565b9050838110156109265760405162461bcd60e51b8152602060048201526012602482015271496e73756666696369656e742066756e647360701b6044820152606401610394565b815461093c906001600160a01b03168686610d93565b846001600160a01b03167fd4f43975feb89f48dd30cabbb32011045be187d1e11c8ea9faa43efc352825198560405161097791815260200190565b60405180910390a2610987610b1a565b5050505050565b6000806109996109ac565b600201546001600160a01b031692915050565b7f72a4ccd47996c0aa9e54efd606e03b13bee57794bd0974b6dda8fcd457f3770090565b6000806109db610a71565b90506109e78484610675565b610a67576000848152602082815260408083206001600160a01b03871684529091529020805460ff19166001179055610a1d3390565b6001600160a01b0316836001600160a01b0316857f2f8788117e7eff1d82e926ec794901d17c78024a50270940304540a733656f0d60405160405180910390a4600191505061028c565b600091505061028c565b7f02dd7bc7dec4dceedda775e58dd541e08a116c6c53815c0bd028192f7b62680090565b610a9f8133610db9565b50565b600080610aad610a71565b9050610ab98484610675565b15610a67576000848152602082815260408083206001600160a01b0387168085529252808320805460ff1916905551339287917ff6391f5c32d9c69d2a47ea670b442974b53935d1edc7fd64eb21e047a839171b9190a4600191505061028c565b6000610b246109ac565b80546040516370a0823160e01b81529192506000916001600160a01b03909116906370a0823190610b59903090600401611233565b602060405180830381865afa158015610b76573d6000803e3d6000fd5b505050506040513d601f19601f82011682018060405250810190610b9a9190611369565b905081600301548111156107a0576000826003015482610bba9190611321565b60028401548454919250610bdb916001600160a01b03908116911683610de4565b60028301546006840154604051636e553f6560e01b8152600481018490526001600160a01b039182166024820152911690636e553f65906044016020604051808303816000875af1158015610c34573d6000803e3d6000fd5b505050506040513d601f19601f82011682018060405250810190610c589190611369565b506040518181527f0f667efc3742e4603daefd5701e8a80813b86ed2ad102d1dec5c9840af7926da9060200160405180910390a1505050565b6040516001600160a01b0384811660248301528381166044830152606482018390526105739186918216906323b872dd906084015b604051602081830303815290604052915060e01b6020820180516001600160e01b038381831617835250505050610e6e565b6000610d026109ac565b90506000612710826004015484610d199190611382565b610d239190611399565b90506000610d318285611321565b60068401548454919250610d52916001600160a01b03908116911684610d93565b60408051838152602081018390527f40d8c854b6d5329fd5fccae04f5a931d7529963fbab81aced7337394e737cb4d910160405180910390a1610573610b1a565b6105ac83846001600160a01b031663a9059cbb8585604051602401610cc69291906113bb565b610dc38282610675565b6107a057808260405163e2517d3f60e01b81526004016103949291906113bb565b604051636eb1769f60e11b81523060048201526001600160a01b0383811660248301526000919085169063dd62ed3e90604401602060405180830381865afa158015610e34573d6000803e3d6000fd5b505050506040513d601f19601f82011682018060405250810190610e589190611369565b90506105738484610e6985856113d4565b610ec8565b6000610e836001600160a01b03841683610f5a565b90508051600014158015610ea8575080806020019051810190610ea691906113e7565b155b156105ac5782604051635274afe760e01b81526004016103949190611233565b6000836001600160a01b031663095ea7b38484604051602401610eec9291906113bb565b604051602081830303815290604052915060e01b6020820180516001600160e01b0383818316178352505050509050610f258482610f6f565b61057357610f5084856001600160a01b031663095ea7b3866000604051602401610cc69291906113bb565b6105738482610e6e565b6060610f6883836000611017565b9392505050565b6000806000846001600160a01b031684604051610f8c9190611409565b6000604051808303816000865af19150503d8060008114610fc9576040519150601f19603f3d011682016040523d82523d6000602084013e610fce565b606091505b5091509150818015610ff8575080511580610ff8575080806020019051810190610ff891906113e7565b801561100e57506000856001600160a01b03163b115b95945050505050565b60608147101561103c573060405163cd78605960e01b81526004016103949190611233565b600080856001600160a01b031684866040516110589190611409565b60006040518083038185875af1925050503d8060008114611095576040519150601f19603f3d011682016040523d82523d6000602084013e61109a565b606091505b50915091506110aa8683836110b4565b9695505050505050565b6060826110c9576110c482611107565b610f68565b81511580156110e057506001600160a01b0384163b155b156111005783604051639996b31560e01b81526004016103949190611233565b5080610f68565b8051156111175780518082602001fd5b604051630a12f52160e11b815260040160405180910390fd5b60006020828403121561114257600080fd5b81356001600160e01b031981168114610f6857600080fd5b80356001600160a01b038116811461117157600080fd5b919050565b600080600080600080600060e0888a03121561119157600080fd5b61119a8861115a565b965060208801359550604088013594506111b66060890161115a565b93506111c46080890161115a565b92506111d260a0890161115a565b91506111e060c0890161115a565b905092959891949750929550565b60006020828403121561120057600080fd5b5035919050565b6000806040838503121561121a57600080fd5b8235915061122a6020840161115a565b90509250929050565b6001600160a01b0391909116815260200190565b60006020828403121561125957600080fd5b610f688261115a565b6000806040838503121561127557600080fd5b61127e8361115a565b946020939093013593505050565b6020808252601a908201527f496e76616c696420676f7665726e616e63652061646472657373000000000000604082015260600190565b60208082526028908201527f5265736572766520616d6f756e74206d7573742062652067726561746572207460408201526768616e207a65726f60c01b606082015260800190565b634e487b7160e01b600052601160045260246000fd5b8181038181111561028c5761028c61130b565b6020808252818101527f416d6f756e74206d7573742062652067726561746572207468616e207a65726f604082015260600190565b60006020828403121561137b57600080fd5b5051919050565b808202811582820484141761028c5761028c61130b565b6000826113b657634e487b7160e01b600052601260045260246000fd5b500490565b6001600160a01b03929092168252602082015260400190565b8082018082111561028c5761028c61130b565b6000602082840312156113f957600080fd5b81518015158114610f6857600080fd5b6000825160005b8181101561142a5760208186018101518583015201611410565b50600092019182525091905056fe71840dc4906352362b0cdaf79870196c8e42acafade72d5d5a6d59291253ceb1dfbefbf47cfe66b701d8cfdbce1de81c821590819cb07e71cb01b6602fb0ee27a2646970667358221220eaadaf9c9120c0a8d487fb84b9267157fa778f540b8eed87b0b6ff7c2e54622164736f6c63430008180033",
  "linkReferences": {},
  "deployedLinkReferences": {}
}