{
  "_format": "hh-sol-artifact-1",
  "contractName": "Treasury",
  "sourceName": "contracts/treasury/Treasury.sol",
  "abi": [
    {
      "inputs": [],
      "stateMutability": "nonpayable",
      "type": "constructor"
    },
    {
      "inputs": [],
      "name": "AccessControlBadConfirmation",
      "type": "error"
    },
    {
      "inputs": [
        {
          "internalType": "address",
          "name": "account",
          "type": "address"
        },
        {
          "internalType": "bytes32",
          "name": "neededRole",
          "type": "bytes32"
        }
      ],
      "name": "AccessControlUnauthorizedAccount",
      "type": "error"
    },
    {
      "inputs": [
        {
          "internalType": "address",
          "name": "target",
          "type": "address"
        }
      ],
      "name": "AddressEmptyCode",
      "type": "error"
    },
    {
      "inputs": [
        {
          "internalType": "address",
          "name": "account",
          "type": "address"
        }
      ],
      "name": "AddressInsufficientBalance",
      "type": "error"
    },
    {
      "inputs": [],
      "name": "FailedInnerCall",
      "type": "error"
    },
    {
      "inputs": [],
      "name": "InvalidInitialization",
      "type": "error"
    },
    {
      "inputs": [],
      "name": "NotInitializing",
      "type": "error"
    },
    {
      "inputs": [
        {
          "internalType": "address",
          "name": "token",
          "type": "address"
        }
      ],
      "name": "SafeERC20FailedOperation",
      "type": "error"
    },
    {
      "anonymous": false,
      "inputs": [
        {
          "indexed": true,
          "internalType": "address",
          "name": "from",
          "type": "address"
        },
        {
          "indexed": false,
          "internalType": "uint256",
          "name": "amount",
          "type": "uint256"
        }
      ],
      "name": "Deposit",
      "type": "event"
    },
    {
      "anonymous": false,
      "inputs": [
        {
          "indexed": false,
          "internalType": "uint256",
          "name": "amount",
          "type": "uint256"
        }
      ],
      "name": "ExcessFundsForwarded",
      "type": "event"
    },
    {
      "anonymous": false,
      "inputs": [
        {
          "indexed": false,
          "internalType": "uint256",
          "name": "toBusiness",
          "type": "uint256"
        },
        {
          "indexed": false,
          "internalType": "uint256",
          "name": "toTreasury",
          "type": "uint256"
        }
      ],
      "name": "FundsDistributed",
      "type": "event"
    },
    {
      "anonymous": false,
      "inputs": [
        {
          "indexed": false,
          "internalType": "uint64",
          "name": "version",
          "type": "uint64"
        }
      ],
      "name": "Initialized",
      "type": "event"
    },
    {
      "anonymous": false,
      "inputs": [
        {
          "indexed": true,
          "internalType": "address",
          "name": "to",
          "type": "address"
        },
        {
          "indexed": false,
          "internalType": "uint256",
          "name": "amount",
          "type": "uint256"
        }
      ],
      "name": "Payment",
      "type": "event"
    },
    {
      "anonymous": false,
      "inputs": [
        {
          "indexed": true,
          "internalType": "bytes32",
          "name": "role",
          "type": "bytes32"
        },
        {
          "indexed": true,
          "internalType": "bytes32",
          "name": "previousAdminRole",
          "type": "bytes32"
        },
        {
          "indexed": true,
          "internalType": "bytes32",
          "name": "newAdminRole",
          "type": "bytes32"
        }
      ],
      "name": "RoleAdminChanged",
      "type": "event"
    },
    {
      "anonymous": false,
      "inputs": [
        {
          "indexed": true,
          "internalType": "bytes32",
          "name": "role",
          "type": "bytes32"
        },
        {
          "indexed": true,
          "internalType": "address",
          "name": "account",
          "type": "address"
        },
        {
          "indexed": true,
          "internalType": "address",
          "name": "sender",
          "type": "address"
        }
      ],
      "name": "RoleGranted",
      "type": "event"
    },
    {
      "anonymous": false,
      "inputs": [
        {
          "indexed": true,
          "internalType": "bytes32",
          "name": "role",
          "type": "bytes32"
        },
        {
          "indexed": true,
          "internalType": "address",
          "name": "account",
          "type": "address"
        },
        {
          "indexed": true,
          "internalType": "address",
          "name": "sender",
          "type": "address"
        }
      ],
      "name": "RoleRevoked",
      "type": "event"
    },
    {
      "inputs": [],
      "name": "DEFAULT_ADMIN_ROLE",
      "outputs": [
        {
          "internalType": "bytes32",
          "name": "",
          "type": "bytes32"
        }
      ],
      "stateMutability": "view",
      "type": "function"
    },
    {
      "inputs": [],
      "name": "FACTORY_ROLE",
      "outputs": [
        {
          "internalType": "bytes32",
          "name": "",
          "type": "bytes32"
        }
      ],
      "stateMutability": "view",
      "type": "function"
    },
    {
      "inputs": [],
      "name": "GOVERNANCE_ROLE",
      "outputs": [
        {
          "internalType": "bytes32",
          "name": "",
          "type": "bytes32"
        }
      ],
      "stateMutability": "view",
      "type": "function"
    },
    {
      "inputs": [
        {
          "internalType": "uint256",
          "name": "amount",
          "type": "uint256"
        }
      ],
      "name": "deposit",
      "outputs": [],
      "stateMutability": "nonpayable",
      "type": "function"
    },
    {
      "inputs": [
        {
          "internalType": "bytes32",
          "name": "role",
          "type": "bytes32"
        }
      ],
      "name": "getRoleAdmin",
      "outputs": [
        {
          "internalType": "bytes32",
          "name": "",
          "type": "bytes32"
        }
      ],
      "stateMutability": "view",
      "type": "function"
    },
    {
      "inputs": [
        {
          "internalType": "address",
          "name": "factory",
          "type": "address"
        }
      ],
      "name": "grantFactoryRole",
      "outputs": [],
      "stateMutability": "nonpayable",
      "type": "function"
    },
    {
      "inputs": [
        {
          "internalType": "address",
          "name": "governance",
          "type": "address"
        }
      ],
      "name": "grantGovernanceRole",
      "outputs": [],
      "stateMutability": "nonpayable",
      "type": "function"
    },
    {
      "inputs": [
        {
          "internalType": "bytes32",
          "name": "role",
          "type": "bytes32"
        },
        {
          "internalType": "address",
          "name": "account",
          "type": "address"
        }
      ],
      "name": "grantRole",
      "outputs": [],
      "stateMutability": "nonpayable",
      "type": "function"
    },
    {
      "inputs": [
        {
          "internalType": "bytes32",
          "name": "role",
          "type": "bytes32"
        },
        {
          "internalType": "address",
          "name": "account",
          "type": "address"
        }
      ],
      "name": "hasRole",
      "outputs": [
        {
          "internalType": "bool",
          "name": "",
          "type": "bool"
        }
      ],
      "stateMutability": "view",
      "type": "function"
    },
    {
      "inputs": [
        {
          "internalType": "address",
          "name": "_usdcAddress",
          "type": "address"
        },
        {
          "internalType": "uint256",
          "name": "_reserveAmount",
          "type": "uint256"
        },
        {
          "internalType": "uint256",
          "name": "_nPercentage",
          "type": "uint256"
        },
        {
          "internalType": "address",
          "name": "_vault",
          "type": "address"
        },
        {
          "internalType": "address",
          "name": "_initialOwner",
          "type": "address"
        },
        {
          "internalType": "address",
          "name": "_businessAddress",
          "type": "address"
        },
        {
          "internalType": "address",
          "name": "_buildingFactory",
          "type": "address"
        }
      ],
      "name": "initialize",
      "outputs": [],
      "stateMutability": "nonpayable",
      "type": "function"
    },
    {
      "inputs": [
        {
          "internalType": "address",
          "name": "to",
          "type": "address"
        },
        {
          "internalType": "uint256",
          "name": "amount",
          "type": "uint256"
        }
      ],
      "name": "makePayment",
      "outputs": [],
      "stateMutability": "nonpayable",
      "type": "function"
    },
    {
      "inputs": [
        {
          "internalType": "bytes32",
          "name": "role",
          "type": "bytes32"
        },
        {
          "internalType": "address",
          "name": "callerConfirmation",
          "type": "address"
        }
      ],
      "name": "renounceRole",
      "outputs": [],
      "stateMutability": "nonpayable",
      "type": "function"
    },
    {
      "inputs": [
        {
          "internalType": "bytes32",
          "name": "role",
          "type": "bytes32"
        },
        {
          "internalType": "address",
          "name": "account",
          "type": "address"
        }
      ],
      "name": "revokeRole",
      "outputs": [],
      "stateMutability": "nonpayable",
      "type": "function"
    },
    {
      "inputs": [
        {
          "internalType": "uint256",
          "name": "newReserveAmount",
          "type": "uint256"
        }
      ],
      "name": "setReserveAmount",
      "outputs": [],
      "stateMutability": "nonpayable",
      "type": "function"
    },
    {
      "inputs": [
        {
          "internalType": "bytes4",
          "name": "interfaceId",
          "type": "bytes4"
        }
      ],
      "name": "supportsInterface",
      "outputs": [
        {
          "internalType": "bool",
          "name": "",
          "type": "bool"
        }
      ],
      "stateMutability": "view",
      "type": "function"
    },
    {
      "inputs": [],
      "name": "usdc",
      "outputs": [
        {
          "internalType": "address",
          "name": "",
          "type": "address"
        }
      ],
      "stateMutability": "view",
      "type": "function"
    },
    {
      "inputs": [],
      "name": "vault",
      "outputs": [
        {
          "internalType": "address",
          "name": "",
          "type": "address"
        }
      ],
      "stateMutability": "view",
      "type": "function"
    }
  ],
  "bytecode": "0x608060405234801561001057600080fd5b5061001961001e565b6100d0565b7ff0c57e16840df040f15088dc2f81fe391c3923bec73e23a9662efc9c229c6a00805468010000000000000000900460ff161561006e5760405163f92ee8a960e01b815260040160405180910390fd5b80546001600160401b03908116146100cd5780546001600160401b0319166001600160401b0390811782556040519081527fc7f505b2f371ae2175ee4913f4499e1f2633a7b5936321eed1cdaeb6115181d29060200160405180910390a15b50565b611486806100df6000396000f3fe608060405234801561001057600080fd5b50600436106100eb5760003560e01c80638c4a3815116100925780638c4a3815146101b157806391d14854146101c4578063a217fddf146101d7578063b5fd7d4c146101df578063b6b55f25146101f2578063d547741f14610205578063f36c8f5c14610218578063f98cf07c1461022d578063fbfa77cf1461024057600080fd5b806301ffc9a7146100f057806304a0fb171461011857806306dd48431461013b578063248a9ca3146101505780632f2ff15d1461016357806336568abe146101765780633e413bee14610189578063603607001461019e575b600080fd5b6101036100fe366004611108565b610248565b60405190151581526020015b60405180910390f35b61012d60008051602061143183398151915281565b60405190815260200161010f565b61014e61014936600461114e565b61027f565b005b61012d61015e3660046111c6565b610524565b61014e6101713660046111df565b610544565b61014e6101843660046111df565b610566565b61019161059e565b60405161010f919061120b565b61014e6101ac36600461121f565b6105b9565b61014e6101bf3660046111c6565b61060f565b6101036101d23660046111df565b610662565b61012d600081565b61014e6101ed36600461121f565b610698565b61014e6102003660046111c6565b61070b565b61014e6102133660046111df565b610791565b61012d60008051602061141183398151915281565b61014e61023b36600461123a565b6107ad565b610191610966565b60006001600160e01b03198216637965db0b60e01b148061027957506301ffc9a760e01b6001600160e01b03198316145b92915050565b7ff0c57e16840df040f15088dc2f81fe391c3923bec73e23a9662efc9c229c6a008054600160401b810460ff16159067ffffffffffffffff166000811580156102c55750825b905060008267ffffffffffffffff1660011480156102e25750303b155b9050811580156102f0575080155b1561030e5760405163f92ee8a960e01b815260040160405180910390fd5b845467ffffffffffffffff19166001178555831561033857845460ff60401b1916600160401b1785555b6001600160a01b038c1661038a5760405162461bcd60e51b8152602060048201526014602482015273496e76616c69642055534443206164647265737360601b60448201526064015b60405180910390fd5b6001600160a01b0388166103b05760405162461bcd60e51b815260040161038190611264565b6127108a11156103f95760405162461bcd60e51b8152602060048201526014602482015273496e76616c6964204e2070657263656e7461676560601b6044820152606401610381565b60008b116104195760405162461bcd60e51b81526004016103819061129b565b6000610423610984565b80546001600160a01b0319166001600160a01b038f16178155600381018d9055600481018c905590506104588b6127106112f9565b60058201556002810180546001600160a01b03808d166001600160a01b031992831617909255600683018054928b169290911691909117905561049c60008a6109a8565b506104b5600080516020611431833981519152886109a8565b506104ce6000805160206114118339815191528a6109a8565b5050831561051657845460ff60401b19168555604051600181527fc7f505b2f371ae2175ee4913f4499e1f2633a7b5936321eed1cdaeb6115181d29060200160405180910390a15b505050505050505050505050565b60008061052f610a49565b60009384526020525050604090206001015490565b61054d82610524565b61055681610a6d565b61056083836109a8565b50505050565b6001600160a01b038116331461058f5760405163334bd91960e11b815260040160405180910390fd5b6105998282610a7a565b505050565b6000806105a9610984565b546001600160a01b031692915050565b6000805160206114318339815191526105d181610a6d565b6001600160a01b0382166105f75760405162461bcd60e51b815260040161038190611264565b610599600080516020611411833981519152836109a8565b60008051602061141183398151915261062781610a6d565b600082116106475760405162461bcd60e51b81526004016103819061129b565b6000610651610984565b600381018490559050610599610af2565b60008061066d610a49565b6000948552602090815260408086206001600160a01b03959095168652939052505090205460ff1690565b60006106a381610a6d565b6001600160a01b0382166106f35760405162461bcd60e51b8152602060048201526017602482015276496e76616c696420666163746f7279206164647265737360481b6044820152606401610381565b610599600080516020611431833981519152836109a8565b6000811161072b5760405162461bcd60e51b81526004016103819061130c565b6000610735610984565b805490915061074f906001600160a01b0316333085610c69565b60405182815233907fe1fffcc4923d04b559f4d29a8bfc6cda04eb5b0d3c460751c2402c5c5cc9109c9060200160405180910390a261078d82610cd0565b5050565b61079a82610524565b6107a381610a6d565b6105608383610a7a565b6000805160206114118339815191526107c581610a6d565b6001600160a01b0383166108175760405162461bcd60e51b8152602060048201526019602482015278496e76616c696420726563697069656e74206164647265737360381b6044820152606401610381565b600082116108375760405162461bcd60e51b81526004016103819061130c565b6000610841610984565b80546040516370a0823160e01b81529192506000916001600160a01b03909116906370a082319061087690309060040161120b565b602060405180830381865afa158015610893573d6000803e3d6000fd5b505050506040513d601f19601f820116820180604052508101906108b79190611341565b9050838110156108fe5760405162461bcd60e51b8152602060048201526012602482015271496e73756666696369656e742066756e647360701b6044820152606401610381565b8154610914906001600160a01b03168686610d6b565b846001600160a01b03167fd4f43975feb89f48dd30cabbb32011045be187d1e11c8ea9faa43efc352825198560405161094f91815260200190565b60405180910390a261095f610af2565b5050505050565b600080610971610984565b600201546001600160a01b031692915050565b7f72a4ccd47996c0aa9e54efd606e03b13bee57794bd0974b6dda8fcd457f3770090565b6000806109b3610a49565b90506109bf8484610662565b610a3f576000848152602082815260408083206001600160a01b03871684529091529020805460ff191660011790556109f53390565b6001600160a01b0316836001600160a01b0316857f2f8788117e7eff1d82e926ec794901d17c78024a50270940304540a733656f0d60405160405180910390a46001915050610279565b6000915050610279565b7f02dd7bc7dec4dceedda775e58dd541e08a116c6c53815c0bd028192f7b62680090565b610a778133610d91565b50565b600080610a85610a49565b9050610a918484610662565b15610a3f576000848152602082815260408083206001600160a01b0387168085529252808320805460ff1916905551339287917ff6391f5c32d9c69d2a47ea670b442974b53935d1edc7fd64eb21e047a839171b9190a46001915050610279565b6000610afc610984565b80546040516370a0823160e01b81529192506000916001600160a01b03909116906370a0823190610b3190309060040161120b565b602060405180830381865afa158015610b4e573d6000803e3d6000fd5b505050506040513d601f19601f82011682018060405250810190610b729190611341565b9050816003015481111561078d576000826003015482610b9291906112f9565b60028401548454919250610bb3916001600160a01b03908116911683610dbc565b60028301546006840154604051636e553f6560e01b8152600481018490526001600160a01b039182166024820152911690636e553f65906044016020604051808303816000875af1158015610c0c573d6000803e3d6000fd5b505050506040513d601f19601f82011682018060405250810190610c309190611341565b506040518181527f0f667efc3742e4603daefd5701e8a80813b86ed2ad102d1dec5c9840af7926da9060200160405180910390a1505050565b6040516001600160a01b0384811660248301528381166044830152606482018390526105609186918216906323b872dd906084015b604051602081830303815290604052915060e01b6020820180516001600160e01b038381831617835250505050610e46565b6000610cda610984565b90506000612710826004015484610cf1919061135a565b610cfb9190611371565b90506000610d0982856112f9565b60068401548454919250610d2a916001600160a01b03908116911684610d6b565b60408051838152602081018390527f40d8c854b6d5329fd5fccae04f5a931d7529963fbab81aced7337394e737cb4d910160405180910390a1610560610af2565b61059983846001600160a01b031663a9059cbb8585604051602401610c9e929190611393565b610d9b8282610662565b61078d57808260405163e2517d3f60e01b8152600401610381929190611393565b604051636eb1769f60e11b81523060048201526001600160a01b0383811660248301526000919085169063dd62ed3e90604401602060405180830381865afa158015610e0c573d6000803e3d6000fd5b505050506040513d601f19601f82011682018060405250810190610e309190611341565b90506105608484610e4185856113ac565b610ea0565b6000610e5b6001600160a01b03841683610f32565b90508051600014158015610e80575080806020019051810190610e7e91906113bf565b155b156105995782604051635274afe760e01b8152600401610381919061120b565b6000836001600160a01b031663095ea7b38484604051602401610ec4929190611393565b604051602081830303815290604052915060e01b6020820180516001600160e01b0383818316178352505050509050610efd8482610f47565b61056057610f2884856001600160a01b031663095ea7b3866000604051602401610c9e929190611393565b6105608482610e46565b6060610f4083836000610fef565b9392505050565b6000806000846001600160a01b031684604051610f6491906113e1565b6000604051808303816000865af19150503d8060008114610fa1576040519150601f19603f3d011682016040523d82523d6000602084013e610fa6565b606091505b5091509150818015610fd0575080511580610fd0575080806020019051810190610fd091906113bf565b8015610fe657506000856001600160a01b03163b115b95945050505050565b606081471015611014573060405163cd78605960e01b8152600401610381919061120b565b600080856001600160a01b0316848660405161103091906113e1565b60006040518083038185875af1925050503d806000811461106d576040519150601f19603f3d011682016040523d82523d6000602084013e611072565b606091505b509150915061108286838361108c565b9695505050505050565b6060826110a15761109c826110df565b610f40565b81511580156110b857506001600160a01b0384163b155b156110d85783604051639996b31560e01b8152600401610381919061120b565b5080610f40565b8051156110ef5780518082602001fd5b604051630a12f52160e11b815260040160405180910390fd5b60006020828403121561111a57600080fd5b81356001600160e01b031981168114610f4057600080fd5b80356001600160a01b038116811461114957600080fd5b919050565b600080600080600080600060e0888a03121561116957600080fd5b61117288611132565b9650602088013595506040880135945061118e60608901611132565b935061119c60808901611132565b92506111aa60a08901611132565b91506111b860c08901611132565b905092959891949750929550565b6000602082840312156111d857600080fd5b5035919050565b600080604083850312156111f257600080fd5b8235915061120260208401611132565b90509250929050565b6001600160a01b0391909116815260200190565b60006020828403121561123157600080fd5b610f4082611132565b6000806040838503121561124d57600080fd5b61125683611132565b946020939093013593505050565b6020808252601a908201527f496e76616c696420676f7665726e616e63652061646472657373000000000000604082015260600190565b60208082526028908201527f5265736572766520616d6f756e74206d7573742062652067726561746572207460408201526768616e207a65726f60c01b606082015260800190565b634e487b7160e01b600052601160045260246000fd5b81810381811115610279576102796112e3565b6020808252818101527f416d6f756e74206d7573742062652067726561746572207468616e207a65726f604082015260600190565b60006020828403121561135357600080fd5b5051919050565b8082028115828204841417610279576102796112e3565b60008261138e57634e487b7160e01b600052601260045260246000fd5b500490565b6001600160a01b03929092168252602082015260400190565b80820180821115610279576102796112e3565b6000602082840312156113d157600080fd5b81518015158114610f4057600080fd5b6000825160005b8181101561140257602081860181015185830152016113e8565b50600092019182525091905056fe71840dc4906352362b0cdaf79870196c8e42acafade72d5d5a6d59291253ceb1dfbefbf47cfe66b701d8cfdbce1de81c821590819cb07e71cb01b6602fb0ee27a2646970667358221220e8329356f72617d7ab63841926ebbc1ff332b74f4f8c9ec1395c241792e6a20264736f6c63430008180033",
  "linkReferences": {},
  "deployedLinkReferences": {}
}