{
  "_format": "hh-sol-artifact-1",
  "contractName": "Treasury",
  "sourceName": "contracts/treasury/Treasury.sol",
  "abi": [
    {
      "inputs": [],
      "stateMutability": "nonpayable",
      "type": "constructor"
    },
    {
      "inputs": [],
      "name": "AccessControlBadConfirmation",
      "type": "error"
    },
    {
      "inputs": [
        {
          "internalType": "address",
          "name": "account",
          "type": "address"
        },
        {
          "internalType": "bytes32",
          "name": "neededRole",
          "type": "bytes32"
        }
      ],
      "name": "AccessControlUnauthorizedAccount",
      "type": "error"
    },
    {
      "inputs": [
        {
          "internalType": "address",
          "name": "target",
          "type": "address"
        }
      ],
      "name": "AddressEmptyCode",
      "type": "error"
    },
    {
      "inputs": [
        {
          "internalType": "address",
          "name": "account",
          "type": "address"
        }
      ],
      "name": "AddressInsufficientBalance",
      "type": "error"
    },
    {
      "inputs": [],
      "name": "FailedInnerCall",
      "type": "error"
    },
    {
      "inputs": [],
      "name": "InvalidInitialization",
      "type": "error"
    },
    {
      "inputs": [],
      "name": "NotInitializing",
      "type": "error"
    },
    {
      "inputs": [
        {
          "internalType": "address",
          "name": "token",
          "type": "address"
        }
      ],
      "name": "SafeERC20FailedOperation",
      "type": "error"
    },
    {
      "anonymous": false,
      "inputs": [
        {
          "indexed": true,
          "internalType": "address",
          "name": "from",
          "type": "address"
        },
        {
          "indexed": false,
          "internalType": "uint256",
          "name": "amount",
          "type": "uint256"
        }
      ],
      "name": "Deposit",
      "type": "event"
    },
    {
      "anonymous": false,
      "inputs": [
        {
          "indexed": false,
          "internalType": "uint256",
          "name": "amount",
          "type": "uint256"
        }
      ],
      "name": "ExcessFundsForwarded",
      "type": "event"
    },
    {
      "anonymous": false,
      "inputs": [
        {
          "indexed": false,
          "internalType": "uint256",
          "name": "toBusiness",
          "type": "uint256"
        },
        {
          "indexed": false,
          "internalType": "uint256",
          "name": "toTreasury",
          "type": "uint256"
        }
      ],
      "name": "FundsDistributed",
      "type": "event"
    },
    {
      "anonymous": false,
      "inputs": [
        {
          "indexed": false,
          "internalType": "uint64",
          "name": "version",
          "type": "uint64"
        }
      ],
      "name": "Initialized",
      "type": "event"
    },
    {
      "anonymous": false,
      "inputs": [
        {
          "indexed": true,
          "internalType": "address",
          "name": "to",
          "type": "address"
        },
        {
          "indexed": false,
          "internalType": "uint256",
          "name": "amount",
          "type": "uint256"
        }
      ],
      "name": "Payment",
      "type": "event"
    },
    {
      "anonymous": false,
      "inputs": [
        {
          "indexed": true,
          "internalType": "bytes32",
          "name": "role",
          "type": "bytes32"
        },
        {
          "indexed": true,
          "internalType": "bytes32",
          "name": "previousAdminRole",
          "type": "bytes32"
        },
        {
          "indexed": true,
          "internalType": "bytes32",
          "name": "newAdminRole",
          "type": "bytes32"
        }
      ],
      "name": "RoleAdminChanged",
      "type": "event"
    },
    {
      "anonymous": false,
      "inputs": [
        {
          "indexed": true,
          "internalType": "bytes32",
          "name": "role",
          "type": "bytes32"
        },
        {
          "indexed": true,
          "internalType": "address",
          "name": "account",
          "type": "address"
        },
        {
          "indexed": true,
          "internalType": "address",
          "name": "sender",
          "type": "address"
        }
      ],
      "name": "RoleGranted",
      "type": "event"
    },
    {
      "anonymous": false,
      "inputs": [
        {
          "indexed": true,
          "internalType": "bytes32",
          "name": "role",
          "type": "bytes32"
        },
        {
          "indexed": true,
          "internalType": "address",
          "name": "account",
          "type": "address"
        },
        {
          "indexed": true,
          "internalType": "address",
          "name": "sender",
          "type": "address"
        }
      ],
      "name": "RoleRevoked",
      "type": "event"
    },
    {
      "inputs": [],
      "name": "DEFAULT_ADMIN_ROLE",
      "outputs": [
        {
          "internalType": "bytes32",
          "name": "",
          "type": "bytes32"
        }
      ],
      "stateMutability": "view",
      "type": "function"
    },
    {
      "inputs": [],
      "name": "FACTORY_ROLE",
      "outputs": [
        {
          "internalType": "bytes32",
          "name": "",
          "type": "bytes32"
        }
      ],
      "stateMutability": "view",
      "type": "function"
    },
    {
      "inputs": [],
      "name": "GOVERNANCE_ROLE",
      "outputs": [
        {
          "internalType": "bytes32",
          "name": "",
          "type": "bytes32"
        }
      ],
      "stateMutability": "view",
      "type": "function"
    },
    {
      "inputs": [
        {
          "internalType": "address",
          "name": "_vault",
          "type": "address"
        }
      ],
      "name": "addVault",
      "outputs": [],
      "stateMutability": "nonpayable",
      "type": "function"
    },
    {
      "inputs": [
        {
          "internalType": "uint256",
          "name": "amount",
          "type": "uint256"
        }
      ],
      "name": "deposit",
      "outputs": [],
      "stateMutability": "nonpayable",
      "type": "function"
    },
    {
      "inputs": [
        {
          "internalType": "bytes32",
          "name": "role",
          "type": "bytes32"
        }
      ],
      "name": "getRoleAdmin",
      "outputs": [
        {
          "internalType": "bytes32",
          "name": "",
          "type": "bytes32"
        }
      ],
      "stateMutability": "view",
      "type": "function"
    },
    {
      "inputs": [
        {
          "internalType": "address",
          "name": "factory",
          "type": "address"
        }
      ],
      "name": "grantFactoryRole",
      "outputs": [],
      "stateMutability": "nonpayable",
      "type": "function"
    },
    {
      "inputs": [
        {
          "internalType": "address",
          "name": "governance",
          "type": "address"
        }
      ],
      "name": "grantGovernanceRole",
      "outputs": [],
      "stateMutability": "nonpayable",
      "type": "function"
    },
    {
      "inputs": [
        {
          "internalType": "bytes32",
          "name": "role",
          "type": "bytes32"
        },
        {
          "internalType": "address",
          "name": "account",
          "type": "address"
        }
      ],
      "name": "grantRole",
      "outputs": [],
      "stateMutability": "nonpayable",
      "type": "function"
    },
    {
      "inputs": [
        {
          "internalType": "bytes32",
          "name": "role",
          "type": "bytes32"
        },
        {
          "internalType": "address",
          "name": "account",
          "type": "address"
        }
      ],
      "name": "hasRole",
      "outputs": [
        {
          "internalType": "bool",
          "name": "",
          "type": "bool"
        }
      ],
      "stateMutability": "view",
      "type": "function"
    },
    {
      "inputs": [
        {
          "internalType": "address",
          "name": "_usdcAddress",
          "type": "address"
        },
        {
          "internalType": "uint256",
          "name": "_reserveAmount",
          "type": "uint256"
        },
        {
          "internalType": "uint256",
          "name": "_nPercentage",
          "type": "uint256"
        },
        {
          "internalType": "address",
          "name": "_initialOwner",
          "type": "address"
        },
        {
          "internalType": "address",
          "name": "_businessAddress",
          "type": "address"
        },
        {
          "internalType": "address",
          "name": "_buildingFactory",
          "type": "address"
        }
      ],
      "name": "initialize",
      "outputs": [],
      "stateMutability": "nonpayable",
      "type": "function"
    },
    {
      "inputs": [
        {
          "internalType": "address",
          "name": "to",
          "type": "address"
        },
        {
          "internalType": "uint256",
          "name": "amount",
          "type": "uint256"
        }
      ],
      "name": "makePayment",
      "outputs": [],
      "stateMutability": "nonpayable",
      "type": "function"
    },
    {
      "inputs": [
        {
          "internalType": "bytes32",
          "name": "role",
          "type": "bytes32"
        },
        {
          "internalType": "address",
          "name": "callerConfirmation",
          "type": "address"
        }
      ],
      "name": "renounceRole",
      "outputs": [],
      "stateMutability": "nonpayable",
      "type": "function"
    },
    {
      "inputs": [],
      "name": "reserve",
      "outputs": [
        {
          "internalType": "uint256",
          "name": "",
          "type": "uint256"
        }
      ],
      "stateMutability": "view",
      "type": "function"
    },
    {
      "inputs": [
        {
          "internalType": "bytes32",
          "name": "role",
          "type": "bytes32"
        },
        {
          "internalType": "address",
          "name": "account",
          "type": "address"
        }
      ],
      "name": "revokeRole",
      "outputs": [],
      "stateMutability": "nonpayable",
      "type": "function"
    },
    {
      "inputs": [
        {
          "internalType": "uint256",
          "name": "newReserveAmount",
          "type": "uint256"
        }
      ],
      "name": "setReserveAmount",
      "outputs": [],
      "stateMutability": "nonpayable",
      "type": "function"
    },
    {
      "inputs": [
        {
          "internalType": "bytes4",
          "name": "interfaceId",
          "type": "bytes4"
        }
      ],
      "name": "supportsInterface",
      "outputs": [
        {
          "internalType": "bool",
          "name": "",
          "type": "bool"
        }
      ],
      "stateMutability": "view",
      "type": "function"
    },
    {
      "inputs": [],
      "name": "usdc",
      "outputs": [
        {
          "internalType": "address",
          "name": "",
          "type": "address"
        }
      ],
      "stateMutability": "view",
      "type": "function"
    },
    {
      "inputs": [],
      "name": "vault",
      "outputs": [
        {
          "internalType": "address",
          "name": "",
          "type": "address"
        }
      ],
      "stateMutability": "view",
      "type": "function"
    }
  ],
  "bytecode": "0x608060405234801561001057600080fd5b5061001961001e565b6100d0565b7ff0c57e16840df040f15088dc2f81fe391c3923bec73e23a9662efc9c229c6a00805468010000000000000000900460ff161561006e5760405163f92ee8a960e01b815260040160405180910390fd5b80546001600160401b03908116146100cd5780546001600160401b0319166001600160401b0390811782556040519081527fc7f505b2f371ae2175ee4913f4499e1f2633a7b5936321eed1cdaeb6115181d29060200160405180910390a15b50565b61153d806100df6000396000f3fe608060405234801561001057600080fd5b50600436106101115760003560e01c80638c4a3815116100ad578063cd3293de11610071578063cd3293de1461023e578063d547741f14610246578063f36c8f5c14610259578063f98cf07c1461026e578063fbfa77cf1461028157600080fd5b80638c4a3815146101ea57806391d14854146101fd578063a217fddf14610210578063b5fd7d4c14610218578063b6b55f251461022b57600080fd5b806301ffc9a71461011657806304a0fb171461013e57806311917b1d14610161578063248a9ca314610176578063256b5a02146101895780632f2ff15d1461019c57806336568abe146101af5780633e413bee146101c257806360360700146101d7575b600080fd5b6101296101243660046111d1565b610289565b60405190151581526020015b60405180910390f35b6101536000805160206114e883398151915281565b604051908152602001610135565b61017461016f366004611217565b6102c0565b005b61015361018436600461127d565b61054d565b610174610197366004611296565b61056d565b6101746101aa3660046112b1565b6105b5565b6101746101bd3660046112b1565b6105d7565b6101ca61060f565b60405161013591906112dd565b6101746101e5366004611296565b61062a565b6101746101f836600461127d565b610680565b61012961020b3660046112b1565b6106d3565b610153600081565b610174610226366004611296565b610709565b61017461023936600461127d565b61077c565b610153610802565b6101746102543660046112b1565b610817565b6101536000805160206114c883398151915281565b61017461027c3660046112f1565b610833565b6101ca6109ec565b60006001600160e01b03198216637965db0b60e01b14806102ba57506301ffc9a760e01b6001600160e01b03198316145b92915050565b7ff0c57e16840df040f15088dc2f81fe391c3923bec73e23a9662efc9c229c6a008054600160401b810460ff16159067ffffffffffffffff166000811580156103065750825b905060008267ffffffffffffffff1660011480156103235750303b155b905081158015610331575080155b1561034f5760405163f92ee8a960e01b815260040160405180910390fd5b845467ffffffffffffffff19166001178555831561037957845460ff60401b1916600160401b1785555b6001600160a01b038b166103cb5760405162461bcd60e51b8152602060048201526014602482015273496e76616c69642055534443206164647265737360601b60448201526064015b60405180910390fd5b6001600160a01b0388166103f15760405162461bcd60e51b81526004016103c29061131b565b61271089111561043a5760405162461bcd60e51b8152602060048201526014602482015273496e76616c6964204e2070657263656e7461676560601b60448201526064016103c2565b60008a1161045a5760405162461bcd60e51b81526004016103c290611352565b6000610464610a0a565b80546001600160a01b0319166001600160a01b038e16178155600381018c9055600481018b905590506104998a6127106113b0565b60058201556006810180546001600160a01b0319166001600160a01b038a161790556104c660008a610a2e565b506104df6000805160206114e883398151915288610a2e565b506104f86000805160206114c88339815191528a610a2e565b5050831561054057845460ff60401b19168555604051600181527fc7f505b2f371ae2175ee4913f4499e1f2633a7b5936321eed1cdaeb6115181d29060200160405180910390a15b5050505050505050505050565b600080610558610acf565b60009384526020525050604090206001015490565b6000805160206114e883398151915261058581610af3565b600061058f610a0a565b60020180546001600160a01b0319166001600160a01b0394909416939093179092555050565b6105be8261054d565b6105c781610af3565b6105d18383610a2e565b50505050565b6001600160a01b03811633146106005760405163334bd91960e11b815260040160405180910390fd5b61060a8282610b00565b505050565b60008061061a610a0a565b546001600160a01b031692915050565b6000805160206114e883398151915261064281610af3565b6001600160a01b0382166106685760405162461bcd60e51b81526004016103c29061131b565b61060a6000805160206114c883398151915283610a2e565b6000805160206114c883398151915261069881610af3565b600082116106b85760405162461bcd60e51b81526004016103c290611352565b60006106c2610a0a565b60038101849055905061060a610b78565b6000806106de610acf565b6000948552602090815260408086206001600160a01b03959095168652939052505090205460ff1690565b600061071481610af3565b6001600160a01b0382166107645760405162461bcd60e51b8152602060048201526017602482015276496e76616c696420666163746f7279206164647265737360481b60448201526064016103c2565b61060a6000805160206114e883398151915283610a2e565b6000811161079c5760405162461bcd60e51b81526004016103c2906113c3565b60006107a6610a0a565b80549091506107c0906001600160a01b0316333085610d32565b60405182815233907fe1fffcc4923d04b559f4d29a8bfc6cda04eb5b0d3c460751c2402c5c5cc9109c9060200160405180910390a26107fe82610d99565b5050565b60008061080d610a0a565b6003015492915050565b6108208261054d565b61082981610af3565b6105d18383610b00565b6000805160206114c883398151915261084b81610af3565b6001600160a01b03831661089d5760405162461bcd60e51b8152602060048201526019602482015278496e76616c696420726563697069656e74206164647265737360381b60448201526064016103c2565b600082116108bd5760405162461bcd60e51b81526004016103c2906113c3565b60006108c7610a0a565b80546040516370a0823160e01b81529192506000916001600160a01b03909116906370a08231906108fc9030906004016112dd565b602060405180830381865afa158015610919573d6000803e3d6000fd5b505050506040513d601f19601f8201168201806040525081019061093d91906113f8565b9050838110156109845760405162461bcd60e51b8152602060048201526012602482015271496e73756666696369656e742066756e647360701b60448201526064016103c2565b815461099a906001600160a01b03168686610e34565b846001600160a01b03167fd4f43975feb89f48dd30cabbb32011045be187d1e11c8ea9faa43efc35282519856040516109d591815260200190565b60405180910390a26109e5610b78565b5050505050565b6000806109f7610a0a565b600201546001600160a01b031692915050565b7f72a4ccd47996c0aa9e54efd606e03b13bee57794bd0974b6dda8fcd457f3770090565b600080610a39610acf565b9050610a4584846106d3565b610ac5576000848152602082815260408083206001600160a01b03871684529091529020805460ff19166001179055610a7b3390565b6001600160a01b0316836001600160a01b0316857f2f8788117e7eff1d82e926ec794901d17c78024a50270940304540a733656f0d60405160405180910390a460019150506102ba565b60009150506102ba565b7f02dd7bc7dec4dceedda775e58dd541e08a116c6c53815c0bd028192f7b62680090565b610afd8133610e5a565b50565b600080610b0b610acf565b9050610b1784846106d3565b15610ac5576000848152602082815260408083206001600160a01b0387168085529252808320805460ff1916905551339287917ff6391f5c32d9c69d2a47ea670b442974b53935d1edc7fd64eb21e047a839171b9190a460019150506102ba565b6000610b82610a0a565b60028101549091506001600160a01b0316610bd95760405162461bcd60e51b8152602060048201526017602482015276151c99585cdd5c9e4e881b5a5cdcda5b99c81d985d5b1d604a1b60448201526064016103c2565b80546040516370a0823160e01b81526000916001600160a01b0316906370a0823190610c099030906004016112dd565b602060405180830381865afa158015610c26573d6000803e3d6000fd5b505050506040513d601f19601f82011682018060405250810190610c4a91906113f8565b905081600301548111156107fe576000826003015482610c6a91906113b0565b60028401548454919250610c8b916001600160a01b03908116911683610e85565b600283015483546040516309feb8f560e41b81526001600160a01b0392831692639feb8f5092610cc2929116908590600401611411565b600060405180830381600087803b158015610cdc57600080fd5b505af1158015610cf0573d6000803e3d6000fd5b505050507f0f667efc3742e4603daefd5701e8a80813b86ed2ad102d1dec5c9840af7926da81604051610d2591815260200190565b60405180910390a1505050565b6040516001600160a01b0384811660248301528381166044830152606482018390526105d19186918216906323b872dd906084015b604051602081830303815290604052915060e01b6020820180516001600160e01b038381831617835250505050610f0f565b6000610da3610a0a565b90506000612710826004015484610dba919061142a565b610dc49190611441565b90506000610dd282856113b0565b60068401548454919250610df3916001600160a01b03908116911684610e34565b60408051838152602081018390527f40d8c854b6d5329fd5fccae04f5a931d7529963fbab81aced7337394e737cb4d910160405180910390a16105d1610b78565b61060a83846001600160a01b031663a9059cbb8585604051602401610d67929190611411565b610e6482826106d3565b6107fe57808260405163e2517d3f60e01b81526004016103c2929190611411565b604051636eb1769f60e11b81523060048201526001600160a01b0383811660248301526000919085169063dd62ed3e90604401602060405180830381865afa158015610ed5573d6000803e3d6000fd5b505050506040513d601f19601f82011682018060405250810190610ef991906113f8565b90506105d18484610f0a8585611463565b610f69565b6000610f246001600160a01b03841683610ffb565b90508051600014158015610f49575080806020019051810190610f479190611476565b155b1561060a5782604051635274afe760e01b81526004016103c291906112dd565b6000836001600160a01b031663095ea7b38484604051602401610f8d929190611411565b604051602081830303815290604052915060e01b6020820180516001600160e01b0383818316178352505050509050610fc68482611010565b6105d157610ff184856001600160a01b031663095ea7b3866000604051602401610d67929190611411565b6105d18482610f0f565b6060611009838360006110b8565b9392505050565b6000806000846001600160a01b03168460405161102d9190611498565b6000604051808303816000865af19150503d806000811461106a576040519150601f19603f3d011682016040523d82523d6000602084013e61106f565b606091505b50915091508180156110995750805115806110995750808060200190518101906110999190611476565b80156110af57506000856001600160a01b03163b115b95945050505050565b6060814710156110dd573060405163cd78605960e01b81526004016103c291906112dd565b600080856001600160a01b031684866040516110f99190611498565b60006040518083038185875af1925050503d8060008114611136576040519150601f19603f3d011682016040523d82523d6000602084013e61113b565b606091505b509150915061114b868383611155565b9695505050505050565b60608261116a57611165826111a8565b611009565b815115801561118157506001600160a01b0384163b155b156111a15783604051639996b31560e01b81526004016103c291906112dd565b5080611009565b8051156111b85780518082602001fd5b604051630a12f52160e11b815260040160405180910390fd5b6000602082840312156111e357600080fd5b81356001600160e01b03198116811461100957600080fd5b80356001600160a01b038116811461121257600080fd5b919050565b60008060008060008060c0878903121561123057600080fd5b611239876111fb565b95506020870135945060408701359350611255606088016111fb565b9250611263608088016111fb565b915061127160a088016111fb565b90509295509295509295565b60006020828403121561128f57600080fd5b5035919050565b6000602082840312156112a857600080fd5b611009826111fb565b600080604083850312156112c457600080fd5b823591506112d4602084016111fb565b90509250929050565b6001600160a01b0391909116815260200190565b6000806040838503121561130457600080fd5b61130d836111fb565b946020939093013593505050565b6020808252601a908201527f496e76616c696420676f7665726e616e63652061646472657373000000000000604082015260600190565b60208082526028908201527f5265736572766520616d6f756e74206d7573742062652067726561746572207460408201526768616e207a65726f60c01b606082015260800190565b634e487b7160e01b600052601160045260246000fd5b818103818111156102ba576102ba61139a565b6020808252818101527f416d6f756e74206d7573742062652067726561746572207468616e207a65726f604082015260600190565b60006020828403121561140a57600080fd5b5051919050565b6001600160a01b03929092168252602082015260400190565b80820281158282048414176102ba576102ba61139a565b60008261145e57634e487b7160e01b600052601260045260246000fd5b500490565b808201808211156102ba576102ba61139a565b60006020828403121561148857600080fd5b8151801515811461100957600080fd5b6000825160005b818110156114b9576020818601810151858301520161149f565b50600092019182525091905056fe71840dc4906352362b0cdaf79870196c8e42acafade72d5d5a6d59291253ceb1dfbefbf47cfe66b701d8cfdbce1de81c821590819cb07e71cb01b6602fb0ee27a26469706673582212208a8f7186bf524ec42000c440f39cc45ebb5280f6ca109e5e8100606dfaf689a664736f6c63430008180033",
  "linkReferences": {},
  "deployedLinkReferences": {}
}