{
  "_format": "hh-sol-artifact-1",
  "contractName": "Treasury",
  "sourceName": "contracts/treasury/Treasury.sol",
  "abi": [
    {
      "inputs": [
        {
          "internalType": "address",
          "name": "_usdcAddress",
          "type": "address"
        },
        {
          "internalType": "address",
          "name": "_buildingTokenAddress",
          "type": "address"
        },
        {
          "internalType": "address",
          "name": "_vaultAddress",
          "type": "address"
        },
        {
          "internalType": "uint256",
          "name": "_reserveAmount",
          "type": "uint256"
        },
        {
          "internalType": "uint256",
          "name": "_nPercentage",
          "type": "uint256"
        },
        {
          "internalType": "address",
          "name": "_businessAddress",
          "type": "address"
        },
        {
          "internalType": "address",
          "name": "governanceAddress",
          "type": "address"
        }
      ],
      "stateMutability": "nonpayable",
      "type": "constructor"
    },
    {
      "inputs": [],
      "name": "AccessControlBadConfirmation",
      "type": "error"
    },
    {
      "inputs": [
        {
          "internalType": "address",
          "name": "account",
          "type": "address"
        },
        {
          "internalType": "bytes32",
          "name": "neededRole",
          "type": "bytes32"
        }
      ],
      "name": "AccessControlUnauthorizedAccount",
      "type": "error"
    },
    {
      "inputs": [
        {
          "internalType": "address",
          "name": "target",
          "type": "address"
        }
      ],
      "name": "AddressEmptyCode",
      "type": "error"
    },
    {
      "inputs": [
        {
          "internalType": "address",
          "name": "account",
          "type": "address"
        }
      ],
      "name": "AddressInsufficientBalance",
      "type": "error"
    },
    {
      "inputs": [],
      "name": "FailedInnerCall",
      "type": "error"
    },
    {
      "inputs": [
        {
          "internalType": "address",
          "name": "token",
          "type": "address"
        }
      ],
      "name": "SafeERC20FailedOperation",
      "type": "error"
    },
    {
      "anonymous": false,
      "inputs": [
        {
          "indexed": true,
          "internalType": "address",
          "name": "from",
          "type": "address"
        },
        {
          "indexed": false,
          "internalType": "uint256",
          "name": "amount",
          "type": "uint256"
        }
      ],
      "name": "Deposit",
      "type": "event"
    },
    {
      "anonymous": false,
      "inputs": [
        {
          "indexed": false,
          "internalType": "uint256",
          "name": "amount",
          "type": "uint256"
        }
      ],
      "name": "ExcessFundsForwarded",
      "type": "event"
    },
    {
      "anonymous": false,
      "inputs": [
        {
          "indexed": false,
          "internalType": "uint256",
          "name": "toBusiness",
          "type": "uint256"
        },
        {
          "indexed": false,
          "internalType": "uint256",
          "name": "toTreasury",
          "type": "uint256"
        }
      ],
      "name": "FundsDistributed",
      "type": "event"
    },
    {
      "anonymous": false,
      "inputs": [
        {
          "indexed": true,
          "internalType": "address",
          "name": "to",
          "type": "address"
        },
        {
          "indexed": false,
          "internalType": "uint256",
          "name": "amount",
          "type": "uint256"
        }
      ],
      "name": "Payment",
      "type": "event"
    },
    {
      "anonymous": false,
      "inputs": [
        {
          "indexed": true,
          "internalType": "bytes32",
          "name": "role",
          "type": "bytes32"
        },
        {
          "indexed": true,
          "internalType": "bytes32",
          "name": "previousAdminRole",
          "type": "bytes32"
        },
        {
          "indexed": true,
          "internalType": "bytes32",
          "name": "newAdminRole",
          "type": "bytes32"
        }
      ],
      "name": "RoleAdminChanged",
      "type": "event"
    },
    {
      "anonymous": false,
      "inputs": [
        {
          "indexed": true,
          "internalType": "bytes32",
          "name": "role",
          "type": "bytes32"
        },
        {
          "indexed": true,
          "internalType": "address",
          "name": "account",
          "type": "address"
        },
        {
          "indexed": true,
          "internalType": "address",
          "name": "sender",
          "type": "address"
        }
      ],
      "name": "RoleGranted",
      "type": "event"
    },
    {
      "anonymous": false,
      "inputs": [
        {
          "indexed": true,
          "internalType": "bytes32",
          "name": "role",
          "type": "bytes32"
        },
        {
          "indexed": true,
          "internalType": "address",
          "name": "account",
          "type": "address"
        },
        {
          "indexed": true,
          "internalType": "address",
          "name": "sender",
          "type": "address"
        }
      ],
      "name": "RoleRevoked",
      "type": "event"
    },
    {
      "inputs": [],
      "name": "DEFAULT_ADMIN_ROLE",
      "outputs": [
        {
          "internalType": "bytes32",
          "name": "",
          "type": "bytes32"
        }
      ],
      "stateMutability": "view",
      "type": "function"
    },
    {
      "inputs": [],
      "name": "GOVERNANCE_ROLE",
      "outputs": [
        {
          "internalType": "bytes32",
          "name": "",
          "type": "bytes32"
        }
      ],
      "stateMutability": "view",
      "type": "function"
    },
    {
      "inputs": [],
      "name": "buildingToken",
      "outputs": [
        {
          "internalType": "contract IERC20",
          "name": "",
          "type": "address"
        }
      ],
      "stateMutability": "view",
      "type": "function"
    },
    {
      "inputs": [],
      "name": "businessAddress",
      "outputs": [
        {
          "internalType": "address",
          "name": "",
          "type": "address"
        }
      ],
      "stateMutability": "view",
      "type": "function"
    },
    {
      "inputs": [
        {
          "internalType": "uint256",
          "name": "amount",
          "type": "uint256"
        }
      ],
      "name": "deposit",
      "outputs": [],
      "stateMutability": "nonpayable",
      "type": "function"
    },
    {
      "inputs": [
        {
          "internalType": "bytes32",
          "name": "role",
          "type": "bytes32"
        }
      ],
      "name": "getRoleAdmin",
      "outputs": [
        {
          "internalType": "bytes32",
          "name": "",
          "type": "bytes32"
        }
      ],
      "stateMutability": "view",
      "type": "function"
    },
    {
      "inputs": [
        {
          "internalType": "bytes32",
          "name": "role",
          "type": "bytes32"
        },
        {
          "internalType": "address",
          "name": "account",
          "type": "address"
        }
      ],
      "name": "grantRole",
      "outputs": [],
      "stateMutability": "nonpayable",
      "type": "function"
    },
    {
      "inputs": [
        {
          "internalType": "bytes32",
          "name": "role",
          "type": "bytes32"
        },
        {
          "internalType": "address",
          "name": "account",
          "type": "address"
        }
      ],
      "name": "hasRole",
      "outputs": [
        {
          "internalType": "bool",
          "name": "",
          "type": "bool"
        }
      ],
      "stateMutability": "view",
      "type": "function"
    },
    {
      "inputs": [],
      "name": "mPercentage",
      "outputs": [
        {
          "internalType": "uint256",
          "name": "",
          "type": "uint256"
        }
      ],
      "stateMutability": "view",
      "type": "function"
    },
    {
      "inputs": [
        {
          "internalType": "address",
          "name": "to",
          "type": "address"
        },
        {
          "internalType": "uint256",
          "name": "amount",
          "type": "uint256"
        }
      ],
      "name": "makePayment",
      "outputs": [],
      "stateMutability": "nonpayable",
      "type": "function"
    },
    {
      "inputs": [],
      "name": "nPercentage",
      "outputs": [
        {
          "internalType": "uint256",
          "name": "",
          "type": "uint256"
        }
      ],
      "stateMutability": "view",
      "type": "function"
    },
    {
      "inputs": [
        {
          "internalType": "bytes32",
          "name": "role",
          "type": "bytes32"
        },
        {
          "internalType": "address",
          "name": "callerConfirmation",
          "type": "address"
        }
      ],
      "name": "renounceRole",
      "outputs": [],
      "stateMutability": "nonpayable",
      "type": "function"
    },
    {
      "inputs": [],
      "name": "reserveAmount",
      "outputs": [
        {
          "internalType": "uint256",
          "name": "",
          "type": "uint256"
        }
      ],
      "stateMutability": "view",
      "type": "function"
    },
    {
      "inputs": [
        {
          "internalType": "bytes32",
          "name": "role",
          "type": "bytes32"
        },
        {
          "internalType": "address",
          "name": "account",
          "type": "address"
        }
      ],
      "name": "revokeRole",
      "outputs": [],
      "stateMutability": "nonpayable",
      "type": "function"
    },
    {
      "inputs": [
        {
          "internalType": "uint256",
          "name": "newReserveAmount",
          "type": "uint256"
        }
      ],
      "name": "setReserveAmount",
      "outputs": [],
      "stateMutability": "nonpayable",
      "type": "function"
    },
    {
      "inputs": [
        {
          "internalType": "bytes4",
          "name": "interfaceId",
          "type": "bytes4"
        }
      ],
      "name": "supportsInterface",
      "outputs": [
        {
          "internalType": "bool",
          "name": "",
          "type": "bool"
        }
      ],
      "stateMutability": "view",
      "type": "function"
    },
    {
      "inputs": [],
      "name": "usdc",
      "outputs": [
        {
          "internalType": "contract IERC20",
          "name": "",
          "type": "address"
        }
      ],
      "stateMutability": "view",
      "type": "function"
    },
    {
      "inputs": [],
      "name": "vault",
      "outputs": [
        {
          "internalType": "contract IVault",
          "name": "",
          "type": "address"
        }
      ],
      "stateMutability": "view",
      "type": "function"
    }
  ],
  "bytecode": "0x60806040523480156200001157600080fd5b50604051620014103803806200141083398101604081905262000034916200042e565b6001600160a01b038716620000905760405162461bcd60e51b815260206004820152601460248201527f496e76616c69642055534443206164647265737300000000000000000000000060448201526064015b60405180910390fd5b6001600160a01b038616620000e85760405162461bcd60e51b815260206004820152601560248201527f496e76616c696420746f6b656e20616464726573730000000000000000000000604482015260640162000087565b6001600160a01b038516620001405760405162461bcd60e51b815260206004820152601560248201527f496e76616c6964205661756c7420616464726573730000000000000000000000604482015260640162000087565b6001600160a01b038216620001985760405162461bcd60e51b815260206004820152601860248201527f496e76616c696420627573696e65737320616464726573730000000000000000604482015260640162000087565b6001600160a01b038116620001f05760405162461bcd60e51b815260206004820152601a60248201527f496e76616c696420676f7665726e616e63652061646472657373000000000000604482015260640162000087565b612710831115620002445760405162461bcd60e51b815260206004820152601460248201527f496e76616c6964204e2070657263656e74616765000000000000000000000000604482015260640162000087565b60008411620002a75760405162461bcd60e51b815260206004820152602860248201527f5265736572766520616d6f756e74206d7573742062652067726561746572207460448201526768616e207a65726f60c01b606482015260840162000087565b600180546001600160a01b03808a166001600160a01b03199283161790925560028054898416908316179055600380549288169290911691909117905560048490556005839055620002fc83612710620004b1565b600655600780546001600160a01b0319166001600160a01b0384161790556200032760008262000362565b50620003547f71840dc4906352362b0cdaf79870196c8e42acafade72d5d5a6d59291253ceb18262000362565b5050505050505050620004d3565b6000828152602081815260408083206001600160a01b038516845290915281205460ff1662000407576000838152602081815260408083206001600160a01b03861684529091529020805460ff19166001179055620003be3390565b6001600160a01b0316826001600160a01b0316847f2f8788117e7eff1d82e926ec794901d17c78024a50270940304540a733656f0d60405160405180910390a45060016200040b565b5060005b92915050565b80516001600160a01b03811681146200042957600080fd5b919050565b600080600080600080600060e0888a0312156200044a57600080fd5b620004558862000411565b9650620004656020890162000411565b9550620004756040890162000411565b945060608801519350608088015192506200049360a0890162000411565b9150620004a360c0890162000411565b905092959891949750929550565b818103818111156200040b57634e487b7160e01b600052601160045260246000fd5b610f2d80620004e36000396000f3fe608060405234801561001057600080fd5b50600436106100f65760003560e01c806385bb0e381161009257806385bb0e38146101d45780638c4a3815146101dd57806391d14854146101f0578063a217fddf14610203578063b6b55f251461020b578063d547741f1461021e578063f36c8f5c14610231578063f98cf07c14610246578063fbfa77cf1461025957600080fd5b806301ffc9a7146100fb578063047bf674146101235780631583deb21461013a578063248a9ca31461015a5780632f2ff15d1461017d57806336568abe146101925780633e413bee146101a55780634b09b72a146101b8578063644ad445146101c1575b600080fd5b61010e610109366004610ce1565b61026c565b60405190151581526020015b60405180910390f35b61012c60065481565b60405190815260200161011a565b60075461014d906001600160a01b031681565b60405161011a9190610d0b565b61012c610168366004610d1f565b60009081526020819052604090206001015490565b61019061018b366004610d54565b6102a3565b005b6101906101a0366004610d54565b6102ce565b60015461014d906001600160a01b031681565b61012c60045481565b60025461014d906001600160a01b031681565b61012c60055481565b6101906101eb366004610d1f565b610306565b61010e6101fe366004610d54565b610395565b61012c600081565b610190610219366004610d1f565b6103be565b61019061022c366004610d54565b610437565b61012c600080516020610ed883398151915281565b610190610254366004610d80565b61045c565b60035461014d906001600160a01b031681565b60006001600160e01b03198216637965db0b60e01b148061029d57506301ffc9a760e01b6001600160e01b03198316145b92915050565b6000828152602081905260409020600101546102be81610601565b6102c8838361060b565b50505050565b6001600160a01b03811633146102f75760405163334bd91960e11b815260040160405180910390fd5b610301828261069d565b505050565b600080516020610ed883398151915261031e81610601565b600082116103845760405162461bcd60e51b815260206004820152602860248201527f5265736572766520616d6f756e74206d7573742062652067726561746572207460448201526768616e207a65726f60c01b60648201526084015b60405180910390fd5b6004829055610391610708565b5050565b6000918252602082815260408084206001600160a01b0393909316845291905290205460ff1690565b600081116103de5760405162461bcd60e51b815260040161037b90610daa565b6001546103f6906001600160a01b0316333084610851565b60405181815233907fe1fffcc4923d04b559f4d29a8bfc6cda04eb5b0d3c460751c2402c5c5cc9109c9060200160405180910390a2610434816108b8565b50565b60008281526020819052604090206001015461045281610601565b6102c8838361069d565b600080516020610ed883398151915261047481610601565b6001600160a01b0383166104c65760405162461bcd60e51b8152602060048201526019602482015278496e76616c696420726563697069656e74206164647265737360381b604482015260640161037b565b600082116104e65760405162461bcd60e51b815260040161037b90610daa565b6001546040516370a0823160e01b81526000916001600160a01b0316906370a0823190610517903090600401610d0b565b602060405180830381865afa158015610534573d6000803e3d6000fd5b505050506040513d601f19601f820116820180604052508101906105589190610ddf565b90508281101561059f5760405162461bcd60e51b8152602060048201526012602482015271496e73756666696369656e742066756e647360701b604482015260640161037b565b6001546105b6906001600160a01b03168585610944565b836001600160a01b03167fd4f43975feb89f48dd30cabbb32011045be187d1e11c8ea9faa43efc35282519846040516105f191815260200190565b60405180910390a26102c8610708565b610434813361096a565b60006106178383610395565b610695576000838152602081815260408083206001600160a01b03861684529091529020805460ff1916600117905561064d3390565b6001600160a01b0316826001600160a01b0316847f2f8788117e7eff1d82e926ec794901d17c78024a50270940304540a733656f0d60405160405180910390a450600161029d565b50600061029d565b60006106a98383610395565b15610695576000838152602081815260408083206001600160a01b0386168085529252808320805460ff1916905551339286917ff6391f5c32d9c69d2a47ea670b442974b53935d1edc7fd64eb21e047a839171b9190a450600161029d565b6001546040516370a0823160e01b81526000916001600160a01b0316906370a0823190610739903090600401610d0b565b602060405180830381865afa158015610756573d6000803e3d6000fd5b505050506040513d601f19601f8201168201806040525081019061077a9190610ddf565b9050600454811115610434576000600454826107969190610e0e565b6003546001549192506107b6916001600160a01b03908116911683610995565b60035460405163b6b55f2560e01b8152600481018390526001600160a01b039091169063b6b55f2590602401600060405180830381600087803b1580156107fc57600080fd5b505af1158015610810573d6000803e3d6000fd5b505050507f0f667efc3742e4603daefd5701e8a80813b86ed2ad102d1dec5c9840af7926da8160405161084591815260200190565b60405180910390a15050565b6040516001600160a01b0384811660248301528381166044830152606482018390526102c89186918216906323b872dd906084015b604051602081830303815290604052915060e01b6020820180516001600160e01b038381831617835250505050610a1f565b6000612710600554836108cb9190610e21565b6108d59190610e38565b905060006108e38284610e0e565b600754600154919250610903916001600160a01b03908116911684610944565b60408051838152602081018390527f40d8c854b6d5329fd5fccae04f5a931d7529963fbab81aced7337394e737cb4d910160405180910390a1610301610708565b61030183846001600160a01b031663a9059cbb8585604051602401610886929190610e5a565b6109748282610395565b61039157808260405163e2517d3f60e01b815260040161037b929190610e5a565b604051636eb1769f60e11b81523060048201526001600160a01b0383811660248301526000919085169063dd62ed3e90604401602060405180830381865afa1580156109e5573d6000803e3d6000fd5b505050506040513d601f19601f82011682018060405250810190610a099190610ddf565b90506102c88484610a1a8585610e73565b610a79565b6000610a346001600160a01b03841683610b0b565b90508051600014158015610a59575080806020019051810190610a579190610e86565b155b156103015782604051635274afe760e01b815260040161037b9190610d0b565b6000836001600160a01b031663095ea7b38484604051602401610a9d929190610e5a565b604051602081830303815290604052915060e01b6020820180516001600160e01b0383818316178352505050509050610ad68482610b20565b6102c857610b0184856001600160a01b031663095ea7b3866000604051602401610886929190610e5a565b6102c88482610a1f565b6060610b1983836000610bc8565b9392505050565b6000806000846001600160a01b031684604051610b3d9190610ea8565b6000604051808303816000865af19150503d8060008114610b7a576040519150601f19603f3d011682016040523d82523d6000602084013e610b7f565b606091505b5091509150818015610ba9575080511580610ba9575080806020019051810190610ba99190610e86565b8015610bbf57506000856001600160a01b03163b115b95945050505050565b606081471015610bed573060405163cd78605960e01b815260040161037b9190610d0b565b600080856001600160a01b03168486604051610c099190610ea8565b60006040518083038185875af1925050503d8060008114610c46576040519150601f19603f3d011682016040523d82523d6000602084013e610c4b565b606091505b5091509150610c5b868383610c65565b9695505050505050565b606082610c7a57610c7582610cb8565b610b19565b8151158015610c9157506001600160a01b0384163b155b15610cb15783604051639996b31560e01b815260040161037b9190610d0b565b5080610b19565b805115610cc85780518082602001fd5b604051630a12f52160e11b815260040160405180910390fd5b600060208284031215610cf357600080fd5b81356001600160e01b031981168114610b1957600080fd5b6001600160a01b0391909116815260200190565b600060208284031215610d3157600080fd5b5035919050565b80356001600160a01b0381168114610d4f57600080fd5b919050565b60008060408385031215610d6757600080fd5b82359150610d7760208401610d38565b90509250929050565b60008060408385031215610d9357600080fd5b610d9c83610d38565b946020939093013593505050565b6020808252818101527f416d6f756e74206d7573742062652067726561746572207468616e207a65726f604082015260600190565b600060208284031215610df157600080fd5b5051919050565b634e487b7160e01b600052601160045260246000fd5b8181038181111561029d5761029d610df8565b808202811582820484141761029d5761029d610df8565b600082610e5557634e487b7160e01b600052601260045260246000fd5b500490565b6001600160a01b03929092168252602082015260400190565b8082018082111561029d5761029d610df8565b600060208284031215610e9857600080fd5b81518015158114610b1957600080fd5b6000825160005b81811015610ec95760208186018101518583015201610eaf565b50600092019182525091905056fe71840dc4906352362b0cdaf79870196c8e42acafade72d5d5a6d59291253ceb1a2646970667358221220531160b126b91d1b4a4cfb7ce45659f70d5eadfb85a5a0f296917e748bb7855564736f6c63430008180033",
  "linkReferences": {},
  "deployedLinkReferences": {}
}