{
  "_format": "hh-sol-artifact-1",
  "contractName": "TREXGateway",
  "sourceName": "contracts/erc3643/factory/TREXGateway.sol",
  "abi": [
    {
      "inputs": [
        {
          "internalType": "address",
          "name": "factory",
          "type": "address"
        },
        {
          "internalType": "bool",
          "name": "publicDeploymentStatus",
          "type": "bool"
        }
      ],
      "stateMutability": "nonpayable",
      "type": "constructor"
    },
    {
      "inputs": [
        {
          "internalType": "uint16",
          "name": "lengthLimit",
          "type": "uint16"
        }
      ],
      "name": "BatchMaxLengthExceeded",
      "type": "error"
    },
    {
      "inputs": [
        {
          "internalType": "address",
          "name": "deployer",
          "type": "address"
        }
      ],
      "name": "DeployerAlreadyExists",
      "type": "error"
    },
    {
      "inputs": [
        {
          "internalType": "address",
          "name": "deployer",
          "type": "address"
        }
      ],
      "name": "DeployerDoesNotExist",
      "type": "error"
    },
    {
      "inputs": [],
      "name": "DeploymentFeesAlreadyDisabled",
      "type": "error"
    },
    {
      "inputs": [],
      "name": "DeploymentFeesAlreadyEnabled",
      "type": "error"
    },
    {
      "inputs": [],
      "name": "DiscountOutOfRange",
      "type": "error"
    },
    {
      "inputs": [],
      "name": "OnlyAdminCall",
      "type": "error"
    },
    {
      "inputs": [
        {
          "internalType": "address",
          "name": "owner",
          "type": "address"
        }
      ],
      "name": "OwnableInvalidOwner",
      "type": "error"
    },
    {
      "inputs": [
        {
          "internalType": "address",
          "name": "account",
          "type": "address"
        }
      ],
      "name": "OwnableUnauthorizedAccount",
      "type": "error"
    },
    {
      "inputs": [],
      "name": "PublicCannotDeployOnBehalf",
      "type": "error"
    },
    {
      "inputs": [],
      "name": "PublicDeploymentAlreadyDisabled",
      "type": "error"
    },
    {
      "inputs": [],
      "name": "PublicDeploymentAlreadyEnabled",
      "type": "error"
    },
    {
      "inputs": [],
      "name": "PublicDeploymentsNotAllowed",
      "type": "error"
    },
    {
      "inputs": [
        {
          "internalType": "uint256",
          "name": "value",
          "type": "uint256"
        },
        {
          "internalType": "uint256",
          "name": "length",
          "type": "uint256"
        }
      ],
      "name": "StringsInsufficientHexLength",
      "type": "error"
    },
    {
      "inputs": [],
      "name": "ZeroAddress",
      "type": "error"
    },
    {
      "anonymous": false,
      "inputs": [
        {
          "indexed": true,
          "internalType": "address",
          "name": "_agent",
          "type": "address"
        }
      ],
      "name": "AgentAdded",
      "type": "event"
    },
    {
      "anonymous": false,
      "inputs": [
        {
          "indexed": true,
          "internalType": "address",
          "name": "_agent",
          "type": "address"
        }
      ],
      "name": "AgentRemoved",
      "type": "event"
    },
    {
      "anonymous": false,
      "inputs": [
        {
          "indexed": true,
          "internalType": "address",
          "name": "deployer",
          "type": "address"
        }
      ],
      "name": "DeployerAdded",
      "type": "event"
    },
    {
      "anonymous": false,
      "inputs": [
        {
          "indexed": true,
          "internalType": "address",
          "name": "deployer",
          "type": "address"
        }
      ],
      "name": "DeployerRemoved",
      "type": "event"
    },
    {
      "anonymous": false,
      "inputs": [
        {
          "indexed": true,
          "internalType": "bool",
          "name": "isEnabled",
          "type": "bool"
        }
      ],
      "name": "DeploymentFeeEnabled",
      "type": "event"
    },
    {
      "anonymous": false,
      "inputs": [
        {
          "indexed": true,
          "internalType": "uint256",
          "name": "fee",
          "type": "uint256"
        },
        {
          "indexed": true,
          "internalType": "address",
          "name": "feeToken",
          "type": "address"
        },
        {
          "indexed": true,
          "internalType": "address",
          "name": "feeCollector",
          "type": "address"
        }
      ],
      "name": "DeploymentFeeSet",
      "type": "event"
    },
    {
      "anonymous": false,
      "inputs": [
        {
          "indexed": true,
          "internalType": "address",
          "name": "factory",
          "type": "address"
        }
      ],
      "name": "FactorySet",
      "type": "event"
    },
    {
      "anonymous": false,
      "inputs": [
        {
          "indexed": true,
          "internalType": "address",
          "name": "deployer",
          "type": "address"
        },
        {
          "indexed": false,
          "internalType": "uint16",
          "name": "discount",
          "type": "uint16"
        }
      ],
      "name": "FeeDiscountApplied",
      "type": "event"
    },
    {
      "anonymous": false,
      "inputs": [
        {
          "indexed": true,
          "internalType": "address",
          "name": "requester",
          "type": "address"
        },
        {
          "indexed": false,
          "internalType": "address",
          "name": "intendedOwner",
          "type": "address"
        },
        {
          "indexed": false,
          "internalType": "uint256",
          "name": "feeApplied",
          "type": "uint256"
        }
      ],
      "name": "GatewaySuiteDeploymentProcessed",
      "type": "event"
    },
    {
      "anonymous": false,
      "inputs": [
        {
          "indexed": true,
          "internalType": "address",
          "name": "previousOwner",
          "type": "address"
        },
        {
          "indexed": true,
          "internalType": "address",
          "name": "newOwner",
          "type": "address"
        }
      ],
      "name": "OwnershipTransferred",
      "type": "event"
    },
    {
      "anonymous": false,
      "inputs": [
        {
          "indexed": true,
          "internalType": "bool",
          "name": "publicDeploymentStatus",
          "type": "bool"
        }
      ],
      "name": "PublicDeploymentStatusSet",
      "type": "event"
    },
    {
      "inputs": [
        {
          "internalType": "address",
          "name": "_agent",
          "type": "address"
        }
      ],
      "name": "addAgent",
      "outputs": [],
      "stateMutability": "nonpayable",
      "type": "function"
    },
    {
      "inputs": [
        {
          "internalType": "address",
          "name": "deployer",
          "type": "address"
        }
      ],
      "name": "addDeployer",
      "outputs": [],
      "stateMutability": "nonpayable",
      "type": "function"
    },
    {
      "inputs": [
        {
          "internalType": "address",
          "name": "deployer",
          "type": "address"
        },
        {
          "internalType": "uint16",
          "name": "discount",
          "type": "uint16"
        }
      ],
      "name": "applyFeeDiscount",
      "outputs": [],
      "stateMutability": "nonpayable",
      "type": "function"
    },
    {
      "inputs": [
        {
          "internalType": "address[]",
          "name": "deployers",
          "type": "address[]"
        }
      ],
      "name": "batchAddDeployer",
      "outputs": [],
      "stateMutability": "nonpayable",
      "type": "function"
    },
    {
      "inputs": [
        {
          "internalType": "address[]",
          "name": "deployers",
          "type": "address[]"
        },
        {
          "internalType": "uint16[]",
          "name": "discounts",
          "type": "uint16[]"
        }
      ],
      "name": "batchApplyFeeDiscount",
      "outputs": [],
      "stateMutability": "nonpayable",
      "type": "function"
    },
    {
      "inputs": [
        {
          "components": [
            {
              "internalType": "address",
              "name": "owner",
              "type": "address"
            },
            {
              "internalType": "string",
              "name": "name",
              "type": "string"
            },
            {
              "internalType": "string",
              "name": "symbol",
              "type": "string"
            },
            {
              "internalType": "uint8",
              "name": "decimals",
              "type": "uint8"
            },
            {
              "internalType": "address",
              "name": "irs",
              "type": "address"
            },
            {
              "internalType": "address",
              "name": "ONCHAINID",
              "type": "address"
            },
            {
              "internalType": "address[]",
              "name": "irAgents",
              "type": "address[]"
            },
            {
              "internalType": "address[]",
              "name": "tokenAgents",
              "type": "address[]"
            },
            {
              "internalType": "address[]",
              "name": "complianceModules",
              "type": "address[]"
            },
            {
              "internalType": "bytes[]",
              "name": "complianceSettings",
              "type": "bytes[]"
            }
          ],
          "internalType": "struct ITREXFactory.TokenDetails[]",
          "name": "_tokenDetails",
          "type": "tuple[]"
        },
        {
          "components": [
            {
              "internalType": "uint256[]",
              "name": "claimTopics",
              "type": "uint256[]"
            },
            {
              "internalType": "address[]",
              "name": "issuers",
              "type": "address[]"
            },
            {
              "internalType": "uint256[][]",
              "name": "issuerClaims",
              "type": "uint256[][]"
            }
          ],
          "internalType": "struct ITREXFactory.ClaimDetails[]",
          "name": "_claimDetails",
          "type": "tuple[]"
        }
      ],
      "name": "batchDeployTREXSuite",
      "outputs": [],
      "stateMutability": "nonpayable",
      "type": "function"
    },
    {
      "inputs": [
        {
          "internalType": "address[]",
          "name": "deployers",
          "type": "address[]"
        }
      ],
      "name": "batchRemoveDeployer",
      "outputs": [],
      "stateMutability": "nonpayable",
      "type": "function"
    },
    {
      "inputs": [
        {
          "internalType": "address",
          "name": "deployer",
          "type": "address"
        }
      ],
      "name": "calculateFee",
      "outputs": [
        {
          "internalType": "uint256",
          "name": "",
          "type": "uint256"
        }
      ],
      "stateMutability": "view",
      "type": "function"
    },
    {
      "inputs": [
        {
          "components": [
            {
              "internalType": "address",
              "name": "owner",
              "type": "address"
            },
            {
              "internalType": "string",
              "name": "name",
              "type": "string"
            },
            {
              "internalType": "string",
              "name": "symbol",
              "type": "string"
            },
            {
              "internalType": "uint8",
              "name": "decimals",
              "type": "uint8"
            },
            {
              "internalType": "address",
              "name": "irs",
              "type": "address"
            },
            {
              "internalType": "address",
              "name": "ONCHAINID",
              "type": "address"
            },
            {
              "internalType": "address[]",
              "name": "irAgents",
              "type": "address[]"
            },
            {
              "internalType": "address[]",
              "name": "tokenAgents",
              "type": "address[]"
            },
            {
              "internalType": "address[]",
              "name": "complianceModules",
              "type": "address[]"
            },
            {
              "internalType": "bytes[]",
              "name": "complianceSettings",
              "type": "bytes[]"
            }
          ],
          "internalType": "struct ITREXFactory.TokenDetails",
          "name": "_tokenDetails",
          "type": "tuple"
        },
        {
          "components": [
            {
              "internalType": "uint256[]",
              "name": "claimTopics",
              "type": "uint256[]"
            },
            {
              "internalType": "address[]",
              "name": "issuers",
              "type": "address[]"
            },
            {
              "internalType": "uint256[][]",
              "name": "issuerClaims",
              "type": "uint256[][]"
            }
          ],
          "internalType": "struct ITREXFactory.ClaimDetails",
          "name": "_claimDetails",
          "type": "tuple"
        }
      ],
      "name": "deployTREXSuite",
      "outputs": [],
      "stateMutability": "nonpayable",
      "type": "function"
    },
    {
      "inputs": [
        {
          "internalType": "bool",
          "name": "_isEnabled",
          "type": "bool"
        }
      ],
      "name": "enableDeploymentFee",
      "outputs": [],
      "stateMutability": "nonpayable",
      "type": "function"
    },
    {
      "inputs": [],
      "name": "getDeploymentFee",
      "outputs": [
        {
          "components": [
            {
              "internalType": "uint256",
              "name": "fee",
              "type": "uint256"
            },
            {
              "internalType": "address",
              "name": "feeToken",
              "type": "address"
            },
            {
              "internalType": "address",
              "name": "feeCollector",
              "type": "address"
            }
          ],
          "internalType": "struct ITREXGateway.Fee",
          "name": "",
          "type": "tuple"
        }
      ],
      "stateMutability": "view",
      "type": "function"
    },
    {
      "inputs": [],
      "name": "getFactory",
      "outputs": [
        {
          "internalType": "address",
          "name": "",
          "type": "address"
        }
      ],
      "stateMutability": "view",
      "type": "function"
    },
    {
      "inputs": [],
      "name": "getPublicDeploymentStatus",
      "outputs": [
        {
          "internalType": "bool",
          "name": "",
          "type": "bool"
        }
      ],
      "stateMutability": "view",
      "type": "function"
    },
    {
      "inputs": [
        {
          "internalType": "address",
          "name": "_agent",
          "type": "address"
        }
      ],
      "name": "isAgent",
      "outputs": [
        {
          "internalType": "bool",
          "name": "",
          "type": "bool"
        }
      ],
      "stateMutability": "view",
      "type": "function"
    },
    {
      "inputs": [
        {
          "internalType": "address",
          "name": "deployer",
          "type": "address"
        }
      ],
      "name": "isDeployer",
      "outputs": [
        {
          "internalType": "bool",
          "name": "",
          "type": "bool"
        }
      ],
      "stateMutability": "view",
      "type": "function"
    },
    {
      "inputs": [],
      "name": "isDeploymentFeeEnabled",
      "outputs": [
        {
          "internalType": "bool",
          "name": "",
          "type": "bool"
        }
      ],
      "stateMutability": "view",
      "type": "function"
    },
    {
      "inputs": [],
      "name": "owner",
      "outputs": [
        {
          "internalType": "address",
          "name": "",
          "type": "address"
        }
      ],
      "stateMutability": "view",
      "type": "function"
    },
    {
      "inputs": [
        {
          "internalType": "address",
          "name": "_agent",
          "type": "address"
        }
      ],
      "name": "removeAgent",
      "outputs": [],
      "stateMutability": "nonpayable",
      "type": "function"
    },
    {
      "inputs": [
        {
          "internalType": "address",
          "name": "deployer",
          "type": "address"
        }
      ],
      "name": "removeDeployer",
      "outputs": [],
      "stateMutability": "nonpayable",
      "type": "function"
    },
    {
      "inputs": [],
      "name": "renounceOwnership",
      "outputs": [],
      "stateMutability": "nonpayable",
      "type": "function"
    },
    {
      "inputs": [
        {
          "internalType": "uint256",
          "name": "_fee",
          "type": "uint256"
        },
        {
          "internalType": "address",
          "name": "_feeToken",
          "type": "address"
        },
        {
          "internalType": "address",
          "name": "_feeCollector",
          "type": "address"
        }
      ],
      "name": "setDeploymentFee",
      "outputs": [],
      "stateMutability": "nonpayable",
      "type": "function"
    },
    {
      "inputs": [
        {
          "internalType": "address",
          "name": "factory",
          "type": "address"
        }
      ],
      "name": "setFactory",
      "outputs": [],
      "stateMutability": "nonpayable",
      "type": "function"
    },
    {
      "inputs": [
        {
          "internalType": "bool",
          "name": "_isEnabled",
          "type": "bool"
        }
      ],
      "name": "setPublicDeploymentStatus",
      "outputs": [],
      "stateMutability": "nonpayable",
      "type": "function"
    },
    {
      "inputs": [
        {
          "internalType": "address",
          "name": "_newOwner",
          "type": "address"
        }
      ],
      "name": "transferFactoryOwnership",
      "outputs": [],
      "stateMutability": "nonpayable",
      "type": "function"
    },
    {
      "inputs": [
        {
          "internalType": "address",
          "name": "newOwner",
          "type": "address"
        }
      ],
      "name": "transferOwnership",
      "outputs": [],
      "stateMutability": "nonpayable",
      "type": "function"
    }
  ],
  "bytecode": "0x60806040523480156200001157600080fd5b50604051620024da380380620024da83398101604081905262000034916200013e565b33806200005b57604051631e4fbdf760e01b81526000600482015260240160405180910390fd5b6200006681620000ee565b50600280546001600160a01b0384166001600160a81b03199091168117600160a01b84151502179091556040517f1edf3afd4ac789736e00d216cd88be164ddcef26a6eedcc30cdb0cb62f3741b190600090a2604051811515907ff8be33baa430c4b62d2c9d79ab319d10cc41755a1fb65f85e64ca0632c29d0a490600090a250506200018c565b600080546001600160a01b038381166001600160a01b0319831681178455604051919092169283917f8be0079c531659141344cd1fd0a4f28419497f9722a3daafe3b4186f6b6457e09190a35050565b600080604083850312156200015257600080fd5b82516001600160a01b03811681146200016a57600080fd5b602084015190925080151581146200018157600080fd5b809150509250929050565b61233e806200019c6000396000f3fe608060405234801561001057600080fd5b50600436106101625760003560e01c806384e79842116100ce578063a264f2bd11610087578063a264f2bd1461033c578063bfc2f10b1461034f578063c8eebfcc14610361578063e65811ff14610374578063eca465c414610387578063f2fde38b1461039a578063f315df86146103ad57600080fd5b806384e79842146102ce578063880f4039146102e157806388cc58e4146102f45780638da5cb5b1461030e57806397a6278e146103165780639c5c5ce71461032957600080fd5b806350c358a41161012057806350c358a4146102675780635bb478081461027a5780635d46c2831461028d578063715018a6146102a0578063730b86a9146102a857806375e14cff146102bb57600080fd5b806265939e146101675780631ffbb0641461017c5780632782035e146101a4578063465f5eb8146101b757806346c549cc146101d8578063477068511461025c575b600080fd5b61017a61017536600461169b565b6103c0565b005b61018f61018a3660046116f8565b610568565b60405190151581526020015b60405180910390f35b61017a6101b236600461171a565b61057b565b6101ca6101c53660046116f8565b610763565b60405190815260200161019b565b6102296040805160608101825260008082526020820181905291810191909152506040805160608101825260035481526004546001600160a01b039081166020830152600554169181019190915290565b60408051825181526020808401516001600160a01b0390811691830191909152928201519092169082015260600161019b565b60065460ff1661018f565b61018f6102753660046116f8565b6107aa565b61017a6102883660046116f8565b6107c8565b61017a61029b366004611785565b610841565b61017a6108ea565b61017a6102b6366004611d31565b6108fe565b61017a6102c9366004611e16565b610974565b61017a6102dc3660046116f8565b610a4a565b61017a6102ef3660046116f8565b610aba565b6002546001600160a01b03165b60405161019b9190611e49565b610301610b7c565b61017a6103243660046116f8565b610b8b565b61017a6103373660046116f8565b610bfb565b61017a61034a366004611e6b565b610c61565b600254600160a01b900460ff1661018f565b61017a61036f366004611e88565b610d12565b61017a61038236600461169b565b610f5d565b61017a610395366004611e6b565b6110f0565b61017a6103a83660046116f8565b6111c1565b61017a6103bb3660046116f8565b6111ff565b6103c933610568565b1580156103ef57506103d9610b7c565b6001600160a01b0316336001600160a01b031614155b1561040d57604051631859551f60e31b815260040160405180910390fd5b6101f481111561043957604051632789f90560e11b81526101f460048201526024015b60405180910390fd5b60005b818110156105635761046e83838381811061045957610459611ee1565b905060200201602081019061027591906116f8565b6104b35782828281811061048457610484611ee1565b905060200201602081019061049991906116f8565b604051634e02340f60e01b81526004016104309190611e49565b600760008484848181106104c9576104c9611ee1565b90506020020160208101906104de91906116f8565b6001600160a01b031681526020810191909152604001600020805460ff1916905582828281811061051157610511611ee1565b905060200201602081019061052691906116f8565b6001600160a01b03167ffdb22628e87f888d060acc53d048a6a8400a5024f81f9dcb0606e723f238864a60405160405180910390a260010161043c565b505050565b60006105756001836112bd565b92915050565b61058433610568565b1580156105aa5750610594610b7c565b6001600160a01b0316336001600160a01b031614155b156105c857604051631859551f60e31b815260040160405180910390fd5b6101f48311156105ef57604051632789f90560e11b81526101f46004820152602401610430565b60005b8381101561075c5761271083838381811061060f5761060f611ee1565b90506020020160208101906106249190611ef7565b61ffff1611156106475760405163eb2b61a560e01b815260040160405180910390fd5b82828281811061065957610659611ee1565b905060200201602081019061066e9190611ef7565b6008600087878581811061068457610684611ee1565b905060200201602081019061069991906116f8565b6001600160a01b031681526020810191909152604001600020805461ffff191661ffff929092169190911790558484828181106106d8576106d8611ee1565b90506020020160208101906106ed91906116f8565b6001600160a01b03167fd254de1c4bdaafc52898e46f43ed993ee35724d55a0df75ebcb55f9f6c470dab84848481811061072957610729611ee1565b905060200201602081019061073e9190611ef7565b60405161ffff909116815260200160405180910390a26001016105f2565b5050505050565b6003546001600160a01b038216600090815260086020526040812054909161271091610793919061ffff16611f28565b61079d9190611f3f565b6003546105759190611f61565b6001600160a01b031660009081526007602052604090205460ff1690565b6107d0611340565b6001600160a01b0381166107f75760405163d92e233d60e01b815260040160405180910390fd5b600280546001600160a01b0319166001600160a01b0383169081179091556040517f1edf3afd4ac789736e00d216cd88be164ddcef26a6eedcc30cdb0cb62f3741b190600090a250565b610849611340565b6001600160a01b038216158061086657506001600160a01b038116155b156108845760405163d92e233d60e01b815260040160405180910390fd5b6003839055600480546001600160a01b03199081166001600160a01b038581169182179093556005805490921692841692831790915560405185907f62aa79f6e449920637ad5310ea6ef9c67a32aaa6a8b98cd6814452daf11213a390600090a4505050565b6108f2611340565b6108fc6000611372565b565b60058251111561092457604051632789f90560e11b815260056004820152602401610430565b60005b82518110156105635761096c83828151811061094557610945611ee1565b602002602001015183838151811061095f5761095f611ee1565b6020026020010151610d12565b600101610927565b61097d33610568565b1580156109a3575061098d610b7c565b6001600160a01b0316336001600160a01b031614155b156109c157604051631859551f60e31b815260040160405180910390fd5b6127108161ffff1611156109e85760405163eb2b61a560e01b815260040160405180910390fd5b6001600160a01b038216600081815260086020908152604091829020805461ffff191661ffff861690811790915591519182527fd254de1c4bdaafc52898e46f43ed993ee35724d55a0df75ebcb55f9f6c470dab910160405180910390a25050565b610a52611340565b6001600160a01b038116610a785760405162461bcd60e51b815260040161043090611f74565b610a836001826113c2565b6040516001600160a01b038216907ff68e73cec97f2d70aa641fb26e87a4383686e2efacb648f2165aeb02ac562ec590600090a250565b610ac333610568565b158015610ae95750610ad3610b7c565b6001600160a01b0316336001600160a01b031614155b15610b0757604051631859551f60e31b815260040160405180910390fd5b610b10816107aa565b15610b3057806040516375c2ceb960e11b81526004016104309190611e49565b6001600160a01b038116600081815260076020526040808220805460ff19166001179055517f861a21548a3ee34d896ccac3668a9d65030aaf2cb7367a2ed13608014016a0329190a250565b6000546001600160a01b031690565b610b93611340565b6001600160a01b038116610bb95760405162461bcd60e51b815260040161043090611f74565b610bc460018261143e565b6040516001600160a01b038216907fed9c8ad8d5a0a66898ea49d2956929c93ae2e8bd50281b2ed897c5d1a6737e0b90600090a250565b610c03611340565b60025460405163f2fde38b60e01b81526001600160a01b039091169063f2fde38b90610c33908490600401611e49565b600060405180830381600087803b158015610c4d57600080fd5b505af115801561075c573d6000803e3d6000fd5b610c69611340565b60065460ff161515811515148015610c8357506001811515145b15610ca1576040516360d38b9560e01b815260040160405180910390fd5b60065460ff161515811515148015610cb7575080155b15610cd5576040516398e8f30360e01b815260040160405180910390fd5b6006805460ff19168215159081179091556040517f576845931000b1b98d2173829911e0db5a788158585b3da38572ec01552217d590600090a250565b600254600160a01b900460ff16158015610d325750610d30336107aa565b155b15610d5057604051632deadb8b60e21b815260040160405180910390fd5b600254600160a01b900460ff1615156001148015610d78575081516001600160a01b03163314155b8015610d8a5750610d88336107aa565b155b15610da8576040516318f44adb60e01b815260040160405180910390fd5b60065460009060ff161515600103610e785760035415801590610de157503360009081526008602052604090205461271061ffff909116105b15610e7857610def33610763565b600480546005546040516323b872dd60e01b815233938101939093526001600160a01b0390811660248401526044830184905292935091909116906323b872dd906064016020604051808303816000875af1158015610e52573d6000803e3d6000fd5b505050506040513d601f19601f82011682018060405250810190610e769190611fab565b505b6000610e8784600001516114c0565b602080860151604051610e9b939201611fec565b60408051601f198184030181529082905260025463cf753d3760e01b83529092506001600160a01b03169063cf753d3790610ede908490889088906004016121ab565b600060405180830381600087803b158015610ef857600080fd5b505af1158015610f0c573d6000803e3d6000fd5b50508551604080516001600160a01b039092168252602082018690523393507f3ddb07c2df247d32c71cd94e46f101dd4a4bcd5ce07afc925673aa63ba24960e92500160405180910390a250505050565b610f6633610568565b158015610f8c5750610f76610b7c565b6001600160a01b0316336001600160a01b031614155b15610faa57604051631859551f60e31b815260040160405180910390fd5b6101f4811115610fd157604051632789f90560e11b81526101f46004820152602401610430565b60005b8181101561056357610ff183838381811061045957610459611ee1565b156110375782828281811061100857611008611ee1565b905060200201602081019061101d91906116f8565b6040516375c2ceb960e11b81526004016104309190611e49565b60016007600085858581811061104f5761104f611ee1565b905060200201602081019061106491906116f8565b6001600160a01b031681526020810191909152604001600020805460ff191691151591909117905582828281811061109e5761109e611ee1565b90506020020160208101906110b391906116f8565b6001600160a01b03167f861a21548a3ee34d896ccac3668a9d65030aaf2cb7367a2ed13608014016a03260405160405180910390a2600101610fd4565b6110f8611340565b600260149054906101000a900460ff16151581151514801561111c57506001811515145b1561113a57604051634cc2b9b760e01b815260040160405180910390fd5b600260149054906101000a900460ff16151581151514801561115a575080155b156111785760405163593cdd5360e11b815260040160405180910390fd5b6002805460ff60a01b1916600160a01b831515908102919091179091556040517ff8be33baa430c4b62d2c9d79ab319d10cc41755a1fb65f85e64ca0632c29d0a490600090a250565b6111c9611340565b6001600160a01b0381166111f3576000604051631e4fbdf760e01b81526004016104309190611e49565b6111fc81611372565b50565b61120833610568565b15801561122e5750611218610b7c565b6001600160a01b0316336001600160a01b031614155b1561124c57604051631859551f60e31b815260040160405180910390fd5b611255816107aa565b6112745780604051634e02340f60e01b81526004016104309190611e49565b6001600160a01b038116600081815260076020526040808220805460ff19169055517ffdb22628e87f888d060acc53d048a6a8400a5024f81f9dcb0606e723f238864a9190a250565b60006001600160a01b0382166113205760405162461bcd60e51b815260206004820152602260248201527f526f6c65733a206163636f756e7420697320746865207a65726f206164647265604482015261737360f01b6064820152608401610430565b506001600160a01b03166000908152602091909152604090205460ff1690565b33611349610b7c565b6001600160a01b0316146108fc573360405163118cdaa760e01b81526004016104309190611e49565b600080546001600160a01b038381166001600160a01b0319831681178455604051919092169283917f8be0079c531659141344cd1fd0a4f28419497f9722a3daafe3b4186f6b6457e09190a35050565b6113cc82826112bd565b156114195760405162461bcd60e51b815260206004820152601f60248201527f526f6c65733a206163636f756e7420616c72656164792068617320726f6c65006044820152606401610430565b6001600160a01b0316600090815260209190915260409020805460ff19166001179055565b61144882826112bd565b61149e5760405162461bcd60e51b815260206004820152602160248201527f526f6c65733a206163636f756e7420646f6573206e6f74206861766520726f6c6044820152606560f81b6064820152608401610430565b6001600160a01b0316600090815260209190915260409020805460ff19169055565b60606105756001600160a01b038316601460608260006114e1846002611f28565b6114ec9060026122de565b6001600160401b03811115611503576115036117c1565b6040519080825280601f01601f19166020018201604052801561152d576020820181803683370190505b509050600360fc1b8160008151811061154857611548611ee1565b60200101906001600160f81b031916908160001a905350600f60fb1b8160018151811061157757611577611ee1565b60200101906001600160f81b031916908160001a905350600061159b856002611f28565b6115a69060016122de565b90505b600181111561161e576f181899199a1a9b1b9c1cb0b131b232b360811b83600f16601081106115da576115da611ee1565b1a60f81b8282815181106115f0576115f0611ee1565b60200101906001600160f81b031916908160001a90535060049290921c91611617816122f1565b90506115a9565b5081156116485760405163e22e27eb60e01b81526004810186905260248101859052604401610430565b949350505050565b60008083601f84011261166257600080fd5b5081356001600160401b0381111561167957600080fd5b6020830191508360208260051b850101111561169457600080fd5b9250929050565b600080602083850312156116ae57600080fd5b82356001600160401b038111156116c457600080fd5b6116d085828601611650565b90969095509350505050565b80356001600160a01b03811681146116f357600080fd5b919050565b60006020828403121561170a57600080fd5b611713826116dc565b9392505050565b6000806000806040858703121561173057600080fd5b84356001600160401b038082111561174757600080fd5b61175388838901611650565b9096509450602087013591508082111561176c57600080fd5b5061177987828801611650565b95989497509550505050565b60008060006060848603121561179a57600080fd5b833592506117aa602085016116dc565b91506117b8604085016116dc565b90509250925092565b634e487b7160e01b600052604160045260246000fd5b60405161014081016001600160401b03811182821017156117fa576117fa6117c1565b60405290565b604051606081016001600160401b03811182821017156117fa576117fa6117c1565b604051601f8201601f191681016001600160401b038111828210171561184a5761184a6117c1565b604052919050565b60006001600160401b0382111561186b5761186b6117c1565b5060051b60200190565b60006001600160401b0383111561188e5761188e6117c1565b6118a1601f8401601f1916602001611822565b90508281528383830111156118b557600080fd5b828260208301376000602084830101529392505050565b600082601f8301126118dd57600080fd5b61171383833560208501611875565b803560ff811681146116f357600080fd5b600082601f83011261190e57600080fd5b8135602061192361191e83611852565b611822565b8083825260208201915060208460051b87010193508684111561194557600080fd5b602086015b848110156119685761195b816116dc565b835291830191830161194a565b509695505050505050565b600082601f83011261198457600080fd5b8135602061199461191e83611852565b82815260059290921b840181019181810190868411156119b357600080fd5b8286015b848110156119685780356001600160401b038111156119d65760008081fd5b8701603f810189136119e85760008081fd5b6119f9898683013560408401611875565b8452509183019183016119b7565b60006101408284031215611a1a57600080fd5b611a226117d7565b9050611a2d826116dc565b815260208201356001600160401b0380821115611a4957600080fd5b611a55858386016118cc565b60208401526040840135915080821115611a6e57600080fd5b611a7a858386016118cc565b6040840152611a8b606085016118ec565b6060840152611a9c608085016116dc565b6080840152611aad60a085016116dc565b60a084015260c0840135915080821115611ac657600080fd5b611ad2858386016118fd565b60c084015260e0840135915080821115611aeb57600080fd5b611af7858386016118fd565b60e084015261010091508184013581811115611b1257600080fd5b611b1e868287016118fd565b838501525061012091508184013581811115611b3957600080fd5b611b4586828701611973565b8385015250505092915050565b600082601f830112611b6357600080fd5b81356020611b7361191e83611852565b8083825260208201915060208460051b870101935086841115611b9557600080fd5b602086015b848110156119685780358352918301918301611b9a565b600060608284031215611bc357600080fd5b611bcb611800565b905081356001600160401b0380821115611be457600080fd5b611bf085838601611b52565b8352602091508184013581811115611c0757600080fd5b611c13868287016118fd565b8385015250604084013581811115611c2a57600080fd5b8401601f81018613611c3b57600080fd5b8035611c4961191e82611852565b81815260059190911b82018401908481019088831115611c6857600080fd5b8584015b83811015611ca057803586811115611c845760008081fd5b611c928b8983890101611b52565b845250918601918601611c6c565b50604087015250939695505050505050565b600082601f830112611cc357600080fd5b81356020611cd361191e83611852565b82815260059290921b84018101918181019086841115611cf257600080fd5b8286015b848110156119685780356001600160401b03811115611d155760008081fd5b611d238986838b0101611bb1565b845250918301918301611cf6565b60008060408385031215611d4457600080fd5b82356001600160401b0380821115611d5b57600080fd5b818501915085601f830112611d6f57600080fd5b81356020611d7f61191e83611852565b82815260059290921b84018101918181019089841115611d9e57600080fd5b8286015b84811015611dd657803586811115611dba5760008081fd5b611dc88c86838b0101611a07565b845250918301918301611da2565b5096505086013592505080821115611ded57600080fd5b50611dfa85828601611cb2565b9150509250929050565b803561ffff811681146116f357600080fd5b60008060408385031215611e2957600080fd5b611e32836116dc565b9150611e4060208401611e04565b90509250929050565b6001600160a01b0391909116815260200190565b80151581146111fc57600080fd5b600060208284031215611e7d57600080fd5b813561171381611e5d565b60008060408385031215611e9b57600080fd5b82356001600160401b0380821115611eb257600080fd5b611ebe86838701611a07565b93506020850135915080821115611ed457600080fd5b50611dfa85828601611bb1565b634e487b7160e01b600052603260045260246000fd5b600060208284031215611f0957600080fd5b61171382611e04565b634e487b7160e01b600052601160045260246000fd5b808202811582820484141761057557610575611f12565b600082611f5c57634e487b7160e01b600052601260045260246000fd5b500490565b8181038181111561057557610575611f12565b6020808252601f908201527f696e76616c696420617267756d656e74202d207a65726f206164647265737300604082015260600190565b600060208284031215611fbd57600080fd5b815161171381611e5d565b60005b83811015611fe3578181015183820152602001611fcb565b50506000910152565b60008351611ffe818460208801611fc8565b835190830190612012818360208801611fc8565b01949350505050565b60008151808452612033816020860160208601611fc8565b601f01601f19169290920160200192915050565b60008151808452602080850194506020840160005b838110156120815781516001600160a01b03168752958201959082019060010161205c565b509495945050505050565b60008282518085526020808601955060208260051b8401016020860160005b848110156120d957601f198684030189526120c783835161201b565b988401989250908301906001016120ab565b5090979650505050505050565b60008151808452602080850194506020840160005b83811015612081578151875295820195908201906001016120fb565b600081516060845261212c60608501826120e6565b9050602080840151858303828701526121458382612047565b925050604084015185830360408701528281518085528385019150838160051b860101848401935060005b8281101561219e57601f1987830301845261218c8286516120e6565b94860194938601939150600101612170565b5098975050505050505050565b6060815260006121be606083018661201b565b828103602084015284516001600160a01b0316815261014060208601518160208401526121ed8284018261201b565b91505060408601518282036040840152612207828261201b565b915050606086015161221e606084018260ff169052565b50608086015161223960808401826001600160a01b03169052565b5060a086015161225460a08401826001600160a01b03169052565b5060c086015182820360c084015261226c8282612047565b91505060e086015182820360e08401526122868282612047565b91505061010080870151838303828501526122a18382612047565b9250505061012080870151838303828501526122bd838261208c565b935050505082810360408401526122d48185612117565b9695505050505050565b8082018082111561057557610575611f12565b60008161230057612300611f12565b50600019019056fea264697066735822122037eafef87b7ddbc1422f68b1555be9eb5e73f96855436178fc372c7f0c8d119164736f6c63430008180033",
  "linkReferences": {},
  "deployedLinkReferences": {}
}