{
  "_format": "hh-sol-artifact-1",
  "contractName": "TREXFactory",
  "sourceName": "contracts/erc3643/factory/TREXFactory.sol",
  "abi": [
    {
      "inputs": [
        {
          "internalType": "address",
          "name": "implementationAuthority_",
          "type": "address"
        },
        {
          "internalType": "address",
          "name": "idFactory_",
          "type": "address"
        }
      ],
      "stateMutability": "nonpayable",
      "type": "constructor"
    },
    {
      "inputs": [
        {
          "internalType": "address",
          "name": "owner",
          "type": "address"
        }
      ],
      "name": "OwnableInvalidOwner",
      "type": "error"
    },
    {
      "inputs": [
        {
          "internalType": "address",
          "name": "account",
          "type": "address"
        }
      ],
      "name": "OwnableUnauthorizedAccount",
      "type": "error"
    },
    {
      "anonymous": false,
      "inputs": [
        {
          "indexed": true,
          "internalType": "address",
          "name": "_addr",
          "type": "address"
        }
      ],
      "name": "Deployed",
      "type": "event"
    },
    {
      "anonymous": false,
      "inputs": [
        {
          "indexed": false,
          "internalType": "address",
          "name": "_idFactory",
          "type": "address"
        }
      ],
      "name": "IdFactorySet",
      "type": "event"
    },
    {
      "anonymous": false,
      "inputs": [
        {
          "indexed": false,
          "internalType": "address",
          "name": "_implementationAuthority",
          "type": "address"
        }
      ],
      "name": "ImplementationAuthoritySet",
      "type": "event"
    },
    {
      "anonymous": false,
      "inputs": [
        {
          "indexed": true,
          "internalType": "address",
          "name": "previousOwner",
          "type": "address"
        },
        {
          "indexed": true,
          "internalType": "address",
          "name": "newOwner",
          "type": "address"
        }
      ],
      "name": "OwnershipTransferred",
      "type": "event"
    },
    {
      "anonymous": false,
      "inputs": [
        {
          "indexed": true,
          "internalType": "address",
          "name": "_token",
          "type": "address"
        },
        {
          "indexed": false,
          "internalType": "address",
          "name": "_ir",
          "type": "address"
        },
        {
          "indexed": false,
          "internalType": "address",
          "name": "_irs",
          "type": "address"
        },
        {
          "indexed": false,
          "internalType": "address",
          "name": "_tir",
          "type": "address"
        },
        {
          "indexed": false,
          "internalType": "address",
          "name": "_ctr",
          "type": "address"
        },
        {
          "indexed": false,
          "internalType": "address",
          "name": "_mc",
          "type": "address"
        },
        {
          "indexed": true,
          "internalType": "string",
          "name": "_salt",
          "type": "string"
        }
      ],
      "name": "TREXSuiteDeployed",
      "type": "event"
    },
    {
      "inputs": [
        {
          "internalType": "string",
          "name": "_salt",
          "type": "string"
        },
        {
          "components": [
            {
              "internalType": "address",
              "name": "owner",
              "type": "address"
            },
            {
              "internalType": "string",
              "name": "name",
              "type": "string"
            },
            {
              "internalType": "string",
              "name": "symbol",
              "type": "string"
            },
            {
              "internalType": "uint8",
              "name": "decimals",
              "type": "uint8"
            },
            {
              "internalType": "address",
              "name": "irs",
              "type": "address"
            },
            {
              "internalType": "address",
              "name": "ONCHAINID",
              "type": "address"
            },
            {
              "internalType": "address[]",
              "name": "irAgents",
              "type": "address[]"
            },
            {
              "internalType": "address[]",
              "name": "tokenAgents",
              "type": "address[]"
            },
            {
              "internalType": "address[]",
              "name": "complianceModules",
              "type": "address[]"
            },
            {
              "internalType": "bytes[]",
              "name": "complianceSettings",
              "type": "bytes[]"
            }
          ],
          "internalType": "struct ITREXFactory.TokenDetails",
          "name": "_tokenDetails",
          "type": "tuple"
        },
        {
          "components": [
            {
              "internalType": "uint256[]",
              "name": "claimTopics",
              "type": "uint256[]"
            },
            {
              "internalType": "address[]",
              "name": "issuers",
              "type": "address[]"
            },
            {
              "internalType": "uint256[][]",
              "name": "issuerClaims",
              "type": "uint256[][]"
            }
          ],
          "internalType": "struct ITREXFactory.ClaimDetails",
          "name": "_claimDetails",
          "type": "tuple"
        }
      ],
      "name": "deployTREXSuite",
      "outputs": [],
      "stateMutability": "nonpayable",
      "type": "function"
    },
    {
      "inputs": [],
      "name": "getIdFactory",
      "outputs": [
        {
          "internalType": "address",
          "name": "",
          "type": "address"
        }
      ],
      "stateMutability": "view",
      "type": "function"
    },
    {
      "inputs": [],
      "name": "getImplementationAuthority",
      "outputs": [
        {
          "internalType": "address",
          "name": "",
          "type": "address"
        }
      ],
      "stateMutability": "view",
      "type": "function"
    },
    {
      "inputs": [
        {
          "internalType": "string",
          "name": "_salt",
          "type": "string"
        }
      ],
      "name": "getToken",
      "outputs": [
        {
          "internalType": "address",
          "name": "",
          "type": "address"
        }
      ],
      "stateMutability": "view",
      "type": "function"
    },
    {
      "inputs": [],
      "name": "owner",
      "outputs": [
        {
          "internalType": "address",
          "name": "",
          "type": "address"
        }
      ],
      "stateMutability": "view",
      "type": "function"
    },
    {
      "inputs": [
        {
          "internalType": "address",
          "name": "_contract",
          "type": "address"
        },
        {
          "internalType": "address",
          "name": "_newOwner",
          "type": "address"
        }
      ],
      "name": "recoverContractOwnership",
      "outputs": [],
      "stateMutability": "nonpayable",
      "type": "function"
    },
    {
      "inputs": [],
      "name": "renounceOwnership",
      "outputs": [],
      "stateMutability": "nonpayable",
      "type": "function"
    },
    {
      "inputs": [
        {
          "internalType": "address",
          "name": "idFactory_",
          "type": "address"
        }
      ],
      "name": "setIdFactory",
      "outputs": [],
      "stateMutability": "nonpayable",
      "type": "function"
    },
    {
      "inputs": [
        {
          "internalType": "address",
          "name": "implementationAuthority_",
          "type": "address"
        }
      ],
      "name": "setImplementationAuthority",
      "outputs": [],
      "stateMutability": "nonpayable",
      "type": "function"
    },
    {
      "inputs": [
        {
          "internalType": "string",
          "name": "",
          "type": "string"
        }
      ],
      "name": "tokenDeployed",
      "outputs": [
        {
          "internalType": "address",
          "name": "",
          "type": "address"
        }
      ],
      "stateMutability": "view",
      "type": "function"
    },
    {
      "inputs": [
        {
          "internalType": "address",
          "name": "newOwner",
          "type": "address"
        }
      ],
      "name": "transferOwnership",
      "outputs": [],
      "stateMutability": "nonpayable",
      "type": "function"
    }
  ],
  "bytecode": "0x60806040523480156200001157600080fd5b50604051620060fe380380620060fe8339810160408190526200003491620005e9565b33806200005c57604051631e4fbdf760e01b8152600060048201526024015b60405180910390fd5b620000678162000086565b506200007382620000d6565b6200007e81620004ea565b505062000646565b600080546001600160a01b038381166001600160a01b0319831681178455604051919092169283917f8be0079c531659141344cd1fd0a4f28419497f9722a3daafe3b4186f6b6457e09190a35050565b620000e06200059b565b6001600160a01b038116620001385760405162461bcd60e51b815260206004820152601f60248201527f696e76616c696420617267756d656e74202d207a65726f206164647265737300604482015260640162000053565b60006001600160a01b0316816001600160a01b031663709bc7f36040518163ffffffff1660e01b8152600401602060405180830381865afa15801562000182573d6000803e3d6000fd5b505050506040513d601f19601f82011682018060405250810190620001a8919062000621565b6001600160a01b03161415801562000237575060006001600160a01b0316816001600160a01b0316636ff6e83f6040518163ffffffff1660e01b8152600401602060405180830381865afa15801562000205573d6000803e3d6000fd5b505050506040513d601f19601f820116820180604052508101906200022b919062000621565b6001600160a01b031614155b8015620002bb575060006001600160a01b0316816001600160a01b0316631ee9ce8b6040518163ffffffff1660e01b8152600401602060405180830381865afa15801562000289573d6000803e3d6000fd5b505050506040513d601f19601f82011682018060405250810190620002af919062000621565b6001600160a01b031614155b80156200033f575060006001600160a01b0316816001600160a01b0316639e3e7bb96040518163ffffffff1660e01b8152600401602060405180830381865afa1580156200030d573d6000803e3d6000fd5b505050506040513d601f19601f8201168201806040525081019062000333919062000621565b6001600160a01b031614155b8015620003c3575060006001600160a01b0316816001600160a01b03166361f898256040518163ffffffff1660e01b8152600401602060405180830381865afa15801562000391573d6000803e3d6000fd5b505050506040513d601f19601f82011682018060405250810190620003b7919062000621565b6001600160a01b031614155b801562000447575060006001600160a01b0316816001600160a01b031663fedcc0526040518163ffffffff1660e01b8152600401602060405180830381865afa15801562000415573d6000803e3d6000fd5b505050506040513d601f19601f820116820180604052508101906200043b919062000621565b6001600160a01b031614155b620004955760405162461bcd60e51b815260206004820181905260248201527f696e76616c696420496d706c656d656e746174696f6e20417574686f72697479604482015260640162000053565b600180546001600160a01b0319166001600160a01b0383169081179091556040519081527f3b1074392ed8e8424715d0dda2197eede67080b377fc8370e26f3e882207f6b8906020015b60405180910390a150565b620004f46200059b565b6001600160a01b0381166200054c5760405162461bcd60e51b815260206004820152601f60248201527f696e76616c696420617267756d656e74202d207a65726f206164647265737300604482015260640162000053565b600280546001600160a01b0319166001600160a01b0383169081179091556040519081527fae81f4fee1b2d830e39ae449967642aaa0e5a1771aa200d0a50853010992242c90602001620004df565b6000546001600160a01b03163314620005ca5760405163118cdaa760e01b815233600482015260240162000053565b565b80516001600160a01b0381168114620005e457600080fd5b919050565b60008060408385031215620005fd57600080fd5b6200060883620005cc565b91506200061860208401620005cc565b90509250929050565b6000602082840312156200063457600080fd5b6200063f82620005cc565b9392505050565b615aa880620006566000396000f3fe60806040523480156200001157600080fd5b5060043610620000b75760003560e01c806392dd9d65116200007a57806392dd9d651462000128578063c1733f68146200013f578063ccd41cce1462000156578063cf753d37146200016d578063f2fde38b1462000184578063fb88d79c146200019b57600080fd5b80632d5f118714620000bc57806350b0183814620000e15780635f2773a514620000fa578063715018a6146200010c5780638da5cb5b1462000116575b600080fd5b6001546001600160a01b03165b604051620000d8919062001a04565b60405180910390f35b620000f8620000f236600462001a2e565b620001d2565b005b6002546001600160a01b0316620000c9565b620000f862000242565b6000546001600160a01b0316620000c9565b620000f86200013936600462001a6c565b6200025a565b620000c96200015036600462001a93565b6200064b565b620000f86200016736600462001a6c565b62000682565b620000f86200017e36600462001bb5565b62000702565b620000f86200019536600462001a6c565b6200164d565b620000c9620001ac36600462001c55565b80516020818301810180516003825292820191909301209152546001600160a01b031681565b620001dc62001692565b60405163f2fde38b60e01b81526001600160a01b0383169063f2fde38b906200020a90849060040162001a04565b600060405180830381600087803b1580156200022557600080fd5b505af11580156200023a573d6000803e3d6000fd5b505050505050565b6200024c62001692565b620002586000620016c2565b565b6200026462001692565b6001600160a01b038116620002965760405162461bcd60e51b81526004016200028d9062001c96565b60405180910390fd5b60006001600160a01b0316816001600160a01b031663709bc7f36040518163ffffffff1660e01b8152600401602060405180830381865afa158015620002e0573d6000803e3d6000fd5b505050506040513d601f19601f8201168201806040525081019062000306919062001ccd565b6001600160a01b03161415801562000395575060006001600160a01b0316816001600160a01b0316636ff6e83f6040518163ffffffff1660e01b8152600401602060405180830381865afa15801562000363573d6000803e3d6000fd5b505050506040513d601f19601f8201168201806040525081019062000389919062001ccd565b6001600160a01b031614155b801562000419575060006001600160a01b0316816001600160a01b0316631ee9ce8b6040518163ffffffff1660e01b8152600401602060405180830381865afa158015620003e7573d6000803e3d6000fd5b505050506040513d601f19601f820116820180604052508101906200040d919062001ccd565b6001600160a01b031614155b80156200049d575060006001600160a01b0316816001600160a01b0316639e3e7bb96040518163ffffffff1660e01b8152600401602060405180830381865afa1580156200046b573d6000803e3d6000fd5b505050506040513d601f19601f8201168201806040525081019062000491919062001ccd565b6001600160a01b031614155b801562000521575060006001600160a01b0316816001600160a01b03166361f898256040518163ffffffff1660e01b8152600401602060405180830381865afa158015620004ef573d6000803e3d6000fd5b505050506040513d601f19601f8201168201806040525081019062000515919062001ccd565b6001600160a01b031614155b8015620005a5575060006001600160a01b0316816001600160a01b031663fedcc0526040518163ffffffff1660e01b8152600401602060405180830381865afa15801562000573573d6000803e3d6000fd5b505050506040513d601f19601f8201168201806040525081019062000599919062001ccd565b6001600160a01b031614155b620005f35760405162461bcd60e51b815260206004820181905260248201527f696e76616c696420496d706c656d656e746174696f6e20417574686f7269747960448201526064016200028d565b600180546001600160a01b0319166001600160a01b0383161790556040517f3b1074392ed8e8424715d0dda2197eede67080b377fc8370e26f3e882207f6b8906200064090839062001a04565b60405180910390a150565b6000600383836040516200066192919062001ced565b908152604051908190036020019020546001600160a01b0316905092915050565b6200068c62001692565b6001600160a01b038116620006b55760405162461bcd60e51b81526004016200028d9062001c96565b600280546001600160a01b0319166001600160a01b0383161790556040517fae81f4fee1b2d830e39ae449967642aaa0e5a1771aa200d0a50853010992242c906200064090839062001a04565b6200070c62001692565b60006001600160a01b031660038460405162000729919062001d23565b908152604051908190036020019020546001600160a01b0316146200078a5760405162461bcd60e51b81526020600482015260166024820152751d1bdad95b88185b1c9958591e4819195c1b1bde595960521b60448201526064016200028d565b62000799604082018262001d41565b9050620007aa602083018362001d41565b905014620007f55760405162461bcd60e51b815260206004820152601760248201527618db185a5b481c185d1d195c9b881b9bdd081d985b1a59604a1b60448201526064016200028d565b600562000806602083018362001d41565b90501115620008625760405162461bcd60e51b815260206004820152602160248201527f6d6178203520636c61696d2069737375657273206174206465706c6f796d656e6044820152601d60fa1b60648201526084016200028d565b600562000870828062001d41565b90501115620008c25760405162461bcd60e51b815260206004820181905260248201527f6d6178203520636c61696d20746f70696373206174206465706c6f796d656e7460448201526064016200028d565b6005620008d360c084018462001d41565b905011158015620008f557506005620008f060e084018462001d41565b905011155b620009435760405162461bcd60e51b815260206004820152601a60248201527f6d61782035206167656e7473206174206465706c6f796d656e7400000000000060448201526064016200028d565b601e6200095561010084018462001d41565b90501115620009b35760405162461bcd60e51b815260206004820152602360248201527f6d6178203330206d6f64756c6520616374696f6e73206174206465706c6f796d604482015262195b9d60ea1b60648201526084016200028d565b620009c361012083018362001d41565b9050620009d561010084018462001d41565b9050101562000a275760405162461bcd60e51b815260206004820152601a60248201527f696e76616c696420636f6d706c69616e6365207061747465726e00000000000060448201526064016200028d565b60015460009062000a439085906001600160a01b031662001712565b60015490915060009062000a629086906001600160a01b0316620017a1565b60015490915060009062000a819087906001600160a01b0316620017b6565b905060008062000a9860a088016080890162001a6c565b6001600160a01b03160362000ac85760015462000ac09088906001600160a01b0316620017cb565b905062000add565b62000ada60a087016080880162001a6c565b90505b60015460009062000afc9089906001600160a01b0316878786620017e0565b60015490915060009062000bee908a906001600160a01b0316848762000b2660208e018e62001d95565b8080601f016020809104026020016040519081016040528093929190818152602001838380828437600081840152601f19601f820116905080830192505050505050508d806040019062000b7b919062001d95565b8080601f016020809104026020016040519081016040528093929190818152602001838380828437600081840152601f19601f820116905080830192505050505050508e606001602081019062000bd3919062001ddf565b8f60a001602081019062000be8919062001a6c565b62001887565b9050600062000c0460c08a0160a08b0162001a6c565b6001600160a01b03160362000d05576002546000906001600160a01b0316633d56ff668362000c3760208d018d62001a6c565b8d6040518463ffffffff1660e01b815260040162000c589392919062001e32565b6020604051808303816000875af115801562000c78573d6000803e3d6000fd5b505050506040513d601f19601f8201168201806040525081019062000c9e919062001ccd565b604051633d1ddc5b60e01b81529091506001600160a01b03831690633d1ddc5b9062000ccf90849060040162001a04565b600060405180830381600087803b15801562000cea57600080fd5b505af115801562000cff573d6000803e3d6000fd5b50505050505b60005b62000d14888062001d41565b905081101562000db3576001600160a01b03861663c7b2255162000d398a8062001d41565b8481811062000d4c5762000d4c62001e69565b905060200201356040518263ffffffff1660e01b815260040162000d7291815260200190565b600060405180830381600087803b15801562000d8d57600080fd5b505af115801562000da2573d6000803e3d6000fd5b50506001909201915062000d089050565b5060005b62000dc6602089018962001d41565b905081101562000eaf576001600160a01b038716639f63ea9862000dee60208b018b62001d41565b8481811062000e015762000e0162001e69565b905060200201602081019062000e18919062001a6c565b62000e2760408c018c62001d41565b8581811062000e3a5762000e3a62001e69565b905060200281019062000e4e919062001d41565b6040518463ffffffff1660e01b815260040162000e6e9392919062001e7f565b600060405180830381600087803b15801562000e8957600080fd5b505af115801562000e9e573d6000803e3d6000fd5b50506001909201915062000db79050565b5060405163690a49f960e01b81526001600160a01b0384169063690a49f99062000ede90859060040162001a04565b600060405180830381600087803b15801562000ef957600080fd5b505af115801562000f0e573d6000803e3d6000fd5b5050604051634273cc2160e11b81526001600160a01b03851692506384e79842915062000f4090849060040162001a04565b600060405180830381600087803b15801562000f5b57600080fd5b505af115801562000f70573d6000803e3d6000fd5b5050505060005b62000f8660c08a018a62001d41565b905081101562001037576001600160a01b0383166384e7984262000fae60c08c018c62001d41565b8481811062000fc15762000fc162001e69565b905060200201602081019062000fd8919062001a6c565b6040518263ffffffff1660e01b815260040162000ff6919062001a04565b600060405180830381600087803b1580156200101157600080fd5b505af115801562001026573d6000803e3d6000fd5b50506001909201915062000f779050565b5060005b6200104a60e08a018a62001d41565b9050811015620010fb576001600160a01b0382166384e798426200107260e08c018c62001d41565b8481811062001085576200108562001e69565b90506020020160208101906200109c919062001a6c565b6040518263ffffffff1660e01b8152600401620010ba919062001a04565b600060405180830381600087803b158015620010d557600080fd5b505af1158015620010ea573d6000803e3d6000fd5b5050600190920191506200103b9050565b5060005b6200110f6101008a018a62001d41565b90508110156200135d576001600160a01b03851663a446d49f620011386101008c018c62001d41565b848181106200114b576200114b62001e69565b905060200201602081019062001162919062001a6c565b6040518263ffffffff1660e01b815260040162001180919062001a04565b602060405180830381865afa1580156200119e573d6000803e3d6000fd5b505050506040513d601f19601f82011682018060405250810190620011c4919062001eca565b62001265576001600160a01b038516631ed86f19620011e86101008c018c62001d41565b84818110620011fb57620011fb62001e69565b905060200201602081019062001212919062001a6c565b6040518263ffffffff1660e01b815260040162001230919062001a04565b600060405180830381600087803b1580156200124b57600080fd5b505af115801562001260573d6000803e3d6000fd5b505050505b620012756101208a018a62001d41565b905081101562001354576001600160a01b03851663efb22d336200129e6101208c018c62001d41565b84818110620012b157620012b162001e69565b9050602002810190620012c5919062001d95565b620012d56101008e018e62001d41565b86818110620012e857620012e862001e69565b9050602002016020810190620012ff919062001a6c565b6040518463ffffffff1660e01b81526004016200131f9392919062001eee565b600060405180830381600087803b1580156200133a57600080fd5b505af11580156200134f573d6000803e3d6000fd5b505050505b600101620010ff565b508060038a60405162001371919062001d23565b9081526040516020918190038201902080546001600160a01b0319166001600160a01b039384161790559082169063f2fde38b90620013b3908b018b62001a6c565b6040518263ffffffff1660e01b8152600401620013d1919062001a04565b600060405180830381600087803b158015620013ec57600080fd5b505af115801562001401573d6000803e3d6000fd5b5050506001600160a01b038316905063f2fde38b6200142460208b018b62001a6c565b6040518263ffffffff1660e01b815260040162001442919062001a04565b600060405180830381600087803b1580156200145d57600080fd5b505af115801562001472573d6000803e3d6000fd5b5050506001600160a01b038716905063f2fde38b6200149560208b018b62001a6c565b6040518263ffffffff1660e01b8152600401620014b3919062001a04565b600060405180830381600087803b158015620014ce57600080fd5b505af1158015620014e3573d6000803e3d6000fd5b5050506001600160a01b038616905063f2fde38b6200150660208b018b62001a6c565b6040518263ffffffff1660e01b815260040162001524919062001a04565b600060405180830381600087803b1580156200153f57600080fd5b505af115801562001554573d6000803e3d6000fd5b5050506001600160a01b038516905063f2fde38b6200157760208b018b62001a6c565b6040518263ffffffff1660e01b815260040162001595919062001a04565b600060405180830381600087803b158015620015b057600080fd5b505af1158015620015c5573d6000803e3d6000fd5b5050505088604051620015d9919062001d23565b604080519182900382206001600160a01b0385811684528681166020850152898116848401528881166060850152878116608085015291519092918416917f057adae5fa3e9caa8a0d584edff60f61558d33f073412ec2d66d558b739e0a41919081900360a00190a3505050505050505050565b6200165762001692565b6001600160a01b03811662001684576000604051631e4fbdf760e01b81526004016200028d919062001a04565b6200168f81620016c2565b50565b6000546001600160a01b0316331462000258573360405163118cdaa760e01b81526004016200028d919062001a04565b600080546001600160a01b038381166001600160a01b0319831681178455604051919092169283917f8be0079c531659141344cd1fd0a4f28419497f9722a3daafe3b4186f6b6457e09190a35050565b600080604051806020016200172790620019b0565b6020820181038252601f19601f82011660405250905060008360405160200162001752919062001a04565b6040516020818303038152906040529050600082826040516020016200177a92919062001f2f565b604051602081830303815290604052905062001797868262001928565b9695505050505050565b600080604051806020016200172790620019be565b600080604051806020016200172790620019cc565b600080604051806020016200172790620019da565b60008060405180602001620017f590620019e8565b601f1982820381018352601f9091011660408181526001600160a01b03898116602084015288811682840152878116606084015286166080808401919091528151808403909101815260a083019091529192506000906200185d908490849060c00162001f2f565b60405160208183030381529060405290506200187a898262001928565b9998505050505050505050565b600080604051806020016200189c90620019f6565b6020820181038252601f19601f820116604052509050600089898989898989604051602001620018d3979695949392919062001f62565b604051602081830303815290604052905060008282604051602001620018fb92919062001f2f565b6040516020818303038152906040529050620019188c8262001928565b9c9b505050505050505050505050565b600080836040516020016200193e919062001d23565b60405160208183030381529060405280519060200120905060008360200184518381836000f592505050803b6200197457600080fd5b6040516001600160a01b038216907ff40fcec21964ffb566044d083b4073f29f7f7929110ea19e1b3ebe375d89055e90600090a2949350505050565b6108fa8062001fcb83390190565b6108fa80620028c583390190565b6108fa80620031bf83390190565b6108fa8062003ab983390190565b6109bd80620043b383390190565b610d038062004d7083390190565b6001600160a01b0391909116815260200190565b6001600160a01b03811681146200168f57600080fd5b6000806040838503121562001a4257600080fd5b823562001a4f8162001a18565b9150602083013562001a618162001a18565b809150509250929050565b60006020828403121562001a7f57600080fd5b813562001a8c8162001a18565b9392505050565b6000806020838503121562001aa757600080fd5b823567ffffffffffffffff8082111562001ac057600080fd5b818501915085601f83011262001ad557600080fd5b81358181111562001ae557600080fd5b86602082850101111562001af857600080fd5b60209290920196919550909350505050565b634e487b7160e01b600052604160045260246000fd5b600082601f83011262001b3257600080fd5b813567ffffffffffffffff8082111562001b505762001b5062001b0a565b604051601f8301601f19908116603f0116810190828211818310171562001b7b5762001b7b62001b0a565b8160405283815286602085880101111562001b9557600080fd5b836020870160208301376000602085830101528094505050505092915050565b60008060006060848603121562001bcb57600080fd5b833567ffffffffffffffff8082111562001be457600080fd5b62001bf28783880162001b20565b9450602086013591508082111562001c0957600080fd5b90850190610140828803121562001c1f57600080fd5b9092506040850135908082111562001c3657600080fd5b5084016060818703121562001c4a57600080fd5b809150509250925092565b60006020828403121562001c6857600080fd5b813567ffffffffffffffff81111562001c8057600080fd5b62001c8e8482850162001b20565b949350505050565b6020808252601f908201527f696e76616c696420617267756d656e74202d207a65726f206164647265737300604082015260600190565b60006020828403121562001ce057600080fd5b815162001a8c8162001a18565b8183823760009101908152919050565b60005b8381101562001d1a57818101518382015260200162001d00565b50506000910152565b6000825162001d3781846020870162001cfd565b9190910192915050565b6000808335601e1984360301811262001d5957600080fd5b83018035915067ffffffffffffffff82111562001d7557600080fd5b6020019150600581901b360382131562001d8e57600080fd5b9250929050565b6000808335601e1984360301811262001dad57600080fd5b83018035915067ffffffffffffffff82111562001dc957600080fd5b60200191503681900382131562001d8e57600080fd5b60006020828403121562001df257600080fd5b813560ff8116811462001a8c57600080fd5b6000815180845262001e1e81602086016020860162001cfd565b601f01601f19169290920160200192915050565b6001600160a01b0384811682528316602082015260606040820181905260009062001e609083018462001e04565b95945050505050565b634e487b7160e01b600052603260045260246000fd5b6001600160a01b0384168152604060208201819052810182905260006001600160fb1b0383111562001eb057600080fd5b8260051b8085606085013791909101606001949350505050565b60006020828403121562001edd57600080fd5b8151801515811462001a8c57600080fd5b6040815282604082015282846060830137600060608483018101919091526001600160a01b03929092166020820152601f909201601f191690910101919050565b6000835162001f4381846020880162001cfd565b83519083019062001f5981836020880162001cfd565b01949350505050565b600060018060a01b03808a1683528089166020840152808816604084015260e0606084015262001f9660e084018862001e04565b838103608085015262001faa818862001e04565b60ff9690961660a0850152509290921660c090910152509594505050505056fe608060405234801561001057600080fd5b506040516108fa3803806108fa83398101604081905261002f9161022a565b6001600160a01b03811661008a5760405162461bcd60e51b815260206004820152601f60248201527f696e76616c696420617267756d656e74202d207a65726f20616464726573730060448201526064015b60405180910390fd5b6100a0816000805160206108da83398151915255565b6040516001600160a01b038216907f3b1074392ed8e8424715d0dda2197eede67080b377fc8370e26f3e882207f6b890600090a260006100ec6000805160206108da8339815191525490565b6001600160a01b031663fedcc0526040518163ffffffff1660e01b8152600401602060405180830381865afa158015610129573d6000803e3d6000fd5b505050506040513d601f19601f8201168201806040525081019061014d919061022a565b60408051600481526024810182526020810180516001600160e01b03166370e39c9560e11b17905290519192506000916001600160a01b038416916101919161025a565b600060405180830381855af49150503d80600081146101cc576040519150601f19603f3d011682016040523d82523d6000602084013e6101d1565b606091505b50509050806102225760405162461bcd60e51b815260206004820152601660248201527f496e697469616c697a6174696f6e206661696c65642e000000000000000000006044820152606401610081565b505050610289565b60006020828403121561023c57600080fd5b81516001600160a01b038116811461025357600080fd5b9392505050565b6000825160005b8181101561027b5760208186018101518583015201610261565b506000920191825250919050565b610642806102986000396000f3fe6080604052600436106100295760003560e01c80632d5f1187146100c157806392dd9d65146100f2575b6000610033610112565b6001600160a01b031663fedcc0526040518163ffffffff1660e01b8152600401602060405180830381865afa158015610070573d6000803e3d6000fd5b505050506040513d601f19601f8201168201806040525081019061009491906105cb565b90503660008037600080366000846127105a03f43d806000803e8180156100ba57816000f35b816000fd5b005b3480156100cd57600080fd5b506100d6610112565b6040516001600160a01b03909116815260200160405180910390f35b3480156100fe57600080fd5b506100bf61010d3660046105ef565b610137565b7f821f3e4d3d679f19eacc940c87acf846ea6eae24a63058ea750304437a62aafc5490565b61013f610112565b6001600160a01b0316336001600160a01b0316146101ba5760405162461bcd60e51b815260206004820152602d60248201527f6f6e6c792063757272656e7420696d706c656d656e746174696f6e417574686f60448201526c1c9a5d1e4818d85b8818d85b1b609a1b60648201526084015b60405180910390fd5b6001600160a01b0381166102105760405162461bcd60e51b815260206004820152601f60248201527f696e76616c696420617267756d656e74202d207a65726f20616464726573730060448201526064016101b1565b60006001600160a01b0316816001600160a01b031663709bc7f36040518163ffffffff1660e01b8152600401602060405180830381865afa158015610259573d6000803e3d6000fd5b505050506040513d601f19601f8201168201806040525081019061027d91906105cb565b6001600160a01b031614158015610308575060006001600160a01b0316816001600160a01b0316636ff6e83f6040518163ffffffff1660e01b8152600401602060405180830381865afa1580156102d8573d6000803e3d6000fd5b505050506040513d601f19601f820116820180604052508101906102fc91906105cb565b6001600160a01b031614155b8015610388575060006001600160a01b0316816001600160a01b0316631ee9ce8b6040518163ffffffff1660e01b8152600401602060405180830381865afa158015610358573d6000803e3d6000fd5b505050506040513d601f19601f8201168201806040525081019061037c91906105cb565b6001600160a01b031614155b8015610408575060006001600160a01b0316816001600160a01b0316639e3e7bb96040518163ffffffff1660e01b8152600401602060405180830381865afa1580156103d8573d6000803e3d6000fd5b505050506040513d601f19601f820116820180604052508101906103fc91906105cb565b6001600160a01b031614155b8015610488575060006001600160a01b0316816001600160a01b03166361f898256040518163ffffffff1660e01b8152600401602060405180830381865afa158015610458573d6000803e3d6000fd5b505050506040513d601f19601f8201168201806040525081019061047c91906105cb565b6001600160a01b031614155b8015610508575060006001600160a01b0316816001600160a01b031663fedcc0526040518163ffffffff1660e01b8152600401602060405180830381865afa1580156104d8573d6000803e3d6000fd5b505050506040513d601f19601f820116820180604052508101906104fc91906105cb565b6001600160a01b031614155b6105545760405162461bcd60e51b815260206004820181905260248201527f696e76616c696420496d706c656d656e746174696f6e20417574686f7269747960448201526064016101b1565b61057c817f821f3e4d3d679f19eacc940c87acf846ea6eae24a63058ea750304437a62aafc55565b6040516001600160a01b038216907f3b1074392ed8e8424715d0dda2197eede67080b377fc8370e26f3e882207f6b890600090a250565b6001600160a01b03811681146105c857600080fd5b50565b6000602082840312156105dd57600080fd5b81516105e8816105b3565b9392505050565b60006020828403121561060157600080fd5b81356105e8816105b356fea26469706673582212202b8ef519f1414ed13c5cfe09d7fa4bc45dfa5af418d6ff87cb0cbe427c7e741d64736f6c63430008180033821f3e4d3d679f19eacc940c87acf846ea6eae24a63058ea750304437a62aafc608060405234801561001057600080fd5b506040516108fa3803806108fa83398101604081905261002f9161022a565b6001600160a01b03811661008a5760405162461bcd60e51b815260206004820152601f60248201527f696e76616c696420617267756d656e74202d207a65726f20616464726573730060448201526064015b60405180910390fd5b6100a0816000805160206108da83398151915255565b6040516001600160a01b038216907f3b1074392ed8e8424715d0dda2197eede67080b377fc8370e26f3e882207f6b890600090a260006100ec6000805160206108da8339815191525490565b6001600160a01b0316636ff6e83f6040518163ffffffff1660e01b8152600401602060405180830381865afa158015610129573d6000803e3d6000fd5b505050506040513d601f19601f8201168201806040525081019061014d919061022a565b60408051600481526024810182526020810180516001600160e01b03166370e39c9560e11b17905290519192506000916001600160a01b038416916101919161025a565b600060405180830381855af49150503d80600081146101cc576040519150601f19603f3d011682016040523d82523d6000602084013e6101d1565b606091505b50509050806102225760405162461bcd60e51b815260206004820152601660248201527f496e697469616c697a6174696f6e206661696c65642e000000000000000000006044820152606401610081565b505050610289565b60006020828403121561023c57600080fd5b81516001600160a01b038116811461025357600080fd5b9392505050565b6000825160005b8181101561027b5760208186018101518583015201610261565b506000920191825250919050565b610642806102986000396000f3fe6080604052600436106100295760003560e01c80632d5f1187146100c157806392dd9d65146100f2575b6000610033610112565b6001600160a01b0316636ff6e83f6040518163ffffffff1660e01b8152600401602060405180830381865afa158015610070573d6000803e3d6000fd5b505050506040513d601f19601f8201168201806040525081019061009491906105cb565b90503660008037600080366000846127105a03f43d806000803e8180156100ba57816000f35b816000fd5b005b3480156100cd57600080fd5b506100d6610112565b6040516001600160a01b03909116815260200160405180910390f35b3480156100fe57600080fd5b506100bf61010d3660046105ef565b610137565b7f821f3e4d3d679f19eacc940c87acf846ea6eae24a63058ea750304437a62aafc5490565b61013f610112565b6001600160a01b0316336001600160a01b0316146101ba5760405162461bcd60e51b815260206004820152602d60248201527f6f6e6c792063757272656e7420696d706c656d656e746174696f6e417574686f60448201526c1c9a5d1e4818d85b8818d85b1b609a1b60648201526084015b60405180910390fd5b6001600160a01b0381166102105760405162461bcd60e51b815260206004820152601f60248201527f696e76616c696420617267756d656e74202d207a65726f20616464726573730060448201526064016101b1565b60006001600160a01b0316816001600160a01b031663709bc7f36040518163ffffffff1660e01b8152600401602060405180830381865afa158015610259573d6000803e3d6000fd5b505050506040513d601f19601f8201168201806040525081019061027d91906105cb565b6001600160a01b031614158015610308575060006001600160a01b0316816001600160a01b0316636ff6e83f6040518163ffffffff1660e01b8152600401602060405180830381865afa1580156102d8573d6000803e3d6000fd5b505050506040513d601f19601f820116820180604052508101906102fc91906105cb565b6001600160a01b031614155b8015610388575060006001600160a01b0316816001600160a01b0316631ee9ce8b6040518163ffffffff1660e01b8152600401602060405180830381865afa158015610358573d6000803e3d6000fd5b505050506040513d601f19601f8201168201806040525081019061037c91906105cb565b6001600160a01b031614155b8015610408575060006001600160a01b0316816001600160a01b0316639e3e7bb96040518163ffffffff1660e01b8152600401602060405180830381865afa1580156103d8573d6000803e3d6000fd5b505050506040513d601f19601f820116820180604052508101906103fc91906105cb565b6001600160a01b031614155b8015610488575060006001600160a01b0316816001600160a01b03166361f898256040518163ffffffff1660e01b8152600401602060405180830381865afa158015610458573d6000803e3d6000fd5b505050506040513d601f19601f8201168201806040525081019061047c91906105cb565b6001600160a01b031614155b8015610508575060006001600160a01b0316816001600160a01b031663fedcc0526040518163ffffffff1660e01b8152600401602060405180830381865afa1580156104d8573d6000803e3d6000fd5b505050506040513d601f19601f820116820180604052508101906104fc91906105cb565b6001600160a01b031614155b6105545760405162461bcd60e51b815260206004820181905260248201527f696e76616c696420496d706c656d656e746174696f6e20417574686f7269747960448201526064016101b1565b61057c817f821f3e4d3d679f19eacc940c87acf846ea6eae24a63058ea750304437a62aafc55565b6040516001600160a01b038216907f3b1074392ed8e8424715d0dda2197eede67080b377fc8370e26f3e882207f6b890600090a250565b6001600160a01b03811681146105c857600080fd5b50565b6000602082840312156105dd57600080fd5b81516105e8816105b3565b9392505050565b60006020828403121561060157600080fd5b81356105e8816105b356fea2646970667358221220832dfec367fb03dcde5d4f6e16a95c57c6f51626043bb7b4e6c51adc748c451464736f6c63430008180033821f3e4d3d679f19eacc940c87acf846ea6eae24a63058ea750304437a62aafc608060405234801561001057600080fd5b506040516108fa3803806108fa83398101604081905261002f9161022a565b6001600160a01b03811661008a5760405162461bcd60e51b815260206004820152601f60248201527f696e76616c696420617267756d656e74202d207a65726f20616464726573730060448201526064015b60405180910390fd5b6100a0816000805160206108da83398151915255565b6040516001600160a01b038216907f3b1074392ed8e8424715d0dda2197eede67080b377fc8370e26f3e882207f6b890600090a260006100ec6000805160206108da8339815191525490565b6001600160a01b03166361f898256040518163ffffffff1660e01b8152600401602060405180830381865afa158015610129573d6000803e3d6000fd5b505050506040513d601f19601f8201168201806040525081019061014d919061022a565b60408051600481526024810182526020810180516001600160e01b03166370e39c9560e11b17905290519192506000916001600160a01b038416916101919161025a565b600060405180830381855af49150503d80600081146101cc576040519150601f19603f3d011682016040523d82523d6000602084013e6101d1565b606091505b50509050806102225760405162461bcd60e51b815260206004820152601660248201527f496e697469616c697a6174696f6e206661696c65642e000000000000000000006044820152606401610081565b505050610289565b60006020828403121561023c57600080fd5b81516001600160a01b038116811461025357600080fd5b9392505050565b6000825160005b8181101561027b5760208186018101518583015201610261565b506000920191825250919050565b610642806102986000396000f3fe6080604052600436106100295760003560e01c80632d5f1187146100c157806392dd9d65146100f2575b6000610033610112565b6001600160a01b03166361f898256040518163ffffffff1660e01b8152600401602060405180830381865afa158015610070573d6000803e3d6000fd5b505050506040513d601f19601f8201168201806040525081019061009491906105cb565b90503660008037600080366000846127105a03f43d806000803e8180156100ba57816000f35b816000fd5b005b3480156100cd57600080fd5b506100d6610112565b6040516001600160a01b03909116815260200160405180910390f35b3480156100fe57600080fd5b506100bf61010d3660046105ef565b610137565b7f821f3e4d3d679f19eacc940c87acf846ea6eae24a63058ea750304437a62aafc5490565b61013f610112565b6001600160a01b0316336001600160a01b0316146101ba5760405162461bcd60e51b815260206004820152602d60248201527f6f6e6c792063757272656e7420696d706c656d656e746174696f6e417574686f60448201526c1c9a5d1e4818d85b8818d85b1b609a1b60648201526084015b60405180910390fd5b6001600160a01b0381166102105760405162461bcd60e51b815260206004820152601f60248201527f696e76616c696420617267756d656e74202d207a65726f20616464726573730060448201526064016101b1565b60006001600160a01b0316816001600160a01b031663709bc7f36040518163ffffffff1660e01b8152600401602060405180830381865afa158015610259573d6000803e3d6000fd5b505050506040513d601f19601f8201168201806040525081019061027d91906105cb565b6001600160a01b031614158015610308575060006001600160a01b0316816001600160a01b0316636ff6e83f6040518163ffffffff1660e01b8152600401602060405180830381865afa1580156102d8573d6000803e3d6000fd5b505050506040513d601f19601f820116820180604052508101906102fc91906105cb565b6001600160a01b031614155b8015610388575060006001600160a01b0316816001600160a01b0316631ee9ce8b6040518163ffffffff1660e01b8152600401602060405180830381865afa158015610358573d6000803e3d6000fd5b505050506040513d601f19601f8201168201806040525081019061037c91906105cb565b6001600160a01b031614155b8015610408575060006001600160a01b0316816001600160a01b0316639e3e7bb96040518163ffffffff1660e01b8152600401602060405180830381865afa1580156103d8573d6000803e3d6000fd5b505050506040513d601f19601f820116820180604052508101906103fc91906105cb565b6001600160a01b031614155b8015610488575060006001600160a01b0316816001600160a01b03166361f898256040518163ffffffff1660e01b8152600401602060405180830381865afa158015610458573d6000803e3d6000fd5b505050506040513d601f19601f8201168201806040525081019061047c91906105cb565b6001600160a01b031614155b8015610508575060006001600160a01b0316816001600160a01b031663fedcc0526040518163ffffffff1660e01b8152600401602060405180830381865afa1580156104d8573d6000803e3d6000fd5b505050506040513d601f19601f820116820180604052508101906104fc91906105cb565b6001600160a01b031614155b6105545760405162461bcd60e51b815260206004820181905260248201527f696e76616c696420496d706c656d656e746174696f6e20417574686f7269747960448201526064016101b1565b61057c817f821f3e4d3d679f19eacc940c87acf846ea6eae24a63058ea750304437a62aafc55565b6040516001600160a01b038216907f3b1074392ed8e8424715d0dda2197eede67080b377fc8370e26f3e882207f6b890600090a250565b6001600160a01b03811681146105c857600080fd5b50565b6000602082840312156105dd57600080fd5b81516105e8816105b3565b9392505050565b60006020828403121561060157600080fd5b81356105e8816105b356fea26469706673582212203b00a406f022762b0834d68556e7351397e6b1cbc78554cd0df64270226d92c364736f6c63430008180033821f3e4d3d679f19eacc940c87acf846ea6eae24a63058ea750304437a62aafc608060405234801561001057600080fd5b506040516108fa3803806108fa83398101604081905261002f9161022a565b6001600160a01b03811661008a5760405162461bcd60e51b815260206004820152601f60248201527f696e76616c696420617267756d656e74202d207a65726f20616464726573730060448201526064015b60405180910390fd5b6100a0816000805160206108da83398151915255565b6040516001600160a01b038216907f3b1074392ed8e8424715d0dda2197eede67080b377fc8370e26f3e882207f6b890600090a260006100ec6000805160206108da8339815191525490565b6001600160a01b0316639e3e7bb96040518163ffffffff1660e01b8152600401602060405180830381865afa158015610129573d6000803e3d6000fd5b505050506040513d601f19601f8201168201806040525081019061014d919061022a565b60408051600481526024810182526020810180516001600160e01b03166370e39c9560e11b17905290519192506000916001600160a01b038416916101919161025a565b600060405180830381855af49150503d80600081146101cc576040519150601f19603f3d011682016040523d82523d6000602084013e6101d1565b606091505b50509050806102225760405162461bcd60e51b815260206004820152601660248201527f496e697469616c697a6174696f6e206661696c65642e000000000000000000006044820152606401610081565b505050610289565b60006020828403121561023c57600080fd5b81516001600160a01b038116811461025357600080fd5b9392505050565b6000825160005b8181101561027b5760208186018101518583015201610261565b506000920191825250919050565b610642806102986000396000f3fe6080604052600436106100295760003560e01c80632d5f1187146100c157806392dd9d65146100f2575b6000610033610112565b6001600160a01b0316639e3e7bb96040518163ffffffff1660e01b8152600401602060405180830381865afa158015610070573d6000803e3d6000fd5b505050506040513d601f19601f8201168201806040525081019061009491906105cb565b90503660008037600080366000846127105a03f43d806000803e8180156100ba57816000f35b816000fd5b005b3480156100cd57600080fd5b506100d6610112565b6040516001600160a01b03909116815260200160405180910390f35b3480156100fe57600080fd5b506100bf61010d3660046105ef565b610137565b7f821f3e4d3d679f19eacc940c87acf846ea6eae24a63058ea750304437a62aafc5490565b61013f610112565b6001600160a01b0316336001600160a01b0316146101ba5760405162461bcd60e51b815260206004820152602d60248201527f6f6e6c792063757272656e7420696d706c656d656e746174696f6e417574686f60448201526c1c9a5d1e4818d85b8818d85b1b609a1b60648201526084015b60405180910390fd5b6001600160a01b0381166102105760405162461bcd60e51b815260206004820152601f60248201527f696e76616c696420617267756d656e74202d207a65726f20616464726573730060448201526064016101b1565b60006001600160a01b0316816001600160a01b031663709bc7f36040518163ffffffff1660e01b8152600401602060405180830381865afa158015610259573d6000803e3d6000fd5b505050506040513d601f19601f8201168201806040525081019061027d91906105cb565b6001600160a01b031614158015610308575060006001600160a01b0316816001600160a01b0316636ff6e83f6040518163ffffffff1660e01b8152600401602060405180830381865afa1580156102d8573d6000803e3d6000fd5b505050506040513d601f19601f820116820180604052508101906102fc91906105cb565b6001600160a01b031614155b8015610388575060006001600160a01b0316816001600160a01b0316631ee9ce8b6040518163ffffffff1660e01b8152600401602060405180830381865afa158015610358573d6000803e3d6000fd5b505050506040513d601f19601f8201168201806040525081019061037c91906105cb565b6001600160a01b031614155b8015610408575060006001600160a01b0316816001600160a01b0316639e3e7bb96040518163ffffffff1660e01b8152600401602060405180830381865afa1580156103d8573d6000803e3d6000fd5b505050506040513d601f19601f820116820180604052508101906103fc91906105cb565b6001600160a01b031614155b8015610488575060006001600160a01b0316816001600160a01b03166361f898256040518163ffffffff1660e01b8152600401602060405180830381865afa158015610458573d6000803e3d6000fd5b505050506040513d601f19601f8201168201806040525081019061047c91906105cb565b6001600160a01b031614155b8015610508575060006001600160a01b0316816001600160a01b031663fedcc0526040518163ffffffff1660e01b8152600401602060405180830381865afa1580156104d8573d6000803e3d6000fd5b505050506040513d601f19601f820116820180604052508101906104fc91906105cb565b6001600160a01b031614155b6105545760405162461bcd60e51b815260206004820181905260248201527f696e76616c696420496d706c656d656e746174696f6e20417574686f7269747960448201526064016101b1565b61057c817f821f3e4d3d679f19eacc940c87acf846ea6eae24a63058ea750304437a62aafc55565b6040516001600160a01b038216907f3b1074392ed8e8424715d0dda2197eede67080b377fc8370e26f3e882207f6b890600090a250565b6001600160a01b03811681146105c857600080fd5b50565b6000602082840312156105dd57600080fd5b81516105e8816105b3565b9392505050565b60006020828403121561060157600080fd5b81356105e8816105b356fea264697066735822122090c1ac6604267bc7c3d740c341ab6a06f22a679427c3547c588024542f43d45564736f6c63430008180033821f3e4d3d679f19eacc940c87acf846ea6eae24a63058ea750304437a62aafc608060405234801561001057600080fd5b506040516109bd3803806109bd83398101604081905261002f916102a7565b6001600160a01b0384161580159061004f57506001600160a01b03831615155b801561006357506001600160a01b03821615155b801561007757506001600160a01b03811615155b6100c85760405162461bcd60e51b815260206004820152601f60248201527f696e76616c696420617267756d656e74202d207a65726f20616464726573730060448201526064015b60405180910390fd5b6100de8460008051602061099d83398151915255565b6040516001600160a01b038516907f3b1074392ed8e8424715d0dda2197eede67080b377fc8370e26f3e882207f6b890600090a2600061012a60008051602061099d8339815191525490565b6001600160a01b0316631ee9ce8b6040518163ffffffff1660e01b8152600401602060405180830381865afa158015610167573d6000803e3d6000fd5b505050506040513d601f19601f8201168201806040525081019061018b91906102fb565b6040516001600160a01b0386811660248301528581166044830152848116606483015291925060009183169060840160408051601f198184030181529181526020820180516001600160e01b031663184b955960e01b179052516101ef919061031d565b600060405180830381855af49150503d806000811461022a576040519150601f19603f3d011682016040523d82523d6000602084013e61022f565b606091505b50509050806102805760405162461bcd60e51b815260206004820152601660248201527f496e697469616c697a6174696f6e206661696c65642e0000000000000000000060448201526064016100bf565b50505050505061034c565b80516001600160a01b03811681146102a257600080fd5b919050565b600080600080608085870312156102bd57600080fd5b6102c68561028b565b93506102d46020860161028b565b92506102e26040860161028b565b91506102f06060860161028b565b905092959194509250565b60006020828403121561030d57600080fd5b6103168261028b565b9392505050565b6000825160005b8181101561033e5760208186018101518583015201610324565b506000920191825250919050565b6106428061035b6000396000f3fe6080604052600436106100295760003560e01c80632d5f1187146100c157806392dd9d65146100f2575b6000610033610112565b6001600160a01b0316631ee9ce8b6040518163ffffffff1660e01b8152600401602060405180830381865afa158015610070573d6000803e3d6000fd5b505050506040513d601f19601f8201168201806040525081019061009491906105cb565b90503660008037600080366000846127105a03f43d806000803e8180156100ba57816000f35b816000fd5b005b3480156100cd57600080fd5b506100d6610112565b6040516001600160a01b03909116815260200160405180910390f35b3480156100fe57600080fd5b506100bf61010d3660046105ef565b610137565b7f821f3e4d3d679f19eacc940c87acf846ea6eae24a63058ea750304437a62aafc5490565b61013f610112565b6001600160a01b0316336001600160a01b0316146101ba5760405162461bcd60e51b815260206004820152602d60248201527f6f6e6c792063757272656e7420696d706c656d656e746174696f6e417574686f60448201526c1c9a5d1e4818d85b8818d85b1b609a1b60648201526084015b60405180910390fd5b6001600160a01b0381166102105760405162461bcd60e51b815260206004820152601f60248201527f696e76616c696420617267756d656e74202d207a65726f20616464726573730060448201526064016101b1565b60006001600160a01b0316816001600160a01b031663709bc7f36040518163ffffffff1660e01b8152600401602060405180830381865afa158015610259573d6000803e3d6000fd5b505050506040513d601f19601f8201168201806040525081019061027d91906105cb565b6001600160a01b031614158015610308575060006001600160a01b0316816001600160a01b0316636ff6e83f6040518163ffffffff1660e01b8152600401602060405180830381865afa1580156102d8573d6000803e3d6000fd5b505050506040513d601f19601f820116820180604052508101906102fc91906105cb565b6001600160a01b031614155b8015610388575060006001600160a01b0316816001600160a01b0316631ee9ce8b6040518163ffffffff1660e01b8152600401602060405180830381865afa158015610358573d6000803e3d6000fd5b505050506040513d601f19601f8201168201806040525081019061037c91906105cb565b6001600160a01b031614155b8015610408575060006001600160a01b0316816001600160a01b0316639e3e7bb96040518163ffffffff1660e01b8152600401602060405180830381865afa1580156103d8573d6000803e3d6000fd5b505050506040513d601f19601f820116820180604052508101906103fc91906105cb565b6001600160a01b031614155b8015610488575060006001600160a01b0316816001600160a01b03166361f898256040518163ffffffff1660e01b8152600401602060405180830381865afa158015610458573d6000803e3d6000fd5b505050506040513d601f19601f8201168201806040525081019061047c91906105cb565b6001600160a01b031614155b8015610508575060006001600160a01b0316816001600160a01b031663fedcc0526040518163ffffffff1660e01b8152600401602060405180830381865afa1580156104d8573d6000803e3d6000fd5b505050506040513d601f19601f820116820180604052508101906104fc91906105cb565b6001600160a01b031614155b6105545760405162461bcd60e51b815260206004820181905260248201527f696e76616c696420496d706c656d656e746174696f6e20417574686f7269747960448201526064016101b1565b61057c817f821f3e4d3d679f19eacc940c87acf846ea6eae24a63058ea750304437a62aafc55565b6040516001600160a01b038216907f3b1074392ed8e8424715d0dda2197eede67080b377fc8370e26f3e882207f6b890600090a250565b6001600160a01b03811681146105c857600080fd5b50565b6000602082840312156105dd57600080fd5b81516105e8816105b3565b9392505050565b60006020828403121561060157600080fd5b81356105e8816105b356fea264697066735822122067032f8d63aa5c9e910fa15f066ac4bf001ff733c84f90e27bef4ef51f8b939b64736f6c63430008180033821f3e4d3d679f19eacc940c87acf846ea6eae24a63058ea750304437a62aafc60806040523480156200001157600080fd5b5060405162000d0338038062000d038339810160408190526200003491620004dd565b6001600160a01b038716158015906200005557506001600160a01b03861615155b80156200006a57506001600160a01b03851615155b620000bc5760405162461bcd60e51b815260206004820152601f60248201527f696e76616c696420617267756d656e74202d207a65726f20616464726573730060448201526064015b60405180910390fd5b604051602001620000d890602080825260009082015260400190565b6040516020818303038152906040528051906020012084604051602001620001019190620005da565b60405160208183030381529060405280519060200120141580156200017f57506040516020016200013d90602080825260009082015260400190565b6040516020818303038152906040528051906020012083604051602001620001669190620005da565b6040516020818303038152906040528051906020012014155b620001cd5760405162461bcd60e51b815260206004820152601f60248201527f696e76616c696420617267756d656e74202d20656d70747920737472696e67006044820152606401620000b3565b60128260ff161115620002235760405162461bcd60e51b815260206004820152601960248201527f646563696d616c73206265747765656e203020616e64203138000000000000006044820152606401620000b3565b6200023b8760008051602062000ce383398151915255565b6040516001600160a01b038816907f3b1074392ed8e8424715d0dda2197eede67080b377fc8370e26f3e882207f6b890600090a260006200028960008051602062000ce38339815191525490565b6001600160a01b031663709bc7f36040518163ffffffff1660e01b8152600401602060405180830381865afa158015620002c7573d6000803e3d6000fd5b505050506040513d601f19601f82011682018060405250810190620002ed9190620005f6565b90506000816001600160a01b0316888888888888604051602401620003189695949392919062000614565b60408051601f198184030181529181526020820180516001600160e01b0316633e46d86760e21b179052516200034f919062000673565b600060405180830381855af49150503d80600081146200038c576040519150601f19603f3d011682016040523d82523d6000602084013e62000391565b606091505b5050905080620003e45760405162461bcd60e51b815260206004820152601660248201527f496e697469616c697a6174696f6e206661696c65642e000000000000000000006044820152606401620000b3565b50505050505050505062000691565b80516001600160a01b03811681146200040b57600080fd5b919050565b634e487b7160e01b600052604160045260246000fd5b60005b838110156200044357818101518382015260200162000429565b50506000910152565b600082601f8301126200045e57600080fd5b81516001600160401b03808211156200047b576200047b62000410565b604051601f8301601f19908116603f01168101908282118183101715620004a657620004a662000410565b81604052838152866020858801011115620004c057600080fd5b620004d384602083016020890162000426565b9695505050505050565b600080600080600080600060e0888a031215620004f957600080fd5b6200050488620003f3565b96506200051460208901620003f3565b95506200052460408901620003f3565b60608901519095506001600160401b03808211156200054257600080fd5b620005508b838c016200044c565b955060808a01519150808211156200056757600080fd5b50620005768a828b016200044c565b93505060a088015160ff811681146200058e57600080fd5b91506200059e60c08901620003f3565b905092959891949750929550565b60008151808452620005c681602086016020860162000426565b601f01601f19169290920160200192915050565b602081526000620005ef6020830184620005ac565b9392505050565b6000602082840312156200060957600080fd5b620005ef82620003f3565b600060018060a01b038089168352808816602084015260c060408401526200064060c0840188620005ac565b8381036060850152620006548188620005ac565b60ff969096166080850152509290921660a09091015250949350505050565b600082516200068781846020870162000426565b9190910192915050565b61064280620006a16000396000f3fe6080604052600436106100295760003560e01c80632d5f1187146100c157806392dd9d65146100f2575b6000610033610112565b6001600160a01b031663709bc7f36040518163ffffffff1660e01b8152600401602060405180830381865afa158015610070573d6000803e3d6000fd5b505050506040513d601f19601f8201168201806040525081019061009491906105cb565b90503660008037600080366000846127105a03f43d806000803e8180156100ba57816000f35b816000fd5b005b3480156100cd57600080fd5b506100d6610112565b6040516001600160a01b03909116815260200160405180910390f35b3480156100fe57600080fd5b506100bf61010d3660046105ef565b610137565b7f821f3e4d3d679f19eacc940c87acf846ea6eae24a63058ea750304437a62aafc5490565b61013f610112565b6001600160a01b0316336001600160a01b0316146101ba5760405162461bcd60e51b815260206004820152602d60248201527f6f6e6c792063757272656e7420696d706c656d656e746174696f6e417574686f60448201526c1c9a5d1e4818d85b8818d85b1b609a1b60648201526084015b60405180910390fd5b6001600160a01b0381166102105760405162461bcd60e51b815260206004820152601f60248201527f696e76616c696420617267756d656e74202d207a65726f20616464726573730060448201526064016101b1565b60006001600160a01b0316816001600160a01b031663709bc7f36040518163ffffffff1660e01b8152600401602060405180830381865afa158015610259573d6000803e3d6000fd5b505050506040513d601f19601f8201168201806040525081019061027d91906105cb565b6001600160a01b031614158015610308575060006001600160a01b0316816001600160a01b0316636ff6e83f6040518163ffffffff1660e01b8152600401602060405180830381865afa1580156102d8573d6000803e3d6000fd5b505050506040513d601f19601f820116820180604052508101906102fc91906105cb565b6001600160a01b031614155b8015610388575060006001600160a01b0316816001600160a01b0316631ee9ce8b6040518163ffffffff1660e01b8152600401602060405180830381865afa158015610358573d6000803e3d6000fd5b505050506040513d601f19601f8201168201806040525081019061037c91906105cb565b6001600160a01b031614155b8015610408575060006001600160a01b0316816001600160a01b0316639e3e7bb96040518163ffffffff1660e01b8152600401602060405180830381865afa1580156103d8573d6000803e3d6000fd5b505050506040513d601f19601f820116820180604052508101906103fc91906105cb565b6001600160a01b031614155b8015610488575060006001600160a01b0316816001600160a01b03166361f898256040518163ffffffff1660e01b8152600401602060405180830381865afa158015610458573d6000803e3d6000fd5b505050506040513d601f19601f8201168201806040525081019061047c91906105cb565b6001600160a01b031614155b8015610508575060006001600160a01b0316816001600160a01b031663fedcc0526040518163ffffffff1660e01b8152600401602060405180830381865afa1580156104d8573d6000803e3d6000fd5b505050506040513d601f19601f820116820180604052508101906104fc91906105cb565b6001600160a01b031614155b6105545760405162461bcd60e51b815260206004820181905260248201527f696e76616c696420496d706c656d656e746174696f6e20417574686f7269747960448201526064016101b1565b61057c817f821f3e4d3d679f19eacc940c87acf846ea6eae24a63058ea750304437a62aafc55565b6040516001600160a01b038216907f3b1074392ed8e8424715d0dda2197eede67080b377fc8370e26f3e882207f6b890600090a250565b6001600160a01b03811681146105c857600080fd5b50565b6000602082840312156105dd57600080fd5b81516105e8816105b3565b9392505050565b60006020828403121561060157600080fd5b81356105e8816105b356fea2646970667358221220f9809c4e3ec10464658b0e38dfb299565eb2bd11e997ab3c3eb72e847cd8d39d64736f6c63430008180033821f3e4d3d679f19eacc940c87acf846ea6eae24a63058ea750304437a62aafca26469706673582212201188b3ed50bd2201fb2d6a8cdc6c359434590b2acd163e62d4c7247a54ecd46864736f6c63430008180033",
  "linkReferences": {},
  "deployedLinkReferences": {}
}