{
  "_format": "hh-sol-artifact-1",
  "contractName": "TrustedIssuersRegistry",
  "sourceName": "contracts/erc3643/registry/implementation/TrustedIssuersRegistry.sol",
  "abi": [
    {
      "inputs": [],
      "name": "InvalidInitialization",
      "type": "error"
    },
    {
      "inputs": [],
      "name": "NotInitializing",
      "type": "error"
    },
    {
      "inputs": [
        {
          "internalType": "address",
          "name": "owner",
          "type": "address"
        }
      ],
      "name": "OwnableInvalidOwner",
      "type": "error"
    },
    {
      "inputs": [
        {
          "internalType": "address",
          "name": "account",
          "type": "address"
        }
      ],
      "name": "OwnableUnauthorizedAccount",
      "type": "error"
    },
    {
      "anonymous": false,
      "inputs": [
        {
          "indexed": true,
          "internalType": "contract IClaimIssuer",
          "name": "trustedIssuer",
          "type": "address"
        },
        {
          "indexed": false,
          "internalType": "uint256[]",
          "name": "claimTopics",
          "type": "uint256[]"
        }
      ],
      "name": "ClaimTopicsUpdated",
      "type": "event"
    },
    {
      "anonymous": false,
      "inputs": [
        {
          "indexed": false,
          "internalType": "uint64",
          "name": "version",
          "type": "uint64"
        }
      ],
      "name": "Initialized",
      "type": "event"
    },
    {
      "anonymous": false,
      "inputs": [
        {
          "indexed": true,
          "internalType": "address",
          "name": "previousOwner",
          "type": "address"
        },
        {
          "indexed": true,
          "internalType": "address",
          "name": "newOwner",
          "type": "address"
        }
      ],
      "name": "OwnershipTransferred",
      "type": "event"
    },
    {
      "anonymous": false,
      "inputs": [
        {
          "indexed": true,
          "internalType": "contract IClaimIssuer",
          "name": "trustedIssuer",
          "type": "address"
        },
        {
          "indexed": false,
          "internalType": "uint256[]",
          "name": "claimTopics",
          "type": "uint256[]"
        }
      ],
      "name": "TrustedIssuerAdded",
      "type": "event"
    },
    {
      "anonymous": false,
      "inputs": [
        {
          "indexed": true,
          "internalType": "contract IClaimIssuer",
          "name": "trustedIssuer",
          "type": "address"
        }
      ],
      "name": "TrustedIssuerRemoved",
      "type": "event"
    },
    {
      "inputs": [
        {
          "internalType": "contract IClaimIssuer",
          "name": "_trustedIssuer",
          "type": "address"
        },
        {
          "internalType": "uint256[]",
          "name": "_claimTopics",
          "type": "uint256[]"
        }
      ],
      "name": "addTrustedIssuer",
      "outputs": [],
      "stateMutability": "nonpayable",
      "type": "function"
    },
    {
      "inputs": [
        {
          "internalType": "contract IClaimIssuer",
          "name": "_trustedIssuer",
          "type": "address"
        }
      ],
      "name": "getTrustedIssuerClaimTopics",
      "outputs": [
        {
          "internalType": "uint256[]",
          "name": "",
          "type": "uint256[]"
        }
      ],
      "stateMutability": "view",
      "type": "function"
    },
    {
      "inputs": [],
      "name": "getTrustedIssuers",
      "outputs": [
        {
          "internalType": "contract IClaimIssuer[]",
          "name": "",
          "type": "address[]"
        }
      ],
      "stateMutability": "view",
      "type": "function"
    },
    {
      "inputs": [
        {
          "internalType": "uint256",
          "name": "claimTopic",
          "type": "uint256"
        }
      ],
      "name": "getTrustedIssuersForClaimTopic",
      "outputs": [
        {
          "internalType": "contract IClaimIssuer[]",
          "name": "",
          "type": "address[]"
        }
      ],
      "stateMutability": "view",
      "type": "function"
    },
    {
      "inputs": [
        {
          "internalType": "address",
          "name": "_issuer",
          "type": "address"
        },
        {
          "internalType": "uint256",
          "name": "_claimTopic",
          "type": "uint256"
        }
      ],
      "name": "hasClaimTopic",
      "outputs": [
        {
          "internalType": "bool",
          "name": "",
          "type": "bool"
        }
      ],
      "stateMutability": "view",
      "type": "function"
    },
    {
      "inputs": [],
      "name": "init",
      "outputs": [],
      "stateMutability": "nonpayable",
      "type": "function"
    },
    {
      "inputs": [
        {
          "internalType": "address",
          "name": "_issuer",
          "type": "address"
        }
      ],
      "name": "isTrustedIssuer",
      "outputs": [
        {
          "internalType": "bool",
          "name": "",
          "type": "bool"
        }
      ],
      "stateMutability": "view",
      "type": "function"
    },
    {
      "inputs": [],
      "name": "owner",
      "outputs": [
        {
          "internalType": "address",
          "name": "",
          "type": "address"
        }
      ],
      "stateMutability": "view",
      "type": "function"
    },
    {
      "inputs": [
        {
          "internalType": "contract IClaimIssuer",
          "name": "_trustedIssuer",
          "type": "address"
        }
      ],
      "name": "removeTrustedIssuer",
      "outputs": [],
      "stateMutability": "nonpayable",
      "type": "function"
    },
    {
      "inputs": [],
      "name": "renounceOwnership",
      "outputs": [],
      "stateMutability": "nonpayable",
      "type": "function"
    },
    {
      "inputs": [
        {
          "internalType": "address",
          "name": "newOwner",
          "type": "address"
        }
      ],
      "name": "transferOwnership",
      "outputs": [],
      "stateMutability": "nonpayable",
      "type": "function"
    },
    {
      "inputs": [
        {
          "internalType": "contract IClaimIssuer",
          "name": "_trustedIssuer",
          "type": "address"
        },
        {
          "internalType": "uint256[]",
          "name": "_claimTopics",
          "type": "uint256[]"
        }
      ],
      "name": "updateIssuerClaimTopics",
      "outputs": [],
      "stateMutability": "nonpayable",
      "type": "function"
    }
  ],
  "bytecode": "0x608060405234801561001057600080fd5b5061136c806100206000396000f3fe608060405234801561001057600080fd5b50600436106100b45760003560e01c8063b93d28eb11610071578063b93d28eb14610146578063c28fb27814610159578063d9dd24c514610179578063e1c7392a14610181578063ef2ed1a414610189578063f2fde38b1461019c57600080fd5b806304bc7e84146100b957806334a89987146100ce57806352c111d1146100f6578063715018a6146101165780638da5cb5b1461011e5780639f63ea9814610133575b600080fd5b6100cc6100c736600461107c565b6101af565b005b6100e16100dc366004611104565b610507565b60405190151581526020015b60405180910390f35b610109610104366004611130565b6105bd565b6040516100ed9190611149565b6100cc610629565b61012661063d565b6040516100ed9190611196565b6100cc61014136600461107c565b61066b565b6100cc6101543660046111aa565b6108e7565b61016c6101673660046111aa565b610c39565b6040516100ed91906111ce565b610109610d0b565b6100cc610d6d565b6100e16101973660046111aa565b610e7c565b6100cc6101aa3660046111aa565b610eaa565b6101b7610ee8565b6001600160a01b0383166101e65760405162461bcd60e51b81526004016101dd90611206565b60405180910390fd5b6001600160a01b038316600090815260016020526040812054900361021d5760405162461bcd60e51b81526004016101dd9061123d565b600f81111561023e5760405162461bcd60e51b81526004016101dd9061126b565b8061028b5760405162461bcd60e51b815260206004820152601c60248201527f636c61696d20746f706963732063616e6e6f7420626520656d7074790000000060448201526064016101dd565b60005b6001600160a01b03841660009081526001602052604090205481101561042a576001600160a01b03841660009081526001602052604081208054839081106102d8576102d86112b0565b600091825260208083209091015480835260029091526040822054909250905b8181101561041f57600083815260026020526040902080546001600160a01b03891691908390811061032c5761032c6112b0565b6000918252602090912001546001600160a01b03160361041757600083815260026020526040902061035f6001846112c6565b8154811061036f5761036f6112b0565b60009182526020808320909101548583526002909152604090912080546001600160a01b0390921691839081106103a8576103a86112b0565b600091825260208083209190910180546001600160a01b0319166001600160a01b0394909416939093179092558481526002909152604090208054806103f0576103f06112e7565b600082815260209020810160001990810180546001600160a01b031916905501905561041f565b6001016102f8565b50505060010161028e565b506001600160a01b038316600090815260016020526040902061044e908383610fed565b5060005b818110156104be5760026000848484818110610470576104706112b0565b602090810292909201358352508181019290925260400160009081208054600180820183559183529290912090910180546001600160a01b0319166001600160a01b03871617905501610452565b50826001600160a01b03167fec753cfc52044f61676f18a11e500093a9f2b1cd5e4942bc476f2b0438159bcf83836040516104fa9291906112fd565b60405180910390a2505050565b6001600160a01b038216600090815260016020908152604080832080548251818502810185019093528083529284929190849083018282801561056957602002820191906000526020600020905b815481526020019060010190808311610555575b5050505050905060005b828110156105af578482828151811061058e5761058e6112b0565b6020026020010151036105a757600193505050506105b7565b600101610573565b506000925050505b92915050565b60008181526002602090815260409182902080548351818402810184019094528084526060939283018282801561061d57602002820191906000526020600020905b81546001600160a01b031681526001909101906020018083116105ff575b50505050509050919050565b610631610ee8565b61063b6000610f1a565b565b7f9016d09d72d40fdae2fd8ceac6b6234c7706214fd39c1cd1e609a0528c199300546001600160a01b031690565b610673610ee8565b6001600160a01b0383166106995760405162461bcd60e51b81526004016101dd90611206565b6001600160a01b038316600090815260016020526040902054156106ff5760405162461bcd60e51b815260206004820152601d60248201527f747275737465642049737375657220616c72656164792065786973747300000060448201526064016101dd565b806107585760405162461bcd60e51b8152602060048201526024808201527f7472757374656420636c61696d20746f706963732063616e6e6f7420626520656044820152636d70747960e01b60648201526084016101dd565b600f8111156107795760405162461bcd60e51b81526004016101dd9061126b565b6000546032116107dc5760405162461bcd60e51b815260206004820152602860248201527f63616e6e6f742068617665206d6f7265207468616e2035302074727573746564604482015267206973737565727360c01b60648201526084016101dd565b60008054600180820183557f290decd9548b62a8d60345a988386fc84ba6bc95484008f6362f93160ef3e56390910180546001600160a01b0319166001600160a01b03871690811790915582526020526040902061083b908383610fed565b5060005b818110156108ab576002600084848481811061085d5761085d6112b0565b602090810292909201358352508181019290925260400160009081208054600180820183559183529290912090910180546001600160a01b0319166001600160a01b0387161790550161083f565b50826001600160a01b03167ffedc33fd34859594822c0ff6f3f4f9fc279cc6d5cae53068f706a088e450087283836040516104fa9291906112fd565b6108ef610ee8565b6001600160a01b0381166109155760405162461bcd60e51b81526004016101dd90611206565b6001600160a01b038116600090815260016020526040812054900361094c5760405162461bcd60e51b81526004016101dd9061123d565b60008054905b81811015610a3f57826001600160a01b031660008281548110610977576109776112b0565b6000918252602090912001546001600160a01b031603610a3757600061099e6001846112c6565b815481106109ae576109ae6112b0565b600091825260208220015481546001600160a01b039091169190839081106109d8576109d86112b0565b6000918252602082200180546001600160a01b0319166001600160a01b039390931692909217909155805480610a1057610a106112e7565b600082815260209020810160001990810180546001600160a01b0319169055019055610a3f565b600101610952565b5060005b6001600160a01b038316600090815260016020526040902054811015610bdf576001600160a01b0383166000908152600160205260408120805483908110610a8d57610a8d6112b0565b600091825260208083209091015480835260029091526040822054909250905b81811015610bd457600083815260026020526040902080546001600160a01b038816919083908110610ae157610ae16112b0565b6000918252602090912001546001600160a01b031603610bcc576000838152600260205260409020610b146001846112c6565b81548110610b2457610b246112b0565b60009182526020808320909101548583526002909152604090912080546001600160a01b039092169183908110610b5d57610b5d6112b0565b600091825260208083209190910180546001600160a01b0319166001600160a01b039490941693909317909255848152600290915260409020805480610ba557610ba56112e7565b600082815260209020810160001990810180546001600160a01b0319169055019055610bd4565b600101610aad565b505050600101610a43565b506001600160a01b0382166000908152600160205260408120610c0191611038565b6040516001600160a01b038316907f2214ded40113cc3fb63fc206cafee88270b0a903dac7245d54efdde30ebb032190600090a25050565b6001600160a01b03811660009081526001602052604081205460609103610ca25760405162461bcd60e51b815260206004820152601c60248201527f747275737465642049737375657220646f65736e27742065786973740000000060448201526064016101dd565b6001600160a01b0382166000908152600160209081526040918290208054835181840281018401909452808452909183018282801561061d57602002820191906000526020600020905b815481526020019060010190808311610cec5750505050509050919050565b60606000805480602002602001604051908101604052809291908181526020018280548015610d6357602002820191906000526020600020905b81546001600160a01b03168152600190910190602001808311610d45575b5050505050905090565b7ff0c57e16840df040f15088dc2f81fe391c3923bec73e23a9662efc9c229c6a008054600160401b810460ff16159067ffffffffffffffff16600081158015610db35750825b905060008267ffffffffffffffff166001148015610dd05750303b155b905081158015610dde575080155b15610dfc5760405163f92ee8a960e01b815260040160405180910390fd5b845467ffffffffffffffff191660011785558315610e2657845460ff60401b1916600160401b1785555b610e2f33610f8b565b8315610e7557845460ff60401b19168555604051600181527fc7f505b2f371ae2175ee4913f4499e1f2633a7b5936321eed1cdaeb6115181d29060200160405180910390a15b5050505050565b6001600160a01b03811660009081526001602052604081205415610ea257506001919050565b506000919050565b610eb2610ee8565b6001600160a01b038116610edc576000604051631e4fbdf760e01b81526004016101dd9190611196565b610ee581610f1a565b50565b33610ef161063d565b6001600160a01b03161461063b573360405163118cdaa760e01b81526004016101dd9190611196565b7f9016d09d72d40fdae2fd8ceac6b6234c7706214fd39c1cd1e609a0528c19930080546001600160a01b031981166001600160a01b03848116918217845560405192169182907f8be0079c531659141344cd1fd0a4f28419497f9722a3daafe3b4186f6b6457e090600090a3505050565b610f93610f9c565b610ee581610fe5565b7ff0c57e16840df040f15088dc2f81fe391c3923bec73e23a9662efc9c229c6a0054600160401b900460ff1661063b57604051631afcd79f60e31b815260040160405180910390fd5b610eb2610f9c565b828054828255906000526020600020908101928215611028579160200282015b8281111561102857823582559160200191906001019061100d565b50611034929150611052565b5090565b5080546000825590600052602060002090810190610ee591905b5b808211156110345760008155600101611053565b6001600160a01b0381168114610ee557600080fd5b60008060006040848603121561109157600080fd5b833561109c81611067565b9250602084013567ffffffffffffffff808211156110b957600080fd5b818601915086601f8301126110cd57600080fd5b8135818111156110dc57600080fd5b8760208260051b85010111156110f157600080fd5b6020830194508093505050509250925092565b6000806040838503121561111757600080fd5b823561112281611067565b946020939093013593505050565b60006020828403121561114257600080fd5b5035919050565b6020808252825182820181905260009190848201906040850190845b8181101561118a5783516001600160a01b031683529284019291840191600101611165565b50909695505050505050565b6001600160a01b0391909116815260200190565b6000602082840312156111bc57600080fd5b81356111c781611067565b9392505050565b6020808252825182820181905260009190848201906040850190845b8181101561118a578351835292840192918401916001016111ea565b6020808252601f908201527f696e76616c696420617267756d656e74202d207a65726f206164647265737300604082015260600190565b6020808252601490820152732727aa1030903a393ab9ba32b21034b9b9bab2b960611b604082015260600190565b60208082526025908201527f63616e6e6f742068617665206d6f7265207468616e20313520636c61696d20746040820152646f7069637360d81b606082015260800190565b634e487b7160e01b600052603260045260246000fd5b818103818111156105b757634e487b7160e01b600052601160045260246000fd5b634e487b7160e01b600052603160045260246000fd5b6020808252810182905260006001600160fb1b0383111561131d57600080fd5b8260051b8085604085013791909101604001939250505056fea2646970667358221220548ffdbdf1dc93c82572aff8da08aedd819e73ed47d5de7b9f82e57886026e2a64736f6c63430008180033",
  "linkReferences": {},
  "deployedLinkReferences": {}
}