{
  "_format": "hh-sol-artifact-1",
  "contractName": "VaultToken",
  "sourceName": "contracts/erc4626/VaultToken.sol",
  "abi": [
    {
      "inputs": [],
      "stateMutability": "nonpayable",
      "type": "constructor"
    },
    {
      "anonymous": false,
      "inputs": [
        {
          "indexed": true,
          "internalType": "address",
          "name": "owner",
          "type": "address"
        },
        {
          "indexed": true,
          "internalType": "address",
          "name": "spender",
          "type": "address"
        },
        {
          "indexed": false,
          "internalType": "uint256",
          "name": "amount",
          "type": "uint256"
        }
      ],
      "name": "Approval",
      "type": "event"
    },
    {
      "anonymous": false,
      "inputs": [
        {
          "indexed": true,
          "internalType": "address",
          "name": "from",
          "type": "address"
        },
        {
          "indexed": true,
          "internalType": "address",
          "name": "to",
          "type": "address"
        },
        {
          "indexed": false,
          "internalType": "uint256",
          "name": "amount",
          "type": "uint256"
        }
      ],
      "name": "Transfer",
      "type": "event"
    },
    {
      "inputs": [],
      "name": "DOMAIN_SEPARATOR",
      "outputs": [
        {
          "internalType": "bytes32",
          "name": "",
          "type": "bytes32"
        }
      ],
      "stateMutability": "view",
      "type": "function"
    },
    {
      "inputs": [
        {
          "internalType": "address",
          "name": "",
          "type": "address"
        },
        {
          "internalType": "address",
          "name": "",
          "type": "address"
        }
      ],
      "name": "allowance",
      "outputs": [
        {
          "internalType": "uint256",
          "name": "",
          "type": "uint256"
        }
      ],
      "stateMutability": "view",
      "type": "function"
    },
    {
      "inputs": [
        {
          "internalType": "address",
          "name": "spender",
          "type": "address"
        },
        {
          "internalType": "uint256",
          "name": "amount",
          "type": "uint256"
        }
      ],
      "name": "approve",
      "outputs": [
        {
          "internalType": "bool",
          "name": "",
          "type": "bool"
        }
      ],
      "stateMutability": "nonpayable",
      "type": "function"
    },
    {
      "inputs": [
        {
          "internalType": "address",
          "name": "",
          "type": "address"
        }
      ],
      "name": "balanceOf",
      "outputs": [
        {
          "internalType": "uint256",
          "name": "",
          "type": "uint256"
        }
      ],
      "stateMutability": "view",
      "type": "function"
    },
    {
      "inputs": [
        {
          "internalType": "address",
          "name": "from",
          "type": "address"
        },
        {
          "internalType": "uint256",
          "name": "amount",
          "type": "uint256"
        }
      ],
      "name": "burnFrom",
      "outputs": [],
      "stateMutability": "nonpayable",
      "type": "function"
    },
    {
      "inputs": [],
      "name": "decimals",
      "outputs": [
        {
          "internalType": "uint8",
          "name": "",
          "type": "uint8"
        }
      ],
      "stateMutability": "view",
      "type": "function"
    },
    {
      "inputs": [
        {
          "internalType": "address",
          "name": "to",
          "type": "address"
        },
        {
          "internalType": "uint256",
          "name": "amount",
          "type": "uint256"
        }
      ],
      "name": "mint",
      "outputs": [],
      "stateMutability": "nonpayable",
      "type": "function"
    },
    {
      "inputs": [],
      "name": "name",
      "outputs": [
        {
          "internalType": "string",
          "name": "",
          "type": "string"
        }
      ],
      "stateMutability": "view",
      "type": "function"
    },
    {
      "inputs": [
        {
          "internalType": "address",
          "name": "",
          "type": "address"
        }
      ],
      "name": "nonces",
      "outputs": [
        {
          "internalType": "uint256",
          "name": "",
          "type": "uint256"
        }
      ],
      "stateMutability": "view",
      "type": "function"
    },
    {
      "inputs": [
        {
          "internalType": "address",
          "name": "owner",
          "type": "address"
        },
        {
          "internalType": "address",
          "name": "spender",
          "type": "address"
        },
        {
          "internalType": "uint256",
          "name": "value",
          "type": "uint256"
        },
        {
          "internalType": "uint256",
          "name": "deadline",
          "type": "uint256"
        },
        {
          "internalType": "uint8",
          "name": "v",
          "type": "uint8"
        },
        {
          "internalType": "bytes32",
          "name": "r",
          "type": "bytes32"
        },
        {
          "internalType": "bytes32",
          "name": "s",
          "type": "bytes32"
        }
      ],
      "name": "permit",
      "outputs": [],
      "stateMutability": "nonpayable",
      "type": "function"
    },
    {
      "inputs": [],
      "name": "symbol",
      "outputs": [
        {
          "internalType": "string",
          "name": "",
          "type": "string"
        }
      ],
      "stateMutability": "view",
      "type": "function"
    },
    {
      "inputs": [],
      "name": "totalSupply",
      "outputs": [
        {
          "internalType": "uint256",
          "name": "",
          "type": "uint256"
        }
      ],
      "stateMutability": "view",
      "type": "function"
    },
    {
      "inputs": [
        {
          "internalType": "address",
          "name": "to",
          "type": "address"
        },
        {
          "internalType": "uint256",
          "name": "amount",
          "type": "uint256"
        }
      ],
      "name": "transfer",
      "outputs": [
        {
          "internalType": "bool",
          "name": "",
          "type": "bool"
        }
      ],
      "stateMutability": "nonpayable",
      "type": "function"
    },
    {
      "inputs": [
        {
          "internalType": "address",
          "name": "from",
          "type": "address"
        },
        {
          "internalType": "address",
          "name": "to",
          "type": "address"
        },
        {
          "internalType": "uint256",
          "name": "amount",
          "type": "uint256"
        }
      ],
      "name": "transferFrom",
      "outputs": [
        {
          "internalType": "bool",
          "name": "",
          "type": "bool"
        }
      ],
      "stateMutability": "nonpayable",
      "type": "function"
    }
  ],
  "bytecode": "0x60e06040523480156200001157600080fd5b506040518060400160405280600a8152602001692b30bab63a2a37b5b2b760b11b8152506040518060400160405280600381526020016215931560ea1b815250600882600090816200006491906200025f565b5060016200007383826200025f565b5060ff81166080524660a05262000089620000af565b60c05250620000a991503390506b019d971e4fe8401e740000006200014b565b620003d1565b60007f8b73c3c69bb8fe3d512ecc4cf759cc79239f7b179b0ffacaa9a75d522b39400f6000604051620000e391906200032b565b6040805191829003822060208301939093528101919091527fc89efdaa54c0f20c7adf612882df0950f5a951637e0307cdcb4c672f298b8bc660608201524660808201523060a082015260c00160405160208183030381529060405280519060200120905090565b80600260008282546200015f9190620003a9565b90915550506001600160a01b0382166000818152600360209081526040808320805486019055518481527fddf252ad1be2c89b69c2b068fc378daa952ba7f163c4a11628f55a4df523b3ef910160405180910390a35050565b634e487b7160e01b600052604160045260246000fd5b600181811c90821680620001e357607f821691505b6020821081036200020457634e487b7160e01b600052602260045260246000fd5b50919050565b601f8211156200025a576000816000526020600020601f850160051c81016020861015620002355750805b601f850160051c820191505b81811015620002565782815560010162000241565b5050505b505050565b81516001600160401b038111156200027b576200027b620001b8565b62000293816200028c8454620001ce565b846200020a565b602080601f831160018114620002cb5760008415620002b25750858301515b600019600386901b1c1916600185901b17855562000256565b600085815260208120601f198616915b82811015620002fc57888601518255948401946001909101908401620002db565b50858210156200031b5787850151600019600388901b60f8161c191681555b5050505050600190811b01905550565b60008083546200033b81620001ce565b600182811680156200035657600181146200036c576200039d565b60ff19841687528215158302870194506200039d565b8760005260208060002060005b85811015620003945781548a82015290840190820162000379565b50505082870194505b50929695505050505050565b80820180821115620003cb57634e487b7160e01b600052601160045260246000fd5b92915050565b60805160a05160c051610c9d6200040160003960006104500152600061041b0152600061013f0152610c9d6000f3fe608060405234801561001057600080fd5b50600436106100ca5760003560e01c806370a082311161007c57806370a082311461019057806379cc6790146101b05780637ecebe00146101c357806395d89b41146101e3578063a9059cbb146101eb578063d505accf146101fe578063dd62ed3e1461021157600080fd5b806306fdde03146100cf578063095ea7b3146100ed57806318160ddd1461011057806323b872dd14610127578063313ce5671461013a5780633644e5151461017357806340c10f191461017b575b600080fd5b6100d761023c565b6040516100e4919061096c565b60405180910390f35b6101006100fb3660046109d7565b6102ca565b60405190151581526020016100e4565b61011960025481565b6040519081526020016100e4565b610100610135366004610a01565b610337565b6101617f000000000000000000000000000000000000000000000000000000000000000081565b60405160ff90911681526020016100e4565b610119610417565b61018e6101893660046109d7565b610472565b005b61011961019e366004610a3d565b60036020526000908152604090205481565b61018e6101be3660046109d7565b6104f1565b6101196101d1366004610a3d565b60056020526000908152604090205481565b6100d7610565565b6101006101f93660046109d7565b610572565b61018e61020c366004610a5f565b6105d8565b61011961021f366004610ad2565b600460209081526000928352604080842090915290825290205481565b6000805461024990610b05565b80601f016020809104026020016040519081016040528092919081815260200182805461027590610b05565b80156102c25780601f10610297576101008083540402835291602001916102c2565b820191906000526020600020905b8154815290600101906020018083116102a557829003601f168201915b505050505081565b3360008181526004602090815260408083206001600160a01b038716808552925280832085905551919290917f8c5be1e5ebec7d5bd14f71427d1e84f3dd0314c0f7b2291e5b200ac8c7c3b925906103259086815260200190565b60405180910390a35060015b92915050565b6001600160a01b038316600090815260046020908152604080832033845290915281205460001981146103935761036e8382610b55565b6001600160a01b03861660009081526004602090815260408083203384529091529020555b6001600160a01b038516600090815260036020526040812080548592906103bb908490610b55565b90915550506001600160a01b0380851660008181526003602052604090819020805487019055519091871690600080516020610c48833981519152906104049087815260200190565b60405180910390a3506001949350505050565b60007f0000000000000000000000000000000000000000000000000000000000000000461461044d57610448610816565b905090565b507f000000000000000000000000000000000000000000000000000000000000000090565b8060000361049b5760405162461bcd60e51b815260040161049290610b68565b60405180910390fd5b6001600160a01b0382166104e35760405162461bcd60e51b815260206004820152600f60248201526e5a65726f20746f206164647265737360881b6044820152606401610492565b6104ed82826108b0565b5050565b806000036105115760405162461bcd60e51b815260040161049290610b68565b6001600160a01b03821661055b5760405162461bcd60e51b81526020600482015260116024820152705a65726f2066726f6d206164647265737360781b6044820152606401610492565b6104ed828261090a565b6001805461024990610b05565b33600090815260036020526040812080548391908390610593908490610b55565b90915550506001600160a01b03831660008181526003602052604090819020805485019055513390600080516020610c48833981519152906103259086815260200190565b428410156106225760405162461bcd60e51b815260206004820152601760248201527614115493525517d11150511312539157d1561412549151604a1b6044820152606401610492565b6000600161062e610417565b6001600160a01b038a811660008181526005602090815260409182902080546001810190915582517f6e71edae12b1b97f4d1f60370fef10105fa2faae0126114a169c64845d6126c98184015280840194909452938d166060840152608083018c905260a083019390935260c08083018b90528151808403909101815260e08301909152805192019190912061190160f01b6101008301526101028201929092526101228101919091526101420160408051601f198184030181528282528051602091820120600084529083018083525260ff871690820152606081018590526080810184905260a0016020604051602081039080840390855afa15801561073a573d6000803e3d6000fd5b5050604051601f1901519150506001600160a01b038116158015906107705750876001600160a01b0316816001600160a01b0316145b6107ad5760405162461bcd60e51b815260206004820152600e60248201526d24a72b20a624a22fa9a4a3a722a960911b6044820152606401610492565b6001600160a01b0390811660009081526004602090815260408083208a8516808552908352928190208990555188815291928a16917f8c5be1e5ebec7d5bd14f71427d1e84f3dd0314c0f7b2291e5b200ac8c7c3b925910160405180910390a350505050505050565b60007f8b73c3c69bb8fe3d512ecc4cf759cc79239f7b179b0ffacaa9a75d522b39400f60006040516108489190610b93565b6040805191829003822060208301939093528101919091527fc89efdaa54c0f20c7adf612882df0950f5a951637e0307cdcb4c672f298b8bc660608201524660808201523060a082015260c00160405160208183030381529060405280519060200120905090565b80600260008282546108c29190610c34565b90915550506001600160a01b038216600081815260036020908152604080832080548601905551848152600080516020610c4883398151915291015b60405180910390a35050565b6001600160a01b03821660009081526003602052604081208054839290610932908490610b55565b90915550506002805482900390556040518181526000906001600160a01b03841690600080516020610c48833981519152906020016108fe565b60006020808352835180602085015260005b8181101561099a5785810183015185820160400152820161097e565b506000604082860101526040601f19601f8301168501019250505092915050565b80356001600160a01b03811681146109d257600080fd5b919050565b600080604083850312156109ea57600080fd5b6109f3836109bb565b946020939093013593505050565b600080600060608486031215610a1657600080fd5b610a1f846109bb565b9250610a2d602085016109bb565b9150604084013590509250925092565b600060208284031215610a4f57600080fd5b610a58826109bb565b9392505050565b600080600080600080600060e0888a031215610a7a57600080fd5b610a83886109bb565b9650610a91602089016109bb565b95506040880135945060608801359350608088013560ff81168114610ab557600080fd5b9699959850939692959460a0840135945060c09093013592915050565b60008060408385031215610ae557600080fd5b610aee836109bb565b9150610afc602084016109bb565b90509250929050565b600181811c90821680610b1957607f821691505b602082108103610b3957634e487b7160e01b600052602260045260246000fd5b50919050565b634e487b7160e01b600052601160045260246000fd5b8181038181111561033157610331610b3f565b60208082526011908201527016995c9bc81d1bdad95b88185b5bdd5b9d607a1b604082015260600190565b60008083548160018260011c91506001831680610bb157607f831692505b60208084108203610bd057634e487b7160e01b86526022600452602486fd5b818015610be45760018114610bf957610c26565b60ff1986168952841515850289019650610c26565b60008a81526020902060005b86811015610c1e5781548b820152908501908301610c05565b505084890196505b509498975050505050505050565b8082018082111561033157610331610b3f56feddf252ad1be2c89b69c2b068fc378daa952ba7f163c4a11628f55a4df523b3efa2646970667358221220347a9699adecba54c3b0056a72827f50b873ca171e772f4260b36ae15cf3150b64736f6c63430008180033",
  "linkReferences": {},
  "deployedLinkReferences": {}
}