{
  "_format": "hh-sol-artifact-1",
  "contractName": "VaultToken",
  "sourceName": "contracts/erc4626/VaultToken.sol",
  "abi": [
    {
      "inputs": [
        {
          "internalType": "uint8",
          "name": "decimals",
          "type": "uint8"
        }
      ],
      "stateMutability": "nonpayable",
      "type": "constructor"
    },
    {
      "anonymous": false,
      "inputs": [
        {
          "indexed": true,
          "internalType": "address",
          "name": "owner",
          "type": "address"
        },
        {
          "indexed": true,
          "internalType": "address",
          "name": "spender",
          "type": "address"
        },
        {
          "indexed": false,
          "internalType": "uint256",
          "name": "amount",
          "type": "uint256"
        }
      ],
      "name": "Approval",
      "type": "event"
    },
    {
      "anonymous": false,
      "inputs": [
        {
          "indexed": true,
          "internalType": "address",
          "name": "from",
          "type": "address"
        },
        {
          "indexed": true,
          "internalType": "address",
          "name": "to",
          "type": "address"
        },
        {
          "indexed": false,
          "internalType": "uint256",
          "name": "amount",
          "type": "uint256"
        }
      ],
      "name": "Transfer",
      "type": "event"
    },
    {
      "inputs": [],
      "name": "DOMAIN_SEPARATOR",
      "outputs": [
        {
          "internalType": "bytes32",
          "name": "",
          "type": "bytes32"
        }
      ],
      "stateMutability": "view",
      "type": "function"
    },
    {
      "inputs": [
        {
          "internalType": "address",
          "name": "",
          "type": "address"
        },
        {
          "internalType": "address",
          "name": "",
          "type": "address"
        }
      ],
      "name": "allowance",
      "outputs": [
        {
          "internalType": "uint256",
          "name": "",
          "type": "uint256"
        }
      ],
      "stateMutability": "view",
      "type": "function"
    },
    {
      "inputs": [
        {
          "internalType": "address",
          "name": "spender",
          "type": "address"
        },
        {
          "internalType": "uint256",
          "name": "amount",
          "type": "uint256"
        }
      ],
      "name": "approve",
      "outputs": [
        {
          "internalType": "bool",
          "name": "",
          "type": "bool"
        }
      ],
      "stateMutability": "nonpayable",
      "type": "function"
    },
    {
      "inputs": [
        {
          "internalType": "address",
          "name": "",
          "type": "address"
        }
      ],
      "name": "balanceOf",
      "outputs": [
        {
          "internalType": "uint256",
          "name": "",
          "type": "uint256"
        }
      ],
      "stateMutability": "view",
      "type": "function"
    },
    {
      "inputs": [
        {
          "internalType": "address",
          "name": "from",
          "type": "address"
        },
        {
          "internalType": "uint256",
          "name": "amount",
          "type": "uint256"
        }
      ],
      "name": "burnFrom",
      "outputs": [],
      "stateMutability": "nonpayable",
      "type": "function"
    },
    {
      "inputs": [],
      "name": "decimals",
      "outputs": [
        {
          "internalType": "uint8",
          "name": "",
          "type": "uint8"
        }
      ],
      "stateMutability": "view",
      "type": "function"
    },
    {
      "inputs": [
        {
          "internalType": "address",
          "name": "to",
          "type": "address"
        },
        {
          "internalType": "uint256",
          "name": "amount",
          "type": "uint256"
        }
      ],
      "name": "mint",
      "outputs": [],
      "stateMutability": "nonpayable",
      "type": "function"
    },
    {
      "inputs": [],
      "name": "name",
      "outputs": [
        {
          "internalType": "string",
          "name": "",
          "type": "string"
        }
      ],
      "stateMutability": "view",
      "type": "function"
    },
    {
      "inputs": [
        {
          "internalType": "address",
          "name": "",
          "type": "address"
        }
      ],
      "name": "nonces",
      "outputs": [
        {
          "internalType": "uint256",
          "name": "",
          "type": "uint256"
        }
      ],
      "stateMutability": "view",
      "type": "function"
    },
    {
      "inputs": [
        {
          "internalType": "address",
          "name": "owner",
          "type": "address"
        },
        {
          "internalType": "address",
          "name": "spender",
          "type": "address"
        },
        {
          "internalType": "uint256",
          "name": "value",
          "type": "uint256"
        },
        {
          "internalType": "uint256",
          "name": "deadline",
          "type": "uint256"
        },
        {
          "internalType": "uint8",
          "name": "v",
          "type": "uint8"
        },
        {
          "internalType": "bytes32",
          "name": "r",
          "type": "bytes32"
        },
        {
          "internalType": "bytes32",
          "name": "s",
          "type": "bytes32"
        }
      ],
      "name": "permit",
      "outputs": [],
      "stateMutability": "nonpayable",
      "type": "function"
    },
    {
      "inputs": [],
      "name": "symbol",
      "outputs": [
        {
          "internalType": "string",
          "name": "",
          "type": "string"
        }
      ],
      "stateMutability": "view",
      "type": "function"
    },
    {
      "inputs": [],
      "name": "totalSupply",
      "outputs": [
        {
          "internalType": "uint256",
          "name": "",
          "type": "uint256"
        }
      ],
      "stateMutability": "view",
      "type": "function"
    },
    {
      "inputs": [
        {
          "internalType": "address",
          "name": "to",
          "type": "address"
        },
        {
          "internalType": "uint256",
          "name": "amount",
          "type": "uint256"
        }
      ],
      "name": "transfer",
      "outputs": [
        {
          "internalType": "bool",
          "name": "",
          "type": "bool"
        }
      ],
      "stateMutability": "nonpayable",
      "type": "function"
    },
    {
      "inputs": [
        {
          "internalType": "address",
          "name": "from",
          "type": "address"
        },
        {
          "internalType": "address",
          "name": "to",
          "type": "address"
        },
        {
          "internalType": "uint256",
          "name": "amount",
          "type": "uint256"
        }
      ],
      "name": "transferFrom",
      "outputs": [
        {
          "internalType": "bool",
          "name": "",
          "type": "bool"
        }
      ],
      "stateMutability": "nonpayable",
      "type": "function"
    }
  ],
  "bytecode": "0x60e06040523480156200001157600080fd5b50604051620010e7380380620010e78339810160408190526200003491620001da565b6040518060400160405280600a8152602001692b30bab63a2a37b5b2b760b11b8152506040518060400160405280600381526020016215931560ea1b815250828260009081620000859190620002ad565b506001620000948382620002ad565b5060ff81166080524660a052620000aa620000d1565b60c05250620000ca91503390506b019d971e4fe8401e740000006200016d565b506200041f565b60007f8b73c3c69bb8fe3d512ecc4cf759cc79239f7b179b0ffacaa9a75d522b39400f600060405162000105919062000379565b6040805191829003822060208301939093528101919091527fc89efdaa54c0f20c7adf612882df0950f5a951637e0307cdcb4c672f298b8bc660608201524660808201523060a082015260c00160405160208183030381529060405280519060200120905090565b8060026000828254620001819190620003f7565b90915550506001600160a01b0382166000818152600360209081526040808320805486019055518481527fddf252ad1be2c89b69c2b068fc378daa952ba7f163c4a11628f55a4df523b3ef910160405180910390a35050565b600060208284031215620001ed57600080fd5b815160ff81168114620001ff57600080fd5b9392505050565b634e487b7160e01b600052604160045260246000fd5b600181811c908216806200023157607f821691505b6020821081036200025257634e487b7160e01b600052602260045260246000fd5b50919050565b601f821115620002a8576000816000526020600020601f850160051c81016020861015620002835750805b601f850160051c820191505b81811015620002a4578281556001016200028f565b5050505b505050565b81516001600160401b03811115620002c957620002c962000206565b620002e181620002da84546200021c565b8462000258565b602080601f831160018114620003195760008415620003005750858301515b600019600386901b1c1916600185901b178555620002a4565b600085815260208120601f198616915b828110156200034a5788860151825594840194600190910190840162000329565b5085821015620003695787850151600019600388901b60f8161c191681555b5050505050600190811b01905550565b600080835462000389816200021c565b60018281168015620003a45760018114620003ba57620003eb565b60ff1984168752821515830287019450620003eb565b8760005260208060002060005b85811015620003e25781548a820152908401908201620003c7565b50505082870194505b50929695505050505050565b808201808211156200041957634e487b7160e01b600052601160045260246000fd5b92915050565b60805160a05160c051610c986200044f600039600061044b015260006104160152600061013a0152610c986000f3fe608060405234801561001057600080fd5b50600436106100ca5760003560e01c806370a082311161007c57806370a082311461018b57806379cc6790146101ab5780637ecebe00146101be57806395d89b41146101de578063a9059cbb146101e6578063d505accf146101f9578063dd62ed3e1461020c57600080fd5b806306fdde03146100cf578063095ea7b3146100ed57806318160ddd1461011057806323b872dd14610122578063313ce567146101355780633644e5151461016e57806340c10f1914610176575b600080fd5b6100d7610237565b6040516100e49190610967565b60405180910390f35b6101006100fb3660046109d2565b6102c5565b60405190151581526020016100e4565b6002545b6040519081526020016100e4565b6101006101303660046109fc565b610332565b61015c7f000000000000000000000000000000000000000000000000000000000000000081565b60405160ff90911681526020016100e4565b610114610412565b6101896101843660046109d2565b61046d565b005b610114610199366004610a38565b60036020526000908152604090205481565b6101896101b93660046109d2565b6104ec565b6101146101cc366004610a38565b60056020526000908152604090205481565b6100d7610560565b6101006101f43660046109d2565b61056d565b610189610207366004610a5a565b6105d3565b61011461021a366004610acd565b600460209081526000928352604080842090915290825290205481565b6000805461024490610b00565b80601f016020809104026020016040519081016040528092919081815260200182805461027090610b00565b80156102bd5780601f10610292576101008083540402835291602001916102bd565b820191906000526020600020905b8154815290600101906020018083116102a057829003601f168201915b505050505081565b3360008181526004602090815260408083206001600160a01b038716808552925280832085905551919290917f8c5be1e5ebec7d5bd14f71427d1e84f3dd0314c0f7b2291e5b200ac8c7c3b925906103209086815260200190565b60405180910390a35060015b92915050565b6001600160a01b0383166000908152600460209081526040808320338452909152812054600019811461038e576103698382610b50565b6001600160a01b03861660009081526004602090815260408083203384529091529020555b6001600160a01b038516600090815260036020526040812080548592906103b6908490610b50565b90915550506001600160a01b0380851660008181526003602052604090819020805487019055519091871690600080516020610c43833981519152906103ff9087815260200190565b60405180910390a3506001949350505050565b60007f0000000000000000000000000000000000000000000000000000000000000000461461044857610443610811565b905090565b507f000000000000000000000000000000000000000000000000000000000000000090565b806000036104965760405162461bcd60e51b815260040161048d90610b63565b60405180910390fd5b6001600160a01b0382166104de5760405162461bcd60e51b815260206004820152600f60248201526e5a65726f20746f206164647265737360881b604482015260640161048d565b6104e882826108ab565b5050565b8060000361050c5760405162461bcd60e51b815260040161048d90610b63565b6001600160a01b0382166105565760405162461bcd60e51b81526020600482015260116024820152705a65726f2066726f6d206164647265737360781b604482015260640161048d565b6104e88282610905565b6001805461024490610b00565b3360009081526003602052604081208054839190839061058e908490610b50565b90915550506001600160a01b03831660008181526003602052604090819020805485019055513390600080516020610c43833981519152906103209086815260200190565b4284101561061d5760405162461bcd60e51b815260206004820152601760248201527614115493525517d11150511312539157d1561412549151604a1b604482015260640161048d565b60006001610629610412565b6001600160a01b038a811660008181526005602090815260409182902080546001810190915582517f6e71edae12b1b97f4d1f60370fef10105fa2faae0126114a169c64845d6126c98184015280840194909452938d166060840152608083018c905260a083019390935260c08083018b90528151808403909101815260e08301909152805192019190912061190160f01b6101008301526101028201929092526101228101919091526101420160408051601f198184030181528282528051602091820120600084529083018083525260ff871690820152606081018590526080810184905260a0016020604051602081039080840390855afa158015610735573d6000803e3d6000fd5b5050604051601f1901519150506001600160a01b0381161580159061076b5750876001600160a01b0316816001600160a01b0316145b6107a85760405162461bcd60e51b815260206004820152600e60248201526d24a72b20a624a22fa9a4a3a722a960911b604482015260640161048d565b6001600160a01b0390811660009081526004602090815260408083208a8516808552908352928190208990555188815291928a16917f8c5be1e5ebec7d5bd14f71427d1e84f3dd0314c0f7b2291e5b200ac8c7c3b925910160405180910390a350505050505050565b60007f8b73c3c69bb8fe3d512ecc4cf759cc79239f7b179b0ffacaa9a75d522b39400f60006040516108439190610b8e565b6040805191829003822060208301939093528101919091527fc89efdaa54c0f20c7adf612882df0950f5a951637e0307cdcb4c672f298b8bc660608201524660808201523060a082015260c00160405160208183030381529060405280519060200120905090565b80600260008282546108bd9190610c2f565b90915550506001600160a01b038216600081815260036020908152604080832080548601905551848152600080516020610c4383398151915291015b60405180910390a35050565b6001600160a01b0382166000908152600360205260408120805483929061092d908490610b50565b90915550506002805482900390556040518181526000906001600160a01b03841690600080516020610c43833981519152906020016108f9565b60006020808352835180602085015260005b8181101561099557858101830151858201604001528201610979565b506000604082860101526040601f19601f8301168501019250505092915050565b80356001600160a01b03811681146109cd57600080fd5b919050565b600080604083850312156109e557600080fd5b6109ee836109b6565b946020939093013593505050565b600080600060608486031215610a1157600080fd5b610a1a846109b6565b9250610a28602085016109b6565b9150604084013590509250925092565b600060208284031215610a4a57600080fd5b610a53826109b6565b9392505050565b600080600080600080600060e0888a031215610a7557600080fd5b610a7e886109b6565b9650610a8c602089016109b6565b95506040880135945060608801359350608088013560ff81168114610ab057600080fd5b9699959850939692959460a0840135945060c09093013592915050565b60008060408385031215610ae057600080fd5b610ae9836109b6565b9150610af7602084016109b6565b90509250929050565b600181811c90821680610b1457607f821691505b602082108103610b3457634e487b7160e01b600052602260045260246000fd5b50919050565b634e487b7160e01b600052601160045260246000fd5b8181038181111561032c5761032c610b3a565b60208082526011908201527016995c9bc81d1bdad95b88185b5bdd5b9d607a1b604082015260600190565b60008083548160018260011c91506001831680610bac57607f831692505b60208084108203610bcb57634e487b7160e01b86526022600452602486fd5b818015610bdf5760018114610bf457610c21565b60ff1986168952841515850289019650610c21565b60008a81526020902060005b86811015610c195781548b820152908501908301610c00565b505084890196505b509498975050505050505050565b8082018082111561032c5761032c610b3a56feddf252ad1be2c89b69c2b068fc378daa952ba7f163c4a11628f55a4df523b3efa2646970667358221220a49e3ba3d46f6888a72fcfddd29580541871958d6f297da5ab9493c02e564e5864736f6c63430008180033",
  "linkReferences": {},
  "deployedLinkReferences": {}
}