{
  "_format": "hh-sol-artifact-1",
  "contractName": "VaultMock",
  "sourceName": "contracts/treasury/VaultMock.sol",
  "abi": [
    {
      "inputs": [
        {
          "internalType": "address",
          "name": "_usdcAddress",
          "type": "address"
        }
      ],
      "stateMutability": "nonpayable",
      "type": "constructor"
    },
    {
      "inputs": [
        {
          "internalType": "address",
          "name": "target",
          "type": "address"
        }
      ],
      "name": "AddressEmptyCode",
      "type": "error"
    },
    {
      "inputs": [
        {
          "internalType": "address",
          "name": "account",
          "type": "address"
        }
      ],
      "name": "AddressInsufficientBalance",
      "type": "error"
    },
    {
      "inputs": [],
      "name": "FailedInnerCall",
      "type": "error"
    },
    {
      "inputs": [
        {
          "internalType": "address",
          "name": "token",
          "type": "address"
        }
      ],
      "name": "SafeERC20FailedOperation",
      "type": "error"
    },
    {
      "inputs": [
        {
          "internalType": "uint256",
          "name": "amount",
          "type": "uint256"
        }
      ],
      "name": "deposit",
      "outputs": [],
      "stateMutability": "nonpayable",
      "type": "function"
    },
    {
      "inputs": [],
      "name": "totalDeposits",
      "outputs": [
        {
          "internalType": "uint256",
          "name": "",
          "type": "uint256"
        }
      ],
      "stateMutability": "view",
      "type": "function"
    },
    {
      "inputs": [],
      "name": "usdc",
      "outputs": [
        {
          "internalType": "contract IERC20",
          "name": "",
          "type": "address"
        }
      ],
      "stateMutability": "view",
      "type": "function"
    }
  ],
  "bytecode": "0x608060405234801561001057600080fd5b5060405161042f38038061042f83398101604081905261002f91610054565b600080546001600160a01b0319166001600160a01b0392909216919091179055610084565b60006020828403121561006657600080fd5b81516001600160a01b038116811461007d57600080fd5b9392505050565b61039c806100936000396000f3fe608060405234801561001057600080fd5b50600436106100415760003560e01c80633e413bee146100465780637d8820971461006f578063b6b55f2514610086575b600080fd5b600054610059906001600160a01b031681565b60405161006691906102c7565b60405180910390f35b61007860015481565b604051908152602001610066565b6100996100943660046102db565b61009b565b005b6000546100b3906001600160a01b03163330846100cd565b80600160008282546100c591906102f4565b909155505050565b604080516001600160a01b0385811660248301528416604482015260648082018490528251808303909101815260849091019091526020810180516001600160e01b03166323b872dd60e01b17905261012790859061012d565b50505050565b60006101426001600160a01b03841683610195565b905080516000141580156101675750808060200190518101906101659190610315565b155b156101905782604051635274afe760e01b815260040161018791906102c7565b60405180910390fd5b505050565b60606101a3838360006101ac565b90505b92915050565b6060814710156101d1573060405163cd78605960e01b815260040161018791906102c7565b600080856001600160a01b031684866040516101ed9190610337565b60006040518083038185875af1925050503d806000811461022a576040519150601f19603f3d011682016040523d82523d6000602084013e61022f565b606091505b509150915061023f86838361024b565b925050505b9392505050565b6060826102605761025b8261029e565b610244565b815115801561027757506001600160a01b0384163b155b156102975783604051639996b31560e01b815260040161018791906102c7565b5080610244565b8051156102ae5780518082602001fd5b604051630a12f52160e11b815260040160405180910390fd5b6001600160a01b0391909116815260200190565b6000602082840312156102ed57600080fd5b5035919050565b808201808211156101a657634e487b7160e01b600052601160045260246000fd5b60006020828403121561032757600080fd5b8151801515811461024457600080fd5b6000825160005b81811015610358576020818601810151858301520161033e565b50600092019182525091905056fea264697066735822122027fce920e18176ba4a9aac2ac6dcda032c40b8c881f9616603f056af74aaad8264736f6c63430008180033",
  "linkReferences": {},
  "deployedLinkReferences": {}
}