{
  "_format": "hh-sol-artifact-1",
  "contractName": "VaultFactory",
  "sourceName": "contracts/erc4626/factory/VaultFactory.sol",
  "abi": [
    {
      "inputs": [],
      "stateMutability": "nonpayable",
      "type": "constructor"
    },
    {
      "inputs": [
        {
          "internalType": "address",
          "name": "owner",
          "type": "address"
        }
      ],
      "name": "OwnableInvalidOwner",
      "type": "error"
    },
    {
      "inputs": [
        {
          "internalType": "address",
          "name": "account",
          "type": "address"
        }
      ],
      "name": "OwnableUnauthorizedAccount",
      "type": "error"
    },
    {
      "anonymous": false,
      "inputs": [
        {
          "indexed": true,
          "internalType": "address",
          "name": "previousOwner",
          "type": "address"
        },
        {
          "indexed": true,
          "internalType": "address",
          "name": "newOwner",
          "type": "address"
        }
      ],
      "name": "OwnershipTransferred",
      "type": "event"
    },
    {
      "anonymous": false,
      "inputs": [
        {
          "indexed": true,
          "internalType": "address",
          "name": "vault",
          "type": "address"
        },
        {
          "indexed": true,
          "internalType": "address",
          "name": "asset",
          "type": "address"
        },
        {
          "indexed": false,
          "internalType": "string",
          "name": "name",
          "type": "string"
        },
        {
          "indexed": false,
          "internalType": "string",
          "name": "symbol",
          "type": "string"
        }
      ],
      "name": "VaultDeployed",
      "type": "event"
    },
    {
      "inputs": [
        {
          "internalType": "string",
          "name": "salt",
          "type": "string"
        },
        {
          "components": [
            {
              "internalType": "address",
              "name": "stakingToken",
              "type": "address"
            },
            {
              "internalType": "string",
              "name": "shareTokenName",
              "type": "string"
            },
            {
              "internalType": "string",
              "name": "shareTokenSymbol",
              "type": "string"
            },
            {
              "internalType": "address",
              "name": "vaultRewardController",
              "type": "address"
            },
            {
              "internalType": "address",
              "name": "feeConfigController",
              "type": "address"
            }
          ],
          "internalType": "struct IVaultFactory.VaultDetails",
          "name": "vaultDetails",
          "type": "tuple"
        },
        {
          "components": [
            {
              "internalType": "address",
              "name": "receiver",
              "type": "address"
            },
            {
              "internalType": "address",
              "name": "token",
              "type": "address"
            },
            {
              "internalType": "uint256",
              "name": "feePercentage",
              "type": "uint256"
            }
          ],
          "internalType": "struct FeeConfiguration.FeeConfig",
          "name": "feeConfig",
          "type": "tuple"
        }
      ],
      "name": "deployVault",
      "outputs": [
        {
          "internalType": "address",
          "name": "vault",
          "type": "address"
        }
      ],
      "stateMutability": "payable",
      "type": "function"
    },
    {
      "inputs": [],
      "name": "owner",
      "outputs": [
        {
          "internalType": "address",
          "name": "",
          "type": "address"
        }
      ],
      "stateMutability": "view",
      "type": "function"
    },
    {
      "inputs": [],
      "name": "renounceOwnership",
      "outputs": [],
      "stateMutability": "nonpayable",
      "type": "function"
    },
    {
      "inputs": [
        {
          "internalType": "bytes4",
          "name": "interfaceId",
          "type": "bytes4"
        }
      ],
      "name": "supportsInterface",
      "outputs": [
        {
          "internalType": "bool",
          "name": "",
          "type": "bool"
        }
      ],
      "stateMutability": "view",
      "type": "function"
    },
    {
      "inputs": [
        {
          "internalType": "address",
          "name": "newOwner",
          "type": "address"
        }
      ],
      "name": "transferOwnership",
      "outputs": [],
      "stateMutability": "nonpayable",
      "type": "function"
    },
    {
      "inputs": [
        {
          "internalType": "string",
          "name": "",
          "type": "string"
        }
      ],
      "name": "vaultDeployed",
      "outputs": [
        {
          "internalType": "address",
          "name": "",
          "type": "address"
        }
      ],
      "stateMutability": "view",
      "type": "function"
    }
  ],
  "bytecode": "0x608060405234801561001057600080fd5b50338061003757604051631e4fbdf760e01b81526000600482015260240160405180910390fd5b61004081610046565b50610096565b600080546001600160a01b038381166001600160a01b0319831681178455604051919092169283917f8be0079c531659141344cd1fd0a4f28419497f9722a3daafe3b4186f6b6457e09190a35050565b613a62806100a56000396000f3fe6080604052600436106200005c5760003560e01c806301ffc9a71462000061578063715018a6146200009b5780637bac419d14620000b55780638da5cb5b14620000db578063f2fde38b14620000fb578063fe738c831462000120575b600080fd5b3480156200006e57600080fd5b5062000086620000803660046200072a565b62000165565b60405190151581526020015b60405180910390f35b348015620000a857600080fd5b50620000b36200019d565b005b620000cc620000c636600462000776565b620001b5565b6040516200009291906200082a565b348015620000e857600080fd5b506000546001600160a01b0316620000cc565b3480156200010857600080fd5b50620000b36200011a3660046200083e565b620004ee565b3480156200012d57600080fd5b50620000cc6200013f3660046200087f565b80516020818301810180516001825292820191909301209152546001600160a01b031681565b60006001600160e01b03198216637bac419d60e01b14806200019757506301ffc9a760e01b6001600160e01b03198316145b92915050565b620001a762000533565b620001b3600062000563565b565b6000806001600160a01b031660018686604051620001d59291906200093a565b908152604051908190036020019020546001600160a01b0316146200024d5760405162461bcd60e51b8152602060048201526024808201527f5661756c74466163746f72793a205661756c7420616c7265616479206465706c6044820152631bde595960e21b60648201526084015b60405180910390fd5b60006200025e60208501856200083e565b6001600160a01b031603620002c25760405162461bcd60e51b815260206004820152602360248201527f5661756c74466163746f72793a20496e76616c6964207374616b696e6720746f60448201526235b2b760e91b606482015260840162000244565b6000620002d660808501606086016200083e565b6001600160a01b031603620003465760405162461bcd60e51b815260206004820152602f60248201527f5661756c74466163746f72793a20496e76616c69642072657761726420636f6e60448201526e74726f6c6c6572206164647265737360881b606482015260840162000244565b60006200035a60a08501608086016200083e565b6001600160a01b031603620003c75760405162461bcd60e51b815260206004820152602c60248201527f5661756c74466163746f72793a20496e76616c69642066656520636f6e74726f60448201526b6c6c6572206164647265737360a01b606482015260840162000244565b620003d585858585620005b3565b90508060018686604051620003ec9291906200093a565b90815260405190819003602001812080546001600160a01b039384166001600160a01b031990911617905563f2fde38b60e01b81529082169063f2fde38b906200043b9033906004016200082a565b600060405180830381600087803b1580156200045657600080fd5b505af11580156200046b573d6000803e3d6000fd5b506200047f9250505060208401846200083e565b6001600160a01b039081169082167ffd7439309318fc0abb0976e1dddf30d112c3b5c6f4438cca5ee7f70342f97f59620004bd60208701876200094a565b620004cc60408901896200094a565b604051620004de9493929190620009c4565b60405180910390a3949350505050565b620004f862000533565b6001600160a01b03811662000525576000604051631e4fbdf760e01b81526004016200024491906200082a565b620005308162000563565b50565b6000546001600160a01b03163314620001b3573360405163118cdaa760e01b81526004016200024491906200082a565b600080546001600160a01b038381166001600160a01b0319831681178455604051919092169283917f8be0079c531659141344cd1fd0a4f28419497f9722a3daafe3b4186f6b6457e09190a35050565b60008060405180602001620005c8906200071c565b601f1982820381018352601f9091011660405290506000620005ee60208601866200083e565b620005fd60208701876200094a565b6200060c60408901896200094a565b6200061b60208a018a6200083e565b6200062d60408b0160208c016200083e565b60408b01356200064460808e0160608f016200083e565b8d60800160208101906200065991906200083e565b604051602001620006749a99989796959493929190620009fa565b6040516020818303038152906040529050600082826040516020016200069c92919062000aa0565b6040516020818303038152906040529050620006ba888883620006c6565b98975050505050505050565b6000808484604051602001620006de9291906200093a565b604051602081830303815290604052805190602001209050600083602001845183818334f592505050803b6200071357600080fd5b95945050505050565b612f6b8062000ac283390190565b6000602082840312156200073d57600080fd5b81356001600160e01b0319811681146200075657600080fd5b9392505050565b6000606082840312156200077057600080fd5b50919050565b60008060008060a085870312156200078d57600080fd5b843567ffffffffffffffff80821115620007a657600080fd5b818701915087601f830112620007bb57600080fd5b813581811115620007cb57600080fd5b886020828501011115620007de57600080fd5b602092830196509450908601359080821115620007fa57600080fd5b50850160a081880312156200080e57600080fd5b91506200081f86604087016200075d565b905092959194509250565b6001600160a01b0391909116815260200190565b6000602082840312156200085157600080fd5b81356001600160a01b03811681146200075657600080fd5b634e487b7160e01b600052604160045260246000fd5b6000602082840312156200089257600080fd5b813567ffffffffffffffff80821115620008ab57600080fd5b818401915084601f830112620008c057600080fd5b813581811115620008d557620008d562000869565b604051601f8201601f19908116603f0116810190838211818310171562000900576200090062000869565b816040528281528760208487010111156200091a57600080fd5b826020860160208301376000928101602001929092525095945050505050565b8183823760009101908152919050565b6000808335601e198436030181126200096257600080fd5b83018035915067ffffffffffffffff8211156200097e57600080fd5b6020019150368190038213156200099457600080fd5b9250929050565b81835281816020850137506000828201602090810191909152601f909101601f19169091010190565b604081526000620009da6040830186886200099b565b8281036020840152620009ef8185876200099b565b979650505050505050565b6001600160a01b038b811682526101006020830181905260009162000a238483018d8f6200099b565b9150838203604085015262000a3a828b8d6200099b565b98811660608501529687166080840152505060a081019390935290831660c083015290911660e09091015295945050505050565b6000815160005b8181101562000a91576020818501810151868301520162000a75565b50600093019283525090919050565b600062000ab962000ab2838662000a6e565b8462000a6e565b94935050505056fe60c060405260405162002f6b38038062002f6b83398101604081905262000026916200052d565b338686866003620000388382620006b7565b506004620000478282620006b7565b5050506000806200005e83620000da60201b60201c565b91509150816200007057601262000072565b805b60ff1660a05250506001600160a01b039081166080528116620000b057604051631e4fbdf760e01b8152600060048201526024015b60405180910390fd5b620000bb81620001bf565b506001600a55620000ce83838362000211565b505050505050620007bb565b60408051600481526024810182526020810180516001600160e01b031663313ce56760e01b17905290516000918291829182916001600160a01b03871691620001239162000783565b600060405180830381855afa9150503d806000811462000160576040519150601f19603f3d011682016040523d82523d6000602084013e62000165565b606091505b50915091508180156200017a57506020815110155b15620001b257600081806020019051810190620001989190620007a1565b905060ff8111620001b0576001969095509350505050565b505b5060009485945092505050565b600980546001600160a01b038381166001600160a01b0319831681179093556040519116919082907f8be0079c531659141344cd1fd0a4f28419497f9722a3daafe3b4186f6b6457e090600090a35050565b8251602084015160408501516200022a92919062000297565b6200023760003362000357565b50620002647f477fc23fb51bb5d5aa814872a393b0e4f35d0916c7503c0fd96584681070d4108362000357565b50620002917f74e458455daa935f28c556b43e0cc4ad001a8a090f5feee376681e97d4618f468262000357565b50505050565b6127108110620002dc5760405162461bcd60e51b815260206004820152600f60248201526e46433a20496e76616c69642066656560881b6044820152606401620000a7565b600680546001600160a01b038581166001600160a01b0319928316811790935560078054918616919092168117909155600883905560408051928352602083019190915281018290527febd34b2df88ea5c9f67c04b13b08e5e63c2d17e269aab73b866fe47a8736a2649060600160405180910390a1505050565b60008281526005602090815260408083206001600160a01b038516845290915281205460ff16620004005760008381526005602090815260408083206001600160a01b03861684529091529020805460ff19166001179055620003b73390565b6001600160a01b0316826001600160a01b0316847f2f8788117e7eff1d82e926ec794901d17c78024a50270940304540a733656f0d60405160405180910390a450600162000404565b5060005b92915050565b6001600160a01b03811681146200042057600080fd5b50565b634e487b7160e01b600052604160045260246000fd5b604051606081016001600160401b03811182821017156200045e576200045e62000423565b60405290565b60005b838110156200048157818101518382015260200162000467565b50506000910152565b600082601f8301126200049c57600080fd5b81516001600160401b0380821115620004b957620004b962000423565b604051601f8301601f19908116603f01168101908282118183101715620004e457620004e462000423565b81604052838152866020858801011115620004fe57600080fd5b6200051184602083016020890162000464565b9695505050505050565b805162000528816200040a565b919050565b6000806000806000808688036101008112156200054957600080fd5b875162000556816200040a565b60208901519097506001600160401b03808211156200057457600080fd5b620005828b838c016200048a565b975060408a01519150808211156200059957600080fd5b50620005a88a828b016200048a565b9550506060605f1982011215620005be57600080fd5b50620005c962000439565b6060880151620005d9816200040a565b81526080880151620005eb816200040a565b602082015260a0880151604082015292506200060a60c088016200051b565b91506200061a60e088016200051b565b90509295509295509295565b600181811c908216806200063b57607f821691505b6020821081036200065c57634e487b7160e01b600052602260045260246000fd5b50919050565b601f821115620006b2576000816000526020600020601f850160051c810160208610156200068d5750805b601f850160051c820191505b81811015620006ae5782815560010162000699565b5050505b505050565b81516001600160401b03811115620006d357620006d362000423565b620006eb81620006e4845462000626565b8462000662565b602080601f8311600181146200072357600084156200070a5750858301515b600019600386901b1c1916600185901b178555620006ae565b600085815260208120601f198616915b82811015620007545788860151825594840194600190910190840162000733565b5085821015620007735787850151600019600388901b60f8161c191681555b5050505050600190811b01905550565b600082516200079781846020870162000464565b9190910192915050565b600060208284031215620007b457600080fd5b5051919050565b60805160a05161276e620007fd60003960006109e30152600081816104be0152818161082001528181610d7d015281816116d301526119fa015261276e6000f3fe6080604052600436106102675760003560e01c80638da5cb5b11610144578063c4f59f9b116100b6578063d547741f1161007a578063d547741f14610766578063d905777e14610786578063dd62ed3e146107a6578063ef8b30f7146106f1578063efa6f425146107c6578063f2fde38b146107e657600080fd5b8063c4f59f9b146106cf578063c63d75b6146104eb578063c6e6f592146106f1578063cd26c0e614610711578063ce96cb771461074657600080fd5b8063a217fddf11610108578063a217fddf14610606578063a9059cbb1461061b578063b3d7f6b91461063b578063b460af941461065b578063b4f6d6131461067b578063ba087652146106af57600080fd5b80638da5cb5b1461058057806391d148541461059e57806394bf804d146105be57806395d89b41146105de5780639feb8f50146105f357600080fd5b80632f2ff15d116101dd578063402d267d116101a1578063402d267d146104eb5780634cdad5061461031a5780635ab764ed1461050b5780636e553f651461052b57806370a082311461054b578063715018a61461056b57600080fd5b80632f2ff15d14610419578063313ce5671461043b578063362a3fad1461046257806336568abe1461048f57806338d52e0f146104af57600080fd5b8063095ea7b31161022f578063095ea7b31461033a5780630a28a4771461035a57806318160ddd1461037a5780631e5eb1d01461038f57806323b872dd146103c9578063248a9ca3146103e957600080fd5b806301e1d1141461026c57806301ffc9a71461029457806305fb2a51146102c457806306fdde03146102f857806307a2d13a1461031a575b600080fd5b34801561027857600080fd5b50610281610806565b6040519081526020015b60405180910390f35b3480156102a057600080fd5b506102b46102af36600461219d565b61089b565b604051901515815260200161028b565b3480156102d057600080fd5b506102817f74e458455daa935f28c556b43e0cc4ad001a8a090f5feee376681e97d4618f4681565b34801561030457600080fd5b5061030d6108c6565b60405161028b91906121eb565b34801561032657600080fd5b5061028161033536600461221e565b610958565b34801561034657600080fd5b506102b4610355366004612253565b610965565b34801561036657600080fd5b5061028161037536600461221e565b61097d565b34801561038657600080fd5b50600254610281565b34801561039b57600080fd5b506006546007546008546103ba926001600160a01b0390811692169083565b60405161028b9392919061227d565b3480156103d557600080fd5b506102b46103e43660046122a1565b61098a565b3480156103f557600080fd5b5061028161040436600461221e565b60009081526005602052604090206001015490565b34801561042557600080fd5b506104396104343660046122dd565b6109b0565b005b34801561044757600080fd5b506104506109db565b60405160ff909116815260200161028b565b34801561046e57600080fd5b5061048261047d366004612309565b610a07565b60405161028b9190612324565b34801561049b57600080fd5b506104396104aa3660046122dd565b610aba565b3480156104bb57600080fd5b507f00000000000000000000000000000000000000000000000000000000000000005b60405161028b9190612368565b3480156104f757600080fd5b50610281610506366004612309565b610af2565b34801561051757600080fd5b5061028161052636600461237c565b610af9565b34801561053757600080fd5b506102816105463660046122dd565b610bbc565b34801561055757600080fd5b50610281610566366004612309565b610c2f565b34801561057757600080fd5b50610439610c4a565b34801561058c57600080fd5b506009546001600160a01b03166104de565b3480156105aa57600080fd5b506102b46105b93660046122dd565b610c5e565b3480156105ca57600080fd5b506102816105d93660046122dd565b610c89565b3480156105ea57600080fd5b5061030d610ce8565b610439610601366004612253565b610cf7565b34801561061257600080fd5b50610281600081565b34801561062757600080fd5b506102b4610636366004612253565b611048565b34801561064757600080fd5b5061028161065636600461221e565b611056565b34801561066757600080fd5b506102816106763660046123a6565b611063565b34801561068757600080fd5b506102817f477fc23fb51bb5d5aa814872a393b0e4f35d0916c7503c0fd96584681070d41081565b3480156106bb57600080fd5b506102816106ca3660046123a6565b6110ce565b3480156106db57600080fd5b506106e4611124565b60405161028b91906123e2565b3480156106fd57600080fd5b5061028161070c36600461221e565b611185565b34801561071d57600080fd5b5061073161072c3660046122dd565b611192565b6040805192835260208301919091520161028b565b34801561075257600080fd5b50610281610761366004612309565b6112ce565b34801561077257600080fd5b506104396107813660046122dd565b6112e3565b34801561079257600080fd5b506102816107a1366004612309565b611308565b3480156107b257600080fd5b506102816107c136600461237c565b611313565b3480156107d257600080fd5b506104396107e1366004612439565b61133e565b3480156107f257600080fd5b50610439610801366004612309565b611383565b6040516370a0823160e01b81526000906001600160a01b037f000000000000000000000000000000000000000000000000000000000000000016906370a0823190610855903090600401612368565b602060405180830381865afa158015610872573d6000803e3d6000fd5b505050506040513d601f19601f8201168201806040525081019061089691906124af565b905090565b60006001600160e01b0319821663043eff2d60e51b14806108c057506108c0826113c1565b92915050565b6060600380546108d5906124c8565b80601f0160208091040260200160405190810160405280929190818152602001828054610901906124c8565b801561094e5780601f106109235761010080835404028352916020019161094e565b820191906000526020600020905b81548152906001019060200180831161093157829003601f168201915b5050505050905090565b60006108c08260006113f6565b600033610973818585611430565b5060019392505050565b60006108c082600161143d565b60003361099885828561146d565b6109a38585856114ba565b60019150505b9392505050565b6000828152600560205260409020600101546109cb81611519565b6109d58383611523565b50505050565b6000610896817f0000000000000000000000000000000000000000000000000000000000000000612518565b600b546060908067ffffffffffffffff811115610a2657610a26612423565b604051908082528060200260200182016040528015610a4f578160200160208202803683370190505b50915060005b81811015610ab357610a8e84600b8381548110610a7457610a74612531565b6000918252602090912001546001600160a01b0316610af9565b838281518110610aa057610aa0612531565b6020908102919091010152600101610a55565b5050919050565b6001600160a01b0381163314610ae35760405163334bd91960e11b815260040160405180910390fd5b610aed82826115b7565b505050565b5060001990565b6001600160a01b038082166000818152600d6020908152604080832080549588168452600c83528184208054958552600281019093529083205492949093909285610b448286612547565b905082610b5982670de0b6b3a764000061255a565b610b639190612587565b9650610b77670de0b6b3a764000088612587565b60085490975015610ba3576000610b9388600660020154611624565b9050610b9f8189612547565b9750505b86600003610bb057600196505b50505050505092915050565b6000610bc66116a4565b6000610bd183610af2565b905080841115610c0357828482604051633c8097d960e11b8152600401610bfa9392919061259b565b60405180910390fd5b610c0c84611185565b9150610c1a338486856116ce565b610c248484611760565b506108c06001600a55565b6001600160a01b031660009081526020819052604090205490565b610c5261189b565b610c5c60006118c8565b565b60009182526005602090815260408084206001600160a01b0393909316845291905290205460ff1690565b6000610c936116a4565b6000610c9e83610af2565b905080841115610cc75782848260405163284ff66760e01b8152600401610bfa9392919061259b565b610cd084611056565b9150610cde338484876116ce565b610c248284611760565b6060600480546108d5906124c8565b7f477fc23fb51bb5d5aa814872a393b0e4f35d0916c7503c0fd96584681070d410610d2181611519565b81600003610d7b5760405162461bcd60e51b815260206004820152602160248201527f4865646572615661756c743a20416d6f756e742063616e2774206265207a65726044820152606f60f81b6064820152608401610bfa565b7f00000000000000000000000000000000000000000000000000000000000000006001600160a01b0316836001600160a01b031614158015610dc657506001600160a01b0383163014155b610e305760405162461bcd60e51b815260206004820152603560248201527f4865646572615661756c743a2052657761726420616e64205374616b696e6720604482015274746f6b656e732063616e6e6f742062652073616d6560581b6064820152608401610bfa565b6001600160a01b038316610e905760405162461bcd60e51b815260206004820152602160248201527f4865646572615661756c743a20496e76616c69642072657761726420746f6b656044820152603760f91b6064820152608401610bfa565b610e98610806565b600003610ee75760405162461bcd60e51b815260206004820181905260248201527f4865646572615661756c743a204e6f20746f6b656e207374616b6564207965746044820152606401610bfa565b600b54600a03610f0a57604051637561e0ab60e01b815260040160405180910390fd5b6000610f216001610f19610806565b85919061191a565b6001600160a01b0385166000908152600d6020526040902060018101549192509060ff16610fbb57600b8054600180820183556000929092527f0175b7a638427703f0dbe7bb9bbf987a2551717b34e79f33b5b1008d1fa01db90180546001600160a01b0319166001600160a01b038816908117909155828201805460ff1916909217909155828255610fb690333087611938565b610ffe565b6001600160a01b0385166000908152600d602052604081208054849290610fe39084906125bc565b90915550610ffe90506001600160a01b038616333087611938565b846001600160a01b03167fac24935fd910bc682b5ccb1a07b718cadf8cf2f6d1404c4f3ddc3662dae40e298560405161103991815260200190565b60405180910390a25050505050565b6000336109738185856114ba565b60006108c08260016113f6565b600061106d6116a4565b6000611078836112ce565b9050808511156110a157828582604051633fa733bb60e21b8152600401610bfa9392919061259b565b6110ab8585611992565b6110b48561097d565b91506110c333858588866119c7565b506109a96001600a55565b60006110d86116a4565b60006110e383611308565b90508085111561110c57828582604051632e52afbb60e21b8152600401610bfa9392919061259b565b61111585610958565b91506110c333858585896119c7565b6060600b80548060200260200160405190810160405280929190818152602001828054801561094e57602002820191906000526020600020905b81546001600160a01b0316815260019091019060200180831161115e575050505050905090565b60006108c082600061143d565b600b5460075460009182916001600160a01b031682808381036112035760405162461bcd60e51b815260206004820152602360248201527f4865646572615661756c743a204e6f2072657761726420746f6b656e732065786044820152621a5cdd60ea1b6064820152608401610bfa565b875b848110156112bf57600b818154811061122057611220612531565b6000918252602090912001546001600160a01b031692506112413384610af9565b6001600160a01b038085166000818152600d6020908152604080832054338452600c835281842094845260029094019091529020559092508416156112a35761129e8861128d84611a87565b6001600160a01b0386169190611b91565b6112b7565b6112b76001600160a01b0384168984611b91565b600101611205565b50969792965091945050505050565b60006108c06112dc83610c2f565b60006113f6565b6000828152600560205260409020600101546112fe81611519565b6109d583836115b7565b60006108c082610c2f565b6001600160a01b03918216600090815260016020908152604080832093909416825291909152205490565b7f74e458455daa935f28c556b43e0cc4ad001a8a090f5feee376681e97d4618f4661136881611519565b61137f826000015183602001518460400151611bc2565b5050565b61138b61189b565b6001600160a01b0381166113b5576000604051631e4fbdf760e01b8152600401610bfa9190612368565b6113be816118c8565b50565b60006001600160e01b03198216637965db0b60e01b14806108c057506301ffc9a760e01b6001600160e01b03198316146108c0565b60006109a9611403610806565b61140e9060016125bc565b61141a6000600a6126b3565b60025461142791906125bc565b85919085611c80565b610aed8383836001611cd1565b60006109a961144d82600a6126b3565b60025461145a91906125bc565b611462610806565b6114279060016125bc565b60006114798484611313565b905060001981146109d557818110156114ab57828183604051637dc7a0d960e11b8152600401610bfa9392919061259b565b6109d584848484036000611cd1565b6001600160a01b0383166114e4576000604051634b637e8f60e11b8152600401610bfa9190612368565b6001600160a01b03821661150e57600060405163ec442f0560e01b8152600401610bfa9190612368565b610aed838383611d98565b6113be8133611eaf565b600061152f8383610c5e565b6115af5760008381526005602090815260408083206001600160a01b03861684529091529020805460ff191660011790556115673390565b6001600160a01b0316826001600160a01b0316847f2f8788117e7eff1d82e926ec794901d17c78024a50270940304540a733656f0d60405160405180910390a45060016108c0565b5060006108c0565b60006115c38383610c5e565b156115af5760008381526005602090815260408083206001600160a01b0386168085529252808320805460ff1916905551339286917ff6391f5c32d9c69d2a47ea670b442974b53935d1edc7fd64eb21e047a839171b9190a45060016108c0565b6000612710611633838561255a565b101561168d5760405162461bcd60e51b8152602060048201526024808201527f46433a20546f6f20736d616c6c20616d6f756e7420746f20636f6e73696465726044820152632066656560e01b6064820152608401610bfa565b61271061169a838561255a565b6109a99190612587565b6002600a54036116c757604051633ee5aeb560e01b815260040160405180910390fd5b6002600a55565b6116fa7f0000000000000000000000000000000000000000000000000000000000000000853085611938565b6117048382611ee8565b826001600160a01b0316846001600160a01b03167fdcbc1c05240f31ff3ad067ef1ee35ce4997762752e3a095284754544f4c709d78484604051611752929190918252602082015260400190565b60405180910390a350505050565b336000908152600c602052604090206003015460ff1661181057600b5460005b818110156117e2576000600b828154811061179d5761179d612531565b60009182526020808320909101546001600160a01b0316808352600d8252604080842054338552600c8452818520928552600290920190925291205550600101611780565b5050336000908152600c6020526040902082815560038101805460ff19166001908117909155429101555050565b336000908152600c6020526040812054900361185057336000908152600c6020526040812080548492906118459084906125bc565b9091555061137f9050565b61185b600082611192565b5050336000908152600c60205260408120805484929061187c9084906125bc565b9091555050336000908152600c60205260409020426001909101555050565b6009546001600160a01b03163314610c5c573360405163118cdaa760e01b8152600401610bfa9190612368565b600980546001600160a01b038381166001600160a01b0319831681179093556040519116919082907f8be0079c531659141344cd1fd0a4f28419497f9722a3daafe3b4186f6b6457e090600090a35050565b600082600019048411830215820261193157600080fd5b5091020490565b6109d584856001600160a01b03166323b872dd8686866040516024016119609392919061227d565b604051602081830303815290604052915060e01b6020820180516001600160e01b038381831617835250505050611f1e565b61199d600082611192565b5050336000908152600c6020526040812080548492906119be908490612547565b90915550505050565b826001600160a01b0316856001600160a01b0316146119eb576119eb83868361146d565b6119f58382611f78565b611a207f00000000000000000000000000000000000000000000000000000000000000008584611b91565b826001600160a01b0316846001600160a01b0316866001600160a01b03167ffbde797d201c681b91056529119e0b02407c7bb96a4a2c75c01fc9667232c8db8585604051611a78929190918252602082015260400190565b60405180910390a45050505050565b6007546008546000916001600160a01b0316908290611aa7908590611624565b905080826001600160a01b03166370a08231306040518263ffffffff1660e01b8152600401611ad69190612368565b602060405180830381865afa158015611af3573d6000803e3d6000fd5b505050506040513d601f19601f82011682018060405250810190611b1791906124af565b1015611b655760405162461bcd60e51b815260206004820152601e60248201527f46433a20496e73756666696369656e7420746f6b656e2062616c616e636500006044820152606401610bfa565b600654611b7f906001600160a01b03848116911683611b91565b611b898185612547565b949350505050565b6040516001600160a01b03838116602483015260448201839052610aed91859182169063a9059cbb90606401611960565b6127108110611c055760405162461bcd60e51b815260206004820152600f60248201526e46433a20496e76616c69642066656560881b6044820152606401610bfa565b600680546001600160a01b038581166001600160a01b0319928316811790935560078054918616919092168117909155600883905560408051928352602083019190915281018290527febd34b2df88ea5c9f67c04b13b08e5e63c2d17e269aab73b866fe47a8736a2649060600160405180910390a1505050565b600080611c8e868686611fae565b9050611c9983612072565b8015611cb5575060008480611cb057611cb0612571565b868809115b15611cc857611cc56001826125bc565b90505b95945050505050565b6001600160a01b038416611cfb57600060405163e602df0560e01b8152600401610bfa9190612368565b6001600160a01b038316611d25576000604051634a1406b160e11b8152600401610bfa9190612368565b6001600160a01b03808516600090815260016020908152604080832093871683529290522082905580156109d557826001600160a01b0316846001600160a01b03167f8c5be1e5ebec7d5bd14f71427d1e84f3dd0314c0f7b2291e5b200ac8c7c3b9258460405161175291815260200190565b6001600160a01b038316611dc3578060026000828254611db891906125bc565b90915550611e229050565b6001600160a01b03831660009081526020819052604090205481811015611e035783818360405163391434e360e21b8152600401610bfa9392919061259b565b6001600160a01b03841660009081526020819052604090209082900390555b6001600160a01b038216611e3e57600280548290039055611e5d565b6001600160a01b03821660009081526020819052604090208054820190555b816001600160a01b0316836001600160a01b03167fddf252ad1be2c89b69c2b068fc378daa952ba7f163c4a11628f55a4df523b3ef83604051611ea291815260200190565b60405180910390a3505050565b611eb98282610c5e565b61137f5760405163e2517d3f60e01b81526001600160a01b038216600482015260248101839052604401610bfa565b6001600160a01b038216611f1257600060405163ec442f0560e01b8152600401610bfa9190612368565b61137f60008383611d98565b6000611f336001600160a01b0384168361209f565b90508051600014158015611f58575080806020019051810190611f5691906126c2565b155b15610aed5782604051635274afe760e01b8152600401610bfa9190612368565b6001600160a01b038216611fa2576000604051634b637e8f60e11b8152600401610bfa9190612368565b61137f82600083611d98565b6000838302816000198587098281108382030391505080600003611fe557838281611fdb57611fdb612571565b04925050506109a9565b8084116120055760405163227bc15360e01b815260040160405180910390fd5b6000848688096000868103871696879004966002600389028118808a02820302808a02820302808a02820302808a02820302808a02820302808a02909103029181900381900460010186841190950394909402919094039290920491909117919091029150509392505050565b60006002826003811115612088576120886126e4565b61209291906126fa565b60ff166001149050919050565b60606109a98383600084600080856001600160a01b031684866040516120c5919061271c565b60006040518083038185875af1925050503d8060008114612102576040519150601f19603f3d011682016040523d82523d6000602084013e612107565b606091505b5091509150612117868383612121565b9695505050505050565b6060826121365761213182612174565b6109a9565b815115801561214d57506001600160a01b0384163b155b1561216d5783604051639996b31560e01b8152600401610bfa9190612368565b50806109a9565b8051156121845780518082602001fd5b604051630a12f52160e11b815260040160405180910390fd5b6000602082840312156121af57600080fd5b81356001600160e01b0319811681146109a957600080fd5b60005b838110156121e25781810151838201526020016121ca565b50506000910152565b602081526000825180602084015261220a8160408501602087016121c7565b601f01601f19169190910160400192915050565b60006020828403121561223057600080fd5b5035919050565b80356001600160a01b038116811461224e57600080fd5b919050565b6000806040838503121561226657600080fd5b61226f83612237565b946020939093013593505050565b6001600160a01b039384168152919092166020820152604081019190915260600190565b6000806000606084860312156122b657600080fd5b6122bf84612237565b92506122cd60208501612237565b9150604084013590509250925092565b600080604083850312156122f057600080fd5b8235915061230060208401612237565b90509250929050565b60006020828403121561231b57600080fd5b6109a982612237565b6020808252825182820181905260009190848201906040850190845b8181101561235c57835183529284019291840191600101612340565b50909695505050505050565b6001600160a01b0391909116815260200190565b6000806040838503121561238f57600080fd5b61239883612237565b915061230060208401612237565b6000806000606084860312156123bb57600080fd5b833592506123cb60208501612237565b91506123d960408501612237565b90509250925092565b6020808252825182820181905260009190848201906040850190845b8181101561235c5783516001600160a01b0316835292840192918401916001016123fe565b634e487b7160e01b600052604160045260246000fd5b60006060828403121561244b57600080fd5b6040516060810181811067ffffffffffffffff8211171561247c57634e487b7160e01b600052604160045260246000fd5b60405261248883612237565b815261249660208401612237565b6020820152604083013560408201528091505092915050565b6000602082840312156124c157600080fd5b5051919050565b600181811c908216806124dc57607f821691505b6020821081036124fc57634e487b7160e01b600052602260045260246000fd5b50919050565b634e487b7160e01b600052601160045260246000fd5b60ff81811683821601908111156108c0576108c0612502565b634e487b7160e01b600052603260045260246000fd5b818103818111156108c0576108c0612502565b80820281158282048414176108c0576108c0612502565b634e487b7160e01b600052601260045260246000fd5b60008261259657612596612571565b500490565b6001600160a01b039390931683526020830191909152604082015260600190565b808201808211156108c0576108c0612502565b600181815b8085111561260a5781600019048211156125f0576125f0612502565b808516156125fd57918102915b93841c93908002906125d4565b509250929050565b600082612621575060016108c0565b8161262e575060006108c0565b8160018114612644576002811461264e5761266a565b60019150506108c0565b60ff84111561265f5761265f612502565b50506001821b6108c0565b5060208310610133831016604e8410600b841016171561268d575081810a6108c0565b61269783836125cf565b80600019048211156126ab576126ab612502565b029392505050565b60006109a960ff841683612612565b6000602082840312156126d457600080fd5b815180151581146109a957600080fd5b634e487b7160e01b600052602160045260246000fd5b600060ff83168061270d5761270d612571565b8060ff84160691505092915050565b6000825161272e8184602087016121c7565b919091019291505056fea26469706673582212204480cc9fac437ede87d9fa863b3a7845047b34dea4730897c9e44d26a4a1b69f64736f6c63430008180033a2646970667358221220fbc32ef242a0b63d11bc5b4aba937fab3f039b2c2323bcf45b54d607e6883f5b64736f6c63430008180033",
  "linkReferences": {},
  "deployedLinkReferences": {}
}