{
  "_format": "hh-sol-artifact-1",
  "contractName": "VaultFactory",
  "sourceName": "contracts/erc4626/factory/VaultFactory.sol",
  "abi": [
    {
      "inputs": [],
      "stateMutability": "nonpayable",
      "type": "constructor"
    },
    {
      "inputs": [
        {
          "internalType": "address",
          "name": "owner",
          "type": "address"
        }
      ],
      "name": "OwnableInvalidOwner",
      "type": "error"
    },
    {
      "inputs": [
        {
          "internalType": "address",
          "name": "account",
          "type": "address"
        }
      ],
      "name": "OwnableUnauthorizedAccount",
      "type": "error"
    },
    {
      "inputs": [
        {
          "internalType": "uint256",
          "name": "value",
          "type": "uint256"
        },
        {
          "internalType": "uint256",
          "name": "length",
          "type": "uint256"
        }
      ],
      "name": "StringsInsufficientHexLength",
      "type": "error"
    },
    {
      "anonymous": false,
      "inputs": [
        {
          "indexed": true,
          "internalType": "address",
          "name": "previousOwner",
          "type": "address"
        },
        {
          "indexed": true,
          "internalType": "address",
          "name": "newOwner",
          "type": "address"
        }
      ],
      "name": "OwnershipTransferred",
      "type": "event"
    },
    {
      "anonymous": false,
      "inputs": [
        {
          "indexed": true,
          "internalType": "address",
          "name": "vault",
          "type": "address"
        },
        {
          "indexed": true,
          "internalType": "address",
          "name": "asset",
          "type": "address"
        },
        {
          "indexed": false,
          "internalType": "string",
          "name": "name",
          "type": "string"
        },
        {
          "indexed": false,
          "internalType": "string",
          "name": "symbol",
          "type": "string"
        }
      ],
      "name": "VaultDeployed",
      "type": "event"
    },
    {
      "inputs": [
        {
          "internalType": "string",
          "name": "salt",
          "type": "string"
        },
        {
          "components": [
            {
              "internalType": "address",
              "name": "stakingToken",
              "type": "address"
            },
            {
              "internalType": "string",
              "name": "shareTokenName",
              "type": "string"
            },
            {
              "internalType": "string",
              "name": "shareTokenSymbol",
              "type": "string"
            },
            {
              "internalType": "address",
              "name": "vaultRewardController",
              "type": "address"
            },
            {
              "internalType": "address",
              "name": "feeConfigController",
              "type": "address"
            },
            {
              "internalType": "uint32",
              "name": "cliff",
              "type": "uint32"
            },
            {
              "internalType": "uint32",
              "name": "unlockDuration",
              "type": "uint32"
            }
          ],
          "internalType": "struct IVaultFactory.VaultDetails",
          "name": "vaultDetails",
          "type": "tuple"
        },
        {
          "components": [
            {
              "internalType": "address",
              "name": "receiver",
              "type": "address"
            },
            {
              "internalType": "address",
              "name": "token",
              "type": "address"
            },
            {
              "internalType": "uint256",
              "name": "feePercentage",
              "type": "uint256"
            }
          ],
          "internalType": "struct FeeConfiguration.FeeConfig",
          "name": "feeConfig",
          "type": "tuple"
        }
      ],
      "name": "deployVault",
      "outputs": [
        {
          "internalType": "address",
          "name": "vault",
          "type": "address"
        }
      ],
      "stateMutability": "payable",
      "type": "function"
    },
    {
      "inputs": [
        {
          "internalType": "address",
          "name": "deployer",
          "type": "address"
        },
        {
          "internalType": "address",
          "name": "token",
          "type": "address"
        },
        {
          "internalType": "uint256",
          "name": "nonce",
          "type": "uint256"
        }
      ],
      "name": "generateSalt",
      "outputs": [
        {
          "internalType": "string",
          "name": "",
          "type": "string"
        }
      ],
      "stateMutability": "pure",
      "type": "function"
    },
    {
      "inputs": [],
      "name": "owner",
      "outputs": [
        {
          "internalType": "address",
          "name": "",
          "type": "address"
        }
      ],
      "stateMutability": "view",
      "type": "function"
    },
    {
      "inputs": [],
      "name": "renounceOwnership",
      "outputs": [],
      "stateMutability": "nonpayable",
      "type": "function"
    },
    {
      "inputs": [
        {
          "internalType": "bytes4",
          "name": "interfaceId",
          "type": "bytes4"
        }
      ],
      "name": "supportsInterface",
      "outputs": [
        {
          "internalType": "bool",
          "name": "",
          "type": "bool"
        }
      ],
      "stateMutability": "view",
      "type": "function"
    },
    {
      "inputs": [
        {
          "internalType": "address",
          "name": "newOwner",
          "type": "address"
        }
      ],
      "name": "transferOwnership",
      "outputs": [],
      "stateMutability": "nonpayable",
      "type": "function"
    },
    {
      "inputs": [
        {
          "internalType": "string",
          "name": "",
          "type": "string"
        }
      ],
      "name": "vaultDeployed",
      "outputs": [
        {
          "internalType": "address",
          "name": "",
          "type": "address"
        }
      ],
      "stateMutability": "view",
      "type": "function"
    }
  ],
  "bytecode": "0x608060405234801561001057600080fd5b50338061003757604051631e4fbdf760e01b81526000600482015260240160405180910390fd5b61004081610046565b50610096565b600080546001600160a01b038381166001600160a01b0319831681178455604051919092169283917f8be0079c531659141344cd1fd0a4f28419497f9722a3daafe3b4186f6b6457e09190a35050565b61451c806100a56000396000f3fe608060405260043610620000685760003560e01c806301ffc9a7146200006d57806326f927db14620000a7578063715018a614620000cd5780638da5cb5b14620000e7578063a166bf061462000107578063f2fde38b146200013b578063fe738c831462000160575b600080fd5b3480156200007a57600080fd5b50620000926200008c36600462000b12565b620001a5565b60405190151581526020015b60405180910390f35b620000be620000b836600462000b5e565b620001dd565b6040516200009e919062000c12565b348015620000da57600080fd5b50620000e562000516565b005b348015620000f457600080fd5b506000546001600160a01b0316620000be565b3480156200011457600080fd5b506200012c6200012636600462000c43565b6200052e565b6040516200009e919062000caa565b3480156200014857600080fd5b50620000e56200015a36600462000cdf565b62000593565b3480156200016d57600080fd5b50620000be6200017f36600462000d13565b80516020818301810180516001825292820191909301209152546001600160a01b031681565b60006001600160e01b0319821663879f98dd60e01b1480620001d757506301ffc9a760e01b6001600160e01b03198316145b92915050565b6000806001600160a01b031660018686604051620001fd92919062000dce565b908152604051908190036020019020546001600160a01b031614620002755760405162461bcd60e51b8152602060048201526024808201527f5661756c74466163746f72793a205661756c7420616c7265616479206465706c6044820152631bde595960e21b60648201526084015b60405180910390fd5b600062000286602085018562000cdf565b6001600160a01b031603620002ea5760405162461bcd60e51b815260206004820152602360248201527f5661756c74466163746f72793a20496e76616c6964207374616b696e6720746f60448201526235b2b760e91b60648201526084016200026c565b6000620002fe608085016060860162000cdf565b6001600160a01b0316036200036e5760405162461bcd60e51b815260206004820152602f60248201527f5661756c74466163746f72793a20496e76616c69642072657761726420636f6e60448201526e74726f6c6c6572206164647265737360881b60648201526084016200026c565b60006200038260a085016080860162000cdf565b6001600160a01b031603620003ef5760405162461bcd60e51b815260206004820152602c60248201527f5661756c74466163746f72793a20496e76616c69642066656520636f6e74726f60448201526b6c6c6572206164647265737360a01b60648201526084016200026c565b620003fd85858585620005d8565b905080600186866040516200041492919062000dce565b90815260405190819003602001812080546001600160a01b039384166001600160a01b031990911617905563f2fde38b60e01b81529082169063f2fde38b906200046390339060040162000c12565b600060405180830381600087803b1580156200047e57600080fd5b505af115801562000493573d6000803e3d6000fd5b50620004a792505050602084018462000cdf565b6001600160a01b039081169082167ffd7439309318fc0abb0976e1dddf30d112c3b5c6f4438cca5ee7f70342f97f59620004e5602087018762000dde565b620004f4604089018962000dde565b60405162000506949392919062000e58565b60405180910390a3949350505050565b6200052062000717565b6200052c600062000747565b565b606062000546846001600160a01b0316601462000797565b6200055c846001600160a01b0316601462000797565b620005678462000935565b6040516020016200057b9392919062000e8e565b60405160208183030381529060405290509392505050565b6200059d62000717565b6001600160a01b038116620005ca576000604051631e4fbdf760e01b81526004016200026c919062000c12565b620005d58162000747565b50565b60008060405180602001620005ed9062000b04565b601f1982820381018352601f909101166040529050600062000613602086018662000cdf565b62000622602087018762000dde565b62000631604089018962000dde565b6200064060208a018a62000cdf565b6200065260408b0160208c0162000cdf565b60408b01356200066960808e0160608f0162000cdf565b8d60800160208101906200067e919062000cdf565b8e60a001602081019062000693919062000ed7565b8f60c0016020810190620006a8919062000ed7565b604051602001620006c59c9b9a9998979695949392919062000eff565b604051602081830303815290604052905060008282604051602001620006ed92919062000f91565b60405160208183030381529060405290506200070b888883620009cf565b98975050505050505050565b6000546001600160a01b031633146200052c573360405163118cdaa760e01b81526004016200026c919062000c12565b600080546001600160a01b038381166001600160a01b0319831681178455604051919092169283917f8be0079c531659141344cd1fd0a4f28419497f9722a3daafe3b4186f6b6457e09190a35050565b6060826000620007a984600262000fda565b620007b690600262000ff4565b67ffffffffffffffff811115620007d157620007d162000cfd565b6040519080825280601f01601f191660200182016040528015620007fc576020820181803683370190505b509050600360fc1b816000815181106200081a576200081a6200100a565b60200101906001600160f81b031916908160001a905350600f60fb1b816001815181106200084c576200084c6200100a565b60200101906001600160f81b031916908160001a90535060006200087285600262000fda565b6200087f90600162000ff4565b90505b600181111562000901576f181899199a1a9b1b9c1cb0b131b232b360811b83600f1660108110620008b757620008b76200100a565b1a60f81b828281518110620008d057620008d06200100a565b60200101906001600160f81b031916908160001a90535060049290921c91620008f98162001020565b905062000882565b5081156200092d5760405163e22e27eb60e01b815260048101869052602481018590526044016200026c565b949350505050565b60606000620009448362000a25565b600101905060008167ffffffffffffffff81111562000967576200096762000cfd565b6040519080825280601f01601f19166020018201604052801562000992576020820181803683370190505b5090508181016020015b600019016f181899199a1a9b1b9c1cb0b131b232b360811b600a86061a8153600a85049450846200099c57509392505050565b6000808484604051602001620009e792919062000dce565b604051602081830303815290604052805190602001209050600083602001845183818334f592505050803b62000a1c57600080fd5b95945050505050565b60008072184f03e93ff9f4daa797ed6e38ed64bf6a1f0160401b831062000a655772184f03e93ff9f4daa797ed6e38ed64bf6a1f0160401b830492506040015b6d04ee2d6d415b85acef8100000000831062000a92576d04ee2d6d415b85acef8100000000830492506020015b662386f26fc10000831062000ab157662386f26fc10000830492506010015b6305f5e100831062000aca576305f5e100830492506008015b612710831062000adf57612710830492506004015b6064831062000af2576064830492506002015b600a8310620001d75760010192915050565b6134ac806200103b83390190565b60006020828403121562000b2557600080fd5b81356001600160e01b03198116811462000b3e57600080fd5b9392505050565b60006060828403121562000b5857600080fd5b50919050565b60008060008060a0858703121562000b7557600080fd5b843567ffffffffffffffff8082111562000b8e57600080fd5b818701915087601f83011262000ba357600080fd5b81358181111562000bb357600080fd5b88602082850101111562000bc657600080fd5b60209283019650945090860135908082111562000be257600080fd5b50850160e0818803121562000bf657600080fd5b915062000c07866040870162000b45565b905092959194509250565b6001600160a01b0391909116815260200190565b80356001600160a01b038116811462000c3e57600080fd5b919050565b60008060006060848603121562000c5957600080fd5b62000c648462000c26565b925062000c746020850162000c26565b9150604084013590509250925092565b60005b8381101562000ca157818101518382015260200162000c87565b50506000910152565b602081526000825180602084015262000ccb81604085016020870162000c84565b601f01601f19169190910160400192915050565b60006020828403121562000cf257600080fd5b62000b3e8262000c26565b634e487b7160e01b600052604160045260246000fd5b60006020828403121562000d2657600080fd5b813567ffffffffffffffff8082111562000d3f57600080fd5b818401915084601f83011262000d5457600080fd5b81358181111562000d695762000d6962000cfd565b604051601f8201601f19908116603f0116810190838211818310171562000d945762000d9462000cfd565b8160405282815287602084870101111562000dae57600080fd5b826020860160208301376000928101602001929092525095945050505050565b8183823760009101908152919050565b6000808335601e1984360301811262000df657600080fd5b83018035915067ffffffffffffffff82111562000e1257600080fd5b60200191503681900382131562000e2857600080fd5b9250929050565b81835281816020850137506000828201602090810191909152601f909101601f19169091010190565b60408152600062000e6e60408301868862000e2f565b828103602084015262000e8381858762000e2f565b979650505050505050565b6000845162000ea281846020890162000c84565b84519083019062000eb881836020890162000c84565b845191019062000ecd81836020880162000c84565b0195945050505050565b60006020828403121562000eea57600080fd5b813563ffffffff8116811462000b3e57600080fd5b6001600160a01b038d1681526101406020820181905260009062000f279083018d8f62000e2f565b828103604084015262000f3c818c8e62000e2f565b6001600160a01b039a8b166060850152988a166080840152505060a081019590955292861660c0850152941660e083015263ffffffff9384166101008301529092166101209092019190915295945050505050565b6000835162000fa581846020880162000c84565b83519083019062000fbb81836020880162000c84565b01949350505050565b634e487b7160e01b600052601160045260246000fd5b8082028115828204841417620001d757620001d762000fc4565b80820180821115620001d757620001d762000fc4565b634e487b7160e01b600052603260045260246000fd5b60008162001032576200103262000fc4565b50600019019056fe60c0604052604051620034ac380380620034ac83398101604081905262000026916200056f565b33888888600362000038838262000721565b50600462000047828262000721565b5050506000806200005e836200010760201b60201c565b91509150816200007057601262000072565b805b60ff1660a05250506001600160a01b039081166080528116620000b057604051631e4fbdf760e01b8152600060048201526024015b60405180910390fd5b620000bb81620001ec565b506001600a55620000ce8585856200023e565b600b80546001600160401b03191664010000000063ffffffff9485160263ffffffff191617919092161790555062000825945050505050565b60408051600481526024810182526020810180516001600160e01b031663313ce56760e01b17905290516000918291829182916001600160a01b038716916200015091620007ed565b600060405180830381855afa9150503d80600081146200018d576040519150601f19603f3d011682016040523d82523d6000602084013e62000192565b606091505b5091509150818015620001a757506020815110155b15620001df57600081806020019051810190620001c591906200080b565b905060ff8111620001dd576001969095509350505050565b505b5060009485945092505050565b600980546001600160a01b038381166001600160a01b0319831681179093556040519116919082907f8be0079c531659141344cd1fd0a4f28419497f9722a3daafe3b4186f6b6457e090600090a35050565b82516020840151604085015162000257929190620002c4565b6200026460003362000384565b50620002917f477fc23fb51bb5d5aa814872a393b0e4f35d0916c7503c0fd96584681070d4108362000384565b50620002be7f74e458455daa935f28c556b43e0cc4ad001a8a090f5feee376681e97d4618f468262000384565b50505050565b6127108110620003095760405162461bcd60e51b815260206004820152600f60248201526e46433a20496e76616c69642066656560881b6044820152606401620000a7565b600680546001600160a01b038581166001600160a01b0319928316811790935560078054918616919092168117909155600883905560408051928352602083019190915281018290527febd34b2df88ea5c9f67c04b13b08e5e63c2d17e269aab73b866fe47a8736a2649060600160405180910390a1505050565b60008281526005602090815260408083206001600160a01b038516845290915281205460ff166200042d5760008381526005602090815260408083206001600160a01b03861684529091529020805460ff19166001179055620003e43390565b6001600160a01b0316826001600160a01b0316847f2f8788117e7eff1d82e926ec794901d17c78024a50270940304540a733656f0d60405160405180910390a450600162000431565b5060005b92915050565b6001600160a01b03811681146200044d57600080fd5b50565b634e487b7160e01b600052604160045260246000fd5b604051606081016001600160401b03811182821017156200048b576200048b62000450565b60405290565b60005b83811015620004ae57818101518382015260200162000494565b50506000910152565b600082601f830112620004c957600080fd5b81516001600160401b0380821115620004e657620004e662000450565b604051601f8301601f19908116603f0116810190828211818310171562000511576200051162000450565b816040528381528660208588010111156200052b57600080fd5b6200053e84602083016020890162000491565b9695505050505050565b8051620005558162000437565b919050565b805163ffffffff811681146200055557600080fd5b600080600080600080600080888a036101408112156200058e57600080fd5b89516200059b8162000437565b60208b01519099506001600160401b0380821115620005b957600080fd5b620005c78d838e01620004b7565b995060408c0151915080821115620005de57600080fd5b50620005ed8c828d01620004b7565b9750506060605f19820112156200060357600080fd5b506200060e62000466565b60608a01516200061e8162000437565b815260808a0151620006308162000437565b602082015260a08a0151604082015294506200064f60c08a0162000548565b93506200065f60e08a0162000548565b9250620006706101008a016200055a565b9150620006816101208a016200055a565b90509295985092959890939650565b600181811c90821680620006a557607f821691505b602082108103620006c657634e487b7160e01b600052602260045260246000fd5b50919050565b601f8211156200071c576000816000526020600020601f850160051c81016020861015620006f75750805b601f850160051c820191505b81811015620007185782815560010162000703565b5050505b505050565b81516001600160401b038111156200073d576200073d62000450565b62000755816200074e845462000690565b84620006cc565b602080601f8311600181146200078d5760008415620007745750858301515b600019600386901b1c1916600185901b17855562000718565b600085815260208120601f198616915b82811015620007be578886015182559484019460019091019084016200079d565b5085821015620007dd5787850151600019600388901b60f8161c191681555b5050505050600190811b01905550565b600082516200080181846020870162000491565b9190910192915050565b6000602082840312156200081e57600080fd5b5051919050565b60805160a051612c45620008676000396000610b0f0152600081816105590152818161094c01528181610f8e015281816119f20152611d630152612c456000f3fe6080604052600436106102a95760003560e01c80638a1fcd6011610165578063ba087652116100cc578063ce96cb7711610085578063ce96cb7714610872578063d547741f14610892578063d905777e146108b2578063dd62ed3e146108d2578063ef8b30f7146107fd578063efa6f425146108f2578063f2fde38b1461091257600080fd5b8063ba087652146107bb578063c4f59f9b146107db578063c63d75b614610586578063c6e6f592146107fd578063caad546e1461081d578063cd26c0e61461083d57600080fd5b8063a217fddf1161011e578063a217fddf146106f2578063a5f1e28214610707578063a9059cbb14610727578063b3d7f6b914610747578063b460af9414610767578063b4f6d6131461078757600080fd5b80638a1fcd60146106515780638da5cb5b1461066c57806391d148541461068a57806394bf804d146106aa57806395d89b41146106ca5780639feb8f50146106df57600080fd5b8063248a9ca311610214578063402d267d116101cd578063402d267d146105865780634cdad5061461035c5780635ab764ed146105a65780636e553f65146105c65780636f26a436146105e657806370a0823114610606578063715018a61461063c57600080fd5b8063248a9ca3146104845780632f2ff15d146104b4578063313ce567146104d6578063362a3fad146104fd57806336568abe1461052a57806338d52e0f1461054a57600080fd5b80630a28a477116102665780630a28a4771461039c57806313d033c0146103bc57806318160ddd146103f05780631c073faa146104055780631e5eb1d01461042a57806323b872dd1461046457600080fd5b806301e1d114146102ae57806301ffc9a7146102d657806305fb2a511461030657806306fdde031461033a57806307a2d13a1461035c578063095ea7b31461037c575b600080fd5b3480156102ba57600080fd5b506102c3610932565b6040519081526020015b60405180910390f35b3480156102e257600080fd5b506102f66102f13660046125d7565b6109c7565b60405190151581526020016102cd565b34801561031257600080fd5b506102c37f74e458455daa935f28c556b43e0cc4ad001a8a090f5feee376681e97d4618f4681565b34801561034657600080fd5b5061034f6109f2565b6040516102cd9190612625565b34801561036857600080fd5b506102c3610377366004612658565b610a84565b34801561038857600080fd5b506102f661039736600461268d565b610a91565b3480156103a857600080fd5b506102c36103b7366004612658565b610aa9565b3480156103c857600080fd5b50600b54640100000000900463ffffffff165b60405163ffffffff90911681526020016102cd565b3480156103fc57600080fd5b506002546102c3565b34801561041157600080fd5b50600b546103db90640100000000900463ffffffff1681565b34801561043657600080fd5b50600654600754600854610455926001600160a01b0390811692169083565b6040516102cd939291906126b7565b34801561047057600080fd5b506102f661047f3660046126db565b610ab6565b34801561049057600080fd5b506102c361049f366004612658565b60009081526005602052604090206001015490565b3480156104c057600080fd5b506104d46104cf366004612717565b610adc565b005b3480156104e257600080fd5b506104eb610b07565b60405160ff90911681526020016102cd565b34801561050957600080fd5b5061051d610518366004612743565b610b33565b6040516102cd919061275e565b34801561053657600080fd5b506104d4610545366004612717565b610be6565b34801561055657600080fd5b507f00000000000000000000000000000000000000000000000000000000000000005b6040516102cd91906127a2565b34801561059257600080fd5b506102c36105a1366004612743565b610c1e565b3480156105b257600080fd5b506102c36105c13660046127b6565b610c25565b3480156105d257600080fd5b506102c36105e1366004612717565b610d06565b3480156105f257600080fd5b506104d46106013660046127e0565b610dbf565b34801561061257600080fd5b506102c3610621366004612743565b6001600160a01b031660009081526020819052604090205490565b34801561064857600080fd5b506104d4610e15565b34801561065d57600080fd5b50600b5463ffffffff166103db565b34801561067857600080fd5b506009546001600160a01b0316610579565b34801561069657600080fd5b506102f66106a5366004612717565b610e29565b3480156106b657600080fd5b506102c36106c5366004612717565b610e54565b3480156106d657600080fd5b5061034f610ef9565b6104d46106ed36600461268d565b610f08565b3480156106fe57600080fd5b506102c3600081565b34801561071357600080fd5b506102c3610722366004612743565b611259565b34801561073357600080fd5b506102f661074236600461268d565b61129b565b34801561075357600080fd5b506102c3610762366004612658565b6112a9565b34801561077357600080fd5b506102c3610782366004612806565b6112b6565b34801561079357600080fd5b506102c37f477fc23fb51bb5d5aa814872a393b0e4f35d0916c7503c0fd96584681070d41081565b3480156107c757600080fd5b506102c36107d6366004612806565b611367565b3480156107e757600080fd5b506107f0611438565b6040516102cd9190612842565b34801561080957600080fd5b506102c3610818366004612658565b611499565b34801561082957600080fd5b506102c3610838366004612743565b6114a6565b34801561084957600080fd5b5061085d610858366004612717565b6114b1565b604080519283526020830191909152016102cd565b34801561087e57600080fd5b506102c361088d366004612743565b6115ed565b34801561089e57600080fd5b506104d46108ad366004612717565b611602565b3480156108be57600080fd5b506102c36108cd366004612743565b611627565b3480156108de57600080fd5b506102c36108ed3660046127b6565b611632565b3480156108fe57600080fd5b506104d461090d366004612899565b61165d565b34801561091e57600080fd5b506104d461092d366004612743565b6116a2565b6040516370a0823160e01b81526000906001600160a01b037f000000000000000000000000000000000000000000000000000000000000000016906370a08231906109819030906004016127a2565b602060405180830381865afa15801561099e573d6000803e3d6000fd5b505050506040513d601f19601f820116820180604052508101906109c2919061290f565b905090565b60006001600160e01b0319821663043eff2d60e51b14806109ec57506109ec826116e0565b92915050565b606060038054610a0190612928565b80601f0160208091040260200160405190810160405280929190818152602001828054610a2d90612928565b8015610a7a5780601f10610a4f57610100808354040283529160200191610a7a565b820191906000526020600020905b815481529060010190602001808311610a5d57829003601f168201915b5050505050905090565b60006109ec826000611715565b600033610a9f81858561174f565b5060019392505050565b60006109ec82600161175c565b600033610ac485828561178c565b610acf8585856117d9565b60019150505b9392505050565b600082815260056020526040902060010154610af781611838565b610b018383611842565b50505050565b60006109c2817f0000000000000000000000000000000000000000000000000000000000000000612978565b600c546060908067ffffffffffffffff811115610b5257610b52612883565b604051908082528060200260200182016040528015610b7b578160200160208202803683370190505b50915060005b81811015610bdf57610bba84600c8381548110610ba057610ba0612991565b6000918252602090912001546001600160a01b0316610c25565b838281518110610bcc57610bcc612991565b6020908102919091010152600101610b81565b5050919050565b6001600160a01b0381163314610c0f5760405163334bd91960e11b815260040160405180910390fd5b610c1982826118d6565b505050565b5060001990565b6001600160a01b038082166000908152600e6020908152604080832080549487168452600d9092528220805492939192808503610c695760009450505050506109ec565b6001600160a01b038616600090815260048301602052604081205490610c8f82866129a7565b905082610ca482670de0b6b3a76400006129ba565b610cae91906129e7565b9650610cc2670de0b6b3a7640000886129e7565b965086600003610cd157600196505b60085415610cfa576000610cea88600660020154611943565b9050610cf681896129a7565b9750505b50505050505092915050565b6000610d106119c3565b6001600160a01b038216610d3f5760405162461bcd60e51b8152600401610d36906129fb565b60405180910390fd5b6000610d4a83610c1e565b905080841115610d7357828482604051633c8097d960e11b8152600401610d3693929190612a40565b610d7c84611499565b915081600003610d9e5760405162461bcd60e51b8152600401610d3690612a61565b610daa338486856119ed565b610db48484611a7f565b506109ec6001600a55565b610dc7611bdd565b600b805463ffffffff191663ffffffff83169081179091556040519081527f30131881e801ec5c72cbec6e47ad340b66e5165fa10332f449a92f188a8f27479060200160405180910390a150565b610e1d611bdd565b610e276000611c0a565b565b60009182526005602090815260408084206001600160a01b0393909316845291905290205460ff1690565b6000610e5e6119c3565b6001600160a01b038216610e845760405162461bcd60e51b8152600401610d36906129fb565b6000610e8f83610c1e565b905080841115610eb85782848260405163284ff66760e01b8152600401610d3693929190612a40565b610ec1846112a9565b915081600003610ee35760405162461bcd60e51b8152600401610d3690612a61565b610eef338484876119ed565b610db48284611a7f565b606060048054610a0190612928565b7f477fc23fb51bb5d5aa814872a393b0e4f35d0916c7503c0fd96584681070d410610f3281611838565b81600003610f8c5760405162461bcd60e51b815260206004820152602160248201527f4865646572615661756c743a20416d6f756e742063616e2774206265207a65726044820152606f60f81b6064820152608401610d36565b7f00000000000000000000000000000000000000000000000000000000000000006001600160a01b0316836001600160a01b031614158015610fd757506001600160a01b0383163014155b6110415760405162461bcd60e51b815260206004820152603560248201527f4865646572615661756c743a2052657761726420616e64205374616b696e6720604482015274746f6b656e732063616e6e6f742062652073616d6560581b6064820152608401610d36565b6001600160a01b0383166110a15760405162461bcd60e51b815260206004820152602160248201527f4865646572615661756c743a20496e76616c69642072657761726420746f6b656044820152603760f91b6064820152608401610d36565b6110a9610932565b6000036110f85760405162461bcd60e51b815260206004820181905260248201527f4865646572615661756c743a204e6f20746f6b656e207374616b6564207965746044820152606401610d36565b600c54600a0361111b57604051637561e0ab60e01b815260040160405180910390fd5b6000611132600161112a610932565b859190611c5c565b6001600160a01b0385166000908152600e6020526040902060018101549192509060ff166111cc57600c8054600180820183556000929092527fdf6966c971051c3d54ec59162606531493a51404a002842f56009d7e5cf4a8c70180546001600160a01b0319166001600160a01b038816908117909155828201805460ff19169092179091558282556111c790333087611c7a565b61120f565b6001600160a01b0385166000908152600e6020526040812080548492906111f4908490612a93565b9091555061120f90506001600160a01b038616333087611c7a565b846001600160a01b03167fac24935fd910bc682b5ccb1a07b718cadf8cf2f6d1404c4f3ddc3662dae40e298560405161124a91815260200190565b60405180910390a25050505050565b6000611264826114a6565b6001600160a01b0383166000908152600d60205260409020600281015460019091015461129191906129a7565b6109ec91906129a7565b600033610a9f8185856117d9565b60006109ec826001611715565b60006112c06119c3565b6001600160a01b0383166112e65760405162461bcd60e51b8152600401610d36906129fb565b60006112f1836115ed565b90508085111561131a57828582604051633fa733bb60e21b8152600401610d3693929190612a40565b6113248585611cd4565b61132d85610aa9565b91508160000361134f5760405162461bcd60e51b8152600401610d3690612a61565b61135c3385858886611d30565b50610ad56001600a55565b60006113716119c3565b6001600160a01b0383166113975760405162461bcd60e51b8152600401610d36906129fb565b60006113a283611627565b9050808511156113cb57828582604051632e52afbb60e21b8152600401610d3693929190612a40565b6113d58285611cd4565b6113de85610a84565b91508160000361142b5760405162461bcd60e51b81526020600482015260186024820152774865646572615661756c743a205a65726f2061737365747360401b6044820152606401610d36565b61135c3385858589611d30565b6060600c805480602002602001604051908101604052809291908181526020018280548015610a7a57602002820191906000526020600020905b81546001600160a01b03168152600190910190602001808311611472575050505050905090565b60006109ec82600061175c565b60006109ec82611df0565b600c5460075460009182916001600160a01b031682808381036115225760405162461bcd60e51b815260206004820152602360248201527f4865646572615661756c743a204e6f2072657761726420746f6b656e732065786044820152621a5cdd60ea1b6064820152608401610d36565b875b848110156115de57600c818154811061153f5761153f612991565b6000918252602090912001546001600160a01b031692506115603384610c25565b6001600160a01b038085166000818152600e6020908152604080832054338452600d835281842094845260049094019091529020559092508416156115c2576115bd886115ac84611ec1565b6001600160a01b0386169190611fcb565b6115d6565b6115d66001600160a01b0384168984611fcb565b600101611524565b50969792965091945050505050565b60006109ec6115fb836114a6565b6000611715565b60008281526005602052604090206001015461161d81611838565b610b0183836118d6565b60006109ec826114a6565b6001600160a01b03918216600090815260016020908152604080832093909416825291909152205490565b7f74e458455daa935f28c556b43e0cc4ad001a8a090f5feee376681e97d4618f4661168781611838565b61169e826000015183602001518460400151611ffc565b5050565b6116aa611bdd565b6001600160a01b0381166116d4576000604051631e4fbdf760e01b8152600401610d3691906127a2565b6116dd81611c0a565b50565b60006001600160e01b03198216637965db0b60e01b14806109ec57506301ffc9a760e01b6001600160e01b03198316146109ec565b6000610ad5611722610932565b61172d906001612a93565b6117396000600a612b8a565b6002546117469190612a93565b859190856120ba565b610c19838383600161210b565b6000610ad561176c82600a612b8a565b6002546117799190612a93565b611781610932565b611746906001612a93565b60006117988484611632565b90506000198114610b0157818110156117ca57828183604051637dc7a0d960e11b8152600401610d3693929190612a40565b610b018484848403600061210b565b6001600160a01b038316611803576000604051634b637e8f60e11b8152600401610d3691906127a2565b6001600160a01b03821661182d57600060405163ec442f0560e01b8152600401610d3691906127a2565b610c198383836121d2565b6116dd81336122e9565b600061184e8383610e29565b6118ce5760008381526005602090815260408083206001600160a01b03861684529091529020805460ff191660011790556118863390565b6001600160a01b0316826001600160a01b0316847f2f8788117e7eff1d82e926ec794901d17c78024a50270940304540a733656f0d60405160405180910390a45060016109ec565b5060006109ec565b60006118e28383610e29565b156118ce5760008381526005602090815260408083206001600160a01b0386168085529252808320805460ff1916905551339286917ff6391f5c32d9c69d2a47ea670b442974b53935d1edc7fd64eb21e047a839171b9190a45060016109ec565b600061271061195283856129ba565b10156119ac5760405162461bcd60e51b8152602060048201526024808201527f46433a20546f6f20736d616c6c20616d6f756e7420746f20636f6e73696465726044820152632066656560e01b6064820152608401610d36565b6127106119b983856129ba565b610ad591906129e7565b6002600a54036119e657604051633ee5aeb560e01b815260040160405180910390fd5b6002600a55565b611a197f0000000000000000000000000000000000000000000000000000000000000000853085611c7a565b611a238382612322565b826001600160a01b0316846001600160a01b03167fdcbc1c05240f31ff3ad067ef1ee35ce4997762752e3a095284754544f4c709d78484604051611a71929190918252602082015260400190565b60405180910390a350505050565b336000908152600d602052604090206005015460ff16611b3657600c5460005b81811015611b01576000600c8281548110611abc57611abc612991565b60009182526020808320909101546001600160a01b0316808352600e8252604080842054338552600d8452818520928552600490920190925291205550600101611a9f565b5050336000908152600d60205260409020828155600180820193909355426003820155600501805460ff191690921790915550565b336000908152600d60205260408120549003611bb157336000908152600d602052604081208054849290611b6b908490612a93565b9091555050336000908152600d602052604081206001018054849290611b92908490612a93565b9091555050336000908152600d60205260409020426003909101555050565b611bbc6000826114b1565b5050336000908152600d602052604081208054849290611b6b908490612a93565b6009546001600160a01b03163314610e27573360405163118cdaa760e01b8152600401610d3691906127a2565b600980546001600160a01b038381166001600160a01b0319831681179093556040519116919082907f8be0079c531659141344cd1fd0a4f28419497f9722a3daafe3b4186f6b6457e090600090a35050565b6000826000190484118302158202611c7357600080fd5b5091020490565b610b0184856001600160a01b03166323b872dd868686604051602401611ca2939291906126b7565b604051602081830303815290604052915060e01b6020820180516001600160e01b038381831617835250505050612358565b611cdf6000826114b1565b5050336000908152600d602052604081208054849290611d009084906129a7565b9091555050336000908152600d602052604081206002018054849290611d27908490612a93565b90915550505050565b826001600160a01b0316856001600160a01b031614611d5457611d5483868361178c565b611d5e83826123b2565b611d897f00000000000000000000000000000000000000000000000000000000000000008584611fcb565b826001600160a01b0316846001600160a01b0316866001600160a01b03167ffbde797d201c681b91056529119e0b02407c7bb96a4a2c75c01fc9667232c8db8585604051611de1929190918252602082015260400190565b60405180910390a45050505050565b6001600160a01b0381166000908152600d60205260408120600281015460018201548391611e1d916129a7565b600b546003840154919250600091611e4391640100000000900463ffffffff1690612a93565b905080421080611e51575081155b15611e6157506000949350505050565b600b54600090611e779063ffffffff1683612a93565b9050804210611e8857829450611eb8565b6000611e9483426129a7565b600b5490915063ffffffff16611eaa82866129ba565b611eb491906129e7565b9550505b50505050919050565b6007546008546000916001600160a01b0316908290611ee1908590611943565b905080826001600160a01b03166370a08231306040518263ffffffff1660e01b8152600401611f1091906127a2565b602060405180830381865afa158015611f2d573d6000803e3d6000fd5b505050506040513d601f19601f82011682018060405250810190611f51919061290f565b1015611f9f5760405162461bcd60e51b815260206004820152601e60248201527f46433a20496e73756666696369656e7420746f6b656e2062616c616e636500006044820152606401610d36565b600654611fb9906001600160a01b03848116911683611fcb565b611fc381856129a7565b949350505050565b6040516001600160a01b03838116602483015260448201839052610c1991859182169063a9059cbb90606401611ca2565b612710811061203f5760405162461bcd60e51b815260206004820152600f60248201526e46433a20496e76616c69642066656560881b6044820152606401610d36565b600680546001600160a01b038581166001600160a01b0319928316811790935560078054918616919092168117909155600883905560408051928352602083019190915281018290527febd34b2df88ea5c9f67c04b13b08e5e63c2d17e269aab73b866fe47a8736a2649060600160405180910390a1505050565b6000806120c88686866123e8565b90506120d3836124ac565b80156120ef5750600084806120ea576120ea6129d1565b868809115b15612102576120ff600182612a93565b90505b95945050505050565b6001600160a01b03841661213557600060405163e602df0560e01b8152600401610d3691906127a2565b6001600160a01b03831661215f576000604051634a1406b160e11b8152600401610d3691906127a2565b6001600160a01b0380851660009081526001602090815260408083209387168352929052208290558015610b0157826001600160a01b0316846001600160a01b03167f8c5be1e5ebec7d5bd14f71427d1e84f3dd0314c0f7b2291e5b200ac8c7c3b92584604051611a7191815260200190565b6001600160a01b0383166121fd5780600260008282546121f29190612a93565b9091555061225c9050565b6001600160a01b0383166000908152602081905260409020548181101561223d5783818360405163391434e360e21b8152600401610d3693929190612a40565b6001600160a01b03841660009081526020819052604090209082900390555b6001600160a01b03821661227857600280548290039055612297565b6001600160a01b03821660009081526020819052604090208054820190555b816001600160a01b0316836001600160a01b03167fddf252ad1be2c89b69c2b068fc378daa952ba7f163c4a11628f55a4df523b3ef836040516122dc91815260200190565b60405180910390a3505050565b6122f38282610e29565b61169e5760405163e2517d3f60e01b81526001600160a01b038216600482015260248101839052604401610d36565b6001600160a01b03821661234c57600060405163ec442f0560e01b8152600401610d3691906127a2565b61169e600083836121d2565b600061236d6001600160a01b038416836124d9565b905080516000141580156123925750808060200190518101906123909190612b99565b155b15610c195782604051635274afe760e01b8152600401610d3691906127a2565b6001600160a01b0382166123dc576000604051634b637e8f60e11b8152600401610d3691906127a2565b61169e826000836121d2565b600083830281600019858709828110838203039150508060000361241f57838281612415576124156129d1565b0492505050610ad5565b80841161243f5760405163227bc15360e01b815260040160405180910390fd5b6000848688096000868103871696879004966002600389028118808a02820302808a02820302808a02820302808a02820302808a02820302808a02909103029181900381900460010186841190950394909402919094039290920491909117919091029150509392505050565b600060028260038111156124c2576124c2612bbb565b6124cc9190612bd1565b60ff166001149050919050565b6060610ad58383600084600080856001600160a01b031684866040516124ff9190612bf3565b60006040518083038185875af1925050503d806000811461253c576040519150601f19603f3d011682016040523d82523d6000602084013e612541565b606091505b509150915061255186838361255b565b9695505050505050565b6060826125705761256b826125ae565b610ad5565b815115801561258757506001600160a01b0384163b155b156125a75783604051639996b31560e01b8152600401610d3691906127a2565b5080610ad5565b8051156125be5780518082602001fd5b604051630a12f52160e11b815260040160405180910390fd5b6000602082840312156125e957600080fd5b81356001600160e01b031981168114610ad557600080fd5b60005b8381101561261c578181015183820152602001612604565b50506000910152565b6020815260008251806020840152612644816040850160208701612601565b601f01601f19169190910160400192915050565b60006020828403121561266a57600080fd5b5035919050565b80356001600160a01b038116811461268857600080fd5b919050565b600080604083850312156126a057600080fd5b6126a983612671565b946020939093013593505050565b6001600160a01b039384168152919092166020820152604081019190915260600190565b6000806000606084860312156126f057600080fd5b6126f984612671565b925061270760208501612671565b9150604084013590509250925092565b6000806040838503121561272a57600080fd5b8235915061273a60208401612671565b90509250929050565b60006020828403121561275557600080fd5b610ad582612671565b6020808252825182820181905260009190848201906040850190845b818110156127965783518352928401929184019160010161277a565b50909695505050505050565b6001600160a01b0391909116815260200190565b600080604083850312156127c957600080fd5b6127d283612671565b915061273a60208401612671565b6000602082840312156127f257600080fd5b813563ffffffff81168114610ad557600080fd5b60008060006060848603121561281b57600080fd5b8335925061282b60208501612671565b915061283960408501612671565b90509250925092565b6020808252825182820181905260009190848201906040850190845b818110156127965783516001600160a01b03168352928401929184019160010161285e565b634e487b7160e01b600052604160045260246000fd5b6000606082840312156128ab57600080fd5b6040516060810181811067ffffffffffffffff821117156128dc57634e487b7160e01b600052604160045260246000fd5b6040526128e883612671565b81526128f660208401612671565b6020820152604083013560408201528091505092915050565b60006020828403121561292157600080fd5b5051919050565b600181811c9082168061293c57607f821691505b60208210810361295c57634e487b7160e01b600052602260045260246000fd5b50919050565b634e487b7160e01b600052601160045260246000fd5b60ff81811683821601908111156109ec576109ec612962565b634e487b7160e01b600052603260045260246000fd5b818103818111156109ec576109ec612962565b80820281158282048414176109ec576109ec612962565b634e487b7160e01b600052601260045260246000fd5b6000826129f6576129f66129d1565b500490565b60208082526025908201527f4865646572615661756c743a20496e76616c6964207265636569766572206164604082015264647265737360d81b606082015260800190565b6001600160a01b039390931683526020830191909152604082015260600190565b6020808252601890820152774865646572615661756c743a205a65726f2073686172657360401b604082015260600190565b808201808211156109ec576109ec612962565b600181815b80851115612ae1578160001904821115612ac757612ac7612962565b80851615612ad457918102915b93841c9390800290612aab565b509250929050565b600082612af8575060016109ec565b81612b05575060006109ec565b8160018114612b1b5760028114612b2557612b41565b60019150506109ec565b60ff841115612b3657612b36612962565b50506001821b6109ec565b5060208310610133831016604e8410600b8410161715612b64575081810a6109ec565b612b6e8383612aa6565b8060001904821115612b8257612b82612962565b029392505050565b6000610ad560ff841683612ae9565b600060208284031215612bab57600080fd5b81518015158114610ad557600080fd5b634e487b7160e01b600052602160045260246000fd5b600060ff831680612be457612be46129d1565b8060ff84160691505092915050565b60008251612c05818460208701612601565b919091019291505056fea26469706673582212203c28f0048da90147e1ce877662d38d7a291640629ba8aa6558ebbd226970678364736f6c63430008180033a26469706673582212208739e6f0527591863c417fcd50984996db8772c2f0d6befe0832d03cabb6480564736f6c63430008180033",
  "linkReferences": {},
  "deployedLinkReferences": {}
}