{
  "_format": "hh-sol-artifact-1",
  "contractName": "VaultFactory",
  "sourceName": "contracts/erc4626/factory/VaultFactory.sol",
  "abi": [
    {
      "inputs": [],
      "stateMutability": "nonpayable",
      "type": "constructor"
    },
    {
      "inputs": [
        {
          "internalType": "address",
          "name": "owner",
          "type": "address"
        }
      ],
      "name": "OwnableInvalidOwner",
      "type": "error"
    },
    {
      "inputs": [
        {
          "internalType": "address",
          "name": "account",
          "type": "address"
        }
      ],
      "name": "OwnableUnauthorizedAccount",
      "type": "error"
    },
    {
      "anonymous": false,
      "inputs": [
        {
          "indexed": true,
          "internalType": "address",
          "name": "previousOwner",
          "type": "address"
        },
        {
          "indexed": true,
          "internalType": "address",
          "name": "newOwner",
          "type": "address"
        }
      ],
      "name": "OwnershipTransferred",
      "type": "event"
    },
    {
      "anonymous": false,
      "inputs": [
        {
          "indexed": true,
          "internalType": "address",
          "name": "vault",
          "type": "address"
        },
        {
          "indexed": false,
          "internalType": "string",
          "name": "name",
          "type": "string"
        },
        {
          "indexed": false,
          "internalType": "string",
          "name": "symbol",
          "type": "string"
        }
      ],
      "name": "VaultDeployed",
      "type": "event"
    },
    {
      "inputs": [
        {
          "internalType": "address",
          "name": "vault",
          "type": "address"
        }
      ],
      "name": "availableVaults",
      "outputs": [
        {
          "internalType": "bool",
          "name": "",
          "type": "bool"
        }
      ],
      "stateMutability": "view",
      "type": "function"
    },
    {
      "inputs": [
        {
          "internalType": "string",
          "name": "salt",
          "type": "string"
        },
        {
          "components": [
            {
              "internalType": "address",
              "name": "stakingToken",
              "type": "address"
            },
            {
              "internalType": "string",
              "name": "shareTokenName",
              "type": "string"
            },
            {
              "internalType": "string",
              "name": "shareTokenSymbol",
              "type": "string"
            },
            {
              "internalType": "address",
              "name": "vaultRewardController",
              "type": "address"
            },
            {
              "internalType": "address",
              "name": "feeConfigController",
              "type": "address"
            }
          ],
          "internalType": "struct IVaultFactory.VaultDetails",
          "name": "vaultDetails",
          "type": "tuple"
        },
        {
          "components": [
            {
              "internalType": "address",
              "name": "receiver",
              "type": "address"
            },
            {
              "internalType": "address",
              "name": "token",
              "type": "address"
            },
            {
              "internalType": "uint256",
              "name": "feePercentage",
              "type": "uint256"
            }
          ],
          "internalType": "struct FeeConfiguration.FeeConfig",
          "name": "feeConfig",
          "type": "tuple"
        }
      ],
      "name": "deployVault",
      "outputs": [
        {
          "internalType": "address",
          "name": "vault",
          "type": "address"
        }
      ],
      "stateMutability": "payable",
      "type": "function"
    },
    {
      "inputs": [
        {
          "internalType": "address",
          "name": "vault",
          "type": "address"
        }
      ],
      "name": "isVaultAvailable",
      "outputs": [
        {
          "internalType": "bool",
          "name": "",
          "type": "bool"
        }
      ],
      "stateMutability": "view",
      "type": "function"
    },
    {
      "inputs": [],
      "name": "owner",
      "outputs": [
        {
          "internalType": "address",
          "name": "",
          "type": "address"
        }
      ],
      "stateMutability": "view",
      "type": "function"
    },
    {
      "inputs": [],
      "name": "renounceOwnership",
      "outputs": [],
      "stateMutability": "nonpayable",
      "type": "function"
    },
    {
      "inputs": [
        {
          "internalType": "bytes4",
          "name": "interfaceId",
          "type": "bytes4"
        }
      ],
      "name": "supportsInterface",
      "outputs": [
        {
          "internalType": "bool",
          "name": "",
          "type": "bool"
        }
      ],
      "stateMutability": "view",
      "type": "function"
    },
    {
      "inputs": [
        {
          "internalType": "address",
          "name": "newOwner",
          "type": "address"
        }
      ],
      "name": "transferOwnership",
      "outputs": [],
      "stateMutability": "nonpayable",
      "type": "function"
    },
    {
      "inputs": [
        {
          "internalType": "string",
          "name": "",
          "type": "string"
        }
      ],
      "name": "vaultDeployed",
      "outputs": [
        {
          "internalType": "address",
          "name": "",
          "type": "address"
        }
      ],
      "stateMutability": "view",
      "type": "function"
    }
  ],
  "bytecode": "0x608060405234801561001057600080fd5b50338061003757604051631e4fbdf760e01b81526000600482015260240160405180910390fd5b61004081610046565b50610096565b600080546001600160a01b038381166001600160a01b0319831681178455604051919092169283917f8be0079c531659141344cd1fd0a4f28419497f9722a3daafe3b4186f6b6457e09190a35050565b61434b806100a56000396000f3fe608060405260043610620000855760003560e01c80638da5cb5b11620000545780638da5cb5b1462000142578063f26eb0fd1462000162578063f2fde38b146200019f578063fe738c8314620001c457600080fd5b806301ffc9a7146200008a5780630f98d41114620000c4578063715018a614620000f85780637bac419d1462000112575b600080fd5b3480156200009757600080fd5b50620000af620000a93660046200074e565b62000209565b60405190151581526020015b60405180910390f35b348015620000d157600080fd5b50620000af620000e336600462000781565b60016020526000908152604090205460ff1681565b3480156200010557600080fd5b506200011062000241565b005b6200012962000123366004620007c5565b62000259565b6040516001600160a01b039091168152602001620000bb565b3480156200014f57600080fd5b506000546001600160a01b031662000129565b3480156200016f57600080fd5b50620000af6200018136600462000781565b6001600160a01b031660009081526001602052604090205460ff1690565b348015620001ac57600080fd5b5062000110620001be36600462000781565b62000514565b348015620001d157600080fd5b5062000129620001e33660046200088f565b80516020818301810180516002825292820191909301209152546001600160a01b031681565b60006001600160e01b0319821663044e178b60e51b14806200023b57506301ffc9a760e01b6001600160e01b03198316145b92915050565b6200024b62000558565b62000257600062000587565b565b6000806001600160a01b031660028686604051620002799291906200094a565b908152604051908190036020019020546001600160a01b031614620002de5760405162461bcd60e51b815260206004820152601660248201527515985d5b1d08185b1c9958591e4819195c1b1bde595960521b60448201526064015b60405180910390fd5b6000620002ef602085018562000781565b6001600160a01b0316036200033f5760405162461bcd60e51b815260206004820152601560248201527424b73b30b634b21039ba30b5b4b733903a37b5b2b760591b6044820152606401620002d5565b600062000353608085016060860162000781565b6001600160a01b031603620003b55760405162461bcd60e51b815260206004820152602160248201527f496e76616c69642072657761726420636f6e74726f6c6c6572206164647265736044820152607360f81b6064820152608401620002d5565b6000620003c960a085016080860162000781565b6001600160a01b031603620004215760405162461bcd60e51b815260206004820152601e60248201527f496e76616c69642066656520636f6e74726f6c6c6572206164647265737300006044820152606401620002d5565b6200042f85858585620005d7565b6001600160a01b038116600081815260016020819052604091829020805460ff191690911790555163f2fde38b60e01b81523360048201529192509063f2fde38b90602401600060405180830381600087803b1580156200048f57600080fd5b505af1158015620004a4573d6000803e3d6000fd5b5050506001600160a01b03821690507fd2cdcadeca6ad2e3691c1a25b1067ee469fb437fd70f08d97d607e652c1146d0620004e360208601866200095a565b620004f260408801886200095a565b604051620005049493929190620009d4565b60405180910390a2949350505050565b6200051e62000558565b6001600160a01b0381166200054a57604051631e4fbdf760e01b815260006004820152602401620002d5565b620005558162000587565b50565b6000546001600160a01b03163314620002575760405163118cdaa760e01b8152336004820152602401620002d5565b600080546001600160a01b038381166001600160a01b0319831681178455604051919092169283917f8be0079c531659141344cd1fd0a4f28419497f9722a3daafe3b4186f6b6457e09190a35050565b60008060405180602001620005ec9062000740565b601f1982820381018352601f909101166040529050600062000612602086018662000781565b6200062160208701876200095a565b6200063060408901896200095a565b6200063f60208a018a62000781565b6200065160408b0160208c0162000781565b60408b01356200066860808e0160608f0162000781565b8d60800160208101906200067d919062000781565b604051602001620006989a9998979695949392919062000a0a565b604051602081830303815290604052905060008282604051602001620006c092919062000ab0565b6040516020818303038152906040529050620006de888883620006ea565b98975050505050505050565b6000808484604051602001620007029291906200094a565b604051602081830303815290604052805190602001209050600083602001845183818334f592505050803b6200073757600080fd5b95945050505050565b6138448062000ad283390190565b6000602082840312156200076157600080fd5b81356001600160e01b0319811681146200077a57600080fd5b9392505050565b6000602082840312156200079457600080fd5b81356001600160a01b03811681146200077a57600080fd5b600060608284031215620007bf57600080fd5b50919050565b60008060008060a08587031215620007dc57600080fd5b843567ffffffffffffffff80821115620007f557600080fd5b818701915087601f8301126200080a57600080fd5b8135818111156200081a57600080fd5b8860208285010111156200082d57600080fd5b6020928301965094509086013590808211156200084957600080fd5b50850160a081880312156200085d57600080fd5b91506200086e8660408701620007ac565b905092959194509250565b634e487b7160e01b600052604160045260246000fd5b600060208284031215620008a257600080fd5b813567ffffffffffffffff80821115620008bb57600080fd5b818401915084601f830112620008d057600080fd5b813581811115620008e557620008e562000879565b604051601f8201601f19908116603f0116810190838211818310171562000910576200091062000879565b816040528281528760208487010111156200092a57600080fd5b826020860160208301376000928101602001929092525095945050505050565b8183823760009101908152919050565b6000808335601e198436030181126200097257600080fd5b83018035915067ffffffffffffffff8211156200098e57600080fd5b602001915036819003821315620009a457600080fd5b9250929050565b81835281816020850137506000828201602090810191909152601f909101601f19169091010190565b604081526000620009ea604083018688620009ab565b8281036020840152620009ff818587620009ab565b979650505050505050565b6001600160a01b038b811682526101006020830181905260009162000a338483018d8f620009ab565b9150838203604085015262000a4a828b8d620009ab565b98811660608501529687166080840152505060a081019390935290831660c083015290911660e09091015295945050505050565b6000815160005b8181101562000aa1576020818501810151868301520162000a85565b50600093019283525090919050565b600062000ac962000ac2838662000a7e565b8462000a7e565b94935050505056fe6101006040526040516200384438038062003844833981016040819052620000279162000543565b338585886001600160a01b031663313ce5676040518163ffffffff1660e01b8152600401602060405180830381865afa15801562000069573d6000803e3d6000fd5b505050506040513d601f19601f820116820180604052508101906200008f91906200063c565b60006200009d8482620006f9565b506001620000ac8382620006f9565b5060ff81166080524660a052620000c262000130565b60c0525050506001600160a01b038116620000f857604051631e4fbdf760e01b8152600060048201526024015b60405180910390fd5b6200010381620001cc565b506001600b55620001168383836200021e565b5050506001600160a01b0390921660e05250620008439050565b60007f8b73c3c69bb8fe3d512ecc4cf759cc79239f7b179b0ffacaa9a75d522b39400f6000604051620001649190620007c5565b6040805191829003822060208301939093528101919091527fc89efdaa54c0f20c7adf612882df0950f5a951637e0307cdcb4c672f298b8bc660608201524660808201523060a082015260c00160405160208183030381529060405280519060200120905090565b600a80546001600160a01b038381166001600160a01b0319831681179093556040519116919082907f8be0079c531659141344cd1fd0a4f28419497f9722a3daafe3b4186f6b6457e090600090a35050565b82516020840151604085015162000237929190620002a4565b6200024460003362000364565b50620002717f477fc23fb51bb5d5aa814872a393b0e4f35d0916c7503c0fd96584681070d4108362000364565b506200029e7f74e458455daa935f28c556b43e0cc4ad001a8a090f5feee376681e97d4618f468262000364565b50505050565b6127108110620002e95760405162461bcd60e51b815260206004820152600f60248201526e46433a20496e76616c69642066656560881b6044820152606401620000ef565b600780546001600160a01b038581166001600160a01b0319928316811790935560088054918616919092168117909155600983905560408051928352602083019190915281018290527febd34b2df88ea5c9f67c04b13b08e5e63c2d17e269aab73b866fe47a8736a2649060600160405180910390a1505050565b60008281526006602090815260408083206001600160a01b038516845290915281205460ff166200040d5760008381526006602090815260408083206001600160a01b03861684529091529020805460ff19166001179055620003c43390565b6001600160a01b0316826001600160a01b0316847f2f8788117e7eff1d82e926ec794901d17c78024a50270940304540a733656f0d60405160405180910390a450600162000411565b5060005b92915050565b6001600160a01b03811681146200042d57600080fd5b50565b634e487b7160e01b600052604160045260246000fd5b604051606081016001600160401b03811182821017156200046b576200046b62000430565b60405290565b604051601f8201601f191681016001600160401b03811182821017156200049c576200049c62000430565b604052919050565b600082601f830112620004b657600080fd5b81516001600160401b03811115620004d257620004d262000430565b6020620004e8601f8301601f1916820162000471565b8281528582848701011115620004fd57600080fd5b60005b838110156200051d57858101830151828201840152820162000500565b506000928101909101919091529392505050565b80516200053e8162000417565b919050565b6000806000806000808688036101008112156200055f57600080fd5b87516200056c8162000417565b60208901519097506001600160401b03808211156200058a57600080fd5b620005988b838c01620004a4565b975060408a0151915080821115620005af57600080fd5b50620005be8a828b01620004a4565b9550506060605f1982011215620005d457600080fd5b50620005df62000446565b6060880151620005ef8162000417565b81526080880151620006018162000417565b602082015260a0880151604082015292506200062060c0880162000531565b91506200063060e0880162000531565b90509295509295509295565b6000602082840312156200064f57600080fd5b815160ff811681146200066157600080fd5b9392505050565b600181811c908216806200067d57607f821691505b6020821081036200069e57634e487b7160e01b600052602260045260246000fd5b50919050565b601f821115620006f4576000816000526020600020601f850160051c81016020861015620006cf5750805b601f850160051c820191505b81811015620006f057828155600101620006db565b5050505b505050565b81516001600160401b0381111562000715576200071562000430565b6200072d8162000726845462000668565b84620006a4565b602080601f8311600181146200076557600084156200074c5750858301515b600019600386901b1c1916600185901b178555620006f0565b600085815260208120601f198616915b82811015620007965788860151825594840194600190910190840162000775565b5085821015620007b55787850151600019600388901b60f8161c191681555b5050505050600190811b01905550565b6000808354620007d58162000668565b60018281168015620007f05760018114620008065762000837565b60ff198416875282151583028701945062000837565b8760005260208060002060005b858110156200082e5781548a82015290840190820162000813565b50505082870194505b50929695505050505050565b60805160a05160c05160e051612f8f620008b56000396000818161061301528181610ab001528181610c7b015281816110d6015281816113f7015281816114bb015281816119100152611a9201526000610f5401526000610f240152600081816105590152610e470152612f8f6000f3fe6080604052600436106102ff5760003560e01c80637bb7bed111610190578063b4f6d613116100dc578063d505accf11610095578063dd62ed3e1161006f578063dd62ed3e14610a00578063ef8b30f714610a38578063efa6f42514610a58578063f2fde38b14610a7857600080fd5b8063d505accf1461098a578063d547741f146109aa578063d905777e146109ca57600080fd5b8063b4f6d613146108a8578063ba087652146108dc578063c4f59f9b146108fc578063c63d75b61461064b578063cd9cdfda1461091e578063ce96cb771461096a57600080fd5b806395d89b4111610149578063a8d5fd6511610123578063a8d5fd6514610835578063a9059cbb14610848578063b3d7f6b914610868578063b460af941461088857600080fd5b806395d89b41146107f85780639feb8f501461080d578063a217fddf1461082057600080fd5b80637bb7bed1146107375780637ecebe00146107575780638da5cb5b146107845780638f12c2f4146107a257806391d14854146107b857806394bf804d146107d857600080fd5b8063313ce5671161024f578063402d267d116102085780636e553f65116101e25780636e553f65146106ad57806370a08231146106cd578063715018a6146106fa5780637a07bf3a1461070f57600080fd5b8063402d267d1461064b5780634cdad5061461066d5780635ab764ed1461068d57600080fd5b8063313ce5671461054757806335d16e171461058d578063362a3fad146105a25780633644e515146105cf57806336568abe146105e457806338d52e0f1461060457600080fd5b806316ad0672116102bc57806323b872dd1161029657806323b872dd146104b5578063248a9ca3146104d55780632c62fa10146105055780632f2ff15d1461052557600080fd5b806316ad0672146103f257806318160ddd1461044e5780631e5eb1d01461046457600080fd5b806301e1d1141461030457806301ffc9a71461032c57806305fb2a511461035c57806306fdde0314610390578063095ea7b3146103b25780630a28a477146103d2575b600080fd5b34801561031057600080fd5b50610319610a98565b6040519081526020015b60405180910390f35b34801561033857600080fd5b5061034c61034736600461286a565b610b28565b6040519015158152602001610323565b34801561036857600080fd5b506103197f74e458455daa935f28c556b43e0cc4ad001a8a090f5feee376681e97d4618f4681565b34801561039c57600080fd5b506103a5610b5f565b60405161032391906128b8565b3480156103be57600080fd5b5061034c6103cd366004612907565b610bed565b3480156103de57600080fd5b506103196103ed366004612931565b610c59565b3480156103fe57600080fd5b5061043161040d36600461294a565b600e6020526000908152604090208054600182015460039092015490919060ff1683565b604080519384526020840192909252151590820152606001610323565b34801561045a57600080fd5b5061031960025481565b34801561047057600080fd5b5060075460085460095461048f926001600160a01b0390811692169083565b604080516001600160a01b03948516815293909216602084015290820152606001610323565b3480156104c157600080fd5b5061034c6104d0366004612965565b610d10565b3480156104e157600080fd5b506103196104f0366004612931565b60009081526006602052604090206001015490565b34801561051157600080fd5b5061031961052036600461294a565b610df0565b34801561053157600080fd5b506105456105403660046129a1565b610e12565b005b34801561055357600080fd5b5061057b7f000000000000000000000000000000000000000000000000000000000000000081565b60405160ff9091168152602001610323565b34801561059957600080fd5b50610319610e3d565b3480156105ae57600080fd5b506105c26105bd36600461294a565b610e6d565b60405161032391906129cd565b3480156105db57600080fd5b50610319610f20565b3480156105f057600080fd5b506105456105ff3660046129a1565b610f76565b34801561061057600080fd5b507f00000000000000000000000000000000000000000000000000000000000000005b6040516001600160a01b039091168152602001610323565b34801561065757600080fd5b5061031961066636600461294a565b5060001990565b34801561067957600080fd5b50610319610688366004612931565b610fae565b34801561069957600080fd5b506103196106a8366004612a11565b610fd0565b3480156106b957600080fd5b506103196106c83660046129a1565b611061565b3480156106d957600080fd5b506103196106e836600461294a565b60036020526000908152604090205481565b34801561070657600080fd5b50610545611161565b61072261071d366004612931565b611175565b60408051928352602083019190915201610323565b34801561074357600080fd5b50610633610752366004612931565b6112e6565b34801561076357600080fd5b5061031961077236600461294a565b60056020526000908152604090205481565b34801561079057600080fd5b50600a546001600160a01b0316610633565b3480156107ae57600080fd5b50610319600c5481565b3480156107c457600080fd5b5061034c6107d33660046129a1565b611310565b3480156107e457600080fd5b506103196107f33660046129a1565b61133b565b34801561080457600080fd5b506103a5611428565b61054561081b366004612907565b611435565b34801561082c57600080fd5b50610319600081565b34801561084157600080fd5b5030610633565b34801561085457600080fd5b5061034c610863366004612907565b611784565b34801561087457600080fd5b50610319610883366004612931565b6117ea565b34801561089457600080fd5b506103196108a3366004612a3b565b61180c565b3480156108b457600080fd5b506103197f477fc23fb51bb5d5aa814872a393b0e4f35d0916c7503c0fd96584681070d41081565b3480156108e857600080fd5b506103196108f7366004612a3b565b611997565b34801561090857600080fd5b50610911611b07565b6040516103239190612a77565b34801561092a57600080fd5b5061095561093936600461294a565b600f602052600090815260409020805460019091015460ff1682565b60408051928352901515602083015201610323565b34801561097657600080fd5b5061031961098536600461294a565b611b69565b34801561099657600080fd5b506105456109a5366004612ab8565b611b74565b3480156109b657600080fd5b506105456109c53660046129a1565b611db8565b3480156109d657600080fd5b506103196109e536600461294a565b6001600160a01b031660009081526003602052604090205490565b348015610a0c57600080fd5b50610319610a1b366004612a11565b600460209081526000928352604080842090915290825290205481565b348015610a4457600080fd5b50610319610a53366004612931565b611ddd565b348015610a6457600080fd5b50610545610a73366004612b41565b611dfe565b348015610a8457600080fd5b50610545610a9336600461294a565b611e43565b6040516370a0823160e01b81523060048201526000907f00000000000000000000000000000000000000000000000000000000000000006001600160a01b0316906370a0823190602401602060405180830381865afa158015610aff573d6000803e3d6000fd5b505050506040513d601f19601f82011682018060405250810190610b239190612bb7565b905090565b60006001600160e01b03198216637965db0b60e01b1480610b5957506301ffc9a760e01b6001600160e01b03198316145b92915050565b60008054610b6c90612bd0565b80601f0160208091040260200160405190810160405280929190818152602001828054610b9890612bd0565b8015610be55780601f10610bba57610100808354040283529160200191610be5565b820191906000526020600020905b815481529060010190602001808311610bc857829003601f168201915b505050505081565b3360008181526004602090815260408083206001600160a01b038716808552925280832085905551919290917f8c5be1e5ebec7d5bd14f71427d1e84f3dd0314c0f7b2291e5b200ac8c7c3b92590610c489086815260200190565b60405180910390a350600192915050565b6040516370a0823160e01b815230600482015260009081906001600160a01b037f000000000000000000000000000000000000000000000000000000000000000016906370a0823190602401602060405180830381865afa158015610cc2573d6000803e3d6000fd5b505050506040513d601f19601f82011682018060405250810190610ce69190612bb7565b90508015610d0757610d0281610cfa610a98565b859190611e81565b610d09565b825b9392505050565b6001600160a01b03831660009081526004602090815260408083203384529091528120546000198114610d6c57610d478382612c20565b6001600160a01b03861660009081526004602090815260408083203384529091529020555b6001600160a01b03851660009081526003602052604081208054859290610d94908490612c20565b90915550506001600160a01b0380851660008181526003602052604090819020805487019055519091871690600080516020612f3a83398151915290610ddd9087815260200190565b60405180910390a3506001949350505050565b6001600160a01b038116600090815260036020526040812054610b5990610fae565b600082815260066020526040902060010154610e2d81611ea7565b610e378383611eb1565b50505050565b6000610b236106887f0000000000000000000000000000000000000000000000000000000000000000600a612d17565b600d546060908067ffffffffffffffff811115610e8c57610e8c612b2b565b604051908082528060200260200182016040528015610eb5578160200160208202803683370190505b50915060005b81811015610f1957610ef484600d8381548110610eda57610eda612d26565b6000918252602090912001546001600160a01b0316610fd0565b838281518110610f0657610f06612d26565b6020908102919091010152600101610ebb565b5050919050565b60007f00000000000000000000000000000000000000000000000000000000000000004614610f5157610b23611f45565b507f000000000000000000000000000000000000000000000000000000000000000090565b6001600160a01b0381163314610f9f5760405163334bd91960e11b815260040160405180910390fd5b610fa98282611fdf565b505050565b6002546000908015610d0757610d02610fc5610a98565b60025485919061204c565b6001600160a01b038082166000818152600f6020908152604080832080549588168452600e8352818420805495855260028101909352908320549294909390928561101b8286612c20565b90506110298160018561204c565b600954909750156110555760006110458860076002015461206a565b90506110518189612c20565b9750505b50505050505092915050565b600061106b6120ea565b6001600160a01b03821661109a5760405162461bcd60e51b815260040161109190612d3c565b60405180910390fd5b6110a383611ddd565b9050806000036110c957604051636e3699b760e11b815260048101849052602401611091565b6110fe6001600160a01b037f000000000000000000000000000000000000000000000000000000000000000016333086612114565b611108828461219e565b60408051848152602081018390526001600160a01b0384169133917fdcbc1c05240f31ff3ad067ef1ee35ce4997762752e3a095284754544f4c709d7910160405180910390a3611157836121f8565b610b596001600b55565b611169612321565b611173600061234e565b565b600d5460085460009182916001600160a01b031682808381036111e65760405162461bcd60e51b815260206004820152602360248201527f4865646572615661756c743a204e6f2072657761726420746f6b656e732065786044820152621a5cdd60ea1b6064820152608401611091565b865b848110156112d857600d818154811061120357611203612d26565b6000918252602080832090910154338352600e8252604080842080546001600160a01b039093168086526002909101845281852054600f90945293205492955061125a9260019261125391612c20565b919061204c565b6001600160a01b038085166000818152600f6020908152604080832054338452600e835281842094845260029094019091529020559092508416156112bc576112b7336112a6846123a0565b6001600160a01b03861691906124a7565b6112d0565b6112d06001600160a01b03841633846124a7565b6001016111e8565b509596929550919350505050565b600d81815481106112f657600080fd5b6000918252602090912001546001600160a01b0316905081565b60009182526006602090815260408084206001600160a01b0393909316845291905290205460ff1690565b60006113456120ea565b6001600160a01b03821661136b5760405162461bcd60e51b815260040161109190612d3c565b611374836117ea565b90508060000361139a57604051636e3699b760e11b815260048101849052602401611091565b6113a4828261219e565b60408051828152602081018590526001600160a01b0384169133917fdcbc1c05240f31ff3ad067ef1ee35ce4997762752e3a095284754544f4c709d7910160405180910390a361141f6001600160a01b037f000000000000000000000000000000000000000000000000000000000000000016333084612114565b611157816121f8565b60018054610b6c90612bd0565b7f477fc23fb51bb5d5aa814872a393b0e4f35d0916c7503c0fd96584681070d41061145f81611ea7565b816000036114b95760405162461bcd60e51b815260206004820152602160248201527f4865646572615661756c743a20416d6f756e742063616e2774206265207a65726044820152606f60f81b6064820152608401611091565b7f00000000000000000000000000000000000000000000000000000000000000006001600160a01b0316836001600160a01b03161415801561150457506001600160a01b0383163014155b61156e5760405162461bcd60e51b815260206004820152603560248201527f4865646572615661756c743a2052657761726420616e64205374616b696e6720604482015274746f6b656e732063616e6e6f742062652073616d6560581b6064820152608401611091565b6001600160a01b0383166115ce5760405162461bcd60e51b815260206004820152602160248201527f4865646572615661756c743a20496e76616c69642072657761726420746f6b656044820152603760f91b6064820152608401611091565b600c546000036116205760405162461bcd60e51b815260206004820181905260248201527f4865646572615661756c743a204e6f20746f6b656e207374616b6564207965746044820152606401611091565b600d54600a0361164357604051637561e0ab60e01b815260040160405180910390fd5b600061165d6001600c548561204c9092919063ffffffff16565b6001600160a01b0385166000908152600f6020526040902060018101549192509060ff166116f757600d8054600180820183556000929092527fd7b6990105719101dabeb77144f2a3385c8033acd3af97e9423a695e81ad1eb50180546001600160a01b0319166001600160a01b038816908117909155828201805460ff19169092179091558282556116f290333087612114565b61173a565b6001600160a01b0385166000908152600f60205260408120805484929061171f908490612d81565b9091555061173a90506001600160a01b038616333087612114565b846001600160a01b03167fac24935fd910bc682b5ccb1a07b718cadf8cf2f6d1404c4f3ddc3662dae40e298560405161177591815260200190565b60405180910390a25050505050565b336000908152600360205260408120805483919083906117a5908490612c20565b90915550506001600160a01b03831660008181526003602052604090819020805485019055513390600080516020612f3a83398151915290610c489086815260200190565b6002546000908015610d0757610d02611801610a98565b600254859190611e81565b60006118166120ea565b6001600160a01b03831661183c5760405162461bcd60e51b815260040161109190612d3c565b6001600160a01b0382166118625760405162461bcd60e51b815260040161109190612d94565b61186b84610c59565b9050806000036118b85760405162461bcd60e51b81526020600482015260186024820152774865646572615661756c743a205a65726f2061737365747360401b6044820152606401611091565b6001600160a01b0382166000908152600e60205260409020548111156118f05760405162461bcd60e51b815260040161109190612dd5565b6118f98461251f565b6119038285612563565b6119376001600160a01b037f00000000000000000000000000000000000000000000000000000000000000001684866124a7565b826001600160a01b0316826001600160a01b03167ff341246adaac6f497bc2a656f546ab9e182111d630394f0c57c710a59a2cb5678684604051611985929190918252602082015260400190565b60405180910390a3610d096001600b55565b60006119a16120ea565b6001600160a01b0383166119c75760405162461bcd60e51b815260040161109190612d3c565b6001600160a01b0382166119ed5760405162461bcd60e51b815260040161109190612d94565b6119f684610fae565b905080600003611a435760405162461bcd60e51b81526020600482015260186024820152774865646572615661756c743a205a65726f2061737365747360401b6044820152606401611091565b336000908152600e6020526040902054841115611a725760405162461bcd60e51b815260040161109190612dd5565b611a7b8161251f565b611a858285612563565b611ab96001600160a01b037f00000000000000000000000000000000000000000000000000000000000000001684836124a7565b826001600160a01b0316826001600160a01b03167ff341246adaac6f497bc2a656f546ab9e182111d630394f0c57c710a59a2cb5678387604051611985929190918252602082015260400190565b6060600d805480602002602001604051908101604052809291908181526020018280548015611b5f57602002820191906000526020600020905b81546001600160a01b03168152600190910190602001808311611b41575b5050505050905090565b6000610b5982610df0565b42841015611bc45760405162461bcd60e51b815260206004820152601760248201527f5045524d49545f444541444c494e455f455850495245440000000000000000006044820152606401611091565b60006001611bd0610f20565b6001600160a01b038a811660008181526005602090815260409182902080546001810190915582517f6e71edae12b1b97f4d1f60370fef10105fa2faae0126114a169c64845d6126c98184015280840194909452938d166060840152608083018c905260a083019390935260c08083018b90528151808403909101815260e08301909152805192019190912061190160f01b6101008301526101028201929092526101228101919091526101420160408051601f198184030181528282528051602091820120600084529083018083525260ff871690820152606081018590526080810184905260a0016020604051602081039080840390855afa158015611cdc573d6000803e3d6000fd5b5050604051601f1901519150506001600160a01b03811615801590611d125750876001600160a01b0316816001600160a01b0316145b611d4f5760405162461bcd60e51b815260206004820152600e60248201526d24a72b20a624a22fa9a4a3a722a960911b6044820152606401611091565b6001600160a01b0390811660009081526004602090815260408083208a8516808552908352928190208990555188815291928a16917f8c5be1e5ebec7d5bd14f71427d1e84f3dd0314c0f7b2291e5b200ac8c7c3b925910160405180910390a350505050505050565b600082815260066020526040902060010154611dd381611ea7565b610e378383611fdf565b6002546000908015610d0757610d026001611df6610a98565b85919061204c565b7f74e458455daa935f28c556b43e0cc4ad001a8a090f5feee376681e97d4618f46611e2881611ea7565b611e3f8260000151836020015184604001516125c5565b5050565b611e4b612321565b6001600160a01b038116611e7557604051631e4fbdf760e01b815260006004820152602401611091565b611e7e8161234e565b50565b6000826000190484118302158202611e9857600080fd5b50910281810615159190040190565b611e7e8133612683565b6000611ebd8383611310565b611f3d5760008381526006602090815260408083206001600160a01b03861684529091529020805460ff19166001179055611ef53390565b6001600160a01b0316826001600160a01b0316847f2f8788117e7eff1d82e926ec794901d17c78024a50270940304540a733656f0d60405160405180910390a4506001610b59565b506000610b59565b60007f8b73c3c69bb8fe3d512ecc4cf759cc79239f7b179b0ffacaa9a75d522b39400f6000604051611f779190612e21565b6040805191829003822060208301939093528101919091527fc89efdaa54c0f20c7adf612882df0950f5a951637e0307cdcb4c672f298b8bc660608201524660808201523060a082015260c00160405160208183030381529060405280519060200120905090565b6000611feb8383611310565b15611f3d5760008381526006602090815260408083206001600160a01b0386168085529252808320805460ff1916905551339286917ff6391f5c32d9c69d2a47ea670b442974b53935d1edc7fd64eb21e047a839171b9190a4506001610b59565b600082600019048411830215820261206357600080fd5b5091020490565b60006127106120798385612ec2565b10156120d35760405162461bcd60e51b8152602060048201526024808201527f46433a20546f6f20736d616c6c20616d6f756e7420746f20636f6e73696465726044820152632066656560e01b6064820152608401611091565b6127106120e08385612ec2565b610d099190612ed9565b6002600b540361210d57604051633ee5aeb560e01b815260040160405180910390fd5b6002600b55565b60006040516323b872dd60e01b81528460048201528360248201528260448201526020600060648360008a5af13d15601f3d11600160005114161716915050806121975760405162461bcd60e51b81526020600482015260146024820152731514905394d1915497d19493d357d1905253115160621b6044820152606401611091565b5050505050565b80600260008282546121b09190612d81565b90915550506001600160a01b038216600081815260036020908152604080832080548601905551848152600080516020612f3a83398151915291015b60405180910390a35050565b336000908152600e602052604090206003015460ff166122c157600d5460005b8181101561227a576000600d828154811061223557612235612d26565b60009182526020808320909101546001600160a01b0316808352600f8252604080842054338552600e8452818520928552600290920190925291205550600101612218565b50336000908152600e6020526040812083815560038101805460ff1916600190811790915542910155600c80548492906122b5908490612d81565b90915550611e7e915050565b6122cb6000611175565b5050336000908152600e6020526040812080548392906122ec908490612d81565b9091555050336000908152600e6020526040812042600190910155600c8054839290612319908490612d81565b909155505050565b600a546001600160a01b031633146111735760405163118cdaa760e01b8152336004820152602401611091565b600a80546001600160a01b038381166001600160a01b0319831681179093556040519116919082907f8be0079c531659141344cd1fd0a4f28419497f9722a3daafe3b4186f6b6457e090600090a35050565b6008546009546000916001600160a01b03169082906123c090859061206a565b6040516370a0823160e01b815230600482015290915081906001600160a01b038416906370a0823190602401602060405180830381865afa158015612409573d6000803e3d6000fd5b505050506040513d601f19601f8201168201806040525081019061242d9190612bb7565b101561247b5760405162461bcd60e51b815260206004820152601e60248201527f46433a20496e73756666696369656e7420746f6b656e2062616c616e636500006044820152606401611091565b600754612495906001600160a01b038481169116836126bc565b61249f8185612c20565b949350505050565b600060405163a9059cbb60e01b8152836004820152826024820152602060006044836000895af13d15601f3d1160016000511416171691505080610e375760405162461bcd60e51b815260206004820152600f60248201526e1514905394d1915497d19052531151608a1b6044820152606401611091565b6125296000611175565b5050336000908152600e60205260408120805483929061254a908490612c20565b9250508190555080600c60008282546123199190612c20565b6001600160a01b0382166000908152600360205260408120805483929061258b908490612c20565b90915550506002805482900390556040518181526000906001600160a01b03841690600080516020612f3a833981519152906020016121ec565b61271081106126085760405162461bcd60e51b815260206004820152600f60248201526e46433a20496e76616c69642066656560881b6044820152606401611091565b600780546001600160a01b038581166001600160a01b0319928316811790935560088054918616919092168117909155600983905560408051928352602083019190915281018290527febd34b2df88ea5c9f67c04b13b08e5e63c2d17e269aab73b866fe47a8736a2649060600160405180910390a1505050565b61268d8282611310565b611e3f5760405163e2517d3f60e01b81526001600160a01b038216600482015260248101839052604401611091565b604080516001600160a01b03848116602483015260448083018590528351808403909101815260649092019092526020810180516001600160e01b031663a9059cbb60e01b179052610fa99185919060009061271a90841683612768565b9050805160001415801561273f57508080602001905181019061273d9190612efb565b155b15610fa957604051635274afe760e01b81526001600160a01b0384166004820152602401611091565b6060610d098383600084600080856001600160a01b0316848660405161278e9190612f1d565b60006040518083038185875af1925050503d80600081146127cb576040519150601f19603f3d011682016040523d82523d6000602084013e6127d0565b606091505b50915091506127e08683836127ea565b9695505050505050565b6060826127fa57610d0282612841565b815115801561281157506001600160a01b0384163b155b1561283a57604051639996b31560e01b81526001600160a01b0385166004820152602401611091565b5080610d09565b8051156128515780518082602001fd5b604051630a12f52160e11b815260040160405180910390fd5b60006020828403121561287c57600080fd5b81356001600160e01b031981168114610d0957600080fd5b60005b838110156128af578181015183820152602001612897565b50506000910152565b60208152600082518060208401526128d7816040850160208701612894565b601f01601f19169190910160400192915050565b80356001600160a01b038116811461290257600080fd5b919050565b6000806040838503121561291a57600080fd5b612923836128eb565b946020939093013593505050565b60006020828403121561294357600080fd5b5035919050565b60006020828403121561295c57600080fd5b610d09826128eb565b60008060006060848603121561297a57600080fd5b612983846128eb565b9250612991602085016128eb565b9150604084013590509250925092565b600080604083850312156129b457600080fd5b823591506129c4602084016128eb565b90509250929050565b6020808252825182820181905260009190848201906040850190845b81811015612a05578351835292840192918401916001016129e9565b50909695505050505050565b60008060408385031215612a2457600080fd5b612a2d836128eb565b91506129c4602084016128eb565b600080600060608486031215612a5057600080fd5b83359250612a60602085016128eb565b9150612a6e604085016128eb565b90509250925092565b6020808252825182820181905260009190848201906040850190845b81811015612a055783516001600160a01b031683529284019291840191600101612a93565b600080600080600080600060e0888a031215612ad357600080fd5b612adc886128eb565b9650612aea602089016128eb565b95506040880135945060608801359350608088013560ff81168114612b0e57600080fd5b9699959850939692959460a0840135945060c09093013592915050565b634e487b7160e01b600052604160045260246000fd5b600060608284031215612b5357600080fd5b6040516060810181811067ffffffffffffffff82111715612b8457634e487b7160e01b600052604160045260246000fd5b604052612b90836128eb565b8152612b9e602084016128eb565b6020820152604083013560408201528091505092915050565b600060208284031215612bc957600080fd5b5051919050565b600181811c90821680612be457607f821691505b602082108103612c0457634e487b7160e01b600052602260045260246000fd5b50919050565b634e487b7160e01b600052601160045260246000fd5b81810381811115610b5957610b59612c0a565b600181815b80851115612c6e578160001904821115612c5457612c54612c0a565b80851615612c6157918102915b93841c9390800290612c38565b509250929050565b600082612c8557506001610b59565b81612c9257506000610b59565b8160018114612ca85760028114612cb257612cce565b6001915050610b59565b60ff841115612cc357612cc3612c0a565b50506001821b610b59565b5060208310610133831016604e8410600b8410161715612cf1575081810a610b59565b612cfb8383612c33565b8060001904821115612d0f57612d0f612c0a565b029392505050565b6000610d0960ff841683612c76565b634e487b7160e01b600052603260045260246000fd5b60208082526025908201527f4865646572615661756c743a20496e76616c6964207265636569766572206164604082015264647265737360d81b606082015260800190565b80820180821115610b5957610b59612c0a565b60208082526021908201527f4865646572615661756c743a20496e76616c69642066726f6d206164647265736040820152607360f81b606082015260800190565b6020808252602c908201527f4865646572615661756c743a204e6f7420656e6f756768207368617265206f6e60408201526b207468652062616c616e636560a01b606082015260800190565b60008083548160018260011c91506001831680612e3f57607f831692505b60208084108203612e5e57634e487b7160e01b86526022600452602486fd5b818015612e725760018114612e8757612eb4565b60ff1986168952841515850289019650612eb4565b60008a81526020902060005b86811015612eac5781548b820152908501908301612e93565b505084890196505b509498975050505050505050565b8082028115828204841417610b5957610b59612c0a565b600082612ef657634e487b7160e01b600052601260045260246000fd5b500490565b600060208284031215612f0d57600080fd5b81518015158114610d0957600080fd5b60008251612f2f818460208701612894565b919091019291505056feddf252ad1be2c89b69c2b068fc378daa952ba7f163c4a11628f55a4df523b3efa2646970667358221220ff59c062d0b1f3116637da688da900c5b2cfcc0816310c59643a94374dafa4e264736f6c63430008180033a264697066735822122046d4dc32822f08504002705ac1c3242b8db59cf5ae6e34ee7cb27626aacb9c9664736f6c63430008180033",
  "linkReferences": {},
  "deployedLinkReferences": {}
}