{
  "_format": "hh-sol-artifact-1",
  "contractName": "VaultFactory",
  "sourceName": "contracts/erc4626/factory/VaultFactory.sol",
  "abi": [
    {
      "inputs": [],
      "stateMutability": "nonpayable",
      "type": "constructor"
    },
    {
      "inputs": [
        {
          "internalType": "address",
          "name": "owner",
          "type": "address"
        }
      ],
      "name": "OwnableInvalidOwner",
      "type": "error"
    },
    {
      "inputs": [
        {
          "internalType": "address",
          "name": "account",
          "type": "address"
        }
      ],
      "name": "OwnableUnauthorizedAccount",
      "type": "error"
    },
    {
      "anonymous": false,
      "inputs": [
        {
          "indexed": true,
          "internalType": "address",
          "name": "previousOwner",
          "type": "address"
        },
        {
          "indexed": true,
          "internalType": "address",
          "name": "newOwner",
          "type": "address"
        }
      ],
      "name": "OwnershipTransferred",
      "type": "event"
    },
    {
      "anonymous": false,
      "inputs": [
        {
          "indexed": true,
          "internalType": "address",
          "name": "vault",
          "type": "address"
        },
        {
          "indexed": true,
          "internalType": "address",
          "name": "asset",
          "type": "address"
        },
        {
          "indexed": false,
          "internalType": "string",
          "name": "name",
          "type": "string"
        },
        {
          "indexed": false,
          "internalType": "string",
          "name": "symbol",
          "type": "string"
        }
      ],
      "name": "VaultDeployed",
      "type": "event"
    },
    {
      "inputs": [
        {
          "internalType": "string",
          "name": "salt",
          "type": "string"
        },
        {
          "components": [
            {
              "internalType": "address",
              "name": "stakingToken",
              "type": "address"
            },
            {
              "internalType": "string",
              "name": "shareTokenName",
              "type": "string"
            },
            {
              "internalType": "string",
              "name": "shareTokenSymbol",
              "type": "string"
            },
            {
              "internalType": "address",
              "name": "vaultRewardController",
              "type": "address"
            },
            {
              "internalType": "address",
              "name": "feeConfigController",
              "type": "address"
            }
          ],
          "internalType": "struct IVaultFactory.VaultDetails",
          "name": "vaultDetails",
          "type": "tuple"
        },
        {
          "components": [
            {
              "internalType": "address",
              "name": "receiver",
              "type": "address"
            },
            {
              "internalType": "address",
              "name": "token",
              "type": "address"
            },
            {
              "internalType": "uint256",
              "name": "feePercentage",
              "type": "uint256"
            }
          ],
          "internalType": "struct FeeConfiguration.FeeConfig",
          "name": "feeConfig",
          "type": "tuple"
        }
      ],
      "name": "deployVault",
      "outputs": [
        {
          "internalType": "address",
          "name": "vault",
          "type": "address"
        }
      ],
      "stateMutability": "payable",
      "type": "function"
    },
    {
      "inputs": [],
      "name": "owner",
      "outputs": [
        {
          "internalType": "address",
          "name": "",
          "type": "address"
        }
      ],
      "stateMutability": "view",
      "type": "function"
    },
    {
      "inputs": [],
      "name": "renounceOwnership",
      "outputs": [],
      "stateMutability": "nonpayable",
      "type": "function"
    },
    {
      "inputs": [
        {
          "internalType": "bytes4",
          "name": "interfaceId",
          "type": "bytes4"
        }
      ],
      "name": "supportsInterface",
      "outputs": [
        {
          "internalType": "bool",
          "name": "",
          "type": "bool"
        }
      ],
      "stateMutability": "view",
      "type": "function"
    },
    {
      "inputs": [
        {
          "internalType": "address",
          "name": "newOwner",
          "type": "address"
        }
      ],
      "name": "transferOwnership",
      "outputs": [],
      "stateMutability": "nonpayable",
      "type": "function"
    },
    {
      "inputs": [
        {
          "internalType": "string",
          "name": "",
          "type": "string"
        }
      ],
      "name": "vaultDeployed",
      "outputs": [
        {
          "internalType": "address",
          "name": "",
          "type": "address"
        }
      ],
      "stateMutability": "view",
      "type": "function"
    }
  ],
  "bytecode": "0x608060405234801561001057600080fd5b50338061003757604051631e4fbdf760e01b81526000600482015260240160405180910390fd5b61004081610046565b50610096565b600080546001600160a01b038381166001600160a01b0319831681178455604051919092169283917f8be0079c531659141344cd1fd0a4f28419497f9722a3daafe3b4186f6b6457e09190a35050565b613c44806100a56000396000f3fe6080604052600436106200005c5760003560e01c806301ffc9a71462000061578063715018a6146200009b5780637bac419d14620000b55780638da5cb5b14620000db578063f2fde38b14620000fb578063fe738c831462000120575b600080fd5b3480156200006e57600080fd5b5062000086620000803660046200072a565b62000165565b60405190151581526020015b60405180910390f35b348015620000a857600080fd5b50620000b36200019d565b005b620000cc620000c636600462000776565b620001b5565b6040516200009291906200082a565b348015620000e857600080fd5b506000546001600160a01b0316620000cc565b3480156200010857600080fd5b50620000b36200011a3660046200083e565b620004ee565b3480156200012d57600080fd5b50620000cc6200013f3660046200087f565b80516020818301810180516001825292820191909301209152546001600160a01b031681565b60006001600160e01b03198216637bac419d60e01b14806200019757506301ffc9a760e01b6001600160e01b03198316145b92915050565b620001a762000533565b620001b3600062000563565b565b6000806001600160a01b031660018686604051620001d59291906200093a565b908152604051908190036020019020546001600160a01b0316146200024d5760405162461bcd60e51b8152602060048201526024808201527f5661756c74466163746f72793a205661756c7420616c7265616479206465706c6044820152631bde595960e21b60648201526084015b60405180910390fd5b60006200025e60208501856200083e565b6001600160a01b031603620002c25760405162461bcd60e51b815260206004820152602360248201527f5661756c74466163746f72793a20496e76616c6964207374616b696e6720746f60448201526235b2b760e91b606482015260840162000244565b6000620002d660808501606086016200083e565b6001600160a01b031603620003465760405162461bcd60e51b815260206004820152602f60248201527f5661756c74466163746f72793a20496e76616c69642072657761726420636f6e60448201526e74726f6c6c6572206164647265737360881b606482015260840162000244565b60006200035a60a08501608086016200083e565b6001600160a01b031603620003c75760405162461bcd60e51b815260206004820152602c60248201527f5661756c74466163746f72793a20496e76616c69642066656520636f6e74726f60448201526b6c6c6572206164647265737360a01b606482015260840162000244565b620003d585858585620005b3565b90508060018686604051620003ec9291906200093a565b90815260405190819003602001812080546001600160a01b039384166001600160a01b031990911617905563f2fde38b60e01b81529082169063f2fde38b906200043b9033906004016200082a565b600060405180830381600087803b1580156200045657600080fd5b505af11580156200046b573d6000803e3d6000fd5b506200047f9250505060208401846200083e565b6001600160a01b039081169082167ffd7439309318fc0abb0976e1dddf30d112c3b5c6f4438cca5ee7f70342f97f59620004bd60208701876200094a565b620004cc60408901896200094a565b604051620004de9493929190620009c4565b60405180910390a3949350505050565b620004f862000533565b6001600160a01b03811662000525576000604051631e4fbdf760e01b81526004016200024491906200082a565b620005308162000563565b50565b6000546001600160a01b03163314620001b3573360405163118cdaa760e01b81526004016200024491906200082a565b600080546001600160a01b038381166001600160a01b0319831681178455604051919092169283917f8be0079c531659141344cd1fd0a4f28419497f9722a3daafe3b4186f6b6457e09190a35050565b60008060405180602001620005c8906200071c565b601f1982820381018352601f9091011660405290506000620005ee60208601866200083e565b620005fd60208701876200094a565b6200060c60408901896200094a565b6200061b60208a018a6200083e565b6200062d60408b0160208c016200083e565b60408b01356200064460808e0160608f016200083e565b8d60800160208101906200065991906200083e565b604051602001620006749a99989796959493929190620009fa565b6040516020818303038152906040529050600082826040516020016200069c92919062000aa0565b6040516020818303038152906040529050620006ba888883620006c6565b98975050505050505050565b6000808484604051602001620006de9291906200093a565b604051602081830303815290604052805190602001209050600083602001845183818334f592505050803b6200071357600080fd5b95945050505050565b61314d8062000ac283390190565b6000602082840312156200073d57600080fd5b81356001600160e01b0319811681146200075657600080fd5b9392505050565b6000606082840312156200077057600080fd5b50919050565b60008060008060a085870312156200078d57600080fd5b843567ffffffffffffffff80821115620007a657600080fd5b818701915087601f830112620007bb57600080fd5b813581811115620007cb57600080fd5b886020828501011115620007de57600080fd5b602092830196509450908601359080821115620007fa57600080fd5b50850160a081880312156200080e57600080fd5b91506200081f86604087016200075d565b905092959194509250565b6001600160a01b0391909116815260200190565b6000602082840312156200085157600080fd5b81356001600160a01b03811681146200075657600080fd5b634e487b7160e01b600052604160045260246000fd5b6000602082840312156200089257600080fd5b813567ffffffffffffffff80821115620008ab57600080fd5b818401915084601f830112620008c057600080fd5b813581811115620008d557620008d562000869565b604051601f8201601f19908116603f0116810190838211818310171562000900576200090062000869565b816040528281528760208487010111156200091a57600080fd5b826020860160208301376000928101602001929092525095945050505050565b8183823760009101908152919050565b6000808335601e198436030181126200096257600080fd5b83018035915067ffffffffffffffff8211156200097e57600080fd5b6020019150368190038213156200099457600080fd5b9250929050565b81835281816020850137506000828201602090810191909152601f909101601f19169091010190565b604081526000620009da6040830186886200099b565b8281036020840152620009ef8185876200099b565b979650505050505050565b6001600160a01b038b811682526101006020830181905260009162000a238483018d8f6200099b565b9150838203604085015262000a3a828b8d6200099b565b98811660608501529687166080840152505060a081019390935290831660c083015290911660e09091015295945050505050565b6000815160005b8181101562000a91576020818501810151868301520162000a75565b50600093019283525090919050565b600062000ab962000ab2838662000a6e565b8462000a6e565b94935050505056fe60c06040526040516200314d3803806200314d83398101604081905262000026916200052d565b338686866003620000388382620006b7565b506004620000478282620006b7565b5050506000806200005e83620000da60201b60201c565b91509150816200007057601262000072565b805b60ff1660a05250506001600160a01b039081166080528116620000b057604051631e4fbdf760e01b8152600060048201526024015b60405180910390fd5b620000bb81620001bf565b506001600a55620000ce83838362000211565b505050505050620007bb565b60408051600481526024810182526020810180516001600160e01b031663313ce56760e01b17905290516000918291829182916001600160a01b03871691620001239162000783565b600060405180830381855afa9150503d806000811462000160576040519150601f19603f3d011682016040523d82523d6000602084013e62000165565b606091505b50915091508180156200017a57506020815110155b15620001b257600081806020019051810190620001989190620007a1565b905060ff8111620001b0576001969095509350505050565b505b5060009485945092505050565b600980546001600160a01b038381166001600160a01b0319831681179093556040519116919082907f8be0079c531659141344cd1fd0a4f28419497f9722a3daafe3b4186f6b6457e090600090a35050565b8251602084015160408501516200022a92919062000297565b6200023760003362000357565b50620002647f477fc23fb51bb5d5aa814872a393b0e4f35d0916c7503c0fd96584681070d4108362000357565b50620002917f74e458455daa935f28c556b43e0cc4ad001a8a090f5feee376681e97d4618f468262000357565b50505050565b6127108110620002dc5760405162461bcd60e51b815260206004820152600f60248201526e46433a20496e76616c69642066656560881b6044820152606401620000a7565b600680546001600160a01b038581166001600160a01b0319928316811790935560078054918616919092168117909155600883905560408051928352602083019190915281018290527febd34b2df88ea5c9f67c04b13b08e5e63c2d17e269aab73b866fe47a8736a2649060600160405180910390a1505050565b60008281526005602090815260408083206001600160a01b038516845290915281205460ff16620004005760008381526005602090815260408083206001600160a01b03861684529091529020805460ff19166001179055620003b73390565b6001600160a01b0316826001600160a01b0316847f2f8788117e7eff1d82e926ec794901d17c78024a50270940304540a733656f0d60405160405180910390a450600162000404565b5060005b92915050565b6001600160a01b03811681146200042057600080fd5b50565b634e487b7160e01b600052604160045260246000fd5b604051606081016001600160401b03811182821017156200045e576200045e62000423565b60405290565b60005b838110156200048157818101518382015260200162000467565b50506000910152565b600082601f8301126200049c57600080fd5b81516001600160401b0380821115620004b957620004b962000423565b604051601f8301601f19908116603f01168101908282118183101715620004e457620004e462000423565b81604052838152866020858801011115620004fe57600080fd5b6200051184602083016020890162000464565b9695505050505050565b805162000528816200040a565b919050565b6000806000806000808688036101008112156200054957600080fd5b875162000556816200040a565b60208901519097506001600160401b03808211156200057457600080fd5b620005828b838c016200048a565b975060408a01519150808211156200059957600080fd5b50620005a88a828b016200048a565b9550506060605f1982011215620005be57600080fd5b50620005c962000439565b6060880151620005d9816200040a565b81526080880151620005eb816200040a565b602082015260a0880151604082015292506200060a60c088016200051b565b91506200061a60e088016200051b565b90509295509295509295565b600181811c908216806200063b57607f821691505b6020821081036200065c57634e487b7160e01b600052602260045260246000fd5b50919050565b601f821115620006b2576000816000526020600020601f850160051c810160208610156200068d5750805b601f850160051c820191505b81811015620006ae5782815560010162000699565b5050505b505050565b81516001600160401b03811115620006d357620006d362000423565b620006eb81620006e4845462000626565b8462000662565b602080601f8311600181146200072357600084156200070a5750858301515b600019600386901b1c1916600185901b178555620006ae565b600085815260208120601f198616915b82811015620007545788860151825594840194600190910190840162000733565b5085821015620007735787850151600019600388901b60f8161c191681555b5050505050600190811b01905550565b600082516200079781846020870162000464565b9190910192915050565b600060208284031215620007b457600080fd5b5051919050565b60805160a051612950620007fd60003960006109e30152600081816104be0152818161082001528181610e270152818161183e0152611b6501526129506000f3fe6080604052600436106102675760003560e01c80638da5cb5b11610144578063c4f59f9b116100b6578063d547741f1161007a578063d547741f14610766578063d905777e14610786578063dd62ed3e146107a6578063ef8b30f7146106f1578063efa6f425146107c6578063f2fde38b146107e657600080fd5b8063c4f59f9b146106cf578063c63d75b6146104eb578063c6e6f592146106f1578063cd26c0e614610711578063ce96cb771461074657600080fd5b8063a217fddf11610108578063a217fddf14610606578063a9059cbb1461061b578063b3d7f6b91461063b578063b460af941461065b578063b4f6d6131461067b578063ba087652146106af57600080fd5b80638da5cb5b1461058057806391d148541461059e57806394bf804d146105be57806395d89b41146105de5780639feb8f50146105f357600080fd5b80632f2ff15d116101dd578063402d267d116101a1578063402d267d146104eb5780634cdad5061461031a5780635ab764ed1461050b5780636e553f651461052b57806370a082311461054b578063715018a61461056b57600080fd5b80632f2ff15d14610419578063313ce5671461043b578063362a3fad1461046257806336568abe1461048f57806338d52e0f146104af57600080fd5b8063095ea7b31161022f578063095ea7b31461033a5780630a28a4771461035a57806318160ddd1461037a5780631e5eb1d01461038f57806323b872dd146103c9578063248a9ca3146103e957600080fd5b806301e1d1141461026c57806301ffc9a71461029457806305fb2a51146102c457806306fdde03146102f857806307a2d13a1461031a575b600080fd5b34801561027857600080fd5b50610281610806565b6040519081526020015b60405180910390f35b3480156102a057600080fd5b506102b46102af366004612308565b61089b565b604051901515815260200161028b565b3480156102d057600080fd5b506102817f74e458455daa935f28c556b43e0cc4ad001a8a090f5feee376681e97d4618f4681565b34801561030457600080fd5b5061030d6108c6565b60405161028b9190612356565b34801561032657600080fd5b50610281610335366004612389565b610958565b34801561034657600080fd5b506102b46103553660046123be565b610965565b34801561036657600080fd5b50610281610375366004612389565b61097d565b34801561038657600080fd5b50600254610281565b34801561039b57600080fd5b506006546007546008546103ba926001600160a01b0390811692169083565b60405161028b939291906123e8565b3480156103d557600080fd5b506102b46103e436600461240c565b61098a565b3480156103f557600080fd5b50610281610404366004612389565b60009081526005602052604090206001015490565b34801561042557600080fd5b50610439610434366004612448565b6109b0565b005b34801561044757600080fd5b506104506109db565b60405160ff909116815260200161028b565b34801561046e57600080fd5b5061048261047d366004612474565b610a07565b60405161028b919061248f565b34801561049b57600080fd5b506104396104aa366004612448565b610aba565b3480156104bb57600080fd5b507f00000000000000000000000000000000000000000000000000000000000000005b60405161028b91906124d3565b3480156104f757600080fd5b50610281610506366004612474565b610af2565b34801561051757600080fd5b506102816105263660046124e7565b610af9565b34801561053757600080fd5b50610281610546366004612448565b610bda565b34801561055757600080fd5b50610281610566366004612474565b610c93565b34801561057757600080fd5b50610439610cae565b34801561058c57600080fd5b506009546001600160a01b03166104de565b3480156105aa57600080fd5b506102b46105b9366004612448565b610cc2565b3480156105ca57600080fd5b506102816105d9366004612448565b610ced565b3480156105ea57600080fd5b5061030d610d92565b6104396106013660046123be565b610da1565b34801561061257600080fd5b50610281600081565b34801561062757600080fd5b506102b46106363660046123be565b6110f2565b34801561064757600080fd5b50610281610656366004612389565b611100565b34801561066757600080fd5b50610281610676366004612511565b61110d565b34801561068757600080fd5b506102817f477fc23fb51bb5d5aa814872a393b0e4f35d0916c7503c0fd96584681070d41081565b3480156106bb57600080fd5b506102816106ca366004612511565b6111be565b3480156106db57600080fd5b506106e461128f565b60405161028b919061254d565b3480156106fd57600080fd5b5061028161070c366004612389565b6112f0565b34801561071d57600080fd5b5061073161072c366004612448565b6112fd565b6040805192835260208301919091520161028b565b34801561075257600080fd5b50610281610761366004612474565b611439565b34801561077257600080fd5b50610439610781366004612448565b61144e565b34801561079257600080fd5b506102816107a1366004612474565b611473565b3480156107b257600080fd5b506102816107c13660046124e7565b61147e565b3480156107d257600080fd5b506104396107e13660046125a4565b6114a9565b3480156107f257600080fd5b50610439610801366004612474565b6114ee565b6040516370a0823160e01b81526000906001600160a01b037f000000000000000000000000000000000000000000000000000000000000000016906370a08231906108559030906004016124d3565b602060405180830381865afa158015610872573d6000803e3d6000fd5b505050506040513d601f19601f82011682018060405250810190610896919061261a565b905090565b60006001600160e01b0319821663043eff2d60e51b14806108c057506108c08261152c565b92915050565b6060600380546108d590612633565b80601f016020809104026020016040519081016040528092919081815260200182805461090190612633565b801561094e5780601f106109235761010080835404028352916020019161094e565b820191906000526020600020905b81548152906001019060200180831161093157829003601f168201915b5050505050905090565b60006108c0826000611561565b60003361097381858561159b565b5060019392505050565b60006108c08260016115a8565b6000336109988582856115d8565b6109a3858585611625565b60019150505b9392505050565b6000828152600560205260409020600101546109cb81611684565b6109d5838361168e565b50505050565b6000610896817f0000000000000000000000000000000000000000000000000000000000000000612683565b600b546060908067ffffffffffffffff811115610a2657610a2661258e565b604051908082528060200260200182016040528015610a4f578160200160208202803683370190505b50915060005b81811015610ab357610a8e84600b8381548110610a7457610a7461269c565b6000918252602090912001546001600160a01b0316610af9565b838281518110610aa057610aa061269c565b6020908102919091010152600101610a55565b5050919050565b6001600160a01b0381163314610ae35760405163334bd91960e11b815260040160405180910390fd5b610aed8282611722565b505050565b5060001990565b6001600160a01b038082166000908152600d6020908152604080832080549487168452600c9092528220805492939192808503610b3d5760009450505050506108c0565b6001600160a01b038616600090815260028301602052604081205490610b6382866126b2565b905082610b7882670de0b6b3a76400006126c5565b610b8291906126f2565b9650610b96670de0b6b3a7640000886126f2565b965086600003610ba557600196505b60085415610bce576000610bbe8860066002015461178f565b9050610bca81896126b2565b9750505b50505050505092915050565b6000610be461180f565b6001600160a01b038216610c135760405162461bcd60e51b8152600401610c0a90612706565b60405180910390fd5b6000610c1e83610af2565b905080841115610c4757828482604051633c8097d960e11b8152600401610c0a9392919061274b565b610c50846112f0565b915081600003610c725760405162461bcd60e51b8152600401610c0a9061276c565b610c7e33848685611839565b610c8884846118cb565b506108c06001600a55565b6001600160a01b031660009081526020819052604090205490565b610cb6611a06565b610cc06000611a33565b565b60009182526005602090815260408084206001600160a01b0393909316845291905290205460ff1690565b6000610cf761180f565b6001600160a01b038216610d1d5760405162461bcd60e51b8152600401610c0a90612706565b6000610d2883610af2565b905080841115610d515782848260405163284ff66760e01b8152600401610c0a9392919061274b565b610d5a84611100565b915081600003610d7c5760405162461bcd60e51b8152600401610c0a9061276c565b610d8833848487611839565b610c8882846118cb565b6060600480546108d590612633565b7f477fc23fb51bb5d5aa814872a393b0e4f35d0916c7503c0fd96584681070d410610dcb81611684565b81600003610e255760405162461bcd60e51b815260206004820152602160248201527f4865646572615661756c743a20416d6f756e742063616e2774206265207a65726044820152606f60f81b6064820152608401610c0a565b7f00000000000000000000000000000000000000000000000000000000000000006001600160a01b0316836001600160a01b031614158015610e7057506001600160a01b0383163014155b610eda5760405162461bcd60e51b815260206004820152603560248201527f4865646572615661756c743a2052657761726420616e64205374616b696e6720604482015274746f6b656e732063616e6e6f742062652073616d6560581b6064820152608401610c0a565b6001600160a01b038316610f3a5760405162461bcd60e51b815260206004820152602160248201527f4865646572615661756c743a20496e76616c69642072657761726420746f6b656044820152603760f91b6064820152608401610c0a565b610f42610806565b600003610f915760405162461bcd60e51b815260206004820181905260248201527f4865646572615661756c743a204e6f20746f6b656e207374616b6564207965746044820152606401610c0a565b600b54600a03610fb457604051637561e0ab60e01b815260040160405180910390fd5b6000610fcb6001610fc3610806565b859190611a85565b6001600160a01b0385166000908152600d6020526040902060018101549192509060ff1661106557600b8054600180820183556000929092527f0175b7a638427703f0dbe7bb9bbf987a2551717b34e79f33b5b1008d1fa01db90180546001600160a01b0319166001600160a01b038816908117909155828201805460ff191690921790915582825561106090333087611aa3565b6110a8565b6001600160a01b0385166000908152600d60205260408120805484929061108d90849061279e565b909155506110a890506001600160a01b038616333087611aa3565b846001600160a01b03167fac24935fd910bc682b5ccb1a07b718cadf8cf2f6d1404c4f3ddc3662dae40e29856040516110e391815260200190565b60405180910390a25050505050565b600033610973818585611625565b60006108c0826001611561565b600061111761180f565b6001600160a01b03831661113d5760405162461bcd60e51b8152600401610c0a90612706565b600061114883611439565b90508085111561117157828582604051633fa733bb60e21b8152600401610c0a9392919061274b565b61117b8585611afd565b6111848561097d565b9150816000036111a65760405162461bcd60e51b8152600401610c0a9061276c565b6111b33385858886611b32565b506109a96001600a55565b60006111c861180f565b6001600160a01b0383166111ee5760405162461bcd60e51b8152600401610c0a90612706565b60006111f983611473565b90508085111561122257828582604051632e52afbb60e21b8152600401610c0a9392919061274b565b61122c8285611afd565b61123585610958565b9150816000036112825760405162461bcd60e51b81526020600482015260186024820152774865646572615661756c743a205a65726f2061737365747360401b6044820152606401610c0a565b6111b33385858589611b32565b6060600b80548060200260200160405190810160405280929190818152602001828054801561094e57602002820191906000526020600020905b81546001600160a01b031681526001909101906020018083116112c9575050505050905090565b60006108c08260006115a8565b600b5460075460009182916001600160a01b0316828083810361136e5760405162461bcd60e51b815260206004820152602360248201527f4865646572615661756c743a204e6f2072657761726420746f6b656e732065786044820152621a5cdd60ea1b6064820152608401610c0a565b875b8481101561142a57600b818154811061138b5761138b61269c565b6000918252602090912001546001600160a01b031692506113ac3384610af9565b6001600160a01b038085166000818152600d6020908152604080832054338452600c8352818420948452600290940190915290205590925084161561140e57611409886113f884611bf2565b6001600160a01b0386169190611cfc565b611422565b6114226001600160a01b0384168984611cfc565b600101611370565b50969792965091945050505050565b60006108c061144783610c93565b6000611561565b60008281526005602052604090206001015461146981611684565b6109d58383611722565b60006108c082610c93565b6001600160a01b03918216600090815260016020908152604080832093909416825291909152205490565b7f74e458455daa935f28c556b43e0cc4ad001a8a090f5feee376681e97d4618f466114d381611684565b6114ea826000015183602001518460400151611d2d565b5050565b6114f6611a06565b6001600160a01b038116611520576000604051631e4fbdf760e01b8152600401610c0a91906124d3565b61152981611a33565b50565b60006001600160e01b03198216637965db0b60e01b14806108c057506301ffc9a760e01b6001600160e01b03198316146108c0565b60006109a961156e610806565b61157990600161279e565b6115856000600a612895565b600254611592919061279e565b85919085611deb565b610aed8383836001611e3c565b60006109a96115b882600a612895565b6002546115c5919061279e565b6115cd610806565b61159290600161279e565b60006115e4848461147e565b905060001981146109d5578181101561161657828183604051637dc7a0d960e11b8152600401610c0a9392919061274b565b6109d584848484036000611e3c565b6001600160a01b03831661164f576000604051634b637e8f60e11b8152600401610c0a91906124d3565b6001600160a01b03821661167957600060405163ec442f0560e01b8152600401610c0a91906124d3565b610aed838383611f03565b611529813361201a565b600061169a8383610cc2565b61171a5760008381526005602090815260408083206001600160a01b03861684529091529020805460ff191660011790556116d23390565b6001600160a01b0316826001600160a01b0316847f2f8788117e7eff1d82e926ec794901d17c78024a50270940304540a733656f0d60405160405180910390a45060016108c0565b5060006108c0565b600061172e8383610cc2565b1561171a5760008381526005602090815260408083206001600160a01b0386168085529252808320805460ff1916905551339286917ff6391f5c32d9c69d2a47ea670b442974b53935d1edc7fd64eb21e047a839171b9190a45060016108c0565b600061271061179e83856126c5565b10156117f85760405162461bcd60e51b8152602060048201526024808201527f46433a20546f6f20736d616c6c20616d6f756e7420746f20636f6e73696465726044820152632066656560e01b6064820152608401610c0a565b61271061180583856126c5565b6109a991906126f2565b6002600a540361183257604051633ee5aeb560e01b815260040160405180910390fd5b6002600a55565b6118657f0000000000000000000000000000000000000000000000000000000000000000853085611aa3565b61186f8382612053565b826001600160a01b0316846001600160a01b03167fdcbc1c05240f31ff3ad067ef1ee35ce4997762752e3a095284754544f4c709d784846040516118bd929190918252602082015260400190565b60405180910390a350505050565b336000908152600c602052604090206003015460ff1661197b57600b5460005b8181101561194d576000600b82815481106119085761190861269c565b60009182526020808320909101546001600160a01b0316808352600d8252604080842054338552600c84528185209285526002909201909252912055506001016118eb565b5050336000908152600c6020526040902082815560038101805460ff19166001908117909155429101555050565b336000908152600c602052604081205490036119bb57336000908152600c6020526040812080548492906119b090849061279e565b909155506114ea9050565b6119c66000826112fd565b5050336000908152600c6020526040812080548492906119e790849061279e565b9091555050336000908152600c60205260409020426001909101555050565b6009546001600160a01b03163314610cc0573360405163118cdaa760e01b8152600401610c0a91906124d3565b600980546001600160a01b038381166001600160a01b0319831681179093556040519116919082907f8be0079c531659141344cd1fd0a4f28419497f9722a3daafe3b4186f6b6457e090600090a35050565b6000826000190484118302158202611a9c57600080fd5b5091020490565b6109d584856001600160a01b03166323b872dd868686604051602401611acb939291906123e8565b604051602081830303815290604052915060e01b6020820180516001600160e01b038381831617835250505050612089565b611b086000826112fd565b5050336000908152600c602052604081208054849290611b299084906126b2565b90915550505050565b826001600160a01b0316856001600160a01b031614611b5657611b568386836115d8565b611b6083826120e3565b611b8b7f00000000000000000000000000000000000000000000000000000000000000008584611cfc565b826001600160a01b0316846001600160a01b0316866001600160a01b03167ffbde797d201c681b91056529119e0b02407c7bb96a4a2c75c01fc9667232c8db8585604051611be3929190918252602082015260400190565b60405180910390a45050505050565b6007546008546000916001600160a01b0316908290611c1290859061178f565b905080826001600160a01b03166370a08231306040518263ffffffff1660e01b8152600401611c4191906124d3565b602060405180830381865afa158015611c5e573d6000803e3d6000fd5b505050506040513d601f19601f82011682018060405250810190611c82919061261a565b1015611cd05760405162461bcd60e51b815260206004820152601e60248201527f46433a20496e73756666696369656e7420746f6b656e2062616c616e636500006044820152606401610c0a565b600654611cea906001600160a01b03848116911683611cfc565b611cf481856126b2565b949350505050565b6040516001600160a01b03838116602483015260448201839052610aed91859182169063a9059cbb90606401611acb565b6127108110611d705760405162461bcd60e51b815260206004820152600f60248201526e46433a20496e76616c69642066656560881b6044820152606401610c0a565b600680546001600160a01b038581166001600160a01b0319928316811790935560078054918616919092168117909155600883905560408051928352602083019190915281018290527febd34b2df88ea5c9f67c04b13b08e5e63c2d17e269aab73b866fe47a8736a2649060600160405180910390a1505050565b600080611df9868686612119565b9050611e04836121dd565b8015611e20575060008480611e1b57611e1b6126dc565b868809115b15611e3357611e3060018261279e565b90505b95945050505050565b6001600160a01b038416611e6657600060405163e602df0560e01b8152600401610c0a91906124d3565b6001600160a01b038316611e90576000604051634a1406b160e11b8152600401610c0a91906124d3565b6001600160a01b03808516600090815260016020908152604080832093871683529290522082905580156109d557826001600160a01b0316846001600160a01b03167f8c5be1e5ebec7d5bd14f71427d1e84f3dd0314c0f7b2291e5b200ac8c7c3b925846040516118bd91815260200190565b6001600160a01b038316611f2e578060026000828254611f23919061279e565b90915550611f8d9050565b6001600160a01b03831660009081526020819052604090205481811015611f6e5783818360405163391434e360e21b8152600401610c0a9392919061274b565b6001600160a01b03841660009081526020819052604090209082900390555b6001600160a01b038216611fa957600280548290039055611fc8565b6001600160a01b03821660009081526020819052604090208054820190555b816001600160a01b0316836001600160a01b03167fddf252ad1be2c89b69c2b068fc378daa952ba7f163c4a11628f55a4df523b3ef8360405161200d91815260200190565b60405180910390a3505050565b6120248282610cc2565b6114ea5760405163e2517d3f60e01b81526001600160a01b038216600482015260248101839052604401610c0a565b6001600160a01b03821661207d57600060405163ec442f0560e01b8152600401610c0a91906124d3565b6114ea60008383611f03565b600061209e6001600160a01b0384168361220a565b905080516000141580156120c35750808060200190518101906120c191906128a4565b155b15610aed5782604051635274afe760e01b8152600401610c0a91906124d3565b6001600160a01b03821661210d576000604051634b637e8f60e11b8152600401610c0a91906124d3565b6114ea82600083611f03565b600083830281600019858709828110838203039150508060000361215057838281612146576121466126dc565b04925050506109a9565b8084116121705760405163227bc15360e01b815260040160405180910390fd5b6000848688096000868103871696879004966002600389028118808a02820302808a02820302808a02820302808a02820302808a02820302808a02909103029181900381900460010186841190950394909402919094039290920491909117919091029150509392505050565b600060028260038111156121f3576121f36128c6565b6121fd91906128dc565b60ff166001149050919050565b60606109a98383600084600080856001600160a01b0316848660405161223091906128fe565b60006040518083038185875af1925050503d806000811461226d576040519150601f19603f3d011682016040523d82523d6000602084013e612272565b606091505b509150915061228286838361228c565b9695505050505050565b6060826122a15761229c826122df565b6109a9565b81511580156122b857506001600160a01b0384163b155b156122d85783604051639996b31560e01b8152600401610c0a91906124d3565b50806109a9565b8051156122ef5780518082602001fd5b604051630a12f52160e11b815260040160405180910390fd5b60006020828403121561231a57600080fd5b81356001600160e01b0319811681146109a957600080fd5b60005b8381101561234d578181015183820152602001612335565b50506000910152565b6020815260008251806020840152612375816040850160208701612332565b601f01601f19169190910160400192915050565b60006020828403121561239b57600080fd5b5035919050565b80356001600160a01b03811681146123b957600080fd5b919050565b600080604083850312156123d157600080fd5b6123da836123a2565b946020939093013593505050565b6001600160a01b039384168152919092166020820152604081019190915260600190565b60008060006060848603121561242157600080fd5b61242a846123a2565b9250612438602085016123a2565b9150604084013590509250925092565b6000806040838503121561245b57600080fd5b8235915061246b602084016123a2565b90509250929050565b60006020828403121561248657600080fd5b6109a9826123a2565b6020808252825182820181905260009190848201906040850190845b818110156124c7578351835292840192918401916001016124ab565b50909695505050505050565b6001600160a01b0391909116815260200190565b600080604083850312156124fa57600080fd5b612503836123a2565b915061246b602084016123a2565b60008060006060848603121561252657600080fd5b83359250612536602085016123a2565b9150612544604085016123a2565b90509250925092565b6020808252825182820181905260009190848201906040850190845b818110156124c75783516001600160a01b031683529284019291840191600101612569565b634e487b7160e01b600052604160045260246000fd5b6000606082840312156125b657600080fd5b6040516060810181811067ffffffffffffffff821117156125e757634e487b7160e01b600052604160045260246000fd5b6040526125f3836123a2565b8152612601602084016123a2565b6020820152604083013560408201528091505092915050565b60006020828403121561262c57600080fd5b5051919050565b600181811c9082168061264757607f821691505b60208210810361266757634e487b7160e01b600052602260045260246000fd5b50919050565b634e487b7160e01b600052601160045260246000fd5b60ff81811683821601908111156108c0576108c061266d565b634e487b7160e01b600052603260045260246000fd5b818103818111156108c0576108c061266d565b80820281158282048414176108c0576108c061266d565b634e487b7160e01b600052601260045260246000fd5b600082612701576127016126dc565b500490565b60208082526025908201527f4865646572615661756c743a20496e76616c6964207265636569766572206164604082015264647265737360d81b606082015260800190565b6001600160a01b039390931683526020830191909152604082015260600190565b6020808252601890820152774865646572615661756c743a205a65726f2073686172657360401b604082015260600190565b808201808211156108c0576108c061266d565b600181815b808511156127ec5781600019048211156127d2576127d261266d565b808516156127df57918102915b93841c93908002906127b6565b509250929050565b600082612803575060016108c0565b81612810575060006108c0565b816001811461282657600281146128305761284c565b60019150506108c0565b60ff8411156128415761284161266d565b50506001821b6108c0565b5060208310610133831016604e8410600b841016171561286f575081810a6108c0565b61287983836127b1565b806000190482111561288d5761288d61266d565b029392505050565b60006109a960ff8416836127f4565b6000602082840312156128b657600080fd5b815180151581146109a957600080fd5b634e487b7160e01b600052602160045260246000fd5b600060ff8316806128ef576128ef6126dc565b8060ff84160691505092915050565b60008251612910818460208701612332565b919091019291505056fea2646970667358221220e37de1f2ba64fa60e172016eccd9ce11318a41ac81f463f731330fbc6e721d1764736f6c63430008180033a2646970667358221220191aafcdac91d84e2a06bb46aa46d596740e9a643f5485c123b44b77896b622364736f6c63430008180033",
  "linkReferences": {},
  "deployedLinkReferences": {}
}