{
  "_format": "hh-sol-artifact-1",
  "contractName": "Verifier",
  "sourceName": "contracts/onchainid/verifiers/Verifier.sol",
  "abi": [
    {
      "inputs": [],
      "stateMutability": "nonpayable",
      "type": "constructor"
    },
    {
      "inputs": [
        {
          "internalType": "address",
          "name": "owner",
          "type": "address"
        }
      ],
      "name": "OwnableInvalidOwner",
      "type": "error"
    },
    {
      "inputs": [
        {
          "internalType": "address",
          "name": "account",
          "type": "address"
        }
      ],
      "name": "OwnableUnauthorizedAccount",
      "type": "error"
    },
    {
      "anonymous": false,
      "inputs": [
        {
          "indexed": true,
          "internalType": "uint256",
          "name": "claimTopic",
          "type": "uint256"
        }
      ],
      "name": "ClaimTopicAdded",
      "type": "event"
    },
    {
      "anonymous": false,
      "inputs": [
        {
          "indexed": true,
          "internalType": "uint256",
          "name": "claimTopic",
          "type": "uint256"
        }
      ],
      "name": "ClaimTopicRemoved",
      "type": "event"
    },
    {
      "anonymous": false,
      "inputs": [
        {
          "indexed": true,
          "internalType": "contract IClaimIssuer",
          "name": "trustedIssuer",
          "type": "address"
        },
        {
          "indexed": false,
          "internalType": "uint256[]",
          "name": "claimTopics",
          "type": "uint256[]"
        }
      ],
      "name": "ClaimTopicsUpdated",
      "type": "event"
    },
    {
      "anonymous": false,
      "inputs": [
        {
          "indexed": true,
          "internalType": "address",
          "name": "previousOwner",
          "type": "address"
        },
        {
          "indexed": true,
          "internalType": "address",
          "name": "newOwner",
          "type": "address"
        }
      ],
      "name": "OwnershipTransferred",
      "type": "event"
    },
    {
      "anonymous": false,
      "inputs": [
        {
          "indexed": true,
          "internalType": "contract IClaimIssuer",
          "name": "trustedIssuer",
          "type": "address"
        },
        {
          "indexed": false,
          "internalType": "uint256[]",
          "name": "claimTopics",
          "type": "uint256[]"
        }
      ],
      "name": "TrustedIssuerAdded",
      "type": "event"
    },
    {
      "anonymous": false,
      "inputs": [
        {
          "indexed": true,
          "internalType": "contract IClaimIssuer",
          "name": "trustedIssuer",
          "type": "address"
        }
      ],
      "name": "TrustedIssuerRemoved",
      "type": "event"
    },
    {
      "inputs": [
        {
          "internalType": "uint256",
          "name": "claimTopic",
          "type": "uint256"
        }
      ],
      "name": "addClaimTopic",
      "outputs": [],
      "stateMutability": "nonpayable",
      "type": "function"
    },
    {
      "inputs": [
        {
          "internalType": "contract IClaimIssuer",
          "name": "trustedIssuer",
          "type": "address"
        },
        {
          "internalType": "uint256[]",
          "name": "claimTopics",
          "type": "uint256[]"
        }
      ],
      "name": "addTrustedIssuer",
      "outputs": [],
      "stateMutability": "nonpayable",
      "type": "function"
    },
    {
      "inputs": [
        {
          "internalType": "uint256",
          "name": "",
          "type": "uint256"
        },
        {
          "internalType": "uint256",
          "name": "",
          "type": "uint256"
        }
      ],
      "name": "claimTopicsToTrustedIssuers",
      "outputs": [
        {
          "internalType": "contract IClaimIssuer",
          "name": "",
          "type": "address"
        }
      ],
      "stateMutability": "view",
      "type": "function"
    },
    {
      "inputs": [
        {
          "internalType": "contract IClaimIssuer",
          "name": "trustedIssuer",
          "type": "address"
        }
      ],
      "name": "getTrustedIssuerClaimTopics",
      "outputs": [
        {
          "internalType": "uint256[]",
          "name": "",
          "type": "uint256[]"
        }
      ],
      "stateMutability": "view",
      "type": "function"
    },
    {
      "inputs": [],
      "name": "getTrustedIssuers",
      "outputs": [
        {
          "internalType": "contract IClaimIssuer[]",
          "name": "",
          "type": "address[]"
        }
      ],
      "stateMutability": "view",
      "type": "function"
    },
    {
      "inputs": [
        {
          "internalType": "uint256",
          "name": "claimTopic",
          "type": "uint256"
        }
      ],
      "name": "getTrustedIssuersForClaimTopic",
      "outputs": [
        {
          "internalType": "contract IClaimIssuer[]",
          "name": "",
          "type": "address[]"
        }
      ],
      "stateMutability": "view",
      "type": "function"
    },
    {
      "inputs": [
        {
          "internalType": "address",
          "name": "issuer",
          "type": "address"
        },
        {
          "internalType": "uint256",
          "name": "claimTopic",
          "type": "uint256"
        }
      ],
      "name": "hasClaimTopic",
      "outputs": [
        {
          "internalType": "bool",
          "name": "",
          "type": "bool"
        }
      ],
      "stateMutability": "view",
      "type": "function"
    },
    {
      "inputs": [
        {
          "internalType": "uint256",
          "name": "claimTopic",
          "type": "uint256"
        }
      ],
      "name": "isClaimTopicRequired",
      "outputs": [
        {
          "internalType": "bool",
          "name": "",
          "type": "bool"
        }
      ],
      "stateMutability": "view",
      "type": "function"
    },
    {
      "inputs": [
        {
          "internalType": "address",
          "name": "issuer",
          "type": "address"
        }
      ],
      "name": "isTrustedIssuer",
      "outputs": [
        {
          "internalType": "bool",
          "name": "",
          "type": "bool"
        }
      ],
      "stateMutability": "view",
      "type": "function"
    },
    {
      "inputs": [],
      "name": "owner",
      "outputs": [
        {
          "internalType": "address",
          "name": "",
          "type": "address"
        }
      ],
      "stateMutability": "view",
      "type": "function"
    },
    {
      "inputs": [
        {
          "internalType": "uint256",
          "name": "claimTopic",
          "type": "uint256"
        }
      ],
      "name": "removeClaimTopic",
      "outputs": [],
      "stateMutability": "nonpayable",
      "type": "function"
    },
    {
      "inputs": [
        {
          "internalType": "contract IClaimIssuer",
          "name": "trustedIssuer",
          "type": "address"
        }
      ],
      "name": "removeTrustedIssuer",
      "outputs": [],
      "stateMutability": "nonpayable",
      "type": "function"
    },
    {
      "inputs": [],
      "name": "renounceOwnership",
      "outputs": [],
      "stateMutability": "nonpayable",
      "type": "function"
    },
    {
      "inputs": [
        {
          "internalType": "uint256",
          "name": "",
          "type": "uint256"
        }
      ],
      "name": "requiredClaimTopics",
      "outputs": [
        {
          "internalType": "uint256",
          "name": "",
          "type": "uint256"
        }
      ],
      "stateMutability": "view",
      "type": "function"
    },
    {
      "inputs": [
        {
          "internalType": "address",
          "name": "newOwner",
          "type": "address"
        }
      ],
      "name": "transferOwnership",
      "outputs": [],
      "stateMutability": "nonpayable",
      "type": "function"
    },
    {
      "inputs": [
        {
          "internalType": "address",
          "name": "",
          "type": "address"
        },
        {
          "internalType": "uint256",
          "name": "",
          "type": "uint256"
        }
      ],
      "name": "trustedIssuerClaimTopics",
      "outputs": [
        {
          "internalType": "uint256",
          "name": "",
          "type": "uint256"
        }
      ],
      "stateMutability": "view",
      "type": "function"
    },
    {
      "inputs": [
        {
          "internalType": "uint256",
          "name": "",
          "type": "uint256"
        }
      ],
      "name": "trustedIssuers",
      "outputs": [
        {
          "internalType": "contract IClaimIssuer",
          "name": "",
          "type": "address"
        }
      ],
      "stateMutability": "view",
      "type": "function"
    },
    {
      "inputs": [
        {
          "internalType": "contract IClaimIssuer",
          "name": "trustedIssuer",
          "type": "address"
        },
        {
          "internalType": "uint256[]",
          "name": "newClaimTopics",
          "type": "uint256[]"
        }
      ],
      "name": "updateIssuerClaimTopics",
      "outputs": [],
      "stateMutability": "nonpayable",
      "type": "function"
    },
    {
      "inputs": [
        {
          "internalType": "address",
          "name": "identity",
          "type": "address"
        }
      ],
      "name": "verify",
      "outputs": [
        {
          "internalType": "bool",
          "name": "isVerified",
          "type": "bool"
        }
      ],
      "stateMutability": "view",
      "type": "function"
    }
  ],
  "bytecode": "0x608060405234801561001057600080fd5b50338061003757604051631e4fbdf760e01b81526000600482015260240160405180910390fd5b61004081610046565b50610096565b600080546001600160a01b038381166001600160a01b0319831681178455604051919092169283917f8be0079c531659141344cd1fd0a4f28419497f9722a3daafe3b4186f6b6457e09190a35050565b611cd6806100a56000396000f3fe608060405234801561001057600080fd5b50600436106101115760003560e01c8063b5fa8693116100ad578063c7b2255111610071578063c7b225511461025b578063c801dd401461026e578063d9dd24c514610281578063ef2ed1a414610289578063f2fde38b1461029c57600080fd5b8063b5fa8693146101e1578063b93d28eb14610202578063ba64c34114610215578063be36359f14610228578063c28fb2781461023b57600080fd5b806304bc7e8414610116578063082978461461012b57806334a899871461013e57806352c111d11461016657806363a9c3d714610186578063715018a6146101995780638da5cb5b146101a157806393e9f801146101bb5780639f63ea98146101ce575b600080fd5b6101296101243660046116c3565b6102af565b005b61012961013936600461174b565b610607565b61015161014c366004611764565b6106ed565b60405190151581526020015b60405180910390f35b61017961017436600461174b565b6107a2565b60405161015d9190611790565b6101516101943660046117dd565b61080e565b610129610be4565b6000546001600160a01b03165b60405161015d9190611801565b6101ae6101c9366004611815565b610bf8565b6101296101dc3660046116c3565b610c30565b6101f46101ef36600461174b565b610eaf565b60405190815260200161015d565b6101296102103660046117dd565b610ed0565b6101f4610223366004611764565b61122b565b61015161023636600461174b565b61125c565b61024e6102493660046117dd565b6112ac565b60405161015d9190611837565b61012961026936600461174b565b61137e565b6101ae61027c36600461174b565b6114bf565b6101796114e9565b6101516102973660046117dd565b61154b565b6101296102aa3660046117dd565b611579565b6102b76115b7565b6001600160a01b0383166102e65760405162461bcd60e51b81526004016102dd9061186f565b60405180910390fd5b6001600160a01b038316600090815260036020526040812054900361031d5760405162461bcd60e51b81526004016102dd906118a6565b600f81111561033e5760405162461bcd60e51b81526004016102dd906118d4565b8061038b5760405162461bcd60e51b815260206004820152601c60248201527f636c61696d20746f706963732063616e6e6f7420626520656d7074790000000060448201526064016102dd565b60005b6001600160a01b03841660009081526003602052604090205481101561052a576001600160a01b03841660009081526003602052604081208054839081106103d8576103d8611919565b600091825260208083209091015480835260049091526040822054909250905b8181101561051f57600083815260046020526040902080546001600160a01b03891691908390811061042c5761042c611919565b6000918252602090912001546001600160a01b03160361051757600083815260046020526040902061045f600184611945565b8154811061046f5761046f611919565b60009182526020808320909101548583526004909152604090912080546001600160a01b0390921691839081106104a8576104a8611919565b600091825260208083209190910180546001600160a01b0319166001600160a01b0394909416939093179092558481526004909152604090208054806104f0576104f0611958565b600082815260209020810160001990810180546001600160a01b031916905501905561051f565b6001016103f8565b50505060010161038e565b506001600160a01b038316600090815260036020526040902061054e908383611634565b5060005b818110156105be576004600084848481811061057057610570611919565b602090810292909201358352508181019290925260400160009081208054600180820183559183529290912090910180546001600160a01b0319166001600160a01b03871617905501610552565b50826001600160a01b03167fec753cfc52044f61676f18a11e500093a9f2b1cd5e4942bc476f2b0438159bcf83836040516105fa92919061196e565b60405180910390a2505050565b61060f6115b7565b60015460005b818110156106e857826001828154811061063157610631611919565b9060005260206000200154036106e057600161064d8184611945565b8154811061065d5761065d611919565b90600052602060002001546001828154811061067b5761067b611919565b600091825260209091200155600180548061069857610698611958565b60019003818190600052602060002001600090559055827f0b1381093c776453c1bbe54fd68be1b235c65db61d099cb50d194b2991e0eec560405160405180910390a2505050565b600101610615565b505050565b6001600160a01b03821660009081526003602090815260408083208054825181850281018501909352808352849383018282801561074a57602002820191906000526020600020905b815481526020019060010190808311610736575b505083519394506000925050505b81811015610794578483828151811061077357610773611919565b60200260200101510361078c576001935050505061079c565b600101610758565b506000925050505b92915050565b60008181526004602090815260409182902080548351818402810184019094528084526060939283018282801561080257602002820191906000526020600020905b81546001600160a01b031681526001909101906020018083116107e4575b50505050509050919050565b600154600090810361082257506001919050565b600080600060608060005b600154811015610bd6576000306001600160a01b03166352c111d16001848154811061085b5761085b611919565b90600052602060002001546040518263ffffffff1660e01b815260040161088491815260200190565b600060405180830381865afa1580156108a1573d6000803e3d6000fd5b505050506040513d6000823e601f3d908101601f191682016040526108c991908101906119ee565b905080516000036108e35750600098975050505050505050565b6000815167ffffffffffffffff8111156108ff576108ff6119a7565b604051908082528060200260200182016040528015610928578160200160208202803683370190505b50905060005b82518110156109cf5782818151811061094957610949611919565b60200260200101516001858154811061096457610964611919565b90600052602060002001546040516020016109949291906001600160a01b03929092168252602082015260400190565b604051602081830303815290604052805190602001208282815181106109bc576109bc611919565b602090810291909101015260010161092e565b5060005b8151811015610bcb578a6001600160a01b031663c9100bcb8383815181106109fd576109fd611919565b60200260200101516040518263ffffffff1660e01b8152600401610a2391815260200190565b600060405180830381865afa158015610a40573d6000803e3d6000fd5b505050506040513d6000823e601f3d908101601f19168201604052610a689190810190611b33565b5060018054959e50939c50919a50985096509085908110610a8b57610a8b611919565b90600052602060002001548903610b9457866001600160a01b031663c0969a6e8c60018781548110610abf57610abf611919565b906000526020600020015489896040518563ffffffff1660e01b8152600401610aeb9493929190611c21565b602060405180830381865afa925050508015610b24575060408051601f3d908101601f19168201909252610b2191810190611c65565b60015b610b525760018251610b369190611945565b8103610b4d575060009a9950505050505050505050565b610bb9565b8015610b5d57825191505b80158015610b77575060018351610b749190611945565b82145b15610b8e575060009b9a5050505050505050505050565b50610bb9565b60018251610ba29190611945565b8103610bb9575060009a9950505050505050505050565b80610bc381611c87565b9150506109d3565b50505060010161082d565b506001979650505050505050565b610bec6115b7565b610bf660006115e4565b565b60046020528160005260406000208181548110610c1457600080fd5b6000918252602090912001546001600160a01b03169150829050565b610c386115b7565b6001600160a01b038316610c5e5760405162461bcd60e51b81526004016102dd9061186f565b6001600160a01b03831660009081526003602052604090205415610cc45760405162461bcd60e51b815260206004820152601d60248201527f747275737465642049737375657220616c72656164792065786973747300000060448201526064016102dd565b80610d1d5760405162461bcd60e51b8152602060048201526024808201527f7472757374656420636c61696d20746f706963732063616e6e6f7420626520656044820152636d70747960e01b60648201526084016102dd565b600f811115610d3e5760405162461bcd60e51b81526004016102dd906118d4565b600254603211610da15760405162461bcd60e51b815260206004820152602860248201527f63616e6e6f742068617665206d6f7265207468616e2035302074727573746564604482015267206973737565727360c01b60648201526084016102dd565b60028054600181019091557f405787fa12a823e0f2b7631cc41b3ba8828b3321ca811111fa75cd3aa3bb5ace0180546001600160a01b0319166001600160a01b0385169081179091556000908152600360205260409020610e03908383611634565b5060005b81811015610e735760046000848484818110610e2557610e25611919565b602090810292909201358352508181019290925260400160009081208054600180820183559183529290912090910180546001600160a01b0319166001600160a01b03871617905501610e07565b50826001600160a01b03167ffedc33fd34859594822c0ff6f3f4f9fc279cc6d5cae53068f706a088e450087283836040516105fa92919061196e565b60018181548110610ebf57600080fd5b600091825260209091200154905081565b610ed86115b7565b6001600160a01b038116610efe5760405162461bcd60e51b81526004016102dd9061186f565b6001600160a01b0381166000908152600360205260408120549003610f355760405162461bcd60e51b81526004016102dd906118a6565b60025460005b8181101561103157826001600160a01b031660028281548110610f6057610f60611919565b6000918252602090912001546001600160a01b031603611029576002610f87600184611945565b81548110610f9757610f97611919565b600091825260209091200154600280546001600160a01b039092169183908110610fc357610fc3611919565b9060005260206000200160006101000a8154816001600160a01b0302191690836001600160a01b03160217905550600280548061100257611002611958565b600082815260209020810160001990810180546001600160a01b0319169055019055611031565b600101610f3b565b5060005b6001600160a01b0383166000908152600360205260409020548110156111d1576001600160a01b038316600090815260036020526040812080548390811061107f5761107f611919565b600091825260208083209091015480835260049091526040822054909250905b818110156111c657600083815260046020526040902080546001600160a01b0388169190839081106110d3576110d3611919565b6000918252602090912001546001600160a01b0316036111be576000838152600460205260409020611106600184611945565b8154811061111657611116611919565b60009182526020808320909101548583526004909152604090912080546001600160a01b03909216918390811061114f5761114f611919565b600091825260208083209190910180546001600160a01b0319166001600160a01b03949094169390931790925584815260049091526040902080548061119757611197611958565b600082815260209020810160001990810180546001600160a01b03191690550190556111c6565b60010161109f565b505050600101611035565b506001600160a01b03821660009081526003602052604081206111f39161167f565b6040516001600160a01b038316907f2214ded40113cc3fb63fc206cafee88270b0a903dac7245d54efdde30ebb032190600090a25050565b6003602052816000526040600020818154811061124757600080fd5b90600052602060002001600091509150505481565b600154600090815b818110156112a257836001828154811061128057611280611919565b90600052602060002001540361129a575060019392505050565b600101611264565b5060009392505050565b6001600160a01b038116600090815260036020526040812054606091036113155760405162461bcd60e51b815260206004820152601c60248201527f747275737465642049737375657220646f65736e27742065786973740000000060448201526064016102dd565b6001600160a01b0382166000908152600360209081526040918290208054835181840281018401909452808452909183018282801561080257602002820191906000526020600020905b81548152602001906001019080831161135f5750505050509050919050565b6113866115b7565b600154600f81106113e45760405162461bcd60e51b815260206004820152602260248201527f63616e6e6f742072657175697265206d6f7265207468616e20313520746f7069604482015261637360f01b60648201526084016102dd565b60005b8181101561145f57826001828154811061140357611403611919565b9060005260206000200154036114575760405162461bcd60e51b8152602060048201526019602482015278636c61696d546f70696320616c72656164792065786973747360381b60448201526064016102dd565b6001016113e7565b5060018054808201825560009182527fb10e2d527612073b26eecdfd717e6a320cf44b4afac2b0732d9fcbe2b7fa0cf60183905560405183917f01c928b7f7ade2949e92366aa9454dbef3a416b731cf6ec786ba9595bbd814d691a25050565b600281815481106114cf57600080fd5b6000918252602090912001546001600160a01b0316905081565b6060600280548060200260200160405190810160405280929190818152602001828054801561154157602002820191906000526020600020905b81546001600160a01b03168152600190910190602001808311611523575b5050505050905090565b6001600160a01b0381166000908152600360205260408120541561157157506001919050565b506000919050565b6115816115b7565b6001600160a01b0381166115ab576000604051631e4fbdf760e01b81526004016102dd9190611801565b6115b4816115e4565b50565b6000546001600160a01b03163314610bf6573360405163118cdaa760e01b81526004016102dd9190611801565b600080546001600160a01b038381166001600160a01b0319831681178455604051919092169283917f8be0079c531659141344cd1fd0a4f28419497f9722a3daafe3b4186f6b6457e09190a35050565b82805482825590600052602060002090810192821561166f579160200282015b8281111561166f578235825591602001919060010190611654565b5061167b929150611699565b5090565b50805460008255906000526020600020908101906115b491905b5b8082111561167b576000815560010161169a565b6001600160a01b03811681146115b457600080fd5b6000806000604084860312156116d857600080fd5b83356116e3816116ae565b9250602084013567ffffffffffffffff8082111561170057600080fd5b818601915086601f83011261171457600080fd5b81358181111561172357600080fd5b8760208260051b850101111561173857600080fd5b6020830194508093505050509250925092565b60006020828403121561175d57600080fd5b5035919050565b6000806040838503121561177757600080fd5b8235611782816116ae565b946020939093013593505050565b6020808252825182820181905260009190848201906040850190845b818110156117d15783516001600160a01b0316835292840192918401916001016117ac565b50909695505050505050565b6000602082840312156117ef57600080fd5b81356117fa816116ae565b9392505050565b6001600160a01b0391909116815260200190565b6000806040838503121561182857600080fd5b50508035926020909101359150565b6020808252825182820181905260009190848201906040850190845b818110156117d157835183529284019291840191600101611853565b6020808252601f908201527f696e76616c696420617267756d656e74202d207a65726f206164647265737300604082015260600190565b6020808252601490820152732727aa1030903a393ab9ba32b21034b9b9bab2b960611b604082015260600190565b60208082526025908201527f63616e6e6f742068617665206d6f7265207468616e20313520636c61696d20746040820152646f7069637360d81b606082015260800190565b634e487b7160e01b600052603260045260246000fd5b634e487b7160e01b600052601160045260246000fd5b8181038181111561079c5761079c61192f565b634e487b7160e01b600052603160045260246000fd5b6020808252810182905260006001600160fb1b0383111561198e57600080fd5b8260051b80856040850137919091016040019392505050565b634e487b7160e01b600052604160045260246000fd5b604051601f8201601f1916810167ffffffffffffffff811182821017156119e6576119e66119a7565b604052919050565b60006020808385031215611a0157600080fd5b825167ffffffffffffffff80821115611a1957600080fd5b818501915085601f830112611a2d57600080fd5b815181811115611a3f57611a3f6119a7565b8060051b9150611a508483016119bd565b8181529183018401918481019088841115611a6a57600080fd5b938501935b83851015611a945784519250611a84836116ae565b8282529385019390850190611a6f565b98975050505050505050565b60005b83811015611abb578181015183820152602001611aa3565b50506000910152565b600067ffffffffffffffff831115611ade57611ade6119a7565b611af1601f8401601f19166020016119bd565b9050828152838383011115611b0557600080fd5b6117fa836020830184611aa0565b600082601f830112611b2457600080fd5b6117fa83835160208501611ac4565b60008060008060008060c08789031215611b4c57600080fd5b86519550602087015194506040870151611b65816116ae565b606088015190945067ffffffffffffffff80821115611b8357600080fd5b611b8f8a838b01611b13565b94506080890151915080821115611ba557600080fd5b611bb18a838b01611b13565b935060a0890151915080821115611bc757600080fd5b508701601f81018913611bd957600080fd5b611be889825160208401611ac4565b9150509295509295509295565b60008151808452611c0d816020860160208601611aa0565b601f01601f19169290920160200192915050565b60018060a01b0385168152836020820152608060408201526000611c486080830185611bf5565b8281036060840152611c5a8185611bf5565b979650505050505050565b600060208284031215611c7757600080fd5b815180151581146117fa57600080fd5b600060018201611c9957611c9961192f565b506001019056fea2646970667358221220eb04d5598959ef9a6be9b2f6bfb1342ee44a4696d9cbc1980c2999595e9c437164736f6c63430008180033",
  "linkReferences": {},
  "deployedLinkReferences": {}
}