{
  "_format": "hh-sol-artifact-1",
  "contractName": "VerifierUser",
  "sourceName": "contracts/onchainid/_testContracts/VerifierUser.sol",
  "abi": [
    {
      "inputs": [],
      "stateMutability": "nonpayable",
      "type": "constructor"
    },
    {
      "inputs": [
        {
          "internalType": "address",
          "name": "owner",
          "type": "address"
        }
      ],
      "name": "OwnableInvalidOwner",
      "type": "error"
    },
    {
      "inputs": [
        {
          "internalType": "address",
          "name": "account",
          "type": "address"
        }
      ],
      "name": "OwnableUnauthorizedAccount",
      "type": "error"
    },
    {
      "anonymous": false,
      "inputs": [
        {
          "indexed": true,
          "internalType": "uint256",
          "name": "claimTopic",
          "type": "uint256"
        }
      ],
      "name": "ClaimTopicAdded",
      "type": "event"
    },
    {
      "anonymous": false,
      "inputs": [
        {
          "indexed": true,
          "internalType": "uint256",
          "name": "claimTopic",
          "type": "uint256"
        }
      ],
      "name": "ClaimTopicRemoved",
      "type": "event"
    },
    {
      "anonymous": false,
      "inputs": [
        {
          "indexed": true,
          "internalType": "contract IClaimIssuer",
          "name": "trustedIssuer",
          "type": "address"
        },
        {
          "indexed": false,
          "internalType": "uint256[]",
          "name": "claimTopics",
          "type": "uint256[]"
        }
      ],
      "name": "ClaimTopicsUpdated",
      "type": "event"
    },
    {
      "anonymous": false,
      "inputs": [
        {
          "indexed": true,
          "internalType": "address",
          "name": "previousOwner",
          "type": "address"
        },
        {
          "indexed": true,
          "internalType": "address",
          "name": "newOwner",
          "type": "address"
        }
      ],
      "name": "OwnershipTransferred",
      "type": "event"
    },
    {
      "anonymous": false,
      "inputs": [
        {
          "indexed": true,
          "internalType": "contract IClaimIssuer",
          "name": "trustedIssuer",
          "type": "address"
        },
        {
          "indexed": false,
          "internalType": "uint256[]",
          "name": "claimTopics",
          "type": "uint256[]"
        }
      ],
      "name": "TrustedIssuerAdded",
      "type": "event"
    },
    {
      "anonymous": false,
      "inputs": [
        {
          "indexed": true,
          "internalType": "contract IClaimIssuer",
          "name": "trustedIssuer",
          "type": "address"
        }
      ],
      "name": "TrustedIssuerRemoved",
      "type": "event"
    },
    {
      "inputs": [
        {
          "internalType": "uint256",
          "name": "claimTopic",
          "type": "uint256"
        }
      ],
      "name": "addClaimTopic",
      "outputs": [],
      "stateMutability": "nonpayable",
      "type": "function"
    },
    {
      "inputs": [
        {
          "internalType": "contract IClaimIssuer",
          "name": "trustedIssuer",
          "type": "address"
        },
        {
          "internalType": "uint256[]",
          "name": "claimTopics",
          "type": "uint256[]"
        }
      ],
      "name": "addTrustedIssuer",
      "outputs": [],
      "stateMutability": "nonpayable",
      "type": "function"
    },
    {
      "inputs": [
        {
          "internalType": "uint256",
          "name": "",
          "type": "uint256"
        },
        {
          "internalType": "uint256",
          "name": "",
          "type": "uint256"
        }
      ],
      "name": "claimTopicsToTrustedIssuers",
      "outputs": [
        {
          "internalType": "contract IClaimIssuer",
          "name": "",
          "type": "address"
        }
      ],
      "stateMutability": "view",
      "type": "function"
    },
    {
      "inputs": [],
      "name": "doSomething",
      "outputs": [],
      "stateMutability": "nonpayable",
      "type": "function"
    },
    {
      "inputs": [
        {
          "internalType": "contract IClaimIssuer",
          "name": "trustedIssuer",
          "type": "address"
        }
      ],
      "name": "getTrustedIssuerClaimTopics",
      "outputs": [
        {
          "internalType": "uint256[]",
          "name": "",
          "type": "uint256[]"
        }
      ],
      "stateMutability": "view",
      "type": "function"
    },
    {
      "inputs": [],
      "name": "getTrustedIssuers",
      "outputs": [
        {
          "internalType": "contract IClaimIssuer[]",
          "name": "",
          "type": "address[]"
        }
      ],
      "stateMutability": "view",
      "type": "function"
    },
    {
      "inputs": [
        {
          "internalType": "uint256",
          "name": "claimTopic",
          "type": "uint256"
        }
      ],
      "name": "getTrustedIssuersForClaimTopic",
      "outputs": [
        {
          "internalType": "contract IClaimIssuer[]",
          "name": "",
          "type": "address[]"
        }
      ],
      "stateMutability": "view",
      "type": "function"
    },
    {
      "inputs": [
        {
          "internalType": "address",
          "name": "issuer",
          "type": "address"
        },
        {
          "internalType": "uint256",
          "name": "claimTopic",
          "type": "uint256"
        }
      ],
      "name": "hasClaimTopic",
      "outputs": [
        {
          "internalType": "bool",
          "name": "",
          "type": "bool"
        }
      ],
      "stateMutability": "view",
      "type": "function"
    },
    {
      "inputs": [
        {
          "internalType": "uint256",
          "name": "claimTopic",
          "type": "uint256"
        }
      ],
      "name": "isClaimTopicRequired",
      "outputs": [
        {
          "internalType": "bool",
          "name": "",
          "type": "bool"
        }
      ],
      "stateMutability": "view",
      "type": "function"
    },
    {
      "inputs": [
        {
          "internalType": "address",
          "name": "issuer",
          "type": "address"
        }
      ],
      "name": "isTrustedIssuer",
      "outputs": [
        {
          "internalType": "bool",
          "name": "",
          "type": "bool"
        }
      ],
      "stateMutability": "view",
      "type": "function"
    },
    {
      "inputs": [],
      "name": "owner",
      "outputs": [
        {
          "internalType": "address",
          "name": "",
          "type": "address"
        }
      ],
      "stateMutability": "view",
      "type": "function"
    },
    {
      "inputs": [
        {
          "internalType": "uint256",
          "name": "claimTopic",
          "type": "uint256"
        }
      ],
      "name": "removeClaimTopic",
      "outputs": [],
      "stateMutability": "nonpayable",
      "type": "function"
    },
    {
      "inputs": [
        {
          "internalType": "contract IClaimIssuer",
          "name": "trustedIssuer",
          "type": "address"
        }
      ],
      "name": "removeTrustedIssuer",
      "outputs": [],
      "stateMutability": "nonpayable",
      "type": "function"
    },
    {
      "inputs": [],
      "name": "renounceOwnership",
      "outputs": [],
      "stateMutability": "nonpayable",
      "type": "function"
    },
    {
      "inputs": [
        {
          "internalType": "uint256",
          "name": "",
          "type": "uint256"
        }
      ],
      "name": "requiredClaimTopics",
      "outputs": [
        {
          "internalType": "uint256",
          "name": "",
          "type": "uint256"
        }
      ],
      "stateMutability": "view",
      "type": "function"
    },
    {
      "inputs": [
        {
          "internalType": "address",
          "name": "newOwner",
          "type": "address"
        }
      ],
      "name": "transferOwnership",
      "outputs": [],
      "stateMutability": "nonpayable",
      "type": "function"
    },
    {
      "inputs": [
        {
          "internalType": "address",
          "name": "",
          "type": "address"
        },
        {
          "internalType": "uint256",
          "name": "",
          "type": "uint256"
        }
      ],
      "name": "trustedIssuerClaimTopics",
      "outputs": [
        {
          "internalType": "uint256",
          "name": "",
          "type": "uint256"
        }
      ],
      "stateMutability": "view",
      "type": "function"
    },
    {
      "inputs": [
        {
          "internalType": "uint256",
          "name": "",
          "type": "uint256"
        }
      ],
      "name": "trustedIssuers",
      "outputs": [
        {
          "internalType": "contract IClaimIssuer",
          "name": "",
          "type": "address"
        }
      ],
      "stateMutability": "view",
      "type": "function"
    },
    {
      "inputs": [
        {
          "internalType": "contract IClaimIssuer",
          "name": "trustedIssuer",
          "type": "address"
        },
        {
          "internalType": "uint256[]",
          "name": "newClaimTopics",
          "type": "uint256[]"
        }
      ],
      "name": "updateIssuerClaimTopics",
      "outputs": [],
      "stateMutability": "nonpayable",
      "type": "function"
    },
    {
      "inputs": [
        {
          "internalType": "address",
          "name": "identity",
          "type": "address"
        }
      ],
      "name": "verify",
      "outputs": [
        {
          "internalType": "bool",
          "name": "isVerified",
          "type": "bool"
        }
      ],
      "stateMutability": "view",
      "type": "function"
    }
  ],
  "bytecode": "0x608060405234801561001057600080fd5b50338061003757604051631e4fbdf760e01b81526000600482015260240160405180910390fd5b61004081610046565b50610096565b600080546001600160a01b038381166001600160a01b0319831681178455604051919092169283917f8be0079c531659141344cd1fd0a4f28419497f9722a3daafe3b4186f6b6457e09190a35050565b611d47806100a56000396000f3fe608060405234801561001057600080fd5b506004361061012c5760003560e01c8063b5fa8693116100ad578063c7b2255111610071578063c7b225511461027e578063c801dd4014610291578063d9dd24c5146102a4578063ef2ed1a4146102ac578063f2fde38b146102bf57600080fd5b8063b5fa869314610204578063b93d28eb14610225578063ba64c34114610238578063be36359f1461024b578063c28fb2781461025e57600080fd5b8063715018a6116100f4578063715018a6146101b457806382692679146101bc5780638da5cb5b146101c457806393e9f801146101de5780639f63ea98146101f157600080fd5b806304bc7e8414610131578063082978461461014657806334a899871461015957806352c111d11461018157806363a9c3d7146101a1575b600080fd5b61014461013f366004611734565b6102d2565b005b6101446101543660046117bc565b61062a565b61016c6101673660046117d5565b610710565b60405190151581526020015b60405180910390f35b61019461018f3660046117bc565b6107c5565b6040516101789190611801565b61016c6101af36600461184e565b610831565b610144610c07565b610144610c1b565b6000546001600160a01b03165b6040516101789190611872565b6101d16101ec366004611886565b610c69565b6101446101ff366004611734565b610ca1565b6102176102123660046117bc565b610f20565b604051908152602001610178565b61014461023336600461184e565b610f41565b6102176102463660046117d5565b61129c565b61016c6102593660046117bc565b6112cd565b61027161026c36600461184e565b61131d565b60405161017891906118a8565b61014461028c3660046117bc565b6113ef565b6101d161029f3660046117bc565b611530565b61019461155a565b61016c6102ba36600461184e565b6115bc565b6101446102cd36600461184e565b6115ea565b6102da611628565b6001600160a01b0383166103095760405162461bcd60e51b8152600401610300906118e0565b60405180910390fd5b6001600160a01b03831660009081526003602052604081205490036103405760405162461bcd60e51b815260040161030090611917565b600f8111156103615760405162461bcd60e51b815260040161030090611945565b806103ae5760405162461bcd60e51b815260206004820152601c60248201527f636c61696d20746f706963732063616e6e6f7420626520656d707479000000006044820152606401610300565b60005b6001600160a01b03841660009081526003602052604090205481101561054d576001600160a01b03841660009081526003602052604081208054839081106103fb576103fb61198a565b600091825260208083209091015480835260049091526040822054909250905b8181101561054257600083815260046020526040902080546001600160a01b03891691908390811061044f5761044f61198a565b6000918252602090912001546001600160a01b03160361053a5760008381526004602052604090206104826001846119b6565b815481106104925761049261198a565b60009182526020808320909101548583526004909152604090912080546001600160a01b0390921691839081106104cb576104cb61198a565b600091825260208083209190910180546001600160a01b0319166001600160a01b039490941693909317909255848152600490915260409020805480610513576105136119c9565b600082815260209020810160001990810180546001600160a01b0319169055019055610542565b60010161041b565b5050506001016103b1565b506001600160a01b03831660009081526003602052604090206105719083836116a5565b5060005b818110156105e157600460008484848181106105935761059361198a565b602090810292909201358352508181019290925260400160009081208054600180820183559183529290912090910180546001600160a01b0319166001600160a01b03871617905501610575565b50826001600160a01b03167fec753cfc52044f61676f18a11e500093a9f2b1cd5e4942bc476f2b0438159bcf838360405161061d9291906119df565b60405180910390a2505050565b610632611628565b60015460005b8181101561070b5782600182815481106106545761065461198a565b90600052602060002001540361070357600161067081846119b6565b815481106106805761068061198a565b90600052602060002001546001828154811061069e5761069e61198a565b60009182526020909120015560018054806106bb576106bb6119c9565b60019003818190600052602060002001600090559055827f0b1381093c776453c1bbe54fd68be1b235c65db61d099cb50d194b2991e0eec560405160405180910390a2505050565b600101610638565b505050565b6001600160a01b03821660009081526003602090815260408083208054825181850281018501909352808352849383018282801561076d57602002820191906000526020600020905b815481526020019060010190808311610759575b505083519394506000925050505b818110156107b757848382815181106107965761079661198a565b6020026020010151036107af57600193505050506107bf565b60010161077b565b506000925050505b92915050565b60008181526004602090815260409182902080548351818402810184019094528084526060939283018282801561082557602002820191906000526020600020905b81546001600160a01b03168152600190910190602001808311610807575b50505050509050919050565b600154600090810361084557506001919050565b600080600060608060005b600154811015610bf9576000306001600160a01b03166352c111d16001848154811061087e5761087e61198a565b90600052602060002001546040518263ffffffff1660e01b81526004016108a791815260200190565b600060405180830381865afa1580156108c4573d6000803e3d6000fd5b505050506040513d6000823e601f3d908101601f191682016040526108ec9190810190611a5f565b905080516000036109065750600098975050505050505050565b6000815167ffffffffffffffff81111561092257610922611a18565b60405190808252806020026020018201604052801561094b578160200160208202803683370190505b50905060005b82518110156109f25782818151811061096c5761096c61198a565b6020026020010151600185815481106109875761098761198a565b90600052602060002001546040516020016109b79291906001600160a01b03929092168252602082015260400190565b604051602081830303815290604052805190602001208282815181106109df576109df61198a565b6020908102919091010152600101610951565b5060005b8151811015610bee578a6001600160a01b031663c9100bcb838381518110610a2057610a2061198a565b60200260200101516040518263ffffffff1660e01b8152600401610a4691815260200190565b600060405180830381865afa158015610a63573d6000803e3d6000fd5b505050506040513d6000823e601f3d908101601f19168201604052610a8b9190810190611ba4565b5060018054959e50939c50919a50985096509085908110610aae57610aae61198a565b90600052602060002001548903610bb757866001600160a01b031663c0969a6e8c60018781548110610ae257610ae261198a565b906000526020600020015489896040518563ffffffff1660e01b8152600401610b0e9493929190611c92565b602060405180830381865afa925050508015610b47575060408051601f3d908101601f19168201909252610b4491810190611cd6565b60015b610b755760018251610b5991906119b6565b8103610b70575060009a9950505050505050505050565b610bdc565b8015610b8057825191505b80158015610b9a575060018351610b9791906119b6565b82145b15610bb1575060009b9a5050505050505050505050565b50610bdc565b60018251610bc591906119b6565b8103610bdc575060009a9950505050505050505050565b80610be681611cf8565b9150506109f6565b505050600101610850565b506001979650505050505050565b610c0f611628565b610c196000611655565b565b610c2433610831565b610c195760405162461bcd60e51b81526020600482015260166024820152751cd95b99195c881a5cc81b9bdd081d995c9a599a595960521b6044820152606401610300565b60046020528160005260406000208181548110610c8557600080fd5b6000918252602090912001546001600160a01b03169150829050565b610ca9611628565b6001600160a01b038316610ccf5760405162461bcd60e51b8152600401610300906118e0565b6001600160a01b03831660009081526003602052604090205415610d355760405162461bcd60e51b815260206004820152601d60248201527f747275737465642049737375657220616c7265616479206578697374730000006044820152606401610300565b80610d8e5760405162461bcd60e51b8152602060048201526024808201527f7472757374656420636c61696d20746f706963732063616e6e6f7420626520656044820152636d70747960e01b6064820152608401610300565b600f811115610daf5760405162461bcd60e51b815260040161030090611945565b600254603211610e125760405162461bcd60e51b815260206004820152602860248201527f63616e6e6f742068617665206d6f7265207468616e2035302074727573746564604482015267206973737565727360c01b6064820152608401610300565b60028054600181019091557f405787fa12a823e0f2b7631cc41b3ba8828b3321ca811111fa75cd3aa3bb5ace0180546001600160a01b0319166001600160a01b0385169081179091556000908152600360205260409020610e749083836116a5565b5060005b81811015610ee45760046000848484818110610e9657610e9661198a565b602090810292909201358352508181019290925260400160009081208054600180820183559183529290912090910180546001600160a01b0319166001600160a01b03871617905501610e78565b50826001600160a01b03167ffedc33fd34859594822c0ff6f3f4f9fc279cc6d5cae53068f706a088e4500872838360405161061d9291906119df565b60018181548110610f3057600080fd5b600091825260209091200154905081565b610f49611628565b6001600160a01b038116610f6f5760405162461bcd60e51b8152600401610300906118e0565b6001600160a01b0381166000908152600360205260408120549003610fa65760405162461bcd60e51b815260040161030090611917565b60025460005b818110156110a257826001600160a01b031660028281548110610fd157610fd161198a565b6000918252602090912001546001600160a01b03160361109a576002610ff86001846119b6565b815481106110085761100861198a565b600091825260209091200154600280546001600160a01b0390921691839081106110345761103461198a565b9060005260206000200160006101000a8154816001600160a01b0302191690836001600160a01b031602179055506002805480611073576110736119c9565b600082815260209020810160001990810180546001600160a01b03191690550190556110a2565b600101610fac565b5060005b6001600160a01b038316600090815260036020526040902054811015611242576001600160a01b03831660009081526003602052604081208054839081106110f0576110f061198a565b600091825260208083209091015480835260049091526040822054909250905b8181101561123757600083815260046020526040902080546001600160a01b0388169190839081106111445761114461198a565b6000918252602090912001546001600160a01b03160361122f5760008381526004602052604090206111776001846119b6565b815481106111875761118761198a565b60009182526020808320909101548583526004909152604090912080546001600160a01b0390921691839081106111c0576111c061198a565b600091825260208083209190910180546001600160a01b0319166001600160a01b039490941693909317909255848152600490915260409020805480611208576112086119c9565b600082815260209020810160001990810180546001600160a01b0319169055019055611237565b600101611110565b5050506001016110a6565b506001600160a01b0382166000908152600360205260408120611264916116f0565b6040516001600160a01b038316907f2214ded40113cc3fb63fc206cafee88270b0a903dac7245d54efdde30ebb032190600090a25050565b600360205281600052604060002081815481106112b857600080fd5b90600052602060002001600091509150505481565b600154600090815b818110156113135783600182815481106112f1576112f161198a565b90600052602060002001540361130b575060019392505050565b6001016112d5565b5060009392505050565b6001600160a01b038116600090815260036020526040812054606091036113865760405162461bcd60e51b815260206004820152601c60248201527f747275737465642049737375657220646f65736e2774206578697374000000006044820152606401610300565b6001600160a01b0382166000908152600360209081526040918290208054835181840281018401909452808452909183018282801561082557602002820191906000526020600020905b8154815260200190600101908083116113d05750505050509050919050565b6113f7611628565b600154600f81106114555760405162461bcd60e51b815260206004820152602260248201527f63616e6e6f742072657175697265206d6f7265207468616e20313520746f7069604482015261637360f01b6064820152608401610300565b60005b818110156114d05782600182815481106114745761147461198a565b9060005260206000200154036114c85760405162461bcd60e51b8152602060048201526019602482015278636c61696d546f70696320616c72656164792065786973747360381b6044820152606401610300565b600101611458565b5060018054808201825560009182527fb10e2d527612073b26eecdfd717e6a320cf44b4afac2b0732d9fcbe2b7fa0cf60183905560405183917f01c928b7f7ade2949e92366aa9454dbef3a416b731cf6ec786ba9595bbd814d691a25050565b6002818154811061154057600080fd5b6000918252602090912001546001600160a01b0316905081565b606060028054806020026020016040519081016040528092919081815260200182805480156115b257602002820191906000526020600020905b81546001600160a01b03168152600190910190602001808311611594575b5050505050905090565b6001600160a01b038116600090815260036020526040812054156115e257506001919050565b506000919050565b6115f2611628565b6001600160a01b03811661161c576000604051631e4fbdf760e01b81526004016103009190611872565b61162581611655565b50565b6000546001600160a01b03163314610c19573360405163118cdaa760e01b81526004016103009190611872565b600080546001600160a01b038381166001600160a01b0319831681178455604051919092169283917f8be0079c531659141344cd1fd0a4f28419497f9722a3daafe3b4186f6b6457e09190a35050565b8280548282559060005260206000209081019282156116e0579160200282015b828111156116e05782358255916020019190600101906116c5565b506116ec92915061170a565b5090565b508054600082559060005260206000209081019061162591905b5b808211156116ec576000815560010161170b565b6001600160a01b038116811461162557600080fd5b60008060006040848603121561174957600080fd5b83356117548161171f565b9250602084013567ffffffffffffffff8082111561177157600080fd5b818601915086601f83011261178557600080fd5b81358181111561179457600080fd5b8760208260051b85010111156117a957600080fd5b6020830194508093505050509250925092565b6000602082840312156117ce57600080fd5b5035919050565b600080604083850312156117e857600080fd5b82356117f38161171f565b946020939093013593505050565b6020808252825182820181905260009190848201906040850190845b818110156118425783516001600160a01b03168352928401929184019160010161181d565b50909695505050505050565b60006020828403121561186057600080fd5b813561186b8161171f565b9392505050565b6001600160a01b0391909116815260200190565b6000806040838503121561189957600080fd5b50508035926020909101359150565b6020808252825182820181905260009190848201906040850190845b81811015611842578351835292840192918401916001016118c4565b6020808252601f908201527f696e76616c696420617267756d656e74202d207a65726f206164647265737300604082015260600190565b6020808252601490820152732727aa1030903a393ab9ba32b21034b9b9bab2b960611b604082015260600190565b60208082526025908201527f63616e6e6f742068617665206d6f7265207468616e20313520636c61696d20746040820152646f7069637360d81b606082015260800190565b634e487b7160e01b600052603260045260246000fd5b634e487b7160e01b600052601160045260246000fd5b818103818111156107bf576107bf6119a0565b634e487b7160e01b600052603160045260246000fd5b6020808252810182905260006001600160fb1b038311156119ff57600080fd5b8260051b80856040850137919091016040019392505050565b634e487b7160e01b600052604160045260246000fd5b604051601f8201601f1916810167ffffffffffffffff81118282101715611a5757611a57611a18565b604052919050565b60006020808385031215611a7257600080fd5b825167ffffffffffffffff80821115611a8a57600080fd5b818501915085601f830112611a9e57600080fd5b815181811115611ab057611ab0611a18565b8060051b9150611ac1848301611a2e565b8181529183018401918481019088841115611adb57600080fd5b938501935b83851015611b055784519250611af58361171f565b8282529385019390850190611ae0565b98975050505050505050565b60005b83811015611b2c578181015183820152602001611b14565b50506000910152565b600067ffffffffffffffff831115611b4f57611b4f611a18565b611b62601f8401601f1916602001611a2e565b9050828152838383011115611b7657600080fd5b61186b836020830184611b11565b600082601f830112611b9557600080fd5b61186b83835160208501611b35565b60008060008060008060c08789031215611bbd57600080fd5b86519550602087015194506040870151611bd68161171f565b606088015190945067ffffffffffffffff80821115611bf457600080fd5b611c008a838b01611b84565b94506080890151915080821115611c1657600080fd5b611c228a838b01611b84565b935060a0890151915080821115611c3857600080fd5b508701601f81018913611c4a57600080fd5b611c5989825160208401611b35565b9150509295509295509295565b60008151808452611c7e816020860160208601611b11565b601f01601f19169290920160200192915050565b60018060a01b0385168152836020820152608060408201526000611cb96080830185611c66565b8281036060840152611ccb8185611c66565b979650505050505050565b600060208284031215611ce857600080fd5b8151801515811461186b57600080fd5b600060018201611d0a57611d0a6119a0565b506001019056fea2646970667358221220601db179f4e0ce4a3fdbb0c547984b9c0b552ea48ee60627fdde5aee17bc00e064736f6c63430008180033",
  "linkReferences": {},
  "deployedLinkReferences": {}
}